{
  "_format": "hh-sol-artifact-1",
  "contractName": "VaultFactory",
  "sourceName": "contracts/VaultFactory.sol",
  "abi": [
    {
      "inputs": [
        {
          "internalType": "contract IAuthorizer",
          "name": "authorizer",
          "type": "address"
        },
        {
          "internalType": "uint32",
          "name": "pauseWindowDuration",
          "type": "uint32"
        },
        {
          "internalType": "uint32",
          "name": "bufferPeriodDuration",
          "type": "uint32"
        },
        {
          "internalType": "uint256",
          "name": "minTradeAmount",
          "type": "uint256"
        },
        {
          "internalType": "uint256",
          "name": "minWrapAmount",
          "type": "uint256"
        },
        {
          "internalType": "bytes32",
          "name": "vaultCreationCodeHash_",
          "type": "bytes32"
        },
        {
          "internalType": "bytes32",
          "name": "vaultExtensionCreationCodeHash_",
          "type": "bytes32"
        },
        {
          "internalType": "bytes32",
          "name": "vaultAdminCreationCodeHash_",
          "type": "bytes32"
        }
      ],
      "stateMutability": "nonpayable",
      "type": "constructor"
    },
    {
      "inputs": [],
      "name": "Create2EmptyBytecode",
      "type": "error"
    },
    {
      "inputs": [],
      "name": "Create2FailedDeployment",
      "type": "error"
    },
    {
      "inputs": [
        {
          "internalType": "uint256",
          "name": "balance",
          "type": "uint256"
        },
        {
          "internalType": "uint256",
          "name": "needed",
          "type": "uint256"
        }
      ],
      "name": "Create2InsufficientBalance",
      "type": "error"
    },
    {
      "inputs": [
        {
          "internalType": "string",
          "name": "contractName",
          "type": "string"
        }
      ],
      "name": "InvalidBytecode",
      "type": "error"
    },
    {
      "inputs": [],
      "name": "InvalidProtocolFeeController",
      "type": "error"
    },
    {
      "inputs": [
        {
          "internalType": "address",
          "name": "owner",
          "type": "address"
        }
      ],
      "name": "OwnableInvalidOwner",
      "type": "error"
    },
    {
      "inputs": [
        {
          "internalType": "address",
          "name": "account",
          "type": "address"
        }
      ],
      "name": "OwnableUnauthorizedAccount",
      "type": "error"
    },
    {
      "inputs": [],
      "name": "ReentrancyGuardReentrantCall",
      "type": "error"
    },
    {
      "inputs": [],
      "name": "VaultAddressMismatch",
      "type": "error"
    },
    {
      "inputs": [
        {
          "internalType": "address",
          "name": "vault",
          "type": "address"
        }
      ],
      "name": "VaultAlreadyDeployed",
      "type": "error"
    },
    {
      "anonymous": false,
      "inputs": [
        {
          "indexed": true,
          "internalType": "address",
          "name": "previousOwner",
          "type": "address"
        },
        {
          "indexed": true,
          "internalType": "address",
          "name": "newOwner",
          "type": "address"
        }
      ],
      "name": "OwnershipTransferStarted",
      "type": "event"
    },
    {
      "anonymous": false,
      "inputs": [
        {
          "indexed": true,
          "internalType": "address",
          "name": "previousOwner",
          "type": "address"
        },
        {
          "indexed": true,
          "internalType": "address",
          "name": "newOwner",
          "type": "address"
        }
      ],
      "name": "OwnershipTransferred",
      "type": "event"
    },
    {
      "anonymous": false,
      "inputs": [
        {
          "indexed": false,
          "internalType": "address",
          "name": "vault",
          "type": "address"
        }
      ],
      "name": "VaultCreated",
      "type": "event"
    },
    {
      "inputs": [],
      "name": "acceptOwnership",
      "outputs": [],
      "stateMutability": "nonpayable",
      "type": "function"
    },
    {
      "inputs": [
        {
          "internalType": "bytes32",
          "name": "salt",
          "type": "bytes32"
        },
        {
          "internalType": "address",
          "name": "targetAddress",
          "type": "address"
        },
        {
          "internalType": "contract IProtocolFeeController",
          "name": "protocolFeeController",
          "type": "address"
        },
        {
          "internalType": "bytes",
          "name": "vaultCreationCode",
          "type": "bytes"
        },
        {
          "internalType": "bytes",
          "name": "vaultExtensionCreationCode",
          "type": "bytes"
        },
        {
          "internalType": "bytes",
          "name": "vaultAdminCreationCode",
          "type": "bytes"
        }
      ],
      "name": "create",
      "outputs": [],
      "stateMutability": "nonpayable",
      "type": "function"
    },
    {
      "inputs": [
        {
          "internalType": "address",
          "name": "vaultAddress",
          "type": "address"
        }
      ],
      "name": "deployedVaultAdmins",
      "outputs": [
        {
          "internalType": "contract VaultAdmin",
          "name": "",
          "type": "address"
        }
      ],
      "stateMutability": "view",
      "type": "function"
    },
    {
      "inputs": [
        {
          "internalType": "address",
          "name": "vaultAddress",
          "type": "address"
        }
      ],
      "name": "deployedVaultExtensions",
      "outputs": [
        {
          "internalType": "contract VaultExtension",
          "name": "",
          "type": "address"
        }
      ],
      "stateMutability": "view",
      "type": "function"
    },
    {
      "inputs": [
        {
          "internalType": "bytes32",
          "name": "salt",
          "type": "bytes32"
        }
      ],
      "name": "getDeploymentAddress",
      "outputs": [
        {
          "internalType": "address",
          "name": "",
          "type": "address"
        }
      ],
      "stateMutability": "view",
      "type": "function"
    },
    {
      "inputs": [
        {
          "internalType": "address",
          "name": "vaultAddress",
          "type": "address"
        }
      ],
      "name": "isDeployed",
      "outputs": [
        {
          "internalType": "bool",
          "name": "deployed",
          "type": "bool"
        }
      ],
      "stateMutability": "view",
      "type": "function"
    },
    {
      "inputs": [],
      "name": "owner",
      "outputs": [
        {
          "internalType": "address",
          "name": "",
          "type": "address"
        }
      ],
      "stateMutability": "view",
      "type": "function"
    },
    {
      "inputs": [],
      "name": "pendingOwner",
      "outputs": [
        {
          "internalType": "address",
          "name": "",
          "type": "address"
        }
      ],
      "stateMutability": "view",
      "type": "function"
    },
    {
      "inputs": [],
      "name": "renounceOwnership",
      "outputs": [],
      "stateMutability": "nonpayable",
      "type": "function"
    },
    {
      "inputs": [
        {
          "internalType": "address",
          "name": "newOwner",
          "type": "address"
        }
      ],
      "name": "transferOwnership",
      "outputs": [],
      "stateMutability": "nonpayable",
      "type": "function"
    },
    {
      "inputs": [],
      "name": "vaultAdminCreationCodeHash",
      "outputs": [
        {
          "internalType": "bytes32",
          "name": "",
          "type": "bytes32"
        }
      ],
      "stateMutability": "view",
      "type": "function"
    },
    {
      "inputs": [],
      "name": "vaultCreationCodeHash",
      "outputs": [
        {
          "internalType": "bytes32",
          "name": "",
          "type": "bytes32"
        }
      ],
      "stateMutability": "view",
      "type": "function"
    },
    {
      "inputs": [],
      "name": "vaultExtensionCreationCodeHash",
      "outputs": [
        {
          "internalType": "bytes32",
          "name": "",
          "type": "bytes32"
        }
      ],
      "stateMutability": "view",
      "type": "function"
    }
  ],
  "bytecode": "0x6101803461016a576112ab38819003601f8101601f191683016001600160401b0381118482101761016e578392829160405283396101009283918101031261016a5780516001600160a01b039190828116810361016a5761006260208301610182565b61006e60408401610182565b9060608401519260808501519460a081015160e060c08301519201519033156101575760018060a01b031980600154166001555f549033908216175f55604051993391167f8be0079c531659141344cd1fd0a4f28419497f9722a3daafe3b4186f6b6457e05f80a360805260a05260c05260e05285526101209081526101409182526101609283526111179485610194863960805185818161042d0152610c2b015260a0518581816101c901526104c4015260c051858181610203015261055a015260e0518561086b01525184610600015251836106270152518261064e015251816106740152f35b631e4fbdf760e01b5f525f60045260245ffd5b5f80fd5b634e487b7160e01b5f52604160045260245ffd5b519063ffffffff8216820361016a5756fe60806040526004361015610011575f80fd5b5f3560e01c8063337d401014610d8a578063715018a614610d0557806379ba509714610c4e5780638108101a14610c145780638b79f6bb146102e85780638da5cb5b146102b65780638fb027e31461027057806390184b0214610226578063a65be7d0146101ec578063cfa4dd8d146101b2578063d1b76f871461016c578063e30c3978146101395763f2fde38b146100a8575f80fd5b34610135576020600319360112610135576100c1610dc7565b6100c9610f01565b73ffffffffffffffffffffffffffffffffffffffff80911690817fffffffffffffffffffffffff000000000000000000000000000000000000000060015416176001555f54167f38d16b8cac22d99fc7c124b9cd0de2d3fa1faef420bfe791d8c362d765e227005f80a3005b5f80fd5b34610135575f60031936011261013557602073ffffffffffffffffffffffffffffffffffffffff60015416604051908152f35b3461013557602060031936011261013557602073ffffffffffffffffffffffffffffffffffffffff8061019d610dc7565b165f526002825260405f205416604051908152f35b34610135575f6003193601126101355760206040517f00000000000000000000000000000000000000000000000000000000000000008152f35b34610135575f6003193601126101355760206040517f00000000000000000000000000000000000000000000000000000000000000008152f35b346101355760206003193601126101355773ffffffffffffffffffffffffffffffffffffffff610254610dc7565b165f526004602052602060ff60405f2054166040519015158152f35b3461013557602060031936011261013557602073ffffffffffffffffffffffffffffffffffffffff806102a1610dc7565b165f526003825260405f205416604051908152f35b34610135575f60031936011261013557602073ffffffffffffffffffffffffffffffffffffffff5f5416604051908152f35b346101355760c06003193601126101355760243573ffffffffffffffffffffffffffffffffffffffff811681036101355760443573ffffffffffffffffffffffffffffffffffffffff811681036101355760643567ffffffffffffffff811161013557610359903690600401610dea565b60843567ffffffffffffffff811161013557610379903690600401610dea565b909160a43567ffffffffffffffff81116101355761039b903690600401610dea565b906103a4610f01565b7f9b779b17422d0df92223018b32b4d1fa46e071723d6817e2486d003becc55f005c610bec5760017f9b779b17422d0df92223018b32b4d1fa46e071723d6817e2486d003becc55f005d73ffffffffffffffffffffffffffffffffffffffff88165f52600460205260ff60405f205416610baa57610423368488610ecb565b80516020909101207f0000000000000000000000000000000000000000000000000000000000000000146104af5760646040517fc7f4796e00000000000000000000000000000000000000000000000000000000815260206004820152600560248201527f5661756c740000000000000000000000000000000000000000000000000000006044820152fd5b6104ba368383610ecb565b80516020909101207f0000000000000000000000000000000000000000000000000000000000000000146105465760646040517fc7f4796e00000000000000000000000000000000000000000000000000000000815260206004820152600a60248201527f5661756c7441646d696e000000000000000000000000000000000000000000006044820152fd5b610551368587610ecb565b602081519101207f000000000000000000000000000000000000000000000000000000000000000003610b4c5773ffffffffffffffffffffffffffffffffffffffff61059f30600435610fd9565b1673ffffffffffffffffffffffffffffffffffffffff891603610a045773ffffffffffffffffffffffffffffffffffffffff871615610b24576040519173ffffffffffffffffffffffffffffffffffffffff8916602084015263ffffffff807f00000000000000000000000000000000000000000000000000000000000000001660408501527f00000000000000000000000000000000000000000000000000000000000000001660608401527f000000000000000000000000000000000000000000000000000000000000000060808401527f000000000000000000000000000000000000000000000000000000000000000060a084015260a083528260c081011067ffffffffffffffff60c085011117610af7578261070d6020828460c095610716978773ffffffffffffffffffffffffffffffffffffffff9a0160405260e0840137810160e08101905f825282518092858501905e015f60e082015203808585015201838301610e50565b01600435610f21565b1673ffffffffffffffffffffffffffffffffffffffff87165f52600360205260405f20817fffffffffffffffffffffffff00000000000000000000000000000000000000008254161790556040519073ffffffffffffffffffffffffffffffffffffffff8816602083015260408201526040815280606081011067ffffffffffffffff606083011117610af7576107ff60608261070d6020828882996108d09b8773ffffffffffffffffffffffffffffffffffffffff9a016040526080840137810160808101905f825282518092858501905e015f608082015203808585015201838301610e50565b1673ffffffffffffffffffffffffffffffffffffffff87165f526002835260405f20817fffffffffffffffffffffffff000000000000000000000000000000000000000082541617905573ffffffffffffffffffffffffffffffffffffffff60405196848801928352817f0000000000000000000000000000000000000000000000000000000000000000166040890152166060870152606086526108a386610e18565b60405195828793858501978837830190848201905f8252519283915e015f83820152038085520183610e50565b6108d8610fa0565b8051600435916020015ff59073ffffffffffffffffffffffffffffffffffffffff821615610a99575f9182918261091130600435610fd9565b9551925af13d15610a94573d61092681610e91565b906109346040519283610e50565b81525f60203d92013e5b80610a8a575b15610a2c5773ffffffffffffffffffffffffffffffffffffffff808316911603610a045773ffffffffffffffffffffffffffffffffffffffff907f2e49a5810fda2439a23771848b4acec786b0a64d4de3d124ac57fc8739c3887560206040518484168152a1165f52600460205260405f2060017fffffffffffffffffffffffffffffffffffffffffffffffffffffffffffffff008254161790555f7f9b779b17422d0df92223018b32b4d1fa46e071723d6817e2486d003becc55f005d005b7fb4c1be7b000000000000000000000000000000000000000000000000000000005f5260045ffd5b60646040517f08c379a000000000000000000000000000000000000000000000000000000000815260206004820152601560248201527f494e495449414c495a4154494f4e5f4641494c454400000000000000000000006044820152fd5b50803b1515610944565b61093e565b60646040517f08c379a000000000000000000000000000000000000000000000000000000000815260206004820152601160248201527f4445504c4f594d454e545f4641494c45440000000000000000000000000000006044820152fd5b7f4e487b71000000000000000000000000000000000000000000000000000000005f52604160045260245ffd5b7fd8b6cbcf000000000000000000000000000000000000000000000000000000005f5260045ffd5b60646040517fc7f4796e00000000000000000000000000000000000000000000000000000000815260206004820152600e60248201527f5661756c74457874656e73696f6e0000000000000000000000000000000000006044820152fd5b73ffffffffffffffffffffffffffffffffffffffff887fe254a88b000000000000000000000000000000000000000000000000000000005f521660045260245ffd5b7f3ee5aeb5000000000000000000000000000000000000000000000000000000005f5260045ffd5b34610135575f6003193601126101355760206040517f00000000000000000000000000000000000000000000000000000000000000008152f35b34610135575f6003193601126101355760015473ffffffffffffffffffffffffffffffffffffffff3381831603610cd9577fffffffffffffffffffffffff00000000000000000000000000000000000000008092166001555f549133908316175f553391167f8be0079c531659141344cd1fd0a4f28419497f9722a3daafe3b4186f6b6457e05f80a3005b7f118cdaa7000000000000000000000000000000000000000000000000000000005f523360045260245ffd5b34610135575f60031936011261013557610d1d610f01565b5f73ffffffffffffffffffffffffffffffffffffffff7fffffffffffffffffffffffff0000000000000000000000000000000000000000806001541660015582549081168355167f8be0079c531659141344cd1fd0a4f28419497f9722a3daafe3b4186f6b6457e08280a3005b34610135576020600319360112610135576020610da930600435610fd9565b73ffffffffffffffffffffffffffffffffffffffff60405191168152f35b6004359073ffffffffffffffffffffffffffffffffffffffff8216820361013557565b9181601f840112156101355782359167ffffffffffffffff8311610135576020838186019501011161013557565b6080810190811067ffffffffffffffff821117610af757604052565b6040810190811067ffffffffffffffff821117610af757604052565b90601f7fffffffffffffffffffffffffffffffffffffffffffffffffffffffffffffffe0910116810190811067ffffffffffffffff821117610af757604052565b67ffffffffffffffff8111610af757601f017fffffffffffffffffffffffffffffffffffffffffffffffffffffffffffffffe01660200190565b929192610ed782610e91565b91610ee56040519384610e50565b829481845281830111610135578281602093845f960137010152565b73ffffffffffffffffffffffffffffffffffffffff5f54163303610cd957565b90805115610f78576020815191015ff59073ffffffffffffffffffffffffffffffffffffffff821615610f5057565b7f741752c2000000000000000000000000000000000000000000000000000000005f5260045ffd5b7f4ca249dc000000000000000000000000000000000000000000000000000000005f5260045ffd5b60405190610fad82610e34565b601082527f67363d3d37363d34f03d5260086018f3000000000000000000000000000000006020830152565b9073ffffffffffffffffffffffffffffffffffffffff91610ff8610fa0565b602081519101206040519060208201927fff0000000000000000000000000000000000000000000000000000000000000084527fffffffffffffffffffffffffffffffffffffffff000000000000000000000000809560601b166021840152603583015260558201526055815261106e81610e18565b519020906040519060208201927fd694000000000000000000000000000000000000000000000000000000000000845260601b1660228201527f01000000000000000000000000000000000000000000000000000000000000006036820152601781526110da81610e34565b519020169056fea2646970667358221220760a283e846dd437e6685e1a7eafb733271783a9eb32bf977f153f725193490164736f6c634300081b0033",
  "linkReferences": {},
  "deployedLinkReferences": {}
}