{
  "_format": "hh-sol-artifact-1",
  "contractName": "BalancerFeeBurner",
  "sourceName": "contracts/BalancerFeeBurner.sol",
  "abi": [
    {
      "inputs": [
        {
          "internalType": "contract IVault",
          "name": "vault",
          "type": "address"
        },
        {
          "internalType": "contract IProtocolFeeSweeper",
          "name": "_protocolFeeSweeper",
          "type": "address"
        },
        {
          "internalType": "address",
          "name": "initialOwner",
          "type": "address"
        }
      ],
      "stateMutability": "nonpayable",
      "type": "constructor"
    },
    {
      "inputs": [
        {
          "internalType": "address",
          "name": "target",
          "type": "address"
        }
      ],
      "name": "AddressEmptyCode",
      "type": "error"
    },
    {
      "inputs": [
        {
          "internalType": "address",
          "name": "account",
          "type": "address"
        }
      ],
      "name": "AddressInsufficientBalance",
      "type": "error"
    },
    {
      "inputs": [
        {
          "internalType": "contract IERC20",
          "name": "tokenOut",
          "type": "address"
        },
        {
          "internalType": "uint256",
          "name": "amountOut",
          "type": "uint256"
        },
        {
          "internalType": "uint256",
          "name": "minAmountOut",
          "type": "uint256"
        }
      ],
      "name": "AmountOutBelowMin",
      "type": "error"
    },
    {
      "inputs": [],
      "name": "BurnPathDoesNotExist",
      "type": "error"
    },
    {
      "inputs": [],
      "name": "FailedInnerCall",
      "type": "error"
    },
    {
      "inputs": [],
      "name": "InvalidProtocolFeeSweeper",
      "type": "error"
    },
    {
      "inputs": [
        {
          "internalType": "address",
          "name": "owner",
          "type": "address"
        }
      ],
      "name": "OwnableInvalidOwner",
      "type": "error"
    },
    {
      "inputs": [
        {
          "internalType": "address",
          "name": "account",
          "type": "address"
        }
      ],
      "name": "OwnableUnauthorizedAccount",
      "type": "error"
    },
    {
      "inputs": [],
      "name": "ReentrancyGuardReentrantCall",
      "type": "error"
    },
    {
      "inputs": [
        {
          "internalType": "address",
          "name": "token",
          "type": "address"
        }
      ],
      "name": "SafeERC20FailedOperation",
      "type": "error"
    },
    {
      "inputs": [
        {
          "internalType": "address",
          "name": "sender",
          "type": "address"
        }
      ],
      "name": "SenderIsNotVault",
      "type": "error"
    },
    {
      "inputs": [],
      "name": "SenderNotAllowed",
      "type": "error"
    },
    {
      "inputs": [],
      "name": "SwapDeadline",
      "type": "error"
    },
    {
      "inputs": [],
      "name": "TargetTokenOutMismatch",
      "type": "error"
    },
    {
      "anonymous": false,
      "inputs": [
        {
          "indexed": true,
          "internalType": "address",
          "name": "previousOwner",
          "type": "address"
        },
        {
          "indexed": true,
          "internalType": "address",
          "name": "newOwner",
          "type": "address"
        }
      ],
      "name": "OwnershipTransferStarted",
      "type": "event"
    },
    {
      "anonymous": false,
      "inputs": [
        {
          "indexed": true,
          "internalType": "address",
          "name": "previousOwner",
          "type": "address"
        },
        {
          "indexed": true,
          "internalType": "address",
          "name": "newOwner",
          "type": "address"
        }
      ],
      "name": "OwnershipTransferred",
      "type": "event"
    },
    {
      "anonymous": false,
      "inputs": [
        {
          "indexed": true,
          "internalType": "address",
          "name": "pool",
          "type": "address"
        },
        {
          "indexed": true,
          "internalType": "contract IERC20",
          "name": "feeToken",
          "type": "address"
        },
        {
          "indexed": false,
          "internalType": "uint256",
          "name": "exactFeeTokenAmountIn",
          "type": "uint256"
        },
        {
          "indexed": true,
          "internalType": "contract IERC20",
          "name": "targetToken",
          "type": "address"
        },
        {
          "indexed": false,
          "internalType": "uint256",
          "name": "actualTargetTokenAmountOut",
          "type": "uint256"
        },
        {
          "indexed": false,
          "internalType": "address",
          "name": "recipient",
          "type": "address"
        }
      ],
      "name": "ProtocolFeeBurned",
      "type": "event"
    },
    {
      "inputs": [],
      "name": "acceptOwnership",
      "outputs": [],
      "stateMutability": "nonpayable",
      "type": "function"
    },
    {
      "inputs": [
        {
          "internalType": "address",
          "name": "pool",
          "type": "address"
        },
        {
          "internalType": "contract IERC20",
          "name": "feeToken",
          "type": "address"
        },
        {
          "internalType": "uint256",
          "name": "feeTokenAmount",
          "type": "uint256"
        },
        {
          "internalType": "contract IERC20",
          "name": "targetToken",
          "type": "address"
        },
        {
          "internalType": "uint256",
          "name": "minAmountOut",
          "type": "uint256"
        },
        {
          "internalType": "address",
          "name": "recipient",
          "type": "address"
        },
        {
          "internalType": "uint256",
          "name": "deadline",
          "type": "uint256"
        }
      ],
      "name": "burn",
      "outputs": [],
      "stateMutability": "nonpayable",
      "type": "function"
    },
    {
      "inputs": [
        {
          "components": [
            {
              "internalType": "address",
              "name": "pool",
              "type": "address"
            },
            {
              "internalType": "address",
              "name": "sender",
              "type": "address"
            },
            {
              "internalType": "contract IERC20",
              "name": "feeToken",
              "type": "address"
            },
            {
              "internalType": "uint256",
              "name": "feeTokenAmount",
              "type": "uint256"
            },
            {
              "internalType": "contract IERC20",
              "name": "targetToken",
              "type": "address"
            },
            {
              "internalType": "uint256",
              "name": "minAmountOut",
              "type": "uint256"
            },
            {
              "internalType": "address",
              "name": "recipient",
              "type": "address"
            },
            {
              "internalType": "uint256",
              "name": "deadline",
              "type": "uint256"
            }
          ],
          "internalType": "struct IBalancerFeeBurner.BurnHookParams",
          "name": "params",
          "type": "tuple"
        }
      ],
      "name": "burnHook",
      "outputs": [],
      "stateMutability": "nonpayable",
      "type": "function"
    },
    {
      "inputs": [
        {
          "internalType": "contract IERC20",
          "name": "feeToken",
          "type": "address"
        }
      ],
      "name": "getBurnPath",
      "outputs": [
        {
          "components": [
            {
              "internalType": "address",
              "name": "pool",
              "type": "address"
            },
            {
              "internalType": "contract IERC20",
              "name": "tokenOut",
              "type": "address"
            }
          ],
          "internalType": "struct IBalancerFeeBurner.SwapPathStep[]",
          "name": "steps",
          "type": "tuple[]"
        }
      ],
      "stateMutability": "view",
      "type": "function"
    },
    {
      "inputs": [],
      "name": "owner",
      "outputs": [
        {
          "internalType": "address",
          "name": "",
          "type": "address"
        }
      ],
      "stateMutability": "view",
      "type": "function"
    },
    {
      "inputs": [],
      "name": "pendingOwner",
      "outputs": [
        {
          "internalType": "address",
          "name": "",
          "type": "address"
        }
      ],
      "stateMutability": "view",
      "type": "function"
    },
    {
      "inputs": [],
      "name": "protocolFeeSweeper",
      "outputs": [
        {
          "internalType": "contract IProtocolFeeSweeper",
          "name": "",
          "type": "address"
        }
      ],
      "stateMutability": "view",
      "type": "function"
    },
    {
      "inputs": [],
      "name": "renounceOwnership",
      "outputs": [],
      "stateMutability": "nonpayable",
      "type": "function"
    },
    {
      "inputs": [
        {
          "internalType": "contract IERC20",
          "name": "feeToken",
          "type": "address"
        },
        {
          "components": [
            {
              "internalType": "address",
              "name": "pool",
              "type": "address"
            },
            {
              "internalType": "contract IERC20",
              "name": "tokenOut",
              "type": "address"
            }
          ],
          "internalType": "struct IBalancerFeeBurner.SwapPathStep[]",
          "name": "steps",
          "type": "tuple[]"
        }
      ],
      "name": "setBurnPath",
      "outputs": [],
      "stateMutability": "nonpayable",
      "type": "function"
    },
    {
      "inputs": [
        {
          "internalType": "address",
          "name": "newOwner",
          "type": "address"
        }
      ],
      "name": "transferOwnership",
      "outputs": [],
      "stateMutability": "nonpayable",
      "type": "function"
    }
  ],
  "bytecode": "0x60c03461013e57601f61174038819003918201601f19168301916001600160401b038311848410176101425780849260609460405283398101031261013e5780516001600160a01b0391828216820361013e576020810151918383169182840361013e57604001519084821680920361013e57608052801561012b5760018060a01b0319938460015416600155815f54958616175f5560405194167f8be0079c531659141344cd1fd0a4f28419497f9722a3daafe3b4186f6b6457e05f80a31561011c5760a0526115e990816101578239608051818181610623015281816107a20152818161091401528181610a5101528181610c7101528181610d740152610e07015260a0518181816101bd015281816104b201526112960152f35b63932c92a560e01b5f5260045ffd5b631e4fbdf760e01b5f525f60045260245ffd5b5f80fd5b634e487b7160e01b5f52604160045260245ffdfe6080806040526004361015610012575f80fd5b5f905f3560e01c908163178ac96e1461126c57508063715018a6146111e757806379ba5097146111305780638da5cb5b146110fe578063c1cfb02a1461107d578063c66472de1461072e578063de557a3214610456578063e30c397814610422578063e3746cb21461011d5763f2fde38b1461008c575f80fd5b3461011a57602060031936011261011a576100a56112ba565b6100ad6114fa565b73ffffffffffffffffffffffffffffffffffffffff80911690817fffffffffffffffffffffffff000000000000000000000000000000000000000060015416176001558254167f38d16b8cac22d99fc7c124b9cd0de2d3fa1faef420bfe791d8c362d765e227008380a380f35b80fd5b503461011a57604060031936011261011a576101376112ba565b602480359167ffffffffffffffff9182841161041e573660238501121561041e57836004013592831161041e5760069336828560061b8301011161041a5773ffffffffffffffffffffffffffffffffffffffff90604051937f4ccb20c00000000000000000000000000000000000000000000000000000000085526020948581600481877f0000000000000000000000000000000000000000000000000000000000000000165afa801561040f5784918a916103d1575b5016331415806103c4575b61039c57821680885260029060028652604089208054908a815581610318575b5050885b878110610228578980f35b818a5282875260408a20818a1b8501908054680100000000000000008110156102ec576001918282018082558210156102c0578d52898d20600194939291821b019088906102b2906044908361027f878f016113f8565b16947fffffffffffffffffffffffff000000000000000000000000000000000000000095868254161781550194016113f8565b16908254161790550161021d565b898e7f4e487b710000000000000000000000000000000000000000000000000000000081526032600452fd5b888d7f4e487b710000000000000000000000000000000000000000000000000000000081526041600452fd5b6001907f7fffffffffffffffffffffffffffffffffffffffffffffffffffffffffffffff83168303610370578b5283888c209260011b8301925b838110610360575050610219565b8c81558c83820155018490610352565b878c7f4e487b710000000000000000000000000000000000000000000000000000000081526011600452fd5b6004887f23dada53000000000000000000000000000000000000000000000000000000008152fd5b50828854163314156101f9565b809250878092503d8311610408575b6103ea81836112dd565b81010312610404575183811681036104045783905f6101ee565b8880fd5b503d6103e0565b6040513d8b823e3d90fd5b8580fd5b8480fd5b503461011a578060031936011261011a57602073ffffffffffffffffffffffffffffffffffffffff60015416604051908152f35b503461011a5760e060031936011261011a576104706112ba565b6024359073ffffffffffffffffffffffffffffffffffffffff9182811680910361072a5760643583811680910361072a5760a4359284841680940361072a57847f0000000000000000000000000000000000000000000000000000000000000000163303610702576040519061010082019467ffffffffffffffff94838710868811176106d557878097938194604052168452602096879586860192338452604087019081528260608801916044358352608089019384528160a08a0196608435885260c08b019889528160e08c019b60c4358d527fc66472de000000000000000000000000000000000000000000000000000000006040519e8f0152511660248d0152511660448b015251166064890152516084880152511660a48601525160c4850152511660e483015251610104908183015281526101409182820191808310828411176106d55786838197816040527f48c894910000000000000000000000000000000000000000000000000000000082528761014485015281837ffffffffffffffffffffffffffffffffffffffffffffffffffffffffffffffec08661061e6101648201826114b7565b0301927f0000000000000000000000000000000000000000000000000000000000000000165af180156106ca57610653578580f35b3d8087853e61066281856112dd565b81019285828686019503126106c6575191821161041a5701918161015f8401121561041e57820151916101606106978461147d565b926106a560405194856112dd565b84845281858401011161041a578391018483015e010152805f808080808580f35b8680fd5b6040513d88823e3d90fd5b7f4e487b71000000000000000000000000000000000000000000000000000000005f52604160045260245ffd5b6004867f23dada53000000000000000000000000000000000000000000000000000000008152fd5b5f80fd5b503461072a5761010060031936011261072a577f9b779b17422d0df92223018b32b4d1fa46e071723d6817e2486d003becc55f005c6110555760017f9b779b17422d0df92223018b32b4d1fa46e071723d6817e2486d003becc55f005d73ffffffffffffffffffffffffffffffffffffffff7f00000000000000000000000000000000000000000000000000000000000000001633036110295760e43542116110015773ffffffffffffffffffffffffffffffffffffffff604435166044350361072a5760843573ffffffffffffffffffffffffffffffffffffffff8116810361072a5761081d60443561131e565b91825190817fffffffffffffffffffffffffffffffffffffffffffffffffffffffffffffffff810111610fd45773ffffffffffffffffffffffffffffffffffffffff831673ffffffffffffffffffffffffffffffffffffffff60206108a47fffffffffffffffffffffffffffffffffffffffffffffffffffffffffffffffff860188611419565b5101511603610fac5760243573ffffffffffffffffffffffffffffffffffffffff811680910361072a57604051907f23b872dd000000000000000000000000000000000000000000000000000000006020830152602482015273ffffffffffffffffffffffffffffffffffffffff7f00000000000000000000000000000000000000000000000000000000000000001660448201526064356064820152606481528060a081011067ffffffffffffffff60a0830111176106d5575f808260a06109d494016040526020815191018273ffffffffffffffffffffffffffffffffffffffff604435165af13d15610fa4573d9061099e8261147d565b916109ac60405193846112dd565b82523d5f602084013e5b73ffffffffffffffffffffffffffffffffffffffff6044351661151a565b8051908115159182610f80575b5050610f3c576040517f15afd40900000000000000000000000000000000000000000000000000000000815273ffffffffffffffffffffffffffffffffffffffff60443516600482015260643560248201526020816044815f73ffffffffffffffffffffffffffffffffffffffff7f0000000000000000000000000000000000000000000000000000000000000000165af18015610d1357610f0d575b50604435935f916064355b8251841015610d5257610a9c8484611419565b519073ffffffffffffffffffffffffffffffffffffffff8251169073ffffffffffffffffffffffffffffffffffffffff602084015116907fffffffffffffffffffffffffffffffffffffffffffffffffffffffffffffffff880187145f14610d4b5760a435915b6040519384602081011067ffffffffffffffff6020870111176106d557602085016040525f85526040519b8c67ffffffffffffffff60e08281810110920111176106d55773ffffffffffffffffffffffffffffffffffffffff9160208e60e081016040525f815201521660408c015260608b015260808a015260a089015260c0880152604051967f2bfb780c000000000000000000000000000000000000000000000000000000008852602060048901528051906002821015610d1e5788610c5760c08293606095602485015273ffffffffffffffffffffffffffffffffffffffff602082015116604485015273ffffffffffffffffffffffffffffffffffffffff604082015116606485015273ffffffffffffffffffffffffffffffffffffffff86820151166084850152608081015160a485015260a081015160c4850152015160e060e48401526101048301906114b7565b03815f73ffffffffffffffffffffffffffffffffffffffff7f0000000000000000000000000000000000000000000000000000000000000000165af1968715610d13575f97610cc8575b5073ffffffffffffffffffffffffffffffffffffffff602060019201511696930192610a89565b9096506060813d606011610d0b575b81610ce4606093836112dd565b8101031261072a57604001519573ffffffffffffffffffffffffffffffffffffffff610ca1565b3d9150610cd7565b6040513d5f823e3d90fd5b7f4e487b71000000000000000000000000000000000000000000000000000000005f52602160045260245ffd5b5f91610b03565b859087610d5d61145a565b73ffffffffffffffffffffffffffffffffffffffff7f0000000000000000000000000000000000000000000000000000000000000000163b1561072a5773ffffffffffffffffffffffffffffffffffffffff9081604051937fae6393290000000000000000000000000000000000000000000000000000000085521660048401521660248201528160448201525f816064818373ffffffffffffffffffffffffffffffffffffffff7f0000000000000000000000000000000000000000000000000000000000000000165af18015610d1357610ef0575b506004359173ffffffffffffffffffffffffffffffffffffffff831680930361072a5773ffffffffffffffffffffffffffffffffffffffff9081610e7661145a565b604051946064358652602086015216604084015216917f77a7b034dbb42c9087518e95b49c02a17704a521555779f3f9d7f1b26df5ce8d606073ffffffffffffffffffffffffffffffffffffffff6044351693a4807f9b779b17422d0df92223018b32b4d1fa46e071723d6817e2486d003becc55f005d80f35b90925067ffffffffffffffff81116106d5576040525f9183610e34565b6020813d602011610f34575b81610f26602093836112dd565b8101031261072a5751610a7e565b3d9150610f19565b7f5274afe7000000000000000000000000000000000000000000000000000000005f5273ffffffffffffffffffffffffffffffffffffffff6044351660045260245ffd5b819250906020918101031261072a576020015180159081150361072a575f806109e1565b6060906109b6565b7fa682e903000000000000000000000000000000000000000000000000000000005f5260045ffd5b7f4e487b71000000000000000000000000000000000000000000000000000000005f52601160045260245ffd5b7fe08b8af0000000000000000000000000000000000000000000000000000000005f5260045ffd5b7f089676d5000000000000000000000000000000000000000000000000000000005f523360045260245ffd5b7f3ee5aeb5000000000000000000000000000000000000000000000000000000005f5260045ffd5b3461072a5760208060031936011261072a5761109f61109a6112ba565b61131e565b60405190828201838352815180915283604084019201935f5b8281106110c55784840385f35b8551805173ffffffffffffffffffffffffffffffffffffffff9081168652908301511684830152948101946040909301926001016110b8565b3461072a575f60031936011261072a57602073ffffffffffffffffffffffffffffffffffffffff5f5416604051908152f35b3461072a575f60031936011261072a5760015473ffffffffffffffffffffffffffffffffffffffff33818316036111bb577fffffffffffffffffffffffff00000000000000000000000000000000000000008092166001555f549133908316175f553391167f8be0079c531659141344cd1fd0a4f28419497f9722a3daafe3b4186f6b6457e05f80a3005b7f118cdaa7000000000000000000000000000000000000000000000000000000005f523360045260245ffd5b3461072a575f60031936011261072a576111ff6114fa565b5f73ffffffffffffffffffffffffffffffffffffffff7fffffffffffffffffffffffff0000000000000000000000000000000000000000806001541660015582549081168355167f8be0079c531659141344cd1fd0a4f28419497f9722a3daafe3b4186f6b6457e08280a3005b3461072a575f60031936011261072a5760209073ffffffffffffffffffffffffffffffffffffffff7f0000000000000000000000000000000000000000000000000000000000000000168152f35b6004359073ffffffffffffffffffffffffffffffffffffffff8216820361072a57565b90601f7fffffffffffffffffffffffffffffffffffffffffffffffffffffffffffffffe0910116810190811067ffffffffffffffff8211176106d557604052565b9073ffffffffffffffffffffffffffffffffffffffff8092165f52600260206002815260409160405f209485549267ffffffffffffffff968785116106d5579160405197611371838760051b018a6112dd565b8589525f93845282842091838a015b8786106113c15750505050505050505081511561139957565b7ff9aa0315000000000000000000000000000000000000000000000000000000005f5260045ffd5b8851898101818110858211176106d557600192899288928d5285885416815285858901541683820152815201940195019492611380565b3573ffffffffffffffffffffffffffffffffffffffff8116810361072a5790565b805182101561142d5760209160051b010190565b7f4e487b71000000000000000000000000000000000000000000000000000000005f52603260045260245ffd5b60c43573ffffffffffffffffffffffffffffffffffffffff8116810361072a5790565b67ffffffffffffffff81116106d557601f017fffffffffffffffffffffffffffffffffffffffffffffffffffffffffffffffe01660200190565b907fffffffffffffffffffffffffffffffffffffffffffffffffffffffffffffffe0601f602080948051918291828752018686015e5f8582860101520116010190565b73ffffffffffffffffffffffffffffffffffffffff5f541633036111bb57565b90611557575080511561152f57805190602001fd5b7f1425ea42000000000000000000000000000000000000000000000000000000005f5260045ffd5b815115806115aa575b611568575090565b73ffffffffffffffffffffffffffffffffffffffff907f9996b315000000000000000000000000000000000000000000000000000000005f521660045260245ffd5b50803b1561156056fea2646970667358221220df862e29154ce01767e2623cc0385c9bfc7a3cb4b61339102a9591eb69da38d464736f6c634300081b0033",
  "linkReferences": {},
  "deployedLinkReferences": {}
}