{
  "_format": "hh-sol-artifact-1",
  "contractName": "ReClammPool",
  "sourceName": "contracts/ReClammPool.sol",
  "abi": [
    {
      "inputs": [
        {
          "components": [
            {
              "internalType": "string",
              "name": "name",
              "type": "string"
            },
            {
              "internalType": "string",
              "name": "symbol",
              "type": "string"
            },
            {
              "internalType": "string",
              "name": "version",
              "type": "string"
            },
            {
              "internalType": "uint256",
              "name": "priceShiftDailyRate",
              "type": "uint256"
            },
            {
              "internalType": "uint64",
              "name": "centerednessMargin",
              "type": "uint64"
            },
            {
              "internalType": "uint256",
              "name": "initialMinPrice",
              "type": "uint256"
            },
            {
              "internalType": "uint256",
              "name": "initialMaxPrice",
              "type": "uint256"
            },
            {
              "internalType": "uint256",
              "name": "initialTargetPrice",
              "type": "uint256"
            }
          ],
          "internalType": "struct ReClammPoolParams",
          "name": "params",
          "type": "tuple"
        },
        {
          "internalType": "contract IVault",
          "name": "vault",
          "type": "address"
        }
      ],
      "stateMutability": "nonpayable",
      "type": "constructor"
    },
    {
      "inputs": [],
      "name": "AmountOutGreaterThanBalance",
      "type": "error"
    },
    {
      "inputs": [],
      "name": "BalanceRatioExceedsTolerance",
      "type": "error"
    },
    {
      "inputs": [],
      "name": "BaseOutOfBounds",
      "type": "error"
    },
    {
      "inputs": [],
      "name": "ECDSAInvalidSignature",
      "type": "error"
    },
    {
      "inputs": [
        {
          "internalType": "uint256",
          "name": "length",
          "type": "uint256"
        }
      ],
      "name": "ECDSAInvalidSignatureLength",
      "type": "error"
    },
    {
      "inputs": [
        {
          "internalType": "bytes32",
          "name": "s",
          "type": "bytes32"
        }
      ],
      "name": "ECDSAInvalidSignatureS",
      "type": "error"
    },
    {
      "inputs": [
        {
          "internalType": "uint256",
          "name": "deadline",
          "type": "uint256"
        }
      ],
      "name": "ERC2612ExpiredSignature",
      "type": "error"
    },
    {
      "inputs": [
        {
          "internalType": "address",
          "name": "signer",
          "type": "address"
        },
        {
          "internalType": "address",
          "name": "owner",
          "type": "address"
        }
      ],
      "name": "ERC2612InvalidSigner",
      "type": "error"
    },
    {
      "inputs": [],
      "name": "ExponentOutOfBounds",
      "type": "error"
    },
    {
      "inputs": [
        {
          "internalType": "uint256",
          "name": "fourthRootPriceRatioDelta",
          "type": "uint256"
        }
      ],
      "name": "FourthRootPriceRatioDeltaBelowMin",
      "type": "error"
    },
    {
      "inputs": [
        {
          "internalType": "uint256",
          "name": "resolvedStartTime",
          "type": "uint256"
        },
        {
          "internalType": "uint256",
          "name": "endTime",
          "type": "uint256"
        }
      ],
      "name": "GradualUpdateTimeTravel",
      "type": "error"
    },
    {
      "inputs": [
        {
          "internalType": "address",
          "name": "account",
          "type": "address"
        },
        {
          "internalType": "uint256",
          "name": "currentNonce",
          "type": "uint256"
        }
      ],
      "name": "InvalidAccountNonce",
      "type": "error"
    },
    {
      "inputs": [],
      "name": "InvalidCenterednessMargin",
      "type": "error"
    },
    {
      "inputs": [],
      "name": "InvalidExponent",
      "type": "error"
    },
    {
      "inputs": [],
      "name": "InvalidInitialPrice",
      "type": "error"
    },
    {
      "inputs": [],
      "name": "InvalidShortString",
      "type": "error"
    },
    {
      "inputs": [],
      "name": "InvalidStartTime",
      "type": "error"
    },
    {
      "inputs": [],
      "name": "NegativeAmountOut",
      "type": "error"
    },
    {
      "inputs": [],
      "name": "NotImplemented",
      "type": "error"
    },
    {
      "inputs": [],
      "name": "PoolCenterednessTooLow",
      "type": "error"
    },
    {
      "inputs": [],
      "name": "PoolNotInitialized",
      "type": "error"
    },
    {
      "inputs": [],
      "name": "PoolOutsideTargetRange",
      "type": "error"
    },
    {
      "inputs": [],
      "name": "PriceRatioUpdateDurationTooShort",
      "type": "error"
    },
    {
      "inputs": [],
      "name": "PriceShiftDailyRateTooHigh",
      "type": "error"
    },
    {
      "inputs": [],
      "name": "ProductOutOfBounds",
      "type": "error"
    },
    {
      "inputs": [],
      "name": "ReClammPoolBptRateUnsupported",
      "type": "error"
    },
    {
      "inputs": [
        {
          "internalType": "uint8",
          "name": "bits",
          "type": "uint8"
        },
        {
          "internalType": "uint256",
          "name": "value",
          "type": "uint256"
        }
      ],
      "name": "SafeCastOverflowedUintDowncast",
      "type": "error"
    },
    {
      "inputs": [
        {
          "internalType": "uint256",
          "name": "value",
          "type": "uint256"
        }
      ],
      "name": "SafeCastOverflowedUintToInt",
      "type": "error"
    },
    {
      "inputs": [
        {
          "internalType": "address",
          "name": "sender",
          "type": "address"
        }
      ],
      "name": "SenderIsNotVault",
      "type": "error"
    },
    {
      "inputs": [],
      "name": "SenderNotAllowed",
      "type": "error"
    },
    {
      "inputs": [
        {
          "internalType": "string",
          "name": "str",
          "type": "string"
        }
      ],
      "name": "StringTooLong",
      "type": "error"
    },
    {
      "inputs": [],
      "name": "TokenBalanceTooLow",
      "type": "error"
    },
    {
      "inputs": [],
      "name": "VaultIsNotLocked",
      "type": "error"
    },
    {
      "inputs": [],
      "name": "VaultNotSet",
      "type": "error"
    },
    {
      "inputs": [],
      "name": "WrongInitializationPrices",
      "type": "error"
    },
    {
      "inputs": [],
      "name": "ZeroDivision",
      "type": "error"
    },
    {
      "anonymous": false,
      "inputs": [
        {
          "indexed": true,
          "internalType": "address",
          "name": "owner",
          "type": "address"
        },
        {
          "indexed": true,
          "internalType": "address",
          "name": "spender",
          "type": "address"
        },
        {
          "indexed": false,
          "internalType": "uint256",
          "name": "value",
          "type": "uint256"
        }
      ],
      "name": "Approval",
      "type": "event"
    },
    {
      "anonymous": false,
      "inputs": [
        {
          "indexed": false,
          "internalType": "uint256",
          "name": "centerednessMargin",
          "type": "uint256"
        }
      ],
      "name": "CenterednessMarginUpdated",
      "type": "event"
    },
    {
      "anonymous": false,
      "inputs": [],
      "name": "EIP712DomainChanged",
      "type": "event"
    },
    {
      "anonymous": false,
      "inputs": [
        {
          "indexed": false,
          "internalType": "uint32",
          "name": "lastTimestamp",
          "type": "uint32"
        }
      ],
      "name": "LastTimestampUpdated",
      "type": "event"
    },
    {
      "anonymous": false,
      "inputs": [
        {
          "indexed": false,
          "internalType": "uint256",
          "name": "startFourthRootPriceRatio",
          "type": "uint256"
        },
        {
          "indexed": false,
          "internalType": "uint256",
          "name": "endFourthRootPriceRatio",
          "type": "uint256"
        },
        {
          "indexed": false,
          "internalType": "uint256",
          "name": "priceRatioUpdateStartTime",
          "type": "uint256"
        },
        {
          "indexed": false,
          "internalType": "uint256",
          "name": "priceRatioUpdateEndTime",
          "type": "uint256"
        }
      ],
      "name": "PriceRatioStateUpdated",
      "type": "event"
    },
    {
      "anonymous": false,
      "inputs": [
        {
          "indexed": false,
          "internalType": "uint256",
          "name": "priceShiftDailyRate",
          "type": "uint256"
        },
        {
          "indexed": false,
          "internalType": "uint256",
          "name": "priceShiftDailyRateInSeconds",
          "type": "uint256"
        }
      ],
      "name": "PriceShiftDailyRateUpdated",
      "type": "event"
    },
    {
      "anonymous": false,
      "inputs": [
        {
          "indexed": true,
          "internalType": "address",
          "name": "from",
          "type": "address"
        },
        {
          "indexed": true,
          "internalType": "address",
          "name": "to",
          "type": "address"
        },
        {
          "indexed": false,
          "internalType": "uint256",
          "name": "value",
          "type": "uint256"
        }
      ],
      "name": "Transfer",
      "type": "event"
    },
    {
      "anonymous": false,
      "inputs": [
        {
          "indexed": false,
          "internalType": "uint256",
          "name": "virtualBalanceA",
          "type": "uint256"
        },
        {
          "indexed": false,
          "internalType": "uint256",
          "name": "virtualBalanceB",
          "type": "uint256"
        }
      ],
      "name": "VirtualBalancesUpdated",
      "type": "event"
    },
    {
      "inputs": [],
      "name": "DOMAIN_SEPARATOR",
      "outputs": [
        {
          "internalType": "bytes32",
          "name": "",
          "type": "bytes32"
        }
      ],
      "stateMutability": "view",
      "type": "function"
    },
    {
      "inputs": [],
      "name": "PERMIT_TYPEHASH",
      "outputs": [
        {
          "internalType": "bytes32",
          "name": "",
          "type": "bytes32"
        }
      ],
      "stateMutability": "view",
      "type": "function"
    },
    {
      "inputs": [
        {
          "internalType": "address",
          "name": "owner",
          "type": "address"
        },
        {
          "internalType": "address",
          "name": "spender",
          "type": "address"
        }
      ],
      "name": "allowance",
      "outputs": [
        {
          "internalType": "uint256",
          "name": "",
          "type": "uint256"
        }
      ],
      "stateMutability": "view",
      "type": "function"
    },
    {
      "inputs": [
        {
          "internalType": "address",
          "name": "spender",
          "type": "address"
        },
        {
          "internalType": "uint256",
          "name": "amount",
          "type": "uint256"
        }
      ],
      "name": "approve",
      "outputs": [
        {
          "internalType": "bool",
          "name": "",
          "type": "bool"
        }
      ],
      "stateMutability": "nonpayable",
      "type": "function"
    },
    {
      "inputs": [
        {
          "internalType": "address",
          "name": "account",
          "type": "address"
        }
      ],
      "name": "balanceOf",
      "outputs": [
        {
          "internalType": "uint256",
          "name": "",
          "type": "uint256"
        }
      ],
      "stateMutability": "view",
      "type": "function"
    },
    {
      "inputs": [
        {
          "internalType": "uint256[]",
          "name": "",
          "type": "uint256[]"
        },
        {
          "internalType": "uint256",
          "name": "",
          "type": "uint256"
        },
        {
          "internalType": "uint256",
          "name": "",
          "type": "uint256"
        }
      ],
      "name": "computeBalance",
      "outputs": [
        {
          "internalType": "uint256",
          "name": "",
          "type": "uint256"
        }
      ],
      "stateMutability": "pure",
      "type": "function"
    },
    {
      "inputs": [],
      "name": "computeCurrentFourthRootPriceRatio",
      "outputs": [
        {
          "internalType": "uint256",
          "name": "",
          "type": "uint256"
        }
      ],
      "stateMutability": "view",
      "type": "function"
    },
    {
      "inputs": [],
      "name": "computeCurrentPoolCenteredness",
      "outputs": [
        {
          "internalType": "uint256",
          "name": "",
          "type": "uint256"
        }
      ],
      "stateMutability": "view",
      "type": "function"
    },
    {
      "inputs": [],
      "name": "computeCurrentPriceRange",
      "outputs": [
        {
          "internalType": "uint256",
          "name": "minPrice",
          "type": "uint256"
        },
        {
          "internalType": "uint256",
          "name": "maxPrice",
          "type": "uint256"
        }
      ],
      "stateMutability": "view",
      "type": "function"
    },
    {
      "inputs": [],
      "name": "computeCurrentVirtualBalances",
      "outputs": [
        {
          "internalType": "uint256",
          "name": "currentVirtualBalanceA",
          "type": "uint256"
        },
        {
          "internalType": "uint256",
          "name": "currentVirtualBalanceB",
          "type": "uint256"
        },
        {
          "internalType": "bool",
          "name": "changed",
          "type": "bool"
        }
      ],
      "stateMutability": "view",
      "type": "function"
    },
    {
      "inputs": [],
      "name": "computeInitialBalanceRatio",
      "outputs": [
        {
          "internalType": "uint256",
          "name": "balanceRatio",
          "type": "uint256"
        }
      ],
      "stateMutability": "view",
      "type": "function"
    },
    {
      "inputs": [
        {
          "internalType": "uint256[]",
          "name": "balancesScaled18",
          "type": "uint256[]"
        },
        {
          "internalType": "enum Rounding",
          "name": "rounding",
          "type": "uint8"
        }
      ],
      "name": "computeInvariant",
      "outputs": [
        {
          "internalType": "uint256",
          "name": "",
          "type": "uint256"
        }
      ],
      "stateMutability": "view",
      "type": "function"
    },
    {
      "inputs": [],
      "name": "decimals",
      "outputs": [
        {
          "internalType": "uint8",
          "name": "",
          "type": "uint8"
        }
      ],
      "stateMutability": "pure",
      "type": "function"
    },
    {
      "inputs": [],
      "name": "eip712Domain",
      "outputs": [
        {
          "internalType": "bytes1",
          "name": "fields",
          "type": "bytes1"
        },
        {
          "internalType": "string",
          "name": "name",
          "type": "string"
        },
        {
          "internalType": "string",
          "name": "version",
          "type": "string"
        },
        {
          "internalType": "uint256",
          "name": "chainId",
          "type": "uint256"
        },
        {
          "internalType": "address",
          "name": "verifyingContract",
          "type": "address"
        },
        {
          "internalType": "bytes32",
          "name": "salt",
          "type": "bytes32"
        },
        {
          "internalType": "uint256[]",
          "name": "extensions",
          "type": "uint256[]"
        }
      ],
      "stateMutability": "view",
      "type": "function"
    },
    {
      "inputs": [
        {
          "internalType": "address",
          "name": "owner",
          "type": "address"
        },
        {
          "internalType": "address",
          "name": "spender",
          "type": "address"
        },
        {
          "internalType": "uint256",
          "name": "amount",
          "type": "uint256"
        }
      ],
      "name": "emitApproval",
      "outputs": [],
      "stateMutability": "nonpayable",
      "type": "function"
    },
    {
      "inputs": [
        {
          "internalType": "address",
          "name": "from",
          "type": "address"
        },
        {
          "internalType": "address",
          "name": "to",
          "type": "address"
        },
        {
          "internalType": "uint256",
          "name": "amount",
          "type": "uint256"
        }
      ],
      "name": "emitTransfer",
      "outputs": [],
      "stateMutability": "nonpayable",
      "type": "function"
    },
    {
      "inputs": [
        {
          "internalType": "bytes4",
          "name": "selector",
          "type": "bytes4"
        }
      ],
      "name": "getActionId",
      "outputs": [
        {
          "internalType": "bytes32",
          "name": "",
          "type": "bytes32"
        }
      ],
      "stateMutability": "view",
      "type": "function"
    },
    {
      "inputs": [],
      "name": "getAggregateFeePercentages",
      "outputs": [
        {
          "internalType": "uint256",
          "name": "aggregateSwapFeePercentage",
          "type": "uint256"
        },
        {
          "internalType": "uint256",
          "name": "aggregateYieldFeePercentage",
          "type": "uint256"
        }
      ],
      "stateMutability": "view",
      "type": "function"
    },
    {
      "inputs": [],
      "name": "getCenterednessMargin",
      "outputs": [
        {
          "internalType": "uint256",
          "name": "",
          "type": "uint256"
        }
      ],
      "stateMutability": "view",
      "type": "function"
    },
    {
      "inputs": [],
      "name": "getCurrentLiveBalances",
      "outputs": [
        {
          "internalType": "uint256[]",
          "name": "balancesLiveScaled18",
          "type": "uint256[]"
        }
      ],
      "stateMutability": "view",
      "type": "function"
    },
    {
      "inputs": [],
      "name": "getHookFlags",
      "outputs": [
        {
          "components": [
            {
              "internalType": "bool",
              "name": "enableHookAdjustedAmounts",
              "type": "bool"
            },
            {
              "internalType": "bool",
              "name": "shouldCallBeforeInitialize",
              "type": "bool"
            },
            {
              "internalType": "bool",
              "name": "shouldCallAfterInitialize",
              "type": "bool"
            },
            {
              "internalType": "bool",
              "name": "shouldCallComputeDynamicSwapFee",
              "type": "bool"
            },
            {
              "internalType": "bool",
              "name": "shouldCallBeforeSwap",
              "type": "bool"
            },
            {
              "internalType": "bool",
              "name": "shouldCallAfterSwap",
              "type": "bool"
            },
            {
              "internalType": "bool",
              "name": "shouldCallBeforeAddLiquidity",
              "type": "bool"
            },
            {
              "internalType": "bool",
              "name": "shouldCallAfterAddLiquidity",
              "type": "bool"
            },
            {
              "internalType": "bool",
              "name": "shouldCallBeforeRemoveLiquidity",
              "type": "bool"
            },
            {
              "internalType": "bool",
              "name": "shouldCallAfterRemoveLiquidity",
              "type": "bool"
            }
          ],
          "internalType": "struct HookFlags",
          "name": "hookFlags",
          "type": "tuple"
        }
      ],
      "stateMutability": "pure",
      "type": "function"
    },
    {
      "inputs": [],
      "name": "getLastTimestamp",
      "outputs": [
        {
          "internalType": "uint32",
          "name": "",
          "type": "uint32"
        }
      ],
      "stateMutability": "view",
      "type": "function"
    },
    {
      "inputs": [],
      "name": "getLastVirtualBalances",
      "outputs": [
        {
          "internalType": "uint256",
          "name": "virtualBalanceA",
          "type": "uint256"
        },
        {
          "internalType": "uint256",
          "name": "virtualBalanceB",
          "type": "uint256"
        }
      ],
      "stateMutability": "view",
      "type": "function"
    },
    {
      "inputs": [],
      "name": "getMaximumInvariantRatio",
      "outputs": [
        {
          "internalType": "uint256",
          "name": "",
          "type": "uint256"
        }
      ],
      "stateMutability": "pure",
      "type": "function"
    },
    {
      "inputs": [],
      "name": "getMaximumSwapFeePercentage",
      "outputs": [
        {
          "internalType": "uint256",
          "name": "",
          "type": "uint256"
        }
      ],
      "stateMutability": "pure",
      "type": "function"
    },
    {
      "inputs": [],
      "name": "getMinimumInvariantRatio",
      "outputs": [
        {
          "internalType": "uint256",
          "name": "",
          "type": "uint256"
        }
      ],
      "stateMutability": "pure",
      "type": "function"
    },
    {
      "inputs": [],
      "name": "getMinimumSwapFeePercentage",
      "outputs": [
        {
          "internalType": "uint256",
          "name": "",
          "type": "uint256"
        }
      ],
      "stateMutability": "pure",
      "type": "function"
    },
    {
      "inputs": [],
      "name": "getPriceRatioState",
      "outputs": [
        {
          "components": [
            {
              "internalType": "uint96",
              "name": "startFourthRootPriceRatio",
              "type": "uint96"
            },
            {
              "internalType": "uint96",
              "name": "endFourthRootPriceRatio",
              "type": "uint96"
            },
            {
              "internalType": "uint32",
              "name": "priceRatioUpdateStartTime",
              "type": "uint32"
            },
            {
              "internalType": "uint32",
              "name": "priceRatioUpdateEndTime",
              "type": "uint32"
            }
          ],
          "internalType": "struct PriceRatioState",
          "name": "",
          "type": "tuple"
        }
      ],
      "stateMutability": "view",
      "type": "function"
    },
    {
      "inputs": [],
      "name": "getPriceShiftDailyRateInSeconds",
      "outputs": [
        {
          "internalType": "uint256",
          "name": "",
          "type": "uint256"
        }
      ],
      "stateMutability": "view",
      "type": "function"
    },
    {
      "inputs": [],
      "name": "getRate",
      "outputs": [
        {
          "internalType": "uint256",
          "name": "",
          "type": "uint256"
        }
      ],
      "stateMutability": "pure",
      "type": "function"
    },
    {
      "inputs": [],
      "name": "getReClammPoolDynamicData",
      "outputs": [
        {
          "components": [
            {
              "internalType": "uint256[]",
              "name": "balancesLiveScaled18",
              "type": "uint256[]"
            },
            {
              "internalType": "uint256[]",
              "name": "tokenRates",
              "type": "uint256[]"
            },
            {
              "internalType": "uint256",
              "name": "staticSwapFeePercentage",
              "type": "uint256"
            },
            {
              "internalType": "uint256",
              "name": "totalSupply",
              "type": "uint256"
            },
            {
              "internalType": "uint256",
              "name": "lastTimestamp",
              "type": "uint256"
            },
            {
              "internalType": "uint256[]",
              "name": "lastVirtualBalances",
              "type": "uint256[]"
            },
            {
              "internalType": "uint256",
              "name": "priceShiftDailyRateInSeconds",
              "type": "uint256"
            },
            {
              "internalType": "uint256",
              "name": "centerednessMargin",
              "type": "uint256"
            },
            {
              "internalType": "uint256",
              "name": "currentFourthRootPriceRatio",
              "type": "uint256"
            },
            {
              "internalType": "uint256",
              "name": "startFourthRootPriceRatio",
              "type": "uint256"
            },
            {
              "internalType": "uint256",
              "name": "endFourthRootPriceRatio",
              "type": "uint256"
            },
            {
              "internalType": "uint32",
              "name": "priceRatioUpdateStartTime",
              "type": "uint32"
            },
            {
              "internalType": "uint32",
              "name": "priceRatioUpdateEndTime",
              "type": "uint32"
            },
            {
              "internalType": "bool",
              "name": "isPoolInitialized",
              "type": "bool"
            },
            {
              "internalType": "bool",
              "name": "isPoolPaused",
              "type": "bool"
            },
            {
              "internalType": "bool",
              "name": "isPoolInRecoveryMode",
              "type": "bool"
            }
          ],
          "internalType": "struct ReClammPoolDynamicData",
          "name": "data",
          "type": "tuple"
        }
      ],
      "stateMutability": "view",
      "type": "function"
    },
    {
      "inputs": [],
      "name": "getReClammPoolImmutableData",
      "outputs": [
        {
          "components": [
            {
              "internalType": "contract IERC20[]",
              "name": "tokens",
              "type": "address[]"
            },
            {
              "internalType": "uint256[]",
              "name": "decimalScalingFactors",
              "type": "uint256[]"
            },
            {
              "internalType": "uint256",
              "name": "initialMinPrice",
              "type": "uint256"
            },
            {
              "internalType": "uint256",
              "name": "initialMaxPrice",
              "type": "uint256"
            },
            {
              "internalType": "uint256",
              "name": "initialTargetPrice",
              "type": "uint256"
            },
            {
              "internalType": "uint256",
              "name": "initialPriceShiftDailyRate",
              "type": "uint256"
            },
            {
              "internalType": "uint256",
              "name": "initialCenterednessMargin",
              "type": "uint256"
            },
            {
              "internalType": "uint256",
              "name": "minCenterednessMargin",
              "type": "uint256"
            },
            {
              "internalType": "uint256",
              "name": "maxCenterednessMargin",
              "type": "uint256"
            },
            {
              "internalType": "uint256",
              "name": "minTokenBalanceScaled18",
              "type": "uint256"
            },
            {
              "internalType": "uint256",
              "name": "minPoolCenteredness",
              "type": "uint256"
            },
            {
              "internalType": "uint256",
              "name": "maxPriceShiftDailyRate",
              "type": "uint256"
            },
            {
              "internalType": "uint256",
              "name": "minPriceRatioUpdateDuration",
              "type": "uint256"
            },
            {
              "internalType": "uint256",
              "name": "minFourthRootPriceRatioDelta",
              "type": "uint256"
            }
          ],
          "internalType": "struct ReClammPoolImmutableData",
          "name": "data",
          "type": "tuple"
        }
      ],
      "stateMutability": "view",
      "type": "function"
    },
    {
      "inputs": [],
      "name": "getStaticSwapFeePercentage",
      "outputs": [
        {
          "internalType": "uint256",
          "name": "",
          "type": "uint256"
        }
      ],
      "stateMutability": "view",
      "type": "function"
    },
    {
      "inputs": [],
      "name": "getTokenInfo",
      "outputs": [
        {
          "internalType": "contract IERC20[]",
          "name": "tokens",
          "type": "address[]"
        },
        {
          "components": [
            {
              "internalType": "enum TokenType",
              "name": "tokenType",
              "type": "uint8"
            },
            {
              "internalType": "contract IRateProvider",
              "name": "rateProvider",
              "type": "address"
            },
            {
              "internalType": "bool",
              "name": "paysYieldFees",
              "type": "bool"
            }
          ],
          "internalType": "struct TokenInfo[]",
          "name": "tokenInfo",
          "type": "tuple[]"
        },
        {
          "internalType": "uint256[]",
          "name": "balancesRaw",
          "type": "uint256[]"
        },
        {
          "internalType": "uint256[]",
          "name": "lastBalancesLiveScaled18",
          "type": "uint256[]"
        }
      ],
      "stateMutability": "view",
      "type": "function"
    },
    {
      "inputs": [],
      "name": "getTokens",
      "outputs": [
        {
          "internalType": "contract IERC20[]",
          "name": "tokens",
          "type": "address[]"
        }
      ],
      "stateMutability": "view",
      "type": "function"
    },
    {
      "inputs": [],
      "name": "getVault",
      "outputs": [
        {
          "internalType": "contract IVault",
          "name": "",
          "type": "address"
        }
      ],
      "stateMutability": "view",
      "type": "function"
    },
    {
      "inputs": [],
      "name": "incrementNonce",
      "outputs": [],
      "stateMutability": "nonpayable",
      "type": "function"
    },
    {
      "inputs": [],
      "name": "isPoolWithinTargetRange",
      "outputs": [
        {
          "internalType": "bool",
          "name": "",
          "type": "bool"
        }
      ],
      "stateMutability": "view",
      "type": "function"
    },
    {
      "inputs": [],
      "name": "name",
      "outputs": [
        {
          "internalType": "string",
          "name": "",
          "type": "string"
        }
      ],
      "stateMutability": "view",
      "type": "function"
    },
    {
      "inputs": [
        {
          "internalType": "address",
          "name": "owner",
          "type": "address"
        }
      ],
      "name": "nonces",
      "outputs": [
        {
          "internalType": "uint256",
          "name": "",
          "type": "uint256"
        }
      ],
      "stateMutability": "view",
      "type": "function"
    },
    {
      "inputs": [
        {
          "internalType": "address",
          "name": "",
          "type": "address"
        },
        {
          "internalType": "address",
          "name": "",
          "type": "address"
        },
        {
          "internalType": "enum AddLiquidityKind",
          "name": "",
          "type": "uint8"
        },
        {
          "internalType": "uint256[]",
          "name": "",
          "type": "uint256[]"
        },
        {
          "internalType": "uint256[]",
          "name": "amountsInRaw",
          "type": "uint256[]"
        },
        {
          "internalType": "uint256",
          "name": "",
          "type": "uint256"
        },
        {
          "internalType": "uint256[]",
          "name": "",
          "type": "uint256[]"
        },
        {
          "internalType": "bytes",
          "name": "",
          "type": "bytes"
        }
      ],
      "name": "onAfterAddLiquidity",
      "outputs": [
        {
          "internalType": "bool",
          "name": "",
          "type": "bool"
        },
        {
          "internalType": "uint256[]",
          "name": "",
          "type": "uint256[]"
        }
      ],
      "stateMutability": "nonpayable",
      "type": "function"
    },
    {
      "inputs": [
        {
          "internalType": "uint256[]",
          "name": "",
          "type": "uint256[]"
        },
        {
          "internalType": "uint256",
          "name": "",
          "type": "uint256"
        },
        {
          "internalType": "bytes",
          "name": "",
          "type": "bytes"
        }
      ],
      "name": "onAfterInitialize",
      "outputs": [
        {
          "internalType": "bool",
          "name": "",
          "type": "bool"
        }
      ],
      "stateMutability": "nonpayable",
      "type": "function"
    },
    {
      "inputs": [
        {
          "internalType": "address",
          "name": "",
          "type": "address"
        },
        {
          "internalType": "address",
          "name": "",
          "type": "address"
        },
        {
          "internalType": "enum RemoveLiquidityKind",
          "name": "",
          "type": "uint8"
        },
        {
          "internalType": "uint256",
          "name": "",
          "type": "uint256"
        },
        {
          "internalType": "uint256[]",
          "name": "",
          "type": "uint256[]"
        },
        {
          "internalType": "uint256[]",
          "name": "amountsOutRaw",
          "type": "uint256[]"
        },
        {
          "internalType": "uint256[]",
          "name": "",
          "type": "uint256[]"
        },
        {
          "internalType": "bytes",
          "name": "",
          "type": "bytes"
        }
      ],
      "name": "onAfterRemoveLiquidity",
      "outputs": [
        {
          "internalType": "bool",
          "name": "",
          "type": "bool"
        },
        {
          "internalType": "uint256[]",
          "name": "",
          "type": "uint256[]"
        }
      ],
      "stateMutability": "nonpayable",
      "type": "function"
    },
    {
      "inputs": [
        {
          "components": [
            {
              "internalType": "enum SwapKind",
              "name": "kind",
              "type": "uint8"
            },
            {
              "internalType": "contract IERC20",
              "name": "tokenIn",
              "type": "address"
            },
            {
              "internalType": "contract IERC20",
              "name": "tokenOut",
              "type": "address"
            },
            {
              "internalType": "uint256",
              "name": "amountInScaled18",
              "type": "uint256"
            },
            {
              "internalType": "uint256",
              "name": "amountOutScaled18",
              "type": "uint256"
            },
            {
              "internalType": "uint256",
              "name": "tokenInBalanceScaled18",
              "type": "uint256"
            },
            {
              "internalType": "uint256",
              "name": "tokenOutBalanceScaled18",
              "type": "uint256"
            },
            {
              "internalType": "uint256",
              "name": "amountCalculatedScaled18",
              "type": "uint256"
            },
            {
              "internalType": "uint256",
              "name": "amountCalculatedRaw",
              "type": "uint256"
            },
            {
              "internalType": "address",
              "name": "router",
              "type": "address"
            },
            {
              "internalType": "address",
              "name": "pool",
              "type": "address"
            },
            {
              "internalType": "bytes",
              "name": "userData",
              "type": "bytes"
            }
          ],
          "internalType": "struct AfterSwapParams",
          "name": "",
          "type": "tuple"
        }
      ],
      "name": "onAfterSwap",
      "outputs": [
        {
          "internalType": "bool",
          "name": "",
          "type": "bool"
        },
        {
          "internalType": "uint256",
          "name": "",
          "type": "uint256"
        }
      ],
      "stateMutability": "nonpayable",
      "type": "function"
    },
    {
      "inputs": [
        {
          "internalType": "address",
          "name": "",
          "type": "address"
        },
        {
          "internalType": "address",
          "name": "pool",
          "type": "address"
        },
        {
          "internalType": "enum AddLiquidityKind",
          "name": "",
          "type": "uint8"
        },
        {
          "internalType": "uint256[]",
          "name": "",
          "type": "uint256[]"
        },
        {
          "internalType": "uint256",
          "name": "minBptAmountOut",
          "type": "uint256"
        },
        {
          "internalType": "uint256[]",
          "name": "balancesScaled18",
          "type": "uint256[]"
        },
        {
          "internalType": "bytes",
          "name": "",
          "type": "bytes"
        }
      ],
      "name": "onBeforeAddLiquidity",
      "outputs": [
        {
          "internalType": "bool",
          "name": "",
          "type": "bool"
        }
      ],
      "stateMutability": "nonpayable",
      "type": "function"
    },
    {
      "inputs": [
        {
          "internalType": "uint256[]",
          "name": "balancesScaled18",
          "type": "uint256[]"
        },
        {
          "internalType": "bytes",
          "name": "",
          "type": "bytes"
        }
      ],
      "name": "onBeforeInitialize",
      "outputs": [
        {
          "internalType": "bool",
          "name": "",
          "type": "bool"
        }
      ],
      "stateMutability": "nonpayable",
      "type": "function"
    },
    {
      "inputs": [
        {
          "internalType": "address",
          "name": "",
          "type": "address"
        },
        {
          "internalType": "address",
          "name": "pool",
          "type": "address"
        },
        {
          "internalType": "enum RemoveLiquidityKind",
          "name": "",
          "type": "uint8"
        },
        {
          "internalType": "uint256",
          "name": "maxBptAmountIn",
          "type": "uint256"
        },
        {
          "internalType": "uint256[]",
          "name": "",
          "type": "uint256[]"
        },
        {
          "internalType": "uint256[]",
          "name": "balancesScaled18",
          "type": "uint256[]"
        },
        {
          "internalType": "bytes",
          "name": "",
          "type": "bytes"
        }
      ],
      "name": "onBeforeRemoveLiquidity",
      "outputs": [
        {
          "internalType": "bool",
          "name": "",
          "type": "bool"
        }
      ],
      "stateMutability": "nonpayable",
      "type": "function"
    },
    {
      "inputs": [
        {
          "components": [
            {
              "internalType": "enum SwapKind",
              "name": "kind",
              "type": "uint8"
            },
            {
              "internalType": "uint256",
              "name": "amountGivenScaled18",
              "type": "uint256"
            },
            {
              "internalType": "uint256[]",
              "name": "balancesScaled18",
              "type": "uint256[]"
            },
            {
              "internalType": "uint256",
              "name": "indexIn",
              "type": "uint256"
            },
            {
              "internalType": "uint256",
              "name": "indexOut",
              "type": "uint256"
            },
            {
              "internalType": "address",
              "name": "router",
              "type": "address"
            },
            {
              "internalType": "bytes",
              "name": "userData",
              "type": "bytes"
            }
          ],
          "internalType": "struct PoolSwapParams",
          "name": "",
          "type": "tuple"
        },
        {
          "internalType": "address",
          "name": "",
          "type": "address"
        }
      ],
      "name": "onBeforeSwap",
      "outputs": [
        {
          "internalType": "bool",
          "name": "",
          "type": "bool"
        }
      ],
      "stateMutability": "nonpayable",
      "type": "function"
    },
    {
      "inputs": [
        {
          "components": [
            {
              "internalType": "enum SwapKind",
              "name": "kind",
              "type": "uint8"
            },
            {
              "internalType": "uint256",
              "name": "amountGivenScaled18",
              "type": "uint256"
            },
            {
              "internalType": "uint256[]",
              "name": "balancesScaled18",
              "type": "uint256[]"
            },
            {
              "internalType": "uint256",
              "name": "indexIn",
              "type": "uint256"
            },
            {
              "internalType": "uint256",
              "name": "indexOut",
              "type": "uint256"
            },
            {
              "internalType": "address",
              "name": "router",
              "type": "address"
            },
            {
              "internalType": "bytes",
              "name": "userData",
              "type": "bytes"
            }
          ],
          "internalType": "struct PoolSwapParams",
          "name": "",
          "type": "tuple"
        },
        {
          "internalType": "address",
          "name": "",
          "type": "address"
        },
        {
          "internalType": "uint256",
          "name": "",
          "type": "uint256"
        }
      ],
      "name": "onComputeDynamicSwapFeePercentage",
      "outputs": [
        {
          "internalType": "bool",
          "name": "",
          "type": "bool"
        },
        {
          "internalType": "uint256",
          "name": "",
          "type": "uint256"
        }
      ],
      "stateMutability": "view",
      "type": "function"
    },
    {
      "inputs": [
        {
          "internalType": "address",
          "name": "",
          "type": "address"
        },
        {
          "internalType": "address",
          "name": "",
          "type": "address"
        },
        {
          "components": [
            {
              "internalType": "contract IERC20",
              "name": "token",
              "type": "address"
            },
            {
              "internalType": "enum TokenType",
              "name": "tokenType",
              "type": "uint8"
            },
            {
              "internalType": "contract IRateProvider",
              "name": "rateProvider",
              "type": "address"
            },
            {
              "internalType": "bool",
              "name": "paysYieldFees",
              "type": "bool"
            }
          ],
          "internalType": "struct TokenConfig[]",
          "name": "tokenConfig",
          "type": "tuple[]"
        },
        {
          "components": [
            {
              "internalType": "bool",
              "name": "disableUnbalancedLiquidity",
              "type": "bool"
            },
            {
              "internalType": "bool",
              "name": "enableAddLiquidityCustom",
              "type": "bool"
            },
            {
              "internalType": "bool",
              "name": "enableRemoveLiquidityCustom",
              "type": "bool"
            },
            {
              "internalType": "bool",
              "name": "enableDonation",
              "type": "bool"
            }
          ],
          "internalType": "struct LiquidityManagement",
          "name": "liquidityManagement",
          "type": "tuple"
        }
      ],
      "name": "onRegister",
      "outputs": [
        {
          "internalType": "bool",
          "name": "",
          "type": "bool"
        }
      ],
      "stateMutability": "view",
      "type": "function"
    },
    {
      "inputs": [
        {
          "components": [
            {
              "internalType": "enum SwapKind",
              "name": "kind",
              "type": "uint8"
            },
            {
              "internalType": "uint256",
              "name": "amountGivenScaled18",
              "type": "uint256"
            },
            {
              "internalType": "uint256[]",
              "name": "balancesScaled18",
              "type": "uint256[]"
            },
            {
              "internalType": "uint256",
              "name": "indexIn",
              "type": "uint256"
            },
            {
              "internalType": "uint256",
              "name": "indexOut",
              "type": "uint256"
            },
            {
              "internalType": "address",
              "name": "router",
              "type": "address"
            },
            {
              "internalType": "bytes",
              "name": "userData",
              "type": "bytes"
            }
          ],
          "internalType": "struct PoolSwapParams",
          "name": "request",
          "type": "tuple"
        }
      ],
      "name": "onSwap",
      "outputs": [
        {
          "internalType": "uint256",
          "name": "amountCalculatedScaled18",
          "type": "uint256"
        }
      ],
      "stateMutability": "nonpayable",
      "type": "function"
    },
    {
      "inputs": [
        {
          "internalType": "address",
          "name": "owner",
          "type": "address"
        },
        {
          "internalType": "address",
          "name": "spender",
          "type": "address"
        },
        {
          "internalType": "uint256",
          "name": "amount",
          "type": "uint256"
        },
        {
          "internalType": "uint256",
          "name": "deadline",
          "type": "uint256"
        },
        {
          "internalType": "uint8",
          "name": "v",
          "type": "uint8"
        },
        {
          "internalType": "bytes32",
          "name": "r",
          "type": "bytes32"
        },
        {
          "internalType": "bytes32",
          "name": "s",
          "type": "bytes32"
        }
      ],
      "name": "permit",
      "outputs": [],
      "stateMutability": "nonpayable",
      "type": "function"
    },
    {
      "inputs": [
        {
          "internalType": "uint256",
          "name": "newCenterednessMargin",
          "type": "uint256"
        }
      ],
      "name": "setCenterednessMargin",
      "outputs": [],
      "stateMutability": "nonpayable",
      "type": "function"
    },
    {
      "inputs": [
        {
          "internalType": "uint256",
          "name": "endFourthRootPriceRatio",
          "type": "uint256"
        },
        {
          "internalType": "uint256",
          "name": "priceRatioUpdateStartTime",
          "type": "uint256"
        },
        {
          "internalType": "uint256",
          "name": "priceRatioUpdateEndTime",
          "type": "uint256"
        }
      ],
      "name": "setPriceRatioState",
      "outputs": [
        {
          "internalType": "uint256",
          "name": "actualPriceRatioUpdateStartTime",
          "type": "uint256"
        }
      ],
      "stateMutability": "nonpayable",
      "type": "function"
    },
    {
      "inputs": [
        {
          "internalType": "uint256",
          "name": "newPriceShiftDailyRate",
          "type": "uint256"
        }
      ],
      "name": "setPriceShiftDailyRate",
      "outputs": [],
      "stateMutability": "nonpayable",
      "type": "function"
    },
    {
      "inputs": [
        {
          "internalType": "bytes4",
          "name": "interfaceId",
          "type": "bytes4"
        }
      ],
      "name": "supportsInterface",
      "outputs": [
        {
          "internalType": "bool",
          "name": "",
          "type": "bool"
        }
      ],
      "stateMutability": "view",
      "type": "function"
    },
    {
      "inputs": [],
      "name": "symbol",
      "outputs": [
        {
          "internalType": "string",
          "name": "",
          "type": "string"
        }
      ],
      "stateMutability": "view",
      "type": "function"
    },
    {
      "inputs": [],
      "name": "totalSupply",
      "outputs": [
        {
          "internalType": "uint256",
          "name": "",
          "type": "uint256"
        }
      ],
      "stateMutability": "view",
      "type": "function"
    },
    {
      "inputs": [
        {
          "internalType": "address",
          "name": "to",
          "type": "address"
        },
        {
          "internalType": "uint256",
          "name": "amount",
          "type": "uint256"
        }
      ],
      "name": "transfer",
      "outputs": [
        {
          "internalType": "bool",
          "name": "",
          "type": "bool"
        }
      ],
      "stateMutability": "nonpayable",
      "type": "function"
    },
    {
      "inputs": [
        {
          "internalType": "address",
          "name": "from",
          "type": "address"
        },
        {
          "internalType": "address",
          "name": "to",
          "type": "address"
        },
        {
          "internalType": "uint256",
          "name": "amount",
          "type": "uint256"
        }
      ],
      "name": "transferFrom",
      "outputs": [
        {
          "internalType": "bool",
          "name": "",
          "type": "bool"
        }
      ],
      "stateMutability": "nonpayable",
      "type": "function"
    },
    {
      "inputs": [],
      "name": "version",
      "outputs": [
        {
          "internalType": "string",
          "name": "",
          "type": "string"
        }
      ],
      "stateMutability": "view",
      "type": "function"
    }
  ],
  "bytecode": "0x6102a0806040523461082a576169e6803803809161001d828561082e565b8339810160408282031261082a5781516001600160401b03811161082a578201916101008383031261082a576040519261010084016001600160401b0381118582101761073e5760405280516001600160401b03811161082a5783610083918301610851565b845260208101516001600160401b03811161082a57836100a4918301610851565b60208501908152604082015190936001600160401b03821161082a576100cb918301610851565b9182604086015260608201516060860152608082015160018060401b038116810361082a5760209260e091608088015260a081015160a088015260c081015160c0880152015160e086015201519260018060a01b038416840361082a5780519251926040519485604081011060018060401b0360408801111761073e57604086016040526001908187526020870195603160f81b875261016a846108a6565b9761012098895261017a81610a29565b9761014098895285516020870120918260e05251902080610100524660a0526040519060208201927f8b73c3c69bb8fe3d512ecc4cf759cc79239f7b179b0ffacaa9a75d522b39400f8452604083015260608201524660808201523060a082015260a0815260c0810181811060018060401b0382111761073e576040525190206080523060c0526101608281528451909690936001600160401b03851161073e576003948554968288811c98168015610820575b602089101461080c578190601f988981116107bc575b5060209089831160011461075d575f92610752575b50505f1982881b1c191690821b1785555b82516001600160401b03811161073e5760049384548381811c91168015610734575b6020821014610721579081898493116106d1575b50602090898311600114610672575f92610667575b50505f1982881b1c191690821b1783555b610180848152336101a0908152909690956001600160a01b03861615610659576101c09586528351916001600160401b0383116106465760059485548581811c9116801561063c575b6020821014610629578281116105e6575b506020918411600114610583579383949184925f95610578575b50501b925f19911b1c19161790555b60a085015115801561056c575b61055e575060a08401519061020091825260c08501519261022093845260e086015194610240958652606087015196610260978852608060018060401b03910151169761028098895260405199615e869b8c610b608d396080518c6147dc015260a0518c6148a8015260c0518c6147ad015260e0518c61482b0152610100518c6148510152518b6113610152518a61138a0152518981816104a0015281816107570152818161099601528181610ac801528181610f2c015281816112e00152818161145e0152818161174201528181611da901528181611ea70152818161219f015281816122c10152818161251d0152818161258b015281816125fd0152818161274e01528181612a2a0152818161315e015281816135ac01528181613b2301528181613bf301528181613e7601528181614278015281816144560152818161459d015281816146d201526149cb01525188818161091101528181610c6c01528181610d0d01528181610e45015261163a01525187613aa00152518681816102fd01528181611d4b015281816131000152613d3401526101e051865050518581816108840152818161156c015281816117f40152612ae10152518481816108630152818161158d0152818161181a0152612b02015251838181610842015281816118400152612b240152518281816118660152612c9d01525181818161188c0152612cc60152f35b6359e6ae3360e11b5f908152fd5b5060e085015115610356565b015193505f8061033a565b9190601f19841692865f528460205f20945f5b888282106105cd575050106105b4575b50505050811b019055610349565b01519060f8845f19921b161c191690555f8080806105a6565b8486015188559096019560209485019488935001610596565b865f5260205f2083808701891c82019260208810610620575b01881c019086905b828110610615575050610320565b5f8155018690610607565b925081926105ff565b602288634e487b7160e01b5f525260245ffd5b90607f169061030f565b604186634e487b7160e01b5f525260245ffd5b84630647140b60e51b5f525ffd5b015190505f806102b5565b90849350601f19831691875f5260205f20925f5b8181106106b9575084116106a2575b505050811b0183556102c6565b01515f19838a1b60f8161c191690555f8080610695565b82840151855587969094019360209384019301610686565b909150855f5260205f208980850160051c82019260208610610718575b918691869594930160051c01915b82811061070a5750506102a0565b5f81558594508691016106fc565b925081926106ee565b602286634e487b7160e01b5f525260245ffd5b90607f169061028c565b634e487b7160e01b5f52604160045260245ffd5b015190505f80610259565b90849350601f19831691895f5260205f20925f5b8181106107a45750841161078d575b505050811b01855561026a565b01515f19838a1b60f8161c191690555f8080610780565b82840151855587969094019360209384019301610771565b909150875f5260205f208980850160051c82019260208610610803575b918691869594930160051c01915b8281106107f5575050610244565b5f81558594508691016107e7565b925081926107d9565b634e487b7160e01b5f52602260045260245ffd5b97607f169761022e565b5f80fd5b601f909101601f19168101906001600160401b0382119082101761073e57604052565b81601f8201121561082a578051906001600160401b03821161073e5760405192610885601f8401601f19166020018561082e565b8284526020838301011161082a57815f9260208093018386015e8301015290565b80516020908181101561091c5750601f8251116108de57808251920151908083106108d057501790565b825f19910360031b1b161790565b60448260405192839163305a27a960e01b83528160048401528051918291826024860152018484015e5f828201840152601f01601f19168101030190fd5b906001600160401b03821161073e575f54926001938481811c91168015610a1f575b8382101461080c57601f81116109ec575b5081601f841160011461098a57509282939183925f9461097f575b50501b915f199060031b1c1916175f5560ff90565b015192505f8061096a565b919083601f1981165f8052845f20945f905b888383106109d257505050106109ba575b505050811b015f5560ff90565b01515f1960f88460031b161c191690555f80806109ad565b85870151885590960195948501948793509081019061099c565b5f805284601f845f20920160051c820191601f860160051c015b828110610a1457505061094f565b5f8155018590610a06565b90607f169061093e565b805160209081811015610a535750601f8251116108de57808251920151908083106108d057501790565b9192916001600160401b03811161073e5760019182548381811c91168015610b55575b8282101461080c57601f8111610b22575b5080601f8311600114610ac25750819293945f92610ab7575b50505f19600383901b1c191690821b17905560ff90565b015190505f80610aa0565b90601f19831695845f52825f20925f905b888210610b0b5750508385969710610af3575b505050811b01905560ff90565b01515f1960f88460031b161c191690555f8080610ae6565b808785968294968601518155019501930190610ad3565b835f5283601f835f20920160051c820191601f850160051c015b828110610b4a575050610a87565b5f8155018490610b3c565b90607f1690610a7656fe6080806040526004361015610012575f80fd5b5f3560e01c90816301ffc9a7146131c6575080630673d09a146130b457806306fdde031461300b578063095ea7b314612f9b5780630b89f18214612e31578063105ae7ad14612dfa57806316a0b3e014612da057806318160ddd14612d8657806318b6eb5514612d465780631c149e2814612a8b5780631d8a5e7e14612a6157806323b872dd146129c657806323de665114612995578063273c1adf14610c1c5780632754888d1461292c5780632c3576881461244c57806330adf81f14612412578063313ce567146123f75780633644e515146123dd57806337899770146123ba57806338be241d1461236f57806345421ec71461220e5780634f149b3f1461216d5780635211fa771461212a57806354fd4d50146120815780635687f2b81461202d578063569ee3501461200b578063627cdcb914611fe2578063654cf15d14611fc0578063679aefce14611f885780636bd838c714611f0d57806370a0823114611e4757806371870e1014611d0757806372c9818614611a2f5780637ecebe00146119f75780637f118b90146116b157806381fa807c146115eb57806384254cf91461144457806384b0196e1461134c578063851c1bb3146113045780638d928af8146112c157806395d89b41146111e3578063976907cc1461112b578063984de9e814611016578063a0e8f5ac14610fce578063a3af636d14610f9d578063a9059cbb14610eaf578063aa6ca80814610dfa578063abb1dc4414610cda578063b156aa0a14610c21578063b677fa5614610c1c578063ba5f9f4014610a15578063cd80a1af14610964578063ce20ece71461094a578063d335b0cf146108c5578063d48ef37714610828578063d505accf146105ca578063d77153a71461050d578063dd62ed3e14610430578063dfba38181461040c5763e66f2ef0146102bb575f80fd5b34610408576060600319360112610408576044356024356102da613ae7565b6040516374eef59360e11b81523060048201526001600160a01b036060826024817f000000000000000000000000000000000000000000000000000000000000000085165afa9182156103fd5761033f926020915f916103ce575b5001511630613cc3565b8042118142180218818110156103a05761546061035c8284613ada565b1061037857610370602092826004356140f3565b604051908152f35b7f33f1d0aa000000000000000000000000000000000000000000000000000000005f5260045ffd5b7f7d0356f3000000000000000000000000000000000000000000000000000000005f5260045260245260445ffd5b6103f0915060603d6060116103f6575b6103e88183613304565b8101906134fe565b5f610335565b503d6103de565b6040513d5f823e3d90fd5b5f80fd5b34610408575f6003193601126104085760206104266149a9565b6040519015158152f35b3461040857604060031936011261040857610449613253565b6020610453613269565b9160646001600160a01b0391828060405196879586947f927da1050000000000000000000000000000000000000000000000000000000086523060048701521660248501521660448301527f0000000000000000000000000000000000000000000000000000000000000000165afa80156103fd575f906104da575b602090604051908152f35b506020813d602011610505575b816104f460209383613304565b8101031261040857602090516104cf565b3d91506104e7565b34610408575f6003193601126104085761014060405161052c8161329b565b5f81526020810190604081015f8152606082015f815260808301905f825260a084015f815260c0850160e08601915f83526101009485880194610120809901975f895260018b5260018552600187526040519a5f8c5251151560208c015251151560408b015251151560608a0152511515608089015251151560a088015251151560c087015251151560e08601525115159084015251151590820152f35b346104085760e0600319360112610408576105e3613253565b6105eb613269565b90604435916064359160843560ff81168103610408578342116107fc5761062c826001600160a01b03165f52600260205260405f2080549060018201905590565b9060405160208101917f6e71edae12b1b97f4d1f60370fef10105fa2faae0126114a169c64845d6126c983526001600160a01b039687861694856040850152888816606085015289608085015260a084015260c083015260c0825260e082019082821067ffffffffffffffff8311176107e8578793610702936106f9936040525190206106b76147a3565b90604051917f190100000000000000000000000000000000000000000000000000000000000083526002830152602282015260c43591604260a43592206152af565b90929192615331565b168181036107ba576040517fe1f21c670000000000000000000000000000000000000000000000000000000081526001600160a01b03848116600483015285166024820152604481018790526020816064815f7f00000000000000000000000000000000000000000000000000000000000000008b165af180156103fd5761078657005b6020813d6020116107b2575b8161079f60209383613304565b81010312610408576107b09061357c565b005b3d9150610792565b7f4b800e46000000000000000000000000000000000000000000000000000000005f5260045260245260445ffd5b634e487b7160e01b5f52604160045260245ffd5b837f62791302000000000000000000000000000000000000000000000000000000005f5260045260245ffd5b34610408575f6003193601126104085760206103706108a87f00000000000000000000000000000000000000000000000000000000000000007f00000000000000000000000000000000000000000000000000000000000000007f0000000000000000000000000000000000000000000000000000000000000000613eca565b5050506108be6108b78261360e565b5191613632565b5190613fcb565b34610408575f600319360112610408576040517fb45090f90000000000000000000000000000000000000000000000000000000081523060048201526020816024816001600160a01b037f0000000000000000000000000000000000000000000000000000000000000000165afa80156103fd575f906104da57602090604051908152f35b34610408575f6003193601126104085760206040515f8152f35b34610408575f600319360112610408576040516333f0703b60e11b81523060048201525f816024816001600160a01b037f0000000000000000000000000000000000000000000000000000000000000000165afa9081156103fd57602091610370915f916109ef575b50600854906fffffffffffffffffffffffffffffffff8260801c921690613fef565b610a0b91503d805f833e610a038183613304565b8101906138ed565b92505050836109cd565b346104085760e060031936011261040857610a2e613253565b50610a37613269565b600460443510156104085767ffffffffffffffff9060843582811161040857610a6490369060040161333f565b5060a43582811161040857610a7d90369060040161333f565b9160c43590811161040857602491610a9b602092369060040161339f565b50610aa4613e6c565b6040516339370aa960e21b81526001600160a01b03918216600482015292839182907f0000000000000000000000000000000000000000000000000000000000000000165afa80156103fd575f90610be8575b610b049150606435615256565b610b0d826148ce565b50670de0b6b3a76400009183830391838311610bd45783610b3d8482610b3682610b4497613a44565b0493613a44565b0490614074565b610b4c614665565b81610b5685613632565b51931002809282610b6e64e8d4a51000958693613a44565b0410938415610bb3575b50505050610b8b57602060405160018152f35b7f8cf25597000000000000000000000000000000000000000000000000000000005f5260045ffd5b610bc992939450610bc39061360e565b51613a44565b041081808080610b78565b634e487b7160e01b5f52601160045260245ffd5b506020813d602011610c14575b81610c0260209383613304565b8101031261040857610b049051610af7565b3d9150610bf5565b61094a565b34610408575f600319360112610408576040517f535cfd8a0000000000000000000000000000000000000000000000000000000081523060048201525f816024816001600160a01b037f0000000000000000000000000000000000000000000000000000000000000000165afa80156103fd57610cb4915f91610cb8575b5060405191829160208352602083019061342a565b0390f35b610cd491503d805f833e610ccc8183613304565b8101906136b4565b82610c9f565b34610408575f600319360112610408576001600160a01b036040516333f0703b60e11b81523060048201525f81602481857f0000000000000000000000000000000000000000000000000000000000000000165afa80156103fd575f915f935f915f93610dd9575b50610d5860405194608086526080860190613490565b6020858203818701528080885193848152019701925f905b838210610d9d578780610cb489610d8f8d8b858203604087015261342a565b90838203606085015261342a565b909192939783606060019260408c518051610db7816134cc565b8352808501518716858401520151151560408201520199019493920190610d70565b9250935050610df291503d805f833e610a038183613304565b919385610d42565b34610408575f600319360112610408576040517fca4f28030000000000000000000000000000000000000000000000000000000081523060048201525f816024816001600160a01b037f0000000000000000000000000000000000000000000000000000000000000000165afa80156103fd57610cb4915f91610e8d575b50604051918291602083526020830190613490565b610ea991503d805f833e610ea18183613304565b810190613a01565b82610e78565b3461040857604060031936011261040857610f1f6020610ecd613253565b6040517fbeabacc80000000000000000000000000000000000000000000000000000000081523360048201526001600160a01b0390911660248083019190915235604482015291829081906064820190565b03815f6001600160a01b037f0000000000000000000000000000000000000000000000000000000000000000165af180156103fd57610f64575b602060405160018152f35b6020813d602011610f95575b81610f7d60209383613304565b8101031261040857610f8e9061357c565b5080610f59565b3d9150610f70565b34610408575f6003193601126104085760206007546fffffffffffffffffffffffffffffffff60405191831c168152f35b3461040857600319606081360112610408576004359067ffffffffffffffff82116104085760e0913603011261040857611006613269565b50604080515f81525f6020820152f35b346104085760406003193601126104085767ffffffffffffffff6004358181116104085761104890369060040161333f565b906024359060028210156104085760016110986110c992600854906fffffffffffffffffffffffffffffffff600754918260a01c16928163ffffffff84169360201c16918160801c911689614cfc565b509190936110a5816134cc565b0361111d576110bd6110c36001945b6110bd87613632565b5161386f565b9461360e565b908060021461110b576001146110ed57634e487b7160e01b5f52605160045260245ffd5b611102670de0b6b3a764000091602093613a44565b04604051908152f35b5061111890602092614a76565b610370565b6110bd6110c36002946110b4565b346104085761010060031936011261040857611145613253565b5061114e613269565b50600560443510156104085767ffffffffffffffff6064358181116104085761117b90369060040161333f565b506084358181116104085761119490369060040161333f565b60c435828111610408576111ac90369060040161333f565b5060e435918211610408576111c8610cb492369060040161339f565b506040519182915f835260406020840152604083019061342a565b34610408575f600319360112610408576040516004545f8261120483613544565b91828252602093600190856001821691825f146112a1575050600114611246575b5061123292500383613304565b610cb460405192828493845283019061322e565b84915060045f527f8a35acfbc15ff81a39ae7d344fd709f28e8600b4aa8c65c6b64bfe7fe36bd19b905f915b858310611289575050611232935082010185611225565b80548389018501528794508693909201918101611272565b60ff19168582015261123295151560051b85010192508791506112259050565b34610408575f6003193601126104085760206040516001600160a01b037f0000000000000000000000000000000000000000000000000000000000000000168152f35b34610408576020600319360112610408576004357fffffffff000000000000000000000000000000000000000000000000000000008116810361040857610370602091613a75565b34610408575f600319360112610408576113857f0000000000000000000000000000000000000000000000000000000000000000615084565b6113ae7f0000000000000000000000000000000000000000000000000000000000000000615198565b9060405191602083019280841067ffffffffffffffff8511176107e857611424610cb492611416956040525f83526040519586957f0f00000000000000000000000000000000000000000000000000000000000000875260e0602088015260e087019061322e565b90858203604087015261322e565b904660608501523060808501525f60a085015283820360c085015261342a565b34610408575f600319360112610408576001600160a01b037f0000000000000000000000000000000000000000000000000000000000000000166040517f532cec7c000000000000000000000000000000000000000000000000000000008152306004820152602081602481855afa9081156103fd575f916115b1575b5015611567575f602491604051928380926333f0703b60e11b82523060048301525afa80156103fd576040915f91611549575b5061153d61152a670de0b6b3a764000061153661152f611521611516876148ce565b50818193929961497f565b94818692613a44565b613a57565b9480613a44565b0490613fcb565b82519182526020820152f35b61155d91503d805f833e610a038183613304565b92505050826114f4565b5060407f00000000000000000000000000000000000000000000000000000000000000007f000000000000000000000000000000000000000000000000000000000000000061153d565b90506020813d6020116115e3575b816115cc60209383613304565b81010312610408576115dd9061357c565b826114c1565b3d91506115bf565b34610408575f600319360112610408576040517ff29486a10000000000000000000000000000000000000000000000000000000081523060048201526101a09081816024816001600160a01b037f0000000000000000000000000000000000000000000000000000000000000000165afa9081156103fd576040925f92611684575b505060608282015191015182519182526020820152f35b6116a39250803d106116aa575b61169b8183613304565b810190613766565b828061166d565b503d611691565b34610408575f600319360112610408576040516101c0810181811067ffffffffffffffff8211176107e85760405260608152606060208201525f60408201525f60608201525f60808201525f60a08201525f60c08201525f60e08201525f6101008201525f6101208201525f6101408201525f6101608201525f6101808201525f6101a08201526001600160a01b037f0000000000000000000000000000000000000000000000000000000000000000166040517fca4f28030000000000000000000000000000000000000000000000000000000081523060048201525f81602481855afa9182156103fd576024925f9283916119dd575b508452604051928380927f7e361bde0000000000000000000000000000000000000000000000000000000082523060048301525afa9081156103fd575f916119ba575b5060208201527f000000000000000000000000000000000000000000000000000000000000000060408201527f000000000000000000000000000000000000000000000000000000000000000060608201527f000000000000000000000000000000000000000000000000000000000000000060808201527f000000000000000000000000000000000000000000000000000000000000000060a08201527f000000000000000000000000000000000000000000000000000000000000000060c08201525f60e0820152670de0b6b3a764000061010082015264e8d4a510006101208201526103e880610140830152674563918244f400006101608301526154606101808301526101a08201526040518091602082526101a061193661192083516101c060208701526101e0860190613490565b6020840151601f1986830301604087015261345d565b916040810151606085015260608101516080850152608081015160a085015260a081015160c085015260c081015160e085015260e08101516101008501526101008101516101208501526101208101516101408501526101408101516101608501526101608101516101808501526101808101518285015201516101c08301520390f35b6119d691503d805f833e6119ce8183613304565b8101906136dd565b50826117ec565b6119f191503d8085833e610ea18183613304565b856117a9565b34610408576020600319360112610408576001600160a01b03611a18613253565b165f526002602052602060405f2054604051908152f35b34610408576003196020813601126104085760043567ffffffffffffffff918282116104085760e09082360301126104085760405160e08101818110848211176107e857604052816004013560028110156104085781526020810160248301358152604483013584811161040857611aad906004369186010161333f565b926040830193845260608301946064820135865260808401916084810135835260a48101356001600160a01b03811681036104085760a086015260c4810135918211610408576004611b02923692010161339f565b60c0840152611b0f613e6c565b611b1984516148ce565b9691949096611cf8575b611b2b614665565b51611b35816134cc565b611b3e816134cc565b611c4b57845190848151611bac611ba1865192611b9b8c611b968b5191888b86155f14611c3357611b8f90611b896110bd93946110bd611b83829f5b6110bd86613632565b9361360e565b90614a76565b958c61363f565b61386f565b90615256565b926110bd838761363f565b808311611c0b57611bc692611bc091613ada565b9361363f565b518211611be3576020966103709583975195519251945195614918565b7fb413e252000000000000000000000000000000000000000000000000000000005f5260045ffd5b7f366eca71000000000000000000000000000000000000000000000000000000005f5260045ffd5b611b8f90611b89846110bd611b836110bd969f611b7a565b84939451938151968351978551611c628a8961363f565b518111611be35760209988611cca938b93611c93611c86866110bd6111189f613632565b611b89896110bd8761360e565b9082611cda57611cc39291611b9b611cbd92611cb8611cb8986110bd8d915b8a61363f565b613ada565b9261363f565b5190613ada565b9687925195519351945195614918565b611cc39291611b9b611cbd92611cb8611cb8986110bd8d9b91611cb2565b611d028786614074565b611b23565b3461040857602060031936011261040857611d20613ae7565b611d28613bbd565b6040516374eef59360e11b81523060048201526001600160a01b036060826024817f000000000000000000000000000000000000000000000000000000000000000085165afa9081156103fd57611d908160205f946024968691611e28575001511630613cc3565b604051928380926333f0703b60e11b82523060048301527f0000000000000000000000000000000000000000000000000000000000000000165afa80156103fd57611de2915f91611e0a575b506148ce565b611dfa575b611def614665565b6107b06004356143a6565b611e0391614074565b8080611de7565b611e1e91503d805f833e610a038183613304565b9250505082611ddc565b611e41915060603d6060116103f6576103e88183613304565b87610335565b346104085760208060031936011261040857604481611e64613253565b6040517ff7888aec0000000000000000000000000000000000000000000000000000000081523060048201526001600160a01b03918216602482015292839182907f0000000000000000000000000000000000000000000000000000000000000000165afa9081156103fd575f91611ee0575b50604051908152f35b90508181813d8311611f06575b611ef78183613304565b81010312610408575182611ed7565b503d611eed565b34610408575f600319360112610408575f6060604051611f2c8161327f565b82815282602082015282604082015201526080611f47613721565b604051906bffffffffffffffffffffffff8082511683526020820151166020830152606060408201519163ffffffff80931660408501520151166060820152f35b34610408575f600319360112610408577f56b7fcdb000000000000000000000000000000000000000000000000000000005f5260045ffd5b34610408575f60031936011261040857602060405167016345785d8a00008152f35b34610408575f60031936011261040857335f908152600260205260409020805460018101909155005b34610408575f600319360112610408576020610370612028613721565b614761565b346104085760207f8c5be1e5ebec7d5bd14f71427d1e84f3dd0314c0f7b2291e5b200ac8c7c3b92561205e366133f5565b9291939061206a613e6c565b6001600160a01b03809160405195865216941692a3005b34610408575f600319360112610408576040516005545f826120a283613544565b91828252602093600190856001821691825f146112a15750506001146120cf575061123292500383613304565b84915060055f527f036b6384b5eca791c62761152d0c79bb0604c104a5fb6f4eb0703f3154bb3db0905f915b858310612112575050611232935082010185611225565b805483890185015287945086939092019181016120fb565b3461040857600319604081360112610408576004359067ffffffffffffffff82116104085760e0913603011261040857612162613269565b5060206040515f8152f35b34610408575f600319360112610408576040516333f0703b60e11b81523060048201525f816024816001600160a01b037f0000000000000000000000000000000000000000000000000000000000000000165afa9081156103fd576060916121db915f916121f057506148ce565b90604051928352602083015215156040820152f35b61220491503d805f833e610a038183613304565b9250505083611ddc565b346104085760e060031936011261040857612227613253565b50612230613269565b600560443510156104085767ffffffffffffffff906064358281116104085761225d90369060040161333f565b5060a4358281116104085761227690369060040161333f565b9160c43590811161040857602491612294602092369060040161339f565b5061229d613e6c565b6040516339370aa960e21b81526001600160a01b03918216600482015292839182907f0000000000000000000000000000000000000000000000000000000000000000165afa9081156103fd575f9161233b575b5061230461230a9161152a608435613a27565b916148ce565b509091670de0b6b3a764000090810192838211610bd4578382610b3661233396610b3d94613a44565b610f59614665565b90506020813d602011612367575b8161235660209383613304565b8101031261040857516123046122f1565b3d9150612349565b346104085760606003193601126104085767ffffffffffffffff600435818111610408576123a190369060040161333f565b506044359081116104085761216290369060040161339f565b34610408575f60031936011261040857602063ffffffff60075416604051908152f35b34610408575f6003193601126104085760206103706147a3565b34610408575f60031936011261040857602060405160128152f35b34610408575f6003193601126104085760206040517f6e71edae12b1b97f4d1f60370fef10105fa2faae0126114a169c64845d6126c98152f35b34610408575f60031936011261040857604051610200810181811067ffffffffffffffff8211176107e85760405260608152606060208201525f60408201525f60608201525f6080820152606060a08201525f60c08201525f60e08201525f6101008201525f6101208201525f6101408201525f6101608201525f6101808201525f6101a08201525f6101c08201525f6101e08201526040517f535cfd8a0000000000000000000000000000000000000000000000000000000081523060048201525f816024816001600160a01b037f0000000000000000000000000000000000000000000000000000000000000000165afa9081156103fd575f91612912575b5081526040517f7e361bde0000000000000000000000000000000000000000000000000000000081523060048201525f816024816001600160a01b037f0000000000000000000000000000000000000000000000000000000000000000165afa9081156103fd575f916128f6575b5060208201526040517fb45090f90000000000000000000000000000000000000000000000000000000081523060048201526020816024816001600160a01b037f0000000000000000000000000000000000000000000000000000000000000000165afa9081156103fd575f916128c4575b50604082015261263b613589565b606082015267ffffffffffffffff60075463ffffffff81166080840152604051612664816132b8565b600281526040366020830137600854906fffffffffffffffffffffffffffffffff9182811661269283613632565b5260801c61269f8261360e565b5260a08501528160201c1660c084015260a01c1660e08201526126c3612028613721565b61010082015263ffffffff60606126d8613721565b6bffffffffffffffffffffffff80825116610120860152602082015116610140850152826040820151166101608501520151166101808201526040517ff29486a10000000000000000000000000000000000000000000000000000000081523060048201526101a0816024816001600160a01b037f0000000000000000000000000000000000000000000000000000000000000000165afa80156103fd57610120915f916128a3575b5060e081015115156101a084015261010081015115156101c0840152015115156101e08201526040518091602082526101e061281d6127ce8351610200602087015261022086019061345d565b6127ea602085015191601f19928388830301604089015261345d565b906040850151606087015260608501516080870152608085015160a087015260a0850151908683030160c087015261345d565b9160c081015160e085015260e081015161010085015261010081015161012085015261012081015161014085015261014081015161016085015263ffffffff6101608201511661018085015263ffffffff610180820151166101a08501526101a081015115156101c08501526101c0810151151582850152015115156102008301520390f35b6128be91506101a03d6101a0116116aa5761169b8183613304565b83612781565b90506020813d6020116128ee575b816128df60209383613304565b8101031261040857518261262d565b3d91506128d2565b61290a91503d805f833e6119ce8183613304565b9050826125bb565b61292691503d805f833e610ccc8183613304565b8261254d565b346104085761010060031936011261040857612946613253565b5061294f613269565b50600460443510156104085767ffffffffffffffff6084358181116104085761297c90369060040161333f565b5060a4358181116104085761119490369060040161333f565b346104085760207fddf252ad1be2c89b69c2b068fc378daa952ba7f163c4a11628f55a4df523b3ef61205e366133f5565b3461040857608460206129d8366133f5565b6040517f15dacbea0000000000000000000000000000000000000000000000000000000081523360048201526001600160a01b0393841660248201529183166044830152606482015292839182905f907f0000000000000000000000000000000000000000000000000000000000000000165af180156103fd57610f6457602060405160018152f35b34610408575f60031936011261040857602067ffffffffffffffff60075460a01c16604051908152f35b346104085760406003193601126104085767ffffffffffffffff60043581811161040857612abd90369060040161333f565b9060243581811161040857612ad690369060040161339f565b50612adf613e6c565b7f00000000000000000000000000000000000000000000000000000000000000007f0000000000000000000000000000000000000000000000000000000000000000917f000000000000000000000000000000000000000000000000000000000000000093612b4f858585613eca565b969192612b6b612b618698939861360e565b516108be87613632565b93612b82612b788361360e565b516108be84613632565b670de05bc096e9c0009586820282159783820414881715610bd457670de0b6b3a764000097670de111a6b7de4000808502948504141715610bd457878091048210928315612d3a575b505050612d1257612bfc859182612bf5612bee612c26966108be6108b78d613632565b8093613a44565b0499613a44565b0498612c21612c0e8b6110bd8961360e565b612c1b8a6110bd8a613632565b90613fcb565b614a98565b612c43612c3489888761497f565b91612c218361152a8c80613a44565b828102928184041490151715610bd457612c7592612c708692612c2184612c6b818d98613a57565b613fcb565b613fef565b9060075460a01c1611612cea57612c9892612c8f91614074565b429042906140f3565b612cc17f00000000000000000000000000000000000000000000000000000000000000006143a6565b6123337f000000000000000000000000000000000000000000000000000000000000000061450e565b7f1878f33d000000000000000000000000000000000000000000000000000000005f5260045ffd5b7f4f512cb0000000000000000000000000000000000000000000000000000000005f5260045ffd5b041090508b8681612bcb565b3461040857600319602081360112610408576004359067ffffffffffffffff821161040857610180913603011261040857604080515f81525f6020820152f35b34610408575f600319360112610408576020610370613589565b346104085760606003193601126104085760043567ffffffffffffffff811161040857612dd190369060040161333f565b507fd6234725000000000000000000000000000000000000000000000000000000005f5260045ffd5b34610408575f6003193601126104085760406008548151906fffffffffffffffffffffffffffffffff8116825260801c6020820152f35b346104085760e060031936011261040857612e4a613253565b50612e53613269565b5060443567ffffffffffffffff81116104085736602382011215610408578060040135612e7f81613327565b91612e8d6040519384613304565b81835260206024602085019360071b8301019136831161040857602401925b828410612f27578460807fffffffffffffffffffffffffffffffffffffffffffffffffffffffffffffff9c36011261040857600290612ee9613e6c565b511480612f16575b80612f04575b6020906040519015158152f35b5060c435801590811514612ef7575f80fd5b506064358015158114612ef1575f80fd5b6080843603126104085760405190612f3e8261327f565b6001600160a01b038535818116810361040857835283860135600281101561040857848401526040860135908116810361040857604083015260609081860135928315158403610408576080938593820152815201930192612eac565b3461040857604060031936011261040857610f1f6020612fb9613253565b6040517fe1f21c670000000000000000000000000000000000000000000000000000000081523360048201526001600160a01b0390911660248083019190915235604482015291829081906064820190565b34610408575f600319360112610408576040516003545f8261302c83613544565b91828252602093600190856001821691825f146112a1575050600114613059575061123292500383613304565b84915060035f527fc2575a0e9e593c00f959f8c92f12db2869c3395a3b0502d05e2516446f71f85b905f915b85831061309c575050611232935082010185611225565b80548389018501528794508693909201918101613085565b34610408576020600319360112610408576130cd613ae7565b6130d5613bbd565b6130dd613c8c565b6040516374eef59360e11b81523060048201526001600160a01b036060826024817f000000000000000000000000000000000000000000000000000000000000000085165afa9081156103fd576131458160205f946024968691611e28575001511630613cc3565b604051928380926333f0703b60e11b82523060048301527f0000000000000000000000000000000000000000000000000000000000000000165afa80156103fd57613196915f91611e0a57506148ce565b6131b6575b6131a3614665565b6131ae60043561450e565b6107b0613c8c565b6131bf91614074565b808061319b565b3461040857602060031936011261040857600435907fffffffff000000000000000000000000000000000000000000000000000000008216809203610408577f01ffc9a700000000000000000000000000000000000000000000000000000000602092148152f35b90601f19601f602080948051918291828752018686015e5f8582860101520116010190565b600435906001600160a01b038216820361040857565b602435906001600160a01b038216820361040857565b6080810190811067ffffffffffffffff8211176107e857604052565b610140810190811067ffffffffffffffff8211176107e857604052565b6060810190811067ffffffffffffffff8211176107e857604052565b67ffffffffffffffff81116107e857604052565b6040810190811067ffffffffffffffff8211176107e857604052565b90601f601f19910116810190811067ffffffffffffffff8211176107e857604052565b67ffffffffffffffff81116107e85760051b60200190565b9080601f8301121561040857602090823561335981613327565b936133676040519586613304565b81855260208086019260051b82010192831161040857602001905b828210613390575050505090565b81358152908301908301613382565b81601f820112156104085780359067ffffffffffffffff82116107e857604051926133d46020601f19601f8601160185613304565b8284526020838301011161040857815f926020809301838601378301015290565b6003196060910112610408576001600160a01b0390600435828116810361040857916024359081168103610408579060443590565b9081518082526020808093019301915f5b828110613449575050505090565b83518552938101939281019260010161343b565b9081518082526020808093019301915f5b82811061347c575050505090565b83518552938101939281019260010161346e565b9081518082526020808093019301915f5b8281106134af575050505090565b83516001600160a01b0316855293810193928101926001016134a1565b600211156134d657565b634e487b7160e01b5f52602160045260245ffd5b51906001600160a01b038216820361040857565b908160609103126104085761353c604080519261351a846132b8565b613523816134ea565b8452613531602082016134ea565b6020850152016134ea565b604082015290565b90600182811c92168015613572575b602083101461355e57565b634e487b7160e01b5f52602260045260245ffd5b91607f1691613553565b5190811515820361040857565b6040516339370aa960e21b81523060048201526020816024816001600160a01b037f0000000000000000000000000000000000000000000000000000000000000000165afa9081156103fd575f916135df575090565b90506020813d602011613606575b816135fa60209383613304565b81010312610408575190565b3d91506135ed565b80516001101561361e5760400190565b634e487b7160e01b5f52603260045260245ffd5b80511561361e5760200190565b805182101561361e5760209160051b010190565b9080601f830112156104085781519060209161366e81613327565b9361367c6040519586613304565b81855260208086019260051b82010192831161040857602001905b8282106136a5575050505090565b81518152908301908301613697565b9060208282031261040857815167ffffffffffffffff8111610408576136da9201613653565b90565b9190916040818403126104085780519267ffffffffffffffff93848111610408578161370a918401613653565b936020830151908111610408576136da9201613653565b6040519061372e8261327f565b8160606006546bffffffffffffffffffffffff808216845281831c16602084015263ffffffff8160c01c16604084015260e01c910152565b809103906101a08212610408576080604051926137828461329b565b12610408576040516137938161327f565b61379c8261357c565b81526137aa6020830161357c565b60208201526137bb6040830161357c565b60408201526137cc6060830161357c565b606082015282526080810151602083015260a0810151604083015260c0810151606083015260e081015164ffffffffff81168103610408576080830152610100908181015163ffffffff8116810361040857613868916101809160a08601526101209361383a85830161357c565b60c087015261384c610140830161357c565b60e087015261385e610160830161357c565b908601520161357c565b9082015290565b91908201809211610bd457565b9080601f830112156104085781519060209161389781613327565b936138a56040519586613304565b81855260208086019260051b82010192831161040857602001905b8282106138ce575050505090565b81516001600160a01b03811681036104085781529083019083016138c0565b916080838303126104085782519067ffffffffffffffff91828111610408578361391891860161387c565b9360208082015184811161040857820185601f820112156104085780519061393f82613327565b92604061394f6040519586613304565b83855281850190826060809602850101938a8511610408578301915b8483106139a8575050505050509360408201518481116104085781613991918401613653565b936060830151908111610408576136da9201613653565b85838c0312610408578151906139bd826132b8565b8351600281101561040857825284840151906001600160a01b038216820361040857828692838a9501526139f285870161357c565b8582015281520192019161396b565b9060208282031261040857815167ffffffffffffffff8111610408576136da920161387c565b90670de0b6b3a764000091828102928184041490151715610bd457565b81810292918115918404141715610bd457565b8115613a61570490565b634e487b7160e01b5f52601260045260245ffd5b6040517fffffffff0000000000000000000000000000000000000000000000000000000060208201927f0000000000000000000000000000000000000000000000000000000000000000845216604082015260248152613ad4816132b8565b51902090565b91908203918211610bd457565b6040517f532cec7c0000000000000000000000000000000000000000000000000000000081523060048201526020816024816001600160a01b037f0000000000000000000000000000000000000000000000000000000000000000165afa9081156103fd575f91613b83575b5015613b5b57565b7f486aa307000000000000000000000000000000000000000000000000000000005f5260045ffd5b90506020813d602011613bb5575b81613b9e60209383613304565b8101031261040857613baf9061357c565b5f613b53565b3d9150613b91565b6040517f8380edb70000000000000000000000000000000000000000000000000000000081526020816004816001600160a01b037f0000000000000000000000000000000000000000000000000000000000000000165afa9081156103fd575f91613c52575b50613c2a57565b7fe4575fe4000000000000000000000000000000000000000000000000000000005f5260045ffd5b90506020813d602011613c84575b81613c6d60209383613304565b8101031261040857613c7e9061357c565b5f613c23565b3d9150613c60565b613c946149a9565b15613c9b57565b7f03d95ab4000000000000000000000000000000000000000000000000000000005f5260045ffd5b906001600160a01b0390811680613e615750613d017fffffffff000000000000000000000000000000000000000000000000000000005f3516613a75565b91604051907faaabadc50000000000000000000000000000000000000000000000000000000082526020938483600481877f0000000000000000000000000000000000000000000000000000000000000000165afa9283156103fd57859385915f91613e22575b50906064929160405196879586947f9be2a8840000000000000000000000000000000000000000000000000000000086526004860152336024860152166044840152165afa9182156103fd575f92613dec575b505015613dc457565b7f23dada53000000000000000000000000000000000000000000000000000000005f5260045ffd5b90809250813d8311613e1b575b613e038183613304565b8101031261040857613e149061357c565b5f80613dbb565b503d613df9565b92948092508391503d8311613e5a575b613e3c8183613304565b81010312610408575183811681036104085784929084906064613d68565b503d613e32565b9150503303613dc457565b6001600160a01b037f0000000000000000000000000000000000000000000000000000000000000000163303613e9e57565b7f089676d5000000000000000000000000000000000000000000000000000000005f523360045260245ffd5b90613ede8261152a613ee393969596613a27565b614a53565b613ef4613eef82613a27565b6153dc565b90670de0b6b3a763ffff198101908111610bd4578015613a6157710b7abc627050305adf14a3d9e40000000000049269d3c21bcecceda100000080850193848611610bd457613f4d670de0b6b3a7640000958692613a44565b049360405191613f5c836132b8565b6002835260403660208501378297613f748782614a76565b888301809311610bd457613fc893613f9989611cb8613ede613fc297612c6b96614a76565b613fa28761360e565b52613fb0896110bd8861360e565b90613fbb848c613a44565b0490613ada565b91613632565b52565b90670de0b6b3a764000091828102928184041490151715610bd4576136da91613a57565b91613ff983613632565b51158015614063575b61405c578261152a8261401c61403e94866136da98614b1c565b9485156140565790945b1561404357610bc361403784613632565b519361360e565b615256565b610bc361404f8461360e565b5193613632565b94614026565b5050505f90565b5061406d8361360e565b5115614002565b6040907ff36b0fd05d55ca91fb3ebd8493adf78a3405a11c145c054a092d0994b665b637926fffffffffffffffffffffffffffffffff6140b383614b71565b167fffffffffffffffffffffffffffffffff000000000000000000000000000000006140de83614b71565b60801b161760085582519182526020820152a1565b9190818111801561439d575b6143755761410b613721565b9161411583614761565b9061411f82614ba5565b61412886614ba5565b905f8282039212818312811691831390151617610bd4578060ff1d809101186103e8811061434a5750906142be6142cc926bffffffffffffffffffffffff958661417185614bfa565b16815261417d88614bfa565b87602083019116815261418f87614c2a565b907fffffffff000000000000000000000000000000000000000000000000000000007bffffffff00000000000000000000000000000000000000000000000077ffffffffffffffffffffffff00000000000000000000000060409b8c87019663ffffffff809716885261420189614c2a565b96871660608201525116935160601b16945160c01b169260e01b16921717176006557fa18562ea402e57cc2b437f8d7a139c6c38958adc1ecbb706ec37a7a64ff6e7a586518061426b84898c89859094939260609260808301968352602083015260408201520152565b0390a16001600160a01b037f000000000000000000000000000000000000000000000000000000000000000016948651978894602086019094939260609260808301968352602083015260408201520152565b03601f198101855284613304565b803b15610408576143235f93918492845195868094819363c808824760e01b83527f5072696365526174696f537461746555706461746564000000000000000000006004840152886024840152604483019061322e565b03925af190811561434157506143365750565b61433f906132d4565b565b513d5f823e3d90fd5b7ff04fea2e000000000000000000000000000000000000000000000000000000005f5260045260245ffd5b7fb290253c000000000000000000000000000000000000000000000000000000005f5260045ffd5b504281106140ff565b674563918244f4000081116144e6576143c36201e6e98204614b71565b6fffffffffffffffffffffffffffffffff8116907fffffffffffffffffffffffff00000000000000000000000000000000ffffffff73ffffffffffffffffffffffffffffffff000000006007549260201b169116176007556040907ffefd89259d65afcadf2c63596421033bc90210eb2e823adaad190d22ddfdaf42828051858152836020820152a16001600160a01b037f0000000000000000000000000000000000000000000000000000000000000000169082519360208501528284015281835261448f836132b8565b803b15610408576143235f93918492845195868094819363c808824760e01b83527f507269636553686966744461696c7952617465557064617465640000000000006004840152886024840152604483019061322e565b7f60d40461000000000000000000000000000000000000000000000000000000005f5260045ffd5b670de0b6b3a7640000811161463d576007547fffffffff0000000000000000ffffffffffffffffffffffffffffffffffffffff7bffffffffffffffff00000000000000000000000000000000000000008360a01b169116176007557f74d468c8e414c37c502176a45cce93c85eaa0abf608e40641dc6664ca5efcab06020604051838152a16001600160a01b037f000000000000000000000000000000000000000000000000000000000000000016604051916020830152602082526145d3826132e8565b803b156104085761462c5f9291839260405194858094819363c808824760e01b83527f43656e74657265646e6573734d617267696e5570646174656400000000000000600484015260406024840152604483019061322e565b03925af180156103fd576143365750565b7f7304fac7000000000000000000000000000000000000000000000000000000005f5260045ffd5b63ffffffff61467342614c2a565b16807fffffffffffffffffffffffffffffffffffffffffffffffffffffffff0000000060075416176007557f32a9fd44bdf167703f584bd25098494d3d18a4653a2d97116d28da05209444d46020604051838152a16001600160a01b037f00000000000000000000000000000000000000000000000000000000000000001660405191602083015260208252614708826132e8565b803b156104085761462c5f9291839260405194858094819363c808824760e01b83527f4c61737454696d657374616d7055706461746564000000000000000000000000600484015260406024840152604483019061322e565b61479f61476d42614c2a565b6bffffffffffffffffffffffff9283815116846020830151169063ffffffff6060816040860151169401511693614c68565b1690565b6001600160a01b037f0000000000000000000000000000000000000000000000000000000000000000163014806148a5575b156147fe577f000000000000000000000000000000000000000000000000000000000000000090565b60405160208101907f8b73c3c69bb8fe3d512ecc4cf759cc79239f7b179b0ffacaa9a75d522b39400f82527f000000000000000000000000000000000000000000000000000000000000000060408201527f000000000000000000000000000000000000000000000000000000000000000060608201524660808201523060a082015260a0815260c0810181811067ffffffffffffffff8211176107e85760405251902090565b507f000000000000000000000000000000000000000000000000000000000000000046146147d5565b614913906008546fffffffffffffffffffffffffffffffff6007549167ffffffffffffffff8360a01c16938263ffffffff85169460201c16928260801c921690614cfc565b909192565b9461496592946149549161494361493c64e8d4a51000979a959a6110bd848c61363f565b918961363f565b5261494e838861363f565b51613ada565b61495e828761363f565b528461363f565b5110610b8b576103e89261497892613fef565b10612cea57565b61499f670de0b6b3a7640000936110bd611b836149a5956110bd86613632565b90613a44565b0490565b6040516333f0703b60e11b81523060048201525f816024816001600160a01b037f0000000000000000000000000000000000000000000000000000000000000000165afa9081156103fd575f91614a35575b50614a3060085467ffffffffffffffff60075460a01c16926fffffffffffffffffffffffffffffffff8260801c921690613fef565b101590565b614a4991503d805f833e610a038183613304565b925050505f6149fb565b670de0b6b3a764000090818102918183041490151715610bd4576136da906153dc565b90614a8091613a44565b6001670de0b6b3a76400005f19830104019015150290565b670de05bc096e9c00080830283159184820414821715610bd457670de0b6b3a764000091670de111a6b7de4000808602958604141715610bd4578190048210928315614b10575b505050614ae857565b7ff67c277c000000000000000000000000000000000000000000000000000000005f5260045ffd5b041090505f8080614adf565b614b258161360e565b51614b3257505050600190565b806108be614b42614b4993613632565b519161360e565b91670de0b6b3a764000091828102928184041490151715610bd457614b6d91613a57565b1090565b6fffffffffffffffffffffffffffffffff90818111614b8e571690565b6306dfcc6560e41b5f52608060045260245260445ffd5b7f7fffffffffffffffffffffffffffffffffffffffffffffffffffffffffffffff8111614bcf5790565b7f24775e06000000000000000000000000000000000000000000000000000000005f5260045260245ffd5b6bffffffffffffffffffffffff90818111614c13571690565b6306dfcc6560e41b5f52606060045260245260445ffd5b63ffffffff90818111614c3b571690565b6306dfcc6560e41b5f52602060045260245260445ffd5b63ffffffff9182169082160391908211610bd457565b9093919263ffffffff918281168385168110614c88575050505050905090565b8383161015614cf457614cdd614cc4614cef969585614cbd86614ce998614cb66136da9d99614ce399614c52565b1693614c52565b1690613fcb565b80936bffffffffffffffffffffffff8091169616615537565b84613a44565b92615537565b90613a57565b614bfa565b505050505090565b919095925f94614d0b42614c2a565b9063ffffffff8083169481831690868214615076578b819b614d2b613721565b936bffffffffffffffffffffffff90868287511692614d648b8260208b01511699604081019a6060868d51169201978689511693614c68565b169b816002985116109283615069575b505050614ed6575b67ffffffffffffffff16614d918d8f8c613fef565b10614da2575b505050505050505050565b909192939495989b979a96995060038310156134d65760028314614eba575b505060038110156134d6576001614dda91149780614a76565b938715614ea057614df4614ded8a613632565b519961360e565b51955b8815614e985750925b670de0b6b3a764000096870392878411610bd457614e1d91614c52565b1685810290808204871490151715610bd457614e4d9261499f614e41928894615537565b049561499f848861386f565b91670de0b6b3a763ffff198201918211610bd457614e7893614e7287614ce994613a44565b04613ada565b9015614e9357905b90916001905f8080808080808080614d97565b614e80565b905092614e00565b614eb3614eac8a61360e565b5199613632565b5195614df7565b614ecf925090614eca918b614b1c565b615e42565b5f80614dc1565b9a509b50995050614eeb614eca8a8c89614b1c565b60038110156134d65760018114998a15615052578b6001614f2a83614f2260ff614f198e825f5b169061363f565b5194168d61363f565b51938c613fef565b614f348a80614a76565b670de0b6b3a7640000828101809111610bd4577f3fffffffffffffffffffffffffffffffffffffffffffffffffffffffffffffff82168203610bd457614f7d8260021b8461386f565b7fffffffffffffffffffffffffffffffffffffffffffffffffe43e9298b13800008101908111610bd457614fb19084613a44565b6ec097ce7bc90715b34b9f10000000008101809111610bd457614fe091614fda614cdd926153dc565b9061386f565b92670de0b6b3a763ffff198201918211610bd4577f7fffffffffffffffffffffffffffffffffffffffffffffffffffffffffffffff82168203610bd45761152a61503461503b95612c6b9460011b90613a57565b8096613a44565b9b1561504d579a5b9a9b60019a614d7c565b615043565b8b5f614f2a83614f2260ff614f198e826001614f12565b51161190505f8681614d74565b99505f985050505050505050565b60ff81146150d85760ff811690601f82116150b057604051916150a6836132e8565b8252602082015290565b7fb3512b0c000000000000000000000000000000000000000000000000000000005f5260045ffd5b506040515f815f54916150ea83613544565b808352926020906001908181169081156151735750600114615115575b50506136da92500382613304565b9150925f80527f290decd9548b62a8d60345a988386fc84ba6bc95484008f6362f93160ef3e563935f925b82841061515b57506136da9450505081016020015f80615107565b85548785018301529485019486945092810192615140565b9050602093506136da95925060ff1991501682840152151560051b8201015f80615107565b60ff81146151ba5760ff811690601f82116150b057604051916150a6836132e8565b506040515f816001916001546151cf81613544565b808452936020916001811690811561517357506001146151f75750506136da92500382613304565b91509260015f527fb10e2d527612073b26eecdfd717e6a320cf44b4afac2b0732d9fcbe2b7fa0cf6935f925b82841061523e57506136da9450505081016020015f80615107565b85548785018301529485019486945092810192615223565b90801561528757670de0b6b3a764000091828102928184041490151715610bd4576001905f19830104019015150290565b7f0a0c22c7000000000000000000000000000000000000000000000000000000005f5260045ffd5b91907f7fffffffffffffffffffffffffffffff5d576e7357a4501ddfe92f46681b20a08411615326579160209360809260ff5f9560405194855216868401526040830152606082015282805260015afa156103fd575f516001600160a01b0381161561531c57905f905f90565b505f906001905f90565b5050505f9160039190565b60048110156134d65780615343575050565b60018103615373577ff645eedf000000000000000000000000000000000000000000000000000000005f5260045ffd5b600281036153a757507ffce698f7000000000000000000000000000000000000000000000000000000005f5260045260245ffd5b6003146153b15750565b7fd78bce0c000000000000000000000000000000000000000000000000000000005f5260045260245ffd5b60018082111561550f576154ab9080837001000000000000000000000000000000008110156154f8575b806801000000000000000060049210156154eb575b6401000000008110156154de575b620100008110156154d1575b6101008110156154c5575b60108110156154b9575b10156154b2575b600302811c6154608185613a57565b01811c61546d8185613a57565b01811c61547a8185613a57565b01811c6154878185613a57565b01811c6154948185613a57565b01811c6154a18185613a57565b01901c8092613a57565b8111900390565b811b615451565b811c9160021b9161544a565b60081c91811b91615440565b60101c9160081b91615435565b60201c9160101b91615429565b60401c9160201b9161541b565b50680100000000000000009050608084901c615406565b5090565b8015613a61576ec097ce7bc90715b34b9f10000000000590565b8115613a61570590565b908015615e34578115615e2e578160ff1c615e0657770bce5086492111aea88f4bb1ca6bcf584181ea8059f76532811015615dde5781670c7d713b49da00001280615dcd575b15615a8057670de0b6b3a7640000916ec097ce7bc90715b34b9f1000000000906155d0908402828101907fffffffffffffffffffffffffffffffffff3f68318436f8ea4cb460f00000000001830261552d565b9080828002059181838202058284820205838582020591848684020593858786020595808888020597880205600f900596600d900595600b900594600990059360079005926005900591600390050101010101010160011b918082818507020592050201670de0b6b3a7640000905b057ffffffffffffffffffffffffffffffffffffffffffffffffdc702bd3a30fc00008181131580615a6d575b15615a4557819082121580615a32575b15615a0a575f915f81126159fb575b506064906806f05b59d3b20000008112615998577ffffffffffffffffffffffffffffffffffffffffffffffff90fa4a62c4e0000000168056bc75e2d6310000082770195e54c5dd42177f53a27172fa9ec630262827000000000925b02819068ad78ebc5ac6200000081121561595f575b6856bc75e2d631000000811215615925575b682b5e3af16b188000008112156158ed575b6815af1d78b58c4000008112156158b5575b680ad78ebc5ac620000081121561587e575b8281121561585d575b6802b5e3af16b1880000811215615826575b68015af1d78b58c400008112156157ef575b60028382800205056003848383020505600485848302050585600581868402050560068287830205056007838883020505906008848984020505926009858a8602050595600a868b8902050597600b878c8b02050599600c888d8d0205059b01010101010101010101010102050205905f146136da576136da90615513565b6806f5f17757889379377ffffffffffffffffffffffffffffffffffffffffffffffffea50e2874a73c000084920192020590615770565b6808f00f760a4b2db55d7ffffffffffffffffffffffffffffffffffffffffffffffffd4a1c50e94e7800008492019202059061575e565b680ebc5fb4174612111068056bc75e2d630fffff198492019202059061574c565b68280e60114edb805d037ffffffffffffffffffffffffffffffffffffffffffffffff5287143a539e0000084920192020590615743565b690127fa27722cc06cc5e27fffffffffffffffffffffffffffffffffffffffffffffffea50e2874a73c0000084920192020590615731565b693f1fce3da636ea5cf8507fffffffffffffffffffffffffffffffffffffffffffffffd4a1c50e94e78000008492019202059061571f565b6b02df0ab5a80a22c61ab5a7007fffffffffffffffffffffffffffffffffffffffffffffffa9438a1d29cf0000008492019202059061570d565b6e01855144814a7ff805980ff008400091507fffffffffffffffffffffffffffffffffffffffffffffff5287143a539e000000016156fb565b6803782dace9d900000081126159e8577ffffffffffffffffffffffffffffffffffffffffffffffffc87d25316270000000168056bc75e2d63100000826b1425982cf597cd205cef7380926156e6565b68056bc75e2d63100000826001926156e6565b600192505f039050606461568a565b7fd4794efd000000000000000000000000000000000000000000000000000000005f5260045ffd5b5068070c1cc73b00c8000082131561567b565b7fa2f9f7e3000000000000000000000000000000000000000000000000000000005f5260045ffd5b5068070c1cc73b00c8000082131561566b565b81670de0b6b3a7640000925f91848112615db7575b506064905f7e1600ef3172e58d2e933ec884fde10064c63b5372d805e203c0000000000000821215615d8c575b73011798004d755d3c8bc8e03204cf44619e000000821215615d6b575b820290808302906e01855144814a7ff805980ff00840009081831215615d48575b50506b02df0ab5a80a22c61ab5a70080821215615d28575b50693f1fce3da636ea5cf85080821215615d08575b50690127fa27722cc06cc5e280821215615ce8575b5068280e60114edb805d0380821215615cc8575b50680ebc5fb4174612111080821215615cb1575b506808f00f760a4b2db55d80821215615c91575b506806f5f177578893793780821215615c71575b506806248f33704b28660380821215615c52575b506805c548670b9510e7ac80821215615c33575b50615be068056bc75e2d63100000918268056bc75e2d630fffff1981830192010261552d565b9080828002059181838202058284820205916003600560076009600b888a89020598808b8b02059a8b0205059805960594059205010101010160011b0105905f14615c2e575f035b0261563f565b615c28565b68056bc75e2d631000006756bc75e2d63100009202059101905f615bba565b68056bc75e2d6310000067ad78ebc5ac6200009202059101905f615ba6565b68056bc75e2d6310000068015af1d78b58c400009202059101905f615b92565b68056bc75e2d631000006802b5e3af16b18800009202059101905f615b7e565b68056bc75e2d63100000809202059101905f615b6a565b68056bc75e2d63100000680ad78ebc5ac62000009202059101905f615b56565b68056bc75e2d631000006815af1d78b58c4000009202059101905f615b42565b68056bc75e2d63100000682b5e3af16b188000009202059101905f615b2d565b68056bc75e2d631000006856bc75e2d6310000009202059101905f615b18565b68ad78ebc5ac62000000925069021e19e0c9bab240000002059101905f80615b00565b906b1425982cf597cd205cef73806803782dace9d900000091059101615adf565b50770195e54c5dd42177f53a27172fa9ec63026282700000000090056806f05b59d3b2000000615ac2565b9050615dc39150615513565b6001906064615a95565b50670f43fc2c04ee0000821261557d565b7fd8317311000000000000000000000000000000000000000000000000000000005f5260045ffd5b7f022701e0000000000000000000000000000000000000000000000000000000005f5260045ffd5b50505f90565b5050670de0b6b3a764000090565b151560038110156134d6579056fea264697066735822122056b8ac7bcf38db0cbb782464f3abaa92ff78ef5f3d06c765463ed6e3ab7d962d64736f6c634300081a0033",
  "linkReferences": {},
  "deployedLinkReferences": {}
}