{
  "_format": "hh-sol-artifact-1",
  "contractName": "ReClammPoolFactory",
  "sourceName": "contracts/ReClammPoolFactory.sol",
  "abi": [
    {
      "inputs": [
        {
          "internalType": "contract IVault",
          "name": "vault",
          "type": "address"
        },
        {
          "internalType": "uint32",
          "name": "pauseWindowDuration",
          "type": "uint32"
        },
        {
          "internalType": "string",
          "name": "factoryVersion",
          "type": "string"
        },
        {
          "internalType": "string",
          "name": "poolVersion",
          "type": "string"
        }
      ],
      "stateMutability": "nonpayable",
      "type": "constructor"
    },
    {
      "inputs": [],
      "name": "CodeDeploymentFailed",
      "type": "error"
    },
    {
      "inputs": [],
      "name": "Create2EmptyBytecode",
      "type": "error"
    },
    {
      "inputs": [],
      "name": "Disabled",
      "type": "error"
    },
    {
      "inputs": [],
      "name": "FailedDeployment",
      "type": "error"
    },
    {
      "inputs": [],
      "name": "IndexOutOfBounds",
      "type": "error"
    },
    {
      "inputs": [
        {
          "internalType": "uint256",
          "name": "balance",
          "type": "uint256"
        },
        {
          "internalType": "uint256",
          "name": "needed",
          "type": "uint256"
        }
      ],
      "name": "InsufficientBalance",
      "type": "error"
    },
    {
      "inputs": [],
      "name": "MaxTokens",
      "type": "error"
    },
    {
      "inputs": [],
      "name": "PoolPauseWindowDurationOverflow",
      "type": "error"
    },
    {
      "inputs": [],
      "name": "SenderNotAllowed",
      "type": "error"
    },
    {
      "inputs": [],
      "name": "StandardPoolWithCreator",
      "type": "error"
    },
    {
      "anonymous": false,
      "inputs": [],
      "name": "FactoryDisabled",
      "type": "event"
    },
    {
      "anonymous": false,
      "inputs": [
        {
          "indexed": true,
          "internalType": "address",
          "name": "pool",
          "type": "address"
        }
      ],
      "name": "PoolCreated",
      "type": "event"
    },
    {
      "inputs": [
        {
          "internalType": "string",
          "name": "name",
          "type": "string"
        },
        {
          "internalType": "string",
          "name": "symbol",
          "type": "string"
        },
        {
          "components": [
            {
              "internalType": "contract IERC20",
              "name": "token",
              "type": "address"
            },
            {
              "internalType": "enum TokenType",
              "name": "tokenType",
              "type": "uint8"
            },
            {
              "internalType": "contract IRateProvider",
              "name": "rateProvider",
              "type": "address"
            },
            {
              "internalType": "bool",
              "name": "paysYieldFees",
              "type": "bool"
            }
          ],
          "internalType": "struct TokenConfig[]",
          "name": "tokens",
          "type": "tuple[]"
        },
        {
          "components": [
            {
              "internalType": "address",
              "name": "pauseManager",
              "type": "address"
            },
            {
              "internalType": "address",
              "name": "swapFeeManager",
              "type": "address"
            },
            {
              "internalType": "address",
              "name": "poolCreator",
              "type": "address"
            }
          ],
          "internalType": "struct PoolRoleAccounts",
          "name": "roleAccounts",
          "type": "tuple"
        },
        {
          "internalType": "uint256",
          "name": "swapFeePercentage",
          "type": "uint256"
        },
        {
          "internalType": "uint256",
          "name": "priceShiftDailyRate",
          "type": "uint256"
        },
        {
          "internalType": "uint96",
          "name": "fourthRootPriceRatio",
          "type": "uint96"
        },
        {
          "internalType": "uint64",
          "name": "centerednessMargin",
          "type": "uint64"
        },
        {
          "internalType": "bytes32",
          "name": "salt",
          "type": "bytes32"
        }
      ],
      "name": "create",
      "outputs": [
        {
          "internalType": "address",
          "name": "pool",
          "type": "address"
        }
      ],
      "stateMutability": "nonpayable",
      "type": "function"
    },
    {
      "inputs": [],
      "name": "disable",
      "outputs": [],
      "stateMutability": "nonpayable",
      "type": "function"
    },
    {
      "inputs": [
        {
          "internalType": "bytes4",
          "name": "selector",
          "type": "bytes4"
        }
      ],
      "name": "getActionId",
      "outputs": [
        {
          "internalType": "bytes32",
          "name": "",
          "type": "bytes32"
        }
      ],
      "stateMutability": "view",
      "type": "function"
    },
    {
      "inputs": [],
      "name": "getAuthorizer",
      "outputs": [
        {
          "internalType": "contract IAuthorizer",
          "name": "",
          "type": "address"
        }
      ],
      "stateMutability": "view",
      "type": "function"
    },
    {
      "inputs": [],
      "name": "getCreationCode",
      "outputs": [
        {
          "internalType": "bytes",
          "name": "",
          "type": "bytes"
        }
      ],
      "stateMutability": "view",
      "type": "function"
    },
    {
      "inputs": [],
      "name": "getCreationCodeContracts",
      "outputs": [
        {
          "internalType": "address",
          "name": "contractA",
          "type": "address"
        },
        {
          "internalType": "address",
          "name": "contractB",
          "type": "address"
        }
      ],
      "stateMutability": "view",
      "type": "function"
    },
    {
      "inputs": [],
      "name": "getDefaultLiquidityManagement",
      "outputs": [
        {
          "components": [
            {
              "internalType": "bool",
              "name": "disableUnbalancedLiquidity",
              "type": "bool"
            },
            {
              "internalType": "bool",
              "name": "enableAddLiquidityCustom",
              "type": "bool"
            },
            {
              "internalType": "bool",
              "name": "enableRemoveLiquidityCustom",
              "type": "bool"
            },
            {
              "internalType": "bool",
              "name": "enableDonation",
              "type": "bool"
            }
          ],
          "internalType": "struct LiquidityManagement",
          "name": "liquidityManagement",
          "type": "tuple"
        }
      ],
      "stateMutability": "pure",
      "type": "function"
    },
    {
      "inputs": [],
      "name": "getDefaultPoolHooksContract",
      "outputs": [
        {
          "internalType": "address",
          "name": "",
          "type": "address"
        }
      ],
      "stateMutability": "pure",
      "type": "function"
    },
    {
      "inputs": [
        {
          "internalType": "bytes",
          "name": "constructorArgs",
          "type": "bytes"
        },
        {
          "internalType": "bytes32",
          "name": "salt",
          "type": "bytes32"
        }
      ],
      "name": "getDeploymentAddress",
      "outputs": [
        {
          "internalType": "address",
          "name": "",
          "type": "address"
        }
      ],
      "stateMutability": "view",
      "type": "function"
    },
    {
      "inputs": [],
      "name": "getNewPoolPauseWindowEndTime",
      "outputs": [
        {
          "internalType": "uint32",
          "name": "",
          "type": "uint32"
        }
      ],
      "stateMutability": "view",
      "type": "function"
    },
    {
      "inputs": [],
      "name": "getOriginalPauseWindowEndTime",
      "outputs": [
        {
          "internalType": "uint32",
          "name": "",
          "type": "uint32"
        }
      ],
      "stateMutability": "view",
      "type": "function"
    },
    {
      "inputs": [],
      "name": "getPauseWindowDuration",
      "outputs": [
        {
          "internalType": "uint32",
          "name": "",
          "type": "uint32"
        }
      ],
      "stateMutability": "view",
      "type": "function"
    },
    {
      "inputs": [],
      "name": "getPoolCount",
      "outputs": [
        {
          "internalType": "uint256",
          "name": "",
          "type": "uint256"
        }
      ],
      "stateMutability": "view",
      "type": "function"
    },
    {
      "inputs": [],
      "name": "getPoolVersion",
      "outputs": [
        {
          "internalType": "string",
          "name": "",
          "type": "string"
        }
      ],
      "stateMutability": "view",
      "type": "function"
    },
    {
      "inputs": [],
      "name": "getPools",
      "outputs": [
        {
          "internalType": "address[]",
          "name": "",
          "type": "address[]"
        }
      ],
      "stateMutability": "view",
      "type": "function"
    },
    {
      "inputs": [
        {
          "internalType": "uint256",
          "name": "start",
          "type": "uint256"
        },
        {
          "internalType": "uint256",
          "name": "count",
          "type": "uint256"
        }
      ],
      "name": "getPoolsInRange",
      "outputs": [
        {
          "internalType": "address[]",
          "name": "pools",
          "type": "address[]"
        }
      ],
      "stateMutability": "view",
      "type": "function"
    },
    {
      "inputs": [],
      "name": "getVault",
      "outputs": [
        {
          "internalType": "contract IVault",
          "name": "",
          "type": "address"
        }
      ],
      "stateMutability": "view",
      "type": "function"
    },
    {
      "inputs": [],
      "name": "isDisabled",
      "outputs": [
        {
          "internalType": "bool",
          "name": "",
          "type": "bool"
        }
      ],
      "stateMutability": "view",
      "type": "function"
    },
    {
      "inputs": [
        {
          "internalType": "address",
          "name": "pool",
          "type": "address"
        }
      ],
      "name": "isPoolFromFactory",
      "outputs": [
        {
          "internalType": "bool",
          "name": "",
          "type": "bool"
        }
      ],
      "stateMutability": "view",
      "type": "function"
    },
    {
      "inputs": [],
      "name": "version",
      "outputs": [
        {
          "internalType": "string",
          "name": "",
          "type": "string"
        }
      ],
      "stateMutability": "view",
      "type": "function"
    }
  ],
  "bytecode": "0x610180604052346100aa5761001e61001561013d565b92919091610385565b60405161187e90816105c582396080518181816102110152611430015260a051816113ba015260c0518181816102350152611455015260e051816113db0152610100518161131501526101205181818161032e01528181610d2201528181610db601528181611255015261162a01526101405181610c82015261016051818181610e5701526113820152f35b5f80fd5b634e487b7160e01b5f52604160045260245ffd5b6040519190601f01601f191682016001600160401b038111838210176100e757604052565b6100ae565b81601f820112156100aa578051906001600160401b0382116100e75761011b601f8301601f19166020016100c2565b92828452602083830101116100aa57815f9260208093018386015e8301015290565b618bac908138038061014e816100c2565b9384398201906080838303126100aa578251906001600160a01b03821682036100aa5760208401519363ffffffff851685036100aa5760408101516001600160401b0394908581116100aa57816101a69184016100ec565b9460608301519081116100aa576101bd92016100ec565b9193929190565b90600182811c921680156101f2575b60208310146101de57565b634e487b7160e01b5f52602260045260245ffd5b91607f16916101d3565b601f8111610208575050565b60035f5260205f20906020601f840160051c83019310610242575b601f0160051c01905b818110610237575050565b5f815560010161022c565b9091508190610223565b601f8111610258575050565b60045f5260205f20906020601f840160051c83019310610292575b601f0160051c01905b818110610287575050565b5f815560010161027c565b9091508190610273565b80519091906001600160401b0381116100e7576102c3816102be6004546101c4565b61024c565b602080601f8311600114610304575081906102f493945f926102f9575b50508160011b915f199060031b1c19161790565b600455565b015190505f806102e0565b60045f52601f198316949091907f8a35acfbc15ff81a39ae7d344fd709f28e8600b4aa8c65c6b64bfe7fe36bd19b925f905b87821061036d575050836001959610610355575b505050811b01600455565b01515f1960f88460031b161c191690555f808061034a565b80600185968294968601518155019501930190610336565b929192616d69610397602082016100c2565b90808252611e4360208301398051908160011c918260a05282810392818411610432578360e0528083526103ca83610535565b60805282019182519383526103de83610584565b60c052525230610100526101205263ffffffff926103fe84831642610446565b93808511610423576104219461041c93610140521661016052610458565b61029c565b565b6368755a1160e01b5f5260045ffd5b634e487b7160e01b5f52601160045260245ffd5b9190820180921161045357565b610432565b80519091906001600160401b0381116100e75761047f8161047a6003546101c4565b6101fc565b602080601f83116001146104b4575081906104af93945f926102f95750508160011b915f199060031b1c19161790565b600355565b60035f52601f198316949091907fc2575a0e9e593c00f959f8c92f12db2869c3395a3b0502d05e2516446f71f85b925f905b87821061051d575050836001959610610505575b505050811b01600355565b01515f1960f88460031b161c191690555f80806104fa565b806001859682949686015181550195019301906104e6565b9081517f602038038060206000396000f3fefefefefefefefefefefefefefefefefefefe835260208101835ff092526001600160a01b0382161561057557565b63fef8220760e01b5f5260045ffd5b9081517f60fe600053602038038060206001396001016000f3fefefefefefefefefefefe835260208101835ff092526001600160a01b038216156105755756fe60806040526004361015610011575f80fd5b5f3560e01c8062c194db14610153578063174481fa1461014e578063193ad50f146101495780632f2770db146101445780633f819b6f1461013f57806344f6fec71461013a57806353a72f7e1461013557806354fd4d50146101305780635b9bfe4b1461012b5780636634b75314610126578063673a2a1f146101215780636c57f5a91461011c57806378da80cb14610117578063851c1bb3146101125780638d928af81461010d5780638eec5d7014610108578063aaabadc514610103578063db035ebc146100fe578063e9d56e19146100f95763ec888061146100f4575f80fd5b610e7b565b610e3b565b610e13565b610d63565b610d46565b610cf6565b610ca6565b610c66565b610c44565b610ba9565b610b5c565b610a9a565b61079a565b61067b565b61056f565b61046e565b6102ab565b61025c565b6101e5565b61018b565b5f91031261016257565b5f80fd5b90601f19601f602080948051918291828752018686015e5f8582860101520116010190565b34610162575f600319360112610162576040516020810181811067ffffffffffffffff8211176101e0576101dc916101c8916040525f81526113b7565b604051918291602083526020830190610166565b0390f35b610489565b34610162575f600319360112610162576040805173ffffffffffffffffffffffffffffffffffffffff807f00000000000000000000000000000000000000000000000000000000000000001682527f0000000000000000000000000000000000000000000000000000000000000000166020820152f35b34610162575f600319360112610162576080610276610e95565b6102a960405180926060809180511515845260208101511515602085015260408101511515604085015201511515910152565bf35b34610162575f600319360112610162576102e77fffffffff000000000000000000000000000000000000000000000000000000005f35166112ea565b73ffffffffffffffffffffffffffffffffffffffff604051917faaabadc50000000000000000000000000000000000000000000000000000000083526020928381600481867f0000000000000000000000000000000000000000000000000000000000000000165afa80156104265784926103ad925f9261042b575b506040517f9be2a884000000000000000000000000000000000000000000000000000000008152600481019190915233602482015230604482015293849283919082906064820190565b0392165afa918215610426575f926103f9575b5050156103d1576103cf610eb9565b005b7f23dada53000000000000000000000000000000000000000000000000000000005f5260045ffd5b6104189250803d1061041f575b61041081836104e6565b810190611833565b5f806103c0565b503d610406565b611375565b61044c919250843d8611610453575b61044481836104e6565b810190611360565b905f610363565b503d61043a565b90602061046b928181520190610166565b90565b34610162575f600319360112610162576101dc6101c8610f12565b7f4e487b71000000000000000000000000000000000000000000000000000000005f52604160045260245ffd5b6080810190811067ffffffffffffffff8211176101e057604052565b67ffffffffffffffff81116101e057604052565b90601f601f19910116810190811067ffffffffffffffff8211176101e057604052565b6040519060c0820182811067ffffffffffffffff8211176101e057604052565b92919267ffffffffffffffff82116101e057604051916105536020601f19601f84011601846104e6565b829481845281830111610162578281602093845f960137010152565b346101625760406003193601126101625760043567ffffffffffffffff811161016257366023820112156101625773ffffffffffffffffffffffffffffffffffffffff6055600b6105cd6101dc943690602481600401359101610529565b6105e16105db6024356114b1565b916113b7565b602081519101209060405191604083015260208201523081520160ff815320166040519182918291909173ffffffffffffffffffffffffffffffffffffffff6020820193169052565b60209060206040818301928281528551809452019301915f5b828110610651575050505090565b835173ffffffffffffffffffffffffffffffffffffffff1685529381019392810192600101610643565b346101625760406003193601126101625760043560243590600191600154808310156107725781830180841161076d57811061075c575b506106bc816108ed565b916106ca60405193846104e6565b818352601f196106d9836108ed565b013660208501375f5b8281106106f757604051806101dc868261062a565b8061075661073161071161070c89958761103b565b611075565b905473ffffffffffffffffffffffffffffffffffffffff9160031b1c1690565b61073b83886110af565b9073ffffffffffffffffffffffffffffffffffffffff169052565b016106e2565b8281039150811161076d575f6106b2565b61100e565b7f4e23d035000000000000000000000000000000000000000000000000000000005f5260045ffd5b34610162575f600319360112610162576040515f60035460018160011c91600181169182156108c8575b60209160208510841461089b57848752602087019390811561085e5750600114610805575b6101dc866107f9818803826104e6565b6040519182918261045a565b60035f90815294509192917fc2575a0e9e593c00f959f8c92f12db2869c3395a3b0502d05e2516446f71f85b5b83861061084d57505050910190506107f9826101dc5f6107e9565b805485870152948201948101610832565b7fffffffffffffffffffffffffffffffffffffffffffffffffffffffffffffff0016845250505090151560051b0190506107f9826101dc5f6107e9565b7f4e487b71000000000000000000000000000000000000000000000000000000005f52602260045260245ffd5b92607f16926107c4565b9080601f830112156101625781602061046b93359101610529565b67ffffffffffffffff81116101e05760051b60200190565b73ffffffffffffffffffffffffffffffffffffffff81160361016257565b8015150361016257565b9080601f83011215610162578135916020610947846108ed565b9360409361095860405196876104e6565b818652828087019260071b85010193818511610162578301915b8483106109825750505050505090565b60808383031261016257855190610998826104b6565b83356109a381610905565b82528484013590600282101561016257828692836080950152888601356109c981610905565b89820152606080870135906109dd82610923565b820152815201920191610972565b7fffffffffffffffffffffffffffffffffffffffffffffffffffffffffffffff9c606091011261016257604051906060820182811067ffffffffffffffff8211176101e05760405281606435610a4081610905565b8152608435610a4e81610905565b6020820152604060a43591610a6283610905565b0152565b61010435906bffffffffffffffffffffffff8216820361016257565b610124359067ffffffffffffffff8216820361016257565b34610162576101606003193601126101625767ffffffffffffffff60043581811161016257610acd9036906004016108d2565b9060243581811161016257610ae69036906004016108d2565b91604435918211610162576101dc92610b06610b3593369060040161092d565b91610b10366109eb565b91610b19610a66565b91610b22610a82565b93610144359560e4359360c4359361118a565b60405173ffffffffffffffffffffffffffffffffffffffff90911681529081906020820190565b346101625760206003193601126101625773ffffffffffffffffffffffffffffffffffffffff600435610b8e81610905565b165f525f602052602060ff60405f2054166040519015158152f35b34610162575f60031936011261016257604051806001916001549283825260208092019360015f527fb10e2d527612073b26eecdfd717e6a320cf44b4afac2b0732d9fcbe2b7fa0cf6925f905b828210610c19576101dc86610c0d818a03826104e6565b6040519182918261062a565b845473ffffffffffffffffffffffffffffffffffffffff168752958601959383019390830190610bf6565b34610162575f60031936011261016257602060ff600254166040519015158152f35b34610162575f60031936011261016257602060405163ffffffff7f0000000000000000000000000000000000000000000000000000000000000000168152f35b34610162576020600319360112610162576004357fffffffff000000000000000000000000000000000000000000000000000000008116810361016257610cee6020916112ea565b604051908152f35b34610162575f60031936011261016257602060405173ffffffffffffffffffffffffffffffffffffffff7f0000000000000000000000000000000000000000000000000000000000000000168152f35b34610162575f600319360112610162576020600154604051908152f35b34610162575f600319360112610162576040517faaabadc500000000000000000000000000000000000000000000000000000000815273ffffffffffffffffffffffffffffffffffffffff6020826004817f000000000000000000000000000000000000000000000000000000000000000085165afa908115610426576020925f92610df4575b5060405191168152f35b610e0c919250833d85116104535761044481836104e6565b905f610dea565b34610162575f600319360112610162576020610e2d611380565b63ffffffff60405191168152f35b34610162575f60031936011261016257602060405163ffffffff7f0000000000000000000000000000000000000000000000000000000000000000168152f35b34610162575f6003193601126101625760206040515f8152f35b60405190610ea2826104b6565b5f6060838281528260208201528260408201520152565b610ec161147d565b60017fffffffffffffffffffffffffffffffffffffffffffffffffffffffffffffff0060025416176002557f432acbfd662dbb5d8b378384a67159b47ca9d0f1b79f97cf64cf8585fa362d505f80a1565b604051905f6004546001918160011c9260018316908115611004575b60209060208610831461089b5785885287946020860193908115610fc65750600114610f66575b505050610f64925003836104e6565b565b925093610f9460045f527f8a35acfbc15ff81a39ae7d344fd709f28e8600b4aa8c65c6b64bfe7fe36bd19b90565b945f935b828510610fb057505050610f649350015f8080610f55565b8654858501529586019588955093810193610f98565b915050610f64959293507fffffffffffffffffffffffffffffffffffffffffffffffffffffffffffffff009150168252151560051b015f8080610f55565b93607f1693610f2e565b7f4e487b71000000000000000000000000000000000000000000000000000000005f52601160045260245ffd5b9190820180921161076d57565b7f4e487b71000000000000000000000000000000000000000000000000000000005f52603260045260245ffd5b6001548110156110aa5760015f527fb10e2d527612073b26eecdfd717e6a320cf44b4afac2b0732d9fcbe2b7fa0cf601905f90565b611048565b80518210156110aa5760209160051b010190565b92916020610f64926040865267ffffffffffffffff60a06111436110f4845160c060408c01526101008b0190610166565b61112e86860151917fffffffffffffffffffffffffffffffffffffffffffffffffffffffffffffffc0928c60608582850301910152610166565b906040860151908b83030160808c0152610166565b926060810151828a01526bffffffffffffffffffffffff60808201511660c08a015201511660e087015294019073ffffffffffffffffffffffffffffffffffffffff169052565b969293989791949573ffffffffffffffffffffffffffffffffffffffff6111c8604087015173ffffffffffffffffffffffffffffffffffffffff1690565b166112c257600286511161129a57610f649761124d6112919561123c61128c946112059b61127e976111f8610e95565b5f6060820152600181529d565b61120d610509565b968752602087015261121d610f12565b604087015260608601526bffffffffffffffffffffffff166080850152565b67ffffffffffffffff1660a0830152565b6040519283917f000000000000000000000000000000000000000000000000000000000000000090602084016110c3565b03601f1981018352826104e6565b6114da565b9586928361160b565b7f707bdf58000000000000000000000000000000000000000000000000000000005f5260045ffd5b7f61ee1764000000000000000000000000000000000000000000000000000000005f5260045ffd5b6040517fffffffff0000000000000000000000000000000000000000000000000000000060208201927f00000000000000000000000000000000000000000000000000000000000000008452166040820152602481526060810181811067ffffffffffffffff8211176101e05760405251902090565b90816020910312610162575161046b81610905565b6040513d5f823e3d90fd5b7f000000000000000000000000000000000000000000000000000000000000000063ffffffff81164210156113b25790565b505f90565b907f00000000000000000000000000000000000000000000000000000000000000007f00000000000000000000000000000000000000000000000000000000000000008082019081831161076d578451928383019586841161076d5760209260018480946040519a82818d01016040528b52805f838d017f00000000000000000000000000000000000000000000000000000000000000003c8a01017f00000000000000000000000000000000000000000000000000000000000000003c01918501015e565b60ff6002541661148957565b7f75884cda000000000000000000000000000000000000000000000000000000005f5260045ffd5b60405160208101913383524660408301526060820152606081526114d4816104b6565b51902090565b906105db6114e7916114b1565b8051156115e3576020815191015ff5903d15198215166113755773ffffffffffffffffffffffffffffffffffffffff918281169081156115bb579261152a61147d565b815f525f60205260405f2060017fffffffffffffffffffffffffffffffffffffffffffffffffffffffffffffff00825416179055600154680100000000000000008110156101e0578060016115829201600155611075565b819291549060031b9184831b921b19161790557f83a48fbcfc991335314e74d0496aab6a1987e992ddc85dddbcc4d6dd6ef2e9fc5f80a2565b7fb06ebf3d000000000000000000000000000000000000000000000000000000005f5260045ffd5b7f4ca249dc000000000000000000000000000000000000000000000000000000005f5260045ffd5b92949193909473ffffffffffffffffffffffffffffffffffffffff93847f00000000000000000000000000000000000000000000000000000000000000001695611653611380565b91873b156101625797959493929190604095604051998a987feeec802f000000000000000000000000000000000000000000000000000000008a526004836101a48c01931660048c015260246101a060248d015282518094526101c48c019a6020809401955f935b8685106117a957505050505050505086946117535f9997939561173588966116f68d996117859760448b015260648a019063ffffffff169052565b88608489015260a48801906040908173ffffffffffffffffffffffffffffffffffffffff91828151168552826020820151166020860152015116910152565b73ffffffffffffffffffffffffffffffffffffffff16610104860152565b805115156101248501526020810151151561014485015260408101511515610164850152606001511515610184840152565b03925af18015610426576117965750565b806117a3610f64926104d2565b80610158565b9193959798999a9b9c90929496809e50518381511682528781015160028110156118085782899260809284600196015286888201511688830152606080910151151590820152019e0195019290918f9d9c9b9a999897959694926116bb565b866021857f4e487b71000000000000000000000000000000000000000000000000000000005f52525ffd5b90816020910312610162575161046b8161092356fea26469706673582212200adc9d6d16daaa270848c19ab2833a658c34a2d24f1cd83cbdfe5cb7eee7805d64736f6c634300081b0033610200806040523461099757616d69803803809161001d828561099b565b83398101906040818303126109975780516001600160401b0381116109975781019060c082840312610997576040519060c082016001600160401b038111838210176106aa5760405282516001600160401b03811161099757846100829185016109be565b825260208301516001600160401b03811161099757846100a39185016109be565b60208301908152604084015190946001600160401b038211610997576100ca9185016109be565b6040830181905260608085015190840152608084015190936001600160601b038216820361099757608084019190915260a00151906001600160401b03821682036109975760a0830191909152602001516001600160a01b038116810361099757815193519360405180604081011060018060401b036040830111176106aa576040810160405260018152603160f81b602082015261016882610a13565b6101205261017581610b96565b6101405281516020830120908160e0526020815191012080610100524660a0526040519060208201927f8b73c3c69bb8fe3d512ecc4cf759cc79239f7b179b0ffacaa9a75d522b39400f8452604083015260608201524660808201523060a082015260a0815260c0810181811060018060401b038211176106aa576040525190206080523060c0526101608290528051906001600160401b0382116106aa5760035490600182811c9216801561098d575b60208310146107b85781601f849311610935575b50602090601f83116001146108c0575f926108b5575b50508160011b915f199060031b1c1916176003555b83516001600160401b0381116106aa57600454600181811c911680156108ab575b60208210146107b857601f8111610848575b506020601f82116001146107e15781929394955f926107d6575b50508160011b915f199060031b1c1916176004555b610180819052336101a0526101c05281516001600160401b0381116106aa576005908154600181811c911680156107cc575b60208210146107b857601f8111610775575b506020601f821160011461071357819293945f92610708575b50508160011b915f199060031b1c19161790555b60608101516001600160801b03906201e6e98104908282116106f05760407ffefd89259d65afcadf2c63596421033bc90210eb2e823adaad190d22ddfdaf4291600754948251918252640100000000600160a01b038560201b16640100000000600160a01b031987161760201c166020820152a160a083015191670de0b6b3a76400006001600160401b038416116106e1576001600160401b03838116116106be57600160201b600160e01b031916602091821b600160201b600160a01b03161760a083901b600160a01b600160e01b0316176007556040516001600160401b0390921682527f74d468c8e414c37c502176a45cce93c85eaa0abf608e40641dc6664ca5efcab091a16080908101516040516001600160601b039091169181018082116001600160401b03909111176106aa577fa18562ea402e57cc2b437f8d7a139c6c38958adc1ecbb706ec37a7a64ff6e7a59161050282608080940160405260065460018060601b03811682526020820160018060601b038260601c16815263ffffffff906040840191808460c01c168352606085019360e01c8452806104e042610cf7565b9560018060601b039051169260018060601b0390511693511693511693610d49565b9061050c81610ccc565b6001600160601b03831692836106a45750805b6001600160e01b031961053142610cf7565b60e01b169160018060601b0316906c01000000000000000000000000600160c01b039060601b16171760065560405191825260208201525f6040820152426060820152a160405161572b908161161e823960805181613f4b015260a05181614017015260c05181613f1c015260e05181613f9a01526101005181613fc0015261012051816113fa01526101405181611423015261016051818181610513015281816107f101528181610a9301528181610fa5015281816113790152818161160101528181611a8b01528181611d27015281816120e201528181612361015281816123dc0152818161245b0152818161258a0152818161287301528181612a2401528181612ec0015281816135c801528181613cb5015261418501526101805181818161093401528181610c9001528181610d5701528181610ea4015261153901526101a05181613aa101526101c0518181816102f601528181611a4a01528181612e7f0152613b6601526101e051815050f35b9061051f565b634e487b7160e01b5f52604160045260245ffd5b6306dfcc6560e41b5f90815260406004526001600160401b038416602452604490fd5b637304fac760e01b5f5260045ffd5b506306dfcc6560e41b5f52608060045260245260445ffd5b015190505f80610324565b601f19821690835f5260205f20915f5b81811061075d57509583600195969710610745575b505050811b019055610338565b01515f1960f88460031b161c191690555f8080610738565b9192602060018192868b015181550194019201610723565b825f5260205f20601f8301841c810191602084106107ae575b601f01841c01905b8181106107a3575061030b565b5f8155600101610796565b909150819061078e565b634e487b7160e01b5f52602260045260245ffd5b90607f16906102f9565b015190505f806102b2565b60045f5260205f20905f5b601f1984168110610830575060019394959683601f19811610610818575b505050811b016004556102c7565b01515f1960f88460031b161c191690555f808061080a565b9091602060018192858b0151815501930191016107ec565b60045f527f8a35acfbc15ff81a39ae7d344fd709f28e8600b4aa8c65c6b64bfe7fe36bd19b601f830160051c810191602084106108a1575b601f0160051c01905b8181106108965750610298565b5f8155600101610889565b9091508190610880565b90607f1690610286565b015190505f80610250565b60035f90815293505f516020616d495f395f51905f5291905b601f198416851061091a576001945083601f19811610610902575b505050811b01600355610265565b01515f1960f88460031b161c191690555f80806108f4565b818101518355602094850194600190930192909101906108d9565b60035f529091505f516020616d495f395f51905f52601f840160051c810160208510610986575b90849392915b601f830160051c8201811061097857505061023a565b5f8155859450600101610962565b508061095c565b91607f1691610226565b5f80fd5b601f909101601f19168101906001600160401b038211908210176106aa57604052565b81601f82011215610997578051906001600160401b0382116106aa57604051926109f2601f8401601f19166020018561099b565b8284526020838301011161099757815f9260208093018386015e8301015290565b805160209081811015610a895750601f825111610a4b5780825192015190808310610a3d57501790565b825f19910360031b1b161790565b60448260405192839163305a27a960e01b83528160048401528051918291826024860152018484015e5f828201840152601f01601f19168101030190fd5b906001600160401b0382116106aa575f54926001938481811c91168015610b8c575b838210146107b857601f8111610b59575b5081601f8411600114610af757509282939183925f94610aec575b50501b915f199060031b1c1916175f5560ff90565b015192505f80610ad7565b919083601f1981165f8052845f20945f905b88838310610b3f5750505010610b27575b505050811b015f5560ff90565b01515f1960f88460031b161c191690555f8080610b1a565b858701518855909601959485019487935090810190610b09565b5f805284601f845f20920160051c820191601f860160051c015b828110610b81575050610abc565b5f8155018590610b73565b90607f1690610aab565b805160209081811015610bc05750601f825111610a4b5780825192015190808310610a3d57501790565b9192916001600160401b0381116106aa5760019182548381811c91168015610cc2575b828210146107b857601f8111610c8f575b5080601f8311600114610c2f5750819293945f92610c24575b50505f19600383901b1c191690821b17905560ff90565b015190505f80610c0d565b90601f19831695845f52825f20925f905b888210610c785750508385969710610c60575b505050811b01905560ff90565b01515f1960f88460031b161c191690555f8080610c53565b808785968294968601518155019501930190610c40565b835f5283601f835f20920160051c820191601f850160051c015b828110610cb7575050610bf4565b5f8155018490610ca9565b90607f1690610be3565b6001600160601b0390818111610ce0571690565b6306dfcc6560e41b5f52606060045260245260445ffd5b63ffffffff90818111610d08571690565b6306dfcc6560e41b5f52602060045260245260445ffd5b63ffffffff9182169082160391908211610d3557565b634e487b7160e01b5f52601160045260245ffd5b9093919263ffffffff918281168383168111610d685750505050505090565b84841611610d795750505050905090565b6001600160601b0386811690861614610dfe5791610daa8282610da3610dc69795610db197610d1f565b1693610d1f565b1690610e07565b926001600160601b0390811692849116610e63565b808202908282041482151715610d3557670de0b6b3a7640000610def610dfb94610df694610e63565b9104610e07565b610ccc565b90565b50505050905090565b670de0b6b3a764000090818102918183041490151715610d35578115610e2b570490565b634e487b7160e01b5f52601260045260245ffd5b8015610e2b576ec097ce7bc90715b34b9f10000000000590565b8115610e2b570590565b90801561160f578115611609578160ff1c6115fb57770bce5086492111aea88f4bb1ca6bcf584181ea8059f765328110156115ec5781670c7d713b49da000012806115db575b1561128e57670de0b6b3a7640000916ec097ce7bc90715b34b9f100000000090610eec908402828101906ec097ce7bc90715b34b9f0fffffffff19018302610e59565b9080828002059181838202058284820205838582020591848684020593858786020595808888020597880205600f900596600d900595600b900594600990059360079005926005900591600390050101010101010160011b918082818507020592050201670de0b6b3a7640000905b05680238fd42c5cf03ffff19818113158061127b575b1561126c57819082121580611259575b1561124a575f915f811261123b575b506064906806f05b59d3b200000081126111ee576806f05b59d3b1ffffff190168056bc75e2d6310000082770195e54c5dd42177f53a27172fa9ec630262827000000000925b02819068ad78ebc5ac620000008112156111cb575b6856bc75e2d6310000008112156111a7575b682b5e3af16b18800000811215611185575b6815af1d78b58c400000811215611163575b680ad78ebc5ac6200000811215611142575b82811215611121575b6802b5e3af16b1880000811215611100575b68015af1d78b58c400008112156110df575b60028382800205056003848383020505600485848302050585600581868402050560068287830205056007838883020505906008848984020505926009858a8602050595600a868b8902050597600b878c8b02050599600c888d8d0205059b01010101010101010101010102050205905f14610dfb57610dfb90610e3f565b6806f5f1775788937937839168015af1d78b58c3ffff190192020590611060565b6808f00f760a4b2db55d83916802b5e3af16b187ffff19019202059061104e565b680ebc5fb41746121110839168056bc75e2d630fffff19019202059061103c565b68280e60114edb805d038391680ad78ebc5ac61fffff190192020590611033565b690127fa27722cc06cc5e283916815af1d78b58c3fffff190192020590611021565b693f1fce3da636ea5cf8508391682b5e3af16b187fffff19019202059061100f565b6b02df0ab5a80a22c61ab5a70083916856bc75e2d630ffffff190192020590610ffd565b6e01855144814a7ff805980ff0084000915068ad78ebc5ac61ffffff1901610feb565b6803782dace9d90000008112611228576803782dace9d8ffffff190168056bc75e2d63100000826b1425982cf597cd205cef738092610fd6565b68056bc75e2d6310000082600192610fd6565b600192505f0390506064610f90565b63d4794efd60e01b5f5260045ffd5b5068070c1cc73b00c80000821315610f81565b63a2f9f7e360e01b5f5260045ffd5b5068070c1cc73b00c80000821315610f71565b81670de0b6b3a7640000925f918481126115c5575b506064905f7e1600ef3172e58d2e933ec884fde10064c63b5372d805e203c000000000000082121561159a575b73011798004d755d3c8bc8e03204cf44619e000000821215611579575b820290808302906e01855144814a7ff805980ff00840009081831215611556575b50506b02df0ab5a80a22c61ab5a70080821215611536575b50693f1fce3da636ea5cf85080821215611516575b50690127fa27722cc06cc5e2808212156114f6575b5068280e60114edb805d03808212156114d6575b50680ebc5fb41746121110808212156114bf575b506808f00f760a4b2db55d8082121561149f575b506806f5f17757889379378082121561147f575b506806248f33704b28660380821215611460575b506805c548670b9510e7ac80821215611441575b506113ee68056bc75e2d6310000091828082019168056bc75e2d630fffff190102610e59565b9080828002059181838202058284820205916003600560076009600b888a89020598808b8b02059a8b0205059805960594059205010101010160011b0105905f1461143c575f035b02610f5b565b611436565b68056bc75e2d631000006756bc75e2d63100009202059101905f6113c8565b68056bc75e2d6310000067ad78ebc5ac6200009202059101905f6113b4565b68056bc75e2d6310000068015af1d78b58c400009202059101905f6113a0565b68056bc75e2d631000006802b5e3af16b18800009202059101905f61138c565b68056bc75e2d63100000809202059101905f611378565b68056bc75e2d63100000680ad78ebc5ac62000009202059101905f611364565b68056bc75e2d631000006815af1d78b58c4000009202059101905f611350565b68056bc75e2d63100000682b5e3af16b188000009202059101905f61133b565b68056bc75e2d631000006856bc75e2d6310000009202059101905f611326565b68ad78ebc5ac62000000925069021e19e0c9bab240000002059101905f8061130e565b906b1425982cf597cd205cef73806803782dace9d9000000910591016112ed565b50770195e54c5dd42177f53a27172fa9ec63026282700000000090056806f05b59d3b20000006112d0565b90506115d19150610e3f565b60019060646112a3565b50670f43fc2c04ee00008212610ea9565b63d831731160e01b5f5260045ffd5b6211380f60e51b5f5260045ffd5b50505f90565b5050670de0b6b3a76400009056fe6080806040526004361015610012575f80fd5b5f3560e01c90816301ffc9a7146130ef575080630673d09a14612e1f57806306fdde0314612d76578063095ea7b314612cf95780630b89f18214612b82578063105ae7ad14612b5357806316a0b3e014612af957806318160ddd14612adf57806318b6eb5514612a9f5780631b19fc38146129cc5780631c149e28146128d45780631d8a5e7e146128aa57806323b872dd1461280257806323de6651146127d1578063273c1adf14610c335780632754888d146127685780632c3576881461228357806330adf81f14612249578063313ce5671461222e5780633644e5151461221457806337899770146121f157806338be241d146121a657806345421ec7146120095780635211fa7714611fc657806354fd4d5014611f1d5780635687f2b814611ebc5780635b0e0bd514611e8b578063627cdcb914611e62578063654cf15d14611e40578063679aefce14611e085780636bd838c714611d8d57806370a0823114611cba57806371870e10146119eb57806372c98186146117675780637ecebe00146117225780637f118b90146115b057806381fa807c146114dd57806384b0196e146113e5578063851c1bb31461139d5780638d928af81461134d57806395d89b4114611251578063976907cc14611199578063984de9e81461105e578063a0e8f5ac14611016578063a9059cbb14610f0e578063aa6ca80814610e4c578063abb1dc4414610cfe578063b156aa0a14610c38578063b677fa5614610c33578063ba5f9f40146109b7578063c7a2755a14610987578063ce20ece71461096d578063d335b0cf146108db578063d505accf1461063d578063d77153a714610580578063dd62ed3e146104965763e66f2ef01461028f575f80fd5b346104925760608060031936011261049257600435602435916044359273ffffffffffffffffffffffffffffffffffffffff604051907fe9ddeb260000000000000000000000000000000000000000000000000000000082523060048301528382602481847f0000000000000000000000000000000000000000000000000000000000000000165afa91821561048757610337926020915f9161045a575b5001511630613ae8565b83811161042a5792608092917fa18562ea402e57cc2b437f8d7a139c6c38958adc1ecbb706ec37a7a64ff6e7a59461036d613d4f565b9361037781614be7565b6bffffffffffffffffffffffff86811696876104245750815b77ffffffffffffffffffffffff0000000000000000000000007bffffffff0000000000000000000000000000000000000000000000006103cf8761467f565b60c01b16927fffffffff000000000000000000000000000000000000000000000000000000006103fe8a61467f565b60e01b16941691871b1617171760065560405194855260208501526040840152820152a1005b91610390565b83907f7d0356f3000000000000000000000000000000000000000000000000000000005f5260045260245260445ffd5b61047a9150863d8811610480575b6104728183613233565b81019061346d565b5f61032d565b503d610468565b6040513d5f823e3d90fd5b5f80fd5b34610492576040600319360112610492576104af61317c565b60206104b961319f565b91606473ffffffffffffffffffffffffffffffffffffffff91828060405196879586947f927da1050000000000000000000000000000000000000000000000000000000086523060048701521660248501521660448301527f0000000000000000000000000000000000000000000000000000000000000000165afa8015610487575f9061054d575b602090604051908152f35b506020813d602011610578575b8161056760209383613233565b810103126104925760209051610542565b3d915061055a565b34610492575f6003193601126104925761014060405161059f816131de565b5f81526020810190604081015f8152606082015f815260808301905f825260a084015f815260c0850160e08601915f83526101009485880194610120809901975f895260018b5260018552600187526040519a5f8c5251151560208c015251151560408b015251151560608a0152511515608089015251151560a088015251151560c087015251151560e08601525115159084015251151590820152f35b346104925760e06003193601126104925761065661317c565b61065e61319f565b90604435916064359160843560ff81168103610492578342116108af576106ac8273ffffffffffffffffffffffffffffffffffffffff165f52600260205260405f2080549060018201905590565b9060405160208101917f6e71edae12b1b97f4d1f60370fef10105fa2faae0126114a169c64845d6126c9835273ffffffffffffffffffffffffffffffffffffffff9687861694856040850152888816606085015289608085015260a084015260c083015260c0825260e082019082821067ffffffffffffffff83111761088257879361078f9361078693604052519020610744613f05565b90604051917f190100000000000000000000000000000000000000000000000000000000000083526002830152602282015260c43591604260a4359220614aad565b90929192614b3c565b16818103610854576040517fe1f21c6700000000000000000000000000000000000000000000000000000000815273ffffffffffffffffffffffffffffffffffffffff848116600483015285166024820152604481018790526020816064815f7f00000000000000000000000000000000000000000000000000000000000000008b165af180156104875761082057005b6020813d60201161084c575b8161083960209383613233565b810103126104925761084a90613504565b005b3d915061082c565b7f4b800e46000000000000000000000000000000000000000000000000000000005f5260045260245260445ffd5b7f4e487b71000000000000000000000000000000000000000000000000000000005f52604160045260245ffd5b837f62791302000000000000000000000000000000000000000000000000000000005f5260045260245ffd5b34610492575f600319360112610492576040517fb45090f900000000000000000000000000000000000000000000000000000000815230600482015260208160248173ffffffffffffffffffffffffffffffffffffffff7f0000000000000000000000000000000000000000000000000000000000000000165afa8015610487575f9061054d57602090604051908152f35b34610492575f6003193601126104925760206040515f8152f35b34610492575f6003193601126104925760206109a1613d4f565b6bffffffffffffffffffffffff60405191168152f35b346104925760e0600319360112610492576109d061317c565b506109d961319f565b600460443510156104925767ffffffffffffffff9060643560843583811161049257610a099036906004016132a1565b5060a43583811161049257610a229036906004016132a1565b9260c43590811161049257602492610a406020923690600401613301565b50610a49613c9e565b6040517fe4dc2aa400000000000000000000000000000000000000000000000000000000815273ffffffffffffffffffffffffffffffffffffffff918216600482015293849182907f0000000000000000000000000000000000000000000000000000000000000000165afa918215610487575f92610bff575b50670de0b6b3a76400009182820291808304841490151715610bd257610ae891614113565b90610af283613d09565b50610afc816139e5565b5183830391838311610bd257610b1583610b419361403d565b610b1e826139e5565b52610b3283610b2c83613a1f565b5161403d565b610b3b82613a1f565b52613da8565b610b49613ea0565b81610b53856139e5565b51931002809282610b6c655af3107a4000958693613d95565b0410938415610bb1575b50505050610b8957602060405160018152f35b7f8cf25597000000000000000000000000000000000000000000000000000000005f5260045ffd5b610bc792939450610bc190613a1f565b51613d95565b041081808080610b76565b7f4e487b71000000000000000000000000000000000000000000000000000000005f52601160045260245ffd5b9091506020813d602011610c2b575b81610c1b60209383613233565b8101031261049257519083610ac3565b3d9150610c0e565b61096d565b34610492575f600319360112610492576040517f535cfd8a0000000000000000000000000000000000000000000000000000000081523060048201525f8160248173ffffffffffffffffffffffffffffffffffffffff7f0000000000000000000000000000000000000000000000000000000000000000165afa801561048757610cd8915f91610cdc575b5060405191829160208352602083019061326e565b0390f35b610cf891503d805f833e610cf08183613233565b81019061382d565b82610cc3565b34610492575f6003193601126104925773ffffffffffffffffffffffffffffffffffffffff6040517f67e0e0760000000000000000000000000000000000000000000000000000000081523060048201525f81602481857f0000000000000000000000000000000000000000000000000000000000000000165afa8015610487575f915f935f915f93610e23575b50610da2604051946080865260808601906133cc565b6020858203818701528080885193848152019701925f905b838210610de7578780610cd889610dd98d8b858203604087015261326e565b90838203606085015261326e565b909192939783606060019260408c518051610e0181613415565b8352808501518716858401520151151560408201520199019493920190610dba565b9250935050610e4491503d805f833e610e3c8183613233565b810190613709565b919385610d8c565b34610492575f600319360112610492576040517fca4f28030000000000000000000000000000000000000000000000000000000081523060048201525f8160248173ffffffffffffffffffffffffffffffffffffffff7f0000000000000000000000000000000000000000000000000000000000000000165afa801561048757610cd8915f91610eec575b506040519182916020835260208301906133cc565b610f0891503d805f833e610f008183613233565b810190613a50565b82610ed7565b3461049257604060031936011261049257610f8b6020610f2c61317c565b6040517fbeabacc800000000000000000000000000000000000000000000000000000000815233600482015273ffffffffffffffffffffffffffffffffffffffff90911660248083019190915235604482015291829081906064820190565b03815f73ffffffffffffffffffffffffffffffffffffffff7f0000000000000000000000000000000000000000000000000000000000000000165af1801561048757610fdd575b602060405160018152f35b6020813d60201161100e575b81610ff660209383613233565b810103126104925761100790613504565b5080610fd2565b3d9150610fe9565b3461049257600319606081360112610492576004359067ffffffffffffffff82116104925760e091360301126104925761104e61319f565b50604080515f81525f6020820152f35b346104925760406003193601126104925767ffffffffffffffff600435818111610492576110909036906004016132a1565b90602435906002821015610492576110d9600191600754908160a01c16906fffffffffffffffffffffffffffffffff63ffffffff82169160201c166110d3613511565b876142ab565b50916110e481613415565b0361118e576111206001915b61110c611119611113611102876139e5565b5161110c856139e5565b5190613a43565b95613a1f565b5191613a1f565b908060021461117c5760011461115d577f4e487b71000000000000000000000000000000000000000000000000000000005f52605160045260245ffd5b611172670de0b6b3a764000091602093613d95565b045b604051908152f35b506111899060209261403d565b611174565b6111206002916110f0565b3461049257610100600319360112610492576111b361317c565b506111bc61319f565b50600560443510156104925767ffffffffffffffff606435818111610492576111e99036906004016132a1565b50608435818111610492576112029036906004016132a1565b60c4358281116104925761121a9036906004016132a1565b5060e43591821161049257611236610cd8923690600401613301565b506040519182915f835260406020840152604083019061326e565b34610492575f600319360112610492576040516004545f82611272836134b3565b91828252602093600190856001821691825f1461130f5750506001146112b4575b506112a092500383613233565b610cd8604051928284938452830190613157565b84915060045f527f8a35acfbc15ff81a39ae7d344fd709f28e8600b4aa8c65c6b64bfe7fe36bd19b905f915b8583106112f75750506112a0935082010185611293565b805483890185015287945086939092019181016112e0565b7fffffffffffffffffffffffffffffffffffffffffffffffffffffffffffffff0016858201526112a095151560051b85010192508791506112939050565b34610492575f60031936011261049257602060405173ffffffffffffffffffffffffffffffffffffffff7f0000000000000000000000000000000000000000000000000000000000000000168152f35b34610492576020600319360112610492576004357fffffffff000000000000000000000000000000000000000000000000000000008116810361049257611174602091613a76565b34610492575f6003193601126104925761141e7f00000000000000000000000000000000000000000000000000000000000000006148bd565b6114477f00000000000000000000000000000000000000000000000000000000000000006149ef565b9060405191602083019280841067ffffffffffffffff851117610882576114bd610cd8926114af956040525f83526040519586957f0f00000000000000000000000000000000000000000000000000000000000000875260e0602088015260e0870190613157565b908582036040870152613157565b904660608501523060808501525f60a085015283820360c085015261326e565b34610492575f600319360112610492576040517ff29486a10000000000000000000000000000000000000000000000000000000081523060048201526101a090818160248173ffffffffffffffffffffffffffffffffffffffff7f0000000000000000000000000000000000000000000000000000000000000000165afa908115610487576040925f92611583575b505060608282015191015182519182526020820152f35b6115a29250803d106115a9575b61159a8183613233565b8101906138dc565b828061156c565b503d611590565b34610492575f600319360112610492576040516040810181811067ffffffffffffffff821117610882576040526060815260208101906060825273ffffffffffffffffffffffffffffffffffffffff7f0000000000000000000000000000000000000000000000000000000000000000166040517fca4f28030000000000000000000000000000000000000000000000000000000081523060048201525f81602481855afa918215610487576024925f928391611708575b508452604051928380927f7e361bde0000000000000000000000000000000000000000000000000000000082523060048301525afa928315610487576116d293610cd8925f916116e5575b50815260405193849360208552516040602086015260608501906133cc565b9051601f19848303016040850152613399565b61170191503d805f833e6116f98183613233565b810190613853565b50856116b3565b61171c91503d8085833e610f008183613233565b86611668565b346104925760206003193601126104925773ffffffffffffffffffffffffffffffffffffffff61175061317c565b165f526002602052602060405f2054604051908152f35b34610492576003196020813601126104925760043567ffffffffffffffff918282116104925760e09082360301126104925760405160e0810181811084821117610882576040528160040135600281101561049257815260208101602483013581526044830135848111610492576117e590600436918601016132a1565b926040830193845260608301946064820135865260808401916084810135835260a481013573ffffffffffffffffffffffffffffffffffffffff811681036104925760a086015260c48101359182116104925760046118479236920101613301565b60c08401526118568451613d09565b9390936119dd575b611866613ea0565b5161187081613415565b61187981613415565b61195a57835185516118ba8351916118b486516118af6118998a88614808565b9361110c6118a7828a613a2f565b51918c613a2f565b613a43565b90614790565b906118d36118c88285613a2f565b5161110c8389613a2f565b808311611932576118ed926118e791613adb565b92613a2f565b51811161190a57602095611174948296519451915193519461407e565b7f078e5dbe000000000000000000000000000000000000000000000000000000005f5260045ffd5b7f366eca71000000000000000000000000000000000000000000000000000000005f5260045ffd5b8394929351928051958251948451976119738783613a2f565b51891161190a576119bf6119c6836119bf846118e76111899c60209f8f906119ba8261110c6119a86118b4956119cd9f614808565b956119b3818c613a2f565b5192613a2f565b613adb565b5190613adb565b9189613a2f565b958691519451925193519461407e565b6119e684613da8565b61185e565b34610492576020806003193601126104925760043573ffffffffffffffffffffffffffffffffffffffff6040517fe9ddeb26000000000000000000000000000000000000000000000000000000008152306004820152606081602481857f0000000000000000000000000000000000000000000000000000000000000000165afa801561048757848391611a89935f91611c9b575001511630613ae8565b7f0000000000000000000000000000000000000000000000000000000000000000166040517f8380edb70000000000000000000000000000000000000000000000000000000081528381600481855afa908115610487575f91611c66575b50611c3e575f602491604051928380927f67e0e0760000000000000000000000000000000000000000000000000000000082523060048301525afa801561048757611b39915f91611c20575b50613d09565b611c11575b50611b47613ea0565b6201e6e98104916fffffffffffffffffffffffffffffffff808411611be05790604092917ffefd89259d65afcadf2c63596421033bc90210eb2e823adaad190d22ddfdaf42947fffffffffffffffffffffffff00000000000000000000000000000000ffffffff73ffffffffffffffffffffffffffffffff0000000060075492851b16911617806007558451938452821c1690820152a1005b837f6dfcc650000000000000000000000000000000000000000000000000000000005f52608060045260245260445ffd5b611c1a90613da8565b82611b3e565b611c3491503d805f833e610e3c8183613233565b9250505084611b33565b7fe4575fe4000000000000000000000000000000000000000000000000000000005f5260045ffd5b90508381813d8311611c94575b611c7d8183613233565b8101031261049257611c8e90613504565b84611ae7565b503d611c73565b611cb4915060603d606011610480576104728183613233565b8761032d565b346104925760208060031936011261049257604481611cd761317c565b6040517ff7888aec00000000000000000000000000000000000000000000000000000000815230600482015273ffffffffffffffffffffffffffffffffffffffff918216602482015292839182907f0000000000000000000000000000000000000000000000000000000000000000165afa908115610487575f91611d60575b50604051908152f35b90508181813d8311611d86575b611d778183613233565b81010312610492575182611d57565b503d611d6d565b34610492575f600319360112610492575f6060604051611dac816131c2565b82815282602082015282604082015201526080611dc7613897565b604051906bffffffffffffffffffffffff8082511683526020820151166020830152606060408201519163ffffffff80931660408501520151166060820152f35b34610492575f600319360112610492577f56b7fcdb000000000000000000000000000000000000000000000000000000005f5260045ffd5b34610492575f60031936011261049257602060405167016345785d8a00008152f35b34610492575f60031936011261049257335f908152600260205260409020805460018101909155005b34610492575f6003193601126104925760206007546fffffffffffffffffffffffffffffffff60405191831c168152f35b346104925760207f8c5be1e5ebec7d5bd14f71427d1e84f3dd0314c0f7b2291e5b200ac8c7c3b925611eed36613357565b92919390611ef9613c9e565b73ffffffffffffffffffffffffffffffffffffffff809160405195865216941692a3005b34610492575f600319360112610492576040516005545f82611f3e836134b3565b91828252602093600190856001821691825f1461130f575050600114611f6b57506112a092500383613233565b84915060055f527f036b6384b5eca791c62761152d0c79bb0604c104a5fb6f4eb0703f3154bb3db0905f915b858310611fae5750506112a0935082010185611293565b80548389018501528794508693909201918101611f97565b3461049257600319604081360112610492576004359067ffffffffffffffff82116104925760e0913603011261049257611ffe61319f565b5060206040515f8152f35b346104925760e06003193601126104925761202261317c565b5061202b61319f565b600560443510156104925767ffffffffffffffff90606435828111610492576120589036906004016132a1565b5060a435828111610492576120719036906004016132a1565b9160c4359081116104925760249161208f6020923690600401613301565b50612098613c9e565b6040517fe4dc2aa400000000000000000000000000000000000000000000000000000000815273ffffffffffffffffffffffffffffffffffffffff918216600482015292839182907f0000000000000000000000000000000000000000000000000000000000000000165afa908115610487575f91612172575b5061212261212891608435614790565b91613d09565b50612132816139e5565b51670de0b6b3a7640000928301809311610bd2578261215761216a94610b329361403d565b612160846139e5565b52610b2c83613a1f565b610fd2613ea0565b90506020813d60201161219e575b8161218d60209383613233565b810103126104925751612122612112565b3d9150612180565b346104925760606003193601126104925767ffffffffffffffff600435818111610492576121d89036906004016132a1565b5060443590811161049257611ffe903690600401613301565b34610492575f60031936011261049257602063ffffffff60075416604051908152f35b34610492575f600319360112610492576020611174613f05565b34610492575f60031936011261049257602060405160128152f35b34610492575f6003193601126104925760206040517f6e71edae12b1b97f4d1f60370fef10105fa2faae0126114a169c64845d6126c98152f35b34610492575f60031936011261049257604051610200810181811067ffffffffffffffff8211176108825760405260608152606060208201525f60408201525f60608201525f6080820152606060a08201525f60c08201525f60e08201525f6101008201525f6101208201525f6101408201525f6101608201525f6101808201525f6101a08201525f6101c08201525f6101e08201526040517f535cfd8a0000000000000000000000000000000000000000000000000000000081523060048201525f8160248173ffffffffffffffffffffffffffffffffffffffff7f0000000000000000000000000000000000000000000000000000000000000000165afa908115610487575f9161274e575b5081526040517f7e361bde0000000000000000000000000000000000000000000000000000000081523060048201525f8160248173ffffffffffffffffffffffffffffffffffffffff7f0000000000000000000000000000000000000000000000000000000000000000165afa908115610487575f91612732575b5060208201526040517fb45090f900000000000000000000000000000000000000000000000000000000815230600482015260208160248173ffffffffffffffffffffffffffffffffffffffff7f0000000000000000000000000000000000000000000000000000000000000000165afa908115610487575f91612700575b50604082015261249961357f565b606082015267ffffffffffffffff60075463ffffffff811660808401526124be613511565b60a08401526fffffffffffffffffffffffffffffffff8160201c1660c084015260a01c1660e082015263ffffffff60606bffffffffffffffffffffffff80612504613d4f565b16610100850152612513613897565b9080825116610120860152602082015116610140850152826040820151166101608501520151166101808201526040517ff29486a10000000000000000000000000000000000000000000000000000000081523060048201526101a08160248173ffffffffffffffffffffffffffffffffffffffff7f0000000000000000000000000000000000000000000000000000000000000000165afa801561048757610120915f916126df575b5060e081015115156101a084015261010081015115156101c0840152015115156101e08201526040518091602082526101e061265961260a83516102006020870152610220860190613399565b612626602085015191601f199283888303016040890152613399565b906040850151606087015260608501516080870152608085015160a087015260a0850151908683030160c0870152613399565b9160c081015160e085015260e081015161010085015261010081015161012085015261012081015161014085015261014081015161016085015263ffffffff6101608201511661018085015263ffffffff610180820151166101a08501526101a081015115156101c08501526101c0810151151582850152015115156102008301520390f35b6126fa91506101a03d6101a0116115a95761159a8183613233565b836125bd565b90506020813d60201161272a575b8161271b60209383613233565b8101031261049257518261248b565b3d915061270e565b61274691503d805f833e6116f98183613233565b90508261240c565b61276291503d805f833e610cf08183613233565b82612391565b34610492576101006003193601126104925761278261317c565b5061278b61319f565b50600460443510156104925767ffffffffffffffff608435818111610492576127b89036906004016132a1565b5060a435818111610492576112029036906004016132a1565b346104925760207fddf252ad1be2c89b69c2b068fc378daa952ba7f163c4a11628f55a4df523b3ef611eed36613357565b34610492576084602061281436613357565b6040517f15dacbea00000000000000000000000000000000000000000000000000000000815233600482015273ffffffffffffffffffffffffffffffffffffffff93841660248201529183166044830152606482015292839182905f907f0000000000000000000000000000000000000000000000000000000000000000165af1801561048757610fdd57602060405160018152f35b34610492575f60031936011261049257602067ffffffffffffffff60075460a01c16604051908152f35b346104925760406003193601126104925767ffffffffffffffff600435818111610492576129069036906004016132a1565b906024359081116104925761291f903690600401613301565b50612928613c9e565b6bffffffffffffffffffffffff61293d613d4f565b1690805190601f1961296761295184613256565b9361295f6040519586613233565b808552613256565b01366020840137612977816139e5565b51927ffffffffffffffffffffffffffffffffffffffffffffffffff21f494c589c00008101908111610bd2576129c6610b32926129b78361216a9761414a565b6129c0866139e5565b52613a1f565b5161414a565b34610492575f600319360112610492576040517f67e0e0760000000000000000000000000000000000000000000000000000000081523060048201525f8160248173ffffffffffffffffffffffffffffffffffffffff7f0000000000000000000000000000000000000000000000000000000000000000165afa90811561048757612a7591612a61915f91612a815750613d09565b60405192839260408452604084019061326e565b90151560208301520390f35b612a9591503d805f833e610e3c8183613233565b9250505083611b33565b3461049257600319602081360112610492576004359067ffffffffffffffff821161049257610180913603011261049257604080515f81525f6020820152f35b34610492575f60031936011261049257602061117461357f565b346104925760606003193601126104925760043567ffffffffffffffff811161049257612b2a9036906004016132a1565b507fd6234725000000000000000000000000000000000000000000000000000000005f5260045ffd5b34610492575f60031936011261049257610cd8612b6e613511565b60405191829160208352602083019061326e565b346104925760e060031936011261049257612b9b61317c565b50612ba461319f565b5060443567ffffffffffffffff81116104925736602382011215610492578060040135612bd081613256565b91612bde6040519384613233565b81835260206024602085019360071b8301019136831161049257602401925b828410612c78578460807fffffffffffffffffffffffffffffffffffffffffffffffffffffffffffffff9c36011261049257600290612c3a613c9e565b511480612c67575b80612c55575b6020906040519015158152f35b5060c435801590811514612c48575f80fd5b506064358015158114612c42575f80fd5b6080843603126104925760405190612c8f826131c2565b73ffffffffffffffffffffffffffffffffffffffff8535818116810361049257835283860135600281101561049257848401526040860135908116810361049257604083015260609081860135928315158403610492576080938593820152815201930192612bfd565b3461049257604060031936011261049257610f8b6020612d1761317c565b6040517fe1f21c6700000000000000000000000000000000000000000000000000000000815233600482015273ffffffffffffffffffffffffffffffffffffffff90911660248083019190915235604482015291829081906064820190565b34610492575f600319360112610492576040516003545f82612d97836134b3565b91828252602093600190856001821691825f1461130f575050600114612dc457506112a092500383613233565b84915060035f527fc2575a0e9e593c00f959f8c92f12db2869c3395a3b0502d05e2516446f71f85b905f915b858310612e075750506112a0935082010185611293565b80548389018501528794508693909201918101612df0565b3461049257602080600319360112610492576004359073ffffffffffffffffffffffffffffffffffffffff6040517fe9ddeb26000000000000000000000000000000000000000000000000000000008152306004820152606081602481857f0000000000000000000000000000000000000000000000000000000000000000165afa801561048757838391612ebe935f91611c9b575001511630613ae8565b7f0000000000000000000000000000000000000000000000000000000000000000166040517f8380edb70000000000000000000000000000000000000000000000000000000081528281600481855afa908115610487575f916130ba575b50611c3e57612f2961416e565b1561302a575f602491604051928380927f67e0e0760000000000000000000000000000000000000000000000000000000082523060048301525afa801561048757612f7a915f91611c205750613d09565b6130ab575b50612f88613ea0565b670de0b6b3a764000082116130835767ffffffffffffffff8211613052577f74d468c8e414c37c502176a45cce93c85eaa0abf608e40641dc6664ca5efcab0916007547fffffffff0000000000000000ffffffffffffffffffffffffffffffffffffffff7bffffffffffffffff00000000000000000000000000000000000000008360a01b16911617600755604051908152a161302361416e565b1561302a57005b7f9ef66dc7000000000000000000000000000000000000000000000000000000005f5260045ffd5b507f6dfcc650000000000000000000000000000000000000000000000000000000005f52604060045260245260445ffd5b7f7304fac7000000000000000000000000000000000000000000000000000000005f5260045ffd5b6130b490613da8565b82612f7f565b90508281813d83116130e8575b6130d18183613233565b81010312610492576130e290613504565b84612f1c565b503d6130c7565b3461049257602060031936011261049257600435907fffffffff000000000000000000000000000000000000000000000000000000008216809203610492577f01ffc9a700000000000000000000000000000000000000000000000000000000602092148152f35b90601f19601f602080948051918291828752018686015e5f8582860101520116010190565b6004359073ffffffffffffffffffffffffffffffffffffffff8216820361049257565b6024359073ffffffffffffffffffffffffffffffffffffffff8216820361049257565b6080810190811067ffffffffffffffff82111761088257604052565b610140810190811067ffffffffffffffff82111761088257604052565b6060810190811067ffffffffffffffff82111761088257604052565b6040810190811067ffffffffffffffff82111761088257604052565b90601f601f19910116810190811067ffffffffffffffff82111761088257604052565b67ffffffffffffffff81116108825760051b60200190565b9081518082526020808093019301915f5b82811061328d575050505090565b83518552938101939281019260010161327f565b9080601f830112156104925760209082356132bb81613256565b936132c96040519586613233565b81855260208086019260051b82010192831161049257602001905b8282106132f2575050505090565b813581529083019083016132e4565b81601f820112156104925780359067ffffffffffffffff821161088257604051926133366020601f19601f8601160185613233565b8284526020838301011161049257815f926020809301838601378301015290565b60031960609101126104925773ffffffffffffffffffffffffffffffffffffffff90600435828116810361049257916024359081168103610492579060443590565b9081518082526020808093019301915f5b8281106133b8575050505090565b8351855293810193928101926001016133aa565b9081518082526020808093019301915f5b8281106133eb575050505090565b835173ffffffffffffffffffffffffffffffffffffffff16855293810193928101926001016133dd565b6002111561341f57565b7f4e487b71000000000000000000000000000000000000000000000000000000005f52602160045260245ffd5b519073ffffffffffffffffffffffffffffffffffffffff8216820361049257565b90816060910312610492576134ab6040805192613489846131fb565b6134928161344c565b84526134a06020820161344c565b60208501520161344c565b604082015290565b90600182811c921680156134fa575b60208310146134cd57565b7f4e487b71000000000000000000000000000000000000000000000000000000005f52602260045260245ffd5b91607f16916134c2565b5190811515820361049257565b6040519060085480835282602091602082019060085f527ff3f7a9fe364faab93b216da50a3214154f22a0a2b415b23a84c8169e8b636ee3935f905b8282106135655750505061356392500383613233565b565b85548452600195860195889550938101939091019061354d565b6040517fe4dc2aa400000000000000000000000000000000000000000000000000000000815230600482015260208160248173ffffffffffffffffffffffffffffffffffffffff7f0000000000000000000000000000000000000000000000000000000000000000165afa908115610487575f916135fb575090565b90506020813d602011613622575b8161361660209383613233565b81010312610492575190565b3d9150613609565b9080601f830112156104925781519060209161364581613256565b936136536040519586613233565b81855260208086019260051b82010192831161049257602001905b82821061367c575050505090565b815173ffffffffffffffffffffffffffffffffffffffff8116810361049257815290830190830161366e565b9080601f83011215610492578151906020916136c381613256565b936136d16040519586613233565b81855260208086019260051b82010192831161049257602001905b8282106136fa575050505090565b815181529083019083016136ec565b916080838303126104925782519067ffffffffffffffff91828111610492578361373491860161362a565b9360208082015184811161049257820185601f820112156104925780519061375b82613256565b92604061376b6040519586613233565b83855281850190826060809602850101938a8511610492578301915b8483106137c75750505050505093604082015184811161049257816137ad9184016136a8565b936060830151908111610492576137c492016136a8565b90565b85838c0312610492578151906137dc826131fb565b83516002811015610492578252848401519073ffffffffffffffffffffffffffffffffffffffff8216820361049257828692838a95015261381e858701613504565b85820152815201920191613787565b9060208282031261049257815167ffffffffffffffff8111610492576137c492016136a8565b9190916040818403126104925780519267ffffffffffffffff9384811161049257816138809184016136a8565b936020830151908111610492576137c492016136a8565b604051906138a4826131c2565b8160606006546bffffffffffffffffffffffff808216845281831c16602084015263ffffffff8160c01c16604084015260e01c910152565b809103906101a08212610492576080604051926138f8846131de565b1261049257604051613909816131c2565b61391282613504565b815261392060208301613504565b602082015261393160408301613504565b604082015261394260608301613504565b606082015282526080810151602083015260a0810151604083015260c0810151606083015260e081015164ffffffffff81168103610492576080830152610100908181015163ffffffff81168103610492576139de916101809160a0860152610120936139b0858301613504565b60c08701526139c26101408301613504565b60e08701526139d46101608301613504565b9086015201613504565b9082015290565b8051156139f25760200190565b7f4e487b71000000000000000000000000000000000000000000000000000000005f52603260045260245ffd5b8051600110156139f25760400190565b80518210156139f25760209160051b010190565b91908201809211610bd257565b9060208282031261049257815167ffffffffffffffff8111610492576137c4920161362a565b6040517fffffffff0000000000000000000000000000000000000000000000000000000060208201927f0000000000000000000000000000000000000000000000000000000000000000845216604082015260248152613ad5816131fb565b51902090565b91908203918211610bd257565b9073ffffffffffffffffffffffffffffffffffffffff90811680613c935750613b337fffffffff000000000000000000000000000000000000000000000000000000005f3516613a76565b91604051907faaabadc50000000000000000000000000000000000000000000000000000000082526020938483600481877f0000000000000000000000000000000000000000000000000000000000000000165afa92831561048757859385915f91613c54575b50906064929160405196879586947f9be2a8840000000000000000000000000000000000000000000000000000000086526004860152336024860152166044840152165afa918215610487575f92613c1e575b505015613bf657565b7f23dada53000000000000000000000000000000000000000000000000000000005f5260045ffd5b90809250813d8311613c4d575b613c358183613233565b8101031261049257613c4690613504565b5f80613bed565b503d613c2b565b92948092508391503d8311613c8c575b613c6e8183613233565b81010312610492575183811681036104925784929084906064613b9a565b503d613c64565b9150503303613bf657565b73ffffffffffffffffffffffffffffffffffffffff7f0000000000000000000000000000000000000000000000000000000000000000163303613cdd57565b7f089676d5000000000000000000000000000000000000000000000000000000005f523360045260245ffd5b613d4b9060075467ffffffffffffffff8160a01c16916fffffffffffffffffffffffffffffffff63ffffffff83169260201c1690613d45613511565b906142ab565b9091565b6137c4613d5a613897565b613d634261467f565b906bffffffffffffffffffffffff80825116906020830151169063ffffffff60608160408601511694015116936146d6565b81810292918115918404141715610bd257565b805167ffffffffffffffff8111610882576801000000000000000081116108825760085481600855808210613e60575b5060208083019060085f525f5b838110613e2e5750505050613e297fc529f58e32911795eccb217ca6864f59a86deffdfe55fab1dd71ac23a6e136a59160405191829160208352602083019061326e565b0390a1565b82517ff3f7a9fe364faab93b216da50a3214154f22a0a2b415b23a84c8169e8b636ee382015591810191600101613de5565b817ff3f7a9fe364faab93b216da50a3214154f22a0a2b415b23a84c8169e8b636ee391820191015b818110613e955750613dd8565b5f8155600101613e88565b7f32a9fd44bdf167703f584bd25098494d3d18a4653a2d97116d28da05209444d4602063ffffffff613ed14261467f565b16807fffffffffffffffffffffffffffffffffffffffffffffffffffffffff000000006007541617600755604051908152a1565b73ffffffffffffffffffffffffffffffffffffffff7f000000000000000000000000000000000000000000000000000000000000000016301480614014575b15613f6d577f000000000000000000000000000000000000000000000000000000000000000090565b60405160208101907f8b73c3c69bb8fe3d512ecc4cf759cc79239f7b179b0ffacaa9a75d522b39400f82527f000000000000000000000000000000000000000000000000000000000000000060408201527f000000000000000000000000000000000000000000000000000000000000000060608201524660808201523060a082015260a0815260c0810181811067ffffffffffffffff8211176108825760405251902090565b507f00000000000000000000000000000000000000000000000000000000000000004614613f44565b9061404791613d95565b6001670de0b6b3a76400007fffffffffffffffffffffffffffffffffffffffffffffffffffffffffffffffff830104019015150290565b93655af3107a4000936140c0916140af6140a86140d1969995996140a2848b613a2f565b51613a43565b9188613a2f565b526140ba8387613a2f565b51613adb565b6140ca8286613a2f565b5283613a2f565b5110610b89576103e8916140e49161482d565b106140eb57565b7f1878f33d000000000000000000000000000000000000000000000000000000005f5260045ffd5b811561411d570490565b7f4e487b71000000000000000000000000000000000000000000000000000000005f52601260045260245ffd5b90670de0b6b3a764000091828102928184041490151715610bd2576137c491614113565b73ffffffffffffffffffffffffffffffffffffffff7f0000000000000000000000000000000000000000000000000000000000000000166040517f8380edb7000000000000000000000000000000000000000000000000000000008152602081600481855afa908115610487575f91614271575b50611c3e575f602491604051928380927f67e0e0760000000000000000000000000000000000000000000000000000000082523060048301525afa908115610487575f91614253575b5061424e67ffffffffffffffff60075460a01c1691614248613511565b9061482d565b101590565b61426791503d805f833e610e3c8183613233565b925050505f61422b565b90506020813d6020116142a3575b8161428c60209383613233565b810103126104925761429d90613504565b5f6141e2565b3d915061427f565b9394925f946142b94261467f565b63ffffffff811663ffffffff8416146146735783976142d6613897565b906bffffffffffffffffffffffff958683511687614314816020870151169263ffffffff604088015116606088019463ffffffff865116928a6146d6565b16936143208388614c30565b9863ffffffff604083015116928315159384614663575b508361464a575b5082614634575b505061449d575b5067ffffffffffffffff166143618a8561482d565b1061436f575b505050505050565b61438c9293949596989750670de0b6b3a764000092818492613d95565b0494156144915760019560ff805f5b169716946143a9868a613a2f565b5191840392848411610bd25763ffffffff916143c4916146c0565b169083820291808304851490151715610bd2576143e56143eb928594614c8d565b90613d95565b046143f68488613a2f565b528061441e6144058785613a2f565b516143e5614413878b613a2f565b5161110c8888613a2f565b04917ffffffffffffffffffffffffffffffffffffffffffffffffff21f494c589c00008501948511610bd2576119bf846144749361446d6144819861446661447a998d613a2f565b5190613d95565b0492613a2f565b9061414a565b9183613a2f565b52906001905f8080808080614367565b5f9560ff80600161439b565b9199509750841561462657600161450460ff805f5b169216916144c08187613a2f565b51926144cc8188613a2f565b51938d6144f1604051976144df896131fb565b6002895260403660208b01378a61482d565b90670de0b6b3a764000095818792613d95565b04947ffffffffffffffffffffffffffffffffffffffffffffffffff21f494c589c00008601958611610bd257818101808211610bd257614545829185613d95565b049061455c83826145568780613d95565b04613d95565b04906145688180613d95565b7f3fffffffffffffffffffffffffffffffffffffffffffffffffffffffffffffff88168803610bd2576145ae6145a8916145a86145b3958b60021b613d95565b90613a43565b6155be565b907f7fffffffffffffffffffffffffffffffffffffffffffffffffffffffffffffff86168603610bd2576146076140ca936146026145fb61460c956146139a60011b9061414a565b809a613d95565b614113565b61414a565b9186613a2f565b529760019767ffffffffffffffff61434c565b5f61450460ff8060016144b2565b9091506020818351169201511614155f80614345565b63ffffffff919350511663ffffffff891610915f61433e565b63ffffffff89161193505f614337565b509195505f9450505050565b63ffffffff90818111614690571690565b7f6dfcc650000000000000000000000000000000000000000000000000000000005f52602060045260245260445ffd5b63ffffffff9182169082160391908211610bd257565b91939092909163ffffffff919082811683831681116146f9575050505050905090565b8484161161470957505050505090565b6bffffffffffffffffffffffff808716908616146147885761477c61477661475d6137c4989686614756876144749961474f6147839d9a670de0b6b3a76400009a6146c0565b16936146c0565b169061414a565b80946bffffffffffffffffffffffff8091169716614c8d565b85613d95565b0492614c8d565b614be7565b505050505090565b9080156147e057670de0b6b3a764000091828102928184041490151715610bd2576001907fffffffffffffffffffffffffffffffffffffffffffffffffffffffffffffffff830104019015150290565b7f0a0c22c7000000000000000000000000000000000000000000000000000000005f5260045ffd5b6148276137c49261110c611119614821611102866139e5565b94613a1f565b9061403d565b90614837826139e5565b511580156148ac575b6148a65761488c82614855836137c495614c30565b15614893576118e75f9161488560ff806001955b169416936118e761487a8685613a2f565b51614466838a613a2f565b5190614113565b519061414a565b6118e760019161488560ff805f95614869565b50505f90565b506148b682613a1f565b5115614840565b60ff81146149115760ff811690601f82116148e957604051916148df83613217565b8252602082015290565b7fb3512b0c000000000000000000000000000000000000000000000000000000005f5260045ffd5b506040515f815f5491614923836134b3565b808352926020906001908181169081156149ac575060011461494e575b50506137c492500382613233565b9150925f80527f290decd9548b62a8d60345a988386fc84ba6bc95484008f6362f93160ef3e563935f925b82841061499457506137c49450505081016020015f80614940565b85548785018301529485019486945092810192614979565b9050602093506137c49592507fffffffffffffffffffffffffffffffffffffffffffffffffffffffffffffff0091501682840152151560051b8201015f80614940565b60ff8114614a115760ff811690601f82116148e957604051916148df83613217565b506040515f81600191600154614a26816134b3565b80845293602091600181169081156149ac5750600114614a4e5750506137c492500382613233565b91509260015f527fb10e2d527612073b26eecdfd717e6a320cf44b4afac2b0732d9fcbe2b7fa0cf6935f925b828410614a9557506137c49450505081016020015f80614940565b85548785018301529485019486945092810192614a7a565b91907f7fffffffffffffffffffffffffffffff5d576e7357a4501ddfe92f46681b20a08411614b31579160209360809260ff5f9560405194855216868401526040830152606082015282805260015afa15610487575f5173ffffffffffffffffffffffffffffffffffffffff811615614b2757905f905f90565b505f906001905f90565b5050505f9160039190565b600481101561341f5780614b4e575050565b60018103614b7e577ff645eedf000000000000000000000000000000000000000000000000000000005f5260045ffd5b60028103614bb257507ffce698f7000000000000000000000000000000000000000000000000000000005f5260045260245ffd5b600314614bbc5750565b7fd78bce0c000000000000000000000000000000000000000000000000000000005f5260045260245ffd5b6bffffffffffffffffffffffff90818111614c00571690565b7f6dfcc650000000000000000000000000000000000000000000000000000000005f52606060045260245260445ffd5b614c3981613a1f565b51614c45575050600190565b614c588161488c611119614c65946139e5565b9161488c611119826139e5565b1090565b801561411d576ec097ce7bc90715b34b9f10000000000590565b811561411d570590565b9080156155b05781156148a6578160ff1c61558857770bce5086492111aea88f4bb1ca6bcf584181ea8059f765328110156155605781670c7d713b49da0000128061554f575b156151ec57670de0b6b3a7640000916ec097ce7bc90715b34b9f100000000090614d26908402828101907fffffffffffffffffffffffffffffffffff3f68318436f8ea4cb460f000000000018302614c83565b9080828002059181838202058284820205838582020591848684020593858786020595808888020597880205600f900596600d900595600b900594600990059360079005926005900591600390050101010101010160011b918082818507020592050201670de0b6b3a7640000905b057ffffffffffffffffffffffffffffffffffffffffffffffffdc702bd3a30fc000081811315806151d9575b156151b15781908212158061519e575b15615176575f915f8112615167575b506064906806f05b59d3b20000008112615104577ffffffffffffffffffffffffffffffffffffffffffffffff90fa4a62c4e0000000168056bc75e2d6310000082770195e54c5dd42177f53a27172fa9ec630262827000000000925b02819068ad78ebc5ac620000008112156150cb575b6856bc75e2d631000000811215615091575b682b5e3af16b18800000811215615059575b6815af1d78b58c400000811215615021575b680ad78ebc5ac6200000811215614fea575b82811215614fb3575b6802b5e3af16b1880000811215614f7c575b68015af1d78b58c40000811215614f45575b60028382800205056003848383020505600485848302050585600581868402050560068287830205056007838883020505906008848984020505926009858a8602050595600a868b8902050597600b878c8b02050599600c888d8d0205059b01010101010101010101010102050205905f146137c4576137c490614c69565b6806f5f17757889379377ffffffffffffffffffffffffffffffffffffffffffffffffea50e2874a73c000084920192020590614ec6565b6808f00f760a4b2db55d7ffffffffffffffffffffffffffffffffffffffffffffffffd4a1c50e94e78000084920192020590614eb4565b680ebc5fb417461211107ffffffffffffffffffffffffffffffffffffffffffffffffa9438a1d29cf0000084920192020590614ea2565b68280e60114edb805d037ffffffffffffffffffffffffffffffffffffffffffffffff5287143a539e0000084920192020590614e99565b690127fa27722cc06cc5e27fffffffffffffffffffffffffffffffffffffffffffffffea50e2874a73c0000084920192020590614e87565b693f1fce3da636ea5cf8507fffffffffffffffffffffffffffffffffffffffffffffffd4a1c50e94e780000084920192020590614e75565b6b02df0ab5a80a22c61ab5a7007fffffffffffffffffffffffffffffffffffffffffffffffa9438a1d29cf00000084920192020590614e63565b6e01855144814a7ff805980ff008400091507fffffffffffffffffffffffffffffffffffffffffffffff5287143a539e00000001614e51565b6803782dace9d90000008112615154577ffffffffffffffffffffffffffffffffffffffffffffffffc87d25316270000000168056bc75e2d63100000826b1425982cf597cd205cef738092614e3c565b68056bc75e2d6310000082600192614e3c565b600192505f0390506064614de0565b7fd4794efd000000000000000000000000000000000000000000000000000000005f5260045ffd5b5068070c1cc73b00c80000821315614dd1565b7fa2f9f7e3000000000000000000000000000000000000000000000000000000005f5260045ffd5b5068070c1cc73b00c80000821315614dc1565b81670de0b6b3a7640000925f91848112615539575b506064905f7e1600ef3172e58d2e933ec884fde10064c63b5372d805e203c000000000000082121561550e575b73011798004d755d3c8bc8e03204cf44619e0000008212156154ed575b820290808302906e01855144814a7ff805980ff008400090818312156154ca575b50506b02df0ab5a80a22c61ab5a700808212156154aa575b50693f1fce3da636ea5cf8508082121561548a575b50690127fa27722cc06cc5e28082121561546a575b5068280e60114edb805d038082121561544a575b50680ebc5fb4174612111080821215615433575b506808f00f760a4b2db55d80821215615413575b506806f5f1775788937937808212156153f3575b506806248f33704b286603808212156153d4575b506805c548670b9510e7ac808212156153b5575b5061536268056bc75e2d6310000091827ffffffffffffffffffffffffffffffffffffffffffffffffa9438a1d29cf00000818301920102614c83565b9080828002059181838202058284820205916003600560076009600b888a89020598808b8b02059a8b0205059805960594059205010101010160011b0105905f146153b0575f035b02614d95565b6153aa565b68056bc75e2d631000006756bc75e2d63100009202059101905f615326565b68056bc75e2d6310000067ad78ebc5ac6200009202059101905f615312565b68056bc75e2d6310000068015af1d78b58c400009202059101905f6152fe565b68056bc75e2d631000006802b5e3af16b18800009202059101905f6152ea565b68056bc75e2d63100000809202059101905f6152d6565b68056bc75e2d63100000680ad78ebc5ac62000009202059101905f6152c2565b68056bc75e2d631000006815af1d78b58c4000009202059101905f6152ae565b68056bc75e2d63100000682b5e3af16b188000009202059101905f615299565b68056bc75e2d631000006856bc75e2d6310000009202059101905f615284565b68ad78ebc5ac62000000925069021e19e0c9bab240000002059101905f8061526c565b906b1425982cf597cd205cef73806803782dace9d90000009105910161524b565b50770195e54c5dd42177f53a27172fa9ec63026282700000000090056806f05b59d3b200000061522e565b90506155459150614c69565b6001906064615201565b50670f43fc2c04ee00008212614cd3565b7fd8317311000000000000000000000000000000000000000000000000000000005f5260045ffd5b7f022701e0000000000000000000000000000000000000000000000000000000005f5260045ffd5b5050670de0b6b3a764000090565b6001808211156156f15761568d9080837001000000000000000000000000000000008110156156da575b806801000000000000000060049210156156cd575b6401000000008110156156c0575b620100008110156156b3575b6101008110156156a7575b601081101561569b575b1015615694575b600302811c6156428185614113565b01811c61564f8185614113565b01811c61565c8185614113565b01811c6156698185614113565b01811c6156768185614113565b01811c6156838185614113565b01901c8092614113565b8111900390565b811b615633565b811c9160021b9161562c565b60081c91811b91615622565b60101c9160081b91615617565b60201c9160101b9161560b565b60401c9160201b916155fd565b50680100000000000000009050608084901c6155e8565b509056fea26469706673582212201d8d0cbd2aedc2f35de206425616dc5fa9b6d532e8f54af3449dd267245d1d0c64736f6c634300081b0033c2575a0e9e593c00f959f8c92f12db2869c3395a3b0502d05e2516446f71f85b",
  "linkReferences": {},
  "deployedLinkReferences": {}
}