{
  "_format": "hh-sol-artifact-1",
  "contractName": "ReClammPool",
  "sourceName": "contracts/ReClammPool.sol",
  "abi": [
    {
      "inputs": [
        {
          "components": [
            {
              "internalType": "string",
              "name": "name",
              "type": "string"
            },
            {
              "internalType": "string",
              "name": "symbol",
              "type": "string"
            },
            {
              "internalType": "string",
              "name": "version",
              "type": "string"
            },
            {
              "internalType": "uint256",
              "name": "dailyPriceShiftExponent",
              "type": "uint256"
            },
            {
              "internalType": "uint64",
              "name": "centerednessMargin",
              "type": "uint64"
            },
            {
              "internalType": "uint256",
              "name": "initialMinPrice",
              "type": "uint256"
            },
            {
              "internalType": "uint256",
              "name": "initialMaxPrice",
              "type": "uint256"
            },
            {
              "internalType": "uint256",
              "name": "initialTargetPrice",
              "type": "uint256"
            },
            {
              "internalType": "bool",
              "name": "tokenAPriceIncludesRate",
              "type": "bool"
            },
            {
              "internalType": "bool",
              "name": "tokenBPriceIncludesRate",
              "type": "bool"
            }
          ],
          "internalType": "struct ReClammPoolParams",
          "name": "params",
          "type": "tuple"
        },
        {
          "internalType": "contract IVault",
          "name": "vault",
          "type": "address"
        }
      ],
      "stateMutability": "nonpayable",
      "type": "constructor"
    },
    {
      "inputs": [],
      "name": "AmountOutGreaterThanBalance",
      "type": "error"
    },
    {
      "inputs": [],
      "name": "BalanceRatioExceedsTolerance",
      "type": "error"
    },
    {
      "inputs": [],
      "name": "BaseOutOfBounds",
      "type": "error"
    },
    {
      "inputs": [],
      "name": "DailyPriceShiftExponentTooHigh",
      "type": "error"
    },
    {
      "inputs": [],
      "name": "ECDSAInvalidSignature",
      "type": "error"
    },
    {
      "inputs": [
        {
          "internalType": "uint256",
          "name": "length",
          "type": "uint256"
        }
      ],
      "name": "ECDSAInvalidSignatureLength",
      "type": "error"
    },
    {
      "inputs": [
        {
          "internalType": "bytes32",
          "name": "s",
          "type": "bytes32"
        }
      ],
      "name": "ECDSAInvalidSignatureS",
      "type": "error"
    },
    {
      "inputs": [
        {
          "internalType": "uint256",
          "name": "deadline",
          "type": "uint256"
        }
      ],
      "name": "ERC2612ExpiredSignature",
      "type": "error"
    },
    {
      "inputs": [
        {
          "internalType": "address",
          "name": "signer",
          "type": "address"
        },
        {
          "internalType": "address",
          "name": "owner",
          "type": "address"
        }
      ],
      "name": "ERC2612InvalidSigner",
      "type": "error"
    },
    {
      "inputs": [],
      "name": "ExponentOutOfBounds",
      "type": "error"
    },
    {
      "inputs": [
        {
          "internalType": "address",
          "name": "account",
          "type": "address"
        },
        {
          "internalType": "uint256",
          "name": "currentNonce",
          "type": "uint256"
        }
      ],
      "name": "InvalidAccountNonce",
      "type": "error"
    },
    {
      "inputs": [],
      "name": "InvalidCenterednessMargin",
      "type": "error"
    },
    {
      "inputs": [],
      "name": "InvalidExponent",
      "type": "error"
    },
    {
      "inputs": [],
      "name": "InvalidInitialPrice",
      "type": "error"
    },
    {
      "inputs": [],
      "name": "InvalidShortString",
      "type": "error"
    },
    {
      "inputs": [
        {
          "internalType": "uint256",
          "name": "resolvedStartTime",
          "type": "uint256"
        },
        {
          "internalType": "uint256",
          "name": "endTime",
          "type": "uint256"
        }
      ],
      "name": "InvalidStartTime",
      "type": "error"
    },
    {
      "inputs": [],
      "name": "InvalidStartTime",
      "type": "error"
    },
    {
      "inputs": [],
      "name": "InvalidToken",
      "type": "error"
    },
    {
      "inputs": [],
      "name": "NotImplemented",
      "type": "error"
    },
    {
      "inputs": [],
      "name": "PoolNotInitialized",
      "type": "error"
    },
    {
      "inputs": [],
      "name": "PoolOutsideTargetRange",
      "type": "error"
    },
    {
      "inputs": [
        {
          "internalType": "uint256",
          "name": "fourthRootPriceRatioDelta",
          "type": "uint256"
        }
      ],
      "name": "PriceRatioDeltaBelowMin",
      "type": "error"
    },
    {
      "inputs": [],
      "name": "PriceRatioNotUpdating",
      "type": "error"
    },
    {
      "inputs": [],
      "name": "PriceRatioUpdateDurationTooShort",
      "type": "error"
    },
    {
      "inputs": [],
      "name": "PriceRatioUpdateTooFast",
      "type": "error"
    },
    {
      "inputs": [],
      "name": "ProductOutOfBounds",
      "type": "error"
    },
    {
      "inputs": [],
      "name": "ReClammPoolBptRateUnsupported",
      "type": "error"
    },
    {
      "inputs": [
        {
          "internalType": "uint8",
          "name": "bits",
          "type": "uint8"
        },
        {
          "internalType": "uint256",
          "name": "value",
          "type": "uint256"
        }
      ],
      "name": "SafeCastOverflowedUintDowncast",
      "type": "error"
    },
    {
      "inputs": [
        {
          "internalType": "uint256",
          "name": "value",
          "type": "uint256"
        }
      ],
      "name": "SafeCastOverflowedUintToInt",
      "type": "error"
    },
    {
      "inputs": [
        {
          "internalType": "address",
          "name": "sender",
          "type": "address"
        }
      ],
      "name": "SenderIsNotVault",
      "type": "error"
    },
    {
      "inputs": [],
      "name": "SenderNotAllowed",
      "type": "error"
    },
    {
      "inputs": [
        {
          "internalType": "string",
          "name": "str",
          "type": "string"
        }
      ],
      "name": "StringTooLong",
      "type": "error"
    },
    {
      "inputs": [],
      "name": "VaultIsNotLocked",
      "type": "error"
    },
    {
      "inputs": [],
      "name": "VaultNotSet",
      "type": "error"
    },
    {
      "inputs": [],
      "name": "WrongInitializationPrices",
      "type": "error"
    },
    {
      "inputs": [],
      "name": "ZeroDivision",
      "type": "error"
    },
    {
      "anonymous": false,
      "inputs": [
        {
          "indexed": true,
          "internalType": "address",
          "name": "owner",
          "type": "address"
        },
        {
          "indexed": true,
          "internalType": "address",
          "name": "spender",
          "type": "address"
        },
        {
          "indexed": false,
          "internalType": "uint256",
          "name": "value",
          "type": "uint256"
        }
      ],
      "name": "Approval",
      "type": "event"
    },
    {
      "anonymous": false,
      "inputs": [
        {
          "indexed": false,
          "internalType": "uint256",
          "name": "centerednessMargin",
          "type": "uint256"
        }
      ],
      "name": "CenterednessMarginUpdated",
      "type": "event"
    },
    {
      "anonymous": false,
      "inputs": [
        {
          "indexed": false,
          "internalType": "uint256",
          "name": "dailyPriceShiftExponent",
          "type": "uint256"
        },
        {
          "indexed": false,
          "internalType": "uint256",
          "name": "dailyPriceShiftBase",
          "type": "uint256"
        }
      ],
      "name": "DailyPriceShiftExponentUpdated",
      "type": "event"
    },
    {
      "anonymous": false,
      "inputs": [],
      "name": "EIP712DomainChanged",
      "type": "event"
    },
    {
      "anonymous": false,
      "inputs": [
        {
          "indexed": false,
          "internalType": "uint32",
          "name": "lastTimestamp",
          "type": "uint32"
        }
      ],
      "name": "LastTimestampUpdated",
      "type": "event"
    },
    {
      "anonymous": false,
      "inputs": [
        {
          "indexed": false,
          "internalType": "uint256",
          "name": "startFourthRootPriceRatio",
          "type": "uint256"
        },
        {
          "indexed": false,
          "internalType": "uint256",
          "name": "endFourthRootPriceRatio",
          "type": "uint256"
        },
        {
          "indexed": false,
          "internalType": "uint256",
          "name": "priceRatioUpdateStartTime",
          "type": "uint256"
        },
        {
          "indexed": false,
          "internalType": "uint256",
          "name": "priceRatioUpdateEndTime",
          "type": "uint256"
        }
      ],
      "name": "PriceRatioStateUpdated",
      "type": "event"
    },
    {
      "anonymous": false,
      "inputs": [
        {
          "indexed": true,
          "internalType": "address",
          "name": "from",
          "type": "address"
        },
        {
          "indexed": true,
          "internalType": "address",
          "name": "to",
          "type": "address"
        },
        {
          "indexed": false,
          "internalType": "uint256",
          "name": "value",
          "type": "uint256"
        }
      ],
      "name": "Transfer",
      "type": "event"
    },
    {
      "anonymous": false,
      "inputs": [
        {
          "indexed": false,
          "internalType": "uint256",
          "name": "virtualBalanceA",
          "type": "uint256"
        },
        {
          "indexed": false,
          "internalType": "uint256",
          "name": "virtualBalanceB",
          "type": "uint256"
        }
      ],
      "name": "VirtualBalancesUpdated",
      "type": "event"
    },
    {
      "inputs": [],
      "name": "DOMAIN_SEPARATOR",
      "outputs": [
        {
          "internalType": "bytes32",
          "name": "",
          "type": "bytes32"
        }
      ],
      "stateMutability": "view",
      "type": "function"
    },
    {
      "inputs": [],
      "name": "PERMIT_TYPEHASH",
      "outputs": [
        {
          "internalType": "bytes32",
          "name": "",
          "type": "bytes32"
        }
      ],
      "stateMutability": "view",
      "type": "function"
    },
    {
      "inputs": [
        {
          "internalType": "address",
          "name": "owner",
          "type": "address"
        },
        {
          "internalType": "address",
          "name": "spender",
          "type": "address"
        }
      ],
      "name": "allowance",
      "outputs": [
        {
          "internalType": "uint256",
          "name": "",
          "type": "uint256"
        }
      ],
      "stateMutability": "view",
      "type": "function"
    },
    {
      "inputs": [
        {
          "internalType": "address",
          "name": "spender",
          "type": "address"
        },
        {
          "internalType": "uint256",
          "name": "amount",
          "type": "uint256"
        }
      ],
      "name": "approve",
      "outputs": [
        {
          "internalType": "bool",
          "name": "",
          "type": "bool"
        }
      ],
      "stateMutability": "nonpayable",
      "type": "function"
    },
    {
      "inputs": [
        {
          "internalType": "address",
          "name": "account",
          "type": "address"
        }
      ],
      "name": "balanceOf",
      "outputs": [
        {
          "internalType": "uint256",
          "name": "",
          "type": "uint256"
        }
      ],
      "stateMutability": "view",
      "type": "function"
    },
    {
      "inputs": [
        {
          "internalType": "uint256[]",
          "name": "",
          "type": "uint256[]"
        },
        {
          "internalType": "uint256",
          "name": "",
          "type": "uint256"
        },
        {
          "internalType": "uint256",
          "name": "",
          "type": "uint256"
        }
      ],
      "name": "computeBalance",
      "outputs": [
        {
          "internalType": "uint256",
          "name": "",
          "type": "uint256"
        }
      ],
      "stateMutability": "pure",
      "type": "function"
    },
    {
      "inputs": [],
      "name": "computeCurrentFourthRootPriceRatio",
      "outputs": [
        {
          "internalType": "uint256",
          "name": "",
          "type": "uint256"
        }
      ],
      "stateMutability": "view",
      "type": "function"
    },
    {
      "inputs": [],
      "name": "computeCurrentPoolCenteredness",
      "outputs": [
        {
          "internalType": "uint256",
          "name": "",
          "type": "uint256"
        },
        {
          "internalType": "bool",
          "name": "",
          "type": "bool"
        }
      ],
      "stateMutability": "view",
      "type": "function"
    },
    {
      "inputs": [],
      "name": "computeCurrentPriceRange",
      "outputs": [
        {
          "internalType": "uint256",
          "name": "minPrice",
          "type": "uint256"
        },
        {
          "internalType": "uint256",
          "name": "maxPrice",
          "type": "uint256"
        }
      ],
      "stateMutability": "view",
      "type": "function"
    },
    {
      "inputs": [],
      "name": "computeCurrentPriceRatio",
      "outputs": [
        {
          "internalType": "uint256",
          "name": "",
          "type": "uint256"
        }
      ],
      "stateMutability": "view",
      "type": "function"
    },
    {
      "inputs": [],
      "name": "computeCurrentSpotPrice",
      "outputs": [
        {
          "internalType": "uint256",
          "name": "",
          "type": "uint256"
        }
      ],
      "stateMutability": "view",
      "type": "function"
    },
    {
      "inputs": [],
      "name": "computeCurrentVirtualBalances",
      "outputs": [
        {
          "internalType": "uint256",
          "name": "currentVirtualBalanceA",
          "type": "uint256"
        },
        {
          "internalType": "uint256",
          "name": "currentVirtualBalanceB",
          "type": "uint256"
        },
        {
          "internalType": "bool",
          "name": "changed",
          "type": "bool"
        }
      ],
      "stateMutability": "view",
      "type": "function"
    },
    {
      "inputs": [
        {
          "internalType": "contract IERC20",
          "name": "referenceToken",
          "type": "address"
        },
        {
          "internalType": "uint256",
          "name": "referenceAmountInRaw",
          "type": "uint256"
        }
      ],
      "name": "computeInitialBalancesRaw",
      "outputs": [
        {
          "internalType": "uint256[]",
          "name": "initialBalancesRaw",
          "type": "uint256[]"
        }
      ],
      "stateMutability": "view",
      "type": "function"
    },
    {
      "inputs": [
        {
          "internalType": "uint256[]",
          "name": "balancesScaled18",
          "type": "uint256[]"
        },
        {
          "internalType": "enum Rounding",
          "name": "rounding",
          "type": "uint8"
        }
      ],
      "name": "computeInvariant",
      "outputs": [
        {
          "internalType": "uint256",
          "name": "",
          "type": "uint256"
        }
      ],
      "stateMutability": "view",
      "type": "function"
    },
    {
      "inputs": [],
      "name": "decimals",
      "outputs": [
        {
          "internalType": "uint8",
          "name": "",
          "type": "uint8"
        }
      ],
      "stateMutability": "pure",
      "type": "function"
    },
    {
      "inputs": [],
      "name": "eip712Domain",
      "outputs": [
        {
          "internalType": "bytes1",
          "name": "fields",
          "type": "bytes1"
        },
        {
          "internalType": "string",
          "name": "name",
          "type": "string"
        },
        {
          "internalType": "string",
          "name": "version",
          "type": "string"
        },
        {
          "internalType": "uint256",
          "name": "chainId",
          "type": "uint256"
        },
        {
          "internalType": "address",
          "name": "verifyingContract",
          "type": "address"
        },
        {
          "internalType": "bytes32",
          "name": "salt",
          "type": "bytes32"
        },
        {
          "internalType": "uint256[]",
          "name": "extensions",
          "type": "uint256[]"
        }
      ],
      "stateMutability": "view",
      "type": "function"
    },
    {
      "inputs": [
        {
          "internalType": "address",
          "name": "owner",
          "type": "address"
        },
        {
          "internalType": "address",
          "name": "spender",
          "type": "address"
        },
        {
          "internalType": "uint256",
          "name": "amount",
          "type": "uint256"
        }
      ],
      "name": "emitApproval",
      "outputs": [],
      "stateMutability": "nonpayable",
      "type": "function"
    },
    {
      "inputs": [
        {
          "internalType": "address",
          "name": "from",
          "type": "address"
        },
        {
          "internalType": "address",
          "name": "to",
          "type": "address"
        },
        {
          "internalType": "uint256",
          "name": "amount",
          "type": "uint256"
        }
      ],
      "name": "emitTransfer",
      "outputs": [],
      "stateMutability": "nonpayable",
      "type": "function"
    },
    {
      "inputs": [
        {
          "internalType": "bytes4",
          "name": "selector",
          "type": "bytes4"
        }
      ],
      "name": "getActionId",
      "outputs": [
        {
          "internalType": "bytes32",
          "name": "",
          "type": "bytes32"
        }
      ],
      "stateMutability": "view",
      "type": "function"
    },
    {
      "inputs": [],
      "name": "getAggregateFeePercentages",
      "outputs": [
        {
          "internalType": "uint256",
          "name": "aggregateSwapFeePercentage",
          "type": "uint256"
        },
        {
          "internalType": "uint256",
          "name": "aggregateYieldFeePercentage",
          "type": "uint256"
        }
      ],
      "stateMutability": "view",
      "type": "function"
    },
    {
      "inputs": [],
      "name": "getCenterednessMargin",
      "outputs": [
        {
          "internalType": "uint256",
          "name": "",
          "type": "uint256"
        }
      ],
      "stateMutability": "view",
      "type": "function"
    },
    {
      "inputs": [],
      "name": "getCurrentLiveBalances",
      "outputs": [
        {
          "internalType": "uint256[]",
          "name": "balancesLiveScaled18",
          "type": "uint256[]"
        }
      ],
      "stateMutability": "view",
      "type": "function"
    },
    {
      "inputs": [],
      "name": "getDailyPriceShiftBase",
      "outputs": [
        {
          "internalType": "uint256",
          "name": "",
          "type": "uint256"
        }
      ],
      "stateMutability": "view",
      "type": "function"
    },
    {
      "inputs": [],
      "name": "getDailyPriceShiftExponent",
      "outputs": [
        {
          "internalType": "uint256",
          "name": "",
          "type": "uint256"
        }
      ],
      "stateMutability": "view",
      "type": "function"
    },
    {
      "inputs": [],
      "name": "getHookFlags",
      "outputs": [
        {
          "components": [
            {
              "internalType": "bool",
              "name": "enableHookAdjustedAmounts",
              "type": "bool"
            },
            {
              "internalType": "bool",
              "name": "shouldCallBeforeInitialize",
              "type": "bool"
            },
            {
              "internalType": "bool",
              "name": "shouldCallAfterInitialize",
              "type": "bool"
            },
            {
              "internalType": "bool",
              "name": "shouldCallComputeDynamicSwapFee",
              "type": "bool"
            },
            {
              "internalType": "bool",
              "name": "shouldCallBeforeSwap",
              "type": "bool"
            },
            {
              "internalType": "bool",
              "name": "shouldCallAfterSwap",
              "type": "bool"
            },
            {
              "internalType": "bool",
              "name": "shouldCallBeforeAddLiquidity",
              "type": "bool"
            },
            {
              "internalType": "bool",
              "name": "shouldCallAfterAddLiquidity",
              "type": "bool"
            },
            {
              "internalType": "bool",
              "name": "shouldCallBeforeRemoveLiquidity",
              "type": "bool"
            },
            {
              "internalType": "bool",
              "name": "shouldCallAfterRemoveLiquidity",
              "type": "bool"
            }
          ],
          "internalType": "struct HookFlags",
          "name": "hookFlags",
          "type": "tuple"
        }
      ],
      "stateMutability": "pure",
      "type": "function"
    },
    {
      "inputs": [],
      "name": "getLastTimestamp",
      "outputs": [
        {
          "internalType": "uint32",
          "name": "",
          "type": "uint32"
        }
      ],
      "stateMutability": "view",
      "type": "function"
    },
    {
      "inputs": [],
      "name": "getLastVirtualBalances",
      "outputs": [
        {
          "internalType": "uint256",
          "name": "virtualBalanceA",
          "type": "uint256"
        },
        {
          "internalType": "uint256",
          "name": "virtualBalanceB",
          "type": "uint256"
        }
      ],
      "stateMutability": "view",
      "type": "function"
    },
    {
      "inputs": [],
      "name": "getMaximumInvariantRatio",
      "outputs": [
        {
          "internalType": "uint256",
          "name": "",
          "type": "uint256"
        }
      ],
      "stateMutability": "pure",
      "type": "function"
    },
    {
      "inputs": [],
      "name": "getMaximumSwapFeePercentage",
      "outputs": [
        {
          "internalType": "uint256",
          "name": "",
          "type": "uint256"
        }
      ],
      "stateMutability": "pure",
      "type": "function"
    },
    {
      "inputs": [],
      "name": "getMinimumInvariantRatio",
      "outputs": [
        {
          "internalType": "uint256",
          "name": "",
          "type": "uint256"
        }
      ],
      "stateMutability": "pure",
      "type": "function"
    },
    {
      "inputs": [],
      "name": "getMinimumSwapFeePercentage",
      "outputs": [
        {
          "internalType": "uint256",
          "name": "",
          "type": "uint256"
        }
      ],
      "stateMutability": "pure",
      "type": "function"
    },
    {
      "inputs": [],
      "name": "getPriceRatioState",
      "outputs": [
        {
          "components": [
            {
              "internalType": "uint96",
              "name": "startFourthRootPriceRatio",
              "type": "uint96"
            },
            {
              "internalType": "uint96",
              "name": "endFourthRootPriceRatio",
              "type": "uint96"
            },
            {
              "internalType": "uint32",
              "name": "priceRatioUpdateStartTime",
              "type": "uint32"
            },
            {
              "internalType": "uint32",
              "name": "priceRatioUpdateEndTime",
              "type": "uint32"
            }
          ],
          "internalType": "struct PriceRatioState",
          "name": "",
          "type": "tuple"
        }
      ],
      "stateMutability": "view",
      "type": "function"
    },
    {
      "inputs": [],
      "name": "getRate",
      "outputs": [
        {
          "internalType": "uint256",
          "name": "",
          "type": "uint256"
        }
      ],
      "stateMutability": "pure",
      "type": "function"
    },
    {
      "inputs": [],
      "name": "getReClammPoolDynamicData",
      "outputs": [
        {
          "components": [
            {
              "internalType": "uint256[]",
              "name": "balancesLiveScaled18",
              "type": "uint256[]"
            },
            {
              "internalType": "uint256[]",
              "name": "tokenRates",
              "type": "uint256[]"
            },
            {
              "internalType": "uint256",
              "name": "staticSwapFeePercentage",
              "type": "uint256"
            },
            {
              "internalType": "uint256",
              "name": "totalSupply",
              "type": "uint256"
            },
            {
              "internalType": "uint256",
              "name": "lastTimestamp",
              "type": "uint256"
            },
            {
              "internalType": "uint256[]",
              "name": "lastVirtualBalances",
              "type": "uint256[]"
            },
            {
              "internalType": "uint256",
              "name": "dailyPriceShiftExponent",
              "type": "uint256"
            },
            {
              "internalType": "uint256",
              "name": "dailyPriceShiftBase",
              "type": "uint256"
            },
            {
              "internalType": "uint256",
              "name": "centerednessMargin",
              "type": "uint256"
            },
            {
              "internalType": "uint256",
              "name": "currentPriceRatio",
              "type": "uint256"
            },
            {
              "internalType": "uint256",
              "name": "currentFourthRootPriceRatio",
              "type": "uint256"
            },
            {
              "internalType": "uint256",
              "name": "startFourthRootPriceRatio",
              "type": "uint256"
            },
            {
              "internalType": "uint256",
              "name": "endFourthRootPriceRatio",
              "type": "uint256"
            },
            {
              "internalType": "uint32",
              "name": "priceRatioUpdateStartTime",
              "type": "uint32"
            },
            {
              "internalType": "uint32",
              "name": "priceRatioUpdateEndTime",
              "type": "uint32"
            },
            {
              "internalType": "bool",
              "name": "isPoolInitialized",
              "type": "bool"
            },
            {
              "internalType": "bool",
              "name": "isPoolPaused",
              "type": "bool"
            },
            {
              "internalType": "bool",
              "name": "isPoolInRecoveryMode",
              "type": "bool"
            }
          ],
          "internalType": "struct ReClammPoolDynamicData",
          "name": "data",
          "type": "tuple"
        }
      ],
      "stateMutability": "view",
      "type": "function"
    },
    {
      "inputs": [],
      "name": "getReClammPoolImmutableData",
      "outputs": [
        {
          "components": [
            {
              "internalType": "contract IERC20[]",
              "name": "tokens",
              "type": "address[]"
            },
            {
              "internalType": "uint256[]",
              "name": "decimalScalingFactors",
              "type": "uint256[]"
            },
            {
              "internalType": "bool",
              "name": "tokenAPriceIncludesRate",
              "type": "bool"
            },
            {
              "internalType": "bool",
              "name": "tokenBPriceIncludesRate",
              "type": "bool"
            },
            {
              "internalType": "uint256",
              "name": "minSwapFeePercentage",
              "type": "uint256"
            },
            {
              "internalType": "uint256",
              "name": "maxSwapFeePercentage",
              "type": "uint256"
            },
            {
              "internalType": "uint256",
              "name": "initialMinPrice",
              "type": "uint256"
            },
            {
              "internalType": "uint256",
              "name": "initialMaxPrice",
              "type": "uint256"
            },
            {
              "internalType": "uint256",
              "name": "initialTargetPrice",
              "type": "uint256"
            },
            {
              "internalType": "uint256",
              "name": "initialDailyPriceShiftExponent",
              "type": "uint256"
            },
            {
              "internalType": "uint256",
              "name": "initialCenterednessMargin",
              "type": "uint256"
            },
            {
              "internalType": "uint256",
              "name": "maxDailyPriceShiftExponent",
              "type": "uint256"
            },
            {
              "internalType": "uint256",
              "name": "maxDailyPriceRatioUpdateRate",
              "type": "uint256"
            },
            {
              "internalType": "uint256",
              "name": "minPriceRatioUpdateDuration",
              "type": "uint256"
            },
            {
              "internalType": "uint256",
              "name": "minPriceRatioDelta",
              "type": "uint256"
            },
            {
              "internalType": "uint256",
              "name": "balanceRatioAndPriceTolerance",
              "type": "uint256"
            }
          ],
          "internalType": "struct ReClammPoolImmutableData",
          "name": "data",
          "type": "tuple"
        }
      ],
      "stateMutability": "view",
      "type": "function"
    },
    {
      "inputs": [],
      "name": "getStaticSwapFeePercentage",
      "outputs": [
        {
          "internalType": "uint256",
          "name": "",
          "type": "uint256"
        }
      ],
      "stateMutability": "view",
      "type": "function"
    },
    {
      "inputs": [],
      "name": "getTokenInfo",
      "outputs": [
        {
          "internalType": "contract IERC20[]",
          "name": "tokens",
          "type": "address[]"
        },
        {
          "components": [
            {
              "internalType": "enum TokenType",
              "name": "tokenType",
              "type": "uint8"
            },
            {
              "internalType": "contract IRateProvider",
              "name": "rateProvider",
              "type": "address"
            },
            {
              "internalType": "bool",
              "name": "paysYieldFees",
              "type": "bool"
            }
          ],
          "internalType": "struct TokenInfo[]",
          "name": "tokenInfo",
          "type": "tuple[]"
        },
        {
          "internalType": "uint256[]",
          "name": "balancesRaw",
          "type": "uint256[]"
        },
        {
          "internalType": "uint256[]",
          "name": "lastBalancesLiveScaled18",
          "type": "uint256[]"
        }
      ],
      "stateMutability": "view",
      "type": "function"
    },
    {
      "inputs": [],
      "name": "getTokens",
      "outputs": [
        {
          "internalType": "contract IERC20[]",
          "name": "tokens",
          "type": "address[]"
        }
      ],
      "stateMutability": "view",
      "type": "function"
    },
    {
      "inputs": [],
      "name": "getVault",
      "outputs": [
        {
          "internalType": "contract IVault",
          "name": "",
          "type": "address"
        }
      ],
      "stateMutability": "view",
      "type": "function"
    },
    {
      "inputs": [],
      "name": "incrementNonce",
      "outputs": [],
      "stateMutability": "nonpayable",
      "type": "function"
    },
    {
      "inputs": [],
      "name": "isPoolWithinTargetRange",
      "outputs": [
        {
          "internalType": "bool",
          "name": "",
          "type": "bool"
        }
      ],
      "stateMutability": "view",
      "type": "function"
    },
    {
      "inputs": [],
      "name": "isPoolWithinTargetRangeUsingCurrentVirtualBalances",
      "outputs": [
        {
          "internalType": "bool",
          "name": "isWithinTargetRange",
          "type": "bool"
        },
        {
          "internalType": "bool",
          "name": "virtualBalancesChanged",
          "type": "bool"
        }
      ],
      "stateMutability": "view",
      "type": "function"
    },
    {
      "inputs": [],
      "name": "name",
      "outputs": [
        {
          "internalType": "string",
          "name": "",
          "type": "string"
        }
      ],
      "stateMutability": "view",
      "type": "function"
    },
    {
      "inputs": [
        {
          "internalType": "address",
          "name": "owner",
          "type": "address"
        }
      ],
      "name": "nonces",
      "outputs": [
        {
          "internalType": "uint256",
          "name": "",
          "type": "uint256"
        }
      ],
      "stateMutability": "view",
      "type": "function"
    },
    {
      "inputs": [
        {
          "internalType": "address",
          "name": "",
          "type": "address"
        },
        {
          "internalType": "address",
          "name": "",
          "type": "address"
        },
        {
          "internalType": "enum AddLiquidityKind",
          "name": "",
          "type": "uint8"
        },
        {
          "internalType": "uint256[]",
          "name": "",
          "type": "uint256[]"
        },
        {
          "internalType": "uint256[]",
          "name": "amountsInRaw",
          "type": "uint256[]"
        },
        {
          "internalType": "uint256",
          "name": "",
          "type": "uint256"
        },
        {
          "internalType": "uint256[]",
          "name": "",
          "type": "uint256[]"
        },
        {
          "internalType": "bytes",
          "name": "",
          "type": "bytes"
        }
      ],
      "name": "onAfterAddLiquidity",
      "outputs": [
        {
          "internalType": "bool",
          "name": "",
          "type": "bool"
        },
        {
          "internalType": "uint256[]",
          "name": "",
          "type": "uint256[]"
        }
      ],
      "stateMutability": "nonpayable",
      "type": "function"
    },
    {
      "inputs": [
        {
          "internalType": "uint256[]",
          "name": "",
          "type": "uint256[]"
        },
        {
          "internalType": "uint256",
          "name": "",
          "type": "uint256"
        },
        {
          "internalType": "bytes",
          "name": "",
          "type": "bytes"
        }
      ],
      "name": "onAfterInitialize",
      "outputs": [
        {
          "internalType": "bool",
          "name": "",
          "type": "bool"
        }
      ],
      "stateMutability": "nonpayable",
      "type": "function"
    },
    {
      "inputs": [
        {
          "internalType": "address",
          "name": "",
          "type": "address"
        },
        {
          "internalType": "address",
          "name": "",
          "type": "address"
        },
        {
          "internalType": "enum RemoveLiquidityKind",
          "name": "",
          "type": "uint8"
        },
        {
          "internalType": "uint256",
          "name": "",
          "type": "uint256"
        },
        {
          "internalType": "uint256[]",
          "name": "",
          "type": "uint256[]"
        },
        {
          "internalType": "uint256[]",
          "name": "amountsOutRaw",
          "type": "uint256[]"
        },
        {
          "internalType": "uint256[]",
          "name": "",
          "type": "uint256[]"
        },
        {
          "internalType": "bytes",
          "name": "",
          "type": "bytes"
        }
      ],
      "name": "onAfterRemoveLiquidity",
      "outputs": [
        {
          "internalType": "bool",
          "name": "",
          "type": "bool"
        },
        {
          "internalType": "uint256[]",
          "name": "",
          "type": "uint256[]"
        }
      ],
      "stateMutability": "nonpayable",
      "type": "function"
    },
    {
      "inputs": [
        {
          "components": [
            {
              "internalType": "enum SwapKind",
              "name": "kind",
              "type": "uint8"
            },
            {
              "internalType": "contract IERC20",
              "name": "tokenIn",
              "type": "address"
            },
            {
              "internalType": "contract IERC20",
              "name": "tokenOut",
              "type": "address"
            },
            {
              "internalType": "uint256",
              "name": "amountInScaled18",
              "type": "uint256"
            },
            {
              "internalType": "uint256",
              "name": "amountOutScaled18",
              "type": "uint256"
            },
            {
              "internalType": "uint256",
              "name": "tokenInBalanceScaled18",
              "type": "uint256"
            },
            {
              "internalType": "uint256",
              "name": "tokenOutBalanceScaled18",
              "type": "uint256"
            },
            {
              "internalType": "uint256",
              "name": "amountCalculatedScaled18",
              "type": "uint256"
            },
            {
              "internalType": "uint256",
              "name": "amountCalculatedRaw",
              "type": "uint256"
            },
            {
              "internalType": "address",
              "name": "router",
              "type": "address"
            },
            {
              "internalType": "address",
              "name": "pool",
              "type": "address"
            },
            {
              "internalType": "bytes",
              "name": "userData",
              "type": "bytes"
            }
          ],
          "internalType": "struct AfterSwapParams",
          "name": "",
          "type": "tuple"
        }
      ],
      "name": "onAfterSwap",
      "outputs": [
        {
          "internalType": "bool",
          "name": "",
          "type": "bool"
        },
        {
          "internalType": "uint256",
          "name": "",
          "type": "uint256"
        }
      ],
      "stateMutability": "nonpayable",
      "type": "function"
    },
    {
      "inputs": [
        {
          "internalType": "address",
          "name": "",
          "type": "address"
        },
        {
          "internalType": "address",
          "name": "pool",
          "type": "address"
        },
        {
          "internalType": "enum AddLiquidityKind",
          "name": "",
          "type": "uint8"
        },
        {
          "internalType": "uint256[]",
          "name": "",
          "type": "uint256[]"
        },
        {
          "internalType": "uint256",
          "name": "minBptAmountOut",
          "type": "uint256"
        },
        {
          "internalType": "uint256[]",
          "name": "balancesScaled18",
          "type": "uint256[]"
        },
        {
          "internalType": "bytes",
          "name": "",
          "type": "bytes"
        }
      ],
      "name": "onBeforeAddLiquidity",
      "outputs": [
        {
          "internalType": "bool",
          "name": "",
          "type": "bool"
        }
      ],
      "stateMutability": "nonpayable",
      "type": "function"
    },
    {
      "inputs": [
        {
          "internalType": "uint256[]",
          "name": "balancesScaled18",
          "type": "uint256[]"
        },
        {
          "internalType": "bytes",
          "name": "",
          "type": "bytes"
        }
      ],
      "name": "onBeforeInitialize",
      "outputs": [
        {
          "internalType": "bool",
          "name": "",
          "type": "bool"
        }
      ],
      "stateMutability": "nonpayable",
      "type": "function"
    },
    {
      "inputs": [
        {
          "internalType": "address",
          "name": "",
          "type": "address"
        },
        {
          "internalType": "address",
          "name": "pool",
          "type": "address"
        },
        {
          "internalType": "enum RemoveLiquidityKind",
          "name": "",
          "type": "uint8"
        },
        {
          "internalType": "uint256",
          "name": "maxBptAmountIn",
          "type": "uint256"
        },
        {
          "internalType": "uint256[]",
          "name": "",
          "type": "uint256[]"
        },
        {
          "internalType": "uint256[]",
          "name": "balancesScaled18",
          "type": "uint256[]"
        },
        {
          "internalType": "bytes",
          "name": "",
          "type": "bytes"
        }
      ],
      "name": "onBeforeRemoveLiquidity",
      "outputs": [
        {
          "internalType": "bool",
          "name": "",
          "type": "bool"
        }
      ],
      "stateMutability": "nonpayable",
      "type": "function"
    },
    {
      "inputs": [
        {
          "components": [
            {
              "internalType": "enum SwapKind",
              "name": "kind",
              "type": "uint8"
            },
            {
              "internalType": "uint256",
              "name": "amountGivenScaled18",
              "type": "uint256"
            },
            {
              "internalType": "uint256[]",
              "name": "balancesScaled18",
              "type": "uint256[]"
            },
            {
              "internalType": "uint256",
              "name": "indexIn",
              "type": "uint256"
            },
            {
              "internalType": "uint256",
              "name": "indexOut",
              "type": "uint256"
            },
            {
              "internalType": "address",
              "name": "router",
              "type": "address"
            },
            {
              "internalType": "bytes",
              "name": "userData",
              "type": "bytes"
            }
          ],
          "internalType": "struct PoolSwapParams",
          "name": "",
          "type": "tuple"
        },
        {
          "internalType": "address",
          "name": "",
          "type": "address"
        }
      ],
      "name": "onBeforeSwap",
      "outputs": [
        {
          "internalType": "bool",
          "name": "",
          "type": "bool"
        }
      ],
      "stateMutability": "nonpayable",
      "type": "function"
    },
    {
      "inputs": [
        {
          "components": [
            {
              "internalType": "enum SwapKind",
              "name": "kind",
              "type": "uint8"
            },
            {
              "internalType": "uint256",
              "name": "amountGivenScaled18",
              "type": "uint256"
            },
            {
              "internalType": "uint256[]",
              "name": "balancesScaled18",
              "type": "uint256[]"
            },
            {
              "internalType": "uint256",
              "name": "indexIn",
              "type": "uint256"
            },
            {
              "internalType": "uint256",
              "name": "indexOut",
              "type": "uint256"
            },
            {
              "internalType": "address",
              "name": "router",
              "type": "address"
            },
            {
              "internalType": "bytes",
              "name": "userData",
              "type": "bytes"
            }
          ],
          "internalType": "struct PoolSwapParams",
          "name": "",
          "type": "tuple"
        },
        {
          "internalType": "address",
          "name": "",
          "type": "address"
        },
        {
          "internalType": "uint256",
          "name": "",
          "type": "uint256"
        }
      ],
      "name": "onComputeDynamicSwapFeePercentage",
      "outputs": [
        {
          "internalType": "bool",
          "name": "",
          "type": "bool"
        },
        {
          "internalType": "uint256",
          "name": "",
          "type": "uint256"
        }
      ],
      "stateMutability": "view",
      "type": "function"
    },
    {
      "inputs": [
        {
          "internalType": "address",
          "name": "",
          "type": "address"
        },
        {
          "internalType": "address",
          "name": "",
          "type": "address"
        },
        {
          "components": [
            {
              "internalType": "contract IERC20",
              "name": "token",
              "type": "address"
            },
            {
              "internalType": "enum TokenType",
              "name": "tokenType",
              "type": "uint8"
            },
            {
              "internalType": "contract IRateProvider",
              "name": "rateProvider",
              "type": "address"
            },
            {
              "internalType": "bool",
              "name": "paysYieldFees",
              "type": "bool"
            }
          ],
          "internalType": "struct TokenConfig[]",
          "name": "tokenConfig",
          "type": "tuple[]"
        },
        {
          "components": [
            {
              "internalType": "bool",
              "name": "disableUnbalancedLiquidity",
              "type": "bool"
            },
            {
              "internalType": "bool",
              "name": "enableAddLiquidityCustom",
              "type": "bool"
            },
            {
              "internalType": "bool",
              "name": "enableRemoveLiquidityCustom",
              "type": "bool"
            },
            {
              "internalType": "bool",
              "name": "enableDonation",
              "type": "bool"
            }
          ],
          "internalType": "struct LiquidityManagement",
          "name": "liquidityManagement",
          "type": "tuple"
        }
      ],
      "name": "onRegister",
      "outputs": [
        {
          "internalType": "bool",
          "name": "",
          "type": "bool"
        }
      ],
      "stateMutability": "view",
      "type": "function"
    },
    {
      "inputs": [
        {
          "components": [
            {
              "internalType": "enum SwapKind",
              "name": "kind",
              "type": "uint8"
            },
            {
              "internalType": "uint256",
              "name": "amountGivenScaled18",
              "type": "uint256"
            },
            {
              "internalType": "uint256[]",
              "name": "balancesScaled18",
              "type": "uint256[]"
            },
            {
              "internalType": "uint256",
              "name": "indexIn",
              "type": "uint256"
            },
            {
              "internalType": "uint256",
              "name": "indexOut",
              "type": "uint256"
            },
            {
              "internalType": "address",
              "name": "router",
              "type": "address"
            },
            {
              "internalType": "bytes",
              "name": "userData",
              "type": "bytes"
            }
          ],
          "internalType": "struct PoolSwapParams",
          "name": "request",
          "type": "tuple"
        }
      ],
      "name": "onSwap",
      "outputs": [
        {
          "internalType": "uint256",
          "name": "amountCalculatedScaled18",
          "type": "uint256"
        }
      ],
      "stateMutability": "nonpayable",
      "type": "function"
    },
    {
      "inputs": [
        {
          "internalType": "address",
          "name": "owner",
          "type": "address"
        },
        {
          "internalType": "address",
          "name": "spender",
          "type": "address"
        },
        {
          "internalType": "uint256",
          "name": "amount",
          "type": "uint256"
        },
        {
          "internalType": "uint256",
          "name": "deadline",
          "type": "uint256"
        },
        {
          "internalType": "uint8",
          "name": "v",
          "type": "uint8"
        },
        {
          "internalType": "bytes32",
          "name": "r",
          "type": "bytes32"
        },
        {
          "internalType": "bytes32",
          "name": "s",
          "type": "bytes32"
        }
      ],
      "name": "permit",
      "outputs": [],
      "stateMutability": "nonpayable",
      "type": "function"
    },
    {
      "inputs": [
        {
          "internalType": "uint256",
          "name": "newCenterednessMargin",
          "type": "uint256"
        }
      ],
      "name": "setCenterednessMargin",
      "outputs": [],
      "stateMutability": "nonpayable",
      "type": "function"
    },
    {
      "inputs": [
        {
          "internalType": "uint256",
          "name": "newDailyPriceShiftExponent",
          "type": "uint256"
        }
      ],
      "name": "setDailyPriceShiftExponent",
      "outputs": [
        {
          "internalType": "uint256",
          "name": "",
          "type": "uint256"
        }
      ],
      "stateMutability": "nonpayable",
      "type": "function"
    },
    {
      "inputs": [
        {
          "internalType": "uint256",
          "name": "endPriceRatio",
          "type": "uint256"
        },
        {
          "internalType": "uint256",
          "name": "priceRatioUpdateStartTime",
          "type": "uint256"
        },
        {
          "internalType": "uint256",
          "name": "priceRatioUpdateEndTime",
          "type": "uint256"
        }
      ],
      "name": "startPriceRatioUpdate",
      "outputs": [
        {
          "internalType": "uint256",
          "name": "actualPriceRatioUpdateStartTime",
          "type": "uint256"
        }
      ],
      "stateMutability": "nonpayable",
      "type": "function"
    },
    {
      "inputs": [],
      "name": "stopPriceRatioUpdate",
      "outputs": [],
      "stateMutability": "nonpayable",
      "type": "function"
    },
    {
      "inputs": [
        {
          "internalType": "bytes4",
          "name": "interfaceId",
          "type": "bytes4"
        }
      ],
      "name": "supportsInterface",
      "outputs": [
        {
          "internalType": "bool",
          "name": "",
          "type": "bool"
        }
      ],
      "stateMutability": "view",
      "type": "function"
    },
    {
      "inputs": [],
      "name": "symbol",
      "outputs": [
        {
          "internalType": "string",
          "name": "",
          "type": "string"
        }
      ],
      "stateMutability": "view",
      "type": "function"
    },
    {
      "inputs": [],
      "name": "totalSupply",
      "outputs": [
        {
          "internalType": "uint256",
          "name": "",
          "type": "uint256"
        }
      ],
      "stateMutability": "view",
      "type": "function"
    },
    {
      "inputs": [
        {
          "internalType": "address",
          "name": "to",
          "type": "address"
        },
        {
          "internalType": "uint256",
          "name": "amount",
          "type": "uint256"
        }
      ],
      "name": "transfer",
      "outputs": [
        {
          "internalType": "bool",
          "name": "",
          "type": "bool"
        }
      ],
      "stateMutability": "nonpayable",
      "type": "function"
    },
    {
      "inputs": [
        {
          "internalType": "address",
          "name": "from",
          "type": "address"
        },
        {
          "internalType": "address",
          "name": "to",
          "type": "address"
        },
        {
          "internalType": "uint256",
          "name": "amount",
          "type": "uint256"
        }
      ],
      "name": "transferFrom",
      "outputs": [
        {
          "internalType": "bool",
          "name": "",
          "type": "bool"
        }
      ],
      "stateMutability": "nonpayable",
      "type": "function"
    },
    {
      "inputs": [],
      "name": "version",
      "outputs": [
        {
          "internalType": "string",
          "name": "",
          "type": "string"
        }
      ],
      "stateMutability": "view",
      "type": "function"
    }
  ],
  "bytecode": "0x6103006040523461096357616c78803803809161001e82610300610967565b610300396103000160406103008203126109635761030051906001600160401b038211610963576101408261030001820312610963576040519061014082016001600160401b03811183821017610783576040526103008301516001600160401b03811161096357816100969185610300010161098a565b82526103208301516001600160401b03811161096357816100bc9185610300010161098a565b6020830152610340830151906001600160401b038211610963576100e59184610300010161098a565b6040820181905261036083015160608301526103808301519092906001600160401b03811681036109635760808301526103a081015160a08301526103c081015160c08301526103e081015160e083015261015b906101209061014b61040082016109df565b61010085015261030001016109df565b61012082015261032051916001600160a01b0383168303610963578151602083015160408051919592919081016001600160401b03811182821017610783576040526001815260208101603160f81b81526101b5836109ec565b610120526101c282610b6f565b6101405282516020840120918260e05251902080610100524660a0526040519060208201927f8b73c3c69bb8fe3d512ecc4cf759cc79239f7b179b0ffacaa9a75d522b39400f8452604083015260608201524660808201523060a082015260a0815260c0810181811060018060401b03821117610783576040525190206080523060c0526101608290528051906001600160401b0382116107835760035490600182811c92168015610959575b60208310146107655781601f849311610901575b50602090601f831160011461088c575f92610881575b50508160011b915f199060031b1c1916176003555b83516001600160401b03811161078357600454600181811c91168015610877575b602082101461076557601f8111610818575b506020601f82116001146107b15781929394955f926107a6575b50508160011b915f199060031b1c1916176004555b610180819052336101a0526001600160a01b03811615610797576101c0528051906001600160401b0382116107835760055490600182811c92168015610779575b60208310146107655781601f849311610717575b50602090601f831160011461068f575f92610684575b50508160011b915f199060031b1c1916176005555b60a08101518015908115610677575b811561066a575b811561065c575b50801561064b575b61063c5760a08101516102205260c08101516102405260e08101516102605260608101516102805260808101516001600160401b03166102a05261010081015115156102c052610120015115156102e052676f05b59d3b21387661020052604051615fb2610ca6823960805181614939015260a05181614a04015260c0518161490a015260e05181614988015261010051816149ae0152610120518161171b015261014051816117440152610160518181816103340152818161064b015281816108cd01528181610b0f01528181610c6701528181610de801528181611168015281816116b20152818161180601528181611ad301528181611b20015281816120ad0152818161245f015281816126b401528181612701015281816127620152818161288901528181612b8c0152818161360601528181613b4b01528181613be901528181613dde01528181613e3401528181614167015281816142420152818161454c01528181614685015281816147860152818161485901528181614a8501528181614b010152614c67015261018051818181610a8401528181610edd01528181610f820152818161109a015261199e01526101a05181613a8a01526101c0518181816109a701528181610bdf0152818161121d015281816131da0152613ccd01526101e051815050610200518181816113040152611c9a0152610220518181816118f101528181611bca0152613f2001526102405181818161191201528181611bf00152613f52015261026051818181611c160152613f79015261028051818181611c3d0152612e1601526102a051818181611c640152612e4001526102c051818181611b600152613ec501526102e051818181611b880152613eed0152615fb290f35b6359e6ae3360e11b5f5260045ffd5b5060e081015160c0820151106103b5565b905060e0820151105f6103ad565b60e08301511591506103a6565b60c083015115915061039f565b015190505f8061037b565b60055f90815293507f036b6384b5eca791c62761152d0c79bb0604c104a5fb6f4eb0703f3154bb3db091905b601f19841685106106fc576001945083601f198116106106e4575b505050811b01600555610390565b01515f1960f88460031b161c191690555f80806106d6565b818101518355602094850194600190930192909101906106bb565b90915060055f5260205f20601f840160051c81016020851061075e575b90849392915b601f830160051c82018110610750575050610365565b5f815585945060010161073a565b5080610734565b634e487b7160e01b5f52602260045260245ffd5b91607f1691610351565b634e487b7160e01b5f52604160045260245ffd5b630647140b60e51b5f5260045ffd5b015190505f806102fb565b60045f5260205f20905f5b601f1984168110610800575060019394959683601f198116106107e8575b505050811b01600455610310565b01515f1960f88460031b161c191690555f80806107da565b9091602060018192858b0151815501930191016107bc565b60045f527f8a35acfbc15ff81a39ae7d344fd709f28e8600b4aa8c65c6b64bfe7fe36bd19b601f830160051c810160208410610870575b601f830160051c820181106108655750506102e1565b5f815560010161084f565b508061084f565b90607f16906102cf565b015190505f80610299565b60035f90815293505f516020616c585f395f51905f5291905b601f19841685106108e6576001945083601f198116106108ce575b505050811b016003556102ae565b01515f1960f88460031b161c191690555f80806108c0565b818101518355602094850194600190930192909101906108a5565b60035f529091505f516020616c585f395f51905f52601f840160051c810160208510610952575b90849392915b601f830160051c82018110610944575050610283565b5f815585945060010161092e565b5080610928565b91607f169161026f565b5f80fd5b601f909101601f19168101906001600160401b0382119082101761078357604052565b81601f82011215610963578051906001600160401b03821161078357604051926109be601f8401601f191660200185610967565b8284526020838301011161096357815f9260208093018386015e8301015290565b5190811515820361096357565b805160209081811015610a625750601f825111610a245780825192015190808310610a1657501790565b825f19910360031b1b161790565b60448260405192839163305a27a960e01b83528160048401528051918291826024860152018484015e5f828201840152601f01601f19168101030190fd5b906001600160401b038211610783575f54926001938481811c91168015610b65575b8382101461076557601f8111610b32575b5081601f8411600114610ad057509282939183925f94610ac5575b50501b915f199060031b1c1916175f5560ff90565b015192505f80610ab0565b919083601f1981165f8052845f20945f905b88838310610b185750505010610b00575b505050811b015f5560ff90565b01515f1960f88460031b161c191690555f8080610af3565b858701518855909601959485019487935090810190610ae2565b5f805284601f845f20920160051c820191601f860160051c015b828110610b5a575050610a95565b5f8155018590610b4c565b90607f1690610a84565b805160209081811015610b995750601f825111610a245780825192015190808310610a1657501790565b9192916001600160401b0381116107835760019182548381811c91168015610c9b575b8282101461076557601f8111610c68575b5080601f8311600114610c085750819293945f92610bfd575b50505f19600383901b1c191690821b17905560ff90565b015190505f80610be6565b90601f19831695845f52825f20925f905b888210610c515750508385969710610c39575b505050811b01905560ff90565b01515f1960f88460031b161c191690555f8080610c2c565b808785968294968601518155019501930190610c19565b835f5283601f835f20920160051c820191601f850160051c015b828110610c90575050610bcd565b5f8155018490610c82565b90607f1690610bbc56fe6080806040526004361015610012575f80fd5b5f3560e01c90816301ffc9a714613236575080630673d09a1461318e57806306fdde03146130e5578063095ea7b31461308e5780630b89f18214612f46578063105ae7ad14612f1857806316a0b3e014612ed857806318160ddd14612ebe57806318b6eb5514612e7f5780631c149e2814612c145780631d8a5e7e14612beb578063215666a814612bc357806323b872dd14612b4157806323de665114612b10578063273c1adf14610eae5780632754888d14612aa85780632c357688146125ef57806330adf81f146125b5578063313ce5671461259a5780633644e51514612580578063378997701461255d57806338be241d1461251357806345421ec7146123ad5780634efd88c9146123855780634f149b3f146123545780635211fa771461231257806354fd4d50146122695780635687f2b814612215578063569ee350146121f3578063627cdcb9146121ca578063654cf15d146121a8578063679aefce146121895780636bd838c71461211357806370a082311461206657806372c9818614611e325780637ecebe0014611dfa5780637f118b9014611a1d57806381fa807c1461197057806384254cf9146117e157806384b0196e14611706578063851c1bb3146116d65780638d928af81461169357806395d89b41146115b5578063976907cc146114fe578063984de9e814611443578063a0e8f5ac146113fc578063a103b044146113e2578063a6d2e718146111d8578063a9059cbb14611104578063aa6ca80814611070578063abb1dc4414610f4f578063b156aa0a14610eb3578063b677fa5614610eae578063ba5f9f4014610d36578063c0209f1d14610cf5578063c480b9e614610c3d578063c66dbc4b14610b9b578063cd80a1af14610ae5578063ce20ece714610ac5578063d335b0cf14610a59578063d4a5b63a1461096c578063d505accf14610775578063d77153a7146106b8578063dd62ed3e146105f3578063dfba3818146105cf5763e45801da146102f2575f80fd5b346105cb5760403660031901126105cb5761030b613290565b602435906001600160a01b03906040519163ca4f280360e01b83523060048401525f83602481847f0000000000000000000000000000000000000000000000000000000000000000165afa928315610544575f936105a7575b50808061037085613694565b511692168092145f1461059e576001915f5b6001811480610589575b61057a57610398613e19565b91906103cd6103b06103aa8584613ec3565b91613fbd565b5050506103c66103bf82613670565b5191613694565b51906140d2565b93856103d889613694565b5116036105745791925b846103ed83896136a1565b51169460405197889163313ce56760e01b9788845283600460209c8d935afa928315610544578a928a915f9561054f575b5090610429916136a1565b51169660046040518099819382525afa958615610544575f96610512575b5060ff1660120391601283116104f757670de0b6b3a764000061048060ff9561047b6104756104b097613b22565b8d613af6565b613af6565b04906040519961048f8b613307565b60028b526040368b8d01376104a4828c6136a1565b5261050b576001615f0d565b921660120391601283116104f7576104d16104d79261047b6104de95613b22565b906140d2565b91846136a1565b526104f360405192828493845283019061348c565b0390f35b634e487b7160e01b5f52601160045260245ffd5b6003615f0d565b60ff91965061053690893d8b1161053d575b61052e8183613350565b810190613b09565b9590610447565b503d610524565b6040513d5f823e3d90fd5b6104299291955061056c90853d871161053d5761052e8183613350565b94909161041e565b926103e2565b63c1ab6dc160e01b5f5260045ffd5b508261059486613670565b511682141561038c565b5f916001610382565b6105c49193503d805f833e6105bc8183613350565b810190613948565b915f610364565b5f80fd5b346105cb575f3660031901126105cb5760206105e9614c4d565b6040519015158152f35b346105cb5760403660031901126105cb5761060c613290565b60206106166132a6565b60405163927da10560e01b81523060048201526001600160a01b039384166024820152908316604482015291829060649082907f0000000000000000000000000000000000000000000000000000000000000000165afa8015610544575f90610685575b602090604051908152f35b506020813d6020116106b0575b8161069f60209383613350565b810103126105cb576020905161067a565b3d9150610692565b346105cb575f3660031901126105cb576101406040516106d7816132eb565b5f81526020810190604081015f8152606082015f815260808301905f825260a084015f815260c0850160e08601915f83526101009485880194610120809901975f895260018b5260018552600187526040519a5f8c5251151560208c015251151560408b015251151560608a0152511515608089015251151560a088015251151560c087015251151560e08601525115159084015251151590820152f35b346105cb5760e03660031901126105cb5761078e613290565b6107966132a6565b90604435916064359160843560ff811681036105cb57834211610959576107d7826001600160a01b03165f52600260205260405f2080549060018201905590565b9060405160208101917f6e71edae12b1b97f4d1f60370fef10105fa2faae0126114a169c64845d6126c983526001600160a01b039687861694856040850152888816606085015289608085015260a084015260c083015260c0825260e08201908282106001600160401b038311176109455787936108919361088893604052519020610861614900565b906040519161190160f01b83526002830152602282015260c43591604260a43592206154e3565b90929192615565565b168181036109305760405163e1f21c6760e01b81526001600160a01b03848116600483015285166024820152604481018790526020816064815f7f00000000000000000000000000000000000000000000000000000000000000008b165af18015610544576108fc57005b6020813d602011610928575b8161091560209383613350565b810103126105cb57610926906135de565b005b3d9150610908565b6325c0072360e11b5f5260045260245260445ffd5b634e487b7160e01b5f52604160045260245ffd5b8363313c898160e11b5f5260045260245ffd5b346105cb575f3660031901126105cb57610984613b30565b6040516374eef59360e11b81523060048201526001600160a01b036060826024817f000000000000000000000000000000000000000000000000000000000000000085165afa918215610544576109e9926020915f91610a2a575b5001511630613c8e565b6109f1614ae7565b63ffffffff6060610a00613781565b0151164211610a1b576109264242610a1661483f565b61421e565b63771cef4f60e01b5f5260045ffd5b610a4c915060603d606011610a52575b610a448183613350565b810190613560565b846109df565b503d610a3a565b346105cb575f3660031901126105cb5760405163b45090f960e01b81523060048201526020816024817f00000000000000000000000000000000000000000000000000000000000000006001600160a01b03165afa8015610544575f9061068557602090604051908152f35b346105cb575f3660031901126105cb5760206040516509184e72a0008152f35b346105cb575f3660031901126105cb576040516333f0703b60e11b81523060048201525f816024817f00000000000000000000000000000000000000000000000000000000000000006001600160a01b03165afa90811561054457604091610b67915f91610b75575b50600854906001600160801b038260801c921690614ba2565b825191825215156020820152f35b610b9191503d805f833e610b898183613350565b81019061396d565b9250505083610b4e565b346105cb5760203660031901126105cb57610bb4613b30565b610bbc613bd4565b6040516374eef59360e11b81523060048201526001600160a01b036060826024817f000000000000000000000000000000000000000000000000000000000000000085165afa91821561054457610c20926020915f91610a2a575001511630613c8e565b610c28614ae7565b6020610c3560043561449f565b604051908152f35b346105cb575f3660031901126105cb576040516333f0703b60e11b81523060048201525f816024817f00000000000000000000000000000000000000000000000000000000000000006001600160a01b03165afa8015610544576040915f91610cd7575b50610cc5610cae82614a2a565b92916001600160401b0360075460a01c1694614ba2565b50918351921015825215156020820152f35b610ceb91503d805f833e610b898183613350565b9250505082610ca1565b346105cb575f3660031901126105cb576020610c35610d2a6104d1610d30610d1b614a6a565b50610d2a839693949294613670565b516138ca565b93613694565b346105cb5760e03660031901126105cb57610d4f613290565b50610d586132a6565b600460443510156105cb576001600160401b03906084358281116105cb57610d84903690600401613388565b5060a4358281116105cb57610d9d903690600401613388565b9160c4359081116105cb57602491610dbb60209236906004016133e8565b50610dc4613dd4565b6040516339370aa960e21b81526001600160a01b03918216600482015292839182907f0000000000000000000000000000000000000000000000000000000000000000165afa908115610544575f91610e7a575b610e67610e55610e618480610e2c88614a2a565b509490610e5b610e3e60643585613acc565b938492610e55670de0b6b3a7640000968792613af6565b046140d2565b95613af6565b906140f6565b610e6f614734565b602060405160018152f35b90506020813d602011610ea6575b81610e9560209383613350565b810103126105cb5751610e61610e18565b3d9150610e88565b613472565b346105cb575f3660031901126105cb576040516329ae7ec560e11b81523060048201525f816024817f00000000000000000000000000000000000000000000000000000000000000006001600160a01b03165afa8015610544576104f3915f91610f2d575b5060405191829160208352602083019061348c565b610f4991503d805f833e610f418183613350565b810190613716565b82610f18565b346105cb575f3660031901126105cb576040516333f0703b60e11b81523060048201526001600160a01b03905f816024817f000000000000000000000000000000000000000000000000000000000000000086165afa8015610544575f915f935f915f9361104f575b50610fce604051946080865260808601906134f2565b6020858203818701528080885193848152019701925f905b8382106110135787806104f3896110058d8b858203604087015261348c565b90838203606085015261348c565b909192939783606060019260408c51805161102d8161352e565b8352808501518716858401520151151560408201520199019493920190610fe6565b925093505061106891503d805f833e610b898183613350565b919385610fb8565b346105cb575f3660031901126105cb5760405163ca4f280360e01b81523060048201525f816024817f00000000000000000000000000000000000000000000000000000000000000006001600160a01b03165afa8015610544576104f3915f916110ea575b506040519182916020835260208301906134f2565b6110fe91503d805f833e6105bc8183613350565b826110d5565b346105cb5760403660031901126105cb5761115b6020611122613290565b6040516317d5759960e31b81523360048201526001600160a01b0390911660248083019190915235604482015291829081906064820190565b03815f6001600160a01b037f0000000000000000000000000000000000000000000000000000000000000000165af180156105445761119f57602060405160018152f35b6020813d6020116111d0575b816111b860209383613350565b810103126105cb576111c9906135de565b5080610e6f565b3d91506111ab565b346105cb5760603660031901126105cb57600435604435602480356111fb613b30565b6040516374eef59360e11b81523060048201526001600160a01b0360608285817f000000000000000000000000000000000000000000000000000000000000000085165afa9182156105445761125e926020915f916113c3575001511630613c8e565b8042118142180218928284116113ae576112788484613acc565b91620151809384841061139f5761129890611291614ae7565b868461421e565b916112a281614b7f565b6112ab84614b7f565b905f828203921281831281169183139015161761138c578060ff1d80910118620f4240811061137a57508281111561135557848102948186041490151715611342575061130292916112fc91613af6565b906152fa565b7f00000000000000000000000000000000000000000000000000000000000000001061133357602090604051908152f35b632b85f91760e11b5f5260045ffd5b634e487b7160e01b5f9081526011600452fd5b91848102948186041490151715611342575061137592916112fc91613af6565b611302565b905063119d853760e21b5f526004525ffd5b82634e487b7160e01b5f5260116004525ffd5b6319f8e85560e11b5f5260045ffd5b50826364bb3b8360e11b5f526004525260445ffd5b6113dc915060603d606011610a5257610a448183613350565b886109df565b346105cb575f3660031901126105cb576020610c3561483f565b346105cb576003196060368201126105cb57600435906001600160401b0382116105cb5760e091360301126105cb576114336132a6565b50604080515f81525f6020820152f35b346105cb5760403660031901126105cb576001600160401b036004358181116105cb57611474903690600401613388565b9060243560028110156105cb576020926114ea60016114bf610c3595600854906001600160801b03600754918260a01c16928163ffffffff8416938c1c16918160801c911688614fdd565b509190946114cc8161352e565b036114f057610d2a6114e46001955b610d2a86613694565b93613670565b91615f0d565b610d2a6114e46002956114db565b346105cb576101003660031901126105cb57611518613290565b506115216132a6565b50600560443510156105cb576001600160401b036064358181116105cb5761154d903690600401613388565b506084358181116105cb57611566903690600401613388565b60c4358281116105cb5761157e903690600401613388565b5060e4359182116105cb5761159a6104f39236906004016133e8565b506040519182915f835260406020840152604083019061348c565b346105cb575f3660031901126105cb576040516004545f826115d6836135a6565b91828252602093600190856001821691825f14611673575050600114611618575b5061160492500383613350565b6104f360405192828493845283019061326c565b84915060045f527f8a35acfbc15ff81a39ae7d344fd709f28e8600b4aa8c65c6b64bfe7fe36bd19b905f915b85831061165b5750506116049350820101856115f7565b80548389018501528794508693909201918101611644565b60ff19168582015261160495151560051b85010192508791506115f79050565b346105cb575f3660031901126105cb5760206040516001600160a01b037f0000000000000000000000000000000000000000000000000000000000000000168152f35b346105cb5760203660031901126105cb576004356001600160e01b0319811681036105cb57610c35602091613a80565b346105cb575f3660031901126105cb5761173f7f000000000000000000000000000000000000000000000000000000000000000061532b565b6117687f0000000000000000000000000000000000000000000000000000000000000000615425565b906040519160208301928084106001600160401b03851117610945576117c16104f3926117b3956040525f8352604051958695600f60f81b875260e0602088015260e087019061326c565b90858203604087015261326c565b904660608501523060808501525f60a085015283820360c085015261348c565b346105cb575f3660031901126105cb576040516314cb3b1f60e21b81523060048201527f00000000000000000000000000000000000000000000000000000000000000006001600160a01b031690602081602481855afa908115610544575f91611936575b50156118ec575f602491604051928380926333f0703b60e11b82523060048301525afa8015610544576040915f916118ce575b506118c26118af670de0b6b3a76400006118bb6118b46118a661189b87614a2a565b508181939299614dd9565b94818692613af6565b613ea5565b9480613af6565b04906140d2565b82519182526020820152f35b6118e291503d805f833e610b898183613350565b9250505082611879565b5060407f00000000000000000000000000000000000000000000000000000000000000007f00000000000000000000000000000000000000000000000000000000000000006118c2565b90506020813d602011611968575b8161195160209383613350565b810103126105cb57611962906135de565b82611846565b3d9150611944565b346105cb575f3660031901126105cb5760405163f29486a160e01b81523060048201526101a09081816024817f00000000000000000000000000000000000000000000000000000000000000006001600160a01b03165afa908115610544576040925f926119f0575b505060608282015191015182519182526020820152f35b611a0f9250803d10611a16575b611a078183613350565b8101906137c1565b82806119d9565b503d6119fd565b346105cb575f3660031901126105cb5760405161020081018181106001600160401b038211176109455760405260608152606060208201525f60408201525f60608201525f60808201525f60a08201525f60c08201525f60e08201525f6101008201525f6101208201525f6101408201525f6101608201525f6101808201525f6101a08201525f6101c08201525f6101e082015260405163ca4f280360e01b81523060048201525f816024816001600160a01b037f0000000000000000000000000000000000000000000000000000000000000000165afa908115610544575f91611de0575b508152604051633f1b0def60e11b81523060048201525f816024817f00000000000000000000000000000000000000000000000000000000000000006001600160a01b03165afa908115610544575f91611dbd575b5060208201527f0000000000000000000000000000000000000000000000000000000000000000151560408201527f0000000000000000000000000000000000000000000000000000000000000000151560608201526509184e72a000608082015267016345785d8a000060a08201527f000000000000000000000000000000000000000000000000000000000000000060c08201527f000000000000000000000000000000000000000000000000000000000000000060e08201527f00000000000000000000000000000000000000000000000000000000000000006101008201527f00000000000000000000000000000000000000000000000000000000000000006101208201527f00000000000000000000000000000000000000000000000000000000000000006101408201526729a2241af62c00006101608201527f0000000000000000000000000000000000000000000000000000000000000000610180820152620151806101a0820152620f42406101c0820152655af3107a40006101e08201526040518091602082526101e0611d1d611d07835161020060208701526102208601906134f2565b6020840151858203601f190160408701526134bf565b91604081015115156060850152606081015115156080850152608081015160a085015260a081015160c085015260c081015160e085015260e08101516101008501526101008101516101208501526101208101516101408501526101408101516101608501526101608101516101808501526101808101516101a08501526101a08101516101c08501526101c08101518285015201516102008301520390f35b611dd991503d805f833e611dd18183613350565b81019061373e565b5082611b58565b611df491503d805f833e6105bc8183613350565b82611b03565b346105cb5760203660031901126105cb576001600160a01b03611e1b613290565b165f526002602052602060405f2054604051908152f35b346105cb576003196020368201126105cb57600435906001600160401b03908183116105cb5760e09083360301126105cb576040519160e083018381108382111761094557604052806004013560028110156105cb578352602083016024820135815260448201358381116105cb57611eb19060043691850101613388565b9360408101948552606081019360648401358552608082019360848101358552611edd60a482016132bc565b60a084015260c48101359182116105cb576004611efd92369201016133e8565b60c0820152611f0a613dd4565b611f148551614a2a565b969196929092612057575b611f27614734565b51611f318161352e565b611f3a8161352e565b611fcd57611f8e92611f83611f94969593611f8893519889975195519788945194859288155f14611fb557611f7c92610d2a610d2a959361047b9397926136a1565b958a6136a1565b6138ca565b90613ea5565b926136a1565b518111611fa657602090604051908152f35b635a09f12960e11b5f5260045ffd5b93611f7c92610d2a610d2a959361047b9397926136a1565b5193519251915193949092611fe283876136a1565b518511611fa657610d2a859361200e612019966120149585155f1461204d57610d2a9091955b8b6136a1565b976136a1565b613acc565b90811561203e5761202e600191602094613af6565b915f198301040190151502610c35565b630a0c22c760e01b5f5260045ffd5b94610d2a90612008565b61206183886140f6565b611f1f565b346105cb576020806003193601126105cb57604481612083613290565b604051633de222bb60e21b81523060048201526001600160a01b03918216602482015292839182907f0000000000000000000000000000000000000000000000000000000000000000165afa908115610544575f916120e6575b50604051908152f35b90508181813d831161210c575b6120fd8183613350565b810103126105cb5751826120dd565b503d6120f3565b346105cb575f3660031901126105cb575f6060604051612132816132d0565b8281528260208201528260408201520152608061214d613781565b604051906001600160601b038082511683526020820151166020830152606060408201519163ffffffff80931660408501520151166060820152f35b346105cb575f3660031901126105cb576356b7fcdb60e01b5f5260045ffd5b346105cb575f3660031901126105cb57602060405167016345785d8a00008152f35b346105cb575f3660031901126105cb57335f908152600260205260409020805460018101909155005b346105cb575f3660031901126105cb576020610c3561221061483f565b6148c3565b346105cb5760207f8c5be1e5ebec7d5bd14f71427d1e84f3dd0314c0f7b2291e5b200ac8c7c3b9256122463661343d565b92919390612252613dd4565b6001600160a01b03809160405195865216941692a3005b346105cb575f3660031901126105cb576040516005545f8261228a836135a6565b91828252602093600190856001821691825f146116735750506001146122b7575061160492500383613350565b84915060055f527f036b6384b5eca791c62761152d0c79bb0604c104a5fb6f4eb0703f3154bb3db0905f915b8583106122fa5750506116049350820101856115f7565b805483890185015287945086939092019181016122e3565b346105cb576003196040368201126105cb57600435906001600160401b0382116105cb5760e091360301126105cb576123496132a6565b5060206040515f8152f35b346105cb575f3660031901126105cb57606061236e614a6a565b919250604051928352602083015215156040820152f35b346105cb575f3660031901126105cb576020610c356001600160801b03600754831c16614815565b346105cb5760e03660031901126105cb576123c6613290565b506123cf6132a6565b600560443510156105cb576001600160401b03906064358281116105cb576123fb903690600401613388565b5060a4358281116105cb57612414903690600401613388565b9160c4359081116105cb5760249161243260209236906004016133e8565b5061243b613dd4565b6040516339370aa960e21b81526001600160a01b03918216600482015292839182907f0000000000000000000000000000000000000000000000000000000000000000165afa908115610544575f916124df575b506124a26124a8916118af608435613ad9565b91614a2a565b509091670de0b6b3a7640000908101928382116104f75783826124d1610e67966124d894613af6565b0493613af6565b04906140f6565b90506020813d60201161250b575b816124fa60209383613350565b810103126105cb57516124a261248f565b3d91506124ed565b346105cb5760603660031901126105cb576001600160401b036004358181116105cb57612544903690600401613388565b506044359081116105cb576123499036906004016133e8565b346105cb575f3660031901126105cb57602063ffffffff60075416604051908152f35b346105cb575f3660031901126105cb576020610c35614900565b346105cb575f3660031901126105cb57602060405160128152f35b346105cb575f3660031901126105cb5760206040517f6e71edae12b1b97f4d1f60370fef10105fa2faae0126114a169c64845d6126c98152f35b346105cb575f3660031901126105cb5760405161024081018181106001600160401b038211176109455760405260608152606060208201525f60408201525f60608201525f6080820152606060a08201525f60c08201525f60e08201525f6101008201525f6101208201525f6101408201525f6101608201525f6101808201525f6101a08201525f6101c08201525f6101e08201525f6102008201525f6102208201526040516329ae7ec560e11b81523060048201525f816024816001600160a01b037f0000000000000000000000000000000000000000000000000000000000000000165afa908115610544575f91612a8e575b508152604051633f1b0def60e11b81523060048201525f816024817f00000000000000000000000000000000000000000000000000000000000000006001600160a01b03165afa908115610544575f91612a72575b50602082015260405163b45090f960e01b81523060048201526020816024816001600160a01b037f0000000000000000000000000000000000000000000000000000000000000000165afa908115610544575f91612a40575b5060408201526127a06135eb565b60608201526001600160401b0360075463ffffffff811660808401526128136040516127cb81613307565b600281526040366020830137600854906001600160801b03918281166127f083613694565b5260801c6127fd82613670565b5260a08601528260201c168060e0860152614815565b60c084015260a01c1661010082015263ffffffff6060612831613781565b6001600160601b0380825116610160860152602082015116610180850152826040820151166101a08501520151166101c082015260405163f29486a160e01b81523060048201526101a0816024816001600160a01b037f0000000000000000000000000000000000000000000000000000000000000000165afa908115610544575f91612a1f575b5061012060e0820151151591826101e08501526101008101511515610200850152015115156102208301526129fd575b60405180916020825261022061295f612910835161024060208701526102608601906134bf565b61292c602085015191601f1992838883030160408901526134bf565b906040850151606087015260608501516080870152608085015160a087015260a0850151908683030160c08701526134bf565b9160c081015160e085015260e08101516101008501526101008101516101208501526101208101516101408501526101408101516101608501526101608101516101808501526101808101516101a085015263ffffffff6101a0820151166101c085015263ffffffff6101c0820151166101e08501526101e08101511515610200850152610200810151151582850152015115156102408301520390f35b612a14612a0861483f565b806101208401526148c3565b6101408201526128e9565b612a3a91506101a03d6101a011611a1657611a078183613350565b826128b9565b90506020813d602011612a6a575b81612a5b60209383613350565b810103126105cb575182612792565b3d9150612a4e565b612a8691503d805f833e611dd18183613350565b905082612739565b612aa291503d805f833e610f418183613350565b826126e4565b346105cb576101003660031901126105cb57612ac2613290565b50612acb6132a6565b50600460443510156105cb576001600160401b036084358181116105cb57612af7903690600401613388565b5060a4358181116105cb57611566903690600401613388565b346105cb5760207fddf252ad1be2c89b69c2b068fc378daa952ba7f163c4a11628f55a4df523b3ef6122463661343d565b346105cb5760846020612b533661343d565b604051630aed65f560e11b81523360048201526001600160a01b0393841660248201529183166044830152606482015292839182905f907f0000000000000000000000000000000000000000000000000000000000000000165af180156105445761119f57602060405160018152f35b346105cb575f3660031901126105cb5760206007546001600160801b0360405191831c168152f35b346105cb575f3660031901126105cb5760206001600160401b0360075460a01c16604051908152f35b346105cb5760403660031901126105cb576001600160401b036004358181116105cb57612c45903690600401613388565b6024358281116105cb57612c5d9036906004016133e8565b50612c66613dd4565b60405191610120830190811183821017610945576040525f825260208201905f8252604083015f815260608401935f855260808101915f835260a08201926060845260c08301925f8452612ce9612cda60e08301925f84526101008101995f8b52612ccf613e19565b928382935252613ec3565b91828652818c52808752613fbd565b8a528352855280865297612d19612d0c612d0289613670565b516103c68a613694565b996103c66103bf82613670565b670de05bc096e9c000998a820282159b838204148c17156104f757670de0b6b3a76400009b670de111a6b7de40008085029485041417156104f7578b8091048210928315612e73575b505050612e645788612df7612de8612e0196612dde958b85612e109f612db890612e069f612de39f612da5906103c6612d9d612dae94613694565b519151613694565b9e8f9051613af6565b049c8d9451613af6565b049b8c935197519951612dde612dd186610d2a86613670565b6104d186610d2a87613694565b614d6e565b614dd9565b92612dde846118af8b80613af6565b6118bb8680613af6565b6140f6565b514290429061421e565b50612e3a7f000000000000000000000000000000000000000000000000000000000000000061449f565b50610e677f0000000000000000000000000000000000000000000000000000000000000000614608565b6304f512cb60e41b5f5260045ffd5b041090508a8a81612d62565b346105cb576003196020368201126105cb57600435906001600160401b0382116105cb5761018091360301126105cb57604080515f81525f6020820152f35b346105cb575f3660031901126105cb576020610c356135eb565b346105cb5760603660031901126105cb576004356001600160401b0381116105cb57612f08903690600401613388565b5063d623472560e01b5f5260045ffd5b346105cb575f3660031901126105cb5760406008548151906001600160801b038116825260801c6020820152f35b346105cb5760e03660031901126105cb57612f5f613290565b50612f686132a6565b506044356001600160401b0381116105cb57366023820112156105cb578060040135612f9381613371565b91612fa16040519384613350565b81835260206024602085019360071b830101913683116105cb57602401925b82841061301d578460803660631901126105cb57600290612fdf613dd4565b51148061300c575b80612ffa575b6020906040519015158152f35b5060c435801590811514612fed575f80fd5b506064358015158114612fe7575f80fd5b6080843603126105cb5760405190613034826132d0565b61303d856132bc565b82528285013560028110156105cb578383015260408501356001600160a01b03811681036105cb576040830152606090818601359283151584036105cb576080938593820152815201930192612fc0565b346105cb5760403660031901126105cb5761115b60206130ac613290565b60405163e1f21c6760e01b81523360048201526001600160a01b0390911660248083019190915235604482015291829081906064820190565b346105cb575f3660031901126105cb576040516003545f82613106836135a6565b91828252602093600190856001821691825f14611673575050600114613133575061160492500383613350565b84915060035f527fc2575a0e9e593c00f959f8c92f12db2869c3395a3b0502d05e2516446f71f85b905f915b8583106131765750506116049350820101856115f7565b8054838901850152879450869390920191810161315f565b346105cb5760203660031901126105cb576131a7613b30565b6131af613bd4565b6131b7613c71565b6040516374eef59360e11b81523060048201526001600160a01b036060826024817f000000000000000000000000000000000000000000000000000000000000000085165afa9182156105445761321b926020915f91610a2a575001511630613c8e565b613223614ae7565b61322e600435614608565b610926613c71565b346105cb5760203660031901126105cb576004359063ffffffff60e01b82168092036105cb576020916301ffc9a760e01b148152f35b805180835260209291819084018484015e5f828201840152601f01601f1916010190565b600435906001600160a01b03821682036105cb57565b602435906001600160a01b03821682036105cb57565b35906001600160a01b03821682036105cb57565b608081019081106001600160401b0382111761094557604052565b61014081019081106001600160401b0382111761094557604052565b606081019081106001600160401b0382111761094557604052565b6001600160401b03811161094557604052565b604081019081106001600160401b0382111761094557604052565b90601f801991011681019081106001600160401b0382111761094557604052565b6001600160401b0381116109455760051b60200190565b9080601f830112156105cb5760209082356133a281613371565b936133b06040519586613350565b81855260208086019260051b8201019283116105cb57602001905b8282106133d9575050505090565b813581529083019083016133cb565b81601f820112156105cb578035906001600160401b038211610945576040519261341c601f8401601f191660200185613350565b828452602083830101116105cb57815f926020809301838601378301015290565b60609060031901126105cb576001600160a01b039060043582811681036105cb579160243590811681036105cb579060443590565b346105cb575f3660031901126105cb5760206040515f8152f35b9081518082526020808093019301915f5b8281106134ab575050505090565b83518552938101939281019260010161349d565b9081518082526020808093019301915f5b8281106134de575050505090565b8351855293810193928101926001016134d0565b9081518082526020808093019301915f5b828110613511575050505090565b83516001600160a01b031685529381019392810192600101613503565b6002111561353857565b634e487b7160e01b5f52602160045260245ffd5b51906001600160a01b03821682036105cb57565b908160609103126105cb5761359e604080519261357c84613307565b6135858161354c565b84526135936020820161354c565b60208501520161354c565b604082015290565b90600182811c921680156135d4575b60208310146135c057565b634e487b7160e01b5f52602260045260245ffd5b91607f16916135b5565b519081151582036105cb57565b6040516339370aa960e21b81523060048201526020816024817f00000000000000000000000000000000000000000000000000000000000000006001600160a01b03165afa908115610544575f91613641575090565b90506020813d602011613668575b8161365c60209383613350565b810103126105cb575190565b3d915061364f565b8051600110156136805760400190565b634e487b7160e01b5f52603260045260245ffd5b8051156136805760200190565b80518210156136805760209160051b010190565b9080601f830112156105cb578151906020916136d081613371565b936136de6040519586613350565b81855260208086019260051b8201019283116105cb57602001905b828210613707575050505090565b815181529083019083016136f9565b906020828203126105cb5781516001600160401b0381116105cb5761373b92016136b5565b90565b9190916040818403126105cb578051926001600160401b03938481116105cb578161376a9184016136b5565b9360208301519081116105cb5761373b92016136b5565b6040519061378e826132d0565b8160606006546001600160601b03808216845281831c16602084015263ffffffff8160c01c16604084015260e01c910152565b809103906101a082126105cb576080604051926137dd846132eb565b126105cb576040516137ee816132d0565b6137f7826135de565b8152613805602083016135de565b6020820152613816604083016135de565b6040820152613827606083016135de565b606082015282526080810151602083015260a0810151604083015260c0810151606083015260e081015164ffffffffff811681036105cb576080830152610100908181015163ffffffff811681036105cb576138c3916101809160a0860152610120936138958583016135de565b60c08701526138a761014083016135de565b60e08701526138b961016083016135de565b90860152016135de565b9082015290565b919082018092116104f757565b9080601f830112156105cb578151906020916138f281613371565b936139006040519586613350565b81855260208086019260051b8201019283116105cb57602001905b828210613929575050505090565b81516001600160a01b03811681036105cb57815290830190830161391b565b906020828203126105cb5781516001600160401b0381116105cb5761373b92016138d7565b916080838303126105cb578251906001600160401b03918281116105cb57836139979186016138d7565b936020808201518481116105cb57820185601f820112156105cb578051906139be82613371565b9260406139ce6040519586613350565b83855281850190826060809602850101938a85116105cb578301915b848310613a27575050505050509360408201518481116105cb5781613a109184016136b5565b9360608301519081116105cb5761373b92016136b5565b85838c03126105cb57815190613a3c82613307565b835160028110156105cb57825284840151906001600160a01b03821682036105cb57828692838a950152613a718587016135de565b858201528152019201916139ea565b60405160208101917f0000000000000000000000000000000000000000000000000000000000000000835263ffffffff60e01b16604082015260248152613ac681613307565b51902090565b919082039182116104f757565b90670de0b6b3a7640000918281029281840414901517156104f757565b818102929181159184041417156104f757565b908160209103126105cb575160ff811681036105cb5790565b604d81116104f757600a0a90565b6040516314cb3b1f60e21b81523060048201526020816024817f00000000000000000000000000000000000000000000000000000000000000006001600160a01b03165afa908115610544575f91613b9a575b5015613b8b57565b63486aa30760e01b5f5260045ffd5b90506020813d602011613bcc575b81613bb560209383613350565b810103126105cb57613bc6906135de565b5f613b83565b3d9150613ba8565b604051638380edb760e01b81526020816004817f00000000000000000000000000000000000000000000000000000000000000006001600160a01b03165afa908115610544575f91613c37575b50613c2857565b633915d7f960e21b5f5260045ffd5b90506020813d602011613c69575b81613c5260209383613350565b810103126105cb57613c63906135de565b5f613c21565b3d9150613c45565b613c79614c4d565b15613c8057565b62f656ad60e21b5f5260045ffd5b906001600160a01b0390811680613dc95750613cb45f356001600160e01b031916613a80565b60405163aaabadc560e01b8152602093909184836004817f000000000000000000000000000000000000000000000000000000000000000088165afa92831561054457859385915f91613d8a575b50906064929160405196879586946326f8aa2160e21b86526004860152336024860152166044840152165afa918215610544575f92613d54575b505015613d4557565b6323dada5360e01b5f5260045ffd5b90809250813d8311613d83575b613d6b8183613350565b810103126105cb57613d7c906135de565b5f80613d3c565b503d613d61565b92948092508391503d8311613dc2575b613da48183613350565b810103126105cb575183811681036105cb5784929084906064613d02565b503d613d9a565b9150503303613d4557565b6001600160a01b037f0000000000000000000000000000000000000000000000000000000000000000163303613e0657565b63089676d560e01b5f523360045260245ffd5b6040516333f0703b60e11b8152306004820152905f826024817f00000000000000000000000000000000000000000000000000000000000000006001600160a01b03165afa918215610544575f92613e85575b5061373b613e7f6114e4613e7f85613694565b51614cee565b613e9a9192503d805f833e610b898183613350565b50509050905f613e6c565b8115613eaf570490565b634e487b7160e01b5f52601260045260245ffd5b7f000000000000000000000000000000000000000000000000000000000000000015613fad57905b7f000000000000000000000000000000000000000000000000000000000000000015613f9d57915b61373b613f44846118af857f0000000000000000000000000000000000000000000000000000000000000000613af6565b936118af613f76826118af877f0000000000000000000000000000000000000000000000000000000000000000613af6565b947f0000000000000000000000000000000000000000000000000000000000000000613af6565b50670de0b6b3a764000091613f13565b50670de0b6b3a764000090613eeb565b929190836118af613fcd92613ad9565b613fde613fd982613ad9565b614eaa565b670de0b6b3a763ffff1981019081116104f7578015613eaf57710b7abc627050305adf14a3d9e40000000000049269d3c21bcecceda100000094858501908186116104f757614037670de0b6b3a7640000928392613af6565b04936040519161404683613307565b600283526040366020850137829761405e8784614d4c565b908881018091116104f75761407291614d4c565b91818302928084048314901517156104f7576140c46140c99261409b896120146140cf97614eaa565b6140a487613670565b526140b289610d2a88613670565b906140bd848c613af6565b0490613acc565b6140d2565b91613694565b52565b90670de0b6b3a7640000918281029281840414901517156104f75761373b91613ea5565b906001600160801b0361410883614e03565b166fffffffffffffffffffffffffffffffff1961412483614e03565b60801b16176008556040907ff36b0fd05d55ca91fb3ebd8493adf78a3405a11c145c054a092d0994b665b637828051858152836020820152a16001600160a01b037f000000000000000000000000000000000000000000000000000000000000000016908251936020850152828401528183526141a083613307565b803b156105cb576141f75f93918492845195868094819363c808824760e01b83527f5669727475616c42616c616e63657355706461746564000000000000000000006004840152886024840152604483019061326c565b03925af1908115614215575061420a5750565b61421390613322565b565b513d5f823e3d90fd5b9092918084118015614496575b61448757614237613781565b936001600160a01b037f000000000000000000000000000000000000000000000000000000000000000016906040928351916314cb3b1f60e21b83523060048401526020928381602481885afa90811561447d575f91614448575b5015614426576143cf92916143c1916142a961483f565b996142bc6142b68c6148c3565b996148c3565b906001600160601b03806142cf8c614e2e565b1682526142db83614e2e565b818884019116815277ffffffffffffffffffffffff00000000000000000000000061430586614e59565b928c85019463ffffffff809516865261431d89614e59565b94851660608201525116915160601b169263ffffffff60c01b905160c01b169163ffffffff60e01b9060e01b16921717176006557fa18562ea402e57cc2b437f8d7a139c6c38958adc1ecbb706ec37a7a64ff6e7a5818a61439b86868d51948594859094939260609260808301968352602083015260408201520152565b0390a1875198899586019094939260609260808301968352602083015260408201520152565b03601f198101855284613350565b803b156105cb576141f75f93918492845195868094819363c808824760e01b83527f5072696365526174696f537461746555706461746564000000000000000000006004840152886024840152604483019061326c565b82916143c1916001600160601b036143cf958b999b015116976142bc8b6148c3565b90508381813d8311614476575b61445f8183613350565b810103126105cb57614470906135de565b5f614292565b503d614455565b86513d5f823e3d90fd5b632ca4094f60e21b5f5260045ffd5b5042841061422b565b6729a2241af62c000081116145f9576201e6e9670de0b6b3a7640000910481039081116104f7576144cf81614815565b906144d981614e03565b73ffffffffffffffffffffffffffffffff000000006007549160201b169073ffffffffffffffffffffffffffffffff0000000019161760075560407f7ee46b38be05f748de1c0fb2002ac48fe50a26a0017c654a92c0bf9228058847818051858152846020820152a16001600160a01b037f0000000000000000000000000000000000000000000000000000000000000000168151928460208501528284015281835261458583613307565b803b156105cb576145dc5f93918492845195868094819363c808824760e01b83527f4461696c79507269636553686966744578706f6e656e745570646174656400006004840152886024840152604483019061326c565b03925af190811561421557506145f0575090565b61373b90613322565b632b5b4f3560e01b5f5260045ffd5b670de0b6b3a76400008111614725576007547fffffffff0000000000000000ffffffffffffffffffffffffffffffffffffffff6001600160401b0360a01b8360a01b169116176007557f74d468c8e414c37c502176a45cce93c85eaa0abf608e40641dc6664ca5efcab06020604051838152a16001600160a01b037f000000000000000000000000000000000000000000000000000000000000000016604051916020830152602082526146bb82613335565b803b156105cb576147145f9291839260405194858094819363c808824760e01b83527f43656e74657265646e6573734d617267696e5570646174656400000000000000600484015260406024840152604483019061326c565b03925af180156105445761420a5750565b637304fac760e01b5f5260045ffd5b63ffffffff61474242614e59565b168063ffffffff1960075416176007557f32a9fd44bdf167703f584bd25098494d3d18a4653a2d97116d28da05209444d46020604051838152a16001600160a01b037f000000000000000000000000000000000000000000000000000000000000000016604051916020830152602082526147bc82613335565b803b156105cb576147145f9291839260405194858094819363c808824760e01b83527f4c61737454696d657374616d7055706461746564000000000000000000000000600484015260406024840152604483019061326c565b670de0b6b3a7640000818103918183116104f7576201e6e980840293840414911417156104f75790565b6040516333f0703b60e11b81523060048201525f816024817f00000000000000000000000000000000000000000000000000000000000000006001600160a01b03165afa80156105445761373b915f916148a5575b5061489e81614a2a565b5091614e81565b6148b991503d805f833e610b898183613350565b925050505f614894565b670de0b6b3a764000090818102908082048314901517156104f7576148e790614eaa565b8181029181830414901517156104f75761373b90614eaa565b6001600160a01b037f000000000000000000000000000000000000000000000000000000000000000016301480614a01575b1561495b577f000000000000000000000000000000000000000000000000000000000000000090565b60405160208101907f8b73c3c69bb8fe3d512ecc4cf759cc79239f7b179b0ffacaa9a75d522b39400f82527f000000000000000000000000000000000000000000000000000000000000000060408201527f000000000000000000000000000000000000000000000000000000000000000060608201524660808201523060a082015260a0815260c081018181106001600160401b038211176109455760405251902090565b507f00000000000000000000000000000000000000000000000000000000000000004614614932565b614a65906008546001600160801b03600754916001600160401b038360a01c16938263ffffffff85169460201c16928260801c921690614fdd565b909192565b6040516333f0703b60e11b8152306004820152905f826024817f00000000000000000000000000000000000000000000000000000000000000006001600160a01b03165afa918215610544575f92614ac7575b50614a6582614a2a565b614adc9192503d805f833e610b898183613350565b92505050905f614abd565b6040516333f0703b60e11b81523060048201525f816024817f00000000000000000000000000000000000000000000000000000000000000006001600160a01b03165afa801561054457614b42915f91614b61575b50614a2a565b614b51575b5050614213614734565b614b5a916140f6565b5f80614b47565b614b7591503d805f833e610b898183613350565b925050505f614b3c565b6001600160ff1b038111614b905790565b63123baf0360e11b5f5260045260245ffd5b9190614bad83613694565b51614bbb575050505f905f90565b614bc483613670565b5115614c4357614be36114e4614bea93614bdd86613694565b51613af6565b5190613af6565b808211614c1957670de0b6b3a7640000918281029281840414901517156104f757614c1491613ea5565b905f90565b90670de0b6b3a7640000918281029281840414901517156104f757614c3d91613ea5565b90600190565b5050505f90600190565b6040516333f0703b60e11b81523060048201525f816024817f00000000000000000000000000000000000000000000000000000000000000006001600160a01b03165afa908115610544575f91614cd0575b50614cca6008546001600160401b0360075460a01c16926001600160801b038260801c921690614ba2565b50101590565b614ce491503d805f833e610b898183613350565b925050505f614c9f565b60018151614cfb8161352e565b614d048161352e565b03614d3f5760206001600160a01b0381600493015116604051928380926333cd77e760e11b82525afa908115610544575f91613641575b5090565b50670de0b6b3a764000090565b90614d5691613af6565b6001670de0b6b3a76400005f19830104019015150290565b670de05bc096e9c000808302831591848204148217156104f757670de0b6b3a764000091670de111a6b7de40008086029586041417156104f7578190048210928315614dcd575b505050614dbe57565b633d9f09df60e21b5f5260045ffd5b041090505f8080614db5565b614df9670de0b6b3a764000093610d2a6114e4614dff95610d2a86613694565b90613af6565b0490565b6001600160801b0390818111614e17571690565b6306dfcc6560e41b5f52608060045260245260445ffd5b6001600160601b0390818111614e42571690565b6306dfcc6560e41b5f52606060045260245260445ffd5b63ffffffff90818111614e6a571690565b6306dfcc6560e41b5f52602060045260245260445ffd5b6118af670de0b6b3a76400006118bb6118b4866118a661373b9888614ea598614dd9565b6152fa565b600180821115614d3b57614f79908083700100000000000000000000000000000000811015614fc6575b80680100000000000000006004921015614fb9575b640100000000811015614fac575b62010000811015614f9f575b610100811015614f93575b6010811015614f87575b1015614f80575b600302811c614f2e8185613ea5565b01811c614f3b8185613ea5565b01811c614f488185613ea5565b01811c614f558185613ea5565b01811c614f628185613ea5565b01811c614f6f8185613ea5565b01901c8092613ea5565b8111900390565b811b614f1f565b811c9160021b91614f18565b60081c91811b91614f0e565b60101c9160081b91614f03565b60201c9160101b91614ef7565b60401c9160201b91614ee9565b50680100000000000000009050608084901c614ed4565b919495929390955f94614fef42614e59565b9163ffffffff90818416988286168a81146152ec578b829b61500f613781565b92866001600160601b03928184875116946150448d8260208b01511699604081019a6060868d5116920199868b5116936155db565b169651161092836152df575b505050615185575b505050906001600160401b03949392916150738a8c89614ba2565b9690911611615085575b505050505050565b9091929598949793965061509a84868a614e81565b670de0b6b3a764000096878202918083048914901517156104f7576150c16150eb92614eaa565b95891561516b576150db6150d48c613694565b519b613670565b51975b8a156151635750946155c5565b16858102908082048714901517156104f75761511b92614df961510f92889461568c565b0495614df984886138ca565b91670de0b6b3a763ffff1982019182116104f7576151469361514087611f8894613af6565b04613acc565b901561515e57905b90916001905f808080808061507d565b61514e565b9050946155c5565b61517e6151778c613670565b519b613694565b51976150de565b829b5061519a9291949c5080939a5088614ba2565b9990918a156152c8576151c7906151b089613694565b519092945b670de0b6b3a764000092818492613af6565b04938083018093116104f7577f3fffffffffffffffffffffffffffffffffffffffffffffffffffffffffffffff851685036104f7576152098560021b826138ca565b671bc16d674ec7ffff1981019081116104f75761522591613af6565b6ec097ce7bc90715b34b9f100000000081018091116104f7576152549261524e614df992614eaa565b906138ca565b670de0b6b3a763ffff1983019283116104f7576001600160ff1b03831683036104f75761528b6118af916152929460011b90613ea5565b9384613af6565b97156152b757906001600160401b03939291975b979860019790919293945f80615058565b6001600160401b03939291906152a6565b906151c7906152d689613670565b519092946151b5565b51161190505f8681615050565b5098505f9750505050505050565b90801561203e57670de0b6b3a7640000918281029281840414901517156104f7576001905f19830104019015150290565b60ff81146153665760ff811690601f8211615357576040519161534d83613335565b8252602082015290565b632cd44ac360e21b5f5260045ffd5b506040515f815f5491615378836135a6565b8083529260209060019081811690811561540157506001146153a3575b505061373b92500382613350565b9150925f80527f290decd9548b62a8d60345a988386fc84ba6bc95484008f6362f93160ef3e563935f925b8284106153e9575061373b9450505081016020015f80615395565b855487850183015294850194869450928101926153ce565b9150506020925061373b94915060ff191682840152151560051b8201015f80615395565b60ff81146154475760ff811690601f8211615357576040519161534d83613335565b506040515f8160019160015461545c816135a6565b8084529360209160018116908115615401575060011461548457505061373b92500382613350565b91509260015f527fb10e2d527612073b26eecdfd717e6a320cf44b4afac2b0732d9fcbe2b7fa0cf6935f925b8284106154cb575061373b9450505081016020015f80615395565b855487850183015294850194869450928101926154b0565b91907f7fffffffffffffffffffffffffffffff5d576e7357a4501ddfe92f46681b20a0841161555a579160209360809260ff5f9560405194855216868401526040830152606082015282805260015afa15610544575f516001600160a01b0381161561555057905f905f90565b505f906001905f90565b5050505f9160039190565b60048110156135385780615577575050565b6001810361558e5763f645eedf60e01b5f5260045ffd5b600281036155a9575063fce698f760e01b5f5260045260245ffd5b6003146155b35750565b6335e2f38360e21b5f5260045260245ffd5b63ffffffff91821690821603919082116104f757565b90939192919063ffffffff9081811682841681106155fd575050505050905090565b82851610156156845783826156186156269661561f946155c5565b16936155c5565b16906140d2565b916001600160601b038091169116670de0b6b3a7640000808202938285048214831517156104f75761566761566d916156628661373b98613ea5565b61568c565b84613af6565b049181808210911802188180821191180218614e2e565b505050505090565b670de0b6b3a7640000918083036156a35750905090565b8290671bc16d674ec8000081036156c057505080614dff91613af6565b673782dace9d90000081036156e457506156dd82614dff93613af6565b0480613af6565b90506156ef91615753565b6127108082029082820414821517156104f75760015f199384830104019015150290600182018083116104f75781101561572a575050505f90565b030190565b8015613eaf576ec097ce7bc90715b34b9f10000000000590565b8115613eaf570590565b908015615eff578115615ef9578160ff1c615eeb57770bce5086492111aea88f4bb1ca6bcf584181ea8059f76532811015615edc5781670c7d713b49da00001280615ecb575b15615b7e57670de0b6b3a7640000916ec097ce7bc90715b34b9f1000000000906157dc908402828101906ec097ce7bc90715b34b9f0fffffffff19018302615749565b9080828002059181838202058284820205838582020591848684020593858786020595808888020597880205600f900596600d900595600b900594600990059360079005926005900591600390050101010101010160011b918082818507020592050201670de0b6b3a7640000905b05680238fd42c5cf03ffff198181131580615b6b575b15615b5c57819082121580615b49575b15615b3a575f915f8112615b2b575b506064906806f05b59d3b20000008112615ade576806f05b59d3b1ffffff190168056bc75e2d6310000082770195e54c5dd42177f53a27172fa9ec630262827000000000925b02819068ad78ebc5ac62000000811215615abb575b6856bc75e2d631000000811215615a97575b682b5e3af16b18800000811215615a75575b6815af1d78b58c400000811215615a53575b680ad78ebc5ac6200000811215615a32575b82811215615a11575b6802b5e3af16b18800008112156159f0575b68015af1d78b58c400008112156159cf575b60028382800205056003848383020505600485848302050585600581868402050560068287830205056007838883020505906008848984020505926009858a8602050595600a868b8902050597600b878c8b02050599600c888d8d0205059b01010101010101010101010102050205905f1461373b5761373b9061572f565b6806f5f1775788937937839168015af1d78b58c3ffff190192020590615950565b6808f00f760a4b2db55d83916802b5e3af16b187ffff19019202059061593e565b680ebc5fb41746121110839168056bc75e2d630fffff19019202059061592c565b68280e60114edb805d038391680ad78ebc5ac61fffff190192020590615923565b690127fa27722cc06cc5e283916815af1d78b58c3fffff190192020590615911565b693f1fce3da636ea5cf8508391682b5e3af16b187fffff1901920205906158ff565b6b02df0ab5a80a22c61ab5a70083916856bc75e2d630ffffff1901920205906158ed565b6e01855144814a7ff805980ff0084000915068ad78ebc5ac61ffffff19016158db565b6803782dace9d90000008112615b18576803782dace9d8ffffff190168056bc75e2d63100000826b1425982cf597cd205cef7380926158c6565b68056bc75e2d63100000826001926158c6565b600192505f0390506064615880565b63d4794efd60e01b5f5260045ffd5b5068070c1cc73b00c80000821315615871565b63a2f9f7e360e01b5f5260045ffd5b5068070c1cc73b00c80000821315615861565b81670de0b6b3a7640000925f91848112615eb5575b506064905f7e1600ef3172e58d2e933ec884fde10064c63b5372d805e203c0000000000000821215615e8a575b73011798004d755d3c8bc8e03204cf44619e000000821215615e69575b820290808302906e01855144814a7ff805980ff00840009081831215615e46575b50506b02df0ab5a80a22c61ab5a70080821215615e26575b50693f1fce3da636ea5cf85080821215615e06575b50690127fa27722cc06cc5e280821215615de6575b5068280e60114edb805d0380821215615dc6575b50680ebc5fb4174612111080821215615daf575b506808f00f760a4b2db55d80821215615d8f575b506806f5f177578893793780821215615d6f575b506806248f33704b28660380821215615d50575b506805c548670b9510e7ac80821215615d31575b50615cde68056bc75e2d6310000091828082019168056bc75e2d630fffff190102615749565b9080828002059181838202058284820205916003600560076009600b888a89020598808b8b02059a8b0205059805960594059205010101010160011b0105905f14615d2c575f035b0261584b565b615d26565b68056bc75e2d631000006756bc75e2d63100009202059101905f615cb8565b68056bc75e2d6310000067ad78ebc5ac6200009202059101905f615ca4565b68056bc75e2d6310000068015af1d78b58c400009202059101905f615c90565b68056bc75e2d631000006802b5e3af16b18800009202059101905f615c7c565b68056bc75e2d63100000809202059101905f615c68565b68056bc75e2d63100000680ad78ebc5ac62000009202059101905f615c54565b68056bc75e2d631000006815af1d78b58c4000009202059101905f615c40565b68056bc75e2d63100000682b5e3af16b188000009202059101905f615c2b565b68056bc75e2d631000006856bc75e2d6310000009202059101905f615c16565b68ad78ebc5ac62000000925069021e19e0c9bab240000002059101905f80615bfe565b906b1425982cf597cd205cef73806803782dace9d900000091059101615bdd565b50770195e54c5dd42177f53a27172fa9ec63026282700000000090056806f05b59d3b2000000615bc0565b9050615ec1915061572f565b6001906064615b93565b50670f43fc2c04ee00008212615799565b63d831731160e01b5f5260045ffd5b6211380f60e51b5f5260045ffd5b50505f90565b5050670de0b6b3a764000090565b91909180600314615f585780600114615f4457600214615f3b57634e487b7160e01b5f52605160045260245ffd5b61373b91614d4c565b50614dff90670de0b6b3a764000092613af6565b50670de0b6b3a7640000918281029281840414901517156104f75761373b91613ea556fea2646970667358221220095b780aab6b999071d297ef4af70d26fa4ca3950d593d9fcbab2e4ec1d7413564736f6c634300081b0033c2575a0e9e593c00f959f8c92f12db2869c3395a3b0502d05e2516446f71f85b",
  "linkReferences": {},
  "deployedLinkReferences": {}
}