{
  "_format": "hh-sol-artifact-1",
  "contractName": "ReClammPoolFactory",
  "sourceName": "contracts/ReClammPoolFactory.sol",
  "abi": [
    {
      "inputs": [
        {
          "internalType": "contract IVault",
          "name": "vault",
          "type": "address"
        },
        {
          "internalType": "uint32",
          "name": "pauseWindowDuration",
          "type": "uint32"
        },
        {
          "internalType": "string",
          "name": "factoryVersion",
          "type": "string"
        },
        {
          "internalType": "string",
          "name": "poolVersion",
          "type": "string"
        }
      ],
      "stateMutability": "nonpayable",
      "type": "constructor"
    },
    {
      "inputs": [],
      "name": "CodeDeploymentFailed",
      "type": "error"
    },
    {
      "inputs": [],
      "name": "Create2EmptyBytecode",
      "type": "error"
    },
    {
      "inputs": [],
      "name": "Disabled",
      "type": "error"
    },
    {
      "inputs": [],
      "name": "FailedDeployment",
      "type": "error"
    },
    {
      "inputs": [],
      "name": "IndexOutOfBounds",
      "type": "error"
    },
    {
      "inputs": [
        {
          "internalType": "uint256",
          "name": "balance",
          "type": "uint256"
        },
        {
          "internalType": "uint256",
          "name": "needed",
          "type": "uint256"
        }
      ],
      "name": "InsufficientBalance",
      "type": "error"
    },
    {
      "inputs": [],
      "name": "MaxTokens",
      "type": "error"
    },
    {
      "inputs": [],
      "name": "PoolPauseWindowDurationOverflow",
      "type": "error"
    },
    {
      "inputs": [],
      "name": "SenderNotAllowed",
      "type": "error"
    },
    {
      "inputs": [],
      "name": "StandardPoolWithCreator",
      "type": "error"
    },
    {
      "inputs": [],
      "name": "VaultNotSet",
      "type": "error"
    },
    {
      "anonymous": false,
      "inputs": [],
      "name": "FactoryDisabled",
      "type": "event"
    },
    {
      "anonymous": false,
      "inputs": [
        {
          "indexed": true,
          "internalType": "address",
          "name": "pool",
          "type": "address"
        }
      ],
      "name": "PoolCreated",
      "type": "event"
    },
    {
      "inputs": [
        {
          "internalType": "string",
          "name": "name",
          "type": "string"
        },
        {
          "internalType": "string",
          "name": "symbol",
          "type": "string"
        },
        {
          "components": [
            {
              "internalType": "contract IERC20",
              "name": "token",
              "type": "address"
            },
            {
              "internalType": "enum TokenType",
              "name": "tokenType",
              "type": "uint8"
            },
            {
              "internalType": "contract IRateProvider",
              "name": "rateProvider",
              "type": "address"
            },
            {
              "internalType": "bool",
              "name": "paysYieldFees",
              "type": "bool"
            }
          ],
          "internalType": "struct TokenConfig[]",
          "name": "tokens",
          "type": "tuple[]"
        },
        {
          "components": [
            {
              "internalType": "address",
              "name": "pauseManager",
              "type": "address"
            },
            {
              "internalType": "address",
              "name": "swapFeeManager",
              "type": "address"
            },
            {
              "internalType": "address",
              "name": "poolCreator",
              "type": "address"
            }
          ],
          "internalType": "struct PoolRoleAccounts",
          "name": "roleAccounts",
          "type": "tuple"
        },
        {
          "internalType": "uint256",
          "name": "swapFeePercentage",
          "type": "uint256"
        },
        {
          "internalType": "uint256",
          "name": "initialMinPrice",
          "type": "uint256"
        },
        {
          "internalType": "uint256",
          "name": "initialMaxPrice",
          "type": "uint256"
        },
        {
          "internalType": "uint256",
          "name": "initialTargetPrice",
          "type": "uint256"
        },
        {
          "internalType": "uint256",
          "name": "dailyPriceShiftExponent",
          "type": "uint256"
        },
        {
          "internalType": "uint64",
          "name": "centerednessMargin",
          "type": "uint64"
        },
        {
          "internalType": "bytes32",
          "name": "salt",
          "type": "bytes32"
        }
      ],
      "name": "create",
      "outputs": [
        {
          "internalType": "address",
          "name": "pool",
          "type": "address"
        }
      ],
      "stateMutability": "nonpayable",
      "type": "function"
    },
    {
      "inputs": [],
      "name": "disable",
      "outputs": [],
      "stateMutability": "nonpayable",
      "type": "function"
    },
    {
      "inputs": [
        {
          "internalType": "bytes4",
          "name": "selector",
          "type": "bytes4"
        }
      ],
      "name": "getActionId",
      "outputs": [
        {
          "internalType": "bytes32",
          "name": "",
          "type": "bytes32"
        }
      ],
      "stateMutability": "view",
      "type": "function"
    },
    {
      "inputs": [],
      "name": "getAuthorizer",
      "outputs": [
        {
          "internalType": "contract IAuthorizer",
          "name": "",
          "type": "address"
        }
      ],
      "stateMutability": "view",
      "type": "function"
    },
    {
      "inputs": [],
      "name": "getCreationCode",
      "outputs": [
        {
          "internalType": "bytes",
          "name": "",
          "type": "bytes"
        }
      ],
      "stateMutability": "view",
      "type": "function"
    },
    {
      "inputs": [],
      "name": "getCreationCodeContracts",
      "outputs": [
        {
          "internalType": "address",
          "name": "contractA",
          "type": "address"
        },
        {
          "internalType": "address",
          "name": "contractB",
          "type": "address"
        }
      ],
      "stateMutability": "view",
      "type": "function"
    },
    {
      "inputs": [],
      "name": "getDefaultLiquidityManagement",
      "outputs": [
        {
          "components": [
            {
              "internalType": "bool",
              "name": "disableUnbalancedLiquidity",
              "type": "bool"
            },
            {
              "internalType": "bool",
              "name": "enableAddLiquidityCustom",
              "type": "bool"
            },
            {
              "internalType": "bool",
              "name": "enableRemoveLiquidityCustom",
              "type": "bool"
            },
            {
              "internalType": "bool",
              "name": "enableDonation",
              "type": "bool"
            }
          ],
          "internalType": "struct LiquidityManagement",
          "name": "liquidityManagement",
          "type": "tuple"
        }
      ],
      "stateMutability": "pure",
      "type": "function"
    },
    {
      "inputs": [],
      "name": "getDefaultPoolHooksContract",
      "outputs": [
        {
          "internalType": "address",
          "name": "",
          "type": "address"
        }
      ],
      "stateMutability": "pure",
      "type": "function"
    },
    {
      "inputs": [
        {
          "internalType": "bytes",
          "name": "constructorArgs",
          "type": "bytes"
        },
        {
          "internalType": "bytes32",
          "name": "salt",
          "type": "bytes32"
        }
      ],
      "name": "getDeploymentAddress",
      "outputs": [
        {
          "internalType": "address",
          "name": "",
          "type": "address"
        }
      ],
      "stateMutability": "view",
      "type": "function"
    },
    {
      "inputs": [],
      "name": "getNewPoolPauseWindowEndTime",
      "outputs": [
        {
          "internalType": "uint32",
          "name": "",
          "type": "uint32"
        }
      ],
      "stateMutability": "view",
      "type": "function"
    },
    {
      "inputs": [],
      "name": "getOriginalPauseWindowEndTime",
      "outputs": [
        {
          "internalType": "uint32",
          "name": "",
          "type": "uint32"
        }
      ],
      "stateMutability": "view",
      "type": "function"
    },
    {
      "inputs": [],
      "name": "getPauseWindowDuration",
      "outputs": [
        {
          "internalType": "uint32",
          "name": "",
          "type": "uint32"
        }
      ],
      "stateMutability": "view",
      "type": "function"
    },
    {
      "inputs": [],
      "name": "getPoolCount",
      "outputs": [
        {
          "internalType": "uint256",
          "name": "",
          "type": "uint256"
        }
      ],
      "stateMutability": "view",
      "type": "function"
    },
    {
      "inputs": [],
      "name": "getPoolVersion",
      "outputs": [
        {
          "internalType": "string",
          "name": "",
          "type": "string"
        }
      ],
      "stateMutability": "view",
      "type": "function"
    },
    {
      "inputs": [],
      "name": "getPools",
      "outputs": [
        {
          "internalType": "address[]",
          "name": "",
          "type": "address[]"
        }
      ],
      "stateMutability": "view",
      "type": "function"
    },
    {
      "inputs": [
        {
          "internalType": "uint256",
          "name": "start",
          "type": "uint256"
        },
        {
          "internalType": "uint256",
          "name": "count",
          "type": "uint256"
        }
      ],
      "name": "getPoolsInRange",
      "outputs": [
        {
          "internalType": "address[]",
          "name": "pools",
          "type": "address[]"
        }
      ],
      "stateMutability": "view",
      "type": "function"
    },
    {
      "inputs": [],
      "name": "getVault",
      "outputs": [
        {
          "internalType": "contract IVault",
          "name": "",
          "type": "address"
        }
      ],
      "stateMutability": "view",
      "type": "function"
    },
    {
      "inputs": [],
      "name": "isDisabled",
      "outputs": [
        {
          "internalType": "bool",
          "name": "",
          "type": "bool"
        }
      ],
      "stateMutability": "view",
      "type": "function"
    },
    {
      "inputs": [
        {
          "internalType": "address",
          "name": "pool",
          "type": "address"
        }
      ],
      "name": "isPoolFromFactory",
      "outputs": [
        {
          "internalType": "bool",
          "name": "",
          "type": "bool"
        }
      ],
      "stateMutability": "view",
      "type": "function"
    },
    {
      "inputs": [],
      "name": "version",
      "outputs": [
        {
          "internalType": "string",
          "name": "",
          "type": "string"
        }
      ],
      "stateMutability": "view",
      "type": "function"
    }
  ],
  "bytecode": "0x610180604052346100aa5761001e61001561013d565b92919091610385565b60405161186d90816105e38239608051818181610211015261141f015260a051816113a9015260c0518181816102350152611444015260e051816113ca0152610100518161130401526101205181818161032e01528181610d0b01528181610d9f0152818161118f015261161901526101405181610c6b015261016051818181610e4001526113710152f35b5f80fd5b634e487b7160e01b5f52604160045260245ffd5b6040519190601f01601f191682016001600160401b038111838210176100e757604052565b6100ae565b81601f820112156100aa578051906001600160401b0382116100e75761011b601f8301601f19166020016100c2565b92828452602083830101116100aa57815f9260208093018386015e8301015290565b618faa908138038061014e816100c2565b9384398201906080838303126100aa578251906001600160a01b03821682036100aa5760208401519363ffffffff851685036100aa5760408101516001600160401b0394908581116100aa57816101a69184016100ec565b9460608301519081116100aa576101bd92016100ec565b9193929190565b90600182811c921680156101f2575b60208310146101de57565b634e487b7160e01b5f52602260045260245ffd5b91607f16916101d3565b601f8111610208575050565b60035f5260205f20906020601f840160051c83019310610242575b601f0160051c01905b818110610237575050565b5f815560010161022c565b9091508190610223565b601f8111610258575050565b60045f5260205f20906020601f840160051c83019310610292575b601f0160051c01905b818110610287575050565b5f815560010161027c565b9091508190610273565b80519091906001600160401b0381116100e7576102c3816102be6004546101c4565b61024c565b602080601f8311600114610304575081906102f493945f926102f9575b50508160011b915f199060031b1c19161790565b600455565b015190505f806102e0565b60045f52601f198316949091907f8a35acfbc15ff81a39ae7d344fd709f28e8600b4aa8c65c6b64bfe7fe36bd19b925f905b87821061036d575050836001959610610355575b505050811b01600455565b01515f1960f88460031b161c191690555f808061034a565b80600185968294968601518155019501930190610336565b92919261715a610397602082016100c2565b90808252611e5060208301398051908160011c918260a05282810392818411610450578360e0528083526103ca83610553565b60805282019182519383526103de836105a2565b60c052525230610100526001600160a01b03811615610441576101205263ffffffff9261040d84831642610464565b93808511610432576104309461042b93610140521661016052610476565b61029c565b565b6368755a1160e01b5f5260045ffd5b630647140b60e51b5f5260045ffd5b634e487b7160e01b5f52601160045260245ffd5b9190820180921161047157565b610450565b80519091906001600160401b0381116100e75761049d816104986003546101c4565b6101fc565b602080601f83116001146104d2575081906104cd93945f926102f95750508160011b915f199060031b1c19161790565b600355565b60035f52601f198316949091907fc2575a0e9e593c00f959f8c92f12db2869c3395a3b0502d05e2516446f71f85b925f905b87821061053b575050836001959610610523575b505050811b01600355565b01515f1960f88460031b161c191690555f8080610518565b80600185968294968601518155019501930190610504565b9081517f602038038060206000396000f3fefefefefefefefefefefefefefefefefefefe835260208101835ff092526001600160a01b0382161561059357565b63fef8220760e01b5f5260045ffd5b9081517f60fe600053602038038060206001396001016000f3fefefefefefefefefefefe835260208101835ff092526001600160a01b038216156105935756fe60806040526004361015610011575f80fd5b5f3560e01c8062c194db14610153578063174481fa1461014e578063193ad50f146101495780632f2770db146101445780633f819b6f1461013f57806344f6fec71461013a5780634e40aca91461013557806353a72f7e1461013057806354fd4d501461012b5780636634b75314610126578063673a2a1f146101215780636c57f5a91461011c57806378da80cb14610117578063851c1bb3146101125780638d928af81461010d5780638eec5d7014610108578063aaabadc514610103578063db035ebc146100fe578063e9d56e19146100f95763ec888061146100f4575f80fd5b610e64565b610e24565b610dfc565b610d4c565b610d2f565b610cdf565b610c8f565b610c4f565b610c2d565b610b92565b610b45565b610a0d565b6108ee565b6107d7565b610570565b61046e565b6102ab565b61025c565b6101e5565b61018b565b5f91031261016257565b5f80fd5b90601f19601f602080948051918291828752018686015e5f8582860101520116010190565b34610162575f600319360112610162576040516020810181811067ffffffffffffffff8211176101e0576101dc916101c8916040525f81526113a6565b604051918291602083526020830190610166565b0390f35b610489565b34610162575f600319360112610162576040805173ffffffffffffffffffffffffffffffffffffffff807f00000000000000000000000000000000000000000000000000000000000000001682527f0000000000000000000000000000000000000000000000000000000000000000166020820152f35b34610162575f600319360112610162576080610276610e7e565b6102a960405180926060809180511515845260208101511515602085015260408101511515604085015201511515910152565bf35b34610162575f600319360112610162576102e77fffffffff000000000000000000000000000000000000000000000000000000005f35166112d9565b73ffffffffffffffffffffffffffffffffffffffff604051917faaabadc50000000000000000000000000000000000000000000000000000000083526020928381600481867f0000000000000000000000000000000000000000000000000000000000000000165afa80156104265784926103ad925f9261042b575b506040517f9be2a884000000000000000000000000000000000000000000000000000000008152600481019190915233602482015230604482015293849283919082906064820190565b0392165afa918215610426575f926103f9575b5050156103d1576103cf610ea2565b005b7f23dada53000000000000000000000000000000000000000000000000000000005f5260045ffd5b6104189250803d1061041f575b61041081836104e6565b810190611822565b5f806103c0565b503d610406565b611364565b61044c919250843d8611610453575b61044481836104e6565b81019061134f565b905f610363565b503d61043a565b90602061046b928181520190610166565b90565b34610162575f600319360112610162576101dc6101c8610efb565b7f4e487b71000000000000000000000000000000000000000000000000000000005f52604160045260245ffd5b6080810190811067ffffffffffffffff8211176101e057604052565b67ffffffffffffffff81116101e057604052565b90601f601f19910116810190811067ffffffffffffffff8211176101e057604052565b60405190610100820182811067ffffffffffffffff8211176101e057604052565b92919267ffffffffffffffff82116101e057604051916105546020601f19601f84011601846104e6565b829481845281830111610162578281602093845f960137010152565b346101625760406003193601126101625760043567ffffffffffffffff811161016257366023820112156101625773ffffffffffffffffffffffffffffffffffffffff6055600b6105ce6101dc94369060248160040135910161052a565b6105e26105dc6024356114a0565b916113a6565b602081519101209060405191604083015260208201523081520160ff815320166040519182918291909173ffffffffffffffffffffffffffffffffffffffff6020820193169052565b9080601f830112156101625781602061046b9335910161052a565b67ffffffffffffffff81116101e05760051b60200190565b73ffffffffffffffffffffffffffffffffffffffff81160361016257565b8015150361016257565b9080601f830112156101625781359160206106a084610646565b936040936106b160405196876104e6565b818652828087019260071b85010193818511610162578301915b8483106106db5750505050505090565b608083830312610162578551906106f1826104b6565b83356106fc8161065e565b82528484013590600282101561016257828692836080950152888601356107228161065e565b89820152606080870135906107368261067c565b8201528152019201916106cb565b7fffffffffffffffffffffffffffffffffffffffffffffffffffffffffffffff9c606091011261016257604051906060820182811067ffffffffffffffff8211176101e057604052816064356107998161065e565b81526084356107a78161065e565b6020820152604060a435916107bb8361065e565b0152565b610164359067ffffffffffffffff8216820361016257565b34610162576101a06003193601126101625767ffffffffffffffff6004358181116101625761080a90369060040161062b565b906024358181116101625761082390369060040161062b565b604435918211610162576101dc92610842610876933690600401610686565b9061084c36610744565b6108546107bf565b92610184359461014435936101243593610104359360e4359360c435936110c8565b60405173ffffffffffffffffffffffffffffffffffffffff90911681529081906020820190565b60209060206040818301928281528551809452019301915f5b8281106108c4575050505090565b835173ffffffffffffffffffffffffffffffffffffffff16855293810193928101926001016108b6565b346101625760406003193601126101625760043560243590600191600154808310156109e5578183018084116109e05781106109cf575b5061092f81610646565b9161093d60405193846104e6565b818352601f1961094c83610646565b013660208501375f5b82811061096a57604051806101dc868261089d565b806109c96109a461098461097f899587611251565b61128b565b905473ffffffffffffffffffffffffffffffffffffffff9160031b1c1690565b6109ae83886112c5565b9073ffffffffffffffffffffffffffffffffffffffff169052565b01610955565b828103915081116109e0575f610925565b611224565b7f4e23d035000000000000000000000000000000000000000000000000000000005f5260045ffd5b34610162575f600319360112610162576040515f60035460018160011c9160018116918215610b3b575b602091602085108414610b0e578487526020870193908115610ad15750600114610a78575b6101dc86610a6c818803826104e6565b6040519182918261045a565b60035f90815294509192917fc2575a0e9e593c00f959f8c92f12db2869c3395a3b0502d05e2516446f71f85b5b838610610ac05750505091019050610a6c826101dc5f610a5c565b805485870152948201948101610aa5565b7fffffffffffffffffffffffffffffffffffffffffffffffffffffffffffffff0016845250505090151560051b019050610a6c826101dc5f610a5c565b7f4e487b71000000000000000000000000000000000000000000000000000000005f52602260045260245ffd5b92607f1692610a37565b346101625760206003193601126101625773ffffffffffffffffffffffffffffffffffffffff600435610b778161065e565b165f525f602052602060ff60405f2054166040519015158152f35b34610162575f60031936011261016257604051806001916001549283825260208092019360015f527fb10e2d527612073b26eecdfd717e6a320cf44b4afac2b0732d9fcbe2b7fa0cf6925f905b828210610c02576101dc86610bf6818a03826104e6565b6040519182918261089d565b845473ffffffffffffffffffffffffffffffffffffffff168752958601959383019390830190610bdf565b34610162575f60031936011261016257602060ff600254166040519015158152f35b34610162575f60031936011261016257602060405163ffffffff7f0000000000000000000000000000000000000000000000000000000000000000168152f35b34610162576020600319360112610162576004357fffffffff000000000000000000000000000000000000000000000000000000008116810361016257610cd76020916112d9565b604051908152f35b34610162575f60031936011261016257602060405173ffffffffffffffffffffffffffffffffffffffff7f0000000000000000000000000000000000000000000000000000000000000000168152f35b34610162575f600319360112610162576020600154604051908152f35b34610162575f600319360112610162576040517faaabadc500000000000000000000000000000000000000000000000000000000815273ffffffffffffffffffffffffffffffffffffffff6020826004817f000000000000000000000000000000000000000000000000000000000000000085165afa908115610426576020925f92610ddd575b5060405191168152f35b610df5919250833d85116104535761044481836104e6565b905f610dd3565b34610162575f600319360112610162576020610e1661136f565b63ffffffff60405191168152f35b34610162575f60031936011261016257602060405163ffffffff7f0000000000000000000000000000000000000000000000000000000000000000168152f35b34610162575f6003193601126101625760206040515f8152f35b60405190610e8b826104b6565b5f6060838281528260208201528260408201520152565b610eaa61146c565b60017fffffffffffffffffffffffffffffffffffffffffffffffffffffffffffffff0060025416176002557f432acbfd662dbb5d8b378384a67159b47ca9d0f1b79f97cf64cf8585fa362d505f80a1565b604051905f6004546001918160011c9260018316908115610fed575b602090602086108314610b0e5785885287946020860193908115610faf5750600114610f4f575b505050610f4d925003836104e6565b565b925093610f7d60045f527f8a35acfbc15ff81a39ae7d344fd709f28e8600b4aa8c65c6b64bfe7fe36bd19b90565b945f935b828510610f9957505050610f4d9350015f8080610f3e565b8654858501529586019588955093810193610f81565b915050610f4d959293507fffffffffffffffffffffffffffffffffffffffffffffffffffffffffffffff009150168252151560051b015f8080610f3e565b93607f1693610f17565b92916020610f4d926040865260e0815191611072611023610100948560408c01526101408b0190610166565b61105d86840151917fffffffffffffffffffffffffffffffffffffffffffffffffffffffffffffffc0928c60608582850301910152610166565b906040840151908b83030160808c0152610166565b606082015160a08a0152608082015167ffffffffffffffff1660c08a01529260a0820151838a015260c082015190890152015161012087015294019073ffffffffffffffffffffffffffffffffffffffff169052565b90949791969a99939a9892959873ffffffffffffffffffffffffffffffffffffffff61110b604089015173ffffffffffffffffffffffffffffffffffffffff1690565b166111fc5760028851116111d457610f4d99611145996111786111b8966111c6966111cb9a611138610e7e565b5f6060820152600181529e565b61114d610509565b978852602088015261115d610efb565b6040880152606087015267ffffffffffffffff166080860152565b60a084015260c083015260e08201526040519283917f00000000000000000000000000000000000000000000000000000000000000009060208401610ff7565b03601f1981018352826104e6565b6114c9565b958692836115fa565b7f707bdf58000000000000000000000000000000000000000000000000000000005f5260045ffd5b7f61ee1764000000000000000000000000000000000000000000000000000000005f5260045ffd5b7f4e487b71000000000000000000000000000000000000000000000000000000005f52601160045260245ffd5b919082018092116109e057565b7f4e487b71000000000000000000000000000000000000000000000000000000005f52603260045260245ffd5b6001548110156112c05760015f527fb10e2d527612073b26eecdfd717e6a320cf44b4afac2b0732d9fcbe2b7fa0cf601905f90565b61125e565b80518210156112c05760209160051b010190565b6040517fffffffff0000000000000000000000000000000000000000000000000000000060208201927f00000000000000000000000000000000000000000000000000000000000000008452166040820152602481526060810181811067ffffffffffffffff8211176101e05760405251902090565b90816020910312610162575161046b8161065e565b6040513d5f823e3d90fd5b7f000000000000000000000000000000000000000000000000000000000000000063ffffffff81164210156113a15790565b505f90565b907f00000000000000000000000000000000000000000000000000000000000000007f0000000000000000000000000000000000000000000000000000000000000000808201908183116109e057845192838301958684116109e05760209260018480946040519a82818d01016040528b52805f838d017f00000000000000000000000000000000000000000000000000000000000000003c8a01017f00000000000000000000000000000000000000000000000000000000000000003c01918501015e565b60ff6002541661147857565b7f75884cda000000000000000000000000000000000000000000000000000000005f5260045ffd5b60405160208101913383524660408301526060820152606081526114c3816104b6565b51902090565b906105dc6114d6916114a0565b8051156115d2576020815191015ff5903d15198215166113645773ffffffffffffffffffffffffffffffffffffffff918281169081156115aa579261151961146c565b815f525f60205260405f2060017fffffffffffffffffffffffffffffffffffffffffffffffffffffffffffffff00825416179055600154680100000000000000008110156101e057806001611571920160015561128b565b819291549060031b9184831b921b19161790557f83a48fbcfc991335314e74d0496aab6a1987e992ddc85dddbcc4d6dd6ef2e9fc5f80a2565b7fb06ebf3d000000000000000000000000000000000000000000000000000000005f5260045ffd5b7f4ca249dc000000000000000000000000000000000000000000000000000000005f5260045ffd5b92949193909473ffffffffffffffffffffffffffffffffffffffff93847f0000000000000000000000000000000000000000000000000000000000000000169561164261136f565b91873b156101625797959493929190604095604051998a987feeec802f000000000000000000000000000000000000000000000000000000008a526004836101a48c01931660048c015260246101a060248d015282518094526101c48c019a6020809401955f935b86851061179857505050505050505086946117425f9997939561172488966116e58d996117749760448b015260648a019063ffffffff169052565b88608489015260a48801906040908173ffffffffffffffffffffffffffffffffffffffff91828151168552826020820151166020860152015116910152565b73ffffffffffffffffffffffffffffffffffffffff16610104860152565b805115156101248501526020810151151561014485015260408101511515610164850152606001511515610184840152565b03925af18015610426576117855750565b80611792610f4d926104d2565b80610158565b9193959798999a9b9c90929496809e50518381511682528781015160028110156117f75782899260809284600196015286888201511688830152606080910151151590820152019e0195019290918f9d9c9b9a999897959694926116aa565b866021857f4e487b71000000000000000000000000000000000000000000000000000000005f52525ffd5b90816020910312610162575161046b8161067c56fea2646970667358221220d003b6f1d9513ffa369643c823b8cadbfe2ba95ce1f01ce6154b91e1a04b11a064736f6c634300081b00336102a0806040523461083f5761715a803803809161001d8285610843565b8339810160408282031261083f5781516001600160401b03811161083f578201916101008383031261083f576040519261010084016001600160401b038111858210176107535760405280516001600160401b03811161083f5783610083918301610866565b845260208101516001600160401b03811161083f57836100a4918301610866565b60208501908152604082015190936001600160401b03821161083f576100cb918301610866565b9182604086015260608201516060860152608082015160018060401b038116810361083f5760209260e091608088015260a081015160a088015260c081015160c0880152015160e086015201519260018060a01b038416840361083f5780519251926040519485604081011060018060401b0360408801111761075357604086016040526001908187526020870195603160f81b875261016a846108bb565b9761012098895261017a81610a3e565b9761014098895285516020870120918260e05251902080610100524660a0526040519060208201927f8b73c3c69bb8fe3d512ecc4cf759cc79239f7b179b0ffacaa9a75d522b39400f8452604083015260608201524660808201523060a082015260a0815260c0810181811060018060401b03821117610753576040525190206080523060c0526101608281528451909690936001600160401b038511610753576003948554968288811c98168015610835575b6020891014610821578190601f988981116107d1575b50602090898311600114610772575f92610767575b50505f1982881b1c191690821b1785555b82516001600160401b0381116107535760049384548381811c91168015610749575b6020821014610736579081898493116106e6575b50602090898311600114610687575f9261067c575b50505f1982881b1c191690821b1783555b610180848152336101a0908152909690956001600160a01b0386161561066e576101c09586528351916001600160401b03831161065b5760059485548581811c91168015610651575b602082101461063e578281116105fb575b506020918411600114610598579383949184925f9561058d575b50501b925f19911b1c19161790555b60a0850151158015610581575b610573575060a08401519061020091825260c08501519261022093845260e086015194610240958652606087015196610260978852608060018060401b039101511697610280988952604051996165e59b8c610b758d396080518c614d7c015260a0518c614e48015260c0518c614d4d015260e0518c614dcb0152610100518c614df10152518b6115e20152518a61160b0152518981816104da015281816107910152818161097f01528181610ad201528181610bbd01528181610d11015281816111a701528181611561015281816116df015281816119dc01528181611ff801528181612309015281816124020152818161260e0152818161286a015281816128d80152818161294a01528181612a9b01528181612d770152818161351a015281816139c701528181613f7001528181614040015281816142c301528181614561015281816147b60152818161498e01528181614b0b01528181614c59015261502b0152518881816108e101528181610ece01528181610f88015281816110c001526118d401525187613eed01525186818161033701528181610a5b015281816134a3015261418101526101e0518650505185818161180601528181611a8e01528181612e5f0152614f0201525184818161182701528181611ab401528181612e800152614ee1015251838181611ada01528181612ea20152614ec0015251828181611b000152613029015251818181611b2601526130530152f35b6359e6ae3360e11b5f908152fd5b5060e085015115610356565b015193505f8061033a565b9190601f19841692865f528460205f20945f5b888282106105e2575050106105c9575b50505050811b019055610349565b01519060f8845f19921b161c191690555f8080806105bb565b84860151885590960195602094850194889350016105ab565b865f5260205f2083808701891c82019260208810610635575b01881c019086905b82811061062a575050610320565b5f815501869061061c565b92508192610614565b602288634e487b7160e01b5f525260245ffd5b90607f169061030f565b604186634e487b7160e01b5f525260245ffd5b84630647140b60e51b5f525ffd5b015190505f806102b5565b90849350601f19831691875f5260205f20925f5b8181106106ce575084116106b7575b505050811b0183556102c6565b01515f19838a1b60f8161c191690555f80806106aa565b8284015185558796909401936020938401930161069b565b909150855f5260205f208980850160051c8201926020861061072d575b918691869594930160051c01915b82811061071f5750506102a0565b5f8155859450869101610711565b92508192610703565b602286634e487b7160e01b5f525260245ffd5b90607f169061028c565b634e487b7160e01b5f52604160045260245ffd5b015190505f80610259565b90849350601f19831691895f5260205f20925f5b8181106107b9575084116107a2575b505050811b01855561026a565b01515f19838a1b60f8161c191690555f8080610795565b82840151855587969094019360209384019301610786565b909150875f5260205f208980850160051c82019260208610610818575b918691869594930160051c01915b82811061080a575050610244565b5f81558594508691016107fc565b925081926107ee565b634e487b7160e01b5f52602260045260245ffd5b97607f169761022e565b5f80fd5b601f909101601f19168101906001600160401b0382119082101761075357604052565b81601f8201121561083f578051906001600160401b038211610753576040519261089a601f8401601f191660200185610843565b8284526020838301011161083f57815f9260208093018386015e8301015290565b8051602090818110156109315750601f8251116108f357808251920151908083106108e557501790565b825f19910360031b1b161790565b60448260405192839163305a27a960e01b83528160048401528051918291826024860152018484015e5f828201840152601f01601f19168101030190fd5b906001600160401b038211610753575f54926001938481811c91168015610a34575b8382101461082157601f8111610a01575b5081601f841160011461099f57509282939183925f94610994575b50501b915f199060031b1c1916175f5560ff90565b015192505f8061097f565b919083601f1981165f8052845f20945f905b888383106109e757505050106109cf575b505050811b015f5560ff90565b01515f1960f88460031b161c191690555f80806109c2565b8587015188559096019594850194879350908101906109b1565b5f805284601f845f20920160051c820191601f860160051c015b828110610a29575050610964565b5f8155018590610a1b565b90607f1690610953565b805160209081811015610a685750601f8251116108f357808251920151908083106108e557501790565b9192916001600160401b0381116107535760019182548381811c91168015610b6a575b8282101461082157601f8111610b37575b5080601f8311600114610ad75750819293945f92610acc575b50505f19600383901b1c191690821b17905560ff90565b015190505f80610ab5565b90601f19831695845f52825f20925f905b888210610b205750508385969710610b08575b505050811b01905560ff90565b01515f1960f88460031b161c191690555f8080610afb565b808785968294968601518155019501930190610ae8565b835f5283601f835f20920160051c820191601f850160051c015b828110610b5f575050610a9c565b5f8155018490610b51565b90607f1690610a8b56fe6080806040526004361015610012575f80fd5b5f3560e01c90816301ffc9a714613582575080630673d09a1461343e57806306fdde0314613395578063095ea7b3146133255780630b89f182146131be578063105ae7ad1461318757806316a0b3e01461312d57806318160ddd1461311357806318b6eb55146130d35780631c149e2814612e095780631d8a5e7e14612ddf578063215666a814612dae57806323b872dd14612d1357806323de665114612ce2578063273c1adf14610e7e5780632754888d14612c795780632c3576881461279957806330adf81f1461275f578063313ce567146127445780633644e5151461272a578063378997701461270757806338be241d146126bc57806345421ec714612542578063478fe477146123a95780634efd88c9146123785780634f149b3f146122be5780635211fa771461227b57806354fd4d50146121d25780635687f2b81461217e578063569ee3501461215c578063627cdcb914612133578063654cf15d14612111578063679aefce146120d95780636bd838c71461205e57806370a0823114611f9857806372c9818614611cc95780637ecebe0014611c915780637f118b901461194b57806381fa807c1461188557806384254cf9146116c557806384b0196e146115cd578063851c1bb3146115855780638d928af81461154257806395d89b4114611446578063976907cc1461138e578063984de9e814611260578063a0e8f5ac14611218578063a9059cbb1461112a578063aa6ca80814611075578063abb1dc4414610f3c578063b156aa0a14610e83578063b677fa5614610e7e578063ba5f9f4014610c45578063c480b9e614610b72578063c66dbc4b146109fe578063cd80a1af14610934578063ce20ece71461091a578063d335b0cf14610895578063d48ef3771461087b578063d505accf14610604578063d77153a714610547578063dd62ed3e1461046a578063dfba3818146104465763e66f2ef0146102dc575f80fd5b34610442576060600319360112610442576044356024356102fb613f34565b6040517fe9ddeb260000000000000000000000000000000000000000000000000000000081523060048201526001600160a01b036060826024817f000000000000000000000000000000000000000000000000000000000000000085165afa91821561043757610379926020915f91610408575b5001511630614110565b8042118142180218818110156103da576154606103968284613f27565b106103b2576103aa60209282600435614631565b604051908152f35b7f33f1d0aa000000000000000000000000000000000000000000000000000000005f5260045ffd5b7f7d0356f3000000000000000000000000000000000000000000000000000000005f5260045260245260445ffd5b61042a915060603d606011610430575b61042281836136d4565b8101906138e7565b5f61036f565b503d610418565b6040513d5f823e3d90fd5b5f80fd5b34610442575f600319360112610442576020610460614ff0565b6040519015158152f35b346104425760406003193601126104425761048361360f565b602061048d613625565b9160646001600160a01b0391828060405196879586947f927da1050000000000000000000000000000000000000000000000000000000086523060048701521660248501521660448301527f0000000000000000000000000000000000000000000000000000000000000000165afa8015610437575f90610514575b602090604051908152f35b506020813d60201161053f575b8161052e602093836136d4565b810103126104425760209051610509565b3d9150610521565b34610442575f600319360112610442576101406040516105668161366b565b5f81526020810190604081015f8152606082015f815260808301905f825260a084015f815260c0850160e08601915f83526101009485880194610120809901975f895260018b5260018552600187526040519a5f8c5251151560208c015251151560408b015251151560608a0152511515608089015251151560a088015251151560c087015251151560e08601525115159084015251151590820152f35b346104425760e06003193601126104425761061d61360f565b610625613625565b90604435916064359160843560ff811681036104425783421161084f57610666826001600160a01b03165f52600260205260405f2080549060018201905590565b9060405160208101917f6e71edae12b1b97f4d1f60370fef10105fa2faae0126114a169c64845d6126c983526001600160a01b039687861694856040850152888816606085015289608085015260a084015260c083015260c0825260e082019082821067ffffffffffffffff83111761082257879361073c93610733936040525190206106f1614d43565b90604051917f190100000000000000000000000000000000000000000000000000000000000083526002830152602282015260c43591604260a43592206159e2565b90929192615a64565b168181036107f4576040517fe1f21c670000000000000000000000000000000000000000000000000000000081526001600160a01b03848116600483015285166024820152604481018790526020816064815f7f00000000000000000000000000000000000000000000000000000000000000008b165af18015610437576107c057005b6020813d6020116107ec575b816107d9602093836136d4565b81010312610442576107ea9061397e565b005b3d91506107cc565b7f4b800e46000000000000000000000000000000000000000000000000000000005f5260045260245260445ffd5b7f4e487b71000000000000000000000000000000000000000000000000000000005f52604160045260245ffd5b837f62791302000000000000000000000000000000000000000000000000000000005f5260045260245ffd5b34610442575f6003193601126104425760206103aa614eb8565b34610442575f600319360112610442576040517fb45090f90000000000000000000000000000000000000000000000000000000081523060048201526020816024816001600160a01b037f0000000000000000000000000000000000000000000000000000000000000000165afa8015610437575f9061051457602090604051908152f35b34610442575f6003193601126104425760206040515f8152f35b34610442575f600319360112610442576040517f67e0e0760000000000000000000000000000000000000000000000000000000081523060048201525f816024816001600160a01b037f0000000000000000000000000000000000000000000000000000000000000000165afa908115610437576020916103aa915f916109d8575b50600854906fffffffffffffffffffffffffffffffff8260801c921690614453565b6109f491503d805f833e6109ec81836136d4565b810190613d47565b92505050836109b6565b3461044257602060031936011261044257610a17613f34565b610a1f61400a565b6040517fe9ddeb260000000000000000000000000000000000000000000000000000000081523060048201526001600160a01b036060826024817f000000000000000000000000000000000000000000000000000000000000000085165afa90811561043757610aa08160205f946024968691610b53575001511630614110565b604051928380927f67e0e0760000000000000000000000000000000000000000000000000000000082523060048301527f0000000000000000000000000000000000000000000000000000000000000000165afa801561043757610b0b915f91610b35575b50614e6e565b610b25575b610b18614bec565b60206103aa6004356148d6565b610b2e916144d8565b8080610b10565b610b4991503d805f833e6109ec81836136d4565b9250505082610b05565b610b6c915060603d6060116104305761042281836136d4565b8761036f565b34610442575f600319360112610442576040517f67e0e0760000000000000000000000000000000000000000000000000000000081523060048201525f816024816001600160a01b037f0000000000000000000000000000000000000000000000000000000000000000165afa90811561043757604091610c16915f91610c27575b50610bfe81614e6e565b939167ffffffffffffffff60075460a01c1693614453565b101590825191825215156020820152f35b610c3b91503d805f833e6109ec81836136d4565b9250505083610bf4565b346104425760e060031936011261044257610c5e61360f565b50610c67613625565b600460443510156104425767ffffffffffffffff9060843582811161044257610c9490369060040161370f565b5060a43582811161044257610cad90369060040161370f565b9160c43590811161044257602491610ccb602092369060040161376f565b50610cd46142b9565b6040517fe4dc2aa40000000000000000000000000000000000000000000000000000000081526001600160a01b03918216600482015292839182907f0000000000000000000000000000000000000000000000000000000000000000165afa8015610437575f90610e4a575b610d4d915060643561596a565b610d5682614e6e565b50670de0b6b3a76400009183830391838311610e1d5783610d868482610d7f82610d8d97613e78565b0493613e78565b04906144d8565b610d95614bec565b81610d9f85613a66565b51931002809282610db764e8d4a51000958693613e78565b0410938415610dfc575b50505050610dd457602060405160018152f35b7f8cf25597000000000000000000000000000000000000000000000000000000005f5260045ffd5b610e1292939450610e0c90613a29565b51613e78565b041081808080610dc1565b7f4e487b71000000000000000000000000000000000000000000000000000000005f52601160045260245ffd5b506020813d602011610e76575b81610e64602093836136d4565b8101031261044257610d4d9051610d40565b3d9150610e57565b61091a565b34610442575f600319360112610442576040517f535cfd8a0000000000000000000000000000000000000000000000000000000081523060048201525f816024816001600160a01b037f0000000000000000000000000000000000000000000000000000000000000000165afa801561043757610f16915f91610f1a575b506040519182916020835260208301906137fa565b0390f35b610f3691503d805f833e610f2e81836136d4565b810190613ae8565b82610f01565b34610442575f600319360112610442576001600160a01b036040517f67e0e0760000000000000000000000000000000000000000000000000000000081523060048201525f81602481857f0000000000000000000000000000000000000000000000000000000000000000165afa8015610437575f915f935f915f93611054575b50610fd360405194608086526080860190613860565b6020858203818701528080885193848152019701925f905b838210611018578780610f168961100a8d8b85820360408701526137fa565b9083820360608501526137fa565b909192939783606060019260408c5180516110328161389c565b8352808501518716858401520151151560408201520199019493920190610feb565b925093505061106d91503d805f833e6109ec81836136d4565b919385610fbd565b34610442575f600319360112610442576040517fca4f28030000000000000000000000000000000000000000000000000000000081523060048201525f816024816001600160a01b037f0000000000000000000000000000000000000000000000000000000000000000165afa801561043757610f16915f91611108575b50604051918291602083526020830190613860565b61112491503d805f833e61111c81836136d4565b810190613d21565b826110f3565b346104425760406003193601126104425761119a602061114861360f565b6040517fbeabacc80000000000000000000000000000000000000000000000000000000081523360048201526001600160a01b0390911660248083019190915235604482015291829081906064820190565b03815f6001600160a01b037f0000000000000000000000000000000000000000000000000000000000000000165af18015610437576111df575b602060405160018152f35b6020813d602011611210575b816111f8602093836136d4565b81010312610442576112099061397e565b50806111d4565b3d91506111eb565b3461044257600319606081360112610442576004359067ffffffffffffffff82116104425760e0913603011261044257611250613625565b50604080515f81525f6020820152f35b346104425760406003193601126104425767ffffffffffffffff6004358181116104425761129290369060040161370f565b906024359060028210156104425760016112e261131392600854906fffffffffffffffffffffffffffffffff600754918260a01c16928163ffffffff84169360201c16918160801c9116896153c6565b509190936112ef8161389c565b036113805761130761130d6001945b61130787613a66565b51613ca3565b94613a29565b908060021461136e57600114611350577f4e487b71000000000000000000000000000000000000000000000000000000005f52605160045260245ffd5b611365670de0b6b3a764000091602093613e78565b04604051908152f35b5061137b906020926150d6565b6103aa565b61130761130d6002946112fe565b3461044257610100600319360112610442576113a861360f565b506113b1613625565b50600560443510156104425767ffffffffffffffff606435818111610442576113de90369060040161370f565b50608435818111610442576113f790369060040161370f565b60c4358281116104425761140f90369060040161370f565b5060e4359182116104425761142b610f1692369060040161376f565b506040519182915f83526040602084015260408301906137fa565b34610442575f600319360112610442576040516004545f826114678361392d565b91828252602093600190856001821691825f146115045750506001146114a9575b50611495925003836136d4565b610f166040519282849384528301906135ea565b84915060045f527f8a35acfbc15ff81a39ae7d344fd709f28e8600b4aa8c65c6b64bfe7fe36bd19b905f915b8583106114ec575050611495935082010185611488565b805483890185015287945086939092019181016114d5565b7fffffffffffffffffffffffffffffffffffffffffffffffffffffffffffffff00168582015261149595151560051b85010192508791506114889050565b34610442575f6003193601126104425760206040516001600160a01b037f0000000000000000000000000000000000000000000000000000000000000000168152f35b34610442576020600319360112610442576004357fffffffff0000000000000000000000000000000000000000000000000000000081168103610442576103aa602091613ec2565b34610442575f600319360112610442576116067f000000000000000000000000000000000000000000000000000000000000000061577a565b61162f7f00000000000000000000000000000000000000000000000000000000000000006158ac565b9060405191602083019280841067ffffffffffffffff851117610822576116a5610f1692611697956040525f83526040519586957f0f00000000000000000000000000000000000000000000000000000000000000875260e0602088015260e08701906135ea565b9085820360408701526135ea565b904660608501523060808501525f60a085015283820360c08501526137fa565b34610442575f600319360112610442576001600160a01b037f0000000000000000000000000000000000000000000000000000000000000000166040517f532cec7c000000000000000000000000000000000000000000000000000000008152306004820152602081602481855afa908115610437575f9161184b575b5015611801575f602491604051928380927f67e0e0760000000000000000000000000000000000000000000000000000000082523060048301525afa8015610437576040915f916117e3575b506117d76117c4670de0b6b3a76400006117d06117c96117bb6117b087614e6e565b508181939299614fc6565b94818692613e78565b613e8b565b9480613e78565b049061442f565b82519182526020820152f35b6117f791503d805f833e6109ec81836136d4565b925050508261178e565b5060407f00000000000000000000000000000000000000000000000000000000000000007f00000000000000000000000000000000000000000000000000000000000000006117d7565b90506020813d60201161187d575b81611866602093836136d4565b81010312610442576118779061397e565b82611742565b3d9150611859565b34610442575f600319360112610442576040517ff29486a10000000000000000000000000000000000000000000000000000000081523060048201526101a09081816024816001600160a01b037f0000000000000000000000000000000000000000000000000000000000000000165afa908115610437576040925f9261191e575b505060608282015191015182519182526020820152f35b61193d9250803d10611944575b61193581836136d4565b810190613b9a565b8280611907565b503d61192b565b34610442575f600319360112610442576040516101c0810181811067ffffffffffffffff8211176108225760405260608152606060208201525f60408201525f60608201525f60808201525f60a08201525f60c08201525f60e08201525f6101008201525f6101208201525f6101408201525f6101608201525f6101808201525f6101a08201526001600160a01b037f0000000000000000000000000000000000000000000000000000000000000000166040517fca4f28030000000000000000000000000000000000000000000000000000000081523060048201525f81602481855afa918215610437576024925f928391611c77575b508452604051928380927f7e361bde0000000000000000000000000000000000000000000000000000000082523060048301525afa908115610437575f91611c54575b5060208201527f000000000000000000000000000000000000000000000000000000000000000060408201527f000000000000000000000000000000000000000000000000000000000000000060608201527f000000000000000000000000000000000000000000000000000000000000000060808201527f000000000000000000000000000000000000000000000000000000000000000060a08201527f000000000000000000000000000000000000000000000000000000000000000060c08201525f60e08201526706f05b59d3b2000061010082015264e8d4a510006101208201526103e880610140830152674563918244f400006101608301526154606101808301526101a08201526040518091602082526101a0611bd0611bba83516101c060208701526101e0860190613860565b6020840151601f1986830301604087015261382d565b916040810151606085015260608101516080850152608081015160a085015260a081015160c085015260c081015160e085015260e08101516101008501526101008101516101208501526101208101516101408501526101408101516101608501526101608101516101808501526101808101518285015201516101c08301520390f35b611c7091503d805f833e611c6881836136d4565b810190613b11565b5082611a86565b611c8b91503d8085833e61111c81836136d4565b85611a43565b34610442576020600319360112610442576001600160a01b03611cb261360f565b165f526002602052602060405f2054604051908152f35b34610442576003196020813601126104425760043567ffffffffffffffff918282116104425760e09082360301126104425760405160e081018181108482111761082257604052816004013560028110156104425781526020810160248301358152604483013584811161044257611d47906004369186010161370f565b9260408301938452606083019460648201358652608084019160848101358352611d7360a4820161363b565b60a086015260c4810135918211610442576004611d93923692010161376f565b60c0840152611da06142b9565b611daa8451614e6e565b9691949096611f89575b611dbc614bec565b51611dc68161389c565b611dcf8161389c565b611edc57845190848151611e3d611e32865192611e2c8c611e278b5191888b86155f14611ec457611e2090611e1a6113079394611307611e14829f5b61130786613a66565b93613a29565b906150d6565b958c613a73565b613ca3565b9061596a565b926113078387613a73565b808311611e9c57611e5792611e5191613f27565b93613a73565b518211611e74576020966103aa9583975195519251945195614f5f565b7fb413e252000000000000000000000000000000000000000000000000000000005f5260045ffd5b7f366eca71000000000000000000000000000000000000000000000000000000005f5260045ffd5b611e2090611e1a84611307611e14611307969f611e0b565b84939451938151968351978551611ef38a89613a73565b518111611e745760209988611f5b938b93611f24611f178661130761137b9f613a66565b611e1a8961130787613a29565b9082611f6b57611f549291611e2c611f4e92611f49611f49986113078d915b8a613a73565b613f27565b92613a73565b5190613f27565b9687925195519351945195614f5f565b611f549291611e2c611f4e92611f49611f49986113078d9b91611f43565b611f9387866144d8565b611db4565b346104425760208060031936011261044257604481611fb561360f565b6040517ff7888aec0000000000000000000000000000000000000000000000000000000081523060048201526001600160a01b03918216602482015292839182907f0000000000000000000000000000000000000000000000000000000000000000165afa908115610437575f91612031575b50604051908152f35b90508181813d8311612057575b61204881836136d4565b81010312610442575182612028565b503d61203e565b34610442575f600319360112610442575f606060405161207d8161364f565b82815282602082015282604082015201526080612098613b55565b604051906bffffffffffffffffffffffff8082511683526020820151166020830152606060408201519163ffffffff80931660408501520151166060820152f35b34610442575f600319360112610442577f56b7fcdb000000000000000000000000000000000000000000000000000000005f5260045ffd5b34610442575f60031936011261044257602060405167016345785d8a00008152f35b34610442575f60031936011261044257335f908152600260205260409020805460018101909155005b34610442575f6003193601126104425760206103aa612179613b55565b614d01565b346104425760207f8c5be1e5ebec7d5bd14f71427d1e84f3dd0314c0f7b2291e5b200ac8c7c3b9256121af366137c5565b929193906121bb6142b9565b6001600160a01b03809160405195865216941692a3005b34610442575f600319360112610442576040516005545f826121f38361392d565b91828252602093600190856001821691825f146115045750506001146122205750611495925003836136d4565b84915060055f527f036b6384b5eca791c62761152d0c79bb0604c104a5fb6f4eb0703f3154bb3db0905f915b858310612263575050611495935082010185611488565b8054838901850152879450869390920191810161224c565b3461044257600319604081360112610442576004359067ffffffffffffffff82116104425760e09136030112610442576122b3613625565b5060206040515f8152f35b34610442575f600319360112610442576040517f67e0e0760000000000000000000000000000000000000000000000000000000081523060048201525f816024816001600160a01b037f0000000000000000000000000000000000000000000000000000000000000000165afa90811561043757606091612345915f9161235a5750614e6e565b90604051928352602083015215156040820152f35b61236e91503d805f833e6109ec81836136d4565b9250505083610b05565b34610442575f6003193601126104425760206103aa6fffffffffffffffffffffffffffffffff600754831c16614f35565b34610442576040600319360112610442576123c261360f565b602435906001600160a01b036040517fca4f28030000000000000000000000000000000000000000000000000000000081523060048201525f81602481857f0000000000000000000000000000000000000000000000000000000000000000165afa908115610437575f91612528575b50818061243e83613a66565b511693168093145f1461251e575f926001925b600185149283612506575b5050506124de576124b7610f1693612472614eb8565b6040519461247f86613688565b600286526040366020880137826124968288613a73565b526124cc576124ae90670de0b6b3a764000092613e78565b04915b83613a73565b526040519182916020835260208301906137fa565b6117c46124d892613e5b565b916124b1565b7fc1ab6dc1000000000000000000000000000000000000000000000000000000005f5260045ffd5b61251291929350613a29565b5116141584808061245c565b6001925f92612451565b61253c91503d805f833e61111c81836136d4565b84612432565b346104425760e06003193601126104425761255b61360f565b50612564613625565b600560443510156104425767ffffffffffffffff906064358281116104425761259190369060040161370f565b5060a435828111610442576125aa90369060040161370f565b9160c435908111610442576024916125c8602092369060040161376f565b506125d16142b9565b6040517fe4dc2aa40000000000000000000000000000000000000000000000000000000081526001600160a01b03918216600482015292839182907f0000000000000000000000000000000000000000000000000000000000000000165afa908115610437575f91612688575b50612651612657916117c4608435613e5b565b91614e6e565b509091670de0b6b3a764000090810192838211610e1d578382610d7f61268096610d8694613e78565b6111d4614bec565b90506020813d6020116126b4575b816126a3602093836136d4565b81010312610442575161265161263e565b3d9150612696565b346104425760606003193601126104425767ffffffffffffffff600435818111610442576126ee90369060040161370f565b50604435908111610442576122b390369060040161376f565b34610442575f60031936011261044257602063ffffffff60075416604051908152f35b34610442575f6003193601126104425760206103aa614d43565b34610442575f60031936011261044257602060405160128152f35b34610442575f6003193601126104425760206040517f6e71edae12b1b97f4d1f60370fef10105fa2faae0126114a169c64845d6126c98152f35b34610442575f60031936011261044257604051610200810181811067ffffffffffffffff8211176108225760405260608152606060208201525f60408201525f60608201525f6080820152606060a08201525f60c08201525f60e08201525f6101008201525f6101208201525f6101408201525f6101608201525f6101808201525f6101a08201525f6101c08201525f6101e08201526040517f535cfd8a0000000000000000000000000000000000000000000000000000000081523060048201525f816024816001600160a01b037f0000000000000000000000000000000000000000000000000000000000000000165afa908115610437575f91612c5f575b5081526040517f7e361bde0000000000000000000000000000000000000000000000000000000081523060048201525f816024816001600160a01b037f0000000000000000000000000000000000000000000000000000000000000000165afa908115610437575f91612c43575b5060208201526040517fb45090f90000000000000000000000000000000000000000000000000000000081523060048201526020816024816001600160a01b037f0000000000000000000000000000000000000000000000000000000000000000165afa908115610437575f91612c11575b50604082015261298861398b565b606082015267ffffffffffffffff60075463ffffffff811660808401526040516129b181613688565b600281526040366020830137600854906fffffffffffffffffffffffffffffffff918281166129df83613a66565b5260801c6129ec82613a29565b5260a08501528160201c1660c084015260a01c1660e0820152612a10612179613b55565b61010082015263ffffffff6060612a25613b55565b6bffffffffffffffffffffffff80825116610120860152602082015116610140850152826040820151166101608501520151166101808201526040517ff29486a10000000000000000000000000000000000000000000000000000000081523060048201526101a0816024816001600160a01b037f0000000000000000000000000000000000000000000000000000000000000000165afa801561043757610120915f91612bf0575b5060e081015115156101a084015261010081015115156101c0840152015115156101e08201526040518091602082526101e0612b6a612b1b8351610200602087015261022086019061382d565b612b37602085015191601f19928388830301604089015261382d565b906040850151606087015260608501516080870152608085015160a087015260a0850151908683030160c087015261382d565b9160c081015160e085015260e081015161010085015261010081015161012085015261012081015161014085015261014081015161016085015263ffffffff6101608201511661018085015263ffffffff610180820151166101a08501526101a081015115156101c08501526101c0810151151582850152015115156102008301520390f35b612c0b91506101a03d6101a0116119445761193581836136d4565b83612ace565b90506020813d602011612c3b575b81612c2c602093836136d4565b8101031261044257518261297a565b3d9150612c1f565b612c5791503d805f833e611c6881836136d4565b905082612908565b612c7391503d805f833e610f2e81836136d4565b8261289a565b346104425761010060031936011261044257612c9361360f565b50612c9c613625565b50600460443510156104425767ffffffffffffffff60843581811161044257612cc990369060040161370f565b5060a435818111610442576113f790369060040161370f565b346104425760207fddf252ad1be2c89b69c2b068fc378daa952ba7f163c4a11628f55a4df523b3ef6121af366137c5565b346104425760846020612d25366137c5565b6040517f15dacbea0000000000000000000000000000000000000000000000000000000081523360048201526001600160a01b0393841660248201529183166044830152606482015292839182905f907f0000000000000000000000000000000000000000000000000000000000000000165af18015610437576111df57602060405160018152f35b34610442575f6003193601126104425760206007546fffffffffffffffffffffffffffffffff60405191831c168152f35b34610442575f60031936011261044257602067ffffffffffffffff60075460a01c16604051908152f35b346104425760406003193601126104425767ffffffffffffffff60043581811161044257612e3b90369060040161370f565b9060243581811161044257612e5490369060040161376f565b50612e5d6142b9565b7f00000000000000000000000000000000000000000000000000000000000000007f0000000000000000000000000000000000000000000000000000000000000000917f000000000000000000000000000000000000000000000000000000000000000093612ecd858585614317565b969192612ef0612edf86989398613a29565b51612ee987613a66565b519061442f565b93612f07612efd83613a29565b51612ee984613a66565b670de05bc096e9c0009586820282159783820414881715610e1d57670de0b6b3a764000097670de111a6b7de4000808502948504141715610e1d578780910482109283156130c7575b50505061309f57612f88859182612f81612f7a612fb296612ee9612f738d613a66565b5191613a66565b8093613e78565b0499613e78565b0498612fad612f9a8b61130789613a29565b612fa78a6113078a613a66565b9061442f565b615117565b612fcf612fc0898887614fc6565b91612fad836117c48c80613e78565b828102928184041490151715610e1d5761300192612ffc8692612fad84612ff7818d98613e8b565b61442f565b614453565b9060075460a01c1611613077576130249261301b916144d8565b42904290614631565b61304d7f00000000000000000000000000000000000000000000000000000000000000006148d6565b506126807f0000000000000000000000000000000000000000000000000000000000000000614a7c565b7f1878f33d000000000000000000000000000000000000000000000000000000005f5260045ffd5b7f4f512cb0000000000000000000000000000000000000000000000000000000005f5260045ffd5b041090508b8681612f50565b3461044257600319602081360112610442576004359067ffffffffffffffff821161044257610180913603011261044257604080515f81525f6020820152f35b34610442575f6003193601126104425760206103aa61398b565b346104425760606003193601126104425760043567ffffffffffffffff81116104425761315e90369060040161370f565b507fd6234725000000000000000000000000000000000000000000000000000000005f5260045ffd5b34610442575f6003193601126104425760406008548151906fffffffffffffffffffffffffffffffff8116825260801c6020820152f35b346104425760e0600319360112610442576131d761360f565b506131e0613625565b5060443567ffffffffffffffff8111610442573660238201121561044257806004013561320c816136f7565b9161321a60405193846136d4565b81835260206024602085019360071b8301019136831161044257602401925b8284106132b4578460807fffffffffffffffffffffffffffffffffffffffffffffffffffffffffffffff9c360112610442576002906132766142b9565b5114806132a3575b80613291575b6020906040519015158152f35b5060c435801590811514613284575f80fd5b50606435801515811461327e575f80fd5b60808436031261044257604051906132cb8261364f565b6132d48561363b565b8252828501356002811015610442578383015260408501356001600160a01b038116810361044257604083015260609081860135928315158403610442576080938593820152815201930192613239565b346104425760406003193601126104425761119a602061334361360f565b6040517fe1f21c670000000000000000000000000000000000000000000000000000000081523360048201526001600160a01b0390911660248083019190915235604482015291829081906064820190565b34610442575f600319360112610442576040516003545f826133b68361392d565b91828252602093600190856001821691825f146115045750506001146133e35750611495925003836136d4565b84915060035f527fc2575a0e9e593c00f959f8c92f12db2869c3395a3b0502d05e2516446f71f85b905f915b858310613426575050611495935082010185611488565b8054838901850152879450869390920191810161340f565b3461044257602060031936011261044257613457613f34565b61345f61400a565b6134676140d9565b6040517fe9ddeb260000000000000000000000000000000000000000000000000000000081523060048201526001600160a01b036060826024817f000000000000000000000000000000000000000000000000000000000000000085165afa908115610437576134e88160205f946024968691610b53575001511630614110565b604051928380927f67e0e0760000000000000000000000000000000000000000000000000000000082523060048301527f0000000000000000000000000000000000000000000000000000000000000000165afa801561043757613552915f91610b355750614e6e565b613572575b61355f614bec565b61356a600435614a7c565b6107ea6140d9565b61357b916144d8565b8080613557565b3461044257602060031936011261044257600435907fffffffff000000000000000000000000000000000000000000000000000000008216809203610442577f01ffc9a700000000000000000000000000000000000000000000000000000000602092148152f35b90601f19601f602080948051918291828752018686015e5f8582860101520116010190565b600435906001600160a01b038216820361044257565b602435906001600160a01b038216820361044257565b35906001600160a01b038216820361044257565b6080810190811067ffffffffffffffff82111761082257604052565b610140810190811067ffffffffffffffff82111761082257604052565b6060810190811067ffffffffffffffff82111761082257604052565b67ffffffffffffffff811161082257604052565b6040810190811067ffffffffffffffff82111761082257604052565b90601f601f19910116810190811067ffffffffffffffff82111761082257604052565b67ffffffffffffffff81116108225760051b60200190565b9080601f83011215610442576020908235613729816136f7565b9361373760405195866136d4565b81855260208086019260051b82010192831161044257602001905b828210613760575050505090565b81358152908301908301613752565b81601f820112156104425780359067ffffffffffffffff821161082257604051926137a46020601f19601f86011601856136d4565b8284526020838301011161044257815f926020809301838601378301015290565b6003196060910112610442576001600160a01b0390600435828116810361044257916024359081168103610442579060443590565b9081518082526020808093019301915f5b828110613819575050505090565b83518552938101939281019260010161380b565b9081518082526020808093019301915f5b82811061384c575050505090565b83518552938101939281019260010161383e565b9081518082526020808093019301915f5b82811061387f575050505090565b83516001600160a01b031685529381019392810192600101613871565b600211156138a657565b7f4e487b71000000000000000000000000000000000000000000000000000000005f52602160045260245ffd5b51906001600160a01b038216820361044257565b9081606091031261044257613925604080519261390384613688565b61390c816138d3565b845261391a602082016138d3565b6020850152016138d3565b604082015290565b90600182811c92168015613974575b602083101461394757565b7f4e487b71000000000000000000000000000000000000000000000000000000005f52602260045260245ffd5b91607f169161393c565b5190811515820361044257565b6040517fe4dc2aa40000000000000000000000000000000000000000000000000000000081523060048201526020816024816001600160a01b037f0000000000000000000000000000000000000000000000000000000000000000165afa908115610437575f916139fa575090565b90506020813d602011613a21575b81613a15602093836136d4565b81010312610442575190565b3d9150613a08565b805160011015613a395760400190565b7f4e487b71000000000000000000000000000000000000000000000000000000005f52603260045260245ffd5b805115613a395760200190565b8051821015613a395760209160051b010190565b9080601f8301121561044257815190602091613aa2816136f7565b93613ab060405195866136d4565b81855260208086019260051b82010192831161044257602001905b828210613ad9575050505090565b81518152908301908301613acb565b9060208282031261044257815167ffffffffffffffff811161044257613b0e9201613a87565b90565b9190916040818403126104425780519267ffffffffffffffff938481116104425781613b3e918401613a87565b93602083015190811161044257613b0e9201613a87565b60405190613b628261364f565b8160606006546bffffffffffffffffffffffff808216845281831c16602084015263ffffffff8160c01c16604084015260e01c910152565b809103906101a0821261044257608060405192613bb68461366b565b1261044257604051613bc78161364f565b613bd08261397e565b8152613bde6020830161397e565b6020820152613bef6040830161397e565b6040820152613c006060830161397e565b606082015282526080810151602083015260a0810151604083015260c0810151606083015260e081015164ffffffffff81168103610442576080830152610100908181015163ffffffff8116810361044257613c9c916101809160a086015261012093613c6e85830161397e565b60c0870152613c80610140830161397e565b60e0870152613c92610160830161397e565b908601520161397e565b9082015290565b91908201809211610e1d57565b9080601f8301121561044257815190602091613ccb816136f7565b93613cd960405195866136d4565b81855260208086019260051b82010192831161044257602001905b828210613d02575050505090565b81516001600160a01b0381168103610442578152908301908301613cf4565b9060208282031261044257815167ffffffffffffffff811161044257613b0e9201613cb0565b916080838303126104425782519067ffffffffffffffff918281116104425783613d72918601613cb0565b9360208082015184811161044257820185601f8201121561044257805190613d99826136f7565b926040613da960405195866136d4565b83855281850190826060809602850101938a8511610442578301915b848310613e02575050505050509360408201518481116104425781613deb918401613a87565b93606083015190811161044257613b0e9201613a87565b85838c031261044257815190613e1782613688565b8351600281101561044257825284840151906001600160a01b038216820361044257828692838a950152613e4c85870161397e565b85820152815201920191613dc5565b90670de0b6b3a764000091828102928184041490151715610e1d57565b81810292918115918404141715610e1d57565b8115613e95570490565b7f4e487b71000000000000000000000000000000000000000000000000000000005f52601260045260245ffd5b6040517fffffffff0000000000000000000000000000000000000000000000000000000060208201927f0000000000000000000000000000000000000000000000000000000000000000845216604082015260248152613f2181613688565b51902090565b91908203918211610e1d57565b6040517f532cec7c0000000000000000000000000000000000000000000000000000000081523060048201526020816024816001600160a01b037f0000000000000000000000000000000000000000000000000000000000000000165afa908115610437575f91613fd0575b5015613fa857565b7f486aa307000000000000000000000000000000000000000000000000000000005f5260045ffd5b90506020813d602011614002575b81613feb602093836136d4565b8101031261044257613ffc9061397e565b5f613fa0565b3d9150613fde565b6040517f8380edb70000000000000000000000000000000000000000000000000000000081526020816004816001600160a01b037f0000000000000000000000000000000000000000000000000000000000000000165afa908115610437575f9161409f575b5061407757565b7fe4575fe4000000000000000000000000000000000000000000000000000000005f5260045ffd5b90506020813d6020116140d1575b816140ba602093836136d4565b81010312610442576140cb9061397e565b5f614070565b3d91506140ad565b6140e1614ff0565b156140e857565b7f03d95ab4000000000000000000000000000000000000000000000000000000005f5260045ffd5b906001600160a01b03908116806142ae575061414e7fffffffff000000000000000000000000000000000000000000000000000000005f3516613ec2565b91604051907faaabadc50000000000000000000000000000000000000000000000000000000082526020938483600481877f0000000000000000000000000000000000000000000000000000000000000000165afa92831561043757859385915f9161426f575b50906064929160405196879586947f9be2a8840000000000000000000000000000000000000000000000000000000086526004860152336024860152166044840152165afa918215610437575f92614239575b50501561421157565b7f23dada53000000000000000000000000000000000000000000000000000000005f5260045ffd5b90809250813d8311614268575b61425081836136d4565b81010312610442576142619061397e565b5f80614208565b503d614246565b92948092508391503d83116142a7575b61428981836136d4565b810103126104425751838116810361044257849290849060646141b5565b503d61427f565b915050330361421157565b6001600160a01b037f00000000000000000000000000000000000000000000000000000000000000001633036142eb57565b7f089676d5000000000000000000000000000000000000000000000000000000005f523360045260245ffd5b9061432b826117c461433093969596613e5b565b6150b3565b61434161433c82613e5b565b615b0f565b907ffffffffffffffffffffffffffffffffffffffffffffffffff21f494c589c00008101908111610e1d578015613e9557710b7abc627050305adf14a3d9e40000000000049269d3c21bcecceda100000080850193848611610e1d576143b1670de0b6b3a7640000958692613e78565b0493604051916143c083613688565b60028352604036602085013782976143d887826150d6565b888301809311610e1d5761442c936143fd89611f4961432b61442697612ff7966150d6565b61440687613a29565b526144148961130788613a29565b9061441f848c613e78565b0490613f27565b91613a66565b52565b90670de0b6b3a764000091828102928184041490151715610e1d57613b0e91613e8b565b9161445d83613a66565b511580156144c7575b6144c057826117c4826144806144a29486613b0e9861519b565b9485156144ba5790945b156144a757610e0c61449b84613a66565b5193613a29565b61596a565b610e0c6144b384613a29565b5193613a66565b9461448a565b5050505f90565b506144d183613a29565b5115614466565b906fffffffffffffffffffffffffffffffff6144f3836151f0565b167fffffffffffffffffffffffffffffffff0000000000000000000000000000000061451e836151f0565b60801b16176008556040907ff36b0fd05d55ca91fb3ebd8493adf78a3405a11c145c054a092d0994b665b637828051858152836020820152a16001600160a01b037f0000000000000000000000000000000000000000000000000000000000000000169082519360208501528284015281835261459a83613688565b803b156104425761460a5f9391849284519586809481937fc80882470000000000000000000000000000000000000000000000000000000083527f5669727475616c42616c616e6365735570646174656400000000000000000000600484015288602484015260448301906135ea565b03925af1908115614628575061461d5750565b614626906136a4565b565b513d5f823e3d90fd5b919081811180156148cd575b6148a557614649613b55565b9161465383614d01565b9061465d8261523d565b6146668661523d565b905f8282039212818312811691831390151617610e1d578060ff1d809101186103e8811061487a5750906147fc61480a926bffffffffffffffffffffffff95866146af85615292565b1681526146bb88615292565b8760208301911681526146cd876152db565b907fffffffff000000000000000000000000000000000000000000000000000000007bffffffff00000000000000000000000000000000000000000000000077ffffffffffffffffffffffff00000000000000000000000060409b8c87019663ffffffff809716885261473f896152db565b96871660608201525116935160601b16945160c01b169260e01b16921717176006557fa18562ea402e57cc2b437f8d7a139c6c38958adc1ecbb706ec37a7a64ff6e7a58651806147a984898c89859094939260609260808301968352602083015260408201520152565b0390a16001600160a01b037f000000000000000000000000000000000000000000000000000000000000000016948651978894602086019094939260609260808301968352602083015260408201520152565b03601f1981018552846136d4565b803b156104425761460a5f9391849284519586809481937fc80882470000000000000000000000000000000000000000000000000000000083527f5072696365526174696f53746174655570646174656400000000000000000000600484015288602484015260448301906135ea565b7ff04fea2e000000000000000000000000000000000000000000000000000000005f5260045260245ffd5b7fb290253c000000000000000000000000000000000000000000000000000000005f5260045ffd5b5042811061463d565b674563918244f400008111614a54576201e6e9670de0b6b3a764000091048103908111610e1d5761490681614f35565b90614910816151f0565b7fffffffffffffffffffffffff00000000000000000000000000000000ffffffff73ffffffffffffffffffffffffffffffff000000006007549260201b1691161760075560407f7ee46b38be05f748de1c0fb2002ac48fe50a26a0017c654a92c0bf9228058847818051858152846020820152a16001600160a01b037f000000000000000000000000000000000000000000000000000000000000000016815192846020850152828401528183526149c783613688565b803b1561044257614a375f9391849284519586809481937fc80882470000000000000000000000000000000000000000000000000000000083527f4461696c79507269636553686966744578706f6e656e74557064617465640000600484015288602484015260448301906135ea565b03925af19081156146285750614a4b575090565b613b0e906136a4565b7f2b5b4f35000000000000000000000000000000000000000000000000000000005f5260045ffd5b6706f05b59d3b200008111614bc4576007547fffffffff0000000000000000ffffffffffffffffffffffffffffffffffffffff7bffffffffffffffff00000000000000000000000000000000000000008360a01b169116176007557f74d468c8e414c37c502176a45cce93c85eaa0abf608e40641dc6664ca5efcab06020604051838152a16001600160a01b037f00000000000000000000000000000000000000000000000000000000000000001660405191602083015260208252614b41826136b8565b803b1561044257614bb35f929183926040519485809481937fc80882470000000000000000000000000000000000000000000000000000000083527f43656e74657265646e6573734d617267696e557064617465640000000000000060048401526040602484015260448301906135ea565b03925af180156104375761461d5750565b7f7304fac7000000000000000000000000000000000000000000000000000000005f5260045ffd5b63ffffffff614bfa426152db565b16807fffffffffffffffffffffffffffffffffffffffffffffffffffffffff0000000060075416176007557f32a9fd44bdf167703f584bd25098494d3d18a4653a2d97116d28da05209444d46020604051838152a16001600160a01b037f00000000000000000000000000000000000000000000000000000000000000001660405191602083015260208252614c8f826136b8565b803b1561044257614bb35f929183926040519485809481937fc80882470000000000000000000000000000000000000000000000000000000083527f4c61737454696d657374616d705570646174656400000000000000000000000060048401526040602484015260448301906135ea565b614d3f614d0d426152db565b6bffffffffffffffffffffffff9283815116846020830151169063ffffffff6060816040860151169401511693615332565b1690565b6001600160a01b037f000000000000000000000000000000000000000000000000000000000000000016301480614e45575b15614d9e577f000000000000000000000000000000000000000000000000000000000000000090565b60405160208101907f8b73c3c69bb8fe3d512ecc4cf759cc79239f7b179b0ffacaa9a75d522b39400f82527f000000000000000000000000000000000000000000000000000000000000000060408201527f000000000000000000000000000000000000000000000000000000000000000060608201524660808201523060a082015260a0815260c0810181811067ffffffffffffffff8211176108225760405251902090565b507f00000000000000000000000000000000000000000000000000000000000000004614614d75565b614eb3906008546fffffffffffffffffffffffffffffffff6007549167ffffffffffffffff8360a01c16938263ffffffff85169460201c16928260801c9216906153c6565b909192565b613b0e614f267f00000000000000000000000000000000000000000000000000000000000000007f00000000000000000000000000000000000000000000000000000000000000007f0000000000000000000000000000000000000000000000000000000000000000614317565b505050612ee9612f7382613a29565b670de0b6b3a764000081810391818311610e1d576201e6e98084029384041491141715610e1d5790565b94614fac9294614f9b91614f8a614f8364e8d4a51000979a959a611307848c613a73565b9189613a73565b52614f958388613a73565b51613f27565b614fa58287613a73565b5284613a73565b5110610dd4576103e892614fbf92614453565b1061307757565b614fe6670de0b6b3a764000093611307611e14614fec9561130786613a66565b90613e78565b0490565b6040517f67e0e0760000000000000000000000000000000000000000000000000000000081523060048201525f816024816001600160a01b037f0000000000000000000000000000000000000000000000000000000000000000165afa908115610437575f91615095575b5061509060085467ffffffffffffffff60075460a01c16926fffffffffffffffffffffffffffffffff8260801c921690614453565b101590565b6150a991503d805f833e6109ec81836136d4565b925050505f61505b565b670de0b6b3a764000090818102918183041490151715610e1d57613b0e90615b0f565b906150e091613e78565b6001670de0b6b3a76400007fffffffffffffffffffffffffffffffffffffffffffffffffffffffffffffffff830104019015150290565b670de05bc096e9c00080830283159184820414821715610e1d57670de0b6b3a764000091670de111a6b7de4000808602958604141715610e1d57819004821092831561518f575b50505061516757565b7ff67c277c000000000000000000000000000000000000000000000000000000005f5260045ffd5b041090505f808061515e565b6151a481613a29565b516151b157505050600190565b80612ee96151c16151c893613a66565b5191613a29565b91670de0b6b3a764000091828102928184041490151715610e1d576151ec91613e8b565b1090565b6fffffffffffffffffffffffffffffffff9081811161520d571690565b7f6dfcc650000000000000000000000000000000000000000000000000000000005f52608060045260245260445ffd5b7f7fffffffffffffffffffffffffffffffffffffffffffffffffffffffffffffff81116152675790565b7f24775e06000000000000000000000000000000000000000000000000000000005f5260045260245ffd5b6bffffffffffffffffffffffff908181116152ab571690565b7f6dfcc650000000000000000000000000000000000000000000000000000000005f52606060045260245260445ffd5b63ffffffff908181116152ec571690565b7f6dfcc650000000000000000000000000000000000000000000000000000000005f52602060045260245260445ffd5b63ffffffff9182169082160391908211610e1d57565b9093919263ffffffff918281168385168110615352575050505050905090565b83831610156153be576153a761538e6153b9969585615387866153b398615380613b0e9d996153ad9961531c565b169361531c565b169061442f565b80936bffffffffffffffffffffffff8091169616615c6a565b84613e78565b92615c6a565b90613e8b565b615292565b505050505090565b91909495925f946153d6426152db565b9063ffffffff908183169482821699868b1461576b5790818493929c829c6153fc613b55565b90866bffffffffffffffffffffffff6154328b8286511695836020820151166060604083019d8e51169201978689511693615332565b169b81600299511610928361575e575b5050506155b2575b67ffffffffffffffff1661545f8d8f8c614453565b10615470575b505050505050505050565b909192939495989b979a96995060038410156138a65760028414615594575b505060038210156138a6576154ab60016154d5931498806150d6565b94881561557a576154c56154be8b613a66565b519a613a29565b51965b891561557257509361531c565b1693670de0b6b3a76400009485810290808204871490151715610e1d5761551092614fe6615504928894615c6a565b0495614fe68488613ca3565b917ffffffffffffffffffffffffffffffffffffffffffffffffff21f494c589c00008201918211610e1d576155529361554c876153b394613e78565b04613f27565b901561556d57905b90916001905f8080808080808080615465565b61555a565b90509361531c565b61558d6155868b613a29565b519a613a66565b51966154c8565b6155aa929350906155a5918b61519b565b6165a1565b905f8061548f565b9a509b50995090506155c86155a58a8c8961519b565b9060038210156138a65760018214998a15615747578b60016156088361560060ff6155f78e825f5b1690613a73565b5194168d613a73565b51938c614453565b6156128a806150d6565b670de0b6b3a7640000828101809111610e1d577f3fffffffffffffffffffffffffffffffffffffffffffffffffffffffffffffff82168203610e1d5761565b8260021b84613ca3565b7fffffffffffffffffffffffffffffffffffffffffffffffffe43e9298b13800008101908111610e1d5761568f9084613e78565b6ec097ce7bc90715b34b9f10000000008101809111610e1d576156be916156b86153a792615b0f565b90613ca3565b927ffffffffffffffffffffffffffffffffffffffffffffffffff21f494c589c00008201918211610e1d577f7fffffffffffffffffffffffffffffffffffffffffffffffffffffffffffffff82168203610e1d576117c461572961573095612ff79460011b90613e8b565b8096613e78565b9b15615742579a5b9a9b60019a61544a565b615738565b8b5f6156088361560060ff6155f78e8260016155f0565b51161190505f8781615442565b9a5098505f9750505050505050565b60ff81146157ce5760ff811690601f82116157a6576040519161579c836136b8565b8252602082015290565b7fb3512b0c000000000000000000000000000000000000000000000000000000005f5260045ffd5b506040515f815f54916157e08361392d565b80835292602090600190818116908115615869575060011461580b575b5050613b0e925003826136d4565b9150925f80527f290decd9548b62a8d60345a988386fc84ba6bc95484008f6362f93160ef3e563935f925b8284106158515750613b0e9450505081016020015f806157fd565b85548785018301529485019486945092810192615836565b905060209350613b0e9592507fffffffffffffffffffffffffffffffffffffffffffffffffffffffffffffff0091501682840152151560051b8201015f806157fd565b60ff81146158ce5760ff811690601f82116157a6576040519161579c836136b8565b506040515f816001916001546158e38161392d565b8084529360209160018116908115615869575060011461590b575050613b0e925003826136d4565b91509260015f527fb10e2d527612073b26eecdfd717e6a320cf44b4afac2b0732d9fcbe2b7fa0cf6935f925b8284106159525750613b0e9450505081016020015f806157fd565b85548785018301529485019486945092810192615937565b9080156159ba57670de0b6b3a764000091828102928184041490151715610e1d576001907fffffffffffffffffffffffffffffffffffffffffffffffffffffffffffffffff830104019015150290565b7f0a0c22c7000000000000000000000000000000000000000000000000000000005f5260045ffd5b91907f7fffffffffffffffffffffffffffffff5d576e7357a4501ddfe92f46681b20a08411615a59579160209360809260ff5f9560405194855216868401526040830152606082015282805260015afa15610437575f516001600160a01b03811615615a4f57905f905f90565b505f906001905f90565b5050505f9160039190565b60048110156138a65780615a76575050565b60018103615aa6577ff645eedf000000000000000000000000000000000000000000000000000000005f5260045ffd5b60028103615ada57507ffce698f7000000000000000000000000000000000000000000000000000000005f5260045260245ffd5b600314615ae45750565b7fd78bce0c000000000000000000000000000000000000000000000000000000005f5260045260245ffd5b600180821115615c4257615bde908083700100000000000000000000000000000000811015615c2b575b80680100000000000000006004921015615c1e575b640100000000811015615c11575b62010000811015615c04575b610100811015615bf8575b6010811015615bec575b1015615be5575b600302811c615b938185613e8b565b01811c615ba08185613e8b565b01811c615bad8185613e8b565b01811c615bba8185613e8b565b01811c615bc78185613e8b565b01811c615bd48185613e8b565b01901c8092613e8b565b8111900390565b811b615b84565b811c9160021b91615b7d565b60081c91811b91615b73565b60101c9160081b91615b68565b60201c9160101b91615b5c565b60401c9160201b91615b4e565b50680100000000000000009050608084901c615b39565b5090565b8015613e95576ec097ce7bc90715b34b9f10000000000590565b8115613e95570590565b90801561659357811561658d578160ff1c61656557770bce5086492111aea88f4bb1ca6bcf584181ea8059f7653281101561653d5781670c7d713b49da0000128061652c575b156161c957670de0b6b3a7640000916ec097ce7bc90715b34b9f100000000090615d03908402828101907fffffffffffffffffffffffffffffffffff3f68318436f8ea4cb460f000000000018302615c60565b9080828002059181838202058284820205838582020591848684020593858786020595808888020597880205600f900596600d900595600b900594600990059360079005926005900591600390050101010101010160011b918082818507020592050201670de0b6b3a7640000905b057ffffffffffffffffffffffffffffffffffffffffffffffffdc702bd3a30fc000081811315806161b6575b1561618e5781908212158061617b575b15616153575f915f8112616144575b506064906806f05b59d3b200000081126160e1577ffffffffffffffffffffffffffffffffffffffffffffffff90fa4a62c4e0000000168056bc75e2d6310000082770195e54c5dd42177f53a27172fa9ec630262827000000000925b02819068ad78ebc5ac620000008112156160a8575b6856bc75e2d63100000081121561606e575b682b5e3af16b18800000811215616036575b6815af1d78b58c400000811215615ffe575b680ad78ebc5ac6200000811215615fc7575b82811215615f90575b6802b5e3af16b1880000811215615f59575b68015af1d78b58c40000811215615f22575b60028382800205056003848383020505600485848302050585600581868402050560068287830205056007838883020505906008848984020505926009858a8602050595600a868b8902050597600b878c8b02050599600c888d8d0205059b01010101010101010101010102050205905f14613b0e57613b0e90615c46565b6806f5f17757889379377ffffffffffffffffffffffffffffffffffffffffffffffffea50e2874a73c000084920192020590615ea3565b6808f00f760a4b2db55d7ffffffffffffffffffffffffffffffffffffffffffffffffd4a1c50e94e78000084920192020590615e91565b680ebc5fb417461211107ffffffffffffffffffffffffffffffffffffffffffffffffa9438a1d29cf0000084920192020590615e7f565b68280e60114edb805d037ffffffffffffffffffffffffffffffffffffffffffffffff5287143a539e0000084920192020590615e76565b690127fa27722cc06cc5e27fffffffffffffffffffffffffffffffffffffffffffffffea50e2874a73c0000084920192020590615e64565b693f1fce3da636ea5cf8507fffffffffffffffffffffffffffffffffffffffffffffffd4a1c50e94e780000084920192020590615e52565b6b02df0ab5a80a22c61ab5a7007fffffffffffffffffffffffffffffffffffffffffffffffa9438a1d29cf00000084920192020590615e40565b6e01855144814a7ff805980ff008400091507fffffffffffffffffffffffffffffffffffffffffffffff5287143a539e00000001615e2e565b6803782dace9d90000008112616131577ffffffffffffffffffffffffffffffffffffffffffffffffc87d25316270000000168056bc75e2d63100000826b1425982cf597cd205cef738092615e19565b68056bc75e2d6310000082600192615e19565b600192505f0390506064615dbd565b7fd4794efd000000000000000000000000000000000000000000000000000000005f5260045ffd5b5068070c1cc73b00c80000821315615dae565b7fa2f9f7e3000000000000000000000000000000000000000000000000000000005f5260045ffd5b5068070c1cc73b00c80000821315615d9e565b81670de0b6b3a7640000925f91848112616516575b506064905f7e1600ef3172e58d2e933ec884fde10064c63b5372d805e203c00000000000008212156164eb575b73011798004d755d3c8bc8e03204cf44619e0000008212156164ca575b820290808302906e01855144814a7ff805980ff008400090818312156164a7575b50506b02df0ab5a80a22c61ab5a70080821215616487575b50693f1fce3da636ea5cf85080821215616467575b50690127fa27722cc06cc5e280821215616447575b5068280e60114edb805d0380821215616427575b50680ebc5fb4174612111080821215616410575b506808f00f760a4b2db55d808212156163f0575b506806f5f1775788937937808212156163d0575b506806248f33704b286603808212156163b1575b506805c548670b9510e7ac80821215616392575b5061633f68056bc75e2d6310000091827ffffffffffffffffffffffffffffffffffffffffffffffffa9438a1d29cf00000818301920102615c60565b9080828002059181838202058284820205916003600560076009600b888a89020598808b8b02059a8b0205059805960594059205010101010160011b0105905f1461638d575f035b02615d72565b616387565b68056bc75e2d631000006756bc75e2d63100009202059101905f616303565b68056bc75e2d6310000067ad78ebc5ac6200009202059101905f6162ef565b68056bc75e2d6310000068015af1d78b58c400009202059101905f6162db565b68056bc75e2d631000006802b5e3af16b18800009202059101905f6162c7565b68056bc75e2d63100000809202059101905f6162b3565b68056bc75e2d63100000680ad78ebc5ac62000009202059101905f61629f565b68056bc75e2d631000006815af1d78b58c4000009202059101905f61628b565b68056bc75e2d63100000682b5e3af16b188000009202059101905f616276565b68056bc75e2d631000006856bc75e2d6310000009202059101905f616261565b68ad78ebc5ac62000000925069021e19e0c9bab240000002059101905f80616249565b906b1425982cf597cd205cef73806803782dace9d900000091059101616228565b50770195e54c5dd42177f53a27172fa9ec63026282700000000090056806f05b59d3b200000061620b565b90506165229150615c46565b60019060646161de565b50670f43fc2c04ee00008212615cb0565b7fd8317311000000000000000000000000000000000000000000000000000000005f5260045ffd5b7f022701e0000000000000000000000000000000000000000000000000000000005f5260045ffd5b50505f90565b5050670de0b6b3a764000090565b151560038110156138a6579056fea26469706673582212200cdec07dfc9762eaa17c4f0f9245367bd52be5ef454585280681ef44a1c2d38264736f6c634300081b0033",
  "linkReferences": {},
  "deployedLinkReferences": {}
}