{
  "_format": "hh-sol-artifact-1",
  "contractName": "ReClammPoolFactory",
  "sourceName": "contracts/ReClammPoolFactory.sol",
  "abi": [
    {
      "inputs": [
        {
          "internalType": "contract IVault",
          "name": "vault",
          "type": "address"
        },
        {
          "internalType": "uint32",
          "name": "pauseWindowDuration",
          "type": "uint32"
        },
        {
          "internalType": "string",
          "name": "factoryVersion",
          "type": "string"
        },
        {
          "internalType": "string",
          "name": "poolVersion",
          "type": "string"
        }
      ],
      "stateMutability": "nonpayable",
      "type": "constructor"
    },
    {
      "inputs": [],
      "name": "CodeDeploymentFailed",
      "type": "error"
    },
    {
      "inputs": [],
      "name": "Create2EmptyBytecode",
      "type": "error"
    },
    {
      "inputs": [],
      "name": "Disabled",
      "type": "error"
    },
    {
      "inputs": [],
      "name": "FailedDeployment",
      "type": "error"
    },
    {
      "inputs": [],
      "name": "IndexOutOfBounds",
      "type": "error"
    },
    {
      "inputs": [
        {
          "internalType": "uint256",
          "name": "balance",
          "type": "uint256"
        },
        {
          "internalType": "uint256",
          "name": "needed",
          "type": "uint256"
        }
      ],
      "name": "InsufficientBalance",
      "type": "error"
    },
    {
      "inputs": [],
      "name": "MaxTokens",
      "type": "error"
    },
    {
      "inputs": [],
      "name": "PoolPauseWindowDurationOverflow",
      "type": "error"
    },
    {
      "inputs": [],
      "name": "SenderNotAllowed",
      "type": "error"
    },
    {
      "inputs": [],
      "name": "StandardPoolWithCreator",
      "type": "error"
    },
    {
      "inputs": [],
      "name": "VaultNotSet",
      "type": "error"
    },
    {
      "anonymous": false,
      "inputs": [],
      "name": "FactoryDisabled",
      "type": "event"
    },
    {
      "anonymous": false,
      "inputs": [
        {
          "indexed": true,
          "internalType": "address",
          "name": "pool",
          "type": "address"
        }
      ],
      "name": "PoolCreated",
      "type": "event"
    },
    {
      "inputs": [
        {
          "internalType": "string",
          "name": "name",
          "type": "string"
        },
        {
          "internalType": "string",
          "name": "symbol",
          "type": "string"
        },
        {
          "components": [
            {
              "internalType": "contract IERC20",
              "name": "token",
              "type": "address"
            },
            {
              "internalType": "enum TokenType",
              "name": "tokenType",
              "type": "uint8"
            },
            {
              "internalType": "contract IRateProvider",
              "name": "rateProvider",
              "type": "address"
            },
            {
              "internalType": "bool",
              "name": "paysYieldFees",
              "type": "bool"
            }
          ],
          "internalType": "struct TokenConfig[]",
          "name": "tokens",
          "type": "tuple[]"
        },
        {
          "components": [
            {
              "internalType": "address",
              "name": "pauseManager",
              "type": "address"
            },
            {
              "internalType": "address",
              "name": "swapFeeManager",
              "type": "address"
            },
            {
              "internalType": "address",
              "name": "poolCreator",
              "type": "address"
            }
          ],
          "internalType": "struct PoolRoleAccounts",
          "name": "roleAccounts",
          "type": "tuple"
        },
        {
          "internalType": "uint256",
          "name": "swapFeePercentage",
          "type": "uint256"
        },
        {
          "internalType": "uint256",
          "name": "initialMinPrice",
          "type": "uint256"
        },
        {
          "internalType": "uint256",
          "name": "initialMaxPrice",
          "type": "uint256"
        },
        {
          "internalType": "uint256",
          "name": "initialTargetPrice",
          "type": "uint256"
        },
        {
          "internalType": "uint256",
          "name": "priceShiftDailyRate",
          "type": "uint256"
        },
        {
          "internalType": "uint64",
          "name": "centerednessMargin",
          "type": "uint64"
        },
        {
          "internalType": "bytes32",
          "name": "salt",
          "type": "bytes32"
        }
      ],
      "name": "create",
      "outputs": [
        {
          "internalType": "address",
          "name": "pool",
          "type": "address"
        }
      ],
      "stateMutability": "nonpayable",
      "type": "function"
    },
    {
      "inputs": [],
      "name": "disable",
      "outputs": [],
      "stateMutability": "nonpayable",
      "type": "function"
    },
    {
      "inputs": [
        {
          "internalType": "bytes4",
          "name": "selector",
          "type": "bytes4"
        }
      ],
      "name": "getActionId",
      "outputs": [
        {
          "internalType": "bytes32",
          "name": "",
          "type": "bytes32"
        }
      ],
      "stateMutability": "view",
      "type": "function"
    },
    {
      "inputs": [],
      "name": "getAuthorizer",
      "outputs": [
        {
          "internalType": "contract IAuthorizer",
          "name": "",
          "type": "address"
        }
      ],
      "stateMutability": "view",
      "type": "function"
    },
    {
      "inputs": [],
      "name": "getCreationCode",
      "outputs": [
        {
          "internalType": "bytes",
          "name": "",
          "type": "bytes"
        }
      ],
      "stateMutability": "view",
      "type": "function"
    },
    {
      "inputs": [],
      "name": "getCreationCodeContracts",
      "outputs": [
        {
          "internalType": "address",
          "name": "contractA",
          "type": "address"
        },
        {
          "internalType": "address",
          "name": "contractB",
          "type": "address"
        }
      ],
      "stateMutability": "view",
      "type": "function"
    },
    {
      "inputs": [],
      "name": "getDefaultLiquidityManagement",
      "outputs": [
        {
          "components": [
            {
              "internalType": "bool",
              "name": "disableUnbalancedLiquidity",
              "type": "bool"
            },
            {
              "internalType": "bool",
              "name": "enableAddLiquidityCustom",
              "type": "bool"
            },
            {
              "internalType": "bool",
              "name": "enableRemoveLiquidityCustom",
              "type": "bool"
            },
            {
              "internalType": "bool",
              "name": "enableDonation",
              "type": "bool"
            }
          ],
          "internalType": "struct LiquidityManagement",
          "name": "liquidityManagement",
          "type": "tuple"
        }
      ],
      "stateMutability": "pure",
      "type": "function"
    },
    {
      "inputs": [],
      "name": "getDefaultPoolHooksContract",
      "outputs": [
        {
          "internalType": "address",
          "name": "",
          "type": "address"
        }
      ],
      "stateMutability": "pure",
      "type": "function"
    },
    {
      "inputs": [
        {
          "internalType": "bytes",
          "name": "constructorArgs",
          "type": "bytes"
        },
        {
          "internalType": "bytes32",
          "name": "salt",
          "type": "bytes32"
        }
      ],
      "name": "getDeploymentAddress",
      "outputs": [
        {
          "internalType": "address",
          "name": "",
          "type": "address"
        }
      ],
      "stateMutability": "view",
      "type": "function"
    },
    {
      "inputs": [],
      "name": "getNewPoolPauseWindowEndTime",
      "outputs": [
        {
          "internalType": "uint32",
          "name": "",
          "type": "uint32"
        }
      ],
      "stateMutability": "view",
      "type": "function"
    },
    {
      "inputs": [],
      "name": "getOriginalPauseWindowEndTime",
      "outputs": [
        {
          "internalType": "uint32",
          "name": "",
          "type": "uint32"
        }
      ],
      "stateMutability": "view",
      "type": "function"
    },
    {
      "inputs": [],
      "name": "getPauseWindowDuration",
      "outputs": [
        {
          "internalType": "uint32",
          "name": "",
          "type": "uint32"
        }
      ],
      "stateMutability": "view",
      "type": "function"
    },
    {
      "inputs": [],
      "name": "getPoolCount",
      "outputs": [
        {
          "internalType": "uint256",
          "name": "",
          "type": "uint256"
        }
      ],
      "stateMutability": "view",
      "type": "function"
    },
    {
      "inputs": [],
      "name": "getPoolVersion",
      "outputs": [
        {
          "internalType": "string",
          "name": "",
          "type": "string"
        }
      ],
      "stateMutability": "view",
      "type": "function"
    },
    {
      "inputs": [],
      "name": "getPools",
      "outputs": [
        {
          "internalType": "address[]",
          "name": "",
          "type": "address[]"
        }
      ],
      "stateMutability": "view",
      "type": "function"
    },
    {
      "inputs": [
        {
          "internalType": "uint256",
          "name": "start",
          "type": "uint256"
        },
        {
          "internalType": "uint256",
          "name": "count",
          "type": "uint256"
        }
      ],
      "name": "getPoolsInRange",
      "outputs": [
        {
          "internalType": "address[]",
          "name": "pools",
          "type": "address[]"
        }
      ],
      "stateMutability": "view",
      "type": "function"
    },
    {
      "inputs": [],
      "name": "getVault",
      "outputs": [
        {
          "internalType": "contract IVault",
          "name": "",
          "type": "address"
        }
      ],
      "stateMutability": "view",
      "type": "function"
    },
    {
      "inputs": [],
      "name": "isDisabled",
      "outputs": [
        {
          "internalType": "bool",
          "name": "",
          "type": "bool"
        }
      ],
      "stateMutability": "view",
      "type": "function"
    },
    {
      "inputs": [
        {
          "internalType": "address",
          "name": "pool",
          "type": "address"
        }
      ],
      "name": "isPoolFromFactory",
      "outputs": [
        {
          "internalType": "bool",
          "name": "",
          "type": "bool"
        }
      ],
      "stateMutability": "view",
      "type": "function"
    },
    {
      "inputs": [],
      "name": "version",
      "outputs": [
        {
          "internalType": "string",
          "name": "",
          "type": "string"
        }
      ],
      "stateMutability": "view",
      "type": "function"
    }
  ],
  "bytecode": "0x610180604052346100aa5761001e61001561013d565b92919091610385565b60405161186d90816105e38239608051818181610211015261141f015260a051816113a9015260c0518181816102350152611444015260e051816113ca0152610100518161130401526101205181818161032e01528181610d0b01528181610d9f0152818161118f015261161901526101405181610c6b015261016051818181610e4001526113710152f35b5f80fd5b634e487b7160e01b5f52604160045260245ffd5b6040519190601f01601f191682016001600160401b038111838210176100e757604052565b6100ae565b81601f820112156100aa578051906001600160401b0382116100e75761011b601f8301601f19166020016100c2565b92828452602083830101116100aa57815f9260208093018386015e8301015290565b618d03908138038061014e816100c2565b9384398201906080838303126100aa578251906001600160a01b03821682036100aa5760208401519363ffffffff851685036100aa5760408101516001600160401b0394908581116100aa57816101a69184016100ec565b9460608301519081116100aa576101bd92016100ec565b9193929190565b90600182811c921680156101f2575b60208310146101de57565b634e487b7160e01b5f52602260045260245ffd5b91607f16916101d3565b601f8111610208575050565b60035f5260205f20906020601f840160051c83019310610242575b601f0160051c01905b818110610237575050565b5f815560010161022c565b9091508190610223565b601f8111610258575050565b60045f5260205f20906020601f840160051c83019310610292575b601f0160051c01905b818110610287575050565b5f815560010161027c565b9091508190610273565b80519091906001600160401b0381116100e7576102c3816102be6004546101c4565b61024c565b602080601f8311600114610304575081906102f493945f926102f9575b50508160011b915f199060031b1c19161790565b600455565b015190505f806102e0565b60045f52601f198316949091907f8a35acfbc15ff81a39ae7d344fd709f28e8600b4aa8c65c6b64bfe7fe36bd19b925f905b87821061036d575050836001959610610355575b505050811b01600455565b01515f1960f88460031b161c191690555f808061034a565b80600185968294968601518155019501930190610336565b929192616eb3610397602082016100c2565b90808252611e5060208301398051908160011c918260a05282810392818411610450578360e0528083526103ca83610553565b60805282019182519383526103de836105a2565b60c052525230610100526001600160a01b03811615610441576101205263ffffffff9261040d84831642610464565b93808511610432576104309461042b93610140521661016052610476565b61029c565b565b6368755a1160e01b5f5260045ffd5b630647140b60e51b5f5260045ffd5b634e487b7160e01b5f52601160045260245ffd5b9190820180921161047157565b610450565b80519091906001600160401b0381116100e75761049d816104986003546101c4565b6101fc565b602080601f83116001146104d2575081906104cd93945f926102f95750508160011b915f199060031b1c19161790565b600355565b60035f52601f198316949091907fc2575a0e9e593c00f959f8c92f12db2869c3395a3b0502d05e2516446f71f85b925f905b87821061053b575050836001959610610523575b505050811b01600355565b01515f1960f88460031b161c191690555f8080610518565b80600185968294968601518155019501930190610504565b9081517f602038038060206000396000f3fefefefefefefefefefefefefefefefefefefe835260208101835ff092526001600160a01b0382161561059357565b63fef8220760e01b5f5260045ffd5b9081517f60fe600053602038038060206001396001016000f3fefefefefefefefefefefe835260208101835ff092526001600160a01b038216156105935756fe60806040526004361015610011575f80fd5b5f3560e01c8062c194db14610153578063174481fa1461014e578063193ad50f146101495780632f2770db146101445780633f819b6f1461013f57806344f6fec71461013a5780634e40aca91461013557806353a72f7e1461013057806354fd4d501461012b5780636634b75314610126578063673a2a1f146101215780636c57f5a91461011c57806378da80cb14610117578063851c1bb3146101125780638d928af81461010d5780638eec5d7014610108578063aaabadc514610103578063db035ebc146100fe578063e9d56e19146100f95763ec888061146100f4575f80fd5b610e64565b610e24565b610dfc565b610d4c565b610d2f565b610cdf565b610c8f565b610c4f565b610c2d565b610b92565b610b45565b610a0d565b6108ee565b6107d7565b610570565b61046e565b6102ab565b61025c565b6101e5565b61018b565b5f91031261016257565b5f80fd5b90601f19601f602080948051918291828752018686015e5f8582860101520116010190565b34610162575f600319360112610162576040516020810181811067ffffffffffffffff8211176101e0576101dc916101c8916040525f81526113a6565b604051918291602083526020830190610166565b0390f35b610489565b34610162575f600319360112610162576040805173ffffffffffffffffffffffffffffffffffffffff807f00000000000000000000000000000000000000000000000000000000000000001682527f0000000000000000000000000000000000000000000000000000000000000000166020820152f35b34610162575f600319360112610162576080610276610e7e565b6102a960405180926060809180511515845260208101511515602085015260408101511515604085015201511515910152565bf35b34610162575f600319360112610162576102e77fffffffff000000000000000000000000000000000000000000000000000000005f35166112d9565b73ffffffffffffffffffffffffffffffffffffffff604051917faaabadc50000000000000000000000000000000000000000000000000000000083526020928381600481867f0000000000000000000000000000000000000000000000000000000000000000165afa80156104265784926103ad925f9261042b575b506040517f9be2a884000000000000000000000000000000000000000000000000000000008152600481019190915233602482015230604482015293849283919082906064820190565b0392165afa918215610426575f926103f9575b5050156103d1576103cf610ea2565b005b7f23dada53000000000000000000000000000000000000000000000000000000005f5260045ffd5b6104189250803d1061041f575b61041081836104e6565b810190611822565b5f806103c0565b503d610406565b611364565b61044c919250843d8611610453575b61044481836104e6565b81019061134f565b905f610363565b503d61043a565b90602061046b928181520190610166565b90565b34610162575f600319360112610162576101dc6101c8610efb565b7f4e487b71000000000000000000000000000000000000000000000000000000005f52604160045260245ffd5b6080810190811067ffffffffffffffff8211176101e057604052565b67ffffffffffffffff81116101e057604052565b90601f601f19910116810190811067ffffffffffffffff8211176101e057604052565b60405190610100820182811067ffffffffffffffff8211176101e057604052565b92919267ffffffffffffffff82116101e057604051916105546020601f19601f84011601846104e6565b829481845281830111610162578281602093845f960137010152565b346101625760406003193601126101625760043567ffffffffffffffff811161016257366023820112156101625773ffffffffffffffffffffffffffffffffffffffff6055600b6105ce6101dc94369060248160040135910161052a565b6105e26105dc6024356114a0565b916113a6565b602081519101209060405191604083015260208201523081520160ff815320166040519182918291909173ffffffffffffffffffffffffffffffffffffffff6020820193169052565b9080601f830112156101625781602061046b9335910161052a565b67ffffffffffffffff81116101e05760051b60200190565b73ffffffffffffffffffffffffffffffffffffffff81160361016257565b8015150361016257565b9080601f830112156101625781359160206106a084610646565b936040936106b160405196876104e6565b818652828087019260071b85010193818511610162578301915b8483106106db5750505050505090565b608083830312610162578551906106f1826104b6565b83356106fc8161065e565b82528484013590600282101561016257828692836080950152888601356107228161065e565b89820152606080870135906107368261067c565b8201528152019201916106cb565b7fffffffffffffffffffffffffffffffffffffffffffffffffffffffffffffff9c606091011261016257604051906060820182811067ffffffffffffffff8211176101e057604052816064356107998161065e565b81526084356107a78161065e565b6020820152604060a435916107bb8361065e565b0152565b610164359067ffffffffffffffff8216820361016257565b34610162576101a06003193601126101625767ffffffffffffffff6004358181116101625761080a90369060040161062b565b906024358181116101625761082390369060040161062b565b604435918211610162576101dc92610842610876933690600401610686565b9061084c36610744565b6108546107bf565b92610184359461014435936101243593610104359360e4359360c435936110c8565b60405173ffffffffffffffffffffffffffffffffffffffff90911681529081906020820190565b60209060206040818301928281528551809452019301915f5b8281106108c4575050505090565b835173ffffffffffffffffffffffffffffffffffffffff16855293810193928101926001016108b6565b346101625760406003193601126101625760043560243590600191600154808310156109e5578183018084116109e05781106109cf575b5061092f81610646565b9161093d60405193846104e6565b818352601f1961094c83610646565b013660208501375f5b82811061096a57604051806101dc868261089d565b806109c96109a461098461097f899587611251565b61128b565b905473ffffffffffffffffffffffffffffffffffffffff9160031b1c1690565b6109ae83886112c5565b9073ffffffffffffffffffffffffffffffffffffffff169052565b01610955565b828103915081116109e0575f610925565b611224565b7f4e23d035000000000000000000000000000000000000000000000000000000005f5260045ffd5b34610162575f600319360112610162576040515f60035460018160011c9160018116918215610b3b575b602091602085108414610b0e578487526020870193908115610ad15750600114610a78575b6101dc86610a6c818803826104e6565b6040519182918261045a565b60035f90815294509192917fc2575a0e9e593c00f959f8c92f12db2869c3395a3b0502d05e2516446f71f85b5b838610610ac05750505091019050610a6c826101dc5f610a5c565b805485870152948201948101610aa5565b7fffffffffffffffffffffffffffffffffffffffffffffffffffffffffffffff0016845250505090151560051b019050610a6c826101dc5f610a5c565b7f4e487b71000000000000000000000000000000000000000000000000000000005f52602260045260245ffd5b92607f1692610a37565b346101625760206003193601126101625773ffffffffffffffffffffffffffffffffffffffff600435610b778161065e565b165f525f602052602060ff60405f2054166040519015158152f35b34610162575f60031936011261016257604051806001916001549283825260208092019360015f527fb10e2d527612073b26eecdfd717e6a320cf44b4afac2b0732d9fcbe2b7fa0cf6925f905b828210610c02576101dc86610bf6818a03826104e6565b6040519182918261089d565b845473ffffffffffffffffffffffffffffffffffffffff168752958601959383019390830190610bdf565b34610162575f60031936011261016257602060ff600254166040519015158152f35b34610162575f60031936011261016257602060405163ffffffff7f0000000000000000000000000000000000000000000000000000000000000000168152f35b34610162576020600319360112610162576004357fffffffff000000000000000000000000000000000000000000000000000000008116810361016257610cd76020916112d9565b604051908152f35b34610162575f60031936011261016257602060405173ffffffffffffffffffffffffffffffffffffffff7f0000000000000000000000000000000000000000000000000000000000000000168152f35b34610162575f600319360112610162576020600154604051908152f35b34610162575f600319360112610162576040517faaabadc500000000000000000000000000000000000000000000000000000000815273ffffffffffffffffffffffffffffffffffffffff6020826004817f000000000000000000000000000000000000000000000000000000000000000085165afa908115610426576020925f92610ddd575b5060405191168152f35b610df5919250833d85116104535761044481836104e6565b905f610dd3565b34610162575f600319360112610162576020610e1661136f565b63ffffffff60405191168152f35b34610162575f60031936011261016257602060405163ffffffff7f0000000000000000000000000000000000000000000000000000000000000000168152f35b34610162575f6003193601126101625760206040515f8152f35b60405190610e8b826104b6565b5f6060838281528260208201528260408201520152565b610eaa61146c565b60017fffffffffffffffffffffffffffffffffffffffffffffffffffffffffffffff0060025416176002557f432acbfd662dbb5d8b378384a67159b47ca9d0f1b79f97cf64cf8585fa362d505f80a1565b604051905f6004546001918160011c9260018316908115610fed575b602090602086108314610b0e5785885287946020860193908115610faf5750600114610f4f575b505050610f4d925003836104e6565b565b925093610f7d60045f527f8a35acfbc15ff81a39ae7d344fd709f28e8600b4aa8c65c6b64bfe7fe36bd19b90565b945f935b828510610f9957505050610f4d9350015f8080610f3e565b8654858501529586019588955093810193610f81565b915050610f4d959293507fffffffffffffffffffffffffffffffffffffffffffffffffffffffffffffff009150168252151560051b015f8080610f3e565b93607f1693610f17565b92916020610f4d926040865260e0815191611072611023610100948560408c01526101408b0190610166565b61105d86840151917fffffffffffffffffffffffffffffffffffffffffffffffffffffffffffffffc0928c60608582850301910152610166565b906040840151908b83030160808c0152610166565b606082015160a08a0152608082015167ffffffffffffffff1660c08a01529260a0820151838a015260c082015190890152015161012087015294019073ffffffffffffffffffffffffffffffffffffffff169052565b90949791969a99939a9892959873ffffffffffffffffffffffffffffffffffffffff61110b604089015173ffffffffffffffffffffffffffffffffffffffff1690565b166111fc5760028851116111d457610f4d99611145996111786111b8966111c6966111cb9a611138610e7e565b5f6060820152600181529e565b61114d610509565b978852602088015261115d610efb565b6040880152606087015267ffffffffffffffff166080860152565b60a084015260c083015260e08201526040519283917f00000000000000000000000000000000000000000000000000000000000000009060208401610ff7565b03601f1981018352826104e6565b6114c9565b958692836115fa565b7f707bdf58000000000000000000000000000000000000000000000000000000005f5260045ffd5b7f61ee1764000000000000000000000000000000000000000000000000000000005f5260045ffd5b7f4e487b71000000000000000000000000000000000000000000000000000000005f52601160045260245ffd5b919082018092116109e057565b7f4e487b71000000000000000000000000000000000000000000000000000000005f52603260045260245ffd5b6001548110156112c05760015f527fb10e2d527612073b26eecdfd717e6a320cf44b4afac2b0732d9fcbe2b7fa0cf601905f90565b61125e565b80518210156112c05760209160051b010190565b6040517fffffffff0000000000000000000000000000000000000000000000000000000060208201927f00000000000000000000000000000000000000000000000000000000000000008452166040820152602481526060810181811067ffffffffffffffff8211176101e05760405251902090565b90816020910312610162575161046b8161065e565b6040513d5f823e3d90fd5b7f000000000000000000000000000000000000000000000000000000000000000063ffffffff81164210156113a15790565b505f90565b907f00000000000000000000000000000000000000000000000000000000000000007f0000000000000000000000000000000000000000000000000000000000000000808201908183116109e057845192838301958684116109e05760209260018480946040519a82818d01016040528b52805f838d017f00000000000000000000000000000000000000000000000000000000000000003c8a01017f00000000000000000000000000000000000000000000000000000000000000003c01918501015e565b60ff6002541661147857565b7f75884cda000000000000000000000000000000000000000000000000000000005f5260045ffd5b60405160208101913383524660408301526060820152606081526114c3816104b6565b51902090565b906105dc6114d6916114a0565b8051156115d2576020815191015ff5903d15198215166113645773ffffffffffffffffffffffffffffffffffffffff918281169081156115aa579261151961146c565b815f525f60205260405f2060017fffffffffffffffffffffffffffffffffffffffffffffffffffffffffffffff00825416179055600154680100000000000000008110156101e057806001611571920160015561128b565b819291549060031b9184831b921b19161790557f83a48fbcfc991335314e74d0496aab6a1987e992ddc85dddbcc4d6dd6ef2e9fc5f80a2565b7fb06ebf3d000000000000000000000000000000000000000000000000000000005f5260045ffd5b7f4ca249dc000000000000000000000000000000000000000000000000000000005f5260045ffd5b92949193909473ffffffffffffffffffffffffffffffffffffffff93847f0000000000000000000000000000000000000000000000000000000000000000169561164261136f565b91873b156101625797959493929190604095604051998a987feeec802f000000000000000000000000000000000000000000000000000000008a526004836101a48c01931660048c015260246101a060248d015282518094526101c48c019a6020809401955f935b86851061179857505050505050505086946117425f9997939561172488966116e58d996117749760448b015260648a019063ffffffff169052565b88608489015260a48801906040908173ffffffffffffffffffffffffffffffffffffffff91828151168552826020820151166020860152015116910152565b73ffffffffffffffffffffffffffffffffffffffff16610104860152565b805115156101248501526020810151151561014485015260408101511515610164850152606001511515610184840152565b03925af18015610426576117855750565b80611792610f4d926104d2565b80610158565b9193959798999a9b9c90929496809e50518381511682528781015160028110156117f75782899260809284600196015286888201511688830152606080910151151590820152019e0195019290918f9d9c9b9a999897959694926116aa565b866021857f4e487b71000000000000000000000000000000000000000000000000000000005f52525ffd5b90816020910312610162575161046b8161067c56fea2646970667358221220a8899c6003a4e9d6dbd68270cc12669b3a2a565b29eb6bcc492e9173f0bd469364736f6c634300081b00336102a0806040523461082a57616eb3803803809161001d828561082e565b8339810160408282031261082a5781516001600160401b03811161082a578201916101008383031261082a576040519261010084016001600160401b0381118582101761073e5760405280516001600160401b03811161082a5783610083918301610851565b845260208101516001600160401b03811161082a57836100a4918301610851565b60208501908152604082015190936001600160401b03821161082a576100cb918301610851565b9182604086015260608201516060860152608082015160018060401b038116810361082a5760209260e091608088015260a081015160a088015260c081015160c0880152015160e086015201519260018060a01b038416840361082a5780519251926040519485604081011060018060401b0360408801111761073e57604086016040526001908187526020870195603160f81b875261016a846108a6565b9761012098895261017a81610a29565b9761014098895285516020870120918260e05251902080610100524660a0526040519060208201927f8b73c3c69bb8fe3d512ecc4cf759cc79239f7b179b0ffacaa9a75d522b39400f8452604083015260608201524660808201523060a082015260a0815260c0810181811060018060401b0382111761073e576040525190206080523060c0526101608281528451909690936001600160401b03851161073e576003948554968288811c98168015610820575b602089101461080c578190601f988981116107bc575b5060209089831160011461075d575f92610752575b50505f1982881b1c191690821b1785555b82516001600160401b03811161073e5760049384548381811c91168015610734575b6020821014610721579081898493116106d1575b50602090898311600114610672575f92610667575b50505f1982881b1c191690821b1783555b610180848152336101a0908152909690956001600160a01b03861615610659576101c09586528351916001600160401b0383116106465760059485548581811c9116801561063c575b6020821014610629578281116105e6575b506020918411600114610583579383949184925f95610578575b50501b925f19911b1c19161790555b60a085015115801561056c575b61055e575060a08401519061020091825260c08501519261022093845260e086015194610240958652606087015196610260978852608060018060401b039101511697610280988952604051996163539b8c610b608d396080518c614b7b015260a0518c614c47015260c0518c614b4c015260e0518c614bca0152610100518c614bf00152518b6114490152518a6114720152518981816104b901528181610770015281816109e001528181610b1801528181610fcf015281816113c8015281816115460152818161185801528181611e9801528181611f95015281816122a6015281816123ed01528181612666015281816126d4015281816127460152818161286801528181612b4401528181613339015281816137d101528181613d7a01528181613e4a015281816140cd015281816145b3015281816147aa0152818161490a01528181614a580152614dad01525188818161094201528181610cf601528181610db001528181610ee8015261175001525187613cf701525186818161031601528181611e21015281816132c20152613f8b01526101e051865050518581816108b6015281816116820152818161190a0152612bfa015251848181610895015281816116a3015281816119300152612c1c015251838181610874015281816119560152612c3e01525182818161197c0152612e4e0152518181816119a20152612e770152f35b6359e6ae3360e11b5f908152fd5b5060e085015115610356565b015193505f8061033a565b9190601f19841692865f528460205f20945f5b888282106105cd575050106105b4575b50505050811b019055610349565b01519060f8845f19921b161c191690555f8080806105a6565b8486015188559096019560209485019488935001610596565b865f5260205f2083808701891c82019260208810610620575b01881c019086905b828110610615575050610320565b5f8155018690610607565b925081926105ff565b602288634e487b7160e01b5f525260245ffd5b90607f169061030f565b604186634e487b7160e01b5f525260245ffd5b84630647140b60e51b5f525ffd5b015190505f806102b5565b90849350601f19831691875f5260205f20925f5b8181106106b9575084116106a2575b505050811b0183556102c6565b01515f19838a1b60f8161c191690555f8080610695565b82840151855587969094019360209384019301610686565b909150855f5260205f208980850160051c82019260208610610718575b918691869594930160051c01915b82811061070a5750506102a0565b5f81558594508691016106fc565b925081926106ee565b602286634e487b7160e01b5f525260245ffd5b90607f169061028c565b634e487b7160e01b5f52604160045260245ffd5b015190505f80610259565b90849350601f19831691895f5260205f20925f5b8181106107a45750841161078d575b505050811b01855561026a565b01515f19838a1b60f8161c191690555f8080610780565b82840151855587969094019360209384019301610771565b909150875f5260205f208980850160051c82019260208610610803575b918691869594930160051c01915b8281106107f5575050610244565b5f81558594508691016107e7565b925081926107d9565b634e487b7160e01b5f52602260045260245ffd5b97607f169761022e565b5f80fd5b601f909101601f19168101906001600160401b0382119082101761073e57604052565b81601f8201121561082a578051906001600160401b03821161073e5760405192610885601f8401601f19166020018561082e565b8284526020838301011161082a57815f9260208093018386015e8301015290565b80516020908181101561091c5750601f8251116108de57808251920151908083106108d057501790565b825f19910360031b1b161790565b60448260405192839163305a27a960e01b83528160048401528051918291826024860152018484015e5f828201840152601f01601f19168101030190fd5b906001600160401b03821161073e575f54926001938481811c91168015610a1f575b8382101461080c57601f81116109ec575b5081601f841160011461098a57509282939183925f9461097f575b50501b915f199060031b1c1916175f5560ff90565b015192505f8061096a565b919083601f1981165f8052845f20945f905b888383106109d257505050106109ba575b505050811b015f5560ff90565b01515f1960f88460031b161c191690555f80806109ad565b85870151885590960195948501948793509081019061099c565b5f805284601f845f20920160051c820191601f860160051c015b828110610a1457505061094f565b5f8155018590610a06565b90607f169061093e565b805160209081811015610a535750601f8251116108de57808251920151908083106108d057501790565b9192916001600160401b03811161073e5760019182548381811c91168015610b55575b8282101461080c57601f8111610b22575b5080601f8311600114610ac25750819293945f92610ab7575b50505f19600383901b1c191690821b17905560ff90565b015190505f80610aa0565b90601f19831695845f52825f20925f905b888210610b0b5750508385969710610af3575b505050811b01905560ff90565b01515f1960f88460031b161c191690555f8080610ae6565b808785968294968601518155019501930190610ad3565b835f5283601f835f20920160051c820191601f850160051c015b828110610b4a575050610a87565b5f8155018490610b3c565b90607f1690610a7656fe6080806040526004361015610012575f80fd5b5f3560e01c90816301ffc9a7146133a0575080630673d09a1461325d57806306fdde03146131b4578063095ea7b3146131445780630b89f18214612fda578063105ae7ad14612fab57806316a0b3e014612f5157806318160ddd14612f3757806318b6eb5514612ef75780631c149e2814612ba55780631d8a5e7e14612b7b57806323b872dd14612ae057806323de665114612aaf578063273c1adf14610ca65780632754888d14612a465780632c3576881461259557806330adf81f1461255b578063313ce567146125405780633644e51514612526578063378997701461250357806338be241d146124b857806345421ec7146123215780634f149b3f1461225b5780635211fa771461221857806354fd4d501461216f5780635687f2b81461211b578063569ee350146120f9578063627cdcb9146120d0578063654cf15d146120ae578063679aefce146120765780636bd838c714611ffb57806370a0823114611f3557806371870e1014611dc457806372c9818614611b455780637ecebe0014611b0d5780637f118b90146117c757806381fa807c1461170157806384254cf91461152c57806384b0196e14611434578063851c1bb3146113ec5780638d928af8146113a957806395d89b41146112ad578063976907cc146111f5578063984de9e8146110b9578063a0e8f5ac14611071578063a3af636d14611040578063a9059cbb14610f52578063aa6ca80814610e9d578063abb1dc4414610d64578063b156aa0a14610cab578063b677fa5614610ca6578063ba5f9f4014610a4c578063cd80a1af14610995578063ce20ece71461097b578063d335b0cf146108f6578063d48ef3771461085a578063d505accf146105e3578063d77153a714610526578063dd62ed3e14610449578063dfba3818146104255763e66f2ef0146102bb575f80fd5b34610421576060600319360112610421576044356024356102da613d3e565b6040517fe9ddeb260000000000000000000000000000000000000000000000000000000081523060048201526001600160a01b036060826024817f000000000000000000000000000000000000000000000000000000000000000085165afa91821561041657610358926020915f916103e7575b5001511630613f1a565b8042118142180218818110156103b9576154606103758284613d31565b10610391576103896020928260043561442e565b604051908152f35b7f33f1d0aa000000000000000000000000000000000000000000000000000000005f5260045ffd5b7f7d0356f3000000000000000000000000000000000000000000000000000000005f5260045260245260445ffd5b610409915060603d60601161040f575b61040181836134de565b8101906136f1565b5f61034e565b503d6103f7565b6040513d5f823e3d90fd5b5f80fd5b34610421575f60031936011261042157602061043f614d72565b6040519015158152f35b346104215760406003193601126104215761046261342d565b602061046c613443565b9160646001600160a01b0391828060405196879586947f927da1050000000000000000000000000000000000000000000000000000000086523060048701521660248501521660448301527f0000000000000000000000000000000000000000000000000000000000000000165afa8015610416575f906104f3575b602090604051908152f35b506020813d60201161051e575b8161050d602093836134de565b8101031261042157602090516104e8565b3d9150610500565b34610421575f6003193601126104215761014060405161054581613475565b5f81526020810190604081015f8152606082015f815260808301905f825260a084015f815260c0850160e08601915f83526101009485880194610120809901975f895260018b5260018552600187526040519a5f8c5251151560208c015251151560408b015251151560608a0152511515608089015251151560a088015251151560c087015251151560e08601525115159084015251151590820152f35b346104215760e0600319360112610421576105fc61342d565b610604613443565b90604435916064359160843560ff811681036104215783421161082e57610645826001600160a01b03165f52600260205260405f2080549060018201905590565b9060405160208101917f6e71edae12b1b97f4d1f60370fef10105fa2faae0126114a169c64845d6126c983526001600160a01b039687861694856040850152888816606085015289608085015260a084015260c083015260c0825260e082019082821067ffffffffffffffff83111761080157879361071b93610712936040525190206106d0614b42565b90604051917f190100000000000000000000000000000000000000000000000000000000000083526002830152602282015260c43591604260a4359220615756565b909291926157d8565b168181036107d3576040517fe1f21c670000000000000000000000000000000000000000000000000000000081526001600160a01b03848116600483015285166024820152604481018790526020816064815f7f00000000000000000000000000000000000000000000000000000000000000008b165af180156104165761079f57005b6020813d6020116107cb575b816107b8602093836134de565b81010312610421576107c990613788565b005b3d91506107ab565b7f4b800e46000000000000000000000000000000000000000000000000000000005f5260045260245260445ffd5b7f4e487b71000000000000000000000000000000000000000000000000000000005f52604160045260245ffd5b837f62791302000000000000000000000000000000000000000000000000000000005f5260045260245ffd5b34610421575f6003193601126104215760206103896108da7f00000000000000000000000000000000000000000000000000000000000000007f00000000000000000000000000000000000000000000000000000000000000007f0000000000000000000000000000000000000000000000000000000000000000614169565b50506108ef6108e882613833565b5191613870565b51906142e3565b34610421575f600319360112610421576040517fb45090f90000000000000000000000000000000000000000000000000000000081523060048201526020816024816001600160a01b037f0000000000000000000000000000000000000000000000000000000000000000165afa8015610416575f906104f357602090604051908152f35b34610421575f6003193601126104215760206040515f8152f35b34610421575f600319360112610421576040517f67e0e0760000000000000000000000000000000000000000000000000000000081523060048201525f816024816001600160a01b037f0000000000000000000000000000000000000000000000000000000000000000165afa90811561041657602091610389915f91610a26575b50610a20614121565b90614307565b610a4291503d805f833e610a3a81836134de565b810190613b2b565b9250505083610a17565b346104215760e060031936011261042157610a6561342d565b50610a6e613443565b600460443510156104215767ffffffffffffffff9060843582811161042157610a9b90369060040161354c565b5060a43582811161042157610ab490369060040161354c565b9160c43590811161042157602491610ad260209236906004016135ac565b50610adb6140c3565b6040517fe4dc2aa40000000000000000000000000000000000000000000000000000000081526001600160a01b03918216600482015292839182907f0000000000000000000000000000000000000000000000000000000000000000165afa8015610416575f90610c72575b610b5491506064356156de565b610b5d82614c6d565b50610b6781613870565b5190670de0b6b3a76400009183830391838311610c455783610b8c84610bbb94613c82565b04610b9682613870565b5283610bab84610ba584613833565b51613c82565b04610bb582613833565b52614397565b610bc36149eb565b81610bcd85613870565b51931002809282610be564e8d4a51000958693613c82565b0410938415610c2a575b50505050610c0257602060405160018152f35b7f8cf25597000000000000000000000000000000000000000000000000000000005f5260045ffd5b610c3a92939450610ba590613833565b041081808080610bef565b7f4e487b71000000000000000000000000000000000000000000000000000000005f52601160045260245ffd5b506020813d602011610c9e575b81610c8c602093836134de565b8101031261042157610b549051610b47565b3d9150610c7f565b61097b565b34610421575f600319360112610421576040517f535cfd8a0000000000000000000000000000000000000000000000000000000081523060048201525f816024816001600160a01b037f0000000000000000000000000000000000000000000000000000000000000000165afa801561041657610d3e915f91610d42575b50604051918291602083526020830190613519565b0390f35b610d5e91503d805f833e610d5681836134de565b8101906138f2565b82610d29565b34610421575f600319360112610421576001600160a01b036040517f67e0e0760000000000000000000000000000000000000000000000000000000081523060048201525f81602481857f0000000000000000000000000000000000000000000000000000000000000000165afa8015610416575f915f935f915f93610e7c575b50610dfb6040519460808652608086019061366a565b6020858203818701528080885193848152019701925f905b838210610e40578780610d3e89610e328d8b8582036040870152613519565b908382036060850152613519565b909192939783606060019260408c518051610e5a816136a6565b8352808501518716858401520151151560408201520199019493920190610e13565b9250935050610e9591503d805f833e610a3a81836134de565b919385610de5565b34610421575f600319360112610421576040517fca4f28030000000000000000000000000000000000000000000000000000000081523060048201525f816024816001600160a01b037f0000000000000000000000000000000000000000000000000000000000000000165afa801561041657610d3e915f91610f30575b5060405191829160208352602083019061366a565b610f4c91503d805f833e610f4481836134de565b810190613c3f565b82610f1b565b3461042157604060031936011261042157610fc26020610f7061342d565b6040517fbeabacc80000000000000000000000000000000000000000000000000000000081523360048201526001600160a01b0390911660248083019190915235604482015291829081906064820190565b03815f6001600160a01b037f0000000000000000000000000000000000000000000000000000000000000000165af1801561041657611007575b602060405160018152f35b6020813d602011611038575b81611020602093836134de565b810103126104215761103190613788565b5080610ffc565b3d9150611013565b34610421575f6003193601126104215760206007546fffffffffffffffffffffffffffffffff60405191831c168152f35b3461042157600319606081360112610421576004359067ffffffffffffffff82116104215760e09136030112610421576110a9613443565b50604080515f81525f6020820152f35b346104215760406003193601126104215767ffffffffffffffff600435818111610421576110eb90369060040161354c565b9060243590600282101561042157611136600191611107614121565b90600754908160a01c16916fffffffffffffffffffffffffffffffff63ffffffff83169260201c169087615119565b5091611141816136a6565b036111ea5761117d6001915b61116961117661117061115f87613870565b5161116985613870565b5190613aad565b95613833565b5191613833565b90806002146111d8576001146111ba577f4e487b71000000000000000000000000000000000000000000000000000000005f52605160045260245ffd5b6111cf670de0b6b3a764000091602093613c82565b04604051908152f35b506111e590602092614e45565b610389565b61117d60029161114d565b34610421576101006003193601126104215761120f61342d565b50611218613443565b50600560443510156104215767ffffffffffffffff6064358181116104215761124590369060040161354c565b506084358181116104215761125e90369060040161354c565b60c4358281116104215761127690369060040161354c565b5060e43591821161042157611292610d3e9236906004016135ac565b506040519182915f8352604060208401526040830190613519565b34610421575f600319360112610421576040516004545f826112ce83613737565b91828252602093600190856001821691825f1461136b575050600114611310575b506112fc925003836134de565b610d3e604051928284938452830190613408565b84915060045f527f8a35acfbc15ff81a39ae7d344fd709f28e8600b4aa8c65c6b64bfe7fe36bd19b905f915b8583106113535750506112fc9350820101856112ef565b8054838901850152879450869390920191810161133c565b7fffffffffffffffffffffffffffffffffffffffffffffffffffffffffffffff0016858201526112fc95151560051b85010192508791506112ef9050565b34610421575f6003193601126104215760206040516001600160a01b037f0000000000000000000000000000000000000000000000000000000000000000168152f35b34610421576020600319360112610421576004357fffffffff000000000000000000000000000000000000000000000000000000008116810361042157610389602091613ccc565b34610421575f6003193601126104215761146d7f00000000000000000000000000000000000000000000000000000000000000006154ee565b6114967f0000000000000000000000000000000000000000000000000000000000000000615620565b9060405191602083019280841067ffffffffffffffff8511176108015761150c610d3e926114fe956040525f83526040519586957f0f00000000000000000000000000000000000000000000000000000000000000875260e0602088015260e0870190613408565b908582036040870152613408565b904660608501523060808501525f60a085015283820360c0850152613519565b34610421575f600319360112610421576001600160a01b037f0000000000000000000000000000000000000000000000000000000000000000166040517f532cec7c000000000000000000000000000000000000000000000000000000008152306004820152602081602481855afa908115610416575f916116c7575b501561167d575f602491604051928380927f67e0e0760000000000000000000000000000000000000000000000000000000082523060048301525afa8015610416576040915f9161165f575b5061165361160d61160583614c6d565b508093614d20565b670de0b6b3a764000061164c61163f8361163a61162988613833565b5161163389613833565b5190613c82565b613c95565b946116336108e882613870565b04906142e3565b82519182526020820152f35b61167391503d805f833e610a3a81836134de565b92505050826115f5565b5060407f00000000000000000000000000000000000000000000000000000000000000007f0000000000000000000000000000000000000000000000000000000000000000611653565b90506020813d6020116116f9575b816116e2602093836134de565b81010312610421576116f390613788565b826115a9565b3d91506116d5565b34610421575f600319360112610421576040517ff29486a10000000000000000000000000000000000000000000000000000000081523060048201526101a09081816024816001600160a01b037f0000000000000000000000000000000000000000000000000000000000000000165afa908115610416576040925f9261179a575b505060608282015191015182519182526020820152f35b6117b99250803d106117c0575b6117b181836134de565b8101906139a4565b8280611783565b503d6117a7565b34610421575f600319360112610421576040516101c0810181811067ffffffffffffffff8211176108015760405260608152606060208201525f60408201525f60608201525f60808201525f60a08201525f60c08201525f60e08201525f6101008201525f6101208201525f6101408201525f6101608201525f6101808201525f6101a08201526001600160a01b037f0000000000000000000000000000000000000000000000000000000000000000166040517fca4f28030000000000000000000000000000000000000000000000000000000081523060048201525f81602481855afa918215610416576024925f928391611af3575b508452604051928380927f7e361bde0000000000000000000000000000000000000000000000000000000082523060048301525afa908115610416575f91611ad0575b5060208201527f000000000000000000000000000000000000000000000000000000000000000060408201527f000000000000000000000000000000000000000000000000000000000000000060608201527f000000000000000000000000000000000000000000000000000000000000000060808201527f000000000000000000000000000000000000000000000000000000000000000060a08201527f000000000000000000000000000000000000000000000000000000000000000060c08201525f60e0820152670de0b6b3a764000061010082015264e8d4a510006101208201526103e880610140830152674563918244f400006101608301526154606101808301526101a08201526040518091602082526101a0611a4c611a3683516101c060208701526101e086019061366a565b6020840151601f19868303016040870152613637565b916040810151606085015260608101516080850152608081015160a085015260a081015160c085015260c081015160e085015260e08101516101008501526101008101516101208501526101208101516101408501526101408101516101608501526101608101516101808501526101808101518285015201516101c08301520390f35b611aec91503d805f833e611ae481836134de565b81019061391b565b5082611902565b611b0791503d8085833e610f4481836134de565b856118bf565b34610421576020600319360112610421576001600160a01b03611b2e61342d565b165f526002602052602060405f2054604051908152f35b34610421576003196020813601126104215760043567ffffffffffffffff918282116104215760e09082360301126104215760405160e081018181108482111761080157604052816004013560028110156104215781526020810160248301358152604483013584811161042157611bc3906004369186010161354c565b926040830193845260608301946064820135865260808401916084810135835260a48101356001600160a01b03811681036104215760a086015260c4810135918211610421576004611c1892369201016135ac565b60c0840152611c256140c3565b611c2f8451614c6d565b939093611db6575b611c3f6149eb565b51611c49816136a6565b611c52816136a6565b611d335783518551611c93835191611c8d8651611c88611c728a88614d53565b93611169611c80828a61387d565b51918c61387d565b613aad565b906156de565b90611cac611ca1828561387d565b51611169838961387d565b808311611d0b57611cc692611cc091613d31565b9261387d565b518111611ce3576020956103899482965194519151935194614cb4565b7fb413e252000000000000000000000000000000000000000000000000000000005f5260045ffd5b7f366eca71000000000000000000000000000000000000000000000000000000005f5260045ffd5b839492935192805195825194845197611d4c878361387d565b518911611ce357611d98611d9f83611d9884611cc06111e59c60209f8f90611d9382611169611d81611c8d95611da69f614d53565b95611d8c818c61387d565b519261387d565b613d31565b5190613d31565b918961387d565b9586915194519251935194614cb4565b611dbf84614397565b611c37565b3461042157602060031936011261042157611ddd613d3e565b611de5613e14565b6040517fe9ddeb260000000000000000000000000000000000000000000000000000000081523060048201526001600160a01b036060826024817f000000000000000000000000000000000000000000000000000000000000000085165afa90811561041657611e668160205f946024968691611f16575001511630613f1a565b604051928380927f67e0e0760000000000000000000000000000000000000000000000000000000082523060048301527f0000000000000000000000000000000000000000000000000000000000000000165afa801561041657611ed1915f91611ef8575b50614c6d565b611ee9575b611ede6149eb565b6107c96004356146fa565b611ef290614397565b80611ed6565b611f0c91503d805f833e610a3a81836134de565b9250505082611ecb565b611f2f915060603d60601161040f5761040181836134de565b8761034e565b346104215760208060031936011261042157604481611f5261342d565b6040517ff7888aec0000000000000000000000000000000000000000000000000000000081523060048201526001600160a01b03918216602482015292839182907f0000000000000000000000000000000000000000000000000000000000000000165afa908115610416575f91611fce575b50604051908152f35b90508181813d8311611ff4575b611fe581836134de565b81010312610421575182611fc5565b503d611fdb565b34610421575f600319360112610421575f606060405161201a81613459565b8281528260208201528260408201520152608061203561395f565b604051906bffffffffffffffffffffffff8082511683526020820151166020830152606060408201519163ffffffff80931660408501520151166060820152f35b34610421575f600319360112610421577f56b7fcdb000000000000000000000000000000000000000000000000000000005f5260045ffd5b34610421575f60031936011261042157602060405167016345785d8a00008152f35b34610421575f60031936011261042157335f908152600260205260409020805460018101909155005b34610421575f60031936011261042157602061038961211661395f565b614b00565b346104215760207f8c5be1e5ebec7d5bd14f71427d1e84f3dd0314c0f7b2291e5b200ac8c7c3b92561214c36613602565b929193906121586140c3565b6001600160a01b03809160405195865216941692a3005b34610421575f600319360112610421576040516005545f8261219083613737565b91828252602093600190856001821691825f1461136b5750506001146121bd57506112fc925003836134de565b84915060055f527f036b6384b5eca791c62761152d0c79bb0604c104a5fb6f4eb0703f3154bb3db0905f915b8583106122005750506112fc9350820101856112ef565b805483890185015287945086939092019181016121e9565b3461042157600319604081360112610421576004359067ffffffffffffffff82116104215760e0913603011261042157612250613443565b5060206040515f8152f35b34610421575f600319360112610421576040517f67e0e0760000000000000000000000000000000000000000000000000000000081523060048201525f816024816001600160a01b037f0000000000000000000000000000000000000000000000000000000000000000165afa908115610416576122f7916122e3915f916123035750614c6d565b604051928392604084526040840190613519565b90151560208301520390f35b61231791503d805f833e610a3a81836134de565b9250505083611ecb565b346104215760e06003193601126104215761233a61342d565b50612343613443565b600560443510156104215767ffffffffffffffff906064358281116104215761237090369060040161354c565b5060a4358281116104215761238990369060040161354c565b9160c435908111610421576024916123a760209236906004016135ac565b506123b06140c3565b6040517fe4dc2aa40000000000000000000000000000000000000000000000000000000081526001600160a01b03918216600482015292839182907f0000000000000000000000000000000000000000000000000000000000000000165afa908115610416575f91612484575b506124306124369161163a608435613c65565b91614c6d565b5061244081613870565b5191670de0b6b3a764000090810192838211610c4557838261246861247c96610bab94613c82565b0461247285613870565b52610ba584613833565b610ffc6149eb565b90506020813d6020116124b0575b8161249f602093836134de565b81010312610421575161243061241d565b3d9150612492565b346104215760606003193601126104215767ffffffffffffffff600435818111610421576124ea90369060040161354c565b50604435908111610421576122509036906004016135ac565b34610421575f60031936011261042157602063ffffffff60075416604051908152f35b34610421575f600319360112610421576020610389614b42565b34610421575f60031936011261042157602060405160128152f35b34610421575f6003193601126104215760206040517f6e71edae12b1b97f4d1f60370fef10105fa2faae0126114a169c64845d6126c98152f35b34610421575f60031936011261042157604051610200810181811067ffffffffffffffff8211176108015760405260608152606060208201525f60408201525f60608201525f6080820152606060a08201525f60c08201525f60e08201525f6101008201525f6101208201525f6101408201525f6101608201525f6101808201525f6101a08201525f6101c08201525f6101e08201526040517f535cfd8a0000000000000000000000000000000000000000000000000000000081523060048201525f816024816001600160a01b037f0000000000000000000000000000000000000000000000000000000000000000165afa908115610416575f91612a2c575b5081526040517f7e361bde0000000000000000000000000000000000000000000000000000000081523060048201525f816024816001600160a01b037f0000000000000000000000000000000000000000000000000000000000000000165afa908115610416575f91612a10575b5060208201526040517fb45090f90000000000000000000000000000000000000000000000000000000081523060048201526020816024816001600160a01b037f0000000000000000000000000000000000000000000000000000000000000000165afa908115610416575f916129de575b506040820152612784613795565b606082015267ffffffffffffffff60075463ffffffff811660808401526127a9614121565b60a08401526fffffffffffffffffffffffffffffffff8160201c1660c084015260a01c1660e08201526127dd61211661395f565b61010082015263ffffffff60606127f261395f565b6bffffffffffffffffffffffff80825116610120860152602082015116610140850152826040820151166101608501520151166101808201526040517ff29486a10000000000000000000000000000000000000000000000000000000081523060048201526101a0816024816001600160a01b037f0000000000000000000000000000000000000000000000000000000000000000165afa801561041657610120915f916129bd575b5060e081015115156101a084015261010081015115156101c0840152015115156101e08201526040518091602082526101e06129376128e883516102006020870152610220860190613637565b612904602085015191601f199283888303016040890152613637565b906040850151606087015260608501516080870152608085015160a087015260a0850151908683030160c0870152613637565b9160c081015160e085015260e081015161010085015261010081015161012085015261012081015161014085015261014081015161016085015263ffffffff6101608201511661018085015263ffffffff610180820151166101a08501526101a081015115156101c08501526101c0810151151582850152015115156102008301520390f35b6129d891506101a03d6101a0116117c0576117b181836134de565b8361289b565b90506020813d602011612a08575b816129f9602093836134de565b81010312610421575182612776565b3d91506129ec565b612a2491503d805f833e611ae481836134de565b905082612704565b612a4091503d805f833e610d5681836134de565b82612696565b346104215761010060031936011261042157612a6061342d565b50612a69613443565b50600460443510156104215767ffffffffffffffff60843581811161042157612a9690369060040161354c565b5060a4358181116104215761125e90369060040161354c565b346104215760207fddf252ad1be2c89b69c2b068fc378daa952ba7f163c4a11628f55a4df523b3ef61214c36613602565b346104215760846020612af236613602565b6040517f15dacbea0000000000000000000000000000000000000000000000000000000081523360048201526001600160a01b0393841660248201529183166044830152606482015292839182905f907f0000000000000000000000000000000000000000000000000000000000000000165af180156104165761100757602060405160018152f35b34610421575f60031936011261042157602067ffffffffffffffff60075460a01c16604051908152f35b346104215760406003193601126104215767ffffffffffffffff60043581811161042157612bd790369060040161354c565b60243582811161042157612bef9036906004016135ac565b50612bf86140c3565b7f0000000000000000000000000000000000000000000000000000000000000000917f0000000000000000000000000000000000000000000000000000000000000000917f0000000000000000000000000000000000000000000000000000000000000000612c68818587614169565b9591969092612c83612c7986613833565b516108ef87613870565b97612c9a612c9082613833565b516108ef83613870565b670de05bc096e9c000998a820282159b838204148c1715610c4557670de0b6b3a76400009b670de111a6b7de4000808502948504141715610c45578b8091048210928315612eeb575b505050612ec357612cf386613870565b5190612cfe90613870565b51612d08916142e3565b97604051988995612d1887613492565b6002875260403660208901378282612d2f83613870565b5190612d3a91613c82565b04612d4488613870565b52612d4e90613833565b5190612d5991613c82565b04612d6385613833565b52612d6d85613833565b51612d7785613833565b51612d8191613aad565b612d8a86613870565b51612d9486613870565b51612d9e91613aad565b612da7916142e3565b90612db191614e86565b612dbb8385614d20565b9081612dc685613833565b51612dd086613833565b51612dda91613c82565b90612de491613c95565b90612dee91614e86565b612df783613870565b51612e01916142e3565b612e0a83613870565b51612e14916142e3565b90612e1e91614e86565b612e2791614307565b9060075460a01c1611612e9b57612e40612e4992614397565b4290429061442e565b612e727f00000000000000000000000000000000000000000000000000000000000000006146fa565b61247c7f000000000000000000000000000000000000000000000000000000000000000061487b565b7f1878f33d000000000000000000000000000000000000000000000000000000005f5260045ffd5b7f4f512cb0000000000000000000000000000000000000000000000000000000005f5260045ffd5b041090508a8a81612ce3565b3461042157600319602081360112610421576004359067ffffffffffffffff821161042157610180913603011261042157604080515f81525f6020820152f35b34610421575f600319360112610421576020610389613795565b346104215760606003193601126104215760043567ffffffffffffffff811161042157612f8290369060040161354c565b507fd6234725000000000000000000000000000000000000000000000000000000005f5260045ffd5b34610421575f60031936011261042157610d3e612fc6614121565b604051918291602083526020830190613519565b346104215760e060031936011261042157612ff361342d565b50612ffc613443565b5060443567ffffffffffffffff8111610421573660238201121561042157806004013561302881613501565b9161303660405193846134de565b81835260206024602085019360071b8301019136831161042157602401925b8284106130d0578460807fffffffffffffffffffffffffffffffffffffffffffffffffffffffffffffff9c360112610421576002906130926140c3565b5114806130bf575b806130ad575b6020906040519015158152f35b5060c4358015908115146130a0575f80fd5b50606435801515811461309a575f80fd5b60808436031261042157604051906130e782613459565b6001600160a01b038535818116810361042157835283860135600281101561042157848401526040860135908116810361042157604083015260609081860135928315158403610421576080938593820152815201930192613055565b3461042157604060031936011261042157610fc2602061316261342d565b6040517fe1f21c670000000000000000000000000000000000000000000000000000000081523360048201526001600160a01b0390911660248083019190915235604482015291829081906064820190565b34610421575f600319360112610421576040516003545f826131d583613737565b91828252602093600190856001821691825f1461136b57505060011461320257506112fc925003836134de565b84915060035f527fc2575a0e9e593c00f959f8c92f12db2869c3395a3b0502d05e2516446f71f85b905f915b8583106132455750506112fc9350820101856112ef565b8054838901850152879450869390920191810161322e565b3461042157602060031936011261042157613276613d3e565b61327e613e14565b613286613ee3565b6040517fe9ddeb260000000000000000000000000000000000000000000000000000000081523060048201526001600160a01b036060826024817f000000000000000000000000000000000000000000000000000000000000000085165afa908115610416576133078160205f946024968691611f16575001511630613f1a565b604051928380927f67e0e0760000000000000000000000000000000000000000000000000000000082523060048301527f0000000000000000000000000000000000000000000000000000000000000000165afa801561041657613371915f91611ef85750614c6d565b613391575b61337e6149eb565b61338960043561487b565b6107c9613ee3565b61339a90614397565b80613376565b3461042157602060031936011261042157600435907fffffffff000000000000000000000000000000000000000000000000000000008216809203610421577f01ffc9a700000000000000000000000000000000000000000000000000000000602092148152f35b90601f19601f602080948051918291828752018686015e5f8582860101520116010190565b600435906001600160a01b038216820361042157565b602435906001600160a01b038216820361042157565b6080810190811067ffffffffffffffff82111761080157604052565b610140810190811067ffffffffffffffff82111761080157604052565b6060810190811067ffffffffffffffff82111761080157604052565b67ffffffffffffffff811161080157604052565b6040810190811067ffffffffffffffff82111761080157604052565b90601f601f19910116810190811067ffffffffffffffff82111761080157604052565b67ffffffffffffffff81116108015760051b60200190565b9081518082526020808093019301915f5b828110613538575050505090565b83518552938101939281019260010161352a565b9080601f8301121561042157602090823561356681613501565b9361357460405195866134de565b81855260208086019260051b82010192831161042157602001905b82821061359d575050505090565b8135815290830190830161358f565b81601f820112156104215780359067ffffffffffffffff821161080157604051926135e16020601f19601f86011601856134de565b8284526020838301011161042157815f926020809301838601378301015290565b6003196060910112610421576001600160a01b0390600435828116810361042157916024359081168103610421579060443590565b9081518082526020808093019301915f5b828110613656575050505090565b835185529381019392810192600101613648565b9081518082526020808093019301915f5b828110613689575050505090565b83516001600160a01b03168552938101939281019260010161367b565b600211156136b057565b7f4e487b71000000000000000000000000000000000000000000000000000000005f52602160045260245ffd5b51906001600160a01b038216820361042157565b908160609103126104215761372f604080519261370d84613492565b613716816136dd565b8452613724602082016136dd565b6020850152016136dd565b604082015290565b90600182811c9216801561377e575b602083101461375157565b7f4e487b71000000000000000000000000000000000000000000000000000000005f52602260045260245ffd5b91607f1691613746565b5190811515820361042157565b6040517fe4dc2aa40000000000000000000000000000000000000000000000000000000081523060048201526020816024816001600160a01b037f0000000000000000000000000000000000000000000000000000000000000000165afa908115610416575f91613804575090565b90506020813d60201161382b575b8161381f602093836134de565b81010312610421575190565b3d9150613812565b8051600110156138435760400190565b7f4e487b71000000000000000000000000000000000000000000000000000000005f52603260045260245ffd5b8051156138435760200190565b80518210156138435760209160051b010190565b9080601f83011215610421578151906020916138ac81613501565b936138ba60405195866134de565b81855260208086019260051b82010192831161042157602001905b8282106138e3575050505090565b815181529083019083016138d5565b9060208282031261042157815167ffffffffffffffff8111610421576139189201613891565b90565b9190916040818403126104215780519267ffffffffffffffff938481116104215781613948918401613891565b936020830151908111610421576139189201613891565b6040519061396c82613459565b8160606006546bffffffffffffffffffffffff808216845281831c16602084015263ffffffff8160c01c16604084015260e01c910152565b809103906101a08212610421576080604051926139c084613475565b12610421576040516139d181613459565b6139da82613788565b81526139e860208301613788565b60208201526139f960408301613788565b6040820152613a0a60608301613788565b606082015282526080810151602083015260a0810151604083015260c0810151606083015260e081015164ffffffffff81168103610421576080830152610100908181015163ffffffff8116810361042157613aa6916101809160a086015261012093613a78858301613788565b60c0870152613a8a6101408301613788565b60e0870152613a9c6101608301613788565b9086015201613788565b9082015290565b91908201809211610c4557565b9080601f8301121561042157815190602091613ad581613501565b93613ae360405195866134de565b81855260208086019260051b82010192831161042157602001905b828210613b0c575050505090565b81516001600160a01b0381168103610421578152908301908301613afe565b916080838303126104215782519067ffffffffffffffff918281116104215783613b56918601613aba565b9360208082015184811161042157820185601f8201121561042157805190613b7d82613501565b926040613b8d60405195866134de565b83855281850190826060809602850101938a8511610421578301915b848310613be6575050505050509360408201518481116104215781613bcf918401613891565b936060830151908111610421576139189201613891565b85838c031261042157815190613bfb82613492565b8351600281101561042157825284840151906001600160a01b038216820361042157828692838a950152613c30858701613788565b85820152815201920191613ba9565b9060208282031261042157815167ffffffffffffffff8111610421576139189201613aba565b90670de0b6b3a764000091828102928184041490151715610c4557565b81810292918115918404141715610c4557565b8115613c9f570490565b7f4e487b71000000000000000000000000000000000000000000000000000000005f52601260045260245ffd5b6040517fffffffff0000000000000000000000000000000000000000000000000000000060208201927f0000000000000000000000000000000000000000000000000000000000000000845216604082015260248152613d2b81613492565b51902090565b91908203918211610c4557565b6040517f532cec7c0000000000000000000000000000000000000000000000000000000081523060048201526020816024816001600160a01b037f0000000000000000000000000000000000000000000000000000000000000000165afa908115610416575f91613dda575b5015613db257565b7f486aa307000000000000000000000000000000000000000000000000000000005f5260045ffd5b90506020813d602011613e0c575b81613df5602093836134de565b8101031261042157613e0690613788565b5f613daa565b3d9150613de8565b6040517f8380edb70000000000000000000000000000000000000000000000000000000081526020816004816001600160a01b037f0000000000000000000000000000000000000000000000000000000000000000165afa908115610416575f91613ea9575b50613e8157565b7fe4575fe4000000000000000000000000000000000000000000000000000000005f5260045ffd5b90506020813d602011613edb575b81613ec4602093836134de565b8101031261042157613ed590613788565b5f613e7a565b3d9150613eb7565b613eeb614d72565b15613ef257565b7f03d95ab4000000000000000000000000000000000000000000000000000000005f5260045ffd5b906001600160a01b03908116806140b85750613f587fffffffff000000000000000000000000000000000000000000000000000000005f3516613ccc565b91604051907faaabadc50000000000000000000000000000000000000000000000000000000082526020938483600481877f0000000000000000000000000000000000000000000000000000000000000000165afa92831561041657859385915f91614079575b50906064929160405196879586947f9be2a8840000000000000000000000000000000000000000000000000000000086526004860152336024860152166044840152165afa918215610416575f92614043575b50501561401b57565b7f23dada53000000000000000000000000000000000000000000000000000000005f5260045ffd5b90809250813d8311614072575b61405a81836134de565b810103126104215761406b90613788565b5f80614012565b503d614050565b92948092508391503d83116140b1575b61409381836134de565b81010312610421575183811681036104215784929084906064613fbf565b503d614089565b915050330361401b57565b6001600160a01b037f00000000000000000000000000000000000000000000000000000000000000001633036140f557565b7f089676d5000000000000000000000000000000000000000000000000000000005f523360045260245ffd5b60405161412d81613492565b6002815260403660208301376008546fffffffffffffffffffffffffffffffff811661415883613870565b5260801c61416582613833565b5290565b92919061417c8461163a61418193613c65565b614e22565b9161419361418e84613c65565b615883565b916040516141a081613492565b60028152604036602083013780947ffffffffffffffffffffffffffffffffffffffffffffffffff21f494c589c00008101908111610c45578015613c9f57710b7abc627050305adf14a3d9e40000000000046141fb82613870565b5261420581613870565b519069d3c21bcecceda100000096878301809311610c4557614231670de0b6b3a7640000938492613c82565b0461423b82613833565b526040519261424984613492565b600284526040366020860137839761426a61426384613833565b5183614e45565b9261427481613870565b518201809211610c45576142e0946142a161429861417c6142d5956142da98614e45565b611d9884613833565b6142aa88613833565b526142ce84610ba56142c86142be8b613833565b5161116987613833565b94613870565b0490613d31565b6142e3565b91613870565b52565b90670de0b6b3a764000091828102928184041490151715610c455761391891613c95565b9061431182613870565b51158015614386575b614380576143668261432f8361391895614f0a565b1561436d57611cc05f9161435f60ff806001955b16941693611cc0614354868561387d565b51611633838a61387d565b5190613c95565b51906156de565b611cc060019161435f60ff805f95614343565b50505f90565b5061439082613833565b511561431a565b6144297fc529f58e32911795eccb217ca6864f59a86deffdfe55fab1dd71ac23a6e136a5916fffffffffffffffffffffffffffffffff6143df6143d983613870565b51614f43565b167fffffffffffffffffffffffffffffffff0000000000000000000000000000000061440d6143d984613833565b60801b1617600855604051918291602083526020830190613519565b0390a1565b919081811180156146f1575b6146c95761444661395f565b9161445083614b00565b9061445a82614f90565b61446386614f90565b905f8282039212818312811691831390151617610c45578060ff1d809101186103e8811061469e5750906145f9614607926bffffffffffffffffffffffff95866144ac85614fe5565b1681526144b888614fe5565b8760208301911681526144ca8761502e565b907fffffffff000000000000000000000000000000000000000000000000000000007bffffffff00000000000000000000000000000000000000000000000077ffffffffffffffffffffffff00000000000000000000000060409b8c87019663ffffffff809716885261453c8961502e565b96871660608201525116935160601b16945160c01b169260e01b16921717176006557fa18562ea402e57cc2b437f8d7a139c6c38958adc1ecbb706ec37a7a64ff6e7a58651806145a684898c89859094939260609260808301968352602083015260408201520152565b0390a16001600160a01b037f000000000000000000000000000000000000000000000000000000000000000016948651978894602086019094939260609260808301968352602083015260408201520152565b03601f1981018552846134de565b803b15610421576146775f9391849284519586809481937fc80882470000000000000000000000000000000000000000000000000000000083527f5072696365526174696f5374617465557064617465640000000000000000000060048401528860248401526044830190613408565b03925af1908115614695575061468a5750565b614693906134ae565b565b513d5f823e3d90fd5b7ff04fea2e000000000000000000000000000000000000000000000000000000005f5260045260245ffd5b7fb290253c000000000000000000000000000000000000000000000000000000005f5260045ffd5b5042811061443a565b674563918244f400008111614853576147176201e6e98204614f43565b6fffffffffffffffffffffffffffffffff8116907fffffffffffffffffffffffff00000000000000000000000000000000ffffffff73ffffffffffffffffffffffffffffffff000000006007549260201b169116176007556040907ffefd89259d65afcadf2c63596421033bc90210eb2e823adaad190d22ddfdaf42828051858152836020820152a16001600160a01b037f000000000000000000000000000000000000000000000000000000000000000016908251936020850152828401528183526147e383613492565b803b15610421576146775f9391849284519586809481937fc80882470000000000000000000000000000000000000000000000000000000083527f507269636553686966744461696c79526174655570646174656400000000000060048401528860248401526044830190613408565b7f60d40461000000000000000000000000000000000000000000000000000000005f5260045ffd5b670de0b6b3a764000081116149c3576007547fffffffff0000000000000000ffffffffffffffffffffffffffffffffffffffff7bffffffffffffffff00000000000000000000000000000000000000008360a01b169116176007557f74d468c8e414c37c502176a45cce93c85eaa0abf608e40641dc6664ca5efcab06020604051838152a16001600160a01b037f00000000000000000000000000000000000000000000000000000000000000001660405191602083015260208252614940826134c2565b803b15610421576149b25f929183926040519485809481937fc80882470000000000000000000000000000000000000000000000000000000083527f43656e74657265646e6573734d617267696e55706461746564000000000000006004840152604060248401526044830190613408565b03925af180156104165761468a5750565b7f7304fac7000000000000000000000000000000000000000000000000000000005f5260045ffd5b63ffffffff6149f94261502e565b16807fffffffffffffffffffffffffffffffffffffffffffffffffffffffff0000000060075416176007557f32a9fd44bdf167703f584bd25098494d3d18a4653a2d97116d28da05209444d46020604051838152a16001600160a01b037f00000000000000000000000000000000000000000000000000000000000000001660405191602083015260208252614a8e826134c2565b803b15610421576149b25f929183926040519485809481937fc80882470000000000000000000000000000000000000000000000000000000083527f4c61737454696d657374616d70557064617465640000000000000000000000006004840152604060248401526044830190613408565b614b3e614b0c4261502e565b6bffffffffffffffffffffffff9283815116846020830151169063ffffffff6060816040860151169401511693615085565b1690565b6001600160a01b037f000000000000000000000000000000000000000000000000000000000000000016301480614c44575b15614b9d577f000000000000000000000000000000000000000000000000000000000000000090565b60405160208101907f8b73c3c69bb8fe3d512ecc4cf759cc79239f7b179b0ffacaa9a75d522b39400f82527f000000000000000000000000000000000000000000000000000000000000000060408201527f000000000000000000000000000000000000000000000000000000000000000060608201524660808201523060a082015260a0815260c0810181811067ffffffffffffffff8211176108015760405251902090565b507f00000000000000000000000000000000000000000000000000000000000000004614614b74565b614cb090614c79614121565b906007549067ffffffffffffffff8260a01c16926fffffffffffffffffffffffffffffffff63ffffffff84169360201c1691615119565b9091565b9364e8d4a5100093614cf591614ce4614cdd614d0696999599614cd7848b61387d565b51613aad565b918861387d565b52614cef838761387d565b51613d31565b614cff828661387d565b528361387d565b5110610c02576103e891614d1991614307565b10612e9b57565b614d4f90614d49670de0b6b3a764000093611169611176614d4361115f86613870565b94613833565b90613c82565b0490565b614d6c61391892611169611176614d4361115f86613870565b90614e45565b6040517f67e0e0760000000000000000000000000000000000000000000000000000000081523060048201525f816024816001600160a01b037f0000000000000000000000000000000000000000000000000000000000000000165afa908115610416575f91614e04575b50614dff614de9614121565b67ffffffffffffffff60075460a01c1692614307565b101590565b614e1891503d805f833e610a3a81836134de565b925050505f614ddd565b670de0b6b3a764000090818102918183041490151715610c455761391890615883565b90614e4f91613c82565b6001670de0b6b3a76400007fffffffffffffffffffffffffffffffffffffffffffffffffffffffffffffffff830104019015150290565b670de05bc096e9c00080830283159184820414821715610c4557670de0b6b3a764000091670de111a6b7de4000808602958604141715610c45578190048210928315614efe575b505050614ed657565b7ff67c277c000000000000000000000000000000000000000000000000000000005f5260045ffd5b041090505f8080614ecd565b614f1381613833565b51614f1f575050600190565b614f32816108ef611176614f3f94613870565b916108ef61117682613870565b1090565b6fffffffffffffffffffffffffffffffff90818111614f60571690565b7f6dfcc650000000000000000000000000000000000000000000000000000000005f52608060045260245260445ffd5b7f7fffffffffffffffffffffffffffffffffffffffffffffffffffffffffffffff8111614fba5790565b7f24775e06000000000000000000000000000000000000000000000000000000005f5260045260245ffd5b6bffffffffffffffffffffffff90818111614ffe571690565b7f6dfcc650000000000000000000000000000000000000000000000000000000005f52606060045260245260445ffd5b63ffffffff9081811161503f571690565b7f6dfcc650000000000000000000000000000000000000000000000000000000005f52602060045260245260445ffd5b63ffffffff9182169082160391908211610c4557565b9093919263ffffffff9182811683851681106150a5575050505050905090565b8383161015615111576150fa6150e161510c9695856150da86615106986150d36139189d996151009961506f565b169361506f565b16906142e3565b80936bffffffffffffffffffffffff80911696166159de565b84613c82565b926159de565b90613c95565b614fe5565b505050505090565b9294919093945f9361512a4261502e565b9263ffffffff9283851684821698818a146154de5785969798999a819b61514f61395f565b90886bffffffffffffffffffffffff8c818551168260208701511695604081019e8f51169060600196858851169261518694615085565b16958160029c51161092836154d1575b505050615312575b67ffffffffffffffff166151b28c87614307565b106151c2575b5050505050505050565b909192939495969799985060038710156136b057600287146152f6575b5060038610156136b0576151f581600192614e45565b95036152ea5760019560ff805f5b16971694615211868a61387d565b5191670de0b6b3a764000094850393858511610c45576152309161506f565b169083820291808304851490151715610c4557614d496152519285946159de565b0461525c848861387d565b5261528361526a868461387d565b51614d49615278868a61387d565b51611169878761387d565b917ffffffffffffffffffffffffffffffffffffffffffffffffff21f494c589c00008501948511610c4557611d9884615106936152ca6152d8986116336152d1998d61387d565b049261387d565b918361387d565b52906001905f808080808080806151b8565b5f9560ff806001615203565b61530b9196506153069085614f0a565b61630f565b945f6151df565b9950995094506153256153068a85614f0a565b9460038610156136b057600186036154c55789600160ff805f5b1691169061534d818861387d565b5190615359838961387d565b519261537d6040519561536b87613492565b6002875260403660208901378a614307565b926153888780614e45565b93670de0b6b3a7640000818101809111610c45577f3fffffffffffffffffffffffffffffffffffffffffffffffffffffffffffffff86168603610c45576153d28660021b83613aad565b7fffffffffffffffffffffffffffffffffffffffffffffffffe43e9298b13800008101908111610c45576154069083613c82565b6ec097ce7bc90715b34b9f10000000008101809111610c455761543b9161542f61543592615883565b90613aad565b83613c82565b907ffffffffffffffffffffffffffffffffffffffffffffffffff21f494c589c00008601958611610c45577f7fffffffffffffffffffffffffffffffffffffffffffffffffffffffffffffff86168603610c45576142d5614cff9361163a6154ad6154b4956154bb9a60011b90613c95565b809a613c82565b918661387d565b529960019961519e565b895f60ff80600161533f565b51161190505f8881615196565b9850505050505050925050905f90565b60ff81146155425760ff811690601f821161551a5760405191615510836134c2565b8252602082015290565b7fb3512b0c000000000000000000000000000000000000000000000000000000005f5260045ffd5b506040515f815f549161555483613737565b808352926020906001908181169081156155dd575060011461557f575b5050613918925003826134de565b9150925f80527f290decd9548b62a8d60345a988386fc84ba6bc95484008f6362f93160ef3e563935f925b8284106155c557506139189450505081016020015f80615571565b855487850183015294850194869450928101926155aa565b9050602093506139189592507fffffffffffffffffffffffffffffffffffffffffffffffffffffffffffffff0091501682840152151560051b8201015f80615571565b60ff81146156425760ff811690601f821161551a5760405191615510836134c2565b506040515f8160019160015461565781613737565b80845293602091600181169081156155dd575060011461567f575050613918925003826134de565b91509260015f527fb10e2d527612073b26eecdfd717e6a320cf44b4afac2b0732d9fcbe2b7fa0cf6935f925b8284106156c657506139189450505081016020015f80615571565b855487850183015294850194869450928101926156ab565b90801561572e57670de0b6b3a764000091828102928184041490151715610c45576001907fffffffffffffffffffffffffffffffffffffffffffffffffffffffffffffffff830104019015150290565b7f0a0c22c7000000000000000000000000000000000000000000000000000000005f5260045ffd5b91907f7fffffffffffffffffffffffffffffff5d576e7357a4501ddfe92f46681b20a084116157cd579160209360809260ff5f9560405194855216868401526040830152606082015282805260015afa15610416575f516001600160a01b038116156157c357905f905f90565b505f906001905f90565b5050505f9160039190565b60048110156136b057806157ea575050565b6001810361581a577ff645eedf000000000000000000000000000000000000000000000000000000005f5260045ffd5b6002810361584e57507ffce698f7000000000000000000000000000000000000000000000000000000005f5260045260245ffd5b6003146158585750565b7fd78bce0c000000000000000000000000000000000000000000000000000000005f5260045260245ffd5b6001808211156159b65761595290808370010000000000000000000000000000000081101561599f575b80680100000000000000006004921015615992575b640100000000811015615985575b62010000811015615978575b61010081101561596c575b6010811015615960575b1015615959575b600302811c6159078185613c95565b01811c6159148185613c95565b01811c6159218185613c95565b01811c61592e8185613c95565b01811c61593b8185613c95565b01811c6159488185613c95565b01901c8092613c95565b8111900390565b811b6158f8565b811c9160021b916158f1565b60081c91811b916158e7565b60101c9160081b916158dc565b60201c9160101b916158d0565b60401c9160201b916158c2565b50680100000000000000009050608084901c6158ad565b5090565b8015613c9f576ec097ce7bc90715b34b9f10000000000590565b8115613c9f570590565b908015616301578115614380578160ff1c6162d957770bce5086492111aea88f4bb1ca6bcf584181ea8059f765328110156162b15781670c7d713b49da000012806162a0575b15615f3d57670de0b6b3a7640000916ec097ce7bc90715b34b9f100000000090615a77908402828101907fffffffffffffffffffffffffffffffffff3f68318436f8ea4cb460f0000000000183026159d4565b9080828002059181838202058284820205838582020591848684020593858786020595808888020597880205600f900596600d900595600b900594600990059360079005926005900591600390050101010101010160011b918082818507020592050201670de0b6b3a7640000905b057ffffffffffffffffffffffffffffffffffffffffffffffffdc702bd3a30fc00008181131580615f2a575b15615f0257819082121580615eef575b15615ec7575f915f8112615eb8575b506064906806f05b59d3b20000008112615e55577ffffffffffffffffffffffffffffffffffffffffffffffff90fa4a62c4e0000000168056bc75e2d6310000082770195e54c5dd42177f53a27172fa9ec630262827000000000925b02819068ad78ebc5ac62000000811215615e1c575b6856bc75e2d631000000811215615de2575b682b5e3af16b18800000811215615daa575b6815af1d78b58c400000811215615d72575b680ad78ebc5ac6200000811215615d3b575b82811215615d04575b6802b5e3af16b1880000811215615ccd575b68015af1d78b58c40000811215615c96575b60028382800205056003848383020505600485848302050585600581868402050560068287830205056007838883020505906008848984020505926009858a8602050595600a868b8902050597600b878c8b02050599600c888d8d0205059b01010101010101010101010102050205905f1461391857613918906159ba565b6806f5f17757889379377ffffffffffffffffffffffffffffffffffffffffffffffffea50e2874a73c000084920192020590615c17565b6808f00f760a4b2db55d7ffffffffffffffffffffffffffffffffffffffffffffffffd4a1c50e94e78000084920192020590615c05565b680ebc5fb417461211107ffffffffffffffffffffffffffffffffffffffffffffffffa9438a1d29cf0000084920192020590615bf3565b68280e60114edb805d037ffffffffffffffffffffffffffffffffffffffffffffffff5287143a539e0000084920192020590615bea565b690127fa27722cc06cc5e27fffffffffffffffffffffffffffffffffffffffffffffffea50e2874a73c0000084920192020590615bd8565b693f1fce3da636ea5cf8507fffffffffffffffffffffffffffffffffffffffffffffffd4a1c50e94e780000084920192020590615bc6565b6b02df0ab5a80a22c61ab5a7007fffffffffffffffffffffffffffffffffffffffffffffffa9438a1d29cf00000084920192020590615bb4565b6e01855144814a7ff805980ff008400091507fffffffffffffffffffffffffffffffffffffffffffffff5287143a539e00000001615ba2565b6803782dace9d90000008112615ea5577ffffffffffffffffffffffffffffffffffffffffffffffffc87d25316270000000168056bc75e2d63100000826b1425982cf597cd205cef738092615b8d565b68056bc75e2d6310000082600192615b8d565b600192505f0390506064615b31565b7fd4794efd000000000000000000000000000000000000000000000000000000005f5260045ffd5b5068070c1cc73b00c80000821315615b22565b7fa2f9f7e3000000000000000000000000000000000000000000000000000000005f5260045ffd5b5068070c1cc73b00c80000821315615b12565b81670de0b6b3a7640000925f9184811261628a575b506064905f7e1600ef3172e58d2e933ec884fde10064c63b5372d805e203c000000000000082121561625f575b73011798004d755d3c8bc8e03204cf44619e00000082121561623e575b820290808302906e01855144814a7ff805980ff0084000908183121561621b575b50506b02df0ab5a80a22c61ab5a700808212156161fb575b50693f1fce3da636ea5cf850808212156161db575b50690127fa27722cc06cc5e2808212156161bb575b5068280e60114edb805d038082121561619b575b50680ebc5fb4174612111080821215616184575b506808f00f760a4b2db55d80821215616164575b506806f5f177578893793780821215616144575b506806248f33704b28660380821215616125575b506805c548670b9510e7ac80821215616106575b506160b368056bc75e2d6310000091827ffffffffffffffffffffffffffffffffffffffffffffffffa9438a1d29cf000008183019201026159d4565b9080828002059181838202058284820205916003600560076009600b888a89020598808b8b02059a8b0205059805960594059205010101010160011b0105905f14616101575f035b02615ae6565b6160fb565b68056bc75e2d631000006756bc75e2d63100009202059101905f616077565b68056bc75e2d6310000067ad78ebc5ac6200009202059101905f616063565b68056bc75e2d6310000068015af1d78b58c400009202059101905f61604f565b68056bc75e2d631000006802b5e3af16b18800009202059101905f61603b565b68056bc75e2d63100000809202059101905f616027565b68056bc75e2d63100000680ad78ebc5ac62000009202059101905f616013565b68056bc75e2d631000006815af1d78b58c4000009202059101905f615fff565b68056bc75e2d63100000682b5e3af16b188000009202059101905f615fea565b68056bc75e2d631000006856bc75e2d6310000009202059101905f615fd5565b68ad78ebc5ac62000000925069021e19e0c9bab240000002059101905f80615fbd565b906b1425982cf597cd205cef73806803782dace9d900000091059101615f9c565b50770195e54c5dd42177f53a27172fa9ec63026282700000000090056806f05b59d3b2000000615f7f565b905061629691506159ba565b6001906064615f52565b50670f43fc2c04ee00008212615a24565b7fd8317311000000000000000000000000000000000000000000000000000000005f5260045ffd5b7f022701e0000000000000000000000000000000000000000000000000000000005f5260045ffd5b5050670de0b6b3a764000090565b151560038110156136b0579056fea2646970667358221220075fa89b92ef7da92b340fb485ab5e6d021f7ad12e698cd8fd0d79c326dce11c64736f6c634300081b0033",
  "linkReferences": {},
  "deployedLinkReferences": {}
}