{
  "_format": "hh-sol-artifact-1",
  "contractName": "ReClammPoolFactory",
  "sourceName": "contracts/ReClammPoolFactory.sol",
  "abi": [
    {
      "inputs": [
        {
          "internalType": "contract IVault",
          "name": "vault",
          "type": "address"
        },
        {
          "internalType": "uint32",
          "name": "pauseWindowDuration",
          "type": "uint32"
        },
        {
          "internalType": "string",
          "name": "factoryVersion",
          "type": "string"
        },
        {
          "internalType": "string",
          "name": "poolVersion",
          "type": "string"
        }
      ],
      "stateMutability": "nonpayable",
      "type": "constructor"
    },
    {
      "inputs": [],
      "name": "CodeDeploymentFailed",
      "type": "error"
    },
    {
      "inputs": [],
      "name": "Create2EmptyBytecode",
      "type": "error"
    },
    {
      "inputs": [],
      "name": "Disabled",
      "type": "error"
    },
    {
      "inputs": [],
      "name": "FailedDeployment",
      "type": "error"
    },
    {
      "inputs": [],
      "name": "IndexOutOfBounds",
      "type": "error"
    },
    {
      "inputs": [
        {
          "internalType": "uint256",
          "name": "balance",
          "type": "uint256"
        },
        {
          "internalType": "uint256",
          "name": "needed",
          "type": "uint256"
        }
      ],
      "name": "InsufficientBalance",
      "type": "error"
    },
    {
      "inputs": [],
      "name": "InvalidTokenType",
      "type": "error"
    },
    {
      "inputs": [],
      "name": "MaxTokens",
      "type": "error"
    },
    {
      "inputs": [],
      "name": "PoolPauseWindowDurationOverflow",
      "type": "error"
    },
    {
      "inputs": [
        {
          "internalType": "uint8",
          "name": "bits",
          "type": "uint8"
        },
        {
          "internalType": "uint256",
          "name": "value",
          "type": "uint256"
        }
      ],
      "name": "SafeCastOverflowedUintDowncast",
      "type": "error"
    },
    {
      "inputs": [],
      "name": "SenderNotAllowed",
      "type": "error"
    },
    {
      "inputs": [],
      "name": "StandardPoolWithCreator",
      "type": "error"
    },
    {
      "inputs": [],
      "name": "VaultNotSet",
      "type": "error"
    },
    {
      "anonymous": false,
      "inputs": [],
      "name": "FactoryDisabled",
      "type": "event"
    },
    {
      "anonymous": false,
      "inputs": [
        {
          "indexed": true,
          "internalType": "address",
          "name": "pool",
          "type": "address"
        }
      ],
      "name": "PoolCreated",
      "type": "event"
    },
    {
      "inputs": [
        {
          "internalType": "string",
          "name": "name",
          "type": "string"
        },
        {
          "internalType": "string",
          "name": "symbol",
          "type": "string"
        },
        {
          "components": [
            {
              "internalType": "contract IERC20",
              "name": "token",
              "type": "address"
            },
            {
              "internalType": "enum TokenType",
              "name": "tokenType",
              "type": "uint8"
            },
            {
              "internalType": "contract IRateProvider",
              "name": "rateProvider",
              "type": "address"
            },
            {
              "internalType": "bool",
              "name": "paysYieldFees",
              "type": "bool"
            }
          ],
          "internalType": "struct TokenConfig[]",
          "name": "tokens",
          "type": "tuple[]"
        },
        {
          "components": [
            {
              "internalType": "address",
              "name": "pauseManager",
              "type": "address"
            },
            {
              "internalType": "address",
              "name": "swapFeeManager",
              "type": "address"
            },
            {
              "internalType": "address",
              "name": "poolCreator",
              "type": "address"
            }
          ],
          "internalType": "struct PoolRoleAccounts",
          "name": "roleAccounts",
          "type": "tuple"
        },
        {
          "internalType": "uint256",
          "name": "swapFeePercentage",
          "type": "uint256"
        },
        {
          "components": [
            {
              "internalType": "uint256",
              "name": "initialMinPrice",
              "type": "uint256"
            },
            {
              "internalType": "uint256",
              "name": "initialMaxPrice",
              "type": "uint256"
            },
            {
              "internalType": "uint256",
              "name": "initialTargetPrice",
              "type": "uint256"
            },
            {
              "internalType": "bool",
              "name": "tokenAPriceIncludesRate",
              "type": "bool"
            },
            {
              "internalType": "bool",
              "name": "tokenBPriceIncludesRate",
              "type": "bool"
            }
          ],
          "internalType": "struct ReClammPriceParams",
          "name": "priceParams",
          "type": "tuple"
        },
        {
          "internalType": "uint256",
          "name": "dailyPriceShiftExponent",
          "type": "uint256"
        },
        {
          "internalType": "uint256",
          "name": "centerednessMargin",
          "type": "uint256"
        },
        {
          "internalType": "bytes32",
          "name": "salt",
          "type": "bytes32"
        }
      ],
      "name": "create",
      "outputs": [
        {
          "internalType": "address",
          "name": "pool",
          "type": "address"
        }
      ],
      "stateMutability": "nonpayable",
      "type": "function"
    },
    {
      "inputs": [],
      "name": "disable",
      "outputs": [],
      "stateMutability": "nonpayable",
      "type": "function"
    },
    {
      "inputs": [
        {
          "internalType": "bytes4",
          "name": "selector",
          "type": "bytes4"
        }
      ],
      "name": "getActionId",
      "outputs": [
        {
          "internalType": "bytes32",
          "name": "",
          "type": "bytes32"
        }
      ],
      "stateMutability": "view",
      "type": "function"
    },
    {
      "inputs": [],
      "name": "getAuthorizer",
      "outputs": [
        {
          "internalType": "contract IAuthorizer",
          "name": "",
          "type": "address"
        }
      ],
      "stateMutability": "view",
      "type": "function"
    },
    {
      "inputs": [],
      "name": "getCreationCode",
      "outputs": [
        {
          "internalType": "bytes",
          "name": "",
          "type": "bytes"
        }
      ],
      "stateMutability": "view",
      "type": "function"
    },
    {
      "inputs": [],
      "name": "getCreationCodeContracts",
      "outputs": [
        {
          "internalType": "address",
          "name": "contractA",
          "type": "address"
        },
        {
          "internalType": "address",
          "name": "contractB",
          "type": "address"
        }
      ],
      "stateMutability": "view",
      "type": "function"
    },
    {
      "inputs": [],
      "name": "getDefaultLiquidityManagement",
      "outputs": [
        {
          "components": [
            {
              "internalType": "bool",
              "name": "disableUnbalancedLiquidity",
              "type": "bool"
            },
            {
              "internalType": "bool",
              "name": "enableAddLiquidityCustom",
              "type": "bool"
            },
            {
              "internalType": "bool",
              "name": "enableRemoveLiquidityCustom",
              "type": "bool"
            },
            {
              "internalType": "bool",
              "name": "enableDonation",
              "type": "bool"
            }
          ],
          "internalType": "struct LiquidityManagement",
          "name": "liquidityManagement",
          "type": "tuple"
        }
      ],
      "stateMutability": "pure",
      "type": "function"
    },
    {
      "inputs": [],
      "name": "getDefaultPoolHooksContract",
      "outputs": [
        {
          "internalType": "address",
          "name": "",
          "type": "address"
        }
      ],
      "stateMutability": "pure",
      "type": "function"
    },
    {
      "inputs": [
        {
          "internalType": "bytes",
          "name": "constructorArgs",
          "type": "bytes"
        },
        {
          "internalType": "bytes32",
          "name": "salt",
          "type": "bytes32"
        }
      ],
      "name": "getDeploymentAddress",
      "outputs": [
        {
          "internalType": "address",
          "name": "",
          "type": "address"
        }
      ],
      "stateMutability": "view",
      "type": "function"
    },
    {
      "inputs": [],
      "name": "getNewPoolPauseWindowEndTime",
      "outputs": [
        {
          "internalType": "uint32",
          "name": "",
          "type": "uint32"
        }
      ],
      "stateMutability": "view",
      "type": "function"
    },
    {
      "inputs": [],
      "name": "getOriginalPauseWindowEndTime",
      "outputs": [
        {
          "internalType": "uint32",
          "name": "",
          "type": "uint32"
        }
      ],
      "stateMutability": "view",
      "type": "function"
    },
    {
      "inputs": [],
      "name": "getPauseWindowDuration",
      "outputs": [
        {
          "internalType": "uint32",
          "name": "",
          "type": "uint32"
        }
      ],
      "stateMutability": "view",
      "type": "function"
    },
    {
      "inputs": [],
      "name": "getPoolCount",
      "outputs": [
        {
          "internalType": "uint256",
          "name": "",
          "type": "uint256"
        }
      ],
      "stateMutability": "view",
      "type": "function"
    },
    {
      "inputs": [],
      "name": "getPoolVersion",
      "outputs": [
        {
          "internalType": "string",
          "name": "",
          "type": "string"
        }
      ],
      "stateMutability": "view",
      "type": "function"
    },
    {
      "inputs": [],
      "name": "getPools",
      "outputs": [
        {
          "internalType": "address[]",
          "name": "",
          "type": "address[]"
        }
      ],
      "stateMutability": "view",
      "type": "function"
    },
    {
      "inputs": [
        {
          "internalType": "uint256",
          "name": "start",
          "type": "uint256"
        },
        {
          "internalType": "uint256",
          "name": "count",
          "type": "uint256"
        }
      ],
      "name": "getPoolsInRange",
      "outputs": [
        {
          "internalType": "address[]",
          "name": "pools",
          "type": "address[]"
        }
      ],
      "stateMutability": "view",
      "type": "function"
    },
    {
      "inputs": [],
      "name": "getVault",
      "outputs": [
        {
          "internalType": "contract IVault",
          "name": "",
          "type": "address"
        }
      ],
      "stateMutability": "view",
      "type": "function"
    },
    {
      "inputs": [],
      "name": "isDisabled",
      "outputs": [
        {
          "internalType": "bool",
          "name": "",
          "type": "bool"
        }
      ],
      "stateMutability": "view",
      "type": "function"
    },
    {
      "inputs": [
        {
          "internalType": "address",
          "name": "pool",
          "type": "address"
        }
      ],
      "name": "isPoolFromFactory",
      "outputs": [
        {
          "internalType": "bool",
          "name": "",
          "type": "bool"
        }
      ],
      "stateMutability": "view",
      "type": "function"
    },
    {
      "inputs": [],
      "name": "version",
      "outputs": [
        {
          "internalType": "string",
          "name": "",
          "type": "string"
        }
      ],
      "stateMutability": "view",
      "type": "function"
    }
  ],
  "bytecode": "0x610180604052346100aa5761001e61001561013d565b92919091610385565b6040516116ba90816105e38239608051818181610203015261124c015260a051816111d6015260c0518181816102270152611271015260e051816111f701526101005181610f140152610120518181816102f901528181610972015281816109e00152818161114801526114b2015261014051816108df015261016051818181610cf0015261119e0152f35b5f80fd5b634e487b7160e01b5f52604160045260245ffd5b6040519190601f01601f191682016001600160401b038111838210176100e757604052565b6100ae565b81601f820112156100aa578051906001600160401b0382116100e75761011b601f8301601f19166020016100c2565b92828452602083830101116100aa57815f9260208093018386015e8301015290565b618954908138038061014e816100c2565b9384398201906080838303126100aa578251906001600160a01b03821682036100aa5760208401519363ffffffff851685036100aa5760408101516001600160401b0394908581116100aa57816101a69184016100ec565b9460608301519081116100aa576101bd92016100ec565b9193929190565b90600182811c921680156101f2575b60208310146101de57565b634e487b7160e01b5f52602260045260245ffd5b91607f16916101d3565b601f8111610208575050565b60035f5260205f20906020601f840160051c83019310610242575b601f0160051c01905b818110610237575050565b5f815560010161022c565b9091508190610223565b601f8111610258575050565b60045f5260205f20906020601f840160051c83019310610292575b601f0160051c01905b818110610287575050565b5f815560010161027c565b9091508190610273565b80519091906001600160401b0381116100e7576102c3816102be6004546101c4565b61024c565b602080601f8311600114610304575081906102f493945f926102f9575b50508160011b915f199060031b1c19161790565b600455565b015190505f806102e0565b60045f52601f198316949091907f8a35acfbc15ff81a39ae7d344fd709f28e8600b4aa8c65c6b64bfe7fe36bd19b925f905b87821061036d575050836001959610610355575b505050811b01600455565b01515f1960f88460031b161c191690555f808061034a565b80600185968294968601518155019501930190610336565b929192616cb7610397602082016100c2565b90808252611c9d60208301398051908160011c918260a05282810392818411610450578360e0528083526103ca83610553565b60805282019182519383526103de836105a2565b60c052525230610100526001600160a01b03811615610441576101205263ffffffff9261040d84831642610464565b93808511610432576104309461042b93610140521661016052610476565b61029c565b565b6368755a1160e01b5f5260045ffd5b630647140b60e51b5f5260045ffd5b634e487b7160e01b5f52601160045260245ffd5b9190820180921161047157565b610450565b80519091906001600160401b0381116100e75761049d816104986003546101c4565b6101fc565b602080601f83116001146104d2575081906104cd93945f926102f95750508160011b915f199060031b1c19161790565b600355565b60035f52601f198316949091907fc2575a0e9e593c00f959f8c92f12db2869c3395a3b0502d05e2516446f71f85b925f905b87821061053b575050836001959610610523575b505050811b01600355565b01515f1960f88460031b161c191690555f8080610518565b80600185968294968601518155019501930190610504565b9081517f602038038060206000396000f3fefefefefefefefefefefefefefefefefefefe835260208101835ff092526001600160a01b0382161561059357565b63fef8220760e01b5f5260045ffd5b9081517f60fe600053602038038060206001396001016000f3fefefefefefefefefefefe835260208101835ff092526001600160a01b038216156105935756fe60806040526004361015610011575f80fd5b5f3560e01c8062c194db14610153578063174481fa1461014e578063193ad50f146101495780632f2770db146101445780633f819b6f1461013f57806344f6fec71461013a57806353a72f7e1461013557806354fd4d50146101305780636634b7531461012b578063673a2a1f146101265780636c57f5a91461012157806378da80cb1461011c578063851c1bb3146101175780638d928af8146101125780638eec5d701461010d578063aaabadc514610108578063b3595be014610103578063db035ebc146100fe578063e9d56e19146100f95763ec888061146100f4575f80fd5b610d14565b610cd4565b610cac565b610bf9565b6109b3565b610996565b610953565b610903565b6108c3565b6108a1565b610813565b6107d3565b6106c1565b6105d5565b6104f0565b610408565b61029d565b61024e565b6101e4565b61018a565b5f91031261016257565b5f80fd5b805180835260209291819084018484015e5f828201840152601f01601f1916010190565b34610162575f366003190112610162576040516020810181811067ffffffffffffffff8211176101df576101db916101c7916040525f81526111d3565b604051918291602083526020830190610166565b0390f35b610423565b34610162575f36600319011261016257604080516001600160a01b03807f00000000000000000000000000000000000000000000000000000000000000001682527f0000000000000000000000000000000000000000000000000000000000000000166020820152f35b34610162575f366003190112610162576080610268610d2e565b61029b60405180926060809180511515845260208101511515602085015260408101511515604085015201511515910152565bf35b34610162575f366003190112610162576102d95f357fffffffff0000000000000000000000000000000000000000000000000000000016610f0a565b60405163aaabadc560e01b81526020916001600160a01b039183816004817f000000000000000000000000000000000000000000000000000000000000000087165afa80156103c0578492610360925f926103c5575b506040516326f8aa2160e21b8152600481019190915233602482015230604482015293849283919082906064820190565b0392165afa9182156103c0575f92610393575b50501561038457610382610d52565b005b6323dada5360e01b5f5260045ffd5b6103b29250803d106103b9575b6103aa8183610467565b81019061166f565b5f80610373565b503d6103a0565b610f7c565b6103e6919250843d86116103ed575b6103de8183610467565b810190610f67565b905f61032f565b503d6103d4565b906020610405928181520190610166565b90565b34610162575f366003190112610162576101db6101c7610d8d565b634e487b7160e01b5f52604160045260245ffd5b6080810190811067ffffffffffffffff8211176101df57604052565b67ffffffffffffffff81116101df57604052565b90601f8019910116810190811067ffffffffffffffff8211176101df57604052565b60405190610140820182811067ffffffffffffffff8211176101df57604052565b92919267ffffffffffffffff82116101df57604051916104d4601f8201601f191660200184610467565b829481845281830111610162578281602093845f960137010152565b346101625760403660031901126101625760043567ffffffffffffffff81116101625736602382011215610162576001600160a01b036055600b6105416101db9436906024816004013591016104aa565b61055561054f6024356112b4565b916111d3565b602081519101209060405191604083015260208201523081520160ff81532016604051918291829190916001600160a01b036020820193169052565b60209060206040818301928281528551809452019301915f5b8281106105b8575050505090565b83516001600160a01b0316855293810193928101926001016105aa565b346101625760403660031901126101625760043560243590600191600154808310156106b2578183018084116106ad57811061069c575b5061061681610a58565b916106246040519384610467565b818352601f1961063383610a58565b013660208501375f5b82811061065157604051806101db8682610591565b8061069661067e61066b610666899587610e7e565b610e9f565b90546001600160a01b039160031b1c1690565b6106888388610ef6565b906001600160a01b03169052565b0161063c565b828103915081116106ad575f61060c565b610e6a565b634e23d03560e01b5f5260045ffd5b34610162575f366003190112610162576040515f60035460018160011c91600181169182156107b8575b6020916020851084146107a4578487526020870193908115610785575060011461072c575b6101db8661072081880382610467565b604051918291826103f4565b60035f90815294509192917fc2575a0e9e593c00f959f8c92f12db2869c3395a3b0502d05e2516446f71f85b5b8386106107745750505091019050610720826101db5f610710565b805485870152948201948101610759565b60ff1916845250505090151560051b019050610720826101db5f610710565b634e487b7160e01b5f52602260045260245ffd5b92607f16926106eb565b6001600160a01b0381160361016257565b34610162576020366003190112610162576001600160a01b036004356107f8816107c2565b165f525f602052602060ff60405f2054166040519015158152f35b34610162575f36600319011261016257604051806001916001549283825260208092019360015f527fb10e2d527612073b26eecdfd717e6a320cf44b4afac2b0732d9fcbe2b7fa0cf6925f905b828210610883576101db86610877818a0382610467565b60405191829182610591565b84546001600160a01b03168752958601959383019390830190610860565b34610162575f36600319011261016257602060ff600254166040519015158152f35b34610162575f36600319011261016257602060405163ffffffff7f0000000000000000000000000000000000000000000000000000000000000000168152f35b34610162576020366003190112610162576004357fffffffff00000000000000000000000000000000000000000000000000000000811681036101625761094b602091610f0a565b604051908152f35b34610162575f3660031901126101625760206040516001600160a01b037f0000000000000000000000000000000000000000000000000000000000000000168152f35b34610162575f366003190112610162576020600154604051908152f35b34610162575f3660031901126101625760405163aaabadc560e01b81526001600160a01b036020826004817f000000000000000000000000000000000000000000000000000000000000000085165afa9081156103c0576020925f92610a1e575b5060405191168152f35b610a36919250833d85116103ed576103de8183610467565b905f610a14565b9080601f8301121561016257816020610405933591016104aa565b67ffffffffffffffff81116101df5760051b60200190565b8015150361016257565b9080601f83011215610162578135916020610a9484610a58565b93604093610aa56040519687610467565b818652828087019260071b85010193818511610162578301915b848310610acf5750505050505090565b60808383031261016257855190610ae582610437565b8335610af0816107c2565b8252848401359060028210156101625782869283608095015288860135610b16816107c2565b8982015260608087013590610b2a82610a70565b820152815201920191610abf565b606090606319011261016257604051906060820182811067ffffffffffffffff8211176101df5760405281606435610b6f816107c2565b8152608435610b7d816107c2565b6020820152604060a43591610b91836107c2565b0152565b60a09060e3190112610162576040519060a0820182811067ffffffffffffffff8211176101df576040528160e435815261010435602082015261012435604082015261014435610be481610a70565b606082015260806101643591610b9183610a70565b34610162576101e03660031901126101625767ffffffffffffffff60043581811161016257610c2c903690600401610a3d565b9060243581811161016257610c45903690600401610a3d565b91604435918211610162576101db92610c65610c92933690600401610a7a565b90610c6f36610b38565b92610c7936610b95565b906101c435946101a43594610184359460c43593611054565b6040516001600160a01b0390911681529081906020820190565b34610162575f366003190112610162576020610cc661119c565b63ffffffff60405191168152f35b34610162575f36600319011261016257602060405163ffffffff7f0000000000000000000000000000000000000000000000000000000000000000168152f35b34610162575f3660031901126101625760206040515f8152f35b60405190610d3b82610437565b5f6060838281528260208201528260408201520152565b610d5a611299565b600160ff1960025416176002557f432acbfd662dbb5d8b378384a67159b47ca9d0f1b79f97cf64cf8585fa362d505f80a1565b604051905f6004546001918160011c9260018316908115610e60575b6020906020861083146107a45785885287946020860193908115610e415750600114610de1575b505050610ddf92500383610467565b565b925093610e0f60045f527f8a35acfbc15ff81a39ae7d344fd709f28e8600b4aa8c65c6b64bfe7fe36bd19b90565b945f935b828510610e2b57505050610ddf9350015f8080610dd0565b8654858501529586019588955093810193610e13565b92505050610ddf9491925060ff19168252151560051b015f8080610dd0565b93607f1693610da9565b634e487b7160e01b5f52601160045260245ffd5b919082018092116106ad57565b634e487b7160e01b5f52603260045260245ffd5b600154811015610ed45760015f527fb10e2d527612073b26eecdfd717e6a320cf44b4afac2b0732d9fcbe2b7fa0cf601905f90565b610e8b565b805115610ed45760200190565b805160011015610ed45760400190565b8051821015610ed45760209160051b010190565b60405160208101917f0000000000000000000000000000000000000000000000000000000000000000835263ffffffff60e01b166040820152602481526060810181811067ffffffffffffffff8211176101df5760405251902090565b908160209103126101625751610405816107c2565b6040513d5f823e3d90fd5b92916020610ddf92604086526110448151610fe3610fb3610140928360408c01526101808b0190610166565b85850151603f198b8303810160608d015291610fce91610166565b906040860151908b83030160808c0152610166565b606084015160a08a0152608084015167ffffffffffffffff1660c08a01529260a081015160e08a015261103860c08201519261010093848c015260e08301519361012094858d0152830151908b019015159052565b01511515610160880152565b9401906001600160a01b03169052565b969293989791946001600160a01b0361107760408701516001600160a01b031690565b1661118d57610ddf9761114061118495611136846110b59b611171976110a061117f988e611308565b6110a8610d2e565b5f6060820152600181529d565b825161111d6020850151926040860151946110e96110e360806110db60608b0151151590565b990151151590565b996113a0565b916110f2610489565b9b8c5260208c0152611102610d8d565b60408c015260608b015267ffffffffffffffff1660808a0152565b60a088015260c087015260e08601521515610100850152565b1515610120830152565b6040519283917f00000000000000000000000000000000000000000000000000000000000000009060208401610f87565b03601f198101835282610467565b6113cc565b958692836114a0565b63187b85d960e21b5f5260045ffd5b7f000000000000000000000000000000000000000000000000000000000000000063ffffffff81164210156111ce5790565b505f90565b907f00000000000000000000000000000000000000000000000000000000000000007f0000000000000000000000000000000000000000000000000000000000000000808201908183116106ad57845192838301958684116106ad5760209260018480946040519a82818d01016040528b52805f838d017f00000000000000000000000000000000000000000000000000000000000000003c8a01017f00000000000000000000000000000000000000000000000000000000000000003c01918501015e565b60ff600254166112a557565b633ac4266d60e11b5f5260045ffd5b60405160208101913383524660408301526060820152606081526112d781610437565b51902090565b600211156112e757565b634e487b7160e01b5f52602160045260245ffd5b5160028110156112e75790565b906002825111611391576060810151151580611370575b611337576080015115159081611346575b5061133757565b63a1e9dd9d60e01b5f5260045ffd5b60019150602061135861135f92610ee6565b51016112fb565b611368816112dd565b14155f611330565b506001611381602061135885610ed9565b61138a816112dd565b141561131f565b630e0f7beb60e31b5f5260045ffd5b67ffffffffffffffff908181116113b5571690565b6306dfcc6560e41b5f52604060045260245260445ffd5b9061054f6113d9916112b4565b805115611491576020815191015ff5903d1519821516610f7c576001600160a01b0391828116908115611482579261140f611299565b815f525f60205260405f20600160ff19825416179055600154680100000000000000008110156101df578060016114499201600155610e9f565b819291549060031b9184831b921b19161790557f83a48fbcfc991335314e74d0496aab6a1987e992ddc85dddbcc4d6dd6ef2e9fc5f80a2565b63b06ebf3d60e01b5f5260045ffd5b631328927760e21b5f5260045ffd5b9294919390946001600160a01b0393847f000000000000000000000000000000000000000000000000000000000000000016956114db61119c565b91873b156101625797959493929190604095604051998a9863eeec802f60e01b8a526004836101a48c01931660048c015260246101a060248d015282518094526101c48c019a6020809401955f935b8685106115fe57505050505050505086946115a85f9997939561159788966115658d996115da9760448b015260648a019063ffffffff169052565b88608489015260a4880190604090816001600160a01b0391828151168552826020820151166020860152015116910152565b6001600160a01b0316610104860152565b805115156101248501526020810151151561014485015260408101511515610164850152606001511515610184840152565b03925af180156103c0576115eb5750565b806115f8610ddf92610453565b80610158565b9193959798999a9b9c90929496809e505183815116825287810151600281101561165d5782899260809284600196015286888201511688830152606080910151151590820152019e0195019290918f9d9c9b9a9998979596949261152a565b86602185634e487b7160e01b5f52525ffd5b90816020910312610162575161040581610a7056fea2646970667358221220bcc086bfa8cf229b6f976634e41162488be79708c6a3a98d6b9628ae8ce31ee764736f6c634300081b00336103006040523461097b57616cb7803803809161001e8261030061097f565b6103003961030001604061030082031261097b5761030051906001600160401b03821161097b57610140826103000182031261097b576040519061014082016001600160401b0381118382101761079b576040526103008301516001600160401b03811161097b5781610096918561030001016109a2565b82526103208301516001600160401b03811161097b57816100bc918561030001016109a2565b6020830152610340830151906001600160401b03821161097b576100e5918461030001016109a2565b6040820181905261036083015160608301526103808301519092906001600160401b038116810361097b5760808301526103a081015160a08301526103c081015160c08301526103e081015160e083015261015b906101209061014b61040082016109f7565b61010085015261030001016109f7565b61012082015261032051916001600160a01b038316830361097b578151602083015160408051919592919081016001600160401b0381118282101761079b576040526001815260208101603160f81b81526101b583610a04565b610120526101c282610b87565b6101405282516020840120918260e05251902080610100524660a0526040519060208201927f8b73c3c69bb8fe3d512ecc4cf759cc79239f7b179b0ffacaa9a75d522b39400f8452604083015260608201524660808201523060a082015260a0815260c0810181811060018060401b0382111761079b576040525190206080523060c0526101608290528051906001600160401b03821161079b5760035490600182811c92168015610971575b602083101461077d5781601f849311610919575b50602090601f83116001146108a4575f92610899575b50508160011b915f199060031b1c1916176003555b83516001600160401b03811161079b57600454600181811c9116801561088f575b602082101461077d57601f8111610830575b506020601f82116001146107c95781929394955f926107be575b50508160011b915f199060031b1c1916176004555b610180819052336101a0526001600160a01b038116156107af576101c0528051906001600160401b03821161079b5760055490600182811c92168015610791575b602083101461077d5781601f84931161072f575b50602090601f83116001146106a7575f9261069c575b50508160011b915f199060031b1c1916176005555b60a0810151801590811561068f575b8115610682575b8115610673575b8115610661575b8115610652575b506106435760a08101516102205260c08101516102405260e08101516102605260608101516102805260808101516001600160401b03166102a05261010081015115156102c052610120015115156102e052676f05b59d3b21387661020052604051615fd9610cbe823960805181614955015260a05181614a21015260c05181614926015260e051816149a4015261010051816149ca01526101205181611709015261014051816117320152610160518181816103340152818161064b015281816108ce01528181610b1001528181610c6801528181610dea0152818161115f01528181611688015281816117f501528181611abe01528181611b0b01528181612099015281816124510152818161267b015281816126c8015281816127290152818161285601528181612b5a015281816135e101528181613b4d01528181613beb01528181613df801528181613e4e015281816141630152818161424801528181614556015281816146a1015281816147a20152818161487501528181614aa301528181614b1f0152614c62015261018051818181610a8501528181610ed401528181610f7901528181611091015261198801526101a05181613abc01526101c0518181816109a801528181610be001528181611214015281816131ad0152613ce701526101e051815050610200518181816112db0152611c850152610220518181816118db01528181611bb50152613f1c0152610240518181816118fc01528181611bdb0152613f4e015261026051818181611c010152613f75015261028051818181611c280152612de601526102a051818181611c4f0152612e1001526102c051818181611b4b0152613ec101526102e051818181611b730152613ee90152615fd990f35b6359e6ae3360e11b5f5260045ffd5b905060c082015111155f6103bb565b60e083015160c08401511091506103b4565b80915060e083015110906103ad565b60e08301511591506103a6565b60c083015115915061039f565b015190505f8061037b565b60055f90815293507f036b6384b5eca791c62761152d0c79bb0604c104a5fb6f4eb0703f3154bb3db091905b601f1984168510610714576001945083601f198116106106fc575b505050811b01600555610390565b01515f1960f88460031b161c191690555f80806106ee565b818101518355602094850194600190930192909101906106d3565b90915060055f5260205f20601f840160051c810160208510610776575b90849392915b601f830160051c82018110610768575050610365565b5f8155859450600101610752565b508061074c565b634e487b7160e01b5f52602260045260245ffd5b91607f1691610351565b634e487b7160e01b5f52604160045260245ffd5b630647140b60e51b5f5260045ffd5b015190505f806102fb565b60045f5260205f20905f5b601f1984168110610818575060019394959683601f19811610610800575b505050811b01600455610310565b01515f1960f88460031b161c191690555f80806107f2565b9091602060018192858b0151815501930191016107d4565b60045f527f8a35acfbc15ff81a39ae7d344fd709f28e8600b4aa8c65c6b64bfe7fe36bd19b601f830160051c810160208410610888575b601f830160051c8201811061087d5750506102e1565b5f8155600101610867565b5080610867565b90607f16906102cf565b015190505f80610299565b60035f90815293505f516020616c975f395f51905f5291905b601f19841685106108fe576001945083601f198116106108e6575b505050811b016003556102ae565b01515f1960f88460031b161c191690555f80806108d8565b818101518355602094850194600190930192909101906108bd565b60035f529091505f516020616c975f395f51905f52601f840160051c81016020851061096a575b90849392915b601f830160051c8201811061095c575050610283565b5f8155859450600101610946565b5080610940565b91607f169161026f565b5f80fd5b601f909101601f19168101906001600160401b0382119082101761079b57604052565b81601f8201121561097b578051906001600160401b03821161079b57604051926109d6601f8401601f19166020018561097f565b8284526020838301011161097b57815f9260208093018386015e8301015290565b5190811515820361097b57565b805160209081811015610a7a5750601f825111610a3c5780825192015190808310610a2e57501790565b825f19910360031b1b161790565b60448260405192839163305a27a960e01b83528160048401528051918291826024860152018484015e5f828201840152601f01601f19168101030190fd5b906001600160401b03821161079b575f54926001938481811c91168015610b7d575b8382101461077d57601f8111610b4a575b5081601f8411600114610ae857509282939183925f94610add575b50501b915f199060031b1c1916175f5560ff90565b015192505f80610ac8565b919083601f1981165f8052845f20945f905b88838310610b305750505010610b18575b505050811b015f5560ff90565b01515f1960f88460031b161c191690555f8080610b0b565b858701518855909601959485019487935090810190610afa565b5f805284601f845f20920160051c820191601f860160051c015b828110610b72575050610aad565b5f8155018590610b64565b90607f1690610a9c565b805160209081811015610bb15750601f825111610a3c5780825192015190808310610a2e57501790565b9192916001600160401b03811161079b5760019182548381811c91168015610cb3575b8282101461077d57601f8111610c80575b5080601f8311600114610c205750819293945f92610c15575b50505f19600383901b1c191690821b17905560ff90565b015190505f80610bfe565b90601f19831695845f52825f20925f905b888210610c695750508385969710610c51575b505050811b01905560ff90565b01515f1960f88460031b161c191690555f8080610c44565b808785968294968601518155019501930190610c31565b835f5283601f835f20920160051c820191601f850160051c015b828110610ca8575050610be5565b5f8155018490610c9a565b90607f1690610bd456fe6080806040526004361015610012575f80fd5b5f3560e01c90816301ffc9a714613209575080630673d09a1461316157806306fdde03146130b8578063095ea7b3146130615780630b89f18214612f18578063105ae7ad14612eea57806316a0b3e014612ea957806318160ddd14612e8f57806318b6eb5514612e4f5780631c149e2814612be35780631d8a5e7e14612bb9578063215666a814612b9157806323b872dd14612b0f57806323de665114612ade578063273c1adf14610ea55780632754888d14612a755780632c357688146125b557806330adf81f1461257b578063313ce567146125605780633644e51514612546578063378997701461252357806338be241d146124d857806345421ec71461239f5780634efd88c9146123775780634f149b3f146123465780635211fa771461230357806354fd4d501461225a5780635687f2b814612206578063569ee350146121e4578063627cdcb9146121bb578063654cf15d14612199578063679aefce1461217a5780636bd838c7146120ff57806370a082311461205257806372c9818614611e1d5780637ecebe0014611de55780637f118b9014611a0757806381fa807c1461195a57806384254cf9146117d057806384b0196e146116f4578063851c1bb3146116ac5780638d928af81461166957806395d89b411461158b578063976907cc146114d3578063984de9e814611417578063a0e8f5ac146113cf578063a103b044146113b5578063a6d2e718146111cf578063a9059cbb146110fb578063aa6ca80814611067578063abb1dc4414610f46578063b156aa0a14610eaa578063b677fa5614610ea5578063ba5f9f4014610d38578063c0209f1d14610cf7578063c480b9e614610c3e578063c66dbc4b14610b9c578063cd80a1af14610ae6578063ce20ece714610ac6578063d335b0cf14610a5a578063d4a5b63a1461096d578063d505accf14610775578063d77153a7146106b8578063dd62ed3e146105f3578063dfba3818146105cf5763e45801da146102f2575f80fd5b346105cb5760403660031901126105cb5761030b613263565b602435906001600160a01b03906040519163ca4f280360e01b83523060048401525f83602481847f0000000000000000000000000000000000000000000000000000000000000000165afa928315610544575f936105a7575b5080806103708561366f565b511692168092145f1461059e576001915f5b6001811480610589575b61057a57610398613e33565b91906103cd6103b06103aa8584613ebf565b91613fb9565b5050506103c66103bf8261364b565b519161366f565b51906140ce565b93856103d88961366f565b5116036105745791925b846103ed838961367c565b51169460405197889163313ce56760e01b9788845283600460209c8d935afa928315610544578a928a915f9561054f575b50906104299161367c565b51169660046040518099819382525afa958615610544575f96610512575b5060ff1660120391601283116104f757670de0b6b3a764000061048060ff9561047b6104756104b097613b24565b8d6138d6565b6138d6565b04906040519961048f8b6132dc565b60028b526040368b8d01376104a4828c61367c565b5261050b576001615f34565b921660120391601283116104f7576104d16104d79261047b6104de95613b24565b906140ce565b918461367c565b526104f3604051928284938452830190613467565b0390f35b634e487b7160e01b5f52601160045260245ffd5b6003615f34565b60ff91965061053690893d8b1161053d575b61052e8183613328565b810190613b0b565b9590610447565b503d610524565b6040513d5f823e3d90fd5b6104299291955061056c90853d871161053d5761052e8183613328565b94909161041e565b926103e2565b63c1ab6dc160e01b5f5260045ffd5b50826105948661364b565b511682141561038c565b5f916001610382565b6105c49193503d805f833e6105bc8183613328565b810190613978565b915f610364565b5f80fd5b346105cb575f3660031901126105cb5760206105e9614c48565b6040519015158152f35b346105cb5760403660031901126105cb5761060c613263565b6020610616613279565b60405163927da10560e01b81523060048201526001600160a01b039384166024820152908316604482015291829060649082907f0000000000000000000000000000000000000000000000000000000000000000165afa8015610544575f90610685575b602090604051908152f35b506020813d6020116106b0575b8161069f60209383613328565b810103126105cb576020905161067a565b3d9150610692565b346105cb575f3660031901126105cb576101406040516106d7816132bf565b5f81526020810190604081015f8152606082015f815260808301905f825260a084015f815260c0850160e08601915f83526101009485880194610120809901975f895260018b5260018552600187526040519a5f8c5251151560208c015251151560408b015251151560608a0152511515608089015251151560a088015251151560c087015251151560e08601525115159084015251151590820152f35b346105cb5760e03660031901126105cb5761078e613263565b610796613279565b90604435916064359160843560ff811681036105cb5783421161095a576107d7826001600160a01b03165f52600260205260405f2080549060018201905590565b9060405160208101917f6e71edae12b1b97f4d1f60370fef10105fa2faae0126114a169c64845d6126c983526001600160a01b039687861694856040850152888816606085015289608085015260a084015260c083015260c0825260e082019082821067ffffffffffffffff831117610946578793610892936108899360405251902061086261491c565b906040519161190160f01b83526002830152602282015260c43591604260a4359220615505565b90929192615587565b168181036109315760405163e1f21c6760e01b81526001600160a01b03848116600483015285166024820152604481018790526020816064815f7f00000000000000000000000000000000000000000000000000000000000000008b165af18015610544576108fd57005b6020813d602011610929575b8161091660209383613328565b810103126105cb57610927906135b9565b005b3d9150610909565b6325c0072360e11b5f5260045260245260445ffd5b634e487b7160e01b5f52604160045260245ffd5b8363313c898160e11b5f5260045260245ffd5b346105cb575f3660031901126105cb57610985613b32565b6040516374eef59360e11b81523060048201526001600160a01b036060826024817f000000000000000000000000000000000000000000000000000000000000000085165afa918215610544576109ea926020915f91610a2b575b5001511630613c90565b6109f2614b05565b63ffffffff6060610a0161375e565b0151164211610a1c576109274242610a1761485b565b61421a565b63771cef4f60e01b5f5260045ffd5b610a4d915060603d606011610a53575b610a458183613328565b81019061353b565b846109e0565b503d610a3b565b346105cb575f3660031901126105cb5760405163b45090f960e01b81523060048201526020816024817f00000000000000000000000000000000000000000000000000000000000000006001600160a01b03165afa8015610544575f9061068557602090604051908152f35b346105cb575f3660031901126105cb5760206040516509184e72a0008152f35b346105cb575f3660031901126105cb576040516333f0703b60e11b81523060048201525f816024817f00000000000000000000000000000000000000000000000000000000000000006001600160a01b03165afa90811561054457604091610b68915f91610b76575b50600854906001600160801b038260801c921690614b9d565b825191825215156020820152f35b610b9291503d805f833e610b8a8183613328565b81019061399e565b9250505083610b4f565b346105cb5760203660031901126105cb57610bb5613b32565b610bbd613bd6565b6040516374eef59360e11b81523060048201526001600160a01b036060826024817f000000000000000000000000000000000000000000000000000000000000000085165afa91821561054457610c21926020915f91610a2b575001511630613c90565b610c29614b05565b6020610c366004356144a9565b604051908152f35b346105cb575f3660031901126105cb576040516333f0703b60e11b81523060048201525f816024817f00000000000000000000000000000000000000000000000000000000000000006001600160a01b03165afa8015610544576040915f91610cd9575b50610cc7610caf82614a47565b929167ffffffffffffffff60075460a01c1694614b9d565b50918351921015825215156020820152f35b610ced91503d805f833e610b8a8183613328565b9250505082610ca2565b346105cb575f3660031901126105cb576020610c36610d2c6104d1610d32610d1d614a88565b50610d2c83969394929461364b565b516138ac565b9361366f565b346105cb5760e03660031901126105cb57610d51613263565b50610d5a613279565b600460443510156105cb5767ffffffffffffffff6084358181116105cb57610d86903690600401613362565b5060a4358181116105cb57610d9f903690600401613362565b9060c4359081116105cb57602492610dbd60209236906004016133c2565b50610dc6613dee565b6040516339370aa960e21b81526001600160a01b03918216600482015293849182907f0000000000000000000000000000000000000000000000000000000000000000165afa918215610544575f92610e6f575b610e5c610e43610e5685610e4b86610e5083610e4b610e3b60643583613afe565b978894614a47565b5098906138d6565b6138e9565b946138d6565b906140f2565b610e64614750565b602060405160018152f35b91506020823d602011610e9d575b81610e8a60209383613328565b810103126105cb57905190610e56610e1a565b3d9150610e7d565b61344d565b346105cb575f3660031901126105cb576040516329ae7ec560e11b81523060048201525f816024817f00000000000000000000000000000000000000000000000000000000000000006001600160a01b03165afa8015610544576104f3915f91610f24575b50604051918291602083526020830190613467565b610f4091503d805f833e610f388183613328565b8101906136f1565b82610f0f565b346105cb575f3660031901126105cb576040516333f0703b60e11b81523060048201526001600160a01b03905f816024817f000000000000000000000000000000000000000000000000000000000000000086165afa8015610544575f915f935f915f93611046575b50610fc5604051946080865260808601906134cd565b6020858203818701528080885193848152019701925f905b83821061100a5787806104f389610ffc8d8b8582036040870152613467565b908382036060850152613467565b909192939783606060019260408c51805161102481613509565b8352808501518716858401520151151560408201520199019493920190610fdd565b925093505061105f91503d805f833e610b8a8183613328565b919385610faf565b346105cb575f3660031901126105cb5760405163ca4f280360e01b81523060048201525f816024817f00000000000000000000000000000000000000000000000000000000000000006001600160a01b03165afa8015610544576104f3915f916110e1575b506040519182916020835260208301906134cd565b6110f591503d805f833e6105bc8183613328565b826110cc565b346105cb5760403660031901126105cb576111526020611119613263565b6040516317d5759960e31b81523360048201526001600160a01b0390911660248083019190915235604482015291829081906064820190565b03815f6001600160a01b037f0000000000000000000000000000000000000000000000000000000000000000165af180156105445761119657602060405160018152f35b6020813d6020116111c7575b816111af60209383613328565b810103126105cb576111c0906135b9565b5080610e64565b3d91506111a2565b346105cb5760603660031901126105cb57600435604435602480356111f2613b32565b6040516374eef59360e11b81523060048201526001600160a01b0360608285817f000000000000000000000000000000000000000000000000000000000000000085165afa91821561054457611255926020915f91611396575001511630613c90565b8042118142180218928284116113815761126f8484613afe565b9162015180938484106113725761128f90611288614b05565b868461421a565b91828110611363576112a18382613afe565b620f4240811061135157508281111561132c5784810294818604149015171561131957506112d992916112d3916138d6565b9061531c565b7f00000000000000000000000000000000000000000000000000000000000000001061130a57602090604051908152f35b632b85f91760e11b5f5260045ffd5b634e487b7160e01b5f9081526011600452fd5b91848102948186041490151715611319575061134c92916112d3916138d6565b6112d9565b905063119d853760e21b5f526004525ffd5b61136d8184613afe565b6112a1565b6319f8e85560e11b5f5260045ffd5b50826364bb3b8360e11b5f526004525260445ffd5b6113af915060603d606011610a5357610a458183613328565b886109e0565b346105cb575f3660031901126105cb576020610c3661485b565b346105cb576003196060368201126105cb576004359067ffffffffffffffff82116105cb5760e091360301126105cb57611407613279565b50604080515f81525f6020820152f35b346105cb5760403660031901126105cb5767ffffffffffffffff6004358181116105cb57611449903690600401613362565b9060243560028110156105cb576020926114bf6001611494610c3695600854906001600160801b03600754918260a01c16928163ffffffff8416938c1c16918160801c911688614fde565b509190946114a181613509565b036114c557610d2c6114b96001955b610d2c8661366f565b9361364b565b91615f34565b610d2c6114b96002956114b0565b346105cb576101003660031901126105cb576114ed613263565b506114f6613279565b50600560443510156105cb5767ffffffffffffffff6064358181116105cb57611523903690600401613362565b506084358181116105cb5761153c903690600401613362565b60c4358281116105cb57611554903690600401613362565b5060e4359182116105cb576115706104f39236906004016133c2565b506040519182915f8352604060208401526040830190613467565b346105cb575f3660031901126105cb576040516004545f826115ac83613581565b91828252602093600190856001821691825f146116495750506001146115ee575b506115da92500383613328565b6104f360405192828493845283019061323f565b84915060045f527f8a35acfbc15ff81a39ae7d344fd709f28e8600b4aa8c65c6b64bfe7fe36bd19b905f915b8583106116315750506115da9350820101856115cd565b8054838901850152879450869390920191810161161a565b60ff1916858201526115da95151560051b85010192508791506115cd9050565b346105cb575f3660031901126105cb5760206040516001600160a01b037f0000000000000000000000000000000000000000000000000000000000000000168152f35b346105cb5760203660031901126105cb576004357fffffffff00000000000000000000000000000000000000000000000000000000811681036105cb57610c36602091613ab2565b346105cb575f3660031901126105cb5761172d7f000000000000000000000000000000000000000000000000000000000000000061534d565b6117567f0000000000000000000000000000000000000000000000000000000000000000615447565b9060405191602083019280841067ffffffffffffffff851117610946576117b06104f3926117a2956040525f8352604051958695600f60f81b875260e0602088015260e087019061323f565b90858203604087015261323f565b904660608501523060808501525f60a085015283820360c0850152613467565b346105cb575f3660031901126105cb576040516314cb3b1f60e21b81523060048201527f00000000000000000000000000000000000000000000000000000000000000006001600160a01b031690602081602481855afa908115610544575f91611920575b50156118d6575f602491604051928380926333f0703b60e11b82523060048301525afa8015610544576040915f916118b8575b506118ac610e4b670de0b6b3a76400006118a561189e61189561188a87614a47565b508181939299614dd5565b948186926138d6565b94806138d6565b04906140ce565b82519182526020820152f35b6118cc91503d805f833e610b8a8183613328565b9250505082611868565b5060407f00000000000000000000000000000000000000000000000000000000000000007f00000000000000000000000000000000000000000000000000000000000000006118ac565b90506020813d602011611952575b8161193b60209383613328565b810103126105cb5761194c906135b9565b82611835565b3d915061192e565b346105cb575f3660031901126105cb5760405163f29486a160e01b81523060048201526101a09081816024817f00000000000000000000000000000000000000000000000000000000000000006001600160a01b03165afa908115610544576040925f926119da575b505060608282015191015182519182526020820152f35b6119f99250803d10611a00575b6119f18183613328565b8101906137a3565b82806119c3565b503d6119e7565b346105cb575f3660031901126105cb57604051610200810181811067ffffffffffffffff8211176109465760405260608152606060208201525f60408201525f60608201525f60808201525f60a08201525f60c08201525f60e08201525f6101008201525f6101208201525f6101408201525f6101608201525f6101808201525f6101a08201525f6101c08201525f6101e082015260405163ca4f280360e01b81523060048201525f816024816001600160a01b037f0000000000000000000000000000000000000000000000000000000000000000165afa908115610544575f91611dcb575b508152604051633f1b0def60e11b81523060048201525f816024817f00000000000000000000000000000000000000000000000000000000000000006001600160a01b03165afa908115610544575f91611da8575b5060208201527f0000000000000000000000000000000000000000000000000000000000000000151560408201527f0000000000000000000000000000000000000000000000000000000000000000151560608201526509184e72a000608082015267016345785d8a000060a08201527f000000000000000000000000000000000000000000000000000000000000000060c08201527f000000000000000000000000000000000000000000000000000000000000000060e08201527f00000000000000000000000000000000000000000000000000000000000000006101008201527f00000000000000000000000000000000000000000000000000000000000000006101208201527f00000000000000000000000000000000000000000000000000000000000000006101408201526729a2241af62c00006101608201527f0000000000000000000000000000000000000000000000000000000000000000610180820152620151806101a0820152620f42406101c0820152655af3107a40006101e08201526040518091602082526101e0611d08611cf2835161020060208701526102208601906134cd565b6020840151858203601f1901604087015261349a565b91604081015115156060850152606081015115156080850152608081015160a085015260a081015160c085015260c081015160e085015260e08101516101008501526101008101516101208501526101208101516101408501526101408101516101608501526101608101516101808501526101808101516101a08501526101a08101516101c08501526101c08101518285015201516102008301520390f35b611dc491503d805f833e611dbc8183613328565b81019061371a565b5082611b43565b611ddf91503d805f833e6105bc8183613328565b82611aee565b346105cb5760203660031901126105cb576001600160a01b03611e06613263565b165f526002602052602060405f2054604051908152f35b346105cb576003196020368201126105cb576004359067ffffffffffffffff908183116105cb5760e09083360301126105cb576040519160e083018381108382111761094657604052806004013560028110156105cb578352602083016024820135815260448201358381116105cb57611e9d9060043691850101613362565b9360408101948552606081019360648401358552608082019360848101358552611ec960a4820161328f565b60a084015260c48101359182116105cb576004611ee992369201016133c2565b60c0820152611ef6613dee565b611f008551614a47565b969196929092612043575b611f13614750565b51611f1d81613509565b611f2681613509565b611fb957611f7a92611f6f611f80969593611f7493519889975195519788945194859288155f14611fa157611f6892610d2c610d2c959361047b93979261367c565b958a61367c565b6138ac565b906138e9565b9261367c565b518111611f9257602090604051908152f35b635a09f12960e11b5f5260045ffd5b93611f6892610d2c610d2c959361047b93979261367c565b5193519251915193949092611fce838761367c565b518511611f9257610d2c8593611ffa612005966120009585155f1461203957610d2c9091955b8b61367c565b9761367c565b613afe565b90811561202a5761201a6001916020946138d6565b915f198301040190151502610c36565b630a0c22c760e01b5f5260045ffd5b94610d2c90611ff4565b61204d83886140f2565b611f0b565b346105cb576020806003193601126105cb5760448161206f613263565b604051633de222bb60e21b81523060048201526001600160a01b03918216602482015292839182907f0000000000000000000000000000000000000000000000000000000000000000165afa908115610544575f916120d2575b50604051908152f35b90508181813d83116120f8575b6120e98183613328565b810103126105cb5751826120c9565b503d6120df565b346105cb575f3660031901126105cb575f606060405161211e816132a3565b8281528260208201528260408201520152608061213961375e565b604051906bffffffffffffffffffffffff8082511683526020820151166020830152606060408201519163ffffffff80931660408501520151166060820152f35b346105cb575f3660031901126105cb576356b7fcdb60e01b5f5260045ffd5b346105cb575f3660031901126105cb57602060405167016345785d8a00008152f35b346105cb575f3660031901126105cb57335f908152600260205260409020805460018101909155005b346105cb575f3660031901126105cb576020610c3661220161485b565b6148df565b346105cb5760207f8c5be1e5ebec7d5bd14f71427d1e84f3dd0314c0f7b2291e5b200ac8c7c3b92561223736613418565b92919390612243613dee565b6001600160a01b03809160405195865216941692a3005b346105cb575f3660031901126105cb576040516005545f8261227b83613581565b91828252602093600190856001821691825f146116495750506001146122a857506115da92500383613328565b84915060055f527f036b6384b5eca791c62761152d0c79bb0604c104a5fb6f4eb0703f3154bb3db0905f915b8583106122eb5750506115da9350820101856115cd565b805483890185015287945086939092019181016122d4565b346105cb576003196040368201126105cb576004359067ffffffffffffffff82116105cb5760e091360301126105cb5761233b613279565b5060206040515f8152f35b346105cb575f3660031901126105cb576060612360614a88565b919250604051928352602083015215156040820152f35b346105cb575f3660031901126105cb576020610c366001600160801b03600754831c16614831565b346105cb5760e03660031901126105cb576123b8613263565b506123c1613279565b600560443510156105cb5767ffffffffffffffff6064358181116105cb576123ed903690600401613362565b5060a4358181116105cb57612406903690600401613362565b9060c4359081116105cb5760249261242460209236906004016133c2565b5061242d613dee565b6040516339370aa960e21b81526001600160a01b03918216600482015293849182907f0000000000000000000000000000000000000000000000000000000000000000165afa918215610544575f926124a2575b610e5c610e43610e5685610e4b86610e5083610e4b610e3b826084356138ac565b91506020823d6020116124d0575b816124bd60209383613328565b810103126105cb57905190610e56612481565b3d91506124b0565b346105cb5760603660031901126105cb5767ffffffffffffffff6004358181116105cb5761250a903690600401613362565b506044359081116105cb5761233b9036906004016133c2565b346105cb575f3660031901126105cb57602063ffffffff60075416604051908152f35b346105cb575f3660031901126105cb576020610c3661491c565b346105cb575f3660031901126105cb57602060405160128152f35b346105cb575f3660031901126105cb5760206040517f6e71edae12b1b97f4d1f60370fef10105fa2faae0126114a169c64845d6126c98152f35b346105cb575f3660031901126105cb57604051610240810181811067ffffffffffffffff8211176109465760405260608152606060208201525f60408201525f60608201525f6080820152606060a08201525f60c08201525f60e08201525f6101008201525f6101208201525f6101408201525f6101608201525f6101808201525f6101a08201525f6101c08201525f6101e08201525f6102008201525f6102208201526040516329ae7ec560e11b81523060048201525f816024816001600160a01b037f0000000000000000000000000000000000000000000000000000000000000000165afa908115610544575f91612a5b575b508152604051633f1b0def60e11b81523060048201525f816024817f00000000000000000000000000000000000000000000000000000000000000006001600160a01b03165afa908115610544575f91612a3f575b50602082015260405163b45090f960e01b81523060048201526020816024816001600160a01b037f0000000000000000000000000000000000000000000000000000000000000000165afa908115610544575f91612a0d575b5060408201526127676135c6565b606082015267ffffffffffffffff60075463ffffffff811660808401526127db604051612793816132dc565b600281526040366020830137600854906001600160801b03918281166127b88361366f565b5260801c6127c58261364b565b5260a08601528260201c168060e0860152614831565b60c084015260a01c1661010082015263ffffffff60606127f961375e565b6bffffffffffffffffffffffff80825116610160860152602082015116610180850152826040820151166101a08501520151166101c082015260405163f29486a160e01b81523060048201526101a0816024816001600160a01b037f0000000000000000000000000000000000000000000000000000000000000000165afa908115610544575f916129ec575b5061012060e0820151151591826101e08501526101008101511515610200850152015115156102208301526129ca575b60405180916020825261022061292c6128dd8351610240602087015261026086019061349a565b6128f9602085015191601f19928388830301604089015261349a565b906040850151606087015260608501516080870152608085015160a087015260a0850151908683030160c087015261349a565b9160c081015160e085015260e08101516101008501526101008101516101208501526101208101516101408501526101408101516101608501526101608101516101808501526101808101516101a085015263ffffffff6101a0820151166101c085015263ffffffff6101c0820151166101e08501526101e08101511515610200850152610200810151151582850152015115156102408301520390f35b6129e16129d561485b565b806101208401526148df565b6101408201526128b6565b612a0791506101a03d6101a011611a00576119f18183613328565b82612886565b90506020813d602011612a37575b81612a2860209383613328565b810103126105cb575182612759565b3d9150612a1b565b612a5391503d805f833e611dbc8183613328565b905082612700565b612a6f91503d805f833e610f388183613328565b826126ab565b346105cb576101003660031901126105cb57612a8f613263565b50612a98613279565b50600460443510156105cb5767ffffffffffffffff6084358181116105cb57612ac5903690600401613362565b5060a4358181116105cb5761153c903690600401613362565b346105cb5760207fddf252ad1be2c89b69c2b068fc378daa952ba7f163c4a11628f55a4df523b3ef61223736613418565b346105cb5760846020612b2136613418565b604051630aed65f560e11b81523360048201526001600160a01b0393841660248201529183166044830152606482015292839182905f907f0000000000000000000000000000000000000000000000000000000000000000165af180156105445761119657602060405160018152f35b346105cb575f3660031901126105cb5760206007546001600160801b0360405191831c168152f35b346105cb575f3660031901126105cb57602067ffffffffffffffff60075460a01c16604051908152f35b346105cb5760403660031901126105cb5767ffffffffffffffff6004358181116105cb57612c15903690600401613362565b6024358281116105cb57612c2d9036906004016133c2565b50612c36613dee565b60405191610120830190811183821017610946576040525f825260208201905f8252604083015f815260608401935f855260808101915f835260a08201926060845260c08301925f8452612cb9612caa60e08301925f84526101008101995f8b52612c9f613e33565b928382935252613ebf565b91828652818c52808752613fb9565b8a528352855280865297612ce9612cdc612cd28961364b565b516103c68a61366f565b996103c66103bf8261364b565b670de05bc096e9c000998a820282159b838204148c17156104f757670de0b6b3a76400009b670de111a6b7de40008085029485041417156104f7578b8091048210928315612e43575b505050612e345788612dc7612db8612dd196612dae958b85612de09f612d8890612dd69f612db39f612d75906103c6612d6d612d7e9461366f565b51915161366f565b9e8f90516138d6565b049c8d94516138d6565b049b8c935197519951612dae612da186610d2c8661364b565b6104d186610d2c8761366f565b614d6a565b614dd5565b92612dae84610e4b8b806138d6565b6118a586806138d6565b6140f2565b514290429061421a565b50612e0a7f00000000000000000000000000000000000000000000000000000000000000006144a9565b50610e5c7f0000000000000000000000000000000000000000000000000000000000000000614612565b6304f512cb60e41b5f5260045ffd5b041090508a8a81612d32565b346105cb576003196020368201126105cb576004359067ffffffffffffffff82116105cb5761018091360301126105cb57604080515f81525f6020820152f35b346105cb575f3660031901126105cb576020610c366135c6565b346105cb5760603660031901126105cb5760043567ffffffffffffffff81116105cb57612eda903690600401613362565b5063d623472560e01b5f5260045ffd5b346105cb575f3660031901126105cb5760406008548151906001600160801b038116825260801c6020820152f35b346105cb5760e03660031901126105cb57612f31613263565b50612f3a613279565b5060443567ffffffffffffffff81116105cb57366023820112156105cb578060040135612f668161334a565b91612f746040519384613328565b81835260206024602085019360071b830101913683116105cb57602401925b828410612ff0578460803660631901126105cb57600290612fb2613dee565b511480612fdf575b80612fcd575b6020906040519015158152f35b5060c435801590811514612fc0575f80fd5b506064358015158114612fba575f80fd5b6080843603126105cb5760405190613007826132a3565b6130108561328f565b82528285013560028110156105cb578383015260408501356001600160a01b03811681036105cb576040830152606090818601359283151584036105cb576080938593820152815201930192612f93565b346105cb5760403660031901126105cb57611152602061307f613263565b60405163e1f21c6760e01b81523360048201526001600160a01b0390911660248083019190915235604482015291829081906064820190565b346105cb575f3660031901126105cb576040516003545f826130d983613581565b91828252602093600190856001821691825f1461164957505060011461310657506115da92500383613328565b84915060035f527fc2575a0e9e593c00f959f8c92f12db2869c3395a3b0502d05e2516446f71f85b905f915b8583106131495750506115da9350820101856115cd565b80548389018501528794508693909201918101613132565b346105cb5760203660031901126105cb5761317a613b32565b613182613bd6565b61318a613c73565b6040516374eef59360e11b81523060048201526001600160a01b036060826024817f000000000000000000000000000000000000000000000000000000000000000085165afa918215610544576131ee926020915f91610a2b575001511630613c90565b6131f6614b05565b613201600435614612565b610927613c73565b346105cb5760203660031901126105cb576004359063ffffffff60e01b82168092036105cb576020916301ffc9a760e01b148152f35b805180835260209291819084018484015e5f828201840152601f01601f1916010190565b600435906001600160a01b03821682036105cb57565b602435906001600160a01b03821682036105cb57565b35906001600160a01b03821682036105cb57565b6080810190811067ffffffffffffffff82111761094657604052565b610140810190811067ffffffffffffffff82111761094657604052565b6060810190811067ffffffffffffffff82111761094657604052565b67ffffffffffffffff811161094657604052565b6040810190811067ffffffffffffffff82111761094657604052565b90601f8019910116810190811067ffffffffffffffff82111761094657604052565b67ffffffffffffffff81116109465760051b60200190565b9080601f830112156105cb57602090823561337c8161334a565b9361338a6040519586613328565b81855260208086019260051b8201019283116105cb57602001905b8282106133b3575050505090565b813581529083019083016133a5565b81601f820112156105cb5780359067ffffffffffffffff821161094657604051926133f7601f8401601f191660200185613328565b828452602083830101116105cb57815f926020809301838601378301015290565b60609060031901126105cb576001600160a01b039060043582811681036105cb579160243590811681036105cb579060443590565b346105cb575f3660031901126105cb5760206040515f8152f35b9081518082526020808093019301915f5b828110613486575050505090565b835185529381019392810192600101613478565b9081518082526020808093019301915f5b8281106134b9575050505090565b8351855293810193928101926001016134ab565b9081518082526020808093019301915f5b8281106134ec575050505090565b83516001600160a01b0316855293810193928101926001016134de565b6002111561351357565b634e487b7160e01b5f52602160045260245ffd5b51906001600160a01b03821682036105cb57565b908160609103126105cb576135796040805192613557846132dc565b61356081613527565b845261356e60208201613527565b602085015201613527565b604082015290565b90600182811c921680156135af575b602083101461359b57565b634e487b7160e01b5f52602260045260245ffd5b91607f1691613590565b519081151582036105cb57565b6040516339370aa960e21b81523060048201526020816024817f00000000000000000000000000000000000000000000000000000000000000006001600160a01b03165afa908115610544575f9161361c575090565b90506020813d602011613643575b8161363760209383613328565b810103126105cb575190565b3d915061362a565b80516001101561365b5760400190565b634e487b7160e01b5f52603260045260245ffd5b80511561365b5760200190565b805182101561365b5760209160051b010190565b9080601f830112156105cb578151906020916136ab8161334a565b936136b96040519586613328565b81855260208086019260051b8201019283116105cb57602001905b8282106136e2575050505090565b815181529083019083016136d4565b906020828203126105cb57815167ffffffffffffffff81116105cb576137179201613690565b90565b9190916040818403126105cb5780519267ffffffffffffffff938481116105cb5781613747918401613690565b9360208301519081116105cb576137179201613690565b6040519061376b826132a3565b8160606006546bffffffffffffffffffffffff808216845281831c16602084015263ffffffff8160c01c16604084015260e01c910152565b809103906101a082126105cb576080604051926137bf846132bf565b126105cb576040516137d0816132a3565b6137d9826135b9565b81526137e7602083016135b9565b60208201526137f8604083016135b9565b6040820152613809606083016135b9565b606082015282526080810151602083015260a0810151604083015260c0810151606083015260e081015164ffffffffff811681036105cb576080830152610100908181015163ffffffff811681036105cb576138a5916101809160a0860152610120936138778583016135b9565b60c087015261388961014083016135b9565b60e087015261389b61016083016135b9565b90860152016135b9565b9082015290565b919082018092116104f757565b90670de0b6b3a7640000918281029281840414901517156104f757565b818102929181159184041417156104f757565b81156138f3570490565b634e487b7160e01b5f52601260045260245ffd5b9080601f830112156105cb578151906020916139228161334a565b936139306040519586613328565b81855260208086019260051b8201019283116105cb57602001905b828210613959575050505090565b81516001600160a01b03811681036105cb57815290830190830161394b565b906020828203126105cb57815167ffffffffffffffff81116105cb576137179201613907565b916080838303126105cb5782519067ffffffffffffffff918281116105cb57836139c9918601613907565b936020808201518481116105cb57820185601f820112156105cb578051906139f08261334a565b926040613a006040519586613328565b83855281850190826060809602850101938a85116105cb578301915b848310613a59575050505050509360408201518481116105cb5781613a42918401613690565b9360608301519081116105cb576137179201613690565b85838c03126105cb57815190613a6e826132dc565b835160028110156105cb57825284840151906001600160a01b03821682036105cb57828692838a950152613aa38587016135b9565b85820152815201920191613a1c565b60405160208101917f0000000000000000000000000000000000000000000000000000000000000000835263ffffffff60e01b16604082015260248152613af8816132dc565b51902090565b919082039182116104f757565b908160209103126105cb575160ff811681036105cb5790565b604d81116104f757600a0a90565b6040516314cb3b1f60e21b81523060048201526020816024817f00000000000000000000000000000000000000000000000000000000000000006001600160a01b03165afa908115610544575f91613b9c575b5015613b8d57565b63486aa30760e01b5f5260045ffd5b90506020813d602011613bce575b81613bb760209383613328565b810103126105cb57613bc8906135b9565b5f613b85565b3d9150613baa565b604051638380edb760e01b81526020816004817f00000000000000000000000000000000000000000000000000000000000000006001600160a01b03165afa908115610544575f91613c39575b50613c2a57565b633915d7f960e21b5f5260045ffd5b90506020813d602011613c6b575b81613c5460209383613328565b810103126105cb57613c65906135b9565b5f613c23565b3d9150613c47565b613c7b614c48565b15613c8257565b62f656ad60e21b5f5260045ffd5b906001600160a01b0390811680613de35750613cce5f357fffffffff0000000000000000000000000000000000000000000000000000000016613ab2565b60405163aaabadc560e01b8152602093909184836004817f000000000000000000000000000000000000000000000000000000000000000088165afa92831561054457859385915f91613da4575b50906064929160405196879586946326f8aa2160e21b86526004860152336024860152166044840152165afa918215610544575f92613d6e575b505015613d5f57565b6323dada5360e01b5f5260045ffd5b90809250813d8311613d9d575b613d858183613328565b810103126105cb57613d96906135b9565b5f80613d56565b503d613d7b565b92948092508391503d8311613ddc575b613dbe8183613328565b810103126105cb575183811681036105cb5784929084906064613d1c565b503d613db4565b9150503303613d5f57565b6001600160a01b037f0000000000000000000000000000000000000000000000000000000000000000163303613e2057565b63089676d560e01b5f523360045260245ffd5b6040516333f0703b60e11b8152306004820152905f826024817f00000000000000000000000000000000000000000000000000000000000000006001600160a01b03165afa918215610544575f92613e9f575b50613717613e996114b9613e998561366f565b51614cea565b613eb49192503d805f833e610b8a8183613328565b50509050905f613e86565b7f000000000000000000000000000000000000000000000000000000000000000015613fa957905b7f000000000000000000000000000000000000000000000000000000000000000015613f9957915b613717613f4084610e4b857f00000000000000000000000000000000000000000000000000000000000000006138d6565b93610e4b613f7282610e4b877f00000000000000000000000000000000000000000000000000000000000000006138d6565b947f00000000000000000000000000000000000000000000000000000000000000006138d6565b50670de0b6b3a764000091613f0f565b50670de0b6b3a764000090613ee7565b92919083610e4b613fc9926138b9565b613fda613fd5826138b9565b614eab565b670de0b6b3a763ffff1981019081116104f75780156138f357710b7abc627050305adf14a3d9e40000000000049269d3c21bcecceda100000094858501908186116104f757614033670de0b6b3a76400009283926138d6565b049360405191614042836132dc565b600283526040366020850137829761405a8784614d48565b908881018091116104f75761406e91614d48565b91818302928084048314901517156104f7576140c06140c592614097896120006140cb97614eab565b6140a08761364b565b526140ae89610d2c8861364b565b906140b9848c6138d6565b0490613afe565b6140ce565b9161366f565b52565b90670de0b6b3a7640000918281029281840414901517156104f757613717916138e9565b906001600160801b0361410483614dff565b166fffffffffffffffffffffffffffffffff1961412083614dff565b60801b16176008556040907ff36b0fd05d55ca91fb3ebd8493adf78a3405a11c145c054a092d0994b665b637828051858152836020820152a16001600160a01b037f0000000000000000000000000000000000000000000000000000000000000000169082519360208501528284015281835261419c836132dc565b803b156105cb576141f35f93918492845195868094819363c808824760e01b83527f5669727475616c42616c616e63657355706461746564000000000000000000006004840152886024840152604483019061323f565b03925af190811561421157506142065750565b61420f906132f8565b565b513d5f823e3d90fd5b92919081811180156144a0575b6144915761423361375e565b9161423d856148df565b946001600160a01b037f000000000000000000000000000000000000000000000000000000000000000016916040938451926314cb3b1f60e21b84523060048501526020938481602481895afa908115614487575f91614452575b501561443e57506143e792916143d9916142b061485b565b996142ba8b6148df565b985b6bffffffffffffffffffffffff806142d38c614e2a565b1682526142df83614e2a565b81888401911681527bffffffff00000000000000000000000000000000000000000000000077ffffffffffffffffffffffff00000000000000000000000061432687614e5a565b938d86019563ffffffff809616875261433e8a614e5a565b95861660608201525116925160601b16935160c01b169163ffffffff60e01b9060e01b16921717176006557fa18562ea402e57cc2b437f8d7a139c6c38958adc1ecbb706ec37a7a64ff6e7a5818a6143b386868d51948594859094939260609260808301968352602083015260408201520152565b0390a1875198899586019094939260609260808301968352602083015260408201520152565b03601f198101855284613328565b803b156105cb576141f35f93918492845195868094819363c808824760e01b83527f5072696365526174696f537461746555706461746564000000000000000000006004840152886024840152604483019061323f565b9597916143d991836143e79594989a6142bc565b90508481813d8311614480575b6144698183613328565b810103126105cb5761447a906135b9565b5f614298565b503d61445f565b87513d5f823e3d90fd5b632ca4094f60e21b5f5260045ffd5b50428110614227565b6729a2241af62c00008111614603576201e6e9670de0b6b3a7640000910481039081116104f7576144d981614831565b906144e381614dff565b73ffffffffffffffffffffffffffffffff000000006007549160201b169073ffffffffffffffffffffffffffffffff0000000019161760075560407f7ee46b38be05f748de1c0fb2002ac48fe50a26a0017c654a92c0bf9228058847818051858152846020820152a16001600160a01b037f0000000000000000000000000000000000000000000000000000000000000000168151928460208501528284015281835261458f836132dc565b803b156105cb576145e65f93918492845195868094819363c808824760e01b83527f4461696c79507269636553686966744578706f6e656e745570646174656400006004840152886024840152604483019061323f565b03925af190811561421157506145fa575090565b613717906132f8565b632b5b4f3560e01b5f5260045ffd5b670de0b6b3a76400008111614741576007547fffffffff0000000000000000ffffffffffffffffffffffffffffffffffffffff7bffffffffffffffff00000000000000000000000000000000000000008360a01b169116176007557f74d468c8e414c37c502176a45cce93c85eaa0abf608e40641dc6664ca5efcab06020604051838152a16001600160a01b037f000000000000000000000000000000000000000000000000000000000000000016604051916020830152602082526146d78261330c565b803b156105cb576147305f9291839260405194858094819363c808824760e01b83527f43656e74657265646e6573734d617267696e5570646174656400000000000000600484015260406024840152604483019061323f565b03925af18015610544576142065750565b637304fac760e01b5f5260045ffd5b63ffffffff61475e42614e5a565b168063ffffffff1960075416176007557f32a9fd44bdf167703f584bd25098494d3d18a4653a2d97116d28da05209444d46020604051838152a16001600160a01b037f000000000000000000000000000000000000000000000000000000000000000016604051916020830152602082526147d88261330c565b803b156105cb576147305f9291839260405194858094819363c808824760e01b83527f4c61737454696d657374616d7055706461746564000000000000000000000000600484015260406024840152604483019061323f565b670de0b6b3a7640000818103918183116104f7576201e6e980840293840414911417156104f75790565b6040516333f0703b60e11b81523060048201525f816024817f00000000000000000000000000000000000000000000000000000000000000006001600160a01b03165afa801561054457613717915f916148c1575b506148ba81614a47565b5091614e82565b6148d591503d805f833e610b8a8183613328565b925050505f6148b0565b670de0b6b3a764000090818102908082048314901517156104f75761490390614eab565b8181029181830414901517156104f75761371790614eab565b6001600160a01b037f000000000000000000000000000000000000000000000000000000000000000016301480614a1e575b15614977577f000000000000000000000000000000000000000000000000000000000000000090565b60405160208101907f8b73c3c69bb8fe3d512ecc4cf759cc79239f7b179b0ffacaa9a75d522b39400f82527f000000000000000000000000000000000000000000000000000000000000000060408201527f000000000000000000000000000000000000000000000000000000000000000060608201524660808201523060a082015260a0815260c0810181811067ffffffffffffffff8211176109465760405251902090565b507f0000000000000000000000000000000000000000000000000000000000000000461461494e565b614a83906008546001600160801b036007549167ffffffffffffffff8360a01c16938263ffffffff85169460201c16928260801c921690614fde565b909192565b6040516333f0703b60e11b8152306004820152905f826024817f00000000000000000000000000000000000000000000000000000000000000006001600160a01b03165afa918215610544575f92614ae5575b50614a8382614a47565b614afa9192503d805f833e610b8a8183613328565b92505050905f614adb565b6040516333f0703b60e11b81523060048201525f816024817f00000000000000000000000000000000000000000000000000000000000000006001600160a01b03165afa801561054457614b60915f91614b7f575b50614a47565b614b6f575b505061420f614750565b614b78916140f2565b5f80614b65565b614b9391503d805f833e610b8a8183613328565b925050505f614b5a565b9190614ba88361366f565b51614bb6575050505f905f90565b614bbf8361364b565b5115614c3e57614bde6114b9614be593614bd88661366f565b516138d6565b51906138d6565b808211614c1457670de0b6b3a7640000918281029281840414901517156104f757614c0f916138e9565b905f90565b90670de0b6b3a7640000918281029281840414901517156104f757614c38916138e9565b90600190565b5050505f90600190565b6040516333f0703b60e11b81523060048201525f816024817f00000000000000000000000000000000000000000000000000000000000000006001600160a01b03165afa908115610544575f91614ccc575b50614cc660085467ffffffffffffffff60075460a01c16926001600160801b038260801c921690614b9d565b50101590565b614ce091503d805f833e610b8a8183613328565b925050505f614c9a565b60018151614cf781613509565b614d0081613509565b03614d3b5760206001600160a01b0381600493015116604051928380926333cd77e760e11b82525afa908115610544575f9161361c575b5090565b50670de0b6b3a764000090565b90614d52916138d6565b6001670de0b6b3a76400005f19830104019015150290565b670de05bc096e9c000808302831591848204148217156104f757670de0b6b3a764000091670de111a6b7de40008086029586041417156104f7578190048210928315614dc9575b505050614dba57565b633d9f09df60e21b5f5260045ffd5b041090505f8080614db1565b614df5670de0b6b3a764000093610d2c6114b9614dfb95610d2c8661366f565b906138d6565b0490565b6001600160801b0390818111614e13571690565b6306dfcc6560e41b5f52608060045260245260445ffd5b6bffffffffffffffffffffffff90818111614e43571690565b6306dfcc6560e41b5f52606060045260245260445ffd5b63ffffffff90818111614e6b571690565b6306dfcc6560e41b5f52602060045260245260445ffd5b610e4b670de0b6b3a76400006118a561189e866118956137179888614ea698614dd5565b61531c565b600180821115614d3757614f7a908083700100000000000000000000000000000000811015614fc7575b80680100000000000000006004921015614fba575b640100000000811015614fad575b62010000811015614fa0575b610100811015614f94575b6010811015614f88575b1015614f81575b600302811c614f2f81856138e9565b01811c614f3c81856138e9565b01811c614f4981856138e9565b01811c614f5681856138e9565b01811c614f6381856138e9565b01811c614f7081856138e9565b01901c80926138e9565b8111900390565b811b614f20565b811c9160021b91614f19565b60081c91811b91614f0f565b60101c9160081b91614f04565b60201c9160101b91614ef8565b60401c9160201b91614eea565b50680100000000000000009050608084901c614ed5565b919495929390955f94614ff042614e5a565b9163ffffffff90818416988286168a811461530e578b829b61501061375e565b92866bffffffffffffffffffffffff9281848751169461504a8d8260208b01511699604081019a6060868d5116920199868b5116936155fd565b16965116109283615301575b50505061518c575b5050509067ffffffffffffffff9493929161507a8a8c89614b9d565b969091161161508c575b505050505050565b909192959894979396506150a184868a614e82565b670de0b6b3a764000096878202918083048914901517156104f7576150c86150f292614eab565b958915615172576150e26150db8c61366f565b519b61364b565b51975b8a1561516a5750946155e7565b16858102908082048714901517156104f75761512292614df56151169288946156b3565b0495614df584886138ac565b91670de0b6b3a763ffff1982019182116104f75761514d9361514787611f74946138d6565b04613afe565b901561516557905b90916001905f8080808080615084565b615155565b9050946155e7565b61518561517e8c61364b565b519b61366f565b51976150e5565b829b506151a19291949c5080939a5088614b9d565b9990918a156152ea576151ce906151b78961366f565b519092945b670de0b6b3a7640000928184926138d6565b04938083018093116104f7577f3fffffffffffffffffffffffffffffffffffffffffffffffffffffffffffffff851685036104f7576152108560021b826138ac565b671bc16d674ec7ffff1981019081116104f75761522c916138d6565b6ec097ce7bc90715b34b9f100000000081018091116104f75761525b92615255614df592614eab565b906138ac565b670de0b6b3a763ffff1983019283116104f7577f7fffffffffffffffffffffffffffffffffffffffffffffffffffffffffffffff831683036104f7576152ab610e4b916152b29460011b906138e9565b93846138d6565b97156152d8579067ffffffffffffffff939291975b979860019790919293945f8061505e565b67ffffffffffffffff939291906152c7565b906151ce906152f88961364b565b519092946151bc565b51161190505f8681615056565b5098505f9750505050505050565b90801561202a57670de0b6b3a7640000918281029281840414901517156104f7576001905f19830104019015150290565b60ff81146153885760ff811690601f8211615379576040519161536f8361330c565b8252602082015290565b632cd44ac360e21b5f5260045ffd5b506040515f815f549161539a83613581565b8083529260209060019081811690811561542357506001146153c5575b505061371792500382613328565b9150925f80527f290decd9548b62a8d60345a988386fc84ba6bc95484008f6362f93160ef3e563935f925b82841061540b57506137179450505081016020015f806153b7565b855487850183015294850194869450928101926153f0565b9150506020925061371794915060ff191682840152151560051b8201015f806153b7565b60ff81146154695760ff811690601f8211615379576040519161536f8361330c565b506040515f8160019160015461547e81613581565b808452936020916001811690811561542357506001146154a657505061371792500382613328565b91509260015f527fb10e2d527612073b26eecdfd717e6a320cf44b4afac2b0732d9fcbe2b7fa0cf6935f925b8284106154ed57506137179450505081016020015f806153b7565b855487850183015294850194869450928101926154d2565b91907f7fffffffffffffffffffffffffffffff5d576e7357a4501ddfe92f46681b20a0841161557c579160209360809260ff5f9560405194855216868401526040830152606082015282805260015afa15610544575f516001600160a01b0381161561557257905f905f90565b505f906001905f90565b5050505f9160039190565b60048110156135135780615599575050565b600181036155b05763f645eedf60e01b5f5260045ffd5b600281036155cb575063fce698f760e01b5f5260045260245ffd5b6003146155d55750565b6335e2f38360e21b5f5260045260245ffd5b63ffffffff91821690821603919082116104f757565b90939192919063ffffffff90818116828416811061561f575050505050905090565b82851610156156ab57838261563a61564896615641946155e7565b16936155e7565b16906140ce565b916bffffffffffffffffffffffff8091169116670de0b6b3a7640000808202938285048214831517156104f75761568e6156949161568986613717986138e9565b6156b3565b846138d6565b049181808210911802188180821191180218614e2a565b505050505090565b670de0b6b3a7640000918083036156ca5750905090565b8290671bc16d674ec8000081036156e757505080614dfb916138d6565b673782dace9d900000810361570b575061570482614dfb936138d6565b04806138d6565b90506157169161577a565b6127108082029082820414821517156104f75760015f199384830104019015150290600182018083116104f757811015615751575050505f90565b030190565b80156138f3576ec097ce7bc90715b34b9f10000000000590565b81156138f3570590565b908015615f26578115615f20578160ff1c615f1257770bce5086492111aea88f4bb1ca6bcf584181ea8059f76532811015615f035781670c7d713b49da00001280615ef2575b15615ba557670de0b6b3a7640000916ec097ce7bc90715b34b9f100000000090615803908402828101906ec097ce7bc90715b34b9f0fffffffff19018302615770565b9080828002059181838202058284820205838582020591848684020593858786020595808888020597880205600f900596600d900595600b900594600990059360079005926005900591600390050101010101010160011b918082818507020592050201670de0b6b3a7640000905b05680238fd42c5cf03ffff198181131580615b92575b15615b8357819082121580615b70575b15615b61575f915f8112615b52575b506064906806f05b59d3b20000008112615b05576806f05b59d3b1ffffff190168056bc75e2d6310000082770195e54c5dd42177f53a27172fa9ec630262827000000000925b02819068ad78ebc5ac62000000811215615ae2575b6856bc75e2d631000000811215615abe575b682b5e3af16b18800000811215615a9c575b6815af1d78b58c400000811215615a7a575b680ad78ebc5ac6200000811215615a59575b82811215615a38575b6802b5e3af16b1880000811215615a17575b68015af1d78b58c400008112156159f6575b60028382800205056003848383020505600485848302050585600581868402050560068287830205056007838883020505906008848984020505926009858a8602050595600a868b8902050597600b878c8b02050599600c888d8d0205059b01010101010101010101010102050205905f146137175761371790615756565b6806f5f1775788937937839168015af1d78b58c3ffff190192020590615977565b6808f00f760a4b2db55d83916802b5e3af16b187ffff190192020590615965565b680ebc5fb41746121110839168056bc75e2d630fffff190192020590615953565b68280e60114edb805d038391680ad78ebc5ac61fffff19019202059061594a565b690127fa27722cc06cc5e283916815af1d78b58c3fffff190192020590615938565b693f1fce3da636ea5cf8508391682b5e3af16b187fffff190192020590615926565b6b02df0ab5a80a22c61ab5a70083916856bc75e2d630ffffff190192020590615914565b6e01855144814a7ff805980ff0084000915068ad78ebc5ac61ffffff1901615902565b6803782dace9d90000008112615b3f576803782dace9d8ffffff190168056bc75e2d63100000826b1425982cf597cd205cef7380926158ed565b68056bc75e2d63100000826001926158ed565b600192505f03905060646158a7565b63d4794efd60e01b5f5260045ffd5b5068070c1cc73b00c80000821315615898565b63a2f9f7e360e01b5f5260045ffd5b5068070c1cc73b00c80000821315615888565b81670de0b6b3a7640000925f91848112615edc575b506064905f7e1600ef3172e58d2e933ec884fde10064c63b5372d805e203c0000000000000821215615eb1575b73011798004d755d3c8bc8e03204cf44619e000000821215615e90575b820290808302906e01855144814a7ff805980ff00840009081831215615e6d575b50506b02df0ab5a80a22c61ab5a70080821215615e4d575b50693f1fce3da636ea5cf85080821215615e2d575b50690127fa27722cc06cc5e280821215615e0d575b5068280e60114edb805d0380821215615ded575b50680ebc5fb4174612111080821215615dd6575b506808f00f760a4b2db55d80821215615db6575b506806f5f177578893793780821215615d96575b506806248f33704b28660380821215615d77575b506805c548670b9510e7ac80821215615d58575b50615d0568056bc75e2d6310000091828082019168056bc75e2d630fffff190102615770565b9080828002059181838202058284820205916003600560076009600b888a89020598808b8b02059a8b0205059805960594059205010101010160011b0105905f14615d53575f035b02615872565b615d4d565b68056bc75e2d631000006756bc75e2d63100009202059101905f615cdf565b68056bc75e2d6310000067ad78ebc5ac6200009202059101905f615ccb565b68056bc75e2d6310000068015af1d78b58c400009202059101905f615cb7565b68056bc75e2d631000006802b5e3af16b18800009202059101905f615ca3565b68056bc75e2d63100000809202059101905f615c8f565b68056bc75e2d63100000680ad78ebc5ac62000009202059101905f615c7b565b68056bc75e2d631000006815af1d78b58c4000009202059101905f615c67565b68056bc75e2d63100000682b5e3af16b188000009202059101905f615c52565b68056bc75e2d631000006856bc75e2d6310000009202059101905f615c3d565b68ad78ebc5ac62000000925069021e19e0c9bab240000002059101905f80615c25565b906b1425982cf597cd205cef73806803782dace9d900000091059101615c04565b50770195e54c5dd42177f53a27172fa9ec63026282700000000090056806f05b59d3b2000000615be7565b9050615ee89150615756565b6001906064615bba565b50670f43fc2c04ee000082126157c0565b63d831731160e01b5f5260045ffd5b6211380f60e51b5f5260045ffd5b50505f90565b5050670de0b6b3a764000090565b91909180600314615f7f5780600114615f6b57600214615f6257634e487b7160e01b5f52605160045260245ffd5b61371791614d48565b50614dfb90670de0b6b3a7640000926138d6565b50670de0b6b3a7640000918281029281840414901517156104f757613717916138e956fea264697066735822122059118932267011c7cf97006bc40463d53aea2d566eeecab5cb5a20ccf1011bca64736f6c634300081b0033c2575a0e9e593c00f959f8c92f12db2869c3395a3b0502d05e2516446f71f85b",
  "linkReferences": {},
  "deployedLinkReferences": {}
}