{
  "_format": "hh-sol-artifact-1",
  "contractName": "ReClammPoolFactory",
  "sourceName": "contracts/ReClammPoolFactory.sol",
  "abi": [
    {
      "inputs": [
        {
          "internalType": "contract IVault",
          "name": "vault",
          "type": "address"
        },
        {
          "internalType": "uint32",
          "name": "pauseWindowDuration",
          "type": "uint32"
        },
        {
          "internalType": "string",
          "name": "factoryVersion",
          "type": "string"
        },
        {
          "internalType": "string",
          "name": "poolVersion",
          "type": "string"
        }
      ],
      "stateMutability": "nonpayable",
      "type": "constructor"
    },
    {
      "inputs": [],
      "name": "CodeDeploymentFailed",
      "type": "error"
    },
    {
      "inputs": [],
      "name": "Create2EmptyBytecode",
      "type": "error"
    },
    {
      "inputs": [],
      "name": "Disabled",
      "type": "error"
    },
    {
      "inputs": [],
      "name": "FailedDeployment",
      "type": "error"
    },
    {
      "inputs": [],
      "name": "IndexOutOfBounds",
      "type": "error"
    },
    {
      "inputs": [
        {
          "internalType": "uint256",
          "name": "balance",
          "type": "uint256"
        },
        {
          "internalType": "uint256",
          "name": "needed",
          "type": "uint256"
        }
      ],
      "name": "InsufficientBalance",
      "type": "error"
    },
    {
      "inputs": [],
      "name": "MaxTokens",
      "type": "error"
    },
    {
      "inputs": [],
      "name": "PoolPauseWindowDurationOverflow",
      "type": "error"
    },
    {
      "inputs": [],
      "name": "SenderNotAllowed",
      "type": "error"
    },
    {
      "inputs": [],
      "name": "StandardPoolWithCreator",
      "type": "error"
    },
    {
      "inputs": [],
      "name": "VaultNotSet",
      "type": "error"
    },
    {
      "anonymous": false,
      "inputs": [],
      "name": "FactoryDisabled",
      "type": "event"
    },
    {
      "anonymous": false,
      "inputs": [
        {
          "indexed": true,
          "internalType": "address",
          "name": "pool",
          "type": "address"
        }
      ],
      "name": "PoolCreated",
      "type": "event"
    },
    {
      "inputs": [
        {
          "internalType": "string",
          "name": "name",
          "type": "string"
        },
        {
          "internalType": "string",
          "name": "symbol",
          "type": "string"
        },
        {
          "components": [
            {
              "internalType": "contract IERC20",
              "name": "token",
              "type": "address"
            },
            {
              "internalType": "enum TokenType",
              "name": "tokenType",
              "type": "uint8"
            },
            {
              "internalType": "contract IRateProvider",
              "name": "rateProvider",
              "type": "address"
            },
            {
              "internalType": "bool",
              "name": "paysYieldFees",
              "type": "bool"
            }
          ],
          "internalType": "struct TokenConfig[]",
          "name": "tokens",
          "type": "tuple[]"
        },
        {
          "components": [
            {
              "internalType": "address",
              "name": "pauseManager",
              "type": "address"
            },
            {
              "internalType": "address",
              "name": "swapFeeManager",
              "type": "address"
            },
            {
              "internalType": "address",
              "name": "poolCreator",
              "type": "address"
            }
          ],
          "internalType": "struct PoolRoleAccounts",
          "name": "roleAccounts",
          "type": "tuple"
        },
        {
          "internalType": "uint256",
          "name": "swapFeePercentage",
          "type": "uint256"
        },
        {
          "internalType": "uint256",
          "name": "initialMinPrice",
          "type": "uint256"
        },
        {
          "internalType": "uint256",
          "name": "initialMaxPrice",
          "type": "uint256"
        },
        {
          "internalType": "uint256",
          "name": "initialTargetPrice",
          "type": "uint256"
        },
        {
          "internalType": "uint256",
          "name": "dailyPriceShiftExponent",
          "type": "uint256"
        },
        {
          "internalType": "uint64",
          "name": "centerednessMargin",
          "type": "uint64"
        },
        {
          "internalType": "bytes32",
          "name": "salt",
          "type": "bytes32"
        }
      ],
      "name": "create",
      "outputs": [
        {
          "internalType": "address",
          "name": "pool",
          "type": "address"
        }
      ],
      "stateMutability": "nonpayable",
      "type": "function"
    },
    {
      "inputs": [],
      "name": "disable",
      "outputs": [],
      "stateMutability": "nonpayable",
      "type": "function"
    },
    {
      "inputs": [
        {
          "internalType": "bytes4",
          "name": "selector",
          "type": "bytes4"
        }
      ],
      "name": "getActionId",
      "outputs": [
        {
          "internalType": "bytes32",
          "name": "",
          "type": "bytes32"
        }
      ],
      "stateMutability": "view",
      "type": "function"
    },
    {
      "inputs": [],
      "name": "getAuthorizer",
      "outputs": [
        {
          "internalType": "contract IAuthorizer",
          "name": "",
          "type": "address"
        }
      ],
      "stateMutability": "view",
      "type": "function"
    },
    {
      "inputs": [],
      "name": "getCreationCode",
      "outputs": [
        {
          "internalType": "bytes",
          "name": "",
          "type": "bytes"
        }
      ],
      "stateMutability": "view",
      "type": "function"
    },
    {
      "inputs": [],
      "name": "getCreationCodeContracts",
      "outputs": [
        {
          "internalType": "address",
          "name": "contractA",
          "type": "address"
        },
        {
          "internalType": "address",
          "name": "contractB",
          "type": "address"
        }
      ],
      "stateMutability": "view",
      "type": "function"
    },
    {
      "inputs": [],
      "name": "getDefaultLiquidityManagement",
      "outputs": [
        {
          "components": [
            {
              "internalType": "bool",
              "name": "disableUnbalancedLiquidity",
              "type": "bool"
            },
            {
              "internalType": "bool",
              "name": "enableAddLiquidityCustom",
              "type": "bool"
            },
            {
              "internalType": "bool",
              "name": "enableRemoveLiquidityCustom",
              "type": "bool"
            },
            {
              "internalType": "bool",
              "name": "enableDonation",
              "type": "bool"
            }
          ],
          "internalType": "struct LiquidityManagement",
          "name": "liquidityManagement",
          "type": "tuple"
        }
      ],
      "stateMutability": "pure",
      "type": "function"
    },
    {
      "inputs": [],
      "name": "getDefaultPoolHooksContract",
      "outputs": [
        {
          "internalType": "address",
          "name": "",
          "type": "address"
        }
      ],
      "stateMutability": "pure",
      "type": "function"
    },
    {
      "inputs": [
        {
          "internalType": "bytes",
          "name": "constructorArgs",
          "type": "bytes"
        },
        {
          "internalType": "bytes32",
          "name": "salt",
          "type": "bytes32"
        }
      ],
      "name": "getDeploymentAddress",
      "outputs": [
        {
          "internalType": "address",
          "name": "",
          "type": "address"
        }
      ],
      "stateMutability": "view",
      "type": "function"
    },
    {
      "inputs": [],
      "name": "getNewPoolPauseWindowEndTime",
      "outputs": [
        {
          "internalType": "uint32",
          "name": "",
          "type": "uint32"
        }
      ],
      "stateMutability": "view",
      "type": "function"
    },
    {
      "inputs": [],
      "name": "getOriginalPauseWindowEndTime",
      "outputs": [
        {
          "internalType": "uint32",
          "name": "",
          "type": "uint32"
        }
      ],
      "stateMutability": "view",
      "type": "function"
    },
    {
      "inputs": [],
      "name": "getPauseWindowDuration",
      "outputs": [
        {
          "internalType": "uint32",
          "name": "",
          "type": "uint32"
        }
      ],
      "stateMutability": "view",
      "type": "function"
    },
    {
      "inputs": [],
      "name": "getPoolCount",
      "outputs": [
        {
          "internalType": "uint256",
          "name": "",
          "type": "uint256"
        }
      ],
      "stateMutability": "view",
      "type": "function"
    },
    {
      "inputs": [],
      "name": "getPoolVersion",
      "outputs": [
        {
          "internalType": "string",
          "name": "",
          "type": "string"
        }
      ],
      "stateMutability": "view",
      "type": "function"
    },
    {
      "inputs": [],
      "name": "getPools",
      "outputs": [
        {
          "internalType": "address[]",
          "name": "",
          "type": "address[]"
        }
      ],
      "stateMutability": "view",
      "type": "function"
    },
    {
      "inputs": [
        {
          "internalType": "uint256",
          "name": "start",
          "type": "uint256"
        },
        {
          "internalType": "uint256",
          "name": "count",
          "type": "uint256"
        }
      ],
      "name": "getPoolsInRange",
      "outputs": [
        {
          "internalType": "address[]",
          "name": "pools",
          "type": "address[]"
        }
      ],
      "stateMutability": "view",
      "type": "function"
    },
    {
      "inputs": [],
      "name": "getVault",
      "outputs": [
        {
          "internalType": "contract IVault",
          "name": "",
          "type": "address"
        }
      ],
      "stateMutability": "view",
      "type": "function"
    },
    {
      "inputs": [],
      "name": "isDisabled",
      "outputs": [
        {
          "internalType": "bool",
          "name": "",
          "type": "bool"
        }
      ],
      "stateMutability": "view",
      "type": "function"
    },
    {
      "inputs": [
        {
          "internalType": "address",
          "name": "pool",
          "type": "address"
        }
      ],
      "name": "isPoolFromFactory",
      "outputs": [
        {
          "internalType": "bool",
          "name": "",
          "type": "bool"
        }
      ],
      "stateMutability": "view",
      "type": "function"
    },
    {
      "inputs": [],
      "name": "version",
      "outputs": [
        {
          "internalType": "string",
          "name": "",
          "type": "string"
        }
      ],
      "stateMutability": "view",
      "type": "function"
    }
  ],
  "bytecode": "0x610180604052346100aa5761001e61001561013d565b92919091610385565b60405161160290816105e38239608051818181610203015261121f015260a051816111a9015260c0518181816102270152611244015260e051816111ca015261010051816111040152610120518181816102fa01528181610be601528181610c5401528181610fc101526113e101526101405181610b53015261016051818181610cf501526111710152f35b5f80fd5b634e487b7160e01b5f52604160045260245ffd5b6040519190601f01601f191682016001600160401b038111838210176100e757604052565b6100ae565b81601f820112156100aa578051906001600160401b0382116100e75761011b601f8301601f19166020016100c2565b92828452602083830101116100aa57815f9260208093018386015e8301015290565b61873c908138038061014e816100c2565b9384398201906080838303126100aa578251906001600160a01b03821682036100aa5760208401519363ffffffff851685036100aa5760408101516001600160401b0394908581116100aa57816101a69184016100ec565b9460608301519081116100aa576101bd92016100ec565b9193929190565b90600182811c921680156101f2575b60208310146101de57565b634e487b7160e01b5f52602260045260245ffd5b91607f16916101d3565b601f8111610208575050565b60035f5260205f20906020601f840160051c83019310610242575b601f0160051c01905b818110610237575050565b5f815560010161022c565b9091508190610223565b601f8111610258575050565b60045f5260205f20906020601f840160051c83019310610292575b601f0160051c01905b818110610287575050565b5f815560010161027c565b9091508190610273565b80519091906001600160401b0381116100e7576102c3816102be6004546101c4565b61024c565b602080601f8311600114610304575081906102f493945f926102f9575b50508160011b915f199060031b1c19161790565b600455565b015190505f806102e0565b60045f52601f198316949091907f8a35acfbc15ff81a39ae7d344fd709f28e8600b4aa8c65c6b64bfe7fe36bd19b925f905b87821061036d575050836001959610610355575b505050811b01600455565b01515f1960f88460031b161c191690555f808061034a565b80600185968294968601518155019501930190610336565b929192616b57610397602082016100c2565b90808252611be560208301398051908160011c918260a05282810392818411610450578360e0528083526103ca83610553565b60805282019182519383526103de836105a2565b60c052525230610100526001600160a01b03811615610441576101205263ffffffff9261040d84831642610464565b93808511610432576104309461042b93610140521661016052610476565b61029c565b565b6368755a1160e01b5f5260045ffd5b630647140b60e51b5f5260045ffd5b634e487b7160e01b5f52601160045260245ffd5b9190820180921161047157565b610450565b80519091906001600160401b0381116100e75761049d816104986003546101c4565b6101fc565b602080601f83116001146104d2575081906104cd93945f926102f95750508160011b915f199060031b1c19161790565b600355565b60035f52601f198316949091907fc2575a0e9e593c00f959f8c92f12db2869c3395a3b0502d05e2516446f71f85b925f905b87821061053b575050836001959610610523575b505050811b01600355565b01515f1960f88460031b161c191690555f8080610518565b80600185968294968601518155019501930190610504565b9081517f602038038060206000396000f3fefefefefefefefefefefefefefefefefefefe835260208101835ff092526001600160a01b0382161561059357565b63fef8220760e01b5f5260045ffd5b9081517f60fe600053602038038060206001396001016000f3fefefefefefefefefefefe835260208101835ff092526001600160a01b038216156105935756fe60806040526004361015610011575f80fd5b5f3560e01c8062c194db14610153578063174481fa1461014e578063193ad50f146101495780632f2770db146101445780633f819b6f1461013f57806344f6fec71461013a5780634e40aca91461013557806353a72f7e1461013057806354fd4d501461012b5780636634b75314610126578063673a2a1f146101215780636c57f5a91461011c57806378da80cb14610117578063851c1bb3146101125780638d928af81461010d5780638eec5d7014610108578063aaabadc514610103578063db035ebc146100fe578063e9d56e19146100f95763ec888061146100f4575f80fd5b610d19565b610cd9565b610cb1565b610c27565b610c0a565b610bc7565b610b77565b610b37565b610b15565b610a87565b610a47565b610946565b610841565b610744565b610522565b61043a565b61029d565b61024e565b6101e4565b61018a565b5f91031261016257565b5f80fd5b805180835260209291819084018484015e5f828201840152601f01601f1916010190565b34610162575f366003190112610162576040516020810181811067ffffffffffffffff8211176101df576101db916101c7916040525f81526111a6565b604051918291602083526020830190610166565b0390f35b610455565b34610162575f36600319011261016257604080516001600160a01b03807f00000000000000000000000000000000000000000000000000000000000000001682527f0000000000000000000000000000000000000000000000000000000000000000166020820152f35b34610162575f366003190112610162576080610268610d33565b61029b60405180926060809180511515845260208101511515602085015260408101511515604085015201511515910152565bf35b34610162575f366003190112610162576102d97fffffffff000000000000000000000000000000000000000000000000000000005f35166110d9565b6001600160a01b036040519163aaabadc560e01b83526020928381600481867f0000000000000000000000000000000000000000000000000000000000000000165afa80156103f2578492610379925f926103f7575b506040517f9be2a884000000000000000000000000000000000000000000000000000000008152600481019190915233602482015230604482015293849283919082906064820190565b0392165afa9182156103f2575f926103c5575b50501561039d5761039b610d57565b005b7f23dada53000000000000000000000000000000000000000000000000000000005f5260045ffd5b6103e49250803d106103eb575b6103dc8183610499565b8101906115b7565b5f8061038c565b503d6103d2565b611164565b610418919250843d861161041f575b6104108183610499565b81019061114f565b905f61032f565b503d610406565b906020610437928181520190610166565b90565b34610162575f366003190112610162576101db6101c7610d92565b634e487b7160e01b5f52604160045260245ffd5b6080810190811067ffffffffffffffff8211176101df57604052565b67ffffffffffffffff81116101df57604052565b90601f8019910116810190811067ffffffffffffffff8211176101df57604052565b60405190610100820182811067ffffffffffffffff8211176101df57604052565b92919267ffffffffffffffff82116101df5760405191610506601f8201601f191660200184610499565b829481845281830111610162578281602093845f960137010152565b346101625760403660031901126101625760043567ffffffffffffffff81116101625736602382011215610162576001600160a01b036055600b6105736101db9436906024816004013591016104dc565b6105876105816024356112a0565b916111a6565b602081519101209060405191604083015260208201523081520160ff81532016604051918291829190916001600160a01b036020820193169052565b9080601f8301121561016257816020610437933591016104dc565b67ffffffffffffffff81116101df5760051b60200190565b6001600160a01b0381160361016257565b8015150361016257565b9080601f8301121561016257813591602061062b846105de565b9360409361063c6040519687610499565b818652828087019260071b85010193818511610162578301915b8483106106665750505050505090565b6080838303126101625785519061067c82610469565b8335610687816105f6565b82528484013590600282101561016257828692836080950152888601356106ad816105f6565b89820152606080870135906106c182610607565b820152815201920191610656565b606090606319011261016257604051906060820182811067ffffffffffffffff8211176101df5760405281606435610706816105f6565b8152608435610714816105f6565b6020820152604060a43591610728836105f6565b0152565b610164359067ffffffffffffffff8216820361016257565b34610162576101a03660031901126101625767ffffffffffffffff600435818111610162576107779036906004016105c3565b90602435818111610162576107909036906004016105c3565b604435918211610162576101db926107af6107e3933690600401610611565b906107b9366106cf565b6107c161072c565b92610184359461014435936101243593610104359360e4359360c43593610f14565b6040516001600160a01b0390911681529081906020820190565b60209060206040818301928281528551809452019301915f5b828110610824575050505090565b83516001600160a01b031685529381019392810192600101610816565b3461016257604036600319011261016257600435602435906001916001548083101561091e57818301808411610919578110610908575b50610882816105de565b916108906040519384610499565b818352601f1961089f836105de565b013660208501375f5b8281106108bd57604051806101db86826107fd565b806109026108ea6108d76108d289958761106a565b61108b565b90546001600160a01b039160031b1c1690565b6108f483886110c5565b906001600160a01b03169052565b016108a8565b82810391508111610919575f610878565b611056565b7f4e23d035000000000000000000000000000000000000000000000000000000005f5260045ffd5b34610162575f366003190112610162576040515f60035460018160011c9160018116918215610a3d575b602091602085108414610a29578487526020870193908115610a0a57506001146109b1575b6101db866109a581880382610499565b60405191829182610426565b60035f90815294509192917fc2575a0e9e593c00f959f8c92f12db2869c3395a3b0502d05e2516446f71f85b5b8386106109f957505050910190506109a5826101db5f610995565b8054858701529482019481016109de565b60ff1916845250505090151560051b0190506109a5826101db5f610995565b634e487b7160e01b5f52602260045260245ffd5b92607f1692610970565b34610162576020366003190112610162576001600160a01b03600435610a6c816105f6565b165f525f602052602060ff60405f2054166040519015158152f35b34610162575f36600319011261016257604051806001916001549283825260208092019360015f527fb10e2d527612073b26eecdfd717e6a320cf44b4afac2b0732d9fcbe2b7fa0cf6925f905b828210610af7576101db86610aeb818a0382610499565b604051918291826107fd565b84546001600160a01b03168752958601959383019390830190610ad4565b34610162575f36600319011261016257602060ff600254166040519015158152f35b34610162575f36600319011261016257602060405163ffffffff7f0000000000000000000000000000000000000000000000000000000000000000168152f35b34610162576020366003190112610162576004357fffffffff000000000000000000000000000000000000000000000000000000008116810361016257610bbf6020916110d9565b604051908152f35b34610162575f3660031901126101625760206040516001600160a01b037f0000000000000000000000000000000000000000000000000000000000000000168152f35b34610162575f366003190112610162576020600154604051908152f35b34610162575f3660031901126101625760405163aaabadc560e01b81526001600160a01b036020826004817f000000000000000000000000000000000000000000000000000000000000000085165afa9081156103f2576020925f92610c92575b5060405191168152f35b610caa919250833d851161041f576104108183610499565b905f610c88565b34610162575f366003190112610162576020610ccb61116f565b63ffffffff60405191168152f35b34610162575f36600319011261016257602060405163ffffffff7f0000000000000000000000000000000000000000000000000000000000000000168152f35b34610162575f3660031901126101625760206040515f8152f35b60405190610d4082610469565b5f6060838281528260208201528260408201520152565b610d5f61126c565b600160ff1960025416176002557f432acbfd662dbb5d8b378384a67159b47ca9d0f1b79f97cf64cf8585fa362d505f80a1565b604051905f6004546001918160011c9260018316908115610e65575b602090602086108314610a295785885287946020860193908115610e465750600114610de6575b505050610de492500383610499565b565b925093610e1460045f527f8a35acfbc15ff81a39ae7d344fd709f28e8600b4aa8c65c6b64bfe7fe36bd19b90565b945f935b828510610e3057505050610de49350015f8080610dd5565b8654858501529586019588955093810193610e18565b92505050610de49491925060ff19168252151560051b015f8080610dd5565b93607f1693610dae565b92916020610de4926040865260e0815191610ecb610e9b610100948560408c01526101408b0190610166565b85830151603f198b8303810160608d015291610eb691610166565b906040840151908b83030160808c0152610166565b606082015160a08a0152608082015167ffffffffffffffff1660c08a01529260a0820151838a015260c08201519089015201516101208701529401906001600160a01b03169052565b90949791969a99939a989295986001600160a01b03610f3d60408901516001600160a01b031690565b1661102e57600288511161100657610de499610f7799610faa610fea96610ff896610ffd9a610f6a610d33565b5f6060820152600181529e565b610f7f6104bb565b9788526020880152610f8f610d92565b6040880152606087015267ffffffffffffffff166080860152565b60a084015260c083015260e08201526040519283917f00000000000000000000000000000000000000000000000000000000000000009060208401610e6f565b03601f198101835282610499565b6112c9565b958692836113cf565b7f707bdf58000000000000000000000000000000000000000000000000000000005f5260045ffd5b7f61ee1764000000000000000000000000000000000000000000000000000000005f5260045ffd5b634e487b7160e01b5f52601160045260245ffd5b9190820180921161091957565b634e487b7160e01b5f52603260045260245ffd5b6001548110156110c05760015f527fb10e2d527612073b26eecdfd717e6a320cf44b4afac2b0732d9fcbe2b7fa0cf601905f90565b611077565b80518210156110c05760209160051b010190565b6040517fffffffff0000000000000000000000000000000000000000000000000000000060208201927f00000000000000000000000000000000000000000000000000000000000000008452166040820152602481526060810181811067ffffffffffffffff8211176101df5760405251902090565b908160209103126101625751610437816105f6565b6040513d5f823e3d90fd5b7f000000000000000000000000000000000000000000000000000000000000000063ffffffff81164210156111a15790565b505f90565b907f00000000000000000000000000000000000000000000000000000000000000007f00000000000000000000000000000000000000000000000000000000000000008082019081831161091957845192838301958684116109195760209260018480946040519a82818d01016040528b52805f838d017f00000000000000000000000000000000000000000000000000000000000000003c8a01017f00000000000000000000000000000000000000000000000000000000000000003c01918501015e565b60ff6002541661127857565b7f75884cda000000000000000000000000000000000000000000000000000000005f5260045ffd5b60405160208101913383524660408301526060820152606081526112c381610469565b51902090565b906105816112d6916112a0565b8051156113a7576020815191015ff5903d1519821516611164576001600160a01b039182811690811561137f579261130c61126c565b815f525f60205260405f20600160ff19825416179055600154680100000000000000008110156101df57806001611346920160015561108b565b819291549060031b9184831b921b19161790557f83a48fbcfc991335314e74d0496aab6a1987e992ddc85dddbcc4d6dd6ef2e9fc5f80a2565b7fb06ebf3d000000000000000000000000000000000000000000000000000000005f5260045ffd5b7f4ca249dc000000000000000000000000000000000000000000000000000000005f5260045ffd5b9294919390946001600160a01b0393847f0000000000000000000000000000000000000000000000000000000000000000169561140a61116f565b91873b156101625797959493929190604095604051998a987feeec802f000000000000000000000000000000000000000000000000000000008a526004836101a48c01931660048c015260246101a060248d015282518094526101c48c019a6020809401955f935b86851061154657505050505050505086946114f05f999793956114df88966114ad8d996115229760448b015260648a019063ffffffff169052565b88608489015260a4880190604090816001600160a01b0391828151168552826020820151166020860152015116910152565b6001600160a01b0316610104860152565b805115156101248501526020810151151561014485015260408101511515610164850152606001511515610184840152565b03925af180156103f2576115335750565b80611540610de492610485565b80610158565b9193959798999a9b9c90929496809e50518381511682528781015160028110156115a55782899260809284600196015286888201511688830152606080910151151590820152019e0195019290918f9d9c9b9a99989795969492611472565b86602185634e487b7160e01b5f52525ffd5b9081602091031261016257516104378161060756fea2646970667358221220b5cc1834893a30174e8600cb8c625e22057a230c0c52161fa83807a4430d7bdd64736f6c634300081b00336102a0806040523461083f57616b57803803809161001d8285610843565b8339810160408282031261083f5781516001600160401b03811161083f578201916101008383031261083f576040519261010084016001600160401b038111858210176107535760405280516001600160401b03811161083f5783610083918301610866565b845260208101516001600160401b03811161083f57836100a4918301610866565b60208501908152604082015190936001600160401b03821161083f576100cb918301610866565b9182604086015260608201516060860152608082015160018060401b038116810361083f5760209260e091608088015260a081015160a088015260c081015160c0880152015160e086015201519260018060a01b038416840361083f5780519251926040519485604081011060018060401b0360408801111761075357604086016040526001908187526020870195603160f81b875261016a846108bb565b9761012098895261017a81610a3e565b9761014098895285516020870120918260e05251902080610100524660a0526040519060208201927f8b73c3c69bb8fe3d512ecc4cf759cc79239f7b179b0ffacaa9a75d522b39400f8452604083015260608201524660808201523060a082015260a0815260c0810181811060018060401b03821117610753576040525190206080523060c0526101608281528451909690936001600160401b038511610753576003948554968288811c98168015610835575b6020891014610821578190601f988981116107d1575b50602090898311600114610772575f92610767575b50505f1982881b1c191690821b1785555b82516001600160401b0381116107535760049384548381811c91168015610749575b6020821014610736579081898493116106e6575b50602090898311600114610687575f9261067c575b50505f1982881b1c191690821b1783555b610180848152336101a0908152909690956001600160a01b0386161561066e576101c09586528351916001600160401b03831161065b5760059485548581811c91168015610651575b602082101461063e578281116105fb575b506020918411600114610598579383949184925f9561058d575b50501b925f19911b1c19161790555b60a0850151158015610581575b610573575060a08401519061020091825260c08501519261022093845260e086015194610240958652606087015196610260978852608060018060401b03910151169761028098895260405199615fe29b8c610b758d396080518c6148ab015260a0518c614977015260c0518c61487c015260e0518c6148fa0152610100518c6149200152518b61144d0152518a6114760152518981816104c00152818161075e0152818161090101528181610a2201528181610af401528181610c2f01528181611061015281816113e40152818161154a015281816117fc01528181611de6015281816120de015281816121be015281816123b1015281816125f401528181612649015281816126a2015281816127da01528181612ab6015281816131f00152818161363801528181613b7e01528181613c4e01528181613eb901528181614140015281816143640152818161452301528181614687015281816147a10152614b4101525188818161087c01528181610dba01528181610e5b01528181610f7a01526116f401525187613b1401525186818161031e015281816109c4015281816131920152613d7701526101e0518650505185818161163f0152818161187c01528181612b9e0152614a31015251848181611660015281816118a201528181612bbf0152614a100152518381816118c801528181612be101526149ef0152518281816118ee0152612d680152518181816119140152612d920152f35b6359e6ae3360e11b5f908152fd5b5060e085015115610356565b015193505f8061033a565b9190601f19841692865f528460205f20945f5b888282106105e2575050106105c9575b50505050811b019055610349565b01519060f8845f19921b161c191690555f8080806105bb565b84860151885590960195602094850194889350016105ab565b865f5260205f2083808701891c82019260208810610635575b01881c019086905b82811061062a575050610320565b5f815501869061061c565b92508192610614565b602288634e487b7160e01b5f525260245ffd5b90607f169061030f565b604186634e487b7160e01b5f525260245ffd5b84630647140b60e51b5f525ffd5b015190505f806102b5565b90849350601f19831691875f5260205f20925f5b8181106106ce575084116106b7575b505050811b0183556102c6565b01515f19838a1b60f8161c191690555f80806106aa565b8284015185558796909401936020938401930161069b565b909150855f5260205f208980850160051c8201926020861061072d575b918691869594930160051c01915b82811061071f5750506102a0565b5f8155859450869101610711565b92508192610703565b602286634e487b7160e01b5f525260245ffd5b90607f169061028c565b634e487b7160e01b5f52604160045260245ffd5b015190505f80610259565b90849350601f19831691895f5260205f20925f5b8181106107b9575084116107a2575b505050811b01855561026a565b01515f19838a1b60f8161c191690555f8080610795565b82840151855587969094019360209384019301610786565b909150875f5260205f208980850160051c82019260208610610818575b918691869594930160051c01915b82811061080a575050610244565b5f81558594508691016107fc565b925081926107ee565b634e487b7160e01b5f52602260045260245ffd5b97607f169761022e565b5f80fd5b601f909101601f19168101906001600160401b0382119082101761075357604052565b81601f8201121561083f578051906001600160401b038211610753576040519261089a601f8401601f191660200185610843565b8284526020838301011161083f57815f9260208093018386015e8301015290565b8051602090818110156109315750601f8251116108f357808251920151908083106108e557501790565b825f19910360031b1b161790565b60448260405192839163305a27a960e01b83528160048401528051918291826024860152018484015e5f828201840152601f01601f19168101030190fd5b906001600160401b038211610753575f54926001938481811c91168015610a34575b8382101461082157601f8111610a01575b5081601f841160011461099f57509282939183925f94610994575b50501b915f199060031b1c1916175f5560ff90565b015192505f8061097f565b919083601f1981165f8052845f20945f905b888383106109e757505050106109cf575b505050811b015f5560ff90565b01515f1960f88460031b161c191690555f80806109c2565b8587015188559096019594850194879350908101906109b1565b5f805284601f845f20920160051c820191601f860160051c015b828110610a29575050610964565b5f8155018590610a1b565b90607f1690610953565b805160209081811015610a685750601f8251116108f357808251920151908083106108e557501790565b9192916001600160401b0381116107535760019182548381811c91168015610b6a575b8282101461082157601f8111610b37575b5080601f8311600114610ad75750819293945f92610acc575b50505f19600383901b1c191690821b17905560ff90565b015190505f80610ab5565b90601f19831695845f52825f20925f905b888210610b205750508385969710610b08575b505050811b01905560ff90565b01515f1960f88460031b161c191690555f8080610afb565b808785968294968601518155019501930190610ae8565b835f5283601f835f20920160051c820191601f850160051c015b828110610b5f575050610a9c565b5f8155018490610b51565b90607f1690610a8b56fe6080806040526004361015610012575f80fd5b5f3560e01c90816301ffc9a714613258575080630673d09a1461314657806306fdde031461309d578063095ea7b3146130465780630b89f18214612efd578063105ae7ad14612ec657806316a0b3e014612e6c57806318160ddd14612e5257806318b6eb5514612e125780631c149e2814612b485780631d8a5e7e14612b1e578063215666a814612aed57806323b872dd14612a5257806323de665114612a21578063273c1adf14610d835780632754888d146129b85780632c3576881461253c57806330adf81f14612502578063313ce567146124e75780633644e515146124cd57806337899770146124aa57806338be241d1461245f57806345421ec7146122fe578063478fe4771461217e5780634efd88c91461214d5780634f149b3f146120ac5780635211fa771461206957806354fd4d5014611fc05780635687f2b814611f6c578063569ee35014611f4a578063627cdcb914611f21578063654cf15d14611eff578063679aefce14611ec75780636bd838c714611e4c57806370a0823114611d8657806372c9818614611ab75780637ecebe0014611a7f5780637f118b901461176b57806381fa807c146116be57806384254cf91461153057806384b0196e14611438578063851c1bb3146114085780638d928af8146113c557806395d89b41146112e7578063976907cc1461122f578063984de9e81461111a578063a0e8f5ac146110d2578063a9059cbb14610fe4578063aa6ca80814610f48578063abb1dc4414610e28578063b156aa0a14610d88578063b677fa5614610d83578063ba5f9f4014610b7c578063c480b9e614610ac2578063c66dbc4b14610980578063cd80a1af146108cf578063ce20ece7146108b5578063d335b0cf14610849578063d48ef3771461082f578063d505accf146105ea578063d77153a71461052d578063dd62ed3e14610450578063dfba38181461042c5763e66f2ef0146102dc575f80fd5b34610428576060366003190112610428576044356024356102fb613b5b565b6040516374eef59360e11b81523060048201526001600160a01b036060826024817f000000000000000000000000000000000000000000000000000000000000000085165afa91821561041d57610360926020915f916103ee575b5001511630613d1e565b80421181421802188181116103c05761546061037c8284613b4e565b1061039857610390602092826004356141f7565b604051908152f35b7f33f1d0aa000000000000000000000000000000000000000000000000000000005f5260045ffd5b7fc9767706000000000000000000000000000000000000000000000000000000005f5260045260245260445ffd5b610410915060603d606011610416575b6104088183613391565b81019061358a565b5f610356565b503d6103fe565b6040513d5f823e3d90fd5b5f80fd5b34610428575f366003190112610428576020610446614b1f565b6040519015158152f35b34610428576040366003190112610428576104696132cc565b60206104736132e2565b9160646001600160a01b0391828060405196879586947f927da1050000000000000000000000000000000000000000000000000000000086523060048701521660248501521660448301527f0000000000000000000000000000000000000000000000000000000000000000165afa801561041d575f906104fa575b602090604051908152f35b506020813d602011610525575b8161051460209383613391565b8101031261042857602090516104ef565b3d9150610507565b34610428575f3660031901126104285761014060405161054c81613328565b5f81526020810190604081015f8152606082015f815260808301905f825260a084015f815260c0850160e08601915f83526101009485880194610120809901975f895260018b5260018552600187526040519a5f8c5251151560208c015251151560408b015251151560608a0152511515608089015251151560a088015251151560c087015251151560e08601525115159084015251151590820152f35b346104285760e0366003190112610428576106036132cc565b61060b6132e2565b90604435916064359160843560ff81168103610428578342116108035761064c826001600160a01b03165f52600260205260405f2080549060018201905590565b9060405160208101917f6e71edae12b1b97f4d1f60370fef10105fa2faae0126114a169c64845d6126c983526001600160a01b039687861694856040850152888816606085015289608085015260a084015260c083015260c0825260e082019082821067ffffffffffffffff8311176107ef57879361072293610719936040525190206106d7614872565b90604051917f190100000000000000000000000000000000000000000000000000000000000083526002830152602282015260c43591604260a435922061540b565b9092919261548d565b168181036107c15760405163e1f21c6760e01b81526001600160a01b03848116600483015285166024820152604481018790526020816064815f7f00000000000000000000000000000000000000000000000000000000000000008b165af1801561041d5761078d57005b6020813d6020116107b9575b816107a660209383613391565b81010312610428576107b790613608565b005b3d9150610799565b7f4b800e46000000000000000000000000000000000000000000000000000000005f5260045260245260445ffd5b634e487b7160e01b5f52604160045260245ffd5b837f62791302000000000000000000000000000000000000000000000000000000005f5260045260245ffd5b34610428575f3660031901126104285760206103906149e7565b34610428575f3660031901126104285760405163b45090f960e01b81523060048201526020816024816001600160a01b037f0000000000000000000000000000000000000000000000000000000000000000165afa801561041d575f906104fa57602090604051908152f35b34610428575f3660031901126104285760206040515f8152f35b34610428575f366003190112610428576040516333f0703b60e11b81523060048201525f816024816001600160a01b037f0000000000000000000000000000000000000000000000000000000000000000165afa90811561041d57602091610390915f9161095a575b50600854906fffffffffffffffffffffffffffffffff8260801c921690614032565b61097691503d805f833e61096e8183613391565b81019061399f565b9250505083610938565b3461042857602036600319011261042857610999613b5b565b6109a1613c18565b6040516374eef59360e11b81523060048201526001600160a01b036060826024817f000000000000000000000000000000000000000000000000000000000000000085165afa90811561041d57610a098160205f946024968691610aa3575001511630613d1e565b604051928380926333f0703b60e11b82523060048301527f0000000000000000000000000000000000000000000000000000000000000000165afa801561041d57610a5b915f91610a85575b5061499d565b610a75575b610a6861474f565b602061039060043561446b565b610a7e916140b7565b8080610a60565b610a9991503d805f833e61096e8183613391565b9250505082610a55565b610abc915060603d606011610416576104088183613391565b87610356565b34610428575f366003190112610428576040516333f0703b60e11b81523060048201525f816024816001600160a01b037f0000000000000000000000000000000000000000000000000000000000000000165afa90811561041d57604091610b4d915f91610b5e575b50610b358161499d565b939167ffffffffffffffff60075460a01c1693614032565b101590825191825215156020820152f35b610b7291503d805f833e61096e8183613391565b9250505083610b2b565b346104285760e036600319011261042857610b956132cc565b50610b9e6132e2565b600460443510156104285767ffffffffffffffff9060843582811161042857610bcb9036906004016133cb565b5060a43582811161042857610be49036906004016133cb565b9160c43590811161042857602491610c02602092369060040161342b565b50610c0b613eaf565b6040516339370aa960e21b81526001600160a01b03918216600482015292839182907f0000000000000000000000000000000000000000000000000000000000000000165afa801561041d575f90610d4f575b610c6b91506064356153b2565b610c748261499d565b50670de0b6b3a76400009183830391838311610d3b5783610ca48482610c9d82610cab97613ad0565b0493613ad0565b04906140b7565b610cb361474f565b81610cbd856136be565b51931002809282610cd564e8d4a51000958693613ad0565b0410938415610d1a575b50505050610cf257602060405160018152f35b7f8cf25597000000000000000000000000000000000000000000000000000000005f5260045ffd5b610d3092939450610d2a9061369a565b51613ad0565b041081808080610cdf565b634e487b7160e01b5f52601160045260245ffd5b506020813d602011610d7b575b81610d6960209383613391565b8101031261042857610c6b9051610c5e565b3d9150610d5c565b6108b5565b34610428575f366003190112610428576040516329ae7ec560e11b81523060048201525f816024816001600160a01b037f0000000000000000000000000000000000000000000000000000000000000000165afa801561041d57610e02915f91610e06575b506040519182916020835260208301906134b6565b0390f35b610e2291503d805f833e610e1a8183613391565b810190613740565b82610ded565b34610428575f366003190112610428576001600160a01b036040516333f0703b60e11b81523060048201525f81602481857f0000000000000000000000000000000000000000000000000000000000000000165afa801561041d575f915f935f915f93610f27575b50610ea66040519460808652608086019061351c565b6020858203818701528080885193848152019701925f905b838210610eeb578780610e0289610edd8d8b85820360408701526134b6565b9083820360608501526134b6565b909192939783606060019260408c518051610f0581613558565b8352808501518716858401520151151560408201520199019493920190610ebe565b9250935050610f4091503d805f833e61096e8183613391565b919385610e90565b34610428575f3660031901126104285760405163ca4f280360e01b81523060048201525f816024816001600160a01b037f0000000000000000000000000000000000000000000000000000000000000000165afa801561041d57610e02915f91610fc2575b5060405191829160208352602083019061351c565b610fde91503d805f833e610fd68183613391565b810190613979565b82610fad565b346104285760403660031901126104285761105460206110026132cc565b6040517fbeabacc80000000000000000000000000000000000000000000000000000000081523360048201526001600160a01b0390911660248083019190915235604482015291829081906064820190565b03815f6001600160a01b037f0000000000000000000000000000000000000000000000000000000000000000165af1801561041d57611099575b602060405160018152f35b6020813d6020116110ca575b816110b260209383613391565b81010312610428576110c390613608565b508061108e565b3d91506110a5565b3461042857600319606036820112610428576004359067ffffffffffffffff82116104285760e091360301126104285761110a6132e2565b50604080515f81525f6020820152f35b346104285760403660031901126104285767ffffffffffffffff6004358181116104285761114c9036906004016133cb565b9060243590600282101561042857600161119c6111cd92600854906fffffffffffffffffffffffffffffffff600754918260a01c16928163ffffffff84169360201c16918160801c911689614e72565b509190936111a981613558565b03611221576111c16111c76001945b6111c1876136be565b516138fb565b9461369a565b908060021461120f576001146111f157634e487b7160e01b5f52605160045260245ffd5b611206670de0b6b3a764000091602093613ad0565b04604051908152f35b5061121c90602092614bec565b610390565b6111c16111c76002946111b8565b3461042857610100366003190112610428576112496132cc565b506112526132e2565b50600560443510156104285767ffffffffffffffff6064358181116104285761127f9036906004016133cb565b50608435818111610428576112989036906004016133cb565b60c435828111610428576112b09036906004016133cb565b5060e435918211610428576112cc610e0292369060040161342b565b506040519182915f83526040602084015260408301906134b6565b34610428575f366003190112610428576040516004545f82611308836135d0565b91828252602093600190856001821691825f146113a557505060011461134a575b5061133692500383613391565b610e026040519282849384528301906132a8565b84915060045f527f8a35acfbc15ff81a39ae7d344fd709f28e8600b4aa8c65c6b64bfe7fe36bd19b905f915b85831061138d575050611336935082010185611329565b80548389018501528794508693909201918101611376565b60ff19168582015261133695151560051b85010192508791506113299050565b34610428575f3660031901126104285760206040516001600160a01b037f0000000000000000000000000000000000000000000000000000000000000000168152f35b34610428576020366003190112610428576004356001600160e01b03198116810361042857610390602091613b01565b34610428575f366003190112610428576114717f00000000000000000000000000000000000000000000000000000000000000006151e1565b61149a7f00000000000000000000000000000000000000000000000000000000000000006152f4565b9060405191602083019280841067ffffffffffffffff8511176107ef57611510610e0292611502956040525f83526040519586957f0f00000000000000000000000000000000000000000000000000000000000000875260e0602088015260e08701906132a8565b9085820360408701526132a8565b904660608501523060808501525f60a085015283820360c08501526134b6565b34610428575f366003190112610428576001600160a01b037f0000000000000000000000000000000000000000000000000000000000000000166040516314cb3b1f60e21b8152306004820152602081602481855afa90811561041d575f91611684575b501561163a575f602491604051928380926333f0703b60e11b82523060048301525afa801561041d576040915f9161161c575b506116106115fd670de0b6b3a76400006116096116026115f46115e98761499d565b508181939299614af5565b94818692613ad0565b613ae3565b9480613ad0565b049061400e565b82519182526020820152f35b61163091503d805f833e61096e8183613391565b92505050826115c7565b5060407f00000000000000000000000000000000000000000000000000000000000000007f0000000000000000000000000000000000000000000000000000000000000000611610565b90506020813d6020116116b6575b8161169f60209383613391565b81010312610428576116b090613608565b82611594565b3d9150611692565b34610428575f3660031901126104285760405163f29486a160e01b81523060048201526101a09081816024816001600160a01b037f0000000000000000000000000000000000000000000000000000000000000000165afa90811561041d576040925f9261173e575b505060608282015191015182519182526020820152f35b61175d9250803d10611764575b6117558183613391565b8101906137f2565b8280611727565b503d61174b565b34610428575f366003190112610428576040516101c0810181811067ffffffffffffffff8211176107ef5760405260608152606060208201525f60408201525f60608201525f60808201525f60a08201525f60c08201525f60e08201525f6101008201525f6101208201525f6101408201525f6101608201525f6101808201525f6101a08201526001600160a01b037f00000000000000000000000000000000000000000000000000000000000000001660405163ca4f280360e01b81523060048201525f81602481855afa91821561041d576024925f928391611a65575b50845260405192838092633f1b0def60e11b82523060048301525afa90811561041d575f91611a42575b5060208201527f000000000000000000000000000000000000000000000000000000000000000060408201527f000000000000000000000000000000000000000000000000000000000000000060608201527f000000000000000000000000000000000000000000000000000000000000000060808201527f000000000000000000000000000000000000000000000000000000000000000060a08201527f000000000000000000000000000000000000000000000000000000000000000060c08201525f60e08201526706f05b59d3b2000061010082015264e8d4a510006101208201526103e880610140830152674563918244f400006101608301526154606101808301526101a08201526040518091602082526101a06119be6119a883516101c060208701526101e086019061351c565b6020840151858203601f190160408701526134e9565b916040810151606085015260608101516080850152608081015160a085015260a081015160c085015260c081015160e085015260e08101516101008501526101008101516101208501526101208101516101408501526101408101516101608501526101608101516101808501526101808101518285015201516101c08301520390f35b611a5e91503d805f833e611a568183613391565b810190613769565b5082611874565b611a7991503d8085833e610fd68183613391565b8561184a565b34610428576020366003190112610428576001600160a01b03611aa06132cc565b165f526002602052602060405f2054604051908152f35b34610428576003196020368201126104285760043567ffffffffffffffff918282116104285760e09082360301126104285760405160e08101818110848211176107ef57604052816004013560028110156104285781526020810160248301358152604483013584811161042857611b3590600436918601016133cb565b9260408301938452606083019460648201358652608084019160848101358352611b6160a482016132f8565b60a086015260c4810135918211610428576004611b81923692010161342b565b60c0840152611b8e613eaf565b611b98845161499d565b9691949096611d77575b611baa61474f565b51611bb481613558565b611bbd81613558565b611cca57845190848151611c2b611c20865192611c1a8c611c158b5191888b86155f14611cb257611c0e90611c086111c193946111c1611c02829f5b6111c1866136be565b9361369a565b90614bec565b958c6136cb565b6138fb565b906153b2565b926111c183876136cb565b808311611c8a57611c4592611c3f91613b4e565b936136cb565b518211611c62576020966103909583975195519251945195614a8e565b7fb413e252000000000000000000000000000000000000000000000000000000005f5260045ffd5b7f366eca71000000000000000000000000000000000000000000000000000000005f5260045ffd5b611c0e90611c08846111c1611c026111c1969f611bf9565b84939451938151968351978551611ce18a896136cb565b518111611c625760209988611d49938b93611d12611d05866111c161121c9f6136be565b611c08896111c18761369a565b9082611d5957611d429291611c1a611d3c92611d37611d37986111c18d915b8a6136cb565b613b4e565b926136cb565b5190613b4e565b9687925195519351945195614a8e565b611d429291611c1a611d3c92611d37611d37986111c18d9b91611d31565b611d8187866140b7565b611ba2565b346104285760208060031936011261042857604481611da36132cc565b6040517ff7888aec0000000000000000000000000000000000000000000000000000000081523060048201526001600160a01b03918216602482015292839182907f0000000000000000000000000000000000000000000000000000000000000000165afa90811561041d575f91611e1f575b50604051908152f35b90508181813d8311611e45575b611e368183613391565b81010312610428575182611e16565b503d611e2c565b34610428575f366003190112610428575f6060604051611e6b8161330c565b82815282602082015282604082015201526080611e866137ad565b604051906bffffffffffffffffffffffff8082511683526020820151166020830152606060408201519163ffffffff80931660408501520151166060820152f35b34610428575f366003190112610428577f56b7fcdb000000000000000000000000000000000000000000000000000000005f5260045ffd5b34610428575f36600319011261042857602060405167016345785d8a00008152f35b34610428575f36600319011261042857335f908152600260205260409020805460018101909155005b34610428575f366003190112610428576020610390611f676137ad565b614830565b346104285760207f8c5be1e5ebec7d5bd14f71427d1e84f3dd0314c0f7b2291e5b200ac8c7c3b925611f9d36613481565b92919390611fa9613eaf565b6001600160a01b03809160405195865216941692a3005b34610428575f366003190112610428576040516005545f82611fe1836135d0565b91828252602093600190856001821691825f146113a557505060011461200e575061133692500383613391565b84915060055f527f036b6384b5eca791c62761152d0c79bb0604c104a5fb6f4eb0703f3154bb3db0905f915b858310612051575050611336935082010185611329565b8054838901850152879450869390920191810161203a565b3461042857600319604036820112610428576004359067ffffffffffffffff82116104285760e09136030112610428576120a16132e2565b5060206040515f8152f35b34610428575f366003190112610428576040516333f0703b60e11b81523060048201525f816024816001600160a01b037f0000000000000000000000000000000000000000000000000000000000000000165afa90811561041d5760609161211a915f9161212f575061499d565b90604051928352602083015215156040820152f35b61214391503d805f833e61096e8183613391565b9250505083610a55565b34610428575f3660031901126104285760206103906fffffffffffffffffffffffffffffffff600754831c16614a64565b34610428576040366003190112610428576121976132cc565b602435906001600160a01b0360405163ca4f280360e01b81523060048201525f81602481857f0000000000000000000000000000000000000000000000000000000000000000165afa90811561041d575f916122e4575b5081806121fa836136be565b511693168093145f146122da575f926001925b6001851492836122c2575b50505061229a57612273610e029361222e6149e7565b6040519461223b86613345565b6002865260403660208801378261225282886136cb565b526122885761226a90670de0b6b3a764000092613ad0565b04915b836136cb565b526040519182916020835260208301906134b6565b6115fd61229492613ab3565b9161226d565b7fc1ab6dc1000000000000000000000000000000000000000000000000000000005f5260045ffd5b6122ce9192935061369a565b51161415848080612218565b6001925f9261220d565b6122f891503d805f833e610fd68183613391565b846121ee565b346104285760e0366003190112610428576123176132cc565b506123206132e2565b600560443510156104285767ffffffffffffffff906064358281116104285761234d9036906004016133cb565b5060a435828111610428576123669036906004016133cb565b9160c43590811161042857602491612384602092369060040161342b565b5061238d613eaf565b6040516339370aa960e21b81526001600160a01b03918216600482015292839182907f0000000000000000000000000000000000000000000000000000000000000000165afa90811561041d575f9161242b575b506123f46123fa916115fd608435613ab3565b9161499d565b509091670de0b6b3a764000090810192838211610d3b578382610c9d61242396610ca494613ad0565b61108e61474f565b90506020813d602011612457575b8161244660209383613391565b8101031261042857516123f46123e1565b3d9150612439565b346104285760603660031901126104285767ffffffffffffffff600435818111610428576124919036906004016133cb565b50604435908111610428576120a190369060040161342b565b34610428575f36600319011261042857602063ffffffff60075416604051908152f35b34610428575f366003190112610428576020610390614872565b34610428575f36600319011261042857602060405160128152f35b34610428575f3660031901126104285760206040517f6e71edae12b1b97f4d1f60370fef10105fa2faae0126114a169c64845d6126c98152f35b34610428575f36600319011261042857604051610200810181811067ffffffffffffffff8211176107ef5760405260608152606060208201525f60408201525f60608201525f6080820152606060a08201525f60c08201525f60e08201525f6101008201525f6101208201525f6101408201525f6101608201525f6101808201525f6101a08201525f6101c08201525f6101e08201526040516329ae7ec560e11b81523060048201525f816024816001600160a01b037f0000000000000000000000000000000000000000000000000000000000000000165afa90811561041d575f9161299e575b508152604051633f1b0def60e11b81523060048201525f816024816001600160a01b037f0000000000000000000000000000000000000000000000000000000000000000165afa90811561041d575f91612982575b50602082015260405163b45090f960e01b81523060048201526020816024816001600160a01b037f0000000000000000000000000000000000000000000000000000000000000000165afa90811561041d575f91612950575b5060408201526126e0613615565b606082015267ffffffffffffffff60075463ffffffff8116608084015260405161270981613345565b600281526040366020830137600854906fffffffffffffffffffffffffffffffff91828116612737836136be565b5260801c6127448261369a565b5260a08501528160201c1660c084015260a01c1660e0820152612768611f676137ad565b61010082015263ffffffff606061277d6137ad565b6bffffffffffffffffffffffff808251166101208601526020820151166101408501528260408201511661016085015201511661018082015260405163f29486a160e01b81523060048201526101a0816024816001600160a01b037f0000000000000000000000000000000000000000000000000000000000000000165afa801561041d57610120915f9161292f575b5060e081015115156101a084015261010081015115156101c0840152015115156101e08201526040518091602082526101e06128a961285a835161020060208701526102208601906134e9565b612876602085015191601f1992838883030160408901526134e9565b906040850151606087015260608501516080870152608085015160a087015260a0850151908683030160c08701526134e9565b9160c081015160e085015260e081015161010085015261010081015161012085015261012081015161014085015261014081015161016085015263ffffffff6101608201511661018085015263ffffffff610180820151166101a08501526101a081015115156101c08501526101c0810151151582850152015115156102008301520390f35b61294a91506101a03d6101a011611764576117558183613391565b8361280d565b90506020813d60201161297a575b8161296b60209383613391565b810103126104285751826126d2565b3d915061295e565b61299691503d805f833e611a568183613391565b905082612679565b6129b291503d805f833e610e1a8183613391565b82612624565b3461042857610100366003190112610428576129d26132cc565b506129db6132e2565b50600460443510156104285767ffffffffffffffff60843581811161042857612a089036906004016133cb565b5060a435818111610428576112989036906004016133cb565b346104285760207fddf252ad1be2c89b69c2b068fc378daa952ba7f163c4a11628f55a4df523b3ef611f9d36613481565b346104285760846020612a6436613481565b6040517f15dacbea0000000000000000000000000000000000000000000000000000000081523360048201526001600160a01b0393841660248201529183166044830152606482015292839182905f907f0000000000000000000000000000000000000000000000000000000000000000165af1801561041d5761109957602060405160018152f35b34610428575f3660031901126104285760206007546fffffffffffffffffffffffffffffffff60405191831c168152f35b34610428575f36600319011261042857602067ffffffffffffffff60075460a01c16604051908152f35b346104285760403660031901126104285767ffffffffffffffff60043581811161042857612b7a9036906004016133cb565b9060243581811161042857612b9390369060040161342b565b50612b9c613eaf565b7f00000000000000000000000000000000000000000000000000000000000000007f0000000000000000000000000000000000000000000000000000000000000000917f000000000000000000000000000000000000000000000000000000000000000093612c0c858585613f0d565b969192612c2f612c1e8698939861369a565b51612c28876136be565b519061400e565b93612c46612c3c8361369a565b51612c28846136be565b670de05bc096e9c0009586820282159783820414881715610d3b57670de0b6b3a764000097670de111a6b7de4000808502948504141715610d3b57878091048210928315612e06575b505050612dde57612cc7859182612cc0612cb9612cf196612c28612cb28d6136be565b51916136be565b8093613ad0565b0499613ad0565b0498612cec612cd98b6111c18961369a565b612ce68a6111c18a6136be565b9061400e565b614c0e565b612d0e612cff898887614af5565b91612cec836115fd8c80613ad0565b828102928184041490151715610d3b57612d4092612d3b8692612cec84612d36818d98613ae3565b61400e565b614032565b9060075460a01c1611612db657612d6392612d5a916140b7565b429042906141f7565b612d8c7f000000000000000000000000000000000000000000000000000000000000000061446b565b506124237f00000000000000000000000000000000000000000000000000000000000000006145f8565b7f1878f33d000000000000000000000000000000000000000000000000000000005f5260045ffd5b7f4f512cb0000000000000000000000000000000000000000000000000000000005f5260045ffd5b041090508b8681612c8f565b3461042857600319602036820112610428576004359067ffffffffffffffff821161042857610180913603011261042857604080515f81525f6020820152f35b34610428575f366003190112610428576020610390613615565b346104285760603660031901126104285760043567ffffffffffffffff811161042857612e9d9036906004016133cb565b507fd6234725000000000000000000000000000000000000000000000000000000005f5260045ffd5b34610428575f3660031901126104285760406008548151906fffffffffffffffffffffffffffffffff8116825260801c6020820152f35b346104285760e036600319011261042857612f166132cc565b50612f1f6132e2565b5060443567ffffffffffffffff81116104285736602382011215610428578060040135612f4b816133b3565b91612f596040519384613391565b81835260206024602085019360071b8301019136831161042857602401925b828410612fd55784608036606319011261042857600290612f97613eaf565b511480612fc4575b80612fb2575b6020906040519015158152f35b5060c435801590811514612fa5575f80fd5b506064358015158114612f9f575f80fd5b6080843603126104285760405190612fec8261330c565b612ff5856132f8565b8252828501356002811015610428578383015260408501356001600160a01b038116810361042857604083015260609081860135928315158403610428576080938593820152815201930192612f78565b346104285760403660031901126104285761105460206130646132cc565b60405163e1f21c6760e01b81523360048201526001600160a01b0390911660248083019190915235604482015291829081906064820190565b34610428575f366003190112610428576040516003545f826130be836135d0565b91828252602093600190856001821691825f146113a55750506001146130eb575061133692500383613391565b84915060035f527fc2575a0e9e593c00f959f8c92f12db2869c3395a3b0502d05e2516446f71f85b905f915b85831061312e575050611336935082010185611329565b80548389018501528794508693909201918101613117565b346104285760203660031901126104285761315f613b5b565b613167613c18565b61316f613ce7565b6040516374eef59360e11b81523060048201526001600160a01b036060826024817f000000000000000000000000000000000000000000000000000000000000000085165afa90811561041d576131d78160205f946024968691610aa3575001511630613d1e565b604051928380926333f0703b60e11b82523060048301527f0000000000000000000000000000000000000000000000000000000000000000165afa801561041d57613228915f91610a85575061499d565b613248575b61323561474f565b6132406004356145f8565b6107b7613ce7565b613251916140b7565b808061322d565b3461042857602036600319011261042857600435906001600160e01b03198216809203610428577f01ffc9a700000000000000000000000000000000000000000000000000000000602092148152f35b805180835260209291819084018484015e5f828201840152601f01601f1916010190565b600435906001600160a01b038216820361042857565b602435906001600160a01b038216820361042857565b35906001600160a01b038216820361042857565b6080810190811067ffffffffffffffff8211176107ef57604052565b610140810190811067ffffffffffffffff8211176107ef57604052565b6060810190811067ffffffffffffffff8211176107ef57604052565b67ffffffffffffffff81116107ef57604052565b6040810190811067ffffffffffffffff8211176107ef57604052565b90601f8019910116810190811067ffffffffffffffff8211176107ef57604052565b67ffffffffffffffff81116107ef5760051b60200190565b9080601f830112156104285760209082356133e5816133b3565b936133f36040519586613391565b81855260208086019260051b82010192831161042857602001905b82821061341c575050505090565b8135815290830190830161340e565b81601f820112156104285780359067ffffffffffffffff82116107ef5760405192613460601f8401601f191660200185613391565b8284526020838301011161042857815f926020809301838601378301015290565b6060906003190112610428576001600160a01b0390600435828116810361042857916024359081168103610428579060443590565b9081518082526020808093019301915f5b8281106134d5575050505090565b8351855293810193928101926001016134c7565b9081518082526020808093019301915f5b828110613508575050505090565b8351855293810193928101926001016134fa565b9081518082526020808093019301915f5b82811061353b575050505090565b83516001600160a01b03168552938101939281019260010161352d565b6002111561356257565b634e487b7160e01b5f52602160045260245ffd5b51906001600160a01b038216820361042857565b90816060910312610428576135c860408051926135a684613345565b6135af81613576565b84526135bd60208201613576565b602085015201613576565b604082015290565b90600182811c921680156135fe575b60208310146135ea57565b634e487b7160e01b5f52602260045260245ffd5b91607f16916135df565b5190811515820361042857565b6040516339370aa960e21b81523060048201526020816024816001600160a01b037f0000000000000000000000000000000000000000000000000000000000000000165afa90811561041d575f9161366b575090565b90506020813d602011613692575b8161368660209383613391565b81010312610428575190565b3d9150613679565b8051600110156136aa5760400190565b634e487b7160e01b5f52603260045260245ffd5b8051156136aa5760200190565b80518210156136aa5760209160051b010190565b9080601f83011215610428578151906020916136fa816133b3565b936137086040519586613391565b81855260208086019260051b82010192831161042857602001905b828210613731575050505090565b81518152908301908301613723565b9060208282031261042857815167ffffffffffffffff81116104285761376692016136df565b90565b9190916040818403126104285780519267ffffffffffffffff9384811161042857816137969184016136df565b9360208301519081116104285761376692016136df565b604051906137ba8261330c565b8160606006546bffffffffffffffffffffffff808216845281831c16602084015263ffffffff8160c01c16604084015260e01c910152565b809103906101a082126104285760806040519261380e84613328565b126104285760405161381f8161330c565b61382882613608565b815261383660208301613608565b602082015261384760408301613608565b604082015261385860608301613608565b606082015282526080810151602083015260a0810151604083015260c0810151606083015260e081015164ffffffffff81168103610428576080830152610100908181015163ffffffff81168103610428576138f4916101809160a0860152610120936138c6858301613608565b60c08701526138d86101408301613608565b60e08701526138ea6101608301613608565b9086015201613608565b9082015290565b91908201809211610d3b57565b9080601f8301121561042857815190602091613923816133b3565b936139316040519586613391565b81855260208086019260051b82010192831161042857602001905b82821061395a575050505090565b81516001600160a01b038116810361042857815290830190830161394c565b9060208282031261042857815167ffffffffffffffff8111610428576137669201613908565b916080838303126104285782519067ffffffffffffffff9182811161042857836139ca918601613908565b9360208082015184811161042857820185601f82011215610428578051906139f1826133b3565b926040613a016040519586613391565b83855281850190826060809602850101938a8511610428578301915b848310613a5a575050505050509360408201518481116104285781613a439184016136df565b9360608301519081116104285761376692016136df565b85838c031261042857815190613a6f82613345565b8351600281101561042857825284840151906001600160a01b038216820361042857828692838a950152613aa4858701613608565b85820152815201920191613a1d565b90670de0b6b3a764000091828102928184041490151715610d3b57565b81810292918115918404141715610d3b57565b8115613aed570490565b634e487b7160e01b5f52601260045260245ffd5b6040516001600160e01b031960208201927f0000000000000000000000000000000000000000000000000000000000000000845216604082015260248152613b4881613345565b51902090565b91908203918211610d3b57565b6040516314cb3b1f60e21b81523060048201526020816024816001600160a01b037f0000000000000000000000000000000000000000000000000000000000000000165afa90811561041d575f91613bde575b5015613bb657565b7f486aa307000000000000000000000000000000000000000000000000000000005f5260045ffd5b90506020813d602011613c10575b81613bf960209383613391565b8101031261042857613c0a90613608565b5f613bae565b3d9150613bec565b6040517f8380edb70000000000000000000000000000000000000000000000000000000081526020816004816001600160a01b037f0000000000000000000000000000000000000000000000000000000000000000165afa90811561041d575f91613cad575b50613c8557565b7fe4575fe4000000000000000000000000000000000000000000000000000000005f5260045ffd5b90506020813d602011613cdf575b81613cc860209383613391565b8101031261042857613cd990613608565b5f613c7e565b3d9150613cbb565b613cef614b1f565b15613cf657565b7f03d95ab4000000000000000000000000000000000000000000000000000000005f5260045ffd5b906001600160a01b0390811680613ea45750613d446001600160e01b03195f3516613b01565b91604051907faaabadc50000000000000000000000000000000000000000000000000000000082526020938483600481877f0000000000000000000000000000000000000000000000000000000000000000165afa92831561041d57859385915f91613e65575b50906064929160405196879586947f9be2a8840000000000000000000000000000000000000000000000000000000086526004860152336024860152166044840152165afa91821561041d575f92613e2f575b505015613e0757565b7f23dada53000000000000000000000000000000000000000000000000000000005f5260045ffd5b90809250813d8311613e5e575b613e468183613391565b8101031261042857613e5790613608565b5f80613dfe565b503d613e3c565b92948092508391503d8311613e9d575b613e7f8183613391565b81010312610428575183811681036104285784929084906064613dab565b503d613e75565b9150503303613e0757565b6001600160a01b037f0000000000000000000000000000000000000000000000000000000000000000163303613ee157565b7f089676d5000000000000000000000000000000000000000000000000000000005f523360045260245ffd5b90613f21826115fd613f2693969596613ab3565b614bc9565b613f37613f3282613ab3565b615538565b90670de0b6b3a763ffff198101908111610d3b578015613aed57710b7abc627050305adf14a3d9e40000000000049269d3c21bcecceda100000080850193848611610d3b57613f90670de0b6b3a7640000958692613ad0565b049360405191613f9f83613345565b6002835260403660208501378297613fb78782614bec565b888301809311610d3b5761400b93613fdc89611d37613f2161400597612d3696614bec565b613fe58761369a565b52613ff3896111c18861369a565b90613ffe848c613ad0565b0490613b4e565b916136be565b52565b90670de0b6b3a764000091828102928184041490151715610d3b5761376691613ae3565b9161403c836136be565b511580156140a6575b61409f57826115fd8261405f614081948661376698614c92565b9485156140995790945b1561408657610d2a61407a846136be565b519361369a565b6153b2565b610d2a6140928461369a565b51936136be565b94614069565b5050505f90565b506140b08361369a565b5115614045565b906fffffffffffffffffffffffffffffffff6140d283614ce7565b167fffffffffffffffffffffffffffffffff000000000000000000000000000000006140fd83614ce7565b60801b16176008556040907ff36b0fd05d55ca91fb3ebd8493adf78a3405a11c145c054a092d0994b665b637828051858152836020820152a16001600160a01b037f0000000000000000000000000000000000000000000000000000000000000000169082519360208501528284015281835261417983613345565b803b15610428576141d05f93918492845195868094819363c808824760e01b83527f5669727475616c42616c616e6365735570646174656400000000000000000000600484015288602484015260448301906132a8565b03925af19081156141ee57506141e35750565b6141ec90613361565b565b513d5f823e3d90fd5b91908181118015614462575b61443a5761420f6137ad565b9161421983614830565b9061422382614d1b565b61422c86614d1b565b905f8282039212818312811691831390151617610d3b578060ff1d809101186103e8811061440f5750906143aa6143b8926bffffffffffffffffffffffff958661427585614d70565b16815261428188614d70565b87602083019116815261429387614da0565b906001600160e01b03197bffffffff00000000000000000000000000000000000000000000000077ffffffffffffffffffffffff00000000000000000000000060409b8c87019663ffffffff80971688526142ed89614da0565b96871660608201525116935160601b16945160c01b169260e01b16921717176006557fa18562ea402e57cc2b437f8d7a139c6c38958adc1ecbb706ec37a7a64ff6e7a586518061435784898c89859094939260609260808301968352602083015260408201520152565b0390a16001600160a01b037f000000000000000000000000000000000000000000000000000000000000000016948651978894602086019094939260609260808301968352602083015260408201520152565b03601f198101855284613391565b803b15610428576141d05f93918492845195868094819363c808824760e01b83527f5072696365526174696f53746174655570646174656400000000000000000000600484015288602484015260448301906132a8565b7ff04fea2e000000000000000000000000000000000000000000000000000000005f5260045260245ffd5b7fb290253c000000000000000000000000000000000000000000000000000000005f5260045ffd5b50428110614203565b674563918244f4000081116145d0576201e6e9670de0b6b3a764000091048103908111610d3b5761449b81614a64565b906144a581614ce7565b7fffffffffffffffffffffffff00000000000000000000000000000000ffffffff73ffffffffffffffffffffffffffffffff000000006007549260201b1691161760075560407f7ee46b38be05f748de1c0fb2002ac48fe50a26a0017c654a92c0bf9228058847818051858152846020820152a16001600160a01b037f0000000000000000000000000000000000000000000000000000000000000000168151928460208501528284015281835261455c83613345565b803b15610428576145b35f93918492845195868094819363c808824760e01b83527f4461696c79507269636553686966744578706f6e656e74557064617465640000600484015288602484015260448301906132a8565b03925af19081156141ee57506145c7575090565b61376690613361565b7f2b5b4f35000000000000000000000000000000000000000000000000000000005f5260045ffd5b6706f05b59d3b200008111614727576007547fffffffff0000000000000000ffffffffffffffffffffffffffffffffffffffff7bffffffffffffffff00000000000000000000000000000000000000008360a01b169116176007557f74d468c8e414c37c502176a45cce93c85eaa0abf608e40641dc6664ca5efcab06020604051838152a16001600160a01b037f000000000000000000000000000000000000000000000000000000000000000016604051916020830152602082526146bd82613375565b803b15610428576147165f9291839260405194858094819363c808824760e01b83527f43656e74657265646e6573734d617267696e557064617465640000000000000060048401526040602484015260448301906132a8565b03925af1801561041d576141e35750565b7f7304fac7000000000000000000000000000000000000000000000000000000005f5260045ffd5b63ffffffff61475d42614da0565b168063ffffffff1960075416176007557f32a9fd44bdf167703f584bd25098494d3d18a4653a2d97116d28da05209444d46020604051838152a16001600160a01b037f000000000000000000000000000000000000000000000000000000000000000016604051916020830152602082526147d782613375565b803b15610428576147165f9291839260405194858094819363c808824760e01b83527f4c61737454696d657374616d705570646174656400000000000000000000000060048401526040602484015260448301906132a8565b61486e61483c42614da0565b6bffffffffffffffffffffffff9283815116846020830151169063ffffffff6060816040860151169401511693614dde565b1690565b6001600160a01b037f000000000000000000000000000000000000000000000000000000000000000016301480614974575b156148cd577f000000000000000000000000000000000000000000000000000000000000000090565b60405160208101907f8b73c3c69bb8fe3d512ecc4cf759cc79239f7b179b0ffacaa9a75d522b39400f82527f000000000000000000000000000000000000000000000000000000000000000060408201527f000000000000000000000000000000000000000000000000000000000000000060608201524660808201523060a082015260a0815260c0810181811067ffffffffffffffff8211176107ef5760405251902090565b507f000000000000000000000000000000000000000000000000000000000000000046146148a4565b6149e2906008546fffffffffffffffffffffffffffffffff6007549167ffffffffffffffff8360a01c16938263ffffffff85169460201c16928260801c921690614e72565b909192565b613766614a557f00000000000000000000000000000000000000000000000000000000000000007f00000000000000000000000000000000000000000000000000000000000000007f0000000000000000000000000000000000000000000000000000000000000000613f0d565b505050612c28612cb28261369a565b670de0b6b3a764000081810391818311610d3b576201e6e98084029384041491141715610d3b5790565b94614adb9294614aca91614ab9614ab264e8d4a51000979a959a6111c1848c6136cb565b91896136cb565b52614ac483886136cb565b51613b4e565b614ad482876136cb565b52846136cb565b5110610cf2576103e892614aee92614032565b10612db657565b614b15670de0b6b3a7640000936111c1611c02614b1b956111c1866136be565b90613ad0565b0490565b6040516333f0703b60e11b81523060048201525f816024816001600160a01b037f0000000000000000000000000000000000000000000000000000000000000000165afa90811561041d575f91614bab575b50614ba660085467ffffffffffffffff60075460a01c16926fffffffffffffffffffffffffffffffff8260801c921690614032565b101590565b614bbf91503d805f833e61096e8183613391565b925050505f614b71565b670de0b6b3a764000090818102918183041490151715610d3b5761376690615538565b90614bf691613ad0565b6001670de0b6b3a76400005f19830104019015150290565b670de05bc096e9c00080830283159184820414821715610d3b57670de0b6b3a764000091670de111a6b7de4000808602958604141715610d3b578190048210928315614c86575b505050614c5e57565b7ff67c277c000000000000000000000000000000000000000000000000000000005f5260045ffd5b041090505f8080614c55565b614c9b8161369a565b51614ca857505050600190565b80612c28614cb8614cbf936136be565b519161369a565b91670de0b6b3a764000091828102928184041490151715610d3b57614ce391613ae3565b1090565b6fffffffffffffffffffffffffffffffff90818111614d04571690565b6306dfcc6560e41b5f52608060045260245260445ffd5b7f7fffffffffffffffffffffffffffffffffffffffffffffffffffffffffffffff8111614d455790565b7f24775e06000000000000000000000000000000000000000000000000000000005f5260045260245ffd5b6bffffffffffffffffffffffff90818111614d89571690565b6306dfcc6560e41b5f52606060045260245260445ffd5b63ffffffff90818111614db1571690565b6306dfcc6560e41b5f52602060045260245260445ffd5b63ffffffff9182169082160391908211610d3b57565b9093919263ffffffff918281168385168110614dfe575050505050905090565b8383161015614e6a57614e53614e3a614e65969585614e3386614e5f98614e2c6137669d99614e5999614dc8565b1693614dc8565b169061400e565b80936bffffffffffffffffffffffff8091169616615693565b84613ad0565b92615693565b90613ae3565b614d70565b505050505090565b91909495925f94614e8242614da0565b9063ffffffff908183169482821699868b146151d25790818493929c829c614ea86137ad565b90866bffffffffffffffffffffffff614ede8b8286511695836020820151166060604083019d8e51169201978689511693614dde565b169b8160029951161092836151c5575b505050615047575b67ffffffffffffffff16614f0b8d8f8c614032565b10614f1c575b505050505050505050565b909192939495989b979a96995060038410156135625760028414615029575b5050600382101561356257614f576001614f8193149880614bec565b94881561500f57614f71614f6a8b6136be565b519a61369a565b51965b8915615007575093614dc8565b1693670de0b6b3a76400009485810290808204871490151715610d3b57614fbc92614b15614fb0928894615693565b0495614b1584886138fb565b91670de0b6b3a763ffff198201918211610d3b57614fe793614fe187614e5f94613ad0565b04613b4e565b901561500257905b90916001905f8080808080808080614f11565b614fef565b905093614dc8565b61502261501b8b61369a565b519a6136be565b5196614f74565b61503f9293509061503a918b614c92565b615f9e565b905f80614f3b565b9a509b509950905061505d61503a8a8c89614c92565b9060038210156135625760018214998a156151ae578b600161509d8361509560ff61508c8e825f5b16906136cb565b5194168d6136cb565b51938c614032565b6150a78a80614bec565b670de0b6b3a7640000828101809111610d3b577f3fffffffffffffffffffffffffffffffffffffffffffffffffffffffffffffff82168203610d3b576150f08260021b846138fb565b671bc16d674ec7ffff198101908111610d3b5761510d9084613ad0565b6ec097ce7bc90715b34b9f10000000008101809111610d3b5761513c91615136614e5392615538565b906138fb565b92670de0b6b3a763ffff198201918211610d3b577f7fffffffffffffffffffffffffffffffffffffffffffffffffffffffffffffff82168203610d3b576115fd61519061519795612d369460011b90613ae3565b8096613ad0565b9b156151a9579a5b9a9b60019a614ef6565b61519f565b8b5f61509d8361509560ff61508c8e826001615085565b51161190505f8781614eee565b9a5098505f9750505050505050565b60ff81146152355760ff811690601f821161520d576040519161520383613375565b8252602082015290565b7fb3512b0c000000000000000000000000000000000000000000000000000000005f5260045ffd5b506040515f815f5491615247836135d0565b808352926020906001908181169081156152d05750600114615272575b505061376692500382613391565b9150925f80527f290decd9548b62a8d60345a988386fc84ba6bc95484008f6362f93160ef3e563935f925b8284106152b857506137669450505081016020015f80615264565b8554878501830152948501948694509281019261529d565b9150506020925061376694915060ff191682840152151560051b8201015f80615264565b60ff81146153165760ff811690601f821161520d576040519161520383613375565b506040515f8160019160015461532b816135d0565b80845293602091600181169081156152d0575060011461535357505061376692500382613391565b91509260015f527fb10e2d527612073b26eecdfd717e6a320cf44b4afac2b0732d9fcbe2b7fa0cf6935f925b82841061539a57506137669450505081016020015f80615264565b8554878501830152948501948694509281019261537f565b9080156153e357670de0b6b3a764000091828102928184041490151715610d3b576001905f19830104019015150290565b7f0a0c22c7000000000000000000000000000000000000000000000000000000005f5260045ffd5b91907f7fffffffffffffffffffffffffffffff5d576e7357a4501ddfe92f46681b20a08411615482579160209360809260ff5f9560405194855216868401526040830152606082015282805260015afa1561041d575f516001600160a01b0381161561547857905f905f90565b505f906001905f90565b5050505f9160039190565b6004811015613562578061549f575050565b600181036154cf577ff645eedf000000000000000000000000000000000000000000000000000000005f5260045ffd5b6002810361550357507ffce698f7000000000000000000000000000000000000000000000000000000005f5260045260245ffd5b60031461550d5750565b7fd78bce0c000000000000000000000000000000000000000000000000000000005f5260045260245ffd5b60018082111561566b57615607908083700100000000000000000000000000000000811015615654575b80680100000000000000006004921015615647575b64010000000081101561563a575b6201000081101561562d575b610100811015615621575b6010811015615615575b101561560e575b600302811c6155bc8185613ae3565b01811c6155c98185613ae3565b01811c6155d68185613ae3565b01811c6155e38185613ae3565b01811c6155f08185613ae3565b01811c6155fd8185613ae3565b01901c8092613ae3565b8111900390565b811b6155ad565b811c9160021b916155a6565b60081c91811b9161559c565b60101c9160081b91615591565b60201c9160101b91615585565b60401c9160201b91615577565b50680100000000000000009050608084901c615562565b5090565b8015613aed576ec097ce7bc90715b34b9f10000000000590565b8115613aed570590565b908015615f90578115615f8a578160ff1c615f6257770bce5086492111aea88f4bb1ca6bcf584181ea8059f76532811015615f3a5781670c7d713b49da00001280615f29575b15615bdc57670de0b6b3a7640000916ec097ce7bc90715b34b9f10000000009061572c908402828101907fffffffffffffffffffffffffffffffffff3f68318436f8ea4cb460f000000000018302615689565b9080828002059181838202058284820205838582020591848684020593858786020595808888020597880205600f900596600d900595600b900594600990059360079005926005900591600390050101010101010160011b918082818507020592050201670de0b6b3a7640000905b057ffffffffffffffffffffffffffffffffffffffffffffffffdc702bd3a30fc00008181131580615bc9575b15615ba157819082121580615b8e575b15615b66575f915f8112615b57575b506064906806f05b59d3b20000008112615af4577ffffffffffffffffffffffffffffffffffffffffffffffff90fa4a62c4e0000000168056bc75e2d6310000082770195e54c5dd42177f53a27172fa9ec630262827000000000925b02819068ad78ebc5ac62000000811215615abb575b6856bc75e2d631000000811215615a81575b682b5e3af16b18800000811215615a49575b6815af1d78b58c400000811215615a11575b680ad78ebc5ac62000008112156159da575b828112156159b9575b6802b5e3af16b1880000811215615982575b68015af1d78b58c4000081121561594b575b60028382800205056003848383020505600485848302050585600581868402050560068287830205056007838883020505906008848984020505926009858a8602050595600a868b8902050597600b878c8b02050599600c888d8d0205059b01010101010101010101010102050205905f14613766576137669061566f565b6806f5f17757889379377ffffffffffffffffffffffffffffffffffffffffffffffffea50e2874a73c0000849201920205906158cc565b6808f00f760a4b2db55d7ffffffffffffffffffffffffffffffffffffffffffffffffd4a1c50e94e780000849201920205906158ba565b680ebc5fb4174612111068056bc75e2d630fffff19849201920205906158a8565b68280e60114edb805d037ffffffffffffffffffffffffffffffffffffffffffffffff5287143a539e000008492019202059061589f565b690127fa27722cc06cc5e27fffffffffffffffffffffffffffffffffffffffffffffffea50e2874a73c000008492019202059061588d565b693f1fce3da636ea5cf8507fffffffffffffffffffffffffffffffffffffffffffffffd4a1c50e94e78000008492019202059061587b565b6b02df0ab5a80a22c61ab5a7007fffffffffffffffffffffffffffffffffffffffffffffffa9438a1d29cf00000084920192020590615869565b6e01855144814a7ff805980ff008400091507fffffffffffffffffffffffffffffffffffffffffffffff5287143a539e00000001615857565b6803782dace9d90000008112615b44577ffffffffffffffffffffffffffffffffffffffffffffffffc87d25316270000000168056bc75e2d63100000826b1425982cf597cd205cef738092615842565b68056bc75e2d6310000082600192615842565b600192505f03905060646157e6565b7fd4794efd000000000000000000000000000000000000000000000000000000005f5260045ffd5b5068070c1cc73b00c800008213156157d7565b7fa2f9f7e3000000000000000000000000000000000000000000000000000000005f5260045ffd5b5068070c1cc73b00c800008213156157c7565b81670de0b6b3a7640000925f91848112615f13575b506064905f7e1600ef3172e58d2e933ec884fde10064c63b5372d805e203c0000000000000821215615ee8575b73011798004d755d3c8bc8e03204cf44619e000000821215615ec7575b820290808302906e01855144814a7ff805980ff00840009081831215615ea4575b50506b02df0ab5a80a22c61ab5a70080821215615e84575b50693f1fce3da636ea5cf85080821215615e64575b50690127fa27722cc06cc5e280821215615e44575b5068280e60114edb805d0380821215615e24575b50680ebc5fb4174612111080821215615e0d575b506808f00f760a4b2db55d80821215615ded575b506806f5f177578893793780821215615dcd575b506806248f33704b28660380821215615dae575b506805c548670b9510e7ac80821215615d8f575b50615d3c68056bc75e2d63100000918268056bc75e2d630fffff19818301920102615689565b9080828002059181838202058284820205916003600560076009600b888a89020598808b8b02059a8b0205059805960594059205010101010160011b0105905f14615d8a575f035b0261579b565b615d84565b68056bc75e2d631000006756bc75e2d63100009202059101905f615d16565b68056bc75e2d6310000067ad78ebc5ac6200009202059101905f615d02565b68056bc75e2d6310000068015af1d78b58c400009202059101905f615cee565b68056bc75e2d631000006802b5e3af16b18800009202059101905f615cda565b68056bc75e2d63100000809202059101905f615cc6565b68056bc75e2d63100000680ad78ebc5ac62000009202059101905f615cb2565b68056bc75e2d631000006815af1d78b58c4000009202059101905f615c9e565b68056bc75e2d63100000682b5e3af16b188000009202059101905f615c89565b68056bc75e2d631000006856bc75e2d6310000009202059101905f615c74565b68ad78ebc5ac62000000925069021e19e0c9bab240000002059101905f80615c5c565b906b1425982cf597cd205cef73806803782dace9d900000091059101615c3b565b50770195e54c5dd42177f53a27172fa9ec63026282700000000090056806f05b59d3b2000000615c1e565b9050615f1f915061566f565b6001906064615bf1565b50670f43fc2c04ee000082126156d9565b7fd8317311000000000000000000000000000000000000000000000000000000005f5260045ffd5b7f022701e0000000000000000000000000000000000000000000000000000000005f5260045ffd5b50505f90565b5050670de0b6b3a764000090565b15156003811015613562579056fea2646970667358221220e95b2146d483bb663616bd294a5144db2cab2f1e8576a84de8b5ce838defb74164736f6c634300081b0033",
  "linkReferences": {},
  "deployedLinkReferences": {}
}