{
  "_format": "hh-sol-artifact-1",
  "contractName": "ProtocolFeeHelper",
  "sourceName": "contracts/ProtocolFeeHelper.sol",
  "abi": [
    {
      "inputs": [
        {
          "internalType": "contract IVault",
          "name": "vault",
          "type": "address"
        }
      ],
      "stateMutability": "nonpayable",
      "type": "constructor"
    },
    {
      "inputs": [],
      "name": "IndexOutOfBounds",
      "type": "error"
    },
    {
      "inputs": [
        {
          "internalType": "address",
          "name": "pool",
          "type": "address"
        }
      ],
      "name": "PoolAlreadyInSet",
      "type": "error"
    },
    {
      "inputs": [
        {
          "internalType": "address",
          "name": "pool",
          "type": "address"
        }
      ],
      "name": "PoolNotInSet",
      "type": "error"
    },
    {
      "inputs": [
        {
          "internalType": "address",
          "name": "pool",
          "type": "address"
        }
      ],
      "name": "PoolNotRegistered",
      "type": "error"
    },
    {
      "inputs": [],
      "name": "SenderNotAllowed",
      "type": "error"
    },
    {
      "inputs": [],
      "name": "VaultNotSet",
      "type": "error"
    },
    {
      "anonymous": false,
      "inputs": [
        {
          "indexed": false,
          "internalType": "address",
          "name": "pool",
          "type": "address"
        }
      ],
      "name": "PoolAddedToSet",
      "type": "event"
    },
    {
      "anonymous": false,
      "inputs": [
        {
          "indexed": false,
          "internalType": "address",
          "name": "pool",
          "type": "address"
        }
      ],
      "name": "PoolRemovedFromSet",
      "type": "event"
    },
    {
      "inputs": [
        {
          "internalType": "address[]",
          "name": "newPools",
          "type": "address[]"
        }
      ],
      "name": "addPools",
      "outputs": [],
      "stateMutability": "nonpayable",
      "type": "function"
    },
    {
      "inputs": [
        {
          "internalType": "bytes4",
          "name": "selector",
          "type": "bytes4"
        }
      ],
      "name": "getActionId",
      "outputs": [
        {
          "internalType": "bytes32",
          "name": "",
          "type": "bytes32"
        }
      ],
      "stateMutability": "view",
      "type": "function"
    },
    {
      "inputs": [],
      "name": "getAuthorizer",
      "outputs": [
        {
          "internalType": "contract IAuthorizer",
          "name": "",
          "type": "address"
        }
      ],
      "stateMutability": "view",
      "type": "function"
    },
    {
      "inputs": [],
      "name": "getPoolCount",
      "outputs": [
        {
          "internalType": "uint256",
          "name": "",
          "type": "uint256"
        }
      ],
      "stateMutability": "view",
      "type": "function"
    },
    {
      "inputs": [
        {
          "internalType": "uint256",
          "name": "from",
          "type": "uint256"
        },
        {
          "internalType": "uint256",
          "name": "to",
          "type": "uint256"
        }
      ],
      "name": "getPools",
      "outputs": [
        {
          "internalType": "address[]",
          "name": "pools",
          "type": "address[]"
        }
      ],
      "stateMutability": "view",
      "type": "function"
    },
    {
      "inputs": [],
      "name": "getVault",
      "outputs": [
        {
          "internalType": "contract IVault",
          "name": "",
          "type": "address"
        }
      ],
      "stateMutability": "view",
      "type": "function"
    },
    {
      "inputs": [
        {
          "internalType": "address",
          "name": "pool",
          "type": "address"
        }
      ],
      "name": "hasPool",
      "outputs": [
        {
          "internalType": "bool",
          "name": "",
          "type": "bool"
        }
      ],
      "stateMutability": "view",
      "type": "function"
    },
    {
      "inputs": [
        {
          "internalType": "address[]",
          "name": "pools",
          "type": "address[]"
        }
      ],
      "name": "removePools",
      "outputs": [],
      "stateMutability": "nonpayable",
      "type": "function"
    },
    {
      "inputs": [
        {
          "internalType": "address",
          "name": "pool",
          "type": "address"
        },
        {
          "internalType": "uint256",
          "name": "newProtocolSwapFeePercentage",
          "type": "uint256"
        }
      ],
      "name": "setProtocolSwapFeePercentage",
      "outputs": [],
      "stateMutability": "nonpayable",
      "type": "function"
    },
    {
      "inputs": [
        {
          "internalType": "address",
          "name": "pool",
          "type": "address"
        },
        {
          "internalType": "uint256",
          "name": "newProtocolYieldFeePercentage",
          "type": "uint256"
        }
      ],
      "name": "setProtocolYieldFeePercentage",
      "outputs": [],
      "stateMutability": "nonpayable",
      "type": "function"
    }
  ],
  "bytecode": "0x60c0346100a857601f61101b38819003918201601f19168301916001600160401b038311848410176100ac578084926020946040528339810103126100a857516001600160a01b0381168082036100a85730608052156100995760a052604051610f5a90816100c1823960805181610a33015260a0518181816103bf015281816106510152818161070f01528181610b6e0152610d050152f35b630647140b60e51b5f5260045ffd5b5f80fd5b634e487b7160e01b5f52604160045260245ffdfe60806040818152600480361015610014575f80fd5b5f925f3560e01c9081631246dbf5146108c7575080634b16414014610782578063851c1bb3146107335780638d928af8146106e35780638eec5d70146106c6578063aaabadc5146105fe578063abaa335614610520578063b36a4ab114610346578063bbe95837146101765763fd267f391461008e575f80fd5b8291346101725780600319360112610172576100a861090a565b6100b181610c6c565b6100b9610afc565b73ffffffffffffffffffffffffffffffffffffffff6100d6610cc2565b1692833b1561016e5761013f9385928385518097819582947ffd267f390000000000000000000000000000000000000000000000000000000084526024359184016020909392919373ffffffffffffffffffffffffffffffffffffffff60408201951681520152565b03925af190811561016557506101525750f35b61015b9061092d565b6101625780f35b80fd5b513d84823e3d90fd5b8480fd5b5050fd5b508290346103425782600319360112610342578035906024926024358154818511908115610338575b811561032d575b5061030757859184826101ba828995610ac2565b916101dc6101c7846109af565b936101d48851958661096e565b8085526109af565b946020977fffffffffffffffffffffffffffffffffffffffffffffffffffffffffffffffe06020860197013688375f54835b85811061026e57505050505050835194859460208601926020875251809352850193925b82811061024157505050500390f35b835173ffffffffffffffffffffffffffffffffffffffff1685528695509381019392810192600101610232565b81819b9897999a9b10156102dc576001905f805273ffffffffffffffffffffffffffffffffffffffff817f290decd9548b62a8d60345a988386fc84ba6bc95484008f6362f93160ef3e5630154166102cf6102c98884610ac2565b8c6109c7565b520199989795969961020e565b836032847f4e487b71000000000000000000000000000000000000000000000000000000005f52525ffd5b507f4e23d035000000000000000000000000000000000000000000000000000000008152fd5b9050841015876101a6565b808311915061019f565b5080fd5b50903461051c5760209160206003193601126105185780359167ffffffffffffffff9182841161051457366023850112156105145783810135928311610514576024906005933660248260051b8801011161051057946103a4610afc565b879073ffffffffffffffffffffffffffffffffffffffff95867f000000000000000000000000000000000000000000000000000000000000000016925b8881106103ec578a80f35b8581831b8401013588811680910361050c5787517fc673bdaf00000000000000000000000000000000000000000000000000000000815281878201528b818981895afa908115610502578d916104d5575b50156104ac5761044c81610ecf565b1561048357907f099b605510ffa7c63c0abae2ddb315d152c3780cb7fb860fe267aeeb55aa79c78b6001938a51908152a1016103e1565b7f391de812000000000000000000000000000000000000000000000000000000008c528552858bfd5b7f9e51bd5c000000000000000000000000000000000000000000000000000000008c528552858bfd5b6104f591508c8d3d106104fb575b6104ed818361096e565b810190610aaa565b5f61043d565b503d6104e3565b89513d8f823e3d90fd5b8b80fd5b8780fd5b8580fd5b8380fd5b8280fd5b5090346105fa57806003193601126105fa5761053a61090a565b61054381610c6c565b61054b610afc565b73ffffffffffffffffffffffffffffffffffffffff610568610cc2565b1692833b156105fa576105d1935f928385518097819582947fabaa33560000000000000000000000000000000000000000000000000000000084526024359184016020909392919373ffffffffffffffffffffffffffffffffffffffff60408201951681520152565b03925af19081156105f157506105e5575080f35b6105ef915061092d565b005b513d5f823e3d90fd5b5f80fd5b50346105fa575f6003193601126105fa5773ffffffffffffffffffffffffffffffffffffffff6020835180937faaabadc500000000000000000000000000000000000000000000000000000000825281847f0000000000000000000000000000000000000000000000000000000000000000165afa9182156106bc57926020935f9361068d575b505191168152f35b6106ae919350843d86116106b5575b6106a6818361096e565b810190610a7e565b9184610685565b503d61069c565b83513d5f823e3d90fd5b82346105fa575f6003193601126105fa576020905f549051908152f35b82346105fa575f6003193601126105fa576020905173ffffffffffffffffffffffffffffffffffffffff7f0000000000000000000000000000000000000000000000000000000000000000168152f35b50346105fa5760206003193601126105fa5735907fffffffff00000000000000000000000000000000000000000000000000000000821682036105fa5761077b602092610a08565b9051908152f35b5090346105fa5760209160206003193601126105fa5780359167ffffffffffffffff83116105fa57366023840112156105fa5782820135926024906107c6856109af565b946107d38451968761096e565b8086526024602087019160051b830101913683116105fa57602401905b82821061089b57505050610802610afc565b8351935f5b85811061081057005b73ffffffffffffffffffffffffffffffffffffffff61082f82846109c7565b511661083a81610da6565b1561087157907f2d6e1422e38cf8b1c4f2314722a67f167a89f205d5109a044f5f8a89eecb45dc886001938751908152a101610807565b8390867f79ff313f000000000000000000000000000000000000000000000000000000005f52525ffd5b813573ffffffffffffffffffffffffffffffffffffffff811681036105fa5781529087019087016107f0565b8390346105fa5760206003193601126105fa5760209173ffffffffffffffffffffffffffffffffffffffff6108fa61090a565b165f52600183525f205415158152f35b6004359073ffffffffffffffffffffffffffffffffffffffff821682036105fa57565b67ffffffffffffffff811161094157604052565b7f4e487b71000000000000000000000000000000000000000000000000000000005f52604160045260245ffd5b90601f7fffffffffffffffffffffffffffffffffffffffffffffffffffffffffffffffe0910116810190811067ffffffffffffffff82111761094157604052565b67ffffffffffffffff81116109415760051b60200190565b80518210156109db5760209160051b010190565b7f4e487b71000000000000000000000000000000000000000000000000000000005f52603260045260245ffd5b6040517fffffffff0000000000000000000000000000000000000000000000000000000060208201927f00000000000000000000000000000000000000000000000000000000000000008452166040820152602481526060810181811067ffffffffffffffff8211176109415760405251902090565b908160209103126105fa575173ffffffffffffffffffffffffffffffffffffffff811681036105fa5790565b908160209103126105fa575180151581036105fa5790565b91908203918211610acf57565b7f4e487b71000000000000000000000000000000000000000000000000000000005f52601160045260245ffd5b610b287fffffffff000000000000000000000000000000000000000000000000000000005f3516610a08565b73ffffffffffffffffffffffffffffffffffffffff6040517faaabadc50000000000000000000000000000000000000000000000000000000081526020928382600481867f0000000000000000000000000000000000000000000000000000000000000000165afa908115610c3f5784925f92610c4a575b5060649060405194859384927f9be2a8840000000000000000000000000000000000000000000000000000000084526004840152336024840152306044840152165afa918215610c3f575f92610c22575b505015610bfa57565b7f23dada53000000000000000000000000000000000000000000000000000000005f5260045ffd5b610c389250803d106104fb576104ed818361096e565b5f80610bf1565b6040513d5f823e3d90fd5b6064919250610c6590843d86116106b5576106a6818361096e565b9190610ba0565b73ffffffffffffffffffffffffffffffffffffffff16805f52600160205260405f205415610c975750565b7f79ff313f000000000000000000000000000000000000000000000000000000005f5260045260245ffd5b6040517f85f2dbd400000000000000000000000000000000000000000000000000000000815273ffffffffffffffffffffffffffffffffffffffff6020826004817f000000000000000000000000000000000000000000000000000000000000000085165afa918215610c3f575f92610d3a57505090565b9091506020813d602011610d6b575b81610d566020938361096e565b810103126105fa575190811681036105fa5790565b3d9150610d49565b5f548110156109db575f80527f290decd9548b62a8d60345a988386fc84ba6bc95484008f6362f93160ef3e56301905f90565b5f818152600160205260409020548015610ec9577fffffffffffffffffffffffffffffffffffffffffffffffffffffffffffffffff90818101818111610acf575f5490838201918211610acf57818103610e60575b5050505f548015610e3357810190610e1282610d73565b909182549160031b1b191690555f555f5260016020525f6040812055600190565b7f4e487b71000000000000000000000000000000000000000000000000000000005f52603160045260245ffd5b610eb3610e6f610e7e93610d73565b90549060031b1c928392610d73565b81939154907fffffffffffffffffffffffffffffffffffffffffffffffffffffffffffffffff9060031b92831b921b19161790565b90555f52600160205260405f20555f8080610dfb565b50505f90565b805f52600160205260405f2054155f14610f1f575f546801000000000000000081101561094157610f09610e7e8260018594015f55610d73565b90555f54905f52600160205260405f2055600190565b505f9056fea2646970667358221220a2986b0b1bc4d47718ece5acb272c173c7af309adda80ee75d38a59841e5abbc64736f6c634300081b0033",
  "linkReferences": {},
  "deployedLinkReferences": {}
}