{"contracts/ProtocolFeeControllerMigration.sol":{"ProtocolFeeControllerMigration":{"abi":[{"inputs":[{"internalType":"contract IVault","name":"_vault","type":"address"}],"stateMutability":"nonpayable","type":"constructor"},{"inputs":[],"name":"AlreadyMigrated","type":"error"},{"inputs":[],"name":"InvalidFeeController","type":"error"},{"inputs":[],"name":"ReentrancyGuardReentrantCall","type":"error"},{"inputs":[],"name":"SenderNotAllowed","type":"error"},{"inputs":[],"name":"finalizeMigration","outputs":[],"stateMutability":"nonpayable","type":"function"},{"inputs":[{"internalType":"bytes4","name":"selector","type":"bytes4"}],"name":"getActionId","outputs":[{"internalType":"bytes32","name":"","type":"bytes32"}],"stateMutability":"view","type":"function"},{"inputs":[],"name":"getAuthorizer","outputs":[{"internalType":"contract IAuthorizer","name":"","type":"address"}],"stateMutability":"view","type":"function"},{"inputs":[],"name":"getVault","outputs":[{"internalType":"contract IVault","name":"","type":"address"}],"stateMutability":"view","type":"function"},{"inputs":[],"name":"isMigrationComplete","outputs":[{"internalType":"bool","name":"","type":"bool"}],"stateMutability":"view","type":"function"},{"inputs":[{"internalType":"address[]","name":"pools","type":"address[]"}],"name":"migratePools","outputs":[],"stateMutability":"nonpayable","type":"function"},{"inputs":[],"name":"newFeeController","outputs":[{"internalType":"contract IProtocolFeeController","name":"","type":"address"}],"stateMutability":"view","type":"function"},{"inputs":[],"name":"oldFeeController","outputs":[{"internalType":"contract IProtocolFeeController","name":"","type":"address"}],"stateMutability":"view","type":"function"},{"inputs":[{"internalType":"contract IProtocolFeeController","name":"_newFeeController","type":"address"}],"name":"setNewFeeController","outputs":[],"stateMutability":"nonpayable","type":"function"},{"inputs":[],"name":"vault","outputs":[{"internalType":"contract IVault","name":"","type":"address"}],"stateMutability":"view","type":"function"}],"evm":{"bytecode":{"linkReferences":{},"object":"610120604081815234610169578161149a803803809161001f82856101c3565b833960209384918101031261016957516001600160a01b0390818116808203610169573060805260a0829052835163217cb6f560e21b81528581600481855afa9081156101b957908692915f9161017e575b509260049360c05260e05284519283809263aaabadc560e01b82525afa938415610174575f94610137575b5050610100921682525161129f91826101fb8339608051826111f2015260a051828181610b3801528181610fc90152611052015260c0518281816105b50152818161062a01526110f2015260e05182818160ba0152610c5b0152518181816104290152818161048c015281816104ea0152818161052b01528181610740015281816107a301528181610801015281816108430152610c960152f35b9080929450813d831161016d575b61014f81836101c3565b810103126101695751828116810361016957915f8061009c565b5f80fd5b503d610145565b83513d5f823e3d90fd5b8381939492503d83116101b2575b61019681836101c3565b8101031261016957519083821682036101695785916004610071565b503d61018c565b85513d5f823e3d90fd5b601f909101601f19168101906001600160401b038211908210176101e657604052565b634e487b7160e01b5f52604160045260245ffdfe6080806040526004361015610012575f80fd5b5f905f358060e01c91826351da116d14611116575081637ea3a964146110c6578163851c1bb3146110765781638d928af814611026578163aaabadc514610f76578163b78b608714610ab357508063b8350e2714610167578063bba1af4714610106578063d7128084146100e15763fbfa77cf1461008e575f80fd5b346100de57806003193601126100de57602060405173ffffffffffffffffffffffffffffffffffffffff7f0000000000000000000000000000000000000000000000000000000000000000168152f35b80fd5b50346100de57806003193601126100de5760ff6020915460a01c166040519015158152f35b50346100de5760206003193601126100de5760043573ffffffffffffffffffffffffffffffffffffffff8116809103610163577fffffffffffffffffffffffff000000000000000000000000000000000000000082541617815580f35b5080fd5b50346100de5760206003193601126100de5767ffffffffffffffff6004358181116108a457366023820112156108a4578060040135918211610a86578160051b90604051926101b96020840185611186565b835260246020840192820101903682116108db57602401915b818310610a59575050507f9b779b17422d0df92223018b32b4d1fa46e071723d6817e2486d003becc55f005c610a315760017f9b779b17422d0df92223018b32b4d1fa46e071723d6817e2486d003becc55f005d815460ff8160a01c16610a09578060ff849260a81c1615610314575b50805b82518110156102ed5773ffffffffffffffffffffffffffffffffffffffff808354169060208360051b8601015116813b156102e95783916024839260405194859384927f0874327f00000000000000000000000000000000000000000000000000000000845260048401525af19081156102de5783916102ca575b5050600101610245565b6102d390611145565b61016357815f6102c0565b6040513d85823e3d90fd5b8380fd5b50807f9b779b17422d0df92223018b32b4d1fa46e071723d6817e2486d003becc55f005d80f35b8075010000000000000000000000000000000000000000007fffffffffffffffffffff00ffffffffffffffffffffffffffffffffffffffffff73ffffffffffffffffffffffffffffffffffffffff9316178355166040517f851c1bb3000000000000000000000000000000000000000000000000000000008082527f8a3c5c69000000000000000000000000000000000000000000000000000000006004830152602082602481865afa9182156108bc5784926109d1575b5060209060246040518095819382527fa93df2a40000000000000000000000000000000000000000000000000000000060048301525afa9182156102de57839261099a575b5073ffffffffffffffffffffffffffffffffffffffff7f0000000000000000000000000000000000000000000000000000000000000000163b156108a4576040517f2f2ff15d0000000000000000000000000000000000000000000000000000000080825260048201839052306024830152908481604481837f000000000000000000000000000000000000000000000000000000000000000073ffffffffffffffffffffffffffffffffffffffff165af19081156108f3578591610986575b505073ffffffffffffffffffffffffffffffffffffffff7f0000000000000000000000000000000000000000000000000000000000000000163b156102e957604051908152600481018390523060248201528381604481837f000000000000000000000000000000000000000000000000000000000000000073ffffffffffffffffffffffffffffffffffffffff165af19081156108bc578491610972575b50506040517f7869ee1800000000000000000000000000000000000000000000000000000000815260208160048173ffffffffffffffffffffffffffffffffffffffff7f0000000000000000000000000000000000000000000000000000000000000000165afa9081156108bc57849161093d575b50604051907f55fb76af00000000000000000000000000000000000000000000000000000000825260208260048173ffffffffffffffffffffffffffffffffffffffff7f0000000000000000000000000000000000000000000000000000000000000000165afa9182156108f3578592610902575b5073ffffffffffffffffffffffffffffffffffffffff85541690813b156108fe5785916024839260405194859384927f8a3c5c6900000000000000000000000000000000000000000000000000000000845260048401525af19081156108f35785916108df575b505473ffffffffffffffffffffffffffffffffffffffff1690813b156108db5784916024839260405194859384927fa93df2a400000000000000000000000000000000000000000000000000000000845260048401525af19081156108bc5784916108c7575b505073ffffffffffffffffffffffffffffffffffffffff7f0000000000000000000000000000000000000000000000000000000000000000163b156108a4576040517f36568abe0000000000000000000000000000000000000000000000000000000080825260048201929092523060248201528381604481837f000000000000000000000000000000000000000000000000000000000000000073ffffffffffffffffffffffffffffffffffffffff165af19081156108bc5784916108a8575b505073ffffffffffffffffffffffffffffffffffffffff7f0000000000000000000000000000000000000000000000000000000000000000163b156108a45760405190815260048101919091523060248201528181604481837f000000000000000000000000000000000000000000000000000000000000000073ffffffffffffffffffffffffffffffffffffffff165af1801561089957156102425761088e90611145565b61016357815f610242565b6040513d84823e3d90fd5b8280fd5b6108b190611145565b6108a457825f6107e8565b6040513d86823e3d90fd5b6108d090611145565b6108a457825f610727565b8480fd5b6108e890611145565b6102e957835f6106c1565b6040513d87823e3d90fd5b8580fd5b945090506020843d602011610935575b8161091f60209383611186565b8101031261093157859351905f61065a565b5f80fd5b3d9150610912565b9350506020833d60201161096a575b8161095960209383611186565b81010312610931578492515f6105e5565b3d915061094c565b61097b90611145565b6108a457825f610570565b61098f90611145565b6102e957835f6104d1565b925090506020823d6020116109c9575b816109b760209383611186565b8101031261093157839151905f610411565b3d91506109aa565b935090506020833d602011610a01575b816109ee60209383611186565b81010312610931579151849260206103cc565b3d91506109e1565b6004837fca1c3cbc000000000000000000000000000000000000000000000000000000008152fd5b6004827f3ee5aeb5000000000000000000000000000000000000000000000000000000008152fd5b823573ffffffffffffffffffffffffffffffffffffffff811681036108fe578152602092830192016101d2565b6024837f4e487b710000000000000000000000000000000000000000000000000000000081526041600452fd5b905034610931575f600319360112610931577fffffffff00000000000000000000000000000000000000000000000000000000610af091166111c7565b9073ffffffffffffffffffffffffffffffffffffffff604051927faaabadc50000000000000000000000000000000000000000000000000000000084526020938481600481867f0000000000000000000000000000000000000000000000000000000000000000165afa8015610e8457839286925f92610f44575b5060649060405194859384927f9be2a8840000000000000000000000000000000000000000000000000000000084526004840152336024840152306044840152165afa908115610e84575f91610f0e575b5015610ee6575f5460ff8160a01c16610ebe577fffffffffffffffffffffff00ffffffffffffffffffffffffffffffffffffffff1674010000000000000000000000000000000000000000175f556040517f851c1bb30000000000000000000000000000000000000000000000000000000081527f2d7713890000000000000000000000000000000000000000000000000000000060048201819052937f000000000000000000000000000000000000000000000000000000000000000083168183602481845afa928315610e84575f93610e8f575b50837f00000000000000000000000000000000000000000000000000000000000000001693843b15610931576040517f2f2ff15d000000000000000000000000000000000000000000000000000000008152600481018590523060248201525f81604481838a5af18015610e8457610e71575b50958596865416823b15610e6d5760248792836040519586948593845260048401525af19081156108f3578591610e59575b5050823b15610e0f576040517f36568abe000000000000000000000000000000000000000000000000000000008082526004820193909352306024820152848160448183885af19081156108f3578591610e45575b50506040517fa217fddf0000000000000000000000000000000000000000000000000000000081528181600481875afa9182156108f3578592610e14575b5050823b15610e0f5760405191825260048201523060248201529082908290604490829084905af1801561089957610dff5750f35b610e0890611145565b6100de5780f35b505050fd5b8195508092503d8311610e3e575b610e2c8183611186565b81010312610931578392515f80610dca565b503d610e22565b610e4e90611145565b610e0f57835f610d8c565b610e6290611145565b610e0f57835f610d37565b8680fd5b610e7c919650611145565b5f945f610d05565b6040513d5f823e3d90fd5b9092508181813d8311610eb7575b610ea78183611186565b810103126109315751915f610c92565b503d610e9d565b7fca1c3cbc000000000000000000000000000000000000000000000000000000005f5260045ffd5b7f23dada53000000000000000000000000000000000000000000000000000000005f5260045ffd5b90508381813d8311610f3d575b610f258183611186565b8101031261093157518015158103610931575f610bbc565b503d610f1b565b6064919250610f6890843d8611610f6f575b610f608183611186565b81019061123d565b9190610b6b565b503d610f56565b34610931575f600319360112610931576040517faaabadc500000000000000000000000000000000000000000000000000000000815273ffffffffffffffffffffffffffffffffffffffff6020826004817f000000000000000000000000000000000000000000000000000000000000000085165afa908115610e84576020925f92611007575b5060405191168152f35b61101f919250833d8511610f6f57610f608183611186565b9083610ffd565b34610931575f60031936011261093157602060405173ffffffffffffffffffffffffffffffffffffffff7f0000000000000000000000000000000000000000000000000000000000000000168152f35b34610931576020600319360112610931576004357fffffffff0000000000000000000000000000000000000000000000000000000081168103610931576110be6020916111c7565b604051908152f35b34610931575f60031936011261093157602060405173ffffffffffffffffffffffffffffffffffffffff7f0000000000000000000000000000000000000000000000000000000000000000168152f35b34610931575f6003193601126109315760209073ffffffffffffffffffffffffffffffffffffffff5f54168152f35b67ffffffffffffffff811161115957604052565b7f4e487b71000000000000000000000000000000000000000000000000000000005f52604160045260245ffd5b90601f7fffffffffffffffffffffffffffffffffffffffffffffffffffffffffffffffe0910116810190811067ffffffffffffffff82111761115957604052565b6040517fffffffff0000000000000000000000000000000000000000000000000000000060208201927f00000000000000000000000000000000000000000000000000000000000000008452166040820152602481526060810181811067ffffffffffffffff8211176111595760405251902090565b90816020910312610931575173ffffffffffffffffffffffffffffffffffffffff81168103610931579056fea2646970667358221220af9ff083a28d67ed36b023f4ca0b05ea33e3e5dc407c20a91f546c2d81aaa95764736f6c634300081b0033","opcodes":"PUSH2 0x120 PUSH1 0x40 DUP2 DUP2 MSTORE CALLVALUE PUSH2 0x169 JUMPI DUP2 PUSH2 0x149A DUP1 CODESIZE SUB DUP1 SWAP2 PUSH2 0x1F DUP3 DUP6 PUSH2 0x1C3 JUMP JUMPDEST DUP4 CODECOPY PUSH1 0x20 SWAP4 DUP5 SWAP2 DUP2 ADD SUB SLT PUSH2 0x169 JUMPI MLOAD PUSH1 0x1 PUSH1 0x1 PUSH1 0xA0 SHL SUB SWAP1 DUP2 DUP2 AND DUP1 DUP3 SUB PUSH2 0x169 JUMPI ADDRESS PUSH1 0x80 MSTORE PUSH1 0xA0 DUP3 SWAP1 MSTORE DUP4 MLOAD PUSH4 0x217CB6F5 PUSH1 0xE2 SHL DUP2 MSTORE DUP6 DUP2 PUSH1 0x4 DUP2 DUP6 GAS STATICCALL SWAP1 DUP2 ISZERO PUSH2 0x1B9 JUMPI SWAP1 DUP7 SWAP3 SWAP2 PUSH0 SWAP2 PUSH2 0x17E JUMPI JUMPDEST POP SWAP3 PUSH1 0x4 SWAP4 PUSH1 0xC0 MSTORE PUSH1 0xE0 MSTORE DUP5 MLOAD SWAP3 DUP4 DUP1 SWAP3 PUSH4 0xAAABADC5 PUSH1 0xE0 SHL DUP3 MSTORE GAS STATICCALL SWAP4 DUP5 ISZERO PUSH2 0x174 JUMPI PUSH0 SWAP5 PUSH2 0x137 JUMPI JUMPDEST POP POP PUSH2 0x100 SWAP3 AND DUP3 MSTORE MLOAD PUSH2 0x129F SWAP2 DUP3 PUSH2 0x1FB DUP4 CODECOPY PUSH1 0x80 MLOAD DUP3 PUSH2 0x11F2 ADD MSTORE PUSH1 0xA0 MLOAD DUP3 DUP2 DUP2 PUSH2 0xB38 ADD MSTORE DUP2 DUP2 PUSH2 0xFC9 ADD MSTORE PUSH2 0x1052 ADD MSTORE PUSH1 0xC0 MLOAD DUP3 DUP2 DUP2 PUSH2 0x5B5 ADD MSTORE DUP2 DUP2 PUSH2 0x62A ADD MSTORE PUSH2 0x10F2 ADD MSTORE PUSH1 0xE0 MLOAD DUP3 DUP2 DUP2 PUSH1 0xBA ADD MSTORE PUSH2 0xC5B ADD MSTORE MLOAD DUP2 DUP2 DUP2 PUSH2 0x429 ADD MSTORE DUP2 DUP2 PUSH2 0x48C ADD MSTORE DUP2 DUP2 PUSH2 0x4EA ADD MSTORE DUP2 DUP2 PUSH2 0x52B ADD MSTORE DUP2 DUP2 PUSH2 0x740 ADD MSTORE DUP2 DUP2 PUSH2 0x7A3 ADD MSTORE DUP2 DUP2 PUSH2 0x801 ADD MSTORE DUP2 DUP2 PUSH2 0x843 ADD MSTORE PUSH2 0xC96 ADD MSTORE RETURN JUMPDEST SWAP1 DUP1 SWAP3 SWAP5 POP DUP2 RETURNDATASIZE DUP4 GT PUSH2 0x16D JUMPI JUMPDEST PUSH2 0x14F DUP2 DUP4 PUSH2 0x1C3 JUMP JUMPDEST DUP2 ADD SUB SLT PUSH2 0x169 JUMPI MLOAD DUP3 DUP2 AND DUP2 SUB PUSH2 0x169 JUMPI SWAP2 PUSH0 DUP1 PUSH2 0x9C JUMP JUMPDEST PUSH0 DUP1 REVERT JUMPDEST POP RETURNDATASIZE PUSH2 0x145 JUMP JUMPDEST DUP4 MLOAD RETURNDATASIZE PUSH0 DUP3 RETURNDATACOPY RETURNDATASIZE SWAP1 REVERT JUMPDEST DUP4 DUP2 SWAP4 SWAP5 SWAP3 POP RETURNDATASIZE DUP4 GT PUSH2 0x1B2 JUMPI JUMPDEST PUSH2 0x196 DUP2 DUP4 PUSH2 0x1C3 JUMP JUMPDEST DUP2 ADD SUB SLT PUSH2 0x169 JUMPI MLOAD SWAP1 DUP4 DUP3 AND DUP3 SUB PUSH2 0x169 JUMPI DUP6 SWAP2 PUSH1 0x4 PUSH2 0x71 JUMP JUMPDEST POP RETURNDATASIZE PUSH2 0x18C JUMP JUMPDEST DUP6 MLOAD RETURNDATASIZE PUSH0 DUP3 RETURNDATACOPY RETURNDATASIZE SWAP1 REVERT JUMPDEST PUSH1 0x1F SWAP1 SWAP2 ADD PUSH1 0x1F NOT AND DUP2 ADD SWAP1 PUSH1 0x1 PUSH1 0x1 PUSH1 0x40 SHL SUB DUP3 GT SWAP1 DUP3 LT OR PUSH2 0x1E6 JUMPI PUSH1 0x40 MSTORE JUMP JUMPDEST PUSH4 0x4E487B71 PUSH1 0xE0 SHL PUSH0 MSTORE PUSH1 0x41 PUSH1 0x4 MSTORE PUSH1 0x24 PUSH0 REVERT INVALID PUSH1 0x80 DUP1 PUSH1 0x40 MSTORE PUSH1 0x4 CALLDATASIZE LT ISZERO PUSH2 0x12 JUMPI PUSH0 DUP1 REVERT JUMPDEST PUSH0 SWAP1 PUSH0 CALLDATALOAD DUP1 PUSH1 0xE0 SHR SWAP2 DUP3 PUSH4 0x51DA116D EQ PUSH2 0x1116 JUMPI POP DUP2 PUSH4 0x7EA3A964 EQ PUSH2 0x10C6 JUMPI DUP2 PUSH4 0x851C1BB3 EQ PUSH2 0x1076 JUMPI DUP2 PUSH4 0x8D928AF8 EQ PUSH2 0x1026 JUMPI DUP2 PUSH4 0xAAABADC5 EQ PUSH2 0xF76 JUMPI DUP2 PUSH4 0xB78B6087 EQ PUSH2 0xAB3 JUMPI POP DUP1 PUSH4 0xB8350E27 EQ PUSH2 0x167 JUMPI DUP1 PUSH4 0xBBA1AF47 EQ PUSH2 0x106 JUMPI DUP1 PUSH4 0xD7128084 EQ PUSH2 0xE1 JUMPI PUSH4 0xFBFA77CF EQ PUSH2 0x8E JUMPI PUSH0 DUP1 REVERT JUMPDEST CALLVALUE PUSH2 0xDE JUMPI DUP1 PUSH1 0x3 NOT CALLDATASIZE ADD SLT PUSH2 0xDE JUMPI PUSH1 0x20 PUSH1 0x40 MLOAD PUSH20 0xFFFFFFFFFFFFFFFFFFFFFFFFFFFFFFFFFFFFFFFF PUSH32 0x0 AND DUP2 MSTORE RETURN JUMPDEST DUP1 REVERT JUMPDEST POP CALLVALUE PUSH2 0xDE JUMPI DUP1 PUSH1 0x3 NOT CALLDATASIZE ADD SLT PUSH2 0xDE JUMPI PUSH1 0xFF PUSH1 0x20 SWAP2 SLOAD PUSH1 0xA0 SHR AND PUSH1 0x40 MLOAD SWAP1 ISZERO ISZERO DUP2 MSTORE RETURN JUMPDEST POP CALLVALUE PUSH2 0xDE JUMPI PUSH1 0x20 PUSH1 0x3 NOT CALLDATASIZE ADD SLT PUSH2 0xDE JUMPI PUSH1 0x4 CALLDATALOAD PUSH20 0xFFFFFFFFFFFFFFFFFFFFFFFFFFFFFFFFFFFFFFFF DUP2 AND DUP1 SWAP2 SUB PUSH2 0x163 JUMPI PUSH32 0xFFFFFFFFFFFFFFFFFFFFFFFF0000000000000000000000000000000000000000 DUP3 SLOAD AND OR DUP2 SSTORE DUP1 RETURN JUMPDEST POP DUP1 REVERT JUMPDEST POP CALLVALUE PUSH2 0xDE JUMPI PUSH1 0x20 PUSH1 0x3 NOT CALLDATASIZE ADD SLT PUSH2 0xDE JUMPI PUSH8 0xFFFFFFFFFFFFFFFF PUSH1 0x4 CALLDATALOAD DUP2 DUP2 GT PUSH2 0x8A4 JUMPI CALLDATASIZE PUSH1 0x23 DUP3 ADD SLT ISZERO PUSH2 0x8A4 JUMPI DUP1 PUSH1 0x4 ADD CALLDATALOAD SWAP2 DUP3 GT PUSH2 0xA86 JUMPI DUP2 PUSH1 0x5 SHL SWAP1 PUSH1 0x40 MLOAD SWAP3 PUSH2 0x1B9 PUSH1 0x20 DUP5 ADD DUP6 PUSH2 0x1186 JUMP JUMPDEST DUP4 MSTORE PUSH1 0x24 PUSH1 0x20 DUP5 ADD SWAP3 DUP3 ADD ADD SWAP1 CALLDATASIZE DUP3 GT PUSH2 0x8DB JUMPI PUSH1 0x24 ADD SWAP2 JUMPDEST DUP2 DUP4 LT PUSH2 0xA59 JUMPI POP POP POP PUSH32 0x9B779B17422D0DF92223018B32B4D1FA46E071723D6817E2486D003BECC55F00 TLOAD PUSH2 0xA31 JUMPI PUSH1 0x1 PUSH32 0x9B779B17422D0DF92223018B32B4D1FA46E071723D6817E2486D003BECC55F00 TSTORE DUP2 SLOAD PUSH1 0xFF DUP2 PUSH1 0xA0 SHR AND PUSH2 0xA09 JUMPI DUP1 PUSH1 0xFF DUP5 SWAP3 PUSH1 0xA8 SHR AND ISZERO PUSH2 0x314 JUMPI JUMPDEST POP DUP1 JUMPDEST DUP3 MLOAD DUP2 LT ISZERO PUSH2 0x2ED JUMPI PUSH20 0xFFFFFFFFFFFFFFFFFFFFFFFFFFFFFFFFFFFFFFFF DUP1 DUP4 SLOAD AND SWAP1 PUSH1 0x20 DUP4 PUSH1 0x5 SHL DUP7 ADD ADD MLOAD AND DUP2 EXTCODESIZE ISZERO PUSH2 0x2E9 JUMPI DUP4 SWAP2 PUSH1 0x24 DUP4 SWAP3 PUSH1 0x40 MLOAD SWAP5 DUP6 SWAP4 DUP5 SWAP3 PUSH32 0x874327F00000000000000000000000000000000000000000000000000000000 DUP5 MSTORE PUSH1 0x4 DUP5 ADD MSTORE GAS CALL SWAP1 DUP2 ISZERO PUSH2 0x2DE JUMPI DUP4 SWAP2 PUSH2 0x2CA JUMPI JUMPDEST POP POP PUSH1 0x1 ADD PUSH2 0x245 JUMP JUMPDEST PUSH2 0x2D3 SWAP1 PUSH2 0x1145 JUMP JUMPDEST PUSH2 0x163 JUMPI DUP2 PUSH0 PUSH2 0x2C0 JUMP JUMPDEST PUSH1 0x40 MLOAD RETURNDATASIZE DUP6 DUP3 RETURNDATACOPY RETURNDATASIZE SWAP1 REVERT JUMPDEST DUP4 DUP1 REVERT JUMPDEST POP DUP1 PUSH32 0x9B779B17422D0DF92223018B32B4D1FA46E071723D6817E2486D003BECC55F00 TSTORE DUP1 RETURN JUMPDEST DUP1 PUSH22 0x1000000000000000000000000000000000000000000 PUSH32 0xFFFFFFFFFFFFFFFFFFFF00FFFFFFFFFFFFFFFFFFFFFFFFFFFFFFFFFFFFFFFFFF PUSH20 0xFFFFFFFFFFFFFFFFFFFFFFFFFFFFFFFFFFFFFFFF SWAP4 AND OR DUP4 SSTORE AND PUSH1 0x40 MLOAD PUSH32 0x851C1BB300000000000000000000000000000000000000000000000000000000 DUP1 DUP3 MSTORE PUSH32 0x8A3C5C6900000000000000000000000000000000000000000000000000000000 PUSH1 0x4 DUP4 ADD MSTORE PUSH1 0x20 DUP3 PUSH1 0x24 DUP2 DUP7 GAS STATICCALL SWAP2 DUP3 ISZERO PUSH2 0x8BC JUMPI DUP5 SWAP3 PUSH2 0x9D1 JUMPI JUMPDEST POP PUSH1 0x20 SWAP1 PUSH1 0x24 PUSH1 0x40 MLOAD DUP1 SWAP6 DUP2 SWAP4 DUP3 MSTORE PUSH32 0xA93DF2A400000000000000000000000000000000000000000000000000000000 PUSH1 0x4 DUP4 ADD MSTORE GAS STATICCALL SWAP2 DUP3 ISZERO PUSH2 0x2DE JUMPI DUP4 SWAP3 PUSH2 0x99A JUMPI JUMPDEST POP PUSH20 0xFFFFFFFFFFFFFFFFFFFFFFFFFFFFFFFFFFFFFFFF PUSH32 0x0 AND EXTCODESIZE ISZERO PUSH2 0x8A4 JUMPI PUSH1 0x40 MLOAD PUSH32 0x2F2FF15D00000000000000000000000000000000000000000000000000000000 DUP1 DUP3 MSTORE PUSH1 0x4 DUP3 ADD DUP4 SWAP1 MSTORE ADDRESS PUSH1 0x24 DUP4 ADD MSTORE SWAP1 DUP5 DUP2 PUSH1 0x44 DUP2 DUP4 PUSH32 0x0 PUSH20 0xFFFFFFFFFFFFFFFFFFFFFFFFFFFFFFFFFFFFFFFF AND GAS CALL SWAP1 DUP2 ISZERO PUSH2 0x8F3 JUMPI DUP6 SWAP2 PUSH2 0x986 JUMPI JUMPDEST POP POP PUSH20 0xFFFFFFFFFFFFFFFFFFFFFFFFFFFFFFFFFFFFFFFF PUSH32 0x0 AND EXTCODESIZE ISZERO PUSH2 0x2E9 JUMPI PUSH1 0x40 MLOAD SWAP1 DUP2 MSTORE PUSH1 0x4 DUP2 ADD DUP4 SWAP1 MSTORE ADDRESS PUSH1 0x24 DUP3 ADD MSTORE DUP4 DUP2 PUSH1 0x44 DUP2 DUP4 PUSH32 0x0 PUSH20 0xFFFFFFFFFFFFFFFFFFFFFFFFFFFFFFFFFFFFFFFF AND GAS CALL SWAP1 DUP2 ISZERO PUSH2 0x8BC JUMPI DUP5 SWAP2 PUSH2 0x972 JUMPI JUMPDEST POP POP PUSH1 0x40 MLOAD PUSH32 0x7869EE1800000000000000000000000000000000000000000000000000000000 DUP2 MSTORE PUSH1 0x20 DUP2 PUSH1 0x4 DUP2 PUSH20 0xFFFFFFFFFFFFFFFFFFFFFFFFFFFFFFFFFFFFFFFF PUSH32 0x0 AND GAS STATICCALL SWAP1 DUP2 ISZERO PUSH2 0x8BC JUMPI DUP5 SWAP2 PUSH2 0x93D JUMPI JUMPDEST POP PUSH1 0x40 MLOAD SWAP1 PUSH32 0x55FB76AF00000000000000000000000000000000000000000000000000000000 DUP3 MSTORE PUSH1 0x20 DUP3 PUSH1 0x4 DUP2 PUSH20 0xFFFFFFFFFFFFFFFFFFFFFFFFFFFFFFFFFFFFFFFF PUSH32 0x0 AND GAS STATICCALL SWAP2 DUP3 ISZERO PUSH2 0x8F3 JUMPI DUP6 SWAP3 PUSH2 0x902 JUMPI JUMPDEST POP PUSH20 0xFFFFFFFFFFFFFFFFFFFFFFFFFFFFFFFFFFFFFFFF DUP6 SLOAD AND SWAP1 DUP2 EXTCODESIZE ISZERO PUSH2 0x8FE JUMPI DUP6 SWAP2 PUSH1 0x24 DUP4 SWAP3 PUSH1 0x40 MLOAD SWAP5 DUP6 SWAP4 DUP5 SWAP3 PUSH32 0x8A3C5C6900000000000000000000000000000000000000000000000000000000 DUP5 MSTORE PUSH1 0x4 DUP5 ADD MSTORE GAS CALL SWAP1 DUP2 ISZERO PUSH2 0x8F3 JUMPI DUP6 SWAP2 PUSH2 0x8DF JUMPI JUMPDEST POP SLOAD PUSH20 0xFFFFFFFFFFFFFFFFFFFFFFFFFFFFFFFFFFFFFFFF AND SWAP1 DUP2 EXTCODESIZE ISZERO PUSH2 0x8DB JUMPI DUP5 SWAP2 PUSH1 0x24 DUP4 SWAP3 PUSH1 0x40 MLOAD SWAP5 DUP6 SWAP4 DUP5 SWAP3 PUSH32 0xA93DF2A400000000000000000000000000000000000000000000000000000000 DUP5 MSTORE PUSH1 0x4 DUP5 ADD MSTORE GAS CALL SWAP1 DUP2 ISZERO PUSH2 0x8BC JUMPI DUP5 SWAP2 PUSH2 0x8C7 JUMPI JUMPDEST POP POP PUSH20 0xFFFFFFFFFFFFFFFFFFFFFFFFFFFFFFFFFFFFFFFF PUSH32 0x0 AND EXTCODESIZE ISZERO PUSH2 0x8A4 JUMPI PUSH1 0x40 MLOAD PUSH32 0x36568ABE00000000000000000000000000000000000000000000000000000000 DUP1 DUP3 MSTORE PUSH1 0x4 DUP3 ADD SWAP3 SWAP1 SWAP3 MSTORE ADDRESS PUSH1 0x24 DUP3 ADD MSTORE DUP4 DUP2 PUSH1 0x44 DUP2 DUP4 PUSH32 0x0 PUSH20 0xFFFFFFFFFFFFFFFFFFFFFFFFFFFFFFFFFFFFFFFF AND GAS CALL SWAP1 DUP2 ISZERO PUSH2 0x8BC JUMPI DUP5 SWAP2 PUSH2 0x8A8 JUMPI JUMPDEST POP POP PUSH20 0xFFFFFFFFFFFFFFFFFFFFFFFFFFFFFFFFFFFFFFFF PUSH32 0x0 AND EXTCODESIZE ISZERO PUSH2 0x8A4 JUMPI PUSH1 0x40 MLOAD SWAP1 DUP2 MSTORE PUSH1 0x4 DUP2 ADD SWAP2 SWAP1 SWAP2 MSTORE ADDRESS PUSH1 0x24 DUP3 ADD MSTORE DUP2 DUP2 PUSH1 0x44 DUP2 DUP4 PUSH32 0x0 PUSH20 0xFFFFFFFFFFFFFFFFFFFFFFFFFFFFFFFFFFFFFFFF AND GAS CALL DUP1 ISZERO PUSH2 0x899 JUMPI ISZERO PUSH2 0x242 JUMPI PUSH2 0x88E SWAP1 PUSH2 0x1145 JUMP JUMPDEST PUSH2 0x163 JUMPI DUP2 PUSH0 PUSH2 0x242 JUMP JUMPDEST PUSH1 0x40 MLOAD RETURNDATASIZE DUP5 DUP3 RETURNDATACOPY RETURNDATASIZE SWAP1 REVERT JUMPDEST DUP3 DUP1 REVERT JUMPDEST PUSH2 0x8B1 SWAP1 PUSH2 0x1145 JUMP JUMPDEST PUSH2 0x8A4 JUMPI DUP3 PUSH0 PUSH2 0x7E8 JUMP JUMPDEST PUSH1 0x40 MLOAD RETURNDATASIZE DUP7 DUP3 RETURNDATACOPY RETURNDATASIZE SWAP1 REVERT JUMPDEST PUSH2 0x8D0 SWAP1 PUSH2 0x1145 JUMP JUMPDEST PUSH2 0x8A4 JUMPI DUP3 PUSH0 PUSH2 0x727 JUMP JUMPDEST DUP5 DUP1 REVERT JUMPDEST PUSH2 0x8E8 SWAP1 PUSH2 0x1145 JUMP JUMPDEST PUSH2 0x2E9 JUMPI DUP4 PUSH0 PUSH2 0x6C1 JUMP JUMPDEST PUSH1 0x40 MLOAD RETURNDATASIZE DUP8 DUP3 RETURNDATACOPY RETURNDATASIZE SWAP1 REVERT JUMPDEST DUP6 DUP1 REVERT JUMPDEST SWAP5 POP SWAP1 POP PUSH1 0x20 DUP5 RETURNDATASIZE PUSH1 0x20 GT PUSH2 0x935 JUMPI JUMPDEST DUP2 PUSH2 0x91F PUSH1 0x20 SWAP4 DUP4 PUSH2 0x1186 JUMP JUMPDEST DUP2 ADD SUB SLT PUSH2 0x931 JUMPI DUP6 SWAP4 MLOAD SWAP1 PUSH0 PUSH2 0x65A JUMP JUMPDEST PUSH0 DUP1 REVERT JUMPDEST RETURNDATASIZE SWAP2 POP PUSH2 0x912 JUMP JUMPDEST SWAP4 POP POP PUSH1 0x20 DUP4 RETURNDATASIZE PUSH1 0x20 GT PUSH2 0x96A JUMPI JUMPDEST DUP2 PUSH2 0x959 PUSH1 0x20 SWAP4 DUP4 PUSH2 0x1186 JUMP JUMPDEST DUP2 ADD SUB SLT PUSH2 0x931 JUMPI DUP5 SWAP3 MLOAD PUSH0 PUSH2 0x5E5 JUMP JUMPDEST RETURNDATASIZE SWAP2 POP PUSH2 0x94C JUMP JUMPDEST PUSH2 0x97B SWAP1 PUSH2 0x1145 JUMP JUMPDEST PUSH2 0x8A4 JUMPI DUP3 PUSH0 PUSH2 0x570 JUMP JUMPDEST PUSH2 0x98F SWAP1 PUSH2 0x1145 JUMP JUMPDEST PUSH2 0x2E9 JUMPI DUP4 PUSH0 PUSH2 0x4D1 JUMP JUMPDEST SWAP3 POP SWAP1 POP PUSH1 0x20 DUP3 RETURNDATASIZE PUSH1 0x20 GT PUSH2 0x9C9 JUMPI JUMPDEST DUP2 PUSH2 0x9B7 PUSH1 0x20 SWAP4 DUP4 PUSH2 0x1186 JUMP JUMPDEST DUP2 ADD SUB SLT PUSH2 0x931 JUMPI DUP4 SWAP2 MLOAD SWAP1 PUSH0 PUSH2 0x411 JUMP JUMPDEST RETURNDATASIZE SWAP2 POP PUSH2 0x9AA JUMP JUMPDEST SWAP4 POP SWAP1 POP PUSH1 0x20 DUP4 RETURNDATASIZE PUSH1 0x20 GT PUSH2 0xA01 JUMPI JUMPDEST DUP2 PUSH2 0x9EE PUSH1 0x20 SWAP4 DUP4 PUSH2 0x1186 JUMP JUMPDEST DUP2 ADD SUB SLT PUSH2 0x931 JUMPI SWAP2 MLOAD DUP5 SWAP3 PUSH1 0x20 PUSH2 0x3CC JUMP JUMPDEST RETURNDATASIZE SWAP2 POP PUSH2 0x9E1 JUMP JUMPDEST PUSH1 0x4 DUP4 PUSH32 0xCA1C3CBC00000000000000000000000000000000000000000000000000000000 DUP2 MSTORE REVERT JUMPDEST PUSH1 0x4 DUP3 PUSH32 0x3EE5AEB500000000000000000000000000000000000000000000000000000000 DUP2 MSTORE REVERT JUMPDEST DUP3 CALLDATALOAD PUSH20 0xFFFFFFFFFFFFFFFFFFFFFFFFFFFFFFFFFFFFFFFF DUP2 AND DUP2 SUB PUSH2 0x8FE JUMPI DUP2 MSTORE PUSH1 0x20 SWAP3 DUP4 ADD SWAP3 ADD PUSH2 0x1D2 JUMP JUMPDEST PUSH1 0x24 DUP4 PUSH32 0x4E487B7100000000000000000000000000000000000000000000000000000000 DUP2 MSTORE PUSH1 0x41 PUSH1 0x4 MSTORE REVERT JUMPDEST SWAP1 POP CALLVALUE PUSH2 0x931 JUMPI PUSH0 PUSH1 0x3 NOT CALLDATASIZE ADD SLT PUSH2 0x931 JUMPI PUSH32 0xFFFFFFFF00000000000000000000000000000000000000000000000000000000 PUSH2 0xAF0 SWAP2 AND PUSH2 0x11C7 JUMP JUMPDEST SWAP1 PUSH20 0xFFFFFFFFFFFFFFFFFFFFFFFFFFFFFFFFFFFFFFFF PUSH1 0x40 MLOAD SWAP3 PUSH32 0xAAABADC500000000000000000000000000000000000000000000000000000000 DUP5 MSTORE PUSH1 0x20 SWAP4 DUP5 DUP2 PUSH1 0x4 DUP2 DUP7 PUSH32 0x0 AND GAS STATICCALL DUP1 ISZERO PUSH2 0xE84 JUMPI DUP4 SWAP3 DUP7 SWAP3 PUSH0 SWAP3 PUSH2 0xF44 JUMPI JUMPDEST POP PUSH1 0x64 SWAP1 PUSH1 0x40 MLOAD SWAP5 DUP6 SWAP4 DUP5 SWAP3 PUSH32 0x9BE2A88400000000000000000000000000000000000000000000000000000000 DUP5 MSTORE PUSH1 0x4 DUP5 ADD MSTORE CALLER PUSH1 0x24 DUP5 ADD MSTORE ADDRESS PUSH1 0x44 DUP5 ADD MSTORE AND GAS STATICCALL SWAP1 DUP2 ISZERO PUSH2 0xE84 JUMPI PUSH0 SWAP2 PUSH2 0xF0E JUMPI JUMPDEST POP ISZERO PUSH2 0xEE6 JUMPI PUSH0 SLOAD PUSH1 0xFF DUP2 PUSH1 0xA0 SHR AND PUSH2 0xEBE JUMPI PUSH32 0xFFFFFFFFFFFFFFFFFFFFFF00FFFFFFFFFFFFFFFFFFFFFFFFFFFFFFFFFFFFFFFF AND PUSH21 0x10000000000000000000000000000000000000000 OR PUSH0 SSTORE PUSH1 0x40 MLOAD PUSH32 0x851C1BB300000000000000000000000000000000000000000000000000000000 DUP2 MSTORE PUSH32 0x2D77138900000000000000000000000000000000000000000000000000000000 PUSH1 0x4 DUP3 ADD DUP2 SWAP1 MSTORE SWAP4 PUSH32 0x0 DUP4 AND DUP2 DUP4 PUSH1 0x24 DUP2 DUP5 GAS STATICCALL SWAP3 DUP4 ISZERO PUSH2 0xE84 JUMPI PUSH0 SWAP4 PUSH2 0xE8F JUMPI JUMPDEST POP DUP4 PUSH32 0x0 AND SWAP4 DUP5 EXTCODESIZE ISZERO PUSH2 0x931 JUMPI PUSH1 0x40 MLOAD PUSH32 0x2F2FF15D00000000000000000000000000000000000000000000000000000000 DUP2 MSTORE PUSH1 0x4 DUP2 ADD DUP6 SWAP1 MSTORE ADDRESS PUSH1 0x24 DUP3 ADD MSTORE PUSH0 DUP2 PUSH1 0x44 DUP2 DUP4 DUP11 GAS CALL DUP1 ISZERO PUSH2 0xE84 JUMPI PUSH2 0xE71 JUMPI JUMPDEST POP SWAP6 DUP6 SWAP7 DUP7 SLOAD AND DUP3 EXTCODESIZE ISZERO PUSH2 0xE6D JUMPI PUSH1 0x24 DUP8 SWAP3 DUP4 PUSH1 0x40 MLOAD SWAP6 DUP7 SWAP5 DUP6 SWAP4 DUP5 MSTORE PUSH1 0x4 DUP5 ADD MSTORE GAS CALL SWAP1 DUP2 ISZERO PUSH2 0x8F3 JUMPI DUP6 SWAP2 PUSH2 0xE59 JUMPI JUMPDEST POP POP DUP3 EXTCODESIZE ISZERO PUSH2 0xE0F JUMPI PUSH1 0x40 MLOAD PUSH32 0x36568ABE00000000000000000000000000000000000000000000000000000000 DUP1 DUP3 MSTORE PUSH1 0x4 DUP3 ADD SWAP4 SWAP1 SWAP4 MSTORE ADDRESS PUSH1 0x24 DUP3 ADD MSTORE DUP5 DUP2 PUSH1 0x44 DUP2 DUP4 DUP9 GAS CALL SWAP1 DUP2 ISZERO PUSH2 0x8F3 JUMPI DUP6 SWAP2 PUSH2 0xE45 JUMPI JUMPDEST POP POP PUSH1 0x40 MLOAD PUSH32 0xA217FDDF00000000000000000000000000000000000000000000000000000000 DUP2 MSTORE DUP2 DUP2 PUSH1 0x4 DUP2 DUP8 GAS STATICCALL SWAP2 DUP3 ISZERO PUSH2 0x8F3 JUMPI DUP6 SWAP3 PUSH2 0xE14 JUMPI JUMPDEST POP POP DUP3 EXTCODESIZE ISZERO PUSH2 0xE0F JUMPI PUSH1 0x40 MLOAD SWAP2 DUP3 MSTORE PUSH1 0x4 DUP3 ADD MSTORE ADDRESS PUSH1 0x24 DUP3 ADD MSTORE SWAP1 DUP3 SWAP1 DUP3 SWAP1 PUSH1 0x44 SWAP1 DUP3 SWAP1 DUP5 SWAP1 GAS CALL DUP1 ISZERO PUSH2 0x899 JUMPI PUSH2 0xDFF JUMPI POP RETURN JUMPDEST PUSH2 0xE08 SWAP1 PUSH2 0x1145 JUMP JUMPDEST PUSH2 0xDE JUMPI DUP1 RETURN JUMPDEST POP POP POP REVERT JUMPDEST DUP2 SWAP6 POP DUP1 SWAP3 POP RETURNDATASIZE DUP4 GT PUSH2 0xE3E JUMPI JUMPDEST PUSH2 0xE2C DUP2 DUP4 PUSH2 0x1186 JUMP JUMPDEST DUP2 ADD SUB SLT PUSH2 0x931 JUMPI DUP4 SWAP3 MLOAD PUSH0 DUP1 PUSH2 0xDCA JUMP JUMPDEST POP RETURNDATASIZE PUSH2 0xE22 JUMP JUMPDEST PUSH2 0xE4E SWAP1 PUSH2 0x1145 JUMP JUMPDEST PUSH2 0xE0F JUMPI DUP4 PUSH0 PUSH2 0xD8C JUMP JUMPDEST PUSH2 0xE62 SWAP1 PUSH2 0x1145 JUMP JUMPDEST PUSH2 0xE0F JUMPI DUP4 PUSH0 PUSH2 0xD37 JUMP JUMPDEST DUP7 DUP1 REVERT JUMPDEST PUSH2 0xE7C SWAP2 SWAP7 POP PUSH2 0x1145 JUMP JUMPDEST PUSH0 SWAP5 PUSH0 PUSH2 0xD05 JUMP JUMPDEST PUSH1 0x40 MLOAD RETURNDATASIZE PUSH0 DUP3 RETURNDATACOPY RETURNDATASIZE SWAP1 REVERT JUMPDEST SWAP1 SWAP3 POP DUP2 DUP2 DUP2 RETURNDATASIZE DUP4 GT PUSH2 0xEB7 JUMPI JUMPDEST PUSH2 0xEA7 DUP2 DUP4 PUSH2 0x1186 JUMP JUMPDEST DUP2 ADD SUB SLT PUSH2 0x931 JUMPI MLOAD SWAP2 PUSH0 PUSH2 0xC92 JUMP JUMPDEST POP RETURNDATASIZE PUSH2 0xE9D JUMP JUMPDEST PUSH32 0xCA1C3CBC00000000000000000000000000000000000000000000000000000000 PUSH0 MSTORE PUSH1 0x4 PUSH0 REVERT JUMPDEST PUSH32 0x23DADA5300000000000000000000000000000000000000000000000000000000 PUSH0 MSTORE PUSH1 0x4 PUSH0 REVERT JUMPDEST SWAP1 POP DUP4 DUP2 DUP2 RETURNDATASIZE DUP4 GT PUSH2 0xF3D JUMPI JUMPDEST PUSH2 0xF25 DUP2 DUP4 PUSH2 0x1186 JUMP JUMPDEST DUP2 ADD SUB SLT PUSH2 0x931 JUMPI MLOAD DUP1 ISZERO ISZERO DUP2 SUB PUSH2 0x931 JUMPI PUSH0 PUSH2 0xBBC JUMP JUMPDEST POP RETURNDATASIZE PUSH2 0xF1B JUMP JUMPDEST PUSH1 0x64 SWAP2 SWAP3 POP PUSH2 0xF68 SWAP1 DUP5 RETURNDATASIZE DUP7 GT PUSH2 0xF6F JUMPI JUMPDEST PUSH2 0xF60 DUP2 DUP4 PUSH2 0x1186 JUMP JUMPDEST DUP2 ADD SWAP1 PUSH2 0x123D JUMP JUMPDEST SWAP2 SWAP1 PUSH2 0xB6B JUMP JUMPDEST POP RETURNDATASIZE PUSH2 0xF56 JUMP JUMPDEST CALLVALUE PUSH2 0x931 JUMPI PUSH0 PUSH1 0x3 NOT CALLDATASIZE ADD SLT PUSH2 0x931 JUMPI PUSH1 0x40 MLOAD PUSH32 0xAAABADC500000000000000000000000000000000000000000000000000000000 DUP2 MSTORE PUSH20 0xFFFFFFFFFFFFFFFFFFFFFFFFFFFFFFFFFFFFFFFF PUSH1 0x20 DUP3 PUSH1 0x4 DUP2 PUSH32 0x0 DUP6 AND GAS STATICCALL SWAP1 DUP2 ISZERO PUSH2 0xE84 JUMPI PUSH1 0x20 SWAP3 PUSH0 SWAP3 PUSH2 0x1007 JUMPI JUMPDEST POP PUSH1 0x40 MLOAD SWAP2 AND DUP2 MSTORE RETURN JUMPDEST PUSH2 0x101F SWAP2 SWAP3 POP DUP4 RETURNDATASIZE DUP6 GT PUSH2 0xF6F JUMPI PUSH2 0xF60 DUP2 DUP4 PUSH2 0x1186 JUMP JUMPDEST SWAP1 DUP4 PUSH2 0xFFD JUMP JUMPDEST CALLVALUE PUSH2 0x931 JUMPI PUSH0 PUSH1 0x3 NOT CALLDATASIZE ADD SLT PUSH2 0x931 JUMPI PUSH1 0x20 PUSH1 0x40 MLOAD PUSH20 0xFFFFFFFFFFFFFFFFFFFFFFFFFFFFFFFFFFFFFFFF PUSH32 0x0 AND DUP2 MSTORE RETURN JUMPDEST CALLVALUE PUSH2 0x931 JUMPI PUSH1 0x20 PUSH1 0x3 NOT CALLDATASIZE ADD SLT PUSH2 0x931 JUMPI PUSH1 0x4 CALLDATALOAD PUSH32 0xFFFFFFFF00000000000000000000000000000000000000000000000000000000 DUP2 AND DUP2 SUB PUSH2 0x931 JUMPI PUSH2 0x10BE PUSH1 0x20 SWAP2 PUSH2 0x11C7 JUMP JUMPDEST PUSH1 0x40 MLOAD SWAP1 DUP2 MSTORE RETURN JUMPDEST CALLVALUE PUSH2 0x931 JUMPI PUSH0 PUSH1 0x3 NOT CALLDATASIZE ADD SLT PUSH2 0x931 JUMPI PUSH1 0x20 PUSH1 0x40 MLOAD PUSH20 0xFFFFFFFFFFFFFFFFFFFFFFFFFFFFFFFFFFFFFFFF PUSH32 0x0 AND DUP2 MSTORE RETURN JUMPDEST CALLVALUE PUSH2 0x931 JUMPI PUSH0 PUSH1 0x3 NOT CALLDATASIZE ADD SLT PUSH2 0x931 JUMPI PUSH1 0x20 SWAP1 PUSH20 0xFFFFFFFFFFFFFFFFFFFFFFFFFFFFFFFFFFFFFFFF PUSH0 SLOAD AND DUP2 MSTORE RETURN JUMPDEST PUSH8 0xFFFFFFFFFFFFFFFF DUP2 GT PUSH2 0x1159 JUMPI PUSH1 0x40 MSTORE JUMP JUMPDEST PUSH32 0x4E487B7100000000000000000000000000000000000000000000000000000000 PUSH0 MSTORE PUSH1 0x41 PUSH1 0x4 MSTORE PUSH1 0x24 PUSH0 REVERT JUMPDEST SWAP1 PUSH1 0x1F PUSH32 0xFFFFFFFFFFFFFFFFFFFFFFFFFFFFFFFFFFFFFFFFFFFFFFFFFFFFFFFFFFFFFFE0 SWAP2 ADD AND DUP2 ADD SWAP1 DUP2 LT PUSH8 0xFFFFFFFFFFFFFFFF DUP3 GT OR PUSH2 0x1159 JUMPI PUSH1 0x40 MSTORE JUMP JUMPDEST PUSH1 0x40 MLOAD PUSH32 0xFFFFFFFF00000000000000000000000000000000000000000000000000000000 PUSH1 0x20 DUP3 ADD SWAP3 PUSH32 0x0 DUP5 MSTORE AND PUSH1 0x40 DUP3 ADD MSTORE PUSH1 0x24 DUP2 MSTORE PUSH1 0x60 DUP2 ADD DUP2 DUP2 LT PUSH8 0xFFFFFFFFFFFFFFFF DUP3 GT OR PUSH2 0x1159 JUMPI PUSH1 0x40 MSTORE MLOAD SWAP1 KECCAK256 SWAP1 JUMP JUMPDEST SWAP1 DUP2 PUSH1 0x20 SWAP2 SUB SLT PUSH2 0x931 JUMPI MLOAD PUSH20 0xFFFFFFFFFFFFFFFFFFFFFFFFFFFFFFFFFFFFFFFF DUP2 AND DUP2 SUB PUSH2 0x931 JUMPI SWAP1 JUMP INVALID LOG2 PUSH5 0x6970667358 0x22 SLT KECCAK256 0xAF SWAP16 CREATE DUP4 LOG2 DUP14 PUSH8 0xED36B023F4CA0B05 0xEA CALLER 0xE3 0xE5 0xDC BLOCKHASH PUSH29 0x20A91F546C2D81AAA95764736F6C634300081B00330000000000000000 "},"methodIdentifiers":{"finalizeMigration()":"b78b6087","getActionId(bytes4)":"851c1bb3","getAuthorizer()":"aaabadc5","getVault()":"8d928af8","isMigrationComplete()":"d7128084","migratePools(address[])":"b8350e27","newFeeController()":"51da116d","oldFeeController()":"7ea3a964","setNewFeeController(address)":"bba1af47","vault()":"fbfa77cf"}}}}}