{"contracts/ProtocolFeeControllerMigrationV2.sol":{"ProtocolFeeControllerMigrationV2":{"abi":[{"inputs":[{"internalType":"contract IVault","name":"_vault","type":"address"},{"internalType":"contract IProtocolFeeController","name":"_newFeeController","type":"address"}],"stateMutability":"nonpayable","type":"constructor"},{"inputs":[],"name":"AlreadyMigrated","type":"error"},{"inputs":[],"name":"InvalidFeeController","type":"error"},{"inputs":[],"name":"ReentrancyGuardReentrantCall","type":"error"},{"inputs":[],"name":"SenderNotAllowed","type":"error"},{"inputs":[],"name":"WrongMigrationVersion","type":"error"},{"inputs":[],"name":"finalizeMigration","outputs":[],"stateMutability":"nonpayable","type":"function"},{"inputs":[{"internalType":"bytes4","name":"selector","type":"bytes4"}],"name":"getActionId","outputs":[{"internalType":"bytes32","name":"","type":"bytes32"}],"stateMutability":"view","type":"function"},{"inputs":[],"name":"getAuthorizer","outputs":[{"internalType":"contract IAuthorizer","name":"","type":"address"}],"stateMutability":"view","type":"function"},{"inputs":[],"name":"getVault","outputs":[{"internalType":"contract IVault","name":"","type":"address"}],"stateMutability":"view","type":"function"},{"inputs":[{"internalType":"address[]","name":"","type":"address[]"}],"name":"migrateFeeController","outputs":[],"stateMutability":"pure","type":"function"},{"inputs":[{"internalType":"address[]","name":"pools","type":"address[]"}],"name":"migratePools","outputs":[],"stateMutability":"nonpayable","type":"function"},{"inputs":[],"name":"newFeeController","outputs":[{"internalType":"contract IProtocolFeeController","name":"","type":"address"}],"stateMutability":"view","type":"function"},{"inputs":[],"name":"oldFeeController","outputs":[{"internalType":"contract IProtocolFeeController","name":"","type":"address"}],"stateMutability":"view","type":"function"},{"inputs":[],"name":"vault","outputs":[{"internalType":"contract IVault","name":"","type":"address"}],"stateMutability":"view","type":"function"}],"evm":{"bytecode":{"linkReferences":{},"object":"61014060408181523461020d5780826113d68038038091610020828561032d565b83398101031261020d5761003382610364565b906100416020809401610364565b815163217cb6f560e21b81526001600160a01b039491600491858716919084818581865afa908115610323575f916102ee575b50608052845163fbfa77cf60e01b81528188169085818681855afa9081156102e45784918a915f916102ab575b5016149081159161029d575b5061028f57829184918760c05260a05285519283809263aaabadc560e01b82525afa908115610285579086915f9161024b575b501660e052610100943086526101209485526024838260a0511686519283809263851c1bb360e01b8252630874327f60e01b888301525afa938415610241575f94610211575b50508260015560e0511691823b1561020d575f926044849286519586938492632f2ff15d60e01b8452878401523060248401525af18015610203576101d8575b5050519061105d9283610379843960805183818161041a0152610d61015260a05183818161018901528181610297015281816109e30152610daf015260c05183818160b201526108f1015260e051838181610365015261087101525182610f20015251818181610cc10152610fae0152f35b6001600160401b0382116101f0575081525f5f610166565b604190634e487b7160e01b5f525260245ffd5b83513d5f823e3d90fd5b5f80fd5b9080929450813d831161023a575b610229818361032d565b8101031261020d5751915f80610126565b503d61021f565b85513d5f823e3d90fd5b809250848092503d831161027e575b610264818361032d565b8101031261020d5751858116810361020d5785905f6100e0565b503d61025a565b84513d5f823e3d90fd5b8263d6f1cb0560e01b5f525ffd5b90508760805116145f6100ad565b925050508581813d83116102dd575b6102c4818361032d565b8101031261020d57886102d78592610364565b5f6100a1565b503d6102ba565b87513d5f823e3d90fd5b90508481813d831161031c575b610305818361032d565b8101031261020d5761031690610364565b5f610074565b503d6102fb565b86513d5f823e3d90fd5b601f909101601f19168101906001600160401b0382119082101761035057604052565b634e487b7160e01b5f52604160045260245ffd5b51906001600160a01b038216820361020d5756fe6080604081815260049182361015610015575f80fd5b5f925f358060e01c92836351da116d14610d85575082637ea3a96414610d35578263851c1bb314610ce55782638d928af814610c95578263aaabadc514610c5c578263b78b60871461078757508163b8350e2714610112578163c2ad0f14146100da575063fbfa77cf14610087575f80fd5b346100d657816003193601126100d6576020905173ffffffffffffffffffffffffffffffffffffffff7f0000000000000000000000000000000000000000000000000000000000000000168152f35b5080fd5b833461010f576100e936610e55565b507fc7b08f63000000000000000000000000000000000000000000000000000000008152fd5b80fd5b8383346100d65761012236610e55565b7f9b779b17422d0df92223018b32b4d1fa46e071723d6817e2486d003becc55f0091825c61075f576001946001845d845460ff811661073857908160ff88949360081c1615610253575b5085969373ffffffffffffffffffffffffffffffffffffffff90817f000000000000000000000000000000000000000000000000000000000000000016945b6101b7575b8780885d80f35b80979695975189101561024a578160208a60051b8301015116853b15610246578451907f0874327f000000000000000000000000000000000000000000000000000000008252848201528781602481838a5af1801561023c57610224575b508780999896979801986101ab565b61022e8891610dd3565b6102385789610215565b8680fd5b85513d8a823e3d90fd5b8780fd5b859697506101b0565b610100919293507fffffffffffffffffffffffffffffffffffffffffffffffffffffffffffff00ff1617855573ffffffffffffffffffffffffffffffffffffffff807f0000000000000000000000000000000000000000000000000000000000000000169083517f851c1bb300000000000000000000000000000000000000000000000000000000928382527f8a3c5c690000000000000000000000000000000000000000000000000000000080868401526020908184602481865afa93841561072e578b946106ff575b5087519586527fa93df2a4000000000000000000000000000000000000000000000000000000009081888801528287602481875afa968715610618578c976106d0575b50857f00000000000000000000000000000000000000000000000000000000000000001695863b156106225789517f2f2ff15d00000000000000000000000000000000000000000000000000000000808252818b018881523060208201529091908f90829081906040010381838d5af180156106c457908f916106b0575b5050873b156106ac578a519081528981018981523060208201528e90829081906040010381838c5af1801561065a57908e91610698575b50507f0000000000000000000000000000000000000000000000000000000000000000168951907f7869ee1800000000000000000000000000000000000000000000000000000000825284828b81845afa91821561065a578a918f91879294610666575b508c51928380927f55fb76af0000000000000000000000000000000000000000000000000000000082525afa94851561065a578e95610626575b5050843b15610622578951918252888201528b8160248183885af1801561061857908c91610604575b5050823b15610600579060248b92838a51958694859384528b8401525af180156105e2579089916105ec575b5050813b156102465784517f36568abe0000000000000000000000000000000000000000000000000000000080825285820192835230602084015291899082908190604001038183875af180156105e2579089916105ce575b5050813b15610246578451908152838101928352306020840152918791839182908490829060400103925af180156105c4578793929187916105a5575b5061016c565b6105b29192939450610dd3565b6105c057908591858861059f565b8480fd5b83513d88823e3d90fd5b6105d790610dd3565b61024657878a610562565b86513d8b823e3d90fd5b6105f590610dd3565b61024657878a610509565b8a80fd5b61060d90610dd3565b610600578a8d6104dd565b89513d8e823e3d90fd5b8c80fd5b9080929550813d8311610653575b61063e8183610e14565b8101031261064f5751928e806104b4565b5f80fd5b503d610634565b8e8c51903d90823e3d90fd5b9250925081813d8311610691575b61067e8183610e14565b8101031261064f57848a9151925f61047a565b503d610674565b6106a190610dd3565b610622578c8f610416565b8d80fd5b6106b990610dd3565b6106ac578d5f6103df565b8f8d51903d90823e3d90fd5b9096508281813d83116106f8575b6106e88183610e14565b8101031261064f5751958d610361565b503d6106de565b9093508181813d8311610727575b6107178183610e14565b8101031261064f5751928c61031e565b503d61070d565b88513d8d823e3d90fd5b50847fca1c3cbc000000000000000000000000000000000000000000000000000000008152fd5b5050507f3ee5aeb5000000000000000000000000000000000000000000000000000000008152fd5b8385913461064f575f60031936011261064f577fffffffff000000000000000000000000000000000000000000000000000000006107c59116610ef5565b9073ffffffffffffffffffffffffffffffffffffffff806107e4610f6b565b169282519384917f9be2a8840000000000000000000000000000000000000000000000000000000083528783015233602483015230604483015281606460209687935afa908115610c52575f91610c1c575b5015610bf5575f5460ff8116610bce577fffffffffffffffffffffffffffffffffffffffffffffffffffffffffffffff0060019116175f55807f0000000000000000000000000000000000000000000000000000000000000000169460015491863b1561064f5783517f36568abe00000000000000000000000000000000000000000000000000000000808252838201948552306020860152935f90829081906040010381838c5af18015610bc457610bb1575b50958686977f0000000000000000000000000000000000000000000000000000000000000000168551917f851c1bb30000000000000000000000000000000000000000000000000000000083527f2d771389000000000000000000000000000000000000000000000000000000009081868501528884602481865afa938415610ba7578a94610b75575b50843b15610b535787517f2f2ff15d0000000000000000000000000000000000000000000000000000000081528681018581523060208201528b90829081906040010381838a5af18015610b6b57908b91610b57575b5050823b15610b535760248a92838a51958694859384527f0000000000000000000000000000000000000000000000000000000000000000168a8401525af18015610b4957908891610b35575b5050813b1561023857845184815283810191825230602083015290879082908190604001038183865af18015610b1757908791610b21575b505083517fa217fddf00000000000000000000000000000000000000000000000000000000815285818481855afa958615610b17578796610ae4575b5050803b15610ae057835192835290820193845230602085015290928491849182908490829060400103925af1908115610ad75750610ac75750f35b610ad090610dd3565b61010f5780f35b513d84823e3d90fd5b8580fd5b819750809296503d8311610b10575b610afd8183610e14565b8101031261064f57859451938780610a8b565b503d610af3565b85513d89823e3d90fd5b610b2a90610dd3565b610ae0578588610a4f565b610b3e90610dd3565b610238578689610a17565b86513d8a823e3d90fd5b8980fd5b610b6090610dd3565b610b5357898c6109ca565b89513d8d823e3d90fd5b995092508789813d8111610ba0575b610b8e8183610e14565b8101031261064f57899851928b610974565b503d610b84565b88513d8c823e3d90fd5b610bbc919650610dd3565b5f94876108ea565b85513d5f823e3d90fd5b857fca1c3cbc000000000000000000000000000000000000000000000000000000005f525ffd5b847f23dada53000000000000000000000000000000000000000000000000000000005f525ffd5b90508381813d8311610c4b575b610c338183610e14565b8101031261064f5751801515810361064f5786610836565b503d610c29565b83513d5f823e3d90fd5b833461064f575f60031936011261064f5760209073ffffffffffffffffffffffffffffffffffffffff610c8d610f6b565b915191168152f35b833461064f575f60031936011261064f576020905173ffffffffffffffffffffffffffffffffffffffff7f0000000000000000000000000000000000000000000000000000000000000000168152f35b83823461064f57602060031936011261064f5735907fffffffff000000000000000000000000000000000000000000000000000000008216820361064f57610d2e602092610ef5565b9051908152f35b833461064f575f60031936011261064f576020905173ffffffffffffffffffffffffffffffffffffffff7f0000000000000000000000000000000000000000000000000000000000000000168152f35b3461064f575f60031936011261064f5760209073ffffffffffffffffffffffffffffffffffffffff7f0000000000000000000000000000000000000000000000000000000000000000168152f35b67ffffffffffffffff8111610de757604052565b7f4e487b71000000000000000000000000000000000000000000000000000000005f52604160045260245ffd5b90601f7fffffffffffffffffffffffffffffffffffffffffffffffffffffffffffffffe0910116810190811067ffffffffffffffff821117610de757604052565b60208060031983011261064f5767ffffffffffffffff9160043583811161064f578160238201121561064f578060040135938411610de7578360051b9060405194610ea36020840187610e14565b85526024602086019282010192831161064f57602401905b828210610ec9575050505090565b813573ffffffffffffffffffffffffffffffffffffffff8116810361064f578152908301908301610ebb565b6040517fffffffff0000000000000000000000000000000000000000000000000000000060208201927f00000000000000000000000000000000000000000000000000000000000000008452166040820152602481526060810181811067ffffffffffffffff821117610de75760405251902090565b6040517faaabadc500000000000000000000000000000000000000000000000000000000815273ffffffffffffffffffffffffffffffffffffffff6020826004817f000000000000000000000000000000000000000000000000000000000000000085165afa91821561101c575f92610fe357505090565b9091506020813d602011611014575b81610fff60209383610e14565b8101031261064f5751908116810361064f5790565b3d9150610ff2565b6040513d5f823e3d90fdfea2646970667358221220bf4d4e6761f6e4a45e5c73d20c02e4f0df7e905b725a964dfba9c48e6950e01c64736f6c634300081b0033","opcodes":"PUSH2 0x140 PUSH1 0x40 DUP2 DUP2 MSTORE CALLVALUE PUSH2 0x20D JUMPI DUP1 DUP3 PUSH2 0x13D6 DUP1 CODESIZE SUB DUP1 SWAP2 PUSH2 0x20 DUP3 DUP6 PUSH2 0x32D JUMP JUMPDEST DUP4 CODECOPY DUP2 ADD SUB SLT PUSH2 0x20D JUMPI PUSH2 0x33 DUP3 PUSH2 0x364 JUMP JUMPDEST SWAP1 PUSH2 0x41 PUSH1 0x20 DUP1 SWAP5 ADD PUSH2 0x364 JUMP JUMPDEST DUP2 MLOAD PUSH4 0x217CB6F5 PUSH1 0xE2 SHL DUP2 MSTORE PUSH1 0x1 PUSH1 0x1 PUSH1 0xA0 SHL SUB SWAP5 SWAP2 PUSH1 0x4 SWAP2 DUP6 DUP8 AND SWAP2 SWAP1 DUP5 DUP2 DUP6 DUP2 DUP7 GAS STATICCALL SWAP1 DUP2 ISZERO PUSH2 0x323 JUMPI PUSH0 SWAP2 PUSH2 0x2EE JUMPI JUMPDEST POP PUSH1 0x80 MSTORE DUP5 MLOAD PUSH4 0xFBFA77CF PUSH1 0xE0 SHL DUP2 MSTORE DUP2 DUP9 AND SWAP1 DUP6 DUP2 DUP7 DUP2 DUP6 GAS STATICCALL SWAP1 DUP2 ISZERO PUSH2 0x2E4 JUMPI DUP5 SWAP2 DUP11 SWAP2 PUSH0 SWAP2 PUSH2 0x2AB JUMPI JUMPDEST POP AND EQ SWAP1 DUP2 ISZERO SWAP2 PUSH2 0x29D JUMPI JUMPDEST POP PUSH2 0x28F JUMPI DUP3 SWAP2 DUP5 SWAP2 DUP8 PUSH1 0xC0 MSTORE PUSH1 0xA0 MSTORE DUP6 MLOAD SWAP3 DUP4 DUP1 SWAP3 PUSH4 0xAAABADC5 PUSH1 0xE0 SHL DUP3 MSTORE GAS STATICCALL SWAP1 DUP2 ISZERO PUSH2 0x285 JUMPI SWAP1 DUP7 SWAP2 PUSH0 SWAP2 PUSH2 0x24B JUMPI JUMPDEST POP AND PUSH1 0xE0 MSTORE PUSH2 0x100 SWAP5 ADDRESS DUP7 MSTORE PUSH2 0x120 SWAP5 DUP6 MSTORE PUSH1 0x24 DUP4 DUP3 PUSH1 0xA0 MLOAD AND DUP7 MLOAD SWAP3 DUP4 DUP1 SWAP3 PUSH4 0x851C1BB3 PUSH1 0xE0 SHL DUP3 MSTORE PUSH4 0x874327F PUSH1 0xE0 SHL DUP9 DUP4 ADD MSTORE GAS STATICCALL SWAP4 DUP5 ISZERO PUSH2 0x241 JUMPI PUSH0 SWAP5 PUSH2 0x211 JUMPI JUMPDEST POP POP DUP3 PUSH1 0x1 SSTORE PUSH1 0xE0 MLOAD AND SWAP2 DUP3 EXTCODESIZE ISZERO PUSH2 0x20D JUMPI PUSH0 SWAP3 PUSH1 0x44 DUP5 SWAP3 DUP7 MLOAD SWAP6 DUP7 SWAP4 DUP5 SWAP3 PUSH4 0x2F2FF15D PUSH1 0xE0 SHL DUP5 MSTORE DUP8 DUP5 ADD MSTORE ADDRESS PUSH1 0x24 DUP5 ADD MSTORE GAS CALL DUP1 ISZERO PUSH2 0x203 JUMPI PUSH2 0x1D8 JUMPI JUMPDEST POP POP MLOAD SWAP1 PUSH2 0x105D SWAP3 DUP4 PUSH2 0x379 DUP5 CODECOPY PUSH1 0x80 MLOAD DUP4 DUP2 DUP2 PUSH2 0x41A ADD MSTORE PUSH2 0xD61 ADD MSTORE PUSH1 0xA0 MLOAD DUP4 DUP2 DUP2 PUSH2 0x189 ADD MSTORE DUP2 DUP2 PUSH2 0x297 ADD MSTORE DUP2 DUP2 PUSH2 0x9E3 ADD MSTORE PUSH2 0xDAF ADD MSTORE PUSH1 0xC0 MLOAD DUP4 DUP2 DUP2 PUSH1 0xB2 ADD MSTORE PUSH2 0x8F1 ADD MSTORE PUSH1 0xE0 MLOAD DUP4 DUP2 DUP2 PUSH2 0x365 ADD MSTORE PUSH2 0x871 ADD MSTORE MLOAD DUP3 PUSH2 0xF20 ADD MSTORE MLOAD DUP2 DUP2 DUP2 PUSH2 0xCC1 ADD MSTORE PUSH2 0xFAE ADD MSTORE RETURN JUMPDEST PUSH1 0x1 PUSH1 0x1 PUSH1 0x40 SHL SUB DUP3 GT PUSH2 0x1F0 JUMPI POP DUP2 MSTORE PUSH0 PUSH0 PUSH2 0x166 JUMP JUMPDEST PUSH1 0x41 SWAP1 PUSH4 0x4E487B71 PUSH1 0xE0 SHL PUSH0 MSTORE MSTORE PUSH1 0x24 PUSH0 REVERT JUMPDEST DUP4 MLOAD RETURNDATASIZE PUSH0 DUP3 RETURNDATACOPY RETURNDATASIZE SWAP1 REVERT JUMPDEST PUSH0 DUP1 REVERT JUMPDEST SWAP1 DUP1 SWAP3 SWAP5 POP DUP2 RETURNDATASIZE DUP4 GT PUSH2 0x23A JUMPI JUMPDEST PUSH2 0x229 DUP2 DUP4 PUSH2 0x32D JUMP JUMPDEST DUP2 ADD SUB SLT PUSH2 0x20D JUMPI MLOAD SWAP2 PUSH0 DUP1 PUSH2 0x126 JUMP JUMPDEST POP RETURNDATASIZE PUSH2 0x21F JUMP JUMPDEST DUP6 MLOAD RETURNDATASIZE PUSH0 DUP3 RETURNDATACOPY RETURNDATASIZE SWAP1 REVERT JUMPDEST DUP1 SWAP3 POP DUP5 DUP1 SWAP3 POP RETURNDATASIZE DUP4 GT PUSH2 0x27E JUMPI JUMPDEST PUSH2 0x264 DUP2 DUP4 PUSH2 0x32D JUMP JUMPDEST DUP2 ADD SUB SLT PUSH2 0x20D JUMPI MLOAD DUP6 DUP2 AND DUP2 SUB PUSH2 0x20D JUMPI DUP6 SWAP1 PUSH0 PUSH2 0xE0 JUMP JUMPDEST POP RETURNDATASIZE PUSH2 0x25A JUMP JUMPDEST DUP5 MLOAD RETURNDATASIZE PUSH0 DUP3 RETURNDATACOPY RETURNDATASIZE SWAP1 REVERT JUMPDEST DUP3 PUSH4 0xD6F1CB05 PUSH1 0xE0 SHL PUSH0 MSTORE PUSH0 REVERT JUMPDEST SWAP1 POP DUP8 PUSH1 0x80 MLOAD AND EQ PUSH0 PUSH2 0xAD JUMP JUMPDEST SWAP3 POP POP POP DUP6 DUP2 DUP2 RETURNDATASIZE DUP4 GT PUSH2 0x2DD JUMPI JUMPDEST PUSH2 0x2C4 DUP2 DUP4 PUSH2 0x32D JUMP JUMPDEST DUP2 ADD SUB SLT PUSH2 0x20D JUMPI DUP9 PUSH2 0x2D7 DUP6 SWAP3 PUSH2 0x364 JUMP JUMPDEST PUSH0 PUSH2 0xA1 JUMP JUMPDEST POP RETURNDATASIZE PUSH2 0x2BA JUMP JUMPDEST DUP8 MLOAD RETURNDATASIZE PUSH0 DUP3 RETURNDATACOPY RETURNDATASIZE SWAP1 REVERT JUMPDEST SWAP1 POP DUP5 DUP2 DUP2 RETURNDATASIZE DUP4 GT PUSH2 0x31C JUMPI JUMPDEST PUSH2 0x305 DUP2 DUP4 PUSH2 0x32D JUMP JUMPDEST DUP2 ADD SUB SLT PUSH2 0x20D JUMPI PUSH2 0x316 SWAP1 PUSH2 0x364 JUMP JUMPDEST PUSH0 PUSH2 0x74 JUMP JUMPDEST POP RETURNDATASIZE PUSH2 0x2FB JUMP JUMPDEST DUP7 MLOAD RETURNDATASIZE PUSH0 DUP3 RETURNDATACOPY RETURNDATASIZE SWAP1 REVERT JUMPDEST PUSH1 0x1F SWAP1 SWAP2 ADD PUSH1 0x1F NOT AND DUP2 ADD SWAP1 PUSH1 0x1 PUSH1 0x1 PUSH1 0x40 SHL SUB DUP3 GT SWAP1 DUP3 LT OR PUSH2 0x350 JUMPI PUSH1 0x40 MSTORE JUMP JUMPDEST PUSH4 0x4E487B71 PUSH1 0xE0 SHL PUSH0 MSTORE PUSH1 0x41 PUSH1 0x4 MSTORE PUSH1 0x24 PUSH0 REVERT JUMPDEST MLOAD SWAP1 PUSH1 0x1 PUSH1 0x1 PUSH1 0xA0 SHL SUB DUP3 AND DUP3 SUB PUSH2 0x20D JUMPI JUMP INVALID PUSH1 0x80 PUSH1 0x40 DUP2 DUP2 MSTORE PUSH1 0x4 SWAP2 DUP3 CALLDATASIZE LT ISZERO PUSH2 0x15 JUMPI PUSH0 DUP1 REVERT JUMPDEST PUSH0 SWAP3 PUSH0 CALLDATALOAD DUP1 PUSH1 0xE0 SHR SWAP3 DUP4 PUSH4 0x51DA116D EQ PUSH2 0xD85 JUMPI POP DUP3 PUSH4 0x7EA3A964 EQ PUSH2 0xD35 JUMPI DUP3 PUSH4 0x851C1BB3 EQ PUSH2 0xCE5 JUMPI DUP3 PUSH4 0x8D928AF8 EQ PUSH2 0xC95 JUMPI DUP3 PUSH4 0xAAABADC5 EQ PUSH2 0xC5C JUMPI DUP3 PUSH4 0xB78B6087 EQ PUSH2 0x787 JUMPI POP DUP2 PUSH4 0xB8350E27 EQ PUSH2 0x112 JUMPI DUP2 PUSH4 0xC2AD0F14 EQ PUSH2 0xDA JUMPI POP PUSH4 0xFBFA77CF EQ PUSH2 0x87 JUMPI PUSH0 DUP1 REVERT JUMPDEST CALLVALUE PUSH2 0xD6 JUMPI DUP2 PUSH1 0x3 NOT CALLDATASIZE ADD SLT PUSH2 0xD6 JUMPI PUSH1 0x20 SWAP1 MLOAD PUSH20 0xFFFFFFFFFFFFFFFFFFFFFFFFFFFFFFFFFFFFFFFF PUSH32 0x0 AND DUP2 MSTORE RETURN JUMPDEST POP DUP1 REVERT JUMPDEST DUP4 CALLVALUE PUSH2 0x10F JUMPI PUSH2 0xE9 CALLDATASIZE PUSH2 0xE55 JUMP JUMPDEST POP PUSH32 0xC7B08F6300000000000000000000000000000000000000000000000000000000 DUP2 MSTORE REVERT JUMPDEST DUP1 REVERT JUMPDEST DUP4 DUP4 CALLVALUE PUSH2 0xD6 JUMPI PUSH2 0x122 CALLDATASIZE PUSH2 0xE55 JUMP JUMPDEST PUSH32 0x9B779B17422D0DF92223018B32B4D1FA46E071723D6817E2486D003BECC55F00 SWAP2 DUP3 TLOAD PUSH2 0x75F JUMPI PUSH1 0x1 SWAP5 PUSH1 0x1 DUP5 TSTORE DUP5 SLOAD PUSH1 0xFF DUP2 AND PUSH2 0x738 JUMPI SWAP1 DUP2 PUSH1 0xFF DUP9 SWAP5 SWAP4 PUSH1 0x8 SHR AND ISZERO PUSH2 0x253 JUMPI JUMPDEST POP DUP6 SWAP7 SWAP4 PUSH20 0xFFFFFFFFFFFFFFFFFFFFFFFFFFFFFFFFFFFFFFFF SWAP1 DUP2 PUSH32 0x0 AND SWAP5 JUMPDEST PUSH2 0x1B7 JUMPI JUMPDEST DUP8 DUP1 DUP9 TSTORE DUP1 RETURN JUMPDEST DUP1 SWAP8 SWAP7 SWAP6 SWAP8 MLOAD DUP10 LT ISZERO PUSH2 0x24A JUMPI DUP2 PUSH1 0x20 DUP11 PUSH1 0x5 SHL DUP4 ADD ADD MLOAD AND DUP6 EXTCODESIZE ISZERO PUSH2 0x246 JUMPI DUP5 MLOAD SWAP1 PUSH32 0x874327F00000000000000000000000000000000000000000000000000000000 DUP3 MSTORE DUP5 DUP3 ADD MSTORE DUP8 DUP2 PUSH1 0x24 DUP2 DUP4 DUP11 GAS CALL DUP1 ISZERO PUSH2 0x23C JUMPI PUSH2 0x224 JUMPI JUMPDEST POP DUP8 DUP1 SWAP10 SWAP9 SWAP7 SWAP8 SWAP9 ADD SWAP9 PUSH2 0x1AB JUMP JUMPDEST PUSH2 0x22E DUP9 SWAP2 PUSH2 0xDD3 JUMP JUMPDEST PUSH2 0x238 JUMPI DUP10 PUSH2 0x215 JUMP JUMPDEST DUP7 DUP1 REVERT JUMPDEST DUP6 MLOAD RETURNDATASIZE DUP11 DUP3 RETURNDATACOPY RETURNDATASIZE SWAP1 REVERT JUMPDEST DUP8 DUP1 REVERT JUMPDEST DUP6 SWAP7 SWAP8 POP PUSH2 0x1B0 JUMP JUMPDEST PUSH2 0x100 SWAP2 SWAP3 SWAP4 POP PUSH32 0xFFFFFFFFFFFFFFFFFFFFFFFFFFFFFFFFFFFFFFFFFFFFFFFFFFFFFFFFFFFF00FF AND OR DUP6 SSTORE PUSH20 0xFFFFFFFFFFFFFFFFFFFFFFFFFFFFFFFFFFFFFFFF DUP1 PUSH32 0x0 AND SWAP1 DUP4 MLOAD PUSH32 0x851C1BB300000000000000000000000000000000000000000000000000000000 SWAP3 DUP4 DUP3 MSTORE PUSH32 0x8A3C5C6900000000000000000000000000000000000000000000000000000000 DUP1 DUP7 DUP5 ADD MSTORE PUSH1 0x20 SWAP1 DUP2 DUP5 PUSH1 0x24 DUP2 DUP7 GAS STATICCALL SWAP4 DUP5 ISZERO PUSH2 0x72E JUMPI DUP12 SWAP5 PUSH2 0x6FF JUMPI JUMPDEST POP DUP8 MLOAD SWAP6 DUP7 MSTORE PUSH32 0xA93DF2A400000000000000000000000000000000000000000000000000000000 SWAP1 DUP2 DUP9 DUP9 ADD MSTORE DUP3 DUP8 PUSH1 0x24 DUP2 DUP8 GAS STATICCALL SWAP7 DUP8 ISZERO PUSH2 0x618 JUMPI DUP13 SWAP8 PUSH2 0x6D0 JUMPI JUMPDEST POP DUP6 PUSH32 0x0 AND SWAP6 DUP7 EXTCODESIZE ISZERO PUSH2 0x622 JUMPI DUP10 MLOAD PUSH32 0x2F2FF15D00000000000000000000000000000000000000000000000000000000 DUP1 DUP3 MSTORE DUP2 DUP12 ADD DUP9 DUP2 MSTORE ADDRESS PUSH1 0x20 DUP3 ADD MSTORE SWAP1 SWAP2 SWAP1 DUP16 SWAP1 DUP3 SWAP1 DUP2 SWAP1 PUSH1 0x40 ADD SUB DUP2 DUP4 DUP14 GAS CALL DUP1 ISZERO PUSH2 0x6C4 JUMPI SWAP1 DUP16 SWAP2 PUSH2 0x6B0 JUMPI JUMPDEST POP POP DUP8 EXTCODESIZE ISZERO PUSH2 0x6AC JUMPI DUP11 MLOAD SWAP1 DUP2 MSTORE DUP10 DUP2 ADD DUP10 DUP2 MSTORE ADDRESS PUSH1 0x20 DUP3 ADD MSTORE DUP15 SWAP1 DUP3 SWAP1 DUP2 SWAP1 PUSH1 0x40 ADD SUB DUP2 DUP4 DUP13 GAS CALL DUP1 ISZERO PUSH2 0x65A JUMPI SWAP1 DUP15 SWAP2 PUSH2 0x698 JUMPI JUMPDEST POP POP PUSH32 0x0 AND DUP10 MLOAD SWAP1 PUSH32 0x7869EE1800000000000000000000000000000000000000000000000000000000 DUP3 MSTORE DUP5 DUP3 DUP12 DUP2 DUP5 GAS STATICCALL SWAP2 DUP3 ISZERO PUSH2 0x65A JUMPI DUP11 SWAP2 DUP16 SWAP2 DUP8 SWAP3 SWAP5 PUSH2 0x666 JUMPI JUMPDEST POP DUP13 MLOAD SWAP3 DUP4 DUP1 SWAP3 PUSH32 0x55FB76AF00000000000000000000000000000000000000000000000000000000 DUP3 MSTORE GAS STATICCALL SWAP5 DUP6 ISZERO PUSH2 0x65A JUMPI DUP15 SWAP6 PUSH2 0x626 JUMPI JUMPDEST POP POP DUP5 EXTCODESIZE ISZERO PUSH2 0x622 JUMPI DUP10 MLOAD SWAP2 DUP3 MSTORE DUP9 DUP3 ADD MSTORE DUP12 DUP2 PUSH1 0x24 DUP2 DUP4 DUP9 GAS CALL DUP1 ISZERO PUSH2 0x618 JUMPI SWAP1 DUP13 SWAP2 PUSH2 0x604 JUMPI JUMPDEST POP POP DUP3 EXTCODESIZE ISZERO PUSH2 0x600 JUMPI SWAP1 PUSH1 0x24 DUP12 SWAP3 DUP4 DUP11 MLOAD SWAP6 DUP7 SWAP5 DUP6 SWAP4 DUP5 MSTORE DUP12 DUP5 ADD MSTORE GAS CALL DUP1 ISZERO PUSH2 0x5E2 JUMPI SWAP1 DUP10 SWAP2 PUSH2 0x5EC JUMPI JUMPDEST POP POP DUP2 EXTCODESIZE ISZERO PUSH2 0x246 JUMPI DUP5 MLOAD PUSH32 0x36568ABE00000000000000000000000000000000000000000000000000000000 DUP1 DUP3 MSTORE DUP6 DUP3 ADD SWAP3 DUP4 MSTORE ADDRESS PUSH1 0x20 DUP5 ADD MSTORE SWAP2 DUP10 SWAP1 DUP3 SWAP1 DUP2 SWAP1 PUSH1 0x40 ADD SUB DUP2 DUP4 DUP8 GAS CALL DUP1 ISZERO PUSH2 0x5E2 JUMPI SWAP1 DUP10 SWAP2 PUSH2 0x5CE JUMPI JUMPDEST POP POP DUP2 EXTCODESIZE ISZERO PUSH2 0x246 JUMPI DUP5 MLOAD SWAP1 DUP2 MSTORE DUP4 DUP2 ADD SWAP3 DUP4 MSTORE ADDRESS PUSH1 0x20 DUP5 ADD MSTORE SWAP2 DUP8 SWAP2 DUP4 SWAP2 DUP3 SWAP1 DUP5 SWAP1 DUP3 SWAP1 PUSH1 0x40 ADD SUB SWAP3 GAS CALL DUP1 ISZERO PUSH2 0x5C4 JUMPI DUP8 SWAP4 SWAP3 SWAP2 DUP8 SWAP2 PUSH2 0x5A5 JUMPI JUMPDEST POP PUSH2 0x16C JUMP JUMPDEST PUSH2 0x5B2 SWAP2 SWAP3 SWAP4 SWAP5 POP PUSH2 0xDD3 JUMP JUMPDEST PUSH2 0x5C0 JUMPI SWAP1 DUP6 SWAP2 DUP6 DUP9 PUSH2 0x59F JUMP JUMPDEST DUP5 DUP1 REVERT JUMPDEST DUP4 MLOAD RETURNDATASIZE DUP9 DUP3 RETURNDATACOPY RETURNDATASIZE SWAP1 REVERT JUMPDEST PUSH2 0x5D7 SWAP1 PUSH2 0xDD3 JUMP JUMPDEST PUSH2 0x246 JUMPI DUP8 DUP11 PUSH2 0x562 JUMP JUMPDEST DUP7 MLOAD RETURNDATASIZE DUP12 DUP3 RETURNDATACOPY RETURNDATASIZE SWAP1 REVERT JUMPDEST PUSH2 0x5F5 SWAP1 PUSH2 0xDD3 JUMP JUMPDEST PUSH2 0x246 JUMPI DUP8 DUP11 PUSH2 0x509 JUMP JUMPDEST DUP11 DUP1 REVERT JUMPDEST PUSH2 0x60D SWAP1 PUSH2 0xDD3 JUMP JUMPDEST PUSH2 0x600 JUMPI DUP11 DUP14 PUSH2 0x4DD JUMP JUMPDEST DUP10 MLOAD RETURNDATASIZE DUP15 DUP3 RETURNDATACOPY RETURNDATASIZE SWAP1 REVERT JUMPDEST DUP13 DUP1 REVERT JUMPDEST SWAP1 DUP1 SWAP3 SWAP6 POP DUP2 RETURNDATASIZE DUP4 GT PUSH2 0x653 JUMPI JUMPDEST PUSH2 0x63E DUP2 DUP4 PUSH2 0xE14 JUMP JUMPDEST DUP2 ADD SUB SLT PUSH2 0x64F JUMPI MLOAD SWAP3 DUP15 DUP1 PUSH2 0x4B4 JUMP JUMPDEST PUSH0 DUP1 REVERT JUMPDEST POP RETURNDATASIZE PUSH2 0x634 JUMP JUMPDEST DUP15 DUP13 MLOAD SWAP1 RETURNDATASIZE SWAP1 DUP3 RETURNDATACOPY RETURNDATASIZE SWAP1 REVERT JUMPDEST SWAP3 POP SWAP3 POP DUP2 DUP2 RETURNDATASIZE DUP4 GT PUSH2 0x691 JUMPI JUMPDEST PUSH2 0x67E DUP2 DUP4 PUSH2 0xE14 JUMP JUMPDEST DUP2 ADD SUB SLT PUSH2 0x64F JUMPI DUP5 DUP11 SWAP2 MLOAD SWAP3 PUSH0 PUSH2 0x47A JUMP JUMPDEST POP RETURNDATASIZE PUSH2 0x674 JUMP JUMPDEST PUSH2 0x6A1 SWAP1 PUSH2 0xDD3 JUMP JUMPDEST PUSH2 0x622 JUMPI DUP13 DUP16 PUSH2 0x416 JUMP JUMPDEST DUP14 DUP1 REVERT JUMPDEST PUSH2 0x6B9 SWAP1 PUSH2 0xDD3 JUMP JUMPDEST PUSH2 0x6AC JUMPI DUP14 PUSH0 PUSH2 0x3DF JUMP JUMPDEST DUP16 DUP14 MLOAD SWAP1 RETURNDATASIZE SWAP1 DUP3 RETURNDATACOPY RETURNDATASIZE SWAP1 REVERT JUMPDEST SWAP1 SWAP7 POP DUP3 DUP2 DUP2 RETURNDATASIZE DUP4 GT PUSH2 0x6F8 JUMPI JUMPDEST PUSH2 0x6E8 DUP2 DUP4 PUSH2 0xE14 JUMP JUMPDEST DUP2 ADD SUB SLT PUSH2 0x64F JUMPI MLOAD SWAP6 DUP14 PUSH2 0x361 JUMP JUMPDEST POP RETURNDATASIZE PUSH2 0x6DE JUMP JUMPDEST SWAP1 SWAP4 POP DUP2 DUP2 DUP2 RETURNDATASIZE DUP4 GT PUSH2 0x727 JUMPI JUMPDEST PUSH2 0x717 DUP2 DUP4 PUSH2 0xE14 JUMP JUMPDEST DUP2 ADD SUB SLT PUSH2 0x64F JUMPI MLOAD SWAP3 DUP13 PUSH2 0x31E JUMP JUMPDEST POP RETURNDATASIZE PUSH2 0x70D JUMP JUMPDEST DUP9 MLOAD RETURNDATASIZE DUP14 DUP3 RETURNDATACOPY RETURNDATASIZE SWAP1 REVERT JUMPDEST POP DUP5 PUSH32 0xCA1C3CBC00000000000000000000000000000000000000000000000000000000 DUP2 MSTORE REVERT JUMPDEST POP POP POP PUSH32 0x3EE5AEB500000000000000000000000000000000000000000000000000000000 DUP2 MSTORE REVERT JUMPDEST DUP4 DUP6 SWAP2 CALLVALUE PUSH2 0x64F JUMPI PUSH0 PUSH1 0x3 NOT CALLDATASIZE ADD SLT PUSH2 0x64F JUMPI PUSH32 0xFFFFFFFF00000000000000000000000000000000000000000000000000000000 PUSH2 0x7C5 SWAP2 AND PUSH2 0xEF5 JUMP JUMPDEST SWAP1 PUSH20 0xFFFFFFFFFFFFFFFFFFFFFFFFFFFFFFFFFFFFFFFF DUP1 PUSH2 0x7E4 PUSH2 0xF6B JUMP JUMPDEST AND SWAP3 DUP3 MLOAD SWAP4 DUP5 SWAP2 PUSH32 0x9BE2A88400000000000000000000000000000000000000000000000000000000 DUP4 MSTORE DUP8 DUP4 ADD MSTORE CALLER PUSH1 0x24 DUP4 ADD MSTORE ADDRESS PUSH1 0x44 DUP4 ADD MSTORE DUP2 PUSH1 0x64 PUSH1 0x20 SWAP7 DUP8 SWAP4 GAS STATICCALL SWAP1 DUP2 ISZERO PUSH2 0xC52 JUMPI PUSH0 SWAP2 PUSH2 0xC1C JUMPI JUMPDEST POP ISZERO PUSH2 0xBF5 JUMPI PUSH0 SLOAD PUSH1 0xFF DUP2 AND PUSH2 0xBCE JUMPI PUSH32 0xFFFFFFFFFFFFFFFFFFFFFFFFFFFFFFFFFFFFFFFFFFFFFFFFFFFFFFFFFFFFFF00 PUSH1 0x1 SWAP2 AND OR PUSH0 SSTORE DUP1 PUSH32 0x0 AND SWAP5 PUSH1 0x1 SLOAD SWAP2 DUP7 EXTCODESIZE ISZERO PUSH2 0x64F JUMPI DUP4 MLOAD PUSH32 0x36568ABE00000000000000000000000000000000000000000000000000000000 DUP1 DUP3 MSTORE DUP4 DUP3 ADD SWAP5 DUP6 MSTORE ADDRESS PUSH1 0x20 DUP7 ADD MSTORE SWAP4 PUSH0 SWAP1 DUP3 SWAP1 DUP2 SWAP1 PUSH1 0x40 ADD SUB DUP2 DUP4 DUP13 GAS CALL DUP1 ISZERO PUSH2 0xBC4 JUMPI PUSH2 0xBB1 JUMPI JUMPDEST POP SWAP6 DUP7 DUP7 SWAP8 PUSH32 0x0 AND DUP6 MLOAD SWAP2 PUSH32 0x851C1BB300000000000000000000000000000000000000000000000000000000 DUP4 MSTORE PUSH32 0x2D77138900000000000000000000000000000000000000000000000000000000 SWAP1 DUP2 DUP7 DUP6 ADD MSTORE DUP9 DUP5 PUSH1 0x24 DUP2 DUP7 GAS STATICCALL SWAP4 DUP5 ISZERO PUSH2 0xBA7 JUMPI DUP11 SWAP5 PUSH2 0xB75 JUMPI JUMPDEST POP DUP5 EXTCODESIZE ISZERO PUSH2 0xB53 JUMPI DUP8 MLOAD PUSH32 0x2F2FF15D00000000000000000000000000000000000000000000000000000000 DUP2 MSTORE DUP7 DUP2 ADD DUP6 DUP2 MSTORE ADDRESS PUSH1 0x20 DUP3 ADD MSTORE DUP12 SWAP1 DUP3 SWAP1 DUP2 SWAP1 PUSH1 0x40 ADD SUB DUP2 DUP4 DUP11 GAS CALL DUP1 ISZERO PUSH2 0xB6B JUMPI SWAP1 DUP12 SWAP2 PUSH2 0xB57 JUMPI JUMPDEST POP POP DUP3 EXTCODESIZE ISZERO PUSH2 0xB53 JUMPI PUSH1 0x24 DUP11 SWAP3 DUP4 DUP11 MLOAD SWAP6 DUP7 SWAP5 DUP6 SWAP4 DUP5 MSTORE PUSH32 0x0 AND DUP11 DUP5 ADD MSTORE GAS CALL DUP1 ISZERO PUSH2 0xB49 JUMPI SWAP1 DUP9 SWAP2 PUSH2 0xB35 JUMPI JUMPDEST POP POP DUP2 EXTCODESIZE ISZERO PUSH2 0x238 JUMPI DUP5 MLOAD DUP5 DUP2 MSTORE DUP4 DUP2 ADD SWAP2 DUP3 MSTORE ADDRESS PUSH1 0x20 DUP4 ADD MSTORE SWAP1 DUP8 SWAP1 DUP3 SWAP1 DUP2 SWAP1 PUSH1 0x40 ADD SUB DUP2 DUP4 DUP7 GAS CALL DUP1 ISZERO PUSH2 0xB17 JUMPI SWAP1 DUP8 SWAP2 PUSH2 0xB21 JUMPI JUMPDEST POP POP DUP4 MLOAD PUSH32 0xA217FDDF00000000000000000000000000000000000000000000000000000000 DUP2 MSTORE DUP6 DUP2 DUP5 DUP2 DUP6 GAS STATICCALL SWAP6 DUP7 ISZERO PUSH2 0xB17 JUMPI DUP8 SWAP7 PUSH2 0xAE4 JUMPI JUMPDEST POP POP DUP1 EXTCODESIZE ISZERO PUSH2 0xAE0 JUMPI DUP4 MLOAD SWAP3 DUP4 MSTORE SWAP1 DUP3 ADD SWAP4 DUP5 MSTORE ADDRESS PUSH1 0x20 DUP6 ADD MSTORE SWAP1 SWAP3 DUP5 SWAP2 DUP5 SWAP2 DUP3 SWAP1 DUP5 SWAP1 DUP3 SWAP1 PUSH1 0x40 ADD SUB SWAP3 GAS CALL SWAP1 DUP2 ISZERO PUSH2 0xAD7 JUMPI POP PUSH2 0xAC7 JUMPI POP RETURN JUMPDEST PUSH2 0xAD0 SWAP1 PUSH2 0xDD3 JUMP JUMPDEST PUSH2 0x10F JUMPI DUP1 RETURN JUMPDEST MLOAD RETURNDATASIZE DUP5 DUP3 RETURNDATACOPY RETURNDATASIZE SWAP1 REVERT JUMPDEST DUP6 DUP1 REVERT JUMPDEST DUP2 SWAP8 POP DUP1 SWAP3 SWAP7 POP RETURNDATASIZE DUP4 GT PUSH2 0xB10 JUMPI JUMPDEST PUSH2 0xAFD DUP2 DUP4 PUSH2 0xE14 JUMP JUMPDEST DUP2 ADD SUB SLT PUSH2 0x64F JUMPI DUP6 SWAP5 MLOAD SWAP4 DUP8 DUP1 PUSH2 0xA8B JUMP JUMPDEST POP RETURNDATASIZE PUSH2 0xAF3 JUMP JUMPDEST DUP6 MLOAD RETURNDATASIZE DUP10 DUP3 RETURNDATACOPY RETURNDATASIZE SWAP1 REVERT JUMPDEST PUSH2 0xB2A SWAP1 PUSH2 0xDD3 JUMP JUMPDEST PUSH2 0xAE0 JUMPI DUP6 DUP9 PUSH2 0xA4F JUMP JUMPDEST PUSH2 0xB3E SWAP1 PUSH2 0xDD3 JUMP JUMPDEST PUSH2 0x238 JUMPI DUP7 DUP10 PUSH2 0xA17 JUMP JUMPDEST DUP7 MLOAD RETURNDATASIZE DUP11 DUP3 RETURNDATACOPY RETURNDATASIZE SWAP1 REVERT JUMPDEST DUP10 DUP1 REVERT JUMPDEST PUSH2 0xB60 SWAP1 PUSH2 0xDD3 JUMP JUMPDEST PUSH2 0xB53 JUMPI DUP10 DUP13 PUSH2 0x9CA JUMP JUMPDEST DUP10 MLOAD RETURNDATASIZE DUP14 DUP3 RETURNDATACOPY RETURNDATASIZE SWAP1 REVERT JUMPDEST SWAP10 POP SWAP3 POP DUP8 DUP10 DUP2 RETURNDATASIZE DUP2 GT PUSH2 0xBA0 JUMPI JUMPDEST PUSH2 0xB8E DUP2 DUP4 PUSH2 0xE14 JUMP JUMPDEST DUP2 ADD SUB SLT PUSH2 0x64F JUMPI DUP10 SWAP9 MLOAD SWAP3 DUP12 PUSH2 0x974 JUMP JUMPDEST POP RETURNDATASIZE PUSH2 0xB84 JUMP JUMPDEST DUP9 MLOAD RETURNDATASIZE DUP13 DUP3 RETURNDATACOPY RETURNDATASIZE SWAP1 REVERT JUMPDEST PUSH2 0xBBC SWAP2 SWAP7 POP PUSH2 0xDD3 JUMP JUMPDEST PUSH0 SWAP5 DUP8 PUSH2 0x8EA JUMP JUMPDEST DUP6 MLOAD RETURNDATASIZE PUSH0 DUP3 RETURNDATACOPY RETURNDATASIZE SWAP1 REVERT JUMPDEST DUP6 PUSH32 0xCA1C3CBC00000000000000000000000000000000000000000000000000000000 PUSH0 MSTORE PUSH0 REVERT JUMPDEST DUP5 PUSH32 0x23DADA5300000000000000000000000000000000000000000000000000000000 PUSH0 MSTORE PUSH0 REVERT JUMPDEST SWAP1 POP DUP4 DUP2 DUP2 RETURNDATASIZE DUP4 GT PUSH2 0xC4B JUMPI JUMPDEST PUSH2 0xC33 DUP2 DUP4 PUSH2 0xE14 JUMP JUMPDEST DUP2 ADD SUB SLT PUSH2 0x64F JUMPI MLOAD DUP1 ISZERO ISZERO DUP2 SUB PUSH2 0x64F JUMPI DUP7 PUSH2 0x836 JUMP JUMPDEST POP RETURNDATASIZE PUSH2 0xC29 JUMP JUMPDEST DUP4 MLOAD RETURNDATASIZE PUSH0 DUP3 RETURNDATACOPY RETURNDATASIZE SWAP1 REVERT JUMPDEST DUP4 CALLVALUE PUSH2 0x64F JUMPI PUSH0 PUSH1 0x3 NOT CALLDATASIZE ADD SLT PUSH2 0x64F JUMPI PUSH1 0x20 SWAP1 PUSH20 0xFFFFFFFFFFFFFFFFFFFFFFFFFFFFFFFFFFFFFFFF PUSH2 0xC8D PUSH2 0xF6B JUMP JUMPDEST SWAP2 MLOAD SWAP2 AND DUP2 MSTORE RETURN JUMPDEST DUP4 CALLVALUE PUSH2 0x64F JUMPI PUSH0 PUSH1 0x3 NOT CALLDATASIZE ADD SLT PUSH2 0x64F JUMPI PUSH1 0x20 SWAP1 MLOAD PUSH20 0xFFFFFFFFFFFFFFFFFFFFFFFFFFFFFFFFFFFFFFFF PUSH32 0x0 AND DUP2 MSTORE RETURN JUMPDEST DUP4 DUP3 CALLVALUE PUSH2 0x64F JUMPI PUSH1 0x20 PUSH1 0x3 NOT CALLDATASIZE ADD SLT PUSH2 0x64F JUMPI CALLDATALOAD SWAP1 PUSH32 0xFFFFFFFF00000000000000000000000000000000000000000000000000000000 DUP3 AND DUP3 SUB PUSH2 0x64F JUMPI PUSH2 0xD2E PUSH1 0x20 SWAP3 PUSH2 0xEF5 JUMP JUMPDEST SWAP1 MLOAD SWAP1 DUP2 MSTORE RETURN JUMPDEST DUP4 CALLVALUE PUSH2 0x64F JUMPI PUSH0 PUSH1 0x3 NOT CALLDATASIZE ADD SLT PUSH2 0x64F JUMPI PUSH1 0x20 SWAP1 MLOAD PUSH20 0xFFFFFFFFFFFFFFFFFFFFFFFFFFFFFFFFFFFFFFFF PUSH32 0x0 AND DUP2 MSTORE RETURN JUMPDEST CALLVALUE PUSH2 0x64F JUMPI PUSH0 PUSH1 0x3 NOT CALLDATASIZE ADD SLT PUSH2 0x64F JUMPI PUSH1 0x20 SWAP1 PUSH20 0xFFFFFFFFFFFFFFFFFFFFFFFFFFFFFFFFFFFFFFFF PUSH32 0x0 AND DUP2 MSTORE RETURN JUMPDEST PUSH8 0xFFFFFFFFFFFFFFFF DUP2 GT PUSH2 0xDE7 JUMPI PUSH1 0x40 MSTORE JUMP JUMPDEST PUSH32 0x4E487B7100000000000000000000000000000000000000000000000000000000 PUSH0 MSTORE PUSH1 0x41 PUSH1 0x4 MSTORE PUSH1 0x24 PUSH0 REVERT JUMPDEST SWAP1 PUSH1 0x1F PUSH32 0xFFFFFFFFFFFFFFFFFFFFFFFFFFFFFFFFFFFFFFFFFFFFFFFFFFFFFFFFFFFFFFE0 SWAP2 ADD AND DUP2 ADD SWAP1 DUP2 LT PUSH8 0xFFFFFFFFFFFFFFFF DUP3 GT OR PUSH2 0xDE7 JUMPI PUSH1 0x40 MSTORE JUMP JUMPDEST PUSH1 0x20 DUP1 PUSH1 0x3 NOT DUP4 ADD SLT PUSH2 0x64F JUMPI PUSH8 0xFFFFFFFFFFFFFFFF SWAP2 PUSH1 0x4 CALLDATALOAD DUP4 DUP2 GT PUSH2 0x64F JUMPI DUP2 PUSH1 0x23 DUP3 ADD SLT ISZERO PUSH2 0x64F JUMPI DUP1 PUSH1 0x4 ADD CALLDATALOAD SWAP4 DUP5 GT PUSH2 0xDE7 JUMPI DUP4 PUSH1 0x5 SHL SWAP1 PUSH1 0x40 MLOAD SWAP5 PUSH2 0xEA3 PUSH1 0x20 DUP5 ADD DUP8 PUSH2 0xE14 JUMP JUMPDEST DUP6 MSTORE PUSH1 0x24 PUSH1 0x20 DUP7 ADD SWAP3 DUP3 ADD ADD SWAP3 DUP4 GT PUSH2 0x64F JUMPI PUSH1 0x24 ADD SWAP1 JUMPDEST DUP3 DUP3 LT PUSH2 0xEC9 JUMPI POP POP POP POP SWAP1 JUMP JUMPDEST DUP2 CALLDATALOAD PUSH20 0xFFFFFFFFFFFFFFFFFFFFFFFFFFFFFFFFFFFFFFFF DUP2 AND DUP2 SUB PUSH2 0x64F JUMPI DUP2 MSTORE SWAP1 DUP4 ADD SWAP1 DUP4 ADD PUSH2 0xEBB JUMP JUMPDEST PUSH1 0x40 MLOAD PUSH32 0xFFFFFFFF00000000000000000000000000000000000000000000000000000000 PUSH1 0x20 DUP3 ADD SWAP3 PUSH32 0x0 DUP5 MSTORE AND PUSH1 0x40 DUP3 ADD MSTORE PUSH1 0x24 DUP2 MSTORE PUSH1 0x60 DUP2 ADD DUP2 DUP2 LT PUSH8 0xFFFFFFFFFFFFFFFF DUP3 GT OR PUSH2 0xDE7 JUMPI PUSH1 0x40 MSTORE MLOAD SWAP1 KECCAK256 SWAP1 JUMP JUMPDEST PUSH1 0x40 MLOAD PUSH32 0xAAABADC500000000000000000000000000000000000000000000000000000000 DUP2 MSTORE PUSH20 0xFFFFFFFFFFFFFFFFFFFFFFFFFFFFFFFFFFFFFFFF PUSH1 0x20 DUP3 PUSH1 0x4 DUP2 PUSH32 0x0 DUP6 AND GAS STATICCALL SWAP2 DUP3 ISZERO PUSH2 0x101C JUMPI PUSH0 SWAP3 PUSH2 0xFE3 JUMPI POP POP SWAP1 JUMP JUMPDEST SWAP1 SWAP2 POP PUSH1 0x20 DUP2 RETURNDATASIZE PUSH1 0x20 GT PUSH2 0x1014 JUMPI JUMPDEST DUP2 PUSH2 0xFFF PUSH1 0x20 SWAP4 DUP4 PUSH2 0xE14 JUMP JUMPDEST DUP2 ADD SUB SLT PUSH2 0x64F JUMPI MLOAD SWAP1 DUP2 AND DUP2 SUB PUSH2 0x64F JUMPI SWAP1 JUMP JUMPDEST RETURNDATASIZE SWAP2 POP PUSH2 0xFF2 JUMP JUMPDEST PUSH1 0x40 MLOAD RETURNDATASIZE PUSH0 DUP3 RETURNDATACOPY RETURNDATASIZE SWAP1 REVERT INVALID LOG2 PUSH5 0x6970667358 0x22 SLT KECCAK256 0xBF 0x4D 0x4E PUSH8 0x61F6E4A45E5C73D2 0xC MUL 0xE4 CREATE 0xDF PUSH31 0x905B725A964DFBA9C48E6950E01C64736F6C634300081B0033000000000000 "},"methodIdentifiers":{"finalizeMigration()":"b78b6087","getActionId(bytes4)":"851c1bb3","getAuthorizer()":"aaabadc5","getVault()":"8d928af8","migrateFeeController(address[])":"c2ad0f14","migratePools(address[])":"b8350e27","newFeeController()":"51da116d","oldFeeController()":"7ea3a964","vault()":"fbfa77cf"}}}}}