{"contracts/ProtocolFeeControllerMigration.sol":{"ProtocolFeeControllerMigration":{"abi":[{"inputs":[{"internalType":"contract IVault","name":"_vault","type":"address"},{"internalType":"contract IProtocolFeeController","name":"_newFeeController","type":"address"}],"stateMutability":"nonpayable","type":"constructor"},{"inputs":[],"name":"AlreadyMigrated","type":"error"},{"inputs":[],"name":"InvalidFeeController","type":"error"},{"inputs":[],"name":"ReentrancyGuardReentrantCall","type":"error"},{"inputs":[{"internalType":"address[]","name":"pools","type":"address[]"}],"name":"migrateFeeController","outputs":[],"stateMutability":"nonpayable","type":"function"},{"inputs":[],"name":"newFeeController","outputs":[{"internalType":"contract IProtocolFeeController","name":"","type":"address"}],"stateMutability":"view","type":"function"},{"inputs":[],"name":"oldFeeController","outputs":[{"internalType":"contract IProtocolFeeController","name":"","type":"address"}],"stateMutability":"view","type":"function"},{"inputs":[],"name":"vault","outputs":[{"internalType":"contract IVault","name":"","type":"address"}],"stateMutability":"view","type":"function"}],"evm":{"bytecode":{"linkReferences":{},"object":"6101006040908082523461020657818161155b803803809161002182856102ba565b83398101031261020657610034816102f1565b9061004260208092016102f1565b835163217cb6f560e21b81526001600160a01b039390818516908481600481855afa9081156102b0575f9161027b575b50608052855163fbfa77cf60e01b8152838616908581600481855afa90811561027157839188915f91610238575b5016149081159161022a575b5061021b57600492849260c05260a05285519283809263aaabadc560e01b82525afa918215610211575f926101d6575b50501660e05251611255908161030682396080518181816104be01528181610533015261113a015260a05181818161021d015281816102cd0152818161057b015281816105ea01528181610633015281816106a201528181610892015281816109010152818161094a015281816109b901528181610bc201526111a6015260c05181818160940152610a4f015260e05181818161031501528181610376015281816103d301528181610434015281816106eb0152818161074d015281816107ab0152818161080d01528181610aec01528181610b4d01528181610c1001528181610c7201528181610cf801528181610d400152610da20152f35b90809250813d831161020a575b6101ed81836102ba565b8101031261020657518181168103610206575f806100dc565b5f80fd5b503d6101e3565b84513d5f823e3d90fd5b63d6f1cb0560e01b5f5260045ffd5b90508560805116145f6100ac565b925050508581813d831161026a575b61025181836102ba565b81010312610206578661026484926102f1565b5f6100a0565b503d610247565b88513d5f823e3d90fd5b90508481813d83116102a9575b61029281836102ba565b81010312610206576102a3906102f1565b5f610072565b503d610288565b87513d5f823e3d90fd5b601f909101601f19168101906001600160401b038211908210176102dd57604052565b634e487b7160e01b5f52604160045260245ffd5b51906001600160a01b03821682036102065756fe6080806040526004361015610012575f80fd5b5f905f3560e01c90816351da116d1461115e575080637ea3a964146110f0578063c2ad0f14146100bb5763fbfa77cf1461004a575f80fd5b346100b857807ffffffffffffffffffffffffffffffffffffffffffffffffffffffffffffffffc3601126100b857602060405173ffffffffffffffffffffffffffffffffffffffff7f0000000000000000000000000000000000000000000000000000000000000000168152f35b80fd5b5034610e4e5760207ffffffffffffffffffffffffffffffffffffffffffffffffffffffffffffffffc360112610e4e5767ffffffffffffffff600435818111610e4e5736602382011215610e4e5780600401359182116110c3578160051b906040519261012b60208401856111de565b83526024602084019282010190368211610e4e57602401915b818310611096575050507f9b779b17422d0df92223018b32b4d1fa46e071723d6817e2486d003becc55f005c61106e5760017f9b779b17422d0df92223018b32b4d1fa46e071723d6817e2486d003becc55f005d5f5460ff8116611046577fffffffffffffffffffffffffffffffffffffffffffffffffffffffffffffff00166001175f556040517f851c1bb30000000000000000000000000000000000000000000000000000000081527f8a3c5c690000000000000000000000000000000000000000000000000000000060048201526020816024817f000000000000000000000000000000000000000000000000000000000000000073ffffffffffffffffffffffffffffffffffffffff165afa908115610fd5575f91611014575b50604051907f851c1bb30000000000000000000000000000000000000000000000000000000082527fa93df2a400000000000000000000000000000000000000000000000000000000600483015260208260248173ffffffffffffffffffffffffffffffffffffffff7f0000000000000000000000000000000000000000000000000000000000000000165afa918215610fd5575f92610fe0575b5073ffffffffffffffffffffffffffffffffffffffff7f0000000000000000000000000000000000000000000000000000000000000000163b15610e4e576040517f2f2ff15d000000000000000000000000000000000000000000000000000000008152600481018290523060248201525f81604481837f000000000000000000000000000000000000000000000000000000000000000073ffffffffffffffffffffffffffffffffffffffff165af18015610fd557610fc0575b5090839173ffffffffffffffffffffffffffffffffffffffff7f0000000000000000000000000000000000000000000000000000000000000000163b15610a04576040517f2f2ff15d000000000000000000000000000000000000000000000000000000008152600481018390523060248201528381604481837f000000000000000000000000000000000000000000000000000000000000000073ffffffffffffffffffffffffffffffffffffffff165af1908115610edd578491610fac575b50506040517f7869ee1800000000000000000000000000000000000000000000000000000000815260208160048173ffffffffffffffffffffffffffffffffffffffff7f0000000000000000000000000000000000000000000000000000000000000000165afa908115610edd578491610f77575b50604051907f55fb76af00000000000000000000000000000000000000000000000000000000825260208260048173ffffffffffffffffffffffffffffffffffffffff7f0000000000000000000000000000000000000000000000000000000000000000165afa918215610e9b578592610f40575b5073ffffffffffffffffffffffffffffffffffffffff7f0000000000000000000000000000000000000000000000000000000000000000163b15610f3c57604051907f8a3c5c69000000000000000000000000000000000000000000000000000000008252600482015284816024818373ffffffffffffffffffffffffffffffffffffffff7f0000000000000000000000000000000000000000000000000000000000000000165af1908115610e9b578591610f28575b505073ffffffffffffffffffffffffffffffffffffffff7f0000000000000000000000000000000000000000000000000000000000000000163b15610f2457604051907fa93df2a4000000000000000000000000000000000000000000000000000000008252600482015283816024818373ffffffffffffffffffffffffffffffffffffffff7f0000000000000000000000000000000000000000000000000000000000000000165af1908115610edd578491610f10575b505073ffffffffffffffffffffffffffffffffffffffff7f0000000000000000000000000000000000000000000000000000000000000000163b15610a04576040517f36568abe00000000000000000000000000000000000000000000000000000000815260048101919091523060248201528281604481837f000000000000000000000000000000000000000000000000000000000000000073ffffffffffffffffffffffffffffffffffffffff165af1908115610a2b578391610efc575b505073ffffffffffffffffffffffffffffffffffffffff7f0000000000000000000000000000000000000000000000000000000000000000163b15610a13576040517f36568abe00000000000000000000000000000000000000000000000000000000815260048101919091523060248201528181604481837f000000000000000000000000000000000000000000000000000000000000000073ffffffffffffffffffffffffffffffffffffffff165af18015610a0857610ee8575b505b8151811015610a36578273ffffffffffffffffffffffffffffffffffffffff60208360051b850101511673ffffffffffffffffffffffffffffffffffffffff7f0000000000000000000000000000000000000000000000000000000000000000163b15610a13576040517f71ecc8fb00000000000000000000000000000000000000000000000000000000815281600482015282816024818373ffffffffffffffffffffffffffffffffffffffff7f0000000000000000000000000000000000000000000000000000000000000000165af1908115610a2b578391610a17575b505073ffffffffffffffffffffffffffffffffffffffff7f0000000000000000000000000000000000000000000000000000000000000000163b15610a1357604051907f71447ea8000000000000000000000000000000000000000000000000000000008252600482015281816024818373ffffffffffffffffffffffffffffffffffffffff7f0000000000000000000000000000000000000000000000000000000000000000165af18015610a08576109f0575b5050600101610851565b6109f9906111ca565b610a0457825f6109e6565b8280fd5b6040513d84823e3d90fd5b5080fd5b610a20906111ca565b610a1357815f610931565b6040513d85823e3d90fd5b828073ffffffffffffffffffffffffffffffffffffffff7f000000000000000000000000000000000000000000000000000000000000000016604051907f851c1bb30000000000000000000000000000000000000000000000000000000082527f2d77138900000000000000000000000000000000000000000000000000000000806004840152602083602481855afa928315610edd578493610ea6575b5073ffffffffffffffffffffffffffffffffffffffff7f0000000000000000000000000000000000000000000000000000000000000000163b15610e82576040517f2f2ff15d000000000000000000000000000000000000000000000000000000008152600481018490523060248201528481604481837f000000000000000000000000000000000000000000000000000000000000000073ffffffffffffffffffffffffffffffffffffffff165af1908115610e9b578591610e87575b5050813b15610e82578391602483926040519485938492835273ffffffffffffffffffffffffffffffffffffffff7f00000000000000000000000000000000000000000000000000000000000000001660048401525af1908115610a2b578391610e6e575b505073ffffffffffffffffffffffffffffffffffffffff7f0000000000000000000000000000000000000000000000000000000000000000163b15610e1e576040517f36568abe00000000000000000000000000000000000000000000000000000000815260048101919091523060248201528181604481837f000000000000000000000000000000000000000000000000000000000000000073ffffffffffffffffffffffffffffffffffffffff165af18015610a0857610e5a575b506040517fa217fddf00000000000000000000000000000000000000000000000000000000815260208160048173ffffffffffffffffffffffffffffffffffffffff7f0000000000000000000000000000000000000000000000000000000000000000165afa908115610a08578291610e21575b5073ffffffffffffffffffffffffffffffffffffffff7f0000000000000000000000000000000000000000000000000000000000000000163b15610e1e576040517f36568abe00000000000000000000000000000000000000000000000000000000815260048101919091523060248201528181604481837f000000000000000000000000000000000000000000000000000000000000000073ffffffffffffffffffffffffffffffffffffffff165af18015610a0857610e0a575b507f9b779b17422d0df92223018b32b4d1fa46e071723d6817e2486d003becc55f005d80f35b610e13906111ca565b6100b8578082610de4565b50fd5b9150506020813d602011610e52575b81610e3d602093836111de565b81010312610e4e5781905183610d28565b5f80fd5b3d9150610e30565b610e63906111ca565b6100b8578082610cb4565b610e77906111ca565b610e1e578184610bf7565b505050fd5b610e90906111ca565b610e82578386610b92565b6040513d87823e3d90fd5b935091506020833d602011610ed5575b81610ec3602093836111de565b81010312610e4e578392519185610ad4565b3d9150610eb6565b6040513d86823e3d90fd5b610ef1906111ca565b610a1357815f61084f565b610f05906111ca565b610a1357815f610792565b610f19906111ca565b610a0457825f6106d2565b8380fd5b610f31906111ca565b610f2457835f61061a565b8480fd5b945090506020843d602011610f6f575b81610f5d602093836111de565b81010312610e4e57859351905f610563565b3d9150610f50565b9350506020833d602011610fa4575b81610f93602093836111de565b81010312610e4e578492515f6104ee565b3d9150610f86565b610fb5906111ca565b610a0457825f610479565b610fcc919294506111ca565b5f92905f6103b8565b6040513d5f823e3d90fd5b9091506020813d60201161100c575b81610ffc602093836111de565b81010312610e4e5751905f6102fd565b3d9150610fef565b90506020813d60201161103e575b8161102f602093836111de565b81010312610e4e57515f610262565b3d9150611022565b7fca1c3cbc000000000000000000000000000000000000000000000000000000005f5260045ffd5b7f3ee5aeb5000000000000000000000000000000000000000000000000000000005f5260045ffd5b823573ffffffffffffffffffffffffffffffffffffffff81168103610e4e57815260209283019201610144565b7f4e487b71000000000000000000000000000000000000000000000000000000005f52604160045260245ffd5b34610e4e575f7ffffffffffffffffffffffffffffffffffffffffffffffffffffffffffffffffc360112610e4e57602060405173ffffffffffffffffffffffffffffffffffffffff7f0000000000000000000000000000000000000000000000000000000000000000168152f35b34610e4e575f7ffffffffffffffffffffffffffffffffffffffffffffffffffffffffffffffffc360112610e4e5760209073ffffffffffffffffffffffffffffffffffffffff7f0000000000000000000000000000000000000000000000000000000000000000168152f35b67ffffffffffffffff81116110c357604052565b90601f7fffffffffffffffffffffffffffffffffffffffffffffffffffffffffffffffe0910116810190811067ffffffffffffffff8211176110c35760405256fea264697066735822122099c1e7ab0bed7c157302cc163e0dc09d0df8a426a97850fcce96c1625fb28e1b64736f6c634300081b0033","opcodes":"PUSH2 0x100 PUSH1 0x40 SWAP1 DUP1 DUP3 MSTORE CALLVALUE PUSH2 0x206 JUMPI DUP2 DUP2 PUSH2 0x155B DUP1 CODESIZE SUB DUP1 SWAP2 PUSH2 0x21 DUP3 DUP6 PUSH2 0x2BA JUMP JUMPDEST DUP4 CODECOPY DUP2 ADD SUB SLT PUSH2 0x206 JUMPI PUSH2 0x34 DUP2 PUSH2 0x2F1 JUMP JUMPDEST SWAP1 PUSH2 0x42 PUSH1 0x20 DUP1 SWAP3 ADD PUSH2 0x2F1 JUMP JUMPDEST DUP4 MLOAD PUSH4 0x217CB6F5 PUSH1 0xE2 SHL DUP2 MSTORE PUSH1 0x1 PUSH1 0x1 PUSH1 0xA0 SHL SUB SWAP4 SWAP1 DUP2 DUP6 AND SWAP1 DUP5 DUP2 PUSH1 0x4 DUP2 DUP6 GAS STATICCALL SWAP1 DUP2 ISZERO PUSH2 0x2B0 JUMPI PUSH0 SWAP2 PUSH2 0x27B JUMPI JUMPDEST POP PUSH1 0x80 MSTORE DUP6 MLOAD PUSH4 0xFBFA77CF PUSH1 0xE0 SHL DUP2 MSTORE DUP4 DUP7 AND SWAP1 DUP6 DUP2 PUSH1 0x4 DUP2 DUP6 GAS STATICCALL SWAP1 DUP2 ISZERO PUSH2 0x271 JUMPI DUP4 SWAP2 DUP9 SWAP2 PUSH0 SWAP2 PUSH2 0x238 JUMPI JUMPDEST POP AND EQ SWAP1 DUP2 ISZERO SWAP2 PUSH2 0x22A JUMPI JUMPDEST POP PUSH2 0x21B JUMPI PUSH1 0x4 SWAP3 DUP5 SWAP3 PUSH1 0xC0 MSTORE PUSH1 0xA0 MSTORE DUP6 MLOAD SWAP3 DUP4 DUP1 SWAP3 PUSH4 0xAAABADC5 PUSH1 0xE0 SHL DUP3 MSTORE GAS STATICCALL SWAP2 DUP3 ISZERO PUSH2 0x211 JUMPI PUSH0 SWAP3 PUSH2 0x1D6 JUMPI JUMPDEST POP POP AND PUSH1 0xE0 MSTORE MLOAD PUSH2 0x1255 SWAP1 DUP2 PUSH2 0x306 DUP3 CODECOPY PUSH1 0x80 MLOAD DUP2 DUP2 DUP2 PUSH2 0x4BE ADD MSTORE DUP2 DUP2 PUSH2 0x533 ADD MSTORE PUSH2 0x113A ADD MSTORE PUSH1 0xA0 MLOAD DUP2 DUP2 DUP2 PUSH2 0x21D ADD MSTORE DUP2 DUP2 PUSH2 0x2CD ADD MSTORE DUP2 DUP2 PUSH2 0x57B ADD MSTORE DUP2 DUP2 PUSH2 0x5EA ADD MSTORE DUP2 DUP2 PUSH2 0x633 ADD MSTORE DUP2 DUP2 PUSH2 0x6A2 ADD MSTORE DUP2 DUP2 PUSH2 0x892 ADD MSTORE DUP2 DUP2 PUSH2 0x901 ADD MSTORE DUP2 DUP2 PUSH2 0x94A ADD MSTORE DUP2 DUP2 PUSH2 0x9B9 ADD MSTORE DUP2 DUP2 PUSH2 0xBC2 ADD MSTORE PUSH2 0x11A6 ADD MSTORE PUSH1 0xC0 MLOAD DUP2 DUP2 DUP2 PUSH1 0x94 ADD MSTORE PUSH2 0xA4F ADD MSTORE PUSH1 0xE0 MLOAD DUP2 DUP2 DUP2 PUSH2 0x315 ADD MSTORE DUP2 DUP2 PUSH2 0x376 ADD MSTORE DUP2 DUP2 PUSH2 0x3D3 ADD MSTORE DUP2 DUP2 PUSH2 0x434 ADD MSTORE DUP2 DUP2 PUSH2 0x6EB ADD MSTORE DUP2 DUP2 PUSH2 0x74D ADD MSTORE DUP2 DUP2 PUSH2 0x7AB ADD MSTORE DUP2 DUP2 PUSH2 0x80D ADD MSTORE DUP2 DUP2 PUSH2 0xAEC ADD MSTORE DUP2 DUP2 PUSH2 0xB4D ADD MSTORE DUP2 DUP2 PUSH2 0xC10 ADD MSTORE DUP2 DUP2 PUSH2 0xC72 ADD MSTORE DUP2 DUP2 PUSH2 0xCF8 ADD MSTORE DUP2 DUP2 PUSH2 0xD40 ADD MSTORE PUSH2 0xDA2 ADD MSTORE RETURN JUMPDEST SWAP1 DUP1 SWAP3 POP DUP2 RETURNDATASIZE DUP4 GT PUSH2 0x20A JUMPI JUMPDEST PUSH2 0x1ED DUP2 DUP4 PUSH2 0x2BA JUMP JUMPDEST DUP2 ADD SUB SLT PUSH2 0x206 JUMPI MLOAD DUP2 DUP2 AND DUP2 SUB PUSH2 0x206 JUMPI PUSH0 DUP1 PUSH2 0xDC JUMP JUMPDEST PUSH0 DUP1 REVERT JUMPDEST POP RETURNDATASIZE PUSH2 0x1E3 JUMP JUMPDEST DUP5 MLOAD RETURNDATASIZE PUSH0 DUP3 RETURNDATACOPY RETURNDATASIZE SWAP1 REVERT JUMPDEST PUSH4 0xD6F1CB05 PUSH1 0xE0 SHL PUSH0 MSTORE PUSH1 0x4 PUSH0 REVERT JUMPDEST SWAP1 POP DUP6 PUSH1 0x80 MLOAD AND EQ PUSH0 PUSH2 0xAC JUMP JUMPDEST SWAP3 POP POP POP DUP6 DUP2 DUP2 RETURNDATASIZE DUP4 GT PUSH2 0x26A JUMPI JUMPDEST PUSH2 0x251 DUP2 DUP4 PUSH2 0x2BA JUMP JUMPDEST DUP2 ADD SUB SLT PUSH2 0x206 JUMPI DUP7 PUSH2 0x264 DUP5 SWAP3 PUSH2 0x2F1 JUMP JUMPDEST PUSH0 PUSH2 0xA0 JUMP JUMPDEST POP RETURNDATASIZE PUSH2 0x247 JUMP JUMPDEST DUP9 MLOAD RETURNDATASIZE PUSH0 DUP3 RETURNDATACOPY RETURNDATASIZE SWAP1 REVERT JUMPDEST SWAP1 POP DUP5 DUP2 DUP2 RETURNDATASIZE DUP4 GT PUSH2 0x2A9 JUMPI JUMPDEST PUSH2 0x292 DUP2 DUP4 PUSH2 0x2BA JUMP JUMPDEST DUP2 ADD SUB SLT PUSH2 0x206 JUMPI PUSH2 0x2A3 SWAP1 PUSH2 0x2F1 JUMP JUMPDEST PUSH0 PUSH2 0x72 JUMP JUMPDEST POP RETURNDATASIZE PUSH2 0x288 JUMP JUMPDEST DUP8 MLOAD RETURNDATASIZE PUSH0 DUP3 RETURNDATACOPY RETURNDATASIZE SWAP1 REVERT JUMPDEST PUSH1 0x1F SWAP1 SWAP2 ADD PUSH1 0x1F NOT AND DUP2 ADD SWAP1 PUSH1 0x1 PUSH1 0x1 PUSH1 0x40 SHL SUB DUP3 GT SWAP1 DUP3 LT OR PUSH2 0x2DD JUMPI PUSH1 0x40 MSTORE JUMP JUMPDEST PUSH4 0x4E487B71 PUSH1 0xE0 SHL PUSH0 MSTORE PUSH1 0x41 PUSH1 0x4 MSTORE PUSH1 0x24 PUSH0 REVERT JUMPDEST MLOAD SWAP1 PUSH1 0x1 PUSH1 0x1 PUSH1 0xA0 SHL SUB DUP3 AND DUP3 SUB PUSH2 0x206 JUMPI JUMP INVALID PUSH1 0x80 DUP1 PUSH1 0x40 MSTORE PUSH1 0x4 CALLDATASIZE LT ISZERO PUSH2 0x12 JUMPI PUSH0 DUP1 REVERT JUMPDEST PUSH0 SWAP1 PUSH0 CALLDATALOAD PUSH1 0xE0 SHR SWAP1 DUP2 PUSH4 0x51DA116D EQ PUSH2 0x115E JUMPI POP DUP1 PUSH4 0x7EA3A964 EQ PUSH2 0x10F0 JUMPI DUP1 PUSH4 0xC2AD0F14 EQ PUSH2 0xBB JUMPI PUSH4 0xFBFA77CF EQ PUSH2 0x4A JUMPI PUSH0 DUP1 REVERT JUMPDEST CALLVALUE PUSH2 0xB8 JUMPI DUP1 PUSH32 0xFFFFFFFFFFFFFFFFFFFFFFFFFFFFFFFFFFFFFFFFFFFFFFFFFFFFFFFFFFFFFFFC CALLDATASIZE ADD SLT PUSH2 0xB8 JUMPI PUSH1 0x20 PUSH1 0x40 MLOAD PUSH20 0xFFFFFFFFFFFFFFFFFFFFFFFFFFFFFFFFFFFFFFFF PUSH32 0x0 AND DUP2 MSTORE RETURN JUMPDEST DUP1 REVERT JUMPDEST POP CALLVALUE PUSH2 0xE4E JUMPI PUSH1 0x20 PUSH32 0xFFFFFFFFFFFFFFFFFFFFFFFFFFFFFFFFFFFFFFFFFFFFFFFFFFFFFFFFFFFFFFFC CALLDATASIZE ADD SLT PUSH2 0xE4E JUMPI PUSH8 0xFFFFFFFFFFFFFFFF PUSH1 0x4 CALLDATALOAD DUP2 DUP2 GT PUSH2 0xE4E JUMPI CALLDATASIZE PUSH1 0x23 DUP3 ADD SLT ISZERO PUSH2 0xE4E JUMPI DUP1 PUSH1 0x4 ADD CALLDATALOAD SWAP2 DUP3 GT PUSH2 0x10C3 JUMPI DUP2 PUSH1 0x5 SHL SWAP1 PUSH1 0x40 MLOAD SWAP3 PUSH2 0x12B PUSH1 0x20 DUP5 ADD DUP6 PUSH2 0x11DE JUMP JUMPDEST DUP4 MSTORE PUSH1 0x24 PUSH1 0x20 DUP5 ADD SWAP3 DUP3 ADD ADD SWAP1 CALLDATASIZE DUP3 GT PUSH2 0xE4E JUMPI PUSH1 0x24 ADD SWAP2 JUMPDEST DUP2 DUP4 LT PUSH2 0x1096 JUMPI POP POP POP PUSH32 0x9B779B17422D0DF92223018B32B4D1FA46E071723D6817E2486D003BECC55F00 TLOAD PUSH2 0x106E JUMPI PUSH1 0x1 PUSH32 0x9B779B17422D0DF92223018B32B4D1FA46E071723D6817E2486D003BECC55F00 TSTORE PUSH0 SLOAD PUSH1 0xFF DUP2 AND PUSH2 0x1046 JUMPI PUSH32 0xFFFFFFFFFFFFFFFFFFFFFFFFFFFFFFFFFFFFFFFFFFFFFFFFFFFFFFFFFFFFFF00 AND PUSH1 0x1 OR PUSH0 SSTORE PUSH1 0x40 MLOAD PUSH32 0x851C1BB300000000000000000000000000000000000000000000000000000000 DUP2 MSTORE PUSH32 0x8A3C5C6900000000000000000000000000000000000000000000000000000000 PUSH1 0x4 DUP3 ADD MSTORE PUSH1 0x20 DUP2 PUSH1 0x24 DUP2 PUSH32 0x0 PUSH20 0xFFFFFFFFFFFFFFFFFFFFFFFFFFFFFFFFFFFFFFFF AND GAS STATICCALL SWAP1 DUP2 ISZERO PUSH2 0xFD5 JUMPI PUSH0 SWAP2 PUSH2 0x1014 JUMPI JUMPDEST POP PUSH1 0x40 MLOAD SWAP1 PUSH32 0x851C1BB300000000000000000000000000000000000000000000000000000000 DUP3 MSTORE PUSH32 0xA93DF2A400000000000000000000000000000000000000000000000000000000 PUSH1 0x4 DUP4 ADD MSTORE PUSH1 0x20 DUP3 PUSH1 0x24 DUP2 PUSH20 0xFFFFFFFFFFFFFFFFFFFFFFFFFFFFFFFFFFFFFFFF PUSH32 0x0 AND GAS STATICCALL SWAP2 DUP3 ISZERO PUSH2 0xFD5 JUMPI PUSH0 SWAP3 PUSH2 0xFE0 JUMPI JUMPDEST POP PUSH20 0xFFFFFFFFFFFFFFFFFFFFFFFFFFFFFFFFFFFFFFFF PUSH32 0x0 AND EXTCODESIZE ISZERO PUSH2 0xE4E JUMPI PUSH1 0x40 MLOAD PUSH32 0x2F2FF15D00000000000000000000000000000000000000000000000000000000 DUP2 MSTORE PUSH1 0x4 DUP2 ADD DUP3 SWAP1 MSTORE ADDRESS PUSH1 0x24 DUP3 ADD MSTORE PUSH0 DUP2 PUSH1 0x44 DUP2 DUP4 PUSH32 0x0 PUSH20 0xFFFFFFFFFFFFFFFFFFFFFFFFFFFFFFFFFFFFFFFF AND GAS CALL DUP1 ISZERO PUSH2 0xFD5 JUMPI PUSH2 0xFC0 JUMPI JUMPDEST POP SWAP1 DUP4 SWAP2 PUSH20 0xFFFFFFFFFFFFFFFFFFFFFFFFFFFFFFFFFFFFFFFF PUSH32 0x0 AND EXTCODESIZE ISZERO PUSH2 0xA04 JUMPI PUSH1 0x40 MLOAD PUSH32 0x2F2FF15D00000000000000000000000000000000000000000000000000000000 DUP2 MSTORE PUSH1 0x4 DUP2 ADD DUP4 SWAP1 MSTORE ADDRESS PUSH1 0x24 DUP3 ADD MSTORE DUP4 DUP2 PUSH1 0x44 DUP2 DUP4 PUSH32 0x0 PUSH20 0xFFFFFFFFFFFFFFFFFFFFFFFFFFFFFFFFFFFFFFFF AND GAS CALL SWAP1 DUP2 ISZERO PUSH2 0xEDD JUMPI DUP5 SWAP2 PUSH2 0xFAC JUMPI JUMPDEST POP POP PUSH1 0x40 MLOAD PUSH32 0x7869EE1800000000000000000000000000000000000000000000000000000000 DUP2 MSTORE PUSH1 0x20 DUP2 PUSH1 0x4 DUP2 PUSH20 0xFFFFFFFFFFFFFFFFFFFFFFFFFFFFFFFFFFFFFFFF PUSH32 0x0 AND GAS STATICCALL SWAP1 DUP2 ISZERO PUSH2 0xEDD JUMPI DUP5 SWAP2 PUSH2 0xF77 JUMPI JUMPDEST POP PUSH1 0x40 MLOAD SWAP1 PUSH32 0x55FB76AF00000000000000000000000000000000000000000000000000000000 DUP3 MSTORE PUSH1 0x20 DUP3 PUSH1 0x4 DUP2 PUSH20 0xFFFFFFFFFFFFFFFFFFFFFFFFFFFFFFFFFFFFFFFF PUSH32 0x0 AND GAS STATICCALL SWAP2 DUP3 ISZERO PUSH2 0xE9B JUMPI DUP6 SWAP3 PUSH2 0xF40 JUMPI JUMPDEST POP PUSH20 0xFFFFFFFFFFFFFFFFFFFFFFFFFFFFFFFFFFFFFFFF PUSH32 0x0 AND EXTCODESIZE ISZERO PUSH2 0xF3C JUMPI PUSH1 0x40 MLOAD SWAP1 PUSH32 0x8A3C5C6900000000000000000000000000000000000000000000000000000000 DUP3 MSTORE PUSH1 0x4 DUP3 ADD MSTORE DUP5 DUP2 PUSH1 0x24 DUP2 DUP4 PUSH20 0xFFFFFFFFFFFFFFFFFFFFFFFFFFFFFFFFFFFFFFFF PUSH32 0x0 AND GAS CALL SWAP1 DUP2 ISZERO PUSH2 0xE9B JUMPI DUP6 SWAP2 PUSH2 0xF28 JUMPI JUMPDEST POP POP PUSH20 0xFFFFFFFFFFFFFFFFFFFFFFFFFFFFFFFFFFFFFFFF PUSH32 0x0 AND EXTCODESIZE ISZERO PUSH2 0xF24 JUMPI PUSH1 0x40 MLOAD SWAP1 PUSH32 0xA93DF2A400000000000000000000000000000000000000000000000000000000 DUP3 MSTORE PUSH1 0x4 DUP3 ADD MSTORE DUP4 DUP2 PUSH1 0x24 DUP2 DUP4 PUSH20 0xFFFFFFFFFFFFFFFFFFFFFFFFFFFFFFFFFFFFFFFF PUSH32 0x0 AND GAS CALL SWAP1 DUP2 ISZERO PUSH2 0xEDD JUMPI DUP5 SWAP2 PUSH2 0xF10 JUMPI JUMPDEST POP POP PUSH20 0xFFFFFFFFFFFFFFFFFFFFFFFFFFFFFFFFFFFFFFFF PUSH32 0x0 AND EXTCODESIZE ISZERO PUSH2 0xA04 JUMPI PUSH1 0x40 MLOAD PUSH32 0x36568ABE00000000000000000000000000000000000000000000000000000000 DUP2 MSTORE PUSH1 0x4 DUP2 ADD SWAP2 SWAP1 SWAP2 MSTORE ADDRESS PUSH1 0x24 DUP3 ADD MSTORE DUP3 DUP2 PUSH1 0x44 DUP2 DUP4 PUSH32 0x0 PUSH20 0xFFFFFFFFFFFFFFFFFFFFFFFFFFFFFFFFFFFFFFFF AND GAS CALL SWAP1 DUP2 ISZERO PUSH2 0xA2B JUMPI DUP4 SWAP2 PUSH2 0xEFC JUMPI JUMPDEST POP POP PUSH20 0xFFFFFFFFFFFFFFFFFFFFFFFFFFFFFFFFFFFFFFFF PUSH32 0x0 AND EXTCODESIZE ISZERO PUSH2 0xA13 JUMPI PUSH1 0x40 MLOAD PUSH32 0x36568ABE00000000000000000000000000000000000000000000000000000000 DUP2 MSTORE PUSH1 0x4 DUP2 ADD SWAP2 SWAP1 SWAP2 MSTORE ADDRESS PUSH1 0x24 DUP3 ADD MSTORE DUP2 DUP2 PUSH1 0x44 DUP2 DUP4 PUSH32 0x0 PUSH20 0xFFFFFFFFFFFFFFFFFFFFFFFFFFFFFFFFFFFFFFFF AND GAS CALL DUP1 ISZERO PUSH2 0xA08 JUMPI PUSH2 0xEE8 JUMPI JUMPDEST POP JUMPDEST DUP2 MLOAD DUP2 LT ISZERO PUSH2 0xA36 JUMPI DUP3 PUSH20 0xFFFFFFFFFFFFFFFFFFFFFFFFFFFFFFFFFFFFFFFF PUSH1 0x20 DUP4 PUSH1 0x5 SHL DUP6 ADD ADD MLOAD AND PUSH20 0xFFFFFFFFFFFFFFFFFFFFFFFFFFFFFFFFFFFFFFFF PUSH32 0x0 AND EXTCODESIZE ISZERO PUSH2 0xA13 JUMPI PUSH1 0x40 MLOAD PUSH32 0x71ECC8FB00000000000000000000000000000000000000000000000000000000 DUP2 MSTORE DUP2 PUSH1 0x4 DUP3 ADD MSTORE DUP3 DUP2 PUSH1 0x24 DUP2 DUP4 PUSH20 0xFFFFFFFFFFFFFFFFFFFFFFFFFFFFFFFFFFFFFFFF PUSH32 0x0 AND GAS CALL SWAP1 DUP2 ISZERO PUSH2 0xA2B JUMPI DUP4 SWAP2 PUSH2 0xA17 JUMPI JUMPDEST POP POP PUSH20 0xFFFFFFFFFFFFFFFFFFFFFFFFFFFFFFFFFFFFFFFF PUSH32 0x0 AND EXTCODESIZE ISZERO PUSH2 0xA13 JUMPI PUSH1 0x40 MLOAD SWAP1 PUSH32 0x71447EA800000000000000000000000000000000000000000000000000000000 DUP3 MSTORE PUSH1 0x4 DUP3 ADD MSTORE DUP2 DUP2 PUSH1 0x24 DUP2 DUP4 PUSH20 0xFFFFFFFFFFFFFFFFFFFFFFFFFFFFFFFFFFFFFFFF PUSH32 0x0 AND GAS CALL DUP1 ISZERO PUSH2 0xA08 JUMPI PUSH2 0x9F0 JUMPI JUMPDEST POP POP PUSH1 0x1 ADD PUSH2 0x851 JUMP JUMPDEST PUSH2 0x9F9 SWAP1 PUSH2 0x11CA JUMP JUMPDEST PUSH2 0xA04 JUMPI DUP3 PUSH0 PUSH2 0x9E6 JUMP JUMPDEST DUP3 DUP1 REVERT JUMPDEST PUSH1 0x40 MLOAD RETURNDATASIZE DUP5 DUP3 RETURNDATACOPY RETURNDATASIZE SWAP1 REVERT JUMPDEST POP DUP1 REVERT JUMPDEST PUSH2 0xA20 SWAP1 PUSH2 0x11CA JUMP JUMPDEST PUSH2 0xA13 JUMPI DUP2 PUSH0 PUSH2 0x931 JUMP JUMPDEST PUSH1 0x40 MLOAD RETURNDATASIZE DUP6 DUP3 RETURNDATACOPY RETURNDATASIZE SWAP1 REVERT JUMPDEST DUP3 DUP1 PUSH20 0xFFFFFFFFFFFFFFFFFFFFFFFFFFFFFFFFFFFFFFFF PUSH32 0x0 AND PUSH1 0x40 MLOAD SWAP1 PUSH32 0x851C1BB300000000000000000000000000000000000000000000000000000000 DUP3 MSTORE PUSH32 0x2D77138900000000000000000000000000000000000000000000000000000000 DUP1 PUSH1 0x4 DUP5 ADD MSTORE PUSH1 0x20 DUP4 PUSH1 0x24 DUP2 DUP6 GAS STATICCALL SWAP3 DUP4 ISZERO PUSH2 0xEDD JUMPI DUP5 SWAP4 PUSH2 0xEA6 JUMPI JUMPDEST POP PUSH20 0xFFFFFFFFFFFFFFFFFFFFFFFFFFFFFFFFFFFFFFFF PUSH32 0x0 AND EXTCODESIZE ISZERO PUSH2 0xE82 JUMPI PUSH1 0x40 MLOAD PUSH32 0x2F2FF15D00000000000000000000000000000000000000000000000000000000 DUP2 MSTORE PUSH1 0x4 DUP2 ADD DUP5 SWAP1 MSTORE ADDRESS PUSH1 0x24 DUP3 ADD MSTORE DUP5 DUP2 PUSH1 0x44 DUP2 DUP4 PUSH32 0x0 PUSH20 0xFFFFFFFFFFFFFFFFFFFFFFFFFFFFFFFFFFFFFFFF AND GAS CALL SWAP1 DUP2 ISZERO PUSH2 0xE9B JUMPI DUP6 SWAP2 PUSH2 0xE87 JUMPI JUMPDEST POP POP DUP2 EXTCODESIZE ISZERO PUSH2 0xE82 JUMPI DUP4 SWAP2 PUSH1 0x24 DUP4 SWAP3 PUSH1 0x40 MLOAD SWAP5 DUP6 SWAP4 DUP5 SWAP3 DUP4 MSTORE PUSH20 0xFFFFFFFFFFFFFFFFFFFFFFFFFFFFFFFFFFFFFFFF PUSH32 0x0 AND PUSH1 0x4 DUP5 ADD MSTORE GAS CALL SWAP1 DUP2 ISZERO PUSH2 0xA2B JUMPI DUP4 SWAP2 PUSH2 0xE6E JUMPI JUMPDEST POP POP PUSH20 0xFFFFFFFFFFFFFFFFFFFFFFFFFFFFFFFFFFFFFFFF PUSH32 0x0 AND EXTCODESIZE ISZERO PUSH2 0xE1E JUMPI PUSH1 0x40 MLOAD PUSH32 0x36568ABE00000000000000000000000000000000000000000000000000000000 DUP2 MSTORE PUSH1 0x4 DUP2 ADD SWAP2 SWAP1 SWAP2 MSTORE ADDRESS PUSH1 0x24 DUP3 ADD MSTORE DUP2 DUP2 PUSH1 0x44 DUP2 DUP4 PUSH32 0x0 PUSH20 0xFFFFFFFFFFFFFFFFFFFFFFFFFFFFFFFFFFFFFFFF AND GAS CALL DUP1 ISZERO PUSH2 0xA08 JUMPI PUSH2 0xE5A JUMPI JUMPDEST POP PUSH1 0x40 MLOAD PUSH32 0xA217FDDF00000000000000000000000000000000000000000000000000000000 DUP2 MSTORE PUSH1 0x20 DUP2 PUSH1 0x4 DUP2 PUSH20 0xFFFFFFFFFFFFFFFFFFFFFFFFFFFFFFFFFFFFFFFF PUSH32 0x0 AND GAS STATICCALL SWAP1 DUP2 ISZERO PUSH2 0xA08 JUMPI DUP3 SWAP2 PUSH2 0xE21 JUMPI JUMPDEST POP PUSH20 0xFFFFFFFFFFFFFFFFFFFFFFFFFFFFFFFFFFFFFFFF PUSH32 0x0 AND EXTCODESIZE ISZERO PUSH2 0xE1E JUMPI PUSH1 0x40 MLOAD PUSH32 0x36568ABE00000000000000000000000000000000000000000000000000000000 DUP2 MSTORE PUSH1 0x4 DUP2 ADD SWAP2 SWAP1 SWAP2 MSTORE ADDRESS PUSH1 0x24 DUP3 ADD MSTORE DUP2 DUP2 PUSH1 0x44 DUP2 DUP4 PUSH32 0x0 PUSH20 0xFFFFFFFFFFFFFFFFFFFFFFFFFFFFFFFFFFFFFFFF AND GAS CALL DUP1 ISZERO PUSH2 0xA08 JUMPI PUSH2 0xE0A JUMPI JUMPDEST POP PUSH32 0x9B779B17422D0DF92223018B32B4D1FA46E071723D6817E2486D003BECC55F00 TSTORE DUP1 RETURN JUMPDEST PUSH2 0xE13 SWAP1 PUSH2 0x11CA JUMP JUMPDEST PUSH2 0xB8 JUMPI DUP1 DUP3 PUSH2 0xDE4 JUMP JUMPDEST POP REVERT JUMPDEST SWAP2 POP POP PUSH1 0x20 DUP2 RETURNDATASIZE PUSH1 0x20 GT PUSH2 0xE52 JUMPI JUMPDEST DUP2 PUSH2 0xE3D PUSH1 0x20 SWAP4 DUP4 PUSH2 0x11DE JUMP JUMPDEST DUP2 ADD SUB SLT PUSH2 0xE4E JUMPI DUP2 SWAP1 MLOAD DUP4 PUSH2 0xD28 JUMP JUMPDEST PUSH0 DUP1 REVERT JUMPDEST RETURNDATASIZE SWAP2 POP PUSH2 0xE30 JUMP JUMPDEST PUSH2 0xE63 SWAP1 PUSH2 0x11CA JUMP JUMPDEST PUSH2 0xB8 JUMPI DUP1 DUP3 PUSH2 0xCB4 JUMP JUMPDEST PUSH2 0xE77 SWAP1 PUSH2 0x11CA JUMP JUMPDEST PUSH2 0xE1E JUMPI DUP2 DUP5 PUSH2 0xBF7 JUMP JUMPDEST POP POP POP REVERT JUMPDEST PUSH2 0xE90 SWAP1 PUSH2 0x11CA JUMP JUMPDEST PUSH2 0xE82 JUMPI DUP4 DUP7 PUSH2 0xB92 JUMP JUMPDEST PUSH1 0x40 MLOAD RETURNDATASIZE DUP8 DUP3 RETURNDATACOPY RETURNDATASIZE SWAP1 REVERT JUMPDEST SWAP4 POP SWAP2 POP PUSH1 0x20 DUP4 RETURNDATASIZE PUSH1 0x20 GT PUSH2 0xED5 JUMPI JUMPDEST DUP2 PUSH2 0xEC3 PUSH1 0x20 SWAP4 DUP4 PUSH2 0x11DE JUMP JUMPDEST DUP2 ADD SUB SLT PUSH2 0xE4E JUMPI DUP4 SWAP3 MLOAD SWAP2 DUP6 PUSH2 0xAD4 JUMP JUMPDEST RETURNDATASIZE SWAP2 POP PUSH2 0xEB6 JUMP JUMPDEST PUSH1 0x40 MLOAD RETURNDATASIZE DUP7 DUP3 RETURNDATACOPY RETURNDATASIZE SWAP1 REVERT JUMPDEST PUSH2 0xEF1 SWAP1 PUSH2 0x11CA JUMP JUMPDEST PUSH2 0xA13 JUMPI DUP2 PUSH0 PUSH2 0x84F JUMP JUMPDEST PUSH2 0xF05 SWAP1 PUSH2 0x11CA JUMP JUMPDEST PUSH2 0xA13 JUMPI DUP2 PUSH0 PUSH2 0x792 JUMP JUMPDEST PUSH2 0xF19 SWAP1 PUSH2 0x11CA JUMP JUMPDEST PUSH2 0xA04 JUMPI DUP3 PUSH0 PUSH2 0x6D2 JUMP JUMPDEST DUP4 DUP1 REVERT JUMPDEST PUSH2 0xF31 SWAP1 PUSH2 0x11CA JUMP JUMPDEST PUSH2 0xF24 JUMPI DUP4 PUSH0 PUSH2 0x61A JUMP JUMPDEST DUP5 DUP1 REVERT JUMPDEST SWAP5 POP SWAP1 POP PUSH1 0x20 DUP5 RETURNDATASIZE PUSH1 0x20 GT PUSH2 0xF6F JUMPI JUMPDEST DUP2 PUSH2 0xF5D PUSH1 0x20 SWAP4 DUP4 PUSH2 0x11DE JUMP JUMPDEST DUP2 ADD SUB SLT PUSH2 0xE4E JUMPI DUP6 SWAP4 MLOAD SWAP1 PUSH0 PUSH2 0x563 JUMP JUMPDEST RETURNDATASIZE SWAP2 POP PUSH2 0xF50 JUMP JUMPDEST SWAP4 POP POP PUSH1 0x20 DUP4 RETURNDATASIZE PUSH1 0x20 GT PUSH2 0xFA4 JUMPI JUMPDEST DUP2 PUSH2 0xF93 PUSH1 0x20 SWAP4 DUP4 PUSH2 0x11DE JUMP JUMPDEST DUP2 ADD SUB SLT PUSH2 0xE4E JUMPI DUP5 SWAP3 MLOAD PUSH0 PUSH2 0x4EE JUMP JUMPDEST RETURNDATASIZE SWAP2 POP PUSH2 0xF86 JUMP JUMPDEST PUSH2 0xFB5 SWAP1 PUSH2 0x11CA JUMP JUMPDEST PUSH2 0xA04 JUMPI DUP3 PUSH0 PUSH2 0x479 JUMP JUMPDEST PUSH2 0xFCC SWAP2 SWAP3 SWAP5 POP PUSH2 0x11CA JUMP JUMPDEST PUSH0 SWAP3 SWAP1 PUSH0 PUSH2 0x3B8 JUMP JUMPDEST PUSH1 0x40 MLOAD RETURNDATASIZE PUSH0 DUP3 RETURNDATACOPY RETURNDATASIZE SWAP1 REVERT JUMPDEST SWAP1 SWAP2 POP PUSH1 0x20 DUP2 RETURNDATASIZE PUSH1 0x20 GT PUSH2 0x100C JUMPI JUMPDEST DUP2 PUSH2 0xFFC PUSH1 0x20 SWAP4 DUP4 PUSH2 0x11DE JUMP JUMPDEST DUP2 ADD SUB SLT PUSH2 0xE4E JUMPI MLOAD SWAP1 PUSH0 PUSH2 0x2FD JUMP JUMPDEST RETURNDATASIZE SWAP2 POP PUSH2 0xFEF JUMP JUMPDEST SWAP1 POP PUSH1 0x20 DUP2 RETURNDATASIZE PUSH1 0x20 GT PUSH2 0x103E JUMPI JUMPDEST DUP2 PUSH2 0x102F PUSH1 0x20 SWAP4 DUP4 PUSH2 0x11DE JUMP JUMPDEST DUP2 ADD SUB SLT PUSH2 0xE4E JUMPI MLOAD PUSH0 PUSH2 0x262 JUMP JUMPDEST RETURNDATASIZE SWAP2 POP PUSH2 0x1022 JUMP JUMPDEST PUSH32 0xCA1C3CBC00000000000000000000000000000000000000000000000000000000 PUSH0 MSTORE PUSH1 0x4 PUSH0 REVERT JUMPDEST PUSH32 0x3EE5AEB500000000000000000000000000000000000000000000000000000000 PUSH0 MSTORE PUSH1 0x4 PUSH0 REVERT JUMPDEST DUP3 CALLDATALOAD PUSH20 0xFFFFFFFFFFFFFFFFFFFFFFFFFFFFFFFFFFFFFFFF DUP2 AND DUP2 SUB PUSH2 0xE4E JUMPI DUP2 MSTORE PUSH1 0x20 SWAP3 DUP4 ADD SWAP3 ADD PUSH2 0x144 JUMP JUMPDEST PUSH32 0x4E487B7100000000000000000000000000000000000000000000000000000000 PUSH0 MSTORE PUSH1 0x41 PUSH1 0x4 MSTORE PUSH1 0x24 PUSH0 REVERT JUMPDEST CALLVALUE PUSH2 0xE4E JUMPI PUSH0 PUSH32 0xFFFFFFFFFFFFFFFFFFFFFFFFFFFFFFFFFFFFFFFFFFFFFFFFFFFFFFFFFFFFFFFC CALLDATASIZE ADD SLT PUSH2 0xE4E JUMPI PUSH1 0x20 PUSH1 0x40 MLOAD PUSH20 0xFFFFFFFFFFFFFFFFFFFFFFFFFFFFFFFFFFFFFFFF PUSH32 0x0 AND DUP2 MSTORE RETURN JUMPDEST CALLVALUE PUSH2 0xE4E JUMPI PUSH0 PUSH32 0xFFFFFFFFFFFFFFFFFFFFFFFFFFFFFFFFFFFFFFFFFFFFFFFFFFFFFFFFFFFFFFFC CALLDATASIZE ADD SLT PUSH2 0xE4E JUMPI PUSH1 0x20 SWAP1 PUSH20 0xFFFFFFFFFFFFFFFFFFFFFFFFFFFFFFFFFFFFFFFF PUSH32 0x0 AND DUP2 MSTORE RETURN JUMPDEST PUSH8 0xFFFFFFFFFFFFFFFF DUP2 GT PUSH2 0x10C3 JUMPI PUSH1 0x40 MSTORE JUMP JUMPDEST SWAP1 PUSH1 0x1F PUSH32 0xFFFFFFFFFFFFFFFFFFFFFFFFFFFFFFFFFFFFFFFFFFFFFFFFFFFFFFFFFFFFFFE0 SWAP2 ADD AND DUP2 ADD SWAP1 DUP2 LT PUSH8 0xFFFFFFFFFFFFFFFF DUP3 GT OR PUSH2 0x10C3 JUMPI PUSH1 0x40 MSTORE JUMP INVALID LOG2 PUSH5 0x6970667358 0x22 SLT KECCAK256 SWAP10 0xC1 0xE7 0xAB SIGNEXTEND 0xED PUSH29 0x157302CC163E0DC09D0DF8A426A97850FCCE96C1625FB28E1B64736F6C PUSH4 0x4300081B STOP CALLER "},"methodIdentifiers":{"migrateFeeController(address[])":"c2ad0f14","newFeeController()":"51da116d","oldFeeController()":"7ea3a964","vault()":"fbfa77cf"}}}}}