{
  "_format": "hh-sol-artifact-1",
  "contractName": "CowSwapFeeBurner",
  "sourceName": "contracts/CowSwapFeeBurner.sol",
  "abi": [
    {
      "inputs": [
        {
          "internalType": "contract IVault",
          "name": "_vault",
          "type": "address"
        },
        {
          "internalType": "contract IComposableCow",
          "name": "_composableCow",
          "type": "address"
        },
        {
          "internalType": "address",
          "name": "_vaultRelayer",
          "type": "address"
        },
        {
          "internalType": "bytes32",
          "name": "_appData",
          "type": "bytes32"
        }
      ],
      "stateMutability": "nonpayable",
      "type": "constructor"
    },
    {
      "inputs": [
        {
          "internalType": "address",
          "name": "target",
          "type": "address"
        }
      ],
      "name": "AddressEmptyCode",
      "type": "error"
    },
    {
      "inputs": [
        {
          "internalType": "address",
          "name": "account",
          "type": "address"
        }
      ],
      "name": "AddressInsufficientBalance",
      "type": "error"
    },
    {
      "inputs": [
        {
          "internalType": "contract IERC20",
          "name": "tokenOut",
          "type": "address"
        },
        {
          "internalType": "uint256",
          "name": "amountOut",
          "type": "uint256"
        },
        {
          "internalType": "uint256",
          "name": "minAmountOut",
          "type": "uint256"
        }
      ],
      "name": "AmountOutBelowMin",
      "type": "error"
    },
    {
      "inputs": [],
      "name": "FailedInnerCall",
      "type": "error"
    },
    {
      "inputs": [],
      "name": "InterfaceIsSignatureVerifierMuxer",
      "type": "error"
    },
    {
      "inputs": [
        {
          "internalType": "string",
          "name": "reason",
          "type": "string"
        }
      ],
      "name": "InvalidOrderParameters",
      "type": "error"
    },
    {
      "inputs": [
        {
          "internalType": "enum ICowSwapFeeBurner.OrderStatus",
          "name": "actualStatus",
          "type": "uint8"
        }
      ],
      "name": "OrderHasUnexpectedStatus",
      "type": "error"
    },
    {
      "inputs": [
        {
          "internalType": "string",
          "name": "reason",
          "type": "string"
        }
      ],
      "name": "OrderNotValid",
      "type": "error"
    },
    {
      "inputs": [
        {
          "internalType": "string",
          "name": "reason",
          "type": "string"
        }
      ],
      "name": "PollNever",
      "type": "error"
    },
    {
      "inputs": [
        {
          "internalType": "uint256",
          "name": "blockNumber",
          "type": "uint256"
        },
        {
          "internalType": "string",
          "name": "reason",
          "type": "string"
        }
      ],
      "name": "PollTryAtBlock",
      "type": "error"
    },
    {
      "inputs": [
        {
          "internalType": "uint256",
          "name": "timestamp",
          "type": "uint256"
        },
        {
          "internalType": "string",
          "name": "reason",
          "type": "string"
        }
      ],
      "name": "PollTryAtEpoch",
      "type": "error"
    },
    {
      "inputs": [
        {
          "internalType": "string",
          "name": "reason",
          "type": "string"
        }
      ],
      "name": "PollTryNextBlock",
      "type": "error"
    },
    {
      "inputs": [
        {
          "internalType": "address",
          "name": "token",
          "type": "address"
        }
      ],
      "name": "SafeERC20FailedOperation",
      "type": "error"
    },
    {
      "inputs": [],
      "name": "SenderNotAllowed",
      "type": "error"
    },
    {
      "inputs": [],
      "name": "SwapDeadline",
      "type": "error"
    },
    {
      "anonymous": false,
      "inputs": [
        {
          "indexed": true,
          "internalType": "address",
          "name": "owner",
          "type": "address"
        },
        {
          "components": [
            {
              "internalType": "contract ICowConditionalOrder",
              "name": "handler",
              "type": "address"
            },
            {
              "internalType": "bytes32",
              "name": "salt",
              "type": "bytes32"
            },
            {
              "internalType": "bytes",
              "name": "staticData",
              "type": "bytes"
            }
          ],
          "indexed": false,
          "internalType": "struct ICowConditionalOrder.ConditionalOrderParams",
          "name": "params",
          "type": "tuple"
        }
      ],
      "name": "ConditionalOrderCreated",
      "type": "event"
    },
    {
      "anonymous": false,
      "inputs": [
        {
          "indexed": false,
          "internalType": "contract IERC20",
          "name": "tokenIn",
          "type": "address"
        },
        {
          "indexed": false,
          "internalType": "uint256",
          "name": "exactAmountIn",
          "type": "uint256"
        },
        {
          "indexed": false,
          "internalType": "address",
          "name": "receiver",
          "type": "address"
        }
      ],
      "name": "OrderCanceled",
      "type": "event"
    },
    {
      "anonymous": false,
      "inputs": [
        {
          "indexed": false,
          "internalType": "contract IERC20",
          "name": "tokenIn",
          "type": "address"
        },
        {
          "indexed": false,
          "internalType": "uint256",
          "name": "exactAmountIn",
          "type": "uint256"
        },
        {
          "indexed": false,
          "internalType": "uint256",
          "name": "minAmountOut",
          "type": "uint256"
        },
        {
          "indexed": false,
          "internalType": "uint256",
          "name": "deadline",
          "type": "uint256"
        }
      ],
      "name": "OrderRetried",
      "type": "event"
    },
    {
      "anonymous": false,
      "inputs": [
        {
          "indexed": true,
          "internalType": "address",
          "name": "pool",
          "type": "address"
        },
        {
          "indexed": true,
          "internalType": "contract IERC20",
          "name": "feeToken",
          "type": "address"
        },
        {
          "indexed": false,
          "internalType": "uint256",
          "name": "exactFeeTokenAmountIn",
          "type": "uint256"
        },
        {
          "indexed": true,
          "internalType": "contract IERC20",
          "name": "targetToken",
          "type": "address"
        },
        {
          "indexed": false,
          "internalType": "uint256",
          "name": "actualTargetTokenAmountOut",
          "type": "uint256"
        },
        {
          "indexed": false,
          "internalType": "address",
          "name": "recipient",
          "type": "address"
        }
      ],
      "name": "ProtocolFeeBurned",
      "type": "event"
    },
    {
      "inputs": [],
      "name": "appData",
      "outputs": [
        {
          "internalType": "bytes32",
          "name": "",
          "type": "bytes32"
        }
      ],
      "stateMutability": "view",
      "type": "function"
    },
    {
      "inputs": [
        {
          "internalType": "address",
          "name": "pool",
          "type": "address"
        },
        {
          "internalType": "contract IERC20",
          "name": "feeToken",
          "type": "address"
        },
        {
          "internalType": "uint256",
          "name": "feeTokenAmount",
          "type": "uint256"
        },
        {
          "internalType": "contract IERC20",
          "name": "targetToken",
          "type": "address"
        },
        {
          "internalType": "uint256",
          "name": "minAmountOut",
          "type": "uint256"
        },
        {
          "internalType": "address",
          "name": "recipient",
          "type": "address"
        },
        {
          "internalType": "uint256",
          "name": "deadline",
          "type": "uint256"
        }
      ],
      "name": "burn",
      "outputs": [],
      "stateMutability": "nonpayable",
      "type": "function"
    },
    {
      "inputs": [
        {
          "internalType": "contract IERC20",
          "name": "tokenIn",
          "type": "address"
        },
        {
          "internalType": "address",
          "name": "receiver",
          "type": "address"
        }
      ],
      "name": "cancelOrder",
      "outputs": [],
      "stateMutability": "nonpayable",
      "type": "function"
    },
    {
      "inputs": [],
      "name": "composableCow",
      "outputs": [
        {
          "internalType": "contract IComposableCow",
          "name": "",
          "type": "address"
        }
      ],
      "stateMutability": "view",
      "type": "function"
    },
    {
      "inputs": [
        {
          "internalType": "contract IERC20",
          "name": "tokenIn",
          "type": "address"
        },
        {
          "internalType": "address",
          "name": "receiver",
          "type": "address"
        }
      ],
      "name": "emergencyCancelOrder",
      "outputs": [],
      "stateMutability": "nonpayable",
      "type": "function"
    },
    {
      "inputs": [
        {
          "internalType": "bytes4",
          "name": "selector",
          "type": "bytes4"
        }
      ],
      "name": "getActionId",
      "outputs": [
        {
          "internalType": "bytes32",
          "name": "",
          "type": "bytes32"
        }
      ],
      "stateMutability": "view",
      "type": "function"
    },
    {
      "inputs": [],
      "name": "getAuthorizer",
      "outputs": [
        {
          "internalType": "contract IAuthorizer",
          "name": "",
          "type": "address"
        }
      ],
      "stateMutability": "view",
      "type": "function"
    },
    {
      "inputs": [
        {
          "internalType": "contract IERC20",
          "name": "tokenIn",
          "type": "address"
        }
      ],
      "name": "getOrder",
      "outputs": [
        {
          "components": [
            {
              "internalType": "contract IERC20",
              "name": "sellToken",
              "type": "address"
            },
            {
              "internalType": "contract IERC20",
              "name": "buyToken",
              "type": "address"
            },
            {
              "internalType": "address",
              "name": "receiver",
              "type": "address"
            },
            {
              "internalType": "uint256",
              "name": "sellAmount",
              "type": "uint256"
            },
            {
              "internalType": "uint256",
              "name": "buyAmount",
              "type": "uint256"
            },
            {
              "internalType": "uint32",
              "name": "validTo",
              "type": "uint32"
            },
            {
              "internalType": "bytes32",
              "name": "appData",
              "type": "bytes32"
            },
            {
              "internalType": "uint256",
              "name": "feeAmount",
              "type": "uint256"
            },
            {
              "internalType": "bytes32",
              "name": "kind",
              "type": "bytes32"
            },
            {
              "internalType": "bool",
              "name": "partiallyFillable",
              "type": "bool"
            },
            {
              "internalType": "bytes32",
              "name": "sellTokenBalance",
              "type": "bytes32"
            },
            {
              "internalType": "bytes32",
              "name": "buyTokenBalance",
              "type": "bytes32"
            }
          ],
          "internalType": "struct GPv2Order",
          "name": "",
          "type": "tuple"
        }
      ],
      "stateMutability": "view",
      "type": "function"
    },
    {
      "inputs": [
        {
          "internalType": "contract IERC20",
          "name": "tokenIn",
          "type": "address"
        }
      ],
      "name": "getOrderStatus",
      "outputs": [
        {
          "internalType": "enum ICowSwapFeeBurner.OrderStatus",
          "name": "status",
          "type": "uint8"
        }
      ],
      "stateMutability": "view",
      "type": "function"
    },
    {
      "inputs": [
        {
          "internalType": "address",
          "name": "",
          "type": "address"
        },
        {
          "internalType": "address",
          "name": "",
          "type": "address"
        },
        {
          "internalType": "bytes32",
          "name": "",
          "type": "bytes32"
        },
        {
          "internalType": "bytes",
          "name": "staticInput",
          "type": "bytes"
        },
        {
          "internalType": "bytes",
          "name": "",
          "type": "bytes"
        }
      ],
      "name": "getTradeableOrder",
      "outputs": [
        {
          "components": [
            {
              "internalType": "contract IERC20",
              "name": "sellToken",
              "type": "address"
            },
            {
              "internalType": "contract IERC20",
              "name": "buyToken",
              "type": "address"
            },
            {
              "internalType": "address",
              "name": "receiver",
              "type": "address"
            },
            {
              "internalType": "uint256",
              "name": "sellAmount",
              "type": "uint256"
            },
            {
              "internalType": "uint256",
              "name": "buyAmount",
              "type": "uint256"
            },
            {
              "internalType": "uint32",
              "name": "validTo",
              "type": "uint32"
            },
            {
              "internalType": "bytes32",
              "name": "appData",
              "type": "bytes32"
            },
            {
              "internalType": "uint256",
              "name": "feeAmount",
              "type": "uint256"
            },
            {
              "internalType": "bytes32",
              "name": "kind",
              "type": "bytes32"
            },
            {
              "internalType": "bool",
              "name": "partiallyFillable",
              "type": "bool"
            },
            {
              "internalType": "bytes32",
              "name": "sellTokenBalance",
              "type": "bytes32"
            },
            {
              "internalType": "bytes32",
              "name": "buyTokenBalance",
              "type": "bytes32"
            }
          ],
          "internalType": "struct GPv2Order",
          "name": "",
          "type": "tuple"
        }
      ],
      "stateMutability": "view",
      "type": "function"
    },
    {
      "inputs": [],
      "name": "getVault",
      "outputs": [
        {
          "internalType": "contract IVault",
          "name": "",
          "type": "address"
        }
      ],
      "stateMutability": "view",
      "type": "function"
    },
    {
      "inputs": [
        {
          "internalType": "bytes32",
          "name": "_hash",
          "type": "bytes32"
        },
        {
          "internalType": "bytes",
          "name": "signature",
          "type": "bytes"
        }
      ],
      "name": "isValidSignature",
      "outputs": [
        {
          "internalType": "bytes4",
          "name": "",
          "type": "bytes4"
        }
      ],
      "stateMutability": "view",
      "type": "function"
    },
    {
      "inputs": [
        {
          "internalType": "contract IERC20",
          "name": "tokenIn",
          "type": "address"
        },
        {
          "internalType": "uint256",
          "name": "minAmountOut",
          "type": "uint256"
        },
        {
          "internalType": "uint256",
          "name": "deadline",
          "type": "uint256"
        }
      ],
      "name": "retryOrder",
      "outputs": [],
      "stateMutability": "nonpayable",
      "type": "function"
    },
    {
      "inputs": [
        {
          "internalType": "bytes4",
          "name": "interfaceId",
          "type": "bytes4"
        }
      ],
      "name": "supportsInterface",
      "outputs": [
        {
          "internalType": "bool",
          "name": "",
          "type": "bool"
        }
      ],
      "stateMutability": "view",
      "type": "function"
    },
    {
      "inputs": [],
      "name": "vaultRelayer",
      "outputs": [
        {
          "internalType": "address",
          "name": "",
          "type": "address"
        }
      ],
      "stateMutability": "view",
      "type": "function"
    },
    {
      "inputs": [
        {
          "internalType": "address",
          "name": "owner",
          "type": "address"
        },
        {
          "internalType": "address",
          "name": "sender",
          "type": "address"
        },
        {
          "internalType": "bytes32",
          "name": "",
          "type": "bytes32"
        },
        {
          "internalType": "bytes32",
          "name": "",
          "type": "bytes32"
        },
        {
          "internalType": "bytes32",
          "name": "ctx",
          "type": "bytes32"
        },
        {
          "internalType": "bytes",
          "name": "staticInput",
          "type": "bytes"
        },
        {
          "internalType": "bytes",
          "name": "offchainInput",
          "type": "bytes"
        },
        {
          "components": [
            {
              "internalType": "contract IERC20",
              "name": "sellToken",
              "type": "address"
            },
            {
              "internalType": "contract IERC20",
              "name": "buyToken",
              "type": "address"
            },
            {
              "internalType": "address",
              "name": "receiver",
              "type": "address"
            },
            {
              "internalType": "uint256",
              "name": "sellAmount",
              "type": "uint256"
            },
            {
              "internalType": "uint256",
              "name": "buyAmount",
              "type": "uint256"
            },
            {
              "internalType": "uint32",
              "name": "validTo",
              "type": "uint32"
            },
            {
              "internalType": "bytes32",
              "name": "appData",
              "type": "bytes32"
            },
            {
              "internalType": "uint256",
              "name": "feeAmount",
              "type": "uint256"
            },
            {
              "internalType": "bytes32",
              "name": "kind",
              "type": "bytes32"
            },
            {
              "internalType": "bool",
              "name": "partiallyFillable",
              "type": "bool"
            },
            {
              "internalType": "bytes32",
              "name": "sellTokenBalance",
              "type": "bytes32"
            },
            {
              "internalType": "bytes32",
              "name": "buyTokenBalance",
              "type": "bytes32"
            }
          ],
          "internalType": "struct GPv2Order",
          "name": "_order",
          "type": "tuple"
        }
      ],
      "name": "verify",
      "outputs": [],
      "stateMutability": "view",
      "type": "function"
    }
  ],
  "bytecode": "0x6101603461015057601f6123a138819003918201601f19168301916001600160401b03831184841017610154578084926080946040528339810103126101505780516001600160a01b0390818116810361015057602083015192828416840361015057604081015192831683036101505760600151903060805260a0527ff3b277728b3fee749481eb3e0b3b48980dbbab78658fc419025cb16eee34677560c0527f5a28e9363bb942b639270062aa6bb295f434bcdfc42c97267bf003f272060dc960e052610100928352610120918252610140908152604051916122389384610169853960805184611799015260a0518481816109080152611816015260c05184611e0f015260e05184611d9e0152518381816108b801528181610df101528181610ff70152611fc5015251828181610294015281816108680152611ae60152518181816109430152611de30152f35b5f80fd5b634e487b7160e01b5f52604160045260245ffdfe6080806040526004361015610012575f80fd5b5f3560e01c90816301ffc9a7146113e65750806314a2a7841461110e5780631626ba7e14610b6557806360e092c614610ae957806368bce71214610a185780636eba2b13146109eb5780636f9d75cd146109b6578063851c1bb3146109665780638aebd3481461092c5780638d928af8146108dc57806393504c521461088c5780639b552cc21461083c578063aaabadc514610804578063b8296fc4146106ea578063d83b06a4146105ca5763de557a32146100cc575f80fd5b346104d25760e06003193601126104d2576100e5611535565b6100ed611558565b906044356064359273ffffffffffffffffffffffffffffffffffffffff8085168095036104d2576084359360a4358281168091036104d25761012d6118c2565b838316958787036101bc5760846040517f8d8a611000000000000000000000000000000000000000000000000000000000815260206004820152602760248201527f46656520746f6b656e20616e642074617267657420746f6b656e20617265207460448201527f68652073616d65000000000000000000000000000000000000000000000000006064820152fd5b851561056c576101cb81611ee2565b6101d660c435611f47565b6101df856119c6565b50600481101580610532578115158061055f575b6105035750506040516020907f23b872dd00000000000000000000000000000000000000000000000000000000828201523360248201523060448201528760648201526064815260a081019080821067ffffffffffffffff8311176104d65761025f91604052876120a0565b61026886611fad565b6040517f095ea7b3000000000000000000000000000000000000000000000000000000008282018181527f000000000000000000000000000000000000000000000000000000000000000073ffffffffffffffffffffffffffffffffffffffff8116602485015260448085018c905284529891905f9081908d906102ed6064886115fe565b828751925af16102fb61213a565b81610443575b50917f77a7b034dbb42c9087518e95b49c02a17704a521555779f3f9d7f1b26df5ce8d99899897969594928460609b9590610439575b156103fb575b50505050508863ffffffff6003604051610356816115e2565b8d815284810187815260408201908782528b8301958560c4351687525f525f87528a60405f209351167fffffffffffffffffffffffff000000000000000000000000000000000000000090818554161784558b6001850192511690825416179055516002820155019151167fffffffffffffffffffffffffffffffffffffffffffffffffffffffff0000000082541617905560405197885287015260408601521692a4005b61042f9461042a9260405192888401521660248201525f604482015260448152610424816115e2565b826120a0565b6120a0565b845f80808061033d565b508d3b1515610337565b8051801592508215610479575b507f77a7b034dbb42c9087518e95b49c02a17704a521555779f3f9d7f1b26df5ce8d9050610301565b81949250908695939a9998979691810103126104d2577f77a7b034dbb42c9087518e95b49c02a17704a521555779f3f9d7f1b26df5ce8d996060996104c0868b960161165e565b92945092949596979899819b50610450565b5f80fd5b7f4e487b71000000000000000000000000000000000000000000000000000000005f52604160045260245ffd5b7fd0c1b3cf000000000000000000000000000000000000000000000000000000005f526105325760045260245ffd5b7f4e487b71000000000000000000000000000000000000000000000000000000005f52602160045260245ffd5b50505f60028214156101f3565b60646040517f8d8a611000000000000000000000000000000000000000000000000000000000815260206004820152601860248201527f46656520746f6b656e20616d6f756e74206973207a65726f00000000000000006044820152fd5b346104d25760606003193601126104d2576105e3611535565b6044356024356105f16118c2565b6105fa836119c6565b90600481101561053257600381036106bf577f1c5203f5bd3b302669f961b1035b0a6ec649f05ba67f3024a07e67ce4332898a60808686868661063c82611ee2565b61064583611f47565b6106a773ffffffffffffffffffffffffffffffffffffffff851694855f525f602052600360405f208560028201550163ffffffff86167fffffffffffffffffffffffffffffffffffffffffffffffffffffffff00000000825416179055611fad565b604051938452602084015260408301526060820152a1005b7fd0c1b3cf000000000000000000000000000000000000000000000000000000005f5260045260245ffd5b346104d25760a06003193601126104d257610703611535565b5061070c611558565b5067ffffffffffffffff6064358181116104d25761072e90369060040161157b565b6084929192359182116104d2576108009261075061075793369060040161157b565b5050611884565b6040519182918291909161018081019273ffffffffffffffffffffffffffffffffffffffff8082511683528060208301511660208401526040820151166040830152606081015160608301526080810151608083015263ffffffff60a08201511660a083015260c081015160c083015260e081015160e0830152610100808201519083015261012080820151151590830152610140808201519083015261016080910151910152565b0390f35b346104d2575f6003193601126104d257602061081e6117d3565b73ffffffffffffffffffffffffffffffffffffffff60405191168152f35b346104d2575f6003193601126104d257602060405173ffffffffffffffffffffffffffffffffffffffff7f0000000000000000000000000000000000000000000000000000000000000000168152f35b346104d2575f6003193601126104d257602060405173ffffffffffffffffffffffffffffffffffffffff7f0000000000000000000000000000000000000000000000000000000000000000168152f35b346104d2575f6003193601126104d257602060405173ffffffffffffffffffffffffffffffffffffffff7f0000000000000000000000000000000000000000000000000000000000000000168152f35b346104d2575f6003193601126104d25760206040517f00000000000000000000000000000000000000000000000000000000000000008152f35b346104d25760206003193601126104d2576004357fffffffff00000000000000000000000000000000000000000000000000000000811681036104d2576109ae60209161176e565b604051908152f35b346104d25760206003193601126104d2576109d76109d2611535565b6119c6565b506040516004821015610532576020918152f35b346104d25760206003193601126104d257610800610757610a0a611535565b610a12611716565b50611cd5565b346104d25760406003193601126104d257610a31611535565b610a39611558565b90610a426118c2565b604051917f70a0823100000000000000000000000000000000000000000000000000000000835230600484015260208360248173ffffffffffffffffffffffffffffffffffffffff86165afa918215610ade575f92610aa8575b610aa69350611a98565b005b91506020833d602011610ad6575b81610ac3602093836115fe565b810103126104d257610aa6925191610a9c565b3d9150610ab6565b6040513d5f823e3d90fd5b346104d25760406003193601126104d257610b02611535565b610b0a611558565b610b126118c2565b610b1b826119c6565b91909260048410156105325760038403610b3957610aa69350611a98565b837fd0c1b3cf000000000000000000000000000000000000000000000000000000005f5260045260245ffd5b346104d25760406003193601126104d25767ffffffffffffffff6024358181116104d257366023820112156104d257806004013590610ba382611621565b91610bb160405193846115fe565b808352602083019136602483830101116104d257815f92602460209301853784010152815182019260208401838503936101a08086126104d2576101808096126104d257610c0a60405195610c05876115a9565b61163d565b8552610c186040830161163d565b602086015260608201519573ffffffffffffffffffffffffffffffffffffffff9687811681036104d25760408701526080830151606087015260a0830151608087015260c083015163ffffffff811681036104d25760a087015260e083015160c0870152610100908184015160e088015261012091828501519088015261014091610ca483860161165e565b9088015261016091828501519088015283015190860152810151908382116104d257016060818703126104d25760405195610cde876115c6565b60208201518481116104d257820183603f820112156104d2576020810151908582116104d6578160051b60405192610d1960208301856115fe565b835260406020840191830101918683116104d257604001905b8282106110fe57505050875260408201518481116104d2576060908301809203126104d25760405190610d64826115c6565b602081015187811681036104d25782526040810151602083015260608101518581116104d25760208591610d9993010161166b565b6040820152602087015260608101519283116104d257610dbc920160200161166b565b6040840152604051907ff698da25000000000000000000000000000000000000000000000000000000008252602082600481867f0000000000000000000000000000000000000000000000000000000000000000165afa918215610ade575f926110c8575b5090610ee4610ed6926040519384916020830191909161018081019273ffffffffffffffffffffffffffffffffffffffff8082511683528060208301511660208401526040820151166040830152606081015160608301526080810151608083015263ffffffff60a08201511660a083015260c081015160c083015260e081015160e0830152610100808201519083015261012080820151151590830152610140808201519083015261016080910151910152565b03601f1981018452836115fe565b604051809460208083015260a08201815190606060408501528151809152602060c085019201905f5b8181106110af57856020610fe18b8b8b610f8186610f738d8d6040610f618b840151927fffffffffffffffffffffffffffffffffffffffffffffffffffffffffffffffc093848883030160608901526116d6565b920151908483030160808501526116b1565b03601f1981018852876115fe565b610ff3604051968795869485947f53f00b14000000000000000000000000000000000000000000000000000000008652306004870152336024870152600435604487015260648601525f608486015260e060a486015260e48501906116b1565b906003198483030160c48501526116b1565b03917f0000000000000000000000000000000000000000000000000000000000000000165afa8015610ade575f90611053575b6020907fffffffff0000000000000000000000000000000000000000000000000000000060405191168152f35b506020813d6020116110a7575b8161106d602093836115fe565b810103126104d257517fffffffff00000000000000000000000000000000000000000000000000000000811681036104d257602090611026565b3d9150611060565b8251845289955060209384019390920191600101610f0d565b91506020823d6020116110f6575b816110e3602093836115fe565b810103126104d257905190610ee4610e21565b3d91506110d6565b8151815260209182019101610d32565b346104d2576102606003193601126104d257611128611535565b50611131611558565b5067ffffffffffffffff60a4358181116104d25761115390369060040161157b565b919060c4358281116104d25761116d90369060040161157b565b505061018092837fffffffffffffffffffffffffffffffffffffffffffffffffffffffffffffff1c3601126104d2576111a591611884565b9161016435928360808201805182116113de575b505060405161127b8161126d60208201948591909161018081019273ffffffffffffffffffffffffffffffffffffffff8082511683528060208301511660208401526040820151166040830152606081015160608301526080810151608083015263ffffffff60a08201511660a083015260c081015160c083015260e081015160e0830152610100808201519083015261012080820151151590830152610140808201519083015261016080910151910152565b03601f1981018352826115fe565b51902090604051602081019460e43573ffffffffffffffffffffffffffffffffffffffff908181168091036104d2578752610104358181168091036104d2576040840152610124359081168091036104d257606083015261014435608083015260a08201526101843563ffffffff81168091036104d25760c08201526101a492833560e08301526101c49081356101008401526101e49687356101208501526102049485358015158091036104d25761014086015261022435610160860152610244358186015284526101a08401968711848810176104d65786604052835190200361136357005b608495602f7f566572696679206f7264657220646f6573206e6f74206d6174636820776974689260207f206578697374696e67206f726465720000000000000000000000000000000000977f8d8a6110000000000000000000000000000000000000000000000000000000008a528601528401528201520152fd5b5283856111b9565b346104d25760206003193601126104d257600435907fffffffff0000000000000000000000000000000000000000000000000000000082168092036104d2577f62af8dc200000000000000000000000000000000000000000000000000000000821461150d57817f14a2a78400000000000000000000000000000000000000000000000000000000602093149081156114e3575b81156114b9575b811561148f575b5015158152f35b7f01ffc9a70000000000000000000000000000000000000000000000000000000091501483611488565b7f1626ba7e0000000000000000000000000000000000000000000000000000000081149150611481565b7fb8296fc4000000000000000000000000000000000000000000000000000000008114915061147a565b7f32798566000000000000000000000000000000000000000000000000000000005f5260045ffd5b6004359073ffffffffffffffffffffffffffffffffffffffff821682036104d257565b6024359073ffffffffffffffffffffffffffffffffffffffff821682036104d257565b9181601f840112156104d25782359167ffffffffffffffff83116104d257602083818601950101116104d257565b610180810190811067ffffffffffffffff8211176104d657604052565b6060810190811067ffffffffffffffff8211176104d657604052565b6080810190811067ffffffffffffffff8211176104d657604052565b90601f601f19910116810190811067ffffffffffffffff8211176104d657604052565b67ffffffffffffffff81116104d657601f01601f191660200190565b519073ffffffffffffffffffffffffffffffffffffffff821682036104d257565b519081151582036104d257565b81601f820112156104d25780519061168282611621565b9261169060405194856115fe565b828452602083830101116104d257815f9260208093018386015e8301015290565b90601f19601f602080948051918291828752018686015e5f8582860101520116010190565b90606060406117139373ffffffffffffffffffffffffffffffffffffffff81511684526020810151602085015201519181604082015201906116b1565b90565b60405190611723826115a9565b5f610160838281528260208201528260408201528260608201528260808201528260a08201528260c08201528260e08201528261010082015282610120820152826101408201520152565b6040517fffffffff0000000000000000000000000000000000000000000000000000000060208201927f00000000000000000000000000000000000000000000000000000000000000008452166040820152602481526117cd816115c6565b51902090565b6040517faaabadc500000000000000000000000000000000000000000000000000000000815273ffffffffffffffffffffffffffffffffffffffff6020826004817f000000000000000000000000000000000000000000000000000000000000000085165afa918215610ade575f9261184b57505090565b9091506020813d60201161187c575b81611867602093836115fe565b810103126104d2575190811681036104d25790565b3d915061185a565b9081602091611891611716565b50810103126104d2573573ffffffffffffffffffffffffffffffffffffffff81168091036104d25761171390611cd5565b6118ee7fffffffff000000000000000000000000000000000000000000000000000000005f351661176e565b602073ffffffffffffffffffffffffffffffffffffffff61190d6117d3565b16916064604051809481937f9be2a88400000000000000000000000000000000000000000000000000000000835260048301523360248301523060448301525afa908115610ade575f9161198c575b501561196457565b7f23dada53000000000000000000000000000000000000000000000000000000005f5260045ffd5b90506020813d6020116119be575b816119a7602093836115fe565b810103126104d2576119b89061165e565b5f61195c565b3d915061199a565b73ffffffffffffffffffffffffffffffffffffffff1690815f525f60205263ffffffff600360405f200154168015611a90576020602493604051948580927f70a082310000000000000000000000000000000000000000000000000000000082523060048301525afa928315610ade575f93611a5c575b5082611a4a575060029190565b4211611a565760019190565b60039190565b9092506020813d602011611a88575b81611a78602093836115fe565b810103126104d25751915f611a3d565b3d9150611a6b565b505f91508190565b919091604090815193602093848601947f095ea7b3000000000000000000000000000000000000000000000000000000009384875273ffffffffffffffffffffffffffffffffffffffff94857f0000000000000000000000000000000000000000000000000000000000000000168060248b01525f60448b015260448a52611b1f8a6115e2565b5f808885169a8c5190828d5af1611b3461213a565b81611c42575b50917f0fbcbe35dc18af34468b6ca6da71553ba95c937d09fc996a91b8dfc6ce5cbc5a9a60609a9998979695949284611bf39590611c38575b15611c03575b5050505f88815280845287812081815560018101829055600281018290556003015586517fa9059cbb000000000000000000000000000000000000000000000000000000008185015273ffffffffffffffffffffffffffffffffffffffff86166024820152604481018590529061042a8260648101610ed6565b84519586528501521690820152a1565b611c3092610424918b51918883015260248201525f604482015260448152611c2a816115e2565b846120a0565b5f8080611b79565b508a3b1515611b73565b8051801592508215611c78575b507f0fbcbe35dc18af34468b6ca6da71553ba95c937d09fc996a91b8dfc6ce5cbc5a9050611b3a565b81949250908695939b9a9998979691810103126104d2577f0fbcbe35dc18af34468b6ca6da71553ba95c937d09fc996a91b8dfc6ce5cbc5a9a60609a611cc286611bf3960161165e565b929450929495969798999a819c50611c4f565b611cdd611716565b5073ffffffffffffffffffffffffffffffffffffffff80911690815f526020905f82526040805f206003825192611d13846115e2565b848354168452846001840154169486850195865260028401549382860194855263ffffffff93849101541694606081019580875215611e855781905116955116918151937f70a0823100000000000000000000000000000000000000000000000000000000855230600486015287856024818c5afa948515611e7b575f95611e4c575b5051945116947f000000000000000000000000000000000000000000000000000000000000000096825198611dca8a6115a9565b89528801528601526060850152608084015260a08301527f000000000000000000000000000000000000000000000000000000000000000060c08301525f60e08301527f000000000000000000000000000000000000000000000000000000000000000061010083015260016101208301528061014083015261016082015290565b9094508781813d8311611e74575b611e6481836115fe565b810103126104d25751935f611d96565b503d611e5a565b83513d5f823e3d90fd5b6064888451907fc8fc27250000000000000000000000000000000000000000000000000000000082526004820152601460248201527f4f7264657220646f6573206e6f742065786973740000000000000000000000006044820152fd5b15611ee957565b60646040517f8d8a611000000000000000000000000000000000000000000000000000000000815260206004820152601660248201527f4d696e20616d6f756e74206f7574206973207a65726f000000000000000000006044820152fd5b4211611f4f57565b60646040517f8d8a611000000000000000000000000000000000000000000000000000000000815260206004820152601760248201527f446561646c696e6520697320696e2074686520706173740000000000000000006044820152fd5b73ffffffffffffffffffffffffffffffffffffffff807f00000000000000000000000000000000000000000000000000000000000000001691604091825191166020820152602081528181019267ffffffffffffffff91808510838611176104d65784845261201b856115c6565b3085525f60608201526080810152803b156104d2576120735f9491859285519687809481937f6bfae1ca00000000000000000000000000000000000000000000000000000000835289600484015260448301906116d6565b6001602483015203925af180156120965761208d57505050565b82116104d65752565b82513d5f823e3d90fd5b5f8073ffffffffffffffffffffffffffffffffffffffff6120d693169360208151910182865af16120cf61213a565b9083612169565b8051908115159182612117575b50506120ec5750565b7f5274afe7000000000000000000000000000000000000000000000000000000005f5260045260245ffd5b81925090602091810103126104d2576020612132910161165e565b155f806120e3565b3d15612164573d9061214b82611621565b9161215960405193846115fe565b82523d5f602084013e565b606090565b906121a6575080511561217e57805190602001fd5b7f1425ea42000000000000000000000000000000000000000000000000000000005f5260045ffd5b815115806121f9575b6121b7575090565b73ffffffffffffffffffffffffffffffffffffffff907f9996b315000000000000000000000000000000000000000000000000000000005f521660045260245ffd5b50803b156121af56fea26469706673582212208549116c5bd9265ad90af4d6d9499c291a726d16d64295944789e73231d4e6de64736f6c634300081b0033",
  "linkReferences": {},
  "deployedLinkReferences": {}
}