{
  "_format": "hh-sol-artifact-1",
  "contractName": "LBPMigrationRouter",
  "sourceName": "contracts/lbp/LBPMigrationRouter.sol",
  "abi": [
    {
      "inputs": [
        {
          "internalType": "contract BalancerContractRegistry",
          "name": "contractRegistry",
          "type": "address"
        },
        {
          "internalType": "string",
          "name": "version",
          "type": "string"
        }
      ],
      "stateMutability": "nonpayable",
      "type": "constructor"
    },
    {
      "inputs": [
        {
          "internalType": "address",
          "name": "target",
          "type": "address"
        }
      ],
      "name": "AddressEmptyCode",
      "type": "error"
    },
    {
      "inputs": [
        {
          "internalType": "uint256",
          "name": "unlockTimestamp",
          "type": "uint256"
        }
      ],
      "name": "BPTStillLocked",
      "type": "error"
    },
    {
      "inputs": [
        {
          "internalType": "address",
          "name": "spender",
          "type": "address"
        },
        {
          "internalType": "uint256",
          "name": "allowance",
          "type": "uint256"
        },
        {
          "internalType": "uint256",
          "name": "needed",
          "type": "uint256"
        },
        {
          "internalType": "uint256",
          "name": "id",
          "type": "uint256"
        }
      ],
      "name": "ERC6909InsufficientAllowance",
      "type": "error"
    },
    {
      "inputs": [
        {
          "internalType": "address",
          "name": "sender",
          "type": "address"
        },
        {
          "internalType": "uint256",
          "name": "balance",
          "type": "uint256"
        },
        {
          "internalType": "uint256",
          "name": "needed",
          "type": "uint256"
        },
        {
          "internalType": "uint256",
          "name": "id",
          "type": "uint256"
        }
      ],
      "name": "ERC6909InsufficientBalance",
      "type": "error"
    },
    {
      "inputs": [
        {
          "internalType": "address",
          "name": "approver",
          "type": "address"
        }
      ],
      "name": "ERC6909InvalidApprover",
      "type": "error"
    },
    {
      "inputs": [
        {
          "internalType": "address",
          "name": "receiver",
          "type": "address"
        }
      ],
      "name": "ERC6909InvalidReceiver",
      "type": "error"
    },
    {
      "inputs": [
        {
          "internalType": "address",
          "name": "sender",
          "type": "address"
        }
      ],
      "name": "ERC6909InvalidSender",
      "type": "error"
    },
    {
      "inputs": [
        {
          "internalType": "address",
          "name": "spender",
          "type": "address"
        }
      ],
      "name": "ERC6909InvalidSpender",
      "type": "error"
    },
    {
      "inputs": [],
      "name": "FailedCall",
      "type": "error"
    },
    {
      "inputs": [
        {
          "internalType": "address",
          "name": "expectedRouter",
          "type": "address"
        },
        {
          "internalType": "address",
          "name": "actualRouter",
          "type": "address"
        }
      ],
      "name": "IncorrectMigrationRouter",
      "type": "error"
    },
    {
      "inputs": [],
      "name": "NoLockedBPT",
      "type": "error"
    },
    {
      "inputs": [],
      "name": "NoRegisteredWeightedPoolFactory",
      "type": "error"
    },
    {
      "inputs": [],
      "name": "ReentrancyGuardReentrantCall",
      "type": "error"
    },
    {
      "inputs": [
        {
          "internalType": "address",
          "name": "token",
          "type": "address"
        }
      ],
      "name": "SafeERC20FailedOperation",
      "type": "error"
    },
    {
      "inputs": [],
      "name": "SenderIsNotLBPOwner",
      "type": "error"
    },
    {
      "inputs": [
        {
          "internalType": "address",
          "name": "sender",
          "type": "address"
        }
      ],
      "name": "SenderIsNotVault",
      "type": "error"
    },
    {
      "anonymous": false,
      "inputs": [
        {
          "indexed": true,
          "internalType": "address",
          "name": "owner",
          "type": "address"
        },
        {
          "indexed": true,
          "internalType": "address",
          "name": "spender",
          "type": "address"
        },
        {
          "indexed": true,
          "internalType": "uint256",
          "name": "id",
          "type": "uint256"
        },
        {
          "indexed": false,
          "internalType": "uint256",
          "name": "amount",
          "type": "uint256"
        }
      ],
      "name": "Approval",
      "type": "event"
    },
    {
      "anonymous": false,
      "inputs": [
        {
          "indexed": true,
          "internalType": "contract IERC20",
          "name": "bptAddress",
          "type": "address"
        },
        {
          "indexed": false,
          "internalType": "uint256",
          "name": "unlockTimestamp",
          "type": "uint256"
        }
      ],
      "name": "BPTTimelockSet",
      "type": "event"
    },
    {
      "anonymous": false,
      "inputs": [
        {
          "indexed": true,
          "internalType": "uint256",
          "name": "id",
          "type": "uint256"
        },
        {
          "indexed": false,
          "internalType": "uint8",
          "name": "newDecimals",
          "type": "uint8"
        }
      ],
      "name": "ERC6909DecimalsUpdated",
      "type": "event"
    },
    {
      "anonymous": false,
      "inputs": [
        {
          "indexed": true,
          "internalType": "uint256",
          "name": "id",
          "type": "uint256"
        },
        {
          "indexed": false,
          "internalType": "string",
          "name": "newName",
          "type": "string"
        }
      ],
      "name": "ERC6909NameUpdated",
      "type": "event"
    },
    {
      "anonymous": false,
      "inputs": [
        {
          "indexed": true,
          "internalType": "uint256",
          "name": "id",
          "type": "uint256"
        },
        {
          "indexed": false,
          "internalType": "string",
          "name": "newSymbol",
          "type": "string"
        }
      ],
      "name": "ERC6909SymbolUpdated",
      "type": "event"
    },
    {
      "anonymous": false,
      "inputs": [
        {
          "indexed": true,
          "internalType": "address",
          "name": "owner",
          "type": "address"
        },
        {
          "indexed": true,
          "internalType": "address",
          "name": "spender",
          "type": "address"
        },
        {
          "indexed": false,
          "internalType": "bool",
          "name": "approved",
          "type": "bool"
        }
      ],
      "name": "OperatorSet",
      "type": "event"
    },
    {
      "anonymous": false,
      "inputs": [
        {
          "indexed": true,
          "internalType": "contract ILBPool",
          "name": "lbp",
          "type": "address"
        },
        {
          "indexed": false,
          "internalType": "contract IWeightedPool",
          "name": "weightedPool",
          "type": "address"
        },
        {
          "indexed": false,
          "internalType": "uint256",
          "name": "bptAmountOut",
          "type": "uint256"
        }
      ],
      "name": "PoolMigrated",
      "type": "event"
    },
    {
      "anonymous": false,
      "inputs": [
        {
          "indexed": false,
          "internalType": "address",
          "name": "caller",
          "type": "address"
        },
        {
          "indexed": true,
          "internalType": "address",
          "name": "sender",
          "type": "address"
        },
        {
          "indexed": true,
          "internalType": "address",
          "name": "receiver",
          "type": "address"
        },
        {
          "indexed": true,
          "internalType": "uint256",
          "name": "id",
          "type": "uint256"
        },
        {
          "indexed": false,
          "internalType": "uint256",
          "name": "amount",
          "type": "uint256"
        }
      ],
      "name": "Transfer",
      "type": "event"
    },
    {
      "inputs": [
        {
          "internalType": "address",
          "name": "owner",
          "type": "address"
        },
        {
          "internalType": "address",
          "name": "spender",
          "type": "address"
        },
        {
          "internalType": "uint256",
          "name": "id",
          "type": "uint256"
        }
      ],
      "name": "allowance",
      "outputs": [
        {
          "internalType": "uint256",
          "name": "",
          "type": "uint256"
        }
      ],
      "stateMutability": "view",
      "type": "function"
    },
    {
      "inputs": [
        {
          "internalType": "address",
          "name": "spender",
          "type": "address"
        },
        {
          "internalType": "uint256",
          "name": "id",
          "type": "uint256"
        },
        {
          "internalType": "uint256",
          "name": "amount",
          "type": "uint256"
        }
      ],
      "name": "approve",
      "outputs": [
        {
          "internalType": "bool",
          "name": "",
          "type": "bool"
        }
      ],
      "stateMutability": "nonpayable",
      "type": "function"
    },
    {
      "inputs": [
        {
          "internalType": "address",
          "name": "owner",
          "type": "address"
        },
        {
          "internalType": "uint256",
          "name": "id",
          "type": "uint256"
        }
      ],
      "name": "balanceOf",
      "outputs": [
        {
          "internalType": "uint256",
          "name": "",
          "type": "uint256"
        }
      ],
      "stateMutability": "view",
      "type": "function"
    },
    {
      "inputs": [
        {
          "internalType": "uint256",
          "name": "id",
          "type": "uint256"
        }
      ],
      "name": "decimals",
      "outputs": [
        {
          "internalType": "uint8",
          "name": "",
          "type": "uint8"
        }
      ],
      "stateMutability": "view",
      "type": "function"
    },
    {
      "inputs": [
        {
          "internalType": "address",
          "name": "token",
          "type": "address"
        }
      ],
      "name": "getId",
      "outputs": [
        {
          "internalType": "uint256",
          "name": "",
          "type": "uint256"
        }
      ],
      "stateMutability": "pure",
      "type": "function"
    },
    {
      "inputs": [
        {
          "internalType": "uint256",
          "name": "id",
          "type": "uint256"
        }
      ],
      "name": "getUnlockTimestamp",
      "outputs": [
        {
          "internalType": "uint256",
          "name": "",
          "type": "uint256"
        }
      ],
      "stateMutability": "view",
      "type": "function"
    },
    {
      "inputs": [
        {
          "internalType": "address",
          "name": "owner",
          "type": "address"
        },
        {
          "internalType": "address",
          "name": "spender",
          "type": "address"
        }
      ],
      "name": "isOperator",
      "outputs": [
        {
          "internalType": "bool",
          "name": "",
          "type": "bool"
        }
      ],
      "stateMutability": "view",
      "type": "function"
    },
    {
      "inputs": [
        {
          "internalType": "contract ILBPool",
          "name": "lbp",
          "type": "address"
        },
        {
          "internalType": "address",
          "name": "excessReceiver",
          "type": "address"
        },
        {
          "components": [
            {
              "internalType": "string",
              "name": "name",
              "type": "string"
            },
            {
              "internalType": "string",
              "name": "symbol",
              "type": "string"
            },
            {
              "components": [
                {
                  "internalType": "address",
                  "name": "pauseManager",
                  "type": "address"
                },
                {
                  "internalType": "address",
                  "name": "swapFeeManager",
                  "type": "address"
                },
                {
                  "internalType": "address",
                  "name": "poolCreator",
                  "type": "address"
                }
              ],
              "internalType": "struct PoolRoleAccounts",
              "name": "roleAccounts",
              "type": "tuple"
            },
            {
              "internalType": "uint256",
              "name": "swapFeePercentage",
              "type": "uint256"
            },
            {
              "internalType": "address",
              "name": "poolHooksContract",
              "type": "address"
            },
            {
              "internalType": "bool",
              "name": "enableDonation",
              "type": "bool"
            },
            {
              "internalType": "bool",
              "name": "disableUnbalancedLiquidity",
              "type": "bool"
            },
            {
              "internalType": "bytes32",
              "name": "salt",
              "type": "bytes32"
            }
          ],
          "internalType": "struct ILBPMigrationRouter.WeightedPoolParams",
          "name": "params",
          "type": "tuple"
        }
      ],
      "name": "migrateLiquidity",
      "outputs": [
        {
          "internalType": "contract IWeightedPool",
          "name": "",
          "type": "address"
        },
        {
          "internalType": "uint256",
          "name": "",
          "type": "uint256"
        }
      ],
      "stateMutability": "nonpayable",
      "type": "function"
    },
    {
      "inputs": [
        {
          "components": [
            {
              "internalType": "contract ILBPool",
              "name": "lbp",
              "type": "address"
            },
            {
              "internalType": "contract IWeightedPool",
              "name": "weightedPool",
              "type": "address"
            },
            {
              "internalType": "contract IERC20[]",
              "name": "tokens",
              "type": "address[]"
            },
            {
              "internalType": "address",
              "name": "sender",
              "type": "address"
            },
            {
              "internalType": "address",
              "name": "excessReceiver",
              "type": "address"
            },
            {
              "internalType": "uint256",
              "name": "bptLockDuration",
              "type": "uint256"
            },
            {
              "internalType": "uint256",
              "name": "bptPercentageToMigrate",
              "type": "uint256"
            },
            {
              "internalType": "uint256",
              "name": "migrationWeightProjectToken",
              "type": "uint256"
            },
            {
              "internalType": "uint256",
              "name": "migrationWeightReserveToken",
              "type": "uint256"
            }
          ],
          "internalType": "struct ILBPMigrationRouter.MigrationHookParams",
          "name": "params",
          "type": "tuple"
        }
      ],
      "name": "migrateLiquidityHook",
      "outputs": [
        {
          "internalType": "uint256",
          "name": "bptAmountOut",
          "type": "uint256"
        }
      ],
      "stateMutability": "nonpayable",
      "type": "function"
    },
    {
      "inputs": [
        {
          "internalType": "bytes[]",
          "name": "data",
          "type": "bytes[]"
        }
      ],
      "name": "multicall",
      "outputs": [
        {
          "internalType": "bytes[]",
          "name": "results",
          "type": "bytes[]"
        }
      ],
      "stateMutability": "nonpayable",
      "type": "function"
    },
    {
      "inputs": [
        {
          "internalType": "uint256",
          "name": "id",
          "type": "uint256"
        }
      ],
      "name": "name",
      "outputs": [
        {
          "internalType": "string",
          "name": "",
          "type": "string"
        }
      ],
      "stateMutability": "view",
      "type": "function"
    },
    {
      "inputs": [
        {
          "internalType": "contract ILBPool",
          "name": "lbp",
          "type": "address"
        },
        {
          "internalType": "address",
          "name": "sender",
          "type": "address"
        },
        {
          "internalType": "address",
          "name": "excessReceiver",
          "type": "address"
        },
        {
          "components": [
            {
              "internalType": "string",
              "name": "name",
              "type": "string"
            },
            {
              "internalType": "string",
              "name": "symbol",
              "type": "string"
            },
            {
              "components": [
                {
                  "internalType": "address",
                  "name": "pauseManager",
                  "type": "address"
                },
                {
                  "internalType": "address",
                  "name": "swapFeeManager",
                  "type": "address"
                },
                {
                  "internalType": "address",
                  "name": "poolCreator",
                  "type": "address"
                }
              ],
              "internalType": "struct PoolRoleAccounts",
              "name": "roleAccounts",
              "type": "tuple"
            },
            {
              "internalType": "uint256",
              "name": "swapFeePercentage",
              "type": "uint256"
            },
            {
              "internalType": "address",
              "name": "poolHooksContract",
              "type": "address"
            },
            {
              "internalType": "bool",
              "name": "enableDonation",
              "type": "bool"
            },
            {
              "internalType": "bool",
              "name": "disableUnbalancedLiquidity",
              "type": "bool"
            },
            {
              "internalType": "bytes32",
              "name": "salt",
              "type": "bytes32"
            }
          ],
          "internalType": "struct ILBPMigrationRouter.WeightedPoolParams",
          "name": "params",
          "type": "tuple"
        }
      ],
      "name": "queryMigrateLiquidity",
      "outputs": [
        {
          "internalType": "uint256",
          "name": "bptAmountOut",
          "type": "uint256"
        }
      ],
      "stateMutability": "nonpayable",
      "type": "function"
    },
    {
      "inputs": [
        {
          "internalType": "address",
          "name": "spender",
          "type": "address"
        },
        {
          "internalType": "bool",
          "name": "approved",
          "type": "bool"
        }
      ],
      "name": "setOperator",
      "outputs": [
        {
          "internalType": "bool",
          "name": "",
          "type": "bool"
        }
      ],
      "stateMutability": "nonpayable",
      "type": "function"
    },
    {
      "inputs": [
        {
          "internalType": "bytes4",
          "name": "interfaceId",
          "type": "bytes4"
        }
      ],
      "name": "supportsInterface",
      "outputs": [
        {
          "internalType": "bool",
          "name": "",
          "type": "bool"
        }
      ],
      "stateMutability": "view",
      "type": "function"
    },
    {
      "inputs": [
        {
          "internalType": "uint256",
          "name": "id",
          "type": "uint256"
        }
      ],
      "name": "symbol",
      "outputs": [
        {
          "internalType": "string",
          "name": "",
          "type": "string"
        }
      ],
      "stateMutability": "view",
      "type": "function"
    },
    {
      "inputs": [
        {
          "internalType": "address",
          "name": "receiver",
          "type": "address"
        },
        {
          "internalType": "uint256",
          "name": "id",
          "type": "uint256"
        },
        {
          "internalType": "uint256",
          "name": "amount",
          "type": "uint256"
        }
      ],
      "name": "transfer",
      "outputs": [
        {
          "internalType": "bool",
          "name": "",
          "type": "bool"
        }
      ],
      "stateMutability": "nonpayable",
      "type": "function"
    },
    {
      "inputs": [
        {
          "internalType": "address",
          "name": "sender",
          "type": "address"
        },
        {
          "internalType": "address",
          "name": "receiver",
          "type": "address"
        },
        {
          "internalType": "uint256",
          "name": "id",
          "type": "uint256"
        },
        {
          "internalType": "uint256",
          "name": "amount",
          "type": "uint256"
        }
      ],
      "name": "transferFrom",
      "outputs": [
        {
          "internalType": "bool",
          "name": "",
          "type": "bool"
        }
      ],
      "stateMutability": "nonpayable",
      "type": "function"
    },
    {
      "inputs": [],
      "name": "version",
      "outputs": [
        {
          "internalType": "string",
          "name": "",
          "type": "string"
        }
      ],
      "stateMutability": "view",
      "type": "function"
    },
    {
      "inputs": [
        {
          "internalType": "address",
          "name": "bptAddress",
          "type": "address"
        }
      ],
      "name": "withdrawBPT",
      "outputs": [],
      "stateMutability": "nonpayable",
      "type": "function"
    }
  ],
  "bytecode": "0x60c06040908082523461021a576134ce803803809161001e8285610365565b8339810190828183031261021a5780516001600160a01b03928382169182900361021a5760208381015190936001600160401b03919082821161021a570190601f9083828401121561021a57825181811161030f57601f199389519561008a8987878601160188610365565b82875288838301011161021a57815f92898093018389015e8601015287516311b2515f60e31b8152918683600481895afa92831561035b575f93610323575b50845191821161030f575f54946001948587811c97168015610305575b898810146102f15786838c981161029b575b508892841160011461023a57505f91908361022f575b50505f19600383901b1c191690831b175f555b60805260848251809481936341d8c0bb60e01b83526004830152846024830152600c60448301526b15d95a59da1d1959141bdbdb60a21b60648301525afa908115610225575f925f926101d9575b5050156101ca571660a0525161314590816103898239608051818181610b06015281816112cb015281816114870152818161172601528181611e7801528181611ee501526124c2015260a0518181816109df01526123a00152f35b630336c49960e51b5f5260045ffd5b915091508382813d831161021e575b6101f28183610365565b8101031261021a57815191838316830361021a57015190811515820361021a57905f8061016f565b5f80fd5b503d6101e8565b84513d5f823e3d90fd5b015190505f8061010e565b5f8080528981209392918516905b8a828210610284575050908487959493921061026c575b505050811b015f55610121565b01515f1960f88460031b161c191690555f808061025f565b8484015186558d9950948801949384019301610248565b90919293949596505f8052885f208480870160051c8201928b88106102e8575b958d999897969594939291950160051c01905b8181106102db57506100f8565b5f81558c985087016102ce565b925081926102bb565b634e487b7160e01b5f52602260045260245ffd5b96607f16966100e6565b634e487b7160e01b5f52604160045260245ffd5b9092508681813d8311610354575b61033b8183610365565b8101031261021a5751878116810361021a57915f6100c9565b503d610331565b89513d5f823e3d90fd5b601f909101601f19168101906001600160401b0382119082101761030f5760405256fe6080806040526004361015610012575f80fd5b5f3560e01c908162ad800c1461276057508062fdd58e1461271c57806301ffc9a71461267b578063095bcdb61461266357806320ad0ff81461217057806324901c0b146111a55780633f47e66214611175578063426a8493146110f65780634e41a1fb1461101857806354fd4d5014610f1e578063558a729714610e11578063598af9e714610db75780635e7a6a7d1461072e57806365f68c89146107025780638a34711d146106d8578063ac9650d8146104bf578063b6363cf21461046c578063dc450d4f146102125763fe99049a146100eb575f80fd5b3461020e57608060031936011261020e57610104612818565b61010c61282e565b604435606435916001600160a01b0384169333851415806101ed575b610142575b6101379450612c9a565b602060405160018152f35b845f526020946003865260405f20335f52865260405f20845f52865260405f2054905f198210610174575b505061012d565b8582106101a757906101379686925f526003815260405f20335f52815260405f2090865f52520360405f20555f8061016d565b6040517f58a3fd5a000000000000000000000000000000000000000000000000000000008152336004820152602481018390526044810187905260648101869052608490fd5b50845f52600260205260405f20335f5260205260ff60405f20541615610128565b5f80fd5b3461020e5760208060031936011261020e576001600160a01b03610234612818565b1690335f526001815260405f20825f52815260405f2054801561044557825f526005825260405f205480421061041a5750825f52600582525f604081205533156103ee57335f526001825260405f20835f52825260405f20548181106103a65790805f923384526001855260408420868552855203604083205583826040517f1b3d7edb2e9c0b0e7c525b20aaaef0f5940d2ed71663c7d39266ecafac7288593391806102f8873383602090939291936001600160a01b0360408201951681520152565b0390a46040517fa9059cbb00000000000000000000000000000000000000000000000000000000848201908152336024830152604482019290925261034a81606481015b03601f198101835282612910565b519082855af11561039b575f513d6103925750803b155b61036757005b7f5274afe7000000000000000000000000000000000000000000000000000000005f5260045260245ffd5b60011415610361565b6040513d5f823e3d90fd5b6040517fb1b4fec00000000000000000000000000000000000000000000000000000000081523360048201526024810191909152604481019190915260648101839052608490fd5b7fa4352080000000000000000000000000000000000000000000000000000000005f525f60045260245ffd5b7f60489698000000000000000000000000000000000000000000000000000000005f5260045260245ffd5b7ee39db1000000000000000000000000000000000000000000000000000000005f5260045ffd5b3461020e57604060031936011261020e57610485612818565b61048d61282e565b906001600160a01b038091165f52600260205260405f2091165f52602052602060ff60405f2054166040519015158152f35b3461020e5760208060031936011261020e5760043567ffffffffffffffff80821161020e573660238301121561020e57816004013581811161020e5760059060243682841b860182011161020e576040929192519061051d826128f4565b5f82528682019261052d85612ab9565b9661053b6040519889612910565b858852601f1961054a87612ab9565b01895f5b8a8382106106c957505050505f917fffffffffffffffffffffffffffffffffffffffffffffffffffffffffffffffbd82360301925b878110610608578a8a6040519082820192808352815180945260408301938160408260051b8601019301915f955b8287106105be5785850386f35b9091929382806105f8837fffffffffffffffffffffffffffffffffffffffffffffffffffffffffffffffc08a6001960301865288516127f3565b96019201960195929190926105b1565b8481831b840101358481121561020e5783019085820135918a831161020e57604401823603811361020e578c5f806106a4938b610671858f9960019a6040519482869385850198893783019084820190898252519283915e018683820152038084520182612910565b5190305af43d156106c0573d61068681612933565b906106946040519283612910565b81525f81933d92013e5b30613083565b6106ae828d612c09565b526106b9818c612c09565b5001610583565b6060915061069e565b6060908201830152810161054e565b3461020e57602060031936011261020e576004355f526005602052602060405f2054604051908152f35b3461020e57602060031936011261020e5760206001600160a01b03610725612818565b16604051908152f35b3461020e57606060031936011261020e57610747612818565b61074f61282e565b9060443567ffffffffffffffff811161020e576107709036906004016129a2565b916040517f8da5cb5b0000000000000000000000000000000000000000000000000000000081526020816004816001600160a01b0387165afa801561039b575f90610d77575b6001600160a01b039150163303610d4f577f9b779b17422d0df92223018b32b4d1fa46e071723d6817e2486d003becc55f0091825c610d27576001835d604051917f0ca898480000000000000000000000000000000000000000000000000000000083525f836004816001600160a01b0386165afa92831561039b575f93610d03575b506001600160a01b0361012084015116308103610cd4575060405161085d816128d8565b60028152604036602083013761018084015161087d60c086015183612c09565b526101a084015161089260e086015183612c09565b52604051906108a0826128d8565b600282525f5b60408110610ca557505f5b60028110610c7b57509561093894959681519160208101519160408201519460608301516001600160a01b036080850151169160a085015115159361094a60e060c08801511515970151976040519d8e9a7ffed4cdda000000000000000000000000000000000000000000000000000000008c5261018060048d01526101848c01906127f3565b906003198b83030160248c01526127f3565b6003198982030160448a0152602080845192838152019301905f5b818110610be557505050916001600160a01b036040610998848b9a98966003198c60209f9c9a98030160648d0152612bd6565b978281511660848b0152828c8201511660a48b015201511660c488015260e487015261010486015261012485015261014484015261016483015203815f6001600160a01b037f0000000000000000000000000000000000000000000000000000000000000000165af192831561039b575f93610b91575b50610abe5f9261033c926001600160a01b03610af99616968051916101408201516001600160a01b03610160840151926101a0610180860151950151958260405198610a5a8a612882565b1688528c6020890152604088015233606088015216608086015260a085015260c084015260e08301526101008201526040519283917f24901c0b00000000000000000000000000000000000000000000000000000000602084015260248301612f33565b604051809381927f48c894910000000000000000000000000000000000000000000000000000000083526020600484015260248301906127f3565b0381836001600160a01b037f0000000000000000000000000000000000000000000000000000000000000000165af190811561039b575f91610b6f575b5060208180518101031261020e5760205f910151925d604080516001600160a01b039092168252602082019290925290819081015b0390f35b610b8b91503d805f833e610b838183612910565b810190612fb5565b83610b36565b92506020833d602011610bdd575b81610bac60209383612910565b8101031261020e57610abe5f9261033c926001600160a01b03610bd1610af997612c86565b96505092509250610a0f565b3d9150610b9f565b918095969798999a5093909293516001600160a01b0381511682526020810151906002821015610c4e578260606080926020948560019701526001600160a01b0360408201511660408401520151151560608201520195019101918d9998979695949392610965565b7f4e487b71000000000000000000000000000000000000000000000000000000005f52602160045260245ffd5b806001600160a01b03610c916001938951612c09565b5116610c9d8286612c09565b5152016108b1565b602090604051610cb4816128bc565b5f81525f838201525f60408201525f6060820152828286010152016108a6565b7f2a6ef7fc000000000000000000000000000000000000000000000000000000005f526004523060245260445ffd5b610d209193503d805f833e610d188183612910565b810190612dac565b9185610839565b7f3ee5aeb5000000000000000000000000000000000000000000000000000000005f5260045ffd5b7fea37ac06000000000000000000000000000000000000000000000000000000005f5260045ffd5b506020813d602011610daf575b81610d9160209383612910565b8101031261020e57610daa6001600160a01b0391612c86565b6107b6565b3d9150610d84565b3461020e57606060031936011261020e57610dd0612818565b610dd861282e565b906001600160a01b038091165f52600360205260405f2091165f5260205260405f206044355f52602052602060405f2054604051908152f35b3461020e57604060031936011261020e57610e2a612818565b6024359081151580920361020e573315610ef2576001600160a01b0316908115610ec657335f52600260205260405f20825f5260205260405f207fffffffffffffffffffffffffffffffffffffffffffffffffffffffffffffff0081541660ff83161790556040519081527fceb576d9f15e4e200fdb5096d64d5dfd667e16def20c1eefd14256d8e3faa26760203392a3602060405160018152f35b7f6f65f465000000000000000000000000000000000000000000000000000000005f525f60045260245ffd5b7fcc766a98000000000000000000000000000000000000000000000000000000005f525f60045260245ffd5b3461020e575f60031936011261020e576040515f5f549082610f3f83612ad1565b91828252602093600190856001821691825f14610fda575050600114610f81575b50610f6d92500383612910565b610b6b6040519282849384528301906127f3565b5f808052859250907f290decd9548b62a8d60345a988386fc84ba6bc95484008f6362f93160ef3e5635b858310610fc2575050610f6d935082010185610f60565b80548389018501528794508693909201918101610fab565b7fffffffffffffffffffffffffffffffffffffffffffffffffffffffffffffff001685820152610f6d95151560051b8501019250879150610f609050565b3461020e5760208060031936011261020e576004355f5260048152600190600160405f200160405180935f9083549361105085612ad1565b94858552866001821691825f146110b5575050600114611079575b5050610f6d92500383612910565b8592505f52815f20905f915b85831061109d575050610f6d9350820101858061106b565b80548389018501528794508693909201918101611085565b91509350610f6d9592507fffffffffffffffffffffffffffffffffffffffffffffffffffffffffffffff0091501682840152151560051b820101858061106b565b3461020e5761110436612858565b90913315610ef2576001600160a01b0316908115610ec657335f52600360205260405f20825f5260205260405f20835f526020528060405f20556040519081527fb3fd5071835887567a0671151121894ddccc2842f1d10bedad13e0d17cace9a760203392a4602060405160018152f35b3461020e57602060031936011261020e576004355f526004602052602060ff600260405f20015416604051908152f35b3461020e57602060031936011261020e5760043567ffffffffffffffff811161020e57610120600319823603011261020e576040516111e381612882565b6111ef82600401612844565b815260248201356001600160a01b038116810361020e576020820152604482013567ffffffffffffffff811161020e578201913660238401121561020e5760048301359261123c84612ab9565b9061124a6040519283612910565b8482526024602083019560051b8201019036821161020e57602401945b81861061215057846101048585604084015261128560648201612844565b606084015261129660848201612844565b608084015260a481013560a084015260c481013560c084015260e481013560e084015201356101008201526001600160a01b037f0000000000000000000000000000000000000000000000000000000000000000163303612124576001600160a01b038151166001600160a01b036060830151166040517f70a08231000000000000000000000000000000000000000000000000000000008152816004820152602081602481865afa90811561039b575f916120f2575b506040519061135b826128d8565b60028252604036602084013760405192611374846128f4565b5f8452604051948560c081011067ffffffffffffffff60c088011117611cb55760c0860160405285526020850152604084015260608301525f608083015260a0820152604051907f21457897000000000000000000000000000000000000000000000000000000008252602060048301526001600160a01b0381511660248301526001600160a01b0360208201511660448301526040810151606483015261142b606082015160c0608485015260e4840190612bd6565b60808201516004811015610c4e5761147a849260a05f95859460a486015201517fffffffffffffffffffffffffffffffffffffffffffffffffffffffffffffffdc8483030160c48501526127f3565b0381836001600160a01b037f0000000000000000000000000000000000000000000000000000000000000000165af190811561039b575f9161208b575b506001600160a01b0382511660c08301519060e08401519161010085015190604051936114e3856128d8565b600285526040366020870137604051907fe565c29e0000000000000000000000000000000000000000000000000000000082525f82600481885afa91821561039b575f92611f98575b505f6020600493015195604051938480927f0ca898480000000000000000000000000000000000000000000000000000000082525afa90811561039b578761166d956115cf86946115b799611664975f92611f78575b506115c9906115b06115bf60c085019760e061159f8a5183612c09565b5196019e8f966115b0885187612c09565b5190612fdb565b955190612c09565b5191875190612c09565b90613032565b8a6115f26115e8846115e2875185612c09565b51612fdb565b6115c98785612fdb565b6115fd8b5183612c09565b51811115611f5f5750916116419161163b61161d61165e958d5190612c09565b51968792611635670de0b6b3a7640000948592612fdb565b04612fdb565b04613032565b611655670de0b6b3a7640000978892612fdb565b04915189612c09565b52612fdb565b04915183612c09565b525f5b60028110611e1457836116ef6020846001600160a01b038285015116611719604086015192611701604051916116a5836128f4565b5f835260405197889687967fba8a2be0000000000000000000000000000000000000000000000000000000008852600488015230602488015260c0604488015260c4870190612c4a565b90600319868303016064870152612bd6565b905f60848501526003198483030160a48501526127f3565b03815f6001600160a01b037f0000000000000000000000000000000000000000000000000000000000000000165af190811561039b575f91611de2575b506001600160a01b03602083015116916001600160a01b036060820151169261178360a083015142612fee565b6040517f06fdde030000000000000000000000000000000000000000000000000000000081525f81600481865afa801561039b576027611812916020935f91611dc8575b506040519384917f4c6f636b65642000000000000000000000000000000000000000000000000000828401528051918291018484015e81015f83820152036007810184520182612910565b825f52600460205260405f209080519167ffffffffffffffff8311611cb557849261183d8254612ad1565b601f8111611d77575b506020601f8211600114611d045791817f6846707b16f55a3623d38bf118700af63d0784698270a53ce28b116dbaa8b79494926118aa945f91611bcd575b505f198260011b9260031b1c19161790555b6040519182916020835260208301906127f3565b0390a26040517f95d89b410000000000000000000000000000000000000000000000000000000081525f81600481865afa801561039b57602761193c916020935f91611ce2575b506040519384917f4c4f434b45442d00000000000000000000000000000000000000000000000000828401528051918291018484015e81015f83820152036007810184520182612910565b825f526004602052600160405f20019080519167ffffffffffffffff8311611cb557849261196a8254612ad1565b601f8111611c64575b506020601f8211600114611bd85791817f8fabcb7b4fbdde605303a7339bc80fb6956cd01a42e9cdf2d15d0f2fdd3b06fa94926119d5945f91611bcd57505f198260011b9260031b1c19161790556040519182916020835260208301906127f3565b0390a26040517f313ce567000000000000000000000000000000000000000000000000000000008152602081600481865afa801561039b5783915f91611b8d575b5060207fc7435874568017e6134c851002a405d733521c0f4c63f9f25f3a32a4d595b72991835f526004825260ff600260405f2001911690817fffffffffffffffffffffffffffffffffffffffffffffffffffffffffffffff00825416179055604051908152a2815f5260056020528060405f20558415611b615760207f59c2e937deb745424f6fd4b177dca843e536a9f09d159b1e73f2516cc91962c291838783985f526001845260405f20825f52845260405f20611ad7898254612fee565b905560408051338152602081018a90525f917f1b3d7edb2e9c0b0e7c525b20aaaef0f5940d2ed71663c7d39266ecafac72885991a4604051908152a2805190830151604080516001600160a01b0392831681526020810185905291909216917f9709ea45c02f498263083ec21328dfba675d200cb8d8dda882f6fa43934d622591a2604051908152f35b7fb8bbd610000000000000000000000000000000000000000000000000000000005f525f60045260245ffd5b9150506020813d602011611bc5575b81611ba960209383612910565b8101031261020e575160ff8116810361020e5782906020611a16565b3d9150611b9c565b90508301518c611884565b825f5260205f20905f5b601f1984168110611c495750826119d5949260019282601f197f8fabcb7b4fbdde605303a7339bc80fb6956cd01a42e9cdf2d15d0f2fdd3b06fa99971610611c31575b5050811b019055611896565b8501515f1960f88460031b161c191690558c80611c25565b81860151835588965060019092019160209182019101611be2565b9091809394505f5260205f20601f830160051c810160208410611cae575b908795949392915b601f830160051c82018110611ca0575050611973565b5f8155889650600101611c8a565b5080611c82565b7f4e487b71000000000000000000000000000000000000000000000000000000005f52604160045260245ffd5b611cfe91503d805f833e611cf68183612910565b810190612ffb565b896118f1565b825f5260205f20905f5b601f1984168110611d5c5750826118aa949260019282601f197f6846707b16f55a3623d38bf118700af63d0784698270a53ce28b116dbaa8b79499971610611c31575050811b019055611896565b81860151835588965060019092019160209182019101611d0e565b9091809394505f5260205f20601f830160051c810160208410611dc1575b908795949392915b601f830160051c82018110611db3575050611846565b5f8155889650600101611d9d565b5080611d95565b611ddc91503d805f833e611cf68183612910565b896117c7565b90506020813d602011611e0c575b81611dfd60209383612910565b8101031261020e575182611756565b3d9150611df0565b611e1e8184612c09565b5190611e2a8184612c09565b518281810311611f3257808303611e47575b506001915001611670565b6001600160a01b03611e5d836040890151612c09565b5116926001600160a01b036080880151166001600160a01b037f0000000000000000000000000000000000000000000000000000000000000000163b1561020e57604051947fae639329000000000000000000000000000000000000000000000000000000008652600486015260248501520360448301525f82606481836001600160a01b037f0000000000000000000000000000000000000000000000000000000000000000165af1801561039b57611f18575b81611e3c565b67ffffffffffffffff8211611cb557600191604052611f12565b7f4e487b71000000000000000000000000000000000000000000000000000000005f52601160045260245ffd5b945050505061165e611f7282518b612c09565b51611641565b6115c9919250611f91903d805f833e610d188183612910565b9190611582565b91503d805f843e611fa98184612910565b82019160208184031261020e5780519067ffffffffffffffff821161020e5701916101008382031261020e5760405192611fe28461289f565b805167ffffffffffffffff811161020e5782611fff918301612b22565b845260208101519367ffffffffffffffff851161020e5761207e60e08361202d5f9660049960209701612b22565b85850152604081015160408501526060810151606085015261205160808201612d9f565b608085015261206260a08201612d9f565b60a085015261207360c08201612d9f565b60c085015201612d9f565b60e082015293505061152c565b90503d805f833e61209c8183612910565b810160608282031261020e57815191602081015167ffffffffffffffff811161020e57826120cb918301612b22565b91604082015167ffffffffffffffff811161020e576120ea9201612bb9565b9150906114b7565b90506020813d60201161211c575b8161210d60209383612910565b8101031261020e57518461134d565b3d9150612100565b7f089676d5000000000000000000000000000000000000000000000000000000005f523360045260245ffd5b85356001600160a01b038116810361020e57815260209586019501611267565b3461020e57608060031936011261020e57612189612818565b61219161282e565b906044356001600160a01b038116810361020e5760643567ffffffffffffffff811161020e576121c59036906004016129a2565b92604051917f0ca898480000000000000000000000000000000000000000000000000000000083525f836004816001600160a01b0388165afa92831561039b575f93612647575b506001600160a01b0361012084015116308103610cd45750604051612230816128d8565b60028152604036602083013761018084015161225060c086015183612c09565b526101a084015161226560e086015183612c09565b5260405190612273826128d8565b600282525f5b6040811061261857505f5b600281106125ee57509561093894959681519160208101519160408201519460608301516001600160a01b036080850151169160a085015115159361230b60e060c08801511515970151976040519d8e9a7ffed4cdda000000000000000000000000000000000000000000000000000000008c5261018060048d01526101848c01906127f3565b6003198982030160448a0152602080845192838152019301905f5b81811061258557505050916001600160a01b036040612359848b9a98966003198c60209f9c9a98030160648d0152612bd6565b978281511660848b0152828c8201511660a48b015201511660c488015260e487015261010486015261012485015261014484015261016483015203815f6001600160a01b037f0000000000000000000000000000000000000000000000000000000000000000165af192831561039b575f93612528575b506124b5948461033c9461247a946001600160a01b0361241695815f9a5193610140870151948261016089015197816101a06101808c01519b01519b6040519d8e612882565b168c521660208b015260408a015216606088015216608086015260a085015260c084015260e08301526101008201526040519283917f24901c0b00000000000000000000000000000000000000000000000000000000602084015260248301612f33565b604051809381927fedfa35680000000000000000000000000000000000000000000000000000000083526020600484015260248301906127f3565b0381836001600160a01b037f0000000000000000000000000000000000000000000000000000000000000000165af190811561039b575f9161250e575b5060208180518101031261020e57602080910151604051908152f35b61252291503d805f833e610b838183612910565b816124f2565b9092506020813d60201161257d575b8161254460209383612910565b8101031261020e576124b5945f9461033c9461247a946001600160a01b0361256e61241696612c86565b975050945092509450946123d0565b3d9150612537565b918095969798999a5093909293516001600160a01b0381511682526020810151906002821015610c4e578260606080926020948560019701526001600160a01b0360408201511660408401520151151560608201520195019101918d9998979695949392612326565b806001600160a01b036126046001938951612c09565b51166126108286612c09565b515201612284565b602090604051612627816128bc565b5f81525f838201525f60408201525f606082015282828601015201612279565b61265c9193503d805f833e610d188183612910565b918561220c565b3461020e5761013761267436612858565b9133612c9a565b3461020e57602060031936011261020e576004357fffffffff00000000000000000000000000000000000000000000000000000000811680910361020e57807f0f632fb300000000000000000000000000000000000000000000000000000000602092149081156126f2575b506040519015158152f35b7f01ffc9a700000000000000000000000000000000000000000000000000000000915014826126e7565b3461020e57604060031936011261020e576001600160a01b0361273d612818565b165f52600160205260405f206024355f52602052602060405f2054604051908152f35b3461020e5760208060031936011261020e576004355f526004815260405f20825f825461278c81612ad1565b93848452600191866001821691825f146110b55750506001146127b7575050610f6d92500383612910565b8592505f52815f20905f915b8583106127db575050610f6d9350820101858061106b565b805483890185015287945086939092019181016127c3565b90601f19601f602080948051918291828752018686015e5f8582860101520116010190565b600435906001600160a01b038216820361020e57565b602435906001600160a01b038216820361020e57565b35906001600160a01b038216820361020e57565b600319606091011261020e576004356001600160a01b038116810361020e57906024359060443590565b610120810190811067ffffffffffffffff821117611cb557604052565b610100810190811067ffffffffffffffff821117611cb557604052565b6080810190811067ffffffffffffffff821117611cb557604052565b6060810190811067ffffffffffffffff821117611cb557604052565b6020810190811067ffffffffffffffff821117611cb557604052565b90601f601f19910116810190811067ffffffffffffffff821117611cb557604052565b67ffffffffffffffff8111611cb557601f01601f191660200190565b81601f8201121561020e5780359061296682612933565b926129746040519485612910565b8284526020838301011161020e57815f926020809301838601378301015290565b3590811515820361020e57565b8082039291610140841261020e576040908151926129bf8461289f565b839581359267ffffffffffffffff9384811161020e57816129e191850161294f565b865260208301359184831161020e57612a1f7fffffffffffffffffffffffffffffffffffffffffffffffffffffffffffffffc092606094860161294f565b6020880152011261020e5782516060810192831181841017611cb557836101209360e09552612a4f818401612844565b8252612a5d60608401612844565b6020830152612a6e60808401612844565b8183015285015260a08101356060850152612a8b60c08201612844565b6080850152612a9b838201612995565b60a0850152612aad6101008201612995565b60c08501520135910152565b67ffffffffffffffff8111611cb55760051b60200190565b90600182811c92168015612b18575b6020831014612aeb57565b7f4e487b71000000000000000000000000000000000000000000000000000000005f52602260045260245ffd5b91607f1691612ae0565b9080601f8301121561020e57815190602091612b3d81612ab9565b93612b4b6040519586612910565b81855260208086019260051b82010192831161020e57602001905b828210612b74575050505090565b81518152908301908301612b66565b929192612b8f82612933565b91612b9d6040519384612910565b82948184528183011161020e578281602093845f96015e010152565b9080601f8301121561020e578151612bd392602001612b83565b90565b9081518082526020808093019301915f5b828110612bf5575050505090565b835185529381019392810192600101612be7565b8051821015612c1d5760209160051b010190565b7f4e487b71000000000000000000000000000000000000000000000000000000005f52603260045260245ffd5b9081518082526020808093019301915f5b828110612c69575050505090565b83516001600160a01b031685529381019392810192600101612c5b565b51906001600160a01b038216820361020e57565b91926001600160a01b038084169283156103ee5716928315611b6157825f52602060018152604091825f20875f528252825f205490848210612d4e57509183917f1b3d7edb2e9c0b0e7c525b20aaaef0f5940d2ed71663c7d39266ecafac72885994612d4994875f5260018352835f208a5f52835203825f2055865f5260018152815f2090885f5252805f20612d31838254612fee565b90555133815260208101919091529081906040820190565b0390a4565b83517fb1b4fec00000000000000000000000000000000000000000000000000000000081526001600160a01b0391909116600482015260248101919091526044810184905260648101879052608490fd5b5190811515820361020e57565b90602091828183031261020e57805167ffffffffffffffff9182821161020e5701916101c093848483031261020e5760405194850185811084821117611cb557604052835183811161020e57840182601f8201121561020e57805190612e1182612ab9565b91612e1f6040519384612910565b808352838084019160051b8301019185831161020e578401905b828210612f145750505085528084015183811161020e5782612e5c918601612b22565b90850152604083015182811161020e5781612e78918501612b22565b6040850152606083015191821161020e57612e94918301612b22565b60608301526080810151608083015260a081015160a083015260c081015160c083015260e081015160e0830152610100612ecf818301612d9f565b90830152610120612ee1818301612c86565b908301526101408082015190830152610160808201519083015261018080820151908301526101a0809101519082015290565b81516001600160a01b038116810361020e578152908401908401612e39565b602081526001600160a01b0391828151166020830152826020820151166040830152604081015190612f7361012092836060860152610140850190612c4a565b9380606083015116608085015260808201511660a084015260a081015160c084015260c081015160e084015260e0810151906101009182850152015191015290565b9060208282031261020e57815167ffffffffffffffff811161020e57612bd39201612bb9565b81810292918115918404141715611f3257565b91908201809211611f3257565b60208183031261020e5780519067ffffffffffffffff821161020e57019080601f8301121561020e578151612bd392602001612b83565b670de0b6b3a764000090818102918183041490151715611f32578115613056570490565b7f4e487b71000000000000000000000000000000000000000000000000000000005f52601260045260245ffd5b906130c0575080511561309857805190602001fd5b7fd6bda275000000000000000000000000000000000000000000000000000000005f5260045ffd5b81511580613106575b6130d1575090565b6001600160a01b03907f9996b315000000000000000000000000000000000000000000000000000000005f521660045260245ffd5b50803b156130c956fea2646970667358221220bac02564cd4ee64a49810a26213ed63ea04d4b6595d3e16e8fc0afd82c84e6b664736f6c634300081b0033",
  "linkReferences": {},
  "deployedLinkReferences": {}
}