{
  "_format": "hh-sol-artifact-1",
  "contractName": "Vault",
  "sourceName": "contracts/Vault.sol",
  "abi": [
    {
      "inputs": [
        {
          "internalType": "contract IVaultExtension",
          "name": "vaultExtension",
          "type": "address"
        },
        {
          "internalType": "contract IAuthorizer",
          "name": "authorizer",
          "type": "address"
        },
        {
          "internalType": "contract IProtocolFeeController",
          "name": "protocolFeeController",
          "type": "address"
        }
      ],
      "stateMutability": "nonpayable",
      "type": "constructor"
    },
    {
      "inputs": [
        {
          "internalType": "address",
          "name": "target",
          "type": "address"
        }
      ],
      "name": "AddressEmptyCode",
      "type": "error"
    },
    {
      "inputs": [
        {
          "internalType": "address",
          "name": "account",
          "type": "address"
        }
      ],
      "name": "AddressInsufficientBalance",
      "type": "error"
    },
    {
      "inputs": [],
      "name": "AfterAddLiquidityHookFailed",
      "type": "error"
    },
    {
      "inputs": [],
      "name": "AfterInitializeHookFailed",
      "type": "error"
    },
    {
      "inputs": [],
      "name": "AfterRemoveLiquidityHookFailed",
      "type": "error"
    },
    {
      "inputs": [],
      "name": "AfterSwapHookFailed",
      "type": "error"
    },
    {
      "inputs": [],
      "name": "AllZeroInputs",
      "type": "error"
    },
    {
      "inputs": [],
      "name": "AmountGivenZero",
      "type": "error"
    },
    {
      "inputs": [
        {
          "internalType": "contract IERC20",
          "name": "tokenIn",
          "type": "address"
        },
        {
          "internalType": "uint256",
          "name": "amountIn",
          "type": "uint256"
        },
        {
          "internalType": "uint256",
          "name": "maxAmountIn",
          "type": "uint256"
        }
      ],
      "name": "AmountInAboveMax",
      "type": "error"
    },
    {
      "inputs": [
        {
          "internalType": "contract IERC20",
          "name": "tokenOut",
          "type": "address"
        },
        {
          "internalType": "uint256",
          "name": "amountOut",
          "type": "uint256"
        },
        {
          "internalType": "uint256",
          "name": "minAmountOut",
          "type": "uint256"
        }
      ],
      "name": "AmountOutBelowMin",
      "type": "error"
    },
    {
      "inputs": [],
      "name": "BalanceNotSettled",
      "type": "error"
    },
    {
      "inputs": [],
      "name": "BalanceOverflow",
      "type": "error"
    },
    {
      "inputs": [],
      "name": "BeforeAddLiquidityHookFailed",
      "type": "error"
    },
    {
      "inputs": [],
      "name": "BeforeInitializeHookFailed",
      "type": "error"
    },
    {
      "inputs": [],
      "name": "BeforeRemoveLiquidityHookFailed",
      "type": "error"
    },
    {
      "inputs": [],
      "name": "BeforeSwapHookFailed",
      "type": "error"
    },
    {
      "inputs": [
        {
          "internalType": "uint256",
          "name": "amountIn",
          "type": "uint256"
        },
        {
          "internalType": "uint256",
          "name": "maxAmountIn",
          "type": "uint256"
        }
      ],
      "name": "BptAmountInAboveMax",
      "type": "error"
    },
    {
      "inputs": [
        {
          "internalType": "uint256",
          "name": "amountOut",
          "type": "uint256"
        },
        {
          "internalType": "uint256",
          "name": "minAmountOut",
          "type": "uint256"
        }
      ],
      "name": "BptAmountOutBelowMin",
      "type": "error"
    },
    {
      "inputs": [
        {
          "internalType": "contract IERC4626",
          "name": "wrappedToken",
          "type": "address"
        }
      ],
      "name": "BufferAlreadyInitialized",
      "type": "error"
    },
    {
      "inputs": [
        {
          "internalType": "contract IERC4626",
          "name": "wrappedToken",
          "type": "address"
        }
      ],
      "name": "BufferNotInitialized",
      "type": "error"
    },
    {
      "inputs": [],
      "name": "BufferSharesInvalidOwner",
      "type": "error"
    },
    {
      "inputs": [],
      "name": "BufferSharesInvalidReceiver",
      "type": "error"
    },
    {
      "inputs": [
        {
          "internalType": "uint256",
          "name": "totalSupply",
          "type": "uint256"
        }
      ],
      "name": "BufferTotalSupplyTooLow",
      "type": "error"
    },
    {
      "inputs": [],
      "name": "CannotReceiveEth",
      "type": "error"
    },
    {
      "inputs": [],
      "name": "CannotSwapSameToken",
      "type": "error"
    },
    {
      "inputs": [],
      "name": "DoesNotSupportAddLiquidityCustom",
      "type": "error"
    },
    {
      "inputs": [],
      "name": "DoesNotSupportDonation",
      "type": "error"
    },
    {
      "inputs": [],
      "name": "DoesNotSupportRemoveLiquidityCustom",
      "type": "error"
    },
    {
      "inputs": [],
      "name": "DoesNotSupportUnbalancedLiquidity",
      "type": "error"
    },
    {
      "inputs": [],
      "name": "DynamicSwapFeeHookFailed",
      "type": "error"
    },
    {
      "inputs": [
        {
          "internalType": "address",
          "name": "spender",
          "type": "address"
        },
        {
          "internalType": "uint256",
          "name": "allowance",
          "type": "uint256"
        },
        {
          "internalType": "uint256",
          "name": "needed",
          "type": "uint256"
        }
      ],
      "name": "ERC20InsufficientAllowance",
      "type": "error"
    },
    {
      "inputs": [
        {
          "internalType": "address",
          "name": "sender",
          "type": "address"
        },
        {
          "internalType": "uint256",
          "name": "balance",
          "type": "uint256"
        },
        {
          "internalType": "uint256",
          "name": "needed",
          "type": "uint256"
        }
      ],
      "name": "ERC20InsufficientBalance",
      "type": "error"
    },
    {
      "inputs": [
        {
          "internalType": "address",
          "name": "approver",
          "type": "address"
        }
      ],
      "name": "ERC20InvalidApprover",
      "type": "error"
    },
    {
      "inputs": [
        {
          "internalType": "address",
          "name": "receiver",
          "type": "address"
        }
      ],
      "name": "ERC20InvalidReceiver",
      "type": "error"
    },
    {
      "inputs": [
        {
          "internalType": "address",
          "name": "sender",
          "type": "address"
        }
      ],
      "name": "ERC20InvalidSender",
      "type": "error"
    },
    {
      "inputs": [
        {
          "internalType": "address",
          "name": "spender",
          "type": "address"
        }
      ],
      "name": "ERC20InvalidSpender",
      "type": "error"
    },
    {
      "inputs": [],
      "name": "FailedInnerCall",
      "type": "error"
    },
    {
      "inputs": [],
      "name": "FeePrecisionTooHigh",
      "type": "error"
    },
    {
      "inputs": [
        {
          "internalType": "contract IERC20",
          "name": "tokenIn",
          "type": "address"
        },
        {
          "internalType": "uint256",
          "name": "amountIn",
          "type": "uint256"
        },
        {
          "internalType": "uint256",
          "name": "maxAmountIn",
          "type": "uint256"
        }
      ],
      "name": "HookAdjustedAmountInAboveMax",
      "type": "error"
    },
    {
      "inputs": [
        {
          "internalType": "contract IERC20",
          "name": "tokenOut",
          "type": "address"
        },
        {
          "internalType": "uint256",
          "name": "amountOut",
          "type": "uint256"
        },
        {
          "internalType": "uint256",
          "name": "minAmountOut",
          "type": "uint256"
        }
      ],
      "name": "HookAdjustedAmountOutBelowMin",
      "type": "error"
    },
    {
      "inputs": [
        {
          "internalType": "uint256",
          "name": "amount",
          "type": "uint256"
        },
        {
          "internalType": "uint256",
          "name": "limit",
          "type": "uint256"
        }
      ],
      "name": "HookAdjustedSwapLimit",
      "type": "error"
    },
    {
      "inputs": [
        {
          "internalType": "address",
          "name": "poolHooksContract",
          "type": "address"
        },
        {
          "internalType": "address",
          "name": "pool",
          "type": "address"
        },
        {
          "internalType": "address",
          "name": "poolFactory",
          "type": "address"
        }
      ],
      "name": "HookRegistrationFailed",
      "type": "error"
    },
    {
      "inputs": [],
      "name": "InputLengthMismatch",
      "type": "error"
    },
    {
      "inputs": [],
      "name": "InvalidAddLiquidityKind",
      "type": "error"
    },
    {
      "inputs": [],
      "name": "InvalidRemoveLiquidityKind",
      "type": "error"
    },
    {
      "inputs": [],
      "name": "InvalidToken",
      "type": "error"
    },
    {
      "inputs": [],
      "name": "InvalidTokenConfiguration",
      "type": "error"
    },
    {
      "inputs": [],
      "name": "InvalidTokenDecimals",
      "type": "error"
    },
    {
      "inputs": [],
      "name": "InvalidTokenType",
      "type": "error"
    },
    {
      "inputs": [
        {
          "internalType": "contract IERC4626",
          "name": "wrappedToken",
          "type": "address"
        }
      ],
      "name": "InvalidUnderlyingToken",
      "type": "error"
    },
    {
      "inputs": [
        {
          "internalType": "uint256",
          "name": "invariantRatio",
          "type": "uint256"
        },
        {
          "internalType": "uint256",
          "name": "maxInvariantRatio",
          "type": "uint256"
        }
      ],
      "name": "InvariantRatioAboveMax",
      "type": "error"
    },
    {
      "inputs": [
        {
          "internalType": "uint256",
          "name": "invariantRatio",
          "type": "uint256"
        },
        {
          "internalType": "uint256",
          "name": "minInvariantRatio",
          "type": "uint256"
        }
      ],
      "name": "InvariantRatioBelowMin",
      "type": "error"
    },
    {
      "inputs": [
        {
          "internalType": "uint256",
          "name": "issuedShares",
          "type": "uint256"
        },
        {
          "internalType": "uint256",
          "name": "minIssuedShares",
          "type": "uint256"
        }
      ],
      "name": "IssuedSharesBelowMin",
      "type": "error"
    },
    {
      "inputs": [],
      "name": "MaxTokens",
      "type": "error"
    },
    {
      "inputs": [],
      "name": "MinTokens",
      "type": "error"
    },
    {
      "inputs": [],
      "name": "MultipleNonZeroInputs",
      "type": "error"
    },
    {
      "inputs": [],
      "name": "NotEnoughBufferShares",
      "type": "error"
    },
    {
      "inputs": [
        {
          "internalType": "contract IERC4626",
          "name": "wrappedToken",
          "type": "address"
        },
        {
          "internalType": "uint256",
          "name": "expectedUnderlyingAmount",
          "type": "uint256"
        },
        {
          "internalType": "uint256",
          "name": "actualUnderlyingAmount",
          "type": "uint256"
        }
      ],
      "name": "NotEnoughUnderlying",
      "type": "error"
    },
    {
      "inputs": [
        {
          "internalType": "contract IERC4626",
          "name": "wrappedToken",
          "type": "address"
        },
        {
          "internalType": "uint256",
          "name": "expectedWrappedAmount",
          "type": "uint256"
        },
        {
          "internalType": "uint256",
          "name": "actualWrappedAmount",
          "type": "uint256"
        }
      ],
      "name": "NotEnoughWrapped",
      "type": "error"
    },
    {
      "inputs": [],
      "name": "NotStaticCall",
      "type": "error"
    },
    {
      "inputs": [],
      "name": "NotVaultDelegateCall",
      "type": "error"
    },
    {
      "inputs": [],
      "name": "PauseBufferPeriodDurationTooLarge",
      "type": "error"
    },
    {
      "inputs": [],
      "name": "PercentageAboveMax",
      "type": "error"
    },
    {
      "inputs": [
        {
          "internalType": "address",
          "name": "pool",
          "type": "address"
        }
      ],
      "name": "PoolAlreadyInitialized",
      "type": "error"
    },
    {
      "inputs": [
        {
          "internalType": "address",
          "name": "pool",
          "type": "address"
        }
      ],
      "name": "PoolAlreadyRegistered",
      "type": "error"
    },
    {
      "inputs": [
        {
          "internalType": "address",
          "name": "pool",
          "type": "address"
        }
      ],
      "name": "PoolInRecoveryMode",
      "type": "error"
    },
    {
      "inputs": [
        {
          "internalType": "address",
          "name": "pool",
          "type": "address"
        }
      ],
      "name": "PoolNotInRecoveryMode",
      "type": "error"
    },
    {
      "inputs": [
        {
          "internalType": "address",
          "name": "pool",
          "type": "address"
        }
      ],
      "name": "PoolNotInitialized",
      "type": "error"
    },
    {
      "inputs": [
        {
          "internalType": "address",
          "name": "pool",
          "type": "address"
        }
      ],
      "name": "PoolNotPaused",
      "type": "error"
    },
    {
      "inputs": [
        {
          "internalType": "address",
          "name": "pool",
          "type": "address"
        }
      ],
      "name": "PoolNotRegistered",
      "type": "error"
    },
    {
      "inputs": [
        {
          "internalType": "address",
          "name": "pool",
          "type": "address"
        }
      ],
      "name": "PoolPauseWindowExpired",
      "type": "error"
    },
    {
      "inputs": [
        {
          "internalType": "address",
          "name": "pool",
          "type": "address"
        }
      ],
      "name": "PoolPaused",
      "type": "error"
    },
    {
      "inputs": [
        {
          "internalType": "uint256",
          "name": "totalSupply",
          "type": "uint256"
        }
      ],
      "name": "PoolTotalSupplyTooLow",
      "type": "error"
    },
    {
      "inputs": [],
      "name": "ProtocolFeesExceedTotalCollected",
      "type": "error"
    },
    {
      "inputs": [],
      "name": "QueriesDisabled",
      "type": "error"
    },
    {
      "inputs": [],
      "name": "QueriesDisabledPermanently",
      "type": "error"
    },
    {
      "inputs": [],
      "name": "QuoteResultSpoofed",
      "type": "error"
    },
    {
      "inputs": [],
      "name": "ReentrancyGuardReentrantCall",
      "type": "error"
    },
    {
      "inputs": [],
      "name": "RouterNotTrusted",
      "type": "error"
    },
    {
      "inputs": [
        {
          "internalType": "int256",
          "name": "value",
          "type": "int256"
        }
      ],
      "name": "SafeCastOverflowedIntToUint",
      "type": "error"
    },
    {
      "inputs": [
        {
          "internalType": "uint256",
          "name": "value",
          "type": "uint256"
        }
      ],
      "name": "SafeCastOverflowedUintToInt",
      "type": "error"
    },
    {
      "inputs": [
        {
          "internalType": "address",
          "name": "token",
          "type": "address"
        }
      ],
      "name": "SafeERC20FailedOperation",
      "type": "error"
    },
    {
      "inputs": [
        {
          "internalType": "address",
          "name": "sender",
          "type": "address"
        }
      ],
      "name": "SenderIsNotVault",
      "type": "error"
    },
    {
      "inputs": [],
      "name": "SwapFeePercentageTooHigh",
      "type": "error"
    },
    {
      "inputs": [],
      "name": "SwapFeePercentageTooLow",
      "type": "error"
    },
    {
      "inputs": [
        {
          "internalType": "uint256",
          "name": "amount",
          "type": "uint256"
        },
        {
          "internalType": "uint256",
          "name": "limit",
          "type": "uint256"
        }
      ],
      "name": "SwapLimit",
      "type": "error"
    },
    {
      "inputs": [
        {
          "internalType": "contract IERC20",
          "name": "token",
          "type": "address"
        }
      ],
      "name": "TokenAlreadyRegistered",
      "type": "error"
    },
    {
      "inputs": [
        {
          "internalType": "contract IERC20",
          "name": "token",
          "type": "address"
        }
      ],
      "name": "TokenNotRegistered",
      "type": "error"
    },
    {
      "inputs": [
        {
          "internalType": "address",
          "name": "pool",
          "type": "address"
        },
        {
          "internalType": "address",
          "name": "expectedToken",
          "type": "address"
        },
        {
          "internalType": "address",
          "name": "actualToken",
          "type": "address"
        }
      ],
      "name": "TokensMismatch",
      "type": "error"
    },
    {
      "inputs": [],
      "name": "TradeAmountTooSmall",
      "type": "error"
    },
    {
      "inputs": [],
      "name": "VaultBuffersArePaused",
      "type": "error"
    },
    {
      "inputs": [],
      "name": "VaultIsNotUnlocked",
      "type": "error"
    },
    {
      "inputs": [],
      "name": "VaultNotPaused",
      "type": "error"
    },
    {
      "inputs": [],
      "name": "VaultPauseWindowDurationTooLarge",
      "type": "error"
    },
    {
      "inputs": [],
      "name": "VaultPauseWindowExpired",
      "type": "error"
    },
    {
      "inputs": [],
      "name": "VaultPaused",
      "type": "error"
    },
    {
      "inputs": [
        {
          "internalType": "contract IERC4626",
          "name": "wrappedToken",
          "type": "address"
        }
      ],
      "name": "WrapAmountTooSmall",
      "type": "error"
    },
    {
      "inputs": [],
      "name": "WrongProtocolFeeControllerDeployment",
      "type": "error"
    },
    {
      "inputs": [
        {
          "internalType": "contract IERC4626",
          "name": "wrappedToken",
          "type": "address"
        },
        {
          "internalType": "address",
          "name": "underlyingToken",
          "type": "address"
        }
      ],
      "name": "WrongUnderlyingToken",
      "type": "error"
    },
    {
      "inputs": [],
      "name": "WrongVaultAdminDeployment",
      "type": "error"
    },
    {
      "inputs": [],
      "name": "WrongVaultExtensionDeployment",
      "type": "error"
    },
    {
      "inputs": [],
      "name": "ZeroDivision",
      "type": "error"
    },
    {
      "anonymous": false,
      "inputs": [
        {
          "indexed": true,
          "internalType": "address",
          "name": "pool",
          "type": "address"
        },
        {
          "indexed": false,
          "internalType": "uint256",
          "name": "aggregateSwapFeePercentage",
          "type": "uint256"
        }
      ],
      "name": "AggregateSwapFeePercentageChanged",
      "type": "event"
    },
    {
      "anonymous": false,
      "inputs": [
        {
          "indexed": true,
          "internalType": "address",
          "name": "pool",
          "type": "address"
        },
        {
          "indexed": false,
          "internalType": "uint256",
          "name": "aggregateYieldFeePercentage",
          "type": "uint256"
        }
      ],
      "name": "AggregateYieldFeePercentageChanged",
      "type": "event"
    },
    {
      "anonymous": false,
      "inputs": [
        {
          "indexed": true,
          "internalType": "address",
          "name": "pool",
          "type": "address"
        },
        {
          "indexed": true,
          "internalType": "address",
          "name": "owner",
          "type": "address"
        },
        {
          "indexed": true,
          "internalType": "address",
          "name": "spender",
          "type": "address"
        },
        {
          "indexed": false,
          "internalType": "uint256",
          "name": "value",
          "type": "uint256"
        }
      ],
      "name": "Approval",
      "type": "event"
    },
    {
      "anonymous": false,
      "inputs": [
        {
          "indexed": true,
          "internalType": "contract IAuthorizer",
          "name": "newAuthorizer",
          "type": "address"
        }
      ],
      "name": "AuthorizerChanged",
      "type": "event"
    },
    {
      "anonymous": false,
      "inputs": [
        {
          "indexed": true,
          "internalType": "contract IERC4626",
          "name": "wrappedToken",
          "type": "address"
        },
        {
          "indexed": true,
          "internalType": "address",
          "name": "from",
          "type": "address"
        },
        {
          "indexed": false,
          "internalType": "uint256",
          "name": "burnedShares",
          "type": "uint256"
        }
      ],
      "name": "BufferSharesBurned",
      "type": "event"
    },
    {
      "anonymous": false,
      "inputs": [
        {
          "indexed": true,
          "internalType": "contract IERC4626",
          "name": "wrappedToken",
          "type": "address"
        },
        {
          "indexed": true,
          "internalType": "address",
          "name": "to",
          "type": "address"
        },
        {
          "indexed": false,
          "internalType": "uint256",
          "name": "issuedShares",
          "type": "uint256"
        }
      ],
      "name": "BufferSharesMinted",
      "type": "event"
    },
    {
      "anonymous": false,
      "inputs": [
        {
          "indexed": true,
          "internalType": "address",
          "name": "pool",
          "type": "address"
        },
        {
          "indexed": true,
          "internalType": "address",
          "name": "liquidityProvider",
          "type": "address"
        },
        {
          "indexed": true,
          "internalType": "enum AddLiquidityKind",
          "name": "kind",
          "type": "uint8"
        },
        {
          "indexed": false,
          "internalType": "uint256",
          "name": "totalSupply",
          "type": "uint256"
        },
        {
          "indexed": false,
          "internalType": "uint256[]",
          "name": "amountsAddedRaw",
          "type": "uint256[]"
        },
        {
          "indexed": false,
          "internalType": "uint256[]",
          "name": "swapFeeAmountsRaw",
          "type": "uint256[]"
        }
      ],
      "name": "LiquidityAdded",
      "type": "event"
    },
    {
      "anonymous": false,
      "inputs": [
        {
          "indexed": true,
          "internalType": "contract IERC4626",
          "name": "wrappedToken",
          "type": "address"
        },
        {
          "indexed": false,
          "internalType": "uint256",
          "name": "amountUnderlying",
          "type": "uint256"
        },
        {
          "indexed": false,
          "internalType": "uint256",
          "name": "amountWrapped",
          "type": "uint256"
        },
        {
          "indexed": false,
          "internalType": "bytes32",
          "name": "bufferBalances",
          "type": "bytes32"
        }
      ],
      "name": "LiquidityAddedToBuffer",
      "type": "event"
    },
    {
      "anonymous": false,
      "inputs": [
        {
          "indexed": true,
          "internalType": "address",
          "name": "pool",
          "type": "address"
        },
        {
          "indexed": true,
          "internalType": "address",
          "name": "liquidityProvider",
          "type": "address"
        },
        {
          "indexed": true,
          "internalType": "enum RemoveLiquidityKind",
          "name": "kind",
          "type": "uint8"
        },
        {
          "indexed": false,
          "internalType": "uint256",
          "name": "totalSupply",
          "type": "uint256"
        },
        {
          "indexed": false,
          "internalType": "uint256[]",
          "name": "amountsRemovedRaw",
          "type": "uint256[]"
        },
        {
          "indexed": false,
          "internalType": "uint256[]",
          "name": "swapFeeAmountsRaw",
          "type": "uint256[]"
        }
      ],
      "name": "LiquidityRemoved",
      "type": "event"
    },
    {
      "anonymous": false,
      "inputs": [
        {
          "indexed": true,
          "internalType": "contract IERC4626",
          "name": "wrappedToken",
          "type": "address"
        },
        {
          "indexed": false,
          "internalType": "uint256",
          "name": "amountUnderlying",
          "type": "uint256"
        },
        {
          "indexed": false,
          "internalType": "uint256",
          "name": "amountWrapped",
          "type": "uint256"
        },
        {
          "indexed": false,
          "internalType": "bytes32",
          "name": "bufferBalances",
          "type": "bytes32"
        }
      ],
      "name": "LiquidityRemovedFromBuffer",
      "type": "event"
    },
    {
      "anonymous": false,
      "inputs": [
        {
          "indexed": true,
          "internalType": "address",
          "name": "pool",
          "type": "address"
        }
      ],
      "name": "PoolInitialized",
      "type": "event"
    },
    {
      "anonymous": false,
      "inputs": [
        {
          "indexed": true,
          "internalType": "address",
          "name": "pool",
          "type": "address"
        },
        {
          "indexed": false,
          "internalType": "bool",
          "name": "paused",
          "type": "bool"
        }
      ],
      "name": "PoolPausedStateChanged",
      "type": "event"
    },
    {
      "anonymous": false,
      "inputs": [
        {
          "indexed": true,
          "internalType": "address",
          "name": "pool",
          "type": "address"
        },
        {
          "indexed": false,
          "internalType": "bool",
          "name": "recoveryMode",
          "type": "bool"
        }
      ],
      "name": "PoolRecoveryModeStateChanged",
      "type": "event"
    },
    {
      "anonymous": false,
      "inputs": [
        {
          "indexed": true,
          "internalType": "address",
          "name": "pool",
          "type": "address"
        },
        {
          "indexed": true,
          "internalType": "address",
          "name": "factory",
          "type": "address"
        },
        {
          "components": [
            {
              "internalType": "contract IERC20",
              "name": "token",
              "type": "address"
            },
            {
              "internalType": "enum TokenType",
              "name": "tokenType",
              "type": "uint8"
            },
            {
              "internalType": "contract IRateProvider",
              "name": "rateProvider",
              "type": "address"
            },
            {
              "internalType": "bool",
              "name": "paysYieldFees",
              "type": "bool"
            }
          ],
          "indexed": false,
          "internalType": "struct TokenConfig[]",
          "name": "tokenConfig",
          "type": "tuple[]"
        },
        {
          "indexed": false,
          "internalType": "uint256",
          "name": "swapFeePercentage",
          "type": "uint256"
        },
        {
          "indexed": false,
          "internalType": "uint32",
          "name": "pauseWindowEndTime",
          "type": "uint32"
        },
        {
          "components": [
            {
              "internalType": "address",
              "name": "pauseManager",
              "type": "address"
            },
            {
              "internalType": "address",
              "name": "swapFeeManager",
              "type": "address"
            },
            {
              "internalType": "address",
              "name": "poolCreator",
              "type": "address"
            }
          ],
          "indexed": false,
          "internalType": "struct PoolRoleAccounts",
          "name": "roleAccounts",
          "type": "tuple"
        },
        {
          "components": [
            {
              "internalType": "bool",
              "name": "enableHookAdjustedAmounts",
              "type": "bool"
            },
            {
              "internalType": "bool",
              "name": "shouldCallBeforeInitialize",
              "type": "bool"
            },
            {
              "internalType": "bool",
              "name": "shouldCallAfterInitialize",
              "type": "bool"
            },
            {
              "internalType": "bool",
              "name": "shouldCallComputeDynamicSwapFee",
              "type": "bool"
            },
            {
              "internalType": "bool",
              "name": "shouldCallBeforeSwap",
              "type": "bool"
            },
            {
              "internalType": "bool",
              "name": "shouldCallAfterSwap",
              "type": "bool"
            },
            {
              "internalType": "bool",
              "name": "shouldCallBeforeAddLiquidity",
              "type": "bool"
            },
            {
              "internalType": "bool",
              "name": "shouldCallAfterAddLiquidity",
              "type": "bool"
            },
            {
              "internalType": "bool",
              "name": "shouldCallBeforeRemoveLiquidity",
              "type": "bool"
            },
            {
              "internalType": "bool",
              "name": "shouldCallAfterRemoveLiquidity",
              "type": "bool"
            },
            {
              "internalType": "address",
              "name": "hooksContract",
              "type": "address"
            }
          ],
          "indexed": false,
          "internalType": "struct HooksConfig",
          "name": "hooksConfig",
          "type": "tuple"
        },
        {
          "components": [
            {
              "internalType": "bool",
              "name": "disableUnbalancedLiquidity",
              "type": "bool"
            },
            {
              "internalType": "bool",
              "name": "enableAddLiquidityCustom",
              "type": "bool"
            },
            {
              "internalType": "bool",
              "name": "enableRemoveLiquidityCustom",
              "type": "bool"
            },
            {
              "internalType": "bool",
              "name": "enableDonation",
              "type": "bool"
            }
          ],
          "indexed": false,
          "internalType": "struct LiquidityManagement",
          "name": "liquidityManagement",
          "type": "tuple"
        }
      ],
      "name": "PoolRegistered",
      "type": "event"
    },
    {
      "anonymous": false,
      "inputs": [
        {
          "indexed": true,
          "internalType": "contract IProtocolFeeController",
          "name": "newProtocolFeeController",
          "type": "address"
        }
      ],
      "name": "ProtocolFeeControllerChanged",
      "type": "event"
    },
    {
      "anonymous": false,
      "inputs": [
        {
          "indexed": true,
          "internalType": "address",
          "name": "pool",
          "type": "address"
        },
        {
          "indexed": true,
          "internalType": "contract IERC20",
          "name": "tokenIn",
          "type": "address"
        },
        {
          "indexed": true,
          "internalType": "contract IERC20",
          "name": "tokenOut",
          "type": "address"
        },
        {
          "indexed": false,
          "internalType": "uint256",
          "name": "amountIn",
          "type": "uint256"
        },
        {
          "indexed": false,
          "internalType": "uint256",
          "name": "amountOut",
          "type": "uint256"
        },
        {
          "indexed": false,
          "internalType": "uint256",
          "name": "swapFeePercentage",
          "type": "uint256"
        },
        {
          "indexed": false,
          "internalType": "uint256",
          "name": "swapFeeAmount",
          "type": "uint256"
        }
      ],
      "name": "Swap",
      "type": "event"
    },
    {
      "anonymous": false,
      "inputs": [
        {
          "indexed": true,
          "internalType": "address",
          "name": "pool",
          "type": "address"
        },
        {
          "indexed": false,
          "internalType": "uint256",
          "name": "swapFeePercentage",
          "type": "uint256"
        }
      ],
      "name": "SwapFeePercentageChanged",
      "type": "event"
    },
    {
      "anonymous": false,
      "inputs": [
        {
          "indexed": true,
          "internalType": "address",
          "name": "pool",
          "type": "address"
        },
        {
          "indexed": true,
          "internalType": "address",
          "name": "from",
          "type": "address"
        },
        {
          "indexed": true,
          "internalType": "address",
          "name": "to",
          "type": "address"
        },
        {
          "indexed": false,
          "internalType": "uint256",
          "name": "value",
          "type": "uint256"
        }
      ],
      "name": "Transfer",
      "type": "event"
    },
    {
      "anonymous": false,
      "inputs": [
        {
          "indexed": true,
          "internalType": "contract IERC4626",
          "name": "wrappedToken",
          "type": "address"
        },
        {
          "indexed": false,
          "internalType": "uint256",
          "name": "burnedShares",
          "type": "uint256"
        },
        {
          "indexed": false,
          "internalType": "uint256",
          "name": "withdrawnUnderlying",
          "type": "uint256"
        },
        {
          "indexed": false,
          "internalType": "bytes32",
          "name": "bufferBalances",
          "type": "bytes32"
        }
      ],
      "name": "Unwrap",
      "type": "event"
    },
    {
      "anonymous": false,
      "inputs": [
        {
          "indexed": false,
          "internalType": "address",
          "name": "pool",
          "type": "address"
        },
        {
          "indexed": false,
          "internalType": "string",
          "name": "eventKey",
          "type": "string"
        },
        {
          "indexed": false,
          "internalType": "bytes",
          "name": "eventData",
          "type": "bytes"
        }
      ],
      "name": "VaultAuxiliary",
      "type": "event"
    },
    {
      "anonymous": false,
      "inputs": [
        {
          "indexed": false,
          "internalType": "bool",
          "name": "paused",
          "type": "bool"
        }
      ],
      "name": "VaultBuffersPausedStateChanged",
      "type": "event"
    },
    {
      "anonymous": false,
      "inputs": [
        {
          "indexed": false,
          "internalType": "bool",
          "name": "paused",
          "type": "bool"
        }
      ],
      "name": "VaultPausedStateChanged",
      "type": "event"
    },
    {
      "anonymous": false,
      "inputs": [],
      "name": "VaultQueriesDisabled",
      "type": "event"
    },
    {
      "anonymous": false,
      "inputs": [],
      "name": "VaultQueriesEnabled",
      "type": "event"
    },
    {
      "anonymous": false,
      "inputs": [
        {
          "indexed": true,
          "internalType": "contract IERC4626",
          "name": "wrappedToken",
          "type": "address"
        },
        {
          "indexed": false,
          "internalType": "uint256",
          "name": "depositedUnderlying",
          "type": "uint256"
        },
        {
          "indexed": false,
          "internalType": "uint256",
          "name": "mintedShares",
          "type": "uint256"
        },
        {
          "indexed": false,
          "internalType": "bytes32",
          "name": "bufferBalances",
          "type": "bytes32"
        }
      ],
      "name": "Wrap",
      "type": "event"
    },
    {
      "stateMutability": "payable",
      "type": "fallback"
    },
    {
      "inputs": [
        {
          "components": [
            {
              "internalType": "address",
              "name": "pool",
              "type": "address"
            },
            {
              "internalType": "address",
              "name": "to",
              "type": "address"
            },
            {
              "internalType": "uint256[]",
              "name": "maxAmountsIn",
              "type": "uint256[]"
            },
            {
              "internalType": "uint256",
              "name": "minBptAmountOut",
              "type": "uint256"
            },
            {
              "internalType": "enum AddLiquidityKind",
              "name": "kind",
              "type": "uint8"
            },
            {
              "internalType": "bytes",
              "name": "userData",
              "type": "bytes"
            }
          ],
          "internalType": "struct AddLiquidityParams",
          "name": "params",
          "type": "tuple"
        }
      ],
      "name": "addLiquidity",
      "outputs": [
        {
          "internalType": "uint256[]",
          "name": "amountsIn",
          "type": "uint256[]"
        },
        {
          "internalType": "uint256",
          "name": "bptAmountOut",
          "type": "uint256"
        },
        {
          "internalType": "bytes",
          "name": "returnData",
          "type": "bytes"
        }
      ],
      "stateMutability": "nonpayable",
      "type": "function"
    },
    {
      "inputs": [
        {
          "components": [
            {
              "internalType": "enum SwapKind",
              "name": "kind",
              "type": "uint8"
            },
            {
              "internalType": "enum WrappingDirection",
              "name": "direction",
              "type": "uint8"
            },
            {
              "internalType": "contract IERC4626",
              "name": "wrappedToken",
              "type": "address"
            },
            {
              "internalType": "uint256",
              "name": "amountGivenRaw",
              "type": "uint256"
            },
            {
              "internalType": "uint256",
              "name": "limitRaw",
              "type": "uint256"
            }
          ],
          "internalType": "struct BufferWrapOrUnwrapParams",
          "name": "params",
          "type": "tuple"
        }
      ],
      "name": "erc4626BufferWrapOrUnwrap",
      "outputs": [
        {
          "internalType": "uint256",
          "name": "amountCalculatedRaw",
          "type": "uint256"
        },
        {
          "internalType": "uint256",
          "name": "amountInRaw",
          "type": "uint256"
        },
        {
          "internalType": "uint256",
          "name": "amountOutRaw",
          "type": "uint256"
        }
      ],
      "stateMutability": "nonpayable",
      "type": "function"
    },
    {
      "inputs": [],
      "name": "getAuthorizer",
      "outputs": [
        {
          "internalType": "contract IAuthorizer",
          "name": "",
          "type": "address"
        }
      ],
      "stateMutability": "view",
      "type": "function"
    },
    {
      "inputs": [
        {
          "internalType": "address",
          "name": "pool",
          "type": "address"
        },
        {
          "internalType": "contract IERC20",
          "name": "token",
          "type": "address"
        }
      ],
      "name": "getPoolTokenCountAndIndexOfToken",
      "outputs": [
        {
          "internalType": "uint256",
          "name": "",
          "type": "uint256"
        },
        {
          "internalType": "uint256",
          "name": "",
          "type": "uint256"
        }
      ],
      "stateMutability": "view",
      "type": "function"
    },
    {
      "inputs": [],
      "name": "getVaultExtension",
      "outputs": [
        {
          "internalType": "address",
          "name": "",
          "type": "address"
        }
      ],
      "stateMutability": "view",
      "type": "function"
    },
    {
      "inputs": [],
      "name": "reentrancyGuardEntered",
      "outputs": [
        {
          "internalType": "bool",
          "name": "",
          "type": "bool"
        }
      ],
      "stateMutability": "view",
      "type": "function"
    },
    {
      "inputs": [
        {
          "components": [
            {
              "internalType": "address",
              "name": "pool",
              "type": "address"
            },
            {
              "internalType": "address",
              "name": "from",
              "type": "address"
            },
            {
              "internalType": "uint256",
              "name": "maxBptAmountIn",
              "type": "uint256"
            },
            {
              "internalType": "uint256[]",
              "name": "minAmountsOut",
              "type": "uint256[]"
            },
            {
              "internalType": "enum RemoveLiquidityKind",
              "name": "kind",
              "type": "uint8"
            },
            {
              "internalType": "bytes",
              "name": "userData",
              "type": "bytes"
            }
          ],
          "internalType": "struct RemoveLiquidityParams",
          "name": "params",
          "type": "tuple"
        }
      ],
      "name": "removeLiquidity",
      "outputs": [
        {
          "internalType": "uint256",
          "name": "bptAmountIn",
          "type": "uint256"
        },
        {
          "internalType": "uint256[]",
          "name": "amountsOut",
          "type": "uint256[]"
        },
        {
          "internalType": "bytes",
          "name": "returnData",
          "type": "bytes"
        }
      ],
      "stateMutability": "nonpayable",
      "type": "function"
    },
    {
      "inputs": [
        {
          "internalType": "contract IERC20",
          "name": "token",
          "type": "address"
        },
        {
          "internalType": "address",
          "name": "to",
          "type": "address"
        },
        {
          "internalType": "uint256",
          "name": "amount",
          "type": "uint256"
        }
      ],
      "name": "sendTo",
      "outputs": [],
      "stateMutability": "nonpayable",
      "type": "function"
    },
    {
      "inputs": [
        {
          "internalType": "contract IERC20",
          "name": "token",
          "type": "address"
        },
        {
          "internalType": "uint256",
          "name": "amountHint",
          "type": "uint256"
        }
      ],
      "name": "settle",
      "outputs": [
        {
          "internalType": "uint256",
          "name": "credit",
          "type": "uint256"
        }
      ],
      "stateMutability": "nonpayable",
      "type": "function"
    },
    {
      "inputs": [
        {
          "components": [
            {
              "internalType": "enum SwapKind",
              "name": "kind",
              "type": "uint8"
            },
            {
              "internalType": "address",
              "name": "pool",
              "type": "address"
            },
            {
              "internalType": "contract IERC20",
              "name": "tokenIn",
              "type": "address"
            },
            {
              "internalType": "contract IERC20",
              "name": "tokenOut",
              "type": "address"
            },
            {
              "internalType": "uint256",
              "name": "amountGivenRaw",
              "type": "uint256"
            },
            {
              "internalType": "uint256",
              "name": "limitRaw",
              "type": "uint256"
            },
            {
              "internalType": "bytes",
              "name": "userData",
              "type": "bytes"
            }
          ],
          "internalType": "struct VaultSwapParams",
          "name": "vaultSwapParams",
          "type": "tuple"
        }
      ],
      "name": "swap",
      "outputs": [
        {
          "internalType": "uint256",
          "name": "amountCalculated",
          "type": "uint256"
        },
        {
          "internalType": "uint256",
          "name": "amountIn",
          "type": "uint256"
        },
        {
          "internalType": "uint256",
          "name": "amountOut",
          "type": "uint256"
        }
      ],
      "stateMutability": "nonpayable",
      "type": "function"
    },
    {
      "inputs": [
        {
          "internalType": "address",
          "name": "owner",
          "type": "address"
        },
        {
          "internalType": "address",
          "name": "to",
          "type": "address"
        },
        {
          "internalType": "uint256",
          "name": "amount",
          "type": "uint256"
        }
      ],
      "name": "transfer",
      "outputs": [
        {
          "internalType": "bool",
          "name": "",
          "type": "bool"
        }
      ],
      "stateMutability": "nonpayable",
      "type": "function"
    },
    {
      "inputs": [
        {
          "internalType": "address",
          "name": "spender",
          "type": "address"
        },
        {
          "internalType": "address",
          "name": "from",
          "type": "address"
        },
        {
          "internalType": "address",
          "name": "to",
          "type": "address"
        },
        {
          "internalType": "uint256",
          "name": "amount",
          "type": "uint256"
        }
      ],
      "name": "transferFrom",
      "outputs": [
        {
          "internalType": "bool",
          "name": "",
          "type": "bool"
        }
      ],
      "stateMutability": "nonpayable",
      "type": "function"
    },
    {
      "inputs": [
        {
          "internalType": "bytes",
          "name": "data",
          "type": "bytes"
        }
      ],
      "name": "unlock",
      "outputs": [
        {
          "internalType": "bytes",
          "name": "result",
          "type": "bytes"
        }
      ],
      "stateMutability": "nonpayable",
      "type": "function"
    },
    {
      "stateMutability": "payable",
      "type": "receive"
    }
  ],
  "bytecode": "0x6101c06040818152346103275760608261653c8038038091610021828561048d565b8339810103126103275781516001600160a01b0380821680830361032757602080860151958387168703610327578501519483861680960361032757610086815161006b8161045e565b600a8152691a5cd55b9b1bd8dad95960b21b848201526104eb565b60c0526100b981516100978161045e565b60118152701b9bdb96995c9bd1195b1d1850dbdd5b9d607a1b848201526104eb565b60e0526100e681516100ca8161045e565b600b81526a746f6b656e44656c74617360a81b848201526104eb565b9661010097885261011e82516100fb8161045e565b6012815271185919131a5c5d5a591a5d1e50d85b1b195960721b858201526104eb565b9661012097885282519563fbfa77cf60e01b9081885260049786818a818b5afa90811561036b575f91610441575b50813091160361043357845191825285828981865afa9182156103a4575f92610404575b50309116036103f6576101a0968752600a80546001600160a01b0319169190911790558151634546891d60e11b81529280848781885afa9384156103ec575f946103cd575b506101409384528251631060fdbd60e11b81529581878281895afa968715610332575f976103ae575b50610180968752835163cd51c12f60e01b81529582878381845afa9687156103a4575f97610375575b506101609687528451630716585d60e51b815283818481855afa90811561036b57908492915f9161033c575b5060805285516329cab55160e11b815292839182905afa918215610332575f92610300575b505060a05260098054610100600160a81b03191660089290921b610100600160a81b031691909117905551615f7d96909590876105bf88396080518761524d015260a05187610fdd015260c05187818161122401526114e3015260e051878181611265015281816145e90152614631015251866145a10152518581816112ec01526123640152518450505183611872015251826119080152518181816109a8015261144d0152f35b90809250813d831161032b575b610317818361048d565b8101031261032757515f80610258565b5f80fd5b503d61030d565b84513d5f823e3d90fd5b83819492503d8311610364575b610353818361048d565b81010312610327578391515f610233565b503d610349565b86513d5f823e3d90fd5b610396919750833d851161039d575b61038e818361048d565b8101906104cf565b955f610207565b503d610384565b85513d5f823e3d90fd5b6103c6919750823d841161039d5761038e818361048d565b955f6101de565b816103e59295503d861161039d5761038e818361048d565b925f6101b5565b83513d5f823e3d90fd5b85631bbe95c760e01b5f525ffd5b610425919250863d881161042c575b61041d818361048d565b8101906104b0565b905f610170565b503d610413565b876301ab9d9d60e41b5f525ffd5b6104589150873d891161042c5761041d818361048d565b5f61014c565b604081019081106001600160401b0382111761047957604052565b634e487b7160e01b5f52604160045260245ffd5b601f909101601f19168101906001600160401b0382119082101761047957604052565b9081602091031261032757516001600160a01b03811681036103275790565b90816020910312610327575163ffffffff811681036103275790565b604051906104f88261045e565b600c8252610579603a602084016b5661756c7453746f7261676560a01b81526020604051948592828401977f62616c616e6365722d6c6162732e76332e73746f726167652e000000000000008952518091603986015e830190601760f91b60398301528051928391018583015e015f8382015203601a81018452018261048d565b5190205f1981019081116105aa5760405190602082019081526020825261059f8261045e565b9051902060ff191690565b634e487b7160e01b5f52601160045260245ffdfe60806040526004361015610018575b3661143657611427565b5f3560e01c806315afd409146100e757806315dacbea146100e257806321457897146100dd5780632bfb780c146100d857806343583be5146100d357806348c89491146100ce5780634af29ec4146100c9578063aaabadc5146100c4578063ae639329146100bf578063b9a8effa146100ba578063beabacc8146100b5578063c9c1661b146100b05763d2c725e00361000e57610ae7565b610a02565b6109cc565b610989565b6108a9565b610880565b6107a6565b61070d565b610681565b6105a9565b6104c4565b61021f565b61010e565b6001600160a01b038116036100fd57565b5f80fd5b359061010c826100ec565b565b346100fd5760403660031901126100fd5760043561012b816100ec565b602435610136611480565b61013e6114e1565b6001600160a01b0382165f818152600860209081526040918290205491516370a0823160e01b8152306004820152919492829060249082905afa93841561021a576101dd946101b1925f916101eb575b50806101ab856001600160a01b03165f52600860205260405f2090565b55610b61565b918083116101e1575b50816101c591611519565b6101cd6114bc565b6040519081529081906020820190565b0390f35b91506101c56101ba565b61020d915060203d602011610213575b61020581836102dd565b810190610b25565b5f61018e565b503d6101fb565b610b34565b346100fd5760803660031901126100fd5761026d60043561023f816100ec565b60243561024b816100ec565b60443590610258826100ec565b6102676064358094833361153b565b336116b4565b602060405160018152f35b634e487b7160e01b5f52604160045260245ffd5b67ffffffffffffffff81116102a057604052565b610278565b60e0810190811067ffffffffffffffff8211176102a057604052565b6060810190811067ffffffffffffffff8211176102a057604052565b90601f8019910116810190811067ffffffffffffffff8211176102a057604052565b6040519060c0820182811067ffffffffffffffff8211176102a057604052565b6040519061010c826102a5565b60405190610180820182811067ffffffffffffffff8211176102a057604052565b67ffffffffffffffff81116102a05760051b60200190565b9080601f830112156100fd57602090823561037f8161034d565b9361038d60405195866102dd565b81855260208086019260051b8201019283116100fd57602001905b8282106103b6575050505090565b813581529083019083016103a8565b359060048210156100fd57565b67ffffffffffffffff81116102a057601f01601f191660200190565b9291926103fa826103d2565b9161040860405193846102dd565b8294818452818301116100fd578281602093845f960137010152565b9080601f830112156100fd5781602061043f933591016103ee565b90565b9081518082526020808093019301915f5b828110610461575050505090565b835185529381019392810192600101610453565b805180835260209291819084018484015e5f828201840152601f01601f1916010190565b916104b69061043f94928452606060208501526060840190610442565b916040818403910152610475565b346100fd576003196020368201126100fd5760043567ffffffffffffffff918282116100fd5760c09082360301126100fd576104fe6102ff565b61050a82600401610101565b815261051860248301610101565b60208201526044820135604082015260648201358381116100fd576105439060043691850101610365565b6060820152610554608483016103c5565b608082015260a48201359283116100fd5761057b6105859260046101dd9536920101610424565b60a0820152610b6e565b60409391935193849384610499565b600211156100fd57565b359061010c82610594565b346100fd576003196020368201126100fd5760043567ffffffffffffffff918282116100fd5760e09082360301126100fd576105e361031f565b6105ef8260040161059e565b81526105fd60248301610101565b602082015261060e60448301610101565b604082015261061f60648301610101565b60608201526084820135608082015260a482013560a082015260c48201359283116100fd5761065a6106649260046101dd9536920101610424565b60c0820152610cf8565b604080519384526020840192909252908201529081906060820190565b346100fd5760a03660031901126100fd5760405160a0810181811067ffffffffffffffff8211176102a0576101dd91610664916040526004356106c381610594565b81526024356106d181610594565b60208201526044356106e2816100ec565b604082015260643560608201526084356080820152610f3c565b90602061043f928181520190610475565b346100fd5760203660031901126100fd5767ffffffffffffffff6004358181116100fd57366023820112156100fd5780600401359182116100fd5736602483830101116100fd576101dd9160246107649201611219565b604051918291826106fc565b359060058210156100fd57565b61079361043f9492606083526060830190610442565b9260208201526040818403910152610475565b346100fd576003196020368201126100fd5760043567ffffffffffffffff918282116100fd5760c09082360301126100fd576107e06102ff565b6107ec82600401610101565b81526107fa60248301610101565b602082015260448201358381116100fd5761081b9060043691850101610365565b60408201526064820135606082015261083660848301610770565b608082015260a48201359283116100fd5761085d6108679260046101dd9536920101610424565b60a08201526112a6565b6040939193519384938461077d565b5f9103126100fd57565b346100fd575f3660031901126100fd5760206001600160a01b0360095460081c16604051908152f35b346100fd5760603660031901126100fd576004356108c6816100ec565b602435906108d3826100ec565b604435906108df611480565b6108e76114e1565b6108f96108f38361455c565b82614598565b6001600160a01b0381165f52600860205260405f208054938385039485116109845793905560405163a9059cbb60e01b60208201526001600160a01b03909316602484015260448084019290925290825261095f919061095a6064836102dd565b615b28565b5f7f9b779b17422d0df92223018b32b4d1fa46e071723d6817e2486d003becc55f005d005b610b3f565b346100fd575f3660031901126100fd5760206040516001600160a01b037f0000000000000000000000000000000000000000000000000000000000000000168152f35b346100fd5760603660031901126100fd5761026d6004356109ec816100ec565b6024356109f8816100ec565b60443591336116b4565b346100fd5760403660031901126100fd57600435610a1f816100ec565b60243590610a2c826100ec565b6001600160a01b0380911691825f525f602052600192600160405f20541615610ad5575f93929352600360205260405f20926040519283602086549182815201955f5260205f20925f905b828210610aa85786610a9587610a8f838c03846102dd565b8261450f565b9051604080519182526020820192909252f35b90919280610ac986998483985416906001600160a01b036020921681520190565b98019493920190610a77565b6327946f5760e21b5f5260045260245ffd5b346100fd575f3660031901126100fd5760207f9b779b17422d0df92223018b32b4d1fa46e071723d6817e2486d003becc55f005c6040519015158152f35b908160209103126100fd575190565b6040513d5f823e3d90fd5b634e487b7160e01b5f52601160045260245ffd5b5f1981019190821161098457565b9190820391821161098457565b90610b776114e1565b610b8a6001600160a01b03835116611836565b610ba3610b9e83516001600160a01b031690565b61186a565b610bbc610bb783516001600160a01b031690565b611960565b90610c10602083015151610bd7606086019182515190611e18565b805160c0850190610bf182519160a0880192835191611e88565b92610c01875160019060101c1690565b610c89575b50505084846122ba565b9490919586610c24835160019060111c1690565b610c32575b50505050929190565b84975093610c7f94610c75610c68610c5185516001600160a01b031690565b6001600160a01b03165f52600260205260405f2090565b546001600160a01b031690565b9484513390612995565b925f808080610c29565b610cb1610cf094888a610ca9610c68610c5183516001600160a01b031690565b923390611f97565b610ce5610cdf610cc88a516001600160a01b031690565b6001600160a01b03165f52600560205260405f2090565b8861204f565b519151905191611e88565b5f8080610c06565b90610d016114e1565b60208201906001600160a01b03610d1a81845116611836565b610d2e610b9e84516001600160a01b031690565b608084015115610f0a5760408401516001600160a01b031690610d6a610d5e60608701516001600160a01b031690565b6001600160a01b031690565b911614610efb57610d85610bb783516001600160a01b031690565b92610d908482612b04565b90610d9c858383612b9b565b8551600c1c600116610e80575b8551610dc39190600b1c600116610e3f575b868484612ed6565b9791979490978397610dda8451600190600d1c1690565b610e0a575b505050505051610dee81610f2d565b610df781610f2d565b610e02575081929190565b918093509190565b85985090610e29610c68610c51610e349894516001600160a01b031690565b94845191339261335b565b925f80808080610ddf565b85516001600160a01b0316610e7960608601918251610e72610c68836001600160a01b03165f52600260205260405f2090565b9185612e14565b9052610dbb565b610eb990610e9586516001600160a01b031690565b610eb3610c68826001600160a01b03165f52600260205260405f2090565b91612cd2565b610ed6610ed0610cc886516001600160a01b031690565b8661204f565b610ee1828683612d59565b6040830152610dc3610ef4868484612b9b565b9050610da9565b63a54b181d60e01b5f5260045ffd5b6357a456b760e01b5f5260045ffd5b634e487b7160e01b5f52602160045260245ffd5b60021115610f3757565b610f19565b610f446114e1565b600160075460021c166111f55760408101916001600160a01b0380845116805f52600e6020528160405f205416156111e35750610f7f611480565b60046020610f97610d5e87516001600160a01b031690565b6040516338d52e0f60e01b815292839182905afa90811561021a575f916111b4575b5016610fd581610fd086516001600160a01b031690565b613589565b6060830180517f000000000000000000000000000000000000000000000000000000000000000011611185576001602085015161101181610f2d565b61101a81610f2d565b0361111857926110676080927feeb740c90bf2b18c9532eb7d473137767036d893dff3e009f32718f821b2a4c09583519161105483610f2d565b88516001600160a01b0316915192613989565b91959080966110a2611084610d5e839b516001600160a01b031690565b94604051938493846040919493926060820195825260208201520152565b0390a25b80516110b181610f2d565b6110ba81610f2d565b6110f15701518083106110d75750815b6110d26114bc565b929190565b63e2ea151b60e01b5f52600483905260245260445ffd5b5ffd5b01518084116111015750826110ca565b63e2ea151b60e01b5f52600484905260245260445ffd5b926111606080927f3771d13c67011e31e12031c54bb59b0bf544a80b81d280a3711e172aa8b7f47b9583519161114d83610f2d565b88516001600160a01b03169151926135f9565b919590809661117d611084610d5e839b516001600160a01b031690565b0390a26110a6565b6110ee61119986516001600160a01b031690565b6318fe738560e01b5f526001600160a01b0316600452602490565b6111d6915060203d6020116111dc575b6111ce81836102dd565b810190611204565b5f610fb9565b503d6111c4565b6385f4129960e01b5f5260045260245ffd5b630f27df0960e01b5f5260045ffd5b908160209103126100fd575161043f816100ec565b91909161125b6112557f000000000000000000000000000000000000000000000000000000000000000092835c15958661129d575b36916103ee565b33615659565b926112635750565b7f00000000000000000000000000000000000000000000000000000000000000005c61128e575f905d565b6320f1d86d60e01b5f5260045ffd5b6001855d61124e565b906112af6114e1565b6112c26001600160a01b03835116611836565b6112d6610b9e83516001600160a01b031690565b6113106112ea83516001600160a01b031690565b7f0000000000000000000000000000000000000000000000000000000000000000613c90565b61132961132483516001600160a01b031690565b611bfc565b9061137d602083015151611344604086019182515190611e18565b805160c085019061135e82519160a0880192835191613c9f565b9261136e8751600190600e1c1690565b6113d0575b5050508484613eae565b94909586846113918451600190600f1c1690565b6113a0575b5050505050929190565b6113c695506113bc610c68610c5185516001600160a01b031690565b948451339061439f565b5f80808681611396565b6113f761141f94888a6113f0610c68610c5183516001600160a01b031690565b9233613d7d565b61141461140e610cc88a516001600160a01b031690565b886120b3565b519151905191613c9f565b5f8080611373565b637911c44b60e11b5f5260045ffd5b3461142757365f80375f8036816001600160a01b037f0000000000000000000000000000000000000000000000000000000000000000165af43d5f803e1561147c573d5ff35b3d5ffd5b7f9b779b17422d0df92223018b32b4d1fa46e071723d6817e2486d003becc55f00805c6114ad576001905d565b633ee5aeb560e01b5f5260045ffd5b5f7f9b779b17422d0df92223018b32b4d1fa46e071723d6817e2486d003becc55f005d565b7f00000000000000000000000000000000000000000000000000000000000000005c1561150a57565b63604dd39b60e11b5f5260045ffd5b906115239061455c565b90600160ff1b82146109845761010c915f0390614598565b90919261154984848461466e565b60018101611559575b5050505050565b8082116116925703906001600160a01b03908184169182156116765780861691821561165a57846115b9886115a3896115a3866001600160a01b03165f52601060205260405f2090565b906001600160a01b03165f5260205260405f2090565b551691827fa0175360a15bca328baf7ea85c7b784d58b222a50d0ce760b10dba336d226a61604051806115f188829190602083019252565b0390a4803b156100fd57604051630ad0fe5760e31b81526001600160a01b03938416600482015293909216602484015260448301525f908290606490829084905af1611641575b80808080611552565b8061164e6116549261028c565b80610876565b5f611638565b634a1406b160e11b5f526001600160a01b03871660045260245ffd5b63e602df0560e01b5f526001600160a01b03851660045260245ffd5b6001600160a01b0385637dc7a0d960e11b5f521660045260245260445260645ffd5b929091926001600160a01b039081841691821561181a578086169182156117fe576116f4866115a3836001600160a01b03165f52600f60205260405f2090565b548086116117da5785900361171e876115a3846001600160a01b03165f52600f60205260405f2090565b5561173e876115a3836001600160a01b03165f52600f60205260405f2090565b8581540190551691827fd1398bee19313d6bf672ccb116e51f4a1a947e91c757907f51fbb5b5e56c698f6040518061177b88829190602083019252565b0390a4803b156100fd576040516323de665160e01b81526001600160a01b03938416600482015293909216602484015260448301525f908290818381606481015b03925af1801561021a576117cd5750565b8061164e61010c9261028c565b63391434e360e21b5f526001600160a01b038716600452602452604485905260645ffd5b63ec442f0560e01b5f526001600160a01b03871660045260245ffd5b634b637e8f60e11b5f526001600160a01b03851660045260245ffd5b6001600160a01b0316805f525f602052600160405f2054811c16156118585750565b634bdace1360e01b5f5260045260245ffd5b63ffffffff807f00000000000000000000000000000000000000000000000000000000000000001642111580611952575b611943576001600160a01b0382165f525f60205260405f20549060018260021c16906118c5605a90565b906028820180921161098457826118fd575b505090506118e25750565b63d971f59760e01b5f526001600160a01b031660045260245ffd5b61192f9250611938937f0000000000000000000000000000000000000000000000000000000000000000921c16615f2f565b63ffffffff1690565b421115805f806118d7565b6336a7e2cd60e21b5f5260045ffd5b506001600754811c1661189b565b60409081519161196f836102a5565b5f8352826020810191606080845281830190808252808401908082526080936080860182815260a0870183815260c088019384526119ab611480565b6001600160a01b038a165f526005602052825f20935f602052835f20549260046020526119e7855f20946003602052865f209081549c526146ba565b8b526119f28a614711565b88526119fd8a611e2e565b8752611a088a611e2e565b9052611a15898d51615b95565b9052611a2088611e2e565b81528a5191600199600184811c169384611be8575b5083611bd6575b5f5b8d8b8210611a9c575050505050505050505050505080611a8d611a75611a94936001600160a01b03165f52600560205260405f2090565b916001600160a01b03165f52600660205260405f2090565b908361479f565b61043f6114bc565b908a8d92828c8c8c611b0b84611af781611ae9611ae48f8f611ac285611acf9251611e60565b516001600160a01b031690565b6001600160a01b03165f5260205260405f2090565b614760565b94905f5260205260405f2090565b54945183611b058383611e60565b52611e60565b50611b15816148fa565b611b20858d51611e60565b52611b356001600160801b0384168587614999565b878d8d15611bc95782015115159182611bab575b5050611b5c575b50505050505b01611a3e565b82611b7f92611b7682611b6f8851615bf1565b9451611e60565b51961c85615c14565b9283611b8f575b8e93508c611b50565b611ba293611b9c91610b61565b91614999565b5f8f8282611b86565b90915051611bb881610f2d565b611bc181610f2d565b14875f611b49565b5050505050505050611b56565b8c5190935060031c6001161592611a3c565b611bf3919450615bf1565b1515925f611a35565b604090815191611c0b836102a5565b5f8352826020810191606080845281830190808252808401908082526080936080860182815260a0870183815260c08801938452611c47611480565b6001600160a01b038a165f526005602052825f20935f602052835f2054926004602052611c83855f20946003602052865f209081549c526146ba565b8b52611c8e8a614711565b8852611c998a611e2e565b8752611ca48a611e2e565b9052611cb1898d51615b95565b9052611cbc88611e2e565b81528a5191600199600184811c169384611e04575b5083611df2575b5f5b8d8b8210611d11575050505050505050505050505080611a8d611a75611a94936001600160a01b03165f52600560205260405f2090565b908a8d92828c8c8c611d3784611af781611ae9611ae48f8f611ac285611acf9251611e60565b50611d41816148fa565b611d4c858d51611e60565b52611d616001600160801b03841685876149e6565b878d8d15611de55782015115159182611dc7575b5050611d88575b50505050505b01611cda565b82611d9b92611b7682611b6f8851615bf1565b9283611dab575b8e93508c611d7c565b611dbe93611db891610b61565b916149e6565b5f8f8282611da2565b90915051611dd481610f2d565b611ddd81610f2d565b14875f611d75565b5050505050505050611d82565b8c5190935060031c6001161592611cd8565b611e0f919450615bf1565b1515925f611cd1565b03611e1f57565b63aaad13f760e01b5f5260045ffd5b90611e388261034d565b611e4560405191826102dd565b8281528092611e56601f199161034d565b0190602036910137565b8051821015611e745760209160051b010190565b634e487b7160e01b5f52603260045260245ffd5b9190825191611e9b8251825190856148ab565b611ea483611e2e565b935f5b848110611eb657505050505090565b80611eeb611ec660019385611e60565b51611ee6611ed48489611e60565b51611edf8589611e60565b51926148e7565b614e8c565b611ef58289611e60565b5201611ea7565b60041115610f3757565b519081151582036100fd57565b908160209103126100fd5761043f90611f06565b906004821015610f375752565b959293611f65611f899561043f999793611f7b956001600160a01b038092168b521660208a01526040890190611f27565b606087015260e0608087015260e0860190610442565b9084820360a0860152610442565b9160c0818403910152610475565b5f6001600160a01b036020959693611ff6611fb987516001600160a01b031690565b94608088015197611fc989611efc565b60a0608060408301519c0151910151916040519b8c9a8b998a976302e97e7d60e61b895260048901611f34565b0393165af190811561021a575f91612020575b501561201157565b631557c43360e11b5f5260045ffd5b612042915060203d602011612048575b61203a81836102dd565b810190611f13565b5f612009565b503d612030565b60208082015151925f5b848110612067575050505050565b6001906120ad6001600160801b03604061208d61208785838b0151611e60565b516148fa565b61209b8560a08b0151611e60565b52835f528587525f2054168287614999565b01612059565b60208082015151925f5b8481106120cb575050505050565b60019061210b6001600160801b0360406120eb61208785838b0151611e60565b6120f98560a08b0151611e60565b52835f528587525f20541682876149e6565b016120bd565b6040519061211e826102c1565b5f6040838281528260208201520152565b9080601f830112156100fd5781519060209161214a8161034d565b9361215860405195866102dd565b81855260208086019260051b8201019283116100fd57602001905b828210612181575050505090565b81518152908301908301612173565b81601f820112156100fd578051906121a7826103d2565b926121b560405194856102dd565b828452602083830101116100fd57815f9260208093018386015e8301015290565b6080818303126100fd5780519260208201519167ffffffffffffffff928381116100fd578461220691830161212f565b9360408201518481116100fd578161221f91840161212f565b9360608301519081116100fd5761043f9201612190565b939061043f9593612274936001600160a01b0361226693168752602087015260a0604087015260a0860190610442565b908482036060860152610442565b916080818403910152610475565b9190820180921161098457565b916122ac9061043f94928452606060208501526060840190610442565b916040818403910152610442565b926122c3611480565b6060916122ce612111565b9260208601906122e2825151808752611e2e565b90608084019687516122f381611efc565b6122fc81611efc565b6126d257506040840151906123118751611e2e565b9561234d8360808c015161234761232f8a516001600160a01b031690565b6001600160a01b03165f52601160205260405f205490565b90614e3b565b9261239161236288516001600160a01b031690565b7f0000000000000000000000000000000000000000000000000000000000000000905f5260205260405f205c90565b612655575b604087015180821161263d57506123af819a999a614eae565b60208a01985f5b8b518110156124f8578c6123ca8288611e60565b516123d481614eae565b6123de838a611e60565b516124e657816124048460a06123fb8260c061240b980151611e60565b51930151611e60565b5191614ebf565b80612416838a611e60565b525b612426611ac2838b51611e60565b60608b01612435848251611e60565b5183106124b357508e83611b9c8f8f8f966124a79161248f86612487818b60019e9d612464886124ad9f611519565b6124806124718489611e60565b5191516001600160a01b031690565b908d614eee565b875292611e60565b5261249e856060880151611e60565b51925190612282565b90610b61565b016123b6565b916124c2846110ee9451611e60565b516317bc2f2360e11b5f526001600160a01b03909216600452602452604452606490565b50506124f28188611e60565b51612418565b5093995095945095929861251e91975061251985516001600160a01b031690565b614ff0565b7ffbe5b0d79fb94f1e81c0a92bf86ae9d3a19e9d1bf6202c0d3e75120f65d5d8a561255084516001600160a01b031690565b9261257286602087019561256b87516001600160a01b031690565b339161153b565b61257a615053565b612612575b6125a58661259487516001600160a01b031690565b86516001600160a01b0316906150ba565b6125d961232f6125cd6125bf88516001600160a01b031690565b96516001600160a01b031690565b945196611ac288611efc565b926126016001600160a01b03926125ef88611efc565b8c84604051958695169816968461228f565b0390a461260c6114bc565b93929190565b6126388661262787516001600160a01b031690565b86516001600160a01b031690615068565b61257f565b6331d38e0b60e01b5f5260049190915260245260445ffd5b9894916126688b97949995929b51614abd565b9a5f5b86518110156126c257808b6126bb8f936126b56126a48f839061269a600199612694848a611e60565b51614e8c565b611b058383611e60565b516126af8386611e60565b51610b61565b92611e60565b520161266b565b5091949893969a50919498612396565b9490600188516126e181611efc565b6126ea81611efc565b0361276e576126f98951614a45565b60408501519186928a61276861275e8b8a60406127196060830151614a60565b92019482865286608082015193612758610d5e61274a61274361232f88516001600160a01b031690565b9551614abd565b95516001600160a01b031690565b94614d3e565b909251909a611e60565b52612396565b6002889692965161277e81611efc565b61278781611efc565b0361281a576127968951614a45565b6128138260608701906127ba6127ac8351614a60565b60408c019381855251611e60565b516127c6835188611e60565b528b6127d9608082015193518093611e60565b516127f86127f161232f8c516001600160a01b031690565b9251614abd565b9261280d610d5e8c516001600160a01b031690565b94614b14565b9690612396565b50936003875161282981611efc565b61283281611efc565b036128da576128418851614a29565b5f612859610d5e610d5e87516001600160a01b031690565b60408681015160808c015160a08901519251632ada38a360e21b8152998a949385938793859361288e93923360048701612236565b03925af194851561021a575f915f965f925f916128af575b50919692612396565b92505095506128d091503d805f833e6128c881836102dd565b8101906121d6565b919690915f6128a6565b63137a9a3960e01b5f5260045ffd5b9190916040818403126100fd576128ff81611f06565b92602082015167ffffffffffffffff81116100fd5761043f920161212f565b96939461043f989692612987966129586129799661296b95610100948d6001600160a01b0380931690521660208d015260408c0190611f27565b60608a01528060808a0152880190610442565b9086820360a0880152610442565b9084820360c0860152610442565b9160e0818403910152610475565b9493959296919084516129ae906001600160a01b031690565b906080860151926129be84611efc565b60808601518a60a0890151926040519b8c978897632754888d60e01b895260048901976129ea9861291e565b03916001600160a01b031691815a5f948591f193841561021a575f905f95612add575b50158015612ad1575b612ac2576001809360091c1615612a345792935090915f835b612a3b575b5050505090565b8451811015612abd57612a4e8186611e60565b516060840190612a5f838351611e60565b5111612a6e5750830183612a2f565b612a9982612a9181612a8b611ac28b9760206110ee9a0151611e60565b95611e60565b519251611e60565b51633ef629c960e21b5f526001600160a01b03909216600452602452604452606490565b612a34565b6303a6723b60e31b5f5260045ffd5b50835185511415612a16565b9050612afc9194503d805f833e612af481836102dd565b8101906128e9565b93905f612a0d565b6040519291608084019067ffffffffffffffff8211858310176102a057612b8b916040525f855260208501945f8652612b8360408201915f83528360608201965f88528299612b7c60208401805190612b6c6001600160a01b0392836040880151169061450f565b875251906060850151169061450f565b9052612d59565b905251614abd565b9052565b612b9882610f2d565b52565b919091606060c0604051612bae816102a5565b5f81525f60208201528260408201525f838201525f60808201525f60a08201520152805192612bdc84610f2d565b6080604082015193015160c06020835193015193015193612c05612bfe61031f565b9687612b8f565b60208601526040850152606084015260808301523360a083015260c082015290565b90612b9882610f2d565b919060e08101908351612c4381610f2d565b8152602080850151602083015260408501519260e060408401528351809152602061010084019401915f5b828110612cbe575050505060c084606061043f95960151606084015260808101516080840152612cae60a082015160a08501906001600160a01b03169052565b01519060c0818403910152610475565b835186529481019492810192600101612c6e565b60209192612d095f6001600160a01b03809460405197889687958693635211fa7760e01b8552604060048601526044850190612c31565b911660248301520393165af190811561021a575f91612d3a575b5015612d2b57565b63e91e17e760e01b5f5260045ffd5b612d53915060203d6020116120485761203a81836102dd565b5f612d23565b9190918051612d6781610f2d565b612d7081610f2d565b612db55790612dac670de0b6b3a764000093611edf6080612db19501519360a0612da060c0850151835190611e60565b51930151905190611e60565b6148e7565b0490565b61043f92612df1612deb6080611ee69401519460a0612ddf602060c0870151930192835190611e60565b51940151905190611e60565b51615227565b926148e7565b91908260409103126100fd576020612e0e83611f06565b92015190565b6040805163283a3d6b60e21b8152606060048201529490938593919284926001600160a01b039284928490612e4d906064860190612c31565b9216602484015260448301520392165afa90811561021a575f905f92612ea4575b5015612e9557670de0b5cad2bef0008111612e865790565b6301d1b96560e61b5f5260045ffd5b6314fe5db560e21b5f5260045ffd5b9050612ec8915060403d604011612ecf575b612ec081836102dd565b810190612df7565b905f612e6e565b503d612eb6565b5f9491939293612ee4611480565b612eec612111565b918051612ef881610f2d565b612f0181610f2d565b1561325b575b602091828601612f17815161524b565b83612f5381850198612f36610d5e610d5e8c516001600160a01b031690565b906040519c8d80948193633964c0c360e11b835260048301613283565b03925af198891561021a575f9961323c575b5088612f708161524b565b8351612f7b81610f2d565b612f8481610f2d565b6131c4575060408201519052612fc360c0880151612fbc612deb612fad87860193845190611e60565b519260a08c0151905190611e60565b908a614ebf565b9360808301519685979860a08501518088106131ad57505b60408501948a8651612ff3906001600160a01b031690565b90612ffd916144fd565b60600195898751613014906001600160a01b031690565b9061301e91611519565b835183516001600160a01b031687516001600160a01b03168751916130439386614eee565b9190818601956040019283528552855160608401928d8285519061306691611e60565b519061307191612282565b905161307c91610b61565b6130869185614999565b85019182518b8184519061309991611e60565b51906130a491610b61565b6130ae9183614999565b83516001600160a01b03165f90815260056020526040902091805187516130d491611e60565b519160800191825188516130e791611e60565b516130f1916152f6565b87516131059085905f5260205260405f2090565b5551835161311291611e60565b519051835161312091611e60565b5161312a916152f6565b915161313d91905f5260205260405f2090565b5551925193516060928301519151604080518b8152602081018b905290810193909352928201929092526001600160a01b039182169382169291909116907f0874b2d545cb271cdbda4e093020c452328b24af12382ed62c4d00f5c26709db90608090a49392919061010c6114bc565b63e2ea151b60e01b5f52600488905260245260445ffd5b90508198506131eb60606131f4930151670de0b6b3a76400008181039082100290836152c2565b90818652612282565b9661322161320860c0890151835190611e60565b5161321960a08a0151845190611e60565b51908a6152e2565b93608083015196859860a08501518088116131ad5750612fdb565b613254919950843d86116102135761020581836102dd565b975f612f65565b6020850161327c6132728251606086015190614e8c565b8086528251610b61565b9052612f07565b90602061043f928181520190612c31565b6101a061043f92602083526132ad602084018251612c27565b60208101516001600160a01b0316604084015260408101516001600160a01b0316606084015260608101516080840152608081015160a084015260a081015160c084015260c081015160e084015260e08101516101009081850152810151610120908185015281015161332e61014091828601906001600160a01b03169052565b8101519061334a61016092838601906001600160a01b03169052565b015191610180808201520190610475565b939590919492865161336c81610f2d565b61337581610f2d565b61357a5786604085015191845b82519461338e86610f2d565b6040978897888601516133a7906001600160a01b031690565b9660608701516133bd906001600160a01b031690565b9360800192835181516133cf91611e60565b51935190602001516133e091611e60565b519360208801516133f7906001600160a01b031690565b9760c001519861340561032c565b9a613410908c612b8f565b6001600160a01b031660208b01526001600160a01b0316898b01526060890152608088015260a087015260c086015260e085015261010084018890526001600160a01b03166101208401526001600160a01b031661014083015261016082015281516318b6eb5560e01b8152968791829081906134909060048301613294565b03916001600160a01b03165a905f91f194851561021a575f915f96613556575b5050156135475760091c60011615613541575080516134ce81610f2d565b6134d781610f2d565b1580613534575b8015613509575b6134ed575090565b60a0015163cc0e4a9960e01b5f5260049190915260245260445ffd5b506001815161351781610f2d565b61352081610f2d565b1480156134e5575060a081015182116134e5565b5060a081015182106134de565b91505090565b630568a77b60e21b5f5260045ffd5b61357193965080919250903d10612ecf57612ec081836102dd565b93905f806134b0565b86604085015191849294613382565b6001600160a01b0380911690815f52600e6020528060405f20541692168092036135b1575050565b6336b18d0960e01b5f5260045260245260445ffd5b81810392915f13801582851316918412161761098457565b9190915f838201938412911290801582169115161761098457565b93909161360585610f2d565b8415801561392b5760405163ef8b30f760e01b8152600481018690526020816024816001600160a01b0387165afa90811561021a575f9161390c575b5094955b613660836001600160a01b03165f52600b60205260405f2090565b549161366a615053565b61390457869288929091608083901c918583106136df57505050926136d9826136b6866136b16001600160a01b03966001600160801b038961010c9b60801c039316612282565b6152f6565b97886136d3856001600160a01b03165f52600b60205260405f2090565b556144fd565b16611519565b909293506136ee919450610f2d565b156137e757613716613711613703858461552d565b61370c8a61455c565b6135de565b6153d9565b926001600160a01b0381169361372d8186896154f7565b604051636e553f6560e01b81526004810182905230602482015294602090869060449082905f905af1801561021a576136b689956137c2876137b76001600160a01b038f96888f8961010c9f859e6137b18f6136d99f6137b7966137bc996001600160801b03965f916137c8575b509a8b935b16906137ac82826153f5565b6155a0565b16612282565b610b61565b94612282565b906152f6565b6137e1915060203d6020116102135761020581836102dd565b5f61379b565b90916138076137116137f98385615338565b6138028961455c565b6135c6565b60405163b3d7f6b960e01b8152600481018290526001600160a01b038316936020939290918481602481895afa801561021a5761384d915f916138e7575b50868a6154f7565b6040516394bf804d60e01b815260048101829052306024820152948490869060449082905f905af191821561021a5761010c966137c28b6137b7858f966001600160a01b038f896001600160801b03879f9a849f8f966136d99f976137b7966136b69f996137bc9a6137b1955f926138ca575b50509889926137a0565b6138e09250803d106102135761020581836102dd565b5f806138c0565b6138fe9150863d88116102135761020581836102dd565b5f613845565b509093505050565b613925915060203d6020116102135761020581836102dd565b5f613641565b60405163b3d7f6b960e01b815260048101869052946020866024816001600160a01b0387165afa95861561021a575f96613968575b509495613645565b61398291965060203d6020116102135761020581836102dd565b945f613960565b939061399485610f2d565b8415948515613c325760405163266d6a8360e11b8152600481018690526020816024816001600160a01b0389165afa90811561021a575f91613c13575b5094955b6139f0856001600160a01b03165f52600b60205260405f2090565b54916139fa615053565b6139045787938793909290916001600160801b039182841691868310613a7157505050936001600160a01b03613a47838661010c98613a3f86613a6c9860801c612282565b9216036152f6565b9788613a64826001600160a01b03165f52600b60205260405f2090565b555b166144fd565b611519565b919650929450613a819150610f2d565b15613b6657613a966137116137038785615338565b604051635d043b2960e11b8152600481018290523060248201819052604482015293906020856064815f6001600160a01b038c165af1801561021a57613b2489956137c2846137b78e613b1b8b8f6001600160a01b0361010c9f9c613b168f9d613a6c9f94889f859f6137b7975f91613b47575b509586925b16906155e5565b612282565b9460801c612282565b9788613b41826001600160a01b03165f52600b60205260405f2090565b55613a66565b613b60915060203d6020116102135761020581836102dd565b5f613b0a565b613b766137116137f9878561552d565b604051632d182be560e21b81526004810182905230602482018190526044820152906020826064815f6001600160a01b038c165af191821561021a57613b2489956137c26001600160a01b036137b78e613b1b8b8f8a61010c9f613b168f93613a6c9f9e889f958b9f966137b7975f91613bf4575b509b8c93613b0f565b613c0d915060203d6020116102135761020581836102dd565b5f613beb565b613c2c915060203d6020116102135761020581836102dd565b5f6139d1565b604051630a28a47760e01b815260048101869052946020866024816001600160a01b0389165afa95861561021a575f96613c6f575b5094956139d5565b613c8991965060203d6020116102135761020581836102dd565b945f613c67565b905f52602052600160405f205d565b9190825191613cb28251825190856148ab565b613cbb83611e2e565b935f5b848110613ccd57505050505090565b80670de0b6b3a7640000613cff613ce660019486611e60565b51612dac613cf4858a611e60565b51611edf868a611e60565b04613d0a8289611e60565b5201613cbe565b60051115610f3757565b906005821015610f375752565b959193613d5961043f989694613d6a93611f89976001600160a01b038092168b521660208a01526040890190613d1b565b60e0606088015260e0870190610442565b91608086015284820360a0860152610442565b925f6001600160a01b03602095969396613dde613da187516001600160a01b031690565b94608088015197613db189613d11565b60a060806060830151930151910151916040519b8c9a8b998a976345421ec760e01b895260048901613d28565b0393165af190811561021a575f91613e08575b5015613df957565b6305975b2960e11b5f5260045ffd5b613e21915060203d6020116120485761203a81836102dd565b5f613df1565b916080838303126100fd5782519067ffffffffffffffff918281116100fd5783613e5291860161212f565b9360208101519360408201518481116100fd578161221f91840161212f565b93613e9b612274936001600160a01b0361043f98969416875260a0602088015260a0870190610442565b9160408601528482036060860152610442565b9190613eb8611480565b6060613ec2612111565b9160208501613ed5815151808652611e2e565b60808301958651613ee581613d11565b613eee81613d11565b61412d57506060830151613f028651611e2e565b94613f268260808b0151613f2061232f89516001600160a01b031690565b906159c5565b995b60608601518084106141165750613f4183999899614eae565b60208901975f5b8c8b518210156140555781613f5c91611e60565b51613f6681614eae565b613f708288611e60565b5161404457613f95908d613f8e8460a06123fb8260c0860151611e60565b51916152e2565b80613fa08389611e60565b525b613fb0611ac2838a51611e60565b60408a01613fbf848251611e60565b51831161401157508d83611b9c8e6140038f968f97613fee86612487818b60019e9d6124648861400b9f6144fd565b52613ffd856060880151611e60565b51612282565b905190610b61565b01613f48565b91614020846110ee9451611e60565b516323b6a17960e21b5f526001600160a01b03909216600452602452604452606490565b5061404f8187611e60565b51613fa2565b50509396945096509650966140759061251985516001600160a01b031690565b7fa26a52d8d53702bba7f137907b8e1f99ff87f6d450144270ca25e72481cca8716140a784516001600160a01b031690565b926140c88960208701956140c287516001600160a01b031690565b90615a0c565b6140ee61232f6140e26125bf88516001600160a01b031690565b945196611ac288613d11565b926126016001600160a01b039261410488613d11565b8884604051958695169816968461228f565b638d261d5d60e01b5f52600484905260245260445ffd5b6003875161413a81613d11565b61414381613d11565b036141655761415288516159a9565b61415c8151611e2e565b945f9199613f28565b976001875161417381613d11565b61417c81613d11565b036141e45761418b8851614a45565b6141dc8961419d84604088015161575e565b60808a0151906141b761232f88516001600160a01b031690565b6141c18c51614abd565b916141d6610d5e8a516001600160a01b031690565b93615779565b959091613f28565b9793600287516141f381613d11565b6141fc81613d11565b036142685797879861420e8951614a45565b60608501519161421d87614a60565b61426261425860408b0192808452898b9f88608082015193614252610d5e61274a61274361232f88516001600160a01b031690565b94615693565b9092519099611e60565b52613f28565b506004865161427681613d11565b61427f81613d11565b036143275761428e8751615677565b5f6142a6610d5e610d5e86516001600160a01b031690565b60608501519060808a0151918360a0880151986142da6040519a8b968795869463e4c4366360e01b86523360048701613e71565b03925af193841561021a575f905f955f915f916142fc575b5090959199613f28565b9250505061431d9194503d805f833e61431581836102dd565b810190613e27565b919592915f6142f2565b636c02b39560e01b5f5260045ffd5b969261043f98969461438c9361437061437e936129879995610100938d6001600160a01b0380931690521660208d015260408c0190613d1b565b8060608b0152890190610442565b908782036080890152610442565b9160a086015284820360c0860152610442565b9493919592969084516143b8906001600160a01b031690565b6080860151916143c783613d11565b608086015160a0880151906040968c6040519c8d9788976325da41f360e21b895260048901976143f698614336565b03916001600160a01b031691815a5f948591f194851561021a575f905f966144de575b501580156144d2575b6144c3576001809460091c161561444257909192809495505f905b61444a575b505050505090565b85518110156144be5761445d8187611e60565b518285019061446d838351611e60565b511061447c575084018461443d565b869061449a83612a9181612a8b611ac26110ee9860208c0151611e60565b5163677d1d7d60e11b5f526001600160a01b03909216600452602452604452606490565b614442565b63e124916560e01b5f5260045ffd5b50845186511415614422565b90506144f59195503d805f833e612af481836102dd565b94905f614419565b61450961010c9261455c565b90614598565b905f5b8251811015614540576001600160a01b038061452e8386611e60565b51169083161461354157600101614512565b6001600160a01b038263ddef98d760e01b5f521660045260245ffd5b7f7fffffffffffffffffffffffffffffffffffffffffffffffffffffffffffffff81116145865790565b63123baf0360e11b5f5260045260245ffd5b90801561466a577f0000000000000000000000000000000000000000000000000000000000000000916001600160a01b0381165f52826020526145e060405f205c92836135de565b918261462057507f000000000000000000000000000000000000000000000000000000000000000092835c5f1981019081116109845761010c945d615b7f565b1561462f575b61010c92615b7f565b7f000000000000000000000000000000000000000000000000000000000000000092835c600181018091116109845761010c945d9250614626565b5050565b6001600160a01b0392918381168484160361468c57505050505f1990565b6146b6936115a392165f52601060205260405f20906001600160a01b03165f5260205260405f2090565b5490565b90604051918281549182825260209260208301915f5260205f20935f905b8282106146ee5750505061010c925003836102dd565b85546001600160a01b0316845260019586019588955093810193909101906146d8565b9061471b8261034d565b61472860405191826102dd565b8281528092614739601f199161034d565b01905f5b82811061474957505050565b602090614754612111565b8282850101520161473d565b9060405161476d816102c1565b604060ff82945481811661478081610f2d565b84526001600160a01b038160081c16602085015260a81c161515910152565b60608101805151935f5b8581106147b857505050505050565b806147cc611ac26001936020880151611e60565b6147ee6147e18389905f5260205260405f2090565b546001600160801b031690565b6147f9838751611e60565b518111614840575b5050614827614811828651611e60565b51614820836080890151611e60565b51906152f6565b6148398288905f5260205260405f2090565b55016147a9565b61488b6148a39161488561487c614868868a906001600160a01b03165f5260205260405f2090565b5492614875888c51611e60565b5190610b61565b8260801c612282565b90615c67565b9185906001600160a01b03165f5260205260405f2090565b555f80614801565b811480159291906148bf575b5050611e1f57565b141590505f806148b7565b90670de0b6b3a76400009182810292818404149015171561098457565b8181029291811591840414171561098457565b805161490581610f2d565b61490e81610f2d565b80614921575050670de0b6b3a764000090565b8061492d600192610f2d565b0361498a57602061494c610d5e8260049401516001600160a01b031690565b6040516333cd77e760e11b815292839182905afa90811561021a575f91614971575090565b61043f915060203d6020116102135761020581836102dd565b636fa2831960e11b5f5260045ffd5b91906080670de0b6b3a76400006149dd612b9894806149bc8660608a0151611e60565b52612dac6149ce8660c08a0151611e60565b51611edf8760a08b0151611e60565b04930151611e60565b91906080614a21612b989380614a00856060890151611e60565b52611ee6614a128560c0890151611e60565b51611edf8660a08a0151611e60565b930151611e60565b60061c60011615614a3657565b63033c2a5760e61b5f5260045ffd5b60041c600116614a5157565b63353d5de760e21b5f5260045ffd5b80519081905f5b828110614a89575050811015614a7a5790565b631f91af7760e21b5f5260045ffd5b614a938183611e60565b51614aa1575b600101614a67565b928203614aae5782614a99565b636b8c3be560e01b5f5260045ffd5b62ffffff9060121c1664174876e800908181029181830414901517156109845790565b91906020614af75f92604086526040860190610442565b930152565b91906020614af7600192604086526040860190610442565b9094929192815194614b2586611e2e565b945f5b878110614cf55750614b3e906126af8988611e60565b614b488887611e60565b5260405194631309bd3d60e31b9283875260208780614b6a8860048301614ae0565b03816001600160a01b0385165afa96871561021a575f97614cd4575b506040519484865260208680614b9f8660048301614ae0565b03816001600160a01b0386165afa93841561021a576137b7614c018c614875614bfa614c1796614bf38f614be3614c4d9f9160209e88935f91614cb5575b50615282565b92614bee848d615c7a565b611e60565b5190614e8c565b9188611e60565b91670de0b6b3a764000081810391100282615282565b93614c26856126af8c86611e60565b614c308b85611e60565b526001600160a01b03604051809781958294835260048301614afc565b0392165afa90811561021a57614c8995614c83935f93614c8c575b50614c75614c7c91611e2e565b9788611e60565b5283610b61565b906152c2565b91565b614c7c919350614cad614c759160203d6020116102135761020581836102dd565b939150614c68565b6020614cce92503d6020116102135761020581836102dd565b5f614bdd565b614cee91975060203d6020116102135761020581836102dd565b955f614b86565b80614d0b614d0560019388611e60565b51610b53565b614d15828a611e60565b5201614b28565b614d3460409295949395606083526060830190610442565b9460208201520152565b909491830391838311610984576020614d8a6001600160a01b0392614d638787615282565b614d6d8183615c7a565b60405194858094819362b5059f60e51b83528d8a60048501614d1c565b0392165afa801561021a57614c8995611ee688614dd593614dde98614de5965f92614deb575b50614dc3826126af6137b794958b611e60565b98614dce8d8a611e60565b51906152c2565b93849251611e2e565b9586611e60565b52610b61565b6137b792506126af93614e0f614dc39260203d6020116102135761020581836102dd565b93509350614db0565b634e487b7160e01b5f52601260045260245ffd5b8115614e36570490565b614e18565b909291614e488251611e2e565b915f5b8151811015614e8557614e6883614e628385611e60565b516148e7565b908615614e36578660019204614e7e8287611e60565b5201614e4b565b5050509150565b90614e96916148e7565b6001670de0b6b3a76400005f19830104019015150290565b80614eb65750565b61010c9061524b565b91614ec9916148e7565b90670de0b6b3a764000090818102918183041490151715610984578115614e36570490565b91949290945f955f9581614f03575050505050565b849750612404614f1c8260c0614f289697980151611e60565b519160a08a0151611e60565b945160018160031c1615614f3e575b8080611552565b62ffffff91929450602a1c1664174876e8009081810291818304149015171561098457614f74670de0b6b3a764000091866148e7565b0492848411614fe157806115a3614fc0614fa6614fd8946115a3876001600160a01b03165f52600660205260405f2090565b54614fba886001600160801b038316612282565b90615cff565b936001600160a01b03165f52600660205260405f2090565b555f8080614f37565b634c69ac5d60e01b5f5260045ffd5b6001600160a01b0390929192165f52602060056020526040805f205f5b6060860151805182101561504a579061503a61502b82600194611e60565b516148208360808b0151611e60565b815f52838652845f20550161500d565b50505050509050565b32158061505d5790565b506001600754161590565b90326150ab576001600160a01b0361509c92165f52600f60205260405f20906001600160a01b03165f5260205260405f2090565b80549182018092116109845755565b6333fc255960e11b5f5260045ffd5b916001600160a01b0380831693841561520b576150ec846115a3836001600160a01b03165f52600f60205260405f2090565b548084116151e75790835f939203615119866115a3846001600160a01b03165f52600f60205260405f2090565b5561513f84615139836001600160a01b03165f52601160205260405f2090565b54610b61565b61514881615d0d565b615163826001600160a01b03165f52601160205260405f2090565b551693847fd1398bee19313d6bf672ccb116e51f4a1a947e91c757907f51fbb5b5e56c698f6040518061519b87829190602083019252565b0390a4823b156100fd576040516323de665160e01b81526001600160a01b039290921660048301525f60248301819052604483019190915290918290606490829084905af16117cd5750565b63391434e360e21b5f526001600160a01b038516600452602452604483905260645ffd5b634b637e8f60e11b5f526001600160a01b03841660045260245ffd5b670de0b6b3a764000080820402810361523d5790565b600181018091116109845790565b7f00000000000000000000000000000000000000000000000000000000000000001161527357565b6303da9a2360e31b5f5260045ffd5b9080156152b357670de0b6b3a764000091828102928184041490151715610984576001905f19830104019015150290565b630a0c22c760e01b5f5260045ffd5b82156152b3576001916152d4916148e7565b915f19830104019015150290565b9061043f926152f0916148e7565b90615282565b906001600160801b0380831190811561532e575b5061531f5760801b9081018091116109845790565b6389560ca160e01b5f5260045ffd5b905081115f61530a565b906153458260801c61455c565b906001600160801b035f931680615369575b5050600291615365916135c6565b0590565b6001600160a01b0393509060246020926040519586938492630a28a47760e01b84526004840152165afa90811561021a576153b1615365926002945f916153ba575b5061455c565b92819250615357565b6153d3915060203d6020116102135761020581836102dd565b5f6153ab565b5f81126153e35790565b635467221960e11b5f5260045260245ffd5b60405163095ea7b360e01b602082018181526001600160a01b03851660248401525f6044840152909391929183606481015b039161543b601f19938481018752866102dd565b5f806001600160a01b0386169287519082855af19061545861562a565b826154c5575b50816154ba575b5015615472575050505050565b60405160208101959095526001600160a01b031660248501525f6044850152606490810184526154b09361095a916154aa90826102dd565b82615b28565b5f80808080611552565b90503b15155f615465565b805191925081159182156154dd575b5050905f61545e565b6154f09250602080918301019101611f13565b5f806154d4565b60405163095ea7b360e01b602082018181526001600160a01b038516602484015260448301959095529390928360648101615427565b906155406001600160801b03831661455c565b905f9260801c80615559575050600291615365916135c6565b6001600160a01b039350906024602092604051958693849263b3d7f6b960e01b84526004840152165afa90811561021a576153b1615365926002945f916153ba575061455c565b9291906001600160a01b038085165f52600860205260405f20549283039283116109845781165f52600860205260405f20549283018093116109845761010c93615d2c565b9291906001600160a01b038085165f52600860205260405f20549283018093116109845781165f52600860205260405f20549283039283116109845761010c93615d2c565b3d15615654573d9061563b826103d2565b9161564960405193846102dd565b82523d5f602084013e565b606090565b5f8061043f9360208151910182855af161567161562a565b91615e63565b60051c6001161561568457565b63121db02f60e21b5f5260045ffd5b90949160206156c26156ad866001600160a01b0394612282565b946156b88787615282565b614d6d8183615ebd565b0392165afa801561021a57614c89956137b7614c0185614dd594614dde998c998a615721995f94615727575b509061571561570e61570761571c946124a79798611e60565b5187610b61565b9c8c611e60565b51906148e7565b614e2c565b52612282565b6124a7945061570e61570761571c94936157526157159460203d6020116102135761020581836102dd565b975093945050506156ee565b90602080835161576f845182611e18565b60051b930191015e565b92919093835161578881611e2e565b9161579282611e2e565b965f5b83811061596e5750506001600160a01b0381169160405195631309bd3d60e31b928388526020988989806157cc8460048301614ae0565b0381895afa98891561021a575f9961594f575b506040518581528a81806157f68b60048301614afc565b03818a5afa90811561021a578a61571c6158319361582a938f5f92615932575b9b999d9c9a989796959493929190506148ca565b8093615ebd565b5f5b8981106158a057505050506158579550604051809681948293835260048301614afc565b03915afa91821561021a578361571c9361587d92614c89975f92615883575b5050610b61565b906148e7565b6158999250803d106102135761020581836102dd565b5f80615876565b869899959750838d8394959698836158c46158bd82600198611e60565b5189615cec565b806158cf8385611e60565b51116158eb575b505050505001908a9694989795939291615833565b818361590c61591d97615916946159058561487599611e60565b5103614e8c565b611b058388611e60565b5192611e60565b615927828b611e60565b52848d8a835f6158d6565b6159489250803d106102135761020581836102dd565b5f8f615816565b6159679199508a3d8c116102135761020581836102dd565b975f6157df565b806159986159936159816001948c611e60565b5161598c8487611e60565b5190612282565b610b53565b6159a28288611e60565b5201615795565b60071c600116156159b657565b63efe0265d60e01b5f5260045ffd5b92916159d18451611e2e565b935f5b8151811015615a0657806159f585856159ef60019587611e60565b516152c2565b6159ff8289611e60565b52016159d4565b50505050565b916001600160a01b03808316938415615b0c57615a4483615a3e836001600160a01b03165f52601160205260405f2090565b54612282565b615a63856115a3846001600160a01b03165f52600f60205260405f2090565b848154019055615a7281615d0d565b615a8d826001600160a01b03165f52601160205260405f2090565b5516925f847fd1398bee19313d6bf672ccb116e51f4a1a947e91c757907f51fbb5b5e56c698f60405180615ac687829190602083019252565b0390a4823b156100fd576040516323de665160e01b81525f600482018190526001600160a01b0390931660248201526044810191909152918290818381606481016117bc565b63ec442f0560e01b5f526001600160a01b03841660045260245ffd5b6001600160a01b03615b3c91169182615659565b8051908115159182615b64575b5050615b525750565b635274afe760e01b5f5260045260245ffd5b615b779250602080918301019101611f13565b155f80615b49565b906001600160a01b03165f5260205260405f205d565b9064ffffffffff615ba582611e2e565b92605a1c165f5b828110615bb95750505090565b60058082029082820414821517156109845782601f911c1690604d821161098457600191600a0a615bea8287611e60565b5201615bac565b62ffffff9060421c1664174876e800908181029181830414901517156109845790565b9093925f94615c27846080850151611e60565b51818111615c36575050505050565b615c5c95965091615c4b916124049303614e8c565b9260a06123fb8260c0860151611e60565b905f80808080611552565b906001600160801b0361043f92166152f6565b9060206001600160a01b0392600460405180958193635b3bfd2b60e11b8352165afa91821561021a575f92615ccb575b50818110615cb6575050565b63718e4adf60e11b5f5260045260245260445ffd5b615ce591925060203d6020116102135761020581836102dd565b905f615caa565b670de0b6b3a764000091612db1916148e7565b9061043f9160801c906152f6565b620f42408110615d1a5750565b6334e3483f60e21b5f5260045260245ffd5b6040516370a0823160e01b808252306004830152602095939490926001600160a01b03929187836024818786165afa92831561021a575f93615e44575b50808310615e1d5750615d8d906001600160a01b03165f52600860205260405f2090565b556040519182523060048301528316908481602481855afa94851561021a575f95615dfe575b5050818410615ddc575050615dd9906001600160a01b03165f52600860205260405f2090565b55565b631149424d60e01b5f526001600160a01b03166004526024525060445260645ffd5b615e15929550803d106102135761020581836102dd565b925f80615db3565b631c6a537560e01b5f9081529387166001600160a01b031660045260245250604452606490fd5b615e5c919350883d8a116102135761020581836102dd565b915f615d69565b90615e875750805115615e7857805190602001fd5b630a12f52160e11b5f5260045ffd5b81511580615eb4575b615e98575090565b6001600160a01b0390639996b31560e01b5f521660045260245ffd5b50803b15615e90565b9060206001600160a01b039260046040518095819363273c1adf60e01b8352165afa91821561021a575f92615f0e575b50818111615ef9575050565b630fa2583760e21b5f5260045260245260445ffd5b615f2891925060203d6020116102135761020581836102dd565b905f615eed565b91909163ffffffff808094169116019182116109845756fea2646970667358221220c40d35cad3c96ba4baf95fdcba2aebe30a57a6c477fc322301f3aa6eadb3f08264736f6c634300081a0033",
  "linkReferences": {},
  "deployedLinkReferences": {}
}