{
  "_format": "hh-sol-artifact-1",
  "contractName": "WeightedLPOracleFactory",
  "sourceName": "contracts/WeightedLPOracleFactory.sol",
  "abi": [
    {
      "inputs": [
        {
          "internalType": "contract IVault",
          "name": "vault",
          "type": "address"
        },
        {
          "internalType": "uint256",
          "name": "oracleVersion",
          "type": "uint256"
        }
      ],
      "stateMutability": "nonpayable",
      "type": "constructor"
    },
    {
      "inputs": [],
      "name": "SenderNotAllowed",
      "type": "error"
    },
    {
      "inputs": [],
      "name": "VaultNotSet",
      "type": "error"
    },
    {
      "anonymous": false,
      "inputs": [
        {
          "indexed": true,
          "internalType": "contract IWeightedPool",
          "name": "pool",
          "type": "address"
        },
        {
          "indexed": false,
          "internalType": "contract IWeightedLPOracle",
          "name": "oracle",
          "type": "address"
        },
        {
          "indexed": false,
          "internalType": "uint256",
          "name": "oracleVersion",
          "type": "uint256"
        }
      ],
      "name": "WeightedLPOracleCreated",
      "type": "event"
    },
    {
      "inputs": [
        {
          "internalType": "contract IWeightedPool",
          "name": "pool",
          "type": "address"
        },
        {
          "internalType": "contract AggregatorV3Interface[]",
          "name": "feeds",
          "type": "address[]"
        }
      ],
      "name": "create",
      "outputs": [
        {
          "internalType": "contract IWeightedLPOracle",
          "name": "oracle",
          "type": "address"
        }
      ],
      "stateMutability": "nonpayable",
      "type": "function"
    },
    {
      "inputs": [
        {
          "internalType": "bytes4",
          "name": "selector",
          "type": "bytes4"
        }
      ],
      "name": "getActionId",
      "outputs": [
        {
          "internalType": "bytes32",
          "name": "",
          "type": "bytes32"
        }
      ],
      "stateMutability": "view",
      "type": "function"
    },
    {
      "inputs": [],
      "name": "getAuthorizer",
      "outputs": [
        {
          "internalType": "contract IAuthorizer",
          "name": "",
          "type": "address"
        }
      ],
      "stateMutability": "view",
      "type": "function"
    },
    {
      "inputs": [
        {
          "internalType": "contract IWeightedPool",
          "name": "pool",
          "type": "address"
        }
      ],
      "name": "getOracle",
      "outputs": [
        {
          "internalType": "contract IWeightedLPOracle",
          "name": "oracle",
          "type": "address"
        }
      ],
      "stateMutability": "view",
      "type": "function"
    },
    {
      "inputs": [],
      "name": "getVault",
      "outputs": [
        {
          "internalType": "contract IVault",
          "name": "",
          "type": "address"
        }
      ],
      "stateMutability": "view",
      "type": "function"
    }
  ],
  "bytecode": "0x60c0346100a257601f612ef638819003918201601f19168301916001600160401b038311848410176100a65780849260409485528339810103126100a25780516001600160a01b038116918282036100a257602001519130608052156100935760a0525f55604051612e3b90816100bb82396080518161063d015260a0518181816101190152818161043801526104c90152f35b630647140b60e51b5f5260045ffd5b5f80fd5b634e487b7160e01b5f52604160045260245ffdfe6080604081815260049081361015610015575f80fd5b5f35928360e01c90816310d3d22e1461053d57508063851c1bb3146104ed5780638d928af81461049d578063aaabadc5146103e45763cd1d977614610058575f80fd5b3461033c578060031936011261033c57610070610581565b602480359467ffffffffffffffff9485871161033c573660238801121561033c5786810135958087116103b9578660051b926020988751986100b48b87018b6105a4565b89528989018681968301019136831161033c578701905b82821061038d575050507fffffffff000000000000000000000000000000000000000000000000000000006101009116610612565b73ffffffffffffffffffffffffffffffffffffffff95867f000000000000000000000000000000000000000000000000000000000000000016918851907faaabadc50000000000000000000000000000000000000000000000000000000082528b828781875afa91821561038357918c918a935f92610351575b506064908c5194859384927f9be2a8840000000000000000000000000000000000000000000000000000000084528b840152338d840152306044840152165afa908115610347575f9161030d575b50156102e6575f54938851966127519182890195898710908711176102bc57505086959493929188916106b58839608084019284521698898b8401526080898401525180915260a0820193905f5b8b8282106102a357505050506060015203905ff08015610299571691805f5260018452815f20837fffffffffffffffffffffffff00000000000000000000000000000000000000008254161790557ffe0fe762010efd636b9d44c1b529d2343a72d14538bd28a5a873e29e5e8956f2825f5481519086825287820152a251908152f35b82513d5f823e3d90fd5b83518a1687528897509586019590920191600101610216565b6041907f4e487b71000000000000000000000000000000000000000000000000000000005f52525ffd5b837f23dada53000000000000000000000000000000000000000000000000000000005f525ffd5b90508a81813d8311610340575b61032481836105a4565b8101031261033c5751801515810361033c575f6101c8565b5f80fd5b503d61031a565b89513d5f823e3d90fd5b606491925061037590843d861161037c575b61036d81836105a4565b810190610688565b919061017a565b503d610363565b8a513d5f823e3d90fd5b813573ffffffffffffffffffffffffffffffffffffffff8116810361033c578152908b01908b016100cb565b836041837f4e487b71000000000000000000000000000000000000000000000000000000005f52525ffd5b50903461033c575f60031936011261033c5773ffffffffffffffffffffffffffffffffffffffff6020835180937faaabadc500000000000000000000000000000000000000000000000000000000825281847f0000000000000000000000000000000000000000000000000000000000000000165afa91821561049357926020935f93610474575b505191168152f35b61048c919350843d861161037c5761036d81836105a4565b918461046c565b83513d5f823e3d90fd5b503461033c575f60031936011261033c576020905173ffffffffffffffffffffffffffffffffffffffff7f0000000000000000000000000000000000000000000000000000000000000000168152f35b50903461033c57602060031936011261033c5735907fffffffff000000000000000000000000000000000000000000000000000000008216820361033c57610536602092610612565b9051908152f35b90503461033c57602060031936011261033c5760209173ffffffffffffffffffffffffffffffffffffffff9081610572610581565b165f52600184525f2054168152f35b6004359073ffffffffffffffffffffffffffffffffffffffff8216820361033c57565b90601f7fffffffffffffffffffffffffffffffffffffffffffffffffffffffffffffffe0910116810190811067ffffffffffffffff8211176105e557604052565b7f4e487b71000000000000000000000000000000000000000000000000000000005f52604160045260245ffd5b6040517fffffffff0000000000000000000000000000000000000000000000000000000060208201927f00000000000000000000000000000000000000000000000000000000000000008452166040820152602481526060810181811067ffffffffffffffff8211176105e55760405251902090565b9081602091031261033c575173ffffffffffffffffffffffffffffffffffffffff8116810361033c579056fe6104006040908082523461066757612751803803809161001f82856107bf565b833981016080828203126106675781516001600160a01b0392838216918281036106675760209586830151968688169788810361066757848301516001600160401b03919082811161066757860194601f96898888011215610667578651996100878b6107f6565b976100948851998a6107bf565b8b8952868901908760059d8e1b820101928311610667578701905b8282106107a7575050506060015160c05260805260a05282519863ca4f280360e01b8a525f8a60248160049a858c8301525afa998a15610710575f9a61071a575b50985f8798999a85519889809263f89f27ed60e01b82525afa968715610710575f97610688575b5051948560e052875f8b60a051168651928380926395d89b4160e01b82525afa90811561067e579084915f916105eb575b5060246101799187519381859251918291018984015e8101630bd554d160e21b88820152038b8101845201826107bf565b80519283116105d8575f54936001948581811c911680156105ce575b828210146105bb57838111610579575b508092841160011461051757509282939183925f9461050c575b50501b915f199060031b1c1916175f555b815183036104fe57866101e28361080d565b5116916102009283526101f48561080d565b5197610100988952610210816102098461080d565b511661089f565b956103009687526007826102238561082e565b5116966102209788526102358361082e565b519a6101209b8c5261024a856102098861082e565b9a6103209b8c52600283116104ca575b60038311610496575b8211610462575b811161042e575b600681116103fa575b116103c4575b5050505194611df09687610961883960805187818161012601526108ab015260a0518781816101000152818161068e0152610850015260c05187610558015260e05187818161027a0152818161036f015281816106400152818161080e0152610b6101525186610db501525185610de001526101405185610e1401526101605185610e4801526101805185610e7c01526101a05185610eb001526101c05185610ee701526101e05185610f1a0152518461109c015251836110c901526102405183611100015261026051836111370152610280518361116e01526102a051836111a501526102c051836111e001526102e051836112170152518261124d01525181611278015261034051816112ac015261036051816112e00152610380518161131401526103a0518161134801526103c0518161137f01526103e051816113b20152f35b826103e461020992846103d96103ee9761088e565b51166102e05261088e565b516101e05261088e565b6103e0525f8080610280565b836104048661087e565b51166102c0526104138361087e565b516101c052610425846102098761087e565b6103c05261027a565b836104388661086e565b51166102a0526104478361086e565b516101a052610459846102098761086e565b6103a052610271565b8461046c8761085e565b51166102805261047b8461085e565b516101805261048d856102098861085e565b6103805261026a565b856104a08861084e565b5116610260526104af8561084e565b51610160526104c1866102098961084e565b61036052610263565b856104d48861083e565b5116610240526104e38561083e565b51610140526104f5866102098961083e565b6103405261025a565b8463aaad13f760e01b5f525ffd5b015192505f806101bf565b919083601f1981165f8052845f20945f905b8883831061055f5750505010610547575b505050811b015f556101d0565b01515f1960f88460031b161c191690555f808061053a565b858701518855909601959485019487935090810190610529565b5f8052815f20848d818801901c8201928488106105b2575b018d1c019086905b8281106105a75750506101a5565b5f8155018690610599565b92508192610591565b60228b634e487b7160e01b5f525260245ffd5b90607f1690610195565b604189634e487b7160e01b5f525260245ffd5b9150503d805f833e6105fd81836107bf565b81019084818303126106675780519084821161066757018183820112156106675780519084821161066b5786519261063d838601601f19168801856107bf565b8284528683830101116106675785925f84846101799582602496018386015e830101529150610148565b5f80fd5b60418b634e487b7160e01b5f525260245ffd5b85513d5f823e3d90fd5b9096503d805f833e61069a81836107bf565b8101908381830312610667578051908382116106675701908087830112156106675781516106c7816107f6565b926106d4875194856107bf565b81845285808501928d1b8201019283116106675785809101915b8383106107005750505050955f610117565b82518152918101918691016106ee565b84513d5f823e3d90fd5b99503d805f8c3e61072b818c6107bf565b8a019983818c03126106675780519083821161066757019980878c011215610667578a51610758816107f6565b9b858088519e8f9061076a90826107bf565b84815201928c1b820101928311610667578501905b82821061078f575050505f6100f0565b81518c8116810361066757815290850190850161077f565b8151808f1681036106675781529087019087016100af565b601f909101601f19168101906001600160401b038211908210176107e257604052565b634e487b7160e01b5f52604160045260245ffd5b6001600160401b0381116107e25760051b60200190565b80511561081a5760200190565b634e487b7160e01b5f52603260045260245ffd5b80516001101561081a5760400190565b80516002101561081a5760600190565b80516003101561081a5760800190565b80516004101561081a5760a00190565b80516005101561081a5760c00190565b80516006101561081a5760e00190565b80516007101561081a576101000190565b60405163313ce56760e01b815290602090829060049082906001600160a01b03165afa8015610955575f90610918575b60ff9150166012811161090957601203601281116108f557604d81116108f557600a0a90565b634e487b7160e01b5f52601160045260245ffd5b636a78e98160e11b5f5260045ffd5b506020813d60201161094d575b81610932602093836107bf565b81010312610667575160ff811681036106675760ff906108cf565b3d9150610925565b6040513d5f823e3d90fdfe6080604081815260049182361015610015575f80fd5b5f3560e01c90816316f0115b146106645750806322acb86714610626578063313ce5671461060b57806347bcac3b1461057b57806354fd4d50146105415780637284e416146103ed5780637fe955d4146103595780639a6fc8f514610312578063af1296d3146102b5578063cd2c9e70146102605763feaf968c14610098575f80fd5b3461024a575f60031936011261024a576100bc60246100b5610b5f565b929061080c565b93602073ffffffffffffffffffffffffffffffffffffffff8551938480927fe4dc2aa4000000000000000000000000000000000000000000000000000000008252807f000000000000000000000000000000000000000000000000000000000000000016868301527f0000000000000000000000000000000000000000000000000000000000000000165afa918215610256575f9261021e575b5081156101f857670de0b6b3a7640000948581029581870414901517156101cc57506101b08460015f937fffffffffffffffffffffffffffffffffffffffffffffffffffffffffffffffff60a098010401901515026113da565b92805193828552602085015283015260608201525f6080820152f35b6011907f4e487b71000000000000000000000000000000000000000000000000000000005f525260245ffd5b7f0a0c22c7000000000000000000000000000000000000000000000000000000005f525ffd5b9091506020813d60201161024e575b8161023a602093836106e5565b8101031261024a5751905f610156565b5f80fd5b3d915061022d565b84513d5f823e3d90fd5b503461024a575f60031936011261024a576102b19061029e7f0000000000000000000000000000000000000000000000000000000000000000611241565b90519182916020835260208301906106b2565b0390f35b503461024a575f60031936011261024a576102ce610b5f565b91805191818301918352805180925260608301916020809201915f5b8281106102fe578580868960208301520390f35b8351855293810193928101926001016102ea565b50903461024a57602060031936011261024a573569ffffffffffffffffffff81160361024a57805f60a09251918183528160208401528201525f60608201525f6080820152f35b503461024a575f60031936011261024a576103937f000000000000000000000000000000000000000000000000000000000000000061104c565b908051918291602090602080850191818652845180935285019301915f5b8281106103c057505050500390f35b835173ffffffffffffffffffffffffffffffffffffffff16855286955093810193928101926001016103b1565b503461024a575f60031936011261024a5780515f5f549060018260011c9060018416938415610537575b602097888410861461050b57509187918694938286528386019690815f146104d1575060011461047b575b50505091610457601f92601f199403856106e5565b845195869481865251918280928701528686015e5f85828601015201168101030190f35b5f8080529293507f290decd9548b62a8d60345a988386fc84ba6bc95484008f6362f93160ef3e5635b8284106104bb575050508201018582601f19610442565b80548885018601528795509284019281016104a4565b7fffffffffffffffffffffffffffffffffffffffffffffffffffffffffffffff001687525050151560051b83010190508582601f19610442565b6022907f4e487b71000000000000000000000000000000000000000000000000000000005f525260245ffd5b91607f1691610417565b503461024a575f60031936011261024a57602090517f00000000000000000000000000000000000000000000000000000000000000008152f35b503461024a5760208060031936011261024a5782359267ffffffffffffffff841161024a573660238501121561024a57830135926105b884610735565b936105c5845195866106e5565b8085526024602086019160051b8301019136831161024a57602401905b8282106105fc576020856105f58861080c565b9051908152f35b813581529083019083016105e2565b503461024a575f60031936011261024a576020905160128152f35b503461024a575f60031936011261024a576102b19061029e7f0000000000000000000000000000000000000000000000000000000000000000610da9565b3461024a575f60031936011261024a5760209073ffffffffffffffffffffffffffffffffffffffff7f0000000000000000000000000000000000000000000000000000000000000000168152f35b9081518082526020808093019301915f5b8281106106d1575050505090565b8351855293810193928101926001016106c3565b90601f601f19910116810190811067ffffffffffffffff82111761070857604052565b7f4e487b71000000000000000000000000000000000000000000000000000000005f52604160045260245ffd5b67ffffffffffffffff81116107085760051b60200190565b80511561075a5760200190565b7f4e487b71000000000000000000000000000000000000000000000000000000005f52603260045260245ffd5b80516001101561075a5760400190565b80516002101561075a5760600190565b80516003101561075a5760800190565b80516004101561075a5760a00190565b80516005101561075a5760c00190565b80516006101561075a5760e00190565b80516007101561075a576101000190565b805182101561075a5760209160051b010190565b7f00000000000000000000000000000000000000000000000000000000000000009061083782610da9565b9173ffffffffffffffffffffffffffffffffffffffff807f0000000000000000000000000000000000000000000000000000000000000000166040948551917f535cfd8a0000000000000000000000000000000000000000000000000000000083526004928160048201525f8160248181987f0000000000000000000000000000000000000000000000000000000000000000165afa908115610b3e575f91610aac575b5060209061091d92895180809581947f984de9e80000000000000000000000000000000000000000000000000000000083528d600484015260448301906106b2565b5f602483015203915afa968715610aa357505f96610a6f575b5093929190670de0b6b3a7640000945f945b84861061096c57505050505050670de0b6b3a76400009161096891610f4a565b0490565b90919293949561097c87836107f8565b515f8112610a455761098e88856107f8565b51670de0b6b3a7640000820291808304670de0b6b3a76400001490151715610a1a5780156109ef576001926109dc670de0b6b3a7640000936109e2936109d48d8a6107f8565b519104610f8a565b90610f4a565b0496019493929190610948565b866012877f4e487b71000000000000000000000000000000000000000000000000000000005f52525ffd5b866011877f4e487b71000000000000000000000000000000000000000000000000000000005f52525ffd5b8590857fa8ce4432000000000000000000000000000000000000000000000000000000005f52525ffd5b9095506020813d602011610a9b575b81610a8b602093836106e5565b8101031261024a5751945f610936565b3d9150610a7e565b513d5f823e3d90fd5b90503d805f833e610abd81836106e5565b810190602090818184031261024a5780519067ffffffffffffffff821161024a57019180601f8401121561024a578251610af681610735565b93610b038c5195866106e5565b818552838086019260051b82010192831161024a578301905b828210610b2f575050505061091d6108db565b81518152908301908301610b1c565b88513d5f823e3d90fd5b519069ffffffffffffffffffff8216820361024a57565b7f000000000000000000000000000000000000000000000000000000000000000090610b8a8261104c565b90610b9483611241565b91610b9e84610735565b604094610bae60405192836106e5565b808252610bba81610735565b601f196020910136602085013782967fffffffffffffffffffffffffffffffffffffffffffffffffffffffffffffffff965f955b848710610bfe5750505050505050565b9091929394959773ffffffffffffffffffffffffffffffffffffffff610c248a846107f8565b511684518080927ffeaf968c00000000000000000000000000000000000000000000000000000000825260a092839160049384915afa928315610d6e575f925f94610d16575b5050610c7f610c798d886107f8565b516113da565b91828102927f800000000000000000000000000000000000000000000000000000000000000081145f831216610cea5781840514901517156101cc57509060019291610ccb8c8b6107f8565b5280821015610ce357505b9801959493929190610bee565b9050610cd6565b6011837f4e487b71000000000000000000000000000000000000000000000000000000005f525260245ffd5b809294508193503d8311610d67575b610d2f81836106e5565b8101031261024a57610d4081610b48565b9187820151918781015192610d5c608060608401519301610b48565b94509250925f610c6a565b503d610d25565b87513d5f823e3d90fd5b90610d8282610735565b610d8f60405191826106e5565b828152601f19610d9f8294610735565b0190602036910137565b610db281610d78565b907f0000000000000000000000000000000000000000000000000000000000000000610ddd8361074d565b527f0000000000000000000000000000000000000000000000000000000000000000610e0883610787565b526002811115610f46577f0000000000000000000000000000000000000000000000000000000000000000610e3c83610797565b526003811115610f46577f0000000000000000000000000000000000000000000000000000000000000000610e70836107a7565b526004811115610f46577f0000000000000000000000000000000000000000000000000000000000000000610ea4836107b7565b526005811115610f46577f0000000000000000000000000000000000000000000000000000000000000000610ed8836107c7565b526006811115610f46576007907f0000000000000000000000000000000000000000000000000000000000000000610f0f846107d7565b5211610f185790565b7f0000000000000000000000000000000000000000000000000000000000000000610f42826107e7565b5290565b5090565b81810292918115918404141715610f5d57565b7f4e487b71000000000000000000000000000000000000000000000000000000005f52601160045260245ffd5b670de0b6b3a764000091808303610fa15750905090565b8290671bc16d674ec800008103610fbe5750508061096891610f4a565b673782dace9d9000008103610fe25750610fdb8261096893610f4a565b0480610f4a565b9050610fed91611480565b612710808202908282041482151715610f5d5760017fffffffffffffffffffffffffffffffffffffffffffffffffffffffffffffffff938483010401901515029060018201808311610f5d57811015611047575050505f90565b030190565b61105581610735565b9061106360405192836106e5565b808252601f1961107282610735565b013660208401376110828261074d565b9073ffffffffffffffffffffffffffffffffffffffff91827f00000000000000000000000000000000000000000000000000000000000000001690526110c783610787565b7f000000000000000000000000000000000000000000000000000000000000000083169052600281111561123c576110fe83610797565b7f000000000000000000000000000000000000000000000000000000000000000083169052600381111561123c57611135836107a7565b7f000000000000000000000000000000000000000000000000000000000000000083169052600481111561123c5761116c836107b7565b7f000000000000000000000000000000000000000000000000000000000000000083169052600581111561123c576111a3836107c7565b7f000000000000000000000000000000000000000000000000000000000000000083169052600681111561123c576007906111dd846107d7565b837f00000000000000000000000000000000000000000000000000000000000000001690521161120b575090565b611214826107e7565b907f000000000000000000000000000000000000000000000000000000000000000016905290565b505090565b61124a81610d78565b907f00000000000000000000000000000000000000000000000000000000000000006112758361074d565b527f00000000000000000000000000000000000000000000000000000000000000006112a083610787565b526002811115610f46577f00000000000000000000000000000000000000000000000000000000000000006112d483610797565b526003811115610f46577f0000000000000000000000000000000000000000000000000000000000000000611308836107a7565b526004811115610f46577f000000000000000000000000000000000000000000000000000000000000000061133c836107b7565b526005811115610f46577f0000000000000000000000000000000000000000000000000000000000000000611370836107c7565b526006811115610f46576007907f00000000000000000000000000000000000000000000000000000000000000006113a7846107d7565b52116113b05790565b7f0000000000000000000000000000000000000000000000000000000000000000610f42826107e7565b7f7fffffffffffffffffffffffffffffffffffffffffffffffffffffffffffffff81116114045790565b7f24775e06000000000000000000000000000000000000000000000000000000005f5260045260245ffd5b8015611449576ec097ce7bc90715b34b9f10000000000590565b7f4e487b71000000000000000000000000000000000000000000000000000000005f52601260045260245ffd5b8115611449570590565b908015611dac578115611da6578160ff1c611d7e57770bce5086492111aea88f4bb1ca6bcf584181ea8059f76532811015611d565781670c7d713b49da00001280611d45575b156119e257670de0b6b3a7640000916ec097ce7bc90715b34b9f100000000090611519908402828101907fffffffffffffffffffffffffffffffffff3f68318436f8ea4cb460f000000000018302611476565b9080828002059181838202058284820205838582020591848684020593858786020595808888020597880205600f900596600d900595600b900594600990059360079005926005900591600390050101010101010160011b918082818507020592050201670de0b6b3a7640000905b057ffffffffffffffffffffffffffffffffffffffffffffffffdc702bd3a30fc000081811315806119cf575b156119a757819082121580611994575b1561196c575f915f811261195d575b506064906806f05b59d3b200000081126118fa577ffffffffffffffffffffffffffffffffffffffffffffffff90fa4a62c4e0000000168056bc75e2d6310000082770195e54c5dd42177f53a27172fa9ec630262827000000000925b02819068ad78ebc5ac620000008112156118c1575b6856bc75e2d631000000811215611887575b682b5e3af16b1880000081121561184f575b6815af1d78b58c400000811215611817575b680ad78ebc5ac62000008112156117e0575b828112156117a9575b6802b5e3af16b1880000811215611772575b68015af1d78b58c4000081121561173b575b60028382800205056003848383020505600485848302050585600581868402050560068287830205056007838883020505906008848984020505926009858a8602050595600a868b8902050597600b878c8b02050599600c888d8d0205059b01010101010101010101010102050205905f14611738576117389061142f565b90565b6806f5f17757889379377ffffffffffffffffffffffffffffffffffffffffffffffffea50e2874a73c0000849201920205906116b9565b6808f00f760a4b2db55d7ffffffffffffffffffffffffffffffffffffffffffffffffd4a1c50e94e780000849201920205906116a7565b680ebc5fb417461211107ffffffffffffffffffffffffffffffffffffffffffffffffa9438a1d29cf0000084920192020590611695565b68280e60114edb805d037ffffffffffffffffffffffffffffffffffffffffffffffff5287143a539e000008492019202059061168c565b690127fa27722cc06cc5e27fffffffffffffffffffffffffffffffffffffffffffffffea50e2874a73c000008492019202059061167a565b693f1fce3da636ea5cf8507fffffffffffffffffffffffffffffffffffffffffffffffd4a1c50e94e780000084920192020590611668565b6b02df0ab5a80a22c61ab5a7007fffffffffffffffffffffffffffffffffffffffffffffffa9438a1d29cf00000084920192020590611656565b6e01855144814a7ff805980ff008400091507fffffffffffffffffffffffffffffffffffffffffffffff5287143a539e00000001611644565b6803782dace9d9000000811261194a577ffffffffffffffffffffffffffffffffffffffffffffffffc87d25316270000000168056bc75e2d63100000826b1425982cf597cd205cef73809261162f565b68056bc75e2d631000008260019261162f565b600192505f03905060646115d3565b7fd4794efd000000000000000000000000000000000000000000000000000000005f5260045ffd5b5068070c1cc73b00c800008213156115c4565b7fa2f9f7e3000000000000000000000000000000000000000000000000000000005f5260045ffd5b5068070c1cc73b00c800008213156115b4565b81670de0b6b3a7640000925f91848112611d2f575b506064905f7e1600ef3172e58d2e933ec884fde10064c63b5372d805e203c0000000000000821215611d04575b73011798004d755d3c8bc8e03204cf44619e000000821215611ce3575b820290808302906e01855144814a7ff805980ff00840009081831215611cc0575b50506b02df0ab5a80a22c61ab5a70080821215611ca0575b50693f1fce3da636ea5cf85080821215611c80575b50690127fa27722cc06cc5e280821215611c60575b5068280e60114edb805d0380821215611c40575b50680ebc5fb4174612111080821215611c29575b506808f00f760a4b2db55d80821215611c09575b506806f5f177578893793780821215611be9575b506806248f33704b28660380821215611bca575b506805c548670b9510e7ac80821215611bab575b50611b5868056bc75e2d6310000091827ffffffffffffffffffffffffffffffffffffffffffffffffa9438a1d29cf00000818301920102611476565b9080828002059181838202058284820205916003600560076009600b888a89020598808b8b02059a8b0205059805960594059205010101010160011b0105905f14611ba6575f035b02611588565b611ba0565b68056bc75e2d631000006756bc75e2d63100009202059101905f611b1c565b68056bc75e2d6310000067ad78ebc5ac6200009202059101905f611b08565b68056bc75e2d6310000068015af1d78b58c400009202059101905f611af4565b68056bc75e2d631000006802b5e3af16b18800009202059101905f611ae0565b68056bc75e2d63100000809202059101905f611acc565b68056bc75e2d63100000680ad78ebc5ac62000009202059101905f611ab8565b68056bc75e2d631000006815af1d78b58c4000009202059101905f611aa4565b68056bc75e2d63100000682b5e3af16b188000009202059101905f611a8f565b68056bc75e2d631000006856bc75e2d6310000009202059101905f611a7a565b68ad78ebc5ac62000000925069021e19e0c9bab240000002059101905f80611a62565b906b1425982cf597cd205cef73806803782dace9d900000091059101611a41565b50770195e54c5dd42177f53a27172fa9ec63026282700000000090056806f05b59d3b2000000611a24565b9050611d3b915061142f565b60019060646119f7565b50670f43fc2c04ee000082126114c6565b7fd8317311000000000000000000000000000000000000000000000000000000005f5260045ffd5b7f022701e0000000000000000000000000000000000000000000000000000000005f5260045ffd5b50505f90565b5050670de0b6b3a76400009056fea2646970667358221220659c979dfe41d02b29882b7d46ec0a2e92eadb9c4641e40f6c89f036fb5a967b64736f6c634300081b0033a26469706673582212208d8af8eb1f4e81bf0d263eaa3254924e6e0cb2db28818649a5edb0f6ed5e1eef64736f6c634300081b0033",
  "linkReferences": {},
  "deployedLinkReferences": {}
}