{
  "_format": "hh-sol-artifact-1",
  "contractName": "WeightedLPOracleFactory",
  "sourceName": "contracts/WeightedLPOracleFactory.sol",
  "abi": [
    {
      "inputs": [
        {
          "internalType": "contract IVault",
          "name": "vault",
          "type": "address"
        },
        {
          "internalType": "contract AggregatorV3Interface",
          "name": "sequencerUptimeFeed",
          "type": "address"
        },
        {
          "internalType": "uint256",
          "name": "uptimeResyncWindow",
          "type": "uint256"
        },
        {
          "internalType": "string",
          "name": "factoryVersion",
          "type": "string"
        },
        {
          "internalType": "uint256",
          "name": "oracleVersion",
          "type": "uint256"
        }
      ],
      "stateMutability": "nonpayable",
      "type": "constructor"
    },
    {
      "inputs": [],
      "name": "InputLengthMismatch",
      "type": "error"
    },
    {
      "inputs": [
        {
          "internalType": "contract IBasePool",
          "name": "pool",
          "type": "address"
        },
        {
          "internalType": "bool",
          "name": "shouldUseBlockTimeForOldestFeedUpdate",
          "type": "bool"
        },
        {
          "internalType": "bool",
          "name": "shouldRevertIfVaultUnlocked",
          "type": "bool"
        },
        {
          "internalType": "contract AggregatorV3Interface[]",
          "name": "feeds",
          "type": "address[]"
        },
        {
          "internalType": "contract ILPOracleBase",
          "name": "oracle",
          "type": "address"
        }
      ],
      "name": "OracleAlreadyExists",
      "type": "error"
    },
    {
      "inputs": [],
      "name": "OracleFactoryIsDisabled",
      "type": "error"
    },
    {
      "inputs": [],
      "name": "SenderNotAllowed",
      "type": "error"
    },
    {
      "inputs": [],
      "name": "SequencerDown",
      "type": "error"
    },
    {
      "inputs": [],
      "name": "SequencerResyncIncomplete",
      "type": "error"
    },
    {
      "inputs": [],
      "name": "VaultNotSet",
      "type": "error"
    },
    {
      "anonymous": false,
      "inputs": [],
      "name": "OracleFactoryDisabled",
      "type": "event"
    },
    {
      "anonymous": false,
      "inputs": [
        {
          "indexed": true,
          "internalType": "contract IWeightedPool",
          "name": "pool",
          "type": "address"
        },
        {
          "indexed": false,
          "internalType": "bool",
          "name": "shouldUseBlockTimeForOldestFeedUpdate",
          "type": "bool"
        },
        {
          "indexed": false,
          "internalType": "bool",
          "name": "shouldRevertIfVaultUnlocked",
          "type": "bool"
        },
        {
          "indexed": false,
          "internalType": "contract AggregatorV3Interface[]",
          "name": "feeds",
          "type": "address[]"
        },
        {
          "indexed": false,
          "internalType": "contract IWeightedLPOracle",
          "name": "oracle",
          "type": "address"
        }
      ],
      "name": "WeightedLPOracleCreated",
      "type": "event"
    },
    {
      "inputs": [
        {
          "internalType": "contract IBasePool",
          "name": "pool",
          "type": "address"
        },
        {
          "internalType": "bool",
          "name": "shouldUseBlockTimeForOldestFeedUpdate",
          "type": "bool"
        },
        {
          "internalType": "bool",
          "name": "shouldRevertIfVaultUnlocked",
          "type": "bool"
        },
        {
          "internalType": "contract AggregatorV3Interface[]",
          "name": "feeds",
          "type": "address[]"
        }
      ],
      "name": "create",
      "outputs": [
        {
          "internalType": "contract ILPOracleBase",
          "name": "oracle",
          "type": "address"
        }
      ],
      "stateMutability": "nonpayable",
      "type": "function"
    },
    {
      "inputs": [],
      "name": "disable",
      "outputs": [],
      "stateMutability": "nonpayable",
      "type": "function"
    },
    {
      "inputs": [
        {
          "internalType": "bytes4",
          "name": "selector",
          "type": "bytes4"
        }
      ],
      "name": "getActionId",
      "outputs": [
        {
          "internalType": "bytes32",
          "name": "",
          "type": "bytes32"
        }
      ],
      "stateMutability": "view",
      "type": "function"
    },
    {
      "inputs": [],
      "name": "getAuthorizer",
      "outputs": [
        {
          "internalType": "contract IAuthorizer",
          "name": "",
          "type": "address"
        }
      ],
      "stateMutability": "view",
      "type": "function"
    },
    {
      "inputs": [
        {
          "internalType": "contract IBasePool",
          "name": "pool",
          "type": "address"
        },
        {
          "internalType": "bool",
          "name": "shouldUseBlockTimeForOldestFeedUpdate",
          "type": "bool"
        },
        {
          "internalType": "bool",
          "name": "shouldRevertIfVaultUnlocked",
          "type": "bool"
        },
        {
          "internalType": "contract AggregatorV3Interface[]",
          "name": "feeds",
          "type": "address[]"
        }
      ],
      "name": "getOracle",
      "outputs": [
        {
          "internalType": "contract ILPOracleBase",
          "name": "oracle",
          "type": "address"
        }
      ],
      "stateMutability": "view",
      "type": "function"
    },
    {
      "inputs": [],
      "name": "getOracleVersion",
      "outputs": [
        {
          "internalType": "uint256",
          "name": "",
          "type": "uint256"
        }
      ],
      "stateMutability": "view",
      "type": "function"
    },
    {
      "inputs": [],
      "name": "getSequencerUptimeFeed",
      "outputs": [
        {
          "internalType": "contract AggregatorV3Interface",
          "name": "sequencerUptimeFeed",
          "type": "address"
        }
      ],
      "stateMutability": "view",
      "type": "function"
    },
    {
      "inputs": [],
      "name": "getUptimeResyncWindow",
      "outputs": [
        {
          "internalType": "uint256",
          "name": "uptimeResyncWindow",
          "type": "uint256"
        }
      ],
      "stateMutability": "view",
      "type": "function"
    },
    {
      "inputs": [],
      "name": "getVault",
      "outputs": [
        {
          "internalType": "contract IVault",
          "name": "",
          "type": "address"
        }
      ],
      "stateMutability": "view",
      "type": "function"
    },
    {
      "inputs": [
        {
          "internalType": "contract ILPOracleBase",
          "name": "oracle",
          "type": "address"
        }
      ],
      "name": "isOracleFromFactory",
      "outputs": [
        {
          "internalType": "bool",
          "name": "success",
          "type": "bool"
        }
      ],
      "stateMutability": "view",
      "type": "function"
    },
    {
      "inputs": [],
      "name": "version",
      "outputs": [
        {
          "internalType": "string",
          "name": "",
          "type": "string"
        }
      ],
      "stateMutability": "view",
      "type": "function"
    }
  ],
  "bytecode": "0x610120604052346102815761419d8038038061001a81610285565b92833981019060a0818303126102815780516001600160a01b038082169391929091848403610281576020808301519384168403610281576040830151606084015190956001600160401b0393909184811161028157850191601f928284820112156102815780519686881161025e57601f199761009d8682018a168801610285565b948186528782850101116102815786815f9282608096018389015e8601015201519830608052156102725760a052805193841161025e575f54926001938481811c91168015610254575b82821014610240578381116101fd575b508092851160011461019d5750839450908392915f94610192575b50501b915f199060031b1c1916175f555b60c05260e052610100908152604051613ef291826102ab833960805182610bf5015260a05182818160ed015281816101e2015281816104cf01526108a2015260c0518281816101920152610581015260e0518281816105a80152610a2c01525181818161040601526105e20152f35b015192505f80610112565b9294849081165f8052845f20945f905b888383106101e357505050106101cb575b505050811b015f55610123565b01515f1960f88460031b161c191690555f80806101be565b8587015188559096019594850194879350908101906101ad565b5f8052815f208480880160051c820192848910610237575b0160051c019085905b82811061022c5750506100f7565b5f815501859061021e565b92508192610215565b634e487b7160e01b5f52602260045260245ffd5b90607f16906100e7565b634e487b7160e01b5f52604160045260245ffd5b630647140b60e51b5f5260045ffd5b5f80fd5b6040519190601f01601f191682016001600160401b0381118382101761025e5760405256fe608060409080825260049081361015610016575f80fd5b5f358060e01c91826319bbcf6014610a17575081632f2770db1461081f57508063324baa81146104745780633ad671ed1461042957806344ae107d146103ef57806354fd4d501461029a57806367918f4414610255578063851c1bb3146102065780638d928af8146101b6578063a056076c146101665763aaabadc51461009b575f80fd5b34610162575f6003193601126101625773ffffffffffffffffffffffffffffffffffffffff6020835180937faaabadc500000000000000000000000000000000000000000000000000000000825281847f0000000000000000000000000000000000000000000000000000000000000000165afa91821561015857926020935f93610129575b505191168152f35b61014a919350843d8611610151575b6101428183610a4f565b810190610c40565b915f610121565b503d610138565b83513d5f823e3d90fd5b5f80fd5b8234610162575f600319360112610162576020905173ffffffffffffffffffffffffffffffffffffffff7f0000000000000000000000000000000000000000000000000000000000000000168152f35b8234610162575f600319360112610162576020905173ffffffffffffffffffffffffffffffffffffffff7f0000000000000000000000000000000000000000000000000000000000000000168152f35b50346101625760206003193601126101625735907fffffffff00000000000000000000000000000000000000000000000000000000821682036101625761024e602092610bca565b9051908152f35b82346101625760209061027361026a36610ab7565b92919091610ca0565b5f526002825273ffffffffffffffffffffffffffffffffffffffff815f2054169051908152f35b509034610162575f6003193601126101625780515f5f549060018260011c90600184169384156103e5575b60209788841086146103b957509187918694938286528386019690815f1461037f5750600114610329575b50505091610305601f92601f19940385610a4f565b845195869481865251918280928701528686015e5f85828601015201168101030190f35b5f8080529293507f290decd9548b62a8d60345a988386fc84ba6bc95484008f6362f93160ef3e5635b828410610369575050508201018582601f196102f0565b8054888501860152879550928401928101610352565b7fffffffffffffffffffffffffffffffffffffffffffffffffffffffffffffff001687525050151560051b83010190508582601f196102f0565b6022907f4e487b71000000000000000000000000000000000000000000000000000000005f525260245ffd5b91607f16916102c5565b8234610162575f60031936011261016257602090517f00000000000000000000000000000000000000000000000000000000000000008152f35b503461016257602060031936011261016257359073ffffffffffffffffffffffffffffffffffffffff8216809203610162576020915f526003825260ff815f20541690519015158152f35b5090346101625761048436610ab7565b939294610492929192610c6c565b61049e85848489610ca0565b92835f526020966002885273ffffffffffffffffffffffffffffffffffffffff9081875f205416806107c2575081807f00000000000000000000000000000000000000000000000000000000000000001691169487517fca4f280300000000000000000000000000000000000000000000000000000000815286868201525f81602481865afa9081156107b8575f91610723575b50518951036106fc578751916131878084019684881067ffffffffffffffff8911176106d0575083929161057d91610d368539610100908852888d890152808b89015287018b610b81565b90847f00000000000000000000000000000000000000000000000000000000000000001660608801527f000000000000000000000000000000000000000000000000000000000000000060808801521515948560a08801521515958660c082015260e07f000000000000000000000000000000000000000000000000000000000000000091015203905ff080156106c6577f3d58579b2790fd9e55e0d9fbdc15ee804e425e39f651fee0719d5e1b502cf83f939291610653911697875193849384528a8401526080888401526080830190610b81565b8760608301520390a25f5260028352805f20827fffffffffffffffffffffffff0000000000000000000000000000000000000000825416179055815f5260038352805f2060017fffffffffffffffffffffffffffffffffffffffffffffffffffffffffffffff0082541617905551908152f35b86513d5f823e3d90fd5b6041907f4e487b71000000000000000000000000000000000000000000000000000000005f525260245ffd5b847faaad13f7000000000000000000000000000000000000000000000000000000005f525ffd5b90503d805f833e6107348183610a4f565b8101908b818303126101625780519067ffffffffffffffff821161016257019080601f8301121561016257815161076a81610a9f565b926107778c519485610a4f565b8184528d8085019260051b820101928311610162578d01905b8282106107a0575050505f610532565b81518781168103610162578152908d01908d01610790565b89513d5f823e3d90fd5b610815898588888c519788977f5448fe6c0000000000000000000000000000000000000000000000000000000089521690870152151560248601521515604485015260a0606485015260a4840190610b81565b9060848301520390fd5b83915034610162575f600319360112610162577fffffffff0000000000000000000000000000000000000000000000000000000061085d9116610bca565b73ffffffffffffffffffffffffffffffffffffffff9082517faaabadc500000000000000000000000000000000000000000000000000000000815260209182828781877f0000000000000000000000000000000000000000000000000000000000000000165afa918215610a0d57908392915f926109eb575b50606490865195869384927f9be2a8840000000000000000000000000000000000000000000000000000000084528a840152336024840152306044840152165afa9283156109e257505f926109ab575b50501561098557610935610c6c565b60017fffffffffffffffffffffffffffffffffffffffffffffffffffffffffffffff00815416176001557ffe34e17b7303d60372d2f145fa39f112bc9d45876fab79a7724c0db0cd33f8e65f80a1005b7f23dada53000000000000000000000000000000000000000000000000000000005f525ffd5b90809250813d83116109db575b6109c28183610a4f565b8101031261016257518015158103610162578280610926565b503d6109b8565b513d5f823e3d90fd5b6064919250610a0690843d8611610151576101428183610a4f565b91906108d6565b85513d5f823e3d90fd5b34610162575f600319360112610162576020907f00000000000000000000000000000000000000000000000000000000000000008152f35b90601f601f19910116810190811067ffffffffffffffff821117610a7257604052565b7f4e487b71000000000000000000000000000000000000000000000000000000005f52604160045260245ffd5b67ffffffffffffffff8111610a725760051b60200190565b60806003198201126101625773ffffffffffffffffffffffffffffffffffffffff906004358281168103610162579260243580151581036101625792604435801515810361016257926064359067ffffffffffffffff8211610162578060238301121561016257816004013592610b2d84610a9f565b93610b3b6040519586610a4f565b8085526020936024602087019260051b82010193841161016257602401905b838210610b6957505050505090565b81358381168103610162578152908401908401610b5a565b9081518082526020808093019301915f5b828110610ba0575050505090565b835173ffffffffffffffffffffffffffffffffffffffff1685529381019392810192600101610b92565b6040517fffffffff0000000000000000000000000000000000000000000000000000000060208201927f00000000000000000000000000000000000000000000000000000000000000008452166040820152602481526060810181811067ffffffffffffffff821117610a725760405251902090565b90816020910312610162575173ffffffffffffffffffffffffffffffffffffffff811681036101625790565b60ff60015416610c7857565b7fb110e99d000000000000000000000000000000000000000000000000000000005f5260045ffd5b9092919260405192839160208084019660a085019273ffffffffffffffffffffffffffffffffffffffff809716895215156040860152151560608501526080808501528251809252602060c085019301945f905b838210610d185750505050610d12925003601f198101835282610a4f565b51902090565b865181168552958201958795509382019360019190910190610cf456fe610480806040523461062557613187803803809161001d82856109c7565b8339810190610100818303126106255780516001600160a01b038116808203610625576020830151916001600160a01b03831683036106255760408401516001600160401b0381116106255784019385601f8601121561062557845195610083876109ea565b9561009160405197886109c7565b87875260208088019860051b82010191821161062557602001965b8188106109af57602487875f8888886100c760608201610a01565b906080810151926100da60a08301610a15565b9060e06100e960c08501610a15565b930151610140526101205260018060a01b03871660805260e0526101005260a05260c0526040519485809263ca4f280360e01b825260018060a01b03861660048301525afa8015610629575f9061090e575b516101608190526080516040516395d89b4160e01b815294509091905f90859060049082906001600160a01b03165afa938415610629575f94610874575b506101b06024602095604051968188925191829101602084015e8101630bd554d160e21b60208201520360048101875201856109c7565b83516001600160401b038111610860575f54600181811c91168015610856575b602082101461084257601f81116107f7575b50602094601f8211600114610789579481929394955f9261077e575b50508160011b915f199060031b1c1916175f555b8251820361076f576004925f926007906001600160a01b0361023384610a22565b5116610180526102546001600160a01b0361024d85610a22565b5116610ab4565b610280526001600160a01b0361026984610a43565b51166101a0526102836001600160a01b0361024d85610a43565b6102a0526002811161073b575b60038111610707575b8581116106d3575b6005811161069f575b6006811161066b575b11610634575b5060405163f89f27ed60e01b815292839182906001600160a01b03165afa908115610629575f91610595575b506102ef81610a22565b519061038091825261030081610a43565b51906103a091825260026101605111610582575b6003610160511161056f575b6004610160511161055c575b60056101605111610549575b60066101605111610536575b60076101605111610522575b50604051906125fc9283610b6b843960805183818161016d0152818161071101528181610cff01526112bd015260a0518381816106560152611826015260c051838181610cb201526118a0015260e05183818161020b0152610c3e01526101005183818160ec01528181610456015281816106050152610aa3015261012051838181610193015281816103d4015281816104dc0152818161073d01528181610b8b015261131801526101405183610c0401526101605183818161026b0152818161054b0152818161085b01528181610ad001528181610f1c015281816110e401526113600152610180518361166a01526101a0518361169701526101c051836116ce01526101e051836117050152610200518361173c01526102205183611773015261024051836117ae015261026051836117e50152610280518361198701526102a051836119b201526102c051836119e601526102e05183611a1a01526103005183611a4e01526103205183611a8201526103405183611ab901526103605183611aec0152518261110f0152518161113a01526103c0518161116e01526103e051816111a2015261040051816111d60152610420518161120a01526104405181611241015261046051816112740152f35b61052b90610aa3565b516104605282610350565b61053f81610a93565b5161044052610344565b61055281610a83565b5161042052610338565b61056581610a73565b516104005261032c565b61057881610a63565b516103e052610320565b61058b81610a53565b516103c052610314565b90503d805f833e6105a681836109c7565b810190602081830312610625578051906001600160401b03821161062557019080601f830112156106255781516105dc816109ea565b926105ea60405194856109c7565b81845260208085019260051b82010192831161062557602001905b82821061061557505050816102e5565b8151815260209182019101610605565b5f80fd5b6040513d5f823e3d90fd5b610661906001600160a01b0361064982610aa3565b5116610260526001600160a01b039061024d90610aa3565b61036052836102b9565b6001600160a01b0361067c84610a93565b5116610240526106966001600160a01b0361024d85610a93565b610340526102b3565b6001600160a01b036106b084610a83565b5116610220526106ca6001600160a01b0361024d85610a83565b610320526102aa565b6001600160a01b036106e484610a73565b5116610200526106fe6001600160a01b0361024d85610a73565b610300526102a1565b6001600160a01b0361071884610a63565b51166101e0526107326001600160a01b0361024d85610a63565b6102e052610299565b6001600160a01b0361074c84610a53565b51166101c0526107666001600160a01b0361024d85610a53565b6102c052610290565b63aaad13f760e01b5f5260045ffd5b0151905085806101fe565b5f808052601f198316965f5160206131675f395f51905f529290915b8881106107df575083600195969798106107c7575b505050811b015f55610212565b01515f1960f88460031b161c191690558580806107ba565b919260206001819286850151815501940192016107a5565b5f80525f5160206131675f395f51905f52601f830160051c81016020841061083b575b601f830160051c820181106108305750506101e2565b5f815560010161081a565b508061081a565b634e487b7160e01b5f52602260045260245ffd5b90607f16906101d0565b634e487b7160e01b5f52604160045260245ffd5b3d9450845f823e61088585826109c7565b6020818681010312610625578051946001600160401b03861161062557808201601f8784010112156106255781860151906001600160401b03821161086057604051906108dc601f8401601f1916602001836109c7565b8282528301602083898601010111610625575f60208360249482809b6101b09801018386015e83010152955050610179565b503d805f853e61091e81856109c7565b830192602081850312610625578051906001600160401b038211610625570183601f8201121561062557805193610954856109ea565b9161096260405193846109c7565b85835260208084019660051b82010191821161062557602001945b81861061098f5750506004935061013b565b85516001600160a01b03811681036106255781526020958601950161097d565b602080916109bc8a610a01565b8152019701966100ac565b601f909101601f19168101906001600160401b0382119082101761086057604052565b6001600160401b0381116108605760051b60200190565b51906001600160a01b038216820361062557565b5190811515820361062557565b805115610a2f5760200190565b634e487b7160e01b5f52603260045260245ffd5b805160011015610a2f5760400190565b805160021015610a2f5760600190565b805160031015610a2f5760800190565b805160041015610a2f5760a00190565b805160051015610a2f5760c00190565b805160061015610a2f5760e00190565b805160071015610a2f576101000190565b60405163313ce56760e01b815290602090829060049082906001600160a01b03165afa8015610629575f90610b2d575b60ff91501660128111610b1e5760120360128111610b0a57604d8111610b0a57600a0a90565b634e487b7160e01b5f52601160045260245ffd5b636a78e98160e11b5f5260045ffd5b506020813d602011610b62575b81610b47602093836109c7565b81010312610625575160ff811681036106255760ff90610ae4565b3d9150610b3a56fe6080604081815260049182361015610015575f80fd5b5f3560e01c90816316f0115b14610cd55750806319bbcf6014610c9b57806322acb86714610c7e578063313ce56714610c6357806341d88e3514610c2757806354fd4d5014610bed57806365bcdaee14610a2d5780637284e416146108d95780637fe955d41461084557806389c06568146106c15780639a6fc8f51461067a578063a056076c1461062a578063a1f6f025146105ee578063af1296d314610586578063cd2c9e7014610531578063d7e8c92b146104435763feaf968c146100da575f80fd5b34610355575f600319360112610355577f000000000000000000000000000000000000000000000000000000000000000080610392575b61036b576101296024610122610f12565b92906112a4565b93602073ffffffffffffffffffffffffffffffffffffffff8551938480927fe4dc2aa4000000000000000000000000000000000000000000000000000000008252807f000000000000000000000000000000000000000000000000000000000000000016868301527f0000000000000000000000000000000000000000000000000000000000000000165afa918215610361575f92610329575b50811561030357670de0b6b3a7640000948581029581870414901517156102d757507fffffffffffffffffffffffffffffffffffffffffffffffffffffffffffffffff9160017f00000000000000000000000000000000000000000000000000000000000000001561026757505061024b60a09460015f9342955b8301040190151502611b14565b92805193828552602085015283015260608201525f6080820152f35b83917f0000000000000000000000000000000000000000000000000000000000000000905f5b8281106102a8575050505060a09460015f9361024b9361023e565b866102b38284610eb2565b51106102c1575b830161028d565b9550826102ce8783610eb2565b519690506102ba565b6011907f4e487b71000000000000000000000000000000000000000000000000000000005f525260245ffd5b7f0a0c22c7000000000000000000000000000000000000000000000000000000005f525ffd5b9091506020813d602011610359575b8161034560209383610d56565b810103126103555751905f6101c3565b5f80fd5b3d9150610338565b84513d5f823e3d90fd5b507fbe18e309000000000000000000000000000000000000000000000000000000005f525ffd5b5080517f8380edb7000000000000000000000000000000000000000000000000000000008152602081848173ffffffffffffffffffffffffffffffffffffffff7f0000000000000000000000000000000000000000000000000000000000000000165afa908115610439575f9161040a575b50610111565b61042c915060203d602011610432575b6104248183610d56565b810190610dbe565b5f610404565b503d61041a565b82513d5f823e3d90fd5b5034610355575f600319360112610355577f00000000000000000000000000000000000000000000000000000000000000008061049a575b61036b5760209061049361048d610f12565b506112a4565b9051908152f35b5080517f8380edb7000000000000000000000000000000000000000000000000000000008152602081848173ffffffffffffffffffffffffffffffffffffffff7f0000000000000000000000000000000000000000000000000000000000000000165afa908115610439575f91610512575b5061047b565b61052b915060203d602011610432576104248183610d56565b5f61050c565b5034610355575f600319360112610355576105829061056f7f000000000000000000000000000000000000000000000000000000000000000061197b565b9051918291602083526020830190610d23565b0390f35b5034610355575f6003193601126103555761059f610f12565b8251928391818301918352835180925260608301916020809501945f5b8281106105d757858061058287878382036020850152610d23565b8651855295810195879550938101936001016105bc565b5034610355575f60031936011261035557602090517f000000000000000000000000000000000000000000000000000000000000000015158152f35b5034610355575f600319360112610355576020905173ffffffffffffffffffffffffffffffffffffffff7f0000000000000000000000000000000000000000000000000000000000000000168152f35b509034610355576020600319360112610355573569ffffffffffffffffffff81160361035557805f60a09251918183528160208401528201525f60608201525f6080820152f35b5034610355575f6003193601126103555773ffffffffffffffffffffffffffffffffffffffff918151907fca4f2803000000000000000000000000000000000000000000000000000000008252837f000000000000000000000000000000000000000000000000000000000000000016908201525f81602481867f0000000000000000000000000000000000000000000000000000000000000000165afa908115610439575f916107ac575b50815191602090602080850191818652845180935285019301915f5b8281106107965785850386f35b8351871685529381019392810192600101610789565b90503d805f833e6107bd8183610d56565b81019060209081818403126103555780519067ffffffffffffffff821161035557019180601f840112156103555782516107f681610da6565b9361080386519586610d56565b818552838086019260051b820101928311610355578301905b82821061082d57505050505f61076d565b8151878116810361035557815290830190830161081c565b5034610355575f6003193601126103555761087f7f000000000000000000000000000000000000000000000000000000000000000061161a565b908051918291602090602080850191818652845180935285019301915f5b8281106108ac57505050500390f35b835173ffffffffffffffffffffffffffffffffffffffff168552869550938101939281019260010161089d565b5034610355575f6003193601126103555780515f5f549060018260011c9060018416938415610a23575b60209788841086146109f757509187918694938286528386019690815f146109bd5750600114610967575b50505091610943601f92601f19940385610d56565b845195869481865251918280928701528686015e5f85828601015201168101030190f35b5f8080529293507f290decd9548b62a8d60345a988386fc84ba6bc95484008f6362f93160ef3e5635b8284106109a7575050508201018582601f1961092e565b8054888501860152879550928401928101610990565b7fffffffffffffffffffffffffffffffffffffffffffffffffffffffffffffff001687525050151560051b83010190508582601f1961092e565b6022907f4e487b71000000000000000000000000000000000000000000000000000000005f525260245ffd5b91607f1691610903565b503461035557602091826003193601126103555780359067ffffffffffffffff821161035557366023830112156103555781810135610a6b81610da6565b92610a7885519485610d56565b81845260248685019260051b82010191368311610355576024879201905b838210610bde57505050507f000000000000000000000000000000000000000000000000000000000000000080610b4a575b610b245781517f000000000000000000000000000000000000000000000000000000000000000003610afe5750610493906112a4565b7faaad13f7000000000000000000000000000000000000000000000000000000005f525ffd5b7fbe18e309000000000000000000000000000000000000000000000000000000005f525ffd5b5082517f8380edb70000000000000000000000000000000000000000000000000000000081528481838173ffffffffffffffffffffffffffffffffffffffff7f0000000000000000000000000000000000000000000000000000000000000000165afa908115610361575f91610bc1575b50610ac8565b610bd89150853d8711610432576104248183610d56565b5f610bbb565b81358152908201908201610a96565b5034610355575f60031936011261035557602090517f00000000000000000000000000000000000000000000000000000000000000008152f35b5034610355575f60031936011261035557602090517f000000000000000000000000000000000000000000000000000000000000000015158152f35b5034610355575f600319360112610355576020905160128152f35b5034610355575f600319360112610355576105829061056f6110e2565b5034610355575f60031936011261035557602090517f00000000000000000000000000000000000000000000000000000000000000008152f35b34610355575f6003193601126103555760209073ffffffffffffffffffffffffffffffffffffffff7f0000000000000000000000000000000000000000000000000000000000000000168152f35b9081518082526020808093019301915f5b828110610d42575050505090565b835185529381019392810192600101610d34565b90601f601f19910116810190811067ffffffffffffffff821117610d7957604052565b7f4e487b71000000000000000000000000000000000000000000000000000000005f52604160045260245ffd5b67ffffffffffffffff8111610d795760051b60200190565b90816020910312610355575180151581036103555790565b90610de082610da6565b610ded6040519182610d56565b828152601f19610dfd8294610da6565b0190602036910137565b805115610e145760200190565b7f4e487b71000000000000000000000000000000000000000000000000000000005f52603260045260245ffd5b805160011015610e145760400190565b805160021015610e145760600190565b805160031015610e145760800190565b805160041015610e145760a00190565b805160051015610e145760c00190565b805160061015610e145760e00190565b805160071015610e14576101000190565b8051821015610e145760209160051b010190565b519069ffffffffffffffffffff8216820361035557565b908160a091031261035557610ef181610ec6565b91602082015191604081015191610f0f608060608401519301610ec6565b90565b610f1a61180f565b7f000000000000000000000000000000000000000000000000000000000000000090610f458261161a565b90610f4f8361197b565b92610f5981610da6565b93604090610f6a6040519687610d56565b828652601f19610f7984610da6565b0136602088013785610f8a84610dd6565b955f5b858110610f9c57505050505050565b73ffffffffffffffffffffffffffffffffffffffff610fbb8284610eb2565b511685518080927ffeaf968c00000000000000000000000000000000000000000000000000000000825260a092839160049384915afa9283156110d8575f925f946110a0575b50506110166110108589610eb2565b51611b14565b91828102927f800000000000000000000000000000000000000000000000000000000000000081145f8312166110745781840514901517156102d7575090829161106260019487610eb2565b5261106d828b610eb2565b5201610f8d565b6011837f4e487b71000000000000000000000000000000000000000000000000000000005f525260245ffd5b80919294506110c49350903d106110d1575b6110bc8183610d56565b810190610edd565b909492935090505f611001565b503d6110b2565b88513d5f823e3d90fd5b7f000000000000000000000000000000000000000000000000000000000000000061110c81610dd6565b907f000000000000000000000000000000000000000000000000000000000000000061113783610e07565b527f000000000000000000000000000000000000000000000000000000000000000061116283610e41565b5260028111156112a0577f000000000000000000000000000000000000000000000000000000000000000061119683610e51565b5260038111156112a0577f00000000000000000000000000000000000000000000000000000000000000006111ca83610e61565b5260048111156112a0577f00000000000000000000000000000000000000000000000000000000000000006111fe83610e71565b5260058111156112a0577f000000000000000000000000000000000000000000000000000000000000000061123283610e81565b5260068111156112a0576007907f000000000000000000000000000000000000000000000000000000000000000061126984610e91565b52116112725790565b7f000000000000000000000000000000000000000000000000000000000000000061129c82610ea1565b5290565b5090565b73ffffffffffffffffffffffffffffffffffffffff90817f000000000000000000000000000000000000000000000000000000000000000016906040918251917f535cfd8a00000000000000000000000000000000000000000000000000000000835260049082828501525f8460248181997f0000000000000000000000000000000000000000000000000000000000000000165afa938415611610575f9461157e575b506113516110e2565b90670de0b6b3a7640000965f927f0000000000000000000000000000000000000000000000000000000000000000925b83851061144357505050505091602091846113cf948151958694859384937f984de9e80000000000000000000000000000000000000000000000000000000085528401526044830190610d23565b5f602483015203915afa91821561143a57505f91611400575b506113fc90670de0b6b3a764000092611b69565b0490565b90506020813d602011611432575b8161141b60209383610d56565b810103126103555751670de0b6b3a76400006113e8565b3d915061140e565b513d5f823e3d90fd5b90919293985f6114538b84610eb2565b511315611557576114648a83610eb2565b515f811261152d576114768b85610eb2565b51670de0b6b3a7640000820291808304670de0b6b3a764000014901517156115025780156114d7576001926114c5670de0b6b3a7640000936114cb938f6114bd908a610eb2565b519104611b7c565b90611b69565b04990193929190611381565b856012897f4e487b71000000000000000000000000000000000000000000000000000000005f52525ffd5b856011897f4e487b71000000000000000000000000000000000000000000000000000000005f52525ffd5b8490877fa8ce4432000000000000000000000000000000000000000000000000000000005f52525ffd5b857f1f8f95a0000000000000000000000000000000000000000000000000000000005f525ffd5b9093503d805f833e6115908183610d56565b81019060209081818403126103555780519067ffffffffffffffff821161035557019180601f840112156103555782516115c981610da6565b936115d689519586610d56565b818552838086019260051b820101928311610355578301905b8282106116015750505050925f611348565b815181529083019083016115ef565b85513d5f823e3d90fd5b61162381610da6565b906116316040519283610d56565b808252601f1961164082610da6565b0136602084013761165082610e07565b9073ffffffffffffffffffffffffffffffffffffffff91827f000000000000000000000000000000000000000000000000000000000000000016905261169583610e41565b7f000000000000000000000000000000000000000000000000000000000000000083169052600281111561180a576116cc83610e51565b7f000000000000000000000000000000000000000000000000000000000000000083169052600381111561180a5761170383610e61565b7f000000000000000000000000000000000000000000000000000000000000000083169052600481111561180a5761173a83610e71565b7f000000000000000000000000000000000000000000000000000000000000000083169052600581111561180a5761177183610e81565b7f000000000000000000000000000000000000000000000000000000000000000083169052600681111561180a576007906117ab84610e91565b837f0000000000000000000000000000000000000000000000000000000000000000169052116117d9575090565b6117e282610ea1565b907f000000000000000000000000000000000000000000000000000000000000000016905290565b505090565b73ffffffffffffffffffffffffffffffffffffffff7f00000000000000000000000000000000000000000000000000000000000000001680156119785760a0600491604051928380927ffeaf968c0000000000000000000000000000000000000000000000000000000082525afa90811561196d575f905f92611943575b5060011461191b5742034281116118ee577f0000000000000000000000000000000000000000000000000000000000000000116118c657565b7fed1bba46000000000000000000000000000000000000000000000000000000005f5260045ffd5b7f4e487b71000000000000000000000000000000000000000000000000000000005f52601160045260245ffd5b7f032b3d00000000000000000000000000000000000000000000000000000000005f5260045ffd5b60019250611960915060a03d60a0116110d1576110bc8183610d56565b50909391925061188d9050565b6040513d5f823e3d90fd5b50565b61198481610dd6565b907f00000000000000000000000000000000000000000000000000000000000000006119af83610e07565b527f00000000000000000000000000000000000000000000000000000000000000006119da83610e41565b5260028111156112a0577f0000000000000000000000000000000000000000000000000000000000000000611a0e83610e51565b5260038111156112a0577f0000000000000000000000000000000000000000000000000000000000000000611a4283610e61565b5260048111156112a0577f0000000000000000000000000000000000000000000000000000000000000000611a7683610e71565b5260058111156112a0577f0000000000000000000000000000000000000000000000000000000000000000611aaa83610e81565b5260068111156112a0576007907f0000000000000000000000000000000000000000000000000000000000000000611ae184610e91565b5211611aea5790565b7f000000000000000000000000000000000000000000000000000000000000000061129c82610ea1565b7f7fffffffffffffffffffffffffffffffffffffffffffffffffffffffffffffff8111611b3e5790565b7f24775e06000000000000000000000000000000000000000000000000000000005f5260045260245ffd5b818102929181159184041417156118ee57565b670de0b6b3a764000091808303611b935750905090565b8290671bc16d674ec800008103611bb0575050806113fc91611b69565b673782dace9d9000008103611bd45750611bcd826113fc93611b69565b0480611b69565b9050611bdf91611c8f565b6127108082029082820414821517156118ee5760017fffffffffffffffffffffffffffffffffffffffffffffffffffffffffffffffff9384830104019015150290600182018083116118ee57811015611c39575050505f90565b030190565b8015611c58576ec097ce7bc90715b34b9f10000000000590565b7f4e487b71000000000000000000000000000000000000000000000000000000005f52601260045260245ffd5b8115611c58570590565b9080156125b85781156125b2578160ff1c61258a57770bce5086492111aea88f4bb1ca6bcf584181ea8059f765328110156125625781670c7d713b49da00001280612551575b156121ee57670de0b6b3a7640000916ec097ce7bc90715b34b9f100000000090611d28908402828101907fffffffffffffffffffffffffffffffffff3f68318436f8ea4cb460f000000000018302611c85565b9080828002059181838202058284820205838582020591848684020593858786020595808888020597880205600f900596600d900595600b900594600990059360079005926005900591600390050101010101010160011b918082818507020592050201670de0b6b3a7640000905b057ffffffffffffffffffffffffffffffffffffffffffffffffdc702bd3a30fc000081811315806121db575b156121b3578190821215806121a0575b15612178575f915f8112612169575b506064906806f05b59d3b20000008112612106577ffffffffffffffffffffffffffffffffffffffffffffffff90fa4a62c4e0000000168056bc75e2d6310000082770195e54c5dd42177f53a27172fa9ec630262827000000000925b02819068ad78ebc5ac620000008112156120cd575b6856bc75e2d631000000811215612093575b682b5e3af16b1880000081121561205b575b6815af1d78b58c400000811215612023575b680ad78ebc5ac6200000811215611fec575b82811215611fb5575b6802b5e3af16b1880000811215611f7e575b68015af1d78b58c40000811215611f47575b60028382800205056003848383020505600485848302050585600581868402050560068287830205056007838883020505906008848984020505926009858a8602050595600a868b8902050597600b878c8b02050599600c888d8d0205059b01010101010101010101010102050205905f14610f0f57610f0f90611c3e565b6806f5f17757889379377ffffffffffffffffffffffffffffffffffffffffffffffffea50e2874a73c000084920192020590611ec8565b6808f00f760a4b2db55d7ffffffffffffffffffffffffffffffffffffffffffffffffd4a1c50e94e78000084920192020590611eb6565b680ebc5fb417461211107ffffffffffffffffffffffffffffffffffffffffffffffffa9438a1d29cf0000084920192020590611ea4565b68280e60114edb805d037ffffffffffffffffffffffffffffffffffffffffffffffff5287143a539e0000084920192020590611e9b565b690127fa27722cc06cc5e27fffffffffffffffffffffffffffffffffffffffffffffffea50e2874a73c0000084920192020590611e89565b693f1fce3da636ea5cf8507fffffffffffffffffffffffffffffffffffffffffffffffd4a1c50e94e780000084920192020590611e77565b6b02df0ab5a80a22c61ab5a7007fffffffffffffffffffffffffffffffffffffffffffffffa9438a1d29cf00000084920192020590611e65565b6e01855144814a7ff805980ff008400091507fffffffffffffffffffffffffffffffffffffffffffffff5287143a539e00000001611e53565b6803782dace9d90000008112612156577ffffffffffffffffffffffffffffffffffffffffffffffffc87d25316270000000168056bc75e2d63100000826b1425982cf597cd205cef738092611e3e565b68056bc75e2d6310000082600192611e3e565b600192505f0390506064611de2565b7fd4794efd000000000000000000000000000000000000000000000000000000005f5260045ffd5b5068070c1cc73b00c80000821315611dd3565b7fa2f9f7e3000000000000000000000000000000000000000000000000000000005f5260045ffd5b5068070c1cc73b00c80000821315611dc3565b81670de0b6b3a7640000925f9184811261253b575b506064905f7e1600ef3172e58d2e933ec884fde10064c63b5372d805e203c0000000000000821215612510575b73011798004d755d3c8bc8e03204cf44619e0000008212156124ef575b820290808302906e01855144814a7ff805980ff008400090818312156124cc575b50506b02df0ab5a80a22c61ab5a700808212156124ac575b50693f1fce3da636ea5cf8508082121561248c575b50690127fa27722cc06cc5e28082121561246c575b5068280e60114edb805d038082121561244c575b50680ebc5fb4174612111080821215612435575b506808f00f760a4b2db55d80821215612415575b506806f5f1775788937937808212156123f5575b506806248f33704b286603808212156123d6575b506805c548670b9510e7ac808212156123b7575b5061236468056bc75e2d6310000091827ffffffffffffffffffffffffffffffffffffffffffffffffa9438a1d29cf00000818301920102611c85565b9080828002059181838202058284820205916003600560076009600b888a89020598808b8b02059a8b0205059805960594059205010101010160011b0105905f146123b2575f035b02611d97565b6123ac565b68056bc75e2d631000006756bc75e2d63100009202059101905f612328565b68056bc75e2d6310000067ad78ebc5ac6200009202059101905f612314565b68056bc75e2d6310000068015af1d78b58c400009202059101905f612300565b68056bc75e2d631000006802b5e3af16b18800009202059101905f6122ec565b68056bc75e2d63100000809202059101905f6122d8565b68056bc75e2d63100000680ad78ebc5ac62000009202059101905f6122c4565b68056bc75e2d631000006815af1d78b58c4000009202059101905f6122b0565b68056bc75e2d63100000682b5e3af16b188000009202059101905f61229b565b68056bc75e2d631000006856bc75e2d6310000009202059101905f612286565b68ad78ebc5ac62000000925069021e19e0c9bab240000002059101905f8061226e565b906b1425982cf597cd205cef73806803782dace9d90000009105910161224d565b50770195e54c5dd42177f53a27172fa9ec63026282700000000090056806f05b59d3b2000000612230565b90506125479150611c3e565b6001906064612203565b50670f43fc2c04ee00008212611cd5565b7fd8317311000000000000000000000000000000000000000000000000000000005f5260045ffd5b7f022701e0000000000000000000000000000000000000000000000000000000005f5260045ffd5b50505f90565b5050670de0b6b3a76400009056fea2646970667358221220e22d85f80992b287def7fef20039b5811c0aa77a646a69f7ec03c72942c2b67d64736f6c634300081b0033290decd9548b62a8d60345a988386fc84ba6bc95484008f6362f93160ef3e563a264697066735822122098329d8354fdbe973f552c0039df8c709cb89f4f2763006eda46ce9cd66944cb64736f6c634300081b0033",
  "linkReferences": {},
  "deployedLinkReferences": {}
}