{
  "_format": "hh-sol-artifact-1",
  "contractName": "VaultFactory",
  "sourceName": "contracts/VaultFactory.sol",
  "abi": [
    {
      "inputs": [
        {
          "internalType": "contract IAuthorizer",
          "name": "authorizer",
          "type": "address"
        },
        {
          "internalType": "uint32",
          "name": "pauseWindowDuration",
          "type": "uint32"
        },
        {
          "internalType": "uint32",
          "name": "bufferPeriodDuration",
          "type": "uint32"
        },
        {
          "internalType": "uint256",
          "name": "minTradeAmount",
          "type": "uint256"
        },
        {
          "internalType": "uint256",
          "name": "minWrapAmount",
          "type": "uint256"
        },
        {
          "internalType": "bytes32",
          "name": "vaultCreationCodeHash_",
          "type": "bytes32"
        },
        {
          "internalType": "bytes32",
          "name": "vaultExtensionCreationCodeHash_",
          "type": "bytes32"
        },
        {
          "internalType": "bytes32",
          "name": "vaultAdminCreationCodeHash_",
          "type": "bytes32"
        }
      ],
      "stateMutability": "nonpayable",
      "type": "constructor"
    },
    {
      "inputs": [],
      "name": "Create2EmptyBytecode",
      "type": "error"
    },
    {
      "inputs": [],
      "name": "Create2FailedDeployment",
      "type": "error"
    },
    {
      "inputs": [
        {
          "internalType": "uint256",
          "name": "balance",
          "type": "uint256"
        },
        {
          "internalType": "uint256",
          "name": "needed",
          "type": "uint256"
        }
      ],
      "name": "Create2InsufficientBalance",
      "type": "error"
    },
    {
      "inputs": [
        {
          "internalType": "string",
          "name": "contractName",
          "type": "string"
        }
      ],
      "name": "InvalidBytecode",
      "type": "error"
    },
    {
      "inputs": [
        {
          "internalType": "address",
          "name": "owner",
          "type": "address"
        }
      ],
      "name": "OwnableInvalidOwner",
      "type": "error"
    },
    {
      "inputs": [
        {
          "internalType": "address",
          "name": "account",
          "type": "address"
        }
      ],
      "name": "OwnableUnauthorizedAccount",
      "type": "error"
    },
    {
      "inputs": [],
      "name": "ReentrancyGuardReentrantCall",
      "type": "error"
    },
    {
      "inputs": [],
      "name": "VaultAddressMismatch",
      "type": "error"
    },
    {
      "inputs": [
        {
          "internalType": "address",
          "name": "vault",
          "type": "address"
        }
      ],
      "name": "VaultAlreadyDeployed",
      "type": "error"
    },
    {
      "anonymous": false,
      "inputs": [
        {
          "indexed": true,
          "internalType": "address",
          "name": "previousOwner",
          "type": "address"
        },
        {
          "indexed": true,
          "internalType": "address",
          "name": "newOwner",
          "type": "address"
        }
      ],
      "name": "OwnershipTransferStarted",
      "type": "event"
    },
    {
      "anonymous": false,
      "inputs": [
        {
          "indexed": true,
          "internalType": "address",
          "name": "previousOwner",
          "type": "address"
        },
        {
          "indexed": true,
          "internalType": "address",
          "name": "newOwner",
          "type": "address"
        }
      ],
      "name": "OwnershipTransferred",
      "type": "event"
    },
    {
      "anonymous": false,
      "inputs": [
        {
          "indexed": false,
          "internalType": "address",
          "name": "vault",
          "type": "address"
        }
      ],
      "name": "VaultCreated",
      "type": "event"
    },
    {
      "inputs": [],
      "name": "acceptOwnership",
      "outputs": [],
      "stateMutability": "nonpayable",
      "type": "function"
    },
    {
      "inputs": [
        {
          "internalType": "bytes32",
          "name": "salt",
          "type": "bytes32"
        },
        {
          "internalType": "address",
          "name": "targetAddress",
          "type": "address"
        },
        {
          "internalType": "bytes",
          "name": "vaultCreationCode",
          "type": "bytes"
        },
        {
          "internalType": "bytes",
          "name": "vaultExtensionCreationCode",
          "type": "bytes"
        },
        {
          "internalType": "bytes",
          "name": "vaultAdminCreationCode",
          "type": "bytes"
        }
      ],
      "name": "create",
      "outputs": [],
      "stateMutability": "nonpayable",
      "type": "function"
    },
    {
      "inputs": [
        {
          "internalType": "address",
          "name": "vaultAddress",
          "type": "address"
        }
      ],
      "name": "deployedProtocolFeeControllers",
      "outputs": [
        {
          "internalType": "contract ProtocolFeeController",
          "name": "",
          "type": "address"
        }
      ],
      "stateMutability": "view",
      "type": "function"
    },
    {
      "inputs": [
        {
          "internalType": "address",
          "name": "vaultAddress",
          "type": "address"
        }
      ],
      "name": "deployedVaultAdmins",
      "outputs": [
        {
          "internalType": "contract VaultAdmin",
          "name": "",
          "type": "address"
        }
      ],
      "stateMutability": "view",
      "type": "function"
    },
    {
      "inputs": [
        {
          "internalType": "address",
          "name": "vaultAddress",
          "type": "address"
        }
      ],
      "name": "deployedVaultExtensions",
      "outputs": [
        {
          "internalType": "contract VaultExtension",
          "name": "",
          "type": "address"
        }
      ],
      "stateMutability": "view",
      "type": "function"
    },
    {
      "inputs": [
        {
          "internalType": "bytes32",
          "name": "salt",
          "type": "bytes32"
        }
      ],
      "name": "getDeploymentAddress",
      "outputs": [
        {
          "internalType": "address",
          "name": "",
          "type": "address"
        }
      ],
      "stateMutability": "view",
      "type": "function"
    },
    {
      "inputs": [
        {
          "internalType": "address",
          "name": "vaultAddress",
          "type": "address"
        }
      ],
      "name": "isDeployed",
      "outputs": [
        {
          "internalType": "bool",
          "name": "deployed",
          "type": "bool"
        }
      ],
      "stateMutability": "view",
      "type": "function"
    },
    {
      "inputs": [],
      "name": "owner",
      "outputs": [
        {
          "internalType": "address",
          "name": "",
          "type": "address"
        }
      ],
      "stateMutability": "view",
      "type": "function"
    },
    {
      "inputs": [],
      "name": "pendingOwner",
      "outputs": [
        {
          "internalType": "address",
          "name": "",
          "type": "address"
        }
      ],
      "stateMutability": "view",
      "type": "function"
    },
    {
      "inputs": [],
      "name": "renounceOwnership",
      "outputs": [],
      "stateMutability": "nonpayable",
      "type": "function"
    },
    {
      "inputs": [
        {
          "internalType": "address",
          "name": "newOwner",
          "type": "address"
        }
      ],
      "name": "transferOwnership",
      "outputs": [],
      "stateMutability": "nonpayable",
      "type": "function"
    },
    {
      "inputs": [],
      "name": "vaultAdminCreationCodeHash",
      "outputs": [
        {
          "internalType": "bytes32",
          "name": "",
          "type": "bytes32"
        }
      ],
      "stateMutability": "view",
      "type": "function"
    },
    {
      "inputs": [],
      "name": "vaultCreationCodeHash",
      "outputs": [
        {
          "internalType": "bytes32",
          "name": "",
          "type": "bytes32"
        }
      ],
      "stateMutability": "view",
      "type": "function"
    },
    {
      "inputs": [],
      "name": "vaultExtensionCreationCodeHash",
      "outputs": [
        {
          "internalType": "bytes32",
          "name": "",
          "type": "bytes32"
        }
      ],
      "stateMutability": "view",
      "type": "function"
    }
  ],
  "bytecode": "0x6101803461016a5761395038819003601f8101601f191683016001600160401b0381118482101761016e578392829160405283396101009283918101031261016a5780516001600160a01b039190828116810361016a5761006260208301610182565b61006e60408401610182565b9060608401519260808501519460a081015160e060c08301519201519033156101575760018060a01b031980600154166001555f549033908216175f55604051993391167f8be0079c531659141344cd1fd0a4f28419497f9722a3daafe3b4186f6b6457e05f80a360805260a05260c05260e05285526101209081526101409182526101609283526137bc948561019486396080518581816103200152610be5015260a0518581816101d701526103b7015260c05185818161044d0152610ae9015260e05185610761015251846105380152518361055f01525182610586015251816105ac0152f35b631e4fbdf760e01b5f525f60045260245ffd5b5f80fd5b634e487b7160e01b5f52604160045260245ffd5b519063ffffffff8216820361016a5756fe6080806040526004361015610012575f80fd5b5f3560e01c90816307fcbc5114610d8157508063337d401014610d44578063715018a614610cbf57806379ba509714610c085780638108101a14610bce5780638da5cb5b14610b9c5780638fb027e314610b5657806390184b0214610b0c578063a65be7d014610ad2578063bfd4036a146101fa578063cfa4dd8d146101c0578063d1b76f871461017a578063e30c3978146101475763f2fde38b146100b6575f80fd5b34610143576020600319360112610143576100cf610dc4565b6100d7610efe565b73ffffffffffffffffffffffffffffffffffffffff80911690817fffffffffffffffffffffffff000000000000000000000000000000000000000060015416176001555f54167f38d16b8cac22d99fc7c124b9cd0de2d3fa1faef420bfe791d8c362d765e227005f80a3005b5f80fd5b34610143575f60031936011261014357602073ffffffffffffffffffffffffffffffffffffffff60015416604051908152f35b3461014357602060031936011261014357602073ffffffffffffffffffffffffffffffffffffffff806101ab610dc4565b165f526003825260405f205416604051908152f35b34610143575f6003193601126101435760206040517f00000000000000000000000000000000000000000000000000000000000000008152f35b346101435760a06003193601126101435760243573ffffffffffffffffffffffffffffffffffffffff811681036101435760443567ffffffffffffffff81116101435761024b903690600401610de7565b9060643567ffffffffffffffff81116101435761026c903690600401610de7565b60843567ffffffffffffffff81116101435761028c903690600401610de7565b610297959195610efe565b7f9b779b17422d0df92223018b32b4d1fa46e071723d6817e2486d003becc55f005c610aaa5760017f9b779b17422d0df92223018b32b4d1fa46e071723d6817e2486d003becc55f005d73ffffffffffffffffffffffffffffffffffffffff87165f52600560205260ff60405f205416610a6857610316368387610ec8565b80516020909101207f0000000000000000000000000000000000000000000000000000000000000000146103a25760646040517fc7f4796e00000000000000000000000000000000000000000000000000000000815260206004820152600560248201527f5661756c740000000000000000000000000000000000000000000000000000006044820152fd5b6103ad368288610ec8565b80516020909101207f0000000000000000000000000000000000000000000000000000000000000000146104395760646040517fc7f4796e00000000000000000000000000000000000000000000000000000000815260206004820152600a60248201527f5661756c7441646d696e000000000000000000000000000000000000000000006044820152fd5b610444368486610ec8565b602081519101207f000000000000000000000000000000000000000000000000000000000000000003610a0a5773ffffffffffffffffffffffffffffffffffffffff968761049430600435610fd6565b1697889116036108df57604051806126a881011067ffffffffffffffff6126a8830111176109d2576126a86110df82396126a88101888152819003602001905ff09586156109ff57875f52600260205260405f2073ffffffffffffffffffffffffffffffffffffffff88167fffffffffffffffffffffffff00000000000000000000000000000000000000008254161790556040519188602084015263ffffffff807f00000000000000000000000000000000000000000000000000000000000000001660408501527f00000000000000000000000000000000000000000000000000000000000000001660608401527f000000000000000000000000000000000000000000000000000000000000000060808401527f000000000000000000000000000000000000000000000000000000000000000060a084015260a083528260c081011067ffffffffffffffff60c0850111176109d257826106456020828460c09561064e978773ffffffffffffffffffffffffffffffffffffffff9a0160405260e0840137810160e08101905f825282518092858501905e015f60e082015203808585015201838301610e4d565b01600435610f1e565b16865f52600460205260405f20817fffffffffffffffffffffffff00000000000000000000000000000000000000008254161790556040519087602083015260408201526040815280606081011067ffffffffffffffff6060830111176109d25761070b6060826106456020828882996107c69b8773ffffffffffffffffffffffffffffffffffffffff9a016040526080840137810160808101905f825282518092858501905e015f608082015203808585015201838301610e4d565b16865f526003835260405f20817fffffffffffffffffffffffff000000000000000000000000000000000000000082541617905573ffffffffffffffffffffffffffffffffffffffff60405196848801928352817f00000000000000000000000000000000000000000000000000000000000000001660408901521660608701526060865261079986610e15565b60405195828793858501978837830190848201905f8252519283915e015f83820152038085520183610e4d565b6107ce610f9d565b8051600435916020015ff59073ffffffffffffffffffffffffffffffffffffffff821615610974575f9182918261080730600435610fd6565b9551925af13d1561096f573d61081c81610e8e565b9061082a6040519283610e4d565b81525f60203d92013e5b80610965575b156109075773ffffffffffffffffffffffffffffffffffffffff829116036108df577f2e49a5810fda2439a23771848b4acec786b0a64d4de3d124ac57fc8739c388756020604051838152a15f52600560205260405f2060017fffffffffffffffffffffffffffffffffffffffffffffffffffffffffffffff008254161790555f7f9b779b17422d0df92223018b32b4d1fa46e071723d6817e2486d003becc55f005d005b7fb4c1be7b000000000000000000000000000000000000000000000000000000005f5260045ffd5b60646040517f08c379a000000000000000000000000000000000000000000000000000000000815260206004820152601560248201527f494e495449414c495a4154494f4e5f4641494c454400000000000000000000006044820152fd5b50803b151561083a565b610834565b60646040517f08c379a000000000000000000000000000000000000000000000000000000000815260206004820152601160248201527f4445504c4f594d454e545f4641494c45440000000000000000000000000000006044820152fd5b7f4e487b71000000000000000000000000000000000000000000000000000000005f52604160045260245ffd5b6040513d5f823e3d90fd5b60646040517fc7f4796e00000000000000000000000000000000000000000000000000000000815260206004820152600e60248201527f5661756c74457874656e73696f6e0000000000000000000000000000000000006044820152fd5b73ffffffffffffffffffffffffffffffffffffffff877fe254a88b000000000000000000000000000000000000000000000000000000005f521660045260245ffd5b7f3ee5aeb5000000000000000000000000000000000000000000000000000000005f5260045ffd5b34610143575f6003193601126101435760206040517f00000000000000000000000000000000000000000000000000000000000000008152f35b346101435760206003193601126101435773ffffffffffffffffffffffffffffffffffffffff610b3a610dc4565b165f526005602052602060ff60405f2054166040519015158152f35b3461014357602060031936011261014357602073ffffffffffffffffffffffffffffffffffffffff80610b87610dc4565b165f526004825260405f205416604051908152f35b34610143575f60031936011261014357602073ffffffffffffffffffffffffffffffffffffffff5f5416604051908152f35b34610143575f6003193601126101435760206040517f00000000000000000000000000000000000000000000000000000000000000008152f35b34610143575f6003193601126101435760015473ffffffffffffffffffffffffffffffffffffffff3381831603610c93577fffffffffffffffffffffffff00000000000000000000000000000000000000008092166001555f549133908316175f553391167f8be0079c531659141344cd1fd0a4f28419497f9722a3daafe3b4186f6b6457e05f80a3005b7f118cdaa7000000000000000000000000000000000000000000000000000000005f523360045260245ffd5b34610143575f60031936011261014357610cd7610efe565b5f73ffffffffffffffffffffffffffffffffffffffff7fffffffffffffffffffffffff0000000000000000000000000000000000000000806001541660015582549081168355167f8be0079c531659141344cd1fd0a4f28419497f9722a3daafe3b4186f6b6457e08280a3005b34610143576020600319360112610143576020610d6330600435610fd6565b73ffffffffffffffffffffffffffffffffffffffff60405191168152f35b346101435760206003193601126101435760209073ffffffffffffffffffffffffffffffffffffffff80610db3610dc4565b165f526002835260405f2054168152f35b6004359073ffffffffffffffffffffffffffffffffffffffff8216820361014357565b9181601f840112156101435782359167ffffffffffffffff8311610143576020838186019501011161014357565b6080810190811067ffffffffffffffff8211176109d257604052565b6040810190811067ffffffffffffffff8211176109d257604052565b90601f7fffffffffffffffffffffffffffffffffffffffffffffffffffffffffffffffe0910116810190811067ffffffffffffffff8211176109d257604052565b67ffffffffffffffff81116109d257601f017fffffffffffffffffffffffffffffffffffffffffffffffffffffffffffffffe01660200190565b929192610ed482610e8e565b91610ee26040519384610e4d565b829481845281830111610143578281602093845f960137010152565b73ffffffffffffffffffffffffffffffffffffffff5f54163303610c9357565b90805115610f75576020815191015ff59073ffffffffffffffffffffffffffffffffffffffff821615610f4d57565b7f741752c2000000000000000000000000000000000000000000000000000000005f5260045ffd5b7f4ca249dc000000000000000000000000000000000000000000000000000000005f5260045ffd5b60405190610faa82610e31565b601082527f67363d3d37363d34f03d5260086018f3000000000000000000000000000000006020830152565b9073ffffffffffffffffffffffffffffffffffffffff91610ff5610f9d565b602081519101206040519060208201927fff0000000000000000000000000000000000000000000000000000000000000084527fffffffffffffffffffffffffffffffffffffffff000000000000000000000000809560601b166021840152603583015260558201526055815261106b81610e15565b519020906040519060208201927fd694000000000000000000000000000000000000000000000000000000000000845260601b1660228201527f01000000000000000000000000000000000000000000000000000000000000006036820152601781526110d781610e31565b519020169056fe60e03460f057601f6126a838819003918201601f19168301916001600160401b0383118484101760f45780849260209460405283398101031260f057516001600160a01b038116810360f057306080528060a05260c05260405161259f9081610109823960805181611aae015260a0518181816110080152611d61015260c0518181816102240152818161033f015281816103c9015281816104e80152818161055601528181610835015281816108a301528181610c1101528181610d47015281816113ac01528181611551015281816117010152818161185b01528181611c8c01528181611ff301526121ff0152f35b5f80fd5b634e487b7160e01b5f52604160045260245ffdfe60806040526004361015610011575f80fd5b5f3560e01c80630ddd60c61461191f5780631377c16c146118005780632772d1561461160e5780632e1d388d146117de5780633af52712146116a657806352f125f01461166c57806355fb76af1461164f5780635c15a0b4146116135780635e32e4e81461160e57806371447ea81461146957806371ecc8fb146112c557806377ff76e7146111675780637869ee181461114b5780637a2b97dc146110e0578063851c1bb3146110905780638a3c5c691461102c5780638d928af814610fe95780638df44c5414610f615780638f4ab9ca14610f405780639e95f3fd14610eb4578063a93df2a414610e4f578063aaabadc514610e24578063abaa335614610c7b578063b53a70b214610b94578063cf7b287f14610b2e578063f706144514610af9578063fa399f2a14610363578063fbfa77cf146103205763fd267f3914610158575f80fd5b346102f45760406003193601126102f457610171611940565b6024359061017d6120d4565b6706f05b59d3b2000082116102f8576101958261208c565b61019e81611bca565b6101a782612047565b916040516101b4816119c9565b67ffffffffffffffff80941681526020810190600182526001600160a01b039182851695865f52600260205260405f209251167fffffffffffffffffffffffffffffffffffffffffffffff00000000000000000068ff000000000000000084549351151560401b169216171790557f0000000000000000000000000000000000000000000000000000000000000000169161024e8161239b565b833b156102f4576040517f5e0b06f40000000000000000000000000000000000000000000000000000000081526001600160a01b039290921660048301526024820152915f908390604490829084905af19081156102e9577f97cff4b6e6d80e307faab8b730d9f69264e860f2e0e10cfb8cdaf8a2f44e839e926020926102da575b50604051908152a2005b6102e390611a12565b5f6102d0565b6040513d5f823e3d90fd5b5f80fd5b7f7e6eb7fb000000000000000000000000000000000000000000000000000000005f5260045ffd5b346102f4575f6003193601126102f45760206040516001600160a01b037f0000000000000000000000000000000000000000000000000000000000000000168152f35b346102f45760206003193601126102f45761037c611940565b610384611fe9565b6040517f8f4ab9ca0000000000000000000000000000000000000000000000000000000081526001600160a01b03821660048201525f81602481836001600160a01b037f0000000000000000000000000000000000000000000000000000000000000000165af19081156102e9575f905f92610a9c575b506001600160a01b0383165f52600260205267ffffffffffffffff60405f20541690600560205260405f2054905f928215159384610a92575b84610a82575b610443876121c0565b94905f5b8681106107f35789896001600160a01b0382165f52600360205267ffffffffffffffff60405f205416905f92600660205260405f2054925f84151594856107e9575b856107d7575b610498846121c0565b96905f5b8881106104a557005b6104af8189611b4f565b516104bd575b60010161049c565b986001600160a01b036104d08b84611b4f565b5116906104dd8b8a611b4f565b516001600160a01b037f0000000000000000000000000000000000000000000000000000000000000000163b156107d357604051907fae63932900000000000000000000000000000000000000000000000000000000825283600483015230602483015260448201528181606481836001600160a01b037f0000000000000000000000000000000000000000000000000000000000000000165af180156107c8579082916107b1575b5061078457505f9981610599828b611b4f565b516040519081527fe505e41b0d437b47350a9990142ccf38acb11ffa0e5af8f973b9e172f3d5d5e260206001600160a01b038c1692a38315610709576105df818a611b4f565b5186156106e1576105ef90611e3d565b6001670de0b6b3a76400006106308a7fffffffffffffffffffffffffffffffffffffffffffffffffffffffffffffffff94848c878301040190151502611e5a565b928301040190151502916001600160a01b0389165f52600760205260405f20815f5260205260405f20610664848254611e30565b9055610670828b611b4f565b519081848103116106b4576001936106aa916001600160a01b038c165f52600860205260405f20905f5260205260405f2092038254611e30565b90555b90506104b5565b7f4e487b71000000000000000000000000000000000000000000000000000000005f52601160045260245ffd5b7f0a0c22c7000000000000000000000000000000000000000000000000000000005f5260045ffd5b6001918561074e5761071b828b611b4f565b51906001600160a01b038a165f52600760205260405f20905f5260205261074760405f20918254611e30565b90556106ad565b610758828b611b4f565b51906001600160a01b038a165f52600860205260405f20905f5260205261074760405f20918254611e30565b807f4e487b7100000000000000000000000000000000000000000000000000000000602492526021600452fd5b6107ba90611a12565b6107c557808c610586565b80fd5b6040513d84823e3d90fd5b5080fd5b90506107e38183611e6d565b9061048f565b8215159550610489565b6107fd8187611b4f565b5161080b575b600101610447565b6001600160a01b0361081d8284611b4f565b51169061082a8188611b4f565b516001600160a01b037f0000000000000000000000000000000000000000000000000000000000000000163b156102f457604051907fae63932900000000000000000000000000000000000000000000000000000000825283600483015230602483015260448201525f81606481836001600160a01b037f0000000000000000000000000000000000000000000000000000000000000000165af180156102e957610a73575b50818b7fae7ebad9fc3d1d17965f063fa520d393595e2ef6c8e22ae8413b60900444e19f60206001600160a01b03610908868d611b4f565b51936040519485521692a388156109f8576109238188611b4f565b5185156106e15761093390611e3d565b6001670de0b6b3a7640000610974897fffffffffffffffffffffffffffffffffffffffffffffffffffffffffffffffff94848b878301040190151502611e5a565b928301040190151502916001600160a01b038c165f52600760205260405f20815f5260205260405f206109a8848254611e30565b90556109b48289611b4f565b519081848103116106b4576001936109ee916001600160a01b038f165f52600860205260405f20905f5260205260405f2092038254611e30565b90555b9050610803565b60019184610a3d57610a0a8289611b4f565b51906001600160a01b038d165f52600760205260405f20905f52602052610a3660405f20918254611e30565b90556109f1565b610a478289611b4f565b51906001600160a01b038d165f52600860205260405f20905f52602052610a3660405f20918254611e30565b610a7c90611a12565b8b6108d0565b50610a8d8382611e6d565b61043a565b8115159450610434565b9150503d805f833e610aae8183611a42565b8101906040818303126102f45780519167ffffffffffffffff928381116102f45781610adb918401611dcf565b9260208301519081116102f457610af29201611dcf565b90836103fb565b346102f45760406003193601126102f457610b2c610b15611940565b610b1d611956565b90610b2781611eae565b611f32565b005b346102f45760406003193601126102f457610b47611940565b610b4f611956565b90610b586120d4565b610b61816121c0565b915f5b838110610b6d57005b80610b8e6001600160a01b03610b8560019487611b4f565b511687856122d4565b01610b64565b346102f45760606003193601126102f457610bad611940565b610bb5611956565b604435906001600160a01b03928383168084036102f457604090610bd76120d4565b60448251809781937fc9c1661b000000000000000000000000000000000000000000000000000000008352818716600484015260248301527f0000000000000000000000000000000000000000000000000000000000000000165afa80156102e957610c48575b610b2c93506122d4565b6040843d604011610c73575b81610c6160409383611a42565b810103126102f457610b2c9350610c3e565b3d9150610c54565b346102f45760406003193601126102f457610c94611940565b60243590610ca06120d4565b6706f05b59d3b200008211610dfc57610cb88261208c565b610cc181611bca565b610cca82612047565b91604051610cd7816119c9565b67ffffffffffffffff80941681526020810190600182526001600160a01b039182851695865f52600360205260405f209251167fffffffffffffffffffffffffffffffffffffffffffffff00000000000000000068ff000000000000000084549351151560401b169216171790557f00000000000000000000000000000000000000000000000000000000000000001691610d7181612366565b833b156102f4576040517fe253670a0000000000000000000000000000000000000000000000000000000081526001600160a01b039290921660048301526024820152915f908390604490829084905af19081156102e9577faf47449d1c3597ccc9f5ec3acad03cef57aa90a719000441b320687087948efd926020926102da5750604051908152a2005b7fa7849e8e000000000000000000000000000000000000000000000000000000005f5260045ffd5b346102f4575f6003193601126102f4576020610e3e611d2b565b6001600160a01b0360405191168152f35b346102f45760206003193601126102f4576004356706f05b59d3b200008111610dfc57602081610e9f7f48c5c3ccec54c4e0ea08d83d838fa9bb725eb0b52c591cb00bd6e63bca8c44f69361208c565b610ea76120d4565b80600155604051908152a1005b346102f4576020806003193601126102f457610ece611940565b90610ed8826121c0565b90610ee282611b00565b925f946001600160a01b03809116955b848110610f0b5760405180610f07888261198e565b0390f35b600190875f526008845260405f2083610f248388611b4f565b51165f52845260405f2054610f398289611b4f565b5201610ef2565b346102f45760206003193601126102f457610b2c610f5c611940565b611bca565b346102f4576020806003193601126102f457610f7b611940565b90610f85826121c0565b90610f8f82611b00565b925f946001600160a01b03809116955b848110610fb45760405180610f07888261198e565b600190875f526007845260405f2083610fcd8388611b4f565b51165f52845260405f2054610fe28289611b4f565b5201610f9f565b346102f4575f6003193601126102f45760206040516001600160a01b037f0000000000000000000000000000000000000000000000000000000000000000168152f35b346102f45760206003193601126102f4576004356706f05b59d3b2000081116102f85760208161107c7fbf5ac0fc89bbf8819be79f280146b65ea2af2a9705cd9cfe0c9d93f6e87f307d9361208c565b6110846120d4565b805f55604051908152a1005b346102f45760206003193601126102f4576004357fffffffff00000000000000000000000000000000000000000000000000000000811681036102f4576110d8602091611a83565b604051908152f35b346102f45760206003193601126102f4576001600160a01b03611101611940565b165f526003602052602060405f206040519061111c826119c9565b5467ffffffffffffffff811680835260ff604092831c1615159390920183905280519182526020820192909252f35b346102f4575f6003193601126102f45760205f54604051908152f35b346102f45760606003193601126102f457611180611940565b611188611956565b9060443590811515908183036102f4576040936111a3611fe9565b6001600160a01b0380921690815f5260209260048452865f2091167fffffffffffffffffffffffff0000000000000000000000000000000000000000825416179055835f146112bd575f935b156112b4575f925b61120085612047565b865161120b816119c9565b67ffffffffffffffff809216815284810191838352845f526002865280895f20925116918054935115158a1b937fffffffffffffffffffffffffffffffffffffffffffffff000000000000000000938468ff000000000000000080971692161717905561127787612047565b94818a5196611285886119c9565b1686528686019485525f5260038652885f2094511691845493511515891b169216171790558351928352820152f35b600154926111f7565b5f54936111ef565b346102f4576020806003193601126102f4576112df611940565b6112e881611bca565b6001600160a01b039182821692835f526002825260405f20906040519161130e836119c9565b549167ffffffffffffffff9060ff8285169485835260401c1615908582159101525f54938161145e575b5061133f57005b61134883612047565b908060405192611357846119c9565b168252848201905f8252875f526002865260405f209251167fffffffffffffffffffffffffffffffffffffffffffffff00000000000000000068ff000000000000000084549351151560401b169216171790557f000000000000000000000000000000000000000000000000000000000000000016926113d68161239b565b843b156102f4576040517f5e0b06f40000000000000000000000000000000000000000000000000000000081526001600160a01b039290921660048301526024820152925f908490604490829084905af19283156102e9577f97cff4b6e6d80e307faab8b730d9f69264e860f2e0e10cfb8cdaf8a2f44e839e936102da5750604051908152a2005b905083141587611338565b346102f4576020806003193601126102f457611483611940565b61148c81611bca565b6001600160a01b039182821692835f526003825260405f2090604051916114b2836119c9565b549167ffffffffffffffff9060ff8285169485835260401c1615908582159101526001549381611603575b506114e457005b6114ed83612047565b9080604051926114fc846119c9565b168252848201905f8252875f526003865260405f209251167fffffffffffffffffffffffffffffffffffffffffffffff00000000000000000068ff000000000000000084549351151560401b169216171790557f0000000000000000000000000000000000000000000000000000000000000000169261157b81612366565b843b156102f4576040517fe253670a0000000000000000000000000000000000000000000000000000000081526001600160a01b039290921660048301526024820152925f908490604490829084905af19283156102e9577faf47449d1c3597ccc9f5ec3acad03cef57aa90a719000441b320687087948efd936102da5750604051908152a2005b9050831415876114dd565b61196c565b346102f45760206003193601126102f4576001600160a01b03611634611940565b165f526002602052602060405f206040519061111c826119c9565b346102f4575f6003193601126102f4576020600154604051908152f35b346102f45760206003193601126102f457610b2c611688611940565b6001600160a01b038082165f52600460205260405f20541690611f32565b346102f45760406003193601126102f4576116bf611940565b602435906116cc81611eae565b670de0ad9b58f1600082116117b6576116e481611bca565b6001600160a01b039182821692835f5260066020528160405f20557f0000000000000000000000000000000000000000000000000000000000000000169161172b81612366565b833b156102f4576040517fe253670a0000000000000000000000000000000000000000000000000000000081526001600160a01b039290921660048301526024820152915f908390604490829084905af19081156102e9577f47f70ddbc624c299cef7841aaea0a86b677c800203e953104e958c9ec9bdab34926020926102da5750604051908152a2005b7f0370da74000000000000000000000000000000000000000000000000000000005f5260045ffd5b346102f4575f6003193601126102f4576020604051670de0ad9b58f160008152f35b346102f45760406003193601126102f457611819611940565b6024359061182681611eae565b670de0ad9b58f1600082116117b65761183e81611bca565b6001600160a01b039182821692835f5260056020528160405f20557f000000000000000000000000000000000000000000000000000000000000000016916118858161239b565b833b156102f4576040517f5e0b06f40000000000000000000000000000000000000000000000000000000081526001600160a01b039290921660048301526024820152915f908390604490829084905af19081156102e9577fb7cf36369623c01ed7b2eafc4025224e924a2836d5fb49428a0f65417586bf5c926020926119105750604051908152a2005b61191990611a12565b846102d0565b346102f45760406003193601126102f45760206110d8602435600435611e6d565b600435906001600160a01b03821682036102f457565b602435906001600160a01b03821682036102f457565b346102f4575f6003193601126102f45760206040516706f05b59d3b200008152f35b60209060206040818301928281528551809452019301915f5b8281106119b5575050505090565b8351855293810193928101926001016119a7565b6040810190811067ffffffffffffffff8211176119e557604052565b7f4e487b71000000000000000000000000000000000000000000000000000000005f52604160045260245ffd5b67ffffffffffffffff81116119e557604052565b6060810190811067ffffffffffffffff8211176119e557604052565b90601f7fffffffffffffffffffffffffffffffffffffffffffffffffffffffffffffffe0910116810190811067ffffffffffffffff8211176119e557604052565b6040517fffffffff0000000000000000000000000000000000000000000000000000000060208201927f0000000000000000000000000000000000000000000000000000000000000000845216604082015260248152611ae281611a26565b51902090565b67ffffffffffffffff81116119e55760051b60200190565b90611b0a82611ae8565b611b176040519182611a42565b8281527fffffffffffffffffffffffffffffffffffffffffffffffffffffffffffffffe0611b458294611ae8565b0190602036910137565b8051821015611b635760209160051b010190565b7f4e487b71000000000000000000000000000000000000000000000000000000005f52603260045260245ffd5b67ffffffffffffffff81116119e557601f017fffffffffffffffffffffffffffffffffffffffffffffffffffffffffffffffe01660200190565b7fffffffffffffffffffffffffffffffffffffffffffffffffffffffffffffffe0905f601f6001600160a01b036040519383604460209684888201947ffa399f2a00000000000000000000000000000000000000000000000000000000865216602482015260248152611c3c81611a26565b604051988996879586937f48c894910000000000000000000000000000000000000000000000000000000085528b60048601525180918160248701528686015e85858286010152011681010301927f0000000000000000000000000000000000000000000000000000000000000000165af180156102e957611cbc575050565b3d805f843e611ccb8184611a42565b82019181818403126102f45780519067ffffffffffffffff82116102f457019180601f840112156102f457825190611d0282611b90565b90611d106040519283611a42565b8282528383860101116102f45781835f95018483015e010152565b6040517faaabadc50000000000000000000000000000000000000000000000000000000081526001600160a01b036020826004817f000000000000000000000000000000000000000000000000000000000000000085165afa9182156102e9575f92611d9657505090565b9091506020813d602011611dc7575b81611db260209383611a42565b810103126102f4575190811681036102f45790565b3d9150611da5565b9080601f830112156102f457815190602091611dea81611ae8565b93611df86040519586611a42565b81855260208086019260051b8201019283116102f457602001905b828210611e21575050505090565b81518152908301908301611e13565b919082018092116106b457565b90670de0b6b3a7640000918281029281840414901517156106b457565b818102929181159184041417156106b457565b90611e9a64174876e800928392611e93670de0b6b3a76400009183830383851002611e5a565b0490611e30565b048181029181830414901517156106b45790565b6001600160a01b0380911690815f52600460205260405f2054168015611f06573303611ed75750565b7ffbecdbf4000000000000000000000000000000000000000000000000000000005f523360045260245260445ffd5b507f8bcbf353000000000000000000000000000000000000000000000000000000005f5260045260245ffd5b90611f3c826121c0565b92905f5b848110611f4e575050505050565b6001906001600160a01b0380611f648386611b4f565b5116818616805f5260086020818152604094855f20855f528252855f20549586611f96575b5050505050505001611f40565b7f938f3a3a03ee425ccc0f8010b0468938cbafd3750fa43bbdf09c6f75e97e51f993855f528352805f20865f5283525f81812055611fd5878d886123cd565b519586528a1694a45f808080808080611f89565b6001600160a01b037f000000000000000000000000000000000000000000000000000000000000000016330361201b57565b7f089676d5000000000000000000000000000000000000000000000000000000005f523360045260245ffd5b67ffffffffffffffff9081811161205c571690565b7f6dfcc650000000000000000000000000000000000000000000000000000000005f52604060045260245260445ffd5b64174876e8008082048181029181830414901517156106b457036120ac57565b7f833fb3ce000000000000000000000000000000000000000000000000000000005f5260045ffd5b6121007fffffffff000000000000000000000000000000000000000000000000000000005f3516611a83565b60206001600160a01b03612112611d2b565b16916064604051809481937f9be2a88400000000000000000000000000000000000000000000000000000000835260048301523360248301523060448301525afa9081156102e9575f91612191575b501561216957565b7f23dada53000000000000000000000000000000000000000000000000000000005f5260045ffd5b6121b3915060203d6020116121b9575b6121ab8183611a42565b8101906124c5565b5f612161565b503d6121a1565b906001600160a01b0380604051937fca4f28030000000000000000000000000000000000000000000000000000000085521660048401525f83602481847f0000000000000000000000000000000000000000000000000000000000000000165afa9283156102e9575f93612236575b5050815190565b909192503d805f833e6122498183611a42565b810160209182818303126102f45780519067ffffffffffffffff82116102f457019281601f850112156102f457835161228181611ae8565b9461228f6040519687611a42565b818652848087019260051b8201019384116102f4578401905b8382106122bc575050505050905f8061222f565b815183811681036102f45781529084019084016122a8565b91906001600160a01b0380931690815f52600760205260405f209284811693845f5260205260405f2054948561230d575b505050505050565b82612352877f1c2887fcb98f75e66bb9a36311f2d3d22fb204e6362106f30e9df7eaf63131b595602095885f526007875260405f208a5f5287525f60408120556123cd565b6040519687521694a45f8080808080612305565b6001600160a01b03165f52600360205261239867ffffffffffffffff60405f205416600660205260405f205490611e6d565b90565b6001600160a01b03165f52600260205261239867ffffffffffffffff60405f205416600560205260405f205490611e6d565b6040517fa9059cbb00000000000000000000000000000000000000000000000000000000602082019081526001600160a01b03938416602483015260448083019590955293815292612461925f928392919061242a606488611a42565b1694519082865af13d156124bd573d9061244382611b90565b916124516040519384611a42565b82523d5f602084013e5b836124dd565b80519081151591826124a2575b50506124775750565b7f5274afe7000000000000000000000000000000000000000000000000000000005f5260045260245ffd5b6124b592506020809183010191016124c5565b155f8061246e565b60609061245b565b908160209103126102f4575180151581036102f45790565b9061251a57508051156124f257805190602001fd5b7f1425ea42000000000000000000000000000000000000000000000000000000005f5260045ffd5b81511580612560575b61252b575090565b6001600160a01b03907f9996b315000000000000000000000000000000000000000000000000000000005f521660045260245ffd5b50803b1561252356fea2646970667358221220109506ed0094f63b235252d7e2af62259910ecec6b6d95d028a091efdb60297b64736f6c634300081a0033a2646970667358221220d6a2a6128b4f7961e3faa80cd1ce3444b8939287d4cd9d565caad720f5ba3bf364736f6c634300081a0033",
  "linkReferences": {},
  "deployedLinkReferences": {}
}