{
  "_format": "hh-sol-artifact-1",
  "contractName": "BalancerContractRegistryInitializer",
  "sourceName": "contracts/BalancerContractRegistryInitializer.sol",
  "abi": [
    {
      "inputs": [
        {
          "internalType": "contract IVault",
          "name": "vault",
          "type": "address"
        },
        {
          "internalType": "contract IBalancerContractRegistry",
          "name": "balancerContractRegistry_",
          "type": "address"
        },
        {
          "internalType": "string[]",
          "name": "routerNames",
          "type": "string[]"
        },
        {
          "internalType": "address[]",
          "name": "routerAddresses",
          "type": "address[]"
        },
        {
          "internalType": "string[]",
          "name": "poolFactoryNames",
          "type": "string[]"
        },
        {
          "internalType": "address[]",
          "name": "poolFactoryAddresses",
          "type": "address[]"
        },
        {
          "internalType": "string[]",
          "name": "aliasNames",
          "type": "string[]"
        },
        {
          "internalType": "address[]",
          "name": "aliasAddresses",
          "type": "address[]"
        }
      ],
      "stateMutability": "nonpayable",
      "type": "constructor"
    },
    {
      "inputs": [],
      "name": "AlreadyInitialized",
      "type": "error"
    },
    {
      "inputs": [],
      "name": "InputLengthMismatch",
      "type": "error"
    },
    {
      "inputs": [],
      "name": "PermissionNotGranted",
      "type": "error"
    },
    {
      "inputs": [],
      "name": "VaultMismatch",
      "type": "error"
    },
    {
      "inputs": [],
      "name": "balancerContractRegistry",
      "outputs": [
        {
          "internalType": "contract IBalancerContractRegistry",
          "name": "",
          "type": "address"
        }
      ],
      "stateMutability": "view",
      "type": "function"
    },
    {
      "inputs": [],
      "name": "initializeBalancerContractRegistry",
      "outputs": [],
      "stateMutability": "nonpayable",
      "type": "function"
    }
  ],
  "bytecode": "0x60c0806040523461041b57611805803803809161001c82856109da565b83398101906101008183031261041b57610035816109fd565b6020820151909290916001600160a01b038316830361041b5760408101516001600160401b03811161041b578261006d918301610a28565b60608201519093906001600160401b03811161041b578361008f918401610aed565b60808301516001600160401b03811161041b57846100ae918501610a28565b60a08401519092906001600160401b03811161041b57856100d0918601610aed565b60c08501519094906001600160401b03811161041b57866100f2918301610a28565b60e08201519096906001600160401b03811161041b576101129201610aed565b956001549161012360025484610bac565b61013260035460045490610bac565b61014160055460065490610bac565b6040516311b2515f60e31b81526020816004816001600160a01b0386165afa908115610427575f916109a0575b506001600160a01b038a81169116036109915760805280519168010000000000000000831161046b5782600155808310610914575b5060015f9081525f5160206117e55f395f51905f5292916020015b82821061080d5750508251929150506001600160401b03821161046b5768010000000000000000821161046b57602090600254836002558084106107f1575b500160025f5260205f205f5b8381106107d4575050505080519068010000000000000000821161046b5760035482600355808310610758575b5060035f9081525f5160206117c55f395f51905f5292916020015b8282106106515750508251929150506001600160401b03821161046b5768010000000000000000821161046b5760209060045483600455808410610635575b500160045f5260205f205f5b838110610618575050505080519068010000000000000000821161046b576005548260055580831061059c575b5060055f9081525f5160206117a55f395f51905f5292916020015b82821061047f5784518690866001600160401b03821161046b5768010000000000000000821161046b576020906006548360065580841061044f575b500160065f5260205f205f5b8381106104325760405163aaabadc560e01b81526020816004816001600160a01b038a165afa908115610427575f916103e1575b506001600160a01b031660a052604051610be29081610bc3823960805181818160e7015281816101760152818161033b015281816103e1015281816104bf0152818161056c0152818161061d015281816106ca01528181610779015281816108700152610a00015260a051818181610205015281816107d401526108cb0152f35b90506020813d60201161041f575b816103fc602093836109da565b8101031261041b57516001600160a01b038116810361041b5781610360565b5f80fd5b3d91506103ef565b6040513d5f823e3d90fd5b82516001600160a01b03168183015560209092019160010161032c565b6104659060065f5284845f209182019101610b96565b84610320565b634e487b7160e01b5f52604160045260245ffd5b80518051906001600160401b03821161046b5761049c8654610b5e565b90601f91828111610564575b5060209183116001146104f857926104de836001959460209487965f926104ed575b50508160011b915f199060031b1c19161790565b87555b019401910190926102e4565b015190505f806104ca565b90865f5260205f20915f5b601f198516811061054c575083602093600196938796938794601f19811610610534575b505050811b0187556104e1565b01515f1960f88460031b161c191690555f8080610527565b91926020600181928685015181550194019201610503565b61058d90885f5260205f208480870160051c82019260208810610593575b0160051c0190610b96565b5f6104a8565b92508192610582565b60055f525f5160206117a55f395f51905f529081019083015b8181106105c257506102c9565b806105cf60019254610b5e565b806105dc575b50016105b5565b601f9081811184146105f45750505f81555b5f6105d5565b61060f5f9284845260208420920160051c8201858301610b96565b818355556105ee565b82516001600160a01b03168183015560209092019160010161029c565b61064b9060045f5284845f209182019101610b96565b5f610290565b80518051906001600160401b03821161046b5761066e8654610b5e565b90601f9182811161072a575b5060209183116001146106be57926106af836001959460209487965f926104ed5750508160011b915f199060031b1c19161790565b87555b01940191019092610251565b90865f5260205f20915f5b601f1985168110610712575083602093600196938796938794601f198116106106fa575b505050811b0187556106b2565b01515f1960f88460031b161c191690555f80806106ed565b919260206001819286850151815501940192016106c9565b61075290885f5260205f208480870160051c82019260208810610593570160051c0190610b96565b5f61067a565b60035f525f5160206117c55f395f51905f529081019083015b81811061077e5750610236565b8061078b60019254610b5e565b80610798575b5001610771565b601f9081811184146107b05750505f81555b5f610791565b6107cb5f9284845260208420920160051c8201858301610b96565b818355556107aa565b82516001600160a01b031681830155602090920191600101610209565b6108079060025f5284845f209182019101610b96565b5f6101fd565b80518051906001600160401b03821161046b5761082a8654610b5e565b90601f918281116108e6575b50602091831160011461087a579261086b836001959460209487965f926104ed5750508160011b915f199060031b1c19161790565b87555b019401910190926101be565b90865f5260205f20915f5b601f19851681106108ce575083602093600196938796938794601f198116106108b6575b505050811b01875561086e565b01515f1960f88460031b161c191690555f80806108a9565b91926020600181928685015181550194019201610885565b61090e90885f5260205f208480870160051c82019260208810610593570160051c0190610b96565b5f610836565b60015f525f5160206117e55f395f51905f52908382015b818301811061093b5750506101a3565b8061094860019254610b5e565b80610955575b500161092b565b601f90818111841461096d5750505f81555b5f61094e565b6109885f9284845260208420920160051c8201858301610b96565b81835555610967565b63c1faacc560e01b5f5260045ffd5b90506020813d6020116109d2575b816109bb602093836109da565b8101031261041b576109cc906109fd565b5f61016e565b3d91506109ae565b601f909101601f19168101906001600160401b0382119082101761046b57604052565b51906001600160a01b038216820361041b57565b6001600160401b03811161046b5760051b60200190565b601f9180601f8301121561041b57815191602092610a4581610a11565b94604093610a5660405197886109da565b828752858088019360051b8501019481861161041b57868501935b868510610a8357505050505050505090565b84516001600160401b03919082811161041b5787019084603f8301121561041b578982015192831161046b578351610ac3848801601f19168c01826109da565b8381528585858501011161041b575f8b858196888397018386015e83010152815201940193610a71565b9080601f8301121561041b57815190602091610b0881610a11565b93610b1660405195866109da565b81855260208086019260051b82010192831161041b57602001905b828210610b3f575050505090565b81516001600160a01b038116810361041b578152908301908301610b31565b90600182811c92168015610b8c575b6020831014610b7857565b634e487b7160e01b5f52602260045260245ffd5b91607f1691610b6d565b818110610ba1575050565b5f8155600101610b96565b03610bb357565b63aaad13f760e01b5f5260045ffdfe6080806040526004361015610012575f80fd5b5f3560e01c9081632623a2d0146109b8575063bd968c1814610032575f80fd5b346102bf575f7ffffffffffffffffffffffffffffffffffffffffffffffffffffffffffffffffc3601126102bf575f5460ff8116610990577fffffffffffffffffffffffffffffffffffffffffffffffffffffffffffffff00166001175f556040517f851c1bb3000000000000000000000000000000000000000000000000000000008082527fe0376ab4000000000000000000000000000000000000000000000000000000006004830152906020816024817f000000000000000000000000000000000000000000000000000000000000000073ffffffffffffffffffffffffffffffffffffffff165afa9081156102b4575f9161095e575b506040519182527f2967af9600000000000000000000000000000000000000000000000000000000600483015260208260248173ffffffffffffffffffffffffffffffffffffffff7f0000000000000000000000000000000000000000000000000000000000000000165afa9182156102b4575f9261092a575b5060035460015490600554918015801590610921575b8061083a575b8015610739575b610711575f5b8181106105b35750505f5b8181106104555750505f5b8181106102d257505073ffffffffffffffffffffffffffffffffffffffff7f00000000000000000000000000000000000000000000000000000000000000001691823b156102bf576040517f36568abe0000000000000000000000000000000000000000000000000000000080825260048201939093523060248201525f8160448183885af180156102b4576102c3575b50823b156102bf576040519182526004820152306024820152905f908290604490829084905af180156102b4576102a957005b6102b290610a24565b005b6040513d5f823e3d90fd5b5f80fd5b6102cc90610a24565b5f610276565b6005548110156104285760068054821015610428575f5273ffffffffffffffffffffffffffffffffffffffff817ff652222313e28459528d920b65115c16c04f3efc82aaedc97be59f3f377c0d3f0154169073ffffffffffffffffffffffffffffffffffffffff7f0000000000000000000000000000000000000000000000000000000000000000163b156102bf575f6040518080947f2967af96000000000000000000000000000000000000000000000000000000008252604060048301526103c160448301867f036b6384b5eca791c62761152d0c79bb0604c104a5fb6f4eb0703f3154bb3db001610abe565b90602483015203818373ffffffffffffffffffffffffffffffffffffffff7f0000000000000000000000000000000000000000000000000000000000000000165af19182156102b457600192610419575b50016101e5565b61042290610a24565b5f610412565b7f4e487b71000000000000000000000000000000000000000000000000000000005f52603260045260245ffd5b600354811015610428576004548110156104285760045f5273ffffffffffffffffffffffffffffffffffffffff817f8a35acfbc15ff81a39ae7d344fd709f28e8600b4aa8c65c6b64bfe7fe36bd19b0154169073ffffffffffffffffffffffffffffffffffffffff7f0000000000000000000000000000000000000000000000000000000000000000163b156102bf575f6040518080947fe0376ab4000000000000000000000000000000000000000000000000000000008252600160048301526060602483015261054c60648301867fc2575a0e9e593c00f959f8c92f12db2869c3395a3b0502d05e2516446f71f85b01610abe565b90604483015203818373ffffffffffffffffffffffffffffffffffffffff7f0000000000000000000000000000000000000000000000000000000000000000165af19182156102b4576001926105a4575b50016101da565b6105ad90610a24565b5f61059d565b600154811015610428576002548110156104285760025f5273ffffffffffffffffffffffffffffffffffffffff817f405787fa12a823e0f2b7631cc41b3ba8828b3321ca811111fa75cd3aa3bb5ace0154169073ffffffffffffffffffffffffffffffffffffffff7f0000000000000000000000000000000000000000000000000000000000000000163b156102bf575f6040518080947fe0376ab400000000000000000000000000000000000000000000000000000000825260026004830152606060248301526106aa60648301867fb10e2d527612073b26eecdfd717e6a320cf44b4afac2b0732d9fcbe2b7fa0cf601610abe565b90604483015203818373ffffffffffffffffffffffffffffffffffffffff7f0000000000000000000000000000000000000000000000000000000000000000165af19182156102b457600192610702575b50016101cf565b61070b90610a24565b5f6106fb565b7fe5557e90000000000000000000000000000000000000000000000000000000005f5260045ffd5b5082151580156101c957506040517f9be2a884000000000000000000000000000000000000000000000000000000008152600481018690523060248201527f000000000000000000000000000000000000000000000000000000000000000073ffffffffffffffffffffffffffffffffffffffff1660448201526020818060648101038173ffffffffffffffffffffffffffffffffffffffff7f0000000000000000000000000000000000000000000000000000000000000000165afa9081156102b4575f9161080b575b50156101c9565b61082d915060203d602011610833575b6108258183610a65565b810190610aa6565b5f610804565b503d61081b565b506040517f9be2a884000000000000000000000000000000000000000000000000000000008152600481018590523060248201527f000000000000000000000000000000000000000000000000000000000000000073ffffffffffffffffffffffffffffffffffffffff1660448201526020818060648101038173ffffffffffffffffffffffffffffffffffffffff7f0000000000000000000000000000000000000000000000000000000000000000165afa9081156102b4575f91610902575b50156101c2565b61091b915060203d602011610833576108258183610a65565b5f6108fb565b508115156101bc565b9091506020813d602011610956575b8161094660209383610a65565b810103126102bf5751905f6101a6565b3d9150610939565b90506020813d602011610988575b8161097960209383610a65565b810103126102bf57515f61012c565b3d915061096c565b7f0dc149f0000000000000000000000000000000000000000000000000000000005f5260045ffd5b346102bf575f7ffffffffffffffffffffffffffffffffffffffffffffffffffffffffffffffffc3601126102bf5760209073ffffffffffffffffffffffffffffffffffffffff7f0000000000000000000000000000000000000000000000000000000000000000168152f35b67ffffffffffffffff8111610a3857604052565b7f4e487b71000000000000000000000000000000000000000000000000000000005f52604160045260245ffd5b90601f7fffffffffffffffffffffffffffffffffffffffffffffffffffffffffffffffe0910116810190811067ffffffffffffffff821117610a3857604052565b908160209103126102bf575180151581036102bf5790565b80545f939260018083169383821c938515610ba2575b6020958686108114610b7557858552908115610b385750600114610afa575b5050505050565b90939495505f92919252835f2092845f945b838610610b2457505050500101905f80808080610af3565b805485870183015294019385908201610b0c565b7fffffffffffffffffffffffffffffffffffffffffffffffffffffffffffffff00168685015250505090151560051b010191505f80808080610af3565b7f4e487b71000000000000000000000000000000000000000000000000000000005f52602260045260245ffd5b93607f1693610ad456fea2646970667358221220b4b3734484d972369f82de989defe107f493ad23f8fe38085e57fedbebee909164736f6c634300081b0033036b6384b5eca791c62761152d0c79bb0604c104a5fb6f4eb0703f3154bb3db0c2575a0e9e593c00f959f8c92f12db2869c3395a3b0502d05e2516446f71f85bb10e2d527612073b26eecdfd717e6a320cf44b4afac2b0732d9fcbe2b7fa0cf6",
  "linkReferences": {},
  "deployedLinkReferences": {}
}