{
  "_format": "hh-sol-artifact-1",
  "contractName": "ProtocolFeeSweeper",
  "sourceName": "contracts/ProtocolFeeSweeper.sol",
  "abi": [
    {
      "inputs": [
        {
          "internalType": "contract IVault",
          "name": "vault",
          "type": "address"
        },
        {
          "internalType": "address",
          "name": "feeRecipient",
          "type": "address"
        }
      ],
      "stateMutability": "nonpayable",
      "type": "constructor"
    },
    {
      "inputs": [
        {
          "internalType": "address",
          "name": "target",
          "type": "address"
        }
      ],
      "name": "AddressEmptyCode",
      "type": "error"
    },
    {
      "inputs": [
        {
          "internalType": "address",
          "name": "account",
          "type": "address"
        }
      ],
      "name": "AddressInsufficientBalance",
      "type": "error"
    },
    {
      "inputs": [],
      "name": "BurnerDidNotConsumeAllowance",
      "type": "error"
    },
    {
      "inputs": [],
      "name": "CannotReceiveEth",
      "type": "error"
    },
    {
      "inputs": [],
      "name": "FailedInnerCall",
      "type": "error"
    },
    {
      "inputs": [],
      "name": "InvalidFeeRecipient",
      "type": "error"
    },
    {
      "inputs": [],
      "name": "InvalidProtocolFeeBurner",
      "type": "error"
    },
    {
      "inputs": [],
      "name": "InvalidTargetToken",
      "type": "error"
    },
    {
      "inputs": [
        {
          "internalType": "address",
          "name": "protocolFeeBurner",
          "type": "address"
        }
      ],
      "name": "ProtocolFeeBurnerAlreadyAdded",
      "type": "error"
    },
    {
      "inputs": [
        {
          "internalType": "address",
          "name": "protocolFeeBurner",
          "type": "address"
        }
      ],
      "name": "ProtocolFeeBurnerNotAdded",
      "type": "error"
    },
    {
      "inputs": [],
      "name": "ReentrancyGuardReentrantCall",
      "type": "error"
    },
    {
      "inputs": [
        {
          "internalType": "address",
          "name": "token",
          "type": "address"
        }
      ],
      "name": "SafeERC20FailedOperation",
      "type": "error"
    },
    {
      "inputs": [],
      "name": "SenderNotAllowed",
      "type": "error"
    },
    {
      "inputs": [
        {
          "internalType": "address",
          "name": "protocolFeeBurner",
          "type": "address"
        }
      ],
      "name": "UnsupportedProtocolFeeBurner",
      "type": "error"
    },
    {
      "anonymous": false,
      "inputs": [
        {
          "indexed": true,
          "internalType": "address",
          "name": "feeRecipient",
          "type": "address"
        }
      ],
      "name": "FeeRecipientSet",
      "type": "event"
    },
    {
      "anonymous": false,
      "inputs": [
        {
          "indexed": true,
          "internalType": "address",
          "name": "protocolFeeBurner",
          "type": "address"
        }
      ],
      "name": "ProtocolFeeBurnerAdded",
      "type": "event"
    },
    {
      "anonymous": false,
      "inputs": [
        {
          "indexed": true,
          "internalType": "address",
          "name": "protocolFeeBurner",
          "type": "address"
        }
      ],
      "name": "ProtocolFeeBurnerRemoved",
      "type": "event"
    },
    {
      "anonymous": false,
      "inputs": [
        {
          "indexed": true,
          "internalType": "address",
          "name": "pool",
          "type": "address"
        },
        {
          "indexed": true,
          "internalType": "contract IERC20",
          "name": "feeToken",
          "type": "address"
        },
        {
          "indexed": false,
          "internalType": "uint256",
          "name": "feeTokenAmount",
          "type": "uint256"
        },
        {
          "indexed": false,
          "internalType": "address",
          "name": "recipient",
          "type": "address"
        }
      ],
      "name": "ProtocolFeeSwept",
      "type": "event"
    },
    {
      "anonymous": false,
      "inputs": [
        {
          "indexed": true,
          "internalType": "contract IERC20",
          "name": "token",
          "type": "address"
        }
      ],
      "name": "TargetTokenSet",
      "type": "event"
    },
    {
      "stateMutability": "payable",
      "type": "fallback"
    },
    {
      "inputs": [
        {
          "internalType": "contract IProtocolFeeBurner",
          "name": "protocolFeeBurner",
          "type": "address"
        }
      ],
      "name": "addProtocolFeeBurner",
      "outputs": [],
      "stateMutability": "nonpayable",
      "type": "function"
    },
    {
      "inputs": [
        {
          "internalType": "bytes4",
          "name": "selector",
          "type": "bytes4"
        }
      ],
      "name": "getActionId",
      "outputs": [
        {
          "internalType": "bytes32",
          "name": "",
          "type": "bytes32"
        }
      ],
      "stateMutability": "view",
      "type": "function"
    },
    {
      "inputs": [],
      "name": "getAuthorizer",
      "outputs": [
        {
          "internalType": "contract IAuthorizer",
          "name": "",
          "type": "address"
        }
      ],
      "stateMutability": "view",
      "type": "function"
    },
    {
      "inputs": [],
      "name": "getFeeRecipient",
      "outputs": [
        {
          "internalType": "address",
          "name": "",
          "type": "address"
        }
      ],
      "stateMutability": "view",
      "type": "function"
    },
    {
      "inputs": [],
      "name": "getProtocolFeeController",
      "outputs": [
        {
          "internalType": "contract IProtocolFeeController",
          "name": "",
          "type": "address"
        }
      ],
      "stateMutability": "view",
      "type": "function"
    },
    {
      "inputs": [],
      "name": "getTargetToken",
      "outputs": [
        {
          "internalType": "contract IERC20",
          "name": "",
          "type": "address"
        }
      ],
      "stateMutability": "view",
      "type": "function"
    },
    {
      "inputs": [],
      "name": "getVault",
      "outputs": [
        {
          "internalType": "contract IVault",
          "name": "",
          "type": "address"
        }
      ],
      "stateMutability": "view",
      "type": "function"
    },
    {
      "inputs": [
        {
          "internalType": "address",
          "name": "protocolFeeBurner",
          "type": "address"
        }
      ],
      "name": "isApprovedProtocolFeeBurner",
      "outputs": [
        {
          "internalType": "bool",
          "name": "",
          "type": "bool"
        }
      ],
      "stateMutability": "view",
      "type": "function"
    },
    {
      "inputs": [
        {
          "internalType": "contract IERC20[]",
          "name": "feeTokens",
          "type": "address[]"
        }
      ],
      "name": "recoverProtocolFees",
      "outputs": [],
      "stateMutability": "nonpayable",
      "type": "function"
    },
    {
      "inputs": [
        {
          "internalType": "contract IProtocolFeeBurner",
          "name": "protocolFeeBurner",
          "type": "address"
        }
      ],
      "name": "removeProtocolFeeBurner",
      "outputs": [],
      "stateMutability": "nonpayable",
      "type": "function"
    },
    {
      "inputs": [
        {
          "internalType": "address",
          "name": "feeRecipient",
          "type": "address"
        }
      ],
      "name": "setFeeRecipient",
      "outputs": [],
      "stateMutability": "nonpayable",
      "type": "function"
    },
    {
      "inputs": [
        {
          "internalType": "contract IERC20",
          "name": "targetToken",
          "type": "address"
        }
      ],
      "name": "setTargetToken",
      "outputs": [],
      "stateMutability": "nonpayable",
      "type": "function"
    },
    {
      "inputs": [
        {
          "internalType": "address",
          "name": "pool",
          "type": "address"
        },
        {
          "internalType": "contract IERC20",
          "name": "feeToken",
          "type": "address"
        },
        {
          "internalType": "uint256",
          "name": "minTargetTokenAmountOut",
          "type": "uint256"
        },
        {
          "internalType": "uint256",
          "name": "deadline",
          "type": "uint256"
        },
        {
          "internalType": "contract IProtocolFeeBurner",
          "name": "feeBurner",
          "type": "address"
        }
      ],
      "name": "sweepProtocolFeesForToken",
      "outputs": [],
      "stateMutability": "nonpayable",
      "type": "function"
    },
    {
      "stateMutability": "payable",
      "type": "receive"
    }
  ],
  "bytecode": "0x60c0346100e857601f61165f38819003918201601f19168301916001600160401b038311848410176100ec5780849260409485528339810103126100e85780516001600160a01b039182821682036100e857602001519182168092036100e8573060805260a05280156100d957600180546001600160a01b03191682179055604051907fbf9a9534339a9d6b81696e05dcfb614b7dc518a31d48be3cfb757988381fb3235f80a261155e9081610101823960805181610fbd015260a051818181610c6301528181610d4d0152818161104b01526111720152f35b630ed1b8b360e31b5f5260045ffd5b5f80fd5b634e487b7160e01b5f52604160045260245ffdfe604060808152600490813610156100a0575b361561007957346100795790602060649251917f08c379a0000000000000000000000000000000000000000000000000000000008352820152600f60248201527f4e6f7420696d706c656d656e74656400000000000000000000000000000000006044820152fd5b507ff2238896000000000000000000000000000000000000000000000000000000005f525ffd5b5f5f3560e01c80631b66cb0014610e615780634ccb20c014610e2d57806380db0d5114610dfa578063851c1bb314610daa57806385f2dbd414610d715780638d928af814610d215780639c5cee9b14610cd8578063aaabadc514610c0f578063b0edcc5314610a08578063b11f061e14610931578063b974699514610306578063e20c482f146101fb5763e74b981b1461013a5750610011565b82346101f75760206003193601126101f757610154610eed565b6001549073ffffffffffffffffffffffffffffffffffffffff9061017a828416306110f0565b169182156101d157507fffffffffffffffffffffffff00000000000000000000000000000000000000001681176001557fbf9a9534339a9d6b81696e05dcfb614b7dc518a31d48be3cfb757988381fb3238280a280f35b837f768dc598000000000000000000000000000000000000000000000000000000008152fd5b5080fd5b5091903461030257602060031936011261030257610217610eed565b73ffffffffffffffffffffffffffffffffffffffff9061023b8260015416306110f0565b1691828452600260205260ff82852054166102d75782156102b157508183526002602052822060017fffffffffffffffffffffffffffffffffffffffffffffffffffffffffffffff008254161790557f0ef09fc346b7c2cae78d9a37ed785840e7d3c6072022cd8c41c3b37a239b7fd18280a280f35b837f31ec2736000000000000000000000000000000000000000000000000000000008152fd5b83836024927f6fe47af600000000000000000000000000000000000000000000000000000000835252fd5b8280fd5b5082346106d65760a06003193601126106d657610321610eed565b9060249182359173ffffffffffffffffffffffffffffffffffffffff958684168085036106d65760446084358981168091036106d65761035f611271565b61036d8a60015416306110f0565b80151591826108c3575b8451987f70a08231000000000000000000000000000000000000000000000000000000009b8c8b5230888c0152602094858c84818a5afa9b8c156108b9575f9c61088a575b50816103c6611008565b169b8c3b156106d6577f8f4ab9ca000000000000000000000000000000000000000000000000000000009c89519d8e52838c169d8e8c8201525f81878183865af180156108805761086b575b509e8e9f9d9e9d803b15610867578f8f9060648e838f958f965196879586947fb53a70b2000000000000000000000000000000000000000000000000000000008652850152308d8501528d8401525af1801561085b57908f91610843575b50508951908152308b820152878186818c5afa9d8e15610838579d610809575b508c8181039d8e116107dd57036104c9575b8d807f9b779b17422d0df92223018b32b4d1fa46e071723d6817e2486d003becc55f005d80f35b156107c6578c548116908d87830361050157505050505050505050506104ef935061132a565b818080808080808080808080806104a2565b879a509283808a9d9395899c9f989b9a8c6105a0869c6105748d9a9c9f519a8b928301947f095ea7b3000000000000000000000000000000000000000000000000000000009a8b875284016020909392919373ffffffffffffffffffffffffffffffffffffffff60408201951681520152565b037fffffffffffffffffffffffffffffffffffffffffffffffffffffffffffffffe081018a5289610f51565b828851925af16105ae611432565b81610796575b508061078c575b15610717575b505050506001541691853b156107135788519a7fde557a32000000000000000000000000000000000000000000000000000000008c528a8c015287848c0152848b015260648a0152823560848a015260a489015260643560c489015288808960e48183885af19889156107075785969798996106ea575b5050865195869384927fdd62ed3e000000000000000000000000000000000000000000000000000000008452308b8501528301525afa9283156106e1575084926106af575b505061068957506104ef565b907fc5bc8d51000000000000000000000000000000000000000000000000000000008152fd5b90809250813d83116106da575b6106c68183610f51565b810103126106d65751838061067d565b5f80fd5b503d6106bc565b513d86823e3d90fd5b6106f691929550610f10565b610703578392888a610638565b8780fd5b508651903d90823e3d90fd5b8b80fd5b8c51918b8301528988830152888201528781526080810181811067ffffffffffffffff82111761076157610758939291610753918e52826113a0565b6113a0565b8c80808e6105c1565b8760418f7f4e487b71000000000000000000000000000000000000000000000000000000005f52525ffd5b508b3b15156105bb565b8051801592508d9083156107ae575b5050505f6105b4565b6107be9350820181019101611388565b5f8c816107a5565b50505050505050506107d8935061132a565b6104ef565b50838f60118c7f4e487b7100000000000000000000000000000000000000000000000000000000835252fd5b909c508681813d8311610831575b6108218183610f51565b810103126106d657519b8f610490565b503d610817565b8a51903d90823e3d90fd5b61084c90610f10565b610857578d5f610470565b8d80fd5b8f8c51903d90823e3d90fd5b8e80fd5b610877919e9f50610f10565b5f9d9c5f610412565b8b513d5f823e3d90fd5b909b508581813d83116108b2575b6108a28183610f51565b810103126106d657519a8e6103bc565b503d610898565b88513d5f823e3d90fd5b815f52600260205260ff855f2054165f14610907578a5f541661037757857f8562eb45000000000000000000000000000000000000000000000000000000005f525ffd5b8882877f38553f6c000000000000000000000000000000000000000000000000000000005f52525ffd5b5050346106d65760206003193601126106d65761094c610eed565b73ffffffffffffffffffffffffffffffffffffffff906109708260015416306110f0565b1691825f52600260205260ff825f205416156109dd5750815f5260026020525f207fffffffffffffffffffffffffffffffffffffffffffffffffffffffffffffff0081541690557f0ed3ea501d1a23f23a7dc56c2d33e1e5a6a97694c707ef67b1e0159f239746bf5f80a2005b90507fbca5ab34000000000000000000000000000000000000000000000000000000005f525260245ffd5b8284346106d657602090816003193601126106d65780359267ffffffffffffffff8085116106d657366023860112156106d65784830135936024918511610be3576005958560051b845196610a5f84830189610f51565b8752602483880191830101913683116106d657602401905b828210610bb757505050610a89611271565b73ffffffffffffffffffffffffffffffffffffffff9460019580600154163303610b90575f97875b610adb575b5f7f9b779b17422d0df92223018b32b4d1fa46e071723d6817e2486d003becc55f005d005b8251891015610b8b5781848a831b8501015116988651997f70a08231000000000000000000000000000000000000000000000000000000008b5230898c0152858b8881845afa80156108b9578a9b5f91610b56575b5090818b9392610b44575b50500198610ab1565b610b4f9133906112c6565b8b80610b3b565b8093929b50878092503d8311610b84575b610b718183610f51565b810103126106d65790518a99908a610b30565b503d610b67565b610ab6565b857f23dada53000000000000000000000000000000000000000000000000000000005f525ffd5b813573ffffffffffffffffffffffffffffffffffffffff811681036106d6578152908301908301610a77565b6041847f4e487b71000000000000000000000000000000000000000000000000000000005f525260245ffd5b8284346106d6575f6003193601126106d65773ffffffffffffffffffffffffffffffffffffffff6020835180937faaabadc500000000000000000000000000000000000000000000000000000000825281847f0000000000000000000000000000000000000000000000000000000000000000165afa918215610cce57926020935f93610c9f575b505191168152f35b610cc0919350843d8611610cc7575b610cb88183610f51565b8101906110c4565b9184610c97565b503d610cae565b83513d5f823e3d90fd5b82346106d65760206003193601126106d65760209073ffffffffffffffffffffffffffffffffffffffff610d0a610eed565b165f526002825260ff815f20541690519015158152f35b82346106d6575f6003193601126106d6576020905173ffffffffffffffffffffffffffffffffffffffff7f0000000000000000000000000000000000000000000000000000000000000000168152f35b82346106d6575f6003193601126106d65760209073ffffffffffffffffffffffffffffffffffffffff610da2611008565b915191168152f35b8284346106d65760206003193601126106d65735907fffffffff00000000000000000000000000000000000000000000000000000000821682036106d657610df3602092610f92565b9051908152f35b82346106d6575f6003193601126106d65760209073ffffffffffffffffffffffffffffffffffffffff5f54169051908152f35b82346106d6575f6003193601126106d65760209073ffffffffffffffffffffffffffffffffffffffff600154169051908152f35b346106d65760206003193601126106d657610e7a610eed565b73ffffffffffffffffffffffffffffffffffffffff90610e9e8260015416306110f0565b16807fffffffffffffffffffffffff00000000000000000000000000000000000000005f5416175f557f873950c2ac59c570001b99d815ffb260542df229d07132922e2e6f9941fd3da65f80a2005b6004359073ffffffffffffffffffffffffffffffffffffffff821682036106d657565b67ffffffffffffffff8111610f2457604052565b7f4e487b71000000000000000000000000000000000000000000000000000000005f52604160045260245ffd5b90601f7fffffffffffffffffffffffffffffffffffffffffffffffffffffffffffffffe0910116810190811067ffffffffffffffff821117610f2457604052565b6040517fffffffff0000000000000000000000000000000000000000000000000000000060208201927f00000000000000000000000000000000000000000000000000000000000000008452166040820152602481526060810181811067ffffffffffffffff821117610f245760405251902090565b6040517f85f2dbd400000000000000000000000000000000000000000000000000000000815273ffffffffffffffffffffffffffffffffffffffff6020826004817f000000000000000000000000000000000000000000000000000000000000000085165afa9182156110b9575f9261108057505090565b9091506020813d6020116110b1575b8161109c60209383610f51565b810103126106d6575190811681036106d65790565b3d915061108f565b6040513d5f823e3d90fd5b908160209103126106d6575173ffffffffffffffffffffffffffffffffffffffff811681036106d65790565b9073ffffffffffffffffffffffffffffffffffffffff8091163303611113575050565b61113f7fffffffff000000000000000000000000000000000000000000000000000000005f3516610f92565b91604051907faaabadc50000000000000000000000000000000000000000000000000000000082526020938483600481877f0000000000000000000000000000000000000000000000000000000000000000165afa9081156110b9578460649287955f91611254575b5060405196879586947f9be2a8840000000000000000000000000000000000000000000000000000000086526004860152336024860152166044840152165afa9182156110b9575f92611227575b5050156111ff57565b7f23dada53000000000000000000000000000000000000000000000000000000005f5260045ffd5b6112469250803d1061124d575b61123e8183610f51565b810190611388565b5f806111f6565b503d611234565b61126b9150863d8811610cc757610cb88183610f51565b5f6111a8565b7f9b779b17422d0df92223018b32b4d1fa46e071723d6817e2486d003becc55f00805c61129e576001905d565b7f3ee5aeb5000000000000000000000000000000000000000000000000000000005f5260045ffd5b6040517fa9059cbb00000000000000000000000000000000000000000000000000000000602082015273ffffffffffffffffffffffffffffffffffffffff92909216602483015260448083019390935291815261132891610753606483610f51565b565b919060407fd6b9382ec1786c32610e376e8ee8f2f16abeda4ace3b6276ac958193c75bbbc89173ffffffffffffffffffffffffffffffffffffffff809181600154166113778782846112c6565b8451968752602087015216941692a3565b908160209103126106d6575180151581036106d65790565b5f8073ffffffffffffffffffffffffffffffffffffffff6113d693169360208151910182865af16113cf611432565b908361148f565b8051908115159182611417575b50506113ec5750565b7f5274afe7000000000000000000000000000000000000000000000000000000005f5260045260245ffd5b61142a9250602080918301019101611388565b155f806113e3565b3d1561148a573d9067ffffffffffffffff8211610f24576040519161147f60207fffffffffffffffffffffffffffffffffffffffffffffffffffffffffffffffe0601f8401160184610f51565b82523d5f602084013e565b606090565b906114cc57508051156114a457805190602001fd5b7f1425ea42000000000000000000000000000000000000000000000000000000005f5260045ffd5b8151158061151f575b6114dd575090565b73ffffffffffffffffffffffffffffffffffffffff907f9996b315000000000000000000000000000000000000000000000000000000005f521660045260245ffd5b50803b156114d556fea2646970667358221220a6d03c2d4126b2ab77d4a1a956a61b8c3c4ba90b365ec18fd24821cce3301f4164736f6c634300081b0033",
  "linkReferences": {},
  "deployedLinkReferences": {}
}