{
  "_format": "hh-sol-artifact-1",
  "contractName": "StableLPOracle",
  "sourceName": "contracts/StableLPOracle.sol",
  "abi": [
    {
      "inputs": [
        {
          "internalType": "contract IVault",
          "name": "vault_",
          "type": "address"
        },
        {
          "internalType": "contract IStablePool",
          "name": "pool_",
          "type": "address"
        },
        {
          "internalType": "contract AggregatorV3Interface[]",
          "name": "feeds",
          "type": "address[]"
        },
        {
          "internalType": "contract AggregatorV3Interface",
          "name": "sequencerUptimeFeed",
          "type": "address"
        },
        {
          "internalType": "uint256",
          "name": "uptimeResyncWindow",
          "type": "uint256"
        },
        {
          "internalType": "bool",
          "name": "shouldUseBlockTimeForOldestFeedUpdate",
          "type": "bool"
        },
        {
          "internalType": "bool",
          "name": "shouldRevertIfVaultUnlocked",
          "type": "bool"
        },
        {
          "internalType": "uint256",
          "name": "version_",
          "type": "uint256"
        }
      ],
      "stateMutability": "nonpayable",
      "type": "constructor"
    },
    {
      "inputs": [],
      "name": "InputLengthMismatch",
      "type": "error"
    },
    {
      "inputs": [],
      "name": "InvalidOraclePrice",
      "type": "error"
    },
    {
      "inputs": [],
      "name": "KDidNotConverge",
      "type": "error"
    },
    {
      "inputs": [],
      "name": "MinPriceTooLow",
      "type": "error"
    },
    {
      "inputs": [],
      "name": "PriceRatioTooHigh",
      "type": "error"
    },
    {
      "inputs": [
        {
          "internalType": "int256",
          "name": "value",
          "type": "int256"
        }
      ],
      "name": "SafeCastOverflowedIntToUint",
      "type": "error"
    },
    {
      "inputs": [
        {
          "internalType": "uint256",
          "name": "value",
          "type": "uint256"
        }
      ],
      "name": "SafeCastOverflowedUintToInt",
      "type": "error"
    },
    {
      "inputs": [],
      "name": "SequencerDown",
      "type": "error"
    },
    {
      "inputs": [],
      "name": "SequencerResyncIncomplete",
      "type": "error"
    },
    {
      "inputs": [],
      "name": "UnsupportedDecimals",
      "type": "error"
    },
    {
      "inputs": [],
      "name": "VaultIsUnlocked",
      "type": "error"
    },
    {
      "inputs": [],
      "name": "ZeroDivision",
      "type": "error"
    },
    {
      "inputs": [],
      "name": "computeTVL",
      "outputs": [
        {
          "internalType": "uint256",
          "name": "",
          "type": "uint256"
        }
      ],
      "stateMutability": "view",
      "type": "function"
    },
    {
      "inputs": [
        {
          "internalType": "int256[]",
          "name": "prices",
          "type": "int256[]"
        }
      ],
      "name": "computeTVLGivenPrices",
      "outputs": [
        {
          "internalType": "uint256",
          "name": "",
          "type": "uint256"
        }
      ],
      "stateMutability": "view",
      "type": "function"
    },
    {
      "inputs": [],
      "name": "decimals",
      "outputs": [
        {
          "internalType": "uint8",
          "name": "",
          "type": "uint8"
        }
      ],
      "stateMutability": "pure",
      "type": "function"
    },
    {
      "inputs": [],
      "name": "description",
      "outputs": [
        {
          "internalType": "string",
          "name": "",
          "type": "string"
        }
      ],
      "stateMutability": "view",
      "type": "function"
    },
    {
      "inputs": [],
      "name": "getFeedData",
      "outputs": [
        {
          "internalType": "int256[]",
          "name": "prices",
          "type": "int256[]"
        },
        {
          "internalType": "uint256[]",
          "name": "updatedAt",
          "type": "uint256[]"
        }
      ],
      "stateMutability": "view",
      "type": "function"
    },
    {
      "inputs": [],
      "name": "getFeedTokenDecimalScalingFactors",
      "outputs": [
        {
          "internalType": "uint256[]",
          "name": "",
          "type": "uint256[]"
        }
      ],
      "stateMutability": "view",
      "type": "function"
    },
    {
      "inputs": [],
      "name": "getFeeds",
      "outputs": [
        {
          "internalType": "contract AggregatorV3Interface[]",
          "name": "",
          "type": "address[]"
        }
      ],
      "stateMutability": "view",
      "type": "function"
    },
    {
      "inputs": [],
      "name": "getPoolTokens",
      "outputs": [
        {
          "internalType": "contract IERC20[]",
          "name": "",
          "type": "address[]"
        }
      ],
      "stateMutability": "view",
      "type": "function"
    },
    {
      "inputs": [
        {
          "internalType": "uint80",
          "name": "",
          "type": "uint80"
        }
      ],
      "name": "getRoundData",
      "outputs": [
        {
          "internalType": "uint80",
          "name": "",
          "type": "uint80"
        },
        {
          "internalType": "int256",
          "name": "",
          "type": "int256"
        },
        {
          "internalType": "uint256",
          "name": "",
          "type": "uint256"
        },
        {
          "internalType": "uint256",
          "name": "",
          "type": "uint256"
        },
        {
          "internalType": "uint80",
          "name": "",
          "type": "uint80"
        }
      ],
      "stateMutability": "pure",
      "type": "function"
    },
    {
      "inputs": [],
      "name": "getSequencerUptimeFeed",
      "outputs": [
        {
          "internalType": "contract AggregatorV3Interface",
          "name": "",
          "type": "address"
        }
      ],
      "stateMutability": "view",
      "type": "function"
    },
    {
      "inputs": [],
      "name": "getShouldRevertIfVaultUnlocked",
      "outputs": [
        {
          "internalType": "bool",
          "name": "",
          "type": "bool"
        }
      ],
      "stateMutability": "view",
      "type": "function"
    },
    {
      "inputs": [],
      "name": "getShouldUseBlockTimeForOldestFeedUpdate",
      "outputs": [
        {
          "internalType": "bool",
          "name": "",
          "type": "bool"
        }
      ],
      "stateMutability": "view",
      "type": "function"
    },
    {
      "inputs": [],
      "name": "getUptimeResyncWindow",
      "outputs": [
        {
          "internalType": "uint256",
          "name": "",
          "type": "uint256"
        }
      ],
      "stateMutability": "view",
      "type": "function"
    },
    {
      "inputs": [],
      "name": "latestRoundData",
      "outputs": [
        {
          "internalType": "uint80",
          "name": "",
          "type": "uint80"
        },
        {
          "internalType": "int256",
          "name": "",
          "type": "int256"
        },
        {
          "internalType": "uint256",
          "name": "",
          "type": "uint256"
        },
        {
          "internalType": "uint256",
          "name": "",
          "type": "uint256"
        },
        {
          "internalType": "uint80",
          "name": "",
          "type": "uint80"
        }
      ],
      "stateMutability": "view",
      "type": "function"
    },
    {
      "inputs": [],
      "name": "pool",
      "outputs": [
        {
          "internalType": "contract IBasePool",
          "name": "",
          "type": "address"
        }
      ],
      "stateMutability": "view",
      "type": "function"
    },
    {
      "inputs": [],
      "name": "version",
      "outputs": [
        {
          "internalType": "uint256",
          "name": "",
          "type": "uint256"
        }
      ],
      "stateMutability": "view",
      "type": "function"
    }
  ],
  "bytecode": "0x6103806040908082523461066357612c40803803809161001f8285610732565b8339810191610100928383820312610663578251926001600160a01b03918285169081860361066357602092838101519585871680970361066357818101516001600160401b03959086811161066357830194601f9480868801121561066357865161008a81610769565b976100978651998a610732565b81895284808a019260051b8201019283116106635784809101915b83831061071a5750505050606084016100ca90610780565b6080850151906100dc60a08701610794565b956100e960c08201610794565b9060e00151966101409788526101209d8e528c60805260e0528d5260a05260c052825180809263ca4f280360e01b825260049b8c8301525a926024915f94fa908115610710575f91610684575b50519561016094878652895f8a608051168651928380926395d89b4160e01b82525afa90811561067a579084915f916105e7575b50602461019b9187519381859251918291018984015e8101630bd554d160e21b88820152038d810184520182610732565b80519283116105d4575f54936001948581811c911680156105ca575b828210146105b757838111610574575b508092841160011461051257509282939183925f94610507575b50501b915f199060031b1c1916175f555b835185036104f95785610204856107a1565b5116936101809485526102218761021a836107a1565b5116610833565b96610280978852600781610234846107c2565b5116976101a098895261024a8361021a866107c2565b9a6102a09b8c52600282116104d3575b600382116104ad575b8111610487575b60058111610461575b6006811161043b575b11610414575b5050519661234b98896108f58a39608051898181610163015281816106d201528181610c6001526111bf015260a0518981816106170152611a7a015260c051898181610c130152611af4015260e0518981816101d20152610bbc01525188818160e1015281816103fc015281816105c60152610a090152518781816101890152818161036f01528181610482015281816106fe01528181610af1015261121b01525186610b820152518581816102320152818161050c015281816107c101528181610a3601528181610f780152818161114801528181611f8e01528181611ff50152818161201a0152818161204d0152818161208601526120ef015251846118be015251836118eb01526101c0518361192201526101e0518361195901526102005183611990015261022051836119c701526102405183611a0201526102605183611a3901525182611bae01525181611bd901526102c05181611c0d01526102e05181611c4101526103005181611c7501526103205181611ca901526103405181611ce001526103605181611d130152f35b61021a828261042561043095610822565b511661026052610822565b610360525f80610282565b8261044585610812565b5116610240526104588361021a86610812565b6103405261027c565b8261046b85610802565b51166102205261047e8361021a86610802565b61032052610273565b82610491856107f2565b5116610200526104a48361021a866107f2565b6103005261026a565b836104b7866107e2565b51166101e0526104ca8461021a876107e2565b6102e052610263565b836104dd866107d2565b51166101c0526104f08461021a876107d2565b6102c05261025a565b8663aaad13f760e01b5f525ffd5b015192505f806101e1565b919083601f1981165f8052845f20945f905b8883831061055a5750505010610542575b505050811b015f556101f2565b01515f1960f88460031b161c191690555f8080610535565b858701518855909601959485019487935090810190610524565b5f8052815f208480870160051c8201928488106105ae575b0160051c019086905b8281106105a35750506101c7565b5f8155018690610595565b9250819261058c565b60228d634e487b7160e01b5f525260245ffd5b90607f16906101b7565b60418b634e487b7160e01b5f525260245ffd5b9150503d805f833e6105f98183610732565b81019084818303126106635780519084821161066357018183820112156106635780519084821161066757865192610639838601601f1916880185610732565b8284528683830101116106635785925f848461019b9582602496018386015e83010152915061016a565b5f80fd5b60418d634e487b7160e01b5f525260245ffd5b85513d5f823e3d90fd5b90503d805f833e6106958183610732565b8101908281830312610663578051908882116106635701908086830112156106635781516106c281610769565b926106cf86519485610732565b818452848085019260051b820101928311610663578401905b8282106106f8575050505f610136565b81518b811681036106635781529084019084016106e8565b83513d5f823e3d90fd5b819061072584610780565b81520191019084906100b2565b601f909101601f19168101906001600160401b0382119082101761075557604052565b634e487b7160e01b5f52604160045260245ffd5b6001600160401b0381116107555760051b60200190565b51906001600160a01b038216820361066357565b5190811515820361066357565b8051156107ae5760200190565b634e487b7160e01b5f52603260045260245ffd5b8051600110156107ae5760400190565b8051600210156107ae5760600190565b8051600310156107ae5760800190565b8051600410156107ae5760a00190565b8051600510156107ae5760c00190565b8051600610156107ae5760e00190565b8051600710156107ae576101000190565b60405163313ce56760e01b815290602090829060049082906001600160a01b03165afa80156108e9575f906108ac575b60ff9150166012811161089d576012036012811161088957604d811161088957600a0a90565b634e487b7160e01b5f52601160045260245ffd5b636a78e98160e11b5f5260045ffd5b506020813d6020116108e1575b816108c660209383610732565b81010312610663575160ff811681036106635760ff90610863565b3d91506108b9565b6040513d5f823e3d90fdfe6080604081815260049182361015610015575f80fd5b5f3560e01c90816316f0115b14610c365750806319bbcf6014610bfc578063313ce56714610be157806341d88e3514610ba557806354fd4d5014610b6b57806365bcdaee146109935780637284e4161461083f5780637fe955d4146107ab57806389c06568146106825780639a6fc8f51461063b578063a056076c146105eb578063a1f6f025146105af578063af1296d314610547578063cd2c9e70146104f2578063d7e8c92b146103e95763feaf968c146100cf575f80fd5b346102f0575f6003193601126102f0577f00000000000000000000000000000000000000000000000000000000000000008061032d575b6103065761011f602492610118610f6e565b9290611119565b90602073ffffffffffffffffffffffffffffffffffffffff8551968780927fe4dc2aa4000000000000000000000000000000000000000000000000000000008252807f000000000000000000000000000000000000000000000000000000000000000016868301527f0000000000000000000000000000000000000000000000000000000000000000165afa9485156102fc575f956102c4575b50841561029e57506101ca90611eab565b925f199160017f00000000000000000000000000000000000000000000000000000000000000001561022e57505061021260a09460015f9342955b8301040190151502611d43565b92805193828552602085015283015260608201525f6080820152f35b83917f0000000000000000000000000000000000000000000000000000000000000000905f5b82811061026f575050505060a09460015f9361021293610205565b8661027a8284610e86565b5110610288575b8301610254565b9550826102958783610e86565b51969050610281565b7f0a0c22c7000000000000000000000000000000000000000000000000000000005f525ffd5b9094506020813d6020116102f4575b816102e060209383610c84565b810103126102f05751935f6101b9565b5f80fd5b3d91506102d3565b84513d5f823e3d90fd5b507fbe18e309000000000000000000000000000000000000000000000000000000005f525ffd5b5080517f8380edb7000000000000000000000000000000000000000000000000000000008152602081848173ffffffffffffffffffffffffffffffffffffffff7f0000000000000000000000000000000000000000000000000000000000000000165afa9081156103df575f916103a5575b50610106565b90506020813d6020116103d7575b816103c060209383610c84565b810103126102f0576103d190610d1f565b5f61039f565b3d91506103b3565b82513d5f823e3d90fd5b50346102f0575f6003193601126102f0577f000000000000000000000000000000000000000000000000000000000000000080610440575b61030657602090610439610433610f6e565b50611119565b9051908152f35b5080517f8380edb7000000000000000000000000000000000000000000000000000000008152602081848173ffffffffffffffffffffffffffffffffffffffff7f0000000000000000000000000000000000000000000000000000000000000000165afa9081156103df575f916104b8575b50610421565b90506020813d6020116104ea575b816104d360209383610c84565b810103126102f0576104e490610d1f565b5f6104b2565b3d91506104c6565b50346102f0575f6003193601126102f057610543906105307f0000000000000000000000000000000000000000000000000000000000000000611ba2565b9051918291602083526020830190610cec565b0390f35b50346102f0575f6003193601126102f057610560610f6e565b8251928391818301918352835180925260608301916020809501945f5b82811061059857858061054387878382036020850152610cec565b86518552958101958795509381019360010161057d565b50346102f0575f6003193601126102f057602090517f000000000000000000000000000000000000000000000000000000000000000015158152f35b50346102f0575f6003193601126102f0576020905173ffffffffffffffffffffffffffffffffffffffff7f0000000000000000000000000000000000000000000000000000000000000000168152f35b5090346102f05760206003193601126102f0573569ffffffffffffffffffff8116036102f057805f60a09251918183528160208401528201525f60608201525f6080820152f35b50346102f0575f6003193601126102f05773ffffffffffffffffffffffffffffffffffffffff918151907fca4f2803000000000000000000000000000000000000000000000000000000008252837f000000000000000000000000000000000000000000000000000000000000000016908201525f81602481867f0000000000000000000000000000000000000000000000000000000000000000165afa9081156103df575f9161076d575b50815191602090602080850191818652845180935285019301915f5b8281106107575785850386f35b835187168552938101939281019260010161074a565b90503d805f833e61077e8183610c84565b81016020828203126102f057815167ffffffffffffffff81116102f0576107a59201610d2c565b5f61072e565b50346102f0575f6003193601126102f0576107e57f000000000000000000000000000000000000000000000000000000000000000061186e565b908051918291602090602080850191818652845180935285019301915f5b82811061081257505050500390f35b835173ffffffffffffffffffffffffffffffffffffffff1685528695509381019392810192600101610803565b50346102f0575f6003193601126102f05780515f5f549060018260011c9060018416938415610989575b602097888410861461095d57509187918694938286528386019690815f1461092357506001146108cd575b505050916108a9601f92601f19940385610c84565b845195869481865251918280928701528686015e5f85828601015201168101030190f35b5f8080529293507f290decd9548b62a8d60345a988386fc84ba6bc95484008f6362f93160ef3e5635b82841061090d575050508201018582601f19610894565b80548885018601528795509284019281016108f6565b7fffffffffffffffffffffffffffffffffffffffffffffffffffffffffffffff001687525050151560051b83010190508582601f19610894565b6022907f4e487b71000000000000000000000000000000000000000000000000000000005f525260245ffd5b91607f1691610869565b50346102f057602091826003193601126102f05780359067ffffffffffffffff82116102f057366023830112156102f057818101356109d181610cd4565b926109de85519485610c84565b81845260248685019260051b820101913683116102f0576024879201905b838210610b5c57505050507f000000000000000000000000000000000000000000000000000000000000000080610ab0575b610a8a5781517f000000000000000000000000000000000000000000000000000000000000000003610a64575061043990611119565b7faaad13f7000000000000000000000000000000000000000000000000000000005f525ffd5b7fbe18e309000000000000000000000000000000000000000000000000000000005f525ffd5b5082517f8380edb70000000000000000000000000000000000000000000000000000000081528481838173ffffffffffffffffffffffffffffffffffffffff7f0000000000000000000000000000000000000000000000000000000000000000165afa9081156102fc575f91610b27575b50610a2e565b90508481813d8311610b55575b610b3e8183610c84565b810103126102f057610b4f90610d1f565b5f610b21565b503d610b34565b813581529082019082016109fc565b50346102f0575f6003193601126102f057602090517f00000000000000000000000000000000000000000000000000000000000000008152f35b50346102f0575f6003193601126102f057602090517f000000000000000000000000000000000000000000000000000000000000000015158152f35b50346102f0575f6003193601126102f0576020905160128152f35b50346102f0575f6003193601126102f057602090517f00000000000000000000000000000000000000000000000000000000000000008152f35b346102f0575f6003193601126102f05760209073ffffffffffffffffffffffffffffffffffffffff7f0000000000000000000000000000000000000000000000000000000000000000168152f35b90601f601f19910116810190811067ffffffffffffffff821117610ca757604052565b7f4e487b71000000000000000000000000000000000000000000000000000000005f52604160045260245ffd5b67ffffffffffffffff8111610ca75760051b60200190565b9081518082526020808093019301915f5b828110610d0b575050505090565b835185529381019392810192600101610cfd565b519081151582036102f057565b9080601f830112156102f057815190602091610d4781610cd4565b93610d556040519586610c84565b81855260208086019260051b8201019283116102f057602001905b828210610d7e575050505090565b815173ffffffffffffffffffffffffffffffffffffffff811681036102f0578152908301908301610d70565b90610db482610cd4565b610dc16040519182610c84565b828152601f19610dd18294610cd4565b0190602036910137565b805115610de85760200190565b7f4e487b71000000000000000000000000000000000000000000000000000000005f52603260045260245ffd5b805160011015610de85760400190565b805160021015610de85760600190565b805160031015610de85760800190565b805160041015610de85760a00190565b805160051015610de85760c00190565b805160061015610de85760e00190565b805160071015610de8576101000190565b8051821015610de85760209160051b010190565b519069ffffffffffffffffffff821682036102f057565b908160a09103126102f057610ec581610e9a565b91602082015191604081015191610ee3608060608401519301610e9a565b90565b90670de0b6b3a764000091828102928184051490151715610f0357565b7f4e487b71000000000000000000000000000000000000000000000000000000005f52601160045260245ffd5b81810292915f82127f8000000000000000000000000000000000000000000000000000000000000000821416610f03578184051490151715610f0357565b610f76611a63565b7f000000000000000000000000000000000000000000000000000000000000000090610fa18261186e565b90610fab83611ba2565b92610fb581610daa565b93610fbf82610daa565b935f5b838110610fcf5750505050565b73ffffffffffffffffffffffffffffffffffffffff610fee8284610e86565b5116604090815180917ffeaf968c00000000000000000000000000000000000000000000000000000000825281600460a09485935afa9283156110af5750600193925f92839291611075575b50506110599061105361104d8589610e86565b51611d43565b90610f30565b611063838b610e86565b5261106e8289610e86565b5201610fc2565b61105993506110999250803d106110a8575b6110918183610c84565b810190610eb1565b9094509192508291905061103a565b503d611087565b513d5f823e3d90fd5b9080601f830112156102f0578151906020916110d381610cd4565b936110e16040519586610c84565b81855260208086019260051b8201019283116102f057602001905b82821061110a575050505090565b815181529083019083016110fc565b5f905f61112582610ddb565b5113156118465761113581610ddb565b519061114081610ddb565b51905f6001927f0000000000000000000000000000000000000000000000000000000000000000935b8481106117d157506402540be40085126117a95761118b856298968092611d98565b136117815761119983610daa565b935f5b8481106117405750505073ffffffffffffffffffffffffffffffffffffffff92837f000000000000000000000000000000000000000000000000000000000000000016916040908151917f67e0e07600000000000000000000000000000000000000000000000000000000835260049480868501526024975f858a81847f0000000000000000000000000000000000000000000000000000000000000000165afa948515611736575f956115d0575b5050602061128b948351809681927f984de9e8000000000000000000000000000000000000000000000000000000008352868b8401526044830190610cec565b60018c8301520381845afa9384156103df579086915f95611598575b506060908351928380927f6daccffa0000000000000000000000000000000000000000000000000000000082525afa9182156110af575f92611552575b5050600186018087116115275761130b6103e892611305611310938a611edb565b90611ec8565b611eab565b049261131c8680611edb565b93670de0b6b3a76400009480860290868204036114fc57611344908299989796959499611e2b565b90611350838383611f7e565b905f915f5b8981106114aa575061136689610daa565b955f5b8a81106113fe57505050505050505f955b84871061138b575050505050505090565b90919293949596836113ba6113a96113a38b86610e86565b51611e76565b6113b38b87610e86565b5190611ec8565b0481018091116113d3579660010195949392919061137a565b866011867f4e487b71000000000000000000000000000000000000000000000000000000005f52525ffd5b61140f82879e999a9b9c9d9e610f30565b61142e8b611427611420858c610e86565b5187610f30565b0586611e2b565b868c03908c5f891281841281169184139015161761147f57600193928d61145b6114679461146294610f30565b0590611d98565b611e76565b611471828c610e86565b52019b9a999897969b611369565b8f60118f7f4e487b71000000000000000000000000000000000000000000000000000000005f52525ffd5b926114ee6001916114e86114da8b9c9d9e9f9a9b87906114d46114cd8b8e610e86565b5189610f30565b05611e2b565b6114e387610ee6565b611d98565b90611e5b565b93019a99989796959a611355565b886011887f4e487b71000000000000000000000000000000000000000000000000000000005f52525ffd5b876011877f4e487b71000000000000000000000000000000000000000000000000000000005f52525ffd5b9091506060823d606011611590575b8161156e60609383610c84565b810103126102f05781519061158560208401610d1f565b50909101515f6112e4565b3d9150611561565b915093506020813d6020116115c8575b816115b560209383610c84565b810103126102f0575192859060606112a7565b3d91506115a8565b9094503d805f833e6115e28183610c84565b8101946080828703126102f05781519167ffffffffffffffff928381116102f0578761160f918301610d2c565b916020808301518581116102f057830189601f820112156102f05780519161163683610cd4565b936116438a519586610c84565b83855281850190826060809602850101938d85116102f0578301915b8d8584106116ad5750505050505050858201518481116102f057886116859184016110b8565b9160608101519485116102f05761128b986020956116a392016110b8565b925050509461124b565b83879103126102f0578b51908682018281108c821117611707578d52835160028110156102f0578252848401519083821682036102f057828e8793848b9601526116f8818801610d1f565b9082015281520192019161165f565b505050508f60418f7f4e487b71000000000000000000000000000000000000000000000000000000005f52525ffd5b83513d5f823e3d90fd5b60019083810361176557670de0b6b3a76400005b61175e8289610e86565b520161119c565b61177c836114e36117768489610e86565b51610ee6565b611754565b7fb4c522e0000000000000000000000000000000000000000000000000000000005f5260045ffd5b7f478b96d8000000000000000000000000000000000000000000000000000000005f5260045ffd5b915f6117e08486989498610e86565b51131561184657816117f28486610e86565b5112156118115750506118058183610e86565b51936001825b01611169565b91856118208286989498610e86565b511361182f575b60019061180b565b9050600161183d8285610e86565b51919050611827565b7f1f8f95a0000000000000000000000000000000000000000000000000000000005f5260045ffd5b61187781610cd4565b906118856040519283610c84565b808252601f1961189482610cd4565b013660208401376118a482610ddb565b9073ffffffffffffffffffffffffffffffffffffffff91827f00000000000000000000000000000000000000000000000000000000000000001690526118e983610e15565b7f0000000000000000000000000000000000000000000000000000000000000000831690526002811115611a5e5761192083610e25565b7f0000000000000000000000000000000000000000000000000000000000000000831690526003811115611a5e5761195783610e35565b7f0000000000000000000000000000000000000000000000000000000000000000831690526004811115611a5e5761198e83610e45565b7f0000000000000000000000000000000000000000000000000000000000000000831690526005811115611a5e576119c583610e55565b7f0000000000000000000000000000000000000000000000000000000000000000831690526006811115611a5e576007906119ff84610e65565b837f000000000000000000000000000000000000000000000000000000000000000016905211611a2d575090565b611a3682610e75565b907f000000000000000000000000000000000000000000000000000000000000000016905290565b505090565b73ffffffffffffffffffffffffffffffffffffffff7f0000000000000000000000000000000000000000000000000000000000000000168015611b9f5760a0600491604051928380927ffeaf968c0000000000000000000000000000000000000000000000000000000082525afa908115611b94575f905f92611b6a575b50600114611b42574203428111610f03577f000000000000000000000000000000000000000000000000000000000000000011611b1a57565b7fed1bba46000000000000000000000000000000000000000000000000000000005f5260045ffd5b7f032b3d00000000000000000000000000000000000000000000000000000000005f5260045ffd5b60019250611b87915060a03d60a0116110a8576110918183610c84565b509093919250611ae19050565b6040513d5f823e3d90fd5b50565b611bab81610daa565b907f0000000000000000000000000000000000000000000000000000000000000000611bd683610ddb565b527f0000000000000000000000000000000000000000000000000000000000000000611c0183610e15565b526002811115611d3f577f0000000000000000000000000000000000000000000000000000000000000000611c3583610e25565b526003811115611d3f577f0000000000000000000000000000000000000000000000000000000000000000611c6983610e35565b526004811115611d3f577f0000000000000000000000000000000000000000000000000000000000000000611c9d83610e45565b526005811115611d3f577f0000000000000000000000000000000000000000000000000000000000000000611cd183610e55565b526006811115611d3f576007907f0000000000000000000000000000000000000000000000000000000000000000611d0884610e65565b5211611d115790565b7f0000000000000000000000000000000000000000000000000000000000000000611d3b82610e75565b5290565b5090565b7f7fffffffffffffffffffffffffffffffffffffffffffffffffffffffffffffff8111611d6d5790565b7f24775e06000000000000000000000000000000000000000000000000000000005f5260045260245ffd5b8115611dce575f1982147f8000000000000000000000000000000000000000000000000000000000000000821416610f03570590565b7f4e487b71000000000000000000000000000000000000000000000000000000005f52601260045260245ffd5b907ffffffffffffffffffffffffffffffffffffffffffffffffff21f494c589c00008201918213600116610f0357565b81810392915f138015828513169184121617610f0357565b9081670de0b6b3a764000001918212600116610f0357565b9190915f8382019384129112908015821691151617610f0357565b5f8112611e805790565b7fa8ce4432000000000000000000000000000000000000000000000000000000005f5260045260245ffd5b90670de0b6b3a764000091828102928184041490151715610f0357565b81810292918115918404141715610f0357565b908015611f77578115611f71578180600114611f6957600214611f585760208110610133831016604e8210600b84101617611f53576001905b60018111611f2b5750815f19048111610f03570290565b91805f19048111610f035760018316611f4a575b80029160011c611f14565b80910290611f3f565b900a90565b905060ff8111610f03576001901b90565b505050600190565b50505f90565b5050600190565b91611f8881610ddb565b5160015b7f000000000000000000000000000000000000000000000000000000000000000081106122e45750611fbd83611e43565b908115611dce576114e3611fe7611fed936ec097ce7bc90715b34b9f100000000097969705611e43565b85610f30565b925f926001807f00000000000000000000000000000000000000000000000000000000000000000112925f7f000000000000000000000000000000000000000000000000000000000000000012955b60ff8610156122bc57835f8080805b7f000000000000000000000000000000000000000000000000000000000000000081106121ae575061207c90611dfb565b925f905b8487878a7f00000000000000000000000000000000000000000000000000000000000000008610612163575050506120b89250611e2b565b9288158b16898c151617610f0357612710936114e361212161212793670de0b6b3a764000061211a6121409861211461212d9960017f000000000000000000000000000000000000000000000000000000000000000001610f30565b93610f30565b0590611e5b565b91610ee6565b84611e2b565b926114e361213b8286611e2b565b610ee6565b8060ff1d8091011811156121595760019095019461203c565b9550505050505090565b61219f6121a69461219a600197956121946114e3966110538c976114e3611776670de0b6b3a76400009a8b97610e86565b05611dfb565b610f30565b0591610ee6565b910190612080565b939680939789929382889d9e986121c5898c610e86565b516121cf91610f30565b670de0b6b3a76400009005906121e491611e2b565b94856121ef85610ee6565b906121f991611d98565b61220291611e5b565b94808461220f8a8d610e86565b519061221a91610f30565b9061222491611d98565b61222d90610ee6565b9061223791611d98565b61224091611e2b565b988c8361224d898c610e86565b51916122598a8d610e86565b5161226391610f30565b670de0b6b3a764000090059061227891611e2b565b9061228290610ee6565b9061228c91611d98565b61229591611e5b565b9961229f91610f30565b906122a991611d98565b936001019a99949a97929691909761204b565b7fdc95cdb4000000000000000000000000000000000000000000000000000000005f5260045ffd5b816122ef8285610e86565b51126122fe575b600101611f8c565b9050600161230c8284610e86565b519190506122f656fea264697066735822122009e865b6d04afb2ffbb75495a82398ea5b6dd891e08161d607f7a61fabbba2a264736f6c634300081b0033",
  "linkReferences": {},
  "deployedLinkReferences": {}
}