{
  "_format": "hh-sol-artifact-1",
  "contractName": "StableLPOracle",
  "sourceName": "contracts/StableLPOracle.sol",
  "abi": [
    {
      "inputs": [
        {
          "internalType": "contract IVault",
          "name": "vault_",
          "type": "address"
        },
        {
          "internalType": "contract IStablePool",
          "name": "pool_",
          "type": "address"
        },
        {
          "internalType": "contract AggregatorV3Interface[]",
          "name": "feeds",
          "type": "address[]"
        },
        {
          "internalType": "contract AggregatorV3Interface",
          "name": "sequencerUptimeFeed",
          "type": "address"
        },
        {
          "internalType": "uint256",
          "name": "uptimeResyncWindow",
          "type": "uint256"
        },
        {
          "internalType": "bool",
          "name": "shouldUseBlockTimeForOldestFeedUpdate",
          "type": "bool"
        },
        {
          "internalType": "bool",
          "name": "shouldRevertIfVaultUnlocked",
          "type": "bool"
        },
        {
          "internalType": "uint256",
          "name": "version_",
          "type": "uint256"
        }
      ],
      "stateMutability": "nonpayable",
      "type": "constructor"
    },
    {
      "inputs": [],
      "name": "InputLengthMismatch",
      "type": "error"
    },
    {
      "inputs": [],
      "name": "InvalidOraclePrice",
      "type": "error"
    },
    {
      "inputs": [],
      "name": "KDidNotConverge",
      "type": "error"
    },
    {
      "inputs": [],
      "name": "MinPriceTooLow",
      "type": "error"
    },
    {
      "inputs": [],
      "name": "PriceRatioTooHigh",
      "type": "error"
    },
    {
      "inputs": [
        {
          "internalType": "int256",
          "name": "value",
          "type": "int256"
        }
      ],
      "name": "SafeCastOverflowedIntToUint",
      "type": "error"
    },
    {
      "inputs": [
        {
          "internalType": "uint256",
          "name": "value",
          "type": "uint256"
        }
      ],
      "name": "SafeCastOverflowedUintToInt",
      "type": "error"
    },
    {
      "inputs": [],
      "name": "SequencerDown",
      "type": "error"
    },
    {
      "inputs": [],
      "name": "SequencerResyncIncomplete",
      "type": "error"
    },
    {
      "inputs": [],
      "name": "UnsupportedDecimals",
      "type": "error"
    },
    {
      "inputs": [],
      "name": "VaultIsUnlocked",
      "type": "error"
    },
    {
      "inputs": [],
      "name": "ZeroDivision",
      "type": "error"
    },
    {
      "inputs": [],
      "name": "computeTVL",
      "outputs": [
        {
          "internalType": "uint256",
          "name": "",
          "type": "uint256"
        }
      ],
      "stateMutability": "view",
      "type": "function"
    },
    {
      "inputs": [
        {
          "internalType": "int256[]",
          "name": "prices",
          "type": "int256[]"
        }
      ],
      "name": "computeTVLGivenPrices",
      "outputs": [
        {
          "internalType": "uint256",
          "name": "",
          "type": "uint256"
        }
      ],
      "stateMutability": "view",
      "type": "function"
    },
    {
      "inputs": [],
      "name": "decimals",
      "outputs": [
        {
          "internalType": "uint8",
          "name": "",
          "type": "uint8"
        }
      ],
      "stateMutability": "pure",
      "type": "function"
    },
    {
      "inputs": [],
      "name": "description",
      "outputs": [
        {
          "internalType": "string",
          "name": "",
          "type": "string"
        }
      ],
      "stateMutability": "view",
      "type": "function"
    },
    {
      "inputs": [],
      "name": "getFeedData",
      "outputs": [
        {
          "internalType": "int256[]",
          "name": "prices",
          "type": "int256[]"
        },
        {
          "internalType": "uint256[]",
          "name": "updatedAt",
          "type": "uint256[]"
        }
      ],
      "stateMutability": "view",
      "type": "function"
    },
    {
      "inputs": [],
      "name": "getFeedTokenDecimalScalingFactors",
      "outputs": [
        {
          "internalType": "uint256[]",
          "name": "",
          "type": "uint256[]"
        }
      ],
      "stateMutability": "view",
      "type": "function"
    },
    {
      "inputs": [],
      "name": "getFeeds",
      "outputs": [
        {
          "internalType": "contract AggregatorV3Interface[]",
          "name": "",
          "type": "address[]"
        }
      ],
      "stateMutability": "view",
      "type": "function"
    },
    {
      "inputs": [],
      "name": "getPoolTokens",
      "outputs": [
        {
          "internalType": "contract IERC20[]",
          "name": "",
          "type": "address[]"
        }
      ],
      "stateMutability": "view",
      "type": "function"
    },
    {
      "inputs": [
        {
          "internalType": "uint80",
          "name": "",
          "type": "uint80"
        }
      ],
      "name": "getRoundData",
      "outputs": [
        {
          "internalType": "uint80",
          "name": "",
          "type": "uint80"
        },
        {
          "internalType": "int256",
          "name": "",
          "type": "int256"
        },
        {
          "internalType": "uint256",
          "name": "",
          "type": "uint256"
        },
        {
          "internalType": "uint256",
          "name": "",
          "type": "uint256"
        },
        {
          "internalType": "uint80",
          "name": "",
          "type": "uint80"
        }
      ],
      "stateMutability": "pure",
      "type": "function"
    },
    {
      "inputs": [],
      "name": "getSequencerUptimeFeed",
      "outputs": [
        {
          "internalType": "contract AggregatorV3Interface",
          "name": "",
          "type": "address"
        }
      ],
      "stateMutability": "view",
      "type": "function"
    },
    {
      "inputs": [],
      "name": "getShouldRevertIfVaultUnlocked",
      "outputs": [
        {
          "internalType": "bool",
          "name": "",
          "type": "bool"
        }
      ],
      "stateMutability": "view",
      "type": "function"
    },
    {
      "inputs": [],
      "name": "getShouldUseBlockTimeForOldestFeedUpdate",
      "outputs": [
        {
          "internalType": "bool",
          "name": "",
          "type": "bool"
        }
      ],
      "stateMutability": "view",
      "type": "function"
    },
    {
      "inputs": [],
      "name": "getUptimeResyncWindow",
      "outputs": [
        {
          "internalType": "uint256",
          "name": "",
          "type": "uint256"
        }
      ],
      "stateMutability": "view",
      "type": "function"
    },
    {
      "inputs": [],
      "name": "latestRoundData",
      "outputs": [
        {
          "internalType": "uint80",
          "name": "",
          "type": "uint80"
        },
        {
          "internalType": "int256",
          "name": "",
          "type": "int256"
        },
        {
          "internalType": "uint256",
          "name": "",
          "type": "uint256"
        },
        {
          "internalType": "uint256",
          "name": "",
          "type": "uint256"
        },
        {
          "internalType": "uint80",
          "name": "",
          "type": "uint80"
        }
      ],
      "stateMutability": "view",
      "type": "function"
    },
    {
      "inputs": [],
      "name": "pool",
      "outputs": [
        {
          "internalType": "contract IBasePool",
          "name": "",
          "type": "address"
        }
      ],
      "stateMutability": "view",
      "type": "function"
    },
    {
      "inputs": [],
      "name": "version",
      "outputs": [
        {
          "internalType": "uint256",
          "name": "",
          "type": "uint256"
        }
      ],
      "stateMutability": "view",
      "type": "function"
    }
  ],
  "bytecode": "0x6103806040908082523461066357612ae9803803809161001f8285610732565b8339810191610100928383820312610663578251926001600160a01b03918285169081860361066357602092838101519585871680970361066357818101516001600160401b03959086811161066357830194601f9480868801121561066357865161008a81610769565b976100978651998a610732565b81895284808a019260051b8201019283116106635784809101915b83831061071a5750505050606084016100ca90610780565b6080850151906100dc60a08701610794565b956100e960c08201610794565b9060e00151966101409788526101209d8e528c60805260e0528d5260a05260c052825180809263ca4f280360e01b825260049b8c8301525a926024915f94fa908115610710575f91610684575b50519561016094878652895f8a608051168651928380926395d89b4160e01b82525afa90811561067a579084915f916105e7575b50602461019b9187519381859251918291018984015e8101630bd554d160e21b88820152038d810184520182610732565b80519283116105d4575f54936001948581811c911680156105ca575b828210146105b757838111610574575b508092841160011461051257509282939183925f94610507575b50501b915f199060031b1c1916175f555b835185036104f95785610204856107a1565b5116936101809485526102218761021a836107a1565b5116610833565b96610280978852600781610234846107c2565b5116976101a098895261024a8361021a866107c2565b9a6102a09b8c52600282116104d3575b600382116104ad575b8111610487575b60058111610461575b6006811161043b575b11610414575b505051966121f498896108f58a39608051898181610163015281816106d201528181610cbb015261113a015260a0518981816106170152611923015260c051898181610c6e015261199d015260e0518981816101d20152610c1701525188818160e1015281816103fc015281816105c60152610a640152518781816101890152818161036f01528181610482015281816106fe01528181610b4c015261119501525186610bdd0152518581816102320152818161050c0152818161081c01528181610a9101528181610f55015281816110c301528181611e3701528181611e9e01528181611ec301528181611ef601528181611f2f0152611f98015251846117670152518361179401526101c051836117cb01526101e051836118020152610200518361183901526102205183611870015261024051836118ab015261026051836118e201525182611a5701525181611a8201526102c05181611ab601526102e05181611aea01526103005181611b1e01526103205181611b5201526103405181611b8901526103605181611bbc0152f35b61021a828261042561043095610822565b511661026052610822565b610360525f80610282565b8261044585610812565b5116610240526104588361021a86610812565b6103405261027c565b8261046b85610802565b51166102205261047e8361021a86610802565b61032052610273565b82610491856107f2565b5116610200526104a48361021a866107f2565b6103005261026a565b836104b7866107e2565b51166101e0526104ca8461021a876107e2565b6102e052610263565b836104dd866107d2565b51166101c0526104f08461021a876107d2565b6102c05261025a565b8663aaad13f760e01b5f525ffd5b015192505f806101e1565b919083601f1981165f8052845f20945f905b8883831061055a5750505010610542575b505050811b015f556101f2565b01515f1960f88460031b161c191690555f8080610535565b858701518855909601959485019487935090810190610524565b5f8052815f208480870160051c8201928488106105ae575b0160051c019086905b8281106105a35750506101c7565b5f8155018690610595565b9250819261058c565b60228d634e487b7160e01b5f525260245ffd5b90607f16906101b7565b60418b634e487b7160e01b5f525260245ffd5b9150503d805f833e6105f98183610732565b81019084818303126106635780519084821161066357018183820112156106635780519084821161066757865192610639838601601f1916880185610732565b8284528683830101116106635785925f848461019b9582602496018386015e83010152915061016a565b5f80fd5b60418d634e487b7160e01b5f525260245ffd5b85513d5f823e3d90fd5b90503d805f833e6106958183610732565b8101908281830312610663578051908882116106635701908086830112156106635781516106c281610769565b926106cf86519485610732565b818452848085019260051b820101928311610663578401905b8282106106f8575050505f610136565b81518b811681036106635781529084019084016106e8565b83513d5f823e3d90fd5b819061072584610780565b81520191019084906100b2565b601f909101601f19168101906001600160401b0382119082101761075557604052565b634e487b7160e01b5f52604160045260245ffd5b6001600160401b0381116107555760051b60200190565b51906001600160a01b038216820361066357565b5190811515820361066357565b8051156107ae5760200190565b634e487b7160e01b5f52603260045260245ffd5b8051600110156107ae5760400190565b8051600210156107ae5760600190565b8051600310156107ae5760800190565b8051600410156107ae5760a00190565b8051600510156107ae5760c00190565b8051600610156107ae5760e00190565b8051600710156107ae576101000190565b60405163313ce56760e01b815290602090829060049082906001600160a01b03165afa80156108e9575f906108ac575b60ff9150166012811161089d576012036012811161088957604d811161088957600a0a90565b634e487b7160e01b5f52601160045260245ffd5b636a78e98160e11b5f5260045ffd5b506020813d6020116108e1575b816108c660209383610732565b81010312610663575160ff811681036106635760ff90610863565b3d91506108b9565b6040513d5f823e3d90fdfe6080604081815260049182361015610015575f80fd5b5f3560e01c90816316f0115b14610c915750806319bbcf6014610c57578063313ce56714610c3c57806341d88e3514610c0057806354fd4d5014610bc657806365bcdaee146109ee5780637284e4161461089a5780637fe955d41461080657806389c06568146106825780639a6fc8f51461063b578063a056076c146105eb578063a1f6f025146105af578063af1296d314610547578063cd2c9e70146104f2578063d7e8c92b146103e95763feaf968c146100cf575f80fd5b346102f0575f6003193601126102f0577f00000000000000000000000000000000000000000000000000000000000000008061032d575b6103065761011f602492610118610f4b565b9290611095565b90602073ffffffffffffffffffffffffffffffffffffffff8551968780927fe4dc2aa4000000000000000000000000000000000000000000000000000000008252807f000000000000000000000000000000000000000000000000000000000000000016868301527f0000000000000000000000000000000000000000000000000000000000000000165afa9485156102fc575f956102c4575b50841561029e57506101ca90611d54565b925f199160017f00000000000000000000000000000000000000000000000000000000000000001561022e57505061021260a09460015f9342955b8301040190151502611bec565b92805193828552602085015283015260608201525f6080820152f35b83917f0000000000000000000000000000000000000000000000000000000000000000905f5b82811061026f575050505060a09460015f9361021293610205565b8661027a8284610e63565b5110610288575b8301610254565b9550826102958783610e63565b51969050610281565b7f0a0c22c7000000000000000000000000000000000000000000000000000000005f525ffd5b9094506020813d6020116102f4575b816102e060209383610cdf565b810103126102f05751935f6101b9565b5f80fd5b3d91506102d3565b84513d5f823e3d90fd5b507fbe18e309000000000000000000000000000000000000000000000000000000005f525ffd5b5080517f8380edb7000000000000000000000000000000000000000000000000000000008152602081848173ffffffffffffffffffffffffffffffffffffffff7f0000000000000000000000000000000000000000000000000000000000000000165afa9081156103df575f916103a5575b50610106565b90506020813d6020116103d7575b816103c060209383610cdf565b810103126102f0576103d190610d7a565b5f61039f565b3d91506103b3565b82513d5f823e3d90fd5b50346102f0575f6003193601126102f0577f000000000000000000000000000000000000000000000000000000000000000080610440575b61030657602090610439610433610f4b565b50611095565b9051908152f35b5080517f8380edb7000000000000000000000000000000000000000000000000000000008152602081848173ffffffffffffffffffffffffffffffffffffffff7f0000000000000000000000000000000000000000000000000000000000000000165afa9081156103df575f916104b8575b50610421565b90506020813d6020116104ea575b816104d360209383610cdf565b810103126102f0576104e490610d7a565b5f6104b2565b3d91506104c6565b50346102f0575f6003193601126102f057610543906105307f0000000000000000000000000000000000000000000000000000000000000000611a4b565b9051918291602083526020830190610d47565b0390f35b50346102f0575f6003193601126102f057610560610f4b565b8251928391818301918352835180925260608301916020809501945f5b82811061059857858061054387878382036020850152610d47565b86518552958101958795509381019360010161057d565b50346102f0575f6003193601126102f057602090517f000000000000000000000000000000000000000000000000000000000000000015158152f35b50346102f0575f6003193601126102f0576020905173ffffffffffffffffffffffffffffffffffffffff7f0000000000000000000000000000000000000000000000000000000000000000168152f35b5090346102f05760206003193601126102f0573569ffffffffffffffffffff8116036102f057805f60a09251918183528160208401528201525f60608201525f6080820152f35b50346102f0575f6003193601126102f05773ffffffffffffffffffffffffffffffffffffffff918151907fca4f2803000000000000000000000000000000000000000000000000000000008252837f000000000000000000000000000000000000000000000000000000000000000016908201525f81602481867f0000000000000000000000000000000000000000000000000000000000000000165afa9081156103df575f9161076d575b50815191602090602080850191818652845180935285019301915f5b8281106107575785850386f35b835187168552938101939281019260010161074a565b90503d805f833e61077e8183610cdf565b81019060209081818403126102f05780519067ffffffffffffffff82116102f057019180601f840112156102f05782516107b781610d2f565b936107c486519586610cdf565b818552838086019260051b8201019283116102f0578301905b8282106107ee57505050505f61072e565b815187811681036102f05781529083019083016107dd565b50346102f0575f6003193601126102f0576108407f0000000000000000000000000000000000000000000000000000000000000000611717565b908051918291602090602080850191818652845180935285019301915f5b82811061086d57505050500390f35b835173ffffffffffffffffffffffffffffffffffffffff168552869550938101939281019260010161085e565b50346102f0575f6003193601126102f05780515f5f549060018260011c90600184169384156109e4575b60209788841086146109b857509187918694938286528386019690815f1461097e5750600114610928575b50505091610904601f92601f19940385610cdf565b845195869481865251918280928701528686015e5f85828601015201168101030190f35b5f8080529293507f290decd9548b62a8d60345a988386fc84ba6bc95484008f6362f93160ef3e5635b828410610968575050508201018582601f196108ef565b8054888501860152879550928401928101610951565b7fffffffffffffffffffffffffffffffffffffffffffffffffffffffffffffff001687525050151560051b83010190508582601f196108ef565b6022907f4e487b71000000000000000000000000000000000000000000000000000000005f525260245ffd5b91607f16916108c4565b50346102f057602091826003193601126102f05780359067ffffffffffffffff82116102f057366023830112156102f05781810135610a2c81610d2f565b92610a3985519485610cdf565b81845260248685019260051b820101913683116102f0576024879201905b838210610bb757505050507f000000000000000000000000000000000000000000000000000000000000000080610b0b575b610ae55781517f000000000000000000000000000000000000000000000000000000000000000003610abf575061043990611095565b7faaad13f7000000000000000000000000000000000000000000000000000000005f525ffd5b7fbe18e309000000000000000000000000000000000000000000000000000000005f525ffd5b5082517f8380edb70000000000000000000000000000000000000000000000000000000081528481838173ffffffffffffffffffffffffffffffffffffffff7f0000000000000000000000000000000000000000000000000000000000000000165afa9081156102fc575f91610b82575b50610a89565b90508481813d8311610bb0575b610b998183610cdf565b810103126102f057610baa90610d7a565b5f610b7c565b503d610b8f565b81358152908201908201610a57565b50346102f0575f6003193601126102f057602090517f00000000000000000000000000000000000000000000000000000000000000008152f35b50346102f0575f6003193601126102f057602090517f000000000000000000000000000000000000000000000000000000000000000015158152f35b50346102f0575f6003193601126102f0576020905160128152f35b50346102f0575f6003193601126102f057602090517f00000000000000000000000000000000000000000000000000000000000000008152f35b346102f0575f6003193601126102f05760209073ffffffffffffffffffffffffffffffffffffffff7f0000000000000000000000000000000000000000000000000000000000000000168152f35b90601f601f19910116810190811067ffffffffffffffff821117610d0257604052565b7f4e487b71000000000000000000000000000000000000000000000000000000005f52604160045260245ffd5b67ffffffffffffffff8111610d025760051b60200190565b9081518082526020808093019301915f5b828110610d66575050505090565b835185529381019392810192600101610d58565b519081151582036102f057565b90610d9182610d2f565b610d9e6040519182610cdf565b828152601f19610dae8294610d2f565b0190602036910137565b805115610dc55760200190565b7f4e487b71000000000000000000000000000000000000000000000000000000005f52603260045260245ffd5b805160011015610dc55760400190565b805160021015610dc55760600190565b805160031015610dc55760800190565b805160041015610dc55760a00190565b805160051015610dc55760c00190565b805160061015610dc55760e00190565b805160071015610dc5576101000190565b8051821015610dc55760209160051b010190565b519069ffffffffffffffffffff821682036102f057565b908160a09103126102f057610ea281610e77565b91602082015191604081015191610ec0608060608401519301610e77565b90565b90670de0b6b3a764000091828102928184051490151715610ee057565b7f4e487b71000000000000000000000000000000000000000000000000000000005f52601160045260245ffd5b81810292915f82127f8000000000000000000000000000000000000000000000000000000000000000821416610ee0578184051490151715610ee057565b610f5361190c565b7f000000000000000000000000000000000000000000000000000000000000000090610f7e82611717565b90610f8883611a4b565b92610f9281610d87565b93610f9c82610d87565b935f5b838110610fac5750505050565b73ffffffffffffffffffffffffffffffffffffffff610fcb8284610e63565b5116604090815180917ffeaf968c00000000000000000000000000000000000000000000000000000000825281600460a09485935afa92831561108c5750600193925f92839291611052575b50506110369061103061102a8589610e63565b51611bec565b90610f0d565b611040838b610e63565b5261104b8289610e63565b5201610f9f565b61103693506110769250803d10611085575b61106e8183610cdf565b810190610e8e565b90945091925082919050611017565b503d611064565b513d5f823e3d90fd5b5f905f6110a182610db8565b5113156116ef576110b181610db8565b516110bb82610db8565b51905f6001927f0000000000000000000000000000000000000000000000000000000000000000935b84811061167a57506402540be400831261165257611106836298968092611c41565b1361162a5761111483610d87565b915f5b8481106115e95750505073ffffffffffffffffffffffffffffffffffffffff90817f0000000000000000000000000000000000000000000000000000000000000000169360408051957f535cfd8a000000000000000000000000000000000000000000000000000000008752865f81600497848983015260249a8b917f0000000000000000000000000000000000000000000000000000000000000000165afa9081156115df575f9161154c575b509060208392611207959451809681927f984de9e8000000000000000000000000000000000000000000000000000000008352868b8401526044830190610d47565b60018c8301520381845afa9384156103df579086915f95611514575b506060908351928380927f6daccffa0000000000000000000000000000000000000000000000000000000082525afa91821561108c575f926114ce575b5050600186018087116114a3576112876103e89261128161128c938a611d84565b90611d71565b611d54565b04926112988680611d84565b93670de0b6b3a7640000948086029086820403611478576112c0908299989796959499611cd4565b906112cc838383611e27565b905f915f5b89811061142657506112e289610d87565b955f5b8a811061137a57505050505050505f955b848710611307575050505050505090565b909192939495968361133661132561131f8b86610e63565b51611d1f565b61132f8b87610e63565b5190611d71565b04810180911161134f57966001019594939291906112f6565b866011867f4e487b71000000000000000000000000000000000000000000000000000000005f52525ffd5b61138b82879e999a9b9c9d9e610f0d565b6113aa8b6113a361139c858c610e63565b5187610f0d565b0586611cd4565b868c03908c5f89128184128116918413901516176113fb57600193928d6113d76113e3946113de94610f0d565b0590611c41565b611d1f565b6113ed828c610e63565b52019b9a999897969b6112e5565b8f60118f7f4e487b71000000000000000000000000000000000000000000000000000000005f52525ffd5b9261146a6001916114646114568b9c9d9e9f9a9b87906114506114498b8e610e63565b5189610f0d565b05611cd4565b61145f87610ec3565b611c41565b90611d04565b93019a99989796959a6112d1565b886011887f4e487b71000000000000000000000000000000000000000000000000000000005f52525ffd5b876011877f4e487b71000000000000000000000000000000000000000000000000000000005f52525ffd5b9091506060823d60601161150c575b816114ea60609383610cdf565b810103126102f05781519061150160208401610d7a565b50909101515f611260565b3d91506114dd565b915093506020813d602011611544575b8161153160209383610cdf565b810103126102f057519285906060611223565b3d9150611524565b90503d805f833e61155d8183610cdf565b81019060209081818403126102f05780519067ffffffffffffffff82116102f057019180601f840112156102f057825161159681610d2f565b936115a387519586610cdf565b818552838086019260051b8201019283116102f0578301905b8282106115d05750602092506111c5915050565b815181529083019083016115bc565b83513d5f823e3d90fd5b60019083810361160e57670de0b6b3a76400005b6116078287610e63565b5201611117565b6116258361145f61161f848b610e63565b51610ec3565b6115fd565b7fb4c522e0000000000000000000000000000000000000000000000000000000005f5260045ffd5b7f478b96d8000000000000000000000000000000000000000000000000000000005f5260045ffd5b915f6116898488969496610e63565b5113156116ef578161169b8488610e63565b5112156116ba5750506116ae8185610e63565b51916001825b016110e4565b91836116c98288969496610e63565b51136116d8575b6001906116b4565b905060016116e68287610e63565b519190506116d0565b7f1f8f95a0000000000000000000000000000000000000000000000000000000005f5260045ffd5b61172081610d2f565b9061172e6040519283610cdf565b808252601f1961173d82610d2f565b0136602084013761174d82610db8565b9073ffffffffffffffffffffffffffffffffffffffff91827f000000000000000000000000000000000000000000000000000000000000000016905261179283610df2565b7f0000000000000000000000000000000000000000000000000000000000000000831690526002811115611907576117c983610e02565b7f00000000000000000000000000000000000000000000000000000000000000008316905260038111156119075761180083610e12565b7f00000000000000000000000000000000000000000000000000000000000000008316905260048111156119075761183783610e22565b7f00000000000000000000000000000000000000000000000000000000000000008316905260058111156119075761186e83610e32565b7f0000000000000000000000000000000000000000000000000000000000000000831690526006811115611907576007906118a884610e42565b837f0000000000000000000000000000000000000000000000000000000000000000169052116118d6575090565b6118df82610e52565b907f000000000000000000000000000000000000000000000000000000000000000016905290565b505090565b73ffffffffffffffffffffffffffffffffffffffff7f0000000000000000000000000000000000000000000000000000000000000000168015611a485760a0600491604051928380927ffeaf968c0000000000000000000000000000000000000000000000000000000082525afa908115611a3d575f905f92611a13575b506001146119eb574203428111610ee0577f0000000000000000000000000000000000000000000000000000000000000000116119c357565b7fed1bba46000000000000000000000000000000000000000000000000000000005f5260045ffd5b7f032b3d00000000000000000000000000000000000000000000000000000000005f5260045ffd5b60019250611a30915060a03d60a0116110855761106e8183610cdf565b50909391925061198a9050565b6040513d5f823e3d90fd5b50565b611a5481610d87565b907f0000000000000000000000000000000000000000000000000000000000000000611a7f83610db8565b527f0000000000000000000000000000000000000000000000000000000000000000611aaa83610df2565b526002811115611be8577f0000000000000000000000000000000000000000000000000000000000000000611ade83610e02565b526003811115611be8577f0000000000000000000000000000000000000000000000000000000000000000611b1283610e12565b526004811115611be8577f0000000000000000000000000000000000000000000000000000000000000000611b4683610e22565b526005811115611be8577f0000000000000000000000000000000000000000000000000000000000000000611b7a83610e32565b526006811115611be8576007907f0000000000000000000000000000000000000000000000000000000000000000611bb184610e42565b5211611bba5790565b7f0000000000000000000000000000000000000000000000000000000000000000611be482610e52565b5290565b5090565b7f7fffffffffffffffffffffffffffffffffffffffffffffffffffffffffffffff8111611c165790565b7f24775e06000000000000000000000000000000000000000000000000000000005f5260045260245ffd5b8115611c77575f1982147f8000000000000000000000000000000000000000000000000000000000000000821416610ee0570590565b7f4e487b71000000000000000000000000000000000000000000000000000000005f52601260045260245ffd5b907ffffffffffffffffffffffffffffffffffffffffffffffffff21f494c589c00008201918213600116610ee057565b81810392915f138015828513169184121617610ee057565b9081670de0b6b3a764000001918212600116610ee057565b9190915f8382019384129112908015821691151617610ee057565b5f8112611d295790565b7fa8ce4432000000000000000000000000000000000000000000000000000000005f5260045260245ffd5b90670de0b6b3a764000091828102928184041490151715610ee057565b81810292918115918404141715610ee057565b908015611e20578115611e1a578180600114611e1257600214611e015760208110610133831016604e8210600b84101617611dfc576001905b60018111611dd45750815f19048111610ee0570290565b91805f19048111610ee05760018316611df3575b80029160011c611dbd565b80910290611de8565b900a90565b905060ff8111610ee0576001901b90565b505050600190565b50505f90565b5050600190565b91611e3181610db8565b5160015b7f0000000000000000000000000000000000000000000000000000000000000000811061218d5750611e6683611cec565b908115611c775761145f611e90611e96936ec097ce7bc90715b34b9f100000000097969705611cec565b85610f0d565b925f926001807f00000000000000000000000000000000000000000000000000000000000000000112925f7f000000000000000000000000000000000000000000000000000000000000000012955b60ff86101561216557835f8080805b7f000000000000000000000000000000000000000000000000000000000000000081106120575750611f2590611ca4565b925f905b8487878a7f0000000000000000000000000000000000000000000000000000000000000000861061200c57505050611f619250611cd4565b9288158b16898c151617610ee0576127109361145f611fca611fd093670de0b6b3a7640000611fc3611fe998611fbd611fd69960017f000000000000000000000000000000000000000000000000000000000000000001610f0d565b93610f0d565b0590611d04565b91610ec3565b84611cd4565b9261145f611fe48286611cd4565b610ec3565b8060ff1d80910118111561200257600190950194611ee5565b9550505050505090565b61204861204f946120436001979561203d61145f966110308c9761145f61161f670de0b6b3a76400009a8b97610e63565b05611ca4565b610f0d565b0591610ec3565b910190611f29565b939680939789929382889d9e9861206e898c610e63565b5161207891610f0d565b670de0b6b3a764000090059061208d91611cd4565b948561209885610ec3565b906120a291611c41565b6120ab91611d04565b9480846120b88a8d610e63565b51906120c391610f0d565b906120cd91611c41565b6120d690610ec3565b906120e091611c41565b6120e991611cd4565b988c836120f6898c610e63565b51916121028a8d610e63565b5161210c91610f0d565b670de0b6b3a764000090059061212191611cd4565b9061212b90610ec3565b9061213591611c41565b61213e91611d04565b9961214891610f0d565b9061215291611c41565b936001019a99949a979296919097611ef4565b7fdc95cdb4000000000000000000000000000000000000000000000000000000005f5260045ffd5b816121988285610e63565b51126121a7575b600101611e35565b905060016121b58284610e63565b5191905061219f56fea26469706673582212207071153ea3efe9381d98c08fcdcd8d23b7a0134e565578ebf2282aefc06c75a764736f6c634300081b0033",
  "linkReferences": {},
  "deployedLinkReferences": {}
}