{
  "_format": "hh-sol-artifact-1",
  "contractName": "ProtocolFeeHelper",
  "sourceName": "contracts/ProtocolFeeHelper.sol",
  "abi": [
    {
      "inputs": [
        {
          "internalType": "contract IVault",
          "name": "vault",
          "type": "address"
        },
        {
          "internalType": "address",
          "name": "initialOwner",
          "type": "address"
        }
      ],
      "stateMutability": "nonpayable",
      "type": "constructor"
    },
    {
      "inputs": [
        {
          "internalType": "uint256",
          "name": "poolSetId",
          "type": "uint256"
        }
      ],
      "name": "IndexOutOfBounds",
      "type": "error"
    },
    {
      "inputs": [
        {
          "internalType": "uint256",
          "name": "poolSetId",
          "type": "uint256"
        }
      ],
      "name": "InvalidPoolSetId",
      "type": "error"
    },
    {
      "inputs": [],
      "name": "InvalidPoolSetManager",
      "type": "error"
    },
    {
      "inputs": [
        {
          "internalType": "address",
          "name": "owner",
          "type": "address"
        }
      ],
      "name": "OwnableInvalidOwner",
      "type": "error"
    },
    {
      "inputs": [
        {
          "internalType": "address",
          "name": "account",
          "type": "address"
        }
      ],
      "name": "OwnableUnauthorizedAccount",
      "type": "error"
    },
    {
      "inputs": [
        {
          "internalType": "address",
          "name": "pool",
          "type": "address"
        },
        {
          "internalType": "uint256",
          "name": "poolSetId",
          "type": "uint256"
        }
      ],
      "name": "PoolAlreadyInSet",
      "type": "error"
    },
    {
      "inputs": [
        {
          "internalType": "address",
          "name": "pool",
          "type": "address"
        },
        {
          "internalType": "uint256",
          "name": "poolSetId",
          "type": "uint256"
        }
      ],
      "name": "PoolNotInSet",
      "type": "error"
    },
    {
      "inputs": [
        {
          "internalType": "address",
          "name": "pool",
          "type": "address"
        }
      ],
      "name": "PoolNotRegistered",
      "type": "error"
    },
    {
      "inputs": [
        {
          "internalType": "address",
          "name": "poolSetManager",
          "type": "address"
        }
      ],
      "name": "PoolSetManagerNotUnique",
      "type": "error"
    },
    {
      "inputs": [],
      "name": "SenderIsNotPoolSetManager",
      "type": "error"
    },
    {
      "inputs": [],
      "name": "SenderNotAllowed",
      "type": "error"
    },
    {
      "inputs": [],
      "name": "VaultNotSet",
      "type": "error"
    },
    {
      "anonymous": false,
      "inputs": [
        {
          "indexed": true,
          "internalType": "address",
          "name": "previousOwner",
          "type": "address"
        },
        {
          "indexed": true,
          "internalType": "address",
          "name": "newOwner",
          "type": "address"
        }
      ],
      "name": "OwnershipTransferStarted",
      "type": "event"
    },
    {
      "anonymous": false,
      "inputs": [
        {
          "indexed": true,
          "internalType": "address",
          "name": "previousOwner",
          "type": "address"
        },
        {
          "indexed": true,
          "internalType": "address",
          "name": "newOwner",
          "type": "address"
        }
      ],
      "name": "OwnershipTransferred",
      "type": "event"
    },
    {
      "anonymous": false,
      "inputs": [
        {
          "indexed": true,
          "internalType": "address",
          "name": "pool",
          "type": "address"
        },
        {
          "indexed": true,
          "internalType": "uint256",
          "name": "poolSetId",
          "type": "uint256"
        }
      ],
      "name": "PoolAddedToSet",
      "type": "event"
    },
    {
      "anonymous": false,
      "inputs": [
        {
          "indexed": true,
          "internalType": "address",
          "name": "pool",
          "type": "address"
        },
        {
          "indexed": true,
          "internalType": "uint256",
          "name": "poolSetId",
          "type": "uint256"
        }
      ],
      "name": "PoolRemovedFromSet",
      "type": "event"
    },
    {
      "anonymous": false,
      "inputs": [
        {
          "indexed": true,
          "internalType": "uint256",
          "name": "poolSetId",
          "type": "uint256"
        },
        {
          "indexed": true,
          "internalType": "address",
          "name": "initialManager",
          "type": "address"
        }
      ],
      "name": "PoolSetCreated",
      "type": "event"
    },
    {
      "anonymous": false,
      "inputs": [
        {
          "indexed": true,
          "internalType": "uint256",
          "name": "poolSetId",
          "type": "uint256"
        },
        {
          "indexed": true,
          "internalType": "address",
          "name": "manager",
          "type": "address"
        }
      ],
      "name": "PoolSetDestroyed",
      "type": "event"
    },
    {
      "anonymous": false,
      "inputs": [
        {
          "indexed": true,
          "internalType": "uint256",
          "name": "poolSetId",
          "type": "uint256"
        },
        {
          "indexed": true,
          "internalType": "address",
          "name": "oldManager",
          "type": "address"
        },
        {
          "indexed": true,
          "internalType": "address",
          "name": "newManager",
          "type": "address"
        }
      ],
      "name": "PoolSetOwnershipTransferred",
      "type": "event"
    },
    {
      "inputs": [],
      "name": "acceptOwnership",
      "outputs": [],
      "stateMutability": "nonpayable",
      "type": "function"
    },
    {
      "inputs": [
        {
          "internalType": "uint256",
          "name": "poolSetId",
          "type": "uint256"
        },
        {
          "internalType": "address[]",
          "name": "newPools",
          "type": "address[]"
        }
      ],
      "name": "addPoolsToSet",
      "outputs": [],
      "stateMutability": "nonpayable",
      "type": "function"
    },
    {
      "inputs": [
        {
          "internalType": "address",
          "name": "initialManager",
          "type": "address"
        },
        {
          "internalType": "address[]",
          "name": "newPools",
          "type": "address[]"
        }
      ],
      "name": "createPoolSet",
      "outputs": [
        {
          "internalType": "uint256",
          "name": "poolSetId",
          "type": "uint256"
        }
      ],
      "stateMutability": "nonpayable",
      "type": "function"
    },
    {
      "inputs": [
        {
          "internalType": "address",
          "name": "initialManager",
          "type": "address"
        }
      ],
      "name": "createPoolSet",
      "outputs": [
        {
          "internalType": "uint256",
          "name": "",
          "type": "uint256"
        }
      ],
      "stateMutability": "nonpayable",
      "type": "function"
    },
    {
      "inputs": [
        {
          "internalType": "uint256",
          "name": "poolSetId",
          "type": "uint256"
        }
      ],
      "name": "destroyPoolSet",
      "outputs": [],
      "stateMutability": "nonpayable",
      "type": "function"
    },
    {
      "inputs": [
        {
          "internalType": "address",
          "name": "newOwner",
          "type": "address"
        }
      ],
      "name": "forceTransferOwnership",
      "outputs": [],
      "stateMutability": "nonpayable",
      "type": "function"
    },
    {
      "inputs": [
        {
          "internalType": "bytes4",
          "name": "selector",
          "type": "bytes4"
        }
      ],
      "name": "getActionId",
      "outputs": [
        {
          "internalType": "bytes32",
          "name": "",
          "type": "bytes32"
        }
      ],
      "stateMutability": "view",
      "type": "function"
    },
    {
      "inputs": [
        {
          "internalType": "uint256",
          "name": "poolSetId",
          "type": "uint256"
        }
      ],
      "name": "getAllPoolsInSet",
      "outputs": [
        {
          "internalType": "address[]",
          "name": "pools",
          "type": "address[]"
        }
      ],
      "stateMutability": "view",
      "type": "function"
    },
    {
      "inputs": [],
      "name": "getAuthorizer",
      "outputs": [
        {
          "internalType": "contract IAuthorizer",
          "name": "",
          "type": "address"
        }
      ],
      "stateMutability": "view",
      "type": "function"
    },
    {
      "inputs": [
        {
          "internalType": "uint256",
          "name": "poolSetId",
          "type": "uint256"
        }
      ],
      "name": "getManagerForPoolSet",
      "outputs": [
        {
          "internalType": "address",
          "name": "",
          "type": "address"
        }
      ],
      "stateMutability": "view",
      "type": "function"
    },
    {
      "inputs": [],
      "name": "getNextPoolSetId",
      "outputs": [
        {
          "internalType": "uint256",
          "name": "",
          "type": "uint256"
        }
      ],
      "stateMutability": "view",
      "type": "function"
    },
    {
      "inputs": [
        {
          "internalType": "uint256",
          "name": "poolSetId",
          "type": "uint256"
        }
      ],
      "name": "getPoolCountForSet",
      "outputs": [
        {
          "internalType": "uint256",
          "name": "",
          "type": "uint256"
        }
      ],
      "stateMutability": "view",
      "type": "function"
    },
    {
      "inputs": [],
      "name": "getPoolSetIdForCaller",
      "outputs": [
        {
          "internalType": "uint256",
          "name": "",
          "type": "uint256"
        }
      ],
      "stateMutability": "view",
      "type": "function"
    },
    {
      "inputs": [
        {
          "internalType": "address",
          "name": "manager",
          "type": "address"
        }
      ],
      "name": "getPoolSetIdForManager",
      "outputs": [
        {
          "internalType": "uint256",
          "name": "",
          "type": "uint256"
        }
      ],
      "stateMutability": "view",
      "type": "function"
    },
    {
      "inputs": [
        {
          "internalType": "uint256",
          "name": "poolSetId",
          "type": "uint256"
        },
        {
          "internalType": "uint256",
          "name": "from",
          "type": "uint256"
        },
        {
          "internalType": "uint256",
          "name": "to",
          "type": "uint256"
        }
      ],
      "name": "getPoolsInSet",
      "outputs": [
        {
          "internalType": "address[]",
          "name": "pools",
          "type": "address[]"
        }
      ],
      "stateMutability": "view",
      "type": "function"
    },
    {
      "inputs": [
        {
          "internalType": "address",
          "name": "pool",
          "type": "address"
        },
        {
          "internalType": "uint256",
          "name": "poolSetId",
          "type": "uint256"
        }
      ],
      "name": "isPoolInSet",
      "outputs": [
        {
          "internalType": "bool",
          "name": "",
          "type": "bool"
        }
      ],
      "stateMutability": "view",
      "type": "function"
    },
    {
      "inputs": [
        {
          "internalType": "uint256",
          "name": "poolSetId",
          "type": "uint256"
        }
      ],
      "name": "isValidPoolSetId",
      "outputs": [
        {
          "internalType": "bool",
          "name": "",
          "type": "bool"
        }
      ],
      "stateMutability": "view",
      "type": "function"
    },
    {
      "inputs": [],
      "name": "owner",
      "outputs": [
        {
          "internalType": "address",
          "name": "",
          "type": "address"
        }
      ],
      "stateMutability": "view",
      "type": "function"
    },
    {
      "inputs": [],
      "name": "pendingOwner",
      "outputs": [
        {
          "internalType": "address",
          "name": "",
          "type": "address"
        }
      ],
      "stateMutability": "view",
      "type": "function"
    },
    {
      "inputs": [
        {
          "internalType": "uint256",
          "name": "poolSetId",
          "type": "uint256"
        },
        {
          "internalType": "address[]",
          "name": "pools",
          "type": "address[]"
        }
      ],
      "name": "removePoolsFromSet",
      "outputs": [],
      "stateMutability": "nonpayable",
      "type": "function"
    },
    {
      "inputs": [],
      "name": "renounceOwnership",
      "outputs": [],
      "stateMutability": "nonpayable",
      "type": "function"
    },
    {
      "inputs": [
        {
          "internalType": "address",
          "name": "pool",
          "type": "address"
        },
        {
          "internalType": "uint256",
          "name": "newProtocolSwapFeePercentage",
          "type": "uint256"
        }
      ],
      "name": "setProtocolSwapFeePercentage",
      "outputs": [],
      "stateMutability": "nonpayable",
      "type": "function"
    },
    {
      "inputs": [
        {
          "internalType": "address",
          "name": "pool",
          "type": "address"
        },
        {
          "internalType": "uint256",
          "name": "newProtocolYieldFeePercentage",
          "type": "uint256"
        }
      ],
      "name": "setProtocolYieldFeePercentage",
      "outputs": [],
      "stateMutability": "nonpayable",
      "type": "function"
    },
    {
      "inputs": [
        {
          "internalType": "address",
          "name": "newOwner",
          "type": "address"
        }
      ],
      "name": "transferOwnership",
      "outputs": [],
      "stateMutability": "nonpayable",
      "type": "function"
    },
    {
      "inputs": [
        {
          "internalType": "address",
          "name": "newManager",
          "type": "address"
        }
      ],
      "name": "transferPoolSetOwnership",
      "outputs": [],
      "stateMutability": "nonpayable",
      "type": "function"
    },
    {
      "inputs": [],
      "name": "vault",
      "outputs": [
        {
          "internalType": "contract IVault",
          "name": "",
          "type": "address"
        }
      ],
      "stateMutability": "view",
      "type": "function"
    }
  ],
  "bytecode": "0x60c03461011e57601f611b7838819003918201601f19168301916001600160401b0383118484101761012257808492604094855283398101031261011e5780516001600160a01b03918282169081830361011e576020015183811680910361011e57801561010b5760018060a01b0319938460015416600155815f54958616175f5560405194167f8be0079c531659141344cd1fd0a4f28419497f9722a3daafe3b4186f6b6457e05f80a330608052156100fc5760a0526001600255611a4190816101378239608051816112b4015260a05181818161025101528181610383015281816106c201528181610cd30152818161171101526117e10152f35b630647140b60e51b5f5260045ffd5b631e4fbdf760e01b5f525f60045260245ffd5b5f80fd5b634e487b7160e01b5f52604160045260245ffdfe60406080815260049081361015610014575f80fd5b5f915f3560e01c8063182551da14611022578063255dae4114610fe257806325c427ed14610f9f5780632da55a1d14610ed75780633700f98714610e235780633e035f9b14610c4b57806362d5346214610c1a578063715018a614610b9557806379ba509714610b315780637c1ec460146109e6578063851c1bb31461099e5780638c60ebd0146108595780638da5cb5b1461082657806394fc4058146107a7578063a89b112814610737578063aaabadc51461066f578063abaa335614610596578063c482e82214610577578063ce998aba14610553578063e30c39781461051e578063e909c19b146104e0578063ebf3a8d014610349578063f167a1e614610308578063f2fde38b14610279578063fbfa77cf146102245763fd267f391461013c575f80fd5b82913461022057806003193601126102205761015661108a565b610167816101626114ca565b61165b565b73ffffffffffffffffffffffffffffffffffffffff6101846116ce565b1692833b1561021c576101ed9385928385518097819582947ffd267f390000000000000000000000000000000000000000000000000000000084526024359184016020909392919373ffffffffffffffffffffffffffffffffffffffff60408201951681520152565b03925af190811561021357506102005750f35b610209906110ad565b6102105780f35b80fd5b513d84823e3d90fd5b8480fd5b5050fd5b5050346102755781600319360112610275576020905173ffffffffffffffffffffffffffffffffffffffff7f0000000000000000000000000000000000000000000000000000000000000000168152f35b5080fd5b83346102105760206003193601126102105761029361108a565b61029b61159d565b73ffffffffffffffffffffffffffffffffffffffff80911690817fffffffffffffffffffffffff000000000000000000000000000000000000000060015416176001558254167f38d16b8cac22d99fc7c124b9cd0de2d3fa1faef420bfe791d8c362d765e227008380a380f35b5034610345576020600319360112610345578160209373ffffffffffffffffffffffffffffffffffffffff92358152600385522054169051908152f35b8280fd5b503461034557610358366111c4565b6103606113e2565b6103698261137d565b80519273ffffffffffffffffffffffffffffffffffffffff7f0000000000000000000000000000000000000000000000000000000000000000811692875b8681106103b2578880f35b826103bd8284611248565b511688517fc673bdaf00000000000000000000000000000000000000000000000000000000815281868201526020602491818184818c5afa9081156104d6578d916104a9575b501561047f57600590898d525261041c828b8d206119b3565b15610451575090866001927f5cda7ebcbcc755c3ef1c6cf035a6e26bf48b6421f72f932756d942c896287b698c80a3016103a7565b878b91604493887f5a17aa8d0000000000000000000000000000000000000000000000000000000085525252fd5b508a82877f9e51bd5c00000000000000000000000000000000000000000000000000000000835252fd5b6104c99150823d84116104cf575b6104c181836110ee565b810190611365565b5f610403565b503d6104b7565b8c513d8f823e3d90fd5b5050346102755760206003193601126102755760209061051761050161108a565b6105096113e2565b61051281611447565b611508565b9051908152f35b50503461027557816003193601126102755760209073ffffffffffffffffffffffffffffffffffffffff600154169051908152f35b50346103455782600319360112610345576020928291338252845220549051908152f35b5050346102755781600319360112610275576020906002549051908152f35b50903461066b578060031936011261066b576105b061108a565b6105bc816101626114ca565b73ffffffffffffffffffffffffffffffffffffffff6105d96116ce565b1692833b1561066b57610642935f928385518097819582947fabaa33560000000000000000000000000000000000000000000000000000000084526024359184016020909392919373ffffffffffffffffffffffffffffffffffffffff60408201951681520152565b03925af19081156106625750610656575080f35b61066091506110ad565b005b513d5f823e3d90fd5b5f80fd5b503461066b575f60031936011261066b5773ffffffffffffffffffffffffffffffffffffffff6020835180937faaabadc500000000000000000000000000000000000000000000000000000000825281847f0000000000000000000000000000000000000000000000000000000000000000165afa91821561072d57926020935f936106fe575b505191168152f35b61071f919350843d8611610726575b61071781836110ee565b810190611339565b91846106f6565b503d61070d565b83513d5f823e3d90fd5b503461066b57602060031936011261066b5761075161108a565b6107596113e2565b73ffffffffffffffffffffffffffffffffffffffff5f5416331461078057610660906115e9565b507f23dada53000000000000000000000000000000000000000000000000000000005f525ffd5b503461066b57602090602060031936011261066b57356107c68161137d565b5f526005602052815f209180519182602085549182815201945f5260205f20915f905b82821061080f5761080b8686610801828b03836110ee565b51918291826111f7565b0390f35b8354875295860195600193840193909101906107e9565b823461066b575f60031936011261066b5760209073ffffffffffffffffffffffffffffffffffffffff5f54169051908152f35b503461066b57606060031936011261066b578035906024356044359161087e8461137d565b835f526005906020906005602052865f2054858511908115610994575b8115610989575b5061095e57506108b283856112ff565b947fffffffffffffffffffffffffffffffffffffffffffffffffffffffffffffffe06108f56108e08861112f565b976108ed8a51998a6110ee565b80895261112f565b01366020880137835b8581106109125787518061080b89826111f7565b600190825f5284845273ffffffffffffffffffffffffffffffffffffffff61093c828b5f206118aa565b90549060031b1c1661095761095188846112ff565b8a611248565b52016108fe565b85907f44945fcc000000000000000000000000000000000000000000000000000000005f525260245ffd5b9050841015886108a2565b808711915061089b565b503461066b57602060031936011261066b5735907fffffffff000000000000000000000000000000000000000000000000000000008216820361066b57610517602092611289565b503461066b576020918260031936011261066b57813591610a056113e2565b610a0e8361137d565b825f5260058452815f208054805b610ad1575050825f5260058452815f208054905f815581610ab4575b5050905f9183835260038552818320948554957fffffffffffffffffffffffff000000000000000000000000000000000000000073ffffffffffffffffffffffffffffffffffffffff881697169055858452528120557f79baa5e19a392c29299f3a0871dfaa49cb3bcce18826d5d6df199c9e0846a6c05f80a3005b5f52845f20908101905b81811015610a38575f8155600101610abe565b5f190180610b2b73ffffffffffffffffffffffffffffffffffffffff610af783866118aa565b90549060031b1c1687817fe632b6be71c5c7f5d98ba00da8b648a72422f750973138bc6474de6fe711b66e5f80a3846118bf565b50610a1c565b503461066b575f60031936011261066b573373ffffffffffffffffffffffffffffffffffffffff6001541603610b6a57610660336115e9565b7f118cdaa7000000000000000000000000000000000000000000000000000000005f5233905260245ffd5b3461066b575f60031936011261066b57610bad61159d565b5f73ffffffffffffffffffffffffffffffffffffffff7fffffffffffffffffffffffff0000000000000000000000000000000000000000806001541660015582549081168355167f8be0079c531659141344cd1fd0a4f28419497f9722a3daafe3b4186f6b6457e08280a3005b50903461066b57602060031936011261066b5760209135610c3a8161137d565b5f5260058252805f20549051908152f35b50903461066b578060031936011261066b57610c6561108a565b60249260243567ffffffffffffffff811161066b57610c8a610c939136908401611147565b926105096113e2565b938251610ca5575b6020858551908152f35b610cb09291926113e2565b610cb98561137d565b81519273ffffffffffffffffffffffffffffffffffffffff7f00000000000000000000000000000000000000000000000000000000000000008116935f5b868110610d075750505050610c9b565b82610d128284611248565b511688517fc673bdaf0000000000000000000000000000000000000000000000000000000081528186820152602090818189818c5afa908115610e19575f91610dfc575b5015610dd2579060058b92835f5252610d71818b5f206119b3565b15610da55790600192917f5cda7ebcbcc755c3ef1c6cf035a6e26bf48b6421f72f932756d942c896287b695f80a301610cf7565b8690867f5a17aa8d000000000000000000000000000000000000000000000000000000005f52525260445ffd5b8682877f9e51bd5c000000000000000000000000000000000000000000000000000000005f52525ffd5b610e139150823d84116104cf576104c181836110ee565b8c610d56565b8b513d5f823e3d90fd5b50903461066b57602060031936011261066b57610e3e61108a565b91610e4883611447565b610e506114ca565b918291825f52600360205273ffffffffffffffffffffffffffffffffffffffff825f20951694857fffffffffffffffffffffffff0000000000000000000000000000000000000000825416179055335f526020525f81812055835f525f205533907f8a5583d08cb82be0e3e26d52a1941f10fe2fdd1bb7cc5e085a0ba35b3d7972055f80a4005b50903461066b57610ee7366111c4565b91610ef06113e2565b610ef98261137d565b8251925f5b848110610f0757005b73ffffffffffffffffffffffffffffffffffffffff610f268284611248565b5116845f526005602052610f3c81855f206118bf565b15610f705790846001927fe632b6be71c5c7f5d98ba00da8b648a72422f750973138bc6474de6fe711b66e5f80a301610efe565b8490877f80145d72000000000000000000000000000000000000000000000000000000005f525260245260445ffd5b50903461066b57602060031936011261066b5760209173ffffffffffffffffffffffffffffffffffffffff610fd261108a565b165f528252805f20549051908152f35b50903461066b57602060031936011261066b57602091355f526003825273ffffffffffffffffffffffffffffffffffffffff815f20541615159051908152f35b823461066b578060031936011261066b5760209061108161104161108a565b60243561104d8161137d565b5f526005845273ffffffffffffffffffffffffffffffffffffffff835f209116906001915f520160205260405f2054151590565b90519015158152f35b6004359073ffffffffffffffffffffffffffffffffffffffff8216820361066b57565b67ffffffffffffffff81116110c157604052565b7f4e487b71000000000000000000000000000000000000000000000000000000005f52604160045260245ffd5b90601f7fffffffffffffffffffffffffffffffffffffffffffffffffffffffffffffffe0910116810190811067ffffffffffffffff8211176110c157604052565b67ffffffffffffffff81116110c15760051b60200190565b9080601f8301121561066b5760209082356111618161112f565b9361116f60405195866110ee565b81855260208086019260051b82010192831161066b57602001905b828210611198575050505090565b813573ffffffffffffffffffffffffffffffffffffffff8116810361066b57815290830190830161118a565b90604060031983011261066b57600435916024359067ffffffffffffffff821161066b576111f491600401611147565b90565b60209060206040818301928281528551809452019301915f5b82811061121e575050505090565b835173ffffffffffffffffffffffffffffffffffffffff1685529381019392810192600101611210565b805182101561125c5760209160051b010190565b7f4e487b71000000000000000000000000000000000000000000000000000000005f52603260045260245ffd5b6040517fffffffff0000000000000000000000000000000000000000000000000000000060208201927f00000000000000000000000000000000000000000000000000000000000000008452166040820152602481526060810181811067ffffffffffffffff8211176110c15760405251902090565b9190820391821161130c57565b7f4e487b71000000000000000000000000000000000000000000000000000000005f52601160045260245ffd5b9081602091031261066b575173ffffffffffffffffffffffffffffffffffffffff8116810361066b5790565b9081602091031261066b5751801515810361066b5790565b801580156113b8575b61138d5750565b7f98592ddb000000000000000000000000000000000000000000000000000000005f5260045260245ffd5b50805f52600360205273ffffffffffffffffffffffffffffffffffffffff60405f20541615611386565b6114186114117fffffffff000000000000000000000000000000000000000000000000000000005f3516611289565b339061178a565b1561141f57565b7f23dada53000000000000000000000000000000000000000000000000000000005f5260045ffd5b73ffffffffffffffffffffffffffffffffffffffff1680156114a257805f52600460205260405f20546114775750565b7f2c35aa96000000000000000000000000000000000000000000000000000000005f5260045260245ffd5b7f2de5256e000000000000000000000000000000000000000000000000000000005f5260045ffd5b335f52600460205260405f20549081156114e057565b7fbcc08f74000000000000000000000000000000000000000000000000000000005f5260045ffd5b90600254915f19831461130c576001830160025582805f52600360205273ffffffffffffffffffffffffffffffffffffffff60405f20921691827fffffffffffffffffffffffff0000000000000000000000000000000000000000825416179055815f5260046020528060405f20557fdc91443db112ae1beb8fab12e3fa2dedea028e9eb6a8e92776a1aa2343007be25f80a3565b73ffffffffffffffffffffffffffffffffffffffff5f541633036115bd57565b7f118cdaa7000000000000000000000000000000000000000000000000000000005f523360045260245ffd5b7fffffffffffffffffffffffff00000000000000000000000000000000000000009081600154166001555f5473ffffffffffffffffffffffffffffffffffffffff80921680938216175f55167f8be0079c531659141344cd1fd0a4f28419497f9722a3daafe3b4186f6b6457e05f80a3565b90815f52600560205261169773ffffffffffffffffffffffffffffffffffffffff60405f20921680926001915f520160205260405f2054151590565b156116a0575050565b7f80145d72000000000000000000000000000000000000000000000000000000005f5260045260245260445ffd5b6040517f85f2dbd400000000000000000000000000000000000000000000000000000000815273ffffffffffffffffffffffffffffffffffffffff6020826004817f000000000000000000000000000000000000000000000000000000000000000085165afa91821561177f575f9261174657505090565b9091506020813d602011611777575b81611762602093836110ee565b8101031261066b5751908116810361066b5790565b3d9150611755565b6040513d5f823e3d90fd5b9073ffffffffffffffffffffffffffffffffffffffff9081805f541691169081146118a257604051907faaabadc50000000000000000000000000000000000000000000000000000000082526020938483600481877f0000000000000000000000000000000000000000000000000000000000000000165afa93841561177f5785935f9561187e575b509060649160405195869485937f9be2a88400000000000000000000000000000000000000000000000000000000855260048501526024840152306044840152165afa91821561177f575f9261186857505090565b6111f49250803d106104cf576104c181836110ee565b60649291955061189a90853d87116107265761071781836110ee565b949091611813565b505050600190565b805482101561125c575f5260205f2001905f90565b906001820191815f528260205260405f2054908115155f146119ab575f199182810181811161130c5782549084820191821161130c57818103611960575b505050805480156119335782019161191583836118aa565b909182549160031b1b19169055555f526020525f6040812055600190565b7f4e487b71000000000000000000000000000000000000000000000000000000005f52603160045260245ffd5b61199661197061198093866118aa565b90549060031b1c928392866118aa565b81939154905f199060031b92831b921b19161790565b90555f528460205260405f20555f80806118fd565b505050505f90565b5f828152600182016020526040902054611a0557805490680100000000000000008210156110c157826119f06119808460018096018555846118aa565b90558054925f520160205260405f2055600190565b50505f9056fea2646970667358221220d2c890aac41aca693e49da80ef5c520d66b7bf4585861b6abc600e559697a06164736f6c634300081b0033",
  "linkReferences": {},
  "deployedLinkReferences": {}
}