{
  "_format": "hh-sol-artifact-1",
  "contractName": "ProtocolFeeHelper",
  "sourceName": "contracts/ProtocolFeeHelper.sol",
  "abi": [
    {
      "inputs": [
        {
          "internalType": "contract IVault",
          "name": "vault",
          "type": "address"
        },
        {
          "internalType": "address",
          "name": "initialOwner",
          "type": "address"
        }
      ],
      "stateMutability": "nonpayable",
      "type": "constructor"
    },
    {
      "inputs": [
        {
          "internalType": "uint256",
          "name": "poolSetId",
          "type": "uint256"
        }
      ],
      "name": "IndexOutOfBounds",
      "type": "error"
    },
    {
      "inputs": [
        {
          "internalType": "uint256",
          "name": "poolSetId",
          "type": "uint256"
        }
      ],
      "name": "InvalidPoolSetId",
      "type": "error"
    },
    {
      "inputs": [],
      "name": "InvalidPoolSetManager",
      "type": "error"
    },
    {
      "inputs": [
        {
          "internalType": "address",
          "name": "owner",
          "type": "address"
        }
      ],
      "name": "OwnableInvalidOwner",
      "type": "error"
    },
    {
      "inputs": [
        {
          "internalType": "address",
          "name": "account",
          "type": "address"
        }
      ],
      "name": "OwnableUnauthorizedAccount",
      "type": "error"
    },
    {
      "inputs": [
        {
          "internalType": "address",
          "name": "pool",
          "type": "address"
        },
        {
          "internalType": "uint256",
          "name": "poolSetId",
          "type": "uint256"
        }
      ],
      "name": "PoolAlreadyInSet",
      "type": "error"
    },
    {
      "inputs": [
        {
          "internalType": "address",
          "name": "pool",
          "type": "address"
        },
        {
          "internalType": "uint256",
          "name": "poolSetId",
          "type": "uint256"
        }
      ],
      "name": "PoolNotInSet",
      "type": "error"
    },
    {
      "inputs": [
        {
          "internalType": "address",
          "name": "pool",
          "type": "address"
        }
      ],
      "name": "PoolNotRegistered",
      "type": "error"
    },
    {
      "inputs": [
        {
          "internalType": "address",
          "name": "poolSetManager",
          "type": "address"
        }
      ],
      "name": "PoolSetManagerNotUnique",
      "type": "error"
    },
    {
      "inputs": [],
      "name": "SenderIsNotPoolSetManager",
      "type": "error"
    },
    {
      "inputs": [],
      "name": "SenderNotAllowed",
      "type": "error"
    },
    {
      "inputs": [],
      "name": "VaultNotSet",
      "type": "error"
    },
    {
      "anonymous": false,
      "inputs": [
        {
          "indexed": true,
          "internalType": "address",
          "name": "previousOwner",
          "type": "address"
        },
        {
          "indexed": true,
          "internalType": "address",
          "name": "newOwner",
          "type": "address"
        }
      ],
      "name": "OwnershipTransferStarted",
      "type": "event"
    },
    {
      "anonymous": false,
      "inputs": [
        {
          "indexed": true,
          "internalType": "address",
          "name": "previousOwner",
          "type": "address"
        },
        {
          "indexed": true,
          "internalType": "address",
          "name": "newOwner",
          "type": "address"
        }
      ],
      "name": "OwnershipTransferred",
      "type": "event"
    },
    {
      "anonymous": false,
      "inputs": [
        {
          "indexed": true,
          "internalType": "address",
          "name": "pool",
          "type": "address"
        },
        {
          "indexed": true,
          "internalType": "uint256",
          "name": "poolSetId",
          "type": "uint256"
        }
      ],
      "name": "PoolAddedToSet",
      "type": "event"
    },
    {
      "anonymous": false,
      "inputs": [
        {
          "indexed": true,
          "internalType": "address",
          "name": "pool",
          "type": "address"
        },
        {
          "indexed": true,
          "internalType": "uint256",
          "name": "poolSetId",
          "type": "uint256"
        }
      ],
      "name": "PoolRemovedFromSet",
      "type": "event"
    },
    {
      "anonymous": false,
      "inputs": [
        {
          "indexed": true,
          "internalType": "uint256",
          "name": "poolSetId",
          "type": "uint256"
        },
        {
          "indexed": true,
          "internalType": "address",
          "name": "initialManager",
          "type": "address"
        }
      ],
      "name": "PoolSetCreated",
      "type": "event"
    },
    {
      "anonymous": false,
      "inputs": [
        {
          "indexed": true,
          "internalType": "uint256",
          "name": "poolSetId",
          "type": "uint256"
        },
        {
          "indexed": true,
          "internalType": "address",
          "name": "manager",
          "type": "address"
        }
      ],
      "name": "PoolSetDestroyed",
      "type": "event"
    },
    {
      "anonymous": false,
      "inputs": [
        {
          "indexed": true,
          "internalType": "uint256",
          "name": "poolSetId",
          "type": "uint256"
        },
        {
          "indexed": true,
          "internalType": "address",
          "name": "oldManager",
          "type": "address"
        },
        {
          "indexed": true,
          "internalType": "address",
          "name": "newManager",
          "type": "address"
        }
      ],
      "name": "PoolSetOwnershipTransferred",
      "type": "event"
    },
    {
      "inputs": [],
      "name": "acceptOwnership",
      "outputs": [],
      "stateMutability": "nonpayable",
      "type": "function"
    },
    {
      "inputs": [
        {
          "internalType": "uint256",
          "name": "poolSetId",
          "type": "uint256"
        },
        {
          "internalType": "address[]",
          "name": "newPools",
          "type": "address[]"
        }
      ],
      "name": "addPoolsToSet",
      "outputs": [],
      "stateMutability": "nonpayable",
      "type": "function"
    },
    {
      "inputs": [
        {
          "internalType": "address",
          "name": "initialManager",
          "type": "address"
        },
        {
          "internalType": "address[]",
          "name": "newPools",
          "type": "address[]"
        }
      ],
      "name": "createPoolSet",
      "outputs": [
        {
          "internalType": "uint256",
          "name": "poolSetId",
          "type": "uint256"
        }
      ],
      "stateMutability": "nonpayable",
      "type": "function"
    },
    {
      "inputs": [
        {
          "internalType": "address",
          "name": "initialManager",
          "type": "address"
        }
      ],
      "name": "createPoolSet",
      "outputs": [
        {
          "internalType": "uint256",
          "name": "",
          "type": "uint256"
        }
      ],
      "stateMutability": "nonpayable",
      "type": "function"
    },
    {
      "inputs": [
        {
          "internalType": "uint256",
          "name": "poolSetId",
          "type": "uint256"
        }
      ],
      "name": "destroyPoolSet",
      "outputs": [],
      "stateMutability": "nonpayable",
      "type": "function"
    },
    {
      "inputs": [
        {
          "internalType": "address",
          "name": "newOwner",
          "type": "address"
        }
      ],
      "name": "forceTransferOwnership",
      "outputs": [],
      "stateMutability": "nonpayable",
      "type": "function"
    },
    {
      "inputs": [
        {
          "internalType": "bytes4",
          "name": "selector",
          "type": "bytes4"
        }
      ],
      "name": "getActionId",
      "outputs": [
        {
          "internalType": "bytes32",
          "name": "",
          "type": "bytes32"
        }
      ],
      "stateMutability": "view",
      "type": "function"
    },
    {
      "inputs": [
        {
          "internalType": "uint256",
          "name": "poolSetId",
          "type": "uint256"
        }
      ],
      "name": "getAllPoolsInSet",
      "outputs": [
        {
          "internalType": "address[]",
          "name": "pools",
          "type": "address[]"
        }
      ],
      "stateMutability": "view",
      "type": "function"
    },
    {
      "inputs": [],
      "name": "getAuthorizer",
      "outputs": [
        {
          "internalType": "contract IAuthorizer",
          "name": "",
          "type": "address"
        }
      ],
      "stateMutability": "view",
      "type": "function"
    },
    {
      "inputs": [
        {
          "internalType": "uint256",
          "name": "poolSetId",
          "type": "uint256"
        }
      ],
      "name": "getManagerForPoolSet",
      "outputs": [
        {
          "internalType": "address",
          "name": "",
          "type": "address"
        }
      ],
      "stateMutability": "view",
      "type": "function"
    },
    {
      "inputs": [],
      "name": "getNextPoolSetId",
      "outputs": [
        {
          "internalType": "uint256",
          "name": "",
          "type": "uint256"
        }
      ],
      "stateMutability": "view",
      "type": "function"
    },
    {
      "inputs": [
        {
          "internalType": "uint256",
          "name": "poolSetId",
          "type": "uint256"
        }
      ],
      "name": "getPoolCountForSet",
      "outputs": [
        {
          "internalType": "uint256",
          "name": "",
          "type": "uint256"
        }
      ],
      "stateMutability": "view",
      "type": "function"
    },
    {
      "inputs": [],
      "name": "getPoolSetIdForCaller",
      "outputs": [
        {
          "internalType": "uint256",
          "name": "",
          "type": "uint256"
        }
      ],
      "stateMutability": "view",
      "type": "function"
    },
    {
      "inputs": [
        {
          "internalType": "address",
          "name": "manager",
          "type": "address"
        }
      ],
      "name": "getPoolSetIdForManager",
      "outputs": [
        {
          "internalType": "uint256",
          "name": "",
          "type": "uint256"
        }
      ],
      "stateMutability": "view",
      "type": "function"
    },
    {
      "inputs": [
        {
          "internalType": "uint256",
          "name": "poolSetId",
          "type": "uint256"
        },
        {
          "internalType": "uint256",
          "name": "from",
          "type": "uint256"
        },
        {
          "internalType": "uint256",
          "name": "to",
          "type": "uint256"
        }
      ],
      "name": "getPoolsInSet",
      "outputs": [
        {
          "internalType": "address[]",
          "name": "pools",
          "type": "address[]"
        }
      ],
      "stateMutability": "view",
      "type": "function"
    },
    {
      "inputs": [
        {
          "internalType": "address",
          "name": "pool",
          "type": "address"
        },
        {
          "internalType": "uint256",
          "name": "poolSetId",
          "type": "uint256"
        }
      ],
      "name": "isPoolInSet",
      "outputs": [
        {
          "internalType": "bool",
          "name": "",
          "type": "bool"
        }
      ],
      "stateMutability": "view",
      "type": "function"
    },
    {
      "inputs": [
        {
          "internalType": "uint256",
          "name": "poolSetId",
          "type": "uint256"
        }
      ],
      "name": "isValidPoolSetId",
      "outputs": [
        {
          "internalType": "bool",
          "name": "",
          "type": "bool"
        }
      ],
      "stateMutability": "view",
      "type": "function"
    },
    {
      "inputs": [],
      "name": "owner",
      "outputs": [
        {
          "internalType": "address",
          "name": "",
          "type": "address"
        }
      ],
      "stateMutability": "view",
      "type": "function"
    },
    {
      "inputs": [],
      "name": "pendingOwner",
      "outputs": [
        {
          "internalType": "address",
          "name": "",
          "type": "address"
        }
      ],
      "stateMutability": "view",
      "type": "function"
    },
    {
      "inputs": [
        {
          "internalType": "uint256",
          "name": "poolSetId",
          "type": "uint256"
        },
        {
          "internalType": "address[]",
          "name": "pools",
          "type": "address[]"
        }
      ],
      "name": "removePoolsFromSet",
      "outputs": [],
      "stateMutability": "nonpayable",
      "type": "function"
    },
    {
      "inputs": [],
      "name": "renounceOwnership",
      "outputs": [],
      "stateMutability": "nonpayable",
      "type": "function"
    },
    {
      "inputs": [
        {
          "internalType": "address",
          "name": "pool",
          "type": "address"
        },
        {
          "internalType": "uint256",
          "name": "newProtocolSwapFeePercentage",
          "type": "uint256"
        }
      ],
      "name": "setProtocolSwapFeePercentage",
      "outputs": [],
      "stateMutability": "nonpayable",
      "type": "function"
    },
    {
      "inputs": [
        {
          "internalType": "address",
          "name": "pool",
          "type": "address"
        },
        {
          "internalType": "uint256",
          "name": "newProtocolYieldFeePercentage",
          "type": "uint256"
        }
      ],
      "name": "setProtocolYieldFeePercentage",
      "outputs": [],
      "stateMutability": "nonpayable",
      "type": "function"
    },
    {
      "inputs": [
        {
          "internalType": "address",
          "name": "newOwner",
          "type": "address"
        }
      ],
      "name": "transferOwnership",
      "outputs": [],
      "stateMutability": "nonpayable",
      "type": "function"
    },
    {
      "inputs": [
        {
          "internalType": "address",
          "name": "newManager",
          "type": "address"
        }
      ],
      "name": "transferPoolSetOwnership",
      "outputs": [],
      "stateMutability": "nonpayable",
      "type": "function"
    },
    {
      "inputs": [],
      "name": "vault",
      "outputs": [
        {
          "internalType": "contract IVault",
          "name": "",
          "type": "address"
        }
      ],
      "stateMutability": "view",
      "type": "function"
    }
  ],
  "bytecode": "0x60c03461011e57601f611b4d38819003918201601f19168301916001600160401b0383118484101761012257808492604094855283398101031261011e5780516001600160a01b03918282169081830361011e576020015183811680910361011e57801561010b5760018060a01b0319938460015416600155815f54958616175f5560405194167f8be0079c531659141344cd1fd0a4f28419497f9722a3daafe3b4186f6b6457e05f80a330608052156100fc5760a0526001600255611a1690816101378239608051816112ee015260a05181818161025401528181610386015281816106c501528181610d0d015281816116e601526118bf0152f35b630647140b60e51b5f5260045ffd5b631e4fbdf760e01b5f525f60045260245ffd5b5f80fd5b634e487b7160e01b5f52604160045260245ffdfe60406080815260049081361015610014575f80fd5b5f915f358060e01c908163182551da1461105c578163255dae411461101c57816325c427ed14610fd95781632da55a1d14610f115781633700f98714610e5d5781633e035f9b14610c8557816362d5346214610c54578163715018a614610bcf57816379ba509714610b6b5781637c1ec46014610a1f578163851c1bb3146109d65781638c60ebd0146108905781638da5cb5b1461085d57816394fc4058146107dd578163a89b11281461073a57508063aaabadc514610672578063abaa335614610599578063c482e8221461057a578063ce998aba14610556578063e30c397814610521578063e909c19b146104e3578063ebf3a8d01461034c578063f167a1e61461030b578063f2fde38b1461027c578063fbfa77cf146102275763fd267f391461013f575f80fd5b8291346102235780600319360112610223576101596110c4565b61016a816101656114eb565b611630565b73ffffffffffffffffffffffffffffffffffffffff6101876116a3565b1692833b1561021f576101f09385928385518097819582947ffd267f390000000000000000000000000000000000000000000000000000000084526024359184016020909392919373ffffffffffffffffffffffffffffffffffffffff60408201951681520152565b03925af190811561021657506102035750f35b61020c906110e7565b6102135780f35b80fd5b513d84823e3d90fd5b8480fd5b5050fd5b5050346102785781600319360112610278576020905173ffffffffffffffffffffffffffffffffffffffff7f0000000000000000000000000000000000000000000000000000000000000000168152f35b5080fd5b8334610213576020600319360112610213576102966110c4565b61029e61141c565b73ffffffffffffffffffffffffffffffffffffffff80911690817fffffffffffffffffffffffff000000000000000000000000000000000000000060015416176001558254167f38d16b8cac22d99fc7c124b9cd0de2d3fa1faef420bfe791d8c362d765e227008380a380f35b5034610348576020600319360112610348578160209373ffffffffffffffffffffffffffffffffffffffff92358152600385522054169051908152f35b8280fd5b50346103485761035b366111fe565b61036361141c565b61036c826113b7565b80519273ffffffffffffffffffffffffffffffffffffffff7f0000000000000000000000000000000000000000000000000000000000000000811692875b8681106103b5578880f35b826103c08284611282565b511688517fc673bdaf00000000000000000000000000000000000000000000000000000000815281868201526020602491818184818c5afa9081156104d9578d916104ac575b501561048257600590898d525261041f828b8d20611988565b15610454575090866001927f5cda7ebcbcc755c3ef1c6cf035a6e26bf48b6421f72f932756d942c896287b698c80a3016103aa565b878b91604493887f5a17aa8d0000000000000000000000000000000000000000000000000000000085525252fd5b508a82877f9e51bd5c00000000000000000000000000000000000000000000000000000000835252fd5b6104cc9150823d84116104d2575b6104c48183611128565b81019061139f565b5f610406565b503d6104ba565b8c513d8f823e3d90fd5b5050346102785760206003193601126102785760209061051a6105046110c4565b61050c61141c565b61051581611468565b611529565b9051908152f35b50503461027857816003193601126102785760209073ffffffffffffffffffffffffffffffffffffffff600154169051908152f35b50346103485782600319360112610348576020928291338252845220549051908152f35b5050346102785781600319360112610278576020906002549051908152f35b50903461066e578060031936011261066e576105b36110c4565b6105bf816101656114eb565b73ffffffffffffffffffffffffffffffffffffffff6105dc6116a3565b1692833b1561066e57610645935f928385518097819582947fabaa33560000000000000000000000000000000000000000000000000000000084526024359184016020909392919373ffffffffffffffffffffffffffffffffffffffff60408201951681520152565b03925af19081156106655750610659575080f35b61066391506110e7565b005b513d5f823e3d90fd5b5f80fd5b503461066e575f60031936011261066e5773ffffffffffffffffffffffffffffffffffffffff6020835180937faaabadc500000000000000000000000000000000000000000000000000000000825281847f0000000000000000000000000000000000000000000000000000000000000000165afa91821561073057926020935f93610701575b505191168152f35b610722919350843d8611610729575b61071a8183611128565b810190611373565b91846106f9565b503d610710565b83513d5f823e3d90fd5b90503461066e57602060031936011261066e5761078a6107837fffffffff0000000000000000000000000000000000000000000000000000000061077c6110c4565b93166112c3565b3390611868565b156107b65773ffffffffffffffffffffffffffffffffffffffff5f541633146107b657610663906115be565b507f23dada53000000000000000000000000000000000000000000000000000000005f525ffd5b50503461066e57602090602060031936011261066e57356107fd816113b7565b5f526005602052815f209180519182602085549182815201945f5260205f20915f905b828210610846576108428686610838828b0383611128565b5191829182611231565b0390f35b835487529586019560019384019390910190610820565b833461066e575f60031936011261066e5760209073ffffffffffffffffffffffffffffffffffffffff5f54169051908152f35b50503461066e57606060031936011261066e57803590602435604435916108b6846113b7565b835f526005906020906005602052865f20548585119081156109cc575b81156109c1575b5061099657506108ea8385611339565b947fffffffffffffffffffffffffffffffffffffffffffffffffffffffffffffffe061092d61091888611169565b976109258a51998a611128565b808952611169565b01366020880137835b85811061094a578751806108428982611231565b600190825f5284845273ffffffffffffffffffffffffffffffffffffffff610974828b5f2061175f565b90549060031b1c1661098f6109898884611339565b8a611282565b5201610936565b85907f44945fcc000000000000000000000000000000000000000000000000000000005f525260245ffd5b9050841015886108da565b80871191506108d3565b50503461066e57602060031936011261066e5735907fffffffff000000000000000000000000000000000000000000000000000000008216820361066e5761051a6020926112c3565b50503461066e576020918260031936011261066e57813591610a3f61141c565b610a48836113b7565b825f5260058452815f208054805b610b0b575050825f5260058452815f208054905f815581610aee575b5050905f9183835260038552818320948554957fffffffffffffffffffffffff000000000000000000000000000000000000000073ffffffffffffffffffffffffffffffffffffffff881697169055858452528120557f79baa5e19a392c29299f3a0871dfaa49cb3bcce18826d5d6df199c9e0846a6c05f80a3005b5f52845f20908101905b81811015610a72575f8155600101610af8565b5f190180610b6573ffffffffffffffffffffffffffffffffffffffff610b31838661175f565b90549060031b1c1687817fe632b6be71c5c7f5d98ba00da8b648a72422f750973138bc6474de6fe711b66e5f80a384611774565b50610a56565b823461066e575f60031936011261066e573373ffffffffffffffffffffffffffffffffffffffff6001541603610ba457610663336115be565b7f118cdaa7000000000000000000000000000000000000000000000000000000005f5233905260245ffd5b3461066e575f60031936011261066e57610be761141c565b5f73ffffffffffffffffffffffffffffffffffffffff7fffffffffffffffffffffffff0000000000000000000000000000000000000000806001541660015582549081168355167f8be0079c531659141344cd1fd0a4f28419497f9722a3daafe3b4186f6b6457e08280a3005b82843461066e57602060031936011261066e5760209135610c74816113b7565b5f5260058252805f20549051908152f35b82843461066e578060031936011261066e57610c9f6110c4565b60249260243567ffffffffffffffff811161066e57610cc4610ccd9136908401611181565b9261050c61141c565b938251610cdf575b6020858551908152f35b610cea92919261141c565b610cf3856113b7565b81519273ffffffffffffffffffffffffffffffffffffffff7f00000000000000000000000000000000000000000000000000000000000000008116935f5b868110610d415750505050610cd5565b82610d4c8284611282565b511688517fc673bdaf0000000000000000000000000000000000000000000000000000000081528186820152602090818189818c5afa908115610e53575f91610e36575b5015610e0c579060058b92835f5252610dab818b5f20611988565b15610ddf5790600192917f5cda7ebcbcc755c3ef1c6cf035a6e26bf48b6421f72f932756d942c896287b695f80a301610d31565b8690867f5a17aa8d000000000000000000000000000000000000000000000000000000005f52525260445ffd5b8682877f9e51bd5c000000000000000000000000000000000000000000000000000000005f52525ffd5b610e4d9150823d84116104d2576104c48183611128565b8c610d90565b8b513d5f823e3d90fd5b82843461066e57602060031936011261066e57610e786110c4565b91610e8283611468565b610e8a6114eb565b918291825f52600360205273ffffffffffffffffffffffffffffffffffffffff825f20951694857fffffffffffffffffffffffff0000000000000000000000000000000000000000825416179055335f526020525f81812055835f525f205533907f8a5583d08cb82be0e3e26d52a1941f10fe2fdd1bb7cc5e085a0ba35b3d7972055f80a4005b82843461066e57610f21366111fe565b91610f2a61141c565b610f33826113b7565b8251925f5b848110610f4157005b73ffffffffffffffffffffffffffffffffffffffff610f608284611282565b5116845f526005602052610f7681855f20611774565b15610faa5790846001927fe632b6be71c5c7f5d98ba00da8b648a72422f750973138bc6474de6fe711b66e5f80a301610f38565b8490877f80145d72000000000000000000000000000000000000000000000000000000005f525260245260445ffd5b82843461066e57602060031936011261066e5760209173ffffffffffffffffffffffffffffffffffffffff61100c6110c4565b165f528252805f20549051908152f35b82843461066e57602060031936011261066e57602091355f526003825273ffffffffffffffffffffffffffffffffffffffff815f20541615159051908152f35b833461066e578060031936011261066e576020906110bb61107b6110c4565b602435611087816113b7565b5f526005845273ffffffffffffffffffffffffffffffffffffffff835f209116906001915f520160205260405f2054151590565b90519015158152f35b6004359073ffffffffffffffffffffffffffffffffffffffff8216820361066e57565b67ffffffffffffffff81116110fb57604052565b7f4e487b71000000000000000000000000000000000000000000000000000000005f52604160045260245ffd5b90601f7fffffffffffffffffffffffffffffffffffffffffffffffffffffffffffffffe0910116810190811067ffffffffffffffff8211176110fb57604052565b67ffffffffffffffff81116110fb5760051b60200190565b9080601f8301121561066e57602090823561119b81611169565b936111a96040519586611128565b81855260208086019260051b82010192831161066e57602001905b8282106111d2575050505090565b813573ffffffffffffffffffffffffffffffffffffffff8116810361066e5781529083019083016111c4565b90604060031983011261066e57600435916024359067ffffffffffffffff821161066e5761122e91600401611181565b90565b60209060206040818301928281528551809452019301915f5b828110611258575050505090565b835173ffffffffffffffffffffffffffffffffffffffff168552938101939281019260010161124a565b80518210156112965760209160051b010190565b7f4e487b71000000000000000000000000000000000000000000000000000000005f52603260045260245ffd5b6040517fffffffff0000000000000000000000000000000000000000000000000000000060208201927f00000000000000000000000000000000000000000000000000000000000000008452166040820152602481526060810181811067ffffffffffffffff8211176110fb5760405251902090565b9190820391821161134657565b7f4e487b71000000000000000000000000000000000000000000000000000000005f52601160045260245ffd5b9081602091031261066e575173ffffffffffffffffffffffffffffffffffffffff8116810361066e5790565b9081602091031261066e5751801515810361066e5790565b801580156113f2575b6113c75750565b7f98592ddb000000000000000000000000000000000000000000000000000000005f5260045260245ffd5b50805f52600360205273ffffffffffffffffffffffffffffffffffffffff60405f205416156113c0565b73ffffffffffffffffffffffffffffffffffffffff5f5416330361143c57565b7f118cdaa7000000000000000000000000000000000000000000000000000000005f523360045260245ffd5b73ffffffffffffffffffffffffffffffffffffffff1680156114c357805f52600460205260405f20546114985750565b7f2c35aa96000000000000000000000000000000000000000000000000000000005f5260045260245ffd5b7f2de5256e000000000000000000000000000000000000000000000000000000005f5260045ffd5b335f52600460205260405f205490811561150157565b7fbcc08f74000000000000000000000000000000000000000000000000000000005f5260045ffd5b90600254915f198314611346576001830160025582805f52600360205273ffffffffffffffffffffffffffffffffffffffff60405f20921691827fffffffffffffffffffffffff0000000000000000000000000000000000000000825416179055815f5260046020528060405f20557fdc91443db112ae1beb8fab12e3fa2dedea028e9eb6a8e92776a1aa2343007be25f80a3565b7fffffffffffffffffffffffff00000000000000000000000000000000000000009081600154166001555f5473ffffffffffffffffffffffffffffffffffffffff80921680938216175f55167f8be0079c531659141344cd1fd0a4f28419497f9722a3daafe3b4186f6b6457e05f80a3565b90815f52600560205261166c73ffffffffffffffffffffffffffffffffffffffff60405f20921680926001915f520160205260405f2054151590565b15611675575050565b7f80145d72000000000000000000000000000000000000000000000000000000005f5260045260245260445ffd5b6040517f85f2dbd400000000000000000000000000000000000000000000000000000000815273ffffffffffffffffffffffffffffffffffffffff6020826004817f000000000000000000000000000000000000000000000000000000000000000085165afa918215611754575f9261171b57505090565b9091506020813d60201161174c575b8161173760209383611128565b8101031261066e5751908116810361066e5790565b3d915061172a565b6040513d5f823e3d90fd5b8054821015611296575f5260205f2001905f90565b906001820191815f528260205260405f2054908115155f14611860575f19918281018181116113465782549084820191821161134657818103611815575b505050805480156117e8578201916117ca838361175f565b909182549160031b1b19169055555f526020525f6040812055600190565b7f4e487b71000000000000000000000000000000000000000000000000000000005f52603160045260245ffd5b61184b611825611835938661175f565b90549060031b1c9283928661175f565b81939154905f199060031b92831b921b19161790565b90555f528460205260405f20555f80806117b2565b505050505f90565b9073ffffffffffffffffffffffffffffffffffffffff9081805f5416911690811461198057604051907faaabadc50000000000000000000000000000000000000000000000000000000082526020938483600481877f0000000000000000000000000000000000000000000000000000000000000000165afa9384156117545785935f9561195c575b509060649160405195869485937f9be2a88400000000000000000000000000000000000000000000000000000000855260048501526024840152306044840152165afa918215611754575f9261194657505090565b61122e9250803d106104d2576104c48183611128565b60649291955061197890853d87116107295761071a8183611128565b9490916118f1565b505050600190565b5f8281526001820160205260409020546119da57805490680100000000000000008210156110fb57826119c561183584600180960185558461175f565b90558054925f520160205260405f2055600190565b50505f9056fea2646970667358221220a86eee931a88d4f839c9313a069eb3f4357676a3b7e1548b9f23cf223f177aaf64736f6c634300081b0033",
  "linkReferences": {},
  "deployedLinkReferences": {}
}