{
  "_format": "hh-sol-artifact-1",
  "contractName": "BalancerQueries",
  "sourceName": "contracts/BalancerQueries.sol",
  "abi": [
    {
      "inputs": [
        {
          "internalType": "contract IVault",
          "name": "_vault",
          "type": "address"
        }
      ],
      "stateMutability": "nonpayable",
      "type": "constructor"
    },
    {
      "inputs": [
        {
          "internalType": "enum IVault.SwapKind",
          "name": "kind",
          "type": "uint8"
        },
        {
          "components": [
            {
              "internalType": "bytes32",
              "name": "poolId",
              "type": "bytes32"
            },
            {
              "internalType": "uint256",
              "name": "assetInIndex",
              "type": "uint256"
            },
            {
              "internalType": "uint256",
              "name": "assetOutIndex",
              "type": "uint256"
            },
            {
              "internalType": "uint256",
              "name": "amount",
              "type": "uint256"
            },
            {
              "internalType": "bytes",
              "name": "userData",
              "type": "bytes"
            }
          ],
          "internalType": "struct IVault.BatchSwapStep[]",
          "name": "swaps",
          "type": "tuple[]"
        },
        {
          "internalType": "contract IAsset[]",
          "name": "assets",
          "type": "address[]"
        },
        {
          "components": [
            {
              "internalType": "address",
              "name": "sender",
              "type": "address"
            },
            {
              "internalType": "bool",
              "name": "fromInternalBalance",
              "type": "bool"
            },
            {
              "internalType": "address payable",
              "name": "recipient",
              "type": "address"
            },
            {
              "internalType": "bool",
              "name": "toInternalBalance",
              "type": "bool"
            }
          ],
          "internalType": "struct IVault.FundManagement",
          "name": "funds",
          "type": "tuple"
        }
      ],
      "name": "queryBatchSwap",
      "outputs": [
        {
          "internalType": "int256[]",
          "name": "assetDeltas",
          "type": "int256[]"
        }
      ],
      "stateMutability": "nonpayable",
      "type": "function"
    },
    {
      "inputs": [
        {
          "internalType": "bytes32",
          "name": "poolId",
          "type": "bytes32"
        },
        {
          "internalType": "address",
          "name": "sender",
          "type": "address"
        },
        {
          "internalType": "address",
          "name": "recipient",
          "type": "address"
        },
        {
          "components": [
            {
              "internalType": "contract IAsset[]",
              "name": "assets",
              "type": "address[]"
            },
            {
              "internalType": "uint256[]",
              "name": "minAmountsOut",
              "type": "uint256[]"
            },
            {
              "internalType": "bytes",
              "name": "userData",
              "type": "bytes"
            },
            {
              "internalType": "bool",
              "name": "toInternalBalance",
              "type": "bool"
            }
          ],
          "internalType": "struct IVault.ExitPoolRequest",
          "name": "request",
          "type": "tuple"
        }
      ],
      "name": "queryExit",
      "outputs": [
        {
          "internalType": "uint256",
          "name": "bptIn",
          "type": "uint256"
        },
        {
          "internalType": "uint256[]",
          "name": "amountsOut",
          "type": "uint256[]"
        }
      ],
      "stateMutability": "nonpayable",
      "type": "function"
    },
    {
      "inputs": [
        {
          "internalType": "bytes32",
          "name": "poolId",
          "type": "bytes32"
        },
        {
          "internalType": "address",
          "name": "sender",
          "type": "address"
        },
        {
          "internalType": "address",
          "name": "recipient",
          "type": "address"
        },
        {
          "components": [
            {
              "internalType": "contract IAsset[]",
              "name": "assets",
              "type": "address[]"
            },
            {
              "internalType": "uint256[]",
              "name": "maxAmountsIn",
              "type": "uint256[]"
            },
            {
              "internalType": "bytes",
              "name": "userData",
              "type": "bytes"
            },
            {
              "internalType": "bool",
              "name": "fromInternalBalance",
              "type": "bool"
            }
          ],
          "internalType": "struct IVault.JoinPoolRequest",
          "name": "request",
          "type": "tuple"
        }
      ],
      "name": "queryJoin",
      "outputs": [
        {
          "internalType": "uint256",
          "name": "bptOut",
          "type": "uint256"
        },
        {
          "internalType": "uint256[]",
          "name": "amountsIn",
          "type": "uint256[]"
        }
      ],
      "stateMutability": "nonpayable",
      "type": "function"
    },
    {
      "inputs": [
        {
          "components": [
            {
              "internalType": "bytes32",
              "name": "poolId",
              "type": "bytes32"
            },
            {
              "internalType": "enum IVault.SwapKind",
              "name": "kind",
              "type": "uint8"
            },
            {
              "internalType": "contract IAsset",
              "name": "assetIn",
              "type": "address"
            },
            {
              "internalType": "contract IAsset",
              "name": "assetOut",
              "type": "address"
            },
            {
              "internalType": "uint256",
              "name": "amount",
              "type": "uint256"
            },
            {
              "internalType": "bytes",
              "name": "userData",
              "type": "bytes"
            }
          ],
          "internalType": "struct IVault.SingleSwap",
          "name": "singleSwap",
          "type": "tuple"
        },
        {
          "components": [
            {
              "internalType": "address",
              "name": "sender",
              "type": "address"
            },
            {
              "internalType": "bool",
              "name": "fromInternalBalance",
              "type": "bool"
            },
            {
              "internalType": "address payable",
              "name": "recipient",
              "type": "address"
            },
            {
              "internalType": "bool",
              "name": "toInternalBalance",
              "type": "bool"
            }
          ],
          "internalType": "struct IVault.FundManagement",
          "name": "funds",
          "type": "tuple"
        }
      ],
      "name": "querySwap",
      "outputs": [
        {
          "internalType": "uint256",
          "name": "",
          "type": "uint256"
        }
      ],
      "stateMutability": "nonpayable",
      "type": "function"
    },
    {
      "inputs": [],
      "name": "vault",
      "outputs": [
        {
          "internalType": "contract IVault",
          "name": "",
          "type": "address"
        }
      ],
      "stateMutability": "view",
      "type": "function"
    }
  ],
  "bytecode": "0x60c06040523480156200001157600080fd5b506040516200187c3803806200187c8339810160408190526200003491620000c9565b806001600160a01b031663ad5c46486040518163ffffffff1660e01b815260040160206040518083038186803b1580156200006e57600080fd5b505afa15801562000083573d6000803e3d6000fd5b505050506040513d601f19601f82011682018060405250810190620000a99190620000c9565b6001600160601b0319606091821b811660805291901b1660a05262000108565b600060208284031215620000db578081fd5b8151620000e881620000ef565b9392505050565b6001600160a01b03811681146200010557600080fd5b50565b60805160601c60a05160601c611727620001556000398061010652806101c9528061039c528061045f5280610693528061080b52806108a75280610919525080610bf852506117276000f3fe608060405234801561001057600080fd5b50600436106100675760003560e01c8063e969f6b311610050578063e969f6b3146100a9578063f84d066e146100c9578063fbfa77cf146100e957610067565b80639ebbf05d1461006c578063c7b2c52c14610096575b600080fd5b61007f61007a3660046110ad565b6100fe565b60405161008d92919061165d565b60405180910390f35b61007f6100a43660046110ad565b610394565b6100bc6100b7366004611270565b610564565b60405161008d91906114e9565b6100dc6100d736600461113a565b6107cb565b60405161008d91906114a5565b6100f16108a5565b60405161008d919061155d565b6000606060007f000000000000000000000000000000000000000000000000000000000000000073ffffffffffffffffffffffffffffffffffffffff1663f6c00927886040518263ffffffff1660e01b815260040161015d91906114e9565b604080518083038186803b15801561017457600080fd5b505afa158015610188573d6000803e3d6000fd5b505050506040513d601f19601f820116820180604052508101906101ac9190610f15565b509050606060006101c18987600001516108c9565b9150915060007f000000000000000000000000000000000000000000000000000000000000000073ffffffffffffffffffffffffffffffffffffffff1663d2946c2b6040518163ffffffff1660e01b815260040160206040518083038186803b15801561022d57600080fd5b505afa158015610241573d6000803e3d6000fd5b505050506040513d601f19601f820116820180604052508101906102659190611117565b90508373ffffffffffffffffffffffffffffffffffffffff166387ec68178b8b8b87878773ffffffffffffffffffffffffffffffffffffffff166355c676286040518163ffffffff1660e01b815260040160206040518083038186803b1580156102ce57600080fd5b505afa1580156102e2573d6000803e3d6000fd5b505050506040513d601f19601f82011682018060405250810190610306919061133a565b8e604001516040518863ffffffff1660e01b815260040161032d97969594939291906114f2565b600060405180830381600087803b15801561034757600080fd5b505af115801561035b573d6000803e3d6000fd5b505050506040513d6000823e601f3d908101601f191682016040526103839190810190611352565b909b909a5098505050505050505050565b6000606060007f000000000000000000000000000000000000000000000000000000000000000073ffffffffffffffffffffffffffffffffffffffff1663f6c00927886040518263ffffffff1660e01b81526004016103f391906114e9565b604080518083038186803b15801561040a57600080fd5b505afa15801561041e573d6000803e3d6000fd5b505050506040513d601f19601f820116820180604052508101906104429190610f15565b509050606060006104578987600001516108c9565b9150915060007f000000000000000000000000000000000000000000000000000000000000000073ffffffffffffffffffffffffffffffffffffffff1663d2946c2b6040518163ffffffff1660e01b815260040160206040518083038186803b1580156104c357600080fd5b505afa1580156104d7573d6000803e3d6000fd5b505050506040513d601f19601f820116820180604052508101906104fb9190611117565b90508373ffffffffffffffffffffffffffffffffffffffff16636028bfd48b8b8b87878773ffffffffffffffffffffffffffffffffffffffff166355c676286040518163ffffffff1660e01b815260040160206040518083038186803b1580156102ce57600080fd5b604080516002808252606080830184526000939092919060208301908036833701905050905083604001518160008151811061059c57fe5b602002602001019073ffffffffffffffffffffffffffffffffffffffff16908173ffffffffffffffffffffffffffffffffffffffff16815250508360600151816001815181106105e857fe5b73ffffffffffffffffffffffffffffffffffffffff9290921660209283029190910190910152604080516001808252818301909252606091816020015b61062d610c1a565b8152602001906001900390816106255790505090506040518060a00160405280866000015181526020016000815260200160018152602001866080015181526020018660a001518152508160008151811061068457fe5b602002602001018190525060607f000000000000000000000000000000000000000000000000000000000000000073ffffffffffffffffffffffffffffffffffffffff1663f84d066e87602001518486896040518563ffffffff1660e01b81526004016106f4949392919061157e565b600060405180830381600087803b15801561070e57600080fd5b505af1158015610722573d6000803e3d6000fd5b505050506040513d6000823e601f3d908101601f1916820160405261074a919081019061101d565b905060008660200151600181111561075e57fe5b14156107aa5761078860008260018151811061077657fe5b602002602001015113156103e7610a3d565b8060018151811061079557fe5b602002602001015160000393505050506107c5565b806000815181106107b757fe5b602002602001015193505050505b92915050565b6040517ff84d066e00000000000000000000000000000000000000000000000000000000815260609073ffffffffffffffffffffffffffffffffffffffff7f0000000000000000000000000000000000000000000000000000000000000000169063f84d066e9061084690889088908890889060040161157e565b600060405180830381600087803b15801561086057600080fd5b505af1158015610874573d6000803e3d6000fd5b505050506040513d6000823e601f3d908101601f1916820160405261089c919081019061101d565b95945050505050565b7f000000000000000000000000000000000000000000000000000000000000000081565b606060006060806108d985610a4f565b6040517ff94d466800000000000000000000000000000000000000000000000000000000815290915073ffffffffffffffffffffffffffffffffffffffff7f0000000000000000000000000000000000000000000000000000000000000000169063f94d46689061094e9089906004016114e9565b60006040518083038186803b15801561096657600080fd5b505afa15801561097a573d6000803e3d6000fd5b505050506040513d6000823e601f3d908101601f191682016040526109a29190810190610f51565b825184519297509095509193506109b99190610aff565b60005b8251811015610a335760008382815181106109d357fe5b60200260200101519050610a2a8383815181106109ec57fe5b602002602001015173ffffffffffffffffffffffffffffffffffffffff168273ffffffffffffffffffffffffffffffffffffffff1614610208610a3d565b506001016109bc565b5050509250929050565b81610a4b57610a4b81610b0c565b5050565b606080825167ffffffffffffffff81118015610a6a57600080fd5b50604051908082528060200260200182016040528015610a94578160200160208202803683370190505b50905060005b8351811015610af857610abf848281518110610ab257fe5b6020026020010151610b39565b828281518110610acb57fe5b73ffffffffffffffffffffffffffffffffffffffff90921660209283029190910190910152600101610a9a565b5092915050565b610a4b8183146067610a3d565b610b36817f42414c0000000000000000000000000000000000000000000000000000000000610b5e565b50565b6000610b4482610bd9565b610b5657610b5182610bf3565b6107c5565b6107c5610bf6565b7f08c379a000000000000000000000000000000000000000000000000000000000600090815260206004526007602452600a808404818106603090810160081b958390069590950190829004918206850160101b01602363ffffff0060e086901c160160181b0190930160c81b60445260e882901c90606490fd5b73ffffffffffffffffffffffffffffffffffffffff161590565b90565b7f000000000000000000000000000000000000000000000000000000000000000090565b6040518060a0016040528060008019168152602001600081526020016000815260200160008152602001606081525090565b600082601f830112610c5c578081fd5b8135610c6f610c6a826116a5565b61167e565b818152915060208083019084810181840286018201871015610c9057600080fd5b60005b84811015610cb8578135610ca6816116cf565b84529282019290820190600101610c93565b505050505092915050565b600082601f830112610cd3578081fd5b8135610ce1610c6a826116a5565b818152915060208083019084810181840286018201871015610d0257600080fd5b60005b84811015610cb857813584529282019290820190600101610d05565b600082601f830112610d31578081fd5b8151610d3f610c6a826116a5565b818152915060208083019084810181840286018201871015610d6057600080fd5b60005b84811015610cb857815184529282019290820190600101610d63565b803580151581146107c557600080fd5b600082601f830112610d9f578081fd5b813567ffffffffffffffff811115610db5578182fd5b610dc86020601f19601f8401160161167e565b9150808252836020828501011115610ddf57600080fd5b8060208401602084013760009082016020015292915050565b80356107c5816116cf565b8035600281106107c557600080fd5b600060808284031215610e23578081fd5b610e2d608061167e565b9050813567ffffffffffffffff80821115610e4757600080fd5b610e5385838601610c4c565b83526020840135915080821115610e6957600080fd5b610e7585838601610cc3565b60208401526040840135915080821115610e8e57600080fd5b50610e9b84828501610d8f565b604083015250610eae8360608401610d7f565b606082015292915050565b600060808284031215610eca578081fd5b610ed4608061167e565b90508135610ee1816116cf565b8152610ef08360208401610d7f565b60208201526040820135610f03816116cf565b6040820152610eae8360608401610d7f565b60008060408385031215610f27578182fd5b8251610f32816116cf565b602084015190925060038110610f46578182fd5b809150509250929050565b600080600060608486031215610f65578081fd5b835167ffffffffffffffff80821115610f7c578283fd5b818601915086601f830112610f8f578283fd5b8151610f9d610c6a826116a5565b80828252602080830192508086018b828387028901011115610fbd578788fd5b8796505b84871015610fe8578051610fd4816116cf565b845260019690960195928101928101610fc1565b508901519097509350505080821115610fff578283fd5b5061100c86828701610d21565b925050604084015190509250925092565b6000602080838503121561102f578182fd5b825167ffffffffffffffff811115611045578283fd5b8301601f81018513611055578283fd5b8051611063610c6a826116a5565b818152838101908385018584028501860189101561107f578687fd5b8694505b838510156110a1578051835260019490940193918501918501611083565b50979650505050505050565b600080600080608085870312156110c2578182fd5b8435935060208501356110d4816116cf565b925060408501356110e4816116cf565b9150606085013567ffffffffffffffff8111156110ff578182fd5b61110b87828801610e12565b91505092959194509250565b600060208284031215611128578081fd5b8151611133816116cf565b9392505050565b60008060008060e0858703121561114f578182fd5b6111598686610e03565b9350602085013567ffffffffffffffff80821115611175578384fd5b818701915087601f830112611188578384fd5b611195610c6a83356116a5565b82358152602080820191908401865b853581101561122f578135860160a0601f19828f030112156111c4578889fd5b6111ce60a061167e565b6020820135815260408201356020820152606082013560408201526080820135606082015260a082013587811115611204578a8bfd5b6112138f602083860101610d8f565b60808301525085525060209384019391909101906001016111a4565b5090965050506040870135915080821115611248578384fd5b5061125587828801610c4c565b9250506112658660608701610eb9565b905092959194509250565b60008060a08385031215611282578182fd5b823567ffffffffffffffff80821115611299578384fd5b9084019060c082870312156112ac578384fd5b6112b660c061167e565b823581526112c78760208501610e03565b602082015260408301356112da816116cf565b60408201526112ec8760608501610df8565b60608201526080830135608082015260a08301358281111561130c578586fd5b61131888828601610d8f565b60a0830152508094505050506113318460208501610eb9565b90509250929050565b60006020828403121561134b578081fd5b5051919050565b60008060408385031215611364578182fd5b82519150602083015167ffffffffffffffff811115611381578182fd5b61138d85828601610d21565b9150509250929050565b6000815180845260208085019450808401835b838110156113dc57815173ffffffffffffffffffffffffffffffffffffffff16875295820195908201906001016113aa565b509495945050505050565b6000815180845260208085019450808401835b838110156113dc578151875295820195908201906001016113fa565b60008151808452815b8181101561143b5760208185018101518683018201520161141f565b8181111561144c5782602083870101525b50601f01601f19169290920160200192915050565b73ffffffffffffffffffffffffffffffffffffffff808251168352602082015115156020840152806040830151166040840152506060810151151560608301525050565b6020808252825182820181905260009190848201906040850190845b818110156114dd578351835292840192918401916001016114c1565b50909695505050505050565b90815260200190565b600088825273ffffffffffffffffffffffffffffffffffffffff808916602084015280881660408401525060e0606083015261153160e08301876113e7565b8560808401528460a084015282810360c084015261154f8185611416565b9a9950505050505050505050565b73ffffffffffffffffffffffffffffffffffffffff91909116815260200190565b600060e0820161158d876116c5565b868352602060e08185015281875180845261010093508386019150838382028701019350828901855b82811015611636578786037fffffffffffffffffffffffffffffffffffffffffffffffffffffffffffffff000184528151805187528581015186880152604080820151908801526060808201519088015260809081015160a09188018290529061162281890183611416565b9750505092840192908401906001016115b6565b5050505050828103604084015261164d8186611397565b91505061089c6060830184611461565b60008382526040602083015261167660408301846113e7565b949350505050565b60405181810167ffffffffffffffff8111828210171561169d57600080fd5b604052919050565b600067ffffffffffffffff8211156116bb578081fd5b5060209081020190565b60028110610b3657fe5b73ffffffffffffffffffffffffffffffffffffffff81168114610b3657600080fdfea2646970667358221220c140333b1b1ee94763c9ff4225f56537f60659d34cd3fcfc1c7ce2ebdaf5617464736f6c63430007010033",
  "linkReferences": {},
  "deployedLinkReferences": {}
}