{
  "_format": "hh-sol-artifact-1",
  "contractName": "Vault",
  "sourceName": "contracts/Vault.sol",
  "abi": [
    {
      "inputs": [
        {
          "internalType": "contract IAuthorizer",
          "name": "authorizer",
          "type": "address"
        },
        {
          "internalType": "contract IWETH",
          "name": "weth",
          "type": "address"
        },
        {
          "internalType": "uint256",
          "name": "pauseWindowDuration",
          "type": "uint256"
        },
        {
          "internalType": "uint256",
          "name": "bufferPeriodDuration",
          "type": "uint256"
        }
      ],
      "stateMutability": "nonpayable",
      "type": "constructor"
    },
    {
      "anonymous": false,
      "inputs": [
        {
          "indexed": true,
          "internalType": "contract IAuthorizer",
          "name": "newAuthorizer",
          "type": "address"
        }
      ],
      "name": "AuthorizerChanged",
      "type": "event"
    },
    {
      "anonymous": false,
      "inputs": [
        {
          "indexed": true,
          "internalType": "contract IERC20",
          "name": "token",
          "type": "address"
        },
        {
          "indexed": true,
          "internalType": "address",
          "name": "sender",
          "type": "address"
        },
        {
          "indexed": false,
          "internalType": "address",
          "name": "recipient",
          "type": "address"
        },
        {
          "indexed": false,
          "internalType": "uint256",
          "name": "amount",
          "type": "uint256"
        }
      ],
      "name": "ExternalBalanceTransfer",
      "type": "event"
    },
    {
      "anonymous": false,
      "inputs": [
        {
          "indexed": true,
          "internalType": "contract IFlashLoanRecipient",
          "name": "recipient",
          "type": "address"
        },
        {
          "indexed": true,
          "internalType": "contract IERC20",
          "name": "token",
          "type": "address"
        },
        {
          "indexed": false,
          "internalType": "uint256",
          "name": "amount",
          "type": "uint256"
        },
        {
          "indexed": false,
          "internalType": "uint256",
          "name": "feeAmount",
          "type": "uint256"
        }
      ],
      "name": "FlashLoan",
      "type": "event"
    },
    {
      "anonymous": false,
      "inputs": [
        {
          "indexed": true,
          "internalType": "address",
          "name": "user",
          "type": "address"
        },
        {
          "indexed": true,
          "internalType": "contract IERC20",
          "name": "token",
          "type": "address"
        },
        {
          "indexed": false,
          "internalType": "int256",
          "name": "delta",
          "type": "int256"
        }
      ],
      "name": "InternalBalanceChanged",
      "type": "event"
    },
    {
      "anonymous": false,
      "inputs": [
        {
          "indexed": false,
          "internalType": "bool",
          "name": "paused",
          "type": "bool"
        }
      ],
      "name": "PausedStateChanged",
      "type": "event"
    },
    {
      "anonymous": false,
      "inputs": [
        {
          "indexed": true,
          "internalType": "bytes32",
          "name": "poolId",
          "type": "bytes32"
        },
        {
          "indexed": true,
          "internalType": "address",
          "name": "liquidityProvider",
          "type": "address"
        },
        {
          "indexed": false,
          "internalType": "contract IERC20[]",
          "name": "tokens",
          "type": "address[]"
        },
        {
          "indexed": false,
          "internalType": "int256[]",
          "name": "deltas",
          "type": "int256[]"
        },
        {
          "indexed": false,
          "internalType": "uint256[]",
          "name": "protocolFeeAmounts",
          "type": "uint256[]"
        }
      ],
      "name": "PoolBalanceChanged",
      "type": "event"
    },
    {
      "anonymous": false,
      "inputs": [
        {
          "indexed": true,
          "internalType": "bytes32",
          "name": "poolId",
          "type": "bytes32"
        },
        {
          "indexed": true,
          "internalType": "address",
          "name": "assetManager",
          "type": "address"
        },
        {
          "indexed": true,
          "internalType": "contract IERC20",
          "name": "token",
          "type": "address"
        },
        {
          "indexed": false,
          "internalType": "int256",
          "name": "cashDelta",
          "type": "int256"
        },
        {
          "indexed": false,
          "internalType": "int256",
          "name": "managedDelta",
          "type": "int256"
        }
      ],
      "name": "PoolBalanceManaged",
      "type": "event"
    },
    {
      "anonymous": false,
      "inputs": [
        {
          "indexed": true,
          "internalType": "bytes32",
          "name": "poolId",
          "type": "bytes32"
        },
        {
          "indexed": true,
          "internalType": "address",
          "name": "poolAddress",
          "type": "address"
        },
        {
          "indexed": false,
          "internalType": "enum IVault.PoolSpecialization",
          "name": "specialization",
          "type": "uint8"
        }
      ],
      "name": "PoolRegistered",
      "type": "event"
    },
    {
      "anonymous": false,
      "inputs": [
        {
          "indexed": true,
          "internalType": "address",
          "name": "relayer",
          "type": "address"
        },
        {
          "indexed": true,
          "internalType": "address",
          "name": "sender",
          "type": "address"
        },
        {
          "indexed": false,
          "internalType": "bool",
          "name": "approved",
          "type": "bool"
        }
      ],
      "name": "RelayerApprovalChanged",
      "type": "event"
    },
    {
      "anonymous": false,
      "inputs": [
        {
          "indexed": true,
          "internalType": "bytes32",
          "name": "poolId",
          "type": "bytes32"
        },
        {
          "indexed": true,
          "internalType": "contract IERC20",
          "name": "tokenIn",
          "type": "address"
        },
        {
          "indexed": true,
          "internalType": "contract IERC20",
          "name": "tokenOut",
          "type": "address"
        },
        {
          "indexed": false,
          "internalType": "uint256",
          "name": "amountIn",
          "type": "uint256"
        },
        {
          "indexed": false,
          "internalType": "uint256",
          "name": "amountOut",
          "type": "uint256"
        }
      ],
      "name": "Swap",
      "type": "event"
    },
    {
      "anonymous": false,
      "inputs": [
        {
          "indexed": true,
          "internalType": "bytes32",
          "name": "poolId",
          "type": "bytes32"
        },
        {
          "indexed": false,
          "internalType": "contract IERC20[]",
          "name": "tokens",
          "type": "address[]"
        }
      ],
      "name": "TokensDeregistered",
      "type": "event"
    },
    {
      "anonymous": false,
      "inputs": [
        {
          "indexed": true,
          "internalType": "bytes32",
          "name": "poolId",
          "type": "bytes32"
        },
        {
          "indexed": false,
          "internalType": "contract IERC20[]",
          "name": "tokens",
          "type": "address[]"
        },
        {
          "indexed": false,
          "internalType": "address[]",
          "name": "assetManagers",
          "type": "address[]"
        }
      ],
      "name": "TokensRegistered",
      "type": "event"
    },
    {
      "inputs": [],
      "name": "WETH",
      "outputs": [
        {
          "internalType": "contract IWETH",
          "name": "",
          "type": "address"
        }
      ],
      "stateMutability": "view",
      "type": "function"
    },
    {
      "inputs": [
        {
          "internalType": "enum IVault.SwapKind",
          "name": "kind",
          "type": "uint8"
        },
        {
          "components": [
            {
              "internalType": "bytes32",
              "name": "poolId",
              "type": "bytes32"
            },
            {
              "internalType": "uint256",
              "name": "assetInIndex",
              "type": "uint256"
            },
            {
              "internalType": "uint256",
              "name": "assetOutIndex",
              "type": "uint256"
            },
            {
              "internalType": "uint256",
              "name": "amount",
              "type": "uint256"
            },
            {
              "internalType": "bytes",
              "name": "userData",
              "type": "bytes"
            }
          ],
          "internalType": "struct IVault.BatchSwapStep[]",
          "name": "swaps",
          "type": "tuple[]"
        },
        {
          "internalType": "contract IAsset[]",
          "name": "assets",
          "type": "address[]"
        },
        {
          "components": [
            {
              "internalType": "address",
              "name": "sender",
              "type": "address"
            },
            {
              "internalType": "bool",
              "name": "fromInternalBalance",
              "type": "bool"
            },
            {
              "internalType": "address payable",
              "name": "recipient",
              "type": "address"
            },
            {
              "internalType": "bool",
              "name": "toInternalBalance",
              "type": "bool"
            }
          ],
          "internalType": "struct IVault.FundManagement",
          "name": "funds",
          "type": "tuple"
        },
        {
          "internalType": "int256[]",
          "name": "limits",
          "type": "int256[]"
        },
        {
          "internalType": "uint256",
          "name": "deadline",
          "type": "uint256"
        }
      ],
      "name": "batchSwap",
      "outputs": [
        {
          "internalType": "int256[]",
          "name": "assetDeltas",
          "type": "int256[]"
        }
      ],
      "stateMutability": "payable",
      "type": "function"
    },
    {
      "inputs": [
        {
          "internalType": "bytes32",
          "name": "poolId",
          "type": "bytes32"
        },
        {
          "internalType": "contract IERC20[]",
          "name": "tokens",
          "type": "address[]"
        }
      ],
      "name": "deregisterTokens",
      "outputs": [],
      "stateMutability": "nonpayable",
      "type": "function"
    },
    {
      "inputs": [
        {
          "internalType": "bytes32",
          "name": "poolId",
          "type": "bytes32"
        },
        {
          "internalType": "address",
          "name": "sender",
          "type": "address"
        },
        {
          "internalType": "address payable",
          "name": "recipient",
          "type": "address"
        },
        {
          "components": [
            {
              "internalType": "contract IAsset[]",
              "name": "assets",
              "type": "address[]"
            },
            {
              "internalType": "uint256[]",
              "name": "minAmountsOut",
              "type": "uint256[]"
            },
            {
              "internalType": "bytes",
              "name": "userData",
              "type": "bytes"
            },
            {
              "internalType": "bool",
              "name": "toInternalBalance",
              "type": "bool"
            }
          ],
          "internalType": "struct IVault.ExitPoolRequest",
          "name": "request",
          "type": "tuple"
        }
      ],
      "name": "exitPool",
      "outputs": [],
      "stateMutability": "nonpayable",
      "type": "function"
    },
    {
      "inputs": [
        {
          "internalType": "contract IFlashLoanRecipient",
          "name": "recipient",
          "type": "address"
        },
        {
          "internalType": "contract IERC20[]",
          "name": "tokens",
          "type": "address[]"
        },
        {
          "internalType": "uint256[]",
          "name": "amounts",
          "type": "uint256[]"
        },
        {
          "internalType": "bytes",
          "name": "userData",
          "type": "bytes"
        }
      ],
      "name": "flashLoan",
      "outputs": [],
      "stateMutability": "nonpayable",
      "type": "function"
    },
    {
      "inputs": [
        {
          "internalType": "bytes4",
          "name": "selector",
          "type": "bytes4"
        }
      ],
      "name": "getActionId",
      "outputs": [
        {
          "internalType": "bytes32",
          "name": "",
          "type": "bytes32"
        }
      ],
      "stateMutability": "view",
      "type": "function"
    },
    {
      "inputs": [],
      "name": "getAuthorizer",
      "outputs": [
        {
          "internalType": "contract IAuthorizer",
          "name": "",
          "type": "address"
        }
      ],
      "stateMutability": "view",
      "type": "function"
    },
    {
      "inputs": [],
      "name": "getDomainSeparator",
      "outputs": [
        {
          "internalType": "bytes32",
          "name": "",
          "type": "bytes32"
        }
      ],
      "stateMutability": "view",
      "type": "function"
    },
    {
      "inputs": [
        {
          "internalType": "address",
          "name": "user",
          "type": "address"
        },
        {
          "internalType": "contract IERC20[]",
          "name": "tokens",
          "type": "address[]"
        }
      ],
      "name": "getInternalBalance",
      "outputs": [
        {
          "internalType": "uint256[]",
          "name": "balances",
          "type": "uint256[]"
        }
      ],
      "stateMutability": "view",
      "type": "function"
    },
    {
      "inputs": [
        {
          "internalType": "address",
          "name": "account",
          "type": "address"
        }
      ],
      "name": "getNextNonce",
      "outputs": [
        {
          "internalType": "uint256",
          "name": "",
          "type": "uint256"
        }
      ],
      "stateMutability": "view",
      "type": "function"
    },
    {
      "inputs": [],
      "name": "getPausedState",
      "outputs": [
        {
          "internalType": "bool",
          "name": "paused",
          "type": "bool"
        },
        {
          "internalType": "uint256",
          "name": "pauseWindowEndTime",
          "type": "uint256"
        },
        {
          "internalType": "uint256",
          "name": "bufferPeriodEndTime",
          "type": "uint256"
        }
      ],
      "stateMutability": "view",
      "type": "function"
    },
    {
      "inputs": [
        {
          "internalType": "bytes32",
          "name": "poolId",
          "type": "bytes32"
        }
      ],
      "name": "getPool",
      "outputs": [
        {
          "internalType": "address",
          "name": "",
          "type": "address"
        },
        {
          "internalType": "enum IVault.PoolSpecialization",
          "name": "",
          "type": "uint8"
        }
      ],
      "stateMutability": "view",
      "type": "function"
    },
    {
      "inputs": [
        {
          "internalType": "bytes32",
          "name": "poolId",
          "type": "bytes32"
        },
        {
          "internalType": "contract IERC20",
          "name": "token",
          "type": "address"
        }
      ],
      "name": "getPoolTokenInfo",
      "outputs": [
        {
          "internalType": "uint256",
          "name": "cash",
          "type": "uint256"
        },
        {
          "internalType": "uint256",
          "name": "managed",
          "type": "uint256"
        },
        {
          "internalType": "uint256",
          "name": "lastChangeBlock",
          "type": "uint256"
        },
        {
          "internalType": "address",
          "name": "assetManager",
          "type": "address"
        }
      ],
      "stateMutability": "view",
      "type": "function"
    },
    {
      "inputs": [
        {
          "internalType": "bytes32",
          "name": "poolId",
          "type": "bytes32"
        }
      ],
      "name": "getPoolTokens",
      "outputs": [
        {
          "internalType": "contract IERC20[]",
          "name": "tokens",
          "type": "address[]"
        },
        {
          "internalType": "uint256[]",
          "name": "balances",
          "type": "uint256[]"
        },
        {
          "internalType": "uint256",
          "name": "lastChangeBlock",
          "type": "uint256"
        }
      ],
      "stateMutability": "view",
      "type": "function"
    },
    {
      "inputs": [],
      "name": "getProtocolFeesCollector",
      "outputs": [
        {
          "internalType": "contract IProtocolFeesCollector",
          "name": "",
          "type": "address"
        }
      ],
      "stateMutability": "view",
      "type": "function"
    },
    {
      "inputs": [
        {
          "internalType": "address",
          "name": "user",
          "type": "address"
        },
        {
          "internalType": "address",
          "name": "relayer",
          "type": "address"
        }
      ],
      "name": "hasApprovedRelayer",
      "outputs": [
        {
          "internalType": "bool",
          "name": "",
          "type": "bool"
        }
      ],
      "stateMutability": "view",
      "type": "function"
    },
    {
      "inputs": [
        {
          "internalType": "bytes32",
          "name": "poolId",
          "type": "bytes32"
        },
        {
          "internalType": "address",
          "name": "sender",
          "type": "address"
        },
        {
          "internalType": "address",
          "name": "recipient",
          "type": "address"
        },
        {
          "components": [
            {
              "internalType": "contract IAsset[]",
              "name": "assets",
              "type": "address[]"
            },
            {
              "internalType": "uint256[]",
              "name": "maxAmountsIn",
              "type": "uint256[]"
            },
            {
              "internalType": "bytes",
              "name": "userData",
              "type": "bytes"
            },
            {
              "internalType": "bool",
              "name": "fromInternalBalance",
              "type": "bool"
            }
          ],
          "internalType": "struct IVault.JoinPoolRequest",
          "name": "request",
          "type": "tuple"
        }
      ],
      "name": "joinPool",
      "outputs": [],
      "stateMutability": "payable",
      "type": "function"
    },
    {
      "inputs": [
        {
          "components": [
            {
              "internalType": "enum IVault.PoolBalanceOpKind",
              "name": "kind",
              "type": "uint8"
            },
            {
              "internalType": "bytes32",
              "name": "poolId",
              "type": "bytes32"
            },
            {
              "internalType": "contract IERC20",
              "name": "token",
              "type": "address"
            },
            {
              "internalType": "uint256",
              "name": "amount",
              "type": "uint256"
            }
          ],
          "internalType": "struct IVault.PoolBalanceOp[]",
          "name": "ops",
          "type": "tuple[]"
        }
      ],
      "name": "managePoolBalance",
      "outputs": [],
      "stateMutability": "nonpayable",
      "type": "function"
    },
    {
      "inputs": [
        {
          "components": [
            {
              "internalType": "enum IVault.UserBalanceOpKind",
              "name": "kind",
              "type": "uint8"
            },
            {
              "internalType": "contract IAsset",
              "name": "asset",
              "type": "address"
            },
            {
              "internalType": "uint256",
              "name": "amount",
              "type": "uint256"
            },
            {
              "internalType": "address",
              "name": "sender",
              "type": "address"
            },
            {
              "internalType": "address payable",
              "name": "recipient",
              "type": "address"
            }
          ],
          "internalType": "struct IVault.UserBalanceOp[]",
          "name": "ops",
          "type": "tuple[]"
        }
      ],
      "name": "manageUserBalance",
      "outputs": [],
      "stateMutability": "payable",
      "type": "function"
    },
    {
      "inputs": [
        {
          "internalType": "enum IVault.SwapKind",
          "name": "kind",
          "type": "uint8"
        },
        {
          "components": [
            {
              "internalType": "bytes32",
              "name": "poolId",
              "type": "bytes32"
            },
            {
              "internalType": "uint256",
              "name": "assetInIndex",
              "type": "uint256"
            },
            {
              "internalType": "uint256",
              "name": "assetOutIndex",
              "type": "uint256"
            },
            {
              "internalType": "uint256",
              "name": "amount",
              "type": "uint256"
            },
            {
              "internalType": "bytes",
              "name": "userData",
              "type": "bytes"
            }
          ],
          "internalType": "struct IVault.BatchSwapStep[]",
          "name": "swaps",
          "type": "tuple[]"
        },
        {
          "internalType": "contract IAsset[]",
          "name": "assets",
          "type": "address[]"
        },
        {
          "components": [
            {
              "internalType": "address",
              "name": "sender",
              "type": "address"
            },
            {
              "internalType": "bool",
              "name": "fromInternalBalance",
              "type": "bool"
            },
            {
              "internalType": "address payable",
              "name": "recipient",
              "type": "address"
            },
            {
              "internalType": "bool",
              "name": "toInternalBalance",
              "type": "bool"
            }
          ],
          "internalType": "struct IVault.FundManagement",
          "name": "funds",
          "type": "tuple"
        }
      ],
      "name": "queryBatchSwap",
      "outputs": [
        {
          "internalType": "int256[]",
          "name": "",
          "type": "int256[]"
        }
      ],
      "stateMutability": "nonpayable",
      "type": "function"
    },
    {
      "inputs": [
        {
          "internalType": "enum IVault.PoolSpecialization",
          "name": "specialization",
          "type": "uint8"
        }
      ],
      "name": "registerPool",
      "outputs": [
        {
          "internalType": "bytes32",
          "name": "",
          "type": "bytes32"
        }
      ],
      "stateMutability": "nonpayable",
      "type": "function"
    },
    {
      "inputs": [
        {
          "internalType": "bytes32",
          "name": "poolId",
          "type": "bytes32"
        },
        {
          "internalType": "contract IERC20[]",
          "name": "tokens",
          "type": "address[]"
        },
        {
          "internalType": "address[]",
          "name": "assetManagers",
          "type": "address[]"
        }
      ],
      "name": "registerTokens",
      "outputs": [],
      "stateMutability": "nonpayable",
      "type": "function"
    },
    {
      "inputs": [
        {
          "internalType": "contract IAuthorizer",
          "name": "newAuthorizer",
          "type": "address"
        }
      ],
      "name": "setAuthorizer",
      "outputs": [],
      "stateMutability": "nonpayable",
      "type": "function"
    },
    {
      "inputs": [
        {
          "internalType": "bool",
          "name": "paused",
          "type": "bool"
        }
      ],
      "name": "setPaused",
      "outputs": [],
      "stateMutability": "nonpayable",
      "type": "function"
    },
    {
      "inputs": [
        {
          "internalType": "address",
          "name": "sender",
          "type": "address"
        },
        {
          "internalType": "address",
          "name": "relayer",
          "type": "address"
        },
        {
          "internalType": "bool",
          "name": "approved",
          "type": "bool"
        }
      ],
      "name": "setRelayerApproval",
      "outputs": [],
      "stateMutability": "nonpayable",
      "type": "function"
    },
    {
      "inputs": [
        {
          "components": [
            {
              "internalType": "bytes32",
              "name": "poolId",
              "type": "bytes32"
            },
            {
              "internalType": "enum IVault.SwapKind",
              "name": "kind",
              "type": "uint8"
            },
            {
              "internalType": "contract IAsset",
              "name": "assetIn",
              "type": "address"
            },
            {
              "internalType": "contract IAsset",
              "name": "assetOut",
              "type": "address"
            },
            {
              "internalType": "uint256",
              "name": "amount",
              "type": "uint256"
            },
            {
              "internalType": "bytes",
              "name": "userData",
              "type": "bytes"
            }
          ],
          "internalType": "struct IVault.SingleSwap",
          "name": "singleSwap",
          "type": "tuple"
        },
        {
          "components": [
            {
              "internalType": "address",
              "name": "sender",
              "type": "address"
            },
            {
              "internalType": "bool",
              "name": "fromInternalBalance",
              "type": "bool"
            },
            {
              "internalType": "address payable",
              "name": "recipient",
              "type": "address"
            },
            {
              "internalType": "bool",
              "name": "toInternalBalance",
              "type": "bool"
            }
          ],
          "internalType": "struct IVault.FundManagement",
          "name": "funds",
          "type": "tuple"
        },
        {
          "internalType": "uint256",
          "name": "limit",
          "type": "uint256"
        },
        {
          "internalType": "uint256",
          "name": "deadline",
          "type": "uint256"
        }
      ],
      "name": "swap",
      "outputs": [
        {
          "internalType": "uint256",
          "name": "amountCalculated",
          "type": "uint256"
        }
      ],
      "stateMutability": "payable",
      "type": "function"
    },
    {
      "stateMutability": "payable",
      "type": "receive"
    }
  ],
  "bytecode": "0x6101806040523480156200001257600080fd5b5060405162006e7e38038062006e7e833981016040819052620000359162000275565b8382826040518060400160405280601181526020017010985b185b98d95c88158c8815985d5b1d607a1b815250604051806040016040528060018152602001603160f81b815250306001600160a01b031660001b88806001600160a01b03166080816001600160a01b031660601b815250505030604051620000b79062000267565b620000c39190620002c1565b604051809103906000f080158015620000e0573d6000803e3d6000fd5b5060601b6001600160601b03191660a052600160005560c052815160209283012060e0528051910120610100527f8b73c3c69bb8fe3d512ecc4cf759cc79239f7b179b0ffacaa9a75d522b39400f6101205262000147630784ce0083111561019462000180565b6200015b62ed4e0082111561019562000180565b429091016101408190520161016052620001758162000195565b5050505050620002eb565b8162000191576200019181620001f1565b5050565b6040516001600160a01b038216907f94b979b6831a51293e2641426f97747feed46f17779fed9cd18d1ecefcfe92ef90600090a2600380546001600160a01b0390921661010002610100600160a81b0319909216919091179055565b62000203816210905360ea1b62000206565b50565b62461bcd60e51b600090815260206004526007602452600a808404818106603090810160081b958390069590950190829004918206850160101b01602363ffffff0060e086901c160160181b0190930160c81b60445260e882901c90606490fd5b610b9480620062ea83390190565b600080600080608085870312156200028b578384fd5b84516200029881620002d5565b6020860151909450620002ab81620002d5565b6040860151606090960151949790965092505050565b6001600160a01b0391909116815260200190565b6001600160a01b03811681146200020357600080fd5b60805160601c60a05160601c60c05160e05161010051610120516101405161016051615f9b6200034f60003980611a54525080611a3052508061284952508061288b52508061286a5250806110e45250806113985250806105285250615f9b6000f3fe6080604052600436106101a55760003560e01c8063945bcec9116100e1578063e6c460921161008a578063f84d066e11610064578063f84d066e1461048a578063f94d4668146104aa578063fa6e671d146104d9578063fec90d72146104f9576101d3565b8063e6c4609214610427578063ed24911d14610447578063f6c009271461045c576101d3565b8063b05f8e48116100bb578063b05f8e48146103cf578063b95cac28146103ff578063d2946c2b14610412576101d3565b8063945bcec914610385578063aaabadc514610398578063ad5c4648146103ba576101d3565b806352bbbe291161014e5780637d3aeb96116101285780637d3aeb9614610305578063851c1bb3146103255780638bdb39131461034557806390193b7c14610365576101d3565b806352bbbe29146102b25780635c38449e146102c557806366a9c7d2146102e5576101d3565b80630f5a6efa1161017f5780630f5a6efa1461024157806316c38b3c1461026e5780631c0de0511461028e576101d3565b8063058a628f146101d857806309b2760f146101f85780630e8e3e841461022e576101d3565b366101d3576101d16101b5610526565b6001600160a01b0316336001600160a01b03161461020661054b565b005b600080fd5b3480156101e457600080fd5b506101d16101f336600461514d565b61055d565b34801561020457600080fd5b506102186102133660046156dc565b610581565b6040516102259190615d19565b60405180910390f35b6101d161023c366004615314565b610634565b34801561024d57600080fd5b5061026161025c3660046151eb565b610770565b6040516102259190615ce3565b34801561027a57600080fd5b506101d1610289366004615452565b610806565b34801561029a57600080fd5b506102a361081f565b60405161022593929190615d01565b6102186102c0366004615885565b610848565b3480156102d157600080fd5b506101d16102e0366004615651565b6109e9565b3480156102f157600080fd5b506101d161030036600461553b565b610ded565b34801561031157600080fd5b506101d161032036600461550c565b610f8c565b34801561033157600080fd5b50610218610340366004615629565b6110e0565b34801561035157600080fd5b506101d16103603660046154a2565b611132565b34801561037157600080fd5b5061021861038036600461514d565b611148565b61026161039336600461577c565b611163565b3480156103a457600080fd5b506103ad611297565b6040516102259190615b3e565b3480156103c657600080fd5b506103ad6112ab565b3480156103db57600080fd5b506103ef6103ea366004615605565b6112ba565b6040516102259493929190615e94565b6101d161040d3660046154a2565b61137d565b34801561041e57600080fd5b506103ad611396565b34801561043357600080fd5b506101d1610442366004615239565b6113ba565b34801561045357600080fd5b506102186114d6565b34801561046857600080fd5b5061047c61047736600461548a565b6114e0565b604051610225929190615b76565b34801561049657600080fd5b506102616104a53660046156f8565b61150a565b3480156104b657600080fd5b506104ca6104c536600461548a565b6115ee565b60405161022593929190615cad565b3480156104e557600080fd5b506101d16104f43660046151a1565b611622565b34801561050557600080fd5b50610519610514366004615169565b6116b4565b6040516102259190615cf6565b7f00000000000000000000000000000000000000000000000000000000000000005b90565b8161055957610559816116c9565b5050565b6105656116d9565b61056d6116f2565b61057681611720565b61057e611789565b50565b600061058b6116d9565b610593611790565b60006105a233846006546117a5565b6000818152600560205260409020549091506105c49060ff16156101f461054b565b60008181526005602052604090819020805460ff1916600190811790915560068054909101905551339082907f3c13bc30b8e878c53fd2a36b679409c073afd75950be43d8858768e956fbc20e9061061d908790615e15565b60405180910390a3905061062f611789565b919050565b61063c6116d9565b6000806000805b845181101561075b5760008060008060006106718a878151811061066357fe5b6020026020010151896117e4565b9c50939850919650945092509050600185600381111561068d57fe5b14156106a45761069f8483838661185c565b61074a565b866106b6576106b1611790565b600196505b60008560038111156106c457fe5b14156106f5576106d68483838661187f565b6106df8461189f565b1561069f576106ee89846118ac565b985061074a565b61070a6107018561189f565b1561020761054b565b600061071585610548565b9050600286600381111561072557fe5b141561073c57610737818484876118be565b610748565b610748818484876118d7565b505b505060019093019250610643915050565b5061076583611945565b50505061057e611789565b6060815167ffffffffffffffff8111801561078a57600080fd5b506040519080825280602002602001820160405280156107b4578160200160208202803683370190505b50905060005b82518110156107ff576107e0848483815181106107d357fe5b6020026020010151611968565b8282815181106107ec57fe5b60209081029190910101526001016107ba565b5092915050565b61080e6116d9565b6108166116f2565b61057681611993565b600080600061082c611a11565b159250610837611a2e565b9150610841611a52565b9050909192565b60006108526116d9565b61085a611790565b835161086581611a76565b610874834211156101fc61054b565b61088760008760800151116101fe61054b565b60006108968760400151611aa8565b905060006108a78860600151611aa8565b90506108ca816001600160a01b0316836001600160a01b031614156101fd61054b565b6108d2614cd7565b885160808201526020890151819060018111156108eb57fe5b908160018111156108f857fe5b9052506001600160a01b03808416602083015282811660408084019190915260808b0151606084015260a08b01516101008401528951821660c08401528901511660e082015260008061094a83611acd565b9198509250905061098160008c60200151600181111561096657fe5b146109745789831115610979565b898210155b6101fb61054b565b6109998b60400151838c600001518d60200151611bc1565b6109b18b60600151828c604001518d60600151611c9f565b6109d36109c18c6040015161189f565b6109cc5760006109ce565b825b611945565b5050505050506109e1611789565b949350505050565b6109f16116d9565b6109f9611790565b610a0583518351611d79565b6060835167ffffffffffffffff81118015610a1f57600080fd5b50604051908082528060200260200182016040528015610a49578160200160208202803683370190505b5090506060845167ffffffffffffffff81118015610a6657600080fd5b50604051908082528060200260200182016040528015610a90578160200160208202803683370190505b5090506000805b8651811015610c09576000878281518110610aae57fe5b602002602001015190506000878381518110610ac657fe5b60200260200101519050610b11846001600160a01b0316836001600160a01b03161160006001600160a01b0316846001600160a01b031614610b09576066610b0c565b60685b61054b565b819350816001600160a01b03166370a08231306040518263ffffffff1660e01b8152600401610b409190615b3e565b60206040518083038186803b158015610b5857600080fd5b505afa158015610b6c573d6000803e3d6000fd5b505050506040513d601f19601f82011682018060405250810190610b90919061595e565b858481518110610b9c57fe5b602002602001018181525050610bb181611d86565b868481518110610bbd57fe5b602002602001018181525050610beb81868581518110610bd957fe5b6020026020010151101561021061054b565b610bff6001600160a01b0383168b83611e0d565b5050600101610a97565b5060405163f04f270760e01b81526001600160a01b0388169063f04f270790610c3c908990899088908a90600401615c60565b600060405180830381600087803b158015610c5657600080fd5b505af1158015610c6a573d6000803e3d6000fd5b5050505060005b8651811015610ddb576000878281518110610c8857fe5b602002602001015190506000848381518110610ca057fe5b602002602001015190506000826001600160a01b03166370a08231306040518263ffffffff1660e01b8152600401610cd89190615b3e565b60206040518083038186803b158015610cf057600080fd5b505afa158015610d04573d6000803e3d6000fd5b505050506040513d601f19601f82011682018060405250810190610d28919061595e565b9050610d398282101561020361054b565b60008282039050610d62888681518110610d4f57fe5b602002602001015182101561025a61054b565b610d6c8482611e63565b836001600160a01b03168c6001600160a01b03167f0d7d75e01ab95780d3cd1c8ec0dd6c2ce19e3a20427eec8bf53283b6fb8e95f08c8881518110610dad57fe5b602002602001015184604051610dc4929190615e28565b60405180910390a350505050806001019050610c71565b50505050610de7611789565b50505050565b610df56116d9565b610dfd611790565b82610e0781611e85565b610e1383518351611d79565b60005b8351811015610eb1576000848281518110610e2d57fe5b60200260200101519050610e5960006001600160a01b0316826001600160a01b0316141561013561054b565b838281518110610e6557fe5b6020908102919091018101516000888152600a835260408082206001600160a01b0395861683529093529190912080546001600160a01b03191692909116919091179055600101610e16565b506000610ebd85611eb6565b90506002816002811115610ecd57fe5b1415610f1b57610ee3845160021461020c61054b565b610f168585600081518110610ef457fe5b602002602001015186600181518110610f0957fe5b6020026020010151611ed0565b610f43565b6001816002811115610f2957fe5b1415610f3957610f168585611f7c565b610f438585611fd4565b847ff5847d3f2197b16cdcd2098ec95d0905cd1abdaf415f07bb7cef2bba8ac5dec48585604051610f75929190615bc8565b60405180910390a25050610f87611789565b505050565b610f946116d9565b610f9c611790565b81610fa681611e85565b6000610fb184611eb6565b90506002816002811115610fc157fe5b141561100f57610fd7835160021461020c61054b565b61100a8484600081518110610fe857fe5b602002602001015185600181518110610ffd57fe5b6020026020010151612029565b611037565b600181600281111561101d57fe5b141561102d5761100a8484612097565b6110378484612151565b60005b835181101561109d57600a6000868152602001908152602001600020600085838151811061106457fe5b6020908102919091018101516001600160a01b0316825281019190915260400160002080546001600160a01b031916905560010161103a565b50837f7dcdc6d02ef40c7c1a7046a011b058bd7f988fa14e20a66344f9d4e60657d610846040516110ce9190615bb5565b60405180910390a25050610559611789565b60007f000000000000000000000000000000000000000000000000000000000000000082604051602001611115929190615ab8565b604051602081830303815290604052805190602001209050919050565b610de76001858585611143866121b4565b6121c0565b6001600160a01b031660009081526002602052604090205490565b606061116d6116d9565b611175611790565b835161118081611a76565b61118f834211156101fc61054b565b61119b86518551611d79565b6111a78787878b61239e565b91506000805b87518110156112795760008882815181106111c457fe5b6020026020010151905060008583815181106111dc57fe5b602002602001015190506112088884815181106111f557fe5b60200260200101518213156101fb61054b565b600081131561124857885160208a015182916112279185918491611bc1565b6112308361189f565b156112425761123f85826118ac565b94505b5061126f565b600081121561126f57600081600003905061126d83828c604001518d60600151611c9f565b505b50506001016111ad565b5061128381611945565b505061128d611789565b9695505050505050565b60035461010090046001600160a01b031690565b60006112b5610526565b905090565b600080600080856112ca8161262d565b6000806112d689611eb6565b905060028160028111156112e657fe5b14156112fd576112f6898961264b565b9150611328565b600181600281111561130b57fe5b141561131b576112f689896126c5565b6113258989612733565b91505b6113318261274b565b965061133c8261275e565b955061134782612774565b6000998a52600a60209081526040808c206001600160a01b039b8c168d5290915290992054969995989796909616955050505050565b611385611790565b610de76000858585611143866121b4565b7f000000000000000000000000000000000000000000000000000000000000000090565b6113c26116d9565b6113ca611790565b6113d2614d27565b60005b82518110156114cc578281815181106113ea57fe5b602002602001015191506000826020015190506114068161262d565b6040830151611420611418838361277a565b61020961054b565b6000828152600a602090815260408083206001600160a01b038581168552925290912054611453911633146101f661054b565b83516060850151600080611469848787866127d6565b91509150846001600160a01b0316336001600160a01b0316877f6edcaf6241105b4c94c2efdbf3a6b12458eb3d07be3a0e81d24b13c44045fe7a85856040516114b3929190615e28565b60405180910390a45050505050508060010190506113d5565b505061057e611789565b60006112b5612845565b600080826114ed8161262d565b6114f6846128e2565b6114ff85611eb6565b925092505b50915091565b60603330146115c4576000306001600160a01b0316600036604051611530929190615ad0565b6000604051808303816000865af19150503d806000811461156d576040519150601f19603f3d011682016040523d82523d6000602084013e611572565b606091505b50509050806000811461158157fe5b60046000803e6000516001600160e01b031916637d30e60960e11b81146115ac573d6000803e3d6000fd5b50602060005260043d0380600460203e602081016000f35b60606115d28585858961239e565b9050602081510263fa61cc126020830352600482036024820181fd5b6060806000836115fd8161262d565b6060611608866128e8565b90955090506116168161294a565b95979096509350505050565b61162a6116d9565b611632611790565b8261163c81611a76565b6001600160a01b0384811660008181526004602090815260408083209488168084529490915290819020805460ff1916861515179055519091907f46961fdb4502b646d5095fba7600486a8ac05041d55cdf0f16ed677180b5cad8906116a3908690615cf6565b60405180910390a350610f87611789565b60006116c083836129f9565b90505b92915050565b61057e816210905360ea1b612a27565b6116eb6002600054141561019061054b565b6002600055565b60006117096000356001600160e01b0319166110e0565b905061057e6117188233612a88565b61019161054b565b6040516001600160a01b038216907f94b979b6831a51293e2641426f97747feed46f17779fed9cd18d1ecefcfe92ef90600090a2600380546001600160a01b039092166101000274ffffffffffffffffffffffffffffffffffffffff0019909216919091179055565b6001600055565b6117a361179b611a11565b61019261054b565b565b600069ffffffffffffffffffff821660508460028111156117c257fe5b901b17606085901b6bffffffffffffffffffffffff19161790505b9392505050565b600080600080600080600088606001519050336001600160a01b0316816001600160a01b03161461183657876118215761181c6116f2565b600197505b61183661182e82336129f9565b6101f761054b565b885160208a015160408b01516080909b0151919b909a9992985090965090945092505050565b6118718361186986611aa8565b836000612b12565b50610de78482846000611c9f565b6118928261188c86611aa8565b83612b68565b610de78482856000611bc1565b6001600160a01b03161590565b60008282016116c0848210158361054b565b6118cb8385836000612b12565b50610de7828583612b68565b8015610de7576118f26001600160a01b038516848484612b98565b826001600160a01b0316846001600160a01b03167f540a1a3f28340caec336c81d8d7b3df139ee5cdc1839a4f283d7ebb7eaae2d5c8484604051611937929190615b9c565b60405180910390a350505050565b6119548134101561020461054b565b348190038015610559576105593382612bb9565b6001600160a01b039182166000908152600b6020908152604080832093909416825291909152205490565b80156119b3576119ae6119a4611a2e565b421061019361054b565b6119c8565b6119c86119be611a52565b42106101a961054b565b6003805460ff19168215151790556040517f9e3a5e37224532dea67b89face185703738a228a6e8a23dee546960180d3be6490611a06908390615cf6565b60405180910390a150565b6000611a1b611a52565b4211806112b557505060035460ff161590565b7f000000000000000000000000000000000000000000000000000000000000000090565b7f000000000000000000000000000000000000000000000000000000000000000090565b336001600160a01b0382161461057e57611a8e6116f2565b611a9881336129f9565b61057e5761057e816101f7612c33565b6000611ab38261189f565b611ac557611ac082610548565b6116c3565b6116c3610526565b600080600080611ae085608001516128e2565b90506000611af18660800151611eb6565b90506002816002811115611b0157fe5b1415611b1857611b118683612cb4565b9450611b43565b6001816002811115611b2657fe5b1415611b3657611b118683612d64565b611b408683612df7565b94505b611b56866000015187606001518761301c565b809450819550505085604001516001600160a01b031686602001516001600160a01b031687608001517f2170c741c41531aec20e7c107c24eecfdd15e69c9bb0a8dd37b1840b9e0b207b8787604051611bb0929190615e28565b60405180910390a450509193909250565b82611bcb57610de7565b611bd48461189f565b15611c5557611be6811561020261054b565b611bf58347101561020461054b565b611bfd610526565b6001600160a01b031663d0e30db0846040518263ffffffff1660e01b81526004016000604051808303818588803b158015611c3757600080fd5b505af1158015611c4b573d6000803e3d6000fd5b5050505050610de7565b6000611c6085610548565b90508115611c7d576000611c778483876001612b12565b90940393505b8315611c9857611c986001600160a01b038216843087612b98565b5050505050565b82611ca957610de7565b611cb28461189f565b15611d4257611cc4811561020261054b565b611ccc610526565b6001600160a01b0316632e1a7d4d846040518263ffffffff1660e01b8152600401611cf79190615d19565b600060405180830381600087803b158015611d1157600080fd5b505af1158015611d25573d6000803e3d6000fd5b50611d3d925050506001600160a01b03831684612bb9565b610de7565b6000611d4d85610548565b90508115611d6557611d60838286612b68565b611c98565b611c986001600160a01b0382168486611e0d565b610559818314606761054b565b600080611d91611396565b6001600160a01b031663d877845c6040518163ffffffff1660e01b815260040160206040518083038186803b158015611dc957600080fd5b505afa158015611ddd573d6000803e3d6000fd5b505050506040513d601f19601f82011682018060405250810190611e01919061595e565b90506117dd838261304a565b610f878363a9059cbb60e01b8484604051602401611e2c929190615b9c565b60408051601f198184030181529190526020810180516001600160e01b03166001600160e01b03199093169290921790915261308c565b801561055957610559611e74611396565b6001600160a01b0384169083611e0d565b611e8e8161262d565b61057e611e9a826128e2565b6001600160a01b0316336001600160a01b0316146101f561054b565b600061ffff605083901c166116c3600382106101f461054b565b611ef1816001600160a01b0316836001600160a01b0316141561020a61054b565b611f10816001600160a01b0316836001600160a01b031610606661054b565b60008381526009602052604090208054611f4d906001600160a01b0316158015611f45575060018201546001600160a01b0316155b61020b61054b565b80546001600160a01b039384166001600160a01b03199182161782556001909101805492909316911617905550565b6000828152600860205260408120905b8251811015610de7576000611fbd848381518110611fa657fe5b60200260200101518461314090919063ffffffff16565b9050611fcb8161020a61054b565b50600101611f8c565b6000828152600160205260408120905b8251811015610de7576000612012848381518110611ffe57fe5b6020908102919091010151849060006131a3565b90506120208161020a61054b565b50600101611fe4565b6000806000612039868686613250565b92509250925061206361204b84613317565b801561205b575061205b83613317565b61020d61054b565b600095865260096020526040862080546001600160a01b031990811682556001909101805490911690559490945550505050565b6000828152600860205260408120905b8251811015610de75760008382815181106120be57fe5b6020026020010151905061210a61205b600760008881526020019081526020016000206000846001600160a01b03166001600160a01b0316815260200190815260200160002054613317565b60008581526007602090815260408083206001600160a01b038516845290915281208190556121398483613324565b90506121478161020961054b565b50506001016120a7565b6000828152600160205260408120905b8251811015610de757600083828151811061217857fe5b60200260200101519050600061218e8483613432565b905061219c61205b82613317565b6121a68483613441565b505050806001019050612161565b6121bc614d50565b5090565b6121c86116d9565b836121d28161262d565b836121dc81611a76565b6121f0836000015151846020015151611d79565b60606121ff8460000151613513565b9050606061220d88836135a2565b90506060806122208b8b8b8b8b88613633565b915091506122328351835183516137b0565b60606000808d600181111561224357fe5b1415612260576122568b8a8787876137c8565b9092509050612270565b61226d8a8a87878761395b565b91505b600061227b8d611eb6565b9050600281600281111561228b57fe5b14156122f3576122ee8d886000815181106122a257fe5b6020026020010151856000815181106122b757fe5b60200260200101518a6001815181106122cc57fe5b6020026020010151876001815181106122e157fe5b6020026020010151613a86565b61231c565b600181600281111561230157fe5b1415612312576122ee8d8885613ac5565b61231c8d84613b32565b6000808f600181111561232b57fe5b1490508c6001600160a01b03168e7fe5ce249087ce04f05a957192435400fd97868dba0e6a4b4c049abf8af80dae788a6123658a86613b7b565b8960405161237593929190615c27565b60405180910390a3801561238c5761238c83611945565b50505050505050505050611c98611789565b6060835167ffffffffffffffff811180156123b857600080fd5b506040519080825280602002602001820160405280156123e2578160200160208202803683370190505b5090506123ed614d7a565b6123f5614cd7565b60008060005b89518110156126205789818151811061241057fe5b60200260200101519450600089518660200151108015612434575089518660400151105b905061244181606461054b565b60006124638b88602001518151811061245657fe5b6020026020010151611aa8565b9050600061247a8c89604001518151811061245657fe5b905061249d816001600160a01b0316836001600160a01b031614156101fd61054b565b60608801516124ed576124b5600085116101fe61054b565b60006124c28b8484613c23565b6001600160a01b0316876001600160a01b03161490506124e4816101ff61054b565b50606088018590525b87516080880152868a600181111561250157fe5b9081600181111561250e57fe5b9052506001600160a01b0380831660208901528181166040808a01919091526060808b0151908a015260808a01516101008a01528c51821660c08a01528c01511660e088015260008061256089611acd565b919850925090506125728c8585613c45565b97506125a661258083613c5f565b8c8c602001518151811061259057fe5b6020026020010151613c7290919063ffffffff16565b8b8b60200151815181106125b657fe5b6020026020010181815250506125f46125ce82613c5f565b8c8c60400151815181106125de57fe5b6020026020010151613ca690919063ffffffff16565b8b8b604001518151811061260457fe5b60200260200101818152505050505050508060010190506123fb565b5050505050949350505050565b60008181526005602052604090205461057e9060ff166101f461054b565b600080600080600061265c87613cda565b945094509450945050836001600160a01b0316866001600160a01b0316141561268b57829450505050506116c3565b816001600160a01b0316866001600160a01b031614156126b05793506116c392505050565b6126bb6102096116c9565b5050505092915050565b60008281526007602090815260408083206001600160a01b0385168452909152812054816126f282613d50565b80612710575060008581526008602052604090206127109085613d62565b90508061272b576127208561262d565b61272b6102096116c9565b509392505050565b60008281526001602052604081206109e18184613432565b6dffffffffffffffffffffffffffff1690565b60701c6dffffffffffffffffffffffffffff1690565b60e01c90565b60008061278684611eb6565b9050600281600281111561279657fe5b14156127ae576127a68484613d83565b9150506116c3565b60018160028111156127bc57fe5b14156127cc576127a68484613dd4565b6127a68484613dec565b60008060006127e486611eb6565b905060008760028111156127f457fe5b14156128105761280686828787613e04565b925092505061283c565b600187600281111561281e57fe5b14156128305761280686828787613e7f565b61280686828787613efb565b94509492505050565b60007f00000000000000000000000000000000000000000000000000000000000000007f00000000000000000000000000000000000000000000000000000000000000007f00000000000000000000000000000000000000000000000000000000000000006128b2613f5e565b306040516020016128c7959493929190615dcb565b60405160208183030381529060405280519060200120905090565b60601c90565b60608060006128f684611eb6565b9050600281600281111561290657fe5b141561291f5761291584613f62565b9250925050612945565b600181600281111561292d57fe5b141561293c5761291584614097565b612915846141be565b915091565b60606000825167ffffffffffffffff8111801561296657600080fd5b50604051908082528060200260200182016040528015612990578160200160208202803683370190505b5091506000905060005b82518110156115045760008482815181106129b157fe5b602002602001015190506129c4816142ba565b8483815181106129d057fe5b6020026020010181815250506129ee836129e983612774565b6142d5565b92505060010161299a565b6001600160a01b03918216600090815260046020908152604080832093909416825291909152205460ff1690565b62461bcd60e51b600090815260206004526007602452600a808404818106603090810160081b958390069590950190829004918206850160101b01602363ffffff0060e086901c160160181b0190930160c81b60445260e882901c90606490fd5b6003546040516326f8aa2160e21b815260009161010090046001600160a01b031690639be2a88490612ac290869086903090600401615d22565b60206040518083038186803b158015612ada57600080fd5b505afa158015612aee573d6000803e3d6000fd5b505050506040513d601f19601f820116820180604052508101906116c0919061546e565b600080612b1f8686611968565b9050612b388380612b305750848210155b61020161054b565b612b4281856142e1565b9150818103612b5e878783612b5687613c5f565b6000036142ed565b5050949350505050565b6000612b748484611968565b90506000612b8282846118ac565b9050611c98858583612b9387613c5f565b6142ed565b610de7846323b872dd60e01b858585604051602401611e2c93929190615b52565b612bc8814710156101a361054b565b6000826001600160a01b031682604051612be190610548565b60006040518083038185875af1925050503d8060008114612c1e576040519150601f19603f3d011682016040523d82523d6000602084013e612c23565b606091505b50509050610f87816101a461054b565b6000612c3d614348565b9050612c4b8115158361054b565b6000612c55614459565b9050600082612c62614465565b8051906020012033612c7388611148565b85604051602001612c88959493929190615d9f565b604051602081830303815290604052805190602001209050611c988582612cad6144b4565b85886144f3565b600080600080612cd1866080015187602001518860400151613250565b92509250925060008087604001516001600160a01b031688602001516001600160a01b03161015612d06575083905082612d0c565b50829050835b612d188888848461454a565b60408b015160208c01519199509294509092506001600160a01b03918216911610612d4c57612d478183614647565b612d56565b612d568282614647565b909255509295945050505050565b600080612d79846080015185602001516126c5565b90506000612d8f856080015186604001516126c5565b9050612d9d8585848461454a565b6080880180516000908152600760208181526040808420828e01516001600160a01b03908116865290835281852098909855935183529081528282209a830151909516815298909352919096209590955550929392505050565b60808201516000908152600160209081526040822090840151829182918290612e21908390614682565b90506000612e3c88604001518461468290919063ffffffff16565b9050811580612e49575080155b15612e6657612e5b886080015161262d565b612e666102096116c9565b60001991820191016000612e79846146a1565b905060608167ffffffffffffffff81118015612e9457600080fd5b50604051908082528060200260200182016040528015612ebe578160200160208202803683370190505b50600060a08c018190529091505b82811015612f3e576000612ee087836146a5565b9050612eeb816142ba565b838381518110612ef757fe5b602002602001018181525050612f148c60a001516129e983612774565b60a08d015281861415612f2957809850612f35565b84821415612f35578097505b50600101612ecc565b5060405162f64aa560e11b81526001600160a01b038a16906301ec954a90612f70908d90859089908990600401615e36565b602060405180830381600087803b158015612f8a57600080fd5b505af1158015612f9e573d6000803e3d6000fd5b505050506040513d601f19601f82011682018060405250810190612fc2919061595e565b9750600080612fda8c600001518d606001518c61301c565b9092509050612fe989836146bb565b9850612ff588826146ec565b975061300287878b614702565b61300d87868a614702565b50505050505050505092915050565b6000808085600181111561302c57fe5b141561303c575082905081613042565b50819050825b935093915050565b600082820261306e84158061306757508385838161306457fe5b04145b600361054b565b6001670de0b6b3a76400006001830304018115150291505092915050565b6130a06130988361471a565b6101ad61054b565b60006060836001600160a01b0316836040516130bc9190615ae0565b6000604051808303816000865af19150503d80600081146130f9576040519150601f19603f3d011682016040523d82523d6000602084013e6130fe565b606091505b50915091506000821415613116573d6000803e3d6000fd5b610de7815160001480613138575081806020019051810190613138919061546e565b6101a261054b565b600061314c8383613d62565b61319b57508154600180820184556000848152602080822090930180546001600160a01b0319166001600160a01b038616908117909155855490825282860190935260409020919091556116c3565b5060006116c3565b6001600160a01b03821660009081526002840160205260408120548061323057505082546040805180820182526001600160a01b03858116808352602080840187815260008781526001808c018452878220965187546001600160a01b031916961695909517865590519484019490945594820180895590835260028801909452919020919091556117dd565b6000190160009081526001808601602052604082200183905590506117dd565b60008060008060006132628787614720565b9150915060006132728383614751565b60008a8152600960209081526040808320848452600201909152812080546001820154919750929350906132a583613d50565b806132b457506132b482613d50565b806132d557506132c48c87613d83565b80156132d557506132d58c86613d83565b9050806132f0576132e58c61262d565b6132f06102096116c9565b6132fa8383614784565b985061330683836147a9565b975050505050505093509350939050565b6001600160e01b03161590565b6001600160a01b0381166000908152600183016020526040812054801561342857835460001980830191018082146133d057600086600001828154811061336757fe5b60009182526020909120015487546001600160a01b039091169150819088908590811061339057fe5b600091825260208083209190910180546001600160a01b0319166001600160a01b0394851617905592909116815260018881019092526040902090830190555b85548690806133db57fe5b60008281526020808220830160001990810180546001600160a01b03191690559092019092556001600160a01b03871682526001888101909152604082209190915593506116c392505050565b60009150506116c3565b60006116c083836102096147c0565b6001600160a01b0381166000908152600283016020526040812054801561342857835460001980830191018082146134c9576000818152600180880160209081526040808420868552818520815481546001600160a01b0319166001600160a01b039182161782558286015491860191909155905416845260028a0190915290912090830190555b600081815260018088016020908152604080842080546001600160a01b031916815583018490559389556001600160a01b03881683526002890190529181205592506116c3915050565b606080825167ffffffffffffffff8111801561352e57600080fd5b50604051908082528060200260200182016040528015613558578160200160208202803683370190505b50905060005b83518110156107ff5761357684828151811061245657fe5b82828151811061358257fe5b6001600160a01b039092166020928302919091019091015260010161355e565b60608060606135b0856128e8565b915091506135c082518551611d79565b6135d0600083511161020f61054b565b60005b825181101561362a576136228582815181106135eb57fe5b60200260200101516001600160a01b031684838151811061360857fe5b60200260200101516001600160a01b03161461020861054b565b6001016135d3565b50949350505050565b606080606060006136438561294a565b9150915060006136528a6128e2565b905060008b600181111561366257fe5b1461370557806001600160a01b03166374f3b0098b8b8b87876136836147fd565b8e604001516040518863ffffffff1660e01b81526004016136aa9796959493929190615d41565b600060405180830381600087803b1580156136c457600080fd5b505af11580156136d8573d6000803e3d6000fd5b505050506040513d6000823e601f3d908101601f1916820160405261370091908101906153fb565b61379e565b806001600160a01b031663d5c096c48b8b8b87876137216147fd565b8e604001516040518863ffffffff1660e01b81526004016137489796959493929190615d41565b600060405180830381600087803b15801561376257600080fd5b505af1158015613776573d6000803e3d6000fd5b505050506040513d6000823e601f3d908101601f1916820160405261379e91908101906153fb565b909c909b509950505050505050505050565b610f8782841480156137c157508183145b606761054b565b60606000845167ffffffffffffffff811180156137e457600080fd5b5060405190808252806020026020018201604052801561380e578160200160208202803683370190505b50915060005b86515181101561395057600085828151811061382c57fe5b6020026020010151905061385c8860200151838151811061384957fe5b60200260200101518211156101fa61054b565b60008860000151838151811061386e57fe5b6020026020010151905061388881838c8c60600151611bc1565b6138918161189f565b156138a3576138a084836118ac565b93505b60008684815181106138b157fe5b602002602001015190506138cd6138c783611aa8565b82611e63565b80831015613902576138fd8382038a86815181106138e757fe5b60200260200101516146ec90919063ffffffff16565b61392a565b61392a8184038a868151811061391457fe5b60200260200101516146bb90919063ffffffff16565b86858151811061393657fe5b602002602001018181525050505050806001019050613814565b509550959350505050565b6060835167ffffffffffffffff8111801561397557600080fd5b5060405190808252806020026020018201604052801561399f578160200160208202803683370190505b50905060005b855151811015613a7c5760008482815181106139bd57fe5b602002602001015190506139ed876020015183815181106139da57fe5b60200260200101518210156101f961054b565b6000876000015183815181106139ff57fe5b60200260200101519050613a1981838b8b60600151611c9f565b6000858481518110613a2757fe5b60200260200101519050613a3d6138c783611aa8565b613a56613a4a84836118ac565b8986815181106138e757fe5b858581518110613a6257fe5b6020026020010181815250505050508060010190506139a5565b5095945050505050565b6000613a928584614751565b60008781526009602090815260408083208484526002019091529020909150613abb8584614647565b9055505050505050565b60005b8251811015610de757818181518110613add57fe5b6020026020010151600760008681526020019081526020016000206000858481518110613b0657fe5b6020908102919091018101516001600160a01b0316825281019190915260400160002055600101613ac8565b6000828152600160205260408120905b8251811015610de757613b7381848381518110613b5b57fe5b6020026020010151846147029092919063ffffffff16565b600101613b42565b6060825167ffffffffffffffff81118015613b9557600080fd5b50604051908082528060200260200182016040528015613bbf578160200160208202803683370190505b50905060005b83518110156107ff5782613bef57838181518110613bdf57fe5b6020026020010151600003613c04565b838181518110613bfb57fe5b60200260200101515b828281518110613c1057fe5b6020908102919091010152600101613bc5565b600080846001811115613c3257fe5b14613c3d57816109e1565b509092915050565b600080846001811115613c5457fe5b146107ff57826109e1565b60006121bc60ff83901c156101a561054b565b60008282016116c0828412801590613c8a5750848212155b80613c9f5750600084128015613c9f57508482125b600061054b565b60008183036116c0828412801590613cbe5750848213155b80613cd35750600084128015613cd357508482135b600161054b565b6000818152600960205260408120805460018201546001600160a01b0391821692849290911690829081613d0e8685614751565b6000818152600284016020526040902080546001820154919950919250613d358282614784565b9650613d4182826147a9565b94505050505091939590929450565b6000613d5b82613317565b1592915050565b6001600160a01b031660009081526001919091016020526040902054151590565b600082815260096020526040812080546001600160a01b0384811691161480613dbb575060018101546001600160a01b038481169116145b80156109e1575050506001600160a01b03161515919050565b60008281526008602052604081206109e18184613d62565b60008281526001602052604081206109e18184614877565b6000806002856002811115613e1557fe5b1415613e2b57613e26868585614898565b613e55565b6001856002811115613e3957fe5b1415613e4a57613e268685856148a6565b613e558685856148b4565b8215613e6f57613e6f6001600160a01b0385163385611e0d565b5050600081900394909350915050565b6000806002856002811115613e9057fe5b1415613ea657613ea18685856148c2565b613ed0565b6001856002811115613eb457fe5b1415613ec557613ea18685856148d0565b613ed08685856148de565b8215613eeb57613eeb6001600160a01b038516333086612b98565b5090946000869003945092505050565b6000806002856002811115613f0c57fe5b1415613f2457613f1d8685856148ec565b9050613f51565b6001856002811115613f3257fe5b1415613f4357613f1d8685856148fc565b613f4e86858561490c565b90505b6000915094509492505050565b4690565b606080600080600080613f7487613cda565b92975090955093509150506001600160a01b0384161580613f9c57506001600160a01b038216155b15613fc55750506040805160008082526020820190815281830190925294509250612945915050565b60408051600280825260608201835290916020830190803683370190505095508386600081518110613ff357fe5b60200260200101906001600160a01b031690816001600160a01b031681525050818660018151811061402157fe5b6001600160a01b0392909216602092830291909101820152604080516002808252606082018352909290919083019080368337019050509450828560008151811061406857fe5b602002602001018181525050808560018151811061408257fe5b60200260200101818152505050505050915091565b600081815260086020526040902060609081906140b3816146a1565b67ffffffffffffffff811180156140c957600080fd5b506040519080825280602002602001820160405280156140f3578160200160208202803683370190505b509250825167ffffffffffffffff8111801561410e57600080fd5b50604051908082528060200260200182016040528015614138578160200160208202803683370190505b50915060005b83518110156141b7576000614153838361491c565b90508085838151811061416257fe5b6001600160a01b039283166020918202929092018101919091526000888152600782526040808220938516825292909152205484518590849081106141a357fe5b60209081029190910101525060010161413e565b5050915091565b600081815260016020526040902060609081906141da816146a1565b67ffffffffffffffff811180156141f057600080fd5b5060405190808252806020026020018201604052801561421a578160200160208202803683370190505b509250825167ffffffffffffffff8111801561423557600080fd5b5060405190808252806020026020018201604052801561425f578160200160208202803683370190505b50915060005b83518110156141b7576142788282614949565b85838151811061428457fe5b6020026020010185848151811061429757fe5b60209081029190910101919091526001600160a01b039091169052600101614265565b60006142c58261275e565b6142ce8361274b565b0192915050565b80820390821002900390565b80820390821102900390565b6001600160a01b038085166000818152600b602090815260408083209488168084529490915290819020859055517f18e1ea4139e68413d7d08aa752e71568e36b2c5bf940893314c2c5b01eaa0c4290611937908590615d19565b6000803560e01c8063b95cac28811461439057638bdb391381146143b8576352bbbe2981146143e05763945bcec981146144085763fa6e671d81146144305760009250614454565b7f3f7b71252bd19113ff48c19c6e004a9bcfcca320a0d74d58e85877cbd7dcae589250614454565b7f8bbc57f66ea936902f50a71ce12b92c43f3c5340bb40c27c4e90ab84eeae33539250614454565b7fe192dcbc143b1e244ad73b813fd3c097b832ad260a157340b4e5e5beda067abe9250614454565b7f9bfc43a4d98313c6766986ffd7c916c7481566d9f224c6819af0a53388aced3a9250614454565b7fa3f865aa351e51cfeb40f5178d1564bb629fe9030b83caf6361d1baaf5b90b5a92505b505090565b60006112b5600061496d565b60606000368080601f0160208091040260200160405190810160405280939291908181526020018383808284376000920191909152505082519293505050608010156105485760803603815290565b606060006144c2602061496d565b905060006144d0604061496d565b905060006144de606061496d565b90506144eb838383614977565b935050505090565b60006144fe856149b6565b905061451461450e8783876149d2565b8361054b565b614523428410156101b861054b565b5050506001600160a01b039092166000908152600260205260409020805460010190555050565b600080600080614559866142ba565b90506000614566866142ba565b905061457d61457488612774565b6129e988612774565b60a08a015260405163274b044360e21b81526001600160a01b03891690639d2c110c906145b2908c9086908690600401615e6f565b602060405180830381600087803b1580156145cc57600080fd5b505af11580156145e0573d6000803e3d6000fd5b505050506040513d601f19601f82011682018060405250810190614604919061595e565b925060008061461c8b600001518c606001518761301c565b909250905061462b89836146bb565b965061463788826146ec565b9550505050509450945094915050565b60008061465f61465685612774565b6129e985612774565b90506109e161466d8561274b565b6146768561274b565b8363ffffffff16614a81565b6001600160a01b03166000908152600291909101602052604090205490565b5490565b6000908152600191820160205260409020015490565b6000806146d1836146cb8661274b565b906118ac565b905060006146de8561275e565b90504361128d838383614a8f565b6000806146d1836146fc8661274b565b90614ac8565b60009182526001928301602052604090912090910155565b3b151590565b600080826001600160a01b0316846001600160a01b031610614743578284614746565b83835b915091509250929050565b60008282604051602001614766929190615afc565b60405160208183030381529060405280519060200120905092915050565b60006116c06147928461274b565b61479b8461274b565b6147a486612774565b614a8f565b60006116c06147b78461275e565b61479b8461275e565b6001600160a01b03821660009081526002840160205260408120546147e78115158461054b565b6147f485600183036146a5565b95945050505050565b6000614807611396565b6001600160a01b03166355c676286040518163ffffffff1660e01b815260040160206040518083038186803b15801561483f57600080fd5b505afa158015614853573d6000803e3d6000fd5b505050506040513d601f19601f820116820180604052508101906112b5919061595e565b6001600160a01b031660009081526002919091016020526040902054151590565b610de78383614ade84614b19565b610de78383614ade84614bc4565b610de78383614ade84614c1f565b610de78383614c6284614b19565b610de78383614c6284614bc4565b610de78383614c6284614c1f565b60006109e18484614c8385614b19565b60006109e18484614c8385614bc4565b60006109e18484614c8385614c1f565b600082600001828154811061492d57fe5b6000918252602090912001546001600160a01b03169392505050565b600090815260019182016020526040902080549101546001600160a01b0390911691565b3601607f19013590565b60408051604180825260808201909252606091829190602082018180368337019050509050836020820152826040820152846060820153949350505050565b60006149c0612845565b82604051602001611115929190615b23565b60006149e482516041146101b961054b565b60208281015160408085015160608601518251600080825295019283905292939092811a91600190614a1d908990859088908890615df7565b6020604051602081039080840390855afa158015614a3f573d6000803e3d6000fd5b5050604051601f1901519150506001600160a01b03811615801590614a755750876001600160a01b0316816001600160a01b0316145b98975050505050505050565b60e01b60709190911b010190565b6000838301614abd858210801590614ab557506e01000000000000000000000000000082105b61020e61054b565b6147f4858585614a81565b6000614ad883831115600161054b565b50900390565b600080614aee836146fc8661274b565b90506000614aff846146cb8761275e565b90506000614b0c86612774565b905061128d838383614a8f565b6000806000806000614b2a89613cda565b9450509350935093506000836001600160a01b0316896001600160a01b03161415614b75576000614b5f84898b63ffffffff16565b9050614b6b8185614c9d565b9093509050614b97565b6000614b8583898b63ffffffff16565b9050614b918184614c9d565b90925090505b614ba18383614647565b8555614bad8383614cb9565b600190950194909455509192505050949350505050565b600080614bd186866126c5565b90506000614be382858763ffffffff16565b60008881526007602090815260408083206001600160a01b038b16845290915290208190559050614c148183614c9d565b979650505050505050565b600084815260016020526040812081614c388287613432565b90506000614c4a82868863ffffffff16565b9050614c578388836131a3565b50614a758183614c9d565b600080614c72836146cb8661274b565b90506000614aff846146fc8761275e565b600080614c8f8461274b565b9050436147f4828583614a8f565b6000614ca88261275e565b614cb18461275e565b039392505050565b60006116c0614cc78461275e565b614cd08461275e565b6000614a81565b60408051610120810190915280600081526000602082018190526040820181905260608083018290526080830182905260a0830182905260c0830182905260e08301919091526101009091015290565b604080516080810190915280600081526000602082018190526040820181905260609091015290565b60405180608001604052806060815260200160608152602001606081526020016000151581525090565b6040518060a0016040528060008019168152602001600081526020016000815260200160008152602001606081525090565b80356116c381615f35565b600082601f830112614dc7578081fd5b8135614dda614dd582615edf565b615eb8565b818152915060208083019084810181840286018201871015614dfb57600080fd5b60005b84811015614e23578135614e1181615f35565b84529282019290820190600101614dfe565b505050505092915050565b600082601f830112614e3e578081fd5b8135614e4c614dd582615edf565b818152915060208083019084810160005b84811015614e23578135870160a080601f19838c03011215614e7e57600080fd5b614e8781615eb8565b85830135815260408084013587830152606080850135828401526080915081850135818401525082840135925067ffffffffffffffff831115614ec957600080fd5b614ed78c8885870101614fb6565b90820152865250509282019290820190600101614e5d565b600082601f830112614eff578081fd5b8135614f0d614dd582615edf565b818152915060208083019084810181840286018201871015614f2e57600080fd5b60005b84811015614e2357813584529282019290820190600101614f31565b600082601f830112614f5d578081fd5b8151614f6b614dd582615edf565b818152915060208083019084810181840286018201871015614f8c57600080fd5b60005b84811015614e2357815184529282019290820190600101614f8f565b80356116c381615f4a565b600082601f830112614fc6578081fd5b813567ffffffffffffffff811115614fdc578182fd5b614fef601f8201601f1916602001615eb8565b915080825283602082850101111561500657600080fd5b8060208401602084013760009082016020015292915050565b80356116c381615f58565b8035600281106116c357600080fd5b8035600481106116c357600080fd5b600060808284031215615059578081fd5b6150636080615eb8565b9050813567ffffffffffffffff8082111561507d57600080fd5b61508985838601614db7565b8352602084013591508082111561509f57600080fd5b6150ab85838601614eef565b602084015260408401359150808211156150c457600080fd5b506150d184828501614fb6565b6040830152506150e48360608401614fab565b606082015292915050565b600060808284031215615100578081fd5b61510a6080615eb8565b9050813561511781615f35565b8152602082013561512781615f4a565b6020820152604082013561513a81615f35565b604082015260608201356150e481615f4a565b60006020828403121561515e578081fd5b81356116c081615f35565b6000806040838503121561517b578081fd5b823561518681615f35565b9150602083013561519681615f35565b809150509250929050565b6000806000606084860312156151b5578081fd5b83356151c081615f35565b925060208401356151d081615f35565b915060408401356151e081615f4a565b809150509250925092565b600080604083850312156151fd578182fd5b823561520881615f35565b9150602083013567ffffffffffffffff811115615223578182fd5b61522f85828601614db7565b9150509250929050565b6000602080838503121561524b578182fd5b823567ffffffffffffffff811115615261578283fd5b8301601f81018513615271578283fd5b803561527f614dd582615edf565b818152838101908385016080808502860187018a101561529d578788fd5b8795505b848610156153065780828b0312156152b7578788fd5b6152c081615eb8565b6152ca8b8461501f565b8152878301358882015260406152e28c828601614dac565b908201526060838101359082015284526001959095019492860192908101906152a1565b509098975050505050505050565b60006020808385031215615326578182fd5b823567ffffffffffffffff81111561533c578283fd5b8301601f8101851361534c578283fd5b803561535a614dd582615edf565b8181528381019083850160a0808502860187018a1015615378578788fd5b8795505b848610156153065780828b031215615392578788fd5b61539b81615eb8565b6153a58b84615039565b81526153b38b898501614dac565b818901526040838101359082015260606153cf8c828601614dac565b9082015260806153e18c858301614dac565b90820152845260019590950194928601929081019061537c565b6000806040838503121561540d578182fd5b825167ffffffffffffffff80821115615424578384fd5b61543086838701614f4d565b93506020850151915080821115615445578283fd5b5061522f85828601614f4d565b600060208284031215615463578081fd5b81356116c081615f4a565b60006020828403121561547f578081fd5b81516116c081615f4a565b60006020828403121561549b578081fd5b5035919050565b600080600080608085870312156154b7578182fd5b8435935060208501356154c981615f35565b925060408501356154d981615f35565b9150606085013567ffffffffffffffff8111156154f4578182fd5b61550087828801615048565b91505092959194509250565b6000806040838503121561551e578182fd5b82359150602083013567ffffffffffffffff811115615223578182fd5b60008060006060848603121561554f578081fd5b8335925060208085013567ffffffffffffffff8082111561556e578384fd5b61557a88838901614db7565b9450604087013591508082111561558f578384fd5b508501601f810187136155a0578283fd5b80356155ae614dd582615edf565b81815283810190838501858402850186018b10156155ca578687fd5b8694505b838510156155f55780356155e181615f35565b8352600194909401939185019185016155ce565b5080955050505050509250925092565b60008060408385031215615617578182fd5b82359150602083013561519681615f35565b60006020828403121561563a578081fd5b81356001600160e01b0319811681146116c0578182fd5b60008060008060808587031215615666578182fd5b843561567181615f35565b9350602085013567ffffffffffffffff8082111561568d578384fd5b61569988838901614db7565b945060408701359150808211156156ae578384fd5b6156ba88838901614eef565b935060608701359150808211156156cf578283fd5b5061550087828801614fb6565b6000602082840312156156ed578081fd5b81356116c081615f58565b60008060008060e0858703121561570d578182fd5b615717868661502a565b9350602085013567ffffffffffffffff80821115615733578384fd5b61573f88838901614e2e565b94506040870135915080821115615754578384fd5b5061576187828801614db7565b92505061577186606087016150ef565b905092959194509250565b6000806000806000806101208789031215615795578384fd5b61579f888861502a565b955060208088013567ffffffffffffffff808211156157bc578687fd5b6157c88b838c01614e2e565b975060408a01359150808211156157dd578687fd5b6157e98b838c01614db7565b96506157f88b60608c016150ef565b955060e08a013591508082111561580d578485fd5b508801601f81018a1361581e578384fd5b803561582c614dd582615edf565b81815283810190838501858402850186018e1015615848578788fd5b8794505b8385101561586a57803583526001949094019391850191850161584c565b50809650505050505061010087013590509295509295509295565b60008060008060e0858703121561589a578182fd5b843567ffffffffffffffff808211156158b1578384fd5b9086019060c082890312156158c4578384fd5b6158ce60c0615eb8565b823581526158df896020850161502a565b602082015260408301356158f281615f35565b60408201526159048960608501614dac565b60608201526080830135608082015260a083013582811115615924578586fd5b6159308a828601614fb6565b60a08301525080965050505061594986602087016150ef565b939693955050505060a08201359160c0013590565b60006020828403121561596f578081fd5b5051919050565b6001600160a01b03169052565b6000815180845260208085019450808401835b838110156159bb5781516001600160a01b031687529582019590820190600101615996565b509495945050505050565b6000815180845260208085019450808401835b838110156159bb578151875295820195908201906001016159d9565b60008151808452615a0d816020860160208601615eff565b601f01601f19169290920160200192915050565b6000610120825160028110615a3257fe5b808552506020830151615a486020860182615976565b506040830151615a5b6040860182615976565b50606083015160608501526080830151608085015260a083015160a085015260c0830151615a8c60c0860182615976565b5060e0830151615a9f60e0860182615976565b5061010080840151828287015261128d838701826159f5565b9182526001600160e01b031916602082015260240190565b6000828483379101908152919050565b60008251615af2818460208701615eff565b9190910192915050565b6bffffffffffffffffffffffff19606093841b811682529190921b16601482015260280190565b61190160f01b81526002810192909252602282015260420190565b6001600160a01b0391909116815260200190565b6001600160a01b039384168152919092166020820152604081019190915260600190565b6001600160a01b038316815260408101615b8f83615f2b565b8260208301529392505050565b6001600160a01b03929092168252602082015260400190565b6000602082526116c06020830184615983565b600060408252615bdb6040830185615983565b828103602084810191909152845180835285820192820190845b81811015615c1a5784516001600160a01b031683529383019391830191600101615bf5565b5090979650505050505050565b600060608252615c3a6060830186615983565b8281036020840152615c4c81866159c6565b9050828103604084015261128d81856159c6565b600060808252615c736080830187615983565b8281036020840152615c8581876159c6565b90508281036040840152615c9981866159c6565b90508281036060840152614c1481856159f5565b600060608252615cc06060830186615983565b8281036020840152615cd281866159c6565b915050826040830152949350505050565b6000602082526116c060208301846159c6565b901515815260200190565b92151583526020830191909152604082015260600190565b90815260200190565b9283526001600160a01b03918216602084015216604082015260600190565b60008882526001600160a01b03808916602084015280881660408401525060e06060830152615d7360e08301876159c6565b8560808401528460a084015282810360c0840152615d9181856159f5565b9a9950505050505050505050565b94855260208501939093526001600160a01b039190911660408401526060830152608082015260a00190565b9485526020850193909352604084019190915260608301526001600160a01b0316608082015260a00190565b93845260ff9290921660208401526040830152606082015260800190565b60208101615e2283615f2b565b91905290565b918252602082015260400190565b600060808252615e496080830187615a21565b8281036020840152615e5b81876159c6565b604084019590955250506060015292915050565b600060608252615e826060830186615a21565b60208301949094525060400152919050565b938452602084019290925260408301526001600160a01b0316606082015260800190565b60405181810167ffffffffffffffff81118282101715615ed757600080fd5b604052919050565b600067ffffffffffffffff821115615ef5578081fd5b5060209081020190565b60005b83811015615f1a578181015183820152602001615f02565b83811115610de75750506000910152565b6003811061057e57fe5b6001600160a01b038116811461057e57600080fd5b801515811461057e57600080fd5b6003811061057e57600080fdfea264697066735822122016b6775118c0469ca4701986a74c9db42826c1134a3e50bb86480051584b1bd864736f6c6343000701003360c060405234801561001057600080fd5b50604051610b94380380610b9483398101604081905261002f9161004d565b30608052600160005560601b6001600160601b03191660a05261007b565b60006020828403121561005e578081fd5b81516001600160a01b0381168114610074578182fd5b9392505050565b60805160a05160601c610aee6100a66000398061040352806105095250806102975250610aee6000f3fe608060405234801561001057600080fd5b50600436106100935760003560e01c8063851c1bb311610066578063851c1bb3146100f1578063aaabadc514610104578063d877845c14610119578063e42abf3514610121578063fbfa77cf1461014157610093565b806338e9922e1461009857806355c67628146100ad5780636b6b9f69146100cb5780636daefab6146100de575b600080fd5b6100ab6100a6366004610962565b610149565b005b6100b56101a8565b6040516100c29190610a54565b60405180910390f35b6100ab6100d9366004610962565b6101ae565b6100ab6100ec3660046107af565b610201565b6100b56100ff366004610902565b610293565b61010c6102e5565b6040516100c291906109e3565b6100b56102f4565b61013461012f366004610830565b6102fa565b6040516100c29190610a10565b61010c610401565b610151610425565b6101686706f05b59d3b20000821115610258610456565b60018190556040517fa9ba3ffe0b6c366b81232caab38605a0699ad5398d6cce76f91ee809e322dafc9061019d908390610a54565b60405180910390a150565b60015490565b6101b6610425565b6101cc662386f26fc10000821115610259610456565b60028190556040517f5a0b7386237e7f07fa741efc64e59c9387d2cccafec760efed4d53387f20e19a9061019d908390610a54565b610209610468565b610211610425565b61021b8483610481565b60005b8481101561028357600086868381811061023457fe5b90506020020160208101906102499190610946565b9050600085858481811061025957fe5b6020029190910135915061027990506001600160a01b038316858361048e565b505060010161021e565b5061028c6104fe565b5050505050565b60007f0000000000000000000000000000000000000000000000000000000000000000826040516020016102c8929190610992565b604051602081830303815290604052805190602001209050919050565b60006102ef610505565b905090565b60025490565b6060815167ffffffffffffffff8111801561031457600080fd5b5060405190808252806020026020018201604052801561033e578160200160208202803683370190505b50905060005b82518110156103fb5782818151811061035957fe5b60200260200101516001600160a01b03166370a08231306040518263ffffffff1660e01b815260040161038c91906109e3565b60206040518083038186803b1580156103a457600080fd5b505afa1580156103b8573d6000803e3d6000fd5b505050506040513d601f19601f820116820180604052508101906103dc919061097a565b8282815181106103e857fe5b6020908102919091010152600101610344565b50919050565b7f000000000000000000000000000000000000000000000000000000000000000081565b600061043c6000356001600160e01b031916610293565b905061045361044b8233610598565b610191610456565b50565b81610464576104648161062a565b5050565b61047a60026000541415610190610456565b6002600055565b6104648183146067610456565b6104f98363a9059cbb60e01b84846040516024016104ad9291906109f7565b60408051601f198184030181529190526020810180517bffffffffffffffffffffffffffffffffffffffffffffffffffffffff166001600160e01b03199093169290921790915261063a565b505050565b6001600055565b60007f00000000000000000000000000000000000000000000000000000000000000006001600160a01b031663aaabadc56040518163ffffffff1660e01b815260040160206040518083038186803b15801561056057600080fd5b505afa158015610574573d6000803e3d6000fd5b505050506040513d601f19601f820116820180604052508101906102ef919061092a565b60006105a2610505565b6001600160a01b0316639be2a8848484306040518463ffffffff1660e01b81526004016105d193929190610a5d565b60206040518083038186803b1580156105e957600080fd5b505afa1580156105fd573d6000803e3d6000fd5b505050506040513d601f19601f8201168201806040525081019061062191906108db565b90505b92915050565b610453816210905360ea1b6106f4565b61064e61064683610755565b6101ad610456565b60006060836001600160a01b03168360405161066a91906109aa565b6000604051808303816000865af19150503d80600081146106a7576040519150601f19603f3d011682016040523d82523d6000602084013e6106ac565b606091505b509150915060008214156106c4573d6000803e3d6000fd5b6106ee8151600014806106e65750818060200190518101906106e691906108db565b6101a2610456565b50505050565b62461bcd60e51b600090815260206004526007602452600a808404818106603090810160081b958390069590950190829004918206850160101b01602363ffffff0060e086901c160160181b0190930160c81b60445260e882901c90606490fd5b3b151590565b60008083601f84011261076c578182fd5b50813567ffffffffffffffff811115610783578182fd5b602083019150836020808302850101111561079d57600080fd5b9250929050565b803561062481610aa3565b6000806000806000606086880312156107c6578081fd5b853567ffffffffffffffff808211156107dd578283fd5b6107e989838a0161075b565b90975095506020880135915080821115610801578283fd5b5061080e8882890161075b565b909450925050604086013561082281610aa3565b809150509295509295909350565b60006020808385031215610842578182fd5b823567ffffffffffffffff80821115610859578384fd5b818501915085601f83011261086c578384fd5b81358181111561087a578485fd5b838102915061088a848301610a7c565b8181528481019084860184860187018a10156108a4578788fd5b8795505b838610156108ce576108ba8a826107a4565b8352600195909501949186019186016108a8565b5098975050505050505050565b6000602082840312156108ec578081fd5b815180151581146108fb578182fd5b9392505050565b600060208284031215610913578081fd5b81356001600160e01b0319811681146108fb578182fd5b60006020828403121561093b578081fd5b81516108fb81610aa3565b600060208284031215610957578081fd5b81356108fb81610aa3565b600060208284031215610973578081fd5b5035919050565b60006020828403121561098b578081fd5b5051919050565b9182526001600160e01b031916602082015260240190565b60008251815b818110156109ca57602081860181015185830152016109b0565b818111156109d85782828501525b509190910192915050565b6001600160a01b0391909116815260200190565b6001600160a01b03929092168252602082015260400190565b6020808252825182820181905260009190848201906040850190845b81811015610a4857835183529284019291840191600101610a2c565b50909695505050505050565b90815260200190565b9283526001600160a01b03918216602084015216604082015260600190565b60405181810167ffffffffffffffff81118282101715610a9b57600080fd5b604052919050565b6001600160a01b038116811461045357600080fdfea2646970667358221220964227ec3ddb3b3967ecfaaadc510f9a5bac747586c5cb56d9bb1ae21dd8ae3e64736f6c63430007010033",
  "linkReferences": {},
  "deployedLinkReferences": {}
}