{
  "_format": "hh-sol-artifact-1",
  "contractName": "ProtocolFeeSweeper",
  "sourceName": "contracts/ProtocolFeeSweeper.sol",
  "abi": [
    {
      "inputs": [
        {
          "internalType": "contract IVault",
          "name": "vault",
          "type": "address"
        },
        {
          "internalType": "address",
          "name": "feeRecipient",
          "type": "address"
        }
      ],
      "stateMutability": "nonpayable",
      "type": "constructor"
    },
    {
      "inputs": [
        {
          "internalType": "address",
          "name": "target",
          "type": "address"
        }
      ],
      "name": "AddressEmptyCode",
      "type": "error"
    },
    {
      "inputs": [
        {
          "internalType": "address",
          "name": "account",
          "type": "address"
        }
      ],
      "name": "AddressInsufficientBalance",
      "type": "error"
    },
    {
      "inputs": [],
      "name": "BurnerDidNotConsumeAllowance",
      "type": "error"
    },
    {
      "inputs": [],
      "name": "CannotReceiveEth",
      "type": "error"
    },
    {
      "inputs": [],
      "name": "FailedInnerCall",
      "type": "error"
    },
    {
      "inputs": [],
      "name": "InvalidFeeRecipient",
      "type": "error"
    },
    {
      "inputs": [],
      "name": "InvalidProtocolFeeBurner",
      "type": "error"
    },
    {
      "inputs": [],
      "name": "InvalidTargetToken",
      "type": "error"
    },
    {
      "inputs": [
        {
          "internalType": "address",
          "name": "protocolFeeBurner",
          "type": "address"
        }
      ],
      "name": "ProtocolFeeBurnerAlreadyAdded",
      "type": "error"
    },
    {
      "inputs": [
        {
          "internalType": "address",
          "name": "protocolFeeBurner",
          "type": "address"
        }
      ],
      "name": "ProtocolFeeBurnerNotAdded",
      "type": "error"
    },
    {
      "inputs": [],
      "name": "ReentrancyGuardReentrantCall",
      "type": "error"
    },
    {
      "inputs": [
        {
          "internalType": "address",
          "name": "token",
          "type": "address"
        }
      ],
      "name": "SafeERC20FailedOperation",
      "type": "error"
    },
    {
      "inputs": [],
      "name": "SenderNotAllowed",
      "type": "error"
    },
    {
      "inputs": [
        {
          "internalType": "address",
          "name": "protocolFeeBurner",
          "type": "address"
        }
      ],
      "name": "UnsupportedProtocolFeeBurner",
      "type": "error"
    },
    {
      "inputs": [],
      "name": "UnwrapIsNotAllowed",
      "type": "error"
    },
    {
      "inputs": [],
      "name": "VaultNotSet",
      "type": "error"
    },
    {
      "anonymous": false,
      "inputs": [
        {
          "indexed": true,
          "internalType": "address",
          "name": "feeRecipient",
          "type": "address"
        }
      ],
      "name": "FeeRecipientSet",
      "type": "event"
    },
    {
      "anonymous": false,
      "inputs": [
        {
          "indexed": true,
          "internalType": "address",
          "name": "protocolFeeBurner",
          "type": "address"
        }
      ],
      "name": "ProtocolFeeBurnerAdded",
      "type": "event"
    },
    {
      "anonymous": false,
      "inputs": [
        {
          "indexed": true,
          "internalType": "address",
          "name": "protocolFeeBurner",
          "type": "address"
        }
      ],
      "name": "ProtocolFeeBurnerRemoved",
      "type": "event"
    },
    {
      "anonymous": false,
      "inputs": [
        {
          "indexed": true,
          "internalType": "address",
          "name": "pool",
          "type": "address"
        },
        {
          "indexed": true,
          "internalType": "contract IERC20",
          "name": "feeToken",
          "type": "address"
        },
        {
          "indexed": false,
          "internalType": "uint256",
          "name": "feeTokenAmount",
          "type": "uint256"
        },
        {
          "indexed": false,
          "internalType": "address",
          "name": "recipient",
          "type": "address"
        }
      ],
      "name": "ProtocolFeeSwept",
      "type": "event"
    },
    {
      "anonymous": false,
      "inputs": [
        {
          "indexed": true,
          "internalType": "contract IERC20",
          "name": "token",
          "type": "address"
        }
      ],
      "name": "TargetTokenSet",
      "type": "event"
    },
    {
      "stateMutability": "payable",
      "type": "fallback"
    },
    {
      "inputs": [
        {
          "internalType": "contract IProtocolFeeBurner",
          "name": "protocolFeeBurner",
          "type": "address"
        }
      ],
      "name": "addProtocolFeeBurner",
      "outputs": [],
      "stateMutability": "nonpayable",
      "type": "function"
    },
    {
      "inputs": [
        {
          "internalType": "bytes4",
          "name": "selector",
          "type": "bytes4"
        }
      ],
      "name": "getActionId",
      "outputs": [
        {
          "internalType": "bytes32",
          "name": "",
          "type": "bytes32"
        }
      ],
      "stateMutability": "view",
      "type": "function"
    },
    {
      "inputs": [],
      "name": "getAuthorizer",
      "outputs": [
        {
          "internalType": "contract IAuthorizer",
          "name": "",
          "type": "address"
        }
      ],
      "stateMutability": "view",
      "type": "function"
    },
    {
      "inputs": [],
      "name": "getFeeRecipient",
      "outputs": [
        {
          "internalType": "address",
          "name": "",
          "type": "address"
        }
      ],
      "stateMutability": "view",
      "type": "function"
    },
    {
      "inputs": [],
      "name": "getProtocolFeeController",
      "outputs": [
        {
          "internalType": "contract IProtocolFeeController",
          "name": "",
          "type": "address"
        }
      ],
      "stateMutability": "view",
      "type": "function"
    },
    {
      "inputs": [],
      "name": "getTargetToken",
      "outputs": [
        {
          "internalType": "contract IERC20",
          "name": "",
          "type": "address"
        }
      ],
      "stateMutability": "view",
      "type": "function"
    },
    {
      "inputs": [],
      "name": "getVault",
      "outputs": [
        {
          "internalType": "contract IVault",
          "name": "",
          "type": "address"
        }
      ],
      "stateMutability": "view",
      "type": "function"
    },
    {
      "inputs": [
        {
          "internalType": "address",
          "name": "protocolFeeBurner",
          "type": "address"
        }
      ],
      "name": "isApprovedProtocolFeeBurner",
      "outputs": [
        {
          "internalType": "bool",
          "name": "",
          "type": "bool"
        }
      ],
      "stateMutability": "view",
      "type": "function"
    },
    {
      "inputs": [
        {
          "internalType": "contract IERC20[]",
          "name": "feeTokens",
          "type": "address[]"
        }
      ],
      "name": "recoverProtocolFees",
      "outputs": [],
      "stateMutability": "nonpayable",
      "type": "function"
    },
    {
      "inputs": [
        {
          "internalType": "contract IProtocolFeeBurner",
          "name": "protocolFeeBurner",
          "type": "address"
        }
      ],
      "name": "removeProtocolFeeBurner",
      "outputs": [],
      "stateMutability": "nonpayable",
      "type": "function"
    },
    {
      "inputs": [
        {
          "internalType": "address",
          "name": "feeRecipient",
          "type": "address"
        }
      ],
      "name": "setFeeRecipient",
      "outputs": [],
      "stateMutability": "nonpayable",
      "type": "function"
    },
    {
      "inputs": [
        {
          "internalType": "contract IERC20",
          "name": "targetToken",
          "type": "address"
        }
      ],
      "name": "setTargetToken",
      "outputs": [],
      "stateMutability": "nonpayable",
      "type": "function"
    },
    {
      "inputs": [
        {
          "internalType": "address",
          "name": "pool",
          "type": "address"
        },
        {
          "internalType": "contract IERC20",
          "name": "feeToken",
          "type": "address"
        },
        {
          "internalType": "uint256",
          "name": "minTargetTokenAmountOut",
          "type": "uint256"
        },
        {
          "internalType": "uint256",
          "name": "deadline",
          "type": "uint256"
        },
        {
          "internalType": "contract IProtocolFeeBurner",
          "name": "feeBurner",
          "type": "address"
        }
      ],
      "name": "sweepProtocolFeesForToken",
      "outputs": [],
      "stateMutability": "nonpayable",
      "type": "function"
    },
    {
      "inputs": [
        {
          "internalType": "address",
          "name": "pool",
          "type": "address"
        },
        {
          "internalType": "contract IERC4626",
          "name": "feeToken",
          "type": "address"
        },
        {
          "internalType": "uint256",
          "name": "minTargetTokenAmountOut",
          "type": "uint256"
        },
        {
          "internalType": "uint256",
          "name": "deadline",
          "type": "uint256"
        },
        {
          "internalType": "contract IProtocolFeeBurner",
          "name": "feeBurner",
          "type": "address"
        }
      ],
      "name": "sweepProtocolFeesForWrappedToken",
      "outputs": [],
      "stateMutability": "nonpayable",
      "type": "function"
    },
    {
      "stateMutability": "payable",
      "type": "receive"
    }
  ],
  "bytecode": "0x60c0346100fe57601f611fe938819003918201601f19168301916001600160401b038311848410176101025780849260409485528339810103126100fe5780516001600160a01b0391828216908183036100fe57602001519283168093036100fe5730608052156100ef5760a05280156100e057600180546001600160a01b03191682179055604051907fbf9a9534339a9d6b81696e05dcfb614b7dc518a31d48be3cfb757988381fb3235f80a2611ed29081610117823960805181611937015260a051818181610f0601528181610fe8015281816119c50152611ae10152f35b630ed1b8b360e31b5f5260045ffd5b630647140b60e51b5f5260045ffd5b5f80fd5b634e487b7160e01b5f52604160045260245ffdfe608060405260048036101561009e575b36156100785734610078576064906020604051917f08c379a0000000000000000000000000000000000000000000000000000000008352820152600f60248201527f4e6f7420696d706c656d656e74656400000000000000000000000000000000006044820152fd5b7ff2238896000000000000000000000000000000000000000000000000000000005f525ffd5b5f3560e01c80631b66cb001461179c5780634ccb20c01461176957806380db0d5114611737578063851c1bb3146116e857806385f2dbd4146116b057806388f6d2a41461100c5780638d928af814610fbc5780639c5cee9b14610f72578063aaabadc514610eb2578063b0edcc5314610caa578063b11f061e14610bd3578063b974699514610300578063e20c482f146101fb5763e74b981b0361000f57346101f75760206003193601126101f757610155611828565b6001549073ffffffffffffffffffffffffffffffffffffffff9061017b82841630611a5f565b169182156101d157507fffffffffffffffffffffffff00000000000000000000000000000000000000001681176001557fbf9a9534339a9d6b81696e05dcfb614b7dc518a31d48be3cfb757988381fb3235f80a2005b7f768dc598000000000000000000000000000000000000000000000000000000005f525ffd5b5f80fd5b50346101f75760206003193601126101f757610215611828565b73ffffffffffffffffffffffffffffffffffffffff90610239826001541630611a5f565b1690815f52600260205260ff60405f2054166102d75781156102b15750805f52600260205260405f2060017fffffffffffffffffffffffffffffffffffffffffffffffffffffffffffffff008254161790557f0ef09fc346b7c2cae78d9a37ed785840e7d3c6072022cd8c41c3b37a239b7fd15f80a2005b7f31ec2736000000000000000000000000000000000000000000000000000000005f525ffd5b7f6fe47af6000000000000000000000000000000000000000000000000000000005f525260245ffd5b50346101f75760a06003193601126101f75761031a611828565b6024359073ffffffffffffffffffffffffffffffffffffffff8216908183036101f75761034561184b565b9161034e611be0565b61037073ffffffffffffffffffffffffffffffffffffffff6001541630611a5f565b83925f9173ffffffffffffffffffffffffffffffffffffffff8216610b22575b6040517f70a0823100000000000000000000000000000000000000000000000000000000968782523089830152602082602481865afa918215610ae3575f92610aee575b5073ffffffffffffffffffffffffffffffffffffffff6103f2611982565b16803b156101f7576040517f8f4ab9ca00000000000000000000000000000000000000000000000000000000815273ffffffffffffffffffffffffffffffffffffffff88168b8201525f8160248183865af18015610ae357610ad0575b50803b15610acc578573ffffffffffffffffffffffffffffffffffffffff606489838e9560405196879586947fb53a70b200000000000000000000000000000000000000000000000000000000865216908401523060248401528960448401525af180156109c857908691610ab4575b50506040519788523089890152602088602481865afa978815610aa9578598610a75575b5081880391888311610a495782980361051c575b5f7f9b779b17422d0df92223018b32b4d1fa46e071723d6817e2486d003becc55f005d005b73ffffffffffffffffffffffffffffffffffffffff841615610a335750835473ffffffffffffffffffffffffffffffffffffffff16918083036105a257505050508061057b575061056d9350611cb6565b5f80808080808080806104f7565b807fca9e3a1e00000000000000000000000000000000000000000000000000000000869252fd5b84979395946108df575b50506040517f095ea7b300000000000000000000000000000000000000000000000000000000602082015273ffffffffffffffffffffffffffffffffffffffff85166024820152604480820184905281526106086064826118cb565b86808251602084018273ffffffffffffffffffffffffffffffffffffffff8b165af1610632611da6565b816108b0575b5080610890575b1561081f575b5073ffffffffffffffffffffffffffffffffffffffff600154169173ffffffffffffffffffffffffffffffffffffffff85163b1561081b5773ffffffffffffffffffffffffffffffffffffffff604051947fde557a32000000000000000000000000000000000000000000000000000000008652168885015273ffffffffffffffffffffffffffffffffffffffff8616602485015260448401526064830152604435608483015260a482015260643560c4820152838160e4818373ffffffffffffffffffffffffffffffffffffffff87165af18015610810579084916107f8575b505073ffffffffffffffffffffffffffffffffffffffff60446020928260405195869485937fdd62ed3e000000000000000000000000000000000000000000000000000000008552308b860152166024840152165afa9081156107ed5782916107bb575b5061079657505061056d565b7fc5bc8d51000000000000000000000000000000000000000000000000000000008152fd5b90506020813d6020116107e5575b816107d6602093836118cb565b810103126101f757515f61078a565b3d91506107c9565b6040513d84823e3d90fd5b6108019061186e565b61080c57825f610726565b8280fd5b6040513d86823e3d90fd5b8680fd5b61088a906108846040517f095ea7b300000000000000000000000000000000000000000000000000000000602082015273ffffffffffffffffffffffffffffffffffffffff881660248201528960448201526044815261087e816118af565b88611d14565b86611d14565b5f610645565b5073ffffffffffffffffffffffffffffffffffffffff86163b151561063f565b80518015925082156108c5575b50505f610638565b6108d89250602080918301019101611c9e565b5f806108bd565b91925094506040517f38d52e0f0000000000000000000000000000000000000000000000000000000081526020818981855afa908115610a28579087929183916109d3575b5090606473ffffffffffffffffffffffffffffffffffffffff602093169760405194859384927fba0876520000000000000000000000000000000000000000000000000000000084528d8401523060248401523060448401525af19081156109c8578691610996575b50905f806105ac565b90506020813d6020116109c0575b816109b1602093836118cb565b810103126101f757515f61098d565b3d91506109a4565b6040513d88823e3d90fd5b919250506020813d602011610a20575b816109f0602093836118cb565b8101031261081b575173ffffffffffffffffffffffffffffffffffffffff8116810361081b578691906064610924565b3d91506109e3565b6040513d89823e3d90fd5b95509550505050610a449350611cb6565b61056d565b60248660118c7f4e487b7100000000000000000000000000000000000000000000000000000000835252fd5b9097506020813d602011610aa1575b81610a91602093836118cb565b810103126101f75751965f6104e3565b3d9150610a84565b6040513d87823e3d90fd5b610abd9061186e565b610ac857845f6104bf565b8480fd5b8580fd5b610adb91965061186e565b5f945f61044f565b6040513d5f823e3d90fd5b9091506020813d602011610b1a575b81610b0a602093836118cb565b810103126101f75751905f6103d4565b3d9150610afd565b73ffffffffffffffffffffffffffffffffffffffff82165f52600260205260ff60405f2054165f14610b915773ffffffffffffffffffffffffffffffffffffffff5f541661039057867f8562eb45000000000000000000000000000000000000000000000000000000005f525ffd5b8673ffffffffffffffffffffffffffffffffffffffff837f38553f6c000000000000000000000000000000000000000000000000000000005f5216905260245ffd5b50346101f75760206003193601126101f757610bed611828565b73ffffffffffffffffffffffffffffffffffffffff90610c11826001541630611a5f565b1690815f52600260205260ff60405f20541615610c815750805f52600260205260405f207fffffffffffffffffffffffffffffffffffffffffffffffffffffffffffffff0081541690557f0ed3ea501d1a23f23a7dc56c2d33e1e5a6a97694c707ef67b1e0159f239746bf5f80a2005b7fbca5ab34000000000000000000000000000000000000000000000000000000005f525260245ffd5b50346101f7576020806003193601126101f75781359167ffffffffffffffff918284116101f757366023850112156101f75783820135926024908411610e86576005948460051b60405195610d01858301886118cb565b8652602484870191830101913683116101f757602401905b828210610e5a57505050610d2b611be0565b73ffffffffffffffffffffffffffffffffffffffff9360019480600154163303610e335785965f965b610d7d575f7f9b779b17422d0df92223018b32b4d1fa46e071723d6817e2486d003becc55f005d005b8251871015610e2e57818588831b850101511696604051977f70a0823100000000000000000000000000000000000000000000000000000000895230888a015286898781845afa8015610ae3578a995f91610df9575b5090818a9392610de7575b50500196610d54565b610df2913390611c35565b5f80610dde565b8093929a50888092503d8311610e27575b610e1481836118cb565b810103126101f757905189989089610dd3565b503d610e0a565b6104f7565b847f23dada53000000000000000000000000000000000000000000000000000000005f525ffd5b813573ffffffffffffffffffffffffffffffffffffffff811681036101f7578152908401908401610d19565b6041837f4e487b71000000000000000000000000000000000000000000000000000000005f525260245ffd5b50346101f7575f6003193601126101f75773ffffffffffffffffffffffffffffffffffffffff602060405180937faaabadc500000000000000000000000000000000000000000000000000000000825281847f0000000000000000000000000000000000000000000000000000000000000000165afa908115610ae3576020925f92610f43575b5060405191168152f35b610f64919250833d8511610f6b575b610f5c81836118cb565b810190611a33565b905f610f39565b503d610f52565b346101f75760206003193601126101f75773ffffffffffffffffffffffffffffffffffffffff610fa0611828565b165f526002602052602060ff60405f2054166040519015158152f35b346101f7575f6003193601126101f757602060405173ffffffffffffffffffffffffffffffffffffffff7f0000000000000000000000000000000000000000000000000000000000000000168152f35b50346101f75760a06003193601126101f757611026611828565b60249081359073ffffffffffffffffffffffffffffffffffffffff8083168093036101f75761105361184b565b9361105c611be0565b61106a826001541630611a5f565b815f9516918215159485611641575b604051917f70a082310000000000000000000000000000000000000000000000000000000095868452308a85015260209788858781875afa948515610ae3575f95611612575b50826110c9611982565b1694853b156101f7578b956040517f8f4ab9ca00000000000000000000000000000000000000000000000000000000815285851680988201525f818a8183865af18015610ae3576115ff575b50803b156115fb578b8760648f8360405195869485937fb53a70b20000000000000000000000000000000000000000000000000000000085528401528d30908401528b60448401525af180156115f057908c916115d8575b5050604051988952308c8a015289898881885afa9889156115cd578b9961159e575b5080890398808a1161157357036111c5575f7f9b779b17422d0df92223018b32b4d1fa46e071723d6817e2486d003becc55f005d005b1561155b575087548116908282036111fe5789897fca9e3a1e000000000000000000000000000000000000000000000000000000008152fd5b6040517f38d52e0f00000000000000000000000000000000000000000000000000000000815288818c81875afa90811561155057899183918c91611511575b50169760648c8c60405197889485937fba087652000000000000000000000000000000000000000000000000000000008552840152308b8401523060448401525af19283156115065789936114d7575b50604080517f095ea7b300000000000000000000000000000000000000000000000000000000818b0181815273ffffffffffffffffffffffffffffffffffffffff8a16838a019081526020810188905291938d9283929161131791869101037fffffffffffffffffffffffffffffffffffffffffffffffffffffffffffffffe081018652856118cb565b835190828d5af1611326611da6565b816114a7575b508061149d575b15611469575b50506001541691853b1561146557604051937fde557a320000000000000000000000000000000000000000000000000000000085528a850152868585015260448401526064830152604435608483015260a482015260643560c4820152858160e48183875af180156109c85785939291879161144a575b505060449060405194859384927fdd62ed3e000000000000000000000000000000000000000000000000000000008452308b8501528301525afa91821561143f578392611411575b50506107965750505b5f808080808080808080806104f7565b90809250813d8311611438575b61142881836118cb565b810103126101f757515f806113f8565b503d61141e565b6040513d85823e3d90fd5b611457919293945061186e565b610ac857908391855f6113b0565b8880fd5b61087e61149692604051908c82015289898201528c604482015260448152611490816118af565b8a611d14565b5f80611339565b50883b1515611333565b8051801592508c9083156114bf575b5050505f61132c565b6114cf9350820181019101611c9e565b5f8b816114b6565b9092508781813d83116114ff575b6114ef81836118cb565b810103126101f75751915f61128d565b503d6114e5565b6040513d8b823e3d90fd5b928092508391503d8311611549575b61152a81836118cb565b8101031261154557518181168103611545578189915f61123d565b8980fd5b503d611520565b6040513d8c823e3d90fd5b95975050945050505061156e9350611cb6565b611401565b878c60118f7f4e487b7100000000000000000000000000000000000000000000000000000000835252fd5b9098508981813d83116115c6575b6115b681836118cb565b810103126101f75751975f61118f565b503d6115ac565b6040513d8d823e3d90fd5b6115e19061186e565b6115ec578a5f61116d565b8a80fd5b6040513d8e823e3d90fd5b8b80fd5b61160a919c5061186e565b5f9a5f611115565b9094508881813d831161163a575b61162a81836118cb565b810103126101f75751935f6110bf565b503d611620565b835f52600260205260ff60405f2054165f1461168657815f541661107957877f8562eb45000000000000000000000000000000000000000000000000000000005f525ffd5b8284897f38553f6c000000000000000000000000000000000000000000000000000000005f52525ffd5b346101f7575f6003193601126101f75760206116ca611982565b73ffffffffffffffffffffffffffffffffffffffff60405191168152f35b50346101f75760206003193601126101f757357fffffffff00000000000000000000000000000000000000000000000000000000811681036101f75761172f60209161190c565b604051908152f35b346101f7575f6003193601126101f757602073ffffffffffffffffffffffffffffffffffffffff5f5416604051908152f35b346101f7575f6003193601126101f757602073ffffffffffffffffffffffffffffffffffffffff60015416604051908152f35b346101f75760206003193601126101f7576117b5611828565b73ffffffffffffffffffffffffffffffffffffffff906117d9826001541630611a5f565b16807fffffffffffffffffffffffff00000000000000000000000000000000000000005f5416175f557f873950c2ac59c570001b99d815ffb260542df229d07132922e2e6f9941fd3da65f80a2005b6004359073ffffffffffffffffffffffffffffffffffffffff821682036101f757565b6084359073ffffffffffffffffffffffffffffffffffffffff821682036101f757565b67ffffffffffffffff811161188257604052565b7f4e487b71000000000000000000000000000000000000000000000000000000005f52604160045260245ffd5b6080810190811067ffffffffffffffff82111761188257604052565b90601f7fffffffffffffffffffffffffffffffffffffffffffffffffffffffffffffffe0910116810190811067ffffffffffffffff82111761188257604052565b6040517fffffffff0000000000000000000000000000000000000000000000000000000060208201927f00000000000000000000000000000000000000000000000000000000000000008452166040820152602481526060810181811067ffffffffffffffff8211176118825760405251902090565b6040517f85f2dbd400000000000000000000000000000000000000000000000000000000815273ffffffffffffffffffffffffffffffffffffffff6020826004817f000000000000000000000000000000000000000000000000000000000000000085165afa918215610ae3575f926119fa57505090565b9091506020813d602011611a2b575b81611a16602093836118cb565b810103126101f7575190811681036101f75790565b3d9150611a09565b908160209103126101f7575173ffffffffffffffffffffffffffffffffffffffff811681036101f75790565b9073ffffffffffffffffffffffffffffffffffffffff8091163303611a82575050565b611aae7fffffffff000000000000000000000000000000000000000000000000000000005f351661190c565b91604051907faaabadc50000000000000000000000000000000000000000000000000000000082526020938483600481877f0000000000000000000000000000000000000000000000000000000000000000165afa908115610ae3578460649287955f91611bc3575b5060405196879586947f9be2a8840000000000000000000000000000000000000000000000000000000086526004860152336024860152166044840152165afa918215610ae3575f92611b96575b505015611b6e57565b7f23dada53000000000000000000000000000000000000000000000000000000005f5260045ffd5b611bb59250803d10611bbc575b611bad81836118cb565b810190611c9e565b5f80611b65565b503d611ba3565b611bda9150863d8811610f6b57610f5c81836118cb565b5f611b17565b7f9b779b17422d0df92223018b32b4d1fa46e071723d6817e2486d003becc55f00805c611c0d576001905d565b7f3ee5aeb5000000000000000000000000000000000000000000000000000000005f5260045ffd5b6040517fa9059cbb00000000000000000000000000000000000000000000000000000000602082015273ffffffffffffffffffffffffffffffffffffffff929092166024830152604480830193909352918152611c9c91611c976064836118cb565b611d14565b565b908160209103126101f7575180151581036101f75790565b919060407fd6b9382ec1786c32610e376e8ee8f2f16abeda4ace3b6276ac958193c75bbbc89173ffffffffffffffffffffffffffffffffffffffff80918160015416611d03878284611c35565b8451968752602087015216941692a3565b5f8073ffffffffffffffffffffffffffffffffffffffff611d4a93169360208151910182865af1611d43611da6565b9083611e03565b8051908115159182611d8b575b5050611d605750565b7f5274afe7000000000000000000000000000000000000000000000000000000005f5260045260245ffd5b611d9e9250602080918301019101611c9e565b155f80611d57565b3d15611dfe573d9067ffffffffffffffff82116118825760405191611df360207fffffffffffffffffffffffffffffffffffffffffffffffffffffffffffffffe0601f84011601846118cb565b82523d5f602084013e565b606090565b90611e405750805115611e1857805190602001fd5b7f1425ea42000000000000000000000000000000000000000000000000000000005f5260045ffd5b81511580611e93575b611e51575090565b73ffffffffffffffffffffffffffffffffffffffff907f9996b315000000000000000000000000000000000000000000000000000000005f521660045260245ffd5b50803b15611e4956fea26469706673582212209cb032776ae71c67431947cb62252fa23c60f7b2f52789920150499ff401f9c764736f6c634300081b0033",
  "linkReferences": {},
  "deployedLinkReferences": {}
}