{
  "_format": "hh-sol-artifact-1",
  "contractName": "TokenPairRegistry",
  "sourceName": "contracts/TokenPairRegistry.sol",
  "abi": [
    {
      "inputs": [
        {
          "internalType": "contract IVault",
          "name": "vault",
          "type": "address"
        },
        {
          "internalType": "address",
          "name": "initialOwner",
          "type": "address"
        }
      ],
      "stateMutability": "nonpayable",
      "type": "constructor"
    },
    {
      "inputs": [
        {
          "internalType": "address",
          "name": "buffer",
          "type": "address"
        }
      ],
      "name": "BufferNotInitialized",
      "type": "error"
    },
    {
      "inputs": [],
      "name": "EmptyPath",
      "type": "error"
    },
    {
      "inputs": [],
      "name": "IndexOutOfBounds",
      "type": "error"
    },
    {
      "inputs": [
        {
          "internalType": "address",
          "name": "buffer",
          "type": "address"
        },
        {
          "internalType": "address",
          "name": "tokenIn",
          "type": "address"
        },
        {
          "internalType": "address",
          "name": "tokenOut",
          "type": "address"
        }
      ],
      "name": "InvalidBufferPath",
      "type": "error"
    },
    {
      "inputs": [
        {
          "internalType": "address",
          "name": "poolOrBuffer",
          "type": "address"
        },
        {
          "internalType": "address",
          "name": "tokenIn",
          "type": "address"
        },
        {
          "internalType": "address",
          "name": "tokenOut",
          "type": "address"
        }
      ],
      "name": "InvalidRemovePath",
      "type": "error"
    },
    {
      "inputs": [
        {
          "internalType": "address",
          "name": "path",
          "type": "address"
        }
      ],
      "name": "InvalidSimplePath",
      "type": "error"
    },
    {
      "inputs": [
        {
          "internalType": "address",
          "name": "owner",
          "type": "address"
        }
      ],
      "name": "OwnableInvalidOwner",
      "type": "error"
    },
    {
      "inputs": [
        {
          "internalType": "address",
          "name": "account",
          "type": "address"
        }
      ],
      "name": "OwnableUnauthorizedAccount",
      "type": "error"
    },
    {
      "inputs": [],
      "name": "SenderNotAllowed",
      "type": "error"
    },
    {
      "inputs": [],
      "name": "VaultNotSet",
      "type": "error"
    },
    {
      "anonymous": false,
      "inputs": [
        {
          "indexed": true,
          "internalType": "address",
          "name": "previousOwner",
          "type": "address"
        },
        {
          "indexed": true,
          "internalType": "address",
          "name": "newOwner",
          "type": "address"
        }
      ],
      "name": "OwnershipTransferStarted",
      "type": "event"
    },
    {
      "anonymous": false,
      "inputs": [
        {
          "indexed": true,
          "internalType": "address",
          "name": "previousOwner",
          "type": "address"
        },
        {
          "indexed": true,
          "internalType": "address",
          "name": "newOwner",
          "type": "address"
        }
      ],
      "name": "OwnershipTransferred",
      "type": "event"
    },
    {
      "anonymous": false,
      "inputs": [
        {
          "indexed": true,
          "internalType": "address",
          "name": "tokenIn",
          "type": "address"
        },
        {
          "indexed": true,
          "internalType": "address",
          "name": "tokenOut",
          "type": "address"
        },
        {
          "indexed": false,
          "internalType": "uint256",
          "name": "pathsLength",
          "type": "uint256"
        }
      ],
      "name": "PathAdded",
      "type": "event"
    },
    {
      "anonymous": false,
      "inputs": [
        {
          "indexed": true,
          "internalType": "address",
          "name": "tokenIn",
          "type": "address"
        },
        {
          "indexed": true,
          "internalType": "address",
          "name": "tokenOut",
          "type": "address"
        },
        {
          "indexed": false,
          "internalType": "uint256",
          "name": "pathsLength",
          "type": "uint256"
        }
      ],
      "name": "PathRemoved",
      "type": "event"
    },
    {
      "inputs": [],
      "name": "acceptOwnership",
      "outputs": [],
      "stateMutability": "nonpayable",
      "type": "function"
    },
    {
      "inputs": [
        {
          "internalType": "address",
          "name": "tokenIn",
          "type": "address"
        },
        {
          "components": [
            {
              "internalType": "address",
              "name": "pool",
              "type": "address"
            },
            {
              "internalType": "contract IERC20",
              "name": "tokenOut",
              "type": "address"
            },
            {
              "internalType": "bool",
              "name": "isBuffer",
              "type": "bool"
            }
          ],
          "internalType": "struct IBatchRouter.SwapPathStep[]",
          "name": "steps",
          "type": "tuple[]"
        }
      ],
      "name": "addPath",
      "outputs": [],
      "stateMutability": "nonpayable",
      "type": "function"
    },
    {
      "inputs": [
        {
          "internalType": "address",
          "name": "poolOrBuffer",
          "type": "address"
        }
      ],
      "name": "addSimplePath",
      "outputs": [],
      "stateMutability": "nonpayable",
      "type": "function"
    },
    {
      "inputs": [
        {
          "internalType": "address",
          "name": "newOwner",
          "type": "address"
        }
      ],
      "name": "forceTransferOwnership",
      "outputs": [],
      "stateMutability": "nonpayable",
      "type": "function"
    },
    {
      "inputs": [
        {
          "internalType": "bytes4",
          "name": "selector",
          "type": "bytes4"
        }
      ],
      "name": "getActionId",
      "outputs": [
        {
          "internalType": "bytes32",
          "name": "",
          "type": "bytes32"
        }
      ],
      "stateMutability": "view",
      "type": "function"
    },
    {
      "inputs": [],
      "name": "getAuthorizer",
      "outputs": [
        {
          "internalType": "contract IAuthorizer",
          "name": "",
          "type": "address"
        }
      ],
      "stateMutability": "view",
      "type": "function"
    },
    {
      "inputs": [
        {
          "internalType": "address",
          "name": "tokenIn",
          "type": "address"
        },
        {
          "internalType": "address",
          "name": "tokenOut",
          "type": "address"
        },
        {
          "internalType": "uint256",
          "name": "index",
          "type": "uint256"
        }
      ],
      "name": "getPathAt",
      "outputs": [
        {
          "components": [
            {
              "internalType": "address",
              "name": "pool",
              "type": "address"
            },
            {
              "internalType": "contract IERC20",
              "name": "tokenOut",
              "type": "address"
            },
            {
              "internalType": "bool",
              "name": "isBuffer",
              "type": "bool"
            }
          ],
          "internalType": "struct IBatchRouter.SwapPathStep[]",
          "name": "",
          "type": "tuple[]"
        }
      ],
      "stateMutability": "view",
      "type": "function"
    },
    {
      "inputs": [
        {
          "internalType": "address",
          "name": "tokenIn",
          "type": "address"
        },
        {
          "internalType": "address",
          "name": "tokenOut",
          "type": "address"
        }
      ],
      "name": "getPathCount",
      "outputs": [
        {
          "internalType": "uint256",
          "name": "",
          "type": "uint256"
        }
      ],
      "stateMutability": "view",
      "type": "function"
    },
    {
      "inputs": [
        {
          "internalType": "address",
          "name": "tokenIn",
          "type": "address"
        },
        {
          "internalType": "address",
          "name": "tokenOut",
          "type": "address"
        }
      ],
      "name": "getPaths",
      "outputs": [
        {
          "components": [
            {
              "internalType": "address",
              "name": "pool",
              "type": "address"
            },
            {
              "internalType": "contract IERC20",
              "name": "tokenOut",
              "type": "address"
            },
            {
              "internalType": "bool",
              "name": "isBuffer",
              "type": "bool"
            }
          ],
          "internalType": "struct IBatchRouter.SwapPathStep[][]",
          "name": "",
          "type": "tuple[][]"
        }
      ],
      "stateMutability": "view",
      "type": "function"
    },
    {
      "inputs": [],
      "name": "owner",
      "outputs": [
        {
          "internalType": "address",
          "name": "",
          "type": "address"
        }
      ],
      "stateMutability": "view",
      "type": "function"
    },
    {
      "inputs": [],
      "name": "pendingOwner",
      "outputs": [
        {
          "internalType": "address",
          "name": "",
          "type": "address"
        }
      ],
      "stateMutability": "view",
      "type": "function"
    },
    {
      "inputs": [
        {
          "internalType": "address",
          "name": "tokenIn",
          "type": "address"
        },
        {
          "internalType": "address",
          "name": "tokenOut",
          "type": "address"
        },
        {
          "internalType": "uint256",
          "name": "index",
          "type": "uint256"
        }
      ],
      "name": "removePathAtIndex",
      "outputs": [],
      "stateMutability": "nonpayable",
      "type": "function"
    },
    {
      "inputs": [
        {
          "internalType": "address",
          "name": "poolOrBuffer",
          "type": "address"
        }
      ],
      "name": "removeSimplePath",
      "outputs": [],
      "stateMutability": "nonpayable",
      "type": "function"
    },
    {
      "inputs": [],
      "name": "renounceOwnership",
      "outputs": [],
      "stateMutability": "nonpayable",
      "type": "function"
    },
    {
      "inputs": [
        {
          "internalType": "address",
          "name": "newOwner",
          "type": "address"
        }
      ],
      "name": "transferOwnership",
      "outputs": [],
      "stateMutability": "nonpayable",
      "type": "function"
    },
    {
      "inputs": [],
      "name": "vault",
      "outputs": [
        {
          "internalType": "contract IVault",
          "name": "",
          "type": "address"
        }
      ],
      "stateMutability": "view",
      "type": "function"
    }
  ],
  "bytecode": "0x60c03461011f57601f611e7438819003918201601f19168301916001600160401b0383118484101761012357808492604094855283398101031261011f5780516001600160a01b03918282169081830361011f576020015183811680910361011f57801561010c5760018060a01b0319938460015416600155815f54958616175f5560405194167f8be0079c531659141344cd1fd0a4f28419497f9722a3daafe3b4186f6b6457e05f80a330608052156100fd5760a052611d3c9081610138823960805181611796015260a05181818160e80152818161013d0152818161050e0152818161079b01528181610a4501528181610be801526119d80152f35b630647140b60e51b5f5260045ffd5b631e4fbdf760e01b5f525f60045260245ffd5b5f80fd5b634e487b7160e01b5f52604160045260245ffdfe60806040526004361015610011575f80fd5b5f3560e01c8063057074ff1461119357806332fffdbd14611074578063715018a614610ffc57806379ba509714610fa55780637c7d370a14610e55578063815ca70f14610910578063851c1bb3146108c05780638da5cb5b1461089b57806394ee0a3b1461085b578063a89b1128146107f8578063aaabadc514610755578063bc138aa3146104e1578063e30c3978146104bb578063f2fde38b1461043b578063f335b520146101105763fbfa77cf146100c9575f80fd5b3461010c575f60031936011261010c5760206040516001600160a01b037f0000000000000000000000000000000000000000000000000000000000000000168152f35b5f80fd5b3461010c5760208060031936011261010c5761012a611237565b61013261184f565b6001600160a01b03807f000000000000000000000000000000000000000000000000000000000000000016604051937fc673bdaf0000000000000000000000000000000000000000000000000000000085528284169081600487015260249581818881875afa9081156102e6575f9161041e575b50156102f157505f9085604051809481937fca4f280300000000000000000000000000000000000000000000000000000000835260048301525afa9081156102e6575f916102c4575b508051925f198401938411610298575f5b84811061020957005b600180820180831161026c57815b610226575b5050600101610200565b84518110156102675781809161026088610240878a611656565b51168961024d848b611656565b511661025a81838b611cbd565b88611cbd565b0190610217565b61021c565b877f4e487b71000000000000000000000000000000000000000000000000000000005f5260116004525ffd5b847f4e487b71000000000000000000000000000000000000000000000000000000005f5260116004525ffd5b6102e091503d805f833e6102d881836112e1565b810190611904565b846101ef565b6040513d5f823e3d90fd5b94935091506040517f6844846b00000000000000000000000000000000000000000000000000000000815282600482015284818581855afa9081156102e6575f916103f1575b50156103c7578390604051938480927f0387587d0000000000000000000000000000000000000000000000000000000082528560048301525afa9182156102e657610396935f93610398575b5050610390818381611c16565b80611c16565b005b6103b8929350803d106103c0575b6103b081836112e1565b8101906117d0565b908380610383565b503d6103a6565b507fb309199b000000000000000000000000000000000000000000000000000000005f526004525ffd5b6104119150853d8711610417575b61040981836112e1565b8101906117ef565b85610337565b503d6103ff565b6104359150823d84116104175761040981836112e1565b876101a6565b3461010c57602060031936011261010c57610454611237565b61045c61188c565b6001600160a01b0380911690817fffffffffffffffffffffffff000000000000000000000000000000000000000060015416176001555f54167f38d16b8cac22d99fc7c124b9cd0de2d3fa1faef420bfe791d8c362d765e227005f80a3005b3461010c575f60031936011261010c5760206001600160a01b0360015416604051908152f35b3461010c5760208060031936011261010c576104fb611237565b61050361184f565b6001600160a01b03807f000000000000000000000000000000000000000000000000000000000000000016604051937fc673bdaf0000000000000000000000000000000000000000000000000000000085528284169081600487015260249581818881875afa9081156102e6575f91610738575b501561065757505f9085604051809481937fca4f280300000000000000000000000000000000000000000000000000000000835260048301525afa9081156102e6575f9161063d575b508051925f198401938411610298575f5b8481106105da57005b600180820180831161026c57815b6105f7575b50506001016105d1565b84518110156106385781809161063188610611878a611656565b51168961061e848b611656565b511661062b81838b611aa4565b88611aa4565b01906105e8565b6105ed565b61065191503d805f833e6102d881836112e1565b846105c0565b94935091506040517f6844846b00000000000000000000000000000000000000000000000000000000815282600482015284818581855afa9081156102e6575f9161071b575b50156103c7578390604051938480927f0387587d0000000000000000000000000000000000000000000000000000000082528560048301525afa9182156102e657610396935f936106fc575b50506106f6818381611aa4565b80611aa4565b610713929350803d106103c0576103b081836112e1565b9083806106e9565b6107329150853d87116104175761040981836112e1565b8561069d565b61074f9150823d84116104175761040981836112e1565b87610577565b3461010c575f60031936011261010c576040517faaabadc50000000000000000000000000000000000000000000000000000000081526001600160a01b036020826004817f000000000000000000000000000000000000000000000000000000000000000085165afa9081156102e6576020925f926107d9575b5060405191168152f35b6107f1919250833d85116103c0576103b081836112e1565b90836107cf565b3461010c57602060031936011261010c57610811611237565b61081961184f565b6001600160a01b035f54163314610833576103969061189f565b7f23dada53000000000000000000000000000000000000000000000000000000005f5260045ffd5b3461010c57604060031936011261010c57610885610877611237565b61087f61124d565b90611807565b5f526002602052602060405f2054604051908152f35b3461010c575f60031936011261010c5760206001600160a01b035f5416604051908152f35b3461010c57602060031936011261010c576004357fffffffff000000000000000000000000000000000000000000000000000000008116810361010c5761090860209161176b565b604051908152f35b3461010c57604060031936011261010c57610929611237565b60243567ffffffffffffffff811161010c573660238201121561010c57806004013561095481611322565b9161096260405193846112e1565b81835260208301602460608094028301019136831161010c57602401905b828210610df357858561099161184f565b805115610dcb5780515f198101908111610d595760206109b96001600160a01b039284611656565b51015116906109c88284611807565b5f9390815b8351861015610cfe576109e08685611656565b51604081015190919015610b8b576001600160a01b03825116906001600160a01b03602084015116916040517f0387587d0000000000000000000000000000000000000000000000000000000081528160048201526020816024816001600160a01b037f0000000000000000000000000000000000000000000000000000000000000000165afa80156102e6576001600160a01b03915f91610b6c575b5016918215610b40576001600160a01b031691808303610aec5750808303610abb575050506001600160a01b0360206001925b0151169501946109cd565b7f29198c3d000000000000000000000000000000000000000000000000000000005f5260045260245260445260645ffd5b828203610b0e578303610abb575050506001600160a01b036020600192610ab0565b507f29198c3d000000000000000000000000000000000000000000000000000000005f5260045260245260445260645ffd5b507f85f41299000000000000000000000000000000000000000000000000000000005f5260045260245ffd5b610b85915060203d6020116103c0576103b081836112e1565b8b610a7d565b926001600160a01b038293959697925116906001600160a01b0360208501511695604051987fca4f2803000000000000000000000000000000000000000000000000000000008a528360048b01525f8a6024816001600160a01b037f0000000000000000000000000000000000000000000000000000000000000000165afa998a156102e6575f9a610ce2575b505f985f935f5b8c51811015610c82578c6001600160a01b03610c3b8383611656565b51166001600160a01b038c1614610c79575b6001600160a01b03610c60838e93611656565b511614610c70575b600101610c1f565b60019550610c68565b60019c50610c4d565b509750975097909493985015908115610cd9575b50610cae57506001600160a01b036020600192610ab0565b7fb309199b000000000000000000000000000000000000000000000000000000005f5260045260245ffd5b90501588610c96565b610cf7919a503d805f833e6102d881836112e1565b988a610c18565b508284825f52600260205260405f2093610d178561166a565b50505f5b8351811015610d86578554905f198201918211610d5957610d53610d416001938961133a565b50610d4c8388611656565b51906116a2565b01610d1b565b7f4e487b71000000000000000000000000000000000000000000000000000000005f52601160045260245ffd5b50835f5260026020527f0836045dc838da47be101a8d10036b82ec004688d856daa53cd0e56807d3bfca60206001600160a01b0360405f2054936040519485521692a3005b7f20a2d33d000000000000000000000000000000000000000000000000000000005f5260045ffd5b838236031261010c5760405190610e0982611298565b6001600160a01b038335818116810361010c5783526020840135908116810361010c576020830152604083013590811515820361010c5782602092604088950152815201910190610980565b3461010c57604060031936011261010c57610e71610877611237565b5f5260206002815260405f208054610e8881611322565b90610e9660405192836112e1565b80825283820180935f52845f20855f925b848410610f87575084866040519283928184019082855251809152604084019160408260051b86010193925f905b838210610ee25786860387f35b919395947fffffffffffffffffffffffffffffffffffffffffffffffffffffffffffffffc08592949682030183528651908280835192838152019201905f905b808210610f4357505050908060019297019201920186959492939193610ed5565b9193610f7a6001929486519060406060926001600160a01b0380825116845260208201511660208401520151151560408201520190565b9401920186939291610f22565b6001918291610f958561137c565b8152019201920191908690610ea7565b3461010c575f60031936011261010c57336001600160a01b036001541603610fd0576103963361189f565b7f118cdaa7000000000000000000000000000000000000000000000000000000005f523360045260245ffd5b3461010c575f60031936011261010c5761101461188c565b5f6001600160a01b037fffffffffffffffffffffffff0000000000000000000000000000000000000000806001541660015582549081168355167f8be0079c531659141344cd1fd0a4f28419497f9722a3daafe3b4186f6b6457e08280a3005b3461010c5761108236611263565b61108a61184f565b6110948284611807565b5f52600260205260405f20908154908181101561116b576001821180611157575b611102575b50506020816110e97fa38fb2ba0cd6ce518df558e7765144874cc0dfaabfcc9742d6fc5183b6c039da936115a8565b54926001600160a01b03809160405195865216941692a3005b90915f198301928311610d595761115160209261114b6111437fa38fb2ba0cd6ce518df558e7765144874cc0dfaabfcc9742d6fc5183b6c039da968561133a565b50918461133a565b9061156b565b916110ba565b505f198201828111610d59578114156110b5565b7f4e23d035000000000000000000000000000000000000000000000000000000005f5260045ffd5b3461010c576111ab6111a436611263565b9291611807565b5f526111ca6111c4602092600260205260405f2061133a565b5061137c565b60405190602082016020835281518091526020604084019201935f5b8281106111f35784840385f35b9091928261122b60019288519060406060926001600160a01b0380825116845260208201511660208401520151151560408201520190565b960195939291016111e6565b600435906001600160a01b038216820361010c57565b602435906001600160a01b038216820361010c57565b600319606091011261010c576001600160a01b0390600435828116810361010c5791602435908116810361010c579060443590565b6060810190811067ffffffffffffffff8211176112b457604052565b7f4e487b71000000000000000000000000000000000000000000000000000000005f52604160045260245ffd5b90601f7fffffffffffffffffffffffffffffffffffffffffffffffffffffffffffffffe0910116810190811067ffffffffffffffff8211176112b457604052565b67ffffffffffffffff81116112b45760051b60200190565b805482101561134f575f5260205f2001905f90565b7f4e487b71000000000000000000000000000000000000000000000000000000005f52603260045260245ffd5b90815461138881611322565b9260409361139960405191826112e1565b82815280946020809201925f5260205f20905f935b8585106113bd57505050505050565b60028460019284516113ce81611298565b60ff6001600160a01b03808954168352868901549081168584015260a01c161515868201528152019301940193916113ae565b818114611567578154916801000000000000000083116112b4578154838355808410611501575b505f5260205f20905f5260205f20905f905b8382106114475750505050565b806001918403611462575b600280910193019101909161143a565b6114fc6001600160a01b0360ff81845416917fffffffffffffffffffffffff00000000000000000000000000000000000000009283895416178855859283890193860191825416908454161783555460a01c167fffffffffffffffffffffff00ffffffffffffffffffffffffffffffffffffffff74ff0000000000000000000000000000000000000000835492151560a01b169116179055565b611452565b60017f7fffffffffffffffffffffffffffffffffffffffffffffffffffffffffffffff8083168303610d595785168503610d5957835f5260205f209160011b8201918560011b015b828110611557575050611428565b5f80825582820155600201611549565b5050565b919061157c5761157a91611401565b565b7f4e487b71000000000000000000000000000000000000000000000000000000005f525f60045260245ffd5b80548015611629575f1901906115be828261133a565b61157c578054905f8155816115d257505055565b6001907f7fffffffffffffffffffffffffffffffffffffffffffffffffffffffffffffff83168303610d59575f5260205f209160011b8201915b8281106116195750505055565b5f8082558282015560020161160c565b7f4e487b71000000000000000000000000000000000000000000000000000000005f52603160045260245ffd5b805182101561134f5760209160051b010190565b8054680100000000000000008110156112b45761168c9160018201815561133a565b9091565b80541561134f575f5260205f20905f90565b90815491680100000000000000008310156112b4576001830180825583101561134f5761157a926040915f5260205f209060011b01916001600160a01b0392600184835116917fffffffffffffffffffffffff00000000000000000000000000000000000000009283825416178155019360208301511690845416178355015115157fffffffffffffffffffffff00ffffffffffffffffffffffffffffffffffffffff74ff0000000000000000000000000000000000000000835492151560a01b169116179055565b6040517fffffffff0000000000000000000000000000000000000000000000000000000060208201927f00000000000000000000000000000000000000000000000000000000000000008452166040820152602481526117ca81611298565b51902090565b9081602091031261010c57516001600160a01b038116810361010c5790565b9081602091031261010c5751801515810361010c5790565b6040519060208201927fffffffffffffffffffffffffffffffffffffffff000000000000000000000000809260601b16845260601b166034820152602881526117ca81611298565b61188561187e7fffffffff000000000000000000000000000000000000000000000000000000005f351661176b565b339061198e565b1561083357565b6001600160a01b035f54163303610fd057565b7fffffffffffffffffffffffff00000000000000000000000000000000000000009081600154166001555f546001600160a01b0380921680938216175f55167f8be0079c531659141344cd1fd0a4f28419497f9722a3daafe3b4186f6b6457e05f80a3565b602090818184031261010c5780519067ffffffffffffffff821161010c57019180601f8401121561010c57825161193a81611322565b9361194860405195866112e1565b818552838086019260051b82010192831161010c578301905b82821061196f575050505090565b81516001600160a01b038116810361010c578152908301908301611961565b906001600160a01b039081805f54169116908114611a9c57604051907faaabadc50000000000000000000000000000000000000000000000000000000082526020938483600481877f0000000000000000000000000000000000000000000000000000000000000000165afa9384156102e65785935f95611a78575b509060649160405195869485937f9be2a88400000000000000000000000000000000000000000000000000000000855260048501526024840152306044840152165afa9182156102e6575f92611a5f57505090565b611a759250803d106104175761040981836112e1565b90565b606492919550611a9490853d87116103c0576103b081836112e1565b949091611a0a565b505050600190565b91611aaf8183611807565b5f526020600260205260409160405f205f5b815480821015611bd357611ad5828461133a565b5060019081808254149182611bb2575b82611b8f575b5050611afb575050600101611ac1565b9080929697985011611b4c575b507fa38fb2ba0cd6ce518df558e7765144874cc0dfaabfcc9742d6fc5183b6c039da9350611b35816115a8565b5493519384526001600160a01b03908116941692a3565b5f198101908111610d59577fa38fb2ba0cd6ce518df558e7765144874cc0dfaabfcc9742d6fc5183b6c039da9461114b611143611b89938561133a565b5f611b08565b611b9a919250611690565b5001546001600160a01b03868116911614815f611aeb565b9150611bbd82611690565b50546001600160a01b038c811691161491611ae5565b8684897f3a9458d9000000000000000000000000000000000000000000000000000000005f526001600160a01b039283809216600452166024521660445260645ffd5b611c208383611807565b6001600160a01b03809416938060405193611c3a85611298565b16835284602084015260016040840152815f52600260205260405f2091611c608361166a565b505082545f198101908111610d59577f0836045dc838da47be101a8d10036b82ec004688d856daa53cd0e56807d3bfca94611ca0611ca69260209661133a565b506116a2565b5f526002825260405f2054936040519485521692a3565b611cc78383611807565b6001600160a01b03809416938060405193611ce185611298565b1683528460208401525f6040840152815f52600260205260405f2091611c608361166a56fea264697066735822122076472f5644de6ad5f3da17d28dbcad85229ceeec0928bcacba30d24878c5a04c64736f6c634300081b0033",
  "linkReferences": {},
  "deployedLinkReferences": {}
}