{
  "_format": "hh-sol-artifact-1",
  "contractName": "TokenPairRegistry",
  "sourceName": "contracts/TokenPairRegistry.sol",
  "abi": [
    {
      "inputs": [
        {
          "internalType": "contract IVault",
          "name": "vault",
          "type": "address"
        },
        {
          "internalType": "address",
          "name": "initialOwner",
          "type": "address"
        }
      ],
      "stateMutability": "nonpayable",
      "type": "constructor"
    },
    {
      "inputs": [
        {
          "internalType": "address",
          "name": "buffer",
          "type": "address"
        }
      ],
      "name": "BufferNotInitialized",
      "type": "error"
    },
    {
      "inputs": [],
      "name": "IndexOutOfBounds",
      "type": "error"
    },
    {
      "inputs": [
        {
          "internalType": "address",
          "name": "buffer",
          "type": "address"
        },
        {
          "internalType": "address",
          "name": "tokenIn",
          "type": "address"
        },
        {
          "internalType": "address",
          "name": "tokenOut",
          "type": "address"
        }
      ],
      "name": "InvalidBufferPath",
      "type": "error"
    },
    {
      "inputs": [
        {
          "internalType": "address",
          "name": "poolOrBuffer",
          "type": "address"
        },
        {
          "internalType": "address",
          "name": "tokenIn",
          "type": "address"
        },
        {
          "internalType": "address",
          "name": "tokenOut",
          "type": "address"
        }
      ],
      "name": "InvalidRemovePath",
      "type": "error"
    },
    {
      "inputs": [
        {
          "internalType": "address",
          "name": "path",
          "type": "address"
        }
      ],
      "name": "InvalidSimplePath",
      "type": "error"
    },
    {
      "inputs": [
        {
          "internalType": "address",
          "name": "owner",
          "type": "address"
        }
      ],
      "name": "OwnableInvalidOwner",
      "type": "error"
    },
    {
      "inputs": [
        {
          "internalType": "address",
          "name": "account",
          "type": "address"
        }
      ],
      "name": "OwnableUnauthorizedAccount",
      "type": "error"
    },
    {
      "inputs": [],
      "name": "SenderNotAllowed",
      "type": "error"
    },
    {
      "inputs": [],
      "name": "VaultNotSet",
      "type": "error"
    },
    {
      "anonymous": false,
      "inputs": [
        {
          "indexed": true,
          "internalType": "address",
          "name": "previousOwner",
          "type": "address"
        },
        {
          "indexed": true,
          "internalType": "address",
          "name": "newOwner",
          "type": "address"
        }
      ],
      "name": "OwnershipTransferStarted",
      "type": "event"
    },
    {
      "anonymous": false,
      "inputs": [
        {
          "indexed": true,
          "internalType": "address",
          "name": "previousOwner",
          "type": "address"
        },
        {
          "indexed": true,
          "internalType": "address",
          "name": "newOwner",
          "type": "address"
        }
      ],
      "name": "OwnershipTransferred",
      "type": "event"
    },
    {
      "anonymous": false,
      "inputs": [
        {
          "indexed": true,
          "internalType": "address",
          "name": "tokenIn",
          "type": "address"
        },
        {
          "indexed": true,
          "internalType": "address",
          "name": "tokenOut",
          "type": "address"
        },
        {
          "indexed": false,
          "internalType": "uint256",
          "name": "pathsLength",
          "type": "uint256"
        }
      ],
      "name": "PathAdded",
      "type": "event"
    },
    {
      "anonymous": false,
      "inputs": [
        {
          "indexed": true,
          "internalType": "address",
          "name": "tokenIn",
          "type": "address"
        },
        {
          "indexed": true,
          "internalType": "address",
          "name": "tokenOut",
          "type": "address"
        },
        {
          "indexed": false,
          "internalType": "uint256",
          "name": "pathsLength",
          "type": "uint256"
        }
      ],
      "name": "PathRemoved",
      "type": "event"
    },
    {
      "inputs": [],
      "name": "acceptOwnership",
      "outputs": [],
      "stateMutability": "nonpayable",
      "type": "function"
    },
    {
      "inputs": [
        {
          "internalType": "address",
          "name": "tokenIn",
          "type": "address"
        },
        {
          "components": [
            {
              "internalType": "address",
              "name": "pool",
              "type": "address"
            },
            {
              "internalType": "contract IERC20",
              "name": "tokenOut",
              "type": "address"
            },
            {
              "internalType": "bool",
              "name": "isBuffer",
              "type": "bool"
            }
          ],
          "internalType": "struct IBatchRouter.SwapPathStep[]",
          "name": "steps",
          "type": "tuple[]"
        }
      ],
      "name": "addPath",
      "outputs": [],
      "stateMutability": "nonpayable",
      "type": "function"
    },
    {
      "inputs": [
        {
          "internalType": "address",
          "name": "poolOrBuffer",
          "type": "address"
        }
      ],
      "name": "addSimplePath",
      "outputs": [],
      "stateMutability": "nonpayable",
      "type": "function"
    },
    {
      "inputs": [
        {
          "internalType": "address",
          "name": "newOwner",
          "type": "address"
        }
      ],
      "name": "forceTransferOwnership",
      "outputs": [],
      "stateMutability": "nonpayable",
      "type": "function"
    },
    {
      "inputs": [
        {
          "internalType": "bytes4",
          "name": "selector",
          "type": "bytes4"
        }
      ],
      "name": "getActionId",
      "outputs": [
        {
          "internalType": "bytes32",
          "name": "",
          "type": "bytes32"
        }
      ],
      "stateMutability": "view",
      "type": "function"
    },
    {
      "inputs": [],
      "name": "getAuthorizer",
      "outputs": [
        {
          "internalType": "contract IAuthorizer",
          "name": "",
          "type": "address"
        }
      ],
      "stateMutability": "view",
      "type": "function"
    },
    {
      "inputs": [
        {
          "internalType": "address",
          "name": "tokenIn",
          "type": "address"
        },
        {
          "internalType": "address",
          "name": "tokenOut",
          "type": "address"
        },
        {
          "internalType": "uint256",
          "name": "index",
          "type": "uint256"
        }
      ],
      "name": "getPathAt",
      "outputs": [
        {
          "components": [
            {
              "internalType": "address",
              "name": "pool",
              "type": "address"
            },
            {
              "internalType": "contract IERC20",
              "name": "tokenOut",
              "type": "address"
            },
            {
              "internalType": "bool",
              "name": "isBuffer",
              "type": "bool"
            }
          ],
          "internalType": "struct IBatchRouter.SwapPathStep[]",
          "name": "",
          "type": "tuple[]"
        }
      ],
      "stateMutability": "view",
      "type": "function"
    },
    {
      "inputs": [
        {
          "internalType": "address",
          "name": "tokenIn",
          "type": "address"
        },
        {
          "internalType": "address",
          "name": "tokenOut",
          "type": "address"
        }
      ],
      "name": "getPathCount",
      "outputs": [
        {
          "internalType": "uint256",
          "name": "",
          "type": "uint256"
        }
      ],
      "stateMutability": "view",
      "type": "function"
    },
    {
      "inputs": [
        {
          "internalType": "address",
          "name": "tokenIn",
          "type": "address"
        },
        {
          "internalType": "address",
          "name": "tokenOut",
          "type": "address"
        }
      ],
      "name": "getPaths",
      "outputs": [
        {
          "components": [
            {
              "internalType": "address",
              "name": "pool",
              "type": "address"
            },
            {
              "internalType": "contract IERC20",
              "name": "tokenOut",
              "type": "address"
            },
            {
              "internalType": "bool",
              "name": "isBuffer",
              "type": "bool"
            }
          ],
          "internalType": "struct IBatchRouter.SwapPathStep[][]",
          "name": "",
          "type": "tuple[][]"
        }
      ],
      "stateMutability": "view",
      "type": "function"
    },
    {
      "inputs": [],
      "name": "owner",
      "outputs": [
        {
          "internalType": "address",
          "name": "",
          "type": "address"
        }
      ],
      "stateMutability": "view",
      "type": "function"
    },
    {
      "inputs": [],
      "name": "pendingOwner",
      "outputs": [
        {
          "internalType": "address",
          "name": "",
          "type": "address"
        }
      ],
      "stateMutability": "view",
      "type": "function"
    },
    {
      "inputs": [
        {
          "internalType": "address",
          "name": "tokenIn",
          "type": "address"
        },
        {
          "internalType": "address",
          "name": "tokenOut",
          "type": "address"
        },
        {
          "internalType": "uint256",
          "name": "index",
          "type": "uint256"
        }
      ],
      "name": "removePathAtIndex",
      "outputs": [],
      "stateMutability": "nonpayable",
      "type": "function"
    },
    {
      "inputs": [
        {
          "internalType": "address",
          "name": "poolOrBuffer",
          "type": "address"
        }
      ],
      "name": "removeSimplePath",
      "outputs": [],
      "stateMutability": "nonpayable",
      "type": "function"
    },
    {
      "inputs": [],
      "name": "renounceOwnership",
      "outputs": [],
      "stateMutability": "nonpayable",
      "type": "function"
    },
    {
      "inputs": [
        {
          "internalType": "address",
          "name": "newOwner",
          "type": "address"
        }
      ],
      "name": "transferOwnership",
      "outputs": [],
      "stateMutability": "nonpayable",
      "type": "function"
    },
    {
      "inputs": [],
      "name": "vault",
      "outputs": [
        {
          "internalType": "contract IVault",
          "name": "",
          "type": "address"
        }
      ],
      "stateMutability": "view",
      "type": "function"
    }
  ],
  "bytecode": "0x60c03461011f57601f61209538819003918201601f19168301916001600160401b0383118484101761012357808492604094855283398101031261011f5780516001600160a01b03918282169081830361011f576020015183811680910361011f57801561010c5760018060a01b0319938460015416600155815f54958616175f5560405194167f8be0079c531659141344cd1fd0a4f28419497f9722a3daafe3b4186f6b6457e05f80a330608052156100fd5760a052611f5d908161013882396080518161193b015260a05181818160f5015281816101570152818161054f015281816107e901528181610ada01528181610cd80152611bbe0152f35b630647140b60e51b5f5260045ffd5b631e4fbdf760e01b5f525f60045260245ffd5b5f80fd5b634e487b7160e01b5f52604160045260245ffdfe60806040526004361015610011575f80fd5b5f3560e01c8063057074ff146112dd57806332fffdbd146111b1578063715018a61461112c57806379ba5097146110c85780637c7d370a14610f6b578063815ca70f14610978578063851c1bb3146109285780638da5cb5b146108f657806394ee0a3b146108b6578063a89b112814610846578063aaabadc514610796578063bc138aa314610515578063e30c3978146104e2578063f2fde38b14610455578063f335b5201461011d5763fbfa77cf146100c9575f80fd5b34610119575f60031936011261011957602060405173ffffffffffffffffffffffffffffffffffffffff7f0000000000000000000000000000000000000000000000000000000000000000168152f35b5f80fd5b34610119576020806003193601126101195761013761138e565b61013f611a01565b73ffffffffffffffffffffffffffffffffffffffff807f000000000000000000000000000000000000000000000000000000000000000016604051937fc673bdaf0000000000000000000000000000000000000000000000000000000085528284169081600487015260249581818881875afa908115610300575f91610438575b501561030b57505f9085604051809481937fca4f280300000000000000000000000000000000000000000000000000000000835260048301525afa908115610300575f916102de575b508051925f1984019384116102b2575f5b84811061022357005b600180820180831161028657815b610240575b505060010161021a565b84518110156102815781809161027a8861025a878a6117ee565b511689610267848b6117ee565b511661027481838b611ed1565b88611ed1565b0190610231565b610236565b877f4e487b71000000000000000000000000000000000000000000000000000000005f5260116004525ffd5b847f4e487b71000000000000000000000000000000000000000000000000000000005f5260116004525ffd5b6102fa91503d805f833e6102f2818361145f565b810190611ad0565b84610209565b6040513d5f823e3d90fd5b94935091506040517f6844846b00000000000000000000000000000000000000000000000000000000815282600482015284818581855afa908115610300575f9161040b575b50156103e1578390604051938480927f0387587d0000000000000000000000000000000000000000000000000000000082528560048301525afa918215610300576103b0935f936103b2575b50506103aa818381611e1d565b80611e1d565b005b6103d2929350803d106103da575b6103ca818361145f565b810190611975565b90838061039d565b503d6103c0565b507fb309199b000000000000000000000000000000000000000000000000000000005f526004525ffd5b61042b9150853d8711610431575b610423818361145f565b8101906119a1565b85610351565b503d610419565b61044f9150823d841161043157610423818361145f565b876101c0565b346101195760206003193601126101195761046e61138e565b610476611a3e565b73ffffffffffffffffffffffffffffffffffffffff80911690817fffffffffffffffffffffffff000000000000000000000000000000000000000060015416176001555f54167f38d16b8cac22d99fc7c124b9cd0de2d3fa1faef420bfe791d8c362d765e227005f80a3005b34610119575f60031936011261011957602073ffffffffffffffffffffffffffffffffffffffff60015416604051908152f35b34610119576020806003193601126101195761052f61138e565b610537611a01565b73ffffffffffffffffffffffffffffffffffffffff807f000000000000000000000000000000000000000000000000000000000000000016604051937fc673bdaf0000000000000000000000000000000000000000000000000000000085528284169081600487015260249581818881875afa908115610300575f91610779575b501561069857505f9085604051809481937fca4f280300000000000000000000000000000000000000000000000000000000835260048301525afa908115610300575f9161067e575b508051925f1984019384116102b2575f5b84811061061b57005b600180820180831161028657815b610638575b5050600101610612565b84518110156106795781809161067288610652878a6117ee565b51168961065f848b6117ee565b511661066c81838b611c8a565b88611c8a565b0190610629565b61062e565b61069291503d805f833e6102f2818361145f565b84610601565b94935091506040517f6844846b00000000000000000000000000000000000000000000000000000000815282600482015284818581855afa908115610300575f9161075c575b50156103e1578390604051938480927f0387587d0000000000000000000000000000000000000000000000000000000082528560048301525afa918215610300576103b0935f9361073d575b5050610737818381611c8a565b80611c8a565b610754929350803d106103da576103ca818361145f565b90838061072a565b6107739150853d871161043157610423818361145f565b856106de565b6107909150823d841161043157610423818361145f565b876105b8565b34610119575f600319360112610119576040517faaabadc500000000000000000000000000000000000000000000000000000000815273ffffffffffffffffffffffffffffffffffffffff6020826004817f000000000000000000000000000000000000000000000000000000000000000085165afa908115610300576020925f92610827575b5060405191168152f35b61083f919250833d85116103da576103ca818361145f565b908361081d565b346101195760206003193601126101195761085f61138e565b610867611a01565b73ffffffffffffffffffffffffffffffffffffffff5f5416331461088e576103b090611a5e565b7f23dada53000000000000000000000000000000000000000000000000000000005f5260045ffd5b34610119576040600319360112610119576108e06108d261138e565b6108da6113b1565b906119b9565b5f526002602052602060405f2054604051908152f35b34610119575f60031936011261011957602073ffffffffffffffffffffffffffffffffffffffff5f5416604051908152f35b34610119576020600319360112610119576004357fffffffff000000000000000000000000000000000000000000000000000000008116810361011957610970602091611910565b604051908152f35b346101195760406003193601126101195761099161138e565b60243567ffffffffffffffff811161011957366023820112156101195780600401356109bc816114a0565b916109ca604051938461145f565b81835260208301602460608094028301019136831161011957602401905b828210610efc5785856109f9611a01565b80515f198101908111610e7d576020610a2773ffffffffffffffffffffffffffffffffffffffff92846117ee565b5101511690610a3682846119b9565b5f9390815b8351861015610e2257610a4e86856117ee565b51604081015190919015610c545773ffffffffffffffffffffffffffffffffffffffff8251169073ffffffffffffffffffffffffffffffffffffffff602084015116916040517f0387587d00000000000000000000000000000000000000000000000000000000815281600482015260208160248173ffffffffffffffffffffffffffffffffffffffff7f0000000000000000000000000000000000000000000000000000000000000000165afa80156103005773ffffffffffffffffffffffffffffffffffffffff915f91610c35575b5016918215610c095773ffffffffffffffffffffffffffffffffffffffff1691808303610ba85750808303610b775750505073ffffffffffffffffffffffffffffffffffffffff60206001925b015116950194610a3b565b7f29198c3d000000000000000000000000000000000000000000000000000000005f5260045260245260445260645ffd5b828203610bd7578303610b775750505073ffffffffffffffffffffffffffffffffffffffff6020600192610b6c565b507f29198c3d000000000000000000000000000000000000000000000000000000005f5260045260245260445260645ffd5b507f85f41299000000000000000000000000000000000000000000000000000000005f5260045260245ffd5b610c4e915060203d6020116103da576103ca818361145f565b8b610b1f565b9273ffffffffffffffffffffffffffffffffffffffff82939596979251169073ffffffffffffffffffffffffffffffffffffffff60208501511695604051987fca4f2803000000000000000000000000000000000000000000000000000000008a528360048b01525f8a60248173ffffffffffffffffffffffffffffffffffffffff7f0000000000000000000000000000000000000000000000000000000000000000165afa998a15610300575f9a610e06575b505f985f935f5b8c51811015610d99578c73ffffffffffffffffffffffffffffffffffffffff610d3883836117ee565b511673ffffffffffffffffffffffffffffffffffffffff8c1614610d90575b73ffffffffffffffffffffffffffffffffffffffff610d77838e936117ee565b511614610d87575b600101610d0f565b60019550610d7f565b60019c50610d57565b509750975097909493985015908115610dfd575b50610dd2575073ffffffffffffffffffffffffffffffffffffffff6020600192610b6c565b7fb309199b000000000000000000000000000000000000000000000000000000005f5260045260245ffd5b90501588610dad565b610e1b919a503d805f833e6102f2818361145f565b988a610d08565b508284825f52600260205260405f2093610e3b85611802565b50505f5b8351811015610eaa578554905f198201918211610e7d57610e77610e65600193896114b8565b50610e7083886117ee565b519061183a565b01610e3f565b7f4e487b71000000000000000000000000000000000000000000000000000000005f52601160045260245ffd5b50835f5260026020527f0836045dc838da47be101a8d10036b82ec004688d856daa53cd0e56807d3bfca602073ffffffffffffffffffffffffffffffffffffffff60405f2054936040519485521692a3005b83823603126101195760405190610f1282611416565b73ffffffffffffffffffffffffffffffffffffffff8335818116810361011957835260208401359081168103610119576020830152604083013590811515820361011957826020926040889501528152019101906109e8565b3461011957604060031936011261011957610f876108d261138e565b5f5260206002815260405f208054610f9e816114a0565b90610fac604051928361145f565b80825283820180935f52845f20855f925b8484106110aa575084866040519283928184019082855251809152604084019160408260051b86010193925f905b838210610ff85786860387f35b919395947fffffffffffffffffffffffffffffffffffffffffffffffffffffffffffffffc08592949682030183528651908280835192838152019201905f905b80821061105957505050908060019297019201920186959492939193610feb565b919361109d60019294865190604060609273ffffffffffffffffffffffffffffffffffffffff80825116845260208201511660208401520151151560408201520190565b9401920186939291611038565b60019182916110b8856114fa565b8152019201920191908690610fbd565b34610119575f600319360112610119573373ffffffffffffffffffffffffffffffffffffffff6001541603611100576103b033611a5e565b7f118cdaa7000000000000000000000000000000000000000000000000000000005f523360045260245ffd5b34610119575f60031936011261011957611144611a3e565b5f73ffffffffffffffffffffffffffffffffffffffff7fffffffffffffffffffffffff0000000000000000000000000000000000000000806001541660015582549081168355167f8be0079c531659141344cd1fd0a4f28419497f9722a3daafe3b4186f6b6457e08280a3005b34610119576111bf366113d4565b6111c7611a01565b6111d182846119b9565b5f52600260205260405f2090815490818110156112b55760018211806112a1575b61124c575b50506020816112267fa38fb2ba0cd6ce518df558e7765144874cc0dfaabfcc9742d6fc5183b6c039da93611740565b549273ffffffffffffffffffffffffffffffffffffffff809160405195865216941692a3005b90915f198301928311610e7d5761129b60209261129561128d7fa38fb2ba0cd6ce518df558e7765144874cc0dfaabfcc9742d6fc5183b6c039da96856114b8565b5091846114b8565b90611703565b916111f7565b505f198201828111610e7d578114156111f2565b7f4e23d035000000000000000000000000000000000000000000000000000000005f5260045ffd5b34610119576112f56112ee366113d4565b92916119b9565b5f5261131461130e602092600260205260405f206114b8565b506114fa565b60405190602082016020835281518091526020604084019201935f5b82811061133d5784840385f35b90919282611382600192885190604060609273ffffffffffffffffffffffffffffffffffffffff80825116845260208201511660208401520151151560408201520190565b96019593929101611330565b6004359073ffffffffffffffffffffffffffffffffffffffff8216820361011957565b6024359073ffffffffffffffffffffffffffffffffffffffff8216820361011957565b60031960609101126101195773ffffffffffffffffffffffffffffffffffffffff90600435828116810361011957916024359081168103610119579060443590565b6060810190811067ffffffffffffffff82111761143257604052565b7f4e487b71000000000000000000000000000000000000000000000000000000005f52604160045260245ffd5b90601f7fffffffffffffffffffffffffffffffffffffffffffffffffffffffffffffffe0910116810190811067ffffffffffffffff82111761143257604052565b67ffffffffffffffff81116114325760051b60200190565b80548210156114cd575f5260205f2001905f90565b7f4e487b71000000000000000000000000000000000000000000000000000000005f52603260045260245ffd5b908154611506816114a0565b92604093611517604051918261145f565b82815280946020809201925f5260205f20905f935b85851061153b57505050505050565b600284600192845161154c81611416565b60ff73ffffffffffffffffffffffffffffffffffffffff808954168352868901549081168584015260a01c1615158682015281520193019401939161152c565b8181146116ff57815491680100000000000000008311611432578154838355808410611699575b505f5260205f20905f5260205f20905f905b8382106115d25750505050565b8060019184036115ed575b60028091019301910190916115c5565b61169473ffffffffffffffffffffffffffffffffffffffff60ff81845416917fffffffffffffffffffffffff00000000000000000000000000000000000000009283895416178855859283890193860191825416908454161783555460a01c167fffffffffffffffffffffff00ffffffffffffffffffffffffffffffffffffffff74ff0000000000000000000000000000000000000000835492151560a01b169116179055565b6115dd565b60017f7fffffffffffffffffffffffffffffffffffffffffffffffffffffffffffffff8083168303610e7d5785168503610e7d57835f5260205f209160011b8201918560011b015b8281106116ef5750506115b3565b5f808255828201556002016116e1565b5050565b9190611714576117129161158c565b565b7f4e487b71000000000000000000000000000000000000000000000000000000005f525f60045260245ffd5b805480156117c1575f19019061175682826114b8565b611714578054905f81558161176a57505055565b6001907f7fffffffffffffffffffffffffffffffffffffffffffffffffffffffffffffff83168303610e7d575f5260205f209160011b8201915b8281106117b15750505055565b5f808255828201556002016117a4565b7f4e487b71000000000000000000000000000000000000000000000000000000005f52603160045260245ffd5b80518210156114cd5760209160051b010190565b80546801000000000000000081101561143257611824916001820181556114b8565b9091565b8054156114cd575f5260205f20905f90565b908154916801000000000000000083101561143257600183018082558310156114cd57611712926040915f5260205f209060011b019173ffffffffffffffffffffffffffffffffffffffff92600184835116917fffffffffffffffffffffffff00000000000000000000000000000000000000009283825416178155019360208301511690845416178355015115157fffffffffffffffffffffff00ffffffffffffffffffffffffffffffffffffffff74ff0000000000000000000000000000000000000000835492151560a01b169116179055565b6040517fffffffff0000000000000000000000000000000000000000000000000000000060208201927f000000000000000000000000000000000000000000000000000000000000000084521660408201526024815261196f81611416565b51902090565b90816020910312610119575173ffffffffffffffffffffffffffffffffffffffff811681036101195790565b90816020910312610119575180151581036101195790565b6040519060208201927fffffffffffffffffffffffffffffffffffffffff000000000000000000000000809260601b16845260601b1660348201526028815261196f81611416565b611a37611a307fffffffff000000000000000000000000000000000000000000000000000000005f3516611910565b3390611b67565b1561088e57565b73ffffffffffffffffffffffffffffffffffffffff5f5416330361110057565b7fffffffffffffffffffffffff00000000000000000000000000000000000000009081600154166001555f5473ffffffffffffffffffffffffffffffffffffffff80921680938216175f55167f8be0079c531659141344cd1fd0a4f28419497f9722a3daafe3b4186f6b6457e05f80a3565b60209081818403126101195780519067ffffffffffffffff821161011957019180601f84011215610119578251611b06816114a0565b93611b14604051958661145f565b818552838086019260051b820101928311610119578301905b828210611b3b575050505090565b815173ffffffffffffffffffffffffffffffffffffffff81168103610119578152908301908301611b2d565b9073ffffffffffffffffffffffffffffffffffffffff9081805f54169116908114611c8257604051907faaabadc50000000000000000000000000000000000000000000000000000000082526020938483600481877f0000000000000000000000000000000000000000000000000000000000000000165afa9384156103005785935f95611c5e575b509060649160405195869485937f9be2a88400000000000000000000000000000000000000000000000000000000855260048501526024840152306044840152165afa918215610300575f92611c4557505090565b611c5b9250803d1061043157610423818361145f565b90565b606492919550611c7a90853d87116103da576103ca818361145f565b949091611bf0565b505050600190565b611c9483836119b9565b5f52602090600260205260409160405f20915f5b835480821015611dcd57611cbc82866114b8565b509060019182815411611dc25780611cd48492611828565b5073ffffffffffffffffffffffffffffffffffffffff948580925416828916149283611da6575b505050611d0f575050506001905b01611ca8565b908093929596979899945011611d5c575b5050819084611d4f7fa38fb2ba0cd6ce518df558e7765144874cc0dfaabfcc9742d6fc5183b6c039da96611740565b54955195865216941692a3565b9190945f198601958611610e7d57611d9d849361129561128d7fa38fb2ba0cd6ce518df558e7765144874cc0dfaabfcc9742d6fc5183b6c039da99856114b8565b94819250611d20565b611db291929350611828565b50015416838b161483825f611cfb565b505050600190611d09565b8688847f3a9458d9000000000000000000000000000000000000000000000000000000005f5273ffffffffffffffffffffffffffffffffffffffff9283809216600452166024521660445260645ffd5b611e2783836119b9565b73ffffffffffffffffffffffffffffffffffffffff809416938060405193611e4e85611416565b16835284602084015260016040840152815f52600260205260405f2091611e7483611802565b505082545f198101908111610e7d577f0836045dc838da47be101a8d10036b82ec004688d856daa53cd0e56807d3bfca94611eb4611eba926020966114b8565b5061183a565b5f526002825260405f2054936040519485521692a3565b611edb83836119b9565b73ffffffffffffffffffffffffffffffffffffffff809416938060405193611f0285611416565b1683528460208401525f6040840152815f52600260205260405f2091611e748361180256fea26469706673582212203b2e3bfd1786bef2b3a60207f8f4981cbaf3f42f8e2f8278813a8c9fe6f8cf3464736f6c634300081b0033",
  "linkReferences": {},
  "deployedLinkReferences": {}
}