{
  "_format": "hh-sol-artifact-1",
  "contractName": "BPTTimeLocker",
  "sourceName": "contracts/lbp/BPTTimeLocker.sol",
  "abi": [
    {
      "inputs": [
        {
          "internalType": "address",
          "name": "target",
          "type": "address"
        }
      ],
      "name": "AddressEmptyCode",
      "type": "error"
    },
    {
      "inputs": [
        {
          "internalType": "uint256",
          "name": "unlockTimestamp",
          "type": "uint256"
        }
      ],
      "name": "BPTStillLocked",
      "type": "error"
    },
    {
      "inputs": [
        {
          "internalType": "address",
          "name": "spender",
          "type": "address"
        },
        {
          "internalType": "uint256",
          "name": "allowance",
          "type": "uint256"
        },
        {
          "internalType": "uint256",
          "name": "needed",
          "type": "uint256"
        },
        {
          "internalType": "uint256",
          "name": "id",
          "type": "uint256"
        }
      ],
      "name": "ERC6909InsufficientAllowance",
      "type": "error"
    },
    {
      "inputs": [
        {
          "internalType": "address",
          "name": "sender",
          "type": "address"
        },
        {
          "internalType": "uint256",
          "name": "balance",
          "type": "uint256"
        },
        {
          "internalType": "uint256",
          "name": "needed",
          "type": "uint256"
        },
        {
          "internalType": "uint256",
          "name": "id",
          "type": "uint256"
        }
      ],
      "name": "ERC6909InsufficientBalance",
      "type": "error"
    },
    {
      "inputs": [
        {
          "internalType": "address",
          "name": "approver",
          "type": "address"
        }
      ],
      "name": "ERC6909InvalidApprover",
      "type": "error"
    },
    {
      "inputs": [
        {
          "internalType": "address",
          "name": "receiver",
          "type": "address"
        }
      ],
      "name": "ERC6909InvalidReceiver",
      "type": "error"
    },
    {
      "inputs": [
        {
          "internalType": "address",
          "name": "sender",
          "type": "address"
        }
      ],
      "name": "ERC6909InvalidSender",
      "type": "error"
    },
    {
      "inputs": [
        {
          "internalType": "address",
          "name": "spender",
          "type": "address"
        }
      ],
      "name": "ERC6909InvalidSpender",
      "type": "error"
    },
    {
      "inputs": [],
      "name": "FailedCall",
      "type": "error"
    },
    {
      "inputs": [],
      "name": "NoLockedBPT",
      "type": "error"
    },
    {
      "inputs": [
        {
          "internalType": "address",
          "name": "token",
          "type": "address"
        }
      ],
      "name": "SafeERC20FailedOperation",
      "type": "error"
    },
    {
      "anonymous": false,
      "inputs": [
        {
          "indexed": true,
          "internalType": "address",
          "name": "owner",
          "type": "address"
        },
        {
          "indexed": true,
          "internalType": "address",
          "name": "spender",
          "type": "address"
        },
        {
          "indexed": true,
          "internalType": "uint256",
          "name": "id",
          "type": "uint256"
        },
        {
          "indexed": false,
          "internalType": "uint256",
          "name": "amount",
          "type": "uint256"
        }
      ],
      "name": "Approval",
      "type": "event"
    },
    {
      "anonymous": false,
      "inputs": [
        {
          "indexed": true,
          "internalType": "contract IERC20",
          "name": "bptAddress",
          "type": "address"
        },
        {
          "indexed": false,
          "internalType": "uint256",
          "name": "unlockTimestamp",
          "type": "uint256"
        }
      ],
      "name": "BPTTimelockSet",
      "type": "event"
    },
    {
      "anonymous": false,
      "inputs": [
        {
          "indexed": true,
          "internalType": "uint256",
          "name": "id",
          "type": "uint256"
        },
        {
          "indexed": false,
          "internalType": "uint8",
          "name": "newDecimals",
          "type": "uint8"
        }
      ],
      "name": "ERC6909DecimalsUpdated",
      "type": "event"
    },
    {
      "anonymous": false,
      "inputs": [
        {
          "indexed": true,
          "internalType": "uint256",
          "name": "id",
          "type": "uint256"
        },
        {
          "indexed": false,
          "internalType": "string",
          "name": "newName",
          "type": "string"
        }
      ],
      "name": "ERC6909NameUpdated",
      "type": "event"
    },
    {
      "anonymous": false,
      "inputs": [
        {
          "indexed": true,
          "internalType": "uint256",
          "name": "id",
          "type": "uint256"
        },
        {
          "indexed": false,
          "internalType": "string",
          "name": "newSymbol",
          "type": "string"
        }
      ],
      "name": "ERC6909SymbolUpdated",
      "type": "event"
    },
    {
      "anonymous": false,
      "inputs": [
        {
          "indexed": true,
          "internalType": "address",
          "name": "owner",
          "type": "address"
        },
        {
          "indexed": true,
          "internalType": "address",
          "name": "spender",
          "type": "address"
        },
        {
          "indexed": false,
          "internalType": "bool",
          "name": "approved",
          "type": "bool"
        }
      ],
      "name": "OperatorSet",
      "type": "event"
    },
    {
      "anonymous": false,
      "inputs": [
        {
          "indexed": false,
          "internalType": "address",
          "name": "caller",
          "type": "address"
        },
        {
          "indexed": true,
          "internalType": "address",
          "name": "sender",
          "type": "address"
        },
        {
          "indexed": true,
          "internalType": "address",
          "name": "receiver",
          "type": "address"
        },
        {
          "indexed": true,
          "internalType": "uint256",
          "name": "id",
          "type": "uint256"
        },
        {
          "indexed": false,
          "internalType": "uint256",
          "name": "amount",
          "type": "uint256"
        }
      ],
      "name": "Transfer",
      "type": "event"
    },
    {
      "inputs": [
        {
          "internalType": "address",
          "name": "owner",
          "type": "address"
        },
        {
          "internalType": "address",
          "name": "spender",
          "type": "address"
        },
        {
          "internalType": "uint256",
          "name": "id",
          "type": "uint256"
        }
      ],
      "name": "allowance",
      "outputs": [
        {
          "internalType": "uint256",
          "name": "",
          "type": "uint256"
        }
      ],
      "stateMutability": "view",
      "type": "function"
    },
    {
      "inputs": [
        {
          "internalType": "address",
          "name": "spender",
          "type": "address"
        },
        {
          "internalType": "uint256",
          "name": "id",
          "type": "uint256"
        },
        {
          "internalType": "uint256",
          "name": "amount",
          "type": "uint256"
        }
      ],
      "name": "approve",
      "outputs": [
        {
          "internalType": "bool",
          "name": "",
          "type": "bool"
        }
      ],
      "stateMutability": "nonpayable",
      "type": "function"
    },
    {
      "inputs": [
        {
          "internalType": "address",
          "name": "owner",
          "type": "address"
        },
        {
          "internalType": "uint256",
          "name": "id",
          "type": "uint256"
        }
      ],
      "name": "balanceOf",
      "outputs": [
        {
          "internalType": "uint256",
          "name": "",
          "type": "uint256"
        }
      ],
      "stateMutability": "view",
      "type": "function"
    },
    {
      "inputs": [
        {
          "internalType": "uint256",
          "name": "id",
          "type": "uint256"
        }
      ],
      "name": "decimals",
      "outputs": [
        {
          "internalType": "uint8",
          "name": "",
          "type": "uint8"
        }
      ],
      "stateMutability": "view",
      "type": "function"
    },
    {
      "inputs": [
        {
          "internalType": "address",
          "name": "token",
          "type": "address"
        }
      ],
      "name": "getId",
      "outputs": [
        {
          "internalType": "uint256",
          "name": "",
          "type": "uint256"
        }
      ],
      "stateMutability": "pure",
      "type": "function"
    },
    {
      "inputs": [
        {
          "internalType": "uint256",
          "name": "id",
          "type": "uint256"
        }
      ],
      "name": "getUnlockTimestamp",
      "outputs": [
        {
          "internalType": "uint256",
          "name": "",
          "type": "uint256"
        }
      ],
      "stateMutability": "view",
      "type": "function"
    },
    {
      "inputs": [
        {
          "internalType": "address",
          "name": "owner",
          "type": "address"
        },
        {
          "internalType": "address",
          "name": "spender",
          "type": "address"
        }
      ],
      "name": "isOperator",
      "outputs": [
        {
          "internalType": "bool",
          "name": "",
          "type": "bool"
        }
      ],
      "stateMutability": "view",
      "type": "function"
    },
    {
      "inputs": [
        {
          "internalType": "bytes[]",
          "name": "data",
          "type": "bytes[]"
        }
      ],
      "name": "multicall",
      "outputs": [
        {
          "internalType": "bytes[]",
          "name": "results",
          "type": "bytes[]"
        }
      ],
      "stateMutability": "nonpayable",
      "type": "function"
    },
    {
      "inputs": [
        {
          "internalType": "uint256",
          "name": "id",
          "type": "uint256"
        }
      ],
      "name": "name",
      "outputs": [
        {
          "internalType": "string",
          "name": "",
          "type": "string"
        }
      ],
      "stateMutability": "view",
      "type": "function"
    },
    {
      "inputs": [
        {
          "internalType": "address",
          "name": "spender",
          "type": "address"
        },
        {
          "internalType": "bool",
          "name": "approved",
          "type": "bool"
        }
      ],
      "name": "setOperator",
      "outputs": [
        {
          "internalType": "bool",
          "name": "",
          "type": "bool"
        }
      ],
      "stateMutability": "nonpayable",
      "type": "function"
    },
    {
      "inputs": [
        {
          "internalType": "bytes4",
          "name": "interfaceId",
          "type": "bytes4"
        }
      ],
      "name": "supportsInterface",
      "outputs": [
        {
          "internalType": "bool",
          "name": "",
          "type": "bool"
        }
      ],
      "stateMutability": "view",
      "type": "function"
    },
    {
      "inputs": [
        {
          "internalType": "uint256",
          "name": "id",
          "type": "uint256"
        }
      ],
      "name": "symbol",
      "outputs": [
        {
          "internalType": "string",
          "name": "",
          "type": "string"
        }
      ],
      "stateMutability": "view",
      "type": "function"
    },
    {
      "inputs": [
        {
          "internalType": "address",
          "name": "receiver",
          "type": "address"
        },
        {
          "internalType": "uint256",
          "name": "id",
          "type": "uint256"
        },
        {
          "internalType": "uint256",
          "name": "amount",
          "type": "uint256"
        }
      ],
      "name": "transfer",
      "outputs": [
        {
          "internalType": "bool",
          "name": "",
          "type": "bool"
        }
      ],
      "stateMutability": "nonpayable",
      "type": "function"
    },
    {
      "inputs": [
        {
          "internalType": "address",
          "name": "sender",
          "type": "address"
        },
        {
          "internalType": "address",
          "name": "receiver",
          "type": "address"
        },
        {
          "internalType": "uint256",
          "name": "id",
          "type": "uint256"
        },
        {
          "internalType": "uint256",
          "name": "amount",
          "type": "uint256"
        }
      ],
      "name": "transferFrom",
      "outputs": [
        {
          "internalType": "bool",
          "name": "",
          "type": "bool"
        }
      ],
      "stateMutability": "nonpayable",
      "type": "function"
    },
    {
      "inputs": [
        {
          "internalType": "address",
          "name": "bptAddress",
          "type": "address"
        }
      ],
      "name": "withdrawBPT",
      "outputs": [],
      "stateMutability": "nonpayable",
      "type": "function"
    }
  ],
  "bytecode": "0x60808060405234601557611151908161001a8239f35b5f80fdfe6080604081815260049182361015610015575f80fd5b5f3560e01c908162ad800c14610ca657508062fdd58e14610c5a57806301ffc9a714610bbb578063095bcdb614610b9f5780633f47e66214610b72578063426a849314610a975780634e41a1fb14610953578063558a729714610841578063598af9e7146107df57806365f68c89146107a55780638a34711d1461077f578063ac9650d8146104d4578063b6363cf214610478578063dc450d4f1461021b5763fe99049a146100c2575f80fd5b34610217576080600319360112610217576100db610da4565b6100e3610dc7565b604435906064359273ffffffffffffffffffffffffffffffffffffffff811633811415806101f8575b610127575b60208661012087878787610ee8565b5160018152f35b805f5260209060028252865f20335f528252865f20855f528252865f2054977fffffffffffffffffffffffffffffffffffffffffffffffffffffffffffffffff8910610175575b5050610111565b8689106101ad57505f90815260028252868120338252825286812085825290915285812096859003909655602095610120908061016e565b87517f58a3fd5a00000000000000000000000000000000000000000000000000000000815233918101918252602082018a905260408201889052606082018790529081906080010390fd5b50805f526001602052855f20335f5260205260ff865f2054161561010c565b5f80fd5b50903461021757602091826003193601126102175773ffffffffffffffffffffffffffffffffffffffff61024d610da4565b1692335f525f8152815f20845f528152815f2054801561045257845f52838252825f20548042106104285750845f528382525f8381205533156103fd57335f525f8252825f20855f528252825f20548181106103b25790805f9233845283855285842088855285520384832055858285517f1b3d7edb2e9c0b0e7c525b20aaaef0f5940d2ed71663c7d39266ecafac7288593391806103108733836020909392919373ffffffffffffffffffffffffffffffffffffffff60408201951681520152565b0390a483517fa9059cbb00000000000000000000000000000000000000000000000000000000848201908152336024830152604480830193909352918152610359606482610e21565b519082875af1156103a957505f513d6103a05750813b155b61037757005b7f5274afe7000000000000000000000000000000000000000000000000000000005f525260245ffd5b60011415610371565b513d5f823e3d90fd5b92517fb1b4fec0000000000000000000000000000000000000000000000000000000008152339481019485526020850193909352604084015250606082019290925281906080010390fd5b5f847fa43520800000000000000000000000000000000000000000000000000000000082525260245ffd5b847f60489698000000000000000000000000000000000000000000000000000000005f525260245ffd5b837ee39db1000000000000000000000000000000000000000000000000000000005f525ffd5b5034610217578060031936011261021757602090610494610da4565b61049c610dc7565b9073ffffffffffffffffffffffffffffffffffffffff8091165f5260018452825f2091165f52825260ff815f20541690519015158152f35b50903461021757602090816003193601126102175780359067ffffffffffffffff9081831161021757366023840112156102175782810135928284116102175760059260243686861b84018201116102175787518781018181108482111761075357808a989798525f825261054887610e8f565b976105558b51998a610e21565b87895261056188610e8f565b957fffffffffffffffffffffffffffffffffffffffffffffffffffffffffffffffe08097018b5f5b8c83821061074357505050505f917fffffffffffffffffffffffffffffffffffffffffffffffffffffffffffffffbd82360301925b8a811061063f578d8d8d825191808301818452825180915281858501958260051b8601019301915f955b8287106105f55785850386f35b90919293828061062f837fffffffffffffffffffffffffffffffffffffffffffffffffffffffffffffffc08a600196030186528851610d61565b96019201960195929190926105e8565b8681831b8401013584811215610217578301878101359089821161021757604401908036038213610217578f918f6106a38a915f95948b8796519482869385850198893783019084820190898252519283915e018683820152038084520182610e21565b5190305af48c3d1561072f57503d898111610704578f928f8f908083958f6106fd966106dd6106ed9560019b5193601f8401160183610e21565b81525f81933d92013e5b30611082565b6106f78383610ea7565b52610ea7565b50016105be565b8860418d7f4e487b71000000000000000000000000000000000000000000000000000000005f52525ffd5b826106fd916106ed600195946060906106e7565b60609082018301528d9101610589565b6041867f4e487b71000000000000000000000000000000000000000000000000000000005f525260245ffd5b50346102175760206003193601126102175781602092355f528252805f20549051908152f35b50346102175760206003193601126102175760209073ffffffffffffffffffffffffffffffffffffffff6107d7610da4565b169051908152f35b5034610217576060600319360112610217576020906107fc610da4565b610804610dc7565b9073ffffffffffffffffffffffffffffffffffffffff8091165f5260028452825f2091165f528252805f206044355f528252805f20549051908152f35b503461021757806003193601126102175761085a610da4565b602435908115158092036102175733156109285773ffffffffffffffffffffffffffffffffffffffff169081156108fd5760209350335f5260018452825f20825f528452825f207fffffffffffffffffffffffffffffffffffffffffffffffffffffffffffffff0081541660ff831617905582519081527fceb576d9f15e4e200fdb5096d64d5dfd667e16def20c1eefd14256d8e3faa267843392a35160018152f35b5f847f6f65f4650000000000000000000000000000000000000000000000000000000082525260245ffd5b5f847fcc766a980000000000000000000000000000000000000000000000000000000082525260245ffd5b5034610217576020806003193601126102175782355f52600381526001916001815f2001928151935f918154918260011c92600181168015610a8d575b8785108114610a61578899509688969785829a5291825f14610a1c5750506001146109dc575b5050506109d892916109c9910385610e21565b51928284938452830190610d61565b0390f35b8693505f92919252825f20915f925b828410610a0457505050820101816109c96109d86109b6565b8054848a0186015288955087949093019281016109eb565b7fffffffffffffffffffffffffffffffffffffffffffffffffffffffffffffff00168782015293151560051b860190930193508492506109c991506109d890506109b6565b60228a7f4e487b71000000000000000000000000000000000000000000000000000000005f525260245ffd5b93607f1693610990565b503461021757610aa636610dea565b90913315610b475773ffffffffffffffffffffffffffffffffffffffff16908115610b1c5760209450335f5260028552835f20825f528552835f20835f52855280845f205583519081527fb3fd5071835887567a0671151121894ddccc2842f1d10bedad13e0d17cace9a7853392a45160018152f35b5f857f6f65f4650000000000000000000000000000000000000000000000000000000082525260245ffd5b5f857fcc766a980000000000000000000000000000000000000000000000000000000082525260245ffd5b503461021757602060031936011261021757602091355f526003825260ff6002825f200154169051908152f35b503461021757602090610120610bb436610dea565b9133610ee8565b50903461021757602060031936011261021757357fffffffff000000000000000000000000000000000000000000000000000000008116809103610217576020917f0f632fb3000000000000000000000000000000000000000000000000000000008214918215610c30575b50519015158152f35b7f01ffc9a7000000000000000000000000000000000000000000000000000000001491505f610c27565b503461021757806003193601126102175760209073ffffffffffffffffffffffffffffffffffffffff610c8b610da4565b165f525f8252805f206024355f528252805f20549051908152f35b9190503461021757602090816003193601126102175783355f5260038252805f205f908054906001908260011c92600181168015610d57575b8785108114610a61578899509688969785829a5291825f14610a1c575050600114610d17575050506109d892916109c9910385610e21565b8693505f92919252825f20915f925b828410610d3f57505050820101816109c96109d86109b6565b8054848a018601528895508794909301928101610d26565b93607f1693610cdf565b907fffffffffffffffffffffffffffffffffffffffffffffffffffffffffffffffe0601f602080948051918291828752018686015e5f8582860101520116010190565b6004359073ffffffffffffffffffffffffffffffffffffffff8216820361021757565b6024359073ffffffffffffffffffffffffffffffffffffffff8216820361021757565b60031960609101126102175760043573ffffffffffffffffffffffffffffffffffffffff8116810361021757906024359060443590565b90601f7fffffffffffffffffffffffffffffffffffffffffffffffffffffffffffffffe0910116810190811067ffffffffffffffff821117610e6257604052565b7f4e487b71000000000000000000000000000000000000000000000000000000005f52604160045260245ffd5b67ffffffffffffffff8111610e625760051b60200190565b8051821015610ebb5760209160051b010190565b7f4e487b71000000000000000000000000000000000000000000000000000000005f52603260045260245ffd5b92919273ffffffffffffffffffffffffffffffffffffffff808216928315611056571692831561102a57825f5260205f8152604092835f20875f528252835f205490838210610fcc57508290855f525f8352845f20885f52835203835f2055845f525f8152825f2090865f5252815f2090815492818401809411610f9f5792909155905133815260208101919091527f1b3d7edb2e9c0b0e7c525b20aaaef0f5940d2ed71663c7d39266ecafac72885990604090a4565b7f4e487b71000000000000000000000000000000000000000000000000000000005f52601160045260245ffd5b84517fb1b4fec000000000000000000000000000000000000000000000000000000000815273ffffffffffffffffffffffffffffffffffffffff91909116600482015260248101919091526044810183905260648101879052608490fd5b7fb8bbd610000000000000000000000000000000000000000000000000000000005f525f60045260245ffd5b7fa4352080000000000000000000000000000000000000000000000000000000005f525f60045260245ffd5b906110bf575080511561109757805190602001fd5b7fd6bda275000000000000000000000000000000000000000000000000000000005f5260045ffd5b81511580611112575b6110d0575090565b73ffffffffffffffffffffffffffffffffffffffff907f9996b315000000000000000000000000000000000000000000000000000000005f521660045260245ffd5b50803b156110c856fea2646970667358221220bd6067c0e94ee4d38594624b6bdf7348247e7ecbab51cbd06d2d8e26385deecd64736f6c634300081b0033",
  "linkReferences": {},
  "deployedLinkReferences": {}
}