{
  "_format": "hh-sol-artifact-1",
  "contractName": "EclpLPOracleFactory",
  "sourceName": "contracts/EclpLPOracleFactory.sol",
  "abi": [
    {
      "inputs": [
        {
          "internalType": "contract IVault",
          "name": "vault",
          "type": "address"
        },
        {
          "internalType": "contract AggregatorV3Interface",
          "name": "sequencerUptimeFeed",
          "type": "address"
        },
        {
          "internalType": "uint256",
          "name": "resyncWindow",
          "type": "uint256"
        },
        {
          "internalType": "string",
          "name": "factoryVersion",
          "type": "string"
        },
        {
          "internalType": "uint256",
          "name": "oracleVersion",
          "type": "uint256"
        }
      ],
      "stateMutability": "nonpayable",
      "type": "constructor"
    },
    {
      "inputs": [],
      "name": "InputLengthMismatch",
      "type": "error"
    },
    {
      "inputs": [
        {
          "internalType": "contract IBasePool",
          "name": "pool",
          "type": "address"
        },
        {
          "internalType": "bool",
          "name": "shouldUseBlockTimeForOldestFeedUpdate",
          "type": "bool"
        },
        {
          "internalType": "bool",
          "name": "shouldRevertIfVaultUnlocked",
          "type": "bool"
        },
        {
          "internalType": "contract AggregatorV3Interface[]",
          "name": "feeds",
          "type": "address[]"
        },
        {
          "internalType": "contract ILPOracleBase",
          "name": "oracle",
          "type": "address"
        }
      ],
      "name": "OracleAlreadyExists",
      "type": "error"
    },
    {
      "inputs": [],
      "name": "OracleFactoryIsDisabled",
      "type": "error"
    },
    {
      "inputs": [],
      "name": "SenderNotAllowed",
      "type": "error"
    },
    {
      "inputs": [],
      "name": "SequencerDown",
      "type": "error"
    },
    {
      "inputs": [],
      "name": "SequencerResyncIncomplete",
      "type": "error"
    },
    {
      "inputs": [],
      "name": "VaultNotSet",
      "type": "error"
    },
    {
      "anonymous": false,
      "inputs": [
        {
          "indexed": true,
          "internalType": "contract IGyroECLPPool",
          "name": "pool",
          "type": "address"
        },
        {
          "indexed": false,
          "internalType": "bool",
          "name": "shouldUseBlockTimeForOldestFeedUpdate",
          "type": "bool"
        },
        {
          "indexed": false,
          "internalType": "bool",
          "name": "shouldRevertIfVaultUnlocked",
          "type": "bool"
        },
        {
          "indexed": false,
          "internalType": "contract AggregatorV3Interface[]",
          "name": "feeds",
          "type": "address[]"
        },
        {
          "indexed": false,
          "internalType": "contract ILPOracleBase",
          "name": "oracle",
          "type": "address"
        }
      ],
      "name": "EclpLPOracleCreated",
      "type": "event"
    },
    {
      "anonymous": false,
      "inputs": [],
      "name": "OracleFactoryDisabled",
      "type": "event"
    },
    {
      "inputs": [
        {
          "internalType": "contract IBasePool",
          "name": "pool",
          "type": "address"
        },
        {
          "internalType": "bool",
          "name": "shouldUseBlockTimeForOldestFeedUpdate",
          "type": "bool"
        },
        {
          "internalType": "bool",
          "name": "shouldRevertIfVaultUnlocked",
          "type": "bool"
        },
        {
          "internalType": "contract AggregatorV3Interface[]",
          "name": "feeds",
          "type": "address[]"
        }
      ],
      "name": "create",
      "outputs": [
        {
          "internalType": "contract ILPOracleBase",
          "name": "oracle",
          "type": "address"
        }
      ],
      "stateMutability": "nonpayable",
      "type": "function"
    },
    {
      "inputs": [],
      "name": "disable",
      "outputs": [],
      "stateMutability": "nonpayable",
      "type": "function"
    },
    {
      "inputs": [
        {
          "internalType": "bytes4",
          "name": "selector",
          "type": "bytes4"
        }
      ],
      "name": "getActionId",
      "outputs": [
        {
          "internalType": "bytes32",
          "name": "",
          "type": "bytes32"
        }
      ],
      "stateMutability": "view",
      "type": "function"
    },
    {
      "inputs": [],
      "name": "getAuthorizer",
      "outputs": [
        {
          "internalType": "contract IAuthorizer",
          "name": "",
          "type": "address"
        }
      ],
      "stateMutability": "view",
      "type": "function"
    },
    {
      "inputs": [
        {
          "internalType": "contract IBasePool",
          "name": "pool",
          "type": "address"
        },
        {
          "internalType": "bool",
          "name": "shouldUseBlockTimeForOldestFeedUpdate",
          "type": "bool"
        },
        {
          "internalType": "bool",
          "name": "shouldRevertIfVaultUnlocked",
          "type": "bool"
        },
        {
          "internalType": "contract AggregatorV3Interface[]",
          "name": "feeds",
          "type": "address[]"
        }
      ],
      "name": "getOracle",
      "outputs": [
        {
          "internalType": "contract ILPOracleBase",
          "name": "oracle",
          "type": "address"
        }
      ],
      "stateMutability": "view",
      "type": "function"
    },
    {
      "inputs": [],
      "name": "getOracleVersion",
      "outputs": [
        {
          "internalType": "uint256",
          "name": "",
          "type": "uint256"
        }
      ],
      "stateMutability": "view",
      "type": "function"
    },
    {
      "inputs": [],
      "name": "getSequencerUptimeFeed",
      "outputs": [
        {
          "internalType": "contract AggregatorV3Interface",
          "name": "sequencerUptimeFeed",
          "type": "address"
        }
      ],
      "stateMutability": "view",
      "type": "function"
    },
    {
      "inputs": [],
      "name": "getUptimeResyncWindow",
      "outputs": [
        {
          "internalType": "uint256",
          "name": "uptimeResyncWindow",
          "type": "uint256"
        }
      ],
      "stateMutability": "view",
      "type": "function"
    },
    {
      "inputs": [],
      "name": "getVault",
      "outputs": [
        {
          "internalType": "contract IVault",
          "name": "",
          "type": "address"
        }
      ],
      "stateMutability": "view",
      "type": "function"
    },
    {
      "inputs": [
        {
          "internalType": "contract ILPOracleBase",
          "name": "oracle",
          "type": "address"
        }
      ],
      "name": "isOracleFromFactory",
      "outputs": [
        {
          "internalType": "bool",
          "name": "success",
          "type": "bool"
        }
      ],
      "stateMutability": "view",
      "type": "function"
    },
    {
      "inputs": [],
      "name": "version",
      "outputs": [
        {
          "internalType": "string",
          "name": "",
          "type": "string"
        }
      ],
      "stateMutability": "view",
      "type": "function"
    }
  ],
  "bytecode": "0x61012060405234610281576142378038038061001a81610285565b92833981019060a0818303126102815780516001600160a01b038082169391929091848403610281576020808301519384168403610281576040830151606084015190956001600160401b0393909184811161028157850191601f928284820112156102815780519686881161025e57601f199761009d8682018a168801610285565b948186528782850101116102815786815f9282608096018389015e8601015201519830608052156102725760a052805193841161025e575f54926001938481811c91168015610254575b82821014610240578381116101fd575b508092851160011461019d5750839450908392915f94610192575b50501b915f199060031b1c1916175f555b60c05260e052610100908152604051613f8c91826102ab833960805182610bf5015260a05182818160ed015281816101e2015281816104cf01526108a2015260c0518281816101920152610581015260e0518281816105a80152610a2c01525181818161040601526105e20152f35b015192505f80610112565b9294849081165f8052845f20945f905b888383106101e357505050106101cb575b505050811b015f55610123565b01515f1960f88460031b161c191690555f80806101be565b8587015188559096019594850194879350908101906101ad565b5f8052815f208480880160051c820192848910610237575b0160051c019085905b82811061022c5750506100f7565b5f815501859061021e565b92508192610215565b634e487b7160e01b5f52602260045260245ffd5b90607f16906100e7565b634e487b7160e01b5f52604160045260245ffd5b630647140b60e51b5f5260045ffd5b5f80fd5b6040519190601f01601f191682016001600160401b0381118382101761025e5760405256fe608060409080825260049081361015610016575f80fd5b5f358060e01c91826319bbcf6014610a17575081632f2770db1461081f57508063324baa81146104745780633ad671ed1461042957806344ae107d146103ef57806354fd4d501461029a57806367918f4414610255578063851c1bb3146102065780638d928af8146101b6578063a056076c146101665763aaabadc51461009b575f80fd5b34610162575f6003193601126101625773ffffffffffffffffffffffffffffffffffffffff6020835180937faaabadc500000000000000000000000000000000000000000000000000000000825281847f0000000000000000000000000000000000000000000000000000000000000000165afa91821561015857926020935f93610129575b505191168152f35b61014a919350843d8611610151575b6101428183610a4f565b810190610c40565b915f610121565b503d610138565b83513d5f823e3d90fd5b5f80fd5b8234610162575f600319360112610162576020905173ffffffffffffffffffffffffffffffffffffffff7f0000000000000000000000000000000000000000000000000000000000000000168152f35b8234610162575f600319360112610162576020905173ffffffffffffffffffffffffffffffffffffffff7f0000000000000000000000000000000000000000000000000000000000000000168152f35b50346101625760206003193601126101625735907fffffffff00000000000000000000000000000000000000000000000000000000821682036101625761024e602092610bca565b9051908152f35b82346101625760209061027361026a36610ab7565b92919091610ca0565b5f526002825273ffffffffffffffffffffffffffffffffffffffff815f2054169051908152f35b509034610162575f6003193601126101625780515f5f549060018260011c90600184169384156103e5575b60209788841086146103b957509187918694938286528386019690815f1461037f5750600114610329575b50505091610305601f92601f19940385610a4f565b845195869481865251918280928701528686015e5f85828601015201168101030190f35b5f8080529293507f290decd9548b62a8d60345a988386fc84ba6bc95484008f6362f93160ef3e5635b828410610369575050508201018582601f196102f0565b8054888501860152879550928401928101610352565b7fffffffffffffffffffffffffffffffffffffffffffffffffffffffffffffff001687525050151560051b83010190508582601f196102f0565b6022907f4e487b71000000000000000000000000000000000000000000000000000000005f525260245ffd5b91607f16916102c5565b8234610162575f60031936011261016257602090517f00000000000000000000000000000000000000000000000000000000000000008152f35b503461016257602060031936011261016257359073ffffffffffffffffffffffffffffffffffffffff8216809203610162576020915f526003825260ff815f20541690519015158152f35b5090346101625761048436610ab7565b939294610492929192610c6c565b61049e85848489610ca0565b92835f526020966002885273ffffffffffffffffffffffffffffffffffffffff9081875f205416806107c2575081807f00000000000000000000000000000000000000000000000000000000000000001691169487517fca4f280300000000000000000000000000000000000000000000000000000000815286868201525f81602481865afa9081156107b8575f91610723575b50518951036106fc578751916132218084019684881067ffffffffffffffff8911176106d0575083929161057d91610d368539610100908852888d890152808b89015287018b610b81565b90847f00000000000000000000000000000000000000000000000000000000000000001660608801527f000000000000000000000000000000000000000000000000000000000000000060808801521515948560a08801521515958660c082015260e07f000000000000000000000000000000000000000000000000000000000000000091015203905ff080156106c6577f78b4a9f48057f7e628702061d8d251fdce5d44312918788f24d67fa154856cd7939291610653911697875193849384528a8401526080888401526080830190610b81565b8760608301520390a25f5260028352805f20827fffffffffffffffffffffffff0000000000000000000000000000000000000000825416179055815f5260038352805f2060017fffffffffffffffffffffffffffffffffffffffffffffffffffffffffffffff0082541617905551908152f35b86513d5f823e3d90fd5b6041907f4e487b71000000000000000000000000000000000000000000000000000000005f525260245ffd5b847faaad13f7000000000000000000000000000000000000000000000000000000005f525ffd5b90503d805f833e6107348183610a4f565b8101908b818303126101625780519067ffffffffffffffff821161016257019080601f8301121561016257815161076a81610a9f565b926107778c519485610a4f565b8184528d8085019260051b820101928311610162578d01905b8282106107a0575050505f610532565b81518781168103610162578152908d01908d01610790565b89513d5f823e3d90fd5b610815898588888c519788977f5448fe6c0000000000000000000000000000000000000000000000000000000089521690870152151560248601521515604485015260a0606485015260a4840190610b81565b9060848301520390fd5b83915034610162575f600319360112610162577fffffffff0000000000000000000000000000000000000000000000000000000061085d9116610bca565b73ffffffffffffffffffffffffffffffffffffffff9082517faaabadc500000000000000000000000000000000000000000000000000000000815260209182828781877f0000000000000000000000000000000000000000000000000000000000000000165afa918215610a0d57908392915f926109eb575b50606490865195869384927f9be2a8840000000000000000000000000000000000000000000000000000000084528a840152336024840152306044840152165afa9283156109e257505f926109ab575b50501561098557610935610c6c565b60017fffffffffffffffffffffffffffffffffffffffffffffffffffffffffffffff00815416176001557ffe34e17b7303d60372d2f145fa39f112bc9d45876fab79a7724c0db0cd33f8e65f80a1005b7f23dada53000000000000000000000000000000000000000000000000000000005f525ffd5b90809250813d83116109db575b6109c28183610a4f565b8101031261016257518015158103610162578280610926565b503d6109b8565b513d5f823e3d90fd5b6064919250610a0690843d8611610151576101428183610a4f565b91906108d6565b85513d5f823e3d90fd5b34610162575f600319360112610162576020907f00000000000000000000000000000000000000000000000000000000000000008152f35b90601f601f19910116810190811067ffffffffffffffff821117610a7257604052565b7f4e487b71000000000000000000000000000000000000000000000000000000005f52604160045260245ffd5b67ffffffffffffffff8111610a725760051b60200190565b60806003198201126101625773ffffffffffffffffffffffffffffffffffffffff906004358281168103610162579260243580151581036101625792604435801515810361016257926064359067ffffffffffffffff8211610162578060238301121561016257816004013592610b2d84610a9f565b93610b3b6040519586610a4f565b8085526020936024602087019260051b82010193841161016257602401905b838210610b6957505050505090565b81358381168103610162578152908401908401610b5a565b9081518082526020808093019301915f5b828110610ba0575050505090565b835173ffffffffffffffffffffffffffffffffffffffff1685529381019392810192600101610b92565b6040517fffffffff0000000000000000000000000000000000000000000000000000000060208201927f00000000000000000000000000000000000000000000000000000000000000008452166040820152602481526060810181811067ffffffffffffffff821117610a725760405251902090565b90816020910312610162575173ffffffffffffffffffffffffffffffffffffffff811681036101625790565b60ff60015416610c7857565b7fb110e99d000000000000000000000000000000000000000000000000000000005f5260045ffd5b9092919260405192839160208084019660a085019273ffffffffffffffffffffffffffffffffffffffff809716895215156040860152151560608501526080808501528251809252602060c085019301945f905b838210610d185750505050610d12925003601f198101835282610a4f565b51902090565b865181168552958201958795509382019360019190910190610cf456fe6103806040908082523461063257613221803803809161001f8285610701565b8339810191610100928383820312610632578251926001600160a01b03918285169081860361063257602092838101519585871680970361063257818101516001600160401b03959086811161063257830194601f9480868801121561063257865161008a81610738565b976100978651998a610701565b81895284808a019260051b8201019283116106325784809101915b8383106106e95750505050606084016100ca9061074f565b6080850151906100dc60a08701610763565b956100e960c08201610763565b9060e00151966101409788526101209d8e528c60805260e0528d5260a05260c052825180809263ca4f280360e01b825260049b8c8301525a926024915f94fa9081156106df575f91610653575b50519561016094878652895f8a608051168651928380926395d89b4160e01b82525afa908115610649579084915f916105b6575b50602461019b9187519381859251918291018984015e8101630bd554d160e21b88820152038d810184520182610701565b80519283116105a3575f54936001948581811c91168015610599575b8282101461058657838111610543575b50809284116001146104e157509282939183925f946104d6575b50501b915f199060031b1c1916175f555b835185036104c8578561020485610770565b5116936101809485526102218761021a83610770565b5116610802565b9661028097885260078161023484610791565b5116976101a098895261024a8361021a86610791565b9a6102a09b8c52600282116104a2575b6003821161047c575b8111610456575b60058111610430575b6006811161040a575b116103e3575b5050519661295d98896108c48a396080518981816101620152818161070601528181610cd7015261113e015260a05189818161064b01526119c9015260c051898181610c8a0152611a43015260e0518981816102000152610c3301525188818160e10152818161044b015281816105fa0152610a98015251878181610188015281816103c9015281816104d10152818161073201528181610b8001526111db01525186610bf9015251858181610260015281816105400152818161085001528181610ac50152610f980152518461180d0152518361183a01526101c0518361187101526101e051836118a8015261020051836118df01526102205183611916015261024051836119510152610260518361198801525182611afd01525181611b2801526102c05181611b5c01526102e05181611b9001526103005181611bc401526103205181611bf801526103405181611c2f01526103605181611c620152f35b61021a82826103f46103ff956107f1565b5116610260526107f1565b610360525f80610282565b82610414856107e1565b5116610240526104278361021a866107e1565b6103405261027c565b8261043a856107d1565b51166102205261044d8361021a866107d1565b61032052610273565b82610460856107c1565b5116610200526104738361021a866107c1565b6103005261026a565b83610486866107b1565b51166101e0526104998461021a876107b1565b6102e052610263565b836104ac866107a1565b51166101c0526104bf8461021a876107a1565b6102c05261025a565b8663aaad13f760e01b5f525ffd5b015192505f806101e1565b919083601f1981165f8052845f20945f905b888383106105295750505010610511575b505050811b015f556101f2565b01515f1960f88460031b161c191690555f8080610504565b8587015188559096019594850194879350908101906104f3565b5f8052815f208480870160051c82019284881061057d575b0160051c019086905b8281106105725750506101c7565b5f8155018690610564565b9250819261055b565b60228d634e487b7160e01b5f525260245ffd5b90607f16906101b7565b60418b634e487b7160e01b5f525260245ffd5b9150503d805f833e6105c88183610701565b81019084818303126106325780519084821161063257018183820112156106325780519084821161063657865192610608838601601f1916880185610701565b8284528683830101116106325785925f848461019b9582602496018386015e83010152915061016a565b5f80fd5b60418d634e487b7160e01b5f525260245ffd5b85513d5f823e3d90fd5b90503d805f833e6106648183610701565b81019082818303126106325780519088821161063257019080868301121561063257815161069181610738565b9261069e86519485610701565b818452848085019260051b820101928311610632578401905b8282106106c7575050505f610136565b81518b811681036106325781529084019084016106b7565b83513d5f823e3d90fd5b81906106f48461074f565b81520191019084906100b2565b601f909101601f19168101906001600160401b0382119082101761072457604052565b634e487b7160e01b5f52604160045260245ffd5b6001600160401b0381116107245760051b60200190565b51906001600160a01b038216820361063257565b5190811515820361063257565b80511561077d5760200190565b634e487b7160e01b5f52603260045260245ffd5b80516001101561077d5760400190565b80516002101561077d5760600190565b80516003101561077d5760800190565b80516004101561077d5760a00190565b80516005101561077d5760c00190565b80516006101561077d5760e00190565b80516007101561077d576101000190565b60405163313ce56760e01b815290602090829060049082906001600160a01b03165afa80156108b8575f9061087b575b60ff9150166012811161086c576012036012811161085857604d811161085857600a0a90565b634e487b7160e01b5f52601160045260245ffd5b636a78e98160e11b5f5260045ffd5b506020813d6020116108b0575b8161089560209383610701565b81010312610632575160ff811681036106325760ff90610832565b3d9150610888565b6040513d5f823e3d90fdfe6080604081815260049182361015610015575f80fd5b5f3560e01c90816316f0115b14610cad5750806319bbcf6014610c73578063313ce56714610c5857806341d88e3514610c1c57806354fd4d5014610be257806365bcdaee14610a225780637284e416146108ce5780637fe955d41461083a57806389c06568146106b65780639a6fc8f51461066f578063a056076c1461061f578063a1f6f025146105e3578063af1296d31461057b578063cd2c9e7014610526578063d7e8c92b146104385763feaf968c146100cf575f80fd5b3461034a575f60031936011261034a577f000000000000000000000000000000000000000000000000000000000000000080610387575b6103605761011e6024610117610f8e565b9290611125565b93602073ffffffffffffffffffffffffffffffffffffffff8551938480927fe4dc2aa4000000000000000000000000000000000000000000000000000000008252807f000000000000000000000000000000000000000000000000000000000000000016868301527f0000000000000000000000000000000000000000000000000000000000000000165afa918215610356575f9261031e575b5081156102f857670de0b6b3a7640000948581029581870414901517156102cc57507fffffffffffffffffffffffffffffffffffffffffffffffffffffffffffffffff9160017f00000000000000000000000000000000000000000000000000000000000000001561025c57505061024060a09460015f9342955b8301040190151502611c92565b92805193828552602085015283015260608201525f6080820152f35b83917f0000000000000000000000000000000000000000000000000000000000000000905f5b82811061029d575050505060a09460015f9361024093610233565b866102a88284610ea6565b51106102b6575b8301610282565b9550826102c38783610ea6565b519690506102af565b6011907f4e487b71000000000000000000000000000000000000000000000000000000005f525260245ffd5b7f0a0c22c7000000000000000000000000000000000000000000000000000000005f525ffd5b9091506020813d60201161034e575b8161033a60209383610d44565b8101031261034a5751905f6101b8565b5f80fd5b3d915061032d565b84513d5f823e3d90fd5b507fbe18e309000000000000000000000000000000000000000000000000000000005f525ffd5b5080517f8380edb7000000000000000000000000000000000000000000000000000000008152602081848173ffffffffffffffffffffffffffffffffffffffff7f0000000000000000000000000000000000000000000000000000000000000000165afa90811561042e575f916103ff575b50610106565b610421915060203d602011610427575b6104198183610d44565b810190610db2565b5f6103f9565b503d61040f565b82513d5f823e3d90fd5b503461034a575f60031936011261034a577f00000000000000000000000000000000000000000000000000000000000000008061048f575b61036057602090610488610482610f8e565b50611125565b9051908152f35b5080517f8380edb7000000000000000000000000000000000000000000000000000000008152602081848173ffffffffffffffffffffffffffffffffffffffff7f0000000000000000000000000000000000000000000000000000000000000000165afa90811561042e575f91610507575b50610470565b610520915060203d602011610427576104198183610d44565b5f610501565b503461034a575f60031936011261034a57610577906105647f0000000000000000000000000000000000000000000000000000000000000000611af1565b9051918291602083526020830190610d7f565b0390f35b503461034a575f60031936011261034a57610594610f8e565b8251928391818301918352835180925260608301916020809501945f5b8281106105cc57858061057787878382036020850152610d7f565b8651855295810195879550938101936001016105b1565b503461034a575f60031936011261034a57602090517f000000000000000000000000000000000000000000000000000000000000000015158152f35b503461034a575f60031936011261034a576020905173ffffffffffffffffffffffffffffffffffffffff7f0000000000000000000000000000000000000000000000000000000000000000168152f35b50903461034a57602060031936011261034a573569ffffffffffffffffffff81160361034a57805f60a09251918183528160208401528201525f60608201525f6080820152f35b503461034a575f60031936011261034a5773ffffffffffffffffffffffffffffffffffffffff918151907fca4f2803000000000000000000000000000000000000000000000000000000008252837f000000000000000000000000000000000000000000000000000000000000000016908201525f81602481867f0000000000000000000000000000000000000000000000000000000000000000165afa90811561042e575f916107a1575b50815191602090602080850191818652845180935285019301915f5b82811061078b5785850386f35b835187168552938101939281019260010161077e565b90503d805f833e6107b28183610d44565b810190602090818184031261034a5780519067ffffffffffffffff821161034a57019180601f8401121561034a5782516107eb81610d67565b936107f886519586610d44565b818552838086019260051b82010192831161034a578301905b82821061082257505050505f610762565b8151878116810361034a578152908301908301610811565b503461034a575f60031936011261034a576108747f00000000000000000000000000000000000000000000000000000000000000006117bd565b908051918291602090602080850191818652845180935285019301915f5b8281106108a157505050500390f35b835173ffffffffffffffffffffffffffffffffffffffff1685528695509381019392810192600101610892565b503461034a575f60031936011261034a5780515f5f549060018260011c9060018416938415610a18575b60209788841086146109ec57509187918694938286528386019690815f146109b2575060011461095c575b50505091610938601f92601f19940385610d44565b845195869481865251918280928701528686015e5f85828601015201168101030190f35b5f8080529293507f290decd9548b62a8d60345a988386fc84ba6bc95484008f6362f93160ef3e5635b82841061099c575050508201018582601f19610923565b8054888501860152879550928401928101610985565b7fffffffffffffffffffffffffffffffffffffffffffffffffffffffffffffff001687525050151560051b83010190508582601f19610923565b6022907f4e487b71000000000000000000000000000000000000000000000000000000005f525260245ffd5b91607f16916108f8565b503461034a576020918260031936011261034a5780359067ffffffffffffffff821161034a573660238301121561034a5781810135610a6081610d67565b92610a6d85519485610d44565b81845260248685019260051b8201019136831161034a576024879201905b838210610bd357505050507f000000000000000000000000000000000000000000000000000000000000000080610b3f575b610b195781517f000000000000000000000000000000000000000000000000000000000000000003610af3575061048890611125565b7faaad13f7000000000000000000000000000000000000000000000000000000005f525ffd5b7fbe18e309000000000000000000000000000000000000000000000000000000005f525ffd5b5082517f8380edb70000000000000000000000000000000000000000000000000000000081528481838173ffffffffffffffffffffffffffffffffffffffff7f0000000000000000000000000000000000000000000000000000000000000000165afa908115610356575f91610bb6575b50610abd565b610bcd9150853d8711610427576104198183610d44565b5f610bb0565b81358152908201908201610a8b565b503461034a575f60031936011261034a57602090517f00000000000000000000000000000000000000000000000000000000000000008152f35b503461034a575f60031936011261034a57602090517f000000000000000000000000000000000000000000000000000000000000000015158152f35b503461034a575f60031936011261034a576020905160128152f35b503461034a575f60031936011261034a57602090517f00000000000000000000000000000000000000000000000000000000000000008152f35b3461034a575f60031936011261034a5760209073ffffffffffffffffffffffffffffffffffffffff7f0000000000000000000000000000000000000000000000000000000000000000168152f35b6040810190811067ffffffffffffffff821117610d1757604052565b7f4e487b71000000000000000000000000000000000000000000000000000000005f52604160045260245ffd5b90601f601f19910116810190811067ffffffffffffffff821117610d1757604052565b67ffffffffffffffff8111610d175760051b60200190565b9081518082526020808093019301915f5b828110610d9e575050505090565b835185529381019392810192600101610d90565b9081602091031261034a5751801515810361034a5790565b90610dd482610d67565b610de16040519182610d44565b828152601f19610df18294610d67565b0190602036910137565b805115610e085760200190565b7f4e487b71000000000000000000000000000000000000000000000000000000005f52603260045260245ffd5b805160011015610e085760400190565b805160021015610e085760600190565b805160031015610e085760800190565b805160041015610e085760a00190565b805160051015610e085760c00190565b805160061015610e085760e00190565b805160071015610e08576101000190565b8051821015610e085760209160051b010190565b519069ffffffffffffffffffff8216820361034a57565b908160a091031261034a57610ee581610eba565b91602082015191604081015191610f03608060608401519301610eba565b90565b90670de0b6b3a764000091828102928184051490151715610f2357565b7f4e487b71000000000000000000000000000000000000000000000000000000005f52601160045260245ffd5b81810292915f82127f8000000000000000000000000000000000000000000000000000000000000000821416610f23578184051490151715610f2357565b610f966119b2565b7f000000000000000000000000000000000000000000000000000000000000000090610fc1826117bd565b90610fcb83611af1565b92610fd581610d67565b936040610fe56040519687610d44565b828652601f19610ff484610d67565b013660208801378561100584610dca565b955f5b85811061101757505050505050565b73ffffffffffffffffffffffffffffffffffffffff6110368284610ea6565b5116845180917ffeaf968c00000000000000000000000000000000000000000000000000000000825281600460a09384935afa9182156110f357600193925f928392916110b9575b505061109d90611097611091858b610ea6565b51611c92565b90610f50565b6110a78387610ea6565b526110b2828b610ea6565b5201611008565b61109d93506110dd9250803d106110ec575b6110d58183610d44565b810190610ed1565b9094509192508291905061107e565b503d6110cb565b86513d5f823e3d90fd5b919082604091031261034a5760405161111581610cfb565b6020808294805184520151910152565b73ffffffffffffffffffffffffffffffffffffffff91827f0000000000000000000000000000000000000000000000000000000000000000169160408051937f7be219a20000000000000000000000000000000000000000000000000000000085526101c09160049083878381865afa9687156115d0575f945f9861166f575b50505f6024988251998a80927f535cfd8a00000000000000000000000000000000000000000000000000000000825287878301527f0000000000000000000000000000000000000000000000000000000000000000165afa9283156115d0575f936115da575b61124a969798508151809781957f984de9e800000000000000000000000000000000000000000000000000000000835284868401526044830190610d7f565b916001602483015281602096879403915afa9586156115d0575f966115a1575b5064174876e8008061127b87610dfb565b511290811561158e575b506115675761129d61129686610dfb565b5195610e35565b51916112a98387611d9b565b855181121561130057505050509168056bc75e2d631000006112f0876112e96112f6956112e06112fb98610f039b9c015182611e6f565b51925190611e6f565b5190611ce7565b05611f41565b611eee565b611f23565b8486959697939497015181135f1461135457505050509168056bc75e2d631000006112f0878461134c6112fb97826112f698611341610f039d9e5184611e6f565b015194015190611e6f565b015190611ce7565b61144e611449858861143f61142295839f989b99835f915161137581610cfb565b82815201526113eb61143885519261138c84610cfb565b7ffffffffffffffffffffffffffffffffffffffffffffffffff21f494c589c000084528584019081528d61142d8851976113c589610cfb565b5f89528801985f8a52820195865192670de0b6b3a76400009d8e80988196855190610f50565b059161141c60606114026080840195865190612019565b9201938761141386518b5190610f50565b05905190612019565b90611ce7565b8a5251905190610f50565b059351905190610f50565b0590611e28565b8092525190611d9b565b611e43565b8a519261145a84610cfb565b5f8452858401925f84526114716112f68480611f41565b810180911161153b5761148e61148961149592611fa7565b611c92565b8093611d9b565b845281156102f857509484610f039a9b94611535966114fe6114ce61152b976112f69c976114c66112fb9f9d611cff565b905286611e6f565b9468056bc75e2d63100000936114f5856114eb8684015185611e6f565b5105885190611ce7565b87525190611e6f565b0151059461151182840196875190611ce7565b86525161151d81610cfb565b838152019586525190611f41565b9251905190611f41565b90611e28565b6011827f4e487b71000000000000000000000000000000000000000000000000000000005f525260245ffd5b507f1d2fcef0000000000000000000000000000000000000000000000000000000005f525ffd5b905061159986610e35565b51125f611285565b9095508281813d83116115c9575b6115b98183610d44565b8101031261034a5751945f61126a565b503d6115af565b50513d5f823e3d90fd5b92503d805f8a3e6115eb818a610d44565b8801602098898183031261034a5780519067ffffffffffffffff821161034a57019080601f8301121561034a57815161162381610d67565b9261163085519485610d44565b8184528b8085019260051b82010192831161034a578b01905b82821061166057509899508998509093905061120b565b81518152908b01908b01611649565b9450979650833d85116117b6575b611687818a610d44565b88019780890394851261034a5760a0851261034a5781519867ffffffffffffffff9560a08b018781118c82101761178a57907fffffffffffffffffffffffffffffffffffffffffffffffffffffffffffffff609291855283518c52602084015160208d015284840151858d0152606084015160608d0152608084015160808d0152610120928391011261034a5783519660e088019081118882101761178a579260249b9261174e6101a0935f9688526117438160a086016110fd565b8b5260e084016110fd565b60208a0152810151858901526101408101516060890152610160810151608089015261018081015160a0890152015160c08701529497986111a5565b6041867f4e487b71000000000000000000000000000000000000000000000000000000005f525260245ffd5b503d61167d565b6117c681610d67565b906117d46040519283610d44565b808252601f196117e382610d67565b013660208401376117f382610dfb565b9073ffffffffffffffffffffffffffffffffffffffff91827f000000000000000000000000000000000000000000000000000000000000000016905261183883610e35565b7f00000000000000000000000000000000000000000000000000000000000000008316905260028111156119ad5761186f83610e45565b7f00000000000000000000000000000000000000000000000000000000000000008316905260038111156119ad576118a683610e55565b7f00000000000000000000000000000000000000000000000000000000000000008316905260048111156119ad576118dd83610e65565b7f00000000000000000000000000000000000000000000000000000000000000008316905260058111156119ad5761191483610e75565b7f00000000000000000000000000000000000000000000000000000000000000008316905260068111156119ad5760079061194e84610e85565b837f00000000000000000000000000000000000000000000000000000000000000001690521161197c575090565b61198582610e95565b907f000000000000000000000000000000000000000000000000000000000000000016905290565b505090565b73ffffffffffffffffffffffffffffffffffffffff7f0000000000000000000000000000000000000000000000000000000000000000168015611aee5760a0600491604051928380927ffeaf968c0000000000000000000000000000000000000000000000000000000082525afa908115611ae3575f905f92611ab9575b50600114611a91574203428111610f23577f000000000000000000000000000000000000000000000000000000000000000011611a6957565b7fed1bba46000000000000000000000000000000000000000000000000000000005f5260045ffd5b7f032b3d00000000000000000000000000000000000000000000000000000000005f5260045ffd5b60019250611ad6915060a03d60a0116110ec576110d58183610d44565b509093919250611a309050565b6040513d5f823e3d90fd5b50565b611afa81610dca565b907f0000000000000000000000000000000000000000000000000000000000000000611b2583610dfb565b527f0000000000000000000000000000000000000000000000000000000000000000611b5083610e35565b526002811115611c8e577f0000000000000000000000000000000000000000000000000000000000000000611b8483610e45565b526003811115611c8e577f0000000000000000000000000000000000000000000000000000000000000000611bb883610e55565b526004811115611c8e577f0000000000000000000000000000000000000000000000000000000000000000611bec83610e65565b526005811115611c8e577f0000000000000000000000000000000000000000000000000000000000000000611c2083610e75565b526006811115611c8e576007907f0000000000000000000000000000000000000000000000000000000000000000611c5784610e85565b5211611c605790565b7f0000000000000000000000000000000000000000000000000000000000000000611c8a82610e95565b5290565b5090565b7f7fffffffffffffffffffffffffffffffffffffffffffffffffffffffffffffff8111611cbc5790565b7f24775e06000000000000000000000000000000000000000000000000000000005f5260045260245ffd5b81810392915f138015828513169184121617610f2357565b8015611d19576ec097ce7bc90715b34b9f10000000000590565b7f4e487b71000000000000000000000000000000000000000000000000000000005f52601260045260245ffd5b8115611d19577fffffffffffffffffffffffffffffffffffffffffffffffffffffffffffffffff82147f8000000000000000000000000000000000000000000000000000000000000000821416610f23570590565b908015611e00578115611dfa57670de0b6b3a7640000611dc4611dbd84610f06565b9384611d46565b03611dd257610f0391611d46565b7fe03f5d57000000000000000000000000000000000000000000000000000000005f5260045ffd5b50505f90565b7f0a0c22c7000000000000000000000000000000000000000000000000000000005f5260045ffd5b9190915f8382019384129112908015821691151617610f2357565b7f80000000000000000000000000000000000000000000000000000000000000008114610f23575f0390565b9190611eea604051611e8081610cfb565b5f815261153560208201935f855261152b6114498498611ee28451611eab6080840191825190611f41565b95611ebc6040850197885190611f41565b98611ed7602083019a61153560608d51980197885190611f41565b905251905190611f41565b905190611f41565b9052565b5f8112611ef85790565b7fa8ce4432000000000000000000000000000000000000000000000000000000005f5260045260245ffd5b818102918183041490151715610f2357670de0b6b3a7640000900490565b611f4b8282610f50565b918115918215611f93575b505015611f6b57670de0b6b3a7640000900590565b7f0cde6c26000000000000000000000000000000000000000000000000000000005f5260045ffd5b611f9f91925083611d46565b145f80611f56565b611fb09061203b565b61271090818102918183041481151715610f23577fffffffffffffffffffffffffffffffffffffffffffffffffffffffffffffffff916001670de0b6b3a76400008483010401901515029060018201808311610f2357811015612014575050505f90565b030190565b908015611e005761202c610f0392610f06565b611d46565b8115611d19570590565b8015612922578060ff1c6128fa5780670c7d713b49da000012806128e9575b1561257d57670de0b6b3a7640000906ec097ce7bc90715b34b9f1000000000906120ad908302828101907fffffffffffffffffffffffffffffffffff3f68318436f8ea4cb460f000000000018302612031565b9080828002059181838202058284820205838582020591848684020593858786020595808888020597880205600f900596600d900595600b900594600990059360079005926005900591600390050101010101010160011b906706f05b59d3b20000908082818507020592050201670de0b6b3a7640000905b057ffffffffffffffffffffffffffffffffffffffffffffffffdc702bd3a30fc0000818113158061256a575b156125425781908212158061252f575b15612507575f915f81126124f8575b506064906806f05b59d3b20000008112612495577ffffffffffffffffffffffffffffffffffffffffffffffff90fa4a62c4e0000000168056bc75e2d6310000082770195e54c5dd42177f53a27172fa9ec630262827000000000925b02819068ad78ebc5ac6200000081121561245c575b6856bc75e2d631000000811215612422575b682b5e3af16b188000008112156123ea575b6815af1d78b58c4000008112156123b2575b680ad78ebc5ac620000081121561237b575b82811215612344575b6802b5e3af16b188000081121561230d575b68015af1d78b58c400008112156122d6575b60028382800205058360038184840205056004828583020505600583868302050560068487830205056007858883020505906008868984020505926009878a8602050594600a888b8802050596600b898c8a02050599600c8a8d8d0205059b01010101010101010101010102050205905f14610f0357610f0390611cff565b6806f5f17757889379377ffffffffffffffffffffffffffffffffffffffffffffffffea50e2874a73c000084920192020590612257565b6808f00f760a4b2db55d7ffffffffffffffffffffffffffffffffffffffffffffffffd4a1c50e94e78000084920192020590612245565b680ebc5fb417461211107ffffffffffffffffffffffffffffffffffffffffffffffffa9438a1d29cf0000084920192020590612233565b68280e60114edb805d037ffffffffffffffffffffffffffffffffffffffffffffffff5287143a539e000008492019202059061222a565b690127fa27722cc06cc5e27fffffffffffffffffffffffffffffffffffffffffffffffea50e2874a73c0000084920192020590612218565b693f1fce3da636ea5cf8507fffffffffffffffffffffffffffffffffffffffffffffffd4a1c50e94e780000084920192020590612206565b6b02df0ab5a80a22c61ab5a7007fffffffffffffffffffffffffffffffffffffffffffffffa9438a1d29cf000000849201920205906121f4565b6e01855144814a7ff805980ff008400091507fffffffffffffffffffffffffffffffffffffffffffffff5287143a539e000000016121e2565b6803782dace9d900000081126124e5577ffffffffffffffffffffffffffffffffffffffffffffffffc87d25316270000000168056bc75e2d63100000826b1425982cf597cd205cef7380926121cd565b68056bc75e2d63100000826001926121cd565b600192505f0390506064612171565b7fd4794efd000000000000000000000000000000000000000000000000000000005f5260045ffd5b5068070c1cc73b00c80000821315612162565b7fa2f9f7e3000000000000000000000000000000000000000000000000000000005f5260045ffd5b5068070c1cc73b00c80000821315612152565b6706f05b59d3b2000081670de0b6b3a7640000925f918481126128d3575b506064905f7e1600ef3172e58d2e933ec884fde10064c63b5372d805e203c00000000000008212156128a8575b73011798004d755d3c8bc8e03204cf44619e000000821215612887575b820290808302906e01855144814a7ff805980ff00840009081831215612864575b50506b02df0ab5a80a22c61ab5a70080821215612844575b50693f1fce3da636ea5cf85080821215612824575b50690127fa27722cc06cc5e280821215612804575b5068280e60114edb805d03808212156127e4575b50680ebc5fb41746121110808212156127cd575b506808f00f760a4b2db55d808212156127ad575b506806f5f17757889379378082121561278d575b506806248f33704b2866038082121561276e575b506805c548670b9510e7ac8082121561274f575b506126fc68056bc75e2d6310000091827ffffffffffffffffffffffffffffffffffffffffffffffffa9438a1d29cf00000818301920102612031565b9080828002059181838202058284820205916003600560076009600b888a89020598808b8b02059a8b0205059805960594059205010101010160011b0105905f1461274a575f035b02612126565b612744565b68056bc75e2d631000006756bc75e2d63100009202059101905f6126c0565b68056bc75e2d6310000067ad78ebc5ac6200009202059101905f6126ac565b68056bc75e2d6310000068015af1d78b58c400009202059101905f612698565b68056bc75e2d631000006802b5e3af16b18800009202059101905f612684565b68056bc75e2d63100000809202059101905f612670565b68056bc75e2d63100000680ad78ebc5ac62000009202059101905f61265c565b68056bc75e2d631000006815af1d78b58c4000009202059101905f612648565b68056bc75e2d63100000682b5e3af16b188000009202059101905f612633565b68056bc75e2d631000006856bc75e2d6310000009202059101905f61261e565b68ad78ebc5ac62000000925069021e19e0c9bab240000002059101905f80612606565b906b1425982cf597cd205cef73806803782dace9d9000000910591016125e5565b50770195e54c5dd42177f53a27172fa9ec63026282700000000090056806f05b59d3b20000006125c8565b90506128df9150611cff565b600190606461259b565b50670f43fc2c04ee0000811261205a565b7f022701e0000000000000000000000000000000000000000000000000000000005f5260045ffd5b505f9056fea2646970667358221220994f517fc3847d16e007aa7fbfd64e33800999ec3937f421e9e9c06cb833191764736f6c634300081b0033a2646970667358221220eb67b20ffe82a9a9628caea5832551a7b422ea539eb5a137a7eeeec4582f8db664736f6c634300081b0033",
  "linkReferences": {},
  "deployedLinkReferences": {}
}