{
  "_format": "hh-sol-artifact-1",
  "contractName": "BalancerFeeBurner",
  "sourceName": "contracts/BalancerFeeBurner.sol",
  "abi": [
    {
      "inputs": [
        {
          "internalType": "contract IVault",
          "name": "vault",
          "type": "address"
        },
        {
          "internalType": "contract IProtocolFeeSweeper",
          "name": "_protocolFeeSweeper",
          "type": "address"
        },
        {
          "internalType": "address",
          "name": "initialOwner",
          "type": "address"
        }
      ],
      "stateMutability": "nonpayable",
      "type": "constructor"
    },
    {
      "inputs": [
        {
          "internalType": "contract IERC20",
          "name": "tokenOut",
          "type": "address"
        },
        {
          "internalType": "uint256",
          "name": "amountOut",
          "type": "uint256"
        },
        {
          "internalType": "uint256",
          "name": "minAmountOut",
          "type": "uint256"
        }
      ],
      "name": "AmountOutBelowMin",
      "type": "error"
    },
    {
      "inputs": [
        {
          "internalType": "address",
          "name": "wrappedToken",
          "type": "address"
        }
      ],
      "name": "BufferNotInitialized",
      "type": "error"
    },
    {
      "inputs": [],
      "name": "BurnPathDoesNotExist",
      "type": "error"
    },
    {
      "inputs": [
        {
          "internalType": "contract IERC20",
          "name": "tokenOut",
          "type": "address"
        },
        {
          "internalType": "uint256",
          "name": "step",
          "type": "uint256"
        }
      ],
      "name": "InvalidBufferTokenOut",
      "type": "error"
    },
    {
      "inputs": [],
      "name": "InvalidProtocolFeeSweeper",
      "type": "error"
    },
    {
      "inputs": [
        {
          "internalType": "address",
          "name": "owner",
          "type": "address"
        }
      ],
      "name": "OwnableInvalidOwner",
      "type": "error"
    },
    {
      "inputs": [
        {
          "internalType": "address",
          "name": "account",
          "type": "address"
        }
      ],
      "name": "OwnableUnauthorizedAccount",
      "type": "error"
    },
    {
      "inputs": [],
      "name": "ReentrancyGuardReentrantCall",
      "type": "error"
    },
    {
      "inputs": [
        {
          "internalType": "address",
          "name": "token",
          "type": "address"
        }
      ],
      "name": "SafeERC20FailedOperation",
      "type": "error"
    },
    {
      "inputs": [
        {
          "internalType": "address",
          "name": "sender",
          "type": "address"
        }
      ],
      "name": "SenderIsNotVault",
      "type": "error"
    },
    {
      "inputs": [],
      "name": "SenderNotAllowed",
      "type": "error"
    },
    {
      "inputs": [],
      "name": "SwapDeadline",
      "type": "error"
    },
    {
      "inputs": [],
      "name": "TargetTokenOutMismatch",
      "type": "error"
    },
    {
      "inputs": [
        {
          "internalType": "contract IERC20",
          "name": "token",
          "type": "address"
        },
        {
          "internalType": "uint256",
          "name": "step",
          "type": "uint256"
        }
      ],
      "name": "TokenDoesNotExistInPool",
      "type": "error"
    },
    {
      "anonymous": false,
      "inputs": [
        {
          "indexed": true,
          "internalType": "address",
          "name": "previousOwner",
          "type": "address"
        },
        {
          "indexed": true,
          "internalType": "address",
          "name": "newOwner",
          "type": "address"
        }
      ],
      "name": "OwnershipTransferStarted",
      "type": "event"
    },
    {
      "anonymous": false,
      "inputs": [
        {
          "indexed": true,
          "internalType": "address",
          "name": "previousOwner",
          "type": "address"
        },
        {
          "indexed": true,
          "internalType": "address",
          "name": "newOwner",
          "type": "address"
        }
      ],
      "name": "OwnershipTransferred",
      "type": "event"
    },
    {
      "anonymous": false,
      "inputs": [
        {
          "indexed": true,
          "internalType": "address",
          "name": "pool",
          "type": "address"
        },
        {
          "indexed": true,
          "internalType": "contract IERC20",
          "name": "feeToken",
          "type": "address"
        },
        {
          "indexed": false,
          "internalType": "uint256",
          "name": "exactFeeTokenAmountIn",
          "type": "uint256"
        },
        {
          "indexed": true,
          "internalType": "contract IERC20",
          "name": "targetToken",
          "type": "address"
        },
        {
          "indexed": false,
          "internalType": "uint256",
          "name": "actualTargetTokenAmountOut",
          "type": "uint256"
        },
        {
          "indexed": false,
          "internalType": "address",
          "name": "recipient",
          "type": "address"
        }
      ],
      "name": "ProtocolFeeBurned",
      "type": "event"
    },
    {
      "inputs": [],
      "name": "acceptOwnership",
      "outputs": [],
      "stateMutability": "nonpayable",
      "type": "function"
    },
    {
      "inputs": [
        {
          "internalType": "address",
          "name": "pool",
          "type": "address"
        },
        {
          "internalType": "contract IERC20",
          "name": "feeToken",
          "type": "address"
        },
        {
          "internalType": "uint256",
          "name": "feeTokenAmount",
          "type": "uint256"
        },
        {
          "internalType": "contract IERC20",
          "name": "targetToken",
          "type": "address"
        },
        {
          "internalType": "uint256",
          "name": "minAmountOut",
          "type": "uint256"
        },
        {
          "internalType": "address",
          "name": "recipient",
          "type": "address"
        },
        {
          "internalType": "uint256",
          "name": "deadline",
          "type": "uint256"
        }
      ],
      "name": "burn",
      "outputs": [],
      "stateMutability": "nonpayable",
      "type": "function"
    },
    {
      "inputs": [
        {
          "components": [
            {
              "internalType": "address",
              "name": "pool",
              "type": "address"
            },
            {
              "internalType": "address",
              "name": "sender",
              "type": "address"
            },
            {
              "internalType": "contract IERC20",
              "name": "feeToken",
              "type": "address"
            },
            {
              "internalType": "uint256",
              "name": "feeTokenAmount",
              "type": "uint256"
            },
            {
              "internalType": "contract IERC20",
              "name": "targetToken",
              "type": "address"
            },
            {
              "internalType": "uint256",
              "name": "minAmountOut",
              "type": "uint256"
            },
            {
              "internalType": "address",
              "name": "recipient",
              "type": "address"
            },
            {
              "internalType": "uint256",
              "name": "deadline",
              "type": "uint256"
            }
          ],
          "internalType": "struct IBalancerFeeBurner.BurnHookParams",
          "name": "params",
          "type": "tuple"
        }
      ],
      "name": "burnHook",
      "outputs": [],
      "stateMutability": "nonpayable",
      "type": "function"
    },
    {
      "inputs": [
        {
          "internalType": "contract IERC20",
          "name": "feeToken",
          "type": "address"
        }
      ],
      "name": "getBurnPath",
      "outputs": [
        {
          "components": [
            {
              "internalType": "address",
              "name": "pool",
              "type": "address"
            },
            {
              "internalType": "contract IERC20",
              "name": "tokenOut",
              "type": "address"
            },
            {
              "internalType": "bool",
              "name": "isBuffer",
              "type": "bool"
            }
          ],
          "internalType": "struct SwapPathStep[]",
          "name": "steps",
          "type": "tuple[]"
        }
      ],
      "stateMutability": "view",
      "type": "function"
    },
    {
      "inputs": [],
      "name": "owner",
      "outputs": [
        {
          "internalType": "address",
          "name": "",
          "type": "address"
        }
      ],
      "stateMutability": "view",
      "type": "function"
    },
    {
      "inputs": [],
      "name": "pendingOwner",
      "outputs": [
        {
          "internalType": "address",
          "name": "",
          "type": "address"
        }
      ],
      "stateMutability": "view",
      "type": "function"
    },
    {
      "inputs": [],
      "name": "protocolFeeSweeper",
      "outputs": [
        {
          "internalType": "contract IProtocolFeeSweeper",
          "name": "",
          "type": "address"
        }
      ],
      "stateMutability": "view",
      "type": "function"
    },
    {
      "inputs": [],
      "name": "renounceOwnership",
      "outputs": [],
      "stateMutability": "nonpayable",
      "type": "function"
    },
    {
      "inputs": [
        {
          "internalType": "contract IERC20",
          "name": "feeToken",
          "type": "address"
        },
        {
          "components": [
            {
              "internalType": "address",
              "name": "pool",
              "type": "address"
            },
            {
              "internalType": "contract IERC20",
              "name": "tokenOut",
              "type": "address"
            },
            {
              "internalType": "bool",
              "name": "isBuffer",
              "type": "bool"
            }
          ],
          "internalType": "struct SwapPathStep[]",
          "name": "steps",
          "type": "tuple[]"
        }
      ],
      "name": "setBurnPath",
      "outputs": [],
      "stateMutability": "nonpayable",
      "type": "function"
    },
    {
      "inputs": [
        {
          "internalType": "address",
          "name": "newOwner",
          "type": "address"
        }
      ],
      "name": "transferOwnership",
      "outputs": [],
      "stateMutability": "nonpayable",
      "type": "function"
    }
  ],
  "bytecode": "0x60c03461015357601f611a3338819003918201601f19168301916001600160401b03831184841017610157578084926060946040528339810103126101535780516001600160a01b0391828216820361015357602081015191838316918284036101535760400151908482168092036101535760805280156101405760018060a01b0319938460015416600155815f54958616175f5560405194167f8be0079c531659141344cd1fd0a4f28419497f9722a3daafe3b4186f6b6457e05f80a3156101315760a0526118c7908161016c82396080518181816102f601528181610493015281816105b701528181610687015281816107e3015281816109bc01528181610a3e01528181610ab701528181610f180152611211015260a05181818161018601528181610de801526115b30152f35b63932c92a560e01b5f5260045ffd5b631e4fbdf760e01b5f525f60045260245ffd5b5f80fd5b634e487b7160e01b5f52604160045260245ffdfe6080806040526004361015610012575f80fd5b5f905f3560e01c908163178ac96e1461159657508063715018a61461151e57806379ba5097146114745780638da5cb5b1461144f578063a1a8984214610d56578063c1cfb02a14610cd6578063c66472de1461042c578063de557a3214610137578063e30c3978146101105763f2fde38b1461008c575f80fd5b3461010d57602060031936011261010d576100a56115d7565b6100ad611778565b6001600160a01b0380911690817fffffffffffffffffffffffff000000000000000000000000000000000000000060015416176001558254167f38d16b8cac22d99fc7c124b9cd0de2d3fa1faef420bfe791d8c362d765e227008380a380f35b80fd5b503461010d578060031936011261010d5760206001600160a01b0360015416604051908152f35b503461010d5760e060031936011261010d576101516115d7565b6024356001600160a01b039182821680920361042857606435928084168094036104285760a4359381851680950361042857817f0000000000000000000000000000000000000000000000000000000000000000163303610400576040519261010084019567ffffffffffffffff96858110888211176103c45784928391604052168552602095828787019433865260408801928352606088016044358152608089019182528260a08a0194608435865260c08b019687528160e08c019960c4358b528d826040519e8f9283017fc66472de00000000000000000000000000000000000000000000000000000000905251169060240152511660448c0152511660648a0152516084890152511660a48701525160c4860152511660e484015251610104908184015282526101409182810191818310868411176103c457828791816040527f48c894910000000000000000000000000000000000000000000000000000000082528661014485015281837ffffffffffffffffffffffffffffffffffffffffffffffffffffffffffffffec0866102f1610164820182611735565b0301927f0000000000000000000000000000000000000000000000000000000000000000165af180156103f557610326578580f35b3d8087843e610335818461161d565b81019184828585019403126103f15751908582116103f15701918161015f840112156103c057820151916101609483116103c4578594604051926103a0867fffffffffffffffffffffffffffffffffffffffffffffffffffffffffffffffe0601f880116018561161d565b8484528185840101116103c0578391018483015e0101525f808080808580f35b8580fd5b7f4e487b71000000000000000000000000000000000000000000000000000000005f52604160045260245ffd5b8680fd5b6040513d88823e3d90fd5b6004867f23dada53000000000000000000000000000000000000000000000000000000008152fd5b5f80fd5b503461042857610100600319360112610428577f9b779b17422d0df92223018b32b4d1fa46e071723d6817e2486d003becc55f005c610cae5760017f9b779b17422d0df92223018b32b4d1fa46e071723d6817e2486d003becc55f005d6001600160a01b037f0000000000000000000000000000000000000000000000000000000000000000163303610c825760e4354211610c5a576001600160a01b036044351660443503610428576084356001600160a01b0381168103610428576104f46044356117ca565b91825190817fffffffffffffffffffffffffffffffffffffffffffffffffffffffffffffffff810111610c2d576001600160a01b0383166001600160a01b0360206105617fffffffffffffffffffffffffffffffffffffffffffffffffffffffffffffffff8601886116cf565b5101511603610c05576024356001600160a01b03811680910361042857604051907f23b872dd00000000000000000000000000000000000000000000000000000000602083015260248201526001600160a01b037f00000000000000000000000000000000000000000000000000000000000000001660448201526064356064820152606481528060a081011067ffffffffffffffff60a0830111176103c4575f8160a0602093016040528281519101826044355af115610862575f513d610bfc57506001600160a01b03604435163b155b610bc5576040517f15afd4090000000000000000000000000000000000000000000000000000000081526001600160a01b0360443516600482015260643560248201526020816044815f6001600160a01b037f0000000000000000000000000000000000000000000000000000000000000000165af1801561086257610b96575b50606435935f916044355b8251841015610a29576106d284846116cf565b51967fffffffffffffffffffffffffffffffffffffffffffffffffffffffffffffffff86018503610a225760a435905b604089015115610873576001600160a01b03808a5116931683145f1461086d5760015b604051938460a081011067ffffffffffffffff60a0870111176103c4576001600160a01b039160a086016040525f86526020860190610763816116e3565b8152604086019182526060860193845260808601948552604051957f43583be5000000000000000000000000000000000000000000000000000000008752516107ab816116e3565b6004870152516107ba816116e3565b60248601525116604484015251606483015251608482015260608160a4815f6001600160a01b037f0000000000000000000000000000000000000000000000000000000000000000165af180156108625760206001600160a01b03916001935f91610830575b50985b01511696930192956106bf565b610852915060603d60601161085b575b61084a818361161d565b81019061171a565b9150505f610820565b503d610840565b6040513d5f823e3d90fd5b5f610725565b90916001600160a01b03895116916001600160a01b0360208b015116936040519081602081011067ffffffffffffffff6020840111176103c457602082016040525f8252604051928360e081011067ffffffffffffffff60e0860111176103c4576109af966001600160a01b0360c09660609860e088016040525f8852602088015216604086015286850152608084015260a08301528282015260405193849283927f2bfb780c00000000000000000000000000000000000000000000000000000000845260206004850152805161094a816116e3565b60248501526001600160a01b0360208201511660448501526001600160a01b0360408201511660648501526001600160a01b0386820151166084850152608081015160a485015260a081015160c4850152015160e060e4840152610104830190611735565b03815f6001600160a01b037f0000000000000000000000000000000000000000000000000000000000000000165af180156108625760206001600160a01b03916001935f91610a00575b5098610823565b610a19915060603d60601161085b5761084a818361161d565b9150505f6109f9565b5f90610702565b868691610a346116a5565b6001600160a01b037f0000000000000000000000000000000000000000000000000000000000000000163b15610428576001600160a01b039081604051937fae6393290000000000000000000000000000000000000000000000000000000085521660048401521660248201528160448201525f81606481836001600160a01b037f0000000000000000000000000000000000000000000000000000000000000000165af1801561086257610b79575b50600435916001600160a01b038316809303610428576001600160a01b039081610b0c6116a5565b604051946064358652602086015216604084015216917f77a7b034dbb42c9087518e95b49c02a17704a521555779f3f9d7f1b26df5ce8d60606001600160a01b036044351693a4807f9b779b17422d0df92223018b32b4d1fa46e071723d6817e2486d003becc55f005d80f35b90925067ffffffffffffffff81116103c4576040525f9183610ae4565b6020813d602011610bbd575b81610baf6020938361161d565b8101031261042857516106b4565b3d9150610ba2565b7f5274afe7000000000000000000000000000000000000000000000000000000005f526001600160a01b036044351660045260245ffd5b60011415610633565b7fa682e903000000000000000000000000000000000000000000000000000000005f5260045ffd5b7f4e487b71000000000000000000000000000000000000000000000000000000005f52601160045260245ffd5b7fe08b8af0000000000000000000000000000000000000000000000000000000005f5260045ffd5b7f089676d5000000000000000000000000000000000000000000000000000000005f523360045260245ffd5b7f3ee5aeb5000000000000000000000000000000000000000000000000000000005f5260045ffd5b346104285760208060031936011261042857610cf8610cf36115d7565b6117ca565b60405190828201838352815180915283604084019201935f5b828110610d1e5784840385f35b855180516001600160a01b03908116865281840151168584015260409081015115159085015294810194606090930192600101610d11565b3461042857604060031936011261042857610d6f6115d7565b60243567ffffffffffffffff811161042857366023820112156104285767ffffffffffffffff81600401351161042857366024606083600401350283010111610428576040517f4ccb20c00000000000000000000000000000000000000000000000000000000081526020816004816001600160a01b037f0000000000000000000000000000000000000000000000000000000000000000165afa8015610862576001600160a01b03915f91611430575b50163314158061141c575b6113f4576001600160a01b0382165f52600260205260405f208054905f81558161139d575b505090805f925b80600401358410610e6457005b610e768482600401356024840161167d565b926060843603126104285760405193610e8e85611601565b610e97816115ed565b90818652610ea7602082016115ed565b60208701526040810135801515900361042857604090810135908601819052156111c857506001600160a01b0380855116911681146040517f4afbaf5a0000000000000000000000000000000000000000000000000000000081528260048201526020816024816001600160a01b037f0000000000000000000000000000000000000000000000000000000000000000165afa8015610862576001600160a01b03915f91611199575b501680156111635781908161114b575b5015610fa357856001600160a01b036020870151167fdfb5ac9f000000000000000000000000000000000000000000000000000000005f5260045260245260445ffd5b9493919294159081611133575b506110f65760206001600160a01b03915b015116916001600160a01b0384165f52600260205260405f2090610fed8184600401356024860161167d565b918054680100000000000000008110156103c4576001918282018082558210156110c9575f5260205f2090821b016001600160a01b0361102c856116bb565b167fffffffffffffffffffffffff0000000000000000000000000000000000000000825416178155016001600160a01b03611069602085016116bb565b16926040825491013593841515809503610428577fffffffffffffffffffffff00000000000000000000000000000000000000000074ff000000000000000000000000000000000000000060019660a01b16921617179055019290610e57565b7f4e487b71000000000000000000000000000000000000000000000000000000005f52603260045260245ffd5b6001600160a01b03602084920151167fdfb5ac9f000000000000000000000000000000000000000000000000000000005f5260045260245260445ffd5b90506001600160a01b03602083015116141585610fb0565b90506001600160a01b03602087015116141587610f60565b6001600160a01b038651167f85f41299000000000000000000000000000000000000000000000000000000005f5260045260245ffd5b6111bb915060203d6020116111c1575b6111b3818361161d565b81019061165e565b88610f50565b503d6111a9565b6001600160a01b036040969592949651917fca4f28030000000000000000000000000000000000000000000000000000000083521660048201525f816024816001600160a01b037f0000000000000000000000000000000000000000000000000000000000000000165afa908115610862575f916112f5575b5061124c818561178b565b61128957846001600160a01b03857fd8677ab1000000000000000000000000000000000000000000000000000000005f521660045260245260445ffd5b819293506001600160a01b0360206112a39301511661178b565b156112b85760206001600160a01b0391610fc1565b6001600160a01b03602084920151167fd8677ab1000000000000000000000000000000000000000000000000000000005f5260045260245260445ffd5b90503d805f833e611306818361161d565b8101906020818303126104285780519067ffffffffffffffff821161042857019080601f830112156104285781519061133e8261168d565b9261134c604051948561161d565b82845260208085019360051b82010191821161042857602001915b8183106113775750505086611241565b82989598516001600160a01b038116810361042857815294979460209283019201611367565b6001907f7fffffffffffffffffffffffffffffffffffffffffffffffffffffffffffffff83168303610c2d575f5260205f209160011b8201915b8281106113e45750610e50565b5f808255828201556002016113d7565b7f23dada53000000000000000000000000000000000000000000000000000000005f5260045ffd5b506001600160a01b035f5416331415610e2b565b611449915060203d6020116111c1576111b3818361161d565b84610e20565b34610428575f6003193601126104285760206001600160a01b035f5416604051908152f35b34610428575f600319360112610428576001546001600160a01b0333818316036114f2577fffffffffffffffffffffffff00000000000000000000000000000000000000008092166001555f549133908316175f553391167f8be0079c531659141344cd1fd0a4f28419497f9722a3daafe3b4186f6b6457e05f80a3005b7f118cdaa7000000000000000000000000000000000000000000000000000000005f523360045260245ffd5b34610428575f60031936011261042857611536611778565b5f6001600160a01b037fffffffffffffffffffffffff0000000000000000000000000000000000000000806001541660015582549081168355167f8be0079c531659141344cd1fd0a4f28419497f9722a3daafe3b4186f6b6457e08280a3005b34610428575f600319360112610428576020906001600160a01b037f0000000000000000000000000000000000000000000000000000000000000000168152f35b600435906001600160a01b038216820361042857565b35906001600160a01b038216820361042857565b6060810190811067ffffffffffffffff8211176103c457604052565b90601f7fffffffffffffffffffffffffffffffffffffffffffffffffffffffffffffffe0910116810190811067ffffffffffffffff8211176103c457604052565b9081602091031261042857516001600160a01b03811681036104285790565b91908110156110c9576060020190565b67ffffffffffffffff81116103c45760051b60200190565b60c4356001600160a01b03811681036104285790565b356001600160a01b03811681036104285790565b80518210156110c95760209160051b010190565b600211156116ed57565b7f4e487b71000000000000000000000000000000000000000000000000000000005f52602160045260245ffd5b90816060910312610428578051916040602083015192015190565b907fffffffffffffffffffffffffffffffffffffffffffffffffffffffffffffffe0601f602080948051918291828752018686015e5f8582860101520116010190565b6001600160a01b035f541633036114f257565b5f5b82518110156117c3576001600160a01b03806117a983866116cf565b5116908316146117bb5760010161178d565b505050600190565b5050505f90565b906001600160a01b038092165f526002602090600260205260409160405f20908154936117f68561168d565b96611804604051988961161d565b85885260208801935f5260205f20915f945b87861061185657505050505050505081511561182e57565b7ff9aa0315000000000000000000000000000000000000000000000000000000005f5260045ffd5b8685600192845161186681611601565b86885416815260ff858901548881168584015260a01c1615158682015281520194019501949261181656fea264697066735822122030e991134cfd582a912d3c94d7859f16a80eb839964233513374d902e9ea476b64736f6c634300081b0033",
  "linkReferences": {},
  "deployedLinkReferences": {}
}