{
  "_format": "hh-sol-artifact-1",
  "contractName": "HyperEVMRateProviderFactory",
  "sourceName": "contracts/HyperEVMRateProviderFactory.sol",
  "abi": [
    {
      "inputs": [
        {
          "internalType": "contract IVault",
          "name": "vault",
          "type": "address"
        },
        {
          "internalType": "string",
          "name": "factoryVersion",
          "type": "string"
        },
        {
          "internalType": "uint256",
          "name": "rateProviderVersion",
          "type": "uint256"
        }
      ],
      "stateMutability": "nonpayable",
      "type": "constructor"
    },
    {
      "inputs": [
        {
          "internalType": "uint32",
          "name": "tokenIndex",
          "type": "uint32"
        },
        {
          "internalType": "uint32",
          "name": "pairIndex",
          "type": "uint32"
        },
        {
          "internalType": "address",
          "name": "rateProvider",
          "type": "address"
        }
      ],
      "name": "RateProviderAlreadyExists",
      "type": "error"
    },
    {
      "inputs": [],
      "name": "RateProviderFactoryIsDisabled",
      "type": "error"
    },
    {
      "inputs": [
        {
          "internalType": "uint32",
          "name": "tokenIndex",
          "type": "uint32"
        },
        {
          "internalType": "uint32",
          "name": "pairIndex",
          "type": "uint32"
        }
      ],
      "name": "RateProviderNotFound",
      "type": "error"
    },
    {
      "inputs": [],
      "name": "SenderNotAllowed",
      "type": "error"
    },
    {
      "inputs": [],
      "name": "VaultNotSet",
      "type": "error"
    },
    {
      "anonymous": false,
      "inputs": [
        {
          "indexed": true,
          "internalType": "uint256",
          "name": "tokenIndex",
          "type": "uint256"
        },
        {
          "indexed": true,
          "internalType": "uint256",
          "name": "pairIndex",
          "type": "uint256"
        },
        {
          "indexed": true,
          "internalType": "address",
          "name": "rateProvider",
          "type": "address"
        }
      ],
      "name": "RateProviderCreated",
      "type": "event"
    },
    {
      "anonymous": false,
      "inputs": [],
      "name": "RateProviderFactoryDisabled",
      "type": "event"
    },
    {
      "inputs": [
        {
          "internalType": "uint32",
          "name": "tokenIndex",
          "type": "uint32"
        },
        {
          "internalType": "uint32",
          "name": "pairIndex",
          "type": "uint32"
        }
      ],
      "name": "create",
      "outputs": [
        {
          "internalType": "contract IHyperEVMRateProvider",
          "name": "rateProvider",
          "type": "address"
        }
      ],
      "stateMutability": "nonpayable",
      "type": "function"
    },
    {
      "inputs": [],
      "name": "disable",
      "outputs": [],
      "stateMutability": "nonpayable",
      "type": "function"
    },
    {
      "inputs": [
        {
          "internalType": "bytes4",
          "name": "selector",
          "type": "bytes4"
        }
      ],
      "name": "getActionId",
      "outputs": [
        {
          "internalType": "bytes32",
          "name": "",
          "type": "bytes32"
        }
      ],
      "stateMutability": "view",
      "type": "function"
    },
    {
      "inputs": [],
      "name": "getAuthorizer",
      "outputs": [
        {
          "internalType": "contract IAuthorizer",
          "name": "",
          "type": "address"
        }
      ],
      "stateMutability": "view",
      "type": "function"
    },
    {
      "inputs": [
        {
          "internalType": "uint32",
          "name": "tokenIndex",
          "type": "uint32"
        },
        {
          "internalType": "uint32",
          "name": "pairIndex",
          "type": "uint32"
        }
      ],
      "name": "getRateProvider",
      "outputs": [
        {
          "internalType": "contract IHyperEVMRateProvider",
          "name": "rateProvider",
          "type": "address"
        }
      ],
      "stateMutability": "view",
      "type": "function"
    },
    {
      "inputs": [],
      "name": "getRateProviderVersion",
      "outputs": [
        {
          "internalType": "uint256",
          "name": "",
          "type": "uint256"
        }
      ],
      "stateMutability": "view",
      "type": "function"
    },
    {
      "inputs": [],
      "name": "getVault",
      "outputs": [
        {
          "internalType": "contract IVault",
          "name": "",
          "type": "address"
        }
      ],
      "stateMutability": "view",
      "type": "function"
    },
    {
      "inputs": [
        {
          "internalType": "contract IHyperEVMRateProvider",
          "name": "rateProvider",
          "type": "address"
        }
      ],
      "name": "isRateProviderFromFactory",
      "outputs": [
        {
          "internalType": "bool",
          "name": "",
          "type": "bool"
        }
      ],
      "stateMutability": "view",
      "type": "function"
    },
    {
      "inputs": [],
      "name": "version",
      "outputs": [
        {
          "internalType": "string",
          "name": "",
          "type": "string"
        }
      ],
      "stateMutability": "view",
      "type": "function"
    }
  ],
  "bytecode": "0x60e060405234610234576113878038038061001981610238565b9283398101906060818303126102345780516001600160a01b0381169290838103610234576020838101516001600160401b03939192919084811161023457850191601f928284820112156102345780519686881161021157601f19976100858682018a168801610238565b948186528782850101116102345786815f9282604096018389015e8601015201519630608052156102255760a0528051938411610211575f54926001938481811c91168015610207575b828210146101f3578381116101b0575b50809285116001146101505750839450908392915f94610145575b50501b915f199060031b1c1916175f555b60c052604051611129908161025e823960805181610924015260a05181818160d70152818161021301526106a7015260c051816106010152f35b015192505f806100fa565b9294849081165f8052845f20945f905b88838310610196575050501061017e575b505050811b015f5561010b565b01515f1960f88460031b161c191690555f8080610171565b858701518855909601959485019487935090810190610160565b5f8052815f208480880160051c8201928489106101ea575b0160051c019085905b8281106101df5750506100df565b5f81550185906101d1565b925081926101c8565b634e487b7160e01b5f52602260045260245ffd5b90607f16906100cf565b634e487b7160e01b5f52604160045260245ffd5b630647140b60e51b5f5260045ffd5b5f80fd5b6040519190601f01601f191682016001600160401b038111838210176102115760405256fe608060409080825260049081361015610016575f80fd5b5f358060e01c91826319912f711461081c575081632f2770db1461062457508063381c7a4f146105ea57806354fd4d501461043b578063568acb7914610286578063851c1bb3146102375780638d928af8146101e757806399b8113f146101505763aaabadc514610085575f80fd5b3461014c575f60031936011261014c5773ffffffffffffffffffffffffffffffffffffffff6020835180937faaabadc500000000000000000000000000000000000000000000000000000000825281847f0000000000000000000000000000000000000000000000000000000000000000165afa91821561014257926020935f93610113575b505191168152f35b610134919350843d861161013b575b61012c818361088b565b81019061096f565b915f61010b565b503d610122565b83513d5f823e3d90fd5b5f80fd5b503461014c578160031936011261014c57610169610865565b91610172610878565b61017c81856109cf565b5f52600260205273ffffffffffffffffffffffffffffffffffffffff825f2054169283156101ae576020848451908152f35b8492507fdc120e77000000000000000000000000000000000000000000000000000000005f5263ffffffff80931690521660245260445ffd5b823461014c575f60031936011261014c576020905173ffffffffffffffffffffffffffffffffffffffff7f0000000000000000000000000000000000000000000000000000000000000000168152f35b503461014c57602060031936011261014c5735907fffffffff000000000000000000000000000000000000000000000000000000008216820361014c5761027f6020926108f9565b9051908152f35b50903461014c578060031936011261014c576102a0610865565b906102a9610878565b916102b261099b565b6102bc83826109cf565b90815f52600260205273ffffffffffffffffffffffffffffffffffffffff9485845f205416806103ff57508351906106f68083019183831067ffffffffffffffff8411176103d3575086848493610329936109fe863963ffffffff91821681529116602082015260400190565b03905ff094851561014257602095169283925f5260028652805f20837fffffffffffffffffffffffff0000000000000000000000000000000000000000825416179055825f5260038652805f2060017fffffffffffffffffffffffffffffffffffffffffffffffffffffffffffffff0082541617905563ffffffff809151951691167fd2dc19a986df7300887ed27436ca60160b58dcbcc7a657427d35cbf60154ba025f80a48152f35b6041907f4e487b71000000000000000000000000000000000000000000000000000000005f525260245ffd5b8286837ff4c64ee1000000000000000000000000000000000000000000000000000000005f5263ffffffff80931690521660245260445260645ffd5b50903461014c575f60031936011261014c5780515f5f549060018260011c90600184169384156105e0575b60209788841086146105b457509187918694938286528386019690815f1461055c57506001146104e8575b505050916104c4601f927fffffffffffffffffffffffffffffffffffffffffffffffffffffffffffffffe094038561088b565b845195869481865251918280928701528686015e5f85828601015201168101030190f35b5f8080529293507f290decd9548b62a8d60345a988386fc84ba6bc95484008f6362f93160ef3e5635b8284106105465750505082010185827fffffffffffffffffffffffffffffffffffffffffffffffffffffffffffffffe0610491565b8054888501860152879550928401928101610511565b7fffffffffffffffffffffffffffffffffffffffffffffffffffffffffffffff001687525050151560051b830101905085827fffffffffffffffffffffffffffffffffffffffffffffffffffffffffffffffe0610491565b6022907f4e487b71000000000000000000000000000000000000000000000000000000005f525260245ffd5b91607f1691610466565b823461014c575f60031936011261014c57602090517f00000000000000000000000000000000000000000000000000000000000000008152f35b8391503461014c575f60031936011261014c577fffffffff0000000000000000000000000000000000000000000000000000000061066291166108f9565b73ffffffffffffffffffffffffffffffffffffffff9082517faaabadc500000000000000000000000000000000000000000000000000000000815260209182828781877f0000000000000000000000000000000000000000000000000000000000000000165afa91821561081257908392915f926107f0575b50606490865195869384927f9be2a8840000000000000000000000000000000000000000000000000000000084528a840152336024840152306044840152165afa9283156107e757505f926107b0575b50501561078a5761073a61099b565b60017fffffffffffffffffffffffffffffffffffffffffffffffffffffffffffffff00815416176001557f1e8641758c70961d246979e3c073388b65a37bad9cc604ec5511e7200e7d144b5f80a1005b7f23dada53000000000000000000000000000000000000000000000000000000005f525ffd5b90809250813d83116107e0575b6107c7818361088b565b8101031261014c5751801515810361014c57828061072b565b503d6107bd565b513d5f823e3d90fd5b606491925061080b90843d861161013b5761012c818361088b565b91906106db565b85513d5f823e3d90fd5b8490843461014c57602060031936011261014c573573ffffffffffffffffffffffffffffffffffffffff811680910361014c5760209260ff915f52600384525f20541615158152f35b6004359063ffffffff8216820361014c57565b6024359063ffffffff8216820361014c57565b90601f7fffffffffffffffffffffffffffffffffffffffffffffffffffffffffffffffe0910116810190811067ffffffffffffffff8211176108cc57604052565b7f4e487b71000000000000000000000000000000000000000000000000000000005f52604160045260245ffd5b6040517fffffffff0000000000000000000000000000000000000000000000000000000060208201927f00000000000000000000000000000000000000000000000000000000000000008452166040820152602481526060810181811067ffffffffffffffff8211176108cc5760405251902090565b9081602091031261014c575173ffffffffffffffffffffffffffffffffffffffff8116810361014c5790565b60ff600154166109a757565b7f42fb89b8000000000000000000000000000000000000000000000000000000005f5260045ffd5b6040805163ffffffff92831660208201908152939092168282015281526109f760608261088b565b5190209056fe60e06040908082523461028a5781816106f6803803809161002082856102d1565b83398101031261028a57610033816102f4565b9061004160208092016102f4565b908351908082019163ffffffff8516835281815285810160018060401b0393828210858311176102a6575f9283928952519061080c5afa913d156102c9573d9261008a84610305565b93610097885195866102d1565b84523d5f8486013e5b156102ba57825183019082820193838184031261028a57838101519082821161028a5701928392610100938491031261028a57875194838601868110848211176102a65789528185015183811161028a57850181603f8201121561028a578281015161010b81610305565b916101188c5193846102d1565b818352838c838301011161028a57815f928d8793018386015e8301015286528885015183811161028a57850181603f8201121561028a57828101519384116102a6578360051b908a519461016e858401876102d1565b85528a8486019282010192831161028a578a849101915b83831061028e575050505084015261019f60608301610320565b868401526101af60808301610334565b60608401526101c060a08301610334565b60808401526101d160c08301610348565b918260a08501526101e460e08201610348565b60c08501520151805f0b810361028a5760e060ff9301521660080360ff81116102765760ff16604d811161027657600a0a801561026257670de0b6b3a76400000460805260a05260c0525161039f9081610357823960805181818160800152610202015260a05181818160e10152610145015260c051816103450152f35b634e487b7160e01b5f52601260045260245ffd5b634e487b7160e01b5f52601160045260245ffd5b5f80fd5b819061029984610320565b8152019101908390610185565b634e487b7160e01b5f52604160045260245ffd5b631870604d60e21b5f5260045ffd5b6060926100a0565b601f909101601f19168101906001600160401b038211908210176102a657604052565b519063ffffffff8216820361028a57565b6001600160401b0381116102a657601f01601f191660200190565b51906001600160401b038216820361028a57565b51906001600160a01b038216820361028a57565b519060ff8216820361028a5756fe6080604090808252600480361015610015575f80fd5b5f3560e01c918263295d3ee81461030d57508163679aefce146101055750806381bfa5d1146100a75763a747d56f1461004c575f80fd5b346100a3575f7ffffffffffffffffffffffffffffffffffffffffffffffffffffffffffffffffc3601126100a357602090517f00000000000000000000000000000000000000000000000000000000000000008152f35b5f80fd5b50346100a3575f7ffffffffffffffffffffffffffffffffffffffffffffffffffffffffffffffffc3601126100a3576020905163ffffffff7f0000000000000000000000000000000000000000000000000000000000000000168152f35b9050346100a3575f7ffffffffffffffffffffffffffffffffffffffffffffffffffffffffffffffffc3601126100a35781519160209283810163ffffffff7f00000000000000000000000000000000000000000000000000000000000000001681528482528282019167ffffffffffffffff92818110848211176102ac578452515f918291906108085afa3d15610304573d8281116102d857835192601f82017fffffffffffffffffffffffffffffffffffffffffffffffffffffffffffffffe0908116603f01168401908111848210176102ac57845282523d5f8684013e5b156102855783818051810103126100a35783015191821561025f577f000000000000000000000000000000000000000000000000000000000000000080840293840403610233575051908152f35b6011907f4e487b71000000000000000000000000000000000000000000000000000000005f525260245ffd5b7f44526c24000000000000000000000000000000000000000000000000000000005f525ffd5b827f79827df5000000000000000000000000000000000000000000000000000000005f525ffd5b6041867f4e487b71000000000000000000000000000000000000000000000000000000005f525260245ffd5b6041857f4e487b71000000000000000000000000000000000000000000000000000000005f525260245ffd5b606091506101e5565b346100a3575f7ffffffffffffffffffffffffffffffffffffffffffffffffffffffffffffffffc3601126100a35760209063ffffffff7f0000000000000000000000000000000000000000000000000000000000000000168152f3fea26469706673582212202408cf674357dec88ca1433641cb21e1a28b854edacb3295ccc92250b82ca41864736f6c634300081b0033a2646970667358221220aa8a7fceeb1c17bb3a1d8defc7d21eaa36f1ddbefd69587f79db9ef4b8b303cc64736f6c634300081b0033",
  "linkReferences": {},
  "deployedLinkReferences": {}
}