{
  "_format": "hh-sol-artifact-1",
  "contractName": "HyperEVMRateProvider",
  "sourceName": "contracts/HyperEVMRateProvider.sol",
  "abi": [
    {
      "inputs": [
        {
          "internalType": "uint32",
          "name": "tokenIndex",
          "type": "uint32"
        },
        {
          "internalType": "uint32",
          "name": "pairIndex",
          "type": "uint32"
        }
      ],
      "stateMutability": "nonpayable",
      "type": "constructor"
    },
    {
      "inputs": [],
      "name": "SpotPricePrecompileFailed",
      "type": "error"
    },
    {
      "inputs": [],
      "name": "TokenInfoPrecompileFailed",
      "type": "error"
    },
    {
      "inputs": [],
      "name": "getPairIndex",
      "outputs": [
        {
          "internalType": "uint32",
          "name": "",
          "type": "uint32"
        }
      ],
      "stateMutability": "view",
      "type": "function"
    },
    {
      "inputs": [],
      "name": "getRate",
      "outputs": [
        {
          "internalType": "uint256",
          "name": "",
          "type": "uint256"
        }
      ],
      "stateMutability": "view",
      "type": "function"
    },
    {
      "inputs": [],
      "name": "getSpotPriceMultiplier",
      "outputs": [
        {
          "internalType": "uint256",
          "name": "",
          "type": "uint256"
        }
      ],
      "stateMutability": "view",
      "type": "function"
    },
    {
      "inputs": [],
      "name": "getTokenIndex",
      "outputs": [
        {
          "internalType": "uint32",
          "name": "",
          "type": "uint32"
        }
      ],
      "stateMutability": "view",
      "type": "function"
    }
  ],
  "bytecode": "0x60e06040908082523461028a5781816106d0803803809161002082856102d1565b83398101031261028a57610033816102f4565b9061004160208092016102f4565b908351908082019163ffffffff8516835281815285810160018060401b0393828210858311176102a6575f9283928952519061080c5afa913d156102c9573d9261008a84610305565b93610097885195866102d1565b84523d5f8486013e5b156102ba57825183019082820193838184031261028a57838101519082821161028a5701928392610100938491031261028a57875194838601868110848211176102a65789528185015183811161028a57850181603f8201121561028a578281015161010b81610305565b916101188c5193846102d1565b818352838c838301011161028a57815f928d8793018386015e8301015286528885015183811161028a57850181603f8201121561028a57828101519384116102a6578360051b908a519461016e858401876102d1565b85528a8486019282010192831161028a578a849101915b83831061028e575050505084015261019f60608301610320565b868401526101af60808301610334565b60608401526101c060a08301610334565b60808401526101d160c08301610348565b918260a08501526101e460e08201610348565b60c08501520151805f0b810361028a5760e060ff9301521660080360ff81116102765760ff16604d811161027657600a0a801561026257670de0b6b3a76400000460805260a05260c0525161037990816103578239608051818181608001526101fc015260a05181818160e10152610145015260c0518161031f0152f35b634e487b7160e01b5f52601260045260245ffd5b634e487b7160e01b5f52601160045260245ffd5b5f80fd5b819061029984610320565b8152019101908390610185565b634e487b7160e01b5f52604160045260245ffd5b631870604d60e21b5f5260045ffd5b6060926100a0565b601f909101601f19168101906001600160401b038211908210176102a657604052565b519063ffffffff8216820361028a57565b6001600160401b0381116102a657601f01601f191660200190565b51906001600160401b038216820361028a57565b51906001600160a01b038216820361028a57565b519060ff8216820361028a5756fe6080604090808252600480361015610015575f80fd5b5f3560e01c918263295d3ee8146102e757508163679aefce146101055750806381bfa5d1146100a75763a747d56f1461004c575f80fd5b346100a3575f7ffffffffffffffffffffffffffffffffffffffffffffffffffffffffffffffffc3601126100a357602090517f00000000000000000000000000000000000000000000000000000000000000008152f35b5f80fd5b50346100a3575f7ffffffffffffffffffffffffffffffffffffffffffffffffffffffffffffffffc3601126100a3576020905163ffffffff7f0000000000000000000000000000000000000000000000000000000000000000168152f35b9050346100a3575f7ffffffffffffffffffffffffffffffffffffffffffffffffffffffffffffffffc3601126100a35781519160209283810163ffffffff7f00000000000000000000000000000000000000000000000000000000000000001681528482528282019167ffffffffffffffff9281811084821117610286578452515f918291906108085afa3d156102de573d8281116102b257835192601f82017fffffffffffffffffffffffffffffffffffffffffffffffffffffffffffffffe0908116603f011684019081118482101761028657845282523d5f8684013e5b1561025f5783818051810103126100a357830151917f000000000000000000000000000000000000000000000000000000000000000092838102938185041490151715610233575051908152f35b6011907f4e487b71000000000000000000000000000000000000000000000000000000005f525260245ffd5b827f79827df5000000000000000000000000000000000000000000000000000000005f525ffd5b6041867f4e487b71000000000000000000000000000000000000000000000000000000005f525260245ffd5b6041857f4e487b71000000000000000000000000000000000000000000000000000000005f525260245ffd5b606091506101e5565b346100a3575f7ffffffffffffffffffffffffffffffffffffffffffffffffffffffffffffffffc3601126100a35760209063ffffffff7f0000000000000000000000000000000000000000000000000000000000000000168152f3fea26469706673582212204a61ca9fabdfedce4da8d07cc625f1df67009ff671cf04c17727fb9abd53edfe64736f6c634300081b0033",
  "linkReferences": {},
  "deployedLinkReferences": {}
}