{
  "contracts/ChainlinkRateProvider.sol": {
    "ChainlinkRateProvider": {
      "abi": [
        {
          "inputs": [
            {
              "internalType": "contract AggregatorV3Interface",
              "name": "feed",
              "type": "address"
            }
          ],
          "stateMutability": "nonpayable",
          "type": "constructor"
        },
        {
          "inputs": [],
          "name": "getRate",
          "outputs": [
            {
              "internalType": "uint256",
              "name": "",
              "type": "uint256"
            }
          ],
          "stateMutability": "view",
          "type": "function"
        },
        {
          "inputs": [],
          "name": "pricefeed",
          "outputs": [
            {
              "internalType": "contract AggregatorV3Interface",
              "name": "",
              "type": "address"
            }
          ],
          "stateMutability": "view",
          "type": "function"
        }
      ],
      "evm": {
        "bytecode": {
          "linkReferences": {},
          "object": "60c060405234801561001057600080fd5b5060405161059838038061059883398101604081905261002f916100eb565b806001600160a01b03166080816001600160a01b0316815250506100c26012826001600160a01b031663313ce5676040518163ffffffff1660e01b8152600401602060405180830381865afa15801561008c573d6000803e3d6000fd5b505050506040513d601f19601f820116820180604052508101906100b0919061011b565b60ff166100d660201b6101d81760201c565b6100cd90600a610238565b60a0525061025b565b60006100e28284610244565b90505b92915050565b6000602082840312156100fd57600080fd5b81516001600160a01b038116811461011457600080fd5b9392505050565b60006020828403121561012d57600080fd5b815160ff8116811461011457600080fd5b634e487b7160e01b600052601160045260246000fd5b600181815b8085111561018f5781600019048211156101755761017561013e565b8085161561018257918102915b93841c9390800290610159565b509250929050565b6000826101a6575060016100e5565b816101b3575060006100e5565b81600181146101c957600281146101d3576101ef565b60019150506100e5565b60ff8411156101e4576101e461013e565b50506001821b6100e5565b5060208310610133831016604e8410600b8410161715610212575081810a6100e5565b61021c8383610154565b80600019048211156102305761023061013e565b029392505050565b60006100e28383610197565b6000828210156102565761025661013e565b500390565b60805160a05161031361028560003960006101ad0152600081816040015260a701526103136000f3fe608060405234801561001057600080fd5b50600436106100365760003560e01c8063590f21131461003b578063679aefce1461008c575b600080fd5b6100627f000000000000000000000000000000000000000000000000000000000000000081565b60405173ffffffffffffffffffffffffffffffffffffffff90911681526020015b60405180910390f35b6100946100a2565b604051908152602001610083565b6000807f000000000000000000000000000000000000000000000000000000000000000073ffffffffffffffffffffffffffffffffffffffff1663feaf968c6040518163ffffffff1660e01b815260040160a060405180830381865afa158015610110573d6000803e3d6000fd5b505050506040513d601f19601f82011682018060405250810190610134919061020a565b505050915050600081136101a8576040517f08c379a000000000000000000000000000000000000000000000000000000000815260206004820152601b60248201527f496e76616c6964207072696365207261746520726573706f6e73650000000000604482015260640160405180910390fd5b6101d27f000000000000000000000000000000000000000000000000000000000000000082610289565b91505090565b60006101e482846102c6565b9392505050565b805169ffffffffffffffffffff8116811461020557600080fd5b919050565b600080600080600060a0868803121561022257600080fd5b61022b866101eb565b945060208601519350604086015192506060860151915061024e608087016101eb565b90509295509295909350565b7f4e487b7100000000000000000000000000000000000000000000000000000000600052601160045260246000fd5b6000817fffffffffffffffffffffffffffffffffffffffffffffffffffffffffffffffff04831182151516156102c1576102c161025a565b500290565b6000828210156102d8576102d861025a565b50039056fea2646970667358221220d63119c5aa52e8d3de418d4c093cb4e4180332c4cd845177955dff5da719c82d64736f6c634300080b0033",
          "opcodes": "PUSH1 0xC0 PUSH1 0x40 MSTORE CALLVALUE DUP1 ISZERO PUSH2 0x10 JUMPI PUSH1 0x0 DUP1 REVERT JUMPDEST POP PUSH1 0x40 MLOAD PUSH2 0x598 CODESIZE SUB DUP1 PUSH2 0x598 DUP4 CODECOPY DUP2 ADD PUSH1 0x40 DUP2 SWAP1 MSTORE PUSH2 0x2F SWAP2 PUSH2 0xEB JUMP JUMPDEST DUP1 PUSH1 0x1 PUSH1 0x1 PUSH1 0xA0 SHL SUB AND PUSH1 0x80 DUP2 PUSH1 0x1 PUSH1 0x1 PUSH1 0xA0 SHL SUB AND DUP2 MSTORE POP POP PUSH2 0xC2 PUSH1 0x12 DUP3 PUSH1 0x1 PUSH1 0x1 PUSH1 0xA0 SHL SUB AND PUSH4 0x313CE567 PUSH1 0x40 MLOAD DUP2 PUSH4 0xFFFFFFFF AND PUSH1 0xE0 SHL DUP2 MSTORE PUSH1 0x4 ADD PUSH1 0x20 PUSH1 0x40 MLOAD DUP1 DUP4 SUB DUP2 DUP7 GAS STATICCALL ISZERO DUP1 ISZERO PUSH2 0x8C JUMPI RETURNDATASIZE PUSH1 0x0 DUP1 RETURNDATACOPY RETURNDATASIZE PUSH1 0x0 REVERT JUMPDEST POP POP POP POP PUSH1 0x40 MLOAD RETURNDATASIZE PUSH1 0x1F NOT PUSH1 0x1F DUP3 ADD AND DUP3 ADD DUP1 PUSH1 0x40 MSTORE POP DUP2 ADD SWAP1 PUSH2 0xB0 SWAP2 SWAP1 PUSH2 0x11B JUMP JUMPDEST PUSH1 0xFF AND PUSH2 0xD6 PUSH1 0x20 SHL PUSH2 0x1D8 OR PUSH1 0x20 SHR JUMP JUMPDEST PUSH2 0xCD SWAP1 PUSH1 0xA PUSH2 0x238 JUMP JUMPDEST PUSH1 0xA0 MSTORE POP PUSH2 0x25B JUMP JUMPDEST PUSH1 0x0 PUSH2 0xE2 DUP3 DUP5 PUSH2 0x244 JUMP JUMPDEST SWAP1 POP JUMPDEST SWAP3 SWAP2 POP POP JUMP JUMPDEST PUSH1 0x0 PUSH1 0x20 DUP3 DUP5 SUB SLT ISZERO PUSH2 0xFD JUMPI PUSH1 0x0 DUP1 REVERT JUMPDEST DUP2 MLOAD PUSH1 0x1 PUSH1 0x1 PUSH1 0xA0 SHL SUB DUP2 AND DUP2 EQ PUSH2 0x114 JUMPI PUSH1 0x0 DUP1 REVERT JUMPDEST SWAP4 SWAP3 POP POP POP JUMP JUMPDEST PUSH1 0x0 PUSH1 0x20 DUP3 DUP5 SUB SLT ISZERO PUSH2 0x12D JUMPI PUSH1 0x0 DUP1 REVERT JUMPDEST DUP2 MLOAD PUSH1 0xFF DUP2 AND DUP2 EQ PUSH2 0x114 JUMPI PUSH1 0x0 DUP1 REVERT JUMPDEST PUSH4 0x4E487B71 PUSH1 0xE0 SHL PUSH1 0x0 MSTORE PUSH1 0x11 PUSH1 0x4 MSTORE PUSH1 0x24 PUSH1 0x0 REVERT JUMPDEST PUSH1 0x1 DUP2 DUP2 JUMPDEST DUP1 DUP6 GT ISZERO PUSH2 0x18F JUMPI DUP2 PUSH1 0x0 NOT DIV DUP3 GT ISZERO PUSH2 0x175 JUMPI PUSH2 0x175 PUSH2 0x13E JUMP JUMPDEST DUP1 DUP6 AND ISZERO PUSH2 0x182 JUMPI SWAP2 DUP2 MUL SWAP2 JUMPDEST SWAP4 DUP5 SHR SWAP4 SWAP1 DUP1 MUL SWAP1 PUSH2 0x159 JUMP JUMPDEST POP SWAP3 POP SWAP3 SWAP1 POP JUMP JUMPDEST PUSH1 0x0 DUP3 PUSH2 0x1A6 JUMPI POP PUSH1 0x1 PUSH2 0xE5 JUMP JUMPDEST DUP2 PUSH2 0x1B3 JUMPI POP PUSH1 0x0 PUSH2 0xE5 JUMP JUMPDEST DUP2 PUSH1 0x1 DUP2 EQ PUSH2 0x1C9 JUMPI PUSH1 0x2 DUP2 EQ PUSH2 0x1D3 JUMPI PUSH2 0x1EF JUMP JUMPDEST PUSH1 0x1 SWAP2 POP POP PUSH2 0xE5 JUMP JUMPDEST PUSH1 0xFF DUP5 GT ISZERO PUSH2 0x1E4 JUMPI PUSH2 0x1E4 PUSH2 0x13E JUMP JUMPDEST POP POP PUSH1 0x1 DUP3 SHL PUSH2 0xE5 JUMP JUMPDEST POP PUSH1 0x20 DUP4 LT PUSH2 0x133 DUP4 LT AND PUSH1 0x4E DUP5 LT PUSH1 0xB DUP5 LT AND OR ISZERO PUSH2 0x212 JUMPI POP DUP2 DUP2 EXP PUSH2 0xE5 JUMP JUMPDEST PUSH2 0x21C DUP4 DUP4 PUSH2 0x154 JUMP JUMPDEST DUP1 PUSH1 0x0 NOT DIV DUP3 GT ISZERO PUSH2 0x230 JUMPI PUSH2 0x230 PUSH2 0x13E JUMP JUMPDEST MUL SWAP4 SWAP3 POP POP POP JUMP JUMPDEST PUSH1 0x0 PUSH2 0xE2 DUP4 DUP4 PUSH2 0x197 JUMP JUMPDEST PUSH1 0x0 DUP3 DUP3 LT ISZERO PUSH2 0x256 JUMPI PUSH2 0x256 PUSH2 0x13E JUMP JUMPDEST POP SUB SWAP1 JUMP JUMPDEST PUSH1 0x80 MLOAD PUSH1 0xA0 MLOAD PUSH2 0x313 PUSH2 0x285 PUSH1 0x0 CODECOPY PUSH1 0x0 PUSH2 0x1AD ADD MSTORE PUSH1 0x0 DUP2 DUP2 PUSH1 0x40 ADD MSTORE PUSH1 0xA7 ADD MSTORE PUSH2 0x313 PUSH1 0x0 RETURN INVALID PUSH1 0x80 PUSH1 0x40 MSTORE CALLVALUE DUP1 ISZERO PUSH2 0x10 JUMPI PUSH1 0x0 DUP1 REVERT JUMPDEST POP PUSH1 0x4 CALLDATASIZE LT PUSH2 0x36 JUMPI PUSH1 0x0 CALLDATALOAD PUSH1 0xE0 SHR DUP1 PUSH4 0x590F2113 EQ PUSH2 0x3B JUMPI DUP1 PUSH4 0x679AEFCE EQ PUSH2 0x8C JUMPI JUMPDEST PUSH1 0x0 DUP1 REVERT JUMPDEST PUSH2 0x62 PUSH32 0x0 DUP2 JUMP JUMPDEST PUSH1 0x40 MLOAD PUSH20 0xFFFFFFFFFFFFFFFFFFFFFFFFFFFFFFFFFFFFFFFF SWAP1 SWAP2 AND DUP2 MSTORE PUSH1 0x20 ADD JUMPDEST PUSH1 0x40 MLOAD DUP1 SWAP2 SUB SWAP1 RETURN JUMPDEST PUSH2 0x94 PUSH2 0xA2 JUMP JUMPDEST PUSH1 0x40 MLOAD SWAP1 DUP2 MSTORE PUSH1 0x20 ADD PUSH2 0x83 JUMP JUMPDEST PUSH1 0x0 DUP1 PUSH32 0x0 PUSH20 0xFFFFFFFFFFFFFFFFFFFFFFFFFFFFFFFFFFFFFFFF AND PUSH4 0xFEAF968C PUSH1 0x40 MLOAD DUP2 PUSH4 0xFFFFFFFF AND PUSH1 0xE0 SHL DUP2 MSTORE PUSH1 0x4 ADD PUSH1 0xA0 PUSH1 0x40 MLOAD DUP1 DUP4 SUB DUP2 DUP7 GAS STATICCALL ISZERO DUP1 ISZERO PUSH2 0x110 JUMPI RETURNDATASIZE PUSH1 0x0 DUP1 RETURNDATACOPY RETURNDATASIZE PUSH1 0x0 REVERT JUMPDEST POP POP POP POP PUSH1 0x40 MLOAD RETURNDATASIZE PUSH1 0x1F NOT PUSH1 0x1F DUP3 ADD AND DUP3 ADD DUP1 PUSH1 0x40 MSTORE POP DUP2 ADD SWAP1 PUSH2 0x134 SWAP2 SWAP1 PUSH2 0x20A JUMP JUMPDEST POP POP POP SWAP2 POP POP PUSH1 0x0 DUP2 SGT PUSH2 0x1A8 JUMPI PUSH1 0x40 MLOAD PUSH32 0x8C379A000000000000000000000000000000000000000000000000000000000 DUP2 MSTORE PUSH1 0x20 PUSH1 0x4 DUP3 ADD MSTORE PUSH1 0x1B PUSH1 0x24 DUP3 ADD MSTORE PUSH32 0x496E76616C6964207072696365207261746520726573706F6E73650000000000 PUSH1 0x44 DUP3 ADD MSTORE PUSH1 0x64 ADD PUSH1 0x40 MLOAD DUP1 SWAP2 SUB SWAP1 REVERT JUMPDEST PUSH2 0x1D2 PUSH32 0x0 DUP3 PUSH2 0x289 JUMP JUMPDEST SWAP2 POP POP SWAP1 JUMP JUMPDEST PUSH1 0x0 PUSH2 0x1E4 DUP3 DUP5 PUSH2 0x2C6 JUMP JUMPDEST SWAP4 SWAP3 POP POP POP JUMP JUMPDEST DUP1 MLOAD PUSH10 0xFFFFFFFFFFFFFFFFFFFF DUP2 AND DUP2 EQ PUSH2 0x205 JUMPI PUSH1 0x0 DUP1 REVERT JUMPDEST SWAP2 SWAP1 POP JUMP JUMPDEST PUSH1 0x0 DUP1 PUSH1 0x0 DUP1 PUSH1 0x0 PUSH1 0xA0 DUP7 DUP9 SUB SLT ISZERO PUSH2 0x222 JUMPI PUSH1 0x0 DUP1 REVERT JUMPDEST PUSH2 0x22B DUP7 PUSH2 0x1EB JUMP JUMPDEST SWAP5 POP PUSH1 0x20 DUP7 ADD MLOAD SWAP4 POP PUSH1 0x40 DUP7 ADD MLOAD SWAP3 POP PUSH1 0x60 DUP7 ADD MLOAD SWAP2 POP PUSH2 0x24E PUSH1 0x80 DUP8 ADD PUSH2 0x1EB JUMP JUMPDEST SWAP1 POP SWAP3 SWAP6 POP SWAP3 SWAP6 SWAP1 SWAP4 POP JUMP JUMPDEST PUSH32 0x4E487B7100000000000000000000000000000000000000000000000000000000 PUSH1 0x0 MSTORE PUSH1 0x11 PUSH1 0x4 MSTORE PUSH1 0x24 PUSH1 0x0 REVERT JUMPDEST PUSH1 0x0 DUP2 PUSH32 0xFFFFFFFFFFFFFFFFFFFFFFFFFFFFFFFFFFFFFFFFFFFFFFFFFFFFFFFFFFFFFFFF DIV DUP4 GT DUP3 ISZERO ISZERO AND ISZERO PUSH2 0x2C1 JUMPI PUSH2 0x2C1 PUSH2 0x25A JUMP JUMPDEST POP MUL SWAP1 JUMP JUMPDEST PUSH1 0x0 DUP3 DUP3 LT ISZERO PUSH2 0x2D8 JUMPI PUSH2 0x2D8 PUSH2 0x25A JUMP JUMPDEST POP SUB SWAP1 JUMP INVALID LOG2 PUSH5 0x6970667358 0x22 SLT KECCAK256 0xD6 BALANCE NOT 0xC5 0xAA MSTORE 0xE8 0xD3 0xDE COINBASE DUP14 0x4C MULMOD EXTCODECOPY 0xB4 0xE4 XOR SUB ORIGIN 0xC4 0xCD DUP5 MLOAD PUSH24 0x955DFF5DA719C82D64736F6C634300080B00330000000000 "
        },
        "methodIdentifiers": {
          "getRate()": "679aefce",
          "pricefeed()": "590f2113"
        }
      }
    }
  }
}