{
  "contracts/ERC4626RateProviderFactory.sol": {
    "ERC4626RateProviderFactory": {
      "abi": [
        {
          "anonymous": false,
          "inputs": [
            {
              "indexed": true,
              "internalType": "address",
              "name": "rateProvider",
              "type": "address"
            }
          ],
          "name": "RateProviderCreated",
          "type": "event"
        },
        {
          "inputs": [
            {
              "internalType": "contract IERC4626",
              "name": "erc4626",
              "type": "address"
            }
          ],
          "name": "create",
          "outputs": [
            {
              "internalType": "contract ERC4626RateProvider",
              "name": "",
              "type": "address"
            }
          ],
          "stateMutability": "nonpayable",
          "type": "function"
        },
        {
          "inputs": [
            {
              "internalType": "address",
              "name": "rateProvider",
              "type": "address"
            }
          ],
          "name": "isRateProviderFromFactory",
          "outputs": [
            {
              "internalType": "bool",
              "name": "",
              "type": "bool"
            }
          ],
          "stateMutability": "view",
          "type": "function"
        }
      ],
      "evm": {
        "bytecode": {
          "linkReferences": {},
          "object": "608060405234801561001057600080fd5b5061078f806100206000396000f3fe608060405234801561001057600080fd5b50600436106100365760003560e01c806319912f711461003b5780639ed9331814610089575b600080fd5b6100746100493660046101c5565b73ffffffffffffffffffffffffffffffffffffffff1660009081526020819052604090205460ff1690565b60405190151581526020015b60405180910390f35b61009c6100973660046101c5565b6100c1565b60405173ffffffffffffffffffffffffffffffffffffffff9091168152602001610080565b600080826040516100d190610193565b73ffffffffffffffffffffffffffffffffffffffff9091168152602001604051809103906000f08015801561010a573d6000803e3d6000fd5b5090506101168161011c565b92915050565b73ffffffffffffffffffffffffffffffffffffffff811660008181526020819052604080822080547fffffffffffffffffffffffffffffffffffffffffffffffffffffffffffffff00166001179055517f7a8e6b463d413484480a3a8120e5fb841491c52541ac3f649ac41d9b0d088aa69190a250565b610570806101ea83390190565b73ffffffffffffffffffffffffffffffffffffffff811681146101c257600080fd5b50565b6000602082840312156101d757600080fd5b81356101e2816101a0565b939250505056fe60c060405234801561001057600080fd5b5060405161057038038061057083398101604081905261002f916101bc565b806001600160a01b03166080816001600160a01b0316815250506000816001600160a01b03166338d52e0f6040518163ffffffff1660e01b8152600401602060405180830381865afa158015610089573d6000803e3d6000fd5b505050506040513d601f19601f820116820180604052508101906100ad91906101bc565b6001600160a01b031663313ce5676040518163ffffffff1660e01b8152600401602060405180830381865afa1580156100ea573d6000803e3d6000fd5b505050506040513d601f19601f8201168201806040525081019061010e91906101e0565b60ff16905080826001600160a01b031663313ce5676040518163ffffffff1660e01b8152600401602060405180830381865afa158015610152573d6000803e3d6000fd5b505050506040513d601f19601f8201168201806040525081019061017691906101e0565b610181906012610219565b60ff1661018e919061023e565b61019990600a61033b565b60a052506103479050565b6001600160a01b03811681146101b957600080fd5b50565b6000602082840312156101ce57600080fd5b81516101d9816101a4565b9392505050565b6000602082840312156101f257600080fd5b815160ff811681146101d957600080fd5b634e487b7160e01b600052601160045260246000fd5b600060ff821660ff84168060ff0382111561023657610236610203565b019392505050565b60008282101561025057610250610203565b500390565b600181815b8085111561029057816000190482111561027657610276610203565b8085161561028357918102915b93841c939080029061025a565b509250929050565b6000826102a757506001610335565b816102b457506000610335565b81600181146102ca57600281146102d4576102f0565b6001915050610335565b60ff8411156102e5576102e5610203565b50506001821b610335565b5060208310610133831016604e8410600b8410161715610313575081810a610335565b61031d8383610255565b806000190482111561033157610331610203565b0290505b92915050565b60006101d98383610298565b60805160a0516101f96103776000396000818160b2015260fc015260008181604b015261012501526101f96000f3fe608060405234801561001057600080fd5b50600436106100415760003560e01c806313511b5c14610046578063679aefce1461009757806371f29123146100ad575b600080fd5b61006d7f000000000000000000000000000000000000000000000000000000000000000081565b60405173ffffffffffffffffffffffffffffffffffffffff90911681526020015b60405180910390f35b61009f6100d4565b60405190815260200161008e565b61009f7f000000000000000000000000000000000000000000000000000000000000000081565b6040517f07a2d13a0000000000000000000000000000000000000000000000000000000081527f000000000000000000000000000000000000000000000000000000000000000060048201526000907f000000000000000000000000000000000000000000000000000000000000000073ffffffffffffffffffffffffffffffffffffffff16906307a2d13a90602401602060405180830381865afa158015610181573d6000803e3d6000fd5b505050506040513d601f19601f820116820180604052508101906101a591906101aa565b905090565b6000602082840312156101bc57600080fd5b505191905056fea264697066735822122091ac933a96d72ea39afd843b1d1ab3a8ea66aac1ae2c25228541b16ae410605b64736f6c634300080b0033a264697066735822122003baa2ea8fc659e4381850bd0350ed9d6d5da45fc00aa207605c2be83d50c50e64736f6c634300080b0033",
          "opcodes": "PUSH1 0x80 PUSH1 0x40 MSTORE CALLVALUE DUP1 ISZERO PUSH2 0x10 JUMPI PUSH1 0x0 DUP1 REVERT JUMPDEST POP PUSH2 0x78F DUP1 PUSH2 0x20 PUSH1 0x0 CODECOPY PUSH1 0x0 RETURN INVALID PUSH1 0x80 PUSH1 0x40 MSTORE CALLVALUE DUP1 ISZERO PUSH2 0x10 JUMPI PUSH1 0x0 DUP1 REVERT JUMPDEST POP PUSH1 0x4 CALLDATASIZE LT PUSH2 0x36 JUMPI PUSH1 0x0 CALLDATALOAD PUSH1 0xE0 SHR DUP1 PUSH4 0x19912F71 EQ PUSH2 0x3B JUMPI DUP1 PUSH4 0x9ED93318 EQ PUSH2 0x89 JUMPI JUMPDEST PUSH1 0x0 DUP1 REVERT JUMPDEST PUSH2 0x74 PUSH2 0x49 CALLDATASIZE PUSH1 0x4 PUSH2 0x1C5 JUMP JUMPDEST PUSH20 0xFFFFFFFFFFFFFFFFFFFFFFFFFFFFFFFFFFFFFFFF AND PUSH1 0x0 SWAP1 DUP2 MSTORE PUSH1 0x20 DUP2 SWAP1 MSTORE PUSH1 0x40 SWAP1 KECCAK256 SLOAD PUSH1 0xFF AND SWAP1 JUMP JUMPDEST PUSH1 0x40 MLOAD SWAP1 ISZERO ISZERO DUP2 MSTORE PUSH1 0x20 ADD JUMPDEST PUSH1 0x40 MLOAD DUP1 SWAP2 SUB SWAP1 RETURN JUMPDEST PUSH2 0x9C PUSH2 0x97 CALLDATASIZE PUSH1 0x4 PUSH2 0x1C5 JUMP JUMPDEST PUSH2 0xC1 JUMP JUMPDEST PUSH1 0x40 MLOAD PUSH20 0xFFFFFFFFFFFFFFFFFFFFFFFFFFFFFFFFFFFFFFFF SWAP1 SWAP2 AND DUP2 MSTORE PUSH1 0x20 ADD PUSH2 0x80 JUMP JUMPDEST PUSH1 0x0 DUP1 DUP3 PUSH1 0x40 MLOAD PUSH2 0xD1 SWAP1 PUSH2 0x193 JUMP JUMPDEST PUSH20 0xFFFFFFFFFFFFFFFFFFFFFFFFFFFFFFFFFFFFFFFF SWAP1 SWAP2 AND DUP2 MSTORE PUSH1 0x20 ADD PUSH1 0x40 MLOAD DUP1 SWAP2 SUB SWAP1 PUSH1 0x0 CREATE DUP1 ISZERO DUP1 ISZERO PUSH2 0x10A JUMPI RETURNDATASIZE PUSH1 0x0 DUP1 RETURNDATACOPY RETURNDATASIZE PUSH1 0x0 REVERT JUMPDEST POP SWAP1 POP PUSH2 0x116 DUP2 PUSH2 0x11C JUMP JUMPDEST SWAP3 SWAP2 POP POP JUMP JUMPDEST PUSH20 0xFFFFFFFFFFFFFFFFFFFFFFFFFFFFFFFFFFFFFFFF DUP2 AND PUSH1 0x0 DUP2 DUP2 MSTORE PUSH1 0x20 DUP2 SWAP1 MSTORE PUSH1 0x40 DUP1 DUP3 KECCAK256 DUP1 SLOAD PUSH32 0xFFFFFFFFFFFFFFFFFFFFFFFFFFFFFFFFFFFFFFFFFFFFFFFFFFFFFFFFFFFFFF00 AND PUSH1 0x1 OR SWAP1 SSTORE MLOAD PUSH32 0x7A8E6B463D413484480A3A8120E5FB841491C52541AC3F649AC41D9B0D088AA6 SWAP2 SWAP1 LOG2 POP JUMP JUMPDEST PUSH2 0x570 DUP1 PUSH2 0x1EA DUP4 CODECOPY ADD SWAP1 JUMP JUMPDEST PUSH20 0xFFFFFFFFFFFFFFFFFFFFFFFFFFFFFFFFFFFFFFFF DUP2 AND DUP2 EQ PUSH2 0x1C2 JUMPI PUSH1 0x0 DUP1 REVERT JUMPDEST POP JUMP JUMPDEST PUSH1 0x0 PUSH1 0x20 DUP3 DUP5 SUB SLT ISZERO PUSH2 0x1D7 JUMPI PUSH1 0x0 DUP1 REVERT JUMPDEST DUP2 CALLDATALOAD PUSH2 0x1E2 DUP2 PUSH2 0x1A0 JUMP JUMPDEST SWAP4 SWAP3 POP POP POP JUMP INVALID PUSH1 0xC0 PUSH1 0x40 MSTORE CALLVALUE DUP1 ISZERO PUSH2 0x10 JUMPI PUSH1 0x0 DUP1 REVERT JUMPDEST POP PUSH1 0x40 MLOAD PUSH2 0x570 CODESIZE SUB DUP1 PUSH2 0x570 DUP4 CODECOPY DUP2 ADD PUSH1 0x40 DUP2 SWAP1 MSTORE PUSH2 0x2F SWAP2 PUSH2 0x1BC JUMP JUMPDEST DUP1 PUSH1 0x1 PUSH1 0x1 PUSH1 0xA0 SHL SUB AND PUSH1 0x80 DUP2 PUSH1 0x1 PUSH1 0x1 PUSH1 0xA0 SHL SUB AND DUP2 MSTORE POP POP PUSH1 0x0 DUP2 PUSH1 0x1 PUSH1 0x1 PUSH1 0xA0 SHL SUB AND PUSH4 0x38D52E0F PUSH1 0x40 MLOAD DUP2 PUSH4 0xFFFFFFFF AND PUSH1 0xE0 SHL DUP2 MSTORE PUSH1 0x4 ADD PUSH1 0x20 PUSH1 0x40 MLOAD DUP1 DUP4 SUB DUP2 DUP7 GAS STATICCALL ISZERO DUP1 ISZERO PUSH2 0x89 JUMPI RETURNDATASIZE PUSH1 0x0 DUP1 RETURNDATACOPY RETURNDATASIZE PUSH1 0x0 REVERT JUMPDEST POP POP POP POP PUSH1 0x40 MLOAD RETURNDATASIZE PUSH1 0x1F NOT PUSH1 0x1F DUP3 ADD AND DUP3 ADD DUP1 PUSH1 0x40 MSTORE POP DUP2 ADD SWAP1 PUSH2 0xAD SWAP2 SWAP1 PUSH2 0x1BC JUMP JUMPDEST PUSH1 0x1 PUSH1 0x1 PUSH1 0xA0 SHL SUB AND PUSH4 0x313CE567 PUSH1 0x40 MLOAD DUP2 PUSH4 0xFFFFFFFF AND PUSH1 0xE0 SHL DUP2 MSTORE PUSH1 0x4 ADD PUSH1 0x20 PUSH1 0x40 MLOAD DUP1 DUP4 SUB DUP2 DUP7 GAS STATICCALL ISZERO DUP1 ISZERO PUSH2 0xEA JUMPI RETURNDATASIZE PUSH1 0x0 DUP1 RETURNDATACOPY RETURNDATASIZE PUSH1 0x0 REVERT JUMPDEST POP POP POP POP PUSH1 0x40 MLOAD RETURNDATASIZE PUSH1 0x1F NOT PUSH1 0x1F DUP3 ADD AND DUP3 ADD DUP1 PUSH1 0x40 MSTORE POP DUP2 ADD SWAP1 PUSH2 0x10E SWAP2 SWAP1 PUSH2 0x1E0 JUMP JUMPDEST PUSH1 0xFF AND SWAP1 POP DUP1 DUP3 PUSH1 0x1 PUSH1 0x1 PUSH1 0xA0 SHL SUB AND PUSH4 0x313CE567 PUSH1 0x40 MLOAD DUP2 PUSH4 0xFFFFFFFF AND PUSH1 0xE0 SHL DUP2 MSTORE PUSH1 0x4 ADD PUSH1 0x20 PUSH1 0x40 MLOAD DUP1 DUP4 SUB DUP2 DUP7 GAS STATICCALL ISZERO DUP1 ISZERO PUSH2 0x152 JUMPI RETURNDATASIZE PUSH1 0x0 DUP1 RETURNDATACOPY RETURNDATASIZE PUSH1 0x0 REVERT JUMPDEST POP POP POP POP PUSH1 0x40 MLOAD RETURNDATASIZE PUSH1 0x1F NOT PUSH1 0x1F DUP3 ADD AND DUP3 ADD DUP1 PUSH1 0x40 MSTORE POP DUP2 ADD SWAP1 PUSH2 0x176 SWAP2 SWAP1 PUSH2 0x1E0 JUMP JUMPDEST PUSH2 0x181 SWAP1 PUSH1 0x12 PUSH2 0x219 JUMP JUMPDEST PUSH1 0xFF AND PUSH2 0x18E SWAP2 SWAP1 PUSH2 0x23E JUMP JUMPDEST PUSH2 0x199 SWAP1 PUSH1 0xA PUSH2 0x33B JUMP JUMPDEST PUSH1 0xA0 MSTORE POP PUSH2 0x347 SWAP1 POP JUMP JUMPDEST PUSH1 0x1 PUSH1 0x1 PUSH1 0xA0 SHL SUB DUP2 AND DUP2 EQ PUSH2 0x1B9 JUMPI PUSH1 0x0 DUP1 REVERT JUMPDEST POP JUMP JUMPDEST PUSH1 0x0 PUSH1 0x20 DUP3 DUP5 SUB SLT ISZERO PUSH2 0x1CE JUMPI PUSH1 0x0 DUP1 REVERT JUMPDEST DUP2 MLOAD PUSH2 0x1D9 DUP2 PUSH2 0x1A4 JUMP JUMPDEST SWAP4 SWAP3 POP POP POP JUMP JUMPDEST PUSH1 0x0 PUSH1 0x20 DUP3 DUP5 SUB SLT ISZERO PUSH2 0x1F2 JUMPI PUSH1 0x0 DUP1 REVERT JUMPDEST DUP2 MLOAD PUSH1 0xFF DUP2 AND DUP2 EQ PUSH2 0x1D9 JUMPI PUSH1 0x0 DUP1 REVERT JUMPDEST PUSH4 0x4E487B71 PUSH1 0xE0 SHL PUSH1 0x0 MSTORE PUSH1 0x11 PUSH1 0x4 MSTORE PUSH1 0x24 PUSH1 0x0 REVERT JUMPDEST PUSH1 0x0 PUSH1 0xFF DUP3 AND PUSH1 0xFF DUP5 AND DUP1 PUSH1 0xFF SUB DUP3 GT ISZERO PUSH2 0x236 JUMPI PUSH2 0x236 PUSH2 0x203 JUMP JUMPDEST ADD SWAP4 SWAP3 POP POP POP JUMP JUMPDEST PUSH1 0x0 DUP3 DUP3 LT ISZERO PUSH2 0x250 JUMPI PUSH2 0x250 PUSH2 0x203 JUMP JUMPDEST POP SUB SWAP1 JUMP JUMPDEST PUSH1 0x1 DUP2 DUP2 JUMPDEST DUP1 DUP6 GT ISZERO PUSH2 0x290 JUMPI DUP2 PUSH1 0x0 NOT DIV DUP3 GT ISZERO PUSH2 0x276 JUMPI PUSH2 0x276 PUSH2 0x203 JUMP JUMPDEST DUP1 DUP6 AND ISZERO PUSH2 0x283 JUMPI SWAP2 DUP2 MUL SWAP2 JUMPDEST SWAP4 DUP5 SHR SWAP4 SWAP1 DUP1 MUL SWAP1 PUSH2 0x25A JUMP JUMPDEST POP SWAP3 POP SWAP3 SWAP1 POP JUMP JUMPDEST PUSH1 0x0 DUP3 PUSH2 0x2A7 JUMPI POP PUSH1 0x1 PUSH2 0x335 JUMP JUMPDEST DUP2 PUSH2 0x2B4 JUMPI POP PUSH1 0x0 PUSH2 0x335 JUMP JUMPDEST DUP2 PUSH1 0x1 DUP2 EQ PUSH2 0x2CA JUMPI PUSH1 0x2 DUP2 EQ PUSH2 0x2D4 JUMPI PUSH2 0x2F0 JUMP JUMPDEST PUSH1 0x1 SWAP2 POP POP PUSH2 0x335 JUMP JUMPDEST PUSH1 0xFF DUP5 GT ISZERO PUSH2 0x2E5 JUMPI PUSH2 0x2E5 PUSH2 0x203 JUMP JUMPDEST POP POP PUSH1 0x1 DUP3 SHL PUSH2 0x335 JUMP JUMPDEST POP PUSH1 0x20 DUP4 LT PUSH2 0x133 DUP4 LT AND PUSH1 0x4E DUP5 LT PUSH1 0xB DUP5 LT AND OR ISZERO PUSH2 0x313 JUMPI POP DUP2 DUP2 EXP PUSH2 0x335 JUMP JUMPDEST PUSH2 0x31D DUP4 DUP4 PUSH2 0x255 JUMP JUMPDEST DUP1 PUSH1 0x0 NOT DIV DUP3 GT ISZERO PUSH2 0x331 JUMPI PUSH2 0x331 PUSH2 0x203 JUMP JUMPDEST MUL SWAP1 POP JUMPDEST SWAP3 SWAP2 POP POP JUMP JUMPDEST PUSH1 0x0 PUSH2 0x1D9 DUP4 DUP4 PUSH2 0x298 JUMP JUMPDEST PUSH1 0x80 MLOAD PUSH1 0xA0 MLOAD PUSH2 0x1F9 PUSH2 0x377 PUSH1 0x0 CODECOPY PUSH1 0x0 DUP2 DUP2 PUSH1 0xB2 ADD MSTORE PUSH1 0xFC ADD MSTORE PUSH1 0x0 DUP2 DUP2 PUSH1 0x4B ADD MSTORE PUSH2 0x125 ADD MSTORE PUSH2 0x1F9 PUSH1 0x0 RETURN INVALID PUSH1 0x80 PUSH1 0x40 MSTORE CALLVALUE DUP1 ISZERO PUSH2 0x10 JUMPI PUSH1 0x0 DUP1 REVERT JUMPDEST POP PUSH1 0x4 CALLDATASIZE LT PUSH2 0x41 JUMPI PUSH1 0x0 CALLDATALOAD PUSH1 0xE0 SHR DUP1 PUSH4 0x13511B5C EQ PUSH2 0x46 JUMPI DUP1 PUSH4 0x679AEFCE EQ PUSH2 0x97 JUMPI DUP1 PUSH4 0x71F29123 EQ PUSH2 0xAD JUMPI JUMPDEST PUSH1 0x0 DUP1 REVERT JUMPDEST PUSH2 0x6D PUSH32 0x0 DUP2 JUMP JUMPDEST PUSH1 0x40 MLOAD PUSH20 0xFFFFFFFFFFFFFFFFFFFFFFFFFFFFFFFFFFFFFFFF SWAP1 SWAP2 AND DUP2 MSTORE PUSH1 0x20 ADD JUMPDEST PUSH1 0x40 MLOAD DUP1 SWAP2 SUB SWAP1 RETURN JUMPDEST PUSH2 0x9F PUSH2 0xD4 JUMP JUMPDEST PUSH1 0x40 MLOAD SWAP1 DUP2 MSTORE PUSH1 0x20 ADD PUSH2 0x8E JUMP JUMPDEST PUSH2 0x9F PUSH32 0x0 DUP2 JUMP JUMPDEST PUSH1 0x40 MLOAD PUSH32 0x7A2D13A00000000000000000000000000000000000000000000000000000000 DUP2 MSTORE PUSH32 0x0 PUSH1 0x4 DUP3 ADD MSTORE PUSH1 0x0 SWAP1 PUSH32 0x0 PUSH20 0xFFFFFFFFFFFFFFFFFFFFFFFFFFFFFFFFFFFFFFFF AND SWAP1 PUSH4 0x7A2D13A SWAP1 PUSH1 0x24 ADD PUSH1 0x20 PUSH1 0x40 MLOAD DUP1 DUP4 SUB DUP2 DUP7 GAS STATICCALL ISZERO DUP1 ISZERO PUSH2 0x181 JUMPI RETURNDATASIZE PUSH1 0x0 DUP1 RETURNDATACOPY RETURNDATASIZE PUSH1 0x0 REVERT JUMPDEST POP POP POP POP PUSH1 0x40 MLOAD RETURNDATASIZE PUSH1 0x1F NOT PUSH1 0x1F DUP3 ADD AND DUP3 ADD DUP1 PUSH1 0x40 MSTORE POP DUP2 ADD SWAP1 PUSH2 0x1A5 SWAP2 SWAP1 PUSH2 0x1AA JUMP JUMPDEST SWAP1 POP SWAP1 JUMP JUMPDEST PUSH1 0x0 PUSH1 0x20 DUP3 DUP5 SUB SLT ISZERO PUSH2 0x1BC JUMPI PUSH1 0x0 DUP1 REVERT JUMPDEST POP MLOAD SWAP2 SWAP1 POP JUMP INVALID LOG2 PUSH5 0x6970667358 0x22 SLT KECCAK256 SWAP2 0xAC SWAP4 GASPRICE SWAP7 0xD7 0x2E LOG3 SWAP11 REVERT DUP5 EXTCODESIZE SAR BYTE 0xB3 0xA8 0xEA PUSH7 0xAAC1AE2C252285 COINBASE 0xB1 PUSH11 0xE410605B64736F6C634300 ADDMOD SIGNEXTEND STOP CALLER LOG2 PUSH5 0x6970667358 0x22 SLT KECCAK256 SUB 0xBA LOG2 0xEA DUP16 0xC6 MSIZE 0xE4 CODESIZE XOR POP 0xBD SUB POP 0xED SWAP14 PUSH14 0x5DA45FC00AA207605C2BE83D50C5 0xE PUSH5 0x736F6C6343 STOP ADDMOD SIGNEXTEND STOP CALLER "
        },
        "methodIdentifiers": {
          "create(address)": "9ed93318",
          "isRateProviderFromFactory(address)": "19912f71"
        }
      }
    }
  }
}