{
  "_format": "hh-sol-artifact-1",
  "contractName": "BalancerContractRegistryInitializer",
  "sourceName": "contracts/BalancerContractRegistryInitializer.sol",
  "abi": [
    {
      "inputs": [
        {
          "internalType": "contract IVault",
          "name": "vault",
          "type": "address"
        },
        {
          "internalType": "contract IBalancerContractRegistry",
          "name": "_balancerContractRegistry",
          "type": "address"
        },
        {
          "internalType": "string[]",
          "name": "_routerNames",
          "type": "string[]"
        },
        {
          "internalType": "address[]",
          "name": "_routerAddresses",
          "type": "address[]"
        },
        {
          "internalType": "string[]",
          "name": "_poolFactoryNames",
          "type": "string[]"
        },
        {
          "internalType": "address[]",
          "name": "_poolFactoryAddresses",
          "type": "address[]"
        },
        {
          "internalType": "string[]",
          "name": "_aliasNames",
          "type": "string[]"
        },
        {
          "internalType": "address[]",
          "name": "_aliasAddresses",
          "type": "address[]"
        }
      ],
      "stateMutability": "nonpayable",
      "type": "constructor"
    },
    {
      "inputs": [],
      "name": "AlreadyInitialized",
      "type": "error"
    },
    {
      "inputs": [],
      "name": "InputLengthMismatch",
      "type": "error"
    },
    {
      "inputs": [],
      "name": "VaultMismatch",
      "type": "error"
    },
    {
      "inputs": [],
      "name": "balancerContractRegistry",
      "outputs": [
        {
          "internalType": "contract IBalancerContractRegistry",
          "name": "",
          "type": "address"
        }
      ],
      "stateMutability": "view",
      "type": "function"
    },
    {
      "inputs": [],
      "name": "initializeBalancerContractRegistry",
      "outputs": [],
      "stateMutability": "nonpayable",
      "type": "function"
    }
  ],
  "bytecode": "0x60c0604090808252346103b5576115c6803803809161001e8285610975565b8339810190610100818303126103b55761003781610998565b60208201516001600160a01b039391928482169290918381036103b557828701516001600160401b0381116103b557826100729185016109c3565b60608401516001600160401b0381116103b55783610091918601610a88565b60808501519091906001600160401b0381116103b557846100b39187016109c3565b60a08601519093906001600160401b0381116103b557856100d5918801610a88565b60c08701519095906001600160401b0381116103b557816100f79189016109c3565b60e088015190976001600160401b0382116103b55760049260209261011c9201610a88565b9861012a8551875190610b47565b6101378751895190610b47565b61014489518b5190610b47565b8c516311b2515f60e31b815292839182905afa90811561096b575f91610931575b5089808a169116036109225760805280519068010000000000000000821161040157600154826001558083106108a6575b5060015f9081525f5160206115a65f395f51905f5292916020015b82821061079f5750508251929150506001600160401b038211610401576801000000000000000082116104015760209060025483600255808410610783575b500160025f5260205f205f5b83811061076d575050505080519068010000000000000000821161040157600354826003558083106106f1575b5060035f9081525f5160206115865f395f51905f5292916020015b8282106105e05750508251929150506001600160401b0382116104015768010000000000000000821161040157602090600454836004558084106105c4575b500160045f5260205f205f5b8381106105ae57505050508051906801000000000000000082116104015760055482600555808310610532575b5060055f9081525f5160206115665f395f51905f5292916020015b8282106104155750508251929150506001600160401b0382116104015768010000000000000000821161040157602090600654836006558084106103e5575b5090849392910160065f5260205f205f5b8381106103cb5750505050602090600485518094819363aaabadc560e01b8352165afa9081156103c1575f91610382575b501660a05251610a089081610b5e823960805181818160b3015261083e015260a051816101830152f35b90506020813d6020116103b9575b8161039d60209383610975565b810103126103b5575181811681036103b5575f610358565b5f80fd5b3d9150610390565b83513d5f823e3d90fd5b825190951685820155859460209290920191600101610327565b6103fb9060065f5284845f209182019101610b31565b5f610316565b634e487b7160e01b5f52604160045260245ffd5b80518051906001600160401b038211610401576104328654610af9565b90601f918281116104fa575b50602091831160011461048e5792610474836001959460209487965f92610483575b50508160011b915f199060031b1c19161790565b87555b019401910190926102d7565b015190505f80610460565b90865f5260205f20915f5b601f19851681106104e2575083602093600196938796938794601f198116106104ca575b505050811b018755610477565b01515f1960f88460031b161c191690555f80806104bd565b91926020600181928685015181550194019201610499565b61052390885f5260205f208480870160051c82019260208810610529575b0160051c0190610b31565b5f61043e565b92508192610518565b60055f525f5160206115665f395f51905f529081019083015b81811061055857506102bc565b8061056560019254610af9565b80610572575b500161054b565b601f90818111841461058a5750505f81555b5f61056b565b6105a55f9284845260208420920160051c8201858301610b31565b81835555610584565b600190602089855116940193818401550161028f565b6105da9060045f5284845f209182019101610b31565b5f610283565b80518051906001600160401b038211610401576105fd8654610af9565b90601f918281116106b9575b50602091831160011461064d579261063e836001959460209487965f926104835750508160011b915f199060031b1c19161790565b87555b01940191019092610244565b90865f5260205f20915f5b601f19851681106106a1575083602093600196938796938794601f19811610610689575b505050811b018755610641565b01515f1960f88460031b161c191690555f808061067c565b91926020600181928685015181550194019201610658565b6106e290885f5260205f20600585808801821c830193602089106106e8575b01901c0190610b31565b5f610609565b935082936106d8565b60035f525f5160206115865f395f51905f529081019083015b8181106107175750610229565b8061072460019254610af9565b80610731575b500161070a565b601f9081811184146107495750505f81555b5f61072a565b6107645f9284845260208420920160051c8201858301610b31565b81835555610743565b60019060208b85511694019381840155016101fc565b6107999060025f5284845f209182019101610b31565b5f6101f0565b80518051906001600160401b038211610401576107bc8654610af9565b90601f91828111610878575b50602091831160011461080c57926107fd836001959460209487965f926104835750508160011b915f199060031b1c19161790565b87555b019401910190926101b1565b90865f5260205f20915f5b601f1985168110610860575083602093600196938796938794601f19811610610848575b505050811b018755610800565b01515f1960f88460031b161c191690555f808061083b565b91926020600181928685015181550194019201610817565b6108a090885f5260205f20600585808801821c830193602089106106e85701901c0190610b31565b5f6107c8565b60015f525f5160206115a65f395f51905f529081019083015b8181106108cc5750610196565b806108d960019254610af9565b806108e6575b50016108bf565b601f9081811184146108fe5750505f81555b5f6108df565b6109195f9284845260208420920160051c8201858301610b31565b818355556108f8565b63c1faacc560e01b5f5260045ffd5b90506020813d602011610963575b8161094c60209383610975565b810103126103b55761095d90610998565b5f610165565b3d915061093f565b8b513d5f823e3d90fd5b601f909101601f19168101906001600160401b0382119082101761040157604052565b51906001600160a01b03821682036103b557565b6001600160401b0381116104015760051b60200190565b601f9180601f830112156103b5578151916020926109e0816109ac565b946040936109f16040519788610975565b828752858088019360051b850101948186116103b557868501935b868510610a1e57505050505050505090565b84516001600160401b0391908281116103b55787019084603f830112156103b55789820151928311610401578351610a5e848801601f19168c0182610975565b838152858585850101116103b5575f8b858196888397018386015e83010152815201940193610a0c565b9080601f830112156103b557815190602091610aa3816109ac565b93610ab16040519586610975565b81855260208086019260051b8201019283116103b557602001905b828210610ada575050505090565b81516001600160a01b03811681036103b5578152908301908301610acc565b90600182811c92168015610b27575b6020831014610b1357565b634e487b7160e01b5f52602260045260245ffd5b91607f1691610b08565b818110610b3c575050565b5f8155600101610b31565b03610b4e57565b63aaad13f760e01b5f5260045ffdfe6080604090808252600480361015610015575f80fd5b5f915f3560e01c9081632623a2d0146107f6575063bd968c1814610037575f80fd5b346103b4575f7ffffffffffffffffffffffffffffffffffffffffffffffffffffffffffffffffc3601126103b4575f549260ff84166107cf577fffffffffffffffffffffffffffffffffffffffffffffffffffffffffffffff0093600194859116175f5573ffffffffffffffffffffffffffffffffffffffff807f000000000000000000000000000000000000000000000000000000000000000016928251917f851c1bb3000000000000000000000000000000000000000000000000000000008084527fe0376ab40000000000000000000000000000000000000000000000000000000091828486015260209660249188878481855afa9687156107c5575f97610796575b5087519384527f2967af960000000000000000000000000000000000000000000000000000000090818786015289858581865afa94851561078c575f9561075d575b50807f00000000000000000000000000000000000000000000000000000000000000001695863b156103b45789517f2f2ff15d000000000000000000000000000000000000000000000000000000008082528982018b81523060208201529091905f90829081906040010381838d5af1801561075357610740575b50873b156104dd578a519081528881018781523060208201528d90829081906040010381838c5af180156104d3578e9695949392918e9161071f575b5095909192939495905b610608575b508b8d5b610511575b50508b8b905b6103ff575b5050505050869750813b156103dd5784517f36568abe0000000000000000000000000000000000000000000000000000000080825284820195865230602087015294889082908190604001038183875af180156103f5579088916103e1575b5050813b156103dd57845184815283810191825230602083015290879082908190604001038183865af180156103bf579087916103c9575b505083517fa217fddf00000000000000000000000000000000000000000000000000000000815285818481855afa9586156103bf578796610388575b5050803b1561038457835192835290820193845230602085015290928491849182908490829060400103925af190811561037b57506103685750f35b61037190610862565b6103785780f35b80fd5b513d84823e3d90fd5b8580fd5b819750809296503d83116103b8575b6103a181836108a3565b810103126103b457859451935f8061032c565b5f80fd5b503d610397565b85513d89823e3d90fd5b6103d290610862565b61038457855f6102f0565b8680fd5b6103ea90610862565b6103dd57865f6102b8565b86513d8a823e3d90fd5b60055481101561050c57600680548210156104e1575f5281817ff652222313e28459528d920b65115c16c04f3efc82aaedc97be59f3f377c0d3f015416843b156104dd578c8b8051809381928883528d83015261048160448301877f036b6384b5eca791c62761152d0c79bb0604c104a5fb6f4eb0703f3154bb3db0016108e4565b908a830152038183895af180156104d3578e9695949392918e916104ae575b505085019091929394610254565b6104be9192939495969750610862565b6104cf57908c949392918c5f6104a0565b8b80fd5b8b513d8f823e3d90fd5b8c80fd5b8560328a7f4e487b71000000000000000000000000000000000000000000000000000000005f52525ffd5b610259565b8d600354821015610602575088548110156104e157885f5282817f8a35acfbc15ff81a39ae7d344fd709f28e8600b4aa8c65c6b64bfe7fe36bd19b015416853b156105fe578d8f8b8e51938492839288845283015260608b83015261059b60648301877fc2575a0e9e593c00f959f8c92f12db2869c3395a3b0502d05e2516446f71f85b016108e4565b9060448301520381838a5af180156105f2578f979695949392918f916105cf575b5050908680920191509192939495610249565b6105e0919293949596979850610862565b6104dd57908d95949392918d5f6105bc565b8e8d51903d90823e3d90fd5b8d80fd5b5061024e565b8d80548210156107195750600280548210156106ee57805f5283827f405787fa12a823e0f2b7631cc41b3ba8828b3321ca811111fa75cd3aa3bb5ace01541690863b156106ea578e908b8e51938492839288845283015260608b83015261069460648301877fb10e2d527612073b26eecdfd717e6a320cf44b4afac2b0732d9fcbe2b7fa0cf6016108e4565b9060448301520381838a5af180156105f2578f979695949392918f916106c7575b50508680910191929394959650610240565b6106d8919293949596979850610862565b6104dd57908d95949392918d5f6106b5565b8e80fd5b8660328b7f4e487b71000000000000000000000000000000000000000000000000000000005f52525ffd5b50610245565b61072f9192939495969750610862565b6104cf57908c949392918c5f610236565b61074b919d50610862565b5f9b5f6101fa565b8c513d5f823e3d90fd5b9094508981813d8311610785575b61077581836108a3565b810103126103b45751935f61017f565b503d61076b565b89513d5f823e3d90fd5b9096508881813d83116107be575b6107ae81836108a3565b810103126103b45751955f61013d565b503d6107a4565b88513d5f823e3d90fd5b507f0dc149f0000000000000000000000000000000000000000000000000000000005f525ffd5b346103b4575f7ffffffffffffffffffffffffffffffffffffffffffffffffffffffffffffffffc3601126103b45760209073ffffffffffffffffffffffffffffffffffffffff7f0000000000000000000000000000000000000000000000000000000000000000168152f35b67ffffffffffffffff811161087657604052565b7f4e487b71000000000000000000000000000000000000000000000000000000005f52604160045260245ffd5b90601f7fffffffffffffffffffffffffffffffffffffffffffffffffffffffffffffffe0910116810190811067ffffffffffffffff82111761087657604052565b80545f939260018083169383821c9385156109c8575b602095868610811461099b5785855290811561095e5750600114610920575b5050505050565b90939495505f92919252835f2092845f945b83861061094a57505050500101905f80808080610919565b805485870183015294019385908201610932565b7fffffffffffffffffffffffffffffffffffffffffffffffffffffffffffffff00168685015250505090151560051b010191505f80808080610919565b7f4e487b71000000000000000000000000000000000000000000000000000000005f52602260045260245ffd5b93607f16936108fa56fea26469706673582212204c39ba673968bc422cef5a162adb229b4e53181cb83169db1195dd070115938064736f6c634300081b0033036b6384b5eca791c62761152d0c79bb0604c104a5fb6f4eb0703f3154bb3db0c2575a0e9e593c00f959f8c92f12db2869c3395a3b0502d05e2516446f71f85bb10e2d527612073b26eecdfd717e6a320cf44b4afac2b0732d9fcbe2b7fa0cf6",
  "linkReferences": {},
  "deployedLinkReferences": {}
}