{
  "_format": "hh-sol-artifact-1",
  "contractName": "BaseRateProviderFactory",
  "sourceName": "contracts/BaseRateProviderFactory.sol",
  "abi": [
    {
      "anonymous": false,
      "inputs": [
        {
          "indexed": true,
          "internalType": "address",
          "name": "rateProvider",
          "type": "address"
        }
      ],
      "name": "RateProviderCreated",
      "type": "event"
    },
    {
      "inputs": [
        {
          "internalType": "address",
          "name": "rateProvider",
          "type": "address"
        }
      ],
      "name": "isRateProviderFromFactory",
      "outputs": [
        {
          "internalType": "bool",
          "name": "",
          "type": "bool"
        }
      ],
      "stateMutability": "view",
      "type": "function"
    }
  ],
  "bytecode": "0x608060405234801561001057600080fd5b5060e88061001f6000396000f3fe6080604052348015600f57600080fd5b506004361060285760003560e01c806319912f7114602d575b600080fd5b606360383660046077565b73ffffffffffffffffffffffffffffffffffffffff1660009081526020819052604090205460ff1690565b604051901515815260200160405180910390f35b600060208284031215608857600080fd5b813573ffffffffffffffffffffffffffffffffffffffff8116811460ab57600080fd5b939250505056fea2646970667358221220e4247958d9bce5a0ce5d67f8983fdb20bef3d45ce26993b7d3d7c5641f2f25ef64736f6c634300080b0033",
  "linkReferences": {},
  "deployedLinkReferences": {}
}