{
  "_format": "hh-sol-artifact-1",
  "contractName": "ChainlinkRateProvider",
  "sourceName": "contracts/ChainlinkRateProvider.sol",
  "abi": [
    {
      "inputs": [
        {
          "internalType": "contract AggregatorV3Interface",
          "name": "feed",
          "type": "address"
        }
      ],
      "stateMutability": "nonpayable",
      "type": "constructor"
    },
    {
      "inputs": [],
      "name": "getRate",
      "outputs": [
        {
          "internalType": "uint256",
          "name": "",
          "type": "uint256"
        }
      ],
      "stateMutability": "view",
      "type": "function"
    },
    {
      "inputs": [],
      "name": "pricefeed",
      "outputs": [
        {
          "internalType": "contract AggregatorV3Interface",
          "name": "",
          "type": "address"
        }
      ],
      "stateMutability": "view",
      "type": "function"
    }
  ],
  "bytecode": "0x60c060405234801561001057600080fd5b5060405161059838038061059883398101604081905261002f916100eb565b806001600160a01b03166080816001600160a01b0316815250506100c26012826001600160a01b031663313ce5676040518163ffffffff1660e01b8152600401602060405180830381865afa15801561008c573d6000803e3d6000fd5b505050506040513d601f19601f820116820180604052508101906100b0919061011b565b60ff166100d660201b6101d81760201c565b6100cd90600a610238565b60a0525061025b565b60006100e28284610244565b90505b92915050565b6000602082840312156100fd57600080fd5b81516001600160a01b038116811461011457600080fd5b9392505050565b60006020828403121561012d57600080fd5b815160ff8116811461011457600080fd5b634e487b7160e01b600052601160045260246000fd5b600181815b8085111561018f5781600019048211156101755761017561013e565b8085161561018257918102915b93841c9390800290610159565b509250929050565b6000826101a6575060016100e5565b816101b3575060006100e5565b81600181146101c957600281146101d3576101ef565b60019150506100e5565b60ff8411156101e4576101e461013e565b50506001821b6100e5565b5060208310610133831016604e8410600b8410161715610212575081810a6100e5565b61021c8383610154565b80600019048211156102305761023061013e565b029392505050565b60006100e28383610197565b6000828210156102565761025661013e565b500390565b60805160a05161031361028560003960006101ad0152600081816040015260a701526103136000f3fe608060405234801561001057600080fd5b50600436106100365760003560e01c8063590f21131461003b578063679aefce1461008c575b600080fd5b6100627f000000000000000000000000000000000000000000000000000000000000000081565b60405173ffffffffffffffffffffffffffffffffffffffff90911681526020015b60405180910390f35b6100946100a2565b604051908152602001610083565b6000807f000000000000000000000000000000000000000000000000000000000000000073ffffffffffffffffffffffffffffffffffffffff1663feaf968c6040518163ffffffff1660e01b815260040160a060405180830381865afa158015610110573d6000803e3d6000fd5b505050506040513d601f19601f82011682018060405250810190610134919061020a565b505050915050600081136101a8576040517f08c379a000000000000000000000000000000000000000000000000000000000815260206004820152601b60248201527f496e76616c6964207072696365207261746520726573706f6e73650000000000604482015260640160405180910390fd5b6101d27f000000000000000000000000000000000000000000000000000000000000000082610289565b91505090565b60006101e482846102c6565b9392505050565b805169ffffffffffffffffffff8116811461020557600080fd5b919050565b600080600080600060a0868803121561022257600080fd5b61022b866101eb565b945060208601519350604086015192506060860151915061024e608087016101eb565b90509295509295909350565b7f4e487b7100000000000000000000000000000000000000000000000000000000600052601160045260246000fd5b6000817fffffffffffffffffffffffffffffffffffffffffffffffffffffffffffffffff04831182151516156102c1576102c161025a565b500290565b6000828210156102d8576102d861025a565b50039056fea2646970667358221220616f1f88194115ce4e7b5c9487117504096aa0c1a6978e58ad2486b1bd93eaae64736f6c634300080b0033",
  "linkReferences": {},
  "deployedLinkReferences": {}
}