{
  "_format": "hh-sol-artifact-1",
  "contractName": "UnbalancedAddViaSwapRouter",
  "sourceName": "contracts/UnbalancedAddViaSwapRouter.sol",
  "abi": [
    {
      "inputs": [
        {
          "internalType": "contract IVault",
          "name": "vault",
          "type": "address"
        },
        {
          "internalType": "contract IPermit2",
          "name": "permit2",
          "type": "address"
        },
        {
          "internalType": "contract IWETH",
          "name": "weth",
          "type": "address"
        },
        {
          "internalType": "string",
          "name": "routerVersion",
          "type": "string"
        }
      ],
      "stateMutability": "nonpayable",
      "type": "constructor"
    },
    {
      "inputs": [
        {
          "internalType": "address",
          "name": "target",
          "type": "address"
        }
      ],
      "name": "AddressEmptyCode",
      "type": "error"
    },
    {
      "inputs": [
        {
          "internalType": "uint256",
          "name": "amountIn",
          "type": "uint256"
        },
        {
          "internalType": "uint256",
          "name": "maxAdjustableAmount",
          "type": "uint256"
        }
      ],
      "name": "AmountInAboveMaxAdjustableAmount",
      "type": "error"
    },
    {
      "inputs": [
        {
          "internalType": "uint256",
          "name": "amountIn",
          "type": "uint256"
        },
        {
          "internalType": "uint256",
          "name": "exactAmount",
          "type": "uint256"
        }
      ],
      "name": "AmountInDoesNotMatchExact",
      "type": "error"
    },
    {
      "inputs": [],
      "name": "ErrorSelectorNotFound",
      "type": "error"
    },
    {
      "inputs": [],
      "name": "EthTransfer",
      "type": "error"
    },
    {
      "inputs": [],
      "name": "FailedCall",
      "type": "error"
    },
    {
      "inputs": [],
      "name": "InputLengthMismatch",
      "type": "error"
    },
    {
      "inputs": [
        {
          "internalType": "uint256",
          "name": "balance",
          "type": "uint256"
        },
        {
          "internalType": "uint256",
          "name": "needed",
          "type": "uint256"
        }
      ],
      "name": "InsufficientBalance",
      "type": "error"
    },
    {
      "inputs": [],
      "name": "InsufficientEth",
      "type": "error"
    },
    {
      "inputs": [
        {
          "internalType": "contract IERC20",
          "name": "token",
          "type": "address"
        }
      ],
      "name": "InsufficientPayment",
      "type": "error"
    },
    {
      "inputs": [],
      "name": "NotTwoTokenPool",
      "type": "error"
    },
    {
      "inputs": [],
      "name": "OperationNotSupported",
      "type": "error"
    },
    {
      "inputs": [],
      "name": "ReentrancyGuardReentrantCall",
      "type": "error"
    },
    {
      "inputs": [
        {
          "internalType": "uint8",
          "name": "bits",
          "type": "uint8"
        },
        {
          "internalType": "uint256",
          "name": "value",
          "type": "uint256"
        }
      ],
      "name": "SafeCastOverflowedUintDowncast",
      "type": "error"
    },
    {
      "inputs": [
        {
          "internalType": "address",
          "name": "token",
          "type": "address"
        }
      ],
      "name": "SafeERC20FailedOperation",
      "type": "error"
    },
    {
      "inputs": [
        {
          "internalType": "address",
          "name": "sender",
          "type": "address"
        }
      ],
      "name": "SenderIsNotVault",
      "type": "error"
    },
    {
      "inputs": [],
      "name": "SwapDeadline",
      "type": "error"
    },
    {
      "anonymous": false,
      "inputs": [
        {
          "indexed": true,
          "internalType": "address",
          "name": "sender",
          "type": "address"
        },
        {
          "indexed": false,
          "internalType": "uint256",
          "name": "excessAmount",
          "type": "uint256"
        }
      ],
      "name": "EthReturnFailure",
      "type": "event"
    },
    {
      "inputs": [
        {
          "components": [
            {
              "internalType": "address",
              "name": "sender",
              "type": "address"
            },
            {
              "internalType": "address",
              "name": "pool",
              "type": "address"
            },
            {
              "internalType": "uint256[]",
              "name": "maxAmountsIn",
              "type": "uint256[]"
            },
            {
              "internalType": "uint256",
              "name": "minBptAmountOut",
              "type": "uint256"
            },
            {
              "internalType": "enum AddLiquidityKind",
              "name": "kind",
              "type": "uint8"
            },
            {
              "internalType": "bool",
              "name": "wethIsEth",
              "type": "bool"
            },
            {
              "internalType": "bytes",
              "name": "userData",
              "type": "bytes"
            }
          ],
          "internalType": "struct AddLiquidityHookParams",
          "name": "params",
          "type": "tuple"
        }
      ],
      "name": "addLiquidityHook",
      "outputs": [
        {
          "internalType": "uint256[]",
          "name": "amountsIn",
          "type": "uint256[]"
        },
        {
          "internalType": "uint256",
          "name": "bptAmountOut",
          "type": "uint256"
        },
        {
          "internalType": "bytes",
          "name": "returnData",
          "type": "bytes"
        }
      ],
      "stateMutability": "nonpayable",
      "type": "function"
    },
    {
      "inputs": [
        {
          "internalType": "address",
          "name": "pool",
          "type": "address"
        },
        {
          "internalType": "uint256",
          "name": "deadline",
          "type": "uint256"
        },
        {
          "internalType": "bool",
          "name": "wethIsEth",
          "type": "bool"
        },
        {
          "components": [
            {
              "internalType": "uint256",
              "name": "minBptAmountOut",
              "type": "uint256"
            },
            {
              "internalType": "contract IERC20",
              "name": "exactToken",
              "type": "address"
            },
            {
              "internalType": "uint256",
              "name": "exactAmount",
              "type": "uint256"
            },
            {
              "internalType": "uint256",
              "name": "maxAdjustableAmount",
              "type": "uint256"
            },
            {
              "internalType": "bytes",
              "name": "addLiquidityUserData",
              "type": "bytes"
            },
            {
              "internalType": "bytes",
              "name": "swapUserData",
              "type": "bytes"
            }
          ],
          "internalType": "struct IUnbalancedAddViaSwapRouter.AddLiquidityAndSwapParams",
          "name": "params",
          "type": "tuple"
        }
      ],
      "name": "addLiquidityUnbalanced",
      "outputs": [
        {
          "internalType": "uint256[]",
          "name": "amountsIn",
          "type": "uint256[]"
        }
      ],
      "stateMutability": "payable",
      "type": "function"
    },
    {
      "inputs": [
        {
          "components": [
            {
              "internalType": "address",
              "name": "pool",
              "type": "address"
            },
            {
              "internalType": "address",
              "name": "sender",
              "type": "address"
            },
            {
              "internalType": "uint256",
              "name": "deadline",
              "type": "uint256"
            },
            {
              "internalType": "bool",
              "name": "wethIsEth",
              "type": "bool"
            },
            {
              "components": [
                {
                  "internalType": "uint256",
                  "name": "minBptAmountOut",
                  "type": "uint256"
                },
                {
                  "internalType": "contract IERC20",
                  "name": "exactToken",
                  "type": "address"
                },
                {
                  "internalType": "uint256",
                  "name": "exactAmount",
                  "type": "uint256"
                },
                {
                  "internalType": "uint256",
                  "name": "maxAdjustableAmount",
                  "type": "uint256"
                },
                {
                  "internalType": "bytes",
                  "name": "addLiquidityUserData",
                  "type": "bytes"
                },
                {
                  "internalType": "bytes",
                  "name": "swapUserData",
                  "type": "bytes"
                }
              ],
              "internalType": "struct IUnbalancedAddViaSwapRouter.AddLiquidityAndSwapParams",
              "name": "operationParams",
              "type": "tuple"
            }
          ],
          "internalType": "struct IUnbalancedAddViaSwapRouter.AddLiquidityAndSwapHookParams",
          "name": "hookParams",
          "type": "tuple"
        }
      ],
      "name": "addLiquidityUnbalancedHook",
      "outputs": [
        {
          "internalType": "uint256[]",
          "name": "amountsIn",
          "type": "uint256[]"
        }
      ],
      "stateMutability": "nonpayable",
      "type": "function"
    },
    {
      "inputs": [],
      "name": "getPermit2",
      "outputs": [
        {
          "internalType": "contract IPermit2",
          "name": "",
          "type": "address"
        }
      ],
      "stateMutability": "view",
      "type": "function"
    },
    {
      "inputs": [],
      "name": "getSender",
      "outputs": [
        {
          "internalType": "address",
          "name": "",
          "type": "address"
        }
      ],
      "stateMutability": "view",
      "type": "function"
    },
    {
      "inputs": [],
      "name": "getVault",
      "outputs": [
        {
          "internalType": "contract IVault",
          "name": "",
          "type": "address"
        }
      ],
      "stateMutability": "view",
      "type": "function"
    },
    {
      "inputs": [],
      "name": "getWeth",
      "outputs": [
        {
          "internalType": "contract IWETH",
          "name": "",
          "type": "address"
        }
      ],
      "stateMutability": "view",
      "type": "function"
    },
    {
      "inputs": [
        {
          "components": [
            {
              "internalType": "address",
              "name": "sender",
              "type": "address"
            },
            {
              "internalType": "address",
              "name": "pool",
              "type": "address"
            },
            {
              "internalType": "contract IERC20[]",
              "name": "tokens",
              "type": "address[]"
            },
            {
              "internalType": "uint256[]",
              "name": "exactAmountsIn",
              "type": "uint256[]"
            },
            {
              "internalType": "uint256",
              "name": "minBptAmountOut",
              "type": "uint256"
            },
            {
              "internalType": "bool",
              "name": "wethIsEth",
              "type": "bool"
            },
            {
              "internalType": "bytes",
              "name": "userData",
              "type": "bytes"
            }
          ],
          "internalType": "struct InitializeHookParams",
          "name": "params",
          "type": "tuple"
        }
      ],
      "name": "initializeHook",
      "outputs": [
        {
          "internalType": "uint256",
          "name": "bptAmountOut",
          "type": "uint256"
        }
      ],
      "stateMutability": "nonpayable",
      "type": "function"
    },
    {
      "inputs": [
        {
          "internalType": "bytes[]",
          "name": "data",
          "type": "bytes[]"
        }
      ],
      "name": "multicall",
      "outputs": [
        {
          "internalType": "bytes[]",
          "name": "results",
          "type": "bytes[]"
        }
      ],
      "stateMutability": "payable",
      "type": "function"
    },
    {
      "inputs": [
        {
          "components": [
            {
              "internalType": "address",
              "name": "token",
              "type": "address"
            },
            {
              "internalType": "address",
              "name": "owner",
              "type": "address"
            },
            {
              "internalType": "address",
              "name": "spender",
              "type": "address"
            },
            {
              "internalType": "uint256",
              "name": "amount",
              "type": "uint256"
            },
            {
              "internalType": "uint256",
              "name": "nonce",
              "type": "uint256"
            },
            {
              "internalType": "uint256",
              "name": "deadline",
              "type": "uint256"
            }
          ],
          "internalType": "struct IRouterCommon.PermitApproval[]",
          "name": "permitBatch",
          "type": "tuple[]"
        },
        {
          "internalType": "bytes[]",
          "name": "permitSignatures",
          "type": "bytes[]"
        },
        {
          "components": [
            {
              "components": [
                {
                  "internalType": "address",
                  "name": "token",
                  "type": "address"
                },
                {
                  "internalType": "uint160",
                  "name": "amount",
                  "type": "uint160"
                },
                {
                  "internalType": "uint48",
                  "name": "expiration",
                  "type": "uint48"
                },
                {
                  "internalType": "uint48",
                  "name": "nonce",
                  "type": "uint48"
                }
              ],
              "internalType": "struct IAllowanceTransfer.PermitDetails[]",
              "name": "details",
              "type": "tuple[]"
            },
            {
              "internalType": "address",
              "name": "spender",
              "type": "address"
            },
            {
              "internalType": "uint256",
              "name": "sigDeadline",
              "type": "uint256"
            }
          ],
          "internalType": "struct IAllowanceTransfer.PermitBatch",
          "name": "permit2Batch",
          "type": "tuple"
        },
        {
          "internalType": "bytes",
          "name": "permit2Signature",
          "type": "bytes"
        },
        {
          "internalType": "bytes[]",
          "name": "multicallData",
          "type": "bytes[]"
        }
      ],
      "name": "permitBatchAndCall",
      "outputs": [
        {
          "internalType": "bytes[]",
          "name": "",
          "type": "bytes[]"
        }
      ],
      "stateMutability": "payable",
      "type": "function"
    },
    {
      "inputs": [
        {
          "components": [
            {
              "internalType": "address",
              "name": "sender",
              "type": "address"
            },
            {
              "internalType": "address",
              "name": "pool",
              "type": "address"
            },
            {
              "internalType": "uint256[]",
              "name": "maxAmountsIn",
              "type": "uint256[]"
            },
            {
              "internalType": "uint256",
              "name": "minBptAmountOut",
              "type": "uint256"
            },
            {
              "internalType": "enum AddLiquidityKind",
              "name": "kind",
              "type": "uint8"
            },
            {
              "internalType": "bool",
              "name": "wethIsEth",
              "type": "bool"
            },
            {
              "internalType": "bytes",
              "name": "userData",
              "type": "bytes"
            }
          ],
          "internalType": "struct AddLiquidityHookParams",
          "name": "params",
          "type": "tuple"
        }
      ],
      "name": "queryAddLiquidityHook",
      "outputs": [
        {
          "internalType": "uint256[]",
          "name": "amountsIn",
          "type": "uint256[]"
        },
        {
          "internalType": "uint256",
          "name": "bptAmountOut",
          "type": "uint256"
        },
        {
          "internalType": "bytes",
          "name": "returnData",
          "type": "bytes"
        }
      ],
      "stateMutability": "nonpayable",
      "type": "function"
    },
    {
      "inputs": [
        {
          "internalType": "address",
          "name": "pool",
          "type": "address"
        },
        {
          "internalType": "address",
          "name": "sender",
          "type": "address"
        },
        {
          "components": [
            {
              "internalType": "uint256",
              "name": "minBptAmountOut",
              "type": "uint256"
            },
            {
              "internalType": "contract IERC20",
              "name": "exactToken",
              "type": "address"
            },
            {
              "internalType": "uint256",
              "name": "exactAmount",
              "type": "uint256"
            },
            {
              "internalType": "uint256",
              "name": "maxAdjustableAmount",
              "type": "uint256"
            },
            {
              "internalType": "bytes",
              "name": "addLiquidityUserData",
              "type": "bytes"
            },
            {
              "internalType": "bytes",
              "name": "swapUserData",
              "type": "bytes"
            }
          ],
          "internalType": "struct IUnbalancedAddViaSwapRouter.AddLiquidityAndSwapParams",
          "name": "params",
          "type": "tuple"
        }
      ],
      "name": "queryAddLiquidityUnbalanced",
      "outputs": [
        {
          "internalType": "uint256[]",
          "name": "amountsIn",
          "type": "uint256[]"
        }
      ],
      "stateMutability": "nonpayable",
      "type": "function"
    },
    {
      "inputs": [
        {
          "components": [
            {
              "internalType": "address",
              "name": "pool",
              "type": "address"
            },
            {
              "internalType": "address",
              "name": "sender",
              "type": "address"
            },
            {
              "internalType": "uint256",
              "name": "deadline",
              "type": "uint256"
            },
            {
              "internalType": "bool",
              "name": "wethIsEth",
              "type": "bool"
            },
            {
              "components": [
                {
                  "internalType": "uint256",
                  "name": "minBptAmountOut",
                  "type": "uint256"
                },
                {
                  "internalType": "contract IERC20",
                  "name": "exactToken",
                  "type": "address"
                },
                {
                  "internalType": "uint256",
                  "name": "exactAmount",
                  "type": "uint256"
                },
                {
                  "internalType": "uint256",
                  "name": "maxAdjustableAmount",
                  "type": "uint256"
                },
                {
                  "internalType": "bytes",
                  "name": "addLiquidityUserData",
                  "type": "bytes"
                },
                {
                  "internalType": "bytes",
                  "name": "swapUserData",
                  "type": "bytes"
                }
              ],
              "internalType": "struct IUnbalancedAddViaSwapRouter.AddLiquidityAndSwapParams",
              "name": "operationParams",
              "type": "tuple"
            }
          ],
          "internalType": "struct IUnbalancedAddViaSwapRouter.AddLiquidityAndSwapHookParams",
          "name": "params",
          "type": "tuple"
        }
      ],
      "name": "queryAddLiquidityUnbalancedHook",
      "outputs": [
        {
          "internalType": "uint256[]",
          "name": "amountsIn",
          "type": "uint256[]"
        }
      ],
      "stateMutability": "nonpayable",
      "type": "function"
    },
    {
      "inputs": [
        {
          "components": [
            {
              "internalType": "address",
              "name": "sender",
              "type": "address"
            },
            {
              "internalType": "address",
              "name": "pool",
              "type": "address"
            },
            {
              "internalType": "uint256[]",
              "name": "minAmountsOut",
              "type": "uint256[]"
            },
            {
              "internalType": "uint256",
              "name": "maxBptAmountIn",
              "type": "uint256"
            },
            {
              "internalType": "enum RemoveLiquidityKind",
              "name": "kind",
              "type": "uint8"
            },
            {
              "internalType": "bool",
              "name": "wethIsEth",
              "type": "bool"
            },
            {
              "internalType": "bytes",
              "name": "userData",
              "type": "bytes"
            }
          ],
          "internalType": "struct RemoveLiquidityHookParams",
          "name": "params",
          "type": "tuple"
        }
      ],
      "name": "queryRemoveLiquidityHook",
      "outputs": [
        {
          "internalType": "uint256",
          "name": "bptAmountIn",
          "type": "uint256"
        },
        {
          "internalType": "uint256[]",
          "name": "amountsOut",
          "type": "uint256[]"
        },
        {
          "internalType": "bytes",
          "name": "returnData",
          "type": "bytes"
        }
      ],
      "stateMutability": "nonpayable",
      "type": "function"
    },
    {
      "inputs": [
        {
          "internalType": "address",
          "name": "pool",
          "type": "address"
        },
        {
          "internalType": "address",
          "name": "sender",
          "type": "address"
        },
        {
          "internalType": "uint256",
          "name": "exactBptAmountIn",
          "type": "uint256"
        }
      ],
      "name": "queryRemoveLiquidityRecoveryHook",
      "outputs": [
        {
          "internalType": "uint256[]",
          "name": "amountsOut",
          "type": "uint256[]"
        }
      ],
      "stateMutability": "nonpayable",
      "type": "function"
    },
    {
      "inputs": [
        {
          "components": [
            {
              "internalType": "address",
              "name": "sender",
              "type": "address"
            },
            {
              "internalType": "enum SwapKind",
              "name": "kind",
              "type": "uint8"
            },
            {
              "internalType": "address",
              "name": "pool",
              "type": "address"
            },
            {
              "internalType": "contract IERC20",
              "name": "tokenIn",
              "type": "address"
            },
            {
              "internalType": "contract IERC20",
              "name": "tokenOut",
              "type": "address"
            },
            {
              "internalType": "uint256",
              "name": "amountGiven",
              "type": "uint256"
            },
            {
              "internalType": "uint256",
              "name": "limit",
              "type": "uint256"
            },
            {
              "internalType": "uint256",
              "name": "deadline",
              "type": "uint256"
            },
            {
              "internalType": "bool",
              "name": "wethIsEth",
              "type": "bool"
            },
            {
              "internalType": "bytes",
              "name": "userData",
              "type": "bytes"
            }
          ],
          "internalType": "struct SwapSingleTokenHookParams",
          "name": "params",
          "type": "tuple"
        }
      ],
      "name": "querySwapHook",
      "outputs": [
        {
          "internalType": "uint256",
          "name": "",
          "type": "uint256"
        }
      ],
      "stateMutability": "nonpayable",
      "type": "function"
    },
    {
      "inputs": [
        {
          "components": [
            {
              "internalType": "address",
              "name": "sender",
              "type": "address"
            },
            {
              "internalType": "address",
              "name": "pool",
              "type": "address"
            },
            {
              "internalType": "uint256[]",
              "name": "minAmountsOut",
              "type": "uint256[]"
            },
            {
              "internalType": "uint256",
              "name": "maxBptAmountIn",
              "type": "uint256"
            },
            {
              "internalType": "enum RemoveLiquidityKind",
              "name": "kind",
              "type": "uint8"
            },
            {
              "internalType": "bool",
              "name": "wethIsEth",
              "type": "bool"
            },
            {
              "internalType": "bytes",
              "name": "userData",
              "type": "bytes"
            }
          ],
          "internalType": "struct RemoveLiquidityHookParams",
          "name": "params",
          "type": "tuple"
        }
      ],
      "name": "removeLiquidityHook",
      "outputs": [
        {
          "internalType": "uint256",
          "name": "bptAmountIn",
          "type": "uint256"
        },
        {
          "internalType": "uint256[]",
          "name": "amountsOut",
          "type": "uint256[]"
        },
        {
          "internalType": "bytes",
          "name": "returnData",
          "type": "bytes"
        }
      ],
      "stateMutability": "nonpayable",
      "type": "function"
    },
    {
      "inputs": [
        {
          "internalType": "address",
          "name": "pool",
          "type": "address"
        },
        {
          "internalType": "address",
          "name": "sender",
          "type": "address"
        },
        {
          "internalType": "uint256",
          "name": "exactBptAmountIn",
          "type": "uint256"
        },
        {
          "internalType": "uint256[]",
          "name": "minAmountsOut",
          "type": "uint256[]"
        }
      ],
      "name": "removeLiquidityRecoveryHook",
      "outputs": [
        {
          "internalType": "uint256[]",
          "name": "amountsOut",
          "type": "uint256[]"
        }
      ],
      "stateMutability": "nonpayable",
      "type": "function"
    },
    {
      "inputs": [
        {
          "components": [
            {
              "internalType": "address",
              "name": "sender",
              "type": "address"
            },
            {
              "internalType": "enum SwapKind",
              "name": "kind",
              "type": "uint8"
            },
            {
              "internalType": "address",
              "name": "pool",
              "type": "address"
            },
            {
              "internalType": "contract IERC20",
              "name": "tokenIn",
              "type": "address"
            },
            {
              "internalType": "contract IERC20",
              "name": "tokenOut",
              "type": "address"
            },
            {
              "internalType": "uint256",
              "name": "amountGiven",
              "type": "uint256"
            },
            {
              "internalType": "uint256",
              "name": "limit",
              "type": "uint256"
            },
            {
              "internalType": "uint256",
              "name": "deadline",
              "type": "uint256"
            },
            {
              "internalType": "bool",
              "name": "wethIsEth",
              "type": "bool"
            },
            {
              "internalType": "bytes",
              "name": "userData",
              "type": "bytes"
            }
          ],
          "internalType": "struct SwapSingleTokenHookParams",
          "name": "params",
          "type": "tuple"
        }
      ],
      "name": "swapSingleTokenHook",
      "outputs": [
        {
          "internalType": "uint256",
          "name": "",
          "type": "uint256"
        }
      ],
      "stateMutability": "nonpayable",
      "type": "function"
    },
    {
      "inputs": [],
      "name": "version",
      "outputs": [
        {
          "internalType": "string",
          "name": "",
          "type": "string"
        }
      ],
      "stateMutability": "view",
      "type": "function"
    },
    {
      "stateMutability": "payable",
      "type": "receive"
    }
  ],
  "bytecode": "0x61014060409080825234610427576145ea803803809161001f8285610446565b83398101608082820312610427578151926001600160a01b038085168503610427576020808501519482861694858703610427578482015193841684036104275760608201516001600160401b03928382116104275701601f98828a83011215610427578151848111610413578a92601f19946100a488878c51978601160186610446565b82855287838301011161042757815f92888093018387015e8401015261010887516100ce8161042b565b600b81526a14d95b99195c91dd585c9960aa1b878201528851906100f18261042b565b600682526539b2b73232b960d11b88830152610469565b60805260a0528051928311610413575f54916001928381811c91168015610409575b868210146103f5578a81116103b2575b5084998411600114610353575082916101bb959697989983925f94610348575b50501b915f199060031b1c1916175f555b83516101768161042b565b600c81526b2937baba32b921b7b6b6b7b760a11b82820152701a5cd4995d1d5c9b915d1a131bd8dad959607a1b8551926101af8461042b565b60118452830152610469565b60c05260e0526101009283526101209115825251906140ce928361051c843960805183818161056a0152818161126e01528181612852015281816129be0152612efe015260a0518381816102440152818161050b0152818161074501528181610917015281816109bc01528181610bbe01528181610f96015281816111710152818161138e01528181611415015281816115550152818161208501528181612b1f015281816130e501528181613272015281816133e30152818161367e01528181613812015281816139d101528181613b5601528181613cd201528181613dbf0152613fab015260c0518381816127ae0152818161291a0152612f45015260e051838181602201528181610ea0015281816110e50152818161161701528181611f1f015281816137aa01528181613b1201528181613ba801528181613d770152613e1101525182818161181e01528181611ceb01528181611df101526139ae015251818181610e10015281816114780152818161149a0152818161194c015281816127dd01526129490152f35b015192505f8061015a565b83929316985f8052845f20915f5b8b811061039d5750836101bb9798999a9b10610385575b505050811b015f5561016b565b01515f1960f88460031b161c191690555f8080610378565b81830151845592850192918601918601610361565b5f8052855f208b80870160051c8201928888106103ec575b0160051c019084905b8281106103e157505061013a565b5f81550184906103d3565b925081926103ca565b634e487b7160e01b5f52602260045260245ffd5b90607f169061012a565b634e487b7160e01b5f52604160045260245ffd5b5f80fd5b604081019081106001600160401b0382111761041357604052565b601f909101601f19168101906001600160401b0382119082101761041357604052565b906104d6603a60209260405193849181808401977f62616c616e6365722d6c6162732e76332e73746f726167652e000000000000008952805191829101603986015e830190601760f91b60398301528051928391018583015e015f8382015203601a810184520182610446565b5190205f198101908111610507576040519060208201908152602082526104fc8261042b565b9051902060ff191690565b634e487b7160e01b5f52601160045260245ffdfe60806040526004361015610072575b3615610018575f80fd5b6001600160a01b037f000000000000000000000000000000000000000000000000000000000000000016330361004a57005b7f0540ddf6000000000000000000000000000000000000000000000000000000005f5260045ffd5b5f3560e01c8063086fad6614611f4e578063107c279f14611f0a57806319c6989f1461184d5780631bbf2e231461180957806354fd4d50146116cc5780635b343791146112965780635e01eb5a146112515780635f9815ff1461110d57806368a24fe014610de45780637b03c7ba14610b9057806382cd54fb146109465780638d928af814610902578063aba40fa7146107f7578063ac9650d8146107b3578063b24bd57114610669578063b5696b8514610607578063be5ae841146105b1578063c1e85fb0146103e2578063d2ae94ac146102c55763efd85f140361000e57346102c1576101603661218c565b610168612b15565b6001600160a01b039061017d60208201612ac7565b61018682612ac7565b926101946040840184612b73565b909360808101359360058510156102c157836101ff610240966060856101ea5f9c9b6101da99878f9e6101cd60c06102069d0187612a2a565b9a909b6040519e8f6123d3565b168d521660208c01523691612476565b60408901520135606087015260808601612c48565b369161250e565b60a08201526040519485809481937f4af29ec400000000000000000000000000000000000000000000000000000000835260048301612c9d565b03927f0000000000000000000000000000000000000000000000000000000000000000165af180156102b6575f905f925f9161028c575b5061028890604051938493846122c4565b0390f35b905061028892506102af91503d805f833e6102a7818361243b565b810190612c54565b9092610277565b6040513d5f823e3d90fd5b5f80fd5b346102c1576102d3366124c4565b6102db612ae8565b6102e3612b15565b604081013542116103ba5761037961038361037e8361030461028895613094565b9490602083019261031484612ac7565b9061034c61032184612a96565b516001600160a01b039260606103368c612a96565b519101948461034487612adb565b931690613789565b61035e61035886612ac7565b93612aa3565b511661037361036c89612aa3565b5192612adb565b92613789565b612ac7565b612f3b565b5f7f9b779b17422d0df92223018b32b4d1fa46e071723d6817e2486d003becc55f005d604051918291602083526020830190612291565b7fe08b8af0000000000000000000000000000000000000000000000000000000005f5260045ffd5b346102c15760606003193601126102c1576103fb6122f0565b6020610405612306565b60443567ffffffffffffffff81116102c15760c060031982360301126102c1576105075f92916104bd6104cb61043b8695612ef9565b976104846001600160a01b0394856040519361045685612403565b168352308a8401526fffffffffffffffffffffffffffffffff6040840152876060840152369060040161255f565b60808201526040519283917fb5696b85000000000000000000000000000000000000000000000000000000008a840152602483016125e9565b03601f19810183528261243b565b6040519485809481937fedfa356800000000000000000000000000000000000000000000000000000000835289600484015260248301906121eb565b03927f0000000000000000000000000000000000000000000000000000000000000000165af180156102b65761054d915f9161058f575b50828082518301019101612777565b91610567575b610288604051928284938452830190612291565b5f7f00000000000000000000000000000000000000000000000000000000000000005d610553565b6105ab91503d805f833e6105a3818361243b565b8101906126f0565b8461053e565b346102c1576105d76105c236612330565b6105ca612ae8565b6105d2612b15565b613ec5565b50505f7f9b779b17422d0df92223018b32b4d1fa46e071723d6817e2486d003becc55f005d604051908152602090f35b346102c15761028861063061061b366124c4565b610623612ae8565b61062b612b15565b613094565b90505f7f9b779b17422d0df92223018b32b4d1fa46e071723d6817e2486d003becc55f005d604051918291602083526020830190612291565b346102c1576106773661218c565b61067f612b15565b6001600160a01b0361069360208301612ac7565b61069c83612ac7565b916106aa6040850185612b73565b949060808201359360048510156102c157836101ff610741966106f9610707955f9b606089878f9e6101cd60c06106e29e0184612a2a565b168d521660208c0152013560408a01523691612476565b606087015260808601612e33565b60a08201526040519485809481937f2145789700000000000000000000000000000000000000000000000000000000835260048301612e87565b03927f0000000000000000000000000000000000000000000000000000000000000000165af180156102b6575f905f925f91610789575b50610288906040519384938461235f565b905061028892506107ac91503d805f833e6107a4818361243b565b810190612e3f565b9092610778565b60206003193601126102c15760043567ffffffffffffffff81116102c1576107eb6107e56102889236906004016121ba565b90612909565b60405191829182612210565b60806003193601126102c15761080b6122f0565b6020604435918215158093036102c1576064359267ffffffffffffffff84116102c15760c060031985360301126102c1576105075f92916104bd6108c6859461088d61085633612ef9565b996001600160a01b0395866040519461086e86612403565b168452338b85015260243560408501526060840152369060040161255f565b60808201526040519283917fd2ae94ac000000000000000000000000000000000000000000000000000000008a840152602483016125e9565b6040519485809481937f48c8949100000000000000000000000000000000000000000000000000000000835289600484015260248301906121eb565b346102c1575f6003193601126102c1576040517f00000000000000000000000000000000000000000000000000000000000000006001600160a01b03168152602090f35b346102c15760806003193601126102c15761095f6122f0565b610967612306565b906001916064359167ffffffffffffffff83116102c157366023840112156102c1576109a0610a15933690602481600401359101612476565b6109a8612ae8565b6109b0612b15565b6001600160a01b035f817f00000000000000000000000000000000000000000000000000000000000000001692604051809781927fa07d6040000000000000000000000000000000000000000000000000000000008352604435898960048601612e04565b038183865af19485156102b6575f95610b6c575b506040517fca4f280300000000000000000000000000000000000000000000000000000000815292811660048401525f83602481855afa9081156102b65786935f92610b48575b509091925f905b610a89575b6102888661038387612f3b565b8251811015610b43579081610aa18895949388612ab3565b5180610ab4575b50840190919293610a77565b945081610ac18285612ab3565b5116843b156102c1576040517fae6393290000000000000000000000000000000000000000000000000000000081526001600160a01b039182166004820152908716602482015260448101959095525f8560648183885af19485156102b657889515610aa8575f919550610b34816123ef565b8003126102c157869388610aa8565b610a7c565b610b659192503d805f833e610b5d818361243b565b810190612d0f565b9087610a70565b610b899195503d805f833e610b81818361243b565b810190612777565b9386610a29565b346102c157610b9e3661218c565b610ba6612ae8565b610bae612b15565b6001600160a01b039060208101907f00000000000000000000000000000000000000000000000000000000000000008316610be883612ac7565b610bf183612ac7565b91610bff6040850185612b73565b92909360808601359160048310156102c157886101ff5f94610c5c610ca699610c429985610c6a98610c358f60c0810190612a2a565b9890996040519e8f6123d3565b168d521660208c015260608d013560408c01523691612476565b606089015260808801612e33565b9260a09360a0820152604051809581927f2145789700000000000000000000000000000000000000000000000000000000835260048301612e87565b038183855af19485156102b65786915f915f955f98610db8575b5090610ccc5f92612ac7565b6040517fca4f2803000000000000000000000000000000000000000000000000000000008152991660048a0152889060249082905afa9687156102b6575f97610d9c575b505f5b8751811015610d5b57600190610d55610d2b88612ac7565b85610d36848d612ab3565b5116610d42848a612ab3565b5190610d4f898c01612adb565b92613da0565b01610d13565b848261028889610d6d61037e8b612ac7565b5f7f9b779b17422d0df92223018b32b4d1fa46e071723d6817e2486d003becc55f005d6040519384938461235f565b610db19197503d805f833e610b5d818361243b565b9587610d10565b610dd69198505f929650610ccc93503d8084833e6107a4818361243b565b969193909698919250610cc0565b346102c157610df236612330565b610dfa612ae8565b610e02612b15565b610e0b81613ec5565b9291927f00000000000000000000000000000000000000000000000000000000000000001580156110b9575b15610f0957610e66610e8992610e4c85612ac7565b90610e5960608701612ac7565b6103736101008801612adb565b610e6f83612ac7565b90610e7c60808501612ac7565b610d4f6101008601612adb565b610e9560608201612ac7565b6001600160a01b03807f000000000000000000000000000000000000000000000000000000000000000016911614610ef7575b505f7f9b779b17422d0df92223018b32b4d1fa46e071723d6817e2486d003becc55f005d604051908152602090f35b61037e610f0391612ac7565b81610ec8565b6020830135916002831015806102c1578061101857836110ab57610f9060a0860135915b6001600160a01b036060880193602081610f4687612ac7565b60405196879283927f15afd40900000000000000000000000000000000000000000000000000000000845260048401602090939291936001600160a01b0360408201951681520152565b03815f867f0000000000000000000000000000000000000000000000000000000000000000165af19384156102b6575f9461107a575b5083106110455750806102c157611018576001610e899514610feb575b505050610e66565b61100a61101093611004610ffe89612ac7565b94612ac7565b92612d99565b91613b3b565b848080610fe3565b7f4e487b71000000000000000000000000000000000000000000000000000000005f52602160045260245ffd5b61104e84612ac7565b7f02150b55000000000000000000000000000000000000000000000000000000005f521660045260245ffd5b61109d91945060203d6020116110a4575b611095818361243b565b810190612bc7565b928a610fc6565b503d61108b565b610f9060c086013591610f2d565b506110c76101008401612adb565b8015610e3757506110da60608401612ac7565b6001600160a01b03807f000000000000000000000000000000000000000000000000000000000000000016911614610e37565b346102c15760606003193601126102c1576111266122f0565b61112e612306565b611136612b15565b6040517fca4f28030000000000000000000000000000000000000000000000000000000081526001600160a01b0383811660048301529091907f0000000000000000000000000000000000000000000000000000000000000000165f83602481845afa9384156102b6575f6111b86111f39682968391611237575b5051612dd3565b93604051968795869485937fa07d60400000000000000000000000000000000000000000000000000000000085526044359160048601612e04565b03925af180156102b657610288915f9161121d575b50604051918291602083526020830190612291565b61123191503d805f833e610b81818361243b565b82611208565b61124b91503d8085833e610b5d818361243b565b886111b1565b346102c1575f6003193601126102c1576040516001600160a01b037f00000000000000000000000000000000000000000000000000000000000000005c168152602090f35b346102c1576112a43661218c565b6112ac612ae8565b6112b4612b15565b60208101906112c282612ac7565b906112cc81612ac7565b6112d96040830183612b73565b93909160808401359060058210156102c1576001600160a01b036101ff611349936113315f976113819a61131060c08c018c612a2a565b969097816040519b6113218d6123d3565b168b521660208a01523691612476565b60408701526060880135606087015260808601612c48565b60a0820152604051809481927f4af29ec400000000000000000000000000000000000000000000000000000000835260048301612c9d565b0381836001600160a01b037f0000000000000000000000000000000000000000000000000000000000000000165af19182156102b6575f935f915f946116a5575b506113cc90612ac7565b906001600160a01b03604051927fca4f28030000000000000000000000000000000000000000000000000000000084521660048301525f82602481800301816001600160a01b037f0000000000000000000000000000000000000000000000000000000000000000165afa9182156102b6575f92611689575b505f5b8251811015611648576001600160a01b036114638285612ab3565b511661146f8288612ab3565b51801561163e577f0000000000000000000000000000000000000000000000000000000000000000157f00000000000000000000000000000000000000000000000000000000000000006115f9575b156114e757600192916114e1916114d488612ac7565b9161037360a08a01612adb565b01611448565b906114ff836114f96040890189612b73565b90612bf6565b6040517f15afd4090000000000000000000000000000000000000000000000000000000081526001600160a01b0383166004820152903560248201819052909290602084806044810103815f6001600160a01b037f0000000000000000000000000000000000000000000000000000000000000000165af19384156102b6575f946115d8575b5083106115ac57916115a79161100a600195946115a18a612ac7565b93612d99565b6114e1565b507f02150b55000000000000000000000000000000000000000000000000000000005f5260045260245ffd5b6115f291945060203d6020116110a457611095818361243b565b928a611585565b5061160660a08701612adb565b80156114be57506001600160a01b037f00000000000000000000000000000000000000000000000000000000000000001682146114be565b50506001906114e1565b50846102888561165a61037e87612ac7565b5f7f9b779b17422d0df92223018b32b4d1fa46e071723d6817e2486d003becc55f005d604051938493846122c4565b61169e9192503d805f833e610b5d818361243b565b9085611445565b9093506113cc94506116c191503d805f833e6102a7818361243b565b9194909193906113c2565b346102c1575f6003193601126102c1576040515f5f549060018260011c91600184169182156117ff575b60209485851084146117d25785879486865291825f1461179457505060011461173b575b506117279250038361243b565b6102886040519282849384528301906121eb565b5f808052859250907f290decd9548b62a8d60345a988386fc84ba6bc95484008f6362f93160ef3e5635b85831061177c57505061172793508201018561171a565b80548389018501528794508693909201918101611765565b7fffffffffffffffffffffffffffffffffffffffffffffffffffffffffffffff00168582015261172795151560051b850101925087915061171a9050565b7f4e487b71000000000000000000000000000000000000000000000000000000005f52602260045260245ffd5b92607f16926116f6565b346102c1575f6003193601126102c1576040517f00000000000000000000000000000000000000000000000000000000000000006001600160a01b03168152602090f35b60a06003193601126102c15767ffffffffffffffff600435116102c1573660236004350112156102c15767ffffffffffffffff60043560040135116102c157366024600480359081013560c0020101116102c15760243567ffffffffffffffff81116102c1576118c19036906004016121ba565b67ffffffffffffffff604435116102c1576060600319604435360301126102c15767ffffffffffffffff606435116102c1573660236064350112156102c15767ffffffffffffffff60643560040135116102c15736602460643560048101350101116102c15760843567ffffffffffffffff81116102c1576119479036906004016121ba565b9290927f0000000000000000000000000000000000000000000000000000000000000000611ee257611977612ae8565b826004356004013503611eba575f5b60043560040135811015611c47576119a26101ff828686612a7b565b604051906119af8261238a565b5f82525f60208301525f6040830152602081015190606060408201519101515f1a9183526020830152604082015260043560040135821015611c1a5760c0602481840260043501013603126102c15760405190611a0b826123d3565b611a1e602460c08502600435010161231c565b808352611a34604460043560c08702010161231c565b60208401819052611a4e606460043560c08802010161231c565b60408581019190915260c08602600435016084810135606087015260a4810135608087015260c4013560a0860181905290840151845160209095015160ff9091169491936001600160a01b031691823b156102c1576001600160a01b03955f956040519788967fd505accf0000000000000000000000000000000000000000000000000000000088521660048701523060248701526060602460c08c026004350101013560448701526064860152608485015260a484015260c4830152818360e482800301925af19081611c02575b50611bf957611b2a612c06565b81516020808401516040517fdd62ed3e0000000000000000000000000000000000000000000000000000000081526001600160a01b03918216600482015230602482015293949284916044918391165afa9182156102b6575f92611bd5575b506060015103611b9e57506001905b01611986565b805115611bad57805190602001fd5b7fa7285689000000000000000000000000000000000000000000000000000000005f5260045ffd5b6060919250611bf29060203d6020116110a457611095818361243b565b9190611b89565b50600190611b98565b80611c0d5f926123ef565b8003126102c15787611b1d565b7f4e487b71000000000000000000000000000000000000000000000000000000005f52603260045260245ffd5b5083604435600401357fffffffffffffffffffffffffffffffffffffffffffffffffffffffffffffffe160031960443536030101811215806102c157600482604435010180359067ffffffffffffffff82116102c15760208260071b36039101136102c157611ce1575b6102886107eb85855f7f9b779b17422d0df92223018b32b4d1fa46e071723d6817e2486d003becc55f005d61279d565b6001600160a01b037f0000000000000000000000000000000000000000000000000000000000000000163b156102c157604051917f2a2d80d10000000000000000000000000000000000000000000000000000000083523360048401526060602484015260c48301916102c1576004906044350101602081019167ffffffffffffffff8235116102c157813560071b360383136102c1576060606485015281359052829160e48301915f905b80358210611e3c575050509080611de45f936001600160a01b03611db560246044350161231c565b16608484015260448035013560a484015260031983820301604484015260643560040135602460643501612bd6565b0381836001600160a01b037f0000000000000000000000000000000000000000000000000000000000000000165af180156102b657611e24575b80611cb1565b80611e2f5f926123ef565b8003126102c15782611e1e565b919350916001600160a01b03611e518561231c565b1681526020840135906001600160a01b03821682036102c157608080916001600160a01b03600194166020820152611e8b60408801612c35565b65ffffffffffff8091166040830152611ea660608901612c35565b166060820152019401920184939291611d8d565b7faaad13f7000000000000000000000000000000000000000000000000000000005f5260045ffd5b7f29a270f5000000000000000000000000000000000000000000000000000000005f5260045ffd5b346102c1575f6003193601126102c1576040517f00000000000000000000000000000000000000000000000000000000000000006001600160a01b03168152602090f35b346102c157611f5c3661218c565b611f64612ae8565b611f6c612b15565b6001600160a01b0390611f8160208201612ac7565b90611f8b81612ac7565b916040820193611f9b8584612b73565b91611fa96060860186612b73565b84611fba60c0899794970189612a2a565b939097856040519b7fba8a2be0000000000000000000000000000000000000000000000000000000008d528c60048360c4830195169101521660248c015260c060448c01525260e4890194905f5b81811061216b575050506003198885030160648901528084527f07ffffffffffffffffffffffffffffffffffffffffffffffffffffffffffffff81116102c157876120818195936020809884965f9660051b80928483013701019060808b0135608485015260a0996003198584030160a4860152612bd6565b03927f0000000000000000000000000000000000000000000000000000000000000000165af19283156102b6575f9361214a575b505f5b6120c28584612b73565b905081101561210f576001906121096120da85612ac7565b6120eb610379846114f98b8a612b73565b6120fc846114f960608a018a612b73565b3590610373878901612adb565b016120b8565b8361211c61037e85612ac7565b5f7f9b779b17422d0df92223018b32b4d1fa46e071723d6817e2486d003becc55f005d604051908152602090f35b61216491935060203d6020116110a457611095818361243b565b91846120b5565b9091956020806001928861217e8b61231c565b168152019701929101612008565b602060048203126102c15760043567ffffffffffffffff81116102c15760e090600401809203126102c15790565b9181601f840112156102c15782359167ffffffffffffffff83116102c1576020808501948460051b0101116102c157565b90601f19601f602080948051918291828752018686015e5f8582860101520116010190565b6020808201906020835283518092526040830192602060408460051b8301019501935f915b8483106122455750505050505090565b9091929394958480612281837fffffffffffffffffffffffffffffffffffffffffffffffffffffffffffffffc086600196030187528a516121eb565b9801930193019194939290612235565b9081518082526020808093019301915f5b8281106122b0575050505090565b8351855293810193928101926001016122a2565b6122da6122ed9492606083526060830190612291565b92602082015260408184039101526121eb565b90565b600435906001600160a01b03821682036102c157565b602435906001600160a01b03821682036102c157565b35906001600160a01b03821682036102c157565b602060048203126102c15760043567ffffffffffffffff81116102c15761014090600401809203126102c15790565b9161237c906122ed94928452606060208501526060840190612291565b9160408184039101526121eb565b6060810190811067ffffffffffffffff8211176123a657604052565b7f4e487b71000000000000000000000000000000000000000000000000000000005f52604160045260245ffd5b60c0810190811067ffffffffffffffff8211176123a657604052565b67ffffffffffffffff81116123a657604052565b60a0810190811067ffffffffffffffff8211176123a657604052565b60e0810190811067ffffffffffffffff8211176123a657604052565b90601f601f19910116810190811067ffffffffffffffff8211176123a657604052565b67ffffffffffffffff81116123a65760051b60200190565b92916124818261245e565b9161248f604051938461243b565b829481845260208094019160051b81019283116102c157905b8282106124b55750505050565b813581529083019083016124a8565b602060048203126102c15760043567ffffffffffffffff81116102c15760a090600401809203126102c15790565b67ffffffffffffffff81116123a657601f01601f191660200190565b92919261251a826124f2565b91612528604051938461243b565b8294818452818301116102c1578281602093845f960137010152565b9080601f830112156102c1578160206122ed9335910161250e565b919060c0838203126102c15760405190612578826123d3565b81938035835261258a6020820161231c565b6020840152604081013560408401526060810135606084015260808101359167ffffffffffffffff928381116102c157816125c6918401612544565b608085015260a08201359283116102c15760a0926125e49201612544565b910152565b906122ed916020815260808251926001600160a01b03809416602084015283602082015116604084015260408101516060840152606081015115158284015201519160a080830152825160c083015260208301511660e08201526040820151610100820152606082015161012082015260a0612676608084015160c06101408501526101808401906121eb565b920151906101607fffffffffffffffffffffffffffffffffffffffffffffffffffffffffffffff40828503019101526121eb565b81601f820112156102c1578051906126c1826124f2565b926126cf604051948561243b565b828452602083830101116102c157815f9260208093018386015e8301015290565b906020828203126102c157815167ffffffffffffffff81116102c1576122ed92016126aa565b9080601f830112156102c1578151906020916127318161245e565b9361273f604051958661243b565b81855260208086019260051b8201019283116102c157602001905b828210612768575050505090565b8151815290830190830161275a565b906020828203126102c157815167ffffffffffffffff81116102c1576122ed9201612716565b91906060906127ab33612ef9565b917f000000000000000000000000000000000000000000000000000000000000000094855c6128e1576001916001875d7f0000000000000000000000000000000000000000000000000000000000000000611ee2576128098461245e565b93612817604051958661243b565b8085526128238161245e565b91601f196020930190835f5b8381106128d257505050505f5b81811061288a575050505050905f61287f92945d7f0000000000000000000000000000000000000000000000000000000000000000805c91612881575b50612f3b565b565b5f905d5f612879565b806128b65f8061289f6101ff8a96888b612a7b565b8781519101305af46128af612c06565b9030614007565b6128c08289612ab3565b526128cb8188612ab3565b500161283c565b8282828b01015201849061282f565b7f3ee5aeb5000000000000000000000000000000000000000000000000000000005f5260045ffd5b919060609061291733612ef9565b917f000000000000000000000000000000000000000000000000000000000000000094855c6128e1576001916001875d7f0000000000000000000000000000000000000000000000000000000000000000611ee2576129758461245e565b93612983604051958661243b565b80855261298f8161245e565b91601f196020930190835f5b838110612a1b57505050505f5b8181106129ea575050505050905f61287f92945d7f0000000000000000000000000000000000000000000000000000000000000000805c916128815750612f3b565b806129ff5f8061289f6101ff8a96888b612a7b565b612a098289612ab3565b52612a148188612ab3565b50016129a8565b8282828b01015201849061299b565b9035907fffffffffffffffffffffffffffffffffffffffffffffffffffffffffffffffe1813603018212156102c1570180359067ffffffffffffffff82116102c1576020019181360383136102c157565b90821015611c1a57612a929160051b810190612a2a565b9091565b805115611c1a5760200190565b805160011015611c1a5760400190565b8051821015611c1a5760209160051b010190565b356001600160a01b03811681036102c15790565b3580151581036102c15790565b7f9b779b17422d0df92223018b32b4d1fa46e071723d6817e2486d003becc55f00805c6128e1576001905d565b6001600160a01b037f0000000000000000000000000000000000000000000000000000000000000000163303612b4757565b7f089676d5000000000000000000000000000000000000000000000000000000005f523360045260245ffd5b9035907fffffffffffffffffffffffffffffffffffffffffffffffffffffffffffffffe1813603018212156102c1570180359067ffffffffffffffff82116102c157602001918160051b360383136102c157565b908160209103126102c1575190565b601f8260209493601f1993818652868601375f8582860101520116010190565b9190811015611c1a5760051b0190565b3d15612c30573d90612c17826124f2565b91612c25604051938461243b565b82523d5f602084013e565b606090565b359065ffffffffffff821682036102c157565b60058210156110185752565b90916060828403126102c15781519167ffffffffffffffff928381116102c15784612c80918301612716565b9360208201519360408301519081116102c1576122ed92016126aa565b6020815281516001600160a01b0380911660208301526020830151166040820152612cd7604083015160c0606084015260e0830190612291565b906060830151608082015260808301516005811015611018576122ed9360a0918284015201519060c0601f19828503019101526121eb565b60209081818403126102c15780519067ffffffffffffffff82116102c157019180601f840112156102c1578251612d458161245e565b93612d53604051958661243b565b818552838086019260051b8201019283116102c1578301905b828210612d7a575050505090565b81516001600160a01b03811681036102c1578152908301908301612d6c565b91908203918211612da657565b7f4e487b71000000000000000000000000000000000000000000000000000000005f52601160045260245ffd5b90612ddd8261245e565b612dea604051918261243b565b828152601f19612dfa829461245e565b0190602036910137565b90926122ed94936080936001600160a01b03809216845216602083015260408201528160608201520190612291565b60048210156110185752565b916060838303126102c15782519260208101519267ffffffffffffffff938481116102c15781612e70918401612716565b9360408301519081116102c1576122ed92016126aa565b6020815281516001600160a01b038091166020830152602083015116604082015260408201516060820152612ecb606083015160c0608084015260e0830190612291565b9060808301516004811015611018576122ed9360a0918284015201519060c0601f19828503019101526121eb565b905f917f00000000000000000000000000000000000000000000000000000000000000006001600160a01b03815c1615612f31575050565b909192505d600190565b47908115612fbb577f00000000000000000000000000000000000000000000000000000000000000005c612fbb576001600160a01b0316905f80808084865af1612f83612c06565b5015612f8d575050565b6040519081527f13874e410594a64e17a1f7f51d9cfc10c2cbadde52740beba29ae293b2ea677990602090a2565b5050565b9035907fffffffffffffffffffffffffffffffffffffffffffffffffffffffffffffff41813603018212156102c1570190565b60028210156110185752565b908160609103126102c1578051916040602083015192015190565b6020815281519160028310156110185760c0610100916122ed94602085015260208101516001600160a01b0380911660408601528060408301511660608601526060820151166080850152608081015160a085015260a08101518285015201519160e08082015201906121eb565b91908201809211612da657565b61309d81612ac7565b6001600160a01b03604051917fca4f28030000000000000000000000000000000000000000000000000000000083521660048201525f81602481800301816001600160a01b037f0000000000000000000000000000000000000000000000000000000000000000165afa9081156102b6575f9161376f575b50806002825103613747576132659161313c60206131366080870187612fbf565b01612ac7565b6001600160a01b038061314e84612a96565b51169116145f1461373e575f9460015b5f606061316e604051918261243b565b6002815260403660208301376fffffffffffffffffffffffffffffffff61319482612a96565b526fffffffffffffffffffffffffffffffff6131af82612aa3565b5261322d6131bc89612ac7565b916001600160a01b038a6131d260208201612ac7565b926131fc6131f26131e66080850185612fbf565b35936080810190612fbf565b6080810190612a2a565b939094816040519861320d8a6123d3565b16885216602087015260408601526060850152846080850152369161250e565b60a0820152604051809781927f4af29ec400000000000000000000000000000000000000000000000000000000835260048301612c9d565b0381836001600160a01b037f0000000000000000000000000000000000000000000000000000000000000000165af19485156102b6575f9561371f575b50849286866132b460ff8b1682612ab3565b5160406132c46080850185612fbf565b0135101561357f57505060606133d69161339e6132ff6132e760ff8d168b612ab3565b5160406132f760808e018e612fbf565b013590612d99565b8a6001600160a01b0361331f61331483612ac7565b9560ff8a1690612ab3565b5116916001600160a01b0361335761334d61334260206131366080880188612fbf565b946080810190612fbf565b60a0810190612a2a565b93909482604051986133688a61241f565b60018a521660208901526040880152168686015260808501526fffffffffffffffffffffffffffffffff60a0850152369161250e565b60c0820152604051809381927f2bfb780c00000000000000000000000000000000000000000000000000000000835260048301613019565b03815f6001600160a01b037f0000000000000000000000000000000000000000000000000000000000000000165af180156102b657613451915f905f92613548575b506134309061342a60ff86168a612ab3565b51613087565b61343d60ff851689612ab3565b5261344b60ff8a1688612ab3565b51612d99565b61345e60ff891687612ab3565b525b61346d60ff881686612ab3565b51604061347d6080890189612fbf565b0135146134d4578560406134a361349760ff8b1689612ab3565b51926080810190612fbf565b0135907fc1820fbb000000000000000000000000000000000000000000000000000000005f5260045260245260445ffd5b909391949295506134e860ff821683612ab3565b5160606134f86080860186612fbf565b01351061350457505050565b61349760609260ff613517931690612ab3565b0135907fbe24bb39000000000000000000000000000000000000000000000000000000005f5260045260245260445ffd5b613430925061356f915060603d606011613578575b613567818361243b565b810190612ffe565b92915090613418565b503d61355d565b9091898461359060ff831685612ab3565b5160406135a06080880188612fbf565b0135116135b2575b5050505050613460565b6001600160a01b036135ed61339e936135e660609760ff60406135dc8c60806136719e0190612fbf565b0135931690612ab3565b5190612d99565b8c61362b61334d8461361e61360185612ac7565b9960ff613616602061313660808a018a612fbf565b991690612ab3565b5116926080810190612fbf565b939094816040519861363c8a61241f565b5f8a521660208901521660408701528686015260808501526fffffffffffffffffffffffffffffffff60a0850152369161250e565b03815f6001600160a01b037f0000000000000000000000000000000000000000000000000000000000000000165af180156102b6576136e0915f905f926136f8575b506136c59061342a60ff8c168a612ab3565b6136d260ff8b1689612ab3565b5261344b60ff841688612ab3565b6136ed60ff831687612ab3565b5285855f89846135a8565b6136c59250613716915060603d60601161357857613567818361243b565b929150906136b3565b6137349195503d805f833e6102a7818361243b565b90959195506132a2565b6001945f61315e565b7ffc20f864000000000000000000000000000000000000000000000000000000005f5260045ffd5b61378391503d805f833e610b5d818361243b565b5f613115565b9280613b06575b15613998575090506001600160a01b0381471061397057807f000000000000000000000000000000000000000000000000000000000000000016803b156102c157604080517fd0e30db00000000000000000000000000000000000000000000000000000000081529092905f8160048188875af180156139665761394e575b507f00000000000000000000000000000000000000000000000000000000000000001660205f8451828101907fa9059cbb000000000000000000000000000000000000000000000000000000008252846024820152876044820152613880606482800301601f19810183528261243b565b519082865af115613944575f513d61393b5750813b155b61390f579060209183519485927f15afd40900000000000000000000000000000000000000000000000000000000845260048401526024830152815f604482800301925af190811561390657506138eb5750565b6139039060203d6020116110a457611095818361243b565b50565b513d5f823e3d90fd5b507f5274afe7000000000000000000000000000000000000000000000000000000005f5260045260245ffd5b60011415613897565b82513d5f823e3d90fd5b806139595f926123ef565b8003126102c1575f61380f565b84513d5f823e3d90fd5b7fa01a9df6000000000000000000000000000000000000000000000000000000005f5260045ffd5b816139a3575b505050565b6001600160a01b03807f000000000000000000000000000000000000000000000000000000000000000016817f00000000000000000000000000000000000000000000000000000000000000001694828511613ad557813b156102c1575f91836040519485937f36c785160000000000000000000000000000000000000000000000000000000085521660048401528760248401528087166044840152851660648301528183608482800301925af180156102b657613ab9575b506040517f15afd4090000000000000000000000000000000000000000000000000000000081526001600160a01b03919091166004820152602481019190915290602090829060449082905f905af180156102b6576138eb5750565b80613ac75f929493946123ef565b8003126102c157905f613a5d565b847f6dfcc650000000000000000000000000000000000000000000000000000000005f5260a060045260245260445ffd5b506001600160a01b03807f00000000000000000000000000000000000000000000000000000000000000001690821614613790565b90821561399e575f5b15613cc657506001600160a01b0390817f000000000000000000000000000000000000000000000000000000000000000016803b156102c1576040517fae6393290000000000000000000000000000000000000000000000000000000081525f81857f000000000000000000000000000000000000000000000000000000000000000016938460048301523060248301528760448301528183606482800301925af180156102b657613cae575b50803b156102c1575f60405180927f2e1a7d4d0000000000000000000000000000000000000000000000000000000082528660048301528183602482800301925af180156102b657613c96575b50824710613c66575f809381938293165af1613c58612c06565b9015613c615750565b614061565b82477fcf479181000000000000000000000000000000000000000000000000000000005f5260045260245260445ffd5b80613ca15f926123ef565b8003126102c1575f613c3e565b80613cb95f926123ef565b8003126102c1575f613bf1565b90916001600160a01b037f000000000000000000000000000000000000000000000000000000000000000016803b156102c1576040517fae6393290000000000000000000000000000000000000000000000000000000081526001600160a01b03938416600482015293909216602484015260448301525f908290606490829084905af180156102b657613d575750565b80613d625f926123ef565b8003126102c157565b506001600160a01b03807f00000000000000000000000000000000000000000000000000000000000000001690821614613b44565b91928315613ebf5780613d6b5715613cc657506001600160a01b0390817f000000000000000000000000000000000000000000000000000000000000000016803b156102c1576040517fae6393290000000000000000000000000000000000000000000000000000000081525f81857f000000000000000000000000000000000000000000000000000000000000000016938460048301523060248301528760448301528183606482800301925af180156102b657613cae5750803b156102c1575f60405180927f2e1a7d4d0000000000000000000000000000000000000000000000000000000082528660048301528183602482800301925af180156102b657613c965750824710613c66575f809381938293165af1613c58612c06565b50505050565b60e081013542116103ba576001600160a01b039060208101359060028210156102c15782613f3e613f6d606094613f4460c0865f99613f096040613fa79a01612ac7565b81613f158c8501612ac7565b81613f2260808701612ac7565b93613f31610120880188612a2a565b99909a6040519d8e61241f565b8d612ff2565b1660208b0152166040890152168987015260a08101356080870152013560a0850152369161250e565b60c08201526040519485809481937f2bfb780c00000000000000000000000000000000000000000000000000000000835260048301613019565b03927f0000000000000000000000000000000000000000000000000000000000000000165af19081156102b6575f915f915f91613fe5575b50909192565b915050614001915060603d60601161357857613567818361243b565b5f613fdf565b906140125750614061565b81511580614058575b614023575090565b6001600160a01b03907f9996b315000000000000000000000000000000000000000000000000000000005f521660045260245ffd5b50803b1561401b565b80511561407057602081519101fd5b7fd6bda275000000000000000000000000000000000000000000000000000000005f5260045ffdfea26469706673582212206bacbf3e2d9bb8df3c24e9138f27916baa88b126ccde9a7b763ff2f241daaa4564736f6c634300081b0033",
  "linkReferences": {},
  "deployedLinkReferences": {}
}