{
  "_format": "hh-sol-artifact-1",
  "contractName": "PoolSwapFeeHelper",
  "sourceName": "contracts/PoolSwapFeeHelper.sol",
  "abi": [
    {
      "inputs": [
        {
          "internalType": "contract IVault",
          "name": "vault",
          "type": "address"
        },
        {
          "internalType": "address",
          "name": "initialOwner",
          "type": "address"
        }
      ],
      "stateMutability": "nonpayable",
      "type": "constructor"
    },
    {
      "anonymous": false,
      "inputs": [
        {
          "indexed": true,
          "internalType": "address",
          "name": "previousOwner",
          "type": "address"
        },
        {
          "indexed": true,
          "internalType": "address",
          "name": "newOwner",
          "type": "address"
        }
      ],
      "name": "OwnershipTransferStarted",
      "type": "event"
    },
    {
      "anonymous": false,
      "inputs": [
        {
          "indexed": true,
          "internalType": "address",
          "name": "previousOwner",
          "type": "address"
        },
        {
          "indexed": true,
          "internalType": "address",
          "name": "newOwner",
          "type": "address"
        }
      ],
      "name": "OwnershipTransferred",
      "type": "event"
    },
    {
      "anonymous": false,
      "inputs": [
        {
          "indexed": true,
          "internalType": "bytes32",
          "name": "poolId",
          "type": "bytes32"
        },
        {
          "indexed": true,
          "internalType": "uint256",
          "name": "poolSetId",
          "type": "uint256"
        }
      ],
      "name": "PoolAddedToSet",
      "type": "event"
    },
    {
      "anonymous": false,
      "inputs": [
        {
          "indexed": true,
          "internalType": "bytes32",
          "name": "poolId",
          "type": "bytes32"
        },
        {
          "indexed": true,
          "internalType": "uint256",
          "name": "poolSetId",
          "type": "uint256"
        }
      ],
      "name": "PoolRemovedFromSet",
      "type": "event"
    },
    {
      "anonymous": false,
      "inputs": [
        {
          "indexed": true,
          "internalType": "uint256",
          "name": "poolSetId",
          "type": "uint256"
        },
        {
          "indexed": true,
          "internalType": "address",
          "name": "initialManager",
          "type": "address"
        }
      ],
      "name": "PoolSetCreated",
      "type": "event"
    },
    {
      "anonymous": false,
      "inputs": [
        {
          "indexed": true,
          "internalType": "uint256",
          "name": "poolSetId",
          "type": "uint256"
        },
        {
          "indexed": true,
          "internalType": "address",
          "name": "manager",
          "type": "address"
        }
      ],
      "name": "PoolSetDestroyed",
      "type": "event"
    },
    {
      "anonymous": false,
      "inputs": [
        {
          "indexed": true,
          "internalType": "uint256",
          "name": "poolSetId",
          "type": "uint256"
        },
        {
          "indexed": true,
          "internalType": "address",
          "name": "oldManager",
          "type": "address"
        },
        {
          "indexed": true,
          "internalType": "address",
          "name": "newManager",
          "type": "address"
        }
      ],
      "name": "PoolSetOwnershipTransferred",
      "type": "event"
    },
    {
      "inputs": [],
      "name": "acceptOwnership",
      "outputs": [],
      "stateMutability": "nonpayable",
      "type": "function"
    },
    {
      "inputs": [
        {
          "internalType": "uint256",
          "name": "poolSetId",
          "type": "uint256"
        },
        {
          "internalType": "bytes32[]",
          "name": "newPoolIds",
          "type": "bytes32[]"
        }
      ],
      "name": "addPoolsToSet",
      "outputs": [],
      "stateMutability": "nonpayable",
      "type": "function"
    },
    {
      "inputs": [
        {
          "internalType": "address",
          "name": "initialManager",
          "type": "address"
        }
      ],
      "name": "createPoolSet",
      "outputs": [
        {
          "internalType": "uint256",
          "name": "",
          "type": "uint256"
        }
      ],
      "stateMutability": "nonpayable",
      "type": "function"
    },
    {
      "inputs": [
        {
          "internalType": "address",
          "name": "initialManager",
          "type": "address"
        },
        {
          "internalType": "bytes32[]",
          "name": "newPoolIds",
          "type": "bytes32[]"
        }
      ],
      "name": "createPoolSet",
      "outputs": [
        {
          "internalType": "uint256",
          "name": "poolSetId",
          "type": "uint256"
        }
      ],
      "stateMutability": "nonpayable",
      "type": "function"
    },
    {
      "inputs": [
        {
          "internalType": "uint256",
          "name": "poolSetId",
          "type": "uint256"
        }
      ],
      "name": "destroyPoolSet",
      "outputs": [],
      "stateMutability": "nonpayable",
      "type": "function"
    },
    {
      "inputs": [
        {
          "internalType": "address",
          "name": "newOwner",
          "type": "address"
        }
      ],
      "name": "forceTransferOwnership",
      "outputs": [],
      "stateMutability": "nonpayable",
      "type": "function"
    },
    {
      "inputs": [
        {
          "internalType": "bytes4",
          "name": "selector",
          "type": "bytes4"
        }
      ],
      "name": "getActionId",
      "outputs": [
        {
          "internalType": "bytes32",
          "name": "",
          "type": "bytes32"
        }
      ],
      "stateMutability": "view",
      "type": "function"
    },
    {
      "inputs": [
        {
          "internalType": "uint256",
          "name": "poolSetId",
          "type": "uint256"
        }
      ],
      "name": "getAllPoolsInSet",
      "outputs": [
        {
          "internalType": "bytes32[]",
          "name": "poolIds",
          "type": "bytes32[]"
        }
      ],
      "stateMutability": "view",
      "type": "function"
    },
    {
      "inputs": [],
      "name": "getAuthorizer",
      "outputs": [
        {
          "internalType": "contract IAuthorizer",
          "name": "",
          "type": "address"
        }
      ],
      "stateMutability": "view",
      "type": "function"
    },
    {
      "inputs": [
        {
          "internalType": "uint256",
          "name": "poolSetId",
          "type": "uint256"
        }
      ],
      "name": "getManagerForPoolSet",
      "outputs": [
        {
          "internalType": "address",
          "name": "",
          "type": "address"
        }
      ],
      "stateMutability": "view",
      "type": "function"
    },
    {
      "inputs": [],
      "name": "getNextPoolSetId",
      "outputs": [
        {
          "internalType": "uint256",
          "name": "",
          "type": "uint256"
        }
      ],
      "stateMutability": "view",
      "type": "function"
    },
    {
      "inputs": [
        {
          "internalType": "uint256",
          "name": "poolSetId",
          "type": "uint256"
        }
      ],
      "name": "getPoolCountForSet",
      "outputs": [
        {
          "internalType": "uint256",
          "name": "",
          "type": "uint256"
        }
      ],
      "stateMutability": "view",
      "type": "function"
    },
    {
      "inputs": [],
      "name": "getPoolSetIdForCaller",
      "outputs": [
        {
          "internalType": "uint256",
          "name": "",
          "type": "uint256"
        }
      ],
      "stateMutability": "view",
      "type": "function"
    },
    {
      "inputs": [
        {
          "internalType": "address",
          "name": "manager",
          "type": "address"
        }
      ],
      "name": "getPoolSetIdForManager",
      "outputs": [
        {
          "internalType": "uint256",
          "name": "",
          "type": "uint256"
        }
      ],
      "stateMutability": "view",
      "type": "function"
    },
    {
      "inputs": [
        {
          "internalType": "uint256",
          "name": "poolSetId",
          "type": "uint256"
        },
        {
          "internalType": "uint256",
          "name": "from",
          "type": "uint256"
        },
        {
          "internalType": "uint256",
          "name": "to",
          "type": "uint256"
        }
      ],
      "name": "getPoolsInSet",
      "outputs": [
        {
          "internalType": "bytes32[]",
          "name": "",
          "type": "bytes32[]"
        }
      ],
      "stateMutability": "view",
      "type": "function"
    },
    {
      "inputs": [
        {
          "internalType": "bytes32",
          "name": "poolId",
          "type": "bytes32"
        },
        {
          "internalType": "uint256",
          "name": "poolSetId",
          "type": "uint256"
        }
      ],
      "name": "isPoolInSet",
      "outputs": [
        {
          "internalType": "bool",
          "name": "",
          "type": "bool"
        }
      ],
      "stateMutability": "view",
      "type": "function"
    },
    {
      "inputs": [
        {
          "internalType": "uint256",
          "name": "poolSetId",
          "type": "uint256"
        }
      ],
      "name": "isValidPoolSetId",
      "outputs": [
        {
          "internalType": "bool",
          "name": "",
          "type": "bool"
        }
      ],
      "stateMutability": "view",
      "type": "function"
    },
    {
      "inputs": [],
      "name": "owner",
      "outputs": [
        {
          "internalType": "address",
          "name": "",
          "type": "address"
        }
      ],
      "stateMutability": "view",
      "type": "function"
    },
    {
      "inputs": [],
      "name": "pendingOwner",
      "outputs": [
        {
          "internalType": "address",
          "name": "",
          "type": "address"
        }
      ],
      "stateMutability": "view",
      "type": "function"
    },
    {
      "inputs": [
        {
          "internalType": "uint256",
          "name": "poolSetId",
          "type": "uint256"
        },
        {
          "internalType": "bytes32[]",
          "name": "poolIds",
          "type": "bytes32[]"
        }
      ],
      "name": "removePoolsFromSet",
      "outputs": [],
      "stateMutability": "nonpayable",
      "type": "function"
    },
    {
      "inputs": [],
      "name": "renounceOwnership",
      "outputs": [],
      "stateMutability": "nonpayable",
      "type": "function"
    },
    {
      "inputs": [
        {
          "internalType": "bytes32",
          "name": "poolId",
          "type": "bytes32"
        },
        {
          "internalType": "uint256",
          "name": "swapFeePercentage",
          "type": "uint256"
        }
      ],
      "name": "setSwapFeePercentage",
      "outputs": [],
      "stateMutability": "nonpayable",
      "type": "function"
    },
    {
      "inputs": [
        {
          "internalType": "address",
          "name": "newOwner",
          "type": "address"
        }
      ],
      "name": "transferOwnership",
      "outputs": [],
      "stateMutability": "nonpayable",
      "type": "function"
    },
    {
      "inputs": [
        {
          "internalType": "address",
          "name": "newManager",
          "type": "address"
        }
      ],
      "name": "transferPoolSetOwnership",
      "outputs": [],
      "stateMutability": "nonpayable",
      "type": "function"
    },
    {
      "inputs": [],
      "name": "vault",
      "outputs": [
        {
          "internalType": "contract IVault",
          "name": "",
          "type": "address"
        }
      ],
      "stateMutability": "view",
      "type": "function"
    }
  ],
  "bytecode": "0x60c060405260016002553480156200001657600080fd5b5060405162001a7b38038062001a7b833981810160405260408110156200003c57600080fd5b50805160209091015181813081620000626001600160a01b03821615156101bf620000a4565b6200006d81620000b9565b506080526200008a6001600160a01b03831615156101bd620000a4565b5060601b6001600160601b03191660a05250620001a69050565b81620000b557620000b581620000e3565b5050565b600180546001600160a01b0319169055620000e081620000f5602090811b6200113617901c565b50565b620000e0816210905360ea1b62000145565b600080546001600160a01b038381166001600160a01b0319831681178455604051919092169283917f8be0079c531659141344cd1fd0a4f28419497f9722a3daafe3b4186f6b6457e09190a35050565b62461bcd60e51b600090815260206004526007602452600a808404818106603090810160081b958390069590950190829004918206850160101b01602363ffffff0060e086901c160160181b0190930160c81b60445260e882901c90606490fd5b60805160a05160601c61189a620001e16000398061086a5280610a535280610e8752806111145280611677525080610d63525061189a6000f3fe608060405234801561001057600080fd5b50600436106101a35760003560e01c80638da5cb5b116100ee578063ce998aba11610097578063f167a1e611610071578063f167a1e6146105c3578063f2fde38b146105e0578063fa82f96514610613578063fbfa77cf146106d3576101a3565b8063ce998aba14610580578063e30c397814610588578063e909c19b14610590576101a3565b8063aaabadc5116100c8578063aaabadc5146104c6578063bf82e87c146104ce578063c482e82214610578576101a3565b80638da5cb5b1461044557806394fc405814610476578063a89b112814610493576101a3565b806362d53462116101505780637c1ec4601161012a5780637c1ec46014610370578063851c1bb31461038d5780638c60ebd0146103cc576101a3565b806362d5346214610343578063715018a61461036057806379ba509714610368576101a3565b806339375aa11161018157806339375aa11461025357806342bf1924146102765780634d578eaf14610320576101a3565b8063255dae41146101a857806325c427ed146101d95780633700f9871461021e575b600080fd5b6101c5600480360360208110156101be57600080fd5b50356106db565b604080519115158252519081900360200190f35b61020c600480360360208110156101ef57600080fd5b503573ffffffffffffffffffffffffffffffffffffffff16610705565b60408051918252519081900360200190f35b6102516004803603602081101561023457600080fd5b503573ffffffffffffffffffffffffffffffffffffffff1661072d565b005b6101c56004803603604081101561026957600080fd5b50803590602001356107de565b6102516004803603604081101561028c57600080fd5b813591908101906040810160208201356401000000008111156102ae57600080fd5b8201836020820111156102c057600080fd5b803590602001918460208302840111640100000000831117156102e257600080fd5b91908080602002602001604051908101604052809392919081815260200183836020028082843760009201919091525092955061080c945050505050565b6102516004803603604081101561033657600080fd5b5080359060200135610a38565b61020c6004803603602081101561035957600080fd5b5035610b7e565b610251610ba8565b610251610bc0565b6102516004803603602081101561038657600080fd5b5035610c0e565b61020c600480360360208110156103a357600080fd5b50357fffffffff0000000000000000000000000000000000000000000000000000000016610d5d565b6103f5600480360360608110156103e257600080fd5b5080359060208101359060400135610dce565b60408051602080825283518183015283519192839290830191858101910280838360005b83811015610431578181015183820152602001610419565b505050509050019250505060405180910390f35b61044d610dee565b6040805173ffffffffffffffffffffffffffffffffffffffff9092168252519081900360200190f35b6103f56004803603602081101561048c57600080fd5b5035610e0b565b610251600480360360208110156104a957600080fd5b503573ffffffffffffffffffffffffffffffffffffffff16610e39565b61044d610e83565b610251600480360360408110156104e457600080fd5b8135919081019060408101602082013564010000000081111561050657600080fd5b82018360208201111561051857600080fd5b8035906020019184602083028401116401000000008311171561053a57600080fd5b919080806020026020016040519081016040528093929190818152602001838360200280828437600092019190915250929550610f1c945050505050565b61020c610fc3565b61020c610fc9565b61044d610fdc565b61020c600480360360208110156105a657600080fd5b503573ffffffffffffffffffffffffffffffffffffffff16610ff8565b61044d600480360360208110156105d957600080fd5b5035611019565b610251600480360360208110156105f657600080fd5b503573ffffffffffffffffffffffffffffffffffffffff16611041565b61020c6004803603604081101561062957600080fd5b73ffffffffffffffffffffffffffffffffffffffff823516919081019060408101602082013564010000000081111561066157600080fd5b82018360208201111561067357600080fd5b8035906020019184602083028401116401000000008311171561069557600080fd5b9190808060200260200160405190810160405280939291908181526020018383602002808284376000920191909152509295506110dd945050505050565b61044d611112565b60009081526003602052604090205473ffffffffffffffffffffffffffffffffffffffff16151590565b73ffffffffffffffffffffffffffffffffffffffff1660009081526004602052604090205490565b80610737816111ab565b6000610741611202565b600081815260036020908152604080832080547fffffffffffffffffffffffff00000000000000000000000000000000000000001673ffffffffffffffffffffffffffffffffffffffff8916908117909155338085526004909352818420849055808452818420859055905193945092909184917f8a5583d08cb82be0e3e26d52a1941f10fe2fdd1bb7cc5e085a0ba35b3d7972059190a4505050565b6000816107ea8161121c565b60008381526005602052604090206108029085611259565b91505b5092915050565b61083733610818610dee565b73ffffffffffffffffffffffffffffffffffffffff16146101be611273565b816108418161121c565b815160005b81811015610a3157600084828151811061085c57fe5b6020026020010151905060007f000000000000000000000000000000000000000000000000000000000000000073ffffffffffffffffffffffffffffffffffffffff1663f6c00927836040518263ffffffff1660e01b815260040180828152602001915050604080518083038186803b1580156108d857600080fd5b505afa1580156108ec573d6000803e3d6000fd5b505050506040513d604081101561090257600080fd5b5051604080517f893d20e800000000000000000000000000000000000000000000000000000000815290519192506109d39173ba1ba1ba1ba1ba1ba1ba1ba1ba1ba1ba1ba1ba1b9173ffffffffffffffffffffffffffffffffffffffff85169163893d20e891600480820192602092909190829003018186803b15801561098857600080fd5b505afa15801561099c573d6000803e3d6000fd5b505050506040513d60208110156109b257600080fd5b505173ffffffffffffffffffffffffffffffffffffffff16146101c6611273565b60008781526005602052604081206109eb9084611285565b90506109f9816101c0611273565b604051889084907fa5e394dfe04d454f51b36f39ae0330817ada9a65f5a7ecc2ef26db729191650490600090a3505050600101610846565b5050505050565b816000610a43611202565b9050610a4f81836112cf565b60007f000000000000000000000000000000000000000000000000000000000000000073ffffffffffffffffffffffffffffffffffffffff1663f6c00927866040518263ffffffff1660e01b815260040180828152602001915050604080518083038186803b158015610ac157600080fd5b505afa158015610ad5573d6000803e3d6000fd5b505050506040513d6040811015610aeb57600080fd5b5051604080517f38e9922e00000000000000000000000000000000000000000000000000000000815260048101879052905191925073ffffffffffffffffffffffffffffffffffffffff8316916338e9922e9160248082019260009290919082900301818387803b158015610b5f57600080fd5b505af1158015610b73573d6000803e3d6000fd5b505050505050505050565b600081610b8a8161121c565b6000838152600560205260409020610ba1906112f3565b9392505050565b610bb433610818610dee565b610bbe60006112f7565b565b33610c02610bcc610fdc565b73ffffffffffffffffffffffffffffffffffffffff168273ffffffffffffffffffffffffffffffffffffffff16146101be611273565b610c0b816112f7565b50565b610c1a33610818610dee565b80610c248161121c565b600082815260056020526040812090610c3c826112f3565b90505b8015610cb4577fffffffffffffffffffffffffffffffffffffffffffffffffffffffffffffffff016000610c738383611328565b905084817f655fe5ad80da92cfafb31b789115db0177617d79855d72d0b2b2464d305c131f60405160405180910390a3610cad8382611344565b5050610c3f565b600084815260056020526040812090610ccd8282611832565b5050600084815260036020908152604080832080547fffffffffffffffffffffffff0000000000000000000000000000000000000000811690915573ffffffffffffffffffffffffffffffffffffffff168084526004909252808320839055519091829187917f79baa5e19a392c29299f3a0871dfaa49cb3bcce18826d5d6df199c9e0846a6c091a35050505050565b604080517f00000000000000000000000000000000000000000000000000000000000000006020808301919091527fffffffff000000000000000000000000000000000000000000000000000000008416828401528251602481840301815260449092019092528051910120919050565b606083610dda8161121c565b610de585858561142f565b95945050505050565b60005473ffffffffffffffffffffffffffffffffffffffff165b90565b606081610e178161121c565b6000838152600560205260408120610ba1918591610e34906112f3565b61142f565b610e41611503565b610c02610e4c610dee565b73ffffffffffffffffffffffffffffffffffffffff163373ffffffffffffffffffffffffffffffffffffffff161415610191611273565b60007f000000000000000000000000000000000000000000000000000000000000000073ffffffffffffffffffffffffffffffffffffffff1663aaabadc56040518163ffffffff1660e01b815260040160206040518083038186803b158015610eeb57600080fd5b505afa158015610eff573d6000803e3d6000fd5b505050506040513d6020811015610f1557600080fd5b5051905090565b610f2833610818610dee565b81610f328161121c565b815160005b81811015610a31576000848281518110610f4d57fe5b602002602001015190506000610f7e82600560008a815260200190815260200160002061134490919063ffffffff16565b9050610f8c816101c1611273565b604051879083907f655fe5ad80da92cfafb31b789115db0177617d79855d72d0b2b2464d305c131f90600090a35050600101610f37565b60025490565b3360009081526004602052604090205490565b60015473ffffffffffffffffffffffffffffffffffffffff1690565b600061100633610818610dee565b81611010816111ab565b610ba183611549565b60009081526003602052604090205473ffffffffffffffffffffffffffffffffffffffff1690565b61104d33610818610dee565b600180547fffffffffffffffffffffffff00000000000000000000000000000000000000001673ffffffffffffffffffffffffffffffffffffffff8316908117909155611098610dee565b73ffffffffffffffffffffffffffffffffffffffff167f38d16b8cac22d99fc7c124b9cd0de2d3fa1faef420bfe791d8c362d765e2270060405160405180910390a350565b60006110eb33610818610dee565b826110f5816111ab565b6110fe84611549565b83519092501561080557610805828461080c565b7f000000000000000000000000000000000000000000000000000000000000000081565b6000805473ffffffffffffffffffffffffffffffffffffffff8381167fffffffffffffffffffffffff0000000000000000000000000000000000000000831681178455604051919092169283917f8be0079c531659141344cd1fd0a4f28419497f9722a3daafe3b4186f6b6457e09190a35050565b6111cf73ffffffffffffffffffffffffffffffffffffffff821615156101c3611273565b73ffffffffffffffffffffffffffffffffffffffff8116600090815260046020526040902054610c0b90156101c4611273565b600061120c610fc9565b9050610e088115156101c2611273565b610c0b8115801590611251575060008281526003602052604090205473ffffffffffffffffffffffffffffffffffffffff1615155b6101c5611273565b600081815260018301602052604090205415155b92915050565b8161128157611281816115e2565b5050565b60006112918383611259565b6112c75750815460018181018455600084815260208082209093018490558454848252828601909352604090209190915561126d565b50600061126d565b6000828152600560205260409020611281906112eb9083611259565b6101c1611273565b5490565b600180547fffffffffffffffffffffffff0000000000000000000000000000000000000000169055610c0b81611136565b815460009061133a9083106064611273565b610ba1838361160c565b600081815260018301602052604081205480156114255783547fffffffffffffffffffffffffffffffffffffffffffffffffffffffffffffffff80830191018082146113df57600086600001828154811061139b57fe5b90600052602060002001549050808760000184815481106113b857fe5b60009182526020808320909101929092559182526001888101909152604090912090830190555b85548690806113ea57fe5b60019003818190600052602060002001600090559055856001016000868152602001908152602001600020600090556001935050505061126d565b600091505061126d565b60008381526005602052604081206060919061144a906112f3565b905061147183851115801561145f5750818411155b801561146a57508185105b6064611273565b83830367ffffffffffffffff8111801561148a57600080fd5b506040519080825280602002602001820160405280156114b4578160200160208202803683370190505b509150835b838110156114fa5760008681526005602052604090206114d99082611328565b83868303815181106114e757fe5b60209081029190910101526001016114b9565b50509392505050565b60006115326000357fffffffff0000000000000000000000000000000000000000000000000000000016610d5d565b9050610c0b6115418233611630565b610191611273565b6002805460018101909155600081815260036020908152604080832080547fffffffffffffffffffffffff00000000000000000000000000000000000000001673ffffffffffffffffffffffffffffffffffffffff8716908117909155808452600490925280832084905551909183917fdc91443db112ae1beb8fab12e3fa2dedea028e9eb6a8e92776a1aa2343007be29190a3919050565b610c0b817f42414c00000000000000000000000000000000000000000000000000000000006117b7565b600082600001828154811061161d57fe5b9060005260206000200154905092915050565b600061163a610dee565b73ffffffffffffffffffffffffffffffffffffffff168273ffffffffffffffffffffffffffffffffffffffff1614156116755750600161126d565b7f000000000000000000000000000000000000000000000000000000000000000073ffffffffffffffffffffffffffffffffffffffff1663aaabadc56040518163ffffffff1660e01b815260040160206040518083038186803b1580156116db57600080fd5b505afa1580156116ef573d6000803e3d6000fd5b505050506040513d602081101561170557600080fd5b5051604080517f9be2a8840000000000000000000000000000000000000000000000000000000081526004810186905273ffffffffffffffffffffffffffffffffffffffff858116602483015230604483015291519190921691639be2a884916064808301926020929190829003018186803b15801561178457600080fd5b505afa158015611798573d6000803e3d6000fd5b505050506040513d60208110156117ae57600080fd5b50519392505050565b7f08c379a000000000000000000000000000000000000000000000000000000000600090815260206004526007602452600a808404818106603090810160081b958390069590950190829004918206850160101b01602363ffffff0060e086901c160160181b0190930160c81b60445260e882901c90606490fd5b5080546000825590600052602060002090810190610c0b91905b80821115611860576000815560010161184c565b509056fea2646970667358221220fd6203010e3e1d79903fe52cd50bee8ca5e8654c0b3d5f71a698c557d412bda164736f6c63430007010033",
  "linkReferences": {},
  "deployedLinkReferences": {}
}