{
  "_format": "hh-sol-artifact-1",
  "contractName": "WeightedPoolFactory",
  "sourceName": "contracts/WeightedPoolFactory.sol",
  "abi": [
    {
      "inputs": [
        {
          "internalType": "contract IVault",
          "name": "vault",
          "type": "address"
        },
        {
          "internalType": "uint32",
          "name": "pauseWindowDuration",
          "type": "uint32"
        },
        {
          "internalType": "string",
          "name": "factoryVersion",
          "type": "string"
        },
        {
          "internalType": "string",
          "name": "poolVersion",
          "type": "string"
        }
      ],
      "stateMutability": "nonpayable",
      "type": "constructor"
    },
    {
      "inputs": [],
      "name": "CodeDeploymentFailed",
      "type": "error"
    },
    {
      "inputs": [],
      "name": "Create2EmptyBytecode",
      "type": "error"
    },
    {
      "inputs": [],
      "name": "Disabled",
      "type": "error"
    },
    {
      "inputs": [],
      "name": "FailedDeployment",
      "type": "error"
    },
    {
      "inputs": [],
      "name": "IndexOutOfBounds",
      "type": "error"
    },
    {
      "inputs": [
        {
          "internalType": "uint256",
          "name": "balance",
          "type": "uint256"
        },
        {
          "internalType": "uint256",
          "name": "needed",
          "type": "uint256"
        }
      ],
      "name": "InsufficientBalance",
      "type": "error"
    },
    {
      "inputs": [],
      "name": "PoolPauseWindowDurationOverflow",
      "type": "error"
    },
    {
      "inputs": [],
      "name": "SenderNotAllowed",
      "type": "error"
    },
    {
      "inputs": [],
      "name": "StandardPoolWithCreator",
      "type": "error"
    },
    {
      "inputs": [],
      "name": "VaultNotSet",
      "type": "error"
    },
    {
      "anonymous": false,
      "inputs": [],
      "name": "FactoryDisabled",
      "type": "event"
    },
    {
      "anonymous": false,
      "inputs": [
        {
          "indexed": true,
          "internalType": "address",
          "name": "pool",
          "type": "address"
        }
      ],
      "name": "PoolCreated",
      "type": "event"
    },
    {
      "inputs": [
        {
          "internalType": "string",
          "name": "name",
          "type": "string"
        },
        {
          "internalType": "string",
          "name": "symbol",
          "type": "string"
        },
        {
          "components": [
            {
              "internalType": "contract IERC20",
              "name": "token",
              "type": "address"
            },
            {
              "internalType": "enum TokenType",
              "name": "tokenType",
              "type": "uint8"
            },
            {
              "internalType": "contract IRateProvider",
              "name": "rateProvider",
              "type": "address"
            },
            {
              "internalType": "bool",
              "name": "paysYieldFees",
              "type": "bool"
            }
          ],
          "internalType": "struct TokenConfig[]",
          "name": "tokens",
          "type": "tuple[]"
        },
        {
          "internalType": "uint256[]",
          "name": "normalizedWeights",
          "type": "uint256[]"
        },
        {
          "components": [
            {
              "internalType": "address",
              "name": "pauseManager",
              "type": "address"
            },
            {
              "internalType": "address",
              "name": "swapFeeManager",
              "type": "address"
            },
            {
              "internalType": "address",
              "name": "poolCreator",
              "type": "address"
            }
          ],
          "internalType": "struct PoolRoleAccounts",
          "name": "roleAccounts",
          "type": "tuple"
        },
        {
          "internalType": "uint256",
          "name": "swapFeePercentage",
          "type": "uint256"
        },
        {
          "internalType": "address",
          "name": "poolHooksContract",
          "type": "address"
        },
        {
          "internalType": "bool",
          "name": "enableDonation",
          "type": "bool"
        },
        {
          "internalType": "bool",
          "name": "disableUnbalancedLiquidity",
          "type": "bool"
        },
        {
          "internalType": "bytes32",
          "name": "salt",
          "type": "bytes32"
        }
      ],
      "name": "create",
      "outputs": [
        {
          "internalType": "address",
          "name": "pool",
          "type": "address"
        }
      ],
      "stateMutability": "nonpayable",
      "type": "function"
    },
    {
      "inputs": [],
      "name": "disable",
      "outputs": [],
      "stateMutability": "nonpayable",
      "type": "function"
    },
    {
      "inputs": [
        {
          "internalType": "bytes4",
          "name": "selector",
          "type": "bytes4"
        }
      ],
      "name": "getActionId",
      "outputs": [
        {
          "internalType": "bytes32",
          "name": "",
          "type": "bytes32"
        }
      ],
      "stateMutability": "view",
      "type": "function"
    },
    {
      "inputs": [],
      "name": "getAuthorizer",
      "outputs": [
        {
          "internalType": "contract IAuthorizer",
          "name": "",
          "type": "address"
        }
      ],
      "stateMutability": "view",
      "type": "function"
    },
    {
      "inputs": [],
      "name": "getCreationCode",
      "outputs": [
        {
          "internalType": "bytes",
          "name": "",
          "type": "bytes"
        }
      ],
      "stateMutability": "view",
      "type": "function"
    },
    {
      "inputs": [],
      "name": "getCreationCodeContracts",
      "outputs": [
        {
          "internalType": "address",
          "name": "contractA",
          "type": "address"
        },
        {
          "internalType": "address",
          "name": "contractB",
          "type": "address"
        }
      ],
      "stateMutability": "view",
      "type": "function"
    },
    {
      "inputs": [],
      "name": "getDefaultLiquidityManagement",
      "outputs": [
        {
          "components": [
            {
              "internalType": "bool",
              "name": "disableUnbalancedLiquidity",
              "type": "bool"
            },
            {
              "internalType": "bool",
              "name": "enableAddLiquidityCustom",
              "type": "bool"
            },
            {
              "internalType": "bool",
              "name": "enableRemoveLiquidityCustom",
              "type": "bool"
            },
            {
              "internalType": "bool",
              "name": "enableDonation",
              "type": "bool"
            }
          ],
          "internalType": "struct LiquidityManagement",
          "name": "liquidityManagement",
          "type": "tuple"
        }
      ],
      "stateMutability": "pure",
      "type": "function"
    },
    {
      "inputs": [],
      "name": "getDefaultPoolHooksContract",
      "outputs": [
        {
          "internalType": "address",
          "name": "",
          "type": "address"
        }
      ],
      "stateMutability": "pure",
      "type": "function"
    },
    {
      "inputs": [
        {
          "internalType": "bytes",
          "name": "constructorArgs",
          "type": "bytes"
        },
        {
          "internalType": "bytes32",
          "name": "salt",
          "type": "bytes32"
        }
      ],
      "name": "getDeploymentAddress",
      "outputs": [
        {
          "internalType": "address",
          "name": "",
          "type": "address"
        }
      ],
      "stateMutability": "view",
      "type": "function"
    },
    {
      "inputs": [],
      "name": "getNewPoolPauseWindowEndTime",
      "outputs": [
        {
          "internalType": "uint32",
          "name": "",
          "type": "uint32"
        }
      ],
      "stateMutability": "view",
      "type": "function"
    },
    {
      "inputs": [],
      "name": "getOriginalPauseWindowEndTime",
      "outputs": [
        {
          "internalType": "uint32",
          "name": "",
          "type": "uint32"
        }
      ],
      "stateMutability": "view",
      "type": "function"
    },
    {
      "inputs": [],
      "name": "getPauseWindowDuration",
      "outputs": [
        {
          "internalType": "uint32",
          "name": "",
          "type": "uint32"
        }
      ],
      "stateMutability": "view",
      "type": "function"
    },
    {
      "inputs": [],
      "name": "getPoolCount",
      "outputs": [
        {
          "internalType": "uint256",
          "name": "",
          "type": "uint256"
        }
      ],
      "stateMutability": "view",
      "type": "function"
    },
    {
      "inputs": [],
      "name": "getPoolVersion",
      "outputs": [
        {
          "internalType": "string",
          "name": "",
          "type": "string"
        }
      ],
      "stateMutability": "view",
      "type": "function"
    },
    {
      "inputs": [],
      "name": "getPools",
      "outputs": [
        {
          "internalType": "address[]",
          "name": "",
          "type": "address[]"
        }
      ],
      "stateMutability": "view",
      "type": "function"
    },
    {
      "inputs": [
        {
          "internalType": "uint256",
          "name": "start",
          "type": "uint256"
        },
        {
          "internalType": "uint256",
          "name": "count",
          "type": "uint256"
        }
      ],
      "name": "getPoolsInRange",
      "outputs": [
        {
          "internalType": "address[]",
          "name": "pools",
          "type": "address[]"
        }
      ],
      "stateMutability": "view",
      "type": "function"
    },
    {
      "inputs": [],
      "name": "getVault",
      "outputs": [
        {
          "internalType": "contract IVault",
          "name": "",
          "type": "address"
        }
      ],
      "stateMutability": "view",
      "type": "function"
    },
    {
      "inputs": [],
      "name": "isDisabled",
      "outputs": [
        {
          "internalType": "bool",
          "name": "",
          "type": "bool"
        }
      ],
      "stateMutability": "view",
      "type": "function"
    },
    {
      "inputs": [
        {
          "internalType": "address",
          "name": "pool",
          "type": "address"
        }
      ],
      "name": "isPoolFromFactory",
      "outputs": [
        {
          "internalType": "bool",
          "name": "",
          "type": "bool"
        }
      ],
      "stateMutability": "view",
      "type": "function"
    },
    {
      "inputs": [],
      "name": "version",
      "outputs": [
        {
          "internalType": "string",
          "name": "",
          "type": "string"
        }
      ],
      "stateMutability": "view",
      "type": "function"
    }
  ],
  "bytecode": "0x610180604052346100aa5761001e61001561013d565b92919091610385565b6040516119e390816105e38239608051818181610211015261153d015260a051816114c7015260c0518181816102350152611562015260e051816114e80152610100518161116e01526101205181818161032e01528181610ac601528181610b5a0152818161138a015261178f01526101405181610a26015261016051818181610bfb01526111db0152f35b5f80fd5b634e487b7160e01b5f52604160045260245ffd5b6040519190601f01601f191682016001600160401b038111838210176100e757604052565b6100ae565b81601f820112156100aa578051906001600160401b0382116100e75761011b601f8301601f19166020016100c2565b92828452602083830101116100aa57815f9260208093018386015e8301015290565b616f7a908138038061014e816100c2565b9384398201906080838303126100aa578251906001600160a01b03821682036100aa5760208401519363ffffffff851685036100aa5760408101516001600160401b0394908581116100aa57816101a69184016100ec565b9460608301519081116100aa576101bd92016100ec565b9193929190565b90600182811c921680156101f2575b60208310146101de57565b634e487b7160e01b5f52602260045260245ffd5b91607f16916101d3565b601f8111610208575050565b60035f5260205f20906020601f840160051c83019310610242575b601f0160051c01905b818110610237575050565b5f815560010161022c565b9091508190610223565b601f8111610258575050565b60045f5260205f20906020601f840160051c83019310610292575b601f0160051c01905b818110610287575050565b5f815560010161027c565b9091508190610273565b80519091906001600160401b0381116100e7576102c3816102be6004546101c4565b61024c565b602080601f8311600114610304575081906102f493945f926102f9575b50508160011b915f199060031b1c19161790565b600455565b015190505f806102e0565b60045f52601f198316949091907f8a35acfbc15ff81a39ae7d344fd709f28e8600b4aa8c65c6b64bfe7fe36bd19b925f905b87821061036d575050836001959610610355575b505050811b01600455565b01515f1960f88460031b161c191690555f808061034a565b80600185968294968601518155019501930190610336565b929192614fb4610397602082016100c2565b90808252611fc660208301398051908160011c918260a05282810392818411610450578360e0528083526103ca83610553565b60805282019182519383526103de836105a2565b60c052525230610100526001600160a01b03811615610441576101205263ffffffff9261040d84831642610464565b93808511610432576104309461042b93610140521661016052610476565b61029c565b565b6368755a1160e01b5f5260045ffd5b630647140b60e51b5f5260045ffd5b634e487b7160e01b5f52601160045260245ffd5b9190820180921161047157565b610450565b80519091906001600160401b0381116100e75761049d816104986003546101c4565b6101fc565b602080601f83116001146104d2575081906104cd93945f926102f95750508160011b915f199060031b1c19161790565b600355565b60035f52601f198316949091907fc2575a0e9e593c00f959f8c92f12db2869c3395a3b0502d05e2516446f71f85b925f905b87821061053b575050836001959610610523575b505050811b01600355565b01515f1960f88460031b161c191690555f8080610518565b80600185968294968601518155019501930190610504565b9081517f602038038060206000396000f3fefefefefefefefefefefefefefefefefefefe835260208101835ff092526001600160a01b0382161561059357565b63fef8220760e01b5f5260045ffd5b9081517f60fe600053602038038060206001396001016000f3fefefefefefefefefefefe835260208101835ff092526001600160a01b038216156105935756fe60806040526004361015610011575f80fd5b5f3560e01c8062c194db14610153578063174481fa1461014e578063193ad50f146101495780632f2770db146101445780633f819b6f1461013f57806344f6fec71461013a57806353a72f7e1461013557806354fd4d50146101305780636634b7531461012b578063673a2a1f146101265780636c57f5a91461012157806378da80cb1461011c578063851c1bb3146101175780638d928af8146101125780638eec5d701461010d578063aaabadc514610108578063db035ebc14610103578063e9d56e19146100fe578063ec888061146100f95763fed4cdda146100f4575f80fd5b610e2b565b610c1f565b610bdf565b610bb7565b610b07565b610aea565b610a9a565b610a4a565b610a0a565b6109e8565b61094d565b610900565b61079a565b61067b565b61056f565b61046e565b6102ab565b61025c565b6101e5565b61018b565b5f91031261016257565b5f80fd5b90601f19601f602080948051918291828752018686015e5f8582860101520116010190565b34610162575f600319360112610162576040516020810181811067ffffffffffffffff8211176101e0576101dc916101c8916040525f81526114c4565b604051918291602083526020830190610166565b0390f35b610489565b34610162575f600319360112610162576040805173ffffffffffffffffffffffffffffffffffffffff807f00000000000000000000000000000000000000000000000000000000000000001682527f0000000000000000000000000000000000000000000000000000000000000000166020820152f35b34610162575f600319360112610162576080610276610f09565b6102a960405180926060809180511515845260208101511515602085015260408101511515604085015201511515910152565bf35b34610162575f600319360112610162576102e77fffffffff000000000000000000000000000000000000000000000000000000005f3516611143565b73ffffffffffffffffffffffffffffffffffffffff604051917faaabadc50000000000000000000000000000000000000000000000000000000083526020928381600481867f0000000000000000000000000000000000000000000000000000000000000000165afa80156104265784926103ad925f9261042b575b506040517f9be2a884000000000000000000000000000000000000000000000000000000008152600481019190915233602482015230604482015293849283919082906064820190565b0392165afa918215610426575f926103f9575b5050156103d1576103cf610f2d565b005b7f23dada53000000000000000000000000000000000000000000000000000000005f5260045ffd5b6104189250803d1061041f575b61041081836104e6565b810190611998565b5f806103c0565b503d610406565b6111ce565b61044c919250843d8611610453575b61044481836104e6565b8101906111b9565b905f610363565b503d61043a565b90602061046b928181520190610166565b90565b34610162575f600319360112610162576101dc6101c8610f86565b7f4e487b71000000000000000000000000000000000000000000000000000000005f52604160045260245ffd5b6080810190811067ffffffffffffffff8211176101e057604052565b67ffffffffffffffff81116101e057604052565b90601f601f19910116810190811067ffffffffffffffff8211176101e057604052565b6040519060c0820182811067ffffffffffffffff8211176101e057604052565b92919267ffffffffffffffff82116101e057604051916105536020601f19601f84011601846104e6565b829481845281830111610162578281602093845f960137010152565b346101625760406003193601126101625760043567ffffffffffffffff811161016257366023820112156101625773ffffffffffffffffffffffffffffffffffffffff6055600b6105cd6101dc943690602481600401359101610529565b6105e16105db6024356115be565b916114c4565b602081519101209060405191604083015260208201523081520160ff815320166040519182918291909173ffffffffffffffffffffffffffffffffffffffff6020820193169052565b60209060206040818301928281528551809452019301915f5b828110610651575050505090565b835173ffffffffffffffffffffffffffffffffffffffff1685529381019392810192600101610643565b346101625760406003193601126101625760043560243590600191600154808310156107725781830180841161076d57811061075c575b506106bc81610c54565b916106ca60405193846104e6565b818352601f196106d983610c54565b013660208501375f5b8281106106f757604051806101dc868261062a565b8061075661073161071161070c8995876110ad565b6110f5565b905473ffffffffffffffffffffffffffffffffffffffff9160031b1c1690565b61073b838861112f565b9073ffffffffffffffffffffffffffffffffffffffff169052565b016106e2565b8281039150811161076d575f6106b2565b611080565b7f4e23d035000000000000000000000000000000000000000000000000000000005f5260045ffd5b34610162575f600319360112610162576040515f60035460018160011c91600181169182156108c8575b60209160208510841461089b57848752602087019390811561085e5750600114610805575b6101dc866107f9818803826104e6565b6040519182918261045a565b60035f90815294509192917fc2575a0e9e593c00f959f8c92f12db2869c3395a3b0502d05e2516446f71f85b5b83861061084d57505050910190506107f9826101dc5f6107e9565b805485870152948201948101610832565b7fffffffffffffffffffffffffffffffffffffffffffffffffffffffffffffff0016845250505090151560051b0190506107f9826101dc5f6107e9565b7f4e487b71000000000000000000000000000000000000000000000000000000005f52602260045260245ffd5b92607f16926107c4565b73ffffffffffffffffffffffffffffffffffffffff81160361016257565b61010435906108fe826108d2565b565b346101625760206003193601126101625773ffffffffffffffffffffffffffffffffffffffff600435610932816108d2565b165f525f602052602060ff60405f2054166040519015158152f35b34610162575f60031936011261016257604051806001916001549283825260208092019360015f527fb10e2d527612073b26eecdfd717e6a320cf44b4afac2b0732d9fcbe2b7fa0cf6925f905b8282106109bd576101dc866109b1818a03826104e6565b6040519182918261062a565b845473ffffffffffffffffffffffffffffffffffffffff16875295860195938301939083019061099a565b34610162575f60031936011261016257602060ff600254166040519015158152f35b34610162575f60031936011261016257602060405163ffffffff7f0000000000000000000000000000000000000000000000000000000000000000168152f35b34610162576020600319360112610162576004357fffffffff000000000000000000000000000000000000000000000000000000008116810361016257610a92602091611143565b604051908152f35b34610162575f60031936011261016257602060405173ffffffffffffffffffffffffffffffffffffffff7f0000000000000000000000000000000000000000000000000000000000000000168152f35b34610162575f600319360112610162576020600154604051908152f35b34610162575f600319360112610162576040517faaabadc500000000000000000000000000000000000000000000000000000000815273ffffffffffffffffffffffffffffffffffffffff6020826004817f000000000000000000000000000000000000000000000000000000000000000085165afa908115610426576020925f92610b98575b5060405191168152f35b610bb0919250833d85116104535761044481836104e6565b905f610b8e565b34610162575f600319360112610162576020610bd16111d9565b63ffffffff60405191168152f35b34610162575f60031936011261016257602060405163ffffffff7f0000000000000000000000000000000000000000000000000000000000000000168152f35b34610162575f6003193601126101625760206040515f8152f35b9080601f830112156101625781602061046b93359101610529565b67ffffffffffffffff81116101e05760051b60200190565b8015150361016257565b61012435906108fe82610c6c565b61014435906108fe82610c6c565b9080601f83011215610162578135916020610cac84610c54565b93604093610cbd60405196876104e6565b818652828087019260071b85010193818511610162578301915b848310610ce75750505050505090565b60808383031261016257855190610cfd826104b6565b8335610d08816108d2565b8252848401359060028210156101625782869283608095015288860135610d2e816108d2565b8982015260608087013590610d4282610c6c565b820152815201920191610cd7565b9080601f83011215610162576020908235610d6a81610c54565b93610d7860405195866104e6565b81855260208086019260051b82010192831161016257602001905b828210610da1575050505090565b81358152908301908301610d93565b7fffffffffffffffffffffffffffffffffffffffffffffffffffffffffffffff7c606091011261016257604051906060820182811067ffffffffffffffff8211176101e05760405281608435610e05816108d2565b815260a435610e13816108d2565b6020820152604060c43591610e27836108d2565b0152565b34610162576101806003193601126101625767ffffffffffffffff60043581811161016257610e5e903690600401610c39565b9060243581811161016257610e77903690600401610c39565b60443582811161016257610e8f903690600401610c92565b606435928311610162576101dc93610eae610ee2943690600401610d50565b90610eb836610db0565b90610ec16108f0565b91610eca610c76565b93610ed3610c84565b95610164359760e4359461130b565b60405173ffffffffffffffffffffffffffffffffffffffff90911681529081906020820190565b60405190610f16826104b6565b5f6060838281528260208201528260408201520152565b610f3561158a565b60017fffffffffffffffffffffffffffffffffffffffffffffffffffffffffffffff0060025416176002557f432acbfd662dbb5d8b378384a67159b47ca9d0f1b79f97cf64cf8585fa362d505f80a1565b604051905f6004546001918160011c9260018316908115611076575b60209060208610831461089b57858852879460208601939081156110385750600114610fd8575b5050506108fe925003836104e6565b92509361100660045f527f8a35acfbc15ff81a39ae7d344fd709f28e8600b4aa8c65c6b64bfe7fe36bd19b90565b945f935b828510611022575050506108fe9350015f8080610fc9565b865485850152958601958895509381019361100a565b9150506108fe959293507fffffffffffffffffffffffffffffffffffffffffffffffffffffffffffffff009150168252151560051b015f8080610fc9565b93607f1693610fa2565b7f4e487b71000000000000000000000000000000000000000000000000000000005f52601160045260245ffd5b9190820180921161076d57565b601203906012821161076d57565b7f4e487b71000000000000000000000000000000000000000000000000000000005f52603260045260245ffd5b60015481101561112a5760015f527fb10e2d527612073b26eecdfd717e6a320cf44b4afac2b0732d9fcbe2b7fa0cf601905f90565b6110c8565b805182101561112a5760209160051b010190565b6040517fffffffff0000000000000000000000000000000000000000000000000000000060208201927f00000000000000000000000000000000000000000000000000000000000000008452166040820152602481526060810181811067ffffffffffffffff8211176101e05760405251902090565b90816020910312610162575161046b816108d2565b6040513d5f823e3d90fd5b7f000000000000000000000000000000000000000000000000000000000000000063ffffffff811642101561120b5790565b505f90565b9081518082526020808093019301915f5b82811061122f575050505090565b835185529381019392810192600101611221565b929160206112ee6108fe9360408752611269815160c060408a0152610100890190610166565b60a06112dc6112c86112ab87860151947fffffffffffffffffffffffffffffffffffffffffffffffffffffffffffffffc0958d60608882850301910152610166565b604086015160808d015260608601518c82038601858e0152611210565b6080850151848c83030160c08d0152610166565b920151908883030160e0890152611210565b94019073ffffffffffffffffffffffffffffffffffffffff169052565b91989290999794939461131c610f09565b9715156060890152151587528851996113348b6115e7565b9a5f5b8181106113cd5750506113c693928a9b6113b3936113c1936108fe9c9d519061135e610509565b948552602085015260408401526060830152611378610f86565b608083015260a08201526040519283917f00000000000000000000000000000000000000000000000000000000000000009060208401611243565b03601f1981018352826104e6565b61163f565b9687611770565b6114186113ff6113ff6113ff8f856113e49161112f565b515173ffffffffffffffffffffffffffffffffffffffff1690565b73ffffffffffffffffffffffffffffffffffffffff1690565b9060405180927f313ce56700000000000000000000000000000000000000000000000000000000825281600460209384935afa8015610426578f9161148a61147b61147660ff6114909560019989965f92611497575b5050166110ba565b611631565b620f4240818082119118021890565b9261112f565b5201611337565b6114b69250803d106114bd575b6114ae81836104e6565b810190611618565b5f8061146e565b503d6114a4565b907f00000000000000000000000000000000000000000000000000000000000000007f00000000000000000000000000000000000000000000000000000000000000008082019081831161076d578451928383019586841161076d5760209260018480946040519a82818d01016040528b52805f838d017f00000000000000000000000000000000000000000000000000000000000000003c8a01017f00000000000000000000000000000000000000000000000000000000000000003c01918501015e565b60ff6002541661159657565b7f75884cda000000000000000000000000000000000000000000000000000000005f5260045ffd5b60405160208101913383524660408301526060820152606081526115e1816104b6565b51902090565b906115f182610c54565b6115fe60405191826104e6565b828152601f1961160e8294610c54565b0190602036910137565b90816020910312610162575160ff811681036101625790565b604d811161076d57600a0a90565b906105db61164c916115be565b805115611748576020815191015ff5903d15198215166111ce5773ffffffffffffffffffffffffffffffffffffffff91828116908115611720579261168f61158a565b815f525f60205260405f2060017fffffffffffffffffffffffffffffffffffffffffffffffffffffffffffffff00825416179055600154680100000000000000008110156101e0578060016116e792016001556110f5565b819291549060031b9184831b921b19161790557f83a48fbcfc991335314e74d0496aab6a1987e992ddc85dddbcc4d6dd6ef2e9fc5f80a2565b7fb06ebf3d000000000000000000000000000000000000000000000000000000005f5260045ffd5b7f4ca249dc000000000000000000000000000000000000000000000000000000005f5260045ffd5b92949193909473ffffffffffffffffffffffffffffffffffffffff93847f000000000000000000000000000000000000000000000000000000000000000016956117b86111d9565b91873b156101625797959493929190604095604051998a987feeec802f000000000000000000000000000000000000000000000000000000008a526004836101a48c01931660048c015260246101a060248d015282518094526101c48c019a6020809401955f935b86851061190e57505050505050505086946118b85f9997939561189a889661185b8d996118ea9760448b015260648a019063ffffffff169052565b88608489015260a48801906040908173ffffffffffffffffffffffffffffffffffffffff91828151168552826020820151166020860152015116910152565b73ffffffffffffffffffffffffffffffffffffffff16610104860152565b805115156101248501526020810151151561014485015260408101511515610164850152606001511515610184840152565b03925af18015610426576118fb5750565b806119086108fe926104d2565b80610158565b9193959798999a9b9c90929496809e505183815116825287810151600281101561196d5782899260809284600196015286888201511688830152606080910151151590820152019e0195019290918f9d9c9b9a99989795969492611820565b866021857f4e487b71000000000000000000000000000000000000000000000000000000005f52525ffd5b90816020910312610162575161046b81610c6c56fea2646970667358221220cfff85638499de3db83cf4bd2575c7d2437f71745c1c5ffa4e5a9fee0adbcc2c64736f6c634300081b00336103c0806040523461098d57614fb4803803809161001d8285610991565b8339810160408282031261098d5781516001600160401b03811161098d5782019160c08383031261098d576040519160c083016001600160401b0381118482101761089f5760405283516001600160401b03811161098d57816100819186016109b4565b835260208401516001600160401b03811161098d57816100a29186016109b4565b602084019081526040858101519085015260608501519092906001600160401b03811161098d57826100d5918701610a09565b606085015260808501516001600160401b03811161098d57826100f99187016109b4565b6080850190815260a0860151909590926001600160401b03841161098d576020936101249201610a09565b60a08501520151926001600160a01b038416840361098d575182519151604080519194919081016001600160401b0381118282101761089f576040526001815260208101603160f81b815261017885610a97565b6101205261018582610c1a565b6101405284516020860120918260e05251902080610100524660a0526040519060208201927f8b73c3c69bb8fe3d512ecc4cf759cc79239f7b179b0ffacaa9a75d522b39400f8452604083015260608201524660808201523060a082015260a0815260c0810181811060018060401b0382111761089f576040525190206080523060c0526101608581528351939092906001600160401b03851161089f57600394855491600183811c93168015610983575b602084101461096f578190601f93848111610921575b506020908483116001146108be575f926108b3575b50508160011b915f1990881b1c19161785555b85516001600160401b03811161089f576004968754600181811c91168015610895575b60208210146107a957908184849311610847575b506020908483116001146107e4575f926107d9575b50508160011b915f1990881b1c19161786555b6101809687528151906001600160401b0382116107c6576005928354600181811c911680156107bc575b60208210146107a9579081838594931161075a575b5060209183116001146106f7575f926106ec575b50508160011b915f1990871b1c19161781555b6040820151916101a092808452606082015151036106de575f935f5b845160ff8216908110156104ab57610372816060860151610a6f565b5196662386f26fc10000881061049d5787810180911161048a579661039b8260a0870151610a6f565b5191620f4240831061047c57806103dd57506101c0526102c0525b60ff8091169081146103ca57600101610356565b601188634e487b7160e01b5f525260245ffd5b600181036103f357506101e0526102e0526103b6565b60028103610409575061020052610300526103b6565b808a0361041e575061022052610320526103b6565b808b03610433575061024052610340526103b6565b808703610448575061026052610360526103b6565b6006810361045e575061028052610380526103b6565b60071461046d575b50506103b6565b6102a0526103a0525f80610466565b8a633bdab6b560e21b5f525ffd5b60118a634e487b7160e01b5f525260245ffd5b8963bd39358360e01b5f525ffd5b828a878b670de0b6b3a76400008b036106d05750604051916142639384610d51853960805184612b5f015260a05184612c2b015260c05184612b30015260e05184612bae01526101005184612bd40152610120518461117d015261014051846111a701525183818161026b015281816104b00152818161068701528181610dd401528181611142015281816117050152818161199101528181611c670152818161242301528181612ac50152612e590152518281816105c50152818161097201528181610a3b01528181610cd001526112cc01525181612c5301526101c0518181816127840152612c7f01526101e0518181816127b10152612caa0152610200518181816127de0152612cde01526102205181818161280b0152612d120152610240518181816128380152612d460152610260518181816128650152612d7a0152610280518181816128920152612db101526102a0518181816128bd0152612de301526102c05181818161290f01528181612e98015261304c01526102e05181818161297701528181612ec3015261307f0152610300518181816129a601528181612ef701526130bb0152610320518181816129d501528181612f2b01526130f7015261034051818181612a0401528181612f5f0152613135015261036051818181612a3301528181612f930152613171015261038051818181612a6201528181612fca01526131ad01526103a051818181612a8901528181612ffc01526131e90152f35b631ce788a760e11b5f908152fd5b8563aaad13f760e01b5f525ffd5b015190505f80610327565b5f858152602081209350601f198516905b818110610742575090846001959493921061072b575b505050811b01815561033a565b01515f1983891b60f8161c191690555f808061071e565b92936020600181928786015181550195019301610708565b90919250845f5260205f2083808601871c820192602087106107a0575b948695949392919401871c01905b8181106107925750610313565b5f8155859450600101610785565b92508192610777565b602289634e487b7160e01b5f525260245ffd5b90607f16906102fe565b604187634e487b7160e01b5f525260245ffd5b015190505f806102c1565b5f8a8152602081209350601f198516905b81811061082f5750908460019594939210610818575b505050811b0186556102d4565b01515f19838a1b60f8161c191690555f808061080b565b929360206001819287860151815501950193016107f5565b909150885f5260205f208480850160051c8201926020861061088c575b9085949392910160051c01905b81811061087e57506102ac565b5f8155849350600101610871565b92508192610864565b90607f1690610298565b634e487b7160e01b5f52604160045260245ffd5b015190505f80610262565b5f898152602081209350601f198516905b81811061090957509084600195949392106108f2575b505050811b018555610275565b01515f19838a1b60f8161c191690555f80806108e5565b929360206001819287860151815501950193016108cf565b909150875f5260205f208480850160051c82019260208610610966575b9085949392910160051c01905b818110610958575061024d565b5f815584935060010161094b565b9250819261093e565b634e487b7160e01b5f52602260045260245ffd5b92607f1692610237565b5f80fd5b601f909101601f19168101906001600160401b0382119082101761089f57604052565b81601f8201121561098d578051906001600160401b03821161089f57604051926109e8601f8401601f191660200185610991565b8284526020838301011161098d57815f9260208093018386015e8301015290565b81601f8201121561098d578051916020916001600160401b03841161089f578360051b9060405194610a3d85840187610991565b8552838086019282010192831161098d578301905b828210610a60575050505090565b81518152908301908301610a52565b8051821015610a835760209160051b010190565b634e487b7160e01b5f52603260045260245ffd5b805160209081811015610b0d5750601f825111610acf5780825192015190808310610ac157501790565b825f19910360031b1b161790565b60448260405192839163305a27a960e01b83528160048401528051918291826024860152018484015e5f828201840152601f01601f19168101030190fd5b906001600160401b03821161089f575f54926001938481811c91168015610c10575b8382101461096f57601f8111610bdd575b5081601f8411600114610b7b57509282939183925f94610b70575b50501b915f199060031b1c1916175f5560ff90565b015192505f80610b5b565b919083601f1981165f8052845f20945f905b88838310610bc35750505010610bab575b505050811b015f5560ff90565b01515f1960f88460031b161c191690555f8080610b9e565b858701518855909601959485019487935090810190610b8d565b5f805284601f845f20920160051c820191601f860160051c015b828110610c05575050610b40565b5f8155018590610bf7565b90607f1690610b2f565b805160209081811015610c445750601f825111610acf5780825192015190808310610ac157501790565b9192916001600160401b03811161089f5760019182548381811c91168015610d46575b8282101461096f57601f8111610d13575b5080601f8311600114610cb35750819293945f92610ca8575b50505f19600383901b1c191690821b17905560ff90565b015190505f80610c91565b90601f19831695845f52825f20925f905b888210610cfc5750508385969710610ce4575b505050811b01905560ff90565b01515f1960f88460031b161c191690555f8080610cd7565b808785968294968601518155019501930190610cc4565b835f5283601f835f20920160051c820191601f850160051c015b828110610d3b575050610c78565b5f8155018490610d2d565b90607f1690610c6756fe6080604090808252600480361015610015575f80fd5b60e05f35811c92836301ffc9a71461201d5750826306fdde0314611f6e578263095ea7b314611ef057826316a0b3e014611cb957826318160ddd14611c9d57826323b872dd14611bf557826323de665114611bc3578263273c1adf14611ba157826330adf81f14611b67578263313ce56714611b4c5782633644e51514611b3057826353b79bd71461193c57826354fd4d501461184c5782635687f2b8146117ed578263627cdcb9146117c4578263654cf15d146117a2578263679aefce1461176b57826370a082311461169757826372c981861461137e5782637ecebe001461133a57826381fa807c1461126f57826384b0196e146111665782638d928af81461111657826395d89b4114611010578263984de9e814610e45578263a9059cbb14610d3c578263aa6ca80814610c77578263abb1dc44146109e0578263b156aa0a14610919578263b677fa56146108f7578263c0bc6f331461061e578263ce20ece7146105fe578263d335b0cf1461056b578263d505accf1461030057508163d67f280b146102e3578163dd62ed3e146101f0575063f89f27ed146101b9575f80fd5b346101ec575f6003193601126101ec576101e8906101d5612c51565b9051918291602083526020830190612234565b0390f35b5f80fd5b82346101ec57806003193601126101ec57602061020b6120a9565b60646102156120cc565b9473ffffffffffffffffffffffffffffffffffffffff808097875198899687957f927da10500000000000000000000000000000000000000000000000000000000875230908701521660248501521660448301527f0000000000000000000000000000000000000000000000000000000000000000165afa9081156102da575f916102a5575b6020925051908152f35b90506020823d6020116102d2575b816102c060209383612157565b810103126101ec57602091519061029b565b3d91506102b3565b513d5f823e3d90fd5b82346101ec575f6003193601126101ec576101e8906101d5612e11565b8390346101ec576003193601126101ec576103196120a9565b906103226120cc565b604435926084359060643560ff831683036101ec578042116105415761036f8273ffffffffffffffffffffffffffffffffffffffff165f52600260205260405f2080549060018201905590565b9061043b610432875195602087017f6e71edae12b1b97f4d1f60370fef10105fa2faae0126114a169c64845d6126c9815273ffffffffffffffffffffffffffffffffffffffff97889586891697888d840152878c1660608401528d608084015260a083015260c082015260c081526103e68161211f565b5190206103f1612b19565b908a51917f190100000000000000000000000000000000000000000000000000000000000083526002830152602282015260c43591604260a435922061373f565b909291926137ce565b168181036105145750505f8495966104ac60209651988996879586947fe1f21c67000000000000000000000000000000000000000000000000000000008652850160409194939294606082019573ffffffffffffffffffffffffffffffffffffffff80921683521660208201520152565b03927f0000000000000000000000000000000000000000000000000000000000000000165af19081156102da57506104e057005b6020813d60201161050c575b816104f960209383612157565b810103126101ec5761050a90612306565b005b3d91506104ec565b877f4b800e46000000000000000000000000000000000000000000000000000000005f525260245260445ffd5b867f62791302000000000000000000000000000000000000000000000000000000005f525260245ffd5b5082346101ec575f6003193601126101ec578051917fb45090f9000000000000000000000000000000000000000000000000000000008352309083015260208260248173ffffffffffffffffffffffffffffffffffffffff7f0000000000000000000000000000000000000000000000000000000000000000165afa9081156102da575f916102a5576020925051908152f35b83346101ec575f6003193601126101ec57602090516509184e72a0008152f35b9150346101ec575f6003193601126101ec57825161063b8161211f565b606081526020918282019160608352858101925f8452606082015f815260808301915f835260a08401935f855260c08101955f875273ffffffffffffffffffffffffffffffffffffffff7f000000000000000000000000000000000000000000000000000000000000000016908b517f535cfd8a00000000000000000000000000000000000000000000000000000000815230828201525f81602481865afa9081156108a7575f916108d5575b5083528b517f7e361bde00000000000000000000000000000000000000000000000000000000815230828201525f81602481865afa9081156108a7575f916108b1575b5084528b517fb45090f900000000000000000000000000000000000000000000000000000000815230828201528a81602481865afa9081156108a7575f9161087a575b5089526107796123da565b85528b519182917ff29486a100000000000000000000000000000000000000000000000000000000835230908301528160246101a09485935afa91821561087057928b9c926108089261081b96955f9e9c9d9e92610843575b50508a81015115158852610120610100918281015115158b52015115158a5283519d8d8f9e938f948552519301528c0190612234565b915190601f198b840301908b0152612234565b9551606088015251608087015251151560a086015251151560c0850152511515908301520390f35b6108629250803d10610869575b61085a8183612157565b81019061260a565b5f806107d2565b503d610850565b8c513d5f823e3d90fd5b90508a81813d83116108a0575b6108918183612157565b810103126101ec57515f61076e565b503d610887565b8d513d5f823e3d90fd5b6108cd91503d805f833e6108c58183612157565b810190612598565b90505f61072b565b6108f191503d805f833e6108e98183612157565b810190612756565b5f6106e8565b83346101ec575f6003193601126101ec57602090516709b6e64a8ec600008152f35b8382346101ec575f6003193601126101ec578151907f535cfd8a00000000000000000000000000000000000000000000000000000000825230908201525f8160248173ffffffffffffffffffffffffffffffffffffffff7f0000000000000000000000000000000000000000000000000000000000000000165afa9081156109d657916101e8925f926109ba575b5051918291602083526020830190612234565b6109cf9192503d805f833e6108e98183612157565b90836109a7565b82513d5f823e3d90fd5b5082346101ec575f6003193601126101ec5780517f67e0e076000000000000000000000000000000000000000000000000000000008152308382015273ffffffffffffffffffffffffffffffffffffffff916024905f8383817f000000000000000000000000000000000000000000000000000000000000000088165afa938415610c6d575f955f945f945f97610b19575b50505090610a9195949392918151968796608088526080880190612267565b6020878203818901528080875193848152019601925f905b838210610ad557898803868b015289806101e88b610ac78c8c612234565b908382036060850152612234565b9184989950606086979860019395978397518051610af2816122b0565b83528685820151168584015201511515898201520198019201899897969594929391610aa9565b94509450945094503d805f853e610b308185612157565b8301926080818503126101ec5780519367ffffffffffffffff948581116101ec5781610b5d918401612490565b936020808401518781116101ec5784019083601f830112156101ec57815192610b858461217a565b99610b9288519b8c612157565b848b52828b0191836060809702860101948786116101ec579b9c9b8401925b858410610bfa5750505050505050828201518581116101ec5781610bd6918401612537565b9460608301519081116101ec57610bed9201612537565b9194929193868080610a72565b86849d9e9d8903126101ec578951908782018d811183821017610c5b578b5284519060028210156101ec578f9183528686015191821682036101ec57828792838b950152610c498d8801612306565b8d8201528152019301929c9b9c610bb1565b83604186634e487b7160e01b5f52525ffd5b50513d5f823e3d90fd5b8382346101ec575f6003193601126101ec578151907fca4f280300000000000000000000000000000000000000000000000000000000825230908201525f8160248173ffffffffffffffffffffffffffffffffffffffff7f0000000000000000000000000000000000000000000000000000000000000000165afa9081156109d657916101e8925f92610d18575b5051918291602083526020830190612267565b610d359192503d805f833e610d2d8183612157565b81019061250e565b9083610d05565b5082346101ec57806003193601126101ec576020610dba92610d5c6120a9565b83517fbeabacc80000000000000000000000000000000000000000000000000000000081523392810192835273ffffffffffffffffffffffffffffffffffffffff909116602083015260243560408301529384918291606090910190565b03815f73ffffffffffffffffffffffffffffffffffffffff7f0000000000000000000000000000000000000000000000000000000000000000165af18015610c6d57610e0b575b6020905160018152f35b6020823d602011610e3d575b81610e2460209383612157565b810103126101ec57610e37602092612306565b50610e01565b3d9150610e17565b5082346101ec57806003193601126101ec57813567ffffffffffffffff81116101ec57610e759036908401612192565b60243560028110156101ec57610e8a8261303e565b610e93816122b0565b61100957825b610ea1612c51565b9080600314610fb45780600414610f2d5780600114610eea57600214610ed457605184634e487b7160e01b5f525260245ffd5b6020935090610ee291613879565b905b51908152f35b509092670de0b6b3a764000091828102928184041490151715610f1a5750602092610f14916133e7565b90610ee4565b601190634e487b7160e01b5f525260245ffd5b50925f9190670de0b6b3a76400005b8551841015610f7857610f70600191610f6a610f5887876123c6565b51610f63888b6123c6565b5190613405565b90613490565b930192610f3c565b92509350508015610f8d576020925090610ee4565b827f26543689000000000000000000000000000000000000000000000000000000005f525ffd5b50925f9190670de0b6b3a76400005b8551841015610f7857670de0b6b3a7640000611000600192610ffa610fe888886123c6565b51610ff3898c6123c6565b51906136a2565b906133d4565b04930192610fc3565b6003610e99565b8382346101ec575f6003193601126101ec57815191825f8354611032816122ce565b90818452602095600191876001821691825f146110d1575050600114611075575b5050506101e89291611066910385612157565b51928284938452830190612084565b5f90815286935091907f8a35acfbc15ff81a39ae7d344fd709f28e8600b4aa8c65c6b64bfe7fe36bd19b5b8284106110b957505050820101816110666101e8611053565b8054848a0186015288955087949093019281016110a0565b7fffffffffffffffffffffffffffffffffffffffffffffffffffffffffffffff00168782015293151560051b8601909301935084925061106691506101e89050611053565b83346101ec575f6003193601126101ec576020905173ffffffffffffffffffffffffffffffffffffffff7f0000000000000000000000000000000000000000000000000000000000000000168152f35b9150346101ec575f6003193601126101ec576111a17f00000000000000000000000000000000000000000000000000000000000000006134b2565b926111cb7f00000000000000000000000000000000000000000000000000000000000000006135e4565b815192602084019084821067ffffffffffffffff83111761125c57509161123c916101e8949382525f845261122f82519788977f0f0000000000000000000000000000000000000000000000000000000000000089528060208a0152880190612084565b9186830390870152612084565b904660608501523060808501525f60a085015283820360c0850152612234565b604190634e487b7160e01b5f525260245ffd5b8382346101ec575f6003193601126101ec578151907ff29486a100000000000000000000000000000000000000000000000000000000825230908201526101a090818160248173ffffffffffffffffffffffffffffffffffffffff7f0000000000000000000000000000000000000000000000000000000000000000165afa918215611330575f92611313575b505060608282015191015182519182526020820152f35b6113299250803d106108695761085a8183612157565b82806112fc565b83513d5f823e3d90fd5b83346101ec5760206003193601126101ec5760209073ffffffffffffffffffffffffffffffffffffffff61136c6120a9565b165f5260028252805f20549051908152f35b83346101ec5760209260031984813601126101ec5781359367ffffffffffffffff918286116101ec5785360301126101ec578251916113bc8361211f565b8481013560028110156101ec57835260248684019080870135825260448701358481116101ec576113f2908436918a0101612192565b93868601948552606086019060648901358252608087019860848101358a5260a481013573ffffffffffffffffffffffffffffffffffffffff811681036101ec5760a089015260c4810135908282116101ec570190366023830112156101ec5785820135908111611685578851916114738c601f19601f8501160184612157565b818352368583830101116101ec57815f92868e9301838601378301015260c08701526114a285518251906123c6565b519460018601809611611673575188516114bb916123c6565b51956114c8868351612907565b516114d2816122b0565b6114db816122b0565b6115b0576114e9905161277c565b906114f4885161277c565b925194670de0b6b3a7640000958661150b836133a0565b048111611589579061152061152692826125dc565b90613879565b938583029280840487149015171561157857505061155961157293611553610ee4979694611566946133e7565b90613405565b82818103911002846133d4565b049485905b51926125fd565b90612907565b601190634e487b7160e01b5f52525ffd5b857f340a4533000000000000000000000000000000000000000000000000000000005f525ffd5b6115be90979492975161277c565b6115c8855161277c565b908851670de0b6b3a76400006115dd896133a0565b04811161164c5761160592916115ff6115f9611553938b6125fd565b8a613879565b92613879565b927ffffffffffffffffffffffffffffffffffffffffffffffffff21f494c589c000084019384116115785750509161164461157292610ee49594613490565b95519061156b565b857f64590b9f000000000000000000000000000000000000000000000000000000005f525ffd5b82601186634e487b7160e01b5f52525ffd5b83604187634e487b7160e01b5f52525ffd5b8382346101ec57602091826003193601126101ec57826116b56120a9565b604473ffffffffffffffffffffffffffffffffffffffff9485855196879485937ff7888aec00000000000000000000000000000000000000000000000000000000855230908501521660248301527f0000000000000000000000000000000000000000000000000000000000000000165afa918215610c6d575f9261173c575b5051908152f35b9091508281813d8311611764575b6117548183612157565b810103126101ec57519083611735565b503d61174a565b50346101ec575f6003193601126101ec577f18e79a20000000000000000000000000000000000000000000000000000000005f525ffd5b83346101ec575f6003193601126101ec576020905167016345785d8a00008152f35b346101ec575f6003193601126101ec57335f908152600260205260409020805460018101909155005b83346101ec5760207f8c5be1e5ebec7d5bd14f71427d1e84f3dd0314c0f7b2291e5b200ac8c7c3b92561181f366121f2565b93919461182a612aae565b5193845273ffffffffffffffffffffffffffffffffffffffff908116941692a3005b83346101ec575f6003193601126101ec5780516005549091825f61186f846122ce565b808352602094600190866001821691825f146118fc5750506001146118a1575b50506101e89291611066910385612157565b9085925060055f527f036b6384b5eca791c62761152d0c79bb0604c104a5fb6f4eb0703f3154bb3db0915f925b8284106118e4575050508201018161106661188f565b8054848a0186015288955087949093019281016118ce565b7fffffffffffffffffffffffffffffffffffffffffffffffffffffffffffffff00168682015292151560051b85019092019250839150611066905061188f565b5082346101ec575f6003193601126101ec5780519061195a826120ef565b60609283835260209384840191818352838501928284528286019583875273ffffffffffffffffffffffffffffffffffffffff92837f0000000000000000000000000000000000000000000000000000000000000000169087517fca4f280300000000000000000000000000000000000000000000000000000000815230828201525f81602481865afa908115611b2657905f92918391611b0c575b50845260248951809481937f7e361bde00000000000000000000000000000000000000000000000000000000835230908301525afa908115611b02575f91611ae9575b5082919694979593989252611a4c612c51565b8352611a56612e11565b8552835197889683885260a088019051936080818a015284518092528060c08a019501925f905b838210611acc57505050505095611aaa611abb93926101e8979851601f1996878b840301908b0152612234565b915190848884030190880152612234565b915190848303016080850152612234565b8451811687528c9a50958201959382019360019190910190611a7d565b611afd91503d805f833e6108c58183612157565b611a39565b87513d5f823e3d90fd5b611b2091503d8085833e610d2d8183612157565b8c6119f6565b89513d5f823e3d90fd5b83346101ec575f6003193601126101ec57602090610ee2612b19565b83346101ec575f6003193601126101ec576020905160128152f35b83346101ec575f6003193601126101ec57602090517f6e71edae12b1b97f4d1f60370fef10105fa2faae0126114a169c64845d6126c98152f35b83346101ec575f6003193601126101ec57602090516729a2241af62c00008152f35b83346101ec5760207fddf252ad1be2c89b69c2b068fc378daa952ba7f163c4a11628f55a4df523b3ef61181f366121f2565b5082346101ec5760205f6084611c0a366121f2565b86517f15dacbea000000000000000000000000000000000000000000000000000000008152339881019890985273ffffffffffffffffffffffffffffffffffffffff928316602489015290821660448801526064870152859283917f0000000000000000000000000000000000000000000000000000000000000000165af18015610c6d57610e0b576020905160018152f35b83346101ec575f6003193601126101ec57602090610ee26123da565b8382346101ec5760606003193601126101ec57803567ffffffffffffffff81116101ec57611cea9036908301612192565b9160243590611cfc82604435956123c6565b5191611d078161277c565b670de0b6b3a764000080871115611ee95760025b9081600314611e8e5781600414611e0d575080600114611dcd57600214611d4f57605185634e487b7160e01b5f525260245ffd5b909192938115611da75750611d7e6020956001611d84936ec097ce7bc90715b34b9f0fffffffff040190613405565b84613490565b9283808211611d975750610ee491612907565b9050611da291612907565b610ee4565b7f0a0c22c7000000000000000000000000000000000000000000000000000000005f525ffd5b50909192938115611dfa5750611d7e602095611d84926ec097ce7bc90715b34b9f10000000000490613405565b601290634e487b7160e01b5f525260245ffd5b959693919492905085965f975b8751891015611e4857611e40600191610f6a611e368c8b6123c6565b51610f638d6123a5565b980197611e1a565b9396509194509295508115611e685750611d7e602095611d849290613405565b7f26543689000000000000000000000000000000000000000000000000000000005f525ffd5b9491969293905084935f945b8651861015611eca5786611ec1600192610ffa611eb78a8e6123c6565b51610ff38b6123a5565b04950194611e9a565b93975093509350938115611e685750611d7e602095611d849290613405565b6001611d1b565b5082346101ec57806003193601126101ec576020610dba92611f106120a9565b83517fe1f21c670000000000000000000000000000000000000000000000000000000081523392810192835273ffffffffffffffffffffffffffffffffffffffff909116602083015260243560408301529384918291606090910190565b83346101ec575f6003193601126101ec5780516003549091825f611f91846122ce565b808352602094600190866001821691825f146118fc575050600114611fc25750506101e89291611066910385612157565b9085925060035f527fc2575a0e9e593c00f959f8c92f12db2869c3395a3b0502d05e2516446f71f85b915f925b828410612005575050508201018161106661188f565b8054848a018601528895508794909301928101611fef565b82346101ec5760206003193601126101ec5735907fffffffff0000000000000000000000000000000000000000000000000000000082168092036101ec577f01ffc9a700000000000000000000000000000000000000000000000000000000602092148152f35b90601f19601f602080948051918291828752018686015e5f8582860101520116010190565b6004359073ffffffffffffffffffffffffffffffffffffffff821682036101ec57565b6024359073ffffffffffffffffffffffffffffffffffffffff821682036101ec57565b6080810190811067ffffffffffffffff82111761210b57604052565b634e487b7160e01b5f52604160045260245ffd5b60e0810190811067ffffffffffffffff82111761210b57604052565b6040810190811067ffffffffffffffff82111761210b57604052565b90601f601f19910116810190811067ffffffffffffffff82111761210b57604052565b67ffffffffffffffff811161210b5760051b60200190565b9080601f830112156101ec5760209082356121ac8161217a565b936121ba6040519586612157565b81855260208086019260051b8201019283116101ec57602001905b8282106121e3575050505090565b813581529083019083016121d5565b60031960609101126101ec5773ffffffffffffffffffffffffffffffffffffffff9060043582811681036101ec579160243590811681036101ec579060443590565b9081518082526020808093019301915f5b828110612253575050505090565b835185529381019392810192600101612245565b9081518082526020808093019301915f5b828110612286575050505090565b835173ffffffffffffffffffffffffffffffffffffffff1685529381019392810192600101612278565b600211156122ba57565b634e487b7160e01b5f52602160045260245ffd5b90600182811c921680156122fc575b60208310146122e857565b634e487b7160e01b5f52602260045260245ffd5b91607f16916122dd565b519081151582036101ec57565b8051156123205760200190565b634e487b7160e01b5f52603260045260245ffd5b8051600110156123205760400190565b8051600210156123205760600190565b8051600310156123205760800190565b8051600410156123205760a00190565b8051600510156123205760c00190565b8051600610156123205760e00190565b805160071015612320576101000190565b670de0b6b3a7640000518110156123205760051b670de0b6b3a76400200190565b80518210156123205760209160051b010190565b6040517fe4dc2aa400000000000000000000000000000000000000000000000000000000815230600482015260208160248173ffffffffffffffffffffffffffffffffffffffff7f0000000000000000000000000000000000000000000000000000000000000000165afa908115612485575f91612456575090565b90506020813d60201161247d575b8161247160209383612157565b810103126101ec575190565b3d9150612464565b6040513d5f823e3d90fd5b9080601f830112156101ec578151906020916124ab8161217a565b936124b96040519586612157565b81855260208086019260051b8201019283116101ec57602001905b8282106124e2575050505090565b815173ffffffffffffffffffffffffffffffffffffffff811681036101ec5781529083019083016124d4565b906020828203126101ec57815167ffffffffffffffff81116101ec576125349201612490565b90565b9080601f830112156101ec578151906020916125528161217a565b936125606040519586612157565b81855260208086019260051b8201019283116101ec57602001905b828210612589575050505090565b8151815290830190830161257b565b9190916040818403126101ec5780519267ffffffffffffffff938481116101ec57816125c5918401612537565b9360208301519081116101ec576125349201612537565b919082018092116125e957565b634e487b7160e01b5f52601160045260245ffd5b919082039182116125e957565b6101a0918190038281126101ec5760405192610140928385019285841067ffffffffffffffff85111761210b5760809084604052126101ec5761264c836120ef565b61265581612306565b835261266360208201612306565b92610160938487015261267860408301612306565b92610180938488015261268d60608401612306565b9087015285526080810151602086015260a0810151604086015260c0810151606086015260e081015164ffffffffff811681036101ec5760808601526101008082015163ffffffff811681036101ec5761271e946127149160a0890152612708610120976126fc898701612306565b60c08b01528501612306565b60e08901528301612306565b9086015201612306565b9082015290565b9061272f8261217a565b61273c6040519182612157565b828152601f1961274c829461217a565b0190602036910137565b906020828203126101ec57815167ffffffffffffffff81116101ec576125349201612537565b806127a657507f000000000000000000000000000000000000000000000000000000000000000090565b600181036127d357507f000000000000000000000000000000000000000000000000000000000000000090565b6002810361280057507f000000000000000000000000000000000000000000000000000000000000000090565b6003810361282d57507f000000000000000000000000000000000000000000000000000000000000000090565b6004810361285a57507f000000000000000000000000000000000000000000000000000000000000000090565b6005810361288757507f000000000000000000000000000000000000000000000000000000000000000090565b600681036128b457507f000000000000000000000000000000000000000000000000000000000000000090565b6007036128df577f000000000000000000000000000000000000000000000000000000000000000090565b7fc1ab6dc1000000000000000000000000000000000000000000000000000000005f5260045ffd5b908161296d577f0000000000000000000000000000000000000000000000000000000000000000915b82821061293c57505050565b7fd63c0233000000000000000000000000000000000000000000000000000000005f5260045260245260445260645ffd5b6001820361299c577f000000000000000000000000000000000000000000000000000000000000000091612930565b600282036129cb577f000000000000000000000000000000000000000000000000000000000000000091612930565b600382036129fa577f000000000000000000000000000000000000000000000000000000000000000091612930565b60048203612a29577f000000000000000000000000000000000000000000000000000000000000000091612930565b60058203612a58577f000000000000000000000000000000000000000000000000000000000000000091612930565b60068203612a87577f000000000000000000000000000000000000000000000000000000000000000091612930565b7f000000000000000000000000000000000000000000000000000000000000000091612930565b73ffffffffffffffffffffffffffffffffffffffff7f0000000000000000000000000000000000000000000000000000000000000000163303612aed57565b7f089676d5000000000000000000000000000000000000000000000000000000005f523360045260245ffd5b73ffffffffffffffffffffffffffffffffffffffff7f000000000000000000000000000000000000000000000000000000000000000016301480612c28575b15612b81577f000000000000000000000000000000000000000000000000000000000000000090565b60405160208101907f8b73c3c69bb8fe3d512ecc4cf759cc79239f7b179b0ffacaa9a75d522b39400f82527f000000000000000000000000000000000000000000000000000000000000000060408201527f000000000000000000000000000000000000000000000000000000000000000060608201524660808201523060a082015260a0815260c0810181811067ffffffffffffffff82111761210b5760405251902090565b507f00000000000000000000000000000000000000000000000000000000000000004614612b58565b7f000000000000000000000000000000000000000000000000000000000000000090612c7c82612725565b917f0000000000000000000000000000000000000000000000000000000000000000612ca784612313565b527f0000000000000000000000000000000000000000000000000000000000000000612cd284612334565b526002811115612e0e577f0000000000000000000000000000000000000000000000000000000000000000612d0684612344565b526003811115612e0e577f0000000000000000000000000000000000000000000000000000000000000000612d3a84612354565b526004811115612e0e577f0000000000000000000000000000000000000000000000000000000000000000612d6e84612364565b526005811115612e0e577f0000000000000000000000000000000000000000000000000000000000000000612da284612374565b526006811115612e0e576007907f0000000000000000000000000000000000000000000000000000000000000000612dd985612384565b5211612de157565b7f0000000000000000000000000000000000000000000000000000000000000000612e0b83612394565b52565b50565b6040517fca4f28030000000000000000000000000000000000000000000000000000000081523060048201525f8160248173ffffffffffffffffffffffffffffffffffffffff7f0000000000000000000000000000000000000000000000000000000000000000165afa908115612485575f91613024575b505190612e9582612725565b917f0000000000000000000000000000000000000000000000000000000000000000612ec084612313565b527f0000000000000000000000000000000000000000000000000000000000000000612eeb84612334565b526002811115612e0e577f0000000000000000000000000000000000000000000000000000000000000000612f1f84612344565b526003811115612e0e577f0000000000000000000000000000000000000000000000000000000000000000612f5384612354565b526004811115612e0e577f0000000000000000000000000000000000000000000000000000000000000000612f8784612364565b526005811115612e0e577f0000000000000000000000000000000000000000000000000000000000000000612fbb84612374565b526006811115612e0e576007907f0000000000000000000000000000000000000000000000000000000000000000612ff285612384565b5211612ffa57565b7f0000000000000000000000000000000000000000000000000000000000000000612e0b83612394565b61303891503d805f833e610d2d8183612157565b5f612e89565b805161304982612313565b517f0000000000000000000000000000000000000000000000000000000000000000809110613364575061307c82612334565b517f000000000000000000000000000000000000000000000000000000000000000080911061332757506002811115613250576130b882612344565b517f00000000000000000000000000000000000000000000000000000000000000008091106132ea57506003811115613250576130f482612354565b517f00000000000000000000000000000000000000000000000000000000000000008091106132ad5750600490818111156132605761313283612364565b517f0000000000000000000000000000000000000000000000000000000000000000809110613271575060058111156132605761316e83612374565b517f000000000000000000000000000000000000000000000000000000000000000080911061326557506006811115613260576131aa83612384565b517f0000000000000000000000000000000000000000000000000000000000000000809110613254575060071015613250576131e582612394565b51917f000000000000000000000000000000000000000000000000000000000000000080931061321457505050565b61321f600791612394565b51917fd63c0233000000000000000000000000000000000000000000000000000000005f525260245260445260645ffd5b5050565b82600661321f86612384565b505050565b82600561321f86612374565b8261327b85612364565b51907fd63c0233000000000000000000000000000000000000000000000000000000005f52805260245260445260645ffd5b6132b683612354565b517fd63c0233000000000000000000000000000000000000000000000000000000005f52600360045260245260445260645ffd5b6132f383612344565b517fd63c0233000000000000000000000000000000000000000000000000000000005f52600260045260245260445260645ffd5b61333083612334565b517fd63c0233000000000000000000000000000000000000000000000000000000005f52600160045260245260445260645ffd5b61336d83612313565b517fd63c0233000000000000000000000000000000000000000000000000000000005f525f60045260245260445260645ffd5b90670429d069189e0000918281029281840414901517156125e957565b90612710918281029281840414901517156125e957565b818102929181159184041417156125e957565b81156133f1570490565b634e487b7160e01b5f52601260045260245ffd5b90670de0b6b3a76400009081810361341c57505090565b671bc16d674ec8000081036134375750508061253491613490565b673782dace9d900000810361345b5750506134558161253492613490565b80613490565b61346591926138f6565b906001613471836133bd565b915f198301040190151502600181018091116125e957612534916125dc565b9061349a916133d4565b6001670de0b6b3a76400005f19830104019015150290565b60ff81146135065760ff811690601f82116134de57604051916134d48361213b565b8252602082015290565b7fb3512b0c000000000000000000000000000000000000000000000000000000005f5260045ffd5b506040515f815f5491613518836122ce565b808352926020906001908181169081156135a15750600114613543575b505061253492500382612157565b9150925f80527f290decd9548b62a8d60345a988386fc84ba6bc95484008f6362f93160ef3e563935f925b82841061358957506125349450505081016020015f80613535565b8554878501830152948501948694509281019261356e565b9050602093506125349592507fffffffffffffffffffffffffffffffffffffffffffffffffffffffffffffff0091501682840152151560051b8201015f80613535565b60ff81146136065760ff811690601f82116134de57604051916134d48361213b565b506040515f8160019160015461361b816122ce565b80845293602091600181169081156135a1575060011461364357505061253492500382612157565b91509260015f527fb10e2d527612073b26eecdfd717e6a320cf44b4afac2b0732d9fcbe2b7fa0cf6935f925b82841061368a57506125349450505081016020015f80613535565b8554878501830152948501948694509281019261366f565b670de0b6b3a7640000918083036136b95750905090565b8290671bc16d674ec8000081036136da575050806136d6916133d4565b0490565b673782dace9d90000081036136fe57506136f7826136d6936133d4565b04806133d4565b9050613709916138f6565b613712816133bd565b60015f199384830104019015150290600182018083116125e95781101561373a575050505f90565b030190565b91907f7fffffffffffffffffffffffffffffff5d576e7357a4501ddfe92f46681b20a084116137c3579160209360809260ff5f9560405194855216868401526040830152606082015282805260015afa15612485575f5173ffffffffffffffffffffffffffffffffffffffff8116156137b957905f905f90565b505f906001905f90565b5050505f9160039190565b60048110156122ba57806137e0575050565b60018103613810577ff645eedf000000000000000000000000000000000000000000000000000000005f5260045ffd5b6002810361384457507ffce698f7000000000000000000000000000000000000000000000000000000005f5260045260245ffd5b60031461384e5750565b7fd78bce0c000000000000000000000000000000000000000000000000000000005f5260045260245ffd5b9080156138aa57670de0b6b3a7640000918281029281840414901517156125e9576001905f19830104019015150290565b7f0a0c22c7000000000000000000000000000000000000000000000000000000005f5260045ffd5b80156133f1576ec097ce7bc90715b34b9f10000000000590565b81156133f1570590565b90801561421f578115614219578160ff1c6141f157770bce5086492111aea88f4bb1ca6bcf584181ea8059f765328110156141c95781670c7d713b49da000012806141b8575b15613e5557670de0b6b3a7640000916ec097ce7bc90715b34b9f10000000009061398f908402828101907fffffffffffffffffffffffffffffffffff3f68318436f8ea4cb460f0000000000183026138ec565b9080828002059181838202058284820205838582020591848684020593858786020595808888020597880205600f900596600d900595600b900594600990059360079005926005900591600390050101010101010160011b918082818507020592050201670de0b6b3a7640000905b057ffffffffffffffffffffffffffffffffffffffffffffffffdc702bd3a30fc00008181131580613e42575b15613e1a57819082121580613e07575b15613ddf575f915f8112613dd0575b506064906806f05b59d3b20000008112613d6d577ffffffffffffffffffffffffffffffffffffffffffffffff90fa4a62c4e0000000168056bc75e2d6310000082770195e54c5dd42177f53a27172fa9ec630262827000000000925b02819068ad78ebc5ac62000000811215613d34575b6856bc75e2d631000000811215613cfa575b682b5e3af16b18800000811215613cc2575b6815af1d78b58c400000811215613c8a575b680ad78ebc5ac6200000811215613c53575b82811215613c1c575b6802b5e3af16b1880000811215613be5575b68015af1d78b58c40000811215613bae575b60028382800205056003848383020505600485848302050585600581868402050560068287830205056007838883020505906008848984020505926009858a8602050595600a868b8902050597600b878c8b02050599600c888d8d0205059b01010101010101010101010102050205905f1461253457612534906138d2565b6806f5f17757889379377ffffffffffffffffffffffffffffffffffffffffffffffffea50e2874a73c000084920192020590613b2f565b6808f00f760a4b2db55d7ffffffffffffffffffffffffffffffffffffffffffffffffd4a1c50e94e78000084920192020590613b1d565b680ebc5fb417461211107ffffffffffffffffffffffffffffffffffffffffffffffffa9438a1d29cf0000084920192020590613b0b565b68280e60114edb805d037ffffffffffffffffffffffffffffffffffffffffffffffff5287143a539e0000084920192020590613b02565b690127fa27722cc06cc5e27fffffffffffffffffffffffffffffffffffffffffffffffea50e2874a73c0000084920192020590613af0565b693f1fce3da636ea5cf8507fffffffffffffffffffffffffffffffffffffffffffffffd4a1c50e94e780000084920192020590613ade565b6b02df0ab5a80a22c61ab5a7007fffffffffffffffffffffffffffffffffffffffffffffffa9438a1d29cf00000084920192020590613acc565b6e01855144814a7ff805980ff008400091507fffffffffffffffffffffffffffffffffffffffffffffff5287143a539e00000001613aba565b6803782dace9d90000008112613dbd577ffffffffffffffffffffffffffffffffffffffffffffffffc87d25316270000000168056bc75e2d63100000826b1425982cf597cd205cef738092613aa5565b68056bc75e2d6310000082600192613aa5565b600192505f0390506064613a49565b7fd4794efd000000000000000000000000000000000000000000000000000000005f5260045ffd5b5068070c1cc73b00c80000821315613a3a565b7fa2f9f7e3000000000000000000000000000000000000000000000000000000005f5260045ffd5b5068070c1cc73b00c80000821315613a2a565b81670de0b6b3a7640000925f918481126141a2575b506064905f7e1600ef3172e58d2e933ec884fde10064c63b5372d805e203c0000000000000821215614177575b73011798004d755d3c8bc8e03204cf44619e000000821215614156575b820290808302906e01855144814a7ff805980ff00840009081831215614133575b50506b02df0ab5a80a22c61ab5a70080821215614113575b50693f1fce3da636ea5cf850808212156140f3575b50690127fa27722cc06cc5e2808212156140d3575b5068280e60114edb805d03808212156140b3575b50680ebc5fb417461211108082121561409c575b506808f00f760a4b2db55d8082121561407c575b506806f5f17757889379378082121561405c575b506806248f33704b2866038082121561403d575b506805c548670b9510e7ac8082121561401e575b50613fcb68056bc75e2d6310000091827ffffffffffffffffffffffffffffffffffffffffffffffffa9438a1d29cf000008183019201026138ec565b9080828002059181838202058284820205916003600560076009600b888a89020598808b8b02059a8b0205059805960594059205010101010160011b0105905f14614019575f035b026139fe565b614013565b68056bc75e2d631000006756bc75e2d63100009202059101905f613f8f565b68056bc75e2d6310000067ad78ebc5ac6200009202059101905f613f7b565b68056bc75e2d6310000068015af1d78b58c400009202059101905f613f67565b68056bc75e2d631000006802b5e3af16b18800009202059101905f613f53565b68056bc75e2d63100000809202059101905f613f3f565b68056bc75e2d63100000680ad78ebc5ac62000009202059101905f613f2b565b68056bc75e2d631000006815af1d78b58c4000009202059101905f613f17565b68056bc75e2d63100000682b5e3af16b188000009202059101905f613f02565b68056bc75e2d631000006856bc75e2d6310000009202059101905f613eed565b68ad78ebc5ac62000000925069021e19e0c9bab240000002059101905f80613ed5565b906b1425982cf597cd205cef73806803782dace9d900000091059101613eb4565b50770195e54c5dd42177f53a27172fa9ec63026282700000000090056806f05b59d3b2000000613e97565b90506141ae91506138d2565b6001906064613e6a565b50670f43fc2c04ee0000821261393c565b7fd8317311000000000000000000000000000000000000000000000000000000005f5260045ffd5b7f022701e0000000000000000000000000000000000000000000000000000000005f5260045ffd5b50505f90565b5050670de0b6b3a76400009056fea26469706673582212204a437b2a1ea635813ad3ba24db6ff3c1280d3e0acfb75d205366a8e47139de0e64736f6c634300081b0033",
  "linkReferences": {},
  "deployedLinkReferences": {}
}