{"contracts/CallAndRevert.sol":{"CallAndRevert":{"abi":[{"inputs":[{"internalType":"address","name":"target","type":"address"}],"name":"AddressEmptyCode","type":"error"},{"inputs":[],"name":"ErrorSelectorNotFound","type":"error"},{"inputs":[],"name":"FailedInnerCall","type":"error"},{"inputs":[],"name":"QuoteResultSpoofed","type":"error"},{"inputs":[{"internalType":"bytes","name":"result","type":"bytes"}],"name":"Result","type":"error"},{"inputs":[{"internalType":"address","name":"target","type":"address"},{"internalType":"bytes","name":"data","type":"bytes"}],"name":"callAndRevertHook","outputs":[],"stateMutability":"nonpayable","type":"function"}],"evm":{"bytecode":{"linkReferences":{},"object":"608080604052346015576103b0908161001a8239f35b5f80fdfe6080604052600480361015610012575f80fd5b5f3560e01c63a769963814610025575f80fd5b346102325760407ffffffffffffffffffffffffffffffffffffffffffffffffffffffffffffffffc3601126102325780359073ffffffffffffffffffffffffffffffffffffffff82168203610232576024359167ffffffffffffffff8311610232573660238401121561023257828201356100a76100a2826102a7565b610236565b91818352602094858401903660248583010111610232575f948588868297602484960187378301015251925af1903d1561022957823d926100ea6100a2856102a7565b9384523d5f8386013e5b8015610179577fffffffffffffffffffffffffffffffffffffffffffffffffffffffffffffffe0918461012c604496601f94336102e1565b506040519687957f5ab64fb80000000000000000000000000000000000000000000000000000000087528601528051918291826024880152018686015e5f85828601015201168101030190fd5b5050808251106101dd577f5ab64fb8000000000000000000000000000000000000000000000000000000007fffffffff00000000000000000000000000000000000000000000000000000000848401511614610203578151156101dd575080519101fd5b7fa7285689000000000000000000000000000000000000000000000000000000005f525ffd5b7f28f95541000000000000000000000000000000000000000000000000000000005f525ffd5b826060926100f4565b5f80fd5b907fffffffffffffffffffffffffffffffffffffffffffffffffffffffffffffffe0601f604051930116820182811067ffffffffffffffff82111761027a57604052565b7f4e487b71000000000000000000000000000000000000000000000000000000005f52604160045260245ffd5b67ffffffffffffffff811161027a57601f017fffffffffffffffffffffffffffffffffffffffffffffffffffffffffffffffe01660200190565b9061031e57508051156102f657805190602001fd5b7f1425ea42000000000000000000000000000000000000000000000000000000005f5260045ffd5b81511580610371575b61032f575090565b73ffffffffffffffffffffffffffffffffffffffff907f9996b315000000000000000000000000000000000000000000000000000000005f521660045260245ffd5b50803b1561032756fea264697066735822122027a3808c6ba8335e514cee6562c3e784b479a87c753694d6c1e7b69553857ee764736f6c634300081b0033","opcodes":"PUSH1 0x80 DUP1 PUSH1 0x40 MSTORE CALLVALUE PUSH1 0x15 JUMPI PUSH2 0x3B0 SWAP1 DUP2 PUSH2 0x1A DUP3 CODECOPY RETURN JUMPDEST PUSH0 DUP1 REVERT INVALID PUSH1 0x80 PUSH1 0x40 MSTORE PUSH1 0x4 DUP1 CALLDATASIZE LT ISZERO PUSH2 0x12 JUMPI PUSH0 DUP1 REVERT JUMPDEST PUSH0 CALLDATALOAD PUSH1 0xE0 SHR PUSH4 0xA7699638 EQ PUSH2 0x25 JUMPI PUSH0 DUP1 REVERT JUMPDEST CALLVALUE PUSH2 0x232 JUMPI PUSH1 0x40 PUSH32 0xFFFFFFFFFFFFFFFFFFFFFFFFFFFFFFFFFFFFFFFFFFFFFFFFFFFFFFFFFFFFFFFC CALLDATASIZE ADD SLT PUSH2 0x232 JUMPI DUP1 CALLDATALOAD SWAP1 PUSH20 0xFFFFFFFFFFFFFFFFFFFFFFFFFFFFFFFFFFFFFFFF DUP3 AND DUP3 SUB PUSH2 0x232 JUMPI PUSH1 0x24 CALLDATALOAD SWAP2 PUSH8 0xFFFFFFFFFFFFFFFF DUP4 GT PUSH2 0x232 JUMPI CALLDATASIZE PUSH1 0x23 DUP5 ADD SLT ISZERO PUSH2 0x232 JUMPI DUP3 DUP3 ADD CALLDATALOAD PUSH2 0xA7 PUSH2 0xA2 DUP3 PUSH2 0x2A7 JUMP JUMPDEST PUSH2 0x236 JUMP JUMPDEST SWAP2 DUP2 DUP4 MSTORE PUSH1 0x20 SWAP5 DUP6 DUP5 ADD SWAP1 CALLDATASIZE PUSH1 0x24 DUP6 DUP4 ADD ADD GT PUSH2 0x232 JUMPI PUSH0 SWAP5 DUP6 DUP9 DUP7 DUP3 SWAP8 PUSH1 0x24 DUP5 SWAP7 ADD DUP8 CALLDATACOPY DUP4 ADD ADD MSTORE MLOAD SWAP3 GAS CALL SWAP1 RETURNDATASIZE ISZERO PUSH2 0x229 JUMPI DUP3 RETURNDATASIZE SWAP3 PUSH2 0xEA PUSH2 0xA2 DUP6 PUSH2 0x2A7 JUMP JUMPDEST SWAP4 DUP5 MSTORE RETURNDATASIZE PUSH0 DUP4 DUP7 ADD RETURNDATACOPY JUMPDEST DUP1 ISZERO PUSH2 0x179 JUMPI PUSH32 0xFFFFFFFFFFFFFFFFFFFFFFFFFFFFFFFFFFFFFFFFFFFFFFFFFFFFFFFFFFFFFFE0 SWAP2 DUP5 PUSH2 0x12C PUSH1 0x44 SWAP7 PUSH1 0x1F SWAP5 CALLER PUSH2 0x2E1 JUMP JUMPDEST POP PUSH1 0x40 MLOAD SWAP7 DUP8 SWAP6 PUSH32 0x5AB64FB800000000000000000000000000000000000000000000000000000000 DUP8 MSTORE DUP7 ADD MSTORE DUP1 MLOAD SWAP2 DUP3 SWAP2 DUP3 PUSH1 0x24 DUP9 ADD MSTORE ADD DUP7 DUP7 ADD MCOPY PUSH0 DUP6 DUP3 DUP7 ADD ADD MSTORE ADD AND DUP2 ADD SUB ADD SWAP1 REVERT JUMPDEST POP POP DUP1 DUP3 MLOAD LT PUSH2 0x1DD JUMPI PUSH32 0x5AB64FB800000000000000000000000000000000000000000000000000000000 PUSH32 0xFFFFFFFF00000000000000000000000000000000000000000000000000000000 DUP5 DUP5 ADD MLOAD AND EQ PUSH2 0x203 JUMPI DUP2 MLOAD ISZERO PUSH2 0x1DD JUMPI POP DUP1 MLOAD SWAP2 ADD REVERT JUMPDEST PUSH32 0xA728568900000000000000000000000000000000000000000000000000000000 PUSH0 MSTORE PUSH0 REVERT JUMPDEST PUSH32 0x28F9554100000000000000000000000000000000000000000000000000000000 PUSH0 MSTORE PUSH0 REVERT JUMPDEST DUP3 PUSH1 0x60 SWAP3 PUSH2 0xF4 JUMP JUMPDEST PUSH0 DUP1 REVERT JUMPDEST SWAP1 PUSH32 0xFFFFFFFFFFFFFFFFFFFFFFFFFFFFFFFFFFFFFFFFFFFFFFFFFFFFFFFFFFFFFFE0 PUSH1 0x1F PUSH1 0x40 MLOAD SWAP4 ADD AND DUP3 ADD DUP3 DUP2 LT PUSH8 0xFFFFFFFFFFFFFFFF DUP3 GT OR PUSH2 0x27A JUMPI PUSH1 0x40 MSTORE JUMP JUMPDEST PUSH32 0x4E487B7100000000000000000000000000000000000000000000000000000000 PUSH0 MSTORE PUSH1 0x41 PUSH1 0x4 MSTORE PUSH1 0x24 PUSH0 REVERT JUMPDEST PUSH8 0xFFFFFFFFFFFFFFFF DUP2 GT PUSH2 0x27A JUMPI PUSH1 0x1F ADD PUSH32 0xFFFFFFFFFFFFFFFFFFFFFFFFFFFFFFFFFFFFFFFFFFFFFFFFFFFFFFFFFFFFFFE0 AND PUSH1 0x20 ADD SWAP1 JUMP JUMPDEST SWAP1 PUSH2 0x31E JUMPI POP DUP1 MLOAD ISZERO PUSH2 0x2F6 JUMPI DUP1 MLOAD SWAP1 PUSH1 0x20 ADD REVERT JUMPDEST PUSH32 0x1425EA4200000000000000000000000000000000000000000000000000000000 PUSH0 MSTORE PUSH1 0x4 PUSH0 REVERT JUMPDEST DUP2 MLOAD ISZERO DUP1 PUSH2 0x371 JUMPI JUMPDEST PUSH2 0x32F JUMPI POP SWAP1 JUMP JUMPDEST PUSH20 0xFFFFFFFFFFFFFFFFFFFFFFFFFFFFFFFFFFFFFFFF SWAP1 PUSH32 0x9996B31500000000000000000000000000000000000000000000000000000000 PUSH0 MSTORE AND PUSH1 0x4 MSTORE PUSH1 0x24 PUSH0 REVERT JUMPDEST POP DUP1 EXTCODESIZE ISZERO PUSH2 0x327 JUMP INVALID LOG2 PUSH5 0x6970667358 0x22 SLT KECCAK256 0x27 LOG3 DUP1 DUP13 PUSH12 0xA8335E514CEE6562C3E784B4 PUSH26 0xA87C753694D6C1E7B69553857EE764736F6C634300081B003300 "},"methodIdentifiers":{"callAndRevertHook(address,bytes)":"a7699638"}}}}}