{"contracts/PriceImpactHelper.sol":{"PriceImpactHelper":{"abi":[{"inputs":[{"internalType":"contract IVault","name":"vault","type":"address"},{"internalType":"contract IRouter","name":"router","type":"address"}],"stateMutability":"nonpayable","type":"constructor"},{"inputs":[{"internalType":"address","name":"target","type":"address"}],"name":"AddressEmptyCode","type":"error"},{"inputs":[],"name":"ErrorSelectorNotFound","type":"error"},{"inputs":[],"name":"FailedInnerCall","type":"error"},{"inputs":[],"name":"QuoteResultSpoofed","type":"error"},{"inputs":[{"internalType":"bytes","name":"result","type":"bytes"}],"name":"Result","type":"error"},{"inputs":[{"internalType":"int256","name":"value","type":"int256"}],"name":"SafeCastOverflowedIntToUint","type":"error"},{"inputs":[{"internalType":"uint256","name":"value","type":"uint256"}],"name":"SafeCastOverflowedUintToInt","type":"error"},{"inputs":[{"internalType":"address","name":"pool","type":"address"},{"internalType":"uint256[]","name":"exactAmountsIn","type":"uint256[]"},{"internalType":"address","name":"sender","type":"address"}],"name":"calculateAddLiquidityUnbalancedPriceImpact","outputs":[{"internalType":"uint256","name":"priceImpact","type":"uint256"}],"stateMutability":"nonpayable","type":"function"},{"inputs":[{"internalType":"address","name":"target","type":"address"},{"internalType":"bytes","name":"data","type":"bytes"}],"name":"callAndRevertHook","outputs":[],"stateMutability":"nonpayable","type":"function"}],"evm":{"bytecode":{"linkReferences":{},"object":"60c03461009a57601f6111fb38819003918201601f19168301916001600160401b0383118484101761009e57808492604094855283398101031261009a5780516001600160a01b0391828216820361009a5760200151918216820361009a5760805260a05260405161114890816100b38239608051816104b1015260a05181818161030201528181610735015281816108e40152610cd70152f35b5f80fd5b634e487b7160e01b5f52604160045260245ffdfe60806040526004361015610011575f80fd5b5f3560e01c806348406a54146101a75763a76996381461002f575f80fd5b346101a35760407ffffffffffffffffffffffffffffffffffffffffffffffffffffffffffffffffc3601126101a357610066610aaf565b6024359067ffffffffffffffff82116101a357366023830112156101a35781600401359061009382610b0d565b926100a16040519485610ad2565b828452602084019036602485830101116101a3575f94856020868297602484960187378301015251925af16100d4610bc7565b90801561012957906100ea816101259333610e82565b506040519182917f5ab64fb8000000000000000000000000000000000000000000000000000000008352602060048401526024830190610bf6565b0390fd5b507f5ab64fb8000000000000000000000000000000000000000000000000000000007fffffffff0000000000000000000000000000000000000000000000000000000061017583610e3b565b1603610e73577f28f95541000000000000000000000000000000000000000000000000000000005f5260045ffd5b5f80fd5b346101a35760607ffffffffffffffffffffffffffffffffffffffffffffffffffffffffffffffffc3601126101a3576101de610aaf565b67ffffffffffffffff6024358181116101a357366023820112156101a35780600401359061020b82610af5565b916102196040519384610ad2565b8083526024602084019160051b830101913683116101a357602401905b828210610a9f5750505073ffffffffffffffffffffffffffffffffffffffff604435169182604435036101a3576102706044358386610c1b565b92604051907f0f71088800000000000000000000000000000000000000000000000000000000602083015273ffffffffffffffffffffffffffffffffffffffff86169485602484015260448301526064820152608060848201525f60a482015260a4815260e081019080821083831117610a72576103279160405273ffffffffffffffffffffffffffffffffffffffff7f000000000000000000000000000000000000000000000000000000000000000016610f1b565b9081518201916020818185019403126101a3576020810151908282116101a357019180603f840112156101a357602083015161036281610af5565b936103706040519586610ad2565b8185526040602086019260051b8201019283116101a357604001905b828210610a62575050506103a08351610b29565b945f5b8451811015610425576103bf6103b98286610b5a565b51610d21565b906103cd6103b98288610b5a565b915f83820393128184128116918413901516176103f8576001916103f1828a610b5a565b52016103a3565b7f4e487b71000000000000000000000000000000000000000000000000000000005f52601160045260245ffd5b50915091926104348451610b29565b925f5b855181101561046257600190610451604435898388610d76565b61045b8288610b5a565b5201610437565b50919094935f95604051907fca4f280300000000000000000000000000000000000000000000000000000000825260048201525f8160248173ffffffffffffffffffffffffffffffffffffffff7f0000000000000000000000000000000000000000000000000000000000000000165afa938415610a57575f946109ad575b505094905f915b85517fffffffffffffffffffffffffffffffffffffffffffffffffffffffffffffffff81019081116103f85783101561092f57505f917f7fffffffffffffffffffffffffffffffffffffffffffffffffffffffffffffff965f5b8651811015610595575f6105568289610b5a565b511380610582575b61056b575b600101610542565b61057a91985080945086610b5a565b519683610563565b508861058e8289610b5a565b511261055e565b509650919490925f907f8000000000000000000000000000000000000000000000000000000000000000975f5b8751811015610615575f6105d6828a610b5a565b511280610602575b6105eb575b6001016105c2565b6105fa91995080935087610b5a565b5197826105e3565b508961060e828a610b5a565b51136105de565b5092969750939281976106288188610b5a565b5161063c610636858a610b5a565b51610b9b565b13156107df5761075a8661071e8a61071061068e6106888773ffffffffffffffffffffffffffffffffffffffff6106808c82610678858c610b5a565b511699610b5a565b511694610b5a565b51610e06565b936040519485937f3ebc54e5000000000000000000000000000000000000000000000000000000006020860152604435928d60248701939060e095929373ffffffffffffffffffffffffffffffffffffffff8095818094168852166020870152166040850152606084015216608082015260c060a08201525f60c08201520190565b03601f198101835282610ad2565b73ffffffffffffffffffffffffffffffffffffffff7f000000000000000000000000000000000000000000000000000000000000000016610f1b565b6020818051810103126101a3575f610787838261078061078d9660208f97015196610b5a565b528a610b5a565b52610d21565b916107988189610b5a565b515f84820194851291129080158216911516176103f8576001926107bc828a610b5a565b526107d56107ce6044358a8489610d76565b9188610b5a565b52019190956104e8565b91806107eb8488610b5a565b5173ffffffffffffffffffffffffffffffffffffffff16908661080e828a610b5a565b5173ffffffffffffffffffffffffffffffffffffffff1691610830908c610b5a565b5161083a90610b9b565b61084390610e06565b6040517f175d440800000000000000000000000000000000000000000000000000000000602082015273ffffffffffffffffffffffffffffffffffffffff92831660248201529382166044808601919091529282166064850152608484015290351660a482015260c060c48201525f60e48083019190915281526108c961010482610ad2565b6109099073ffffffffffffffffffffffffffffffffffffffff7f000000000000000000000000000000000000000000000000000000000000000016610f1b565b8080518101036020136101a3575f610787838261078061078d9660208f97015196610b5a565b61094f816109496109446106368b958b610b5a565b610e06565b92610b5a565b5190670de0b6b3a7640000908181029181830414901517156103f857811561098057602091604051910460011c8152f35b7f4e487b71000000000000000000000000000000000000000000000000000000005f52601260045260245ffd5b909193503d805f843e6109c08184610ad2565b8201916020818403126101a35780519182116101a357019080601f830112156101a3578151906109ef82610af5565b926109fd6040519485610ad2565b82845260208085019360051b8201019182116101a357602001915b818310610a2a575050509186806104e1565b825173ffffffffffffffffffffffffffffffffffffffff811681036101a357815260209283019201610a18565b6040513d5f823e3d90fd5b815181526020918201910161038c565b7f4e487b71000000000000000000000000000000000000000000000000000000005f52604160045260245ffd5b8135815260209182019101610236565b6004359073ffffffffffffffffffffffffffffffffffffffff821682036101a357565b90601f601f19910116810190811067ffffffffffffffff821117610a7257604052565b67ffffffffffffffff8111610a725760051b60200190565b67ffffffffffffffff8111610a7257601f01601f191660200190565b90610b3382610af5565b610b406040519182610ad2565b828152601f19610b508294610af5565b0190602036910137565b8051821015610b6e5760209160051b010190565b7f4e487b71000000000000000000000000000000000000000000000000000000005f52603260045260245ffd5b7f800000000000000000000000000000000000000000000000000000000000000081146103f8575f0390565b3d15610bf1573d90610bd882610b0d565b91610be66040519384610ad2565b82523d5f602084013e565b606090565b90601f19601f602080948051918291828752018686015e5f8582860101520116010190565b90929173ffffffffffffffffffffffffffffffffffffffff604051916020937fda001f7d00000000000000000000000000000000000000000000000000000000858501528260a48501911660248501526080604485015286518091528460c485019701905f5b818110610d0d5750505083610cfc94959683610cd5931660648601525f858203917fffffffffffffffffffffffffffffffffffffffffffffffffffffffffffffffdc83016084880152528085520183610ad2565b7f000000000000000000000000000000000000000000000000000000000000000016610f1b565b81818051810103126101a357015190565b825189529786019791860191600101610c81565b7f7fffffffffffffffffffffffffffffffffffffffffffffffffffffffffffffff8111610d4b5790565b7f24775e06000000000000000000000000000000000000000000000000000000005f5260045260245ffd5b929091610db183825192601f19610da5610d8f86610af5565b95610d9d6040519788610ad2565b808752610af5565b01366020860137610b5a565b51938415610dfd57610dd993610dd35f871396875f14610dee57915b84610b5a565b52610c1b565b9015610de25790565b610deb90610b9b565b90565b610df790610b9b565b91610dcd565b50505050505f90565b5f8112610e105790565b7fa8ce4432000000000000000000000000000000000000000000000000000000005f5260045260245ffd5b6004815110610e4b576020015190565b7fa7285689000000000000000000000000000000000000000000000000000000005f5260045ffd5b805115610e4b57805190602001fd5b90610ebf5750805115610e9757805190602001fd5b7f1425ea42000000000000000000000000000000000000000000000000000000005f5260045ffd5b81511580610f12575b610ed0575090565b73ffffffffffffffffffffffffffffffffffffffff907f9996b315000000000000000000000000000000000000000000000000000000005f521660045260245ffd5b50803b15610ec8565b90303b156101a3575f610f8091604051809381927fa769963800000000000000000000000000000000000000000000000000000000835273ffffffffffffffffffffffffffffffffffffffff8597166004840152604060248401526044830190610bf6565b038183305af190816110f5575b5061109757610f9a610bc7565b907f5ab64fb8000000000000000000000000000000000000000000000000000000007fffffffff00000000000000000000000000000000000000000000000000000000610fe684610e3b565b16036110915781519160207ffffffffffffffffffffffffffffffffffffffffffffffffffffffffffffffffc938481016004840152820193828286019503011261108d5760248101519067ffffffffffffffff821161108957018260438201121561108d5760248101519061105a82610b0d565b936110686040519586610ad2565b828552604483830101116110895790806044602093018386015e8301015290565b8280fd5b5080fd5b50610e73565b60646040517f08c379a000000000000000000000000000000000000000000000000000000000815260206004820152601260248201527f556e6578706563746564207375636365737300000000000000000000000000006044820152fd5b90915067ffffffffffffffff8111610a72576040525f905f610f8d56fea26469706673582212208d7438e351266540a42f02d9aa1dd7d14d8e4bfa505baa0c981d2e4cc61450bd64736f6c634300081b0033","opcodes":"PUSH1 0xC0 CALLVALUE PUSH2 0x9A JUMPI PUSH1 0x1F PUSH2 0x11FB CODESIZE DUP2 SWAP1 SUB SWAP2 DUP3 ADD PUSH1 0x1F NOT AND DUP4 ADD SWAP2 PUSH1 0x1 PUSH1 0x1 PUSH1 0x40 SHL SUB DUP4 GT DUP5 DUP5 LT OR PUSH2 0x9E JUMPI DUP1 DUP5 SWAP3 PUSH1 0x40 SWAP5 DUP6 MSTORE DUP4 CODECOPY DUP2 ADD SUB SLT PUSH2 0x9A JUMPI DUP1 MLOAD PUSH1 0x1 PUSH1 0x1 PUSH1 0xA0 SHL SUB SWAP2 DUP3 DUP3 AND DUP3 SUB PUSH2 0x9A JUMPI PUSH1 0x20 ADD MLOAD SWAP2 DUP3 AND DUP3 SUB PUSH2 0x9A JUMPI PUSH1 0x80 MSTORE PUSH1 0xA0 MSTORE PUSH1 0x40 MLOAD PUSH2 0x1148 SWAP1 DUP2 PUSH2 0xB3 DUP3 CODECOPY PUSH1 0x80 MLOAD DUP2 PUSH2 0x4B1 ADD MSTORE PUSH1 0xA0 MLOAD DUP2 DUP2 DUP2 PUSH2 0x302 ADD MSTORE DUP2 DUP2 PUSH2 0x735 ADD MSTORE DUP2 DUP2 PUSH2 0x8E4 ADD MSTORE PUSH2 0xCD7 ADD MSTORE RETURN JUMPDEST PUSH0 DUP1 REVERT JUMPDEST PUSH4 0x4E487B71 PUSH1 0xE0 SHL PUSH0 MSTORE PUSH1 0x41 PUSH1 0x4 MSTORE PUSH1 0x24 PUSH0 REVERT INVALID PUSH1 0x80 PUSH1 0x40 MSTORE PUSH1 0x4 CALLDATASIZE LT ISZERO PUSH2 0x11 JUMPI PUSH0 DUP1 REVERT JUMPDEST PUSH0 CALLDATALOAD PUSH1 0xE0 SHR DUP1 PUSH4 0x48406A54 EQ PUSH2 0x1A7 JUMPI PUSH4 0xA7699638 EQ PUSH2 0x2F JUMPI PUSH0 DUP1 REVERT JUMPDEST CALLVALUE PUSH2 0x1A3 JUMPI PUSH1 0x40 PUSH32 0xFFFFFFFFFFFFFFFFFFFFFFFFFFFFFFFFFFFFFFFFFFFFFFFFFFFFFFFFFFFFFFFC CALLDATASIZE ADD SLT PUSH2 0x1A3 JUMPI PUSH2 0x66 PUSH2 0xAAF JUMP JUMPDEST PUSH1 0x24 CALLDATALOAD SWAP1 PUSH8 0xFFFFFFFFFFFFFFFF DUP3 GT PUSH2 0x1A3 JUMPI CALLDATASIZE PUSH1 0x23 DUP4 ADD SLT ISZERO PUSH2 0x1A3 JUMPI DUP2 PUSH1 0x4 ADD CALLDATALOAD SWAP1 PUSH2 0x93 DUP3 PUSH2 0xB0D JUMP JUMPDEST SWAP3 PUSH2 0xA1 PUSH1 0x40 MLOAD SWAP5 DUP6 PUSH2 0xAD2 JUMP JUMPDEST DUP3 DUP5 MSTORE PUSH1 0x20 DUP5 ADD SWAP1 CALLDATASIZE PUSH1 0x24 DUP6 DUP4 ADD ADD GT PUSH2 0x1A3 JUMPI PUSH0 SWAP5 DUP6 PUSH1 0x20 DUP7 DUP3 SWAP8 PUSH1 0x24 DUP5 SWAP7 ADD DUP8 CALLDATACOPY DUP4 ADD ADD MSTORE MLOAD SWAP3 GAS CALL PUSH2 0xD4 PUSH2 0xBC7 JUMP JUMPDEST SWAP1 DUP1 ISZERO PUSH2 0x129 JUMPI SWAP1 PUSH2 0xEA DUP2 PUSH2 0x125 SWAP4 CALLER PUSH2 0xE82 JUMP JUMPDEST POP PUSH1 0x40 MLOAD SWAP2 DUP3 SWAP2 PUSH32 0x5AB64FB800000000000000000000000000000000000000000000000000000000 DUP4 MSTORE PUSH1 0x20 PUSH1 0x4 DUP5 ADD MSTORE PUSH1 0x24 DUP4 ADD SWAP1 PUSH2 0xBF6 JUMP JUMPDEST SUB SWAP1 REVERT JUMPDEST POP PUSH32 0x5AB64FB800000000000000000000000000000000000000000000000000000000 PUSH32 0xFFFFFFFF00000000000000000000000000000000000000000000000000000000 PUSH2 0x175 DUP4 PUSH2 0xE3B JUMP JUMPDEST AND SUB PUSH2 0xE73 JUMPI PUSH32 0x28F9554100000000000000000000000000000000000000000000000000000000 PUSH0 MSTORE PUSH1 0x4 PUSH0 REVERT JUMPDEST PUSH0 DUP1 REVERT JUMPDEST CALLVALUE PUSH2 0x1A3 JUMPI PUSH1 0x60 PUSH32 0xFFFFFFFFFFFFFFFFFFFFFFFFFFFFFFFFFFFFFFFFFFFFFFFFFFFFFFFFFFFFFFFC CALLDATASIZE ADD SLT PUSH2 0x1A3 JUMPI PUSH2 0x1DE PUSH2 0xAAF JUMP JUMPDEST PUSH8 0xFFFFFFFFFFFFFFFF PUSH1 0x24 CALLDATALOAD DUP2 DUP2 GT PUSH2 0x1A3 JUMPI CALLDATASIZE PUSH1 0x23 DUP3 ADD SLT ISZERO PUSH2 0x1A3 JUMPI DUP1 PUSH1 0x4 ADD CALLDATALOAD SWAP1 PUSH2 0x20B DUP3 PUSH2 0xAF5 JUMP JUMPDEST SWAP2 PUSH2 0x219 PUSH1 0x40 MLOAD SWAP4 DUP5 PUSH2 0xAD2 JUMP JUMPDEST DUP1 DUP4 MSTORE PUSH1 0x24 PUSH1 0x20 DUP5 ADD SWAP2 PUSH1 0x5 SHL DUP4 ADD ADD SWAP2 CALLDATASIZE DUP4 GT PUSH2 0x1A3 JUMPI PUSH1 0x24 ADD SWAP1 JUMPDEST DUP3 DUP3 LT PUSH2 0xA9F JUMPI POP POP POP PUSH20 0xFFFFFFFFFFFFFFFFFFFFFFFFFFFFFFFFFFFFFFFF PUSH1 0x44 CALLDATALOAD AND SWAP2 DUP3 PUSH1 0x44 CALLDATALOAD SUB PUSH2 0x1A3 JUMPI PUSH2 0x270 PUSH1 0x44 CALLDATALOAD DUP4 DUP7 PUSH2 0xC1B JUMP JUMPDEST SWAP3 PUSH1 0x40 MLOAD SWAP1 PUSH32 0xF71088800000000000000000000000000000000000000000000000000000000 PUSH1 0x20 DUP4 ADD MSTORE PUSH20 0xFFFFFFFFFFFFFFFFFFFFFFFFFFFFFFFFFFFFFFFF DUP7 AND SWAP5 DUP6 PUSH1 0x24 DUP5 ADD MSTORE PUSH1 0x44 DUP4 ADD MSTORE PUSH1 0x64 DUP3 ADD MSTORE PUSH1 0x80 PUSH1 0x84 DUP3 ADD MSTORE PUSH0 PUSH1 0xA4 DUP3 ADD MSTORE PUSH1 0xA4 DUP2 MSTORE PUSH1 0xE0 DUP2 ADD SWAP1 DUP1 DUP3 LT DUP4 DUP4 GT OR PUSH2 0xA72 JUMPI PUSH2 0x327 SWAP2 PUSH1 0x40 MSTORE PUSH20 0xFFFFFFFFFFFFFFFFFFFFFFFFFFFFFFFFFFFFFFFF PUSH32 0x0 AND PUSH2 0xF1B JUMP JUMPDEST SWAP1 DUP2 MLOAD DUP3 ADD SWAP2 PUSH1 0x20 DUP2 DUP2 DUP6 ADD SWAP5 SUB SLT PUSH2 0x1A3 JUMPI PUSH1 0x20 DUP2 ADD MLOAD SWAP1 DUP3 DUP3 GT PUSH2 0x1A3 JUMPI ADD SWAP2 DUP1 PUSH1 0x3F DUP5 ADD SLT ISZERO PUSH2 0x1A3 JUMPI PUSH1 0x20 DUP4 ADD MLOAD PUSH2 0x362 DUP2 PUSH2 0xAF5 JUMP JUMPDEST SWAP4 PUSH2 0x370 PUSH1 0x40 MLOAD SWAP6 DUP7 PUSH2 0xAD2 JUMP JUMPDEST DUP2 DUP6 MSTORE PUSH1 0x40 PUSH1 0x20 DUP7 ADD SWAP3 PUSH1 0x5 SHL DUP3 ADD ADD SWAP3 DUP4 GT PUSH2 0x1A3 JUMPI PUSH1 0x40 ADD SWAP1 JUMPDEST DUP3 DUP3 LT PUSH2 0xA62 JUMPI POP POP POP PUSH2 0x3A0 DUP4 MLOAD PUSH2 0xB29 JUMP JUMPDEST SWAP5 PUSH0 JUMPDEST DUP5 MLOAD DUP2 LT ISZERO PUSH2 0x425 JUMPI PUSH2 0x3BF PUSH2 0x3B9 DUP3 DUP7 PUSH2 0xB5A JUMP JUMPDEST MLOAD PUSH2 0xD21 JUMP JUMPDEST SWAP1 PUSH2 0x3CD PUSH2 0x3B9 DUP3 DUP9 PUSH2 0xB5A JUMP JUMPDEST SWAP2 PUSH0 DUP4 DUP3 SUB SWAP4 SLT DUP2 DUP5 SLT DUP2 AND SWAP2 DUP5 SGT SWAP1 ISZERO AND OR PUSH2 0x3F8 JUMPI PUSH1 0x1 SWAP2 PUSH2 0x3F1 DUP3 DUP11 PUSH2 0xB5A JUMP JUMPDEST MSTORE ADD PUSH2 0x3A3 JUMP JUMPDEST PUSH32 0x4E487B7100000000000000000000000000000000000000000000000000000000 PUSH0 MSTORE PUSH1 0x11 PUSH1 0x4 MSTORE PUSH1 0x24 PUSH0 REVERT JUMPDEST POP SWAP2 POP SWAP2 SWAP3 PUSH2 0x434 DUP5 MLOAD PUSH2 0xB29 JUMP JUMPDEST SWAP3 PUSH0 JUMPDEST DUP6 MLOAD DUP2 LT ISZERO PUSH2 0x462 JUMPI PUSH1 0x1 SWAP1 PUSH2 0x451 PUSH1 0x44 CALLDATALOAD DUP10 DUP4 DUP9 PUSH2 0xD76 JUMP JUMPDEST PUSH2 0x45B DUP3 DUP9 PUSH2 0xB5A JUMP JUMPDEST MSTORE ADD PUSH2 0x437 JUMP JUMPDEST POP SWAP2 SWAP1 SWAP5 SWAP4 PUSH0 SWAP6 PUSH1 0x40 MLOAD SWAP1 PUSH32 0xCA4F280300000000000000000000000000000000000000000000000000000000 DUP3 MSTORE PUSH1 0x4 DUP3 ADD MSTORE PUSH0 DUP2 PUSH1 0x24 DUP2 PUSH20 0xFFFFFFFFFFFFFFFFFFFFFFFFFFFFFFFFFFFFFFFF PUSH32 0x0 AND GAS STATICCALL SWAP4 DUP5 ISZERO PUSH2 0xA57 JUMPI PUSH0 SWAP5 PUSH2 0x9AD JUMPI JUMPDEST POP POP SWAP5 SWAP1 PUSH0 SWAP2 JUMPDEST DUP6 MLOAD PUSH32 0xFFFFFFFFFFFFFFFFFFFFFFFFFFFFFFFFFFFFFFFFFFFFFFFFFFFFFFFFFFFFFFFF DUP2 ADD SWAP1 DUP2 GT PUSH2 0x3F8 JUMPI DUP4 LT ISZERO PUSH2 0x92F JUMPI POP PUSH0 SWAP2 PUSH32 0x7FFFFFFFFFFFFFFFFFFFFFFFFFFFFFFFFFFFFFFFFFFFFFFFFFFFFFFFFFFFFFFF SWAP7 PUSH0 JUMPDEST DUP7 MLOAD DUP2 LT ISZERO PUSH2 0x595 JUMPI PUSH0 PUSH2 0x556 DUP3 DUP10 PUSH2 0xB5A JUMP JUMPDEST MLOAD SGT DUP1 PUSH2 0x582 JUMPI JUMPDEST PUSH2 0x56B JUMPI JUMPDEST PUSH1 0x1 ADD PUSH2 0x542 JUMP JUMPDEST PUSH2 0x57A SWAP2 SWAP9 POP DUP1 SWAP5 POP DUP7 PUSH2 0xB5A JUMP JUMPDEST MLOAD SWAP7 DUP4 PUSH2 0x563 JUMP JUMPDEST POP DUP9 PUSH2 0x58E DUP3 DUP10 PUSH2 0xB5A JUMP JUMPDEST MLOAD SLT PUSH2 0x55E JUMP JUMPDEST POP SWAP7 POP SWAP2 SWAP5 SWAP1 SWAP3 PUSH0 SWAP1 PUSH32 0x8000000000000000000000000000000000000000000000000000000000000000 SWAP8 PUSH0 JUMPDEST DUP8 MLOAD DUP2 LT ISZERO PUSH2 0x615 JUMPI PUSH0 PUSH2 0x5D6 DUP3 DUP11 PUSH2 0xB5A JUMP JUMPDEST MLOAD SLT DUP1 PUSH2 0x602 JUMPI JUMPDEST PUSH2 0x5EB JUMPI JUMPDEST PUSH1 0x1 ADD PUSH2 0x5C2 JUMP JUMPDEST PUSH2 0x5FA SWAP2 SWAP10 POP DUP1 SWAP4 POP DUP8 PUSH2 0xB5A JUMP JUMPDEST MLOAD SWAP8 DUP3 PUSH2 0x5E3 JUMP JUMPDEST POP DUP10 PUSH2 0x60E DUP3 DUP11 PUSH2 0xB5A JUMP JUMPDEST MLOAD SGT PUSH2 0x5DE JUMP JUMPDEST POP SWAP3 SWAP7 SWAP8 POP SWAP4 SWAP3 DUP2 SWAP8 PUSH2 0x628 DUP2 DUP9 PUSH2 0xB5A JUMP JUMPDEST MLOAD PUSH2 0x63C PUSH2 0x636 DUP6 DUP11 PUSH2 0xB5A JUMP JUMPDEST MLOAD PUSH2 0xB9B JUMP JUMPDEST SGT ISZERO PUSH2 0x7DF JUMPI PUSH2 0x75A DUP7 PUSH2 0x71E DUP11 PUSH2 0x710 PUSH2 0x68E PUSH2 0x688 DUP8 PUSH20 0xFFFFFFFFFFFFFFFFFFFFFFFFFFFFFFFFFFFFFFFF PUSH2 0x680 DUP13 DUP3 PUSH2 0x678 DUP6 DUP13 PUSH2 0xB5A JUMP JUMPDEST MLOAD AND SWAP10 PUSH2 0xB5A JUMP JUMPDEST MLOAD AND SWAP5 PUSH2 0xB5A JUMP JUMPDEST MLOAD PUSH2 0xE06 JUMP JUMPDEST SWAP4 PUSH1 0x40 MLOAD SWAP5 DUP6 SWAP4 PUSH32 0x3EBC54E500000000000000000000000000000000000000000000000000000000 PUSH1 0x20 DUP7 ADD MSTORE PUSH1 0x44 CALLDATALOAD SWAP3 DUP14 PUSH1 0x24 DUP8 ADD SWAP4 SWAP1 PUSH1 0xE0 SWAP6 SWAP3 SWAP4 PUSH20 0xFFFFFFFFFFFFFFFFFFFFFFFFFFFFFFFFFFFFFFFF DUP1 SWAP6 DUP2 DUP1 SWAP5 AND DUP9 MSTORE AND PUSH1 0x20 DUP8 ADD MSTORE AND PUSH1 0x40 DUP6 ADD MSTORE PUSH1 0x60 DUP5 ADD MSTORE AND PUSH1 0x80 DUP3 ADD MSTORE PUSH1 0xC0 PUSH1 0xA0 DUP3 ADD MSTORE PUSH0 PUSH1 0xC0 DUP3 ADD MSTORE ADD SWAP1 JUMP JUMPDEST SUB PUSH1 0x1F NOT DUP2 ADD DUP4 MSTORE DUP3 PUSH2 0xAD2 JUMP JUMPDEST PUSH20 0xFFFFFFFFFFFFFFFFFFFFFFFFFFFFFFFFFFFFFFFF PUSH32 0x0 AND PUSH2 0xF1B JUMP JUMPDEST PUSH1 0x20 DUP2 DUP1 MLOAD DUP2 ADD SUB SLT PUSH2 0x1A3 JUMPI PUSH0 PUSH2 0x787 DUP4 DUP3 PUSH2 0x780 PUSH2 0x78D SWAP7 PUSH1 0x20 DUP16 SWAP8 ADD MLOAD SWAP7 PUSH2 0xB5A JUMP JUMPDEST MSTORE DUP11 PUSH2 0xB5A JUMP JUMPDEST MSTORE PUSH2 0xD21 JUMP JUMPDEST SWAP2 PUSH2 0x798 DUP2 DUP10 PUSH2 0xB5A JUMP JUMPDEST MLOAD PUSH0 DUP5 DUP3 ADD SWAP5 DUP6 SLT SWAP2 SLT SWAP1 DUP1 ISZERO DUP3 AND SWAP2 ISZERO AND OR PUSH2 0x3F8 JUMPI PUSH1 0x1 SWAP3 PUSH2 0x7BC DUP3 DUP11 PUSH2 0xB5A JUMP JUMPDEST MSTORE PUSH2 0x7D5 PUSH2 0x7CE PUSH1 0x44 CALLDATALOAD DUP11 DUP5 DUP10 PUSH2 0xD76 JUMP JUMPDEST SWAP2 DUP9 PUSH2 0xB5A JUMP JUMPDEST MSTORE ADD SWAP2 SWAP1 SWAP6 PUSH2 0x4E8 JUMP JUMPDEST SWAP2 DUP1 PUSH2 0x7EB DUP5 DUP9 PUSH2 0xB5A JUMP JUMPDEST MLOAD PUSH20 0xFFFFFFFFFFFFFFFFFFFFFFFFFFFFFFFFFFFFFFFF AND SWAP1 DUP7 PUSH2 0x80E DUP3 DUP11 PUSH2 0xB5A JUMP JUMPDEST MLOAD PUSH20 0xFFFFFFFFFFFFFFFFFFFFFFFFFFFFFFFFFFFFFFFF AND SWAP2 PUSH2 0x830 SWAP1 DUP13 PUSH2 0xB5A JUMP JUMPDEST MLOAD PUSH2 0x83A SWAP1 PUSH2 0xB9B JUMP JUMPDEST PUSH2 0x843 SWAP1 PUSH2 0xE06 JUMP JUMPDEST PUSH1 0x40 MLOAD PUSH32 0x175D440800000000000000000000000000000000000000000000000000000000 PUSH1 0x20 DUP3 ADD MSTORE PUSH20 0xFFFFFFFFFFFFFFFFFFFFFFFFFFFFFFFFFFFFFFFF SWAP3 DUP4 AND PUSH1 0x24 DUP3 ADD MSTORE SWAP4 DUP3 AND PUSH1 0x44 DUP1 DUP7 ADD SWAP2 SWAP1 SWAP2 MSTORE SWAP3 DUP3 AND PUSH1 0x64 DUP6 ADD MSTORE PUSH1 0x84 DUP5 ADD MSTORE SWAP1 CALLDATALOAD AND PUSH1 0xA4 DUP3 ADD MSTORE PUSH1 0xC0 PUSH1 0xC4 DUP3 ADD MSTORE PUSH0 PUSH1 0xE4 DUP1 DUP4 ADD SWAP2 SWAP1 SWAP2 MSTORE DUP2 MSTORE PUSH2 0x8C9 PUSH2 0x104 DUP3 PUSH2 0xAD2 JUMP JUMPDEST PUSH2 0x909 SWAP1 PUSH20 0xFFFFFFFFFFFFFFFFFFFFFFFFFFFFFFFFFFFFFFFF PUSH32 0x0 AND PUSH2 0xF1B JUMP JUMPDEST DUP1 DUP1 MLOAD DUP2 ADD SUB PUSH1 0x20 SGT PUSH2 0x1A3 JUMPI PUSH0 PUSH2 0x787 DUP4 DUP3 PUSH2 0x780 PUSH2 0x78D SWAP7 PUSH1 0x20 DUP16 SWAP8 ADD MLOAD SWAP7 PUSH2 0xB5A JUMP JUMPDEST PUSH2 0x94F DUP2 PUSH2 0x949 PUSH2 0x944 PUSH2 0x636 DUP12 SWAP6 DUP12 PUSH2 0xB5A JUMP JUMPDEST PUSH2 0xE06 JUMP JUMPDEST SWAP3 PUSH2 0xB5A JUMP JUMPDEST MLOAD SWAP1 PUSH8 0xDE0B6B3A7640000 SWAP1 DUP2 DUP2 MUL SWAP2 DUP2 DUP4 DIV EQ SWAP1 ISZERO OR ISZERO PUSH2 0x3F8 JUMPI DUP2 ISZERO PUSH2 0x980 JUMPI PUSH1 0x20 SWAP2 PUSH1 0x40 MLOAD SWAP2 DIV PUSH1 0x1 SHR DUP2 MSTORE RETURN JUMPDEST PUSH32 0x4E487B7100000000000000000000000000000000000000000000000000000000 PUSH0 MSTORE PUSH1 0x12 PUSH1 0x4 MSTORE PUSH1 0x24 PUSH0 REVERT JUMPDEST SWAP1 SWAP2 SWAP4 POP RETURNDATASIZE DUP1 PUSH0 DUP5 RETURNDATACOPY PUSH2 0x9C0 DUP2 DUP5 PUSH2 0xAD2 JUMP JUMPDEST DUP3 ADD SWAP2 PUSH1 0x20 DUP2 DUP5 SUB SLT PUSH2 0x1A3 JUMPI DUP1 MLOAD SWAP2 DUP3 GT PUSH2 0x1A3 JUMPI ADD SWAP1 DUP1 PUSH1 0x1F DUP4 ADD SLT ISZERO PUSH2 0x1A3 JUMPI DUP2 MLOAD SWAP1 PUSH2 0x9EF DUP3 PUSH2 0xAF5 JUMP JUMPDEST SWAP3 PUSH2 0x9FD PUSH1 0x40 MLOAD SWAP5 DUP6 PUSH2 0xAD2 JUMP JUMPDEST DUP3 DUP5 MSTORE PUSH1 0x20 DUP1 DUP6 ADD SWAP4 PUSH1 0x5 SHL DUP3 ADD ADD SWAP2 DUP3 GT PUSH2 0x1A3 JUMPI PUSH1 0x20 ADD SWAP2 JUMPDEST DUP2 DUP4 LT PUSH2 0xA2A JUMPI POP POP POP SWAP2 DUP7 DUP1 PUSH2 0x4E1 JUMP JUMPDEST DUP3 MLOAD PUSH20 0xFFFFFFFFFFFFFFFFFFFFFFFFFFFFFFFFFFFFFFFF DUP2 AND DUP2 SUB PUSH2 0x1A3 JUMPI DUP2 MSTORE PUSH1 0x20 SWAP3 DUP4 ADD SWAP3 ADD PUSH2 0xA18 JUMP JUMPDEST PUSH1 0x40 MLOAD RETURNDATASIZE PUSH0 DUP3 RETURNDATACOPY RETURNDATASIZE SWAP1 REVERT JUMPDEST DUP2 MLOAD DUP2 MSTORE PUSH1 0x20 SWAP2 DUP3 ADD SWAP2 ADD PUSH2 0x38C JUMP JUMPDEST PUSH32 0x4E487B7100000000000000000000000000000000000000000000000000000000 PUSH0 MSTORE PUSH1 0x41 PUSH1 0x4 MSTORE PUSH1 0x24 PUSH0 REVERT JUMPDEST DUP2 CALLDATALOAD DUP2 MSTORE PUSH1 0x20 SWAP2 DUP3 ADD SWAP2 ADD PUSH2 0x236 JUMP JUMPDEST PUSH1 0x4 CALLDATALOAD SWAP1 PUSH20 0xFFFFFFFFFFFFFFFFFFFFFFFFFFFFFFFFFFFFFFFF DUP3 AND DUP3 SUB PUSH2 0x1A3 JUMPI JUMP JUMPDEST SWAP1 PUSH1 0x1F PUSH1 0x1F NOT SWAP2 ADD AND DUP2 ADD SWAP1 DUP2 LT PUSH8 0xFFFFFFFFFFFFFFFF DUP3 GT OR PUSH2 0xA72 JUMPI PUSH1 0x40 MSTORE JUMP JUMPDEST PUSH8 0xFFFFFFFFFFFFFFFF DUP2 GT PUSH2 0xA72 JUMPI PUSH1 0x5 SHL PUSH1 0x20 ADD SWAP1 JUMP JUMPDEST PUSH8 0xFFFFFFFFFFFFFFFF DUP2 GT PUSH2 0xA72 JUMPI PUSH1 0x1F ADD PUSH1 0x1F NOT AND PUSH1 0x20 ADD SWAP1 JUMP JUMPDEST SWAP1 PUSH2 0xB33 DUP3 PUSH2 0xAF5 JUMP JUMPDEST PUSH2 0xB40 PUSH1 0x40 MLOAD SWAP2 DUP3 PUSH2 0xAD2 JUMP JUMPDEST DUP3 DUP2 MSTORE PUSH1 0x1F NOT PUSH2 0xB50 DUP3 SWAP5 PUSH2 0xAF5 JUMP JUMPDEST ADD SWAP1 PUSH1 0x20 CALLDATASIZE SWAP2 ADD CALLDATACOPY JUMP JUMPDEST DUP1 MLOAD DUP3 LT ISZERO PUSH2 0xB6E JUMPI PUSH1 0x20 SWAP2 PUSH1 0x5 SHL ADD ADD SWAP1 JUMP JUMPDEST PUSH32 0x4E487B7100000000000000000000000000000000000000000000000000000000 PUSH0 MSTORE PUSH1 0x32 PUSH1 0x4 MSTORE PUSH1 0x24 PUSH0 REVERT JUMPDEST PUSH32 0x8000000000000000000000000000000000000000000000000000000000000000 DUP2 EQ PUSH2 0x3F8 JUMPI PUSH0 SUB SWAP1 JUMP JUMPDEST RETURNDATASIZE ISZERO PUSH2 0xBF1 JUMPI RETURNDATASIZE SWAP1 PUSH2 0xBD8 DUP3 PUSH2 0xB0D JUMP JUMPDEST SWAP2 PUSH2 0xBE6 PUSH1 0x40 MLOAD SWAP4 DUP5 PUSH2 0xAD2 JUMP JUMPDEST DUP3 MSTORE RETURNDATASIZE PUSH0 PUSH1 0x20 DUP5 ADD RETURNDATACOPY JUMP JUMPDEST PUSH1 0x60 SWAP1 JUMP JUMPDEST SWAP1 PUSH1 0x1F NOT PUSH1 0x1F PUSH1 0x20 DUP1 SWAP5 DUP1 MLOAD SWAP2 DUP3 SWAP2 DUP3 DUP8 MSTORE ADD DUP7 DUP7 ADD MCOPY PUSH0 DUP6 DUP3 DUP7 ADD ADD MSTORE ADD AND ADD ADD SWAP1 JUMP JUMPDEST SWAP1 SWAP3 SWAP2 PUSH20 0xFFFFFFFFFFFFFFFFFFFFFFFFFFFFFFFFFFFFFFFF PUSH1 0x40 MLOAD SWAP2 PUSH1 0x20 SWAP4 PUSH32 0xDA001F7D00000000000000000000000000000000000000000000000000000000 DUP6 DUP6 ADD MSTORE DUP3 PUSH1 0xA4 DUP6 ADD SWAP2 AND PUSH1 0x24 DUP6 ADD MSTORE PUSH1 0x80 PUSH1 0x44 DUP6 ADD MSTORE DUP7 MLOAD DUP1 SWAP2 MSTORE DUP5 PUSH1 0xC4 DUP6 ADD SWAP8 ADD SWAP1 PUSH0 JUMPDEST DUP2 DUP2 LT PUSH2 0xD0D JUMPI POP POP POP DUP4 PUSH2 0xCFC SWAP5 SWAP6 SWAP7 DUP4 PUSH2 0xCD5 SWAP4 AND PUSH1 0x64 DUP7 ADD MSTORE PUSH0 DUP6 DUP3 SUB SWAP2 PUSH32 0xFFFFFFFFFFFFFFFFFFFFFFFFFFFFFFFFFFFFFFFFFFFFFFFFFFFFFFFFFFFFFFDC DUP4 ADD PUSH1 0x84 DUP9 ADD MSTORE MSTORE DUP1 DUP6 MSTORE ADD DUP4 PUSH2 0xAD2 JUMP JUMPDEST PUSH32 0x0 AND PUSH2 0xF1B JUMP JUMPDEST DUP2 DUP2 DUP1 MLOAD DUP2 ADD SUB SLT PUSH2 0x1A3 JUMPI ADD MLOAD SWAP1 JUMP JUMPDEST DUP3 MLOAD DUP10 MSTORE SWAP8 DUP7 ADD SWAP8 SWAP2 DUP7 ADD SWAP2 PUSH1 0x1 ADD PUSH2 0xC81 JUMP JUMPDEST PUSH32 0x7FFFFFFFFFFFFFFFFFFFFFFFFFFFFFFFFFFFFFFFFFFFFFFFFFFFFFFFFFFFFFFF DUP2 GT PUSH2 0xD4B JUMPI SWAP1 JUMP JUMPDEST PUSH32 0x24775E0600000000000000000000000000000000000000000000000000000000 PUSH0 MSTORE PUSH1 0x4 MSTORE PUSH1 0x24 PUSH0 REVERT JUMPDEST SWAP3 SWAP1 SWAP2 PUSH2 0xDB1 DUP4 DUP3 MLOAD SWAP3 PUSH1 0x1F NOT PUSH2 0xDA5 PUSH2 0xD8F DUP7 PUSH2 0xAF5 JUMP JUMPDEST SWAP6 PUSH2 0xD9D PUSH1 0x40 MLOAD SWAP8 DUP9 PUSH2 0xAD2 JUMP JUMPDEST DUP1 DUP8 MSTORE PUSH2 0xAF5 JUMP JUMPDEST ADD CALLDATASIZE PUSH1 0x20 DUP7 ADD CALLDATACOPY PUSH2 0xB5A JUMP JUMPDEST MLOAD SWAP4 DUP5 ISZERO PUSH2 0xDFD JUMPI PUSH2 0xDD9 SWAP4 PUSH2 0xDD3 PUSH0 DUP8 SGT SWAP7 DUP8 PUSH0 EQ PUSH2 0xDEE JUMPI SWAP2 JUMPDEST DUP5 PUSH2 0xB5A JUMP JUMPDEST MSTORE PUSH2 0xC1B JUMP JUMPDEST SWAP1 ISZERO PUSH2 0xDE2 JUMPI SWAP1 JUMP JUMPDEST PUSH2 0xDEB SWAP1 PUSH2 0xB9B JUMP JUMPDEST SWAP1 JUMP JUMPDEST PUSH2 0xDF7 SWAP1 PUSH2 0xB9B JUMP JUMPDEST SWAP2 PUSH2 0xDCD JUMP JUMPDEST POP POP POP POP POP PUSH0 SWAP1 JUMP JUMPDEST PUSH0 DUP2 SLT PUSH2 0xE10 JUMPI SWAP1 JUMP JUMPDEST PUSH32 0xA8CE443200000000000000000000000000000000000000000000000000000000 PUSH0 MSTORE PUSH1 0x4 MSTORE PUSH1 0x24 PUSH0 REVERT JUMPDEST PUSH1 0x4 DUP2 MLOAD LT PUSH2 0xE4B JUMPI PUSH1 0x20 ADD MLOAD SWAP1 JUMP JUMPDEST PUSH32 0xA728568900000000000000000000000000000000000000000000000000000000 PUSH0 MSTORE PUSH1 0x4 PUSH0 REVERT JUMPDEST DUP1 MLOAD ISZERO PUSH2 0xE4B JUMPI DUP1 MLOAD SWAP1 PUSH1 0x20 ADD REVERT JUMPDEST SWAP1 PUSH2 0xEBF JUMPI POP DUP1 MLOAD ISZERO PUSH2 0xE97 JUMPI DUP1 MLOAD SWAP1 PUSH1 0x20 ADD REVERT JUMPDEST PUSH32 0x1425EA4200000000000000000000000000000000000000000000000000000000 PUSH0 MSTORE PUSH1 0x4 PUSH0 REVERT JUMPDEST DUP2 MLOAD ISZERO DUP1 PUSH2 0xF12 JUMPI JUMPDEST PUSH2 0xED0 JUMPI POP SWAP1 JUMP JUMPDEST PUSH20 0xFFFFFFFFFFFFFFFFFFFFFFFFFFFFFFFFFFFFFFFF SWAP1 PUSH32 0x9996B31500000000000000000000000000000000000000000000000000000000 PUSH0 MSTORE AND PUSH1 0x4 MSTORE PUSH1 0x24 PUSH0 REVERT JUMPDEST POP DUP1 EXTCODESIZE ISZERO PUSH2 0xEC8 JUMP JUMPDEST SWAP1 ADDRESS EXTCODESIZE ISZERO PUSH2 0x1A3 JUMPI PUSH0 PUSH2 0xF80 SWAP2 PUSH1 0x40 MLOAD DUP1 SWAP4 DUP2 SWAP3 PUSH32 0xA769963800000000000000000000000000000000000000000000000000000000 DUP4 MSTORE PUSH20 0xFFFFFFFFFFFFFFFFFFFFFFFFFFFFFFFFFFFFFFFF DUP6 SWAP8 AND PUSH1 0x4 DUP5 ADD MSTORE PUSH1 0x40 PUSH1 0x24 DUP5 ADD MSTORE PUSH1 0x44 DUP4 ADD SWAP1 PUSH2 0xBF6 JUMP JUMPDEST SUB DUP2 DUP4 ADDRESS GAS CALL SWAP1 DUP2 PUSH2 0x10F5 JUMPI JUMPDEST POP PUSH2 0x1097 JUMPI PUSH2 0xF9A PUSH2 0xBC7 JUMP JUMPDEST SWAP1 PUSH32 0x5AB64FB800000000000000000000000000000000000000000000000000000000 PUSH32 0xFFFFFFFF00000000000000000000000000000000000000000000000000000000 PUSH2 0xFE6 DUP5 PUSH2 0xE3B JUMP JUMPDEST AND SUB PUSH2 0x1091 JUMPI DUP2 MLOAD SWAP2 PUSH1 0x20 PUSH32 0xFFFFFFFFFFFFFFFFFFFFFFFFFFFFFFFFFFFFFFFFFFFFFFFFFFFFFFFFFFFFFFFC SWAP4 DUP5 DUP2 ADD PUSH1 0x4 DUP5 ADD MSTORE DUP3 ADD SWAP4 DUP3 DUP3 DUP7 ADD SWAP6 SUB ADD SLT PUSH2 0x108D JUMPI PUSH1 0x24 DUP2 ADD MLOAD SWAP1 PUSH8 0xFFFFFFFFFFFFFFFF DUP3 GT PUSH2 0x1089 JUMPI ADD DUP3 PUSH1 0x43 DUP3 ADD SLT ISZERO PUSH2 0x108D JUMPI PUSH1 0x24 DUP2 ADD MLOAD SWAP1 PUSH2 0x105A DUP3 PUSH2 0xB0D JUMP JUMPDEST SWAP4 PUSH2 0x1068 PUSH1 0x40 MLOAD SWAP6 DUP7 PUSH2 0xAD2 JUMP JUMPDEST DUP3 DUP6 MSTORE PUSH1 0x44 DUP4 DUP4 ADD ADD GT PUSH2 0x1089 JUMPI SWAP1 DUP1 PUSH1 0x44 PUSH1 0x20 SWAP4 ADD DUP4 DUP7 ADD MCOPY DUP4 ADD ADD MSTORE SWAP1 JUMP JUMPDEST DUP3 DUP1 REVERT JUMPDEST POP DUP1 REVERT JUMPDEST POP PUSH2 0xE73 JUMP JUMPDEST PUSH1 0x64 PUSH1 0x40 MLOAD PUSH32 0x8C379A000000000000000000000000000000000000000000000000000000000 DUP2 MSTORE PUSH1 0x20 PUSH1 0x4 DUP3 ADD MSTORE PUSH1 0x12 PUSH1 0x24 DUP3 ADD MSTORE PUSH32 0x556E657870656374656420737563636573730000000000000000000000000000 PUSH1 0x44 DUP3 ADD MSTORE REVERT JUMPDEST SWAP1 SWAP2 POP PUSH8 0xFFFFFFFFFFFFFFFF DUP2 GT PUSH2 0xA72 JUMPI PUSH1 0x40 MSTORE PUSH0 SWAP1 PUSH0 PUSH2 0xF8D JUMP INVALID LOG2 PUSH5 0x6970667358 0x22 SLT KECCAK256 DUP14 PUSH21 0x38E351266540A42F02D9AA1DD7D14D8E4BFA505BAA 0xC SWAP9 SAR 0x2E 0x4C 0xC6 EQ POP 0xBD PUSH5 0x736F6C6343 STOP ADDMOD SHL STOP CALLER "},"methodIdentifiers":{"calculateAddLiquidityUnbalancedPriceImpact(address,uint256[],address)":"48406a54","callAndRevertHook(address,bytes)":"a7699638"}}}}}