{"contracts/BalancerContractRegistry.sol":{"BalancerContractRegistry":{"abi":[{"inputs":[{"internalType":"contract IVault","name":"vault","type":"address"}],"stateMutability":"nonpayable","type":"constructor"},{"inputs":[{"internalType":"enum ContractType","name":"contractType","type":"uint8"},{"internalType":"address","name":"contractAddress","type":"address"}],"name":"ContractAddressAlreadyRegistered","type":"error"},{"inputs":[{"internalType":"address","name":"contractAddress","type":"address"}],"name":"ContractAddressNotRegistered","type":"error"},{"inputs":[{"internalType":"enum ContractType","name":"contractType","type":"uint8"},{"internalType":"string","name":"contractName","type":"string"}],"name":"ContractAliasInUseAsName","type":"error"},{"inputs":[{"internalType":"address","name":"contractAddress","type":"address"}],"name":"ContractAlreadyDeprecated","type":"error"},{"inputs":[{"internalType":"enum ContractType","name":"contractType","type":"uint8"},{"internalType":"string","name":"contractName","type":"string"}],"name":"ContractNameAlreadyRegistered","type":"error"},{"inputs":[{"internalType":"string","name":"contractName","type":"string"},{"internalType":"address","name":"contractAddress","type":"address"}],"name":"ContractNameInUseAsAlias","type":"error"},{"inputs":[{"internalType":"string","name":"contractName","type":"string"}],"name":"ContractNameNotRegistered","type":"error"},{"inputs":[{"internalType":"string","name":"contractName","type":"string"},{"internalType":"address","name":"contractAddress","type":"address"}],"name":"InconsistentState","type":"error"},{"inputs":[],"name":"InvalidContractAlias","type":"error"},{"inputs":[],"name":"InvalidContractName","type":"error"},{"inputs":[],"name":"SenderNotAllowed","type":"error"},{"inputs":[],"name":"ZeroContractAddress","type":"error"},{"anonymous":false,"inputs":[{"indexed":true,"internalType":"address","name":"contractAddress","type":"address"}],"name":"BalancerContractDeprecated","type":"event"},{"anonymous":false,"inputs":[{"indexed":true,"internalType":"enum ContractType","name":"contractType","type":"uint8"},{"indexed":true,"internalType":"string","name":"contractName","type":"string"},{"indexed":true,"internalType":"address","name":"contractAddress","type":"address"}],"name":"BalancerContractDeregistered","type":"event"},{"anonymous":false,"inputs":[{"indexed":true,"internalType":"enum ContractType","name":"contractType","type":"uint8"},{"indexed":true,"internalType":"string","name":"contractName","type":"string"},{"indexed":true,"internalType":"address","name":"contractAddress","type":"address"}],"name":"BalancerContractRegistered","type":"event"},{"anonymous":false,"inputs":[{"indexed":true,"internalType":"string","name":"contractAlias","type":"string"},{"indexed":true,"internalType":"address","name":"contractAddress","type":"address"}],"name":"ContractAliasUpdated","type":"event"},{"inputs":[{"internalType":"string","name":"contractAlias","type":"string"},{"internalType":"address","name":"contractAddress","type":"address"}],"name":"addOrUpdateBalancerContractAlias","outputs":[],"stateMutability":"nonpayable","type":"function"},{"inputs":[{"internalType":"address","name":"contractAddress","type":"address"}],"name":"deprecateBalancerContract","outputs":[],"stateMutability":"nonpayable","type":"function"},{"inputs":[{"internalType":"string","name":"contractName","type":"string"}],"name":"deregisterBalancerContract","outputs":[],"stateMutability":"nonpayable","type":"function"},{"inputs":[{"internalType":"bytes4","name":"selector","type":"bytes4"}],"name":"getActionId","outputs":[{"internalType":"bytes32","name":"","type":"bytes32"}],"stateMutability":"view","type":"function"},{"inputs":[],"name":"getAuthorizer","outputs":[{"internalType":"contract IAuthorizer","name":"","type":"address"}],"stateMutability":"view","type":"function"},{"inputs":[{"internalType":"enum ContractType","name":"contractType","type":"uint8"},{"internalType":"string","name":"contractName","type":"string"}],"name":"getBalancerContract","outputs":[{"internalType":"address","name":"contractAddress","type":"address"},{"internalType":"bool","name":"isActive","type":"bool"}],"stateMutability":"view","type":"function"},{"inputs":[{"internalType":"address","name":"contractAddress","type":"address"}],"name":"getBalancerContractInfo","outputs":[{"components":[{"internalType":"enum ContractType","name":"contractType","type":"uint8"},{"internalType":"bool","name":"isRegistered","type":"bool"},{"internalType":"bool","name":"isActive","type":"bool"}],"internalType":"struct IBalancerContractRegistry.ContractInfo","name":"info","type":"tuple"}],"stateMutability":"view","type":"function"},{"inputs":[],"name":"getVault","outputs":[{"internalType":"contract IVault","name":"","type":"address"}],"stateMutability":"view","type":"function"},{"inputs":[{"internalType":"enum ContractType","name":"contractType","type":"uint8"},{"internalType":"address","name":"contractAddress","type":"address"}],"name":"isActiveBalancerContract","outputs":[{"internalType":"bool","name":"","type":"bool"}],"stateMutability":"view","type":"function"},{"inputs":[{"internalType":"address","name":"router","type":"address"}],"name":"isTrustedRouter","outputs":[{"internalType":"bool","name":"","type":"bool"}],"stateMutability":"view","type":"function"},{"inputs":[{"internalType":"enum ContractType","name":"contractType","type":"uint8"},{"internalType":"string","name":"contractName","type":"string"},{"internalType":"address","name":"contractAddress","type":"address"}],"name":"registerBalancerContract","outputs":[],"stateMutability":"nonpayable","type":"function"}],"evm":{"bytecode":{"linkReferences":{},"object":"60c034607a57601f61124738819003918201601f19168301916001600160401b03831184841017607e57808492602094604052833981010312607a57516001600160a01b0381168103607a573060805260a0526040516111b49081610093823960805181610f27015260a0518181816106d70152610fa40152f35b5f80fd5b634e487b7160e01b5f52604160045260245ffdfe6080604081815260049182361015610015575f80fd5b5f3560e01c908163264e97e014610c6b575080632967af9614610a7457806341d8c0bb1461096157806344969a9c146107f6578063851c1bb3146107a65780638554c327146106fb5780638d928af8146106ab578063aaabadc514610672578063ae2733a41461059f578063c7f90793146103dd5763e0376ab414610098575f80fd5b346103d95760606003193601126103d957813560058110156103d95760243567ffffffffffffffff81116103d9576100d39036908501610dd6565b6044359273ffffffffffffffffffffffffffffffffffffffff948585168095036103d9576100ff611051565b84156103b35782511561038d57845f52602060018152825f209683519761012589610d4c565b549760ff986101368a821683610e84565b89808260081c16151591828685015260101c16151586830152610354575061015d85611156565b90815f525f835280855f205416806102c65750815f5260028352845f2054168061028d57505f525f8152825f20867fffffffffffffffffffffffff00000000000000000000000000000000000000008254161790558251926101be84610d4c565b6101c88685610e84565b8184019060018252600181860193818552895f52525f20935192600584101561026157507fffffffffffffffffffffffffffffffffffffffffffffffffffffffffff00000061023a96979862ff000061ff0087549451151560081b169451151560101b16941691161717179055610ee0565b907fb12ed936cf481273b3ed037dc706d110c49bd7ba6743e67082cd772a6e9102e25f80a4005b6021907f4e487b71000000000000000000000000000000000000000000000000000000005f525260245ffd5b836102c2879287519384937f6d4f9990000000000000000000000000000000000000000000000000000000008552840161101d565b0390fd5b846102c288610311878e8b965f5260018252865f20918751926102e884610d4c565b54906102f683831685610e84565b828260081c1615159084015260101c16151586820152610e90565b9361034581519586957fa1e69ed3000000000000000000000000000000000000000000000000000000008752860190610e4a565b60248401526044830190610e9d565b518790846005821015610261577f25a14e0c000000000000000000000000000000000000000000000000000000005f525260245260445ffd5b7f830c907e000000000000000000000000000000000000000000000000000000005f525ffd5b7fb4d92c53000000000000000000000000000000000000000000000000000000005f525ffd5b5f80fd5b5090346103d957602091826003193601126103d957813567ffffffffffffffff81116103d9576104109036908401610dd6565b90610419611051565b8151156105785761042982611156565b90815f525f855273ffffffffffffffffffffffffffffffffffffffff815f20541694851561053e57855f5260018152815f209282519361046885610d4c565b5461047660ff821686610e84565b60ff808260081c16159182158588015260101c1615158486015261050b575f929160019184528381528284207fffffffffffffffffffffffff00000000000000000000000000000000000000008154169055878452528120555191600583101561026157506104e490610ee0565b907ffa2e7bfe3791287aa74ffe867372b78e61b60e0516978c4952f83f7416fafb7c5f80a4005b82517f36a7ac0a000000000000000000000000000000000000000000000000000000008152806102c28988838b0161101d565b846102c28584519384937fcd3599f90000000000000000000000000000000000000000000000000000000085528401526024830190610e9d565b827f830c907e000000000000000000000000000000000000000000000000000000005f525ffd5b50346103d957806003193601126103d95781359060058210156103d95773ffffffffffffffffffffffffffffffffffffffff6105d9610d29565b165f526001602052805f209160ff8251936105f385610d4c565b5461060082821686610e84565b818160081c161515602086015260101c1615159283838201528361062b575b60208484519015158152f35b90919250516005811015610646576020935014905f8061061f565b6021847f4e487b71000000000000000000000000000000000000000000000000000000005f525260245ffd5b50346103d9575f6003193601126103d95760209073ffffffffffffffffffffffffffffffffffffffff6106a3610f61565b915191168152f35b50346103d9575f6003193601126103d9576020905173ffffffffffffffffffffffffffffffffffffffff7f0000000000000000000000000000000000000000000000000000000000000000168152f35b50346103d95760206003193601126103d95760609073ffffffffffffffffffffffffffffffffffffffff61072d610d06565b5f83805161073a81610d4c565b8281528260208201520152165f526001602052805f209080519161075d83610d4c565b5461076b60ff821684610e84565b6020830160ff8260081c161515815260ff8385019260101c16151582526107958351809551610e4a565b511515602084015251151590820152f35b5090346103d95760206003193601126103d95735907fffffffff00000000000000000000000000000000000000000000000000000000821682036103d9576107ef602092610efc565b9051908152f35b50346103d95760206003193601126103d95773ffffffffffffffffffffffffffffffffffffffff610825610d06565b61082d611051565b169182156103b357825f526001602052815f209180519261084d84610d4c565b549061085c60ff831685610e84565b602084019060ff8360081c16158015835260ff8287019460101c16151584526109365782511561090b575f8352855f5260016020525f20935192600584101561026157507fffffffffffffffffffffffffffffffffffffffffffffffffffffffffff00000060ff62ff000061ff0087549451151560081b169451151560101b169416911617171790557f07b81cace396ea12f83465895486ac006cd17917e41b9759ad5e663404f1497b5f80a2005b85847f1f118c35000000000000000000000000000000000000000000000000000000005f525260245ffd5b85847ff5b5d364000000000000000000000000000000000000000000000000000000005f525260245ffd5b5090346103d957816003193601126103d957803560058110156103d95760243567ffffffffffffffff81116103d95761099d9036908401610dd6565b905f926109aa5f93611156565b5f525f60205273ffffffffffffffffffffffffffffffffffffffff9182865f205416908115610a61575b8382165f526001602052865f20908751916109ee83610d4c565b54936109fd60ff861684610e84565b60ff8560081c1615159283602082015260ff8a82019660101c161515865283610a4a575b505050610a3a575b505083519216825215156020820152f35b9051909350151591505f80610a29565b5191925060058210156102615750145f8080610a21565b9050600260205282865f205416906109d4565b5090346103d957816003193601126103d957803567ffffffffffffffff81116103d957610aa49036908301610dd6565b610aac610d29565b91610ab5611051565b815115610c455773ffffffffffffffffffffffffffffffffffffffff809316928315610c1e57835f5260209160018352855f20865190610af482610d4c565b5460ff91610b0483831682610e84565b8883808460081c16159384158985015260101c161515910152610bf357610b2a85611156565b92835f525f8552875f20541680610b9d5786610b77878a600289895f52525f20837fffffffffffffffffffffffff0000000000000000000000000000000000000000825416179055610ee0565b7f06618a6a1a6a413a59097e7c362ee8260afae8f07bd94bc0938e5730584654835f80a3005b85610bbf868a95946102c2945f5260018252865f20918751926102e884610d4c565b9361034581519586957f4466cf0c000000000000000000000000000000000000000000000000000000008752860190610e4a565b85827ff5b5d364000000000000000000000000000000000000000000000000000000005f525260245ffd5b507fb4d92c53000000000000000000000000000000000000000000000000000000005f525ffd5b7f907f9fd9000000000000000000000000000000000000000000000000000000005f525ffd5b919050346103d95760206003193601126103d95773ffffffffffffffffffffffffffffffffffffffff610c9c610d06565b165f52600160205260ff815f20610cb284610d4c565b54610cbf82821685610e84565b818160081c161515602085015260101c16151591828282015282610cea575b60208383519015158152f35b909150519160058310156102615750600260209214905f610cde565b6004359073ffffffffffffffffffffffffffffffffffffffff821682036103d957565b6024359073ffffffffffffffffffffffffffffffffffffffff821682036103d957565b6060810190811067ffffffffffffffff821117610d6857604052565b7f4e487b71000000000000000000000000000000000000000000000000000000005f52604160045260245ffd5b90601f7fffffffffffffffffffffffffffffffffffffffffffffffffffffffffffffffe0910116810190811067ffffffffffffffff821117610d6857604052565b81601f820112156103d95780359067ffffffffffffffff8211610d685760405192610e2960207fffffffffffffffffffffffffffffffffffffffffffffffffffffffffffffffe0601f8601160185610d95565b828452602083830101116103d957815f926020809301838601378301015290565b906005821015610e575752565b7f4e487b71000000000000000000000000000000000000000000000000000000005f52602160045260245ffd5b6005821015610e575752565b516005811015610e575790565b907fffffffffffffffffffffffffffffffffffffffffffffffffffffffffffffffe0601f602080948051918291828752018686015e5f8582860101520116010190565b602090604051918183925191829101835e81015f815203902090565b6040517fffffffff0000000000000000000000000000000000000000000000000000000060208201927f0000000000000000000000000000000000000000000000000000000000000000845216604082015260248152610f5b81610d4c565b51902090565b6040517faaabadc500000000000000000000000000000000000000000000000000000000815273ffffffffffffffffffffffffffffffffffffffff6020826004817f000000000000000000000000000000000000000000000000000000000000000085165afa918215611012575f92610fd957505090565b9091506020813d60201161100a575b81610ff560209383610d95565b810103126103d9575190811681036103d95790565b3d9150610fe8565b6040513d5f823e3d90fd5b9073ffffffffffffffffffffffffffffffffffffffff61104a602092959495604085526040850190610e9d565b9416910152565b61107d7fffffffff000000000000000000000000000000000000000000000000000000005f3516610efc565b602073ffffffffffffffffffffffffffffffffffffffff61109c610f61565b16916064604051809481937f9be2a88400000000000000000000000000000000000000000000000000000000835260048301523360248301523060448301525afa908115611012575f9161111b575b50156110f357565b7f23dada53000000000000000000000000000000000000000000000000000000005f5260045ffd5b90506020813d60201161114e575b8161113660209383610d95565b810103126103d9575180151581036103d9575f6110eb565b3d9150611129565b604051610f5b6020828180820195805191829101875e81015f83820152038084520182610d9556fea26469706673582212209710c4af385b620a141f69b5a6fff71fd2b040dff91ac04502db0300f2e3a39a64736f6c634300081b0033","opcodes":"PUSH1 0xC0 CALLVALUE PUSH1 0x7A JUMPI PUSH1 0x1F PUSH2 0x1247 CODESIZE DUP2 SWAP1 SUB SWAP2 DUP3 ADD PUSH1 0x1F NOT AND DUP4 ADD SWAP2 PUSH1 0x1 PUSH1 0x1 PUSH1 0x40 SHL SUB DUP4 GT DUP5 DUP5 LT OR PUSH1 0x7E JUMPI DUP1 DUP5 SWAP3 PUSH1 0x20 SWAP5 PUSH1 0x40 MSTORE DUP4 CODECOPY DUP2 ADD SUB SLT PUSH1 0x7A JUMPI MLOAD PUSH1 0x1 PUSH1 0x1 PUSH1 0xA0 SHL SUB DUP2 AND DUP2 SUB PUSH1 0x7A JUMPI ADDRESS PUSH1 0x80 MSTORE PUSH1 0xA0 MSTORE PUSH1 0x40 MLOAD PUSH2 0x11B4 SWAP1 DUP2 PUSH2 0x93 DUP3 CODECOPY PUSH1 0x80 MLOAD DUP2 PUSH2 0xF27 ADD MSTORE PUSH1 0xA0 MLOAD DUP2 DUP2 DUP2 PUSH2 0x6D7 ADD MSTORE PUSH2 0xFA4 ADD MSTORE RETURN JUMPDEST PUSH0 DUP1 REVERT JUMPDEST PUSH4 0x4E487B71 PUSH1 0xE0 SHL PUSH0 MSTORE PUSH1 0x41 PUSH1 0x4 MSTORE PUSH1 0x24 PUSH0 REVERT INVALID PUSH1 0x80 PUSH1 0x40 DUP2 DUP2 MSTORE PUSH1 0x4 SWAP2 DUP3 CALLDATASIZE LT ISZERO PUSH2 0x15 JUMPI PUSH0 DUP1 REVERT JUMPDEST PUSH0 CALLDATALOAD PUSH1 0xE0 SHR SWAP1 DUP2 PUSH4 0x264E97E0 EQ PUSH2 0xC6B JUMPI POP DUP1 PUSH4 0x2967AF96 EQ PUSH2 0xA74 JUMPI DUP1 PUSH4 0x41D8C0BB EQ PUSH2 0x961 JUMPI DUP1 PUSH4 0x44969A9C EQ PUSH2 0x7F6 JUMPI DUP1 PUSH4 0x851C1BB3 EQ PUSH2 0x7A6 JUMPI DUP1 PUSH4 0x8554C327 EQ PUSH2 0x6FB JUMPI DUP1 PUSH4 0x8D928AF8 EQ PUSH2 0x6AB JUMPI DUP1 PUSH4 0xAAABADC5 EQ PUSH2 0x672 JUMPI DUP1 PUSH4 0xAE2733A4 EQ PUSH2 0x59F JUMPI DUP1 PUSH4 0xC7F90793 EQ PUSH2 0x3DD JUMPI PUSH4 0xE0376AB4 EQ PUSH2 0x98 JUMPI PUSH0 DUP1 REVERT JUMPDEST CALLVALUE PUSH2 0x3D9 JUMPI PUSH1 0x60 PUSH1 0x3 NOT CALLDATASIZE ADD SLT PUSH2 0x3D9 JUMPI DUP2 CALLDATALOAD PUSH1 0x5 DUP2 LT ISZERO PUSH2 0x3D9 JUMPI PUSH1 0x24 CALLDATALOAD PUSH8 0xFFFFFFFFFFFFFFFF DUP2 GT PUSH2 0x3D9 JUMPI PUSH2 0xD3 SWAP1 CALLDATASIZE SWAP1 DUP6 ADD PUSH2 0xDD6 JUMP JUMPDEST PUSH1 0x44 CALLDATALOAD SWAP3 PUSH20 0xFFFFFFFFFFFFFFFFFFFFFFFFFFFFFFFFFFFFFFFF SWAP5 DUP6 DUP6 AND DUP1 SWAP6 SUB PUSH2 0x3D9 JUMPI PUSH2 0xFF PUSH2 0x1051 JUMP JUMPDEST DUP5 ISZERO PUSH2 0x3B3 JUMPI DUP3 MLOAD ISZERO PUSH2 0x38D JUMPI DUP5 PUSH0 MSTORE PUSH1 0x20 PUSH1 0x1 DUP2 MSTORE DUP3 PUSH0 KECCAK256 SWAP7 DUP4 MLOAD SWAP8 PUSH2 0x125 DUP10 PUSH2 0xD4C JUMP JUMPDEST SLOAD SWAP8 PUSH1 0xFF SWAP9 PUSH2 0x136 DUP11 DUP3 AND DUP4 PUSH2 0xE84 JUMP JUMPDEST DUP10 DUP1 DUP3 PUSH1 0x8 SHR AND ISZERO ISZERO SWAP2 DUP3 DUP7 DUP6 ADD MSTORE PUSH1 0x10 SHR AND ISZERO ISZERO DUP7 DUP4 ADD MSTORE PUSH2 0x354 JUMPI POP PUSH2 0x15D DUP6 PUSH2 0x1156 JUMP JUMPDEST SWAP1 DUP2 PUSH0 MSTORE PUSH0 DUP4 MSTORE DUP1 DUP6 PUSH0 KECCAK256 SLOAD AND DUP1 PUSH2 0x2C6 JUMPI POP DUP2 PUSH0 MSTORE PUSH1 0x2 DUP4 MSTORE DUP5 PUSH0 KECCAK256 SLOAD AND DUP1 PUSH2 0x28D JUMPI POP PUSH0 MSTORE PUSH0 DUP2 MSTORE DUP3 PUSH0 KECCAK256 DUP7 PUSH32 0xFFFFFFFFFFFFFFFFFFFFFFFF0000000000000000000000000000000000000000 DUP3 SLOAD AND OR SWAP1 SSTORE DUP3 MLOAD SWAP3 PUSH2 0x1BE DUP5 PUSH2 0xD4C JUMP JUMPDEST PUSH2 0x1C8 DUP7 DUP6 PUSH2 0xE84 JUMP JUMPDEST DUP2 DUP5 ADD SWAP1 PUSH1 0x1 DUP3 MSTORE PUSH1 0x1 DUP2 DUP7 ADD SWAP4 DUP2 DUP6 MSTORE DUP10 PUSH0 MSTORE MSTORE PUSH0 KECCAK256 SWAP4 MLOAD SWAP3 PUSH1 0x5 DUP5 LT ISZERO PUSH2 0x261 JUMPI POP PUSH32 0xFFFFFFFFFFFFFFFFFFFFFFFFFFFFFFFFFFFFFFFFFFFFFFFFFFFFFFFFFF000000 PUSH2 0x23A SWAP7 SWAP8 SWAP9 PUSH3 0xFF0000 PUSH2 0xFF00 DUP8 SLOAD SWAP5 MLOAD ISZERO ISZERO PUSH1 0x8 SHL AND SWAP5 MLOAD ISZERO ISZERO PUSH1 0x10 SHL AND SWAP5 AND SWAP2 AND OR OR OR SWAP1 SSTORE PUSH2 0xEE0 JUMP JUMPDEST SWAP1 PUSH32 0xB12ED936CF481273B3ED037DC706D110C49BD7BA6743E67082CD772A6E9102E2 PUSH0 DUP1 LOG4 STOP JUMPDEST PUSH1 0x21 SWAP1 PUSH32 0x4E487B7100000000000000000000000000000000000000000000000000000000 PUSH0 MSTORE MSTORE PUSH1 0x24 PUSH0 REVERT JUMPDEST DUP4 PUSH2 0x2C2 DUP8 SWAP3 DUP8 MLOAD SWAP4 DUP5 SWAP4 PUSH32 0x6D4F999000000000000000000000000000000000000000000000000000000000 DUP6 MSTORE DUP5 ADD PUSH2 0x101D JUMP JUMPDEST SUB SWAP1 REVERT JUMPDEST DUP5 PUSH2 0x2C2 DUP9 PUSH2 0x311 DUP8 DUP15 DUP12 SWAP7 PUSH0 MSTORE PUSH1 0x1 DUP3 MSTORE DUP7 PUSH0 KECCAK256 SWAP2 DUP8 MLOAD SWAP3 PUSH2 0x2E8 DUP5 PUSH2 0xD4C JUMP JUMPDEST SLOAD SWAP1 PUSH2 0x2F6 DUP4 DUP4 AND DUP6 PUSH2 0xE84 JUMP JUMPDEST DUP3 DUP3 PUSH1 0x8 SHR AND ISZERO ISZERO SWAP1 DUP5 ADD MSTORE PUSH1 0x10 SHR AND ISZERO ISZERO DUP7 DUP3 ADD MSTORE PUSH2 0xE90 JUMP JUMPDEST SWAP4 PUSH2 0x345 DUP2 MLOAD SWAP6 DUP7 SWAP6 PUSH32 0xA1E69ED300000000000000000000000000000000000000000000000000000000 DUP8 MSTORE DUP7 ADD SWAP1 PUSH2 0xE4A JUMP JUMPDEST PUSH1 0x24 DUP5 ADD MSTORE PUSH1 0x44 DUP4 ADD SWAP1 PUSH2 0xE9D JUMP JUMPDEST MLOAD DUP8 SWAP1 DUP5 PUSH1 0x5 DUP3 LT ISZERO PUSH2 0x261 JUMPI PUSH32 0x25A14E0C00000000000000000000000000000000000000000000000000000000 PUSH0 MSTORE MSTORE PUSH1 0x24 MSTORE PUSH1 0x44 PUSH0 REVERT JUMPDEST PUSH32 0x830C907E00000000000000000000000000000000000000000000000000000000 PUSH0 MSTORE PUSH0 REVERT JUMPDEST PUSH32 0xB4D92C5300000000000000000000000000000000000000000000000000000000 PUSH0 MSTORE PUSH0 REVERT JUMPDEST PUSH0 DUP1 REVERT JUMPDEST POP SWAP1 CALLVALUE PUSH2 0x3D9 JUMPI PUSH1 0x20 SWAP2 DUP3 PUSH1 0x3 NOT CALLDATASIZE ADD SLT PUSH2 0x3D9 JUMPI DUP2 CALLDATALOAD PUSH8 0xFFFFFFFFFFFFFFFF DUP2 GT PUSH2 0x3D9 JUMPI PUSH2 0x410 SWAP1 CALLDATASIZE SWAP1 DUP5 ADD PUSH2 0xDD6 JUMP JUMPDEST SWAP1 PUSH2 0x419 PUSH2 0x1051 JUMP JUMPDEST DUP2 MLOAD ISZERO PUSH2 0x578 JUMPI PUSH2 0x429 DUP3 PUSH2 0x1156 JUMP JUMPDEST SWAP1 DUP2 PUSH0 MSTORE PUSH0 DUP6 MSTORE PUSH20 0xFFFFFFFFFFFFFFFFFFFFFFFFFFFFFFFFFFFFFFFF DUP2 PUSH0 KECCAK256 SLOAD AND SWAP5 DUP6 ISZERO PUSH2 0x53E JUMPI DUP6 PUSH0 MSTORE PUSH1 0x1 DUP2 MSTORE DUP2 PUSH0 KECCAK256 SWAP3 DUP3 MLOAD SWAP4 PUSH2 0x468 DUP6 PUSH2 0xD4C JUMP JUMPDEST SLOAD PUSH2 0x476 PUSH1 0xFF DUP3 AND DUP7 PUSH2 0xE84 JUMP JUMPDEST PUSH1 0xFF DUP1 DUP3 PUSH1 0x8 SHR AND ISZERO SWAP2 DUP3 ISZERO DUP6 DUP9 ADD MSTORE PUSH1 0x10 SHR AND ISZERO ISZERO DUP5 DUP7 ADD MSTORE PUSH2 0x50B JUMPI PUSH0 SWAP3 SWAP2 PUSH1 0x1 SWAP2 DUP5 MSTORE DUP4 DUP2 MSTORE DUP3 DUP5 KECCAK256 PUSH32 0xFFFFFFFFFFFFFFFFFFFFFFFF0000000000000000000000000000000000000000 DUP2 SLOAD AND SWAP1 SSTORE DUP8 DUP5 MSTORE MSTORE DUP2 KECCAK256 SSTORE MLOAD SWAP2 PUSH1 0x5 DUP4 LT ISZERO PUSH2 0x261 JUMPI POP PUSH2 0x4E4 SWAP1 PUSH2 0xEE0 JUMP JUMPDEST SWAP1 PUSH32 0xFA2E7BFE3791287AA74FFE867372B78E61B60E0516978C4952F83F7416FAFB7C PUSH0 DUP1 LOG4 STOP JUMPDEST DUP3 MLOAD PUSH32 0x36A7AC0A00000000000000000000000000000000000000000000000000000000 DUP2 MSTORE DUP1 PUSH2 0x2C2 DUP10 DUP9 DUP4 DUP12 ADD PUSH2 0x101D JUMP JUMPDEST DUP5 PUSH2 0x2C2 DUP6 DUP5 MLOAD SWAP4 DUP5 SWAP4 PUSH32 0xCD3599F900000000000000000000000000000000000000000000000000000000 DUP6 MSTORE DUP5 ADD MSTORE PUSH1 0x24 DUP4 ADD SWAP1 PUSH2 0xE9D JUMP JUMPDEST DUP3 PUSH32 0x830C907E00000000000000000000000000000000000000000000000000000000 PUSH0 MSTORE PUSH0 REVERT JUMPDEST POP CALLVALUE PUSH2 0x3D9 JUMPI DUP1 PUSH1 0x3 NOT CALLDATASIZE ADD SLT PUSH2 0x3D9 JUMPI DUP2 CALLDATALOAD SWAP1 PUSH1 0x5 DUP3 LT ISZERO PUSH2 0x3D9 JUMPI PUSH20 0xFFFFFFFFFFFFFFFFFFFFFFFFFFFFFFFFFFFFFFFF PUSH2 0x5D9 PUSH2 0xD29 JUMP JUMPDEST AND PUSH0 MSTORE PUSH1 0x1 PUSH1 0x20 MSTORE DUP1 PUSH0 KECCAK256 SWAP2 PUSH1 0xFF DUP3 MLOAD SWAP4 PUSH2 0x5F3 DUP6 PUSH2 0xD4C JUMP JUMPDEST SLOAD PUSH2 0x600 DUP3 DUP3 AND DUP7 PUSH2 0xE84 JUMP JUMPDEST DUP2 DUP2 PUSH1 0x8 SHR AND ISZERO ISZERO PUSH1 0x20 DUP7 ADD MSTORE PUSH1 0x10 SHR AND ISZERO ISZERO SWAP3 DUP4 DUP4 DUP3 ADD MSTORE DUP4 PUSH2 0x62B JUMPI JUMPDEST PUSH1 0x20 DUP5 DUP5 MLOAD SWAP1 ISZERO ISZERO DUP2 MSTORE RETURN JUMPDEST SWAP1 SWAP2 SWAP3 POP MLOAD PUSH1 0x5 DUP2 LT ISZERO PUSH2 0x646 JUMPI PUSH1 0x20 SWAP4 POP EQ SWAP1 PUSH0 DUP1 PUSH2 0x61F JUMP JUMPDEST PUSH1 0x21 DUP5 PUSH32 0x4E487B7100000000000000000000000000000000000000000000000000000000 PUSH0 MSTORE MSTORE PUSH1 0x24 PUSH0 REVERT JUMPDEST POP CALLVALUE PUSH2 0x3D9 JUMPI PUSH0 PUSH1 0x3 NOT CALLDATASIZE ADD SLT PUSH2 0x3D9 JUMPI PUSH1 0x20 SWAP1 PUSH20 0xFFFFFFFFFFFFFFFFFFFFFFFFFFFFFFFFFFFFFFFF PUSH2 0x6A3 PUSH2 0xF61 JUMP JUMPDEST SWAP2 MLOAD SWAP2 AND DUP2 MSTORE RETURN JUMPDEST POP CALLVALUE PUSH2 0x3D9 JUMPI PUSH0 PUSH1 0x3 NOT CALLDATASIZE ADD SLT PUSH2 0x3D9 JUMPI PUSH1 0x20 SWAP1 MLOAD PUSH20 0xFFFFFFFFFFFFFFFFFFFFFFFFFFFFFFFFFFFFFFFF PUSH32 0x0 AND DUP2 MSTORE RETURN JUMPDEST POP CALLVALUE PUSH2 0x3D9 JUMPI PUSH1 0x20 PUSH1 0x3 NOT CALLDATASIZE ADD SLT PUSH2 0x3D9 JUMPI PUSH1 0x60 SWAP1 PUSH20 0xFFFFFFFFFFFFFFFFFFFFFFFFFFFFFFFFFFFFFFFF PUSH2 0x72D PUSH2 0xD06 JUMP JUMPDEST PUSH0 DUP4 DUP1 MLOAD PUSH2 0x73A DUP2 PUSH2 0xD4C JUMP JUMPDEST DUP3 DUP2 MSTORE DUP3 PUSH1 0x20 DUP3 ADD MSTORE ADD MSTORE AND PUSH0 MSTORE PUSH1 0x1 PUSH1 0x20 MSTORE DUP1 PUSH0 KECCAK256 SWAP1 DUP1 MLOAD SWAP2 PUSH2 0x75D DUP4 PUSH2 0xD4C JUMP JUMPDEST SLOAD PUSH2 0x76B PUSH1 0xFF DUP3 AND DUP5 PUSH2 0xE84 JUMP JUMPDEST PUSH1 0x20 DUP4 ADD PUSH1 0xFF DUP3 PUSH1 0x8 SHR AND ISZERO ISZERO DUP2 MSTORE PUSH1 0xFF DUP4 DUP6 ADD SWAP3 PUSH1 0x10 SHR AND ISZERO ISZERO DUP3 MSTORE PUSH2 0x795 DUP4 MLOAD DUP1 SWAP6 MLOAD PUSH2 0xE4A JUMP JUMPDEST MLOAD ISZERO ISZERO PUSH1 0x20 DUP5 ADD MSTORE MLOAD ISZERO ISZERO SWAP1 DUP3 ADD MSTORE RETURN JUMPDEST POP SWAP1 CALLVALUE PUSH2 0x3D9 JUMPI PUSH1 0x20 PUSH1 0x3 NOT CALLDATASIZE ADD SLT PUSH2 0x3D9 JUMPI CALLDATALOAD SWAP1 PUSH32 0xFFFFFFFF00000000000000000000000000000000000000000000000000000000 DUP3 AND DUP3 SUB PUSH2 0x3D9 JUMPI PUSH2 0x7EF PUSH1 0x20 SWAP3 PUSH2 0xEFC JUMP JUMPDEST SWAP1 MLOAD SWAP1 DUP2 MSTORE RETURN JUMPDEST POP CALLVALUE PUSH2 0x3D9 JUMPI PUSH1 0x20 PUSH1 0x3 NOT CALLDATASIZE ADD SLT PUSH2 0x3D9 JUMPI PUSH20 0xFFFFFFFFFFFFFFFFFFFFFFFFFFFFFFFFFFFFFFFF PUSH2 0x825 PUSH2 0xD06 JUMP JUMPDEST PUSH2 0x82D PUSH2 0x1051 JUMP JUMPDEST AND SWAP2 DUP3 ISZERO PUSH2 0x3B3 JUMPI DUP3 PUSH0 MSTORE PUSH1 0x1 PUSH1 0x20 MSTORE DUP2 PUSH0 KECCAK256 SWAP2 DUP1 MLOAD SWAP3 PUSH2 0x84D DUP5 PUSH2 0xD4C JUMP JUMPDEST SLOAD SWAP1 PUSH2 0x85C PUSH1 0xFF DUP4 AND DUP6 PUSH2 0xE84 JUMP JUMPDEST PUSH1 0x20 DUP5 ADD SWAP1 PUSH1 0xFF DUP4 PUSH1 0x8 SHR AND ISZERO DUP1 ISZERO DUP4 MSTORE PUSH1 0xFF DUP3 DUP8 ADD SWAP5 PUSH1 0x10 SHR AND ISZERO ISZERO DUP5 MSTORE PUSH2 0x936 JUMPI DUP3 MLOAD ISZERO PUSH2 0x90B JUMPI PUSH0 DUP4 MSTORE DUP6 PUSH0 MSTORE PUSH1 0x1 PUSH1 0x20 MSTORE PUSH0 KECCAK256 SWAP4 MLOAD SWAP3 PUSH1 0x5 DUP5 LT ISZERO PUSH2 0x261 JUMPI POP PUSH32 0xFFFFFFFFFFFFFFFFFFFFFFFFFFFFFFFFFFFFFFFFFFFFFFFFFFFFFFFFFF000000 PUSH1 0xFF PUSH3 0xFF0000 PUSH2 0xFF00 DUP8 SLOAD SWAP5 MLOAD ISZERO ISZERO PUSH1 0x8 SHL AND SWAP5 MLOAD ISZERO ISZERO PUSH1 0x10 SHL AND SWAP5 AND SWAP2 AND OR OR OR SWAP1 SSTORE PUSH32 0x7B81CACE396EA12F83465895486AC006CD17917E41B9759AD5E663404F1497B PUSH0 DUP1 LOG2 STOP JUMPDEST DUP6 DUP5 PUSH32 0x1F118C3500000000000000000000000000000000000000000000000000000000 PUSH0 MSTORE MSTORE PUSH1 0x24 PUSH0 REVERT JUMPDEST DUP6 DUP5 PUSH32 0xF5B5D36400000000000000000000000000000000000000000000000000000000 PUSH0 MSTORE MSTORE PUSH1 0x24 PUSH0 REVERT JUMPDEST POP SWAP1 CALLVALUE PUSH2 0x3D9 JUMPI DUP2 PUSH1 0x3 NOT CALLDATASIZE ADD SLT PUSH2 0x3D9 JUMPI DUP1 CALLDATALOAD PUSH1 0x5 DUP2 LT ISZERO PUSH2 0x3D9 JUMPI PUSH1 0x24 CALLDATALOAD PUSH8 0xFFFFFFFFFFFFFFFF DUP2 GT PUSH2 0x3D9 JUMPI PUSH2 0x99D SWAP1 CALLDATASIZE SWAP1 DUP5 ADD PUSH2 0xDD6 JUMP JUMPDEST SWAP1 PUSH0 SWAP3 PUSH2 0x9AA PUSH0 SWAP4 PUSH2 0x1156 JUMP JUMPDEST PUSH0 MSTORE PUSH0 PUSH1 0x20 MSTORE PUSH20 0xFFFFFFFFFFFFFFFFFFFFFFFFFFFFFFFFFFFFFFFF SWAP2 DUP3 DUP7 PUSH0 KECCAK256 SLOAD AND SWAP1 DUP2 ISZERO PUSH2 0xA61 JUMPI JUMPDEST DUP4 DUP3 AND PUSH0 MSTORE PUSH1 0x1 PUSH1 0x20 MSTORE DUP7 PUSH0 KECCAK256 SWAP1 DUP8 MLOAD SWAP2 PUSH2 0x9EE DUP4 PUSH2 0xD4C JUMP JUMPDEST SLOAD SWAP4 PUSH2 0x9FD PUSH1 0xFF DUP7 AND DUP5 PUSH2 0xE84 JUMP JUMPDEST PUSH1 0xFF DUP6 PUSH1 0x8 SHR AND ISZERO ISZERO SWAP3 DUP4 PUSH1 0x20 DUP3 ADD MSTORE PUSH1 0xFF DUP11 DUP3 ADD SWAP7 PUSH1 0x10 SHR AND ISZERO ISZERO DUP7 MSTORE DUP4 PUSH2 0xA4A JUMPI JUMPDEST POP POP POP PUSH2 0xA3A JUMPI JUMPDEST POP POP DUP4 MLOAD SWAP3 AND DUP3 MSTORE ISZERO ISZERO PUSH1 0x20 DUP3 ADD MSTORE RETURN JUMPDEST SWAP1 MLOAD SWAP1 SWAP4 POP ISZERO ISZERO SWAP2 POP PUSH0 DUP1 PUSH2 0xA29 JUMP JUMPDEST MLOAD SWAP2 SWAP3 POP PUSH1 0x5 DUP3 LT ISZERO PUSH2 0x261 JUMPI POP EQ PUSH0 DUP1 DUP1 PUSH2 0xA21 JUMP JUMPDEST SWAP1 POP PUSH1 0x2 PUSH1 0x20 MSTORE DUP3 DUP7 PUSH0 KECCAK256 SLOAD AND SWAP1 PUSH2 0x9D4 JUMP JUMPDEST POP SWAP1 CALLVALUE PUSH2 0x3D9 JUMPI DUP2 PUSH1 0x3 NOT CALLDATASIZE ADD SLT PUSH2 0x3D9 JUMPI DUP1 CALLDATALOAD PUSH8 0xFFFFFFFFFFFFFFFF DUP2 GT PUSH2 0x3D9 JUMPI PUSH2 0xAA4 SWAP1 CALLDATASIZE SWAP1 DUP4 ADD PUSH2 0xDD6 JUMP JUMPDEST PUSH2 0xAAC PUSH2 0xD29 JUMP JUMPDEST SWAP2 PUSH2 0xAB5 PUSH2 0x1051 JUMP JUMPDEST DUP2 MLOAD ISZERO PUSH2 0xC45 JUMPI PUSH20 0xFFFFFFFFFFFFFFFFFFFFFFFFFFFFFFFFFFFFFFFF DUP1 SWAP4 AND SWAP3 DUP4 ISZERO PUSH2 0xC1E JUMPI DUP4 PUSH0 MSTORE PUSH1 0x20 SWAP2 PUSH1 0x1 DUP4 MSTORE DUP6 PUSH0 KECCAK256 DUP7 MLOAD SWAP1 PUSH2 0xAF4 DUP3 PUSH2 0xD4C JUMP JUMPDEST SLOAD PUSH1 0xFF SWAP2 PUSH2 0xB04 DUP4 DUP4 AND DUP3 PUSH2 0xE84 JUMP JUMPDEST DUP9 DUP4 DUP1 DUP5 PUSH1 0x8 SHR AND ISZERO SWAP4 DUP5 ISZERO DUP10 DUP6 ADD MSTORE PUSH1 0x10 SHR AND ISZERO ISZERO SWAP2 ADD MSTORE PUSH2 0xBF3 JUMPI PUSH2 0xB2A DUP6 PUSH2 0x1156 JUMP JUMPDEST SWAP3 DUP4 PUSH0 MSTORE PUSH0 DUP6 MSTORE DUP8 PUSH0 KECCAK256 SLOAD AND DUP1 PUSH2 0xB9D JUMPI DUP7 PUSH2 0xB77 DUP8 DUP11 PUSH1 0x2 DUP10 DUP10 PUSH0 MSTORE MSTORE PUSH0 KECCAK256 DUP4 PUSH32 0xFFFFFFFFFFFFFFFFFFFFFFFF0000000000000000000000000000000000000000 DUP3 SLOAD AND OR SWAP1 SSTORE PUSH2 0xEE0 JUMP JUMPDEST PUSH32 0x6618A6A1A6A413A59097E7C362EE8260AFAE8F07BD94BC0938E573058465483 PUSH0 DUP1 LOG3 STOP JUMPDEST DUP6 PUSH2 0xBBF DUP7 DUP11 SWAP6 SWAP5 PUSH2 0x2C2 SWAP5 PUSH0 MSTORE PUSH1 0x1 DUP3 MSTORE DUP7 PUSH0 KECCAK256 SWAP2 DUP8 MLOAD SWAP3 PUSH2 0x2E8 DUP5 PUSH2 0xD4C JUMP JUMPDEST SWAP4 PUSH2 0x345 DUP2 MLOAD SWAP6 DUP7 SWAP6 PUSH32 0x4466CF0C00000000000000000000000000000000000000000000000000000000 DUP8 MSTORE DUP7 ADD SWAP1 PUSH2 0xE4A JUMP JUMPDEST DUP6 DUP3 PUSH32 0xF5B5D36400000000000000000000000000000000000000000000000000000000 PUSH0 MSTORE MSTORE PUSH1 0x24 PUSH0 REVERT JUMPDEST POP PUSH32 0xB4D92C5300000000000000000000000000000000000000000000000000000000 PUSH0 MSTORE PUSH0 REVERT JUMPDEST PUSH32 0x907F9FD900000000000000000000000000000000000000000000000000000000 PUSH0 MSTORE PUSH0 REVERT JUMPDEST SWAP2 SWAP1 POP CALLVALUE PUSH2 0x3D9 JUMPI PUSH1 0x20 PUSH1 0x3 NOT CALLDATASIZE ADD SLT PUSH2 0x3D9 JUMPI PUSH20 0xFFFFFFFFFFFFFFFFFFFFFFFFFFFFFFFFFFFFFFFF PUSH2 0xC9C PUSH2 0xD06 JUMP JUMPDEST AND PUSH0 MSTORE PUSH1 0x1 PUSH1 0x20 MSTORE PUSH1 0xFF DUP2 PUSH0 KECCAK256 PUSH2 0xCB2 DUP5 PUSH2 0xD4C JUMP JUMPDEST SLOAD PUSH2 0xCBF DUP3 DUP3 AND DUP6 PUSH2 0xE84 JUMP JUMPDEST DUP2 DUP2 PUSH1 0x8 SHR AND ISZERO ISZERO PUSH1 0x20 DUP6 ADD MSTORE PUSH1 0x10 SHR AND ISZERO ISZERO SWAP2 DUP3 DUP3 DUP3 ADD MSTORE DUP3 PUSH2 0xCEA JUMPI JUMPDEST PUSH1 0x20 DUP4 DUP4 MLOAD SWAP1 ISZERO ISZERO DUP2 MSTORE RETURN JUMPDEST SWAP1 SWAP2 POP MLOAD SWAP2 PUSH1 0x5 DUP4 LT ISZERO PUSH2 0x261 JUMPI POP PUSH1 0x2 PUSH1 0x20 SWAP3 EQ SWAP1 PUSH0 PUSH2 0xCDE JUMP JUMPDEST PUSH1 0x4 CALLDATALOAD SWAP1 PUSH20 0xFFFFFFFFFFFFFFFFFFFFFFFFFFFFFFFFFFFFFFFF DUP3 AND DUP3 SUB PUSH2 0x3D9 JUMPI JUMP JUMPDEST PUSH1 0x24 CALLDATALOAD SWAP1 PUSH20 0xFFFFFFFFFFFFFFFFFFFFFFFFFFFFFFFFFFFFFFFF DUP3 AND DUP3 SUB PUSH2 0x3D9 JUMPI JUMP JUMPDEST PUSH1 0x60 DUP2 ADD SWAP1 DUP2 LT PUSH8 0xFFFFFFFFFFFFFFFF DUP3 GT OR PUSH2 0xD68 JUMPI PUSH1 0x40 MSTORE JUMP JUMPDEST PUSH32 0x4E487B7100000000000000000000000000000000000000000000000000000000 PUSH0 MSTORE PUSH1 0x41 PUSH1 0x4 MSTORE PUSH1 0x24 PUSH0 REVERT JUMPDEST SWAP1 PUSH1 0x1F PUSH32 0xFFFFFFFFFFFFFFFFFFFFFFFFFFFFFFFFFFFFFFFFFFFFFFFFFFFFFFFFFFFFFFE0 SWAP2 ADD AND DUP2 ADD SWAP1 DUP2 LT PUSH8 0xFFFFFFFFFFFFFFFF DUP3 GT OR PUSH2 0xD68 JUMPI PUSH1 0x40 MSTORE JUMP JUMPDEST DUP2 PUSH1 0x1F DUP3 ADD SLT ISZERO PUSH2 0x3D9 JUMPI DUP1 CALLDATALOAD SWAP1 PUSH8 0xFFFFFFFFFFFFFFFF DUP3 GT PUSH2 0xD68 JUMPI PUSH1 0x40 MLOAD SWAP3 PUSH2 0xE29 PUSH1 0x20 PUSH32 0xFFFFFFFFFFFFFFFFFFFFFFFFFFFFFFFFFFFFFFFFFFFFFFFFFFFFFFFFFFFFFFE0 PUSH1 0x1F DUP7 ADD AND ADD DUP6 PUSH2 0xD95 JUMP JUMPDEST DUP3 DUP5 MSTORE PUSH1 0x20 DUP4 DUP4 ADD ADD GT PUSH2 0x3D9 JUMPI DUP2 PUSH0 SWAP3 PUSH1 0x20 DUP1 SWAP4 ADD DUP4 DUP7 ADD CALLDATACOPY DUP4 ADD ADD MSTORE SWAP1 JUMP JUMPDEST SWAP1 PUSH1 0x5 DUP3 LT ISZERO PUSH2 0xE57 JUMPI MSTORE JUMP JUMPDEST PUSH32 0x4E487B7100000000000000000000000000000000000000000000000000000000 PUSH0 MSTORE PUSH1 0x21 PUSH1 0x4 MSTORE PUSH1 0x24 PUSH0 REVERT JUMPDEST PUSH1 0x5 DUP3 LT ISZERO PUSH2 0xE57 JUMPI MSTORE JUMP JUMPDEST MLOAD PUSH1 0x5 DUP2 LT ISZERO PUSH2 0xE57 JUMPI SWAP1 JUMP JUMPDEST SWAP1 PUSH32 0xFFFFFFFFFFFFFFFFFFFFFFFFFFFFFFFFFFFFFFFFFFFFFFFFFFFFFFFFFFFFFFE0 PUSH1 0x1F PUSH1 0x20 DUP1 SWAP5 DUP1 MLOAD SWAP2 DUP3 SWAP2 DUP3 DUP8 MSTORE ADD DUP7 DUP7 ADD MCOPY PUSH0 DUP6 DUP3 DUP7 ADD ADD MSTORE ADD AND ADD ADD SWAP1 JUMP JUMPDEST PUSH1 0x20 SWAP1 PUSH1 0x40 MLOAD SWAP2 DUP2 DUP4 SWAP3 MLOAD SWAP2 DUP3 SWAP2 ADD DUP4 MCOPY DUP2 ADD PUSH0 DUP2 MSTORE SUB SWAP1 KECCAK256 SWAP1 JUMP JUMPDEST PUSH1 0x40 MLOAD PUSH32 0xFFFFFFFF00000000000000000000000000000000000000000000000000000000 PUSH1 0x20 DUP3 ADD SWAP3 PUSH32 0x0 DUP5 MSTORE AND PUSH1 0x40 DUP3 ADD MSTORE PUSH1 0x24 DUP2 MSTORE PUSH2 0xF5B DUP2 PUSH2 0xD4C JUMP JUMPDEST MLOAD SWAP1 KECCAK256 SWAP1 JUMP JUMPDEST PUSH1 0x40 MLOAD PUSH32 0xAAABADC500000000000000000000000000000000000000000000000000000000 DUP2 MSTORE PUSH20 0xFFFFFFFFFFFFFFFFFFFFFFFFFFFFFFFFFFFFFFFF PUSH1 0x20 DUP3 PUSH1 0x4 DUP2 PUSH32 0x0 DUP6 AND GAS STATICCALL SWAP2 DUP3 ISZERO PUSH2 0x1012 JUMPI PUSH0 SWAP3 PUSH2 0xFD9 JUMPI POP POP SWAP1 JUMP JUMPDEST SWAP1 SWAP2 POP PUSH1 0x20 DUP2 RETURNDATASIZE PUSH1 0x20 GT PUSH2 0x100A JUMPI JUMPDEST DUP2 PUSH2 0xFF5 PUSH1 0x20 SWAP4 DUP4 PUSH2 0xD95 JUMP JUMPDEST DUP2 ADD SUB SLT PUSH2 0x3D9 JUMPI MLOAD SWAP1 DUP2 AND DUP2 SUB PUSH2 0x3D9 JUMPI SWAP1 JUMP JUMPDEST RETURNDATASIZE SWAP2 POP PUSH2 0xFE8 JUMP JUMPDEST PUSH1 0x40 MLOAD RETURNDATASIZE PUSH0 DUP3 RETURNDATACOPY RETURNDATASIZE SWAP1 REVERT JUMPDEST SWAP1 PUSH20 0xFFFFFFFFFFFFFFFFFFFFFFFFFFFFFFFFFFFFFFFF PUSH2 0x104A PUSH1 0x20 SWAP3 SWAP6 SWAP5 SWAP6 PUSH1 0x40 DUP6 MSTORE PUSH1 0x40 DUP6 ADD SWAP1 PUSH2 0xE9D JUMP JUMPDEST SWAP5 AND SWAP2 ADD MSTORE JUMP JUMPDEST PUSH2 0x107D PUSH32 0xFFFFFFFF00000000000000000000000000000000000000000000000000000000 PUSH0 CALLDATALOAD AND PUSH2 0xEFC JUMP JUMPDEST PUSH1 0x20 PUSH20 0xFFFFFFFFFFFFFFFFFFFFFFFFFFFFFFFFFFFFFFFF PUSH2 0x109C PUSH2 0xF61 JUMP JUMPDEST AND SWAP2 PUSH1 0x64 PUSH1 0x40 MLOAD DUP1 SWAP5 DUP2 SWAP4 PUSH32 0x9BE2A88400000000000000000000000000000000000000000000000000000000 DUP4 MSTORE PUSH1 0x4 DUP4 ADD MSTORE CALLER PUSH1 0x24 DUP4 ADD MSTORE ADDRESS PUSH1 0x44 DUP4 ADD MSTORE GAS STATICCALL SWAP1 DUP2 ISZERO PUSH2 0x1012 JUMPI PUSH0 SWAP2 PUSH2 0x111B JUMPI JUMPDEST POP ISZERO PUSH2 0x10F3 JUMPI JUMP JUMPDEST PUSH32 0x23DADA5300000000000000000000000000000000000000000000000000000000 PUSH0 MSTORE PUSH1 0x4 PUSH0 REVERT JUMPDEST SWAP1 POP PUSH1 0x20 DUP2 RETURNDATASIZE PUSH1 0x20 GT PUSH2 0x114E JUMPI JUMPDEST DUP2 PUSH2 0x1136 PUSH1 0x20 SWAP4 DUP4 PUSH2 0xD95 JUMP JUMPDEST DUP2 ADD SUB SLT PUSH2 0x3D9 JUMPI MLOAD DUP1 ISZERO ISZERO DUP2 SUB PUSH2 0x3D9 JUMPI PUSH0 PUSH2 0x10EB JUMP JUMPDEST RETURNDATASIZE SWAP2 POP PUSH2 0x1129 JUMP JUMPDEST PUSH1 0x40 MLOAD PUSH2 0xF5B PUSH1 0x20 DUP3 DUP2 DUP1 DUP3 ADD SWAP6 DUP1 MLOAD SWAP2 DUP3 SWAP2 ADD DUP8 MCOPY DUP2 ADD PUSH0 DUP4 DUP3 ADD MSTORE SUB DUP1 DUP5 MSTORE ADD DUP3 PUSH2 0xD95 JUMP INVALID LOG2 PUSH5 0x6970667358 0x22 SLT KECCAK256 SWAP8 LT 0xC4 0xAF CODESIZE JUMPDEST PUSH3 0xA141F PUSH10 0xB5A6FFF71FD2B040DFF9 BYTE 0xC0 GASLIMIT MUL 0xDB SUB STOP CALLCODE 0xE3 LOG3 SWAP11 PUSH5 0x736F6C6343 STOP ADDMOD SHL STOP CALLER "},"methodIdentifiers":{"addOrUpdateBalancerContractAlias(string,address)":"2967af96","deprecateBalancerContract(address)":"44969a9c","deregisterBalancerContract(string)":"c7f90793","getActionId(bytes4)":"851c1bb3","getAuthorizer()":"aaabadc5","getBalancerContract(uint8,string)":"41d8c0bb","getBalancerContractInfo(address)":"8554c327","getVault()":"8d928af8","isActiveBalancerContract(uint8,address)":"ae2733a4","isTrustedRouter(address)":"264e97e0","registerBalancerContract(uint8,string,address)":"e0376ab4"}}}}}