{"contracts/test/ProtocolFeeBurnerMock.sol":{"ProtocolFeeBurnerMock":{"abi":[{"anonymous":false,"inputs":[{"indexed":true,"internalType":"address","name":"pool","type":"address"},{"indexed":true,"internalType":"contract IERC20","name":"feeToken","type":"address"},{"indexed":false,"internalType":"uint256","name":"feeTokenAmount","type":"uint256"},{"indexed":true,"internalType":"contract IERC20","name":"targetToken","type":"address"},{"indexed":false,"internalType":"uint256","name":"targetTokenAmount","type":"uint256"},{"indexed":false,"internalType":"address","name":"recipient","type":"address"}],"name":"ProtocolFeeBurned","type":"event"},{"inputs":[{"internalType":"address","name":"pool","type":"address"},{"internalType":"contract IERC20","name":"feeToken","type":"address"},{"internalType":"uint256","name":"feeTokenAmount","type":"uint256"},{"internalType":"contract IERC20","name":"targetToken","type":"address"},{"internalType":"address","name":"recipient","type":"address"}],"name":"burn","outputs":[],"stateMutability":"nonpayable","type":"function"}],"evm":{"bytecode":{"linkReferences":{},"object":"608080604052346015576101da908161001a8239f35b5f80fdfe6080806040526004361015610012575f80fd5b5f905f3560e01c6354caad0014610027575f80fd5b346101a05760a07ffffffffffffffffffffffffffffffffffffffffffffffffffffffffffffffffc3601126101a05760043573ffffffffffffffffffffffffffffffffffffffff908181168091036101a057602435918083168093036101a05760443590606435948186168096036101a0576084359182168092036101a057853b156101a0577f40c10f190000000000000000000000000000000000000000000000000000000081528160048201528260248201525f81604481838a5af180156101955761012b575b507f77a7b034dbb42c9087518e95b49c02a17704a521555779f3f9d7f1b26df5ce8d916060916040519180835260208301526040820152a480f35b90955067ffffffffffffffff8111610168576040525f947f77a7b034dbb42c9087518e95b49c02a17704a521555779f3f9d7f1b26df5ce8d6100f0565b7f4e487b71000000000000000000000000000000000000000000000000000000005f52604160045260245ffd5b6040513d5f823e3d90fd5b5f80fdfea26469706673582212208009a9e620087fee785931b17e5a3ac8b1fbf62013d77593b39767dec8fd9c2a64736f6c634300081b0033","opcodes":"PUSH1 0x80 DUP1 PUSH1 0x40 MSTORE CALLVALUE PUSH1 0x15 JUMPI PUSH2 0x1DA SWAP1 DUP2 PUSH2 0x1A DUP3 CODECOPY RETURN JUMPDEST PUSH0 DUP1 REVERT INVALID PUSH1 0x80 DUP1 PUSH1 0x40 MSTORE PUSH1 0x4 CALLDATASIZE LT ISZERO PUSH2 0x12 JUMPI PUSH0 DUP1 REVERT JUMPDEST PUSH0 SWAP1 PUSH0 CALLDATALOAD PUSH1 0xE0 SHR PUSH4 0x54CAAD00 EQ PUSH2 0x27 JUMPI PUSH0 DUP1 REVERT JUMPDEST CALLVALUE PUSH2 0x1A0 JUMPI PUSH1 0xA0 PUSH32 0xFFFFFFFFFFFFFFFFFFFFFFFFFFFFFFFFFFFFFFFFFFFFFFFFFFFFFFFFFFFFFFFC CALLDATASIZE ADD SLT PUSH2 0x1A0 JUMPI PUSH1 0x4 CALLDATALOAD PUSH20 0xFFFFFFFFFFFFFFFFFFFFFFFFFFFFFFFFFFFFFFFF SWAP1 DUP2 DUP2 AND DUP1 SWAP2 SUB PUSH2 0x1A0 JUMPI PUSH1 0x24 CALLDATALOAD SWAP2 DUP1 DUP4 AND DUP1 SWAP4 SUB PUSH2 0x1A0 JUMPI PUSH1 0x44 CALLDATALOAD SWAP1 PUSH1 0x64 CALLDATALOAD SWAP5 DUP2 DUP7 AND DUP1 SWAP7 SUB PUSH2 0x1A0 JUMPI PUSH1 0x84 CALLDATALOAD SWAP2 DUP3 AND DUP1 SWAP3 SUB PUSH2 0x1A0 JUMPI DUP6 EXTCODESIZE ISZERO PUSH2 0x1A0 JUMPI PUSH32 0x40C10F1900000000000000000000000000000000000000000000000000000000 DUP2 MSTORE DUP2 PUSH1 0x4 DUP3 ADD MSTORE DUP3 PUSH1 0x24 DUP3 ADD MSTORE PUSH0 DUP2 PUSH1 0x44 DUP2 DUP4 DUP11 GAS CALL DUP1 ISZERO PUSH2 0x195 JUMPI PUSH2 0x12B JUMPI JUMPDEST POP PUSH32 0x77A7B034DBB42C9087518E95B49C02A17704A521555779F3F9D7F1B26DF5CE8D SWAP2 PUSH1 0x60 SWAP2 PUSH1 0x40 MLOAD SWAP2 DUP1 DUP4 MSTORE PUSH1 0x20 DUP4 ADD MSTORE PUSH1 0x40 DUP3 ADD MSTORE LOG4 DUP1 RETURN JUMPDEST SWAP1 SWAP6 POP PUSH8 0xFFFFFFFFFFFFFFFF DUP2 GT PUSH2 0x168 JUMPI PUSH1 0x40 MSTORE PUSH0 SWAP5 PUSH32 0x77A7B034DBB42C9087518E95B49C02A17704A521555779F3F9D7F1B26DF5CE8D PUSH2 0xF0 JUMP JUMPDEST PUSH32 0x4E487B7100000000000000000000000000000000000000000000000000000000 PUSH0 MSTORE PUSH1 0x41 PUSH1 0x4 MSTORE PUSH1 0x24 PUSH0 REVERT JUMPDEST PUSH1 0x40 MLOAD RETURNDATASIZE PUSH0 DUP3 RETURNDATACOPY RETURNDATASIZE SWAP1 REVERT JUMPDEST PUSH0 DUP1 REVERT INVALID LOG2 PUSH5 0x6970667358 0x22 SLT KECCAK256 DUP1 MULMOD 0xA9 0xE6 KECCAK256 ADDMOD PUSH32 0xEE785931B17E5A3AC8B1FBF62013D77593B39767DEC8FD9C2A64736F6C634300 ADDMOD SHL STOP CALLER "},"methodIdentifiers":{"burn(address,address,uint256,address,address)":"54caad00"}}}}}