{"contracts/ProtocolFeeSweeper.sol":{"ProtocolFeeSweeper":{"abi":[{"inputs":[{"internalType":"contract IVault","name":"vault","type":"address"},{"internalType":"address","name":"feeRecipient","type":"address"}],"stateMutability":"nonpayable","type":"constructor"},{"inputs":[{"internalType":"address","name":"target","type":"address"}],"name":"AddressEmptyCode","type":"error"},{"inputs":[{"internalType":"address","name":"account","type":"address"}],"name":"AddressInsufficientBalance","type":"error"},{"inputs":[],"name":"CannotReceiveEth","type":"error"},{"inputs":[],"name":"FailedInnerCall","type":"error"},{"inputs":[],"name":"InvalidFeeRecipient","type":"error"},{"inputs":[],"name":"InvalidTargetToken","type":"error"},{"inputs":[],"name":"ReentrancyGuardReentrantCall","type":"error"},{"inputs":[{"internalType":"address","name":"token","type":"address"}],"name":"SafeERC20FailedOperation","type":"error"},{"inputs":[],"name":"SenderNotAllowed","type":"error"},{"anonymous":false,"inputs":[{"indexed":true,"internalType":"address","name":"feeRecipient","type":"address"}],"name":"FeeRecipientSet","type":"event"},{"anonymous":false,"inputs":[{"indexed":true,"internalType":"address","name":"protocolFeeBurner","type":"address"}],"name":"ProtocolFeeBurnerSet","type":"event"},{"anonymous":false,"inputs":[{"indexed":true,"internalType":"address","name":"pool","type":"address"},{"indexed":true,"internalType":"contract IERC20","name":"feeToken","type":"address"},{"indexed":false,"internalType":"uint256","name":"feeTokenAmount","type":"uint256"},{"indexed":false,"internalType":"address","name":"recipient","type":"address"}],"name":"ProtocolFeeSwept","type":"event"},{"anonymous":false,"inputs":[{"indexed":true,"internalType":"contract IERC20","name":"token","type":"address"}],"name":"TargetTokenSet","type":"event"},{"stateMutability":"payable","type":"fallback"},{"inputs":[{"internalType":"bytes4","name":"selector","type":"bytes4"}],"name":"getActionId","outputs":[{"internalType":"bytes32","name":"","type":"bytes32"}],"stateMutability":"view","type":"function"},{"inputs":[],"name":"getAuthorizer","outputs":[{"internalType":"contract IAuthorizer","name":"","type":"address"}],"stateMutability":"view","type":"function"},{"inputs":[],"name":"getFeeRecipient","outputs":[{"internalType":"address","name":"","type":"address"}],"stateMutability":"view","type":"function"},{"inputs":[],"name":"getProtocolFeeBurner","outputs":[{"internalType":"contract IProtocolFeeBurner","name":"","type":"address"}],"stateMutability":"view","type":"function"},{"inputs":[],"name":"getProtocolFeeController","outputs":[{"internalType":"contract IProtocolFeeController","name":"","type":"address"}],"stateMutability":"view","type":"function"},{"inputs":[],"name":"getTargetToken","outputs":[{"internalType":"contract IERC20","name":"","type":"address"}],"stateMutability":"view","type":"function"},{"inputs":[],"name":"getVault","outputs":[{"internalType":"contract IVault","name":"","type":"address"}],"stateMutability":"view","type":"function"},{"inputs":[{"internalType":"contract IERC20[]","name":"feeTokens","type":"address[]"}],"name":"recoverProtocolFees","outputs":[],"stateMutability":"nonpayable","type":"function"},{"inputs":[{"internalType":"address","name":"feeRecipient","type":"address"}],"name":"setFeeRecipient","outputs":[],"stateMutability":"nonpayable","type":"function"},{"inputs":[{"internalType":"contract IProtocolFeeBurner","name":"protocolFeeBurner","type":"address"}],"name":"setProtocolFeeBurner","outputs":[],"stateMutability":"nonpayable","type":"function"},{"inputs":[{"internalType":"contract IERC20","name":"targetToken","type":"address"}],"name":"setTargetToken","outputs":[],"stateMutability":"nonpayable","type":"function"},{"inputs":[{"internalType":"address","name":"pool","type":"address"}],"name":"sweepProtocolFees","outputs":[],"stateMutability":"nonpayable","type":"function"},{"inputs":[{"internalType":"address","name":"pool","type":"address"},{"internalType":"contract IERC20","name":"feeToken","type":"address"}],"name":"sweepProtocolFeesForToken","outputs":[],"stateMutability":"nonpayable","type":"function"},{"stateMutability":"payable","type":"receive"}],"evm":{"bytecode":{"linkReferences":{},"object":"60c0346100e857601f61157b38819003918201601f19168301916001600160401b038311848410176100ec5780849260409485528339810103126100e85780516001600160a01b039182821682036100e857602001519182168092036100e8573060805260a05280156100d957600180546001600160a01b03191682179055604051907fbf9a9534339a9d6b81696e05dcfb614b7dc518a31d48be3cfb757988381fb3235f80a261147a9081610101823960805181610d71015260a0518181816106d40152818161083701528181610dff0152610ebb0152f35b630ed1b8b360e31b5f5260045ffd5b5f80fd5b634e487b7160e01b5f52604160045260245ffdfe604060808152600490813610156100a0575b361561007957346100795790602060649251917f08c379a0000000000000000000000000000000000000000000000000000000008352820152600f60248201527f4e6f7420696d706c656d656e74656400000000000000000000000000000000006044820152fd5b507ff2238896000000000000000000000000000000000000000000000000000000005f525ffd5b5f5f3560e01c80631b66cb0014610bc35780634ccb20c014610b8f57806355f9051014610b5b5780635884e804146107b157806380db0d511461077e578063851c1bb31461072a57806385f2dbd4146106f85780638d928af8146106a7578063aaabadc51461066d578063b0edcc531461047e578063c414dbd414610280578063e651a319146101f55763e74b981b1461013a5750610011565b82346101f15760206003193601126101f15773ffffffffffffffffffffffffffffffffffffffff610169610c48565b610171610ef0565b169081156101cb5750807fffffffffffffffffffffffff000000000000000000000000000000000000000060015416176001557fbf9a9534339a9d6b81696e05dcfb614b7dc518a31d48be3cfb757988381fb3238280a280f35b827f768dc598000000000000000000000000000000000000000000000000000000008152fd5b5080fd5b5082346101f15760206003193601126101f1573573ffffffffffffffffffffffffffffffffffffffff81168091036101f15761022f610ef0565b807fffffffffffffffffffffffff000000000000000000000000000000000000000060025416176002557f6dd63e026b620e01b87e78897f638f7a04877f832707e6a0ee9818ac02d51b518280a280f35b5091903461044757806003193601126104475761029b610c48565b60243573ffffffffffffffffffffffffffffffffffffffff9283821680830361040c576102c6610fe9565b6102ce610ef0565b6102d661103e565b948251967f70a082310000000000000000000000000000000000000000000000000000000080895230828a015289602093848b602481895afa9a8b1561043d57829b61044b575b5080610327610dbc565b1690813b1561044757829060648b838b5195869485937fb53a70b2000000000000000000000000000000000000000000000000000000008552168a8401523060248401528b60448401525af1801561043d57908594939291610420575b505060249086519586938492835230908301525afa928315610417575087926103e3575b50506103bd946103b7916110e3565b9161111d565b807f9b779b17422d0df92223018b32b4d1fa46e071723d6817e2486d003becc55f005d80f35b90809250813d8311610410575b6103fa8183610cac565b8101031261040c5751846103b76103a8565b5f80fd5b503d6103f0565b513d89823e3d90fd5b61042c91929450610c6b565b6104395782918a5f610384565b8980fd5b87513d84823e3d90fd5b8280fd5b8580929c508193503d8311610477575b6104658183610cac565b8101031261040c578a9051995f61031d565b503d61045b565b5082346101f157602090816003193601126104475780359367ffffffffffffffff851161066957366023860112156106695784820135946024906104c187610ced565b966104ce84519889610cac565b80885260248689019160051b8301019136831161066557602401905b828210610639575050506104fc610fe9565b73ffffffffffffffffffffffffffffffffffffffff9360019480600154163303610612578697865b610550575b88807f9b779b17422d0df92223018b32b4d1fa46e071723d6817e2486d003becc55f005d80f35b805188101561060d57816105648983610d05565b5116978551987f70a08231000000000000000000000000000000000000000000000000000000008a5230888b0152848a8781845afa801561060357899a8c916105ce575b5090818a93926105bc575b50500197610524565b6105c79133906111f8565b8b806105b3565b8093929a50868092503d83116105fc575b6105e98183610cac565b8101031261040c579051899890896105a8565b503d6105df565b87513d8d823e3d90fd5b610529565b84877f23dada53000000000000000000000000000000000000000000000000000000008152fd5b813573ffffffffffffffffffffffffffffffffffffffff8116810361040c5781529086019086016104ea565b8780fd5b8380fd5b5090346101f157816003193601126101f15760209073ffffffffffffffffffffffffffffffffffffffff61069f610e78565b915191168152f35b5090346101f157816003193601126101f1576020905173ffffffffffffffffffffffffffffffffffffffff7f0000000000000000000000000000000000000000000000000000000000000000168152f35b5090346101f157816003193601126101f15760209073ffffffffffffffffffffffffffffffffffffffff61069f610dbc565b5091346104475760206003193601126104475735917fffffffff000000000000000000000000000000000000000000000000000000008316830361077b5750610774602092610d46565b9051908152f35b80fd5b5090346101f157816003193601126101f15773ffffffffffffffffffffffffffffffffffffffff60209254169051908152f35b50903461040c576020928360031936011261040c576107ce610c48565b916107d7610fe9565b6107df610ef0565b6107e761103e565b9473ffffffffffffffffffffffffffffffffffffffff918051917fca4f280300000000000000000000000000000000000000000000000000000000835283861691828685015260245f85602481897f0000000000000000000000000000000000000000000000000000000000000000165afa948515610b51575f95610aba575b5084519261087484611094565b945f5b858110610a1f575087610888610dbc565b1690813b1561040c575f9060448b83885195869485937fcf7b287f0000000000000000000000000000000000000000000000000000000085528401523060248401525af18015610a1557610a02575b506108e184611094565b978a5b8581106109505750505050505050845b81518110156109295780610923888561090f60019587610d05565b511661091b8489610d05565b51908961111d565b016108f4565b85807f9b779b17422d0df92223018b32b4d1fa46e071723d6817e2486d003becc55f005d80f35b80838a61095e87948c610d05565b51168751938480927f70a0823100000000000000000000000000000000000000000000000000000000825230888301525afa9182156109f8578d926109c7575b506109b66001926109af838b610d05565b51906110e3565b6109c0828d610d05565b52016108e4565b91508382813d83116109f1575b6109de8183610cac565b8101031261040c579051906109b661099e565b503d6109d4565b86513d8f823e3d90fd5b610a0d919a50610c6b565b5f985f6108d7565b84513d5f823e3d90fd5b88610a2a828a610d05565b511690838b868851809581937f70a0823100000000000000000000000000000000000000000000000000000000835230908301525afa8015610ab0575f90610a82575b60019250610a7b828a610d05565b5201610877565b508382813d8311610aa9575b610a988183610cac565b8101031261040c5760019151610a6d565b503d610a8e565b86513d5f823e3d90fd5b9094503d805f833e610acc8183610cac565b810190838183031261040c5780519067ffffffffffffffff821161040c57019080601f8301121561040c578151610b0281610ced565b92610b0f85519485610cac565b818452858085019260051b82010192831161040c578501905b828210610b3957505050935f610867565b8151898116810361040c578152908501908501610b28565b82513d5f823e3d90fd5b823461040c575f60031936011261040c5760209073ffffffffffffffffffffffffffffffffffffffff600254169051908152f35b823461040c575f60031936011261040c5760209073ffffffffffffffffffffffffffffffffffffffff600154169051908152f35b3461040c57602060031936011261040c5773ffffffffffffffffffffffffffffffffffffffff610bf1610c48565b610bf9610ef0565b16807fffffffffffffffffffffffff00000000000000000000000000000000000000005f5416175f557f873950c2ac59c570001b99d815ffb260542df229d07132922e2e6f9941fd3da65f80a2005b6004359073ffffffffffffffffffffffffffffffffffffffff8216820361040c57565b67ffffffffffffffff8111610c7f57604052565b7f4e487b71000000000000000000000000000000000000000000000000000000005f52604160045260245ffd5b90601f7fffffffffffffffffffffffffffffffffffffffffffffffffffffffffffffffe0910116810190811067ffffffffffffffff821117610c7f57604052565b67ffffffffffffffff8111610c7f5760051b60200190565b8051821015610d195760209160051b010190565b7f4e487b71000000000000000000000000000000000000000000000000000000005f52603260045260245ffd5b6040517fffffffff0000000000000000000000000000000000000000000000000000000060208201927f00000000000000000000000000000000000000000000000000000000000000008452166040820152602481526060810181811067ffffffffffffffff821117610c7f5760405251902090565b6040517f85f2dbd400000000000000000000000000000000000000000000000000000000815273ffffffffffffffffffffffffffffffffffffffff6020826004817f000000000000000000000000000000000000000000000000000000000000000085165afa918215610e6d575f92610e3457505090565b9091506020813d602011610e65575b81610e5060209383610cac565b8101031261040c5751908116810361040c5790565b3d9150610e43565b6040513d5f823e3d90fd5b6040517faaabadc500000000000000000000000000000000000000000000000000000000815273ffffffffffffffffffffffffffffffffffffffff6020826004817f000000000000000000000000000000000000000000000000000000000000000085165afa918215610e6d575f92610e3457505090565b610f1c7fffffffff000000000000000000000000000000000000000000000000000000005f3516610d46565b602073ffffffffffffffffffffffffffffffffffffffff610f3b610e78565b16916064604051809481937f9be2a88400000000000000000000000000000000000000000000000000000000835260048301523360248301523060448301525afa908115610e6d575f91610fba575b5015610f9257565b7f23dada53000000000000000000000000000000000000000000000000000000005f5260045ffd5b610fdc915060203d602011610fe2575b610fd48183610cac565b810190611335565b5f610f8a565b503d610fca565b7f9b779b17422d0df92223018b32b4d1fa46e071723d6817e2486d003becc55f00805c611016576001905d565b7f3ee5aeb5000000000000000000000000000000000000000000000000000000005f5260045ffd5b73ffffffffffffffffffffffffffffffffffffffff90816002541691826110625750565b5f54161561106c57565b7f8562eb45000000000000000000000000000000000000000000000000000000005f5260045ffd5b9061109e82610ced565b6110ab6040519182610cac565b8281527fffffffffffffffffffffffffffffffffffffffffffffffffffffffffffffffe06110d98294610ced565b0190602036910137565b919082039182116110f057565b7f4e487b71000000000000000000000000000000000000000000000000000000005f52601160045260245ffd5b82156111f25773ffffffffffffffffffffffffffffffffffffffff9384168061114d575061114b935061134d565b565b5f548386169590811686810361116a5750505061114b935061134d565b9291949093818661117a926111f8565b836001541694803b1561040c575f9560a4948793604051998a9889977f54caad0000000000000000000000000000000000000000000000000000000000895216600488015260248701526044860152606485015260848401525af18015610e6d576111e3575b50565b6111ec90610c6b565b5f6111e0565b50505050565b6040519260208401907fa9059cbb00000000000000000000000000000000000000000000000000000000825273ffffffffffffffffffffffffffffffffffffffff8094166024860152604485015260448452608084019067ffffffffffffffff9385831085841117610c7f575f9384936040521694519082865af1903d15611328573d908111610c7f576112cc91604051916112bc60207fffffffffffffffffffffffffffffffffffffffffffffffffffffffffffffffe0601f8401160184610cac565b82523d5f602084013e5b836113ab565b805190811515918261130d575b50506112e25750565b7f5274afe7000000000000000000000000000000000000000000000000000000005f5260045260245ffd5b6113209250602080918301019101611335565b155f806112d9565b506112cc906060906112c6565b9081602091031261040c5751801515810361040c5790565b919060407fd6b9382ec1786c32610e376e8ee8f2f16abeda4ace3b6276ac958193c75bbbc89173ffffffffffffffffffffffffffffffffffffffff8091816001541661139a8782846111f8565b8451968752602087015216941692a3565b906113e857508051156113c057805190602001fd5b7f1425ea42000000000000000000000000000000000000000000000000000000005f5260045ffd5b8151158061143b575b6113f9575090565b73ffffffffffffffffffffffffffffffffffffffff907f9996b315000000000000000000000000000000000000000000000000000000005f521660045260245ffd5b50803b156113f156fea264697066735822122035c9f746fc0206fac020a4aebffe3697900b67d7e803702d23e31c0d159a806664736f6c634300081b0033","opcodes":"PUSH1 0xC0 CALLVALUE PUSH2 0xE8 JUMPI PUSH1 0x1F PUSH2 0x157B CODESIZE DUP2 SWAP1 SUB SWAP2 DUP3 ADD PUSH1 0x1F NOT AND DUP4 ADD SWAP2 PUSH1 0x1 PUSH1 0x1 PUSH1 0x40 SHL SUB DUP4 GT DUP5 DUP5 LT OR PUSH2 0xEC JUMPI DUP1 DUP5 SWAP3 PUSH1 0x40 SWAP5 DUP6 MSTORE DUP4 CODECOPY DUP2 ADD SUB SLT PUSH2 0xE8 JUMPI DUP1 MLOAD PUSH1 0x1 PUSH1 0x1 PUSH1 0xA0 SHL SUB SWAP2 DUP3 DUP3 AND DUP3 SUB PUSH2 0xE8 JUMPI PUSH1 0x20 ADD MLOAD SWAP2 DUP3 AND DUP1 SWAP3 SUB PUSH2 0xE8 JUMPI ADDRESS PUSH1 0x80 MSTORE PUSH1 0xA0 MSTORE DUP1 ISZERO PUSH2 0xD9 JUMPI PUSH1 0x1 DUP1 SLOAD PUSH1 0x1 PUSH1 0x1 PUSH1 0xA0 SHL SUB NOT AND DUP3 OR SWAP1 SSTORE PUSH1 0x40 MLOAD SWAP1 PUSH32 0xBF9A9534339A9D6B81696E05DCFB614B7DC518A31D48BE3CFB757988381FB323 PUSH0 DUP1 LOG2 PUSH2 0x147A SWAP1 DUP2 PUSH2 0x101 DUP3 CODECOPY PUSH1 0x80 MLOAD DUP2 PUSH2 0xD71 ADD MSTORE PUSH1 0xA0 MLOAD DUP2 DUP2 DUP2 PUSH2 0x6D4 ADD MSTORE DUP2 DUP2 PUSH2 0x837 ADD MSTORE DUP2 DUP2 PUSH2 0xDFF ADD MSTORE PUSH2 0xEBB ADD MSTORE RETURN JUMPDEST PUSH4 0xED1B8B3 PUSH1 0xE3 SHL PUSH0 MSTORE PUSH1 0x4 PUSH0 REVERT JUMPDEST PUSH0 DUP1 REVERT JUMPDEST PUSH4 0x4E487B71 PUSH1 0xE0 SHL PUSH0 MSTORE PUSH1 0x41 PUSH1 0x4 MSTORE PUSH1 0x24 PUSH0 REVERT INVALID PUSH1 0x40 PUSH1 0x80 DUP2 MSTORE PUSH1 0x4 SWAP1 DUP2 CALLDATASIZE LT ISZERO PUSH2 0xA0 JUMPI JUMPDEST CALLDATASIZE ISZERO PUSH2 0x79 JUMPI CALLVALUE PUSH2 0x79 JUMPI SWAP1 PUSH1 0x20 PUSH1 0x64 SWAP3 MLOAD SWAP2 PUSH32 0x8C379A000000000000000000000000000000000000000000000000000000000 DUP4 MSTORE DUP3 ADD MSTORE PUSH1 0xF PUSH1 0x24 DUP3 ADD MSTORE PUSH32 0x4E6F7420696D706C656D656E7465640000000000000000000000000000000000 PUSH1 0x44 DUP3 ADD MSTORE REVERT JUMPDEST POP PUSH32 0xF223889600000000000000000000000000000000000000000000000000000000 PUSH0 MSTORE PUSH0 REVERT JUMPDEST PUSH0 PUSH0 CALLDATALOAD PUSH1 0xE0 SHR DUP1 PUSH4 0x1B66CB00 EQ PUSH2 0xBC3 JUMPI DUP1 PUSH4 0x4CCB20C0 EQ PUSH2 0xB8F JUMPI DUP1 PUSH4 0x55F90510 EQ PUSH2 0xB5B JUMPI DUP1 PUSH4 0x5884E804 EQ PUSH2 0x7B1 JUMPI DUP1 PUSH4 0x80DB0D51 EQ PUSH2 0x77E JUMPI DUP1 PUSH4 0x851C1BB3 EQ PUSH2 0x72A JUMPI DUP1 PUSH4 0x85F2DBD4 EQ PUSH2 0x6F8 JUMPI DUP1 PUSH4 0x8D928AF8 EQ PUSH2 0x6A7 JUMPI DUP1 PUSH4 0xAAABADC5 EQ PUSH2 0x66D JUMPI DUP1 PUSH4 0xB0EDCC53 EQ PUSH2 0x47E JUMPI DUP1 PUSH4 0xC414DBD4 EQ PUSH2 0x280 JUMPI DUP1 PUSH4 0xE651A319 EQ PUSH2 0x1F5 JUMPI PUSH4 0xE74B981B EQ PUSH2 0x13A JUMPI POP PUSH2 0x11 JUMP JUMPDEST DUP3 CALLVALUE PUSH2 0x1F1 JUMPI PUSH1 0x20 PUSH1 0x3 NOT CALLDATASIZE ADD SLT PUSH2 0x1F1 JUMPI PUSH20 0xFFFFFFFFFFFFFFFFFFFFFFFFFFFFFFFFFFFFFFFF PUSH2 0x169 PUSH2 0xC48 JUMP JUMPDEST PUSH2 0x171 PUSH2 0xEF0 JUMP JUMPDEST AND SWAP1 DUP2 ISZERO PUSH2 0x1CB JUMPI POP DUP1 PUSH32 0xFFFFFFFFFFFFFFFFFFFFFFFF0000000000000000000000000000000000000000 PUSH1 0x1 SLOAD AND OR PUSH1 0x1 SSTORE PUSH32 0xBF9A9534339A9D6B81696E05DCFB614B7DC518A31D48BE3CFB757988381FB323 DUP3 DUP1 LOG2 DUP1 RETURN JUMPDEST DUP3 PUSH32 0x768DC59800000000000000000000000000000000000000000000000000000000 DUP2 MSTORE REVERT JUMPDEST POP DUP1 REVERT JUMPDEST POP DUP3 CALLVALUE PUSH2 0x1F1 JUMPI PUSH1 0x20 PUSH1 0x3 NOT CALLDATASIZE ADD SLT PUSH2 0x1F1 JUMPI CALLDATALOAD PUSH20 0xFFFFFFFFFFFFFFFFFFFFFFFFFFFFFFFFFFFFFFFF DUP2 AND DUP1 SWAP2 SUB PUSH2 0x1F1 JUMPI PUSH2 0x22F PUSH2 0xEF0 JUMP JUMPDEST DUP1 PUSH32 0xFFFFFFFFFFFFFFFFFFFFFFFF0000000000000000000000000000000000000000 PUSH1 0x2 SLOAD AND OR PUSH1 0x2 SSTORE PUSH32 0x6DD63E026B620E01B87E78897F638F7A04877F832707E6A0EE9818AC02D51B51 DUP3 DUP1 LOG2 DUP1 RETURN JUMPDEST POP SWAP2 SWAP1 CALLVALUE PUSH2 0x447 JUMPI DUP1 PUSH1 0x3 NOT CALLDATASIZE ADD SLT PUSH2 0x447 JUMPI PUSH2 0x29B PUSH2 0xC48 JUMP JUMPDEST PUSH1 0x24 CALLDATALOAD PUSH20 0xFFFFFFFFFFFFFFFFFFFFFFFFFFFFFFFFFFFFFFFF SWAP3 DUP4 DUP3 AND DUP1 DUP4 SUB PUSH2 0x40C JUMPI PUSH2 0x2C6 PUSH2 0xFE9 JUMP JUMPDEST PUSH2 0x2CE PUSH2 0xEF0 JUMP JUMPDEST PUSH2 0x2D6 PUSH2 0x103E JUMP JUMPDEST SWAP5 DUP3 MLOAD SWAP7 PUSH32 0x70A0823100000000000000000000000000000000000000000000000000000000 DUP1 DUP10 MSTORE ADDRESS DUP3 DUP11 ADD MSTORE DUP10 PUSH1 0x20 SWAP4 DUP5 DUP12 PUSH1 0x24 DUP2 DUP10 GAS STATICCALL SWAP11 DUP12 ISZERO PUSH2 0x43D JUMPI DUP3 SWAP12 PUSH2 0x44B JUMPI JUMPDEST POP DUP1 PUSH2 0x327 PUSH2 0xDBC JUMP JUMPDEST AND SWAP1 DUP2 EXTCODESIZE ISZERO PUSH2 0x447 JUMPI DUP3 SWAP1 PUSH1 0x64 DUP12 DUP4 DUP12 MLOAD SWAP6 DUP7 SWAP5 DUP6 SWAP4 PUSH32 0xB53A70B200000000000000000000000000000000000000000000000000000000 DUP6 MSTORE AND DUP11 DUP5 ADD MSTORE ADDRESS PUSH1 0x24 DUP5 ADD MSTORE DUP12 PUSH1 0x44 DUP5 ADD MSTORE GAS CALL DUP1 ISZERO PUSH2 0x43D JUMPI SWAP1 DUP6 SWAP5 SWAP4 SWAP3 SWAP2 PUSH2 0x420 JUMPI JUMPDEST POP POP PUSH1 0x24 SWAP1 DUP7 MLOAD SWAP6 DUP7 SWAP4 DUP5 SWAP3 DUP4 MSTORE ADDRESS SWAP1 DUP4 ADD MSTORE GAS STATICCALL SWAP3 DUP4 ISZERO PUSH2 0x417 JUMPI POP DUP8 SWAP3 PUSH2 0x3E3 JUMPI JUMPDEST POP POP PUSH2 0x3BD SWAP5 PUSH2 0x3B7 SWAP2 PUSH2 0x10E3 JUMP JUMPDEST SWAP2 PUSH2 0x111D JUMP JUMPDEST DUP1 PUSH32 0x9B779B17422D0DF92223018B32B4D1FA46E071723D6817E2486D003BECC55F00 TSTORE DUP1 RETURN JUMPDEST SWAP1 DUP1 SWAP3 POP DUP2 RETURNDATASIZE DUP4 GT PUSH2 0x410 JUMPI JUMPDEST PUSH2 0x3FA DUP2 DUP4 PUSH2 0xCAC JUMP JUMPDEST DUP2 ADD SUB SLT PUSH2 0x40C JUMPI MLOAD DUP5 PUSH2 0x3B7 PUSH2 0x3A8 JUMP JUMPDEST PUSH0 DUP1 REVERT JUMPDEST POP RETURNDATASIZE PUSH2 0x3F0 JUMP JUMPDEST MLOAD RETURNDATASIZE DUP10 DUP3 RETURNDATACOPY RETURNDATASIZE SWAP1 REVERT JUMPDEST PUSH2 0x42C SWAP2 SWAP3 SWAP5 POP PUSH2 0xC6B JUMP JUMPDEST PUSH2 0x439 JUMPI DUP3 SWAP2 DUP11 PUSH0 PUSH2 0x384 JUMP JUMPDEST DUP10 DUP1 REVERT JUMPDEST DUP8 MLOAD RETURNDATASIZE DUP5 DUP3 RETURNDATACOPY RETURNDATASIZE SWAP1 REVERT JUMPDEST DUP3 DUP1 REVERT JUMPDEST DUP6 DUP1 SWAP3 SWAP13 POP DUP2 SWAP4 POP RETURNDATASIZE DUP4 GT PUSH2 0x477 JUMPI JUMPDEST PUSH2 0x465 DUP2 DUP4 PUSH2 0xCAC JUMP JUMPDEST DUP2 ADD SUB SLT PUSH2 0x40C JUMPI DUP11 SWAP1 MLOAD SWAP10 PUSH0 PUSH2 0x31D JUMP JUMPDEST POP RETURNDATASIZE PUSH2 0x45B JUMP JUMPDEST POP DUP3 CALLVALUE PUSH2 0x1F1 JUMPI PUSH1 0x20 SWAP1 DUP2 PUSH1 0x3 NOT CALLDATASIZE ADD SLT PUSH2 0x447 JUMPI DUP1 CALLDATALOAD SWAP4 PUSH8 0xFFFFFFFFFFFFFFFF DUP6 GT PUSH2 0x669 JUMPI CALLDATASIZE PUSH1 0x23 DUP7 ADD SLT ISZERO PUSH2 0x669 JUMPI DUP5 DUP3 ADD CALLDATALOAD SWAP5 PUSH1 0x24 SWAP1 PUSH2 0x4C1 DUP8 PUSH2 0xCED JUMP JUMPDEST SWAP7 PUSH2 0x4CE DUP5 MLOAD SWAP9 DUP10 PUSH2 0xCAC JUMP JUMPDEST DUP1 DUP9 MSTORE PUSH1 0x24 DUP7 DUP10 ADD SWAP2 PUSH1 0x5 SHL DUP4 ADD ADD SWAP2 CALLDATASIZE DUP4 GT PUSH2 0x665 JUMPI PUSH1 0x24 ADD SWAP1 JUMPDEST DUP3 DUP3 LT PUSH2 0x639 JUMPI POP POP POP PUSH2 0x4FC PUSH2 0xFE9 JUMP JUMPDEST PUSH20 0xFFFFFFFFFFFFFFFFFFFFFFFFFFFFFFFFFFFFFFFF SWAP4 PUSH1 0x1 SWAP5 DUP1 PUSH1 0x1 SLOAD AND CALLER SUB PUSH2 0x612 JUMPI DUP7 SWAP8 DUP7 JUMPDEST PUSH2 0x550 JUMPI JUMPDEST DUP9 DUP1 PUSH32 0x9B779B17422D0DF92223018B32B4D1FA46E071723D6817E2486D003BECC55F00 TSTORE DUP1 RETURN JUMPDEST DUP1 MLOAD DUP9 LT ISZERO PUSH2 0x60D JUMPI DUP2 PUSH2 0x564 DUP10 DUP4 PUSH2 0xD05 JUMP JUMPDEST MLOAD AND SWAP8 DUP6 MLOAD SWAP9 PUSH32 0x70A0823100000000000000000000000000000000000000000000000000000000 DUP11 MSTORE ADDRESS DUP9 DUP12 ADD MSTORE DUP5 DUP11 DUP8 DUP2 DUP5 GAS STATICCALL DUP1 ISZERO PUSH2 0x603 JUMPI DUP10 SWAP11 DUP13 SWAP2 PUSH2 0x5CE JUMPI JUMPDEST POP SWAP1 DUP2 DUP11 SWAP4 SWAP3 PUSH2 0x5BC JUMPI JUMPDEST POP POP ADD SWAP8 PUSH2 0x524 JUMP JUMPDEST PUSH2 0x5C7 SWAP2 CALLER SWAP1 PUSH2 0x11F8 JUMP JUMPDEST DUP12 DUP1 PUSH2 0x5B3 JUMP JUMPDEST DUP1 SWAP4 SWAP3 SWAP11 POP DUP7 DUP1 SWAP3 POP RETURNDATASIZE DUP4 GT PUSH2 0x5FC JUMPI JUMPDEST PUSH2 0x5E9 DUP2 DUP4 PUSH2 0xCAC JUMP JUMPDEST DUP2 ADD SUB SLT PUSH2 0x40C JUMPI SWAP1 MLOAD DUP10 SWAP9 SWAP1 DUP10 PUSH2 0x5A8 JUMP JUMPDEST POP RETURNDATASIZE PUSH2 0x5DF JUMP JUMPDEST DUP8 MLOAD RETURNDATASIZE DUP14 DUP3 RETURNDATACOPY RETURNDATASIZE SWAP1 REVERT JUMPDEST PUSH2 0x529 JUMP JUMPDEST DUP5 DUP8 PUSH32 0x23DADA5300000000000000000000000000000000000000000000000000000000 DUP2 MSTORE REVERT JUMPDEST DUP2 CALLDATALOAD PUSH20 0xFFFFFFFFFFFFFFFFFFFFFFFFFFFFFFFFFFFFFFFF DUP2 AND DUP2 SUB PUSH2 0x40C JUMPI DUP2 MSTORE SWAP1 DUP7 ADD SWAP1 DUP7 ADD PUSH2 0x4EA JUMP JUMPDEST DUP8 DUP1 REVERT JUMPDEST DUP4 DUP1 REVERT JUMPDEST POP SWAP1 CALLVALUE PUSH2 0x1F1 JUMPI DUP2 PUSH1 0x3 NOT CALLDATASIZE ADD SLT PUSH2 0x1F1 JUMPI PUSH1 0x20 SWAP1 PUSH20 0xFFFFFFFFFFFFFFFFFFFFFFFFFFFFFFFFFFFFFFFF PUSH2 0x69F PUSH2 0xE78 JUMP JUMPDEST SWAP2 MLOAD SWAP2 AND DUP2 MSTORE RETURN JUMPDEST POP SWAP1 CALLVALUE PUSH2 0x1F1 JUMPI DUP2 PUSH1 0x3 NOT CALLDATASIZE ADD SLT PUSH2 0x1F1 JUMPI PUSH1 0x20 SWAP1 MLOAD PUSH20 0xFFFFFFFFFFFFFFFFFFFFFFFFFFFFFFFFFFFFFFFF PUSH32 0x0 AND DUP2 MSTORE RETURN JUMPDEST POP SWAP1 CALLVALUE PUSH2 0x1F1 JUMPI DUP2 PUSH1 0x3 NOT CALLDATASIZE ADD SLT PUSH2 0x1F1 JUMPI PUSH1 0x20 SWAP1 PUSH20 0xFFFFFFFFFFFFFFFFFFFFFFFFFFFFFFFFFFFFFFFF PUSH2 0x69F PUSH2 0xDBC JUMP JUMPDEST POP SWAP2 CALLVALUE PUSH2 0x447 JUMPI PUSH1 0x20 PUSH1 0x3 NOT CALLDATASIZE ADD SLT PUSH2 0x447 JUMPI CALLDATALOAD SWAP2 PUSH32 0xFFFFFFFF00000000000000000000000000000000000000000000000000000000 DUP4 AND DUP4 SUB PUSH2 0x77B JUMPI POP PUSH2 0x774 PUSH1 0x20 SWAP3 PUSH2 0xD46 JUMP JUMPDEST SWAP1 MLOAD SWAP1 DUP2 MSTORE RETURN JUMPDEST DUP1 REVERT JUMPDEST POP SWAP1 CALLVALUE PUSH2 0x1F1 JUMPI DUP2 PUSH1 0x3 NOT CALLDATASIZE ADD SLT PUSH2 0x1F1 JUMPI PUSH20 0xFFFFFFFFFFFFFFFFFFFFFFFFFFFFFFFFFFFFFFFF PUSH1 0x20 SWAP3 SLOAD AND SWAP1 MLOAD SWAP1 DUP2 MSTORE RETURN JUMPDEST POP SWAP1 CALLVALUE PUSH2 0x40C JUMPI PUSH1 0x20 SWAP3 DUP4 PUSH1 0x3 NOT CALLDATASIZE ADD SLT PUSH2 0x40C JUMPI PUSH2 0x7CE PUSH2 0xC48 JUMP JUMPDEST SWAP2 PUSH2 0x7D7 PUSH2 0xFE9 JUMP JUMPDEST PUSH2 0x7DF PUSH2 0xEF0 JUMP JUMPDEST PUSH2 0x7E7 PUSH2 0x103E JUMP JUMPDEST SWAP5 PUSH20 0xFFFFFFFFFFFFFFFFFFFFFFFFFFFFFFFFFFFFFFFF SWAP2 DUP1 MLOAD SWAP2 PUSH32 0xCA4F280300000000000000000000000000000000000000000000000000000000 DUP4 MSTORE DUP4 DUP7 AND SWAP2 DUP3 DUP7 DUP6 ADD MSTORE PUSH1 0x24 PUSH0 DUP6 PUSH1 0x24 DUP2 DUP10 PUSH32 0x0 AND GAS STATICCALL SWAP5 DUP6 ISZERO PUSH2 0xB51 JUMPI PUSH0 SWAP6 PUSH2 0xABA JUMPI JUMPDEST POP DUP5 MLOAD SWAP3 PUSH2 0x874 DUP5 PUSH2 0x1094 JUMP JUMPDEST SWAP5 PUSH0 JUMPDEST DUP6 DUP2 LT PUSH2 0xA1F JUMPI POP DUP8 PUSH2 0x888 PUSH2 0xDBC JUMP JUMPDEST AND SWAP1 DUP2 EXTCODESIZE ISZERO PUSH2 0x40C JUMPI PUSH0 SWAP1 PUSH1 0x44 DUP12 DUP4 DUP9 MLOAD SWAP6 DUP7 SWAP5 DUP6 SWAP4 PUSH32 0xCF7B287F00000000000000000000000000000000000000000000000000000000 DUP6 MSTORE DUP5 ADD MSTORE ADDRESS PUSH1 0x24 DUP5 ADD MSTORE GAS CALL DUP1 ISZERO PUSH2 0xA15 JUMPI PUSH2 0xA02 JUMPI JUMPDEST POP PUSH2 0x8E1 DUP5 PUSH2 0x1094 JUMP JUMPDEST SWAP8 DUP11 JUMPDEST DUP6 DUP2 LT PUSH2 0x950 JUMPI POP POP POP POP POP POP POP DUP5 JUMPDEST DUP2 MLOAD DUP2 LT ISZERO PUSH2 0x929 JUMPI DUP1 PUSH2 0x923 DUP9 DUP6 PUSH2 0x90F PUSH1 0x1 SWAP6 DUP8 PUSH2 0xD05 JUMP JUMPDEST MLOAD AND PUSH2 0x91B DUP5 DUP10 PUSH2 0xD05 JUMP JUMPDEST MLOAD SWAP1 DUP10 PUSH2 0x111D JUMP JUMPDEST ADD PUSH2 0x8F4 JUMP JUMPDEST DUP6 DUP1 PUSH32 0x9B779B17422D0DF92223018B32B4D1FA46E071723D6817E2486D003BECC55F00 TSTORE DUP1 RETURN JUMPDEST DUP1 DUP4 DUP11 PUSH2 0x95E DUP8 SWAP5 DUP13 PUSH2 0xD05 JUMP JUMPDEST MLOAD AND DUP8 MLOAD SWAP4 DUP5 DUP1 SWAP3 PUSH32 0x70A0823100000000000000000000000000000000000000000000000000000000 DUP3 MSTORE ADDRESS DUP9 DUP4 ADD MSTORE GAS STATICCALL SWAP2 DUP3 ISZERO PUSH2 0x9F8 JUMPI DUP14 SWAP3 PUSH2 0x9C7 JUMPI JUMPDEST POP PUSH2 0x9B6 PUSH1 0x1 SWAP3 PUSH2 0x9AF DUP4 DUP12 PUSH2 0xD05 JUMP JUMPDEST MLOAD SWAP1 PUSH2 0x10E3 JUMP JUMPDEST PUSH2 0x9C0 DUP3 DUP14 PUSH2 0xD05 JUMP JUMPDEST MSTORE ADD PUSH2 0x8E4 JUMP JUMPDEST SWAP2 POP DUP4 DUP3 DUP2 RETURNDATASIZE DUP4 GT PUSH2 0x9F1 JUMPI JUMPDEST PUSH2 0x9DE DUP2 DUP4 PUSH2 0xCAC JUMP JUMPDEST DUP2 ADD SUB SLT PUSH2 0x40C JUMPI SWAP1 MLOAD SWAP1 PUSH2 0x9B6 PUSH2 0x99E JUMP JUMPDEST POP RETURNDATASIZE PUSH2 0x9D4 JUMP JUMPDEST DUP7 MLOAD RETURNDATASIZE DUP16 DUP3 RETURNDATACOPY RETURNDATASIZE SWAP1 REVERT JUMPDEST PUSH2 0xA0D SWAP2 SWAP11 POP PUSH2 0xC6B JUMP JUMPDEST PUSH0 SWAP9 PUSH0 PUSH2 0x8D7 JUMP JUMPDEST DUP5 MLOAD RETURNDATASIZE PUSH0 DUP3 RETURNDATACOPY RETURNDATASIZE SWAP1 REVERT JUMPDEST DUP9 PUSH2 0xA2A DUP3 DUP11 PUSH2 0xD05 JUMP JUMPDEST MLOAD AND SWAP1 DUP4 DUP12 DUP7 DUP9 MLOAD DUP1 SWAP6 DUP2 SWAP4 PUSH32 0x70A0823100000000000000000000000000000000000000000000000000000000 DUP4 MSTORE ADDRESS SWAP1 DUP4 ADD MSTORE GAS STATICCALL DUP1 ISZERO PUSH2 0xAB0 JUMPI PUSH0 SWAP1 PUSH2 0xA82 JUMPI JUMPDEST PUSH1 0x1 SWAP3 POP PUSH2 0xA7B DUP3 DUP11 PUSH2 0xD05 JUMP JUMPDEST MSTORE ADD PUSH2 0x877 JUMP JUMPDEST POP DUP4 DUP3 DUP2 RETURNDATASIZE DUP4 GT PUSH2 0xAA9 JUMPI JUMPDEST PUSH2 0xA98 DUP2 DUP4 PUSH2 0xCAC JUMP JUMPDEST DUP2 ADD SUB SLT PUSH2 0x40C JUMPI PUSH1 0x1 SWAP2 MLOAD PUSH2 0xA6D JUMP JUMPDEST POP RETURNDATASIZE PUSH2 0xA8E JUMP JUMPDEST DUP7 MLOAD RETURNDATASIZE PUSH0 DUP3 RETURNDATACOPY RETURNDATASIZE SWAP1 REVERT JUMPDEST SWAP1 SWAP5 POP RETURNDATASIZE DUP1 PUSH0 DUP4 RETURNDATACOPY PUSH2 0xACC DUP2 DUP4 PUSH2 0xCAC JUMP JUMPDEST DUP2 ADD SWAP1 DUP4 DUP2 DUP4 SUB SLT PUSH2 0x40C JUMPI DUP1 MLOAD SWAP1 PUSH8 0xFFFFFFFFFFFFFFFF DUP3 GT PUSH2 0x40C JUMPI ADD SWAP1 DUP1 PUSH1 0x1F DUP4 ADD SLT ISZERO PUSH2 0x40C JUMPI DUP2 MLOAD PUSH2 0xB02 DUP2 PUSH2 0xCED JUMP JUMPDEST SWAP3 PUSH2 0xB0F DUP6 MLOAD SWAP5 DUP6 PUSH2 0xCAC JUMP JUMPDEST DUP2 DUP5 MSTORE DUP6 DUP1 DUP6 ADD SWAP3 PUSH1 0x5 SHL DUP3 ADD ADD SWAP3 DUP4 GT PUSH2 0x40C JUMPI DUP6 ADD SWAP1 JUMPDEST DUP3 DUP3 LT PUSH2 0xB39 JUMPI POP POP POP SWAP4 PUSH0 PUSH2 0x867 JUMP JUMPDEST DUP2 MLOAD DUP10 DUP2 AND DUP2 SUB PUSH2 0x40C JUMPI DUP2 MSTORE SWAP1 DUP6 ADD SWAP1 DUP6 ADD PUSH2 0xB28 JUMP JUMPDEST DUP3 MLOAD RETURNDATASIZE PUSH0 DUP3 RETURNDATACOPY RETURNDATASIZE SWAP1 REVERT JUMPDEST DUP3 CALLVALUE PUSH2 0x40C JUMPI PUSH0 PUSH1 0x3 NOT CALLDATASIZE ADD SLT PUSH2 0x40C JUMPI PUSH1 0x20 SWAP1 PUSH20 0xFFFFFFFFFFFFFFFFFFFFFFFFFFFFFFFFFFFFFFFF PUSH1 0x2 SLOAD AND SWAP1 MLOAD SWAP1 DUP2 MSTORE RETURN JUMPDEST DUP3 CALLVALUE PUSH2 0x40C JUMPI PUSH0 PUSH1 0x3 NOT CALLDATASIZE ADD SLT PUSH2 0x40C JUMPI PUSH1 0x20 SWAP1 PUSH20 0xFFFFFFFFFFFFFFFFFFFFFFFFFFFFFFFFFFFFFFFF PUSH1 0x1 SLOAD AND SWAP1 MLOAD SWAP1 DUP2 MSTORE RETURN JUMPDEST CALLVALUE PUSH2 0x40C JUMPI PUSH1 0x20 PUSH1 0x3 NOT CALLDATASIZE ADD SLT PUSH2 0x40C JUMPI PUSH20 0xFFFFFFFFFFFFFFFFFFFFFFFFFFFFFFFFFFFFFFFF PUSH2 0xBF1 PUSH2 0xC48 JUMP JUMPDEST PUSH2 0xBF9 PUSH2 0xEF0 JUMP JUMPDEST AND DUP1 PUSH32 0xFFFFFFFFFFFFFFFFFFFFFFFF0000000000000000000000000000000000000000 PUSH0 SLOAD AND OR PUSH0 SSTORE PUSH32 0x873950C2AC59C570001B99D815FFB260542DF229D07132922E2E6F9941FD3DA6 PUSH0 DUP1 LOG2 STOP JUMPDEST PUSH1 0x4 CALLDATALOAD SWAP1 PUSH20 0xFFFFFFFFFFFFFFFFFFFFFFFFFFFFFFFFFFFFFFFF DUP3 AND DUP3 SUB PUSH2 0x40C JUMPI JUMP JUMPDEST PUSH8 0xFFFFFFFFFFFFFFFF DUP2 GT PUSH2 0xC7F JUMPI PUSH1 0x40 MSTORE JUMP JUMPDEST PUSH32 0x4E487B7100000000000000000000000000000000000000000000000000000000 PUSH0 MSTORE PUSH1 0x41 PUSH1 0x4 MSTORE PUSH1 0x24 PUSH0 REVERT JUMPDEST SWAP1 PUSH1 0x1F PUSH32 0xFFFFFFFFFFFFFFFFFFFFFFFFFFFFFFFFFFFFFFFFFFFFFFFFFFFFFFFFFFFFFFE0 SWAP2 ADD AND DUP2 ADD SWAP1 DUP2 LT PUSH8 0xFFFFFFFFFFFFFFFF DUP3 GT OR PUSH2 0xC7F JUMPI PUSH1 0x40 MSTORE JUMP JUMPDEST PUSH8 0xFFFFFFFFFFFFFFFF DUP2 GT PUSH2 0xC7F JUMPI PUSH1 0x5 SHL PUSH1 0x20 ADD SWAP1 JUMP JUMPDEST DUP1 MLOAD DUP3 LT ISZERO PUSH2 0xD19 JUMPI PUSH1 0x20 SWAP2 PUSH1 0x5 SHL ADD ADD SWAP1 JUMP JUMPDEST PUSH32 0x4E487B7100000000000000000000000000000000000000000000000000000000 PUSH0 MSTORE PUSH1 0x32 PUSH1 0x4 MSTORE PUSH1 0x24 PUSH0 REVERT JUMPDEST PUSH1 0x40 MLOAD PUSH32 0xFFFFFFFF00000000000000000000000000000000000000000000000000000000 PUSH1 0x20 DUP3 ADD SWAP3 PUSH32 0x0 DUP5 MSTORE AND PUSH1 0x40 DUP3 ADD MSTORE PUSH1 0x24 DUP2 MSTORE PUSH1 0x60 DUP2 ADD DUP2 DUP2 LT PUSH8 0xFFFFFFFFFFFFFFFF DUP3 GT OR PUSH2 0xC7F JUMPI PUSH1 0x40 MSTORE MLOAD SWAP1 KECCAK256 SWAP1 JUMP JUMPDEST PUSH1 0x40 MLOAD PUSH32 0x85F2DBD400000000000000000000000000000000000000000000000000000000 DUP2 MSTORE PUSH20 0xFFFFFFFFFFFFFFFFFFFFFFFFFFFFFFFFFFFFFFFF PUSH1 0x20 DUP3 PUSH1 0x4 DUP2 PUSH32 0x0 DUP6 AND GAS STATICCALL SWAP2 DUP3 ISZERO PUSH2 0xE6D JUMPI PUSH0 SWAP3 PUSH2 0xE34 JUMPI POP POP SWAP1 JUMP JUMPDEST SWAP1 SWAP2 POP PUSH1 0x20 DUP2 RETURNDATASIZE PUSH1 0x20 GT PUSH2 0xE65 JUMPI JUMPDEST DUP2 PUSH2 0xE50 PUSH1 0x20 SWAP4 DUP4 PUSH2 0xCAC JUMP JUMPDEST DUP2 ADD SUB SLT PUSH2 0x40C JUMPI MLOAD SWAP1 DUP2 AND DUP2 SUB PUSH2 0x40C JUMPI SWAP1 JUMP JUMPDEST RETURNDATASIZE SWAP2 POP PUSH2 0xE43 JUMP JUMPDEST PUSH1 0x40 MLOAD RETURNDATASIZE PUSH0 DUP3 RETURNDATACOPY RETURNDATASIZE SWAP1 REVERT JUMPDEST PUSH1 0x40 MLOAD PUSH32 0xAAABADC500000000000000000000000000000000000000000000000000000000 DUP2 MSTORE PUSH20 0xFFFFFFFFFFFFFFFFFFFFFFFFFFFFFFFFFFFFFFFF PUSH1 0x20 DUP3 PUSH1 0x4 DUP2 PUSH32 0x0 DUP6 AND GAS STATICCALL SWAP2 DUP3 ISZERO PUSH2 0xE6D JUMPI PUSH0 SWAP3 PUSH2 0xE34 JUMPI POP POP SWAP1 JUMP JUMPDEST PUSH2 0xF1C PUSH32 0xFFFFFFFF00000000000000000000000000000000000000000000000000000000 PUSH0 CALLDATALOAD AND PUSH2 0xD46 JUMP JUMPDEST PUSH1 0x20 PUSH20 0xFFFFFFFFFFFFFFFFFFFFFFFFFFFFFFFFFFFFFFFF PUSH2 0xF3B PUSH2 0xE78 JUMP JUMPDEST AND SWAP2 PUSH1 0x64 PUSH1 0x40 MLOAD DUP1 SWAP5 DUP2 SWAP4 PUSH32 0x9BE2A88400000000000000000000000000000000000000000000000000000000 DUP4 MSTORE PUSH1 0x4 DUP4 ADD MSTORE CALLER PUSH1 0x24 DUP4 ADD MSTORE ADDRESS PUSH1 0x44 DUP4 ADD MSTORE GAS STATICCALL SWAP1 DUP2 ISZERO PUSH2 0xE6D JUMPI PUSH0 SWAP2 PUSH2 0xFBA JUMPI JUMPDEST POP ISZERO PUSH2 0xF92 JUMPI JUMP JUMPDEST PUSH32 0x23DADA5300000000000000000000000000000000000000000000000000000000 PUSH0 MSTORE PUSH1 0x4 PUSH0 REVERT JUMPDEST PUSH2 0xFDC SWAP2 POP PUSH1 0x20 RETURNDATASIZE PUSH1 0x20 GT PUSH2 0xFE2 JUMPI JUMPDEST PUSH2 0xFD4 DUP2 DUP4 PUSH2 0xCAC JUMP JUMPDEST DUP2 ADD SWAP1 PUSH2 0x1335 JUMP JUMPDEST PUSH0 PUSH2 0xF8A JUMP JUMPDEST POP RETURNDATASIZE PUSH2 0xFCA JUMP JUMPDEST PUSH32 0x9B779B17422D0DF92223018B32B4D1FA46E071723D6817E2486D003BECC55F00 DUP1 TLOAD PUSH2 0x1016 JUMPI PUSH1 0x1 SWAP1 TSTORE JUMP JUMPDEST PUSH32 0x3EE5AEB500000000000000000000000000000000000000000000000000000000 PUSH0 MSTORE PUSH1 0x4 PUSH0 REVERT JUMPDEST PUSH20 0xFFFFFFFFFFFFFFFFFFFFFFFFFFFFFFFFFFFFFFFF SWAP1 DUP2 PUSH1 0x2 SLOAD AND SWAP2 DUP3 PUSH2 0x1062 JUMPI POP JUMP JUMPDEST PUSH0 SLOAD AND ISZERO PUSH2 0x106C JUMPI JUMP JUMPDEST PUSH32 0x8562EB4500000000000000000000000000000000000000000000000000000000 PUSH0 MSTORE PUSH1 0x4 PUSH0 REVERT JUMPDEST SWAP1 PUSH2 0x109E DUP3 PUSH2 0xCED JUMP JUMPDEST PUSH2 0x10AB PUSH1 0x40 MLOAD SWAP2 DUP3 PUSH2 0xCAC JUMP JUMPDEST DUP3 DUP2 MSTORE PUSH32 0xFFFFFFFFFFFFFFFFFFFFFFFFFFFFFFFFFFFFFFFFFFFFFFFFFFFFFFFFFFFFFFE0 PUSH2 0x10D9 DUP3 SWAP5 PUSH2 0xCED JUMP JUMPDEST ADD SWAP1 PUSH1 0x20 CALLDATASIZE SWAP2 ADD CALLDATACOPY JUMP JUMPDEST SWAP2 SWAP1 DUP3 SUB SWAP2 DUP3 GT PUSH2 0x10F0 JUMPI JUMP JUMPDEST PUSH32 0x4E487B7100000000000000000000000000000000000000000000000000000000 PUSH0 MSTORE PUSH1 0x11 PUSH1 0x4 MSTORE PUSH1 0x24 PUSH0 REVERT JUMPDEST DUP3 ISZERO PUSH2 0x11F2 JUMPI PUSH20 0xFFFFFFFFFFFFFFFFFFFFFFFFFFFFFFFFFFFFFFFF SWAP4 DUP5 AND DUP1 PUSH2 0x114D JUMPI POP PUSH2 0x114B SWAP4 POP PUSH2 0x134D JUMP JUMPDEST JUMP JUMPDEST PUSH0 SLOAD DUP4 DUP7 AND SWAP6 SWAP1 DUP2 AND DUP7 DUP2 SUB PUSH2 0x116A JUMPI POP POP POP PUSH2 0x114B SWAP4 POP PUSH2 0x134D JUMP JUMPDEST SWAP3 SWAP2 SWAP5 SWAP1 SWAP4 DUP2 DUP7 PUSH2 0x117A SWAP3 PUSH2 0x11F8 JUMP JUMPDEST DUP4 PUSH1 0x1 SLOAD AND SWAP5 DUP1 EXTCODESIZE ISZERO PUSH2 0x40C JUMPI PUSH0 SWAP6 PUSH1 0xA4 SWAP5 DUP8 SWAP4 PUSH1 0x40 MLOAD SWAP10 DUP11 SWAP9 DUP10 SWAP8 PUSH32 0x54CAAD0000000000000000000000000000000000000000000000000000000000 DUP10 MSTORE AND PUSH1 0x4 DUP9 ADD MSTORE PUSH1 0x24 DUP8 ADD MSTORE PUSH1 0x44 DUP7 ADD MSTORE PUSH1 0x64 DUP6 ADD MSTORE PUSH1 0x84 DUP5 ADD MSTORE GAS CALL DUP1 ISZERO PUSH2 0xE6D JUMPI PUSH2 0x11E3 JUMPI JUMPDEST POP JUMP JUMPDEST PUSH2 0x11EC SWAP1 PUSH2 0xC6B JUMP JUMPDEST PUSH0 PUSH2 0x11E0 JUMP JUMPDEST POP POP POP POP JUMP JUMPDEST PUSH1 0x40 MLOAD SWAP3 PUSH1 0x20 DUP5 ADD SWAP1 PUSH32 0xA9059CBB00000000000000000000000000000000000000000000000000000000 DUP3 MSTORE PUSH20 0xFFFFFFFFFFFFFFFFFFFFFFFFFFFFFFFFFFFFFFFF DUP1 SWAP5 AND PUSH1 0x24 DUP7 ADD MSTORE PUSH1 0x44 DUP6 ADD MSTORE PUSH1 0x44 DUP5 MSTORE PUSH1 0x80 DUP5 ADD SWAP1 PUSH8 0xFFFFFFFFFFFFFFFF SWAP4 DUP6 DUP4 LT DUP6 DUP5 GT OR PUSH2 0xC7F JUMPI PUSH0 SWAP4 DUP5 SWAP4 PUSH1 0x40 MSTORE AND SWAP5 MLOAD SWAP1 DUP3 DUP7 GAS CALL SWAP1 RETURNDATASIZE ISZERO PUSH2 0x1328 JUMPI RETURNDATASIZE SWAP1 DUP2 GT PUSH2 0xC7F JUMPI PUSH2 0x12CC SWAP2 PUSH1 0x40 MLOAD SWAP2 PUSH2 0x12BC PUSH1 0x20 PUSH32 0xFFFFFFFFFFFFFFFFFFFFFFFFFFFFFFFFFFFFFFFFFFFFFFFFFFFFFFFFFFFFFFE0 PUSH1 0x1F DUP5 ADD AND ADD DUP5 PUSH2 0xCAC JUMP JUMPDEST DUP3 MSTORE RETURNDATASIZE PUSH0 PUSH1 0x20 DUP5 ADD RETURNDATACOPY JUMPDEST DUP4 PUSH2 0x13AB JUMP JUMPDEST DUP1 MLOAD SWAP1 DUP2 ISZERO ISZERO SWAP2 DUP3 PUSH2 0x130D JUMPI JUMPDEST POP POP PUSH2 0x12E2 JUMPI POP JUMP JUMPDEST PUSH32 0x5274AFE700000000000000000000000000000000000000000000000000000000 PUSH0 MSTORE PUSH1 0x4 MSTORE PUSH1 0x24 PUSH0 REVERT JUMPDEST PUSH2 0x1320 SWAP3 POP PUSH1 0x20 DUP1 SWAP2 DUP4 ADD ADD SWAP2 ADD PUSH2 0x1335 JUMP JUMPDEST ISZERO PUSH0 DUP1 PUSH2 0x12D9 JUMP JUMPDEST POP PUSH2 0x12CC SWAP1 PUSH1 0x60 SWAP1 PUSH2 0x12C6 JUMP JUMPDEST SWAP1 DUP2 PUSH1 0x20 SWAP2 SUB SLT PUSH2 0x40C JUMPI MLOAD DUP1 ISZERO ISZERO DUP2 SUB PUSH2 0x40C JUMPI SWAP1 JUMP JUMPDEST SWAP2 SWAP1 PUSH1 0x40 PUSH32 0xD6B9382EC1786C32610E376E8EE8F2F16ABEDA4ACE3B6276AC958193C75BBBC8 SWAP2 PUSH20 0xFFFFFFFFFFFFFFFFFFFFFFFFFFFFFFFFFFFFFFFF DUP1 SWAP2 DUP2 PUSH1 0x1 SLOAD AND PUSH2 0x139A DUP8 DUP3 DUP5 PUSH2 0x11F8 JUMP JUMPDEST DUP5 MLOAD SWAP7 DUP8 MSTORE PUSH1 0x20 DUP8 ADD MSTORE AND SWAP5 AND SWAP3 LOG3 JUMP JUMPDEST SWAP1 PUSH2 0x13E8 JUMPI POP DUP1 MLOAD ISZERO PUSH2 0x13C0 JUMPI DUP1 MLOAD SWAP1 PUSH1 0x20 ADD REVERT JUMPDEST PUSH32 0x1425EA4200000000000000000000000000000000000000000000000000000000 PUSH0 MSTORE PUSH1 0x4 PUSH0 REVERT JUMPDEST DUP2 MLOAD ISZERO DUP1 PUSH2 0x143B JUMPI JUMPDEST PUSH2 0x13F9 JUMPI POP SWAP1 JUMP JUMPDEST PUSH20 0xFFFFFFFFFFFFFFFFFFFFFFFFFFFFFFFFFFFFFFFF SWAP1 PUSH32 0x9996B31500000000000000000000000000000000000000000000000000000000 PUSH0 MSTORE AND PUSH1 0x4 MSTORE PUSH1 0x24 PUSH0 REVERT JUMPDEST POP DUP1 EXTCODESIZE ISZERO PUSH2 0x13F1 JUMP INVALID LOG2 PUSH5 0x6970667358 0x22 SLT KECCAK256 CALLDATALOAD 0xC9 0xF7 CHAINID 0xFC MUL MOD STATICCALL 0xC0 KECCAK256 LOG4 0xAE 0xBF INVALID CALLDATASIZE SWAP8 SWAP1 SIGNEXTEND PUSH8 0xD7E803702D23E31C 0xD ISZERO SWAP11 DUP1 PUSH7 0x64736F6C634300 ADDMOD SHL STOP CALLER "},"methodIdentifiers":{"getActionId(bytes4)":"851c1bb3","getAuthorizer()":"aaabadc5","getFeeRecipient()":"4ccb20c0","getProtocolFeeBurner()":"55f90510","getProtocolFeeController()":"85f2dbd4","getTargetToken()":"80db0d51","getVault()":"8d928af8","recoverProtocolFees(address[])":"b0edcc53","setFeeRecipient(address)":"e74b981b","setProtocolFeeBurner(address)":"e651a319","setTargetToken(address)":"1b66cb00","sweepProtocolFees(address)":"5884e804","sweepProtocolFeesForToken(address,address)":"c414dbd4"}}}}}