{"contracts/test/PriceImpactHelperMock.sol":{"PriceImpactHelperMock":{"abi":[{"inputs":[{"internalType":"contract IVault","name":"vault","type":"address"},{"internalType":"contract IRouter","name":"router","type":"address"}],"stateMutability":"nonpayable","type":"constructor"},{"inputs":[{"internalType":"address","name":"target","type":"address"}],"name":"AddressEmptyCode","type":"error"},{"inputs":[],"name":"ErrorSelectorNotFound","type":"error"},{"inputs":[],"name":"FailedInnerCall","type":"error"},{"inputs":[],"name":"QuoteResultSpoofed","type":"error"},{"inputs":[{"internalType":"bytes","name":"result","type":"bytes"}],"name":"Result","type":"error"},{"inputs":[{"internalType":"int256","name":"value","type":"int256"}],"name":"SafeCastOverflowedIntToUint","type":"error"},{"inputs":[{"internalType":"uint256","name":"value","type":"uint256"}],"name":"SafeCastOverflowedUintToInt","type":"error"},{"inputs":[{"internalType":"address","name":"pool","type":"address"},{"internalType":"uint256[]","name":"exactAmountsIn","type":"uint256[]"},{"internalType":"address","name":"sender","type":"address"}],"name":"calculateAddLiquidityUnbalancedPriceImpact","outputs":[{"internalType":"uint256","name":"priceImpact","type":"uint256"}],"stateMutability":"nonpayable","type":"function"},{"inputs":[{"internalType":"address","name":"target","type":"address"},{"internalType":"bytes","name":"data","type":"bytes"}],"name":"callAndRevertHook","outputs":[],"stateMutability":"nonpayable","type":"function"},{"inputs":[{"internalType":"int256[]","name":"array","type":"int256[]"}],"name":"maxNegativeIndex","outputs":[{"internalType":"uint256","name":"","type":"uint256"}],"stateMutability":"pure","type":"function"},{"inputs":[{"internalType":"int256[]","name":"array","type":"int256[]"}],"name":"minPositiveIndex","outputs":[{"internalType":"uint256","name":"","type":"uint256"}],"stateMutability":"pure","type":"function"},{"inputs":[{"internalType":"address","name":"pool","type":"address"},{"internalType":"uint256","name":"tokenIndex","type":"uint256"},{"internalType":"int256[]","name":"deltas","type":"int256[]"},{"internalType":"address","name":"sender","type":"address"}],"name":"queryAddLiquidityUnbalancedForTokenDeltas","outputs":[{"internalType":"int256","name":"deltaBPT","type":"int256"}],"stateMutability":"nonpayable","type":"function"},{"inputs":[{"internalType":"address","name":"pool","type":"address"},{"internalType":"int256[]","name":"deltas","type":"int256[]"},{"internalType":"int256[]","name":"deltaBPTs","type":"int256[]"},{"internalType":"address","name":"sender","type":"address"}],"name":"zeroOutDeltas","outputs":[{"internalType":"uint256","name":"","type":"uint256"}],"stateMutability":"nonpayable","type":"function"}],"evm":{"bytecode":{"linkReferences":{},"object":"60c03461009a57601f6113fd38819003918201601f19168301916001600160401b0383118484101761009e57808492604094855283398101031261009a5780516001600160a01b0391828216820361009a5760200151918216820361009a5760805260a05260405161134a90816100b3823960805181610a00015260a05181818161032501528181610b9c01528181610d500152610ef70152f35b5f80fd5b634e487b7160e01b5f52604160045260245ffdfe60406080815260049081361015610014575f80fd5b5f3560e01c806301ef39ee146106225780630d4277d1146105e75780633b064ca31461058057806348406a5414610212578063a7699638146100ba5763e3a50d821461005e575f80fd5b346100b65760806003193601126100b657610077610725565b916044359267ffffffffffffffff84116100b65761009d6100af926020953691016106c5565b6100a5610748565b9160243590610f96565b9051908152f35b5f80fd5b5090346100b657816003193601126100b6576100d4610725565b6024359067ffffffffffffffff82116100b657366023830112156100b65781830135906101008261076b565b9261010d8651948561065d565b828452602084019036602485830101116100b6575f94856020868297602484960187378301015251925af191610141610852565b928015610193579261018f9161015a82602096336110a2565b50519384937f5ab64fb80000000000000000000000000000000000000000000000000000000085528401526024830190610881565b0390fd5b50507f5ab64fb8000000000000000000000000000000000000000000000000000000007fffffffff000000000000000000000000000000000000000000000000000000006101e08461105b565b16146101ec5750611093565b7f28f95541000000000000000000000000000000000000000000000000000000005f525ffd5b5090346100b65760606003193601126100b65761022d610725565b90602480359167ffffffffffffffff8084116100b657366023850112156100b657838201359461025c866106ad565b946102698851968761065d565b868652602096858888019160051b830101913683116100b65786899101915b83831061057057505050506044359673ffffffffffffffffffffffffffffffffffffffff80891690818a036100b6576102c28a8986610e3b565b918351927f0f710888000000000000000000000000000000000000000000000000000000008b8501528286168985015260448401526064830152608060848301525f60a483015260a4825260e082018281108682111761054557835261034a91907f00000000000000000000000000000000000000000000000000000000000000001661113b565b92835184019388818187019603126100b657888101519182116100b657019280603f850112156100b65787840151610381816106ad565b9461038e8451968761065d565b818652838a87019260051b8201019283116100b657838a9101915b83831061053557505050506103be8651610787565b975f5b8751811015610441576103dd6103d782876107b8565b51610f41565b6103ea6103d7838b6107b8565b905f8282039212818312811691831390151617610416579060019161040f828d6107b8565b52016103c1565b876011887f4e487b71000000000000000000000000000000000000000000000000000000005f52525ffd5b50908591898989886104538251610787565b955f5b835181101561047f578061046e88886001948e610f96565b610478828b6107b8565b5201610456565b50876104b3866104ad6104a86104a261049b8f8e868f9261099c565b80946107b8565b516107f9565b611026565b956107b8565b5192670de0b6b3a76400009485810295818704149015171561050b5783156104e157505051910460011c8152f35b6012907f4e487b71000000000000000000000000000000000000000000000000000000005f52525ffd5b6011907f4e487b71000000000000000000000000000000000000000000000000000000005f52525ffd5b82518152918101918a91016103a9565b876041887f4e487b71000000000000000000000000000000000000000000000000000000005f52525ffd5b8235815291810191899101610288565b50346100b65760806003193601126100b65761059a610725565b67ffffffffffffffff92906024358481116100b6576105bc90369084016106c5565b6044359485116100b6576105d86100af936020963691016106c5565b906105e1610748565b9261099c565b50346100b65760206003193601126100b65781359167ffffffffffffffff83116100b65761061d6100af916020943691016106c5565b610924565b50346100b65760206003193601126100b65781359167ffffffffffffffff83116100b6576106586100af916020943691016106c5565b6108a6565b90601f601f19910116810190811067ffffffffffffffff82111761068057604052565b7f4e487b71000000000000000000000000000000000000000000000000000000005f52604160045260245ffd5b67ffffffffffffffff81116106805760051b60200190565b9080601f830112156100b65760209082356106df816106ad565b936106ed604051958661065d565b81855260208086019260051b8201019283116100b657602001905b828210610716575050505090565b81358152908301908301610708565b6004359073ffffffffffffffffffffffffffffffffffffffff821682036100b657565b6064359073ffffffffffffffffffffffffffffffffffffffff821682036100b657565b67ffffffffffffffff811161068057601f01601f191660200190565b90610791826106ad565b61079e604051918261065d565b828152601f196107ae82946106ad565b0190602036910137565b80518210156107cc5760209160051b010190565b7f4e487b71000000000000000000000000000000000000000000000000000000005f52603260045260245ffd5b7f80000000000000000000000000000000000000000000000000000000000000008114610825575f0390565b7f4e487b71000000000000000000000000000000000000000000000000000000005f52601160045260245ffd5b3d1561087c573d906108638261076b565b91610871604051938461065d565b82523d5f602084013e565b606090565b90601f19601f602080948051918291828752018686015e5f8582860101520116010190565b7f800000000000000000000000000000000000000000000000000000000000000091905f805b825181101561091e575f6108e082856107b8565b51128061090b575b6108f5575b6001016108cc565b8094506109039150826107b8565b5192806108ed565b508461091782856107b8565b51136108e8565b50925050565b7f7fffffffffffffffffffffffffffffffffffffffffffffffffffffffffffffff91905f805b825181101561091e575f61095e82856107b8565b511380610989575b610973575b60010161094a565b8094506109819150826107b8565b51928061096b565b508461099582856107b8565b5112610966565b9290935f93604051917fca4f280300000000000000000000000000000000000000000000000000000000835273ffffffffffffffffffffffffffffffffffffffff821660048401525f8360248173ffffffffffffffffffffffffffffffffffffffff7f0000000000000000000000000000000000000000000000000000000000000000165afa928315610e30575f93610d80575b50909192945f905b87517fffffffffffffffffffffffffffffffffffffffffffffffffffffffffffffffff810190811161082557821015610d7557509085939291610a7a86610924565b90838986610a878a6108a6565b9a8b958b610aa36104a289610a9c85856107b8565b51936107b8565b1315610c4457610bc192610b77889593610af9610af38573ffffffffffffffffffffffffffffffffffffffff610aeb610b85989b9e82610ae3858b6107b8565b5116986107b8565b5116976107b8565b51611026565b60405195869460209a7f3ebc54e5000000000000000000000000000000000000000000000000000000008c88015260248701939060e095929373ffffffffffffffffffffffffffffffffffffffff8095818094168852166020870152166040850152606084015216608082015260c060a08201525f60c08201520190565b03601f19810183528261065d565b73ffffffffffffffffffffffffffffffffffffffff7f00000000000000000000000000000000000000000000000000000000000000001661113b565b82818051810103126100b657610bec825f610be58f95610bf29783960151966107b8565b528b6107b8565b52610f41565b91610bfd818b6107b8565b515f848201948512911290801582169115161761082557600192610c21828c6107b8565b52610c38610c31888c8489610f96565b91896107b8565b52019091929395610a38565b95935050505082610c5590876107b8565b5173ffffffffffffffffffffffffffffffffffffffff1690610c778a886107b8565b5173ffffffffffffffffffffffffffffffffffffffff16610c988b8d6107b8565b51610ca2906107f9565b610cab90611026565b6040517f175d44080000000000000000000000000000000000000000000000000000000060208083019190915273ffffffffffffffffffffffffffffffffffffffff8a8116602484015295861660448301529285166064820152608481019190915292891660a484015260c060c48401525f60e480850191909152835291610d356101048261065d565b610bc19073ffffffffffffffffffffffffffffffffffffffff7f00000000000000000000000000000000000000000000000000000000000000001661113b565b955050945050505090565b9092503d805f833e610d92818361065d565b81019060209081818403126100b65780519067ffffffffffffffff82116100b657019180601f840112156100b6578251610dcb816106ad565b93610dd9604051958661065d565b818552838086019260051b8201019283116100b6578301905b828210610e045750505050915f610a30565b815173ffffffffffffffffffffffffffffffffffffffff811681036100b6578152908301908301610df2565b6040513d5f823e3d90fd5b90929173ffffffffffffffffffffffffffffffffffffffff604051916020937fda001f7d00000000000000000000000000000000000000000000000000000000858501528260a48501911660248501526080604485015286518091528460c485019701905f5b818110610f2d5750505083610f1c94959683610ef5931660648601525f858203917fffffffffffffffffffffffffffffffffffffffffffffffffffffffffffffffdc8301608488015252808552018361065d565b7f00000000000000000000000000000000000000000000000000000000000000001661113b565b81818051810103126100b657015190565b825189529786019791860191600101610ea1565b7f7fffffffffffffffffffffffffffffffffffffffffffffffffffffffffffffff8111610f6b5790565b7f24775e06000000000000000000000000000000000000000000000000000000005f5260045260245ffd5b929091610fd183825192601f19610fc5610faf866106ad565b95610fbd604051978861065d565b8087526106ad565b013660208601376107b8565b5193841561101d57610ff993610ff35f871396875f1461100e57915b846107b8565b52610e3b565b90156110025790565b61100b906107f9565b90565b611017906107f9565b91610fed565b50505050505f90565b5f81126110305790565b7fa8ce4432000000000000000000000000000000000000000000000000000000005f5260045260245ffd5b600481511061106b576020015190565b7fa7285689000000000000000000000000000000000000000000000000000000005f5260045ffd5b80511561106b57805190602001fd5b906110df57508051156110b757805190602001fd5b7f1425ea42000000000000000000000000000000000000000000000000000000005f5260045ffd5b81511580611132575b6110f0575090565b73ffffffffffffffffffffffffffffffffffffffff907f9996b315000000000000000000000000000000000000000000000000000000005f521660045260245ffd5b50803b156110e8565b90303b156100b6575f6111a091604051809381927fa769963800000000000000000000000000000000000000000000000000000000835273ffffffffffffffffffffffffffffffffffffffff8597166004840152604060248401526044830190610881565b038183305af190816112f7575b50611299576111ba610852565b907f5ab64fb8000000000000000000000000000000000000000000000000000000007fffffffff000000000000000000000000000000000000000000000000000000006112068461105b565b1603611293578151916020600319938481016004840152820193828286019503011261128f5760248101519067ffffffffffffffff821161128b57018260438201121561128f5760248101519061125c8261076b565b9361126a604051958661065d565b8285526044838301011161128b5790806044602093018386015e8301015290565b8280fd5b5080fd5b50611093565b60646040517f08c379a000000000000000000000000000000000000000000000000000000000815260206004820152601260248201527f556e6578706563746564207375636365737300000000000000000000000000006044820152fd5b90915067ffffffffffffffff8111610680576040525f905f6111ad56fea2646970667358221220c070ee5c5cfc54c1aec9bbcb80fd08493778ebb217d1c4a33aa276197b359e2264736f6c634300081b0033","opcodes":"PUSH1 0xC0 CALLVALUE PUSH2 0x9A JUMPI PUSH1 0x1F PUSH2 0x13FD CODESIZE DUP2 SWAP1 SUB SWAP2 DUP3 ADD PUSH1 0x1F NOT AND DUP4 ADD SWAP2 PUSH1 0x1 PUSH1 0x1 PUSH1 0x40 SHL SUB DUP4 GT DUP5 DUP5 LT OR PUSH2 0x9E JUMPI DUP1 DUP5 SWAP3 PUSH1 0x40 SWAP5 DUP6 MSTORE DUP4 CODECOPY DUP2 ADD SUB SLT PUSH2 0x9A JUMPI DUP1 MLOAD PUSH1 0x1 PUSH1 0x1 PUSH1 0xA0 SHL SUB SWAP2 DUP3 DUP3 AND DUP3 SUB PUSH2 0x9A JUMPI PUSH1 0x20 ADD MLOAD SWAP2 DUP3 AND DUP3 SUB PUSH2 0x9A JUMPI PUSH1 0x80 MSTORE PUSH1 0xA0 MSTORE PUSH1 0x40 MLOAD PUSH2 0x134A SWAP1 DUP2 PUSH2 0xB3 DUP3 CODECOPY PUSH1 0x80 MLOAD DUP2 PUSH2 0xA00 ADD MSTORE PUSH1 0xA0 MLOAD DUP2 DUP2 DUP2 PUSH2 0x325 ADD MSTORE DUP2 DUP2 PUSH2 0xB9C ADD MSTORE DUP2 DUP2 PUSH2 0xD50 ADD MSTORE PUSH2 0xEF7 ADD MSTORE RETURN JUMPDEST PUSH0 DUP1 REVERT JUMPDEST PUSH4 0x4E487B71 PUSH1 0xE0 SHL PUSH0 MSTORE PUSH1 0x41 PUSH1 0x4 MSTORE PUSH1 0x24 PUSH0 REVERT INVALID PUSH1 0x40 PUSH1 0x80 DUP2 MSTORE PUSH1 0x4 SWAP1 DUP2 CALLDATASIZE LT ISZERO PUSH2 0x14 JUMPI PUSH0 DUP1 REVERT JUMPDEST PUSH0 CALLDATALOAD PUSH1 0xE0 SHR DUP1 PUSH4 0x1EF39EE EQ PUSH2 0x622 JUMPI DUP1 PUSH4 0xD4277D1 EQ PUSH2 0x5E7 JUMPI DUP1 PUSH4 0x3B064CA3 EQ PUSH2 0x580 JUMPI DUP1 PUSH4 0x48406A54 EQ PUSH2 0x212 JUMPI DUP1 PUSH4 0xA7699638 EQ PUSH2 0xBA JUMPI PUSH4 0xE3A50D82 EQ PUSH2 0x5E JUMPI PUSH0 DUP1 REVERT JUMPDEST CALLVALUE PUSH2 0xB6 JUMPI PUSH1 0x80 PUSH1 0x3 NOT CALLDATASIZE ADD SLT PUSH2 0xB6 JUMPI PUSH2 0x77 PUSH2 0x725 JUMP JUMPDEST SWAP2 PUSH1 0x44 CALLDATALOAD SWAP3 PUSH8 0xFFFFFFFFFFFFFFFF DUP5 GT PUSH2 0xB6 JUMPI PUSH2 0x9D PUSH2 0xAF SWAP3 PUSH1 0x20 SWAP6 CALLDATASIZE SWAP2 ADD PUSH2 0x6C5 JUMP JUMPDEST PUSH2 0xA5 PUSH2 0x748 JUMP JUMPDEST SWAP2 PUSH1 0x24 CALLDATALOAD SWAP1 PUSH2 0xF96 JUMP JUMPDEST SWAP1 MLOAD SWAP1 DUP2 MSTORE RETURN JUMPDEST PUSH0 DUP1 REVERT JUMPDEST POP SWAP1 CALLVALUE PUSH2 0xB6 JUMPI DUP2 PUSH1 0x3 NOT CALLDATASIZE ADD SLT PUSH2 0xB6 JUMPI PUSH2 0xD4 PUSH2 0x725 JUMP JUMPDEST PUSH1 0x24 CALLDATALOAD SWAP1 PUSH8 0xFFFFFFFFFFFFFFFF DUP3 GT PUSH2 0xB6 JUMPI CALLDATASIZE PUSH1 0x23 DUP4 ADD SLT ISZERO PUSH2 0xB6 JUMPI DUP2 DUP4 ADD CALLDATALOAD SWAP1 PUSH2 0x100 DUP3 PUSH2 0x76B JUMP JUMPDEST SWAP3 PUSH2 0x10D DUP7 MLOAD SWAP5 DUP6 PUSH2 0x65D JUMP JUMPDEST DUP3 DUP5 MSTORE PUSH1 0x20 DUP5 ADD SWAP1 CALLDATASIZE PUSH1 0x24 DUP6 DUP4 ADD ADD GT PUSH2 0xB6 JUMPI PUSH0 SWAP5 DUP6 PUSH1 0x20 DUP7 DUP3 SWAP8 PUSH1 0x24 DUP5 SWAP7 ADD DUP8 CALLDATACOPY DUP4 ADD ADD MSTORE MLOAD SWAP3 GAS CALL SWAP2 PUSH2 0x141 PUSH2 0x852 JUMP JUMPDEST SWAP3 DUP1 ISZERO PUSH2 0x193 JUMPI SWAP3 PUSH2 0x18F SWAP2 PUSH2 0x15A DUP3 PUSH1 0x20 SWAP7 CALLER PUSH2 0x10A2 JUMP JUMPDEST POP MLOAD SWAP4 DUP5 SWAP4 PUSH32 0x5AB64FB800000000000000000000000000000000000000000000000000000000 DUP6 MSTORE DUP5 ADD MSTORE PUSH1 0x24 DUP4 ADD SWAP1 PUSH2 0x881 JUMP JUMPDEST SUB SWAP1 REVERT JUMPDEST POP POP PUSH32 0x5AB64FB800000000000000000000000000000000000000000000000000000000 PUSH32 0xFFFFFFFF00000000000000000000000000000000000000000000000000000000 PUSH2 0x1E0 DUP5 PUSH2 0x105B JUMP JUMPDEST AND EQ PUSH2 0x1EC JUMPI POP PUSH2 0x1093 JUMP JUMPDEST PUSH32 0x28F9554100000000000000000000000000000000000000000000000000000000 PUSH0 MSTORE PUSH0 REVERT JUMPDEST POP SWAP1 CALLVALUE PUSH2 0xB6 JUMPI PUSH1 0x60 PUSH1 0x3 NOT CALLDATASIZE ADD SLT PUSH2 0xB6 JUMPI PUSH2 0x22D PUSH2 0x725 JUMP JUMPDEST SWAP1 PUSH1 0x24 DUP1 CALLDATALOAD SWAP2 PUSH8 0xFFFFFFFFFFFFFFFF DUP1 DUP5 GT PUSH2 0xB6 JUMPI CALLDATASIZE PUSH1 0x23 DUP6 ADD SLT ISZERO PUSH2 0xB6 JUMPI DUP4 DUP3 ADD CALLDATALOAD SWAP5 PUSH2 0x25C DUP7 PUSH2 0x6AD JUMP JUMPDEST SWAP5 PUSH2 0x269 DUP9 MLOAD SWAP7 DUP8 PUSH2 0x65D JUMP JUMPDEST DUP7 DUP7 MSTORE PUSH1 0x20 SWAP7 DUP6 DUP9 DUP9 ADD SWAP2 PUSH1 0x5 SHL DUP4 ADD ADD SWAP2 CALLDATASIZE DUP4 GT PUSH2 0xB6 JUMPI DUP7 DUP10 SWAP2 ADD SWAP2 JUMPDEST DUP4 DUP4 LT PUSH2 0x570 JUMPI POP POP POP POP PUSH1 0x44 CALLDATALOAD SWAP7 PUSH20 0xFFFFFFFFFFFFFFFFFFFFFFFFFFFFFFFFFFFFFFFF DUP1 DUP10 AND SWAP1 DUP2 DUP11 SUB PUSH2 0xB6 JUMPI PUSH2 0x2C2 DUP11 DUP10 DUP7 PUSH2 0xE3B JUMP JUMPDEST SWAP2 DUP4 MLOAD SWAP3 PUSH32 0xF71088800000000000000000000000000000000000000000000000000000000 DUP12 DUP6 ADD MSTORE DUP3 DUP7 AND DUP10 DUP6 ADD MSTORE PUSH1 0x44 DUP5 ADD MSTORE PUSH1 0x64 DUP4 ADD MSTORE PUSH1 0x80 PUSH1 0x84 DUP4 ADD MSTORE PUSH0 PUSH1 0xA4 DUP4 ADD MSTORE PUSH1 0xA4 DUP3 MSTORE PUSH1 0xE0 DUP3 ADD DUP3 DUP2 LT DUP7 DUP3 GT OR PUSH2 0x545 JUMPI DUP4 MSTORE PUSH2 0x34A SWAP2 SWAP1 PUSH32 0x0 AND PUSH2 0x113B JUMP JUMPDEST SWAP3 DUP4 MLOAD DUP5 ADD SWAP4 DUP9 DUP2 DUP2 DUP8 ADD SWAP7 SUB SLT PUSH2 0xB6 JUMPI DUP9 DUP2 ADD MLOAD SWAP2 DUP3 GT PUSH2 0xB6 JUMPI ADD SWAP3 DUP1 PUSH1 0x3F DUP6 ADD SLT ISZERO PUSH2 0xB6 JUMPI DUP8 DUP5 ADD MLOAD PUSH2 0x381 DUP2 PUSH2 0x6AD JUMP JUMPDEST SWAP5 PUSH2 0x38E DUP5 MLOAD SWAP7 DUP8 PUSH2 0x65D JUMP JUMPDEST DUP2 DUP7 MSTORE DUP4 DUP11 DUP8 ADD SWAP3 PUSH1 0x5 SHL DUP3 ADD ADD SWAP3 DUP4 GT PUSH2 0xB6 JUMPI DUP4 DUP11 SWAP2 ADD SWAP2 JUMPDEST DUP4 DUP4 LT PUSH2 0x535 JUMPI POP POP POP POP PUSH2 0x3BE DUP7 MLOAD PUSH2 0x787 JUMP JUMPDEST SWAP8 PUSH0 JUMPDEST DUP8 MLOAD DUP2 LT ISZERO PUSH2 0x441 JUMPI PUSH2 0x3DD PUSH2 0x3D7 DUP3 DUP8 PUSH2 0x7B8 JUMP JUMPDEST MLOAD PUSH2 0xF41 JUMP JUMPDEST PUSH2 0x3EA PUSH2 0x3D7 DUP4 DUP12 PUSH2 0x7B8 JUMP JUMPDEST SWAP1 PUSH0 DUP3 DUP3 SUB SWAP3 SLT DUP2 DUP4 SLT DUP2 AND SWAP2 DUP4 SGT SWAP1 ISZERO AND OR PUSH2 0x416 JUMPI SWAP1 PUSH1 0x1 SWAP2 PUSH2 0x40F DUP3 DUP14 PUSH2 0x7B8 JUMP JUMPDEST MSTORE ADD PUSH2 0x3C1 JUMP JUMPDEST DUP8 PUSH1 0x11 DUP9 PUSH32 0x4E487B7100000000000000000000000000000000000000000000000000000000 PUSH0 MSTORE MSTORE PUSH0 REVERT JUMPDEST POP SWAP1 DUP6 SWAP2 DUP10 DUP10 DUP10 DUP9 PUSH2 0x453 DUP3 MLOAD PUSH2 0x787 JUMP JUMPDEST SWAP6 PUSH0 JUMPDEST DUP4 MLOAD DUP2 LT ISZERO PUSH2 0x47F JUMPI DUP1 PUSH2 0x46E DUP9 DUP9 PUSH1 0x1 SWAP5 DUP15 PUSH2 0xF96 JUMP JUMPDEST PUSH2 0x478 DUP3 DUP12 PUSH2 0x7B8 JUMP JUMPDEST MSTORE ADD PUSH2 0x456 JUMP JUMPDEST POP DUP8 PUSH2 0x4B3 DUP7 PUSH2 0x4AD PUSH2 0x4A8 PUSH2 0x4A2 PUSH2 0x49B DUP16 DUP15 DUP7 DUP16 SWAP3 PUSH2 0x99C JUMP JUMPDEST DUP1 SWAP5 PUSH2 0x7B8 JUMP JUMPDEST MLOAD PUSH2 0x7F9 JUMP JUMPDEST PUSH2 0x1026 JUMP JUMPDEST SWAP6 PUSH2 0x7B8 JUMP JUMPDEST MLOAD SWAP3 PUSH8 0xDE0B6B3A7640000 SWAP5 DUP6 DUP2 MUL SWAP6 DUP2 DUP8 DIV EQ SWAP1 ISZERO OR ISZERO PUSH2 0x50B JUMPI DUP4 ISZERO PUSH2 0x4E1 JUMPI POP POP MLOAD SWAP2 DIV PUSH1 0x1 SHR DUP2 MSTORE RETURN JUMPDEST PUSH1 0x12 SWAP1 PUSH32 0x4E487B7100000000000000000000000000000000000000000000000000000000 PUSH0 MSTORE MSTORE PUSH0 REVERT JUMPDEST PUSH1 0x11 SWAP1 PUSH32 0x4E487B7100000000000000000000000000000000000000000000000000000000 PUSH0 MSTORE MSTORE PUSH0 REVERT JUMPDEST DUP3 MLOAD DUP2 MSTORE SWAP2 DUP2 ADD SWAP2 DUP11 SWAP2 ADD PUSH2 0x3A9 JUMP JUMPDEST DUP8 PUSH1 0x41 DUP9 PUSH32 0x4E487B7100000000000000000000000000000000000000000000000000000000 PUSH0 MSTORE MSTORE PUSH0 REVERT JUMPDEST DUP3 CALLDATALOAD DUP2 MSTORE SWAP2 DUP2 ADD SWAP2 DUP10 SWAP2 ADD PUSH2 0x288 JUMP JUMPDEST POP CALLVALUE PUSH2 0xB6 JUMPI PUSH1 0x80 PUSH1 0x3 NOT CALLDATASIZE ADD SLT PUSH2 0xB6 JUMPI PUSH2 0x59A PUSH2 0x725 JUMP JUMPDEST PUSH8 0xFFFFFFFFFFFFFFFF SWAP3 SWAP1 PUSH1 0x24 CALLDATALOAD DUP5 DUP2 GT PUSH2 0xB6 JUMPI PUSH2 0x5BC SWAP1 CALLDATASIZE SWAP1 DUP5 ADD PUSH2 0x6C5 JUMP JUMPDEST PUSH1 0x44 CALLDATALOAD SWAP5 DUP6 GT PUSH2 0xB6 JUMPI PUSH2 0x5D8 PUSH2 0xAF SWAP4 PUSH1 0x20 SWAP7 CALLDATASIZE SWAP2 ADD PUSH2 0x6C5 JUMP JUMPDEST SWAP1 PUSH2 0x5E1 PUSH2 0x748 JUMP JUMPDEST SWAP3 PUSH2 0x99C JUMP JUMPDEST POP CALLVALUE PUSH2 0xB6 JUMPI PUSH1 0x20 PUSH1 0x3 NOT CALLDATASIZE ADD SLT PUSH2 0xB6 JUMPI DUP2 CALLDATALOAD SWAP2 PUSH8 0xFFFFFFFFFFFFFFFF DUP4 GT PUSH2 0xB6 JUMPI PUSH2 0x61D PUSH2 0xAF SWAP2 PUSH1 0x20 SWAP5 CALLDATASIZE SWAP2 ADD PUSH2 0x6C5 JUMP JUMPDEST PUSH2 0x924 JUMP JUMPDEST POP CALLVALUE PUSH2 0xB6 JUMPI PUSH1 0x20 PUSH1 0x3 NOT CALLDATASIZE ADD SLT PUSH2 0xB6 JUMPI DUP2 CALLDATALOAD SWAP2 PUSH8 0xFFFFFFFFFFFFFFFF DUP4 GT PUSH2 0xB6 JUMPI PUSH2 0x658 PUSH2 0xAF SWAP2 PUSH1 0x20 SWAP5 CALLDATASIZE SWAP2 ADD PUSH2 0x6C5 JUMP JUMPDEST PUSH2 0x8A6 JUMP JUMPDEST SWAP1 PUSH1 0x1F PUSH1 0x1F NOT SWAP2 ADD AND DUP2 ADD SWAP1 DUP2 LT PUSH8 0xFFFFFFFFFFFFFFFF DUP3 GT OR PUSH2 0x680 JUMPI PUSH1 0x40 MSTORE JUMP JUMPDEST PUSH32 0x4E487B7100000000000000000000000000000000000000000000000000000000 PUSH0 MSTORE PUSH1 0x41 PUSH1 0x4 MSTORE PUSH1 0x24 PUSH0 REVERT JUMPDEST PUSH8 0xFFFFFFFFFFFFFFFF DUP2 GT PUSH2 0x680 JUMPI PUSH1 0x5 SHL PUSH1 0x20 ADD SWAP1 JUMP JUMPDEST SWAP1 DUP1 PUSH1 0x1F DUP4 ADD SLT ISZERO PUSH2 0xB6 JUMPI PUSH1 0x20 SWAP1 DUP3 CALLDATALOAD PUSH2 0x6DF DUP2 PUSH2 0x6AD JUMP JUMPDEST SWAP4 PUSH2 0x6ED PUSH1 0x40 MLOAD SWAP6 DUP7 PUSH2 0x65D JUMP JUMPDEST DUP2 DUP6 MSTORE PUSH1 0x20 DUP1 DUP7 ADD SWAP3 PUSH1 0x5 SHL DUP3 ADD ADD SWAP3 DUP4 GT PUSH2 0xB6 JUMPI PUSH1 0x20 ADD SWAP1 JUMPDEST DUP3 DUP3 LT PUSH2 0x716 JUMPI POP POP POP POP SWAP1 JUMP JUMPDEST DUP2 CALLDATALOAD DUP2 MSTORE SWAP1 DUP4 ADD SWAP1 DUP4 ADD PUSH2 0x708 JUMP JUMPDEST PUSH1 0x4 CALLDATALOAD SWAP1 PUSH20 0xFFFFFFFFFFFFFFFFFFFFFFFFFFFFFFFFFFFFFFFF DUP3 AND DUP3 SUB PUSH2 0xB6 JUMPI JUMP JUMPDEST PUSH1 0x64 CALLDATALOAD SWAP1 PUSH20 0xFFFFFFFFFFFFFFFFFFFFFFFFFFFFFFFFFFFFFFFF DUP3 AND DUP3 SUB PUSH2 0xB6 JUMPI JUMP JUMPDEST PUSH8 0xFFFFFFFFFFFFFFFF DUP2 GT PUSH2 0x680 JUMPI PUSH1 0x1F ADD PUSH1 0x1F NOT AND PUSH1 0x20 ADD SWAP1 JUMP JUMPDEST SWAP1 PUSH2 0x791 DUP3 PUSH2 0x6AD JUMP JUMPDEST PUSH2 0x79E PUSH1 0x40 MLOAD SWAP2 DUP3 PUSH2 0x65D JUMP JUMPDEST DUP3 DUP2 MSTORE PUSH1 0x1F NOT PUSH2 0x7AE DUP3 SWAP5 PUSH2 0x6AD JUMP JUMPDEST ADD SWAP1 PUSH1 0x20 CALLDATASIZE SWAP2 ADD CALLDATACOPY JUMP JUMPDEST DUP1 MLOAD DUP3 LT ISZERO PUSH2 0x7CC JUMPI PUSH1 0x20 SWAP2 PUSH1 0x5 SHL ADD ADD SWAP1 JUMP JUMPDEST PUSH32 0x4E487B7100000000000000000000000000000000000000000000000000000000 PUSH0 MSTORE PUSH1 0x32 PUSH1 0x4 MSTORE PUSH1 0x24 PUSH0 REVERT JUMPDEST PUSH32 0x8000000000000000000000000000000000000000000000000000000000000000 DUP2 EQ PUSH2 0x825 JUMPI PUSH0 SUB SWAP1 JUMP JUMPDEST PUSH32 0x4E487B7100000000000000000000000000000000000000000000000000000000 PUSH0 MSTORE PUSH1 0x11 PUSH1 0x4 MSTORE PUSH1 0x24 PUSH0 REVERT JUMPDEST RETURNDATASIZE ISZERO PUSH2 0x87C JUMPI RETURNDATASIZE SWAP1 PUSH2 0x863 DUP3 PUSH2 0x76B JUMP JUMPDEST SWAP2 PUSH2 0x871 PUSH1 0x40 MLOAD SWAP4 DUP5 PUSH2 0x65D JUMP JUMPDEST DUP3 MSTORE RETURNDATASIZE PUSH0 PUSH1 0x20 DUP5 ADD RETURNDATACOPY JUMP JUMPDEST PUSH1 0x60 SWAP1 JUMP JUMPDEST SWAP1 PUSH1 0x1F NOT PUSH1 0x1F PUSH1 0x20 DUP1 SWAP5 DUP1 MLOAD SWAP2 DUP3 SWAP2 DUP3 DUP8 MSTORE ADD DUP7 DUP7 ADD MCOPY PUSH0 DUP6 DUP3 DUP7 ADD ADD MSTORE ADD AND ADD ADD SWAP1 JUMP JUMPDEST PUSH32 0x8000000000000000000000000000000000000000000000000000000000000000 SWAP2 SWAP1 PUSH0 DUP1 JUMPDEST DUP3 MLOAD DUP2 LT ISZERO PUSH2 0x91E JUMPI PUSH0 PUSH2 0x8E0 DUP3 DUP6 PUSH2 0x7B8 JUMP JUMPDEST MLOAD SLT DUP1 PUSH2 0x90B JUMPI JUMPDEST PUSH2 0x8F5 JUMPI JUMPDEST PUSH1 0x1 ADD PUSH2 0x8CC JUMP JUMPDEST DUP1 SWAP5 POP PUSH2 0x903 SWAP2 POP DUP3 PUSH2 0x7B8 JUMP JUMPDEST MLOAD SWAP3 DUP1 PUSH2 0x8ED JUMP JUMPDEST POP DUP5 PUSH2 0x917 DUP3 DUP6 PUSH2 0x7B8 JUMP JUMPDEST MLOAD SGT PUSH2 0x8E8 JUMP JUMPDEST POP SWAP3 POP POP JUMP JUMPDEST PUSH32 0x7FFFFFFFFFFFFFFFFFFFFFFFFFFFFFFFFFFFFFFFFFFFFFFFFFFFFFFFFFFFFFFF SWAP2 SWAP1 PUSH0 DUP1 JUMPDEST DUP3 MLOAD DUP2 LT ISZERO PUSH2 0x91E JUMPI PUSH0 PUSH2 0x95E DUP3 DUP6 PUSH2 0x7B8 JUMP JUMPDEST MLOAD SGT DUP1 PUSH2 0x989 JUMPI JUMPDEST PUSH2 0x973 JUMPI JUMPDEST PUSH1 0x1 ADD PUSH2 0x94A JUMP JUMPDEST DUP1 SWAP5 POP PUSH2 0x981 SWAP2 POP DUP3 PUSH2 0x7B8 JUMP JUMPDEST MLOAD SWAP3 DUP1 PUSH2 0x96B JUMP JUMPDEST POP DUP5 PUSH2 0x995 DUP3 DUP6 PUSH2 0x7B8 JUMP JUMPDEST MLOAD SLT PUSH2 0x966 JUMP JUMPDEST SWAP3 SWAP1 SWAP4 PUSH0 SWAP4 PUSH1 0x40 MLOAD SWAP2 PUSH32 0xCA4F280300000000000000000000000000000000000000000000000000000000 DUP4 MSTORE PUSH20 0xFFFFFFFFFFFFFFFFFFFFFFFFFFFFFFFFFFFFFFFF DUP3 AND PUSH1 0x4 DUP5 ADD MSTORE PUSH0 DUP4 PUSH1 0x24 DUP2 PUSH20 0xFFFFFFFFFFFFFFFFFFFFFFFFFFFFFFFFFFFFFFFF PUSH32 0x0 AND GAS STATICCALL SWAP3 DUP4 ISZERO PUSH2 0xE30 JUMPI PUSH0 SWAP4 PUSH2 0xD80 JUMPI JUMPDEST POP SWAP1 SWAP2 SWAP3 SWAP5 PUSH0 SWAP1 JUMPDEST DUP8 MLOAD PUSH32 0xFFFFFFFFFFFFFFFFFFFFFFFFFFFFFFFFFFFFFFFFFFFFFFFFFFFFFFFFFFFFFFFF DUP2 ADD SWAP1 DUP2 GT PUSH2 0x825 JUMPI DUP3 LT ISZERO PUSH2 0xD75 JUMPI POP SWAP1 DUP6 SWAP4 SWAP3 SWAP2 PUSH2 0xA7A DUP7 PUSH2 0x924 JUMP JUMPDEST SWAP1 DUP4 DUP10 DUP7 PUSH2 0xA87 DUP11 PUSH2 0x8A6 JUMP JUMPDEST SWAP11 DUP12 SWAP6 DUP12 PUSH2 0xAA3 PUSH2 0x4A2 DUP10 PUSH2 0xA9C DUP6 DUP6 PUSH2 0x7B8 JUMP JUMPDEST MLOAD SWAP4 PUSH2 0x7B8 JUMP JUMPDEST SGT ISZERO PUSH2 0xC44 JUMPI PUSH2 0xBC1 SWAP3 PUSH2 0xB77 DUP9 SWAP6 SWAP4 PUSH2 0xAF9 PUSH2 0xAF3 DUP6 PUSH20 0xFFFFFFFFFFFFFFFFFFFFFFFFFFFFFFFFFFFFFFFF PUSH2 0xAEB PUSH2 0xB85 SWAP9 SWAP12 SWAP15 DUP3 PUSH2 0xAE3 DUP6 DUP12 PUSH2 0x7B8 JUMP JUMPDEST MLOAD AND SWAP9 PUSH2 0x7B8 JUMP JUMPDEST MLOAD AND SWAP8 PUSH2 0x7B8 JUMP JUMPDEST MLOAD PUSH2 0x1026 JUMP JUMPDEST PUSH1 0x40 MLOAD SWAP6 DUP7 SWAP5 PUSH1 0x20 SWAP11 PUSH32 0x3EBC54E500000000000000000000000000000000000000000000000000000000 DUP13 DUP9 ADD MSTORE PUSH1 0x24 DUP8 ADD SWAP4 SWAP1 PUSH1 0xE0 SWAP6 SWAP3 SWAP4 PUSH20 0xFFFFFFFFFFFFFFFFFFFFFFFFFFFFFFFFFFFFFFFF DUP1 SWAP6 DUP2 DUP1 SWAP5 AND DUP9 MSTORE AND PUSH1 0x20 DUP8 ADD MSTORE AND PUSH1 0x40 DUP6 ADD MSTORE PUSH1 0x60 DUP5 ADD MSTORE AND PUSH1 0x80 DUP3 ADD MSTORE PUSH1 0xC0 PUSH1 0xA0 DUP3 ADD MSTORE PUSH0 PUSH1 0xC0 DUP3 ADD MSTORE ADD SWAP1 JUMP JUMPDEST SUB PUSH1 0x1F NOT DUP2 ADD DUP4 MSTORE DUP3 PUSH2 0x65D JUMP JUMPDEST PUSH20 0xFFFFFFFFFFFFFFFFFFFFFFFFFFFFFFFFFFFFFFFF PUSH32 0x0 AND PUSH2 0x113B JUMP JUMPDEST DUP3 DUP2 DUP1 MLOAD DUP2 ADD SUB SLT PUSH2 0xB6 JUMPI PUSH2 0xBEC DUP3 PUSH0 PUSH2 0xBE5 DUP16 SWAP6 PUSH2 0xBF2 SWAP8 DUP4 SWAP7 ADD MLOAD SWAP7 PUSH2 0x7B8 JUMP JUMPDEST MSTORE DUP12 PUSH2 0x7B8 JUMP JUMPDEST MSTORE PUSH2 0xF41 JUMP JUMPDEST SWAP2 PUSH2 0xBFD DUP2 DUP12 PUSH2 0x7B8 JUMP JUMPDEST MLOAD PUSH0 DUP5 DUP3 ADD SWAP5 DUP6 SLT SWAP2 SLT SWAP1 DUP1 ISZERO DUP3 AND SWAP2 ISZERO AND OR PUSH2 0x825 JUMPI PUSH1 0x1 SWAP3 PUSH2 0xC21 DUP3 DUP13 PUSH2 0x7B8 JUMP JUMPDEST MSTORE PUSH2 0xC38 PUSH2 0xC31 DUP9 DUP13 DUP5 DUP10 PUSH2 0xF96 JUMP JUMPDEST SWAP2 DUP10 PUSH2 0x7B8 JUMP JUMPDEST MSTORE ADD SWAP1 SWAP2 SWAP3 SWAP4 SWAP6 PUSH2 0xA38 JUMP JUMPDEST SWAP6 SWAP4 POP POP POP POP DUP3 PUSH2 0xC55 SWAP1 DUP8 PUSH2 0x7B8 JUMP JUMPDEST MLOAD PUSH20 0xFFFFFFFFFFFFFFFFFFFFFFFFFFFFFFFFFFFFFFFF AND SWAP1 PUSH2 0xC77 DUP11 DUP9 PUSH2 0x7B8 JUMP JUMPDEST MLOAD PUSH20 0xFFFFFFFFFFFFFFFFFFFFFFFFFFFFFFFFFFFFFFFF AND PUSH2 0xC98 DUP12 DUP14 PUSH2 0x7B8 JUMP JUMPDEST MLOAD PUSH2 0xCA2 SWAP1 PUSH2 0x7F9 JUMP JUMPDEST PUSH2 0xCAB SWAP1 PUSH2 0x1026 JUMP JUMPDEST PUSH1 0x40 MLOAD PUSH32 0x175D440800000000000000000000000000000000000000000000000000000000 PUSH1 0x20 DUP1 DUP4 ADD SWAP2 SWAP1 SWAP2 MSTORE PUSH20 0xFFFFFFFFFFFFFFFFFFFFFFFFFFFFFFFFFFFFFFFF DUP11 DUP2 AND PUSH1 0x24 DUP5 ADD MSTORE SWAP6 DUP7 AND PUSH1 0x44 DUP4 ADD MSTORE SWAP3 DUP6 AND PUSH1 0x64 DUP3 ADD MSTORE PUSH1 0x84 DUP2 ADD SWAP2 SWAP1 SWAP2 MSTORE SWAP3 DUP10 AND PUSH1 0xA4 DUP5 ADD MSTORE PUSH1 0xC0 PUSH1 0xC4 DUP5 ADD MSTORE PUSH0 PUSH1 0xE4 DUP1 DUP6 ADD SWAP2 SWAP1 SWAP2 MSTORE DUP4 MSTORE SWAP2 PUSH2 0xD35 PUSH2 0x104 DUP3 PUSH2 0x65D JUMP JUMPDEST PUSH2 0xBC1 SWAP1 PUSH20 0xFFFFFFFFFFFFFFFFFFFFFFFFFFFFFFFFFFFFFFFF PUSH32 0x0 AND PUSH2 0x113B JUMP JUMPDEST SWAP6 POP POP SWAP5 POP POP POP POP SWAP1 JUMP JUMPDEST SWAP1 SWAP3 POP RETURNDATASIZE DUP1 PUSH0 DUP4 RETURNDATACOPY PUSH2 0xD92 DUP2 DUP4 PUSH2 0x65D JUMP JUMPDEST DUP2 ADD SWAP1 PUSH1 0x20 SWAP1 DUP2 DUP2 DUP5 SUB SLT PUSH2 0xB6 JUMPI DUP1 MLOAD SWAP1 PUSH8 0xFFFFFFFFFFFFFFFF DUP3 GT PUSH2 0xB6 JUMPI ADD SWAP2 DUP1 PUSH1 0x1F DUP5 ADD SLT ISZERO PUSH2 0xB6 JUMPI DUP3 MLOAD PUSH2 0xDCB DUP2 PUSH2 0x6AD JUMP JUMPDEST SWAP4 PUSH2 0xDD9 PUSH1 0x40 MLOAD SWAP6 DUP7 PUSH2 0x65D JUMP JUMPDEST DUP2 DUP6 MSTORE DUP4 DUP1 DUP7 ADD SWAP3 PUSH1 0x5 SHL DUP3 ADD ADD SWAP3 DUP4 GT PUSH2 0xB6 JUMPI DUP4 ADD SWAP1 JUMPDEST DUP3 DUP3 LT PUSH2 0xE04 JUMPI POP POP POP POP SWAP2 PUSH0 PUSH2 0xA30 JUMP JUMPDEST DUP2 MLOAD PUSH20 0xFFFFFFFFFFFFFFFFFFFFFFFFFFFFFFFFFFFFFFFF DUP2 AND DUP2 SUB PUSH2 0xB6 JUMPI DUP2 MSTORE SWAP1 DUP4 ADD SWAP1 DUP4 ADD PUSH2 0xDF2 JUMP JUMPDEST PUSH1 0x40 MLOAD RETURNDATASIZE PUSH0 DUP3 RETURNDATACOPY RETURNDATASIZE SWAP1 REVERT JUMPDEST SWAP1 SWAP3 SWAP2 PUSH20 0xFFFFFFFFFFFFFFFFFFFFFFFFFFFFFFFFFFFFFFFF PUSH1 0x40 MLOAD SWAP2 PUSH1 0x20 SWAP4 PUSH32 0xDA001F7D00000000000000000000000000000000000000000000000000000000 DUP6 DUP6 ADD MSTORE DUP3 PUSH1 0xA4 DUP6 ADD SWAP2 AND PUSH1 0x24 DUP6 ADD MSTORE PUSH1 0x80 PUSH1 0x44 DUP6 ADD MSTORE DUP7 MLOAD DUP1 SWAP2 MSTORE DUP5 PUSH1 0xC4 DUP6 ADD SWAP8 ADD SWAP1 PUSH0 JUMPDEST DUP2 DUP2 LT PUSH2 0xF2D JUMPI POP POP POP DUP4 PUSH2 0xF1C SWAP5 SWAP6 SWAP7 DUP4 PUSH2 0xEF5 SWAP4 AND PUSH1 0x64 DUP7 ADD MSTORE PUSH0 DUP6 DUP3 SUB SWAP2 PUSH32 0xFFFFFFFFFFFFFFFFFFFFFFFFFFFFFFFFFFFFFFFFFFFFFFFFFFFFFFFFFFFFFFDC DUP4 ADD PUSH1 0x84 DUP9 ADD MSTORE MSTORE DUP1 DUP6 MSTORE ADD DUP4 PUSH2 0x65D JUMP JUMPDEST PUSH32 0x0 AND PUSH2 0x113B JUMP JUMPDEST DUP2 DUP2 DUP1 MLOAD DUP2 ADD SUB SLT PUSH2 0xB6 JUMPI ADD MLOAD SWAP1 JUMP JUMPDEST DUP3 MLOAD DUP10 MSTORE SWAP8 DUP7 ADD SWAP8 SWAP2 DUP7 ADD SWAP2 PUSH1 0x1 ADD PUSH2 0xEA1 JUMP JUMPDEST PUSH32 0x7FFFFFFFFFFFFFFFFFFFFFFFFFFFFFFFFFFFFFFFFFFFFFFFFFFFFFFFFFFFFFFF DUP2 GT PUSH2 0xF6B JUMPI SWAP1 JUMP JUMPDEST PUSH32 0x24775E0600000000000000000000000000000000000000000000000000000000 PUSH0 MSTORE PUSH1 0x4 MSTORE PUSH1 0x24 PUSH0 REVERT JUMPDEST SWAP3 SWAP1 SWAP2 PUSH2 0xFD1 DUP4 DUP3 MLOAD SWAP3 PUSH1 0x1F NOT PUSH2 0xFC5 PUSH2 0xFAF DUP7 PUSH2 0x6AD JUMP JUMPDEST SWAP6 PUSH2 0xFBD PUSH1 0x40 MLOAD SWAP8 DUP9 PUSH2 0x65D JUMP JUMPDEST DUP1 DUP8 MSTORE PUSH2 0x6AD JUMP JUMPDEST ADD CALLDATASIZE PUSH1 0x20 DUP7 ADD CALLDATACOPY PUSH2 0x7B8 JUMP JUMPDEST MLOAD SWAP4 DUP5 ISZERO PUSH2 0x101D JUMPI PUSH2 0xFF9 SWAP4 PUSH2 0xFF3 PUSH0 DUP8 SGT SWAP7 DUP8 PUSH0 EQ PUSH2 0x100E JUMPI SWAP2 JUMPDEST DUP5 PUSH2 0x7B8 JUMP JUMPDEST MSTORE PUSH2 0xE3B JUMP JUMPDEST SWAP1 ISZERO PUSH2 0x1002 JUMPI SWAP1 JUMP JUMPDEST PUSH2 0x100B SWAP1 PUSH2 0x7F9 JUMP JUMPDEST SWAP1 JUMP JUMPDEST PUSH2 0x1017 SWAP1 PUSH2 0x7F9 JUMP JUMPDEST SWAP2 PUSH2 0xFED JUMP JUMPDEST POP POP POP POP POP PUSH0 SWAP1 JUMP JUMPDEST PUSH0 DUP2 SLT PUSH2 0x1030 JUMPI SWAP1 JUMP JUMPDEST PUSH32 0xA8CE443200000000000000000000000000000000000000000000000000000000 PUSH0 MSTORE PUSH1 0x4 MSTORE PUSH1 0x24 PUSH0 REVERT JUMPDEST PUSH1 0x4 DUP2 MLOAD LT PUSH2 0x106B JUMPI PUSH1 0x20 ADD MLOAD SWAP1 JUMP JUMPDEST PUSH32 0xA728568900000000000000000000000000000000000000000000000000000000 PUSH0 MSTORE PUSH1 0x4 PUSH0 REVERT JUMPDEST DUP1 MLOAD ISZERO PUSH2 0x106B JUMPI DUP1 MLOAD SWAP1 PUSH1 0x20 ADD REVERT JUMPDEST SWAP1 PUSH2 0x10DF JUMPI POP DUP1 MLOAD ISZERO PUSH2 0x10B7 JUMPI DUP1 MLOAD SWAP1 PUSH1 0x20 ADD REVERT JUMPDEST PUSH32 0x1425EA4200000000000000000000000000000000000000000000000000000000 PUSH0 MSTORE PUSH1 0x4 PUSH0 REVERT JUMPDEST DUP2 MLOAD ISZERO DUP1 PUSH2 0x1132 JUMPI JUMPDEST PUSH2 0x10F0 JUMPI POP SWAP1 JUMP JUMPDEST PUSH20 0xFFFFFFFFFFFFFFFFFFFFFFFFFFFFFFFFFFFFFFFF SWAP1 PUSH32 0x9996B31500000000000000000000000000000000000000000000000000000000 PUSH0 MSTORE AND PUSH1 0x4 MSTORE PUSH1 0x24 PUSH0 REVERT JUMPDEST POP DUP1 EXTCODESIZE ISZERO PUSH2 0x10E8 JUMP JUMPDEST SWAP1 ADDRESS EXTCODESIZE ISZERO PUSH2 0xB6 JUMPI PUSH0 PUSH2 0x11A0 SWAP2 PUSH1 0x40 MLOAD DUP1 SWAP4 DUP2 SWAP3 PUSH32 0xA769963800000000000000000000000000000000000000000000000000000000 DUP4 MSTORE PUSH20 0xFFFFFFFFFFFFFFFFFFFFFFFFFFFFFFFFFFFFFFFF DUP6 SWAP8 AND PUSH1 0x4 DUP5 ADD MSTORE PUSH1 0x40 PUSH1 0x24 DUP5 ADD MSTORE PUSH1 0x44 DUP4 ADD SWAP1 PUSH2 0x881 JUMP JUMPDEST SUB DUP2 DUP4 ADDRESS GAS CALL SWAP1 DUP2 PUSH2 0x12F7 JUMPI JUMPDEST POP PUSH2 0x1299 JUMPI PUSH2 0x11BA PUSH2 0x852 JUMP JUMPDEST SWAP1 PUSH32 0x5AB64FB800000000000000000000000000000000000000000000000000000000 PUSH32 0xFFFFFFFF00000000000000000000000000000000000000000000000000000000 PUSH2 0x1206 DUP5 PUSH2 0x105B JUMP JUMPDEST AND SUB PUSH2 0x1293 JUMPI DUP2 MLOAD SWAP2 PUSH1 0x20 PUSH1 0x3 NOT SWAP4 DUP5 DUP2 ADD PUSH1 0x4 DUP5 ADD MSTORE DUP3 ADD SWAP4 DUP3 DUP3 DUP7 ADD SWAP6 SUB ADD SLT PUSH2 0x128F JUMPI PUSH1 0x24 DUP2 ADD MLOAD SWAP1 PUSH8 0xFFFFFFFFFFFFFFFF DUP3 GT PUSH2 0x128B JUMPI ADD DUP3 PUSH1 0x43 DUP3 ADD SLT ISZERO PUSH2 0x128F JUMPI PUSH1 0x24 DUP2 ADD MLOAD SWAP1 PUSH2 0x125C DUP3 PUSH2 0x76B JUMP JUMPDEST SWAP4 PUSH2 0x126A PUSH1 0x40 MLOAD SWAP6 DUP7 PUSH2 0x65D JUMP JUMPDEST DUP3 DUP6 MSTORE PUSH1 0x44 DUP4 DUP4 ADD ADD GT PUSH2 0x128B JUMPI SWAP1 DUP1 PUSH1 0x44 PUSH1 0x20 SWAP4 ADD DUP4 DUP7 ADD MCOPY DUP4 ADD ADD MSTORE SWAP1 JUMP JUMPDEST DUP3 DUP1 REVERT JUMPDEST POP DUP1 REVERT JUMPDEST POP PUSH2 0x1093 JUMP JUMPDEST PUSH1 0x64 PUSH1 0x40 MLOAD PUSH32 0x8C379A000000000000000000000000000000000000000000000000000000000 DUP2 MSTORE PUSH1 0x20 PUSH1 0x4 DUP3 ADD MSTORE PUSH1 0x12 PUSH1 0x24 DUP3 ADD MSTORE PUSH32 0x556E657870656374656420737563636573730000000000000000000000000000 PUSH1 0x44 DUP3 ADD MSTORE REVERT JUMPDEST SWAP1 SWAP2 POP PUSH8 0xFFFFFFFFFFFFFFFF DUP2 GT PUSH2 0x680 JUMPI PUSH1 0x40 MSTORE PUSH0 SWAP1 PUSH0 PUSH2 0x11AD JUMP INVALID LOG2 PUSH5 0x6970667358 0x22 SLT KECCAK256 0xC0 PUSH17 0xEE5C5CFC54C1AEC9BBCB80FD08493778EB 0xB2 OR 0xD1 0xC4 LOG3 GASPRICE LOG2 PUSH23 0x197B359E2264736F6C634300081B003300000000000000 "},"methodIdentifiers":{"calculateAddLiquidityUnbalancedPriceImpact(address,uint256[],address)":"48406a54","callAndRevertHook(address,bytes)":"a7699638","maxNegativeIndex(int256[])":"01ef39ee","minPositiveIndex(int256[])":"0d4277d1","queryAddLiquidityUnbalancedForTokenDeltas(address,uint256,int256[],address)":"e3a50d82","zeroOutDeltas(address,int256[],int256[],address)":"3b064ca3"}}}}}