{
  "_format": "hh-sol-artifact-1",
  "contractName": "WeightedLPOracleFactory",
  "sourceName": "contracts/WeightedLPOracleFactory.sol",
  "abi": [
    {
      "inputs": [
        {
          "internalType": "contract IVault",
          "name": "vault",
          "type": "address"
        },
        {
          "internalType": "string",
          "name": "factoryVersion",
          "type": "string"
        },
        {
          "internalType": "uint256",
          "name": "oracleVersion",
          "type": "uint256"
        }
      ],
      "stateMutability": "nonpayable",
      "type": "constructor"
    },
    {
      "inputs": [],
      "name": "InputLengthMismatch",
      "type": "error"
    },
    {
      "inputs": [
        {
          "internalType": "contract IBasePool",
          "name": "pool",
          "type": "address"
        },
        {
          "internalType": "contract AggregatorV3Interface[]",
          "name": "feeds",
          "type": "address[]"
        },
        {
          "internalType": "contract ILPOracleBase",
          "name": "oracle",
          "type": "address"
        }
      ],
      "name": "OracleAlreadyExists",
      "type": "error"
    },
    {
      "inputs": [],
      "name": "OracleFactoryIsDisabled",
      "type": "error"
    },
    {
      "inputs": [],
      "name": "SenderNotAllowed",
      "type": "error"
    },
    {
      "inputs": [],
      "name": "VaultNotSet",
      "type": "error"
    },
    {
      "anonymous": false,
      "inputs": [],
      "name": "OracleFactoryDisabled",
      "type": "event"
    },
    {
      "anonymous": false,
      "inputs": [
        {
          "indexed": true,
          "internalType": "contract IWeightedPool",
          "name": "pool",
          "type": "address"
        },
        {
          "indexed": false,
          "internalType": "contract AggregatorV3Interface[]",
          "name": "feeds",
          "type": "address[]"
        },
        {
          "indexed": false,
          "internalType": "contract IWeightedLPOracle",
          "name": "oracle",
          "type": "address"
        }
      ],
      "name": "WeightedLPOracleCreated",
      "type": "event"
    },
    {
      "inputs": [
        {
          "internalType": "contract IBasePool",
          "name": "pool",
          "type": "address"
        },
        {
          "internalType": "contract AggregatorV3Interface[]",
          "name": "feeds",
          "type": "address[]"
        }
      ],
      "name": "create",
      "outputs": [
        {
          "internalType": "contract ILPOracleBase",
          "name": "oracle",
          "type": "address"
        }
      ],
      "stateMutability": "nonpayable",
      "type": "function"
    },
    {
      "inputs": [],
      "name": "disable",
      "outputs": [],
      "stateMutability": "nonpayable",
      "type": "function"
    },
    {
      "inputs": [
        {
          "internalType": "bytes4",
          "name": "selector",
          "type": "bytes4"
        }
      ],
      "name": "getActionId",
      "outputs": [
        {
          "internalType": "bytes32",
          "name": "",
          "type": "bytes32"
        }
      ],
      "stateMutability": "view",
      "type": "function"
    },
    {
      "inputs": [],
      "name": "getAuthorizer",
      "outputs": [
        {
          "internalType": "contract IAuthorizer",
          "name": "",
          "type": "address"
        }
      ],
      "stateMutability": "view",
      "type": "function"
    },
    {
      "inputs": [
        {
          "internalType": "contract IBasePool",
          "name": "pool",
          "type": "address"
        },
        {
          "internalType": "contract AggregatorV3Interface[]",
          "name": "feeds",
          "type": "address[]"
        }
      ],
      "name": "getOracle",
      "outputs": [
        {
          "internalType": "contract ILPOracleBase",
          "name": "oracle",
          "type": "address"
        }
      ],
      "stateMutability": "view",
      "type": "function"
    },
    {
      "inputs": [],
      "name": "getOracleVersion",
      "outputs": [
        {
          "internalType": "uint256",
          "name": "",
          "type": "uint256"
        }
      ],
      "stateMutability": "view",
      "type": "function"
    },
    {
      "inputs": [],
      "name": "getVault",
      "outputs": [
        {
          "internalType": "contract IVault",
          "name": "",
          "type": "address"
        }
      ],
      "stateMutability": "view",
      "type": "function"
    },
    {
      "inputs": [
        {
          "internalType": "contract ILPOracleBase",
          "name": "oracle",
          "type": "address"
        }
      ],
      "name": "isOracleFromFactory",
      "outputs": [
        {
          "internalType": "bool",
          "name": "success",
          "type": "bool"
        }
      ],
      "stateMutability": "view",
      "type": "function"
    },
    {
      "inputs": [],
      "name": "version",
      "outputs": [
        {
          "internalType": "string",
          "name": "",
          "type": "string"
        }
      ],
      "stateMutability": "view",
      "type": "function"
    }
  ],
  "bytecode": "0x60c06040523461022d5761377f8038038061001981610231565b92833981019060608183031261022d5780516001600160a01b038116919082810361022d576020828101516001600160401b0392919083811161022d57840191601f9287848201121561022d5780519585871161020a57601f199661008386820189168601610231565b99818b5285828501011161022d5784815f928c83806040980191015e8b010152015195306080521561021e5760a052855192831161020a575f54936001948581811c91168015610200575b838210146101ec578381116101a9575b508192841160011461014b575050819293945f92610140575b50505f19600383901b1c191690821b175f555b556040516135289081610257823960805181610a22015260a05181818160d4015281816103de0152818161047f01526107310152f35b015190505f806100f7565b5f808052828120918516979193925b888210610192575050838596971061017a575b505050811b015f5561010a565b01515f1960f88460031b161c191690555f808061016d565b80878596829496860151815501950193019061015a565b5f8052825f208480870160051c8201928588106101e3575b0160051c019086905b8281106101d85750506100de565b5f81550186906101ca565b925081926101c1565b634e487b7160e01b5f52602260045260245ffd5b90607f16906100ce565b634e487b7160e01b5f52604160045260245ffd5b630647140b60e51b5f5260045ffd5b5f80fd5b6040519190601f01601f191682016001600160401b0381118382101761020a5760405256fe60406080815260049081361015610014575f80fd5b5f358060e01c9081631e06727c1461089d5781632f2770db146106af575080633ad671ed1461066557806344ae107d1461064757806354fd4d50146104f3578063851c1bb3146104a35780638d928af814610453578063aaabadc51461038a5763cd1d977614610082575f80fd5b346103305761009036610947565b91909261009b610b66565b6100a58385610ae2565b805f526020946003865273ffffffffffffffffffffffffffffffffffffffff80855f2054168061033e575080807f00000000000000000000000000000000000000000000000000000000000000001692169185517fca4f280300000000000000000000000000000000000000000000000000000000815283868201525f81602481855afa908115610334575f9161029b575b50518751036102745760015490865191612958918284019284841067ffffffffffffffff851117610248579084939291610b9b85398252858b8301526080898301526060610188608084018c610a99565b92015203905ff0801561023e577fe0069734b16284788f30f5d261a5dec383ba2c619b79d958561b3f859bd5d407916101ce911696865191829188835288830190610a99565b888a8301520390a25f5260038452815f20837fffffffffffffffffffffffff0000000000000000000000000000000000000000825416179055825f528352805f2060017fffffffffffffffffffffffffffffffffffffffffffffffffffffffffffffff0082541617905551908152f35b85513d5f823e3d90fd5b6041897f4e487b71000000000000000000000000000000000000000000000000000000005f525260245ffd5b847faaad13f7000000000000000000000000000000000000000000000000000000005f525ffd5b90503d805f833e6102ac81836108df565b81019089818303126103305780519067ffffffffffffffff821161033057019080601f830112156103305781516102e28161092f565b926102ef8a5194856108df565b8184528b8085019260051b820101928311610330578b01905b828210610318575050505f610137565b81518681168103610330578152908b01908b01610308565b5f80fd5b87513d5f823e3d90fd5b85517f9842ef35000000000000000000000000000000000000000000000000000000008152918316828601526060602483015281906103806064830189610a99565b9060448301520390fd5b509034610330575f6003193601126103305773ffffffffffffffffffffffffffffffffffffffff6020835180937faaabadc500000000000000000000000000000000000000000000000000000000825281847f0000000000000000000000000000000000000000000000000000000000000000165afa91821561044957926020935f9361041a575b505191168152f35b61043b919350843d8611610442575b61043381836108df565b810190610a6d565b915f610412565b503d610429565b83513d5f823e3d90fd5b5034610330575f600319360112610330576020905173ffffffffffffffffffffffffffffffffffffffff7f0000000000000000000000000000000000000000000000000000000000000000168152f35b5090346103305760206003193601126103305735907fffffffff0000000000000000000000000000000000000000000000000000000082168203610330576104ec6020926109f7565b9051908152f35b5034610330575f6003193601126103305780515f5f549060018260011c906001841693841561063d575b602097888410861461061157509187918694938286528386019690815f146105d75750600114610581575b5050509161055d601f92601f199403856108df565b845195869481865251918280928701528686015e5f85828601015201168101030190f35b5f8080529293507f290decd9548b62a8d60345a988386fc84ba6bc95484008f6362f93160ef3e5635b8284106105c1575050508201018582601f19610548565b80548885018601528795509284019281016105aa565b7fffffffffffffffffffffffffffffffffffffffffffffffffffffffffffffff001687525050151560051b83010190508582601f19610548565b6022907f4e487b71000000000000000000000000000000000000000000000000000000005f525260245ffd5b91607f169161051d565b5034610330575f600319360112610330576020906001549051908152f35b50346103305760206003193601126103305781359173ffffffffffffffffffffffffffffffffffffffff8316809303610330576020925f52825260ff815f20541690519015158152f35b905034610330575f600319360112610330577fffffffff000000000000000000000000000000000000000000000000000000006106ec91166109f7565b73ffffffffffffffffffffffffffffffffffffffff9082517faaabadc500000000000000000000000000000000000000000000000000000000815260209182828781877f0000000000000000000000000000000000000000000000000000000000000000165afa91821561023e57908392915f9261087b575b50606490865195869384927f9be2a8840000000000000000000000000000000000000000000000000000000084528a840152336024840152306044840152165afa92831561087257505f9261083b575b505015610815576107c4610b66565b60017fffffffffffffffffffffffffffffffffffffffffffffffffffffffffffffff0060025416176002557ffe34e17b7303d60372d2f145fa39f112bc9d45876fab79a7724c0db0cd33f8e65f80a1005b7f23dada53000000000000000000000000000000000000000000000000000000005f525ffd5b90809250813d831161086b575b61085281836108df565b8101031261033057518015158103610330575f806107b5565b503d610848565b513d5f823e3d90fd5b606491925061089690843d86116104425761043381836108df565b9190610765565b8234610330576020906108b86108b236610947565b90610ae2565b5f526003825273ffffffffffffffffffffffffffffffffffffffff815f2054169051908152f35b90601f601f19910116810190811067ffffffffffffffff82111761090257604052565b7f4e487b71000000000000000000000000000000000000000000000000000000005f52604160045260245ffd5b67ffffffffffffffff81116109025760051b60200190565b9060406003198301126103305773ffffffffffffffffffffffffffffffffffffffff600435818116810361033057926024359067ffffffffffffffff82116103305780602383011215610330578160040135926109a38461092f565b936109b160405195866108df565b8085526020936024602087019260051b82010193841161033057602401905b8382106109df57505050505090565b813583811681036103305781529084019084016109d0565b6040517fffffffff0000000000000000000000000000000000000000000000000000000060208201927f00000000000000000000000000000000000000000000000000000000000000008452166040820152602481526060810181811067ffffffffffffffff8211176109025760405251902090565b90816020910312610330575173ffffffffffffffffffffffffffffffffffffffff811681036103305790565b9081518082526020808093019301915f5b828110610ab8575050505090565b835173ffffffffffffffffffffffffffffffffffffffff1685529381019392810192600101610aaa565b60405190816020936020820194606083019073ffffffffffffffffffffffffffffffffffffffff809516875260408085015282518092526020608085019301945f905b838210610b495750505050610b43925003601f1981018352826108df565b51902090565b865181168552958201958795509382019360019190910190610b25565b60ff60025416610b7257565b7fb110e99d000000000000000000000000000000000000000000000000000000005f5260045ffdfe6104006040908082523461051557612958803803809161001f8285610838565b83398101608082820312610515578151906001600160a01b0380831680840361051557602095868601519583871680970361051557808201516001600160401b03939084811161051557820196601f9287848a011215610515578851976100858961086f565b9961009287519b8c610838565b898b528c8b01908d60059b8c1b820101928311610515578d01905b82821061082057505050899a9260249260605f939c9b9c015160c05260a0528960805285519283809263ca4f280360e01b825260049c8d8301525afa908115610816575f9161078b575b50519360e099858b52885f88608051168751928380926395d89b4160e01b82525afa908115610781579084915f916106f2575b50602461015b9188519381859251918291018984015e8101630bd554d160e21b88820152038c810184520182610838565b80518381116106df575f54916001928381811c911680156106d5575b878210146106c257878111610680575b508590878311600114610621579282939183925f94610616575b50501b915f199060031b1c1916175f555b89518603610608579186959493915f8a948a996101ce8e610886565b51169c6101009d8e526101eb8a6101e483610886565b5116610918565b996102009a8b526007816101fe846108a7565b51169a6101209b8c52610214836101e4866108a7565b9d6102209e8f52600282116105e2575b600382116105bc575b8a8211610596575b8111610570575b6006811161054a575b11610523575b5050865163f89f27ed60e01b815295869182905afa938415610519575f9461048d575b5050505061027b81610886565b519561030096875261028c826108a7565b519761032098895260028b511161047a575b60038b5111610467575b8a5111610454575b895111610441575b600689511161042e575b600789511161041a575b505195611f7e97886109da893960805188818161010b015281816103b40152818161080601526109a5015260a051888181610131015281816103e00152610a01015260c051886106f10152518781816102850152818161050801528181610a9e01528181610cd80152610f180152518661122a015251856112570152610140518561128e015261016051856112c5015261018051856112fc01526101a0518561133301526101c0518561136e01526101e051856113a5015251846113db015251836114060152610240518361143a0152610260518361146e015261028051836114a201526102a051836114d601526102c0518361150d01526102e0518361154001525182610f4301525181610f6e01526103405181610fa201526103605181610fd60152610380518161100a01526103a0518161103e01526103c0518161107501526103e051816110a80152f35b61042390610907565b516103e0525f6102cc565b610437816108f7565b516103c0526102c2565b61044a816108e7565b516103a0526102b8565b61045d826108d7565b51610380526102b0565b610470836108c7565b51610360526102a8565b610483836108b7565b516103405261029e565b90919293503d805f833e6104a18183610838565b81019183828403126105155781519081116105155782910193840112156105155782516104cd8161086f565b936104da86519586610838565b81855283808601928b1b820101928311610515578301905b82821061050657505050505f80808061026e565b815181529083019083016104f2565b5f80fd5b85513d5f823e3d90fd5b6101e4828261053461053f95610907565b51166101e052610907565b6102e0525f8061024b565b82610554856108f7565b51166101c052610567836101e4866108f7565b6102c052610245565b8261057a856108e7565b51166101a05261058d836101e4866108e7565b6102a05261023c565b836105a0866108d7565b5116610180526105b3846101e4876108d7565b61028052610235565b836105c6866108c7565b5116610160526105d9846101e4876108c7565b6102605261022d565b836105ec866108b7565b5116610140526105ff846101e4876108b7565b61024052610224565b8863aaad13f760e01b5f525ffd5b015192505f806101a1565b90601f198316915f805283885f20935f5b8a888383106106695750505010610651575b505050811b015f556101b2565b01515f1960f88460031b161c191690555f8080610644565b868601518855909601959485019487935001610632565b5f8052865f20888d818601901c8201928986106106b9575b018d1c019084905b8281106106ae575050610187565b5f81550184906106a0565b92508192610698565b60228d634e487b7160e01b5f525260245ffd5b90607f1690610177565b60418b634e487b7160e01b5f525260245ffd5b9150503d805f833e6107048183610838565b81019084818303126105155780519084821161051557018186820112156105155780519084821161076e57875192610744838901601f1916880185610838565b8284528683830101116105155785925f848461015b9582602496018386015e83010152915061012a565b60418c634e487b7160e01b5f525260245ffd5b86513d5f823e3d90fd5b90503d805f833e61079c8183610838565b8101908281830312610515578051908682116105155701908084830112156105155781516107c98161086f565b926107d687519485610838565b81845284808501928b1b820101928311610515578401905b8282106107fe575050505f6100f7565b815189811681036105155781529084019084016107ee565b84513d5f823e3d90fd5b81518a81168103610515578152908d01908d016100ad565b601f909101601f19168101906001600160401b0382119082101761085b57604052565b634e487b7160e01b5f52604160045260245ffd5b6001600160401b03811161085b5760051b60200190565b8051156108935760200190565b634e487b7160e01b5f52603260045260245ffd5b8051600110156108935760400190565b8051600210156108935760600190565b8051600310156108935760800190565b8051600410156108935760a00190565b8051600510156108935760c00190565b8051600610156108935760e00190565b805160071015610893576101000190565b60405163313ce56760e01b815290602090829060049082906001600160a01b03165afa80156109ce575f90610991575b60ff91501660128111610982576012036012811161096e57604d811161096e57600a0a90565b634e487b7160e01b5f52601160045260245ffd5b636a78e98160e11b5f5260045ffd5b506020813d6020116109c6575b816109ab60209383610838565b81010312610515575160ff811681036105155760ff90610948565b3d915061099e565b6040513d5f823e3d90fdfe6080604081815260049182361015610015575f80fd5b5f3560e01c90816316f0115b146107dc5750806322acb867146107bf578063313ce567146107a457806347bcac3b1461071457806354fd4d50146106da5780637284e416146105865780637fe955d4146104f257806389c06568146103645780639a6fc8f51461031d578063af1296d3146102c0578063cd2c9e701461026b5763feaf968c146100a3575f80fd5b34610255575f600319360112610255576100c760246100c0610cd6565b9290610984565b93602073ffffffffffffffffffffffffffffffffffffffff8551938480927fe4dc2aa4000000000000000000000000000000000000000000000000000000008252807f000000000000000000000000000000000000000000000000000000000000000016868301527f0000000000000000000000000000000000000000000000000000000000000000165afa918215610261575f92610229575b50811561020357670de0b6b3a7640000948581029581870414901517156101d757506101bb8460015f937fffffffffffffffffffffffffffffffffffffffffffffffffffffffffffffffff60a09801040190151502611568565b92805193828552602085015283015260608201525f6080820152f35b6011907f4e487b71000000000000000000000000000000000000000000000000000000005f525260245ffd5b7f0a0c22c7000000000000000000000000000000000000000000000000000000005f525ffd5b9091506020813d602011610259575b816102456020938361085d565b810103126102555751905f610161565b5f80fd5b3d9150610238565b84513d5f823e3d90fd5b5034610255575f600319360112610255576102bc906102a97f00000000000000000000000000000000000000000000000000000000000000006113cf565b905191829160208352602083019061082a565b0390f35b5034610255575f600319360112610255576102d9610cd6565b91805191818301918352805180925260608301916020809201915f5b828110610309578580868960208301520390f35b8351855293810193928101926001016102f5565b509034610255576020600319360112610255573569ffffffffffffffffffff81160361025557805f60a09251918183528160208401528201525f60608201525f6080820152f35b5034610255575f6003193601126102555773ffffffffffffffffffffffffffffffffffffffff918151907fca4f2803000000000000000000000000000000000000000000000000000000008252837f000000000000000000000000000000000000000000000000000000000000000016908201525f81602481867f0000000000000000000000000000000000000000000000000000000000000000165afa9081156104e8575f9161044f575b50815191602090602080850191818652845180935285019301915f5b8281106104395785850386f35b835187168552938101939281019260010161042c565b90503d805f833e610460818361085d565b81019060209081818403126102555780519067ffffffffffffffff821161025557019180601f84011215610255578251610499816108ad565b936104a68651958661085d565b818552838086019260051b820101928311610255578301905b8282106104d057505050505f610410565b815187811681036102555781529083019083016104bf565b82513d5f823e3d90fd5b5034610255575f6003193601126102555761052c7f00000000000000000000000000000000000000000000000000000000000000006111da565b908051918291602090602080850191818652845180935285019301915f5b82811061055957505050500390f35b835173ffffffffffffffffffffffffffffffffffffffff168552869550938101939281019260010161054a565b5034610255575f6003193601126102555780515f5f549060018260011c90600184169384156106d0575b60209788841086146106a457509187918694938286528386019690815f1461066a5750600114610614575b505050916105f0601f92601f1994038561085d565b845195869481865251918280928701528686015e5f85828601015201168101030190f35b5f8080529293507f290decd9548b62a8d60345a988386fc84ba6bc95484008f6362f93160ef3e5635b828410610654575050508201018582601f196105db565b805488850186015287955092840192810161063d565b7fffffffffffffffffffffffffffffffffffffffffffffffffffffffffffffff001687525050151560051b83010190508582601f196105db565b6022907f4e487b71000000000000000000000000000000000000000000000000000000005f525260245ffd5b91607f16916105b0565b5034610255575f60031936011261025557602090517f00000000000000000000000000000000000000000000000000000000000000008152f35b5034610255576020806003193601126102555782359267ffffffffffffffff841161025557366023850112156102555783013592610751846108ad565b9361075e8451958661085d565b8085526024602086019160051b8301019136831161025557602401905b8282106107955760208561078e88610984565b9051908152f35b8135815290830190830161077b565b5034610255575f600319360112610255576020905160128152f35b5034610255575f600319360112610255576102bc906102a9610f16565b34610255575f6003193601126102555760209073ffffffffffffffffffffffffffffffffffffffff7f0000000000000000000000000000000000000000000000000000000000000000168152f35b9081518082526020808093019301915f5b828110610849575050505090565b83518552938101939281019260010161083b565b90601f601f19910116810190811067ffffffffffffffff82111761088057604052565b7f4e487b71000000000000000000000000000000000000000000000000000000005f52604160045260245ffd5b67ffffffffffffffff81116108805760051b60200190565b8051156108d25760200190565b7f4e487b71000000000000000000000000000000000000000000000000000000005f52603260045260245ffd5b8051600110156108d25760400190565b8051600210156108d25760600190565b8051600310156108d25760800190565b8051600410156108d25760a00190565b8051600510156108d25760c00190565b8051600610156108d25760e00190565b8051600710156108d2576101000190565b80518210156108d25760209160051b010190565b61098c610f16565b73ffffffffffffffffffffffffffffffffffffffff91827f000000000000000000000000000000000000000000000000000000000000000016926040938451907f535cfd8a0000000000000000000000000000000000000000000000000000000082526004918160048201525f8160248181977f0000000000000000000000000000000000000000000000000000000000000000165afa908115610cb5575f91610c23575b50602090610a7392885180809581947f984de9e80000000000000000000000000000000000000000000000000000000083528c6004840152604483019061082a565b5f602483015203915afa958615610c1a57505f95610be6575b50929190670de0b6b3a7640000935f937f0000000000000000000000000000000000000000000000000000000000000000935b848610610ae357505050505050670de0b6b3a764000091610adf916110d8565b0490565b909192939495610af38783610970565b515f8112610bbc57610b058885610970565b51670de0b6b3a7640000820291808304670de0b6b3a76400001490151715610b91578015610b6657600192610b53670de0b6b3a764000093610b5993610b4b8d8a610970565b519104611118565b906110d8565b0496019493929190610abf565b866012877f4e487b71000000000000000000000000000000000000000000000000000000005f52525ffd5b866011877f4e487b71000000000000000000000000000000000000000000000000000000005f52525ffd5b8590857fa8ce4432000000000000000000000000000000000000000000000000000000005f52525ffd5b9094506020813d602011610c12575b81610c026020938361085d565b810103126102555751935f610a8c565b3d9150610bf5565b513d5f823e3d90fd5b90503d805f833e610c34818361085d565b81019060209081818403126102555780519067ffffffffffffffff821161025557019180601f84011215610255578251610c6d816108ad565b93610c7a8b51958661085d565b818552838086019260051b820101928311610255578301905b828210610ca65750505050610a73610a31565b81518152908301908301610c93565b87513d5f823e3d90fd5b519069ffffffffffffffffffff8216820361025557565b7f000000000000000000000000000000000000000000000000000000000000000090610d01826111da565b90610d0b836113cf565b91610d15846108ad565b604094610d25604051928361085d565b808252610d31816108ad565b601f196020910136602085013782967fffffffffffffffffffffffffffffffffffffffffffffffffffffffffffffffff965f955b848710610d755750505050505050565b9091929394959773ffffffffffffffffffffffffffffffffffffffff610d9b8a84610970565b511684518080927ffeaf968c00000000000000000000000000000000000000000000000000000000825260a092839160049384915afa928315610cb5575f925f94610e8d575b5050610df6610df08d88610970565b51611568565b91828102927f800000000000000000000000000000000000000000000000000000000000000081145f831216610e615781840514901517156101d757509060019291610e428c8b610970565b5280821015610e5a57505b9801959493929190610d65565b9050610e4d565b6011837f4e487b71000000000000000000000000000000000000000000000000000000005f525260245ffd5b809294508193503d8311610ede575b610ea6818361085d565b8101031261025557610eb781610cbf565b9187820151918781015192610ed3608060608401519301610cbf565b94509250925f610de1565b503d610e9c565b90610eef826108ad565b610efc604051918261085d565b828152601f19610f0c82946108ad565b0190602036910137565b7f0000000000000000000000000000000000000000000000000000000000000000610f4081610ee5565b907f0000000000000000000000000000000000000000000000000000000000000000610f6b836108c5565b527f0000000000000000000000000000000000000000000000000000000000000000610f96836108ff565b5260028111156110d4577f0000000000000000000000000000000000000000000000000000000000000000610fca8361090f565b5260038111156110d4577f0000000000000000000000000000000000000000000000000000000000000000610ffe8361091f565b5260048111156110d4577f00000000000000000000000000000000000000000000000000000000000000006110328361092f565b5260058111156110d4577f00000000000000000000000000000000000000000000000000000000000000006110668361093f565b5260068111156110d4576007907f000000000000000000000000000000000000000000000000000000000000000061109d8461094f565b52116110a65790565b7f00000000000000000000000000000000000000000000000000000000000000006110d08261095f565b5290565b5090565b818102929181159184041417156110eb57565b7f4e487b71000000000000000000000000000000000000000000000000000000005f52601160045260245ffd5b670de0b6b3a76400009180830361112f5750905090565b8290671bc16d674ec80000810361114c57505080610adf916110d8565b673782dace9d9000008103611170575061116982610adf936110d8565b04806110d8565b905061117b9161160e565b6127108082029082820414821517156110eb5760017fffffffffffffffffffffffffffffffffffffffffffffffffffffffffffffffff9384830104019015150290600182018083116110eb578110156111d5575050505f90565b030190565b6111e3816108ad565b906111f1604051928361085d565b808252601f19611200826108ad565b01366020840137611210826108c5565b9073ffffffffffffffffffffffffffffffffffffffff91827f0000000000000000000000000000000000000000000000000000000000000000169052611255836108ff565b7f00000000000000000000000000000000000000000000000000000000000000008316905260028111156113ca5761128c8361090f565b7f00000000000000000000000000000000000000000000000000000000000000008316905260038111156113ca576112c38361091f565b7f00000000000000000000000000000000000000000000000000000000000000008316905260048111156113ca576112fa8361092f565b7f00000000000000000000000000000000000000000000000000000000000000008316905260058111156113ca576113318361093f565b7f00000000000000000000000000000000000000000000000000000000000000008316905260068111156113ca5760079061136b8461094f565b837f000000000000000000000000000000000000000000000000000000000000000016905211611399575090565b6113a28261095f565b907f000000000000000000000000000000000000000000000000000000000000000016905290565b505090565b6113d881610ee5565b907f0000000000000000000000000000000000000000000000000000000000000000611403836108c5565b527f000000000000000000000000000000000000000000000000000000000000000061142e836108ff565b5260028111156110d4577f00000000000000000000000000000000000000000000000000000000000000006114628361090f565b5260038111156110d4577f00000000000000000000000000000000000000000000000000000000000000006114968361091f565b5260048111156110d4577f00000000000000000000000000000000000000000000000000000000000000006114ca8361092f565b5260058111156110d4577f00000000000000000000000000000000000000000000000000000000000000006114fe8361093f565b5260068111156110d4576007907f00000000000000000000000000000000000000000000000000000000000000006115358461094f565b521161153e5790565b7f00000000000000000000000000000000000000000000000000000000000000006110d08261095f565b7f7fffffffffffffffffffffffffffffffffffffffffffffffffffffffffffffff81116115925790565b7f24775e06000000000000000000000000000000000000000000000000000000005f5260045260245ffd5b80156115d7576ec097ce7bc90715b34b9f10000000000590565b7f4e487b71000000000000000000000000000000000000000000000000000000005f52601260045260245ffd5b81156115d7570590565b908015611f3a578115611f34578160ff1c611f0c57770bce5086492111aea88f4bb1ca6bcf584181ea8059f76532811015611ee45781670c7d713b49da00001280611ed3575b15611b7057670de0b6b3a7640000916ec097ce7bc90715b34b9f1000000000906116a7908402828101907fffffffffffffffffffffffffffffffffff3f68318436f8ea4cb460f000000000018302611604565b9080828002059181838202058284820205838582020591848684020593858786020595808888020597880205600f900596600d900595600b900594600990059360079005926005900591600390050101010101010160011b918082818507020592050201670de0b6b3a7640000905b057ffffffffffffffffffffffffffffffffffffffffffffffffdc702bd3a30fc00008181131580611b5d575b15611b3557819082121580611b22575b15611afa575f915f8112611aeb575b506064906806f05b59d3b20000008112611a88577ffffffffffffffffffffffffffffffffffffffffffffffff90fa4a62c4e0000000168056bc75e2d6310000082770195e54c5dd42177f53a27172fa9ec630262827000000000925b02819068ad78ebc5ac62000000811215611a4f575b6856bc75e2d631000000811215611a15575b682b5e3af16b188000008112156119dd575b6815af1d78b58c4000008112156119a5575b680ad78ebc5ac620000081121561196e575b82811215611937575b6802b5e3af16b1880000811215611900575b68015af1d78b58c400008112156118c9575b60028382800205056003848383020505600485848302050585600581868402050560068287830205056007838883020505906008848984020505926009858a8602050595600a868b8902050597600b878c8b02050599600c888d8d0205059b01010101010101010101010102050205905f146118c6576118c6906115bd565b90565b6806f5f17757889379377ffffffffffffffffffffffffffffffffffffffffffffffffea50e2874a73c000084920192020590611847565b6808f00f760a4b2db55d7ffffffffffffffffffffffffffffffffffffffffffffffffd4a1c50e94e78000084920192020590611835565b680ebc5fb417461211107ffffffffffffffffffffffffffffffffffffffffffffffffa9438a1d29cf0000084920192020590611823565b68280e60114edb805d037ffffffffffffffffffffffffffffffffffffffffffffffff5287143a539e000008492019202059061181a565b690127fa27722cc06cc5e27fffffffffffffffffffffffffffffffffffffffffffffffea50e2874a73c0000084920192020590611808565b693f1fce3da636ea5cf8507fffffffffffffffffffffffffffffffffffffffffffffffd4a1c50e94e7800000849201920205906117f6565b6b02df0ab5a80a22c61ab5a7007fffffffffffffffffffffffffffffffffffffffffffffffa9438a1d29cf000000849201920205906117e4565b6e01855144814a7ff805980ff008400091507fffffffffffffffffffffffffffffffffffffffffffffff5287143a539e000000016117d2565b6803782dace9d90000008112611ad8577ffffffffffffffffffffffffffffffffffffffffffffffffc87d25316270000000168056bc75e2d63100000826b1425982cf597cd205cef7380926117bd565b68056bc75e2d63100000826001926117bd565b600192505f0390506064611761565b7fd4794efd000000000000000000000000000000000000000000000000000000005f5260045ffd5b5068070c1cc73b00c80000821315611752565b7fa2f9f7e3000000000000000000000000000000000000000000000000000000005f5260045ffd5b5068070c1cc73b00c80000821315611742565b81670de0b6b3a7640000925f91848112611ebd575b506064905f7e1600ef3172e58d2e933ec884fde10064c63b5372d805e203c0000000000000821215611e92575b73011798004d755d3c8bc8e03204cf44619e000000821215611e71575b820290808302906e01855144814a7ff805980ff00840009081831215611e4e575b50506b02df0ab5a80a22c61ab5a70080821215611e2e575b50693f1fce3da636ea5cf85080821215611e0e575b50690127fa27722cc06cc5e280821215611dee575b5068280e60114edb805d0380821215611dce575b50680ebc5fb4174612111080821215611db7575b506808f00f760a4b2db55d80821215611d97575b506806f5f177578893793780821215611d77575b506806248f33704b28660380821215611d58575b506805c548670b9510e7ac80821215611d39575b50611ce668056bc75e2d6310000091827ffffffffffffffffffffffffffffffffffffffffffffffffa9438a1d29cf00000818301920102611604565b9080828002059181838202058284820205916003600560076009600b888a89020598808b8b02059a8b0205059805960594059205010101010160011b0105905f14611d34575f035b02611716565b611d2e565b68056bc75e2d631000006756bc75e2d63100009202059101905f611caa565b68056bc75e2d6310000067ad78ebc5ac6200009202059101905f611c96565b68056bc75e2d6310000068015af1d78b58c400009202059101905f611c82565b68056bc75e2d631000006802b5e3af16b18800009202059101905f611c6e565b68056bc75e2d63100000809202059101905f611c5a565b68056bc75e2d63100000680ad78ebc5ac62000009202059101905f611c46565b68056bc75e2d631000006815af1d78b58c4000009202059101905f611c32565b68056bc75e2d63100000682b5e3af16b188000009202059101905f611c1d565b68056bc75e2d631000006856bc75e2d6310000009202059101905f611c08565b68ad78ebc5ac62000000925069021e19e0c9bab240000002059101905f80611bf0565b906b1425982cf597cd205cef73806803782dace9d900000091059101611bcf565b50770195e54c5dd42177f53a27172fa9ec63026282700000000090056806f05b59d3b2000000611bb2565b9050611ec991506115bd565b6001906064611b85565b50670f43fc2c04ee00008212611654565b7fd8317311000000000000000000000000000000000000000000000000000000005f5260045ffd5b7f022701e0000000000000000000000000000000000000000000000000000000005f5260045ffd5b50505f90565b5050670de0b6b3a76400009056fea264697066735822122027a8fa64ace04a763773b9b099c5b75bef28eb470efc46fffa7d00eaaf8aa11864736f6c634300081b0033a26469706673582212206df944adb2f006f5831a1bef7bd416109dc93633c5cf4cd24273ecce1444d84d64736f6c634300081b0033",
  "linkReferences": {},
  "deployedLinkReferences": {}
}