{
  "_format": "hh-sol-artifact-1",
  "contractName": "CowSwapFeeBurner",
  "sourceName": "contracts/CowSwapFeeBurner.sol",
  "abi": [
    {
      "inputs": [
        {
          "internalType": "contract IVault",
          "name": "_vault",
          "type": "address"
        },
        {
          "internalType": "contract IComposableCow",
          "name": "_composableCow",
          "type": "address"
        },
        {
          "internalType": "address",
          "name": "_vaultRelayer",
          "type": "address"
        },
        {
          "internalType": "bytes32",
          "name": "_appData",
          "type": "bytes32"
        },
        {
          "internalType": "string",
          "name": "_version",
          "type": "string"
        }
      ],
      "stateMutability": "nonpayable",
      "type": "constructor"
    },
    {
      "inputs": [
        {
          "internalType": "address",
          "name": "target",
          "type": "address"
        }
      ],
      "name": "AddressEmptyCode",
      "type": "error"
    },
    {
      "inputs": [
        {
          "internalType": "address",
          "name": "account",
          "type": "address"
        }
      ],
      "name": "AddressInsufficientBalance",
      "type": "error"
    },
    {
      "inputs": [
        {
          "internalType": "contract IERC20",
          "name": "tokenOut",
          "type": "address"
        },
        {
          "internalType": "uint256",
          "name": "amountOut",
          "type": "uint256"
        },
        {
          "internalType": "uint256",
          "name": "minAmountOut",
          "type": "uint256"
        }
      ],
      "name": "AmountOutBelowMin",
      "type": "error"
    },
    {
      "inputs": [],
      "name": "FailedInnerCall",
      "type": "error"
    },
    {
      "inputs": [],
      "name": "InterfaceIsSignatureVerifierMuxer",
      "type": "error"
    },
    {
      "inputs": [
        {
          "internalType": "string",
          "name": "reason",
          "type": "string"
        }
      ],
      "name": "InvalidOrderParameters",
      "type": "error"
    },
    {
      "inputs": [
        {
          "internalType": "enum ICowSwapFeeBurner.OrderStatus",
          "name": "actualStatus",
          "type": "uint8"
        }
      ],
      "name": "OrderHasUnexpectedStatus",
      "type": "error"
    },
    {
      "inputs": [
        {
          "internalType": "string",
          "name": "reason",
          "type": "string"
        }
      ],
      "name": "OrderNotValid",
      "type": "error"
    },
    {
      "inputs": [
        {
          "internalType": "string",
          "name": "reason",
          "type": "string"
        }
      ],
      "name": "PollNever",
      "type": "error"
    },
    {
      "inputs": [
        {
          "internalType": "uint256",
          "name": "blockNumber",
          "type": "uint256"
        },
        {
          "internalType": "string",
          "name": "reason",
          "type": "string"
        }
      ],
      "name": "PollTryAtBlock",
      "type": "error"
    },
    {
      "inputs": [
        {
          "internalType": "uint256",
          "name": "timestamp",
          "type": "uint256"
        },
        {
          "internalType": "string",
          "name": "reason",
          "type": "string"
        }
      ],
      "name": "PollTryAtEpoch",
      "type": "error"
    },
    {
      "inputs": [
        {
          "internalType": "string",
          "name": "reason",
          "type": "string"
        }
      ],
      "name": "PollTryNextBlock",
      "type": "error"
    },
    {
      "inputs": [
        {
          "internalType": "address",
          "name": "token",
          "type": "address"
        }
      ],
      "name": "SafeERC20FailedOperation",
      "type": "error"
    },
    {
      "inputs": [],
      "name": "SenderNotAllowed",
      "type": "error"
    },
    {
      "inputs": [],
      "name": "SwapDeadline",
      "type": "error"
    },
    {
      "anonymous": false,
      "inputs": [
        {
          "indexed": true,
          "internalType": "address",
          "name": "owner",
          "type": "address"
        },
        {
          "components": [
            {
              "internalType": "contract ICowConditionalOrder",
              "name": "handler",
              "type": "address"
            },
            {
              "internalType": "bytes32",
              "name": "salt",
              "type": "bytes32"
            },
            {
              "internalType": "bytes",
              "name": "staticData",
              "type": "bytes"
            }
          ],
          "indexed": false,
          "internalType": "struct ICowConditionalOrder.ConditionalOrderParams",
          "name": "params",
          "type": "tuple"
        }
      ],
      "name": "ConditionalOrderCreated",
      "type": "event"
    },
    {
      "anonymous": false,
      "inputs": [
        {
          "indexed": false,
          "internalType": "contract IERC20",
          "name": "tokenIn",
          "type": "address"
        },
        {
          "indexed": false,
          "internalType": "uint256",
          "name": "exactAmountIn",
          "type": "uint256"
        },
        {
          "indexed": false,
          "internalType": "address",
          "name": "receiver",
          "type": "address"
        }
      ],
      "name": "OrderCanceled",
      "type": "event"
    },
    {
      "anonymous": false,
      "inputs": [
        {
          "indexed": false,
          "internalType": "contract IERC20",
          "name": "tokenIn",
          "type": "address"
        },
        {
          "indexed": false,
          "internalType": "uint256",
          "name": "exactAmountIn",
          "type": "uint256"
        },
        {
          "indexed": false,
          "internalType": "uint256",
          "name": "minAmountOut",
          "type": "uint256"
        },
        {
          "indexed": false,
          "internalType": "uint256",
          "name": "deadline",
          "type": "uint256"
        }
      ],
      "name": "OrderRetried",
      "type": "event"
    },
    {
      "anonymous": false,
      "inputs": [
        {
          "indexed": true,
          "internalType": "address",
          "name": "pool",
          "type": "address"
        },
        {
          "indexed": true,
          "internalType": "contract IERC20",
          "name": "feeToken",
          "type": "address"
        },
        {
          "indexed": false,
          "internalType": "uint256",
          "name": "exactFeeTokenAmountIn",
          "type": "uint256"
        },
        {
          "indexed": true,
          "internalType": "contract IERC20",
          "name": "targetToken",
          "type": "address"
        },
        {
          "indexed": false,
          "internalType": "uint256",
          "name": "actualTargetTokenAmountOut",
          "type": "uint256"
        },
        {
          "indexed": false,
          "internalType": "address",
          "name": "recipient",
          "type": "address"
        }
      ],
      "name": "ProtocolFeeBurned",
      "type": "event"
    },
    {
      "inputs": [],
      "name": "appData",
      "outputs": [
        {
          "internalType": "bytes32",
          "name": "",
          "type": "bytes32"
        }
      ],
      "stateMutability": "view",
      "type": "function"
    },
    {
      "inputs": [
        {
          "internalType": "address",
          "name": "pool",
          "type": "address"
        },
        {
          "internalType": "contract IERC20",
          "name": "feeToken",
          "type": "address"
        },
        {
          "internalType": "uint256",
          "name": "feeTokenAmount",
          "type": "uint256"
        },
        {
          "internalType": "contract IERC20",
          "name": "targetToken",
          "type": "address"
        },
        {
          "internalType": "uint256",
          "name": "minAmountOut",
          "type": "uint256"
        },
        {
          "internalType": "address",
          "name": "recipient",
          "type": "address"
        },
        {
          "internalType": "uint256",
          "name": "deadline",
          "type": "uint256"
        }
      ],
      "name": "burn",
      "outputs": [],
      "stateMutability": "nonpayable",
      "type": "function"
    },
    {
      "inputs": [
        {
          "internalType": "contract IERC20",
          "name": "tokenIn",
          "type": "address"
        },
        {
          "internalType": "address",
          "name": "receiver",
          "type": "address"
        }
      ],
      "name": "cancelOrder",
      "outputs": [],
      "stateMutability": "nonpayable",
      "type": "function"
    },
    {
      "inputs": [],
      "name": "composableCow",
      "outputs": [
        {
          "internalType": "contract IComposableCow",
          "name": "",
          "type": "address"
        }
      ],
      "stateMutability": "view",
      "type": "function"
    },
    {
      "inputs": [
        {
          "internalType": "contract IERC20",
          "name": "tokenIn",
          "type": "address"
        },
        {
          "internalType": "address",
          "name": "receiver",
          "type": "address"
        }
      ],
      "name": "emergencyCancelOrder",
      "outputs": [],
      "stateMutability": "nonpayable",
      "type": "function"
    },
    {
      "inputs": [
        {
          "internalType": "bytes4",
          "name": "selector",
          "type": "bytes4"
        }
      ],
      "name": "getActionId",
      "outputs": [
        {
          "internalType": "bytes32",
          "name": "",
          "type": "bytes32"
        }
      ],
      "stateMutability": "view",
      "type": "function"
    },
    {
      "inputs": [],
      "name": "getAuthorizer",
      "outputs": [
        {
          "internalType": "contract IAuthorizer",
          "name": "",
          "type": "address"
        }
      ],
      "stateMutability": "view",
      "type": "function"
    },
    {
      "inputs": [
        {
          "internalType": "contract IERC20",
          "name": "tokenIn",
          "type": "address"
        }
      ],
      "name": "getOrder",
      "outputs": [
        {
          "components": [
            {
              "internalType": "contract IERC20",
              "name": "sellToken",
              "type": "address"
            },
            {
              "internalType": "contract IERC20",
              "name": "buyToken",
              "type": "address"
            },
            {
              "internalType": "address",
              "name": "receiver",
              "type": "address"
            },
            {
              "internalType": "uint256",
              "name": "sellAmount",
              "type": "uint256"
            },
            {
              "internalType": "uint256",
              "name": "buyAmount",
              "type": "uint256"
            },
            {
              "internalType": "uint32",
              "name": "validTo",
              "type": "uint32"
            },
            {
              "internalType": "bytes32",
              "name": "appData",
              "type": "bytes32"
            },
            {
              "internalType": "uint256",
              "name": "feeAmount",
              "type": "uint256"
            },
            {
              "internalType": "bytes32",
              "name": "kind",
              "type": "bytes32"
            },
            {
              "internalType": "bool",
              "name": "partiallyFillable",
              "type": "bool"
            },
            {
              "internalType": "bytes32",
              "name": "sellTokenBalance",
              "type": "bytes32"
            },
            {
              "internalType": "bytes32",
              "name": "buyTokenBalance",
              "type": "bytes32"
            }
          ],
          "internalType": "struct GPv2Order",
          "name": "",
          "type": "tuple"
        }
      ],
      "stateMutability": "view",
      "type": "function"
    },
    {
      "inputs": [
        {
          "internalType": "contract IERC20",
          "name": "tokenIn",
          "type": "address"
        }
      ],
      "name": "getOrderStatus",
      "outputs": [
        {
          "internalType": "enum ICowSwapFeeBurner.OrderStatus",
          "name": "status",
          "type": "uint8"
        }
      ],
      "stateMutability": "view",
      "type": "function"
    },
    {
      "inputs": [
        {
          "internalType": "address",
          "name": "",
          "type": "address"
        },
        {
          "internalType": "address",
          "name": "",
          "type": "address"
        },
        {
          "internalType": "bytes32",
          "name": "",
          "type": "bytes32"
        },
        {
          "internalType": "bytes",
          "name": "staticInput",
          "type": "bytes"
        },
        {
          "internalType": "bytes",
          "name": "",
          "type": "bytes"
        }
      ],
      "name": "getTradeableOrder",
      "outputs": [
        {
          "components": [
            {
              "internalType": "contract IERC20",
              "name": "sellToken",
              "type": "address"
            },
            {
              "internalType": "contract IERC20",
              "name": "buyToken",
              "type": "address"
            },
            {
              "internalType": "address",
              "name": "receiver",
              "type": "address"
            },
            {
              "internalType": "uint256",
              "name": "sellAmount",
              "type": "uint256"
            },
            {
              "internalType": "uint256",
              "name": "buyAmount",
              "type": "uint256"
            },
            {
              "internalType": "uint32",
              "name": "validTo",
              "type": "uint32"
            },
            {
              "internalType": "bytes32",
              "name": "appData",
              "type": "bytes32"
            },
            {
              "internalType": "uint256",
              "name": "feeAmount",
              "type": "uint256"
            },
            {
              "internalType": "bytes32",
              "name": "kind",
              "type": "bytes32"
            },
            {
              "internalType": "bool",
              "name": "partiallyFillable",
              "type": "bool"
            },
            {
              "internalType": "bytes32",
              "name": "sellTokenBalance",
              "type": "bytes32"
            },
            {
              "internalType": "bytes32",
              "name": "buyTokenBalance",
              "type": "bytes32"
            }
          ],
          "internalType": "struct GPv2Order",
          "name": "",
          "type": "tuple"
        }
      ],
      "stateMutability": "view",
      "type": "function"
    },
    {
      "inputs": [],
      "name": "getVault",
      "outputs": [
        {
          "internalType": "contract IVault",
          "name": "",
          "type": "address"
        }
      ],
      "stateMutability": "view",
      "type": "function"
    },
    {
      "inputs": [
        {
          "internalType": "bytes32",
          "name": "_hash",
          "type": "bytes32"
        },
        {
          "internalType": "bytes",
          "name": "signature",
          "type": "bytes"
        }
      ],
      "name": "isValidSignature",
      "outputs": [
        {
          "internalType": "bytes4",
          "name": "",
          "type": "bytes4"
        }
      ],
      "stateMutability": "view",
      "type": "function"
    },
    {
      "inputs": [
        {
          "internalType": "contract IERC20",
          "name": "tokenIn",
          "type": "address"
        },
        {
          "internalType": "uint256",
          "name": "minAmountOut",
          "type": "uint256"
        },
        {
          "internalType": "uint256",
          "name": "deadline",
          "type": "uint256"
        }
      ],
      "name": "retryOrder",
      "outputs": [],
      "stateMutability": "nonpayable",
      "type": "function"
    },
    {
      "inputs": [
        {
          "internalType": "bytes4",
          "name": "interfaceId",
          "type": "bytes4"
        }
      ],
      "name": "supportsInterface",
      "outputs": [
        {
          "internalType": "bool",
          "name": "",
          "type": "bool"
        }
      ],
      "stateMutability": "pure",
      "type": "function"
    },
    {
      "inputs": [],
      "name": "vaultRelayer",
      "outputs": [
        {
          "internalType": "address",
          "name": "",
          "type": "address"
        }
      ],
      "stateMutability": "view",
      "type": "function"
    },
    {
      "inputs": [
        {
          "internalType": "address",
          "name": "owner",
          "type": "address"
        },
        {
          "internalType": "address",
          "name": "sender",
          "type": "address"
        },
        {
          "internalType": "bytes32",
          "name": "",
          "type": "bytes32"
        },
        {
          "internalType": "bytes32",
          "name": "",
          "type": "bytes32"
        },
        {
          "internalType": "bytes32",
          "name": "ctx",
          "type": "bytes32"
        },
        {
          "internalType": "bytes",
          "name": "staticInput",
          "type": "bytes"
        },
        {
          "internalType": "bytes",
          "name": "offchainInput",
          "type": "bytes"
        },
        {
          "components": [
            {
              "internalType": "contract IERC20",
              "name": "sellToken",
              "type": "address"
            },
            {
              "internalType": "contract IERC20",
              "name": "buyToken",
              "type": "address"
            },
            {
              "internalType": "address",
              "name": "receiver",
              "type": "address"
            },
            {
              "internalType": "uint256",
              "name": "sellAmount",
              "type": "uint256"
            },
            {
              "internalType": "uint256",
              "name": "buyAmount",
              "type": "uint256"
            },
            {
              "internalType": "uint32",
              "name": "validTo",
              "type": "uint32"
            },
            {
              "internalType": "bytes32",
              "name": "appData",
              "type": "bytes32"
            },
            {
              "internalType": "uint256",
              "name": "feeAmount",
              "type": "uint256"
            },
            {
              "internalType": "bytes32",
              "name": "kind",
              "type": "bytes32"
            },
            {
              "internalType": "bool",
              "name": "partiallyFillable",
              "type": "bool"
            },
            {
              "internalType": "bytes32",
              "name": "sellTokenBalance",
              "type": "bytes32"
            },
            {
              "internalType": "bytes32",
              "name": "buyTokenBalance",
              "type": "bytes32"
            }
          ],
          "internalType": "struct GPv2Order",
          "name": "_order",
          "type": "tuple"
        }
      ],
      "name": "verify",
      "outputs": [],
      "stateMutability": "view",
      "type": "function"
    },
    {
      "inputs": [],
      "name": "version",
      "outputs": [
        {
          "internalType": "string",
          "name": "",
          "type": "string"
        }
      ],
      "stateMutability": "view",
      "type": "function"
    }
  ],
  "bytecode": "0x610160604052346102df5761278f8038038061001a816102e3565b928339810160a0828203126102df5781516001600160a01b039182821682036102df57602093848101519484861686036102df57604082015194851685036102df57606082015193608083015160018060401b03938482116102df570193601f918183870112156102df5785518581116102cb57601f19966100a1828601891687016102e3565b938285528683830101116102df57815f92878093018387015e840101523060805260a05280519384116102cb575f54926001938481811c911680156102c1575b828210146102ad5783811161026a575b508092851160011461020a5750839450908392915f946101ff575b50501b915f199060031b1c1916175f555b7ff3b277728b3fee749481eb3e0b3b48980dbbab78658fc419025cb16eee34677560c0527f5a28e9363bb942b639270062aa6bb295f434bcdfc42c97267bf003f272060dc960e0526101009283526101209182526101409081526040519161248693846103098539608051846119ea015260a0518481816108f101528181610a350152611b00015260c0518461205d015260e05184611fec0152518381816109e5015281816110500152818161124801526122130152518281816102d90152818161049a015281816109950152611d2d015251818181610a7001526120310152f35b015192505f8061010c565b9294849081165f8052845f20945f905b888383106102505750505010610238575b505050811b015f5561011d565b01515f1960f88460031b161c191690555f808061022b565b85870151885590960195948501948793509081019061021a565b5f8052815f208480880160051c8201928489106102a4575b0160051c019085905b8281106102995750506100f1565b5f815501859061028b565b92508192610282565b634e487b7160e01b5f52602260045260245ffd5b90607f16906100e1565b634e487b7160e01b5f52604160045260245ffd5b5f80fd5b6040519190601f01601f191682016001600160401b038111838210176102cb5760405256fe6080806040526004361015610012575f80fd5b5f3560e01c90816301ffc9a7146116375750806314a2a7841461135f5780631626ba7e14610dc457806354fd4d5014610c8757806360e092c614610c0b57806368bce71214610b455780636eba2b1314610b185780636f9d75cd14610ae3578063851c1bb314610a935780638aebd34814610a595780638d928af814610a0957806393504c52146109b95780639b552cc214610969578063aaabadc51461089e578063b8296fc414610784578063d83b06a4146106635763de557a32146100d7575f80fd5b3461056b5760e060031936011261056b576100f0611786565b6100f86117a9565b906044906064359273ffffffffffffffffffffffffffffffffffffffff841680940361056b5760a4359073ffffffffffffffffffffffffffffffffffffffff8216820361056b57610147611a8e565b73ffffffffffffffffffffffffffffffffffffffff811685036101e8576084847f46656520746f6b656e20616e642074617267657420746f6b656e206172652074604051917f8d8a611000000000000000000000000000000000000000000000000000000000835260206004840152602760248401528201527f68652073616d65000000000000000000000000000000000000000000000000006064820152fd5b8392933515610605576101fc608435612130565b61020760c435612195565b61021081611c0c565b506004811015806105cb57811515806105f8575b61059c5750506040517f23b872dd0000000000000000000000000000000000000000000000000000000060208201523360248201523084820152833560648201526064815260a081019080821067ffffffffffffffff83111761056f5761028e91604052826122ee565b610297816121fb565b6040517f095ea7b3000000000000000000000000000000000000000000000000000000006020820190815273ffffffffffffffffffffffffffffffffffffffff7f0000000000000000000000000000000000000000000000000000000000000000166024830152843560448301529092905f90819061032386606481015b03601f19810188528761184f565b8551908273ffffffffffffffffffffffffffffffffffffffff87165af192610349612388565b846104ee575b5060609273ffffffffffffffffffffffffffffffffffffffff80938193877f77a7b034dbb42c9087518e95b49c02a17704a521555779f3f9d7f1b26df5ce8d98906104e2575b15610467575b5060405163ffffffff6103ad82611833565b8b82526003602083019285851684526040810160843581528a8201948460c4351686528789165f5260016020528760405f209351167fffffffffffffffffffffffff00000000000000000000000000000000000000009081855416178455886001850192511690825416179055516002820155019151167fffffffffffffffffffffffffffffffffffffffffffffffffffffffff0000000082541617905560405197358852608435602089015216604087015216941692a4005b6104dc906104d66040517f095ea7b3000000000000000000000000000000000000000000000000000000006020820152857f00000000000000000000000000000000000000000000000000000000000000001660248201525f8c8201528b81526104d081611833565b866122ee565b846122ee565b5f61039b565b508284163b1515610395565b8051801595508515610504575b5050606061034f565b81949550906020918101031261056b577f77a7b034dbb42c9087518e95b49c02a17704a521555779f3f9d7f1b26df5ce8d9373ffffffffffffffffffffffffffffffffffffffff8093819361055d6020606098016118d4565b9750935093508194506104fb565b5f80fd5b7f4e487b71000000000000000000000000000000000000000000000000000000005f52604160045260245ffd5b7fd0c1b3cf000000000000000000000000000000000000000000000000000000005f526105cb5760045260245ffd5b7f4e487b71000000000000000000000000000000000000000000000000000000005f52602160045260245ffd5b50505f6002821415610224565b6064837f46656520746f6b656e20616d6f756e74206973207a65726f0000000000000000604051917f8d8a61100000000000000000000000000000000000000000000000000000000083526020600484015260186024840152820152fd5b3461056b57606060031936011261056b5761067c611786565b60443560243561068a611a8e565b61069383611c0c565b9060048110156105cb5760038103610759577f1c5203f5bd3b302669f961b1035b0a6ec649f05ba67f3024a07e67ce4332898a6080868686866106d582612130565b6106de83612195565b61074173ffffffffffffffffffffffffffffffffffffffff851694855f526001602052600360405f208560028201550163ffffffff86167fffffffffffffffffffffffffffffffffffffffffffffffffffffffff000000008254161790556121fb565b604051938452602084015260408301526060820152a1005b7fd0c1b3cf000000000000000000000000000000000000000000000000000000005f5260045260245ffd5b3461056b5760a060031936011261056b5761079d611786565b506107a66117a9565b5067ffffffffffffffff60643581811161056b576107c89036906004016117cc565b60849291923591821161056b5761089a926107ea6107f19336906004016117cc565b5050611a50565b6040519182918291909161018081019273ffffffffffffffffffffffffffffffffffffffff8082511683528060208301511660208401526040820151166040830152606081015160608301526080810151608083015263ffffffff60a08201511660a083015260c081015160c083015260e081015160e0830152610100808201519083015261012080820151151590830152610140808201519083015261016080910151910152565b0390f35b3461056b575f60031936011261056b576040517faaabadc500000000000000000000000000000000000000000000000000000000815273ffffffffffffffffffffffffffffffffffffffff6020826004817f000000000000000000000000000000000000000000000000000000000000000085165afa90811561095e576020925f9261092f575b5060405191168152f35b610950919250833d8511610957575b610948818361184f565b810190611a24565b9083610925565b503d61093e565b6040513d5f823e3d90fd5b3461056b575f60031936011261056b57602060405173ffffffffffffffffffffffffffffffffffffffff7f0000000000000000000000000000000000000000000000000000000000000000168152f35b3461056b575f60031936011261056b57602060405173ffffffffffffffffffffffffffffffffffffffff7f0000000000000000000000000000000000000000000000000000000000000000168152f35b3461056b575f60031936011261056b57602060405173ffffffffffffffffffffffffffffffffffffffff7f0000000000000000000000000000000000000000000000000000000000000000168152f35b3461056b575f60031936011261056b5760206040517f00000000000000000000000000000000000000000000000000000000000000008152f35b3461056b57602060031936011261056b576004357fffffffff000000000000000000000000000000000000000000000000000000008116810361056b57610adb6020916119bf565b604051908152f35b3461056b57602060031936011261056b57610b04610aff611786565b611c0c565b5060405160048210156105cb576020918152f35b3461056b57602060031936011261056b5761089a6107f1610b37611786565b610b3f611967565b50611f22565b3461056b57604060031936011261056b57610b5e611786565b610b666117a9565b90610b6f611a8e565b604051917f70a0823100000000000000000000000000000000000000000000000000000000835230600484015260208360248173ffffffffffffffffffffffffffffffffffffffff86165afa91821561095e575f92610bd5575b610bd39350611cdf565b005b91506020833d602011610c03575b81610bf06020938361184f565b8101031261056b57610bd3925191610bc9565b3d9150610be3565b3461056b57604060031936011261056b57610c24611786565b610c2c6117a9565b610c34611a8e565b610c3d82611c0c565b91909260048410156105cb5760038403610c5b57610bd39350611cdf565b837fd0c1b3cf000000000000000000000000000000000000000000000000000000005f5260045260245ffd5b3461056b575f60031936011261056b576040515f5f549060018260011c9160018416918215610dba575b6020948585108414610d8d5785879486865291825f14610d4f575050600114610cf6575b50610ce29250038361184f565b61089a60405192828493845283019061188e565b5f808052859250907f290decd9548b62a8d60345a988386fc84ba6bc95484008f6362f93160ef3e5635b858310610d37575050610ce2935082010185610cd5565b80548389018501528794508693909201918101610d20565b7fffffffffffffffffffffffffffffffffffffffffffffffffffffffffffffff001685820152610ce295151560051b8501019250879150610cd59050565b7f4e487b71000000000000000000000000000000000000000000000000000000005f52602260045260245ffd5b92607f1692610cb1565b3461056b57604060031936011261056b5767ffffffffffffffff60243581811161056b573660238201121561056b57806004013590610e0282611872565b91610e10604051938461184f565b8083526020830191366024838301011161056b57815f92602460209301853784010152815182019260208401838503936101a080861261056b5761018080961261056b57610e6960405195610e64876117fa565b6118b3565b8552610e77604083016118b3565b602086015260608201519573ffffffffffffffffffffffffffffffffffffffff96878116810361056b5760408701526080830151606087015260a0830151608087015260c083015163ffffffff8116810361056b5760a087015260e083015160c0870152610100908184015160e088015261012091828501519088015261014091610f038386016118d4565b90880152610160918285015190880152830151908601528101519083821161056b570160608187031261056b5760405195610f3d87611817565b602082015184811161056b57820183603f8201121561056b5760208101519085821161056f578160051b60405192610f78602083018561184f565b8352604060208401918301019186831161056b57604001905b82821061134f575050508752604082015184811161056b5760609083018092031261056b5760405190610fc382611817565b6020810151878116810361056b57825260408101516020830152606081015185811161056b5760208591610ff89301016118e1565b60408201526020870152606081015192831161056b5761101b92016020016118e1565b6040840152604051907ff698da25000000000000000000000000000000000000000000000000000000008252602082600481867f0000000000000000000000000000000000000000000000000000000000000000165afa91821561095e575f92611319575b5090611143611135926040519384916020830191909161018081019273ffffffffffffffffffffffffffffffffffffffff8082511683528060208301511660208401526040820151166040830152606081015160608301526080810151608083015263ffffffff60a08201511660a083015260c081015160c083015260e081015160e0830152610100808201519083015261012080820151151590830152610140808201519083015261016080910151910152565b03601f19810184528361184f565b604051809460208083015260a08201815190606060408501528151809152602060c085019201905f5b818110611300578560206112328b8b8b6111d2866103158d8d60406111c08b840151927fffffffffffffffffffffffffffffffffffffffffffffffffffffffffffffffc09384888303016060890152611927565b9201519084830301608085015261188e565b611244604051968795869485947f53f00b14000000000000000000000000000000000000000000000000000000008652306004870152336024870152600435604487015260648601525f608486015260e060a486015260e485019061188e565b906003198483030160c485015261188e565b03917f0000000000000000000000000000000000000000000000000000000000000000165afa801561095e575f906112a4575b6020907fffffffff0000000000000000000000000000000000000000000000000000000060405191168152f35b506020813d6020116112f8575b816112be6020938361184f565b8101031261056b57517fffffffff000000000000000000000000000000000000000000000000000000008116810361056b57602090611277565b3d91506112b1565b825184528995506020938401939092019160010161116c565b91506020823d602011611347575b816113346020938361184f565b8101031261056b57905190611143611080565b3d9150611327565b8151815260209182019101610f91565b3461056b5761026060031936011261056b57611379611786565b506113826117a9565b5067ffffffffffffffff60a43581811161056b576113a49036906004016117cc565b919060c43582811161056b576113be9036906004016117cc565b505061018092837fffffffffffffffffffffffffffffffffffffffffffffffffffffffffffffff1c36011261056b576113f691611a50565b91610164359283608082018051821161162f575b50506040516114cc816114be60208201948591909161018081019273ffffffffffffffffffffffffffffffffffffffff8082511683528060208301511660208401526040820151166040830152606081015160608301526080810151608083015263ffffffff60a08201511660a083015260c081015160c083015260e081015160e0830152610100808201519083015261012080820151151590830152610140808201519083015261016080910151910152565b03601f19810183528261184f565b51902090604051602081019460e43573ffffffffffffffffffffffffffffffffffffffff9081811680910361056b5787526101043581811680910361056b5760408401526101243590811680910361056b57606083015261014435608083015260a08201526101843563ffffffff811680910361056b5760c08201526101a492833560e08301526101c49081356101008401526101e496873561012085015261020494853580151580910361056b5761014086015261022435610160860152610244358186015284526101a084019687118488101761056f578660405283519020036115b457005b608495602f7f566572696679206f7264657220646f6573206e6f74206d6174636820776974689260207f206578697374696e67206f726465720000000000000000000000000000000000977f8d8a6110000000000000000000000000000000000000000000000000000000008a528601528401528201520152fd5b52838561140a565b3461056b57602060031936011261056b57600435907fffffffff00000000000000000000000000000000000000000000000000000000821680920361056b577f62af8dc200000000000000000000000000000000000000000000000000000000821461175e57817f14a2a7840000000000000000000000000000000000000000000000000000000060209314908115611734575b811561170a575b81156116e0575b5015158152f35b7f01ffc9a700000000000000000000000000000000000000000000000000000000915014836116d9565b7f1626ba7e00000000000000000000000000000000000000000000000000000000811491506116d2565b7fb8296fc400000000000000000000000000000000000000000000000000000000811491506116cb565b7f32798566000000000000000000000000000000000000000000000000000000005f5260045ffd5b6004359073ffffffffffffffffffffffffffffffffffffffff8216820361056b57565b6024359073ffffffffffffffffffffffffffffffffffffffff8216820361056b57565b9181601f8401121561056b5782359167ffffffffffffffff831161056b576020838186019501011161056b57565b610180810190811067ffffffffffffffff82111761056f57604052565b6060810190811067ffffffffffffffff82111761056f57604052565b6080810190811067ffffffffffffffff82111761056f57604052565b90601f601f19910116810190811067ffffffffffffffff82111761056f57604052565b67ffffffffffffffff811161056f57601f01601f191660200190565b90601f19601f602080948051918291828752018686015e5f8582860101520116010190565b519073ffffffffffffffffffffffffffffffffffffffff8216820361056b57565b5190811515820361056b57565b81601f8201121561056b578051906118f882611872565b92611906604051948561184f565b8284526020838301011161056b57815f9260208093018386015e8301015290565b90606060406119649373ffffffffffffffffffffffffffffffffffffffff815116845260208101516020850152015191816040820152019061188e565b90565b60405190611974826117fa565b5f610160838281528260208201528260408201528260608201528260808201528260a08201528260c08201528260e08201528261010082015282610120820152826101408201520152565b6040517fffffffff0000000000000000000000000000000000000000000000000000000060208201927f0000000000000000000000000000000000000000000000000000000000000000845216604082015260248152611a1e81611817565b51902090565b9081602091031261056b575173ffffffffffffffffffffffffffffffffffffffff8116810361056b5790565b9081602091611a5d611967565b508101031261056b573573ffffffffffffffffffffffffffffffffffffffff811680910361056b5761196490611f22565b611aba7fffffffff000000000000000000000000000000000000000000000000000000005f35166119bf565b73ffffffffffffffffffffffffffffffffffffffff6040517faaabadc50000000000000000000000000000000000000000000000000000000081526020928382600481867f0000000000000000000000000000000000000000000000000000000000000000165afa90811561095e5784925f92611bea575b5060649060405194859384927f9be2a8840000000000000000000000000000000000000000000000000000000084526004840152336024840152306044840152165afa91821561095e575f92611bb4575b505015611b8c57565b7f23dada53000000000000000000000000000000000000000000000000000000005f5260045ffd5b90809250813d8311611be3575b611bcb818361184f565b8101031261056b57611bdc906118d4565b5f80611b83565b503d611bc1565b6064919250611c0590843d861161095757610948818361184f565b9190611b32565b73ffffffffffffffffffffffffffffffffffffffff1690815f52600160205263ffffffff600360405f200154168015611cd7576020602493604051948580927f70a082310000000000000000000000000000000000000000000000000000000082523060048301525afa92831561095e575f93611ca3575b5082611c91575060029190565b4211611c9d5760019190565b60039190565b9092506020813d602011611ccf575b81611cbf6020938361184f565b8101031261056b5751915f611c84565b3d9150611cb2565b505f91508190565b919091604090815193602093848601947f095ea7b3000000000000000000000000000000000000000000000000000000009384875273ffffffffffffffffffffffffffffffffffffffff94857f0000000000000000000000000000000000000000000000000000000000000000168060248b01525f60448b015260448a52611d668a611833565b5f808885169a8c5190828d5af1611d7b612388565b81611e8f575b50917f0fbcbe35dc18af34468b6ca6da71553ba95c937d09fc996a91b8dfc6ce5cbc5a9a60609a9998979695949284611e409590611e85575b15611e50575b5050505f8881526001808552888220828155908101829055600281018290556003015586517fa9059cbb000000000000000000000000000000000000000000000000000000008185015273ffffffffffffffffffffffffffffffffffffffff861660248201526044810185905290611e3b8260648101611135565b6122ee565b84519586528501521690820152a1565b611e7d92611e77918b51918883015260248201525f6044820152604481526104d681611833565b826122ee565b5f8080611dc0565b508a3b1515611dba565b8051801592508215611ec5575b507f0fbcbe35dc18af34468b6ca6da71553ba95c937d09fc996a91b8dfc6ce5cbc5a9050611d81565b81949250908695939b9a99989796918101031261056b577f0fbcbe35dc18af34468b6ca6da71553ba95c937d09fc996a91b8dfc6ce5cbc5a9a60609a611f0f86611e4096016118d4565b929450929495969798999a819c50611e9c565b611f2a611967565b5073ffffffffffffffffffffffffffffffffffffffff80911690815f52602090600182526040805f206003825192611f6184611833565b848354168452846001840154169486850195865260028401549382860194855263ffffffff938491015416946060810195808752156120d35781905116955116918151937f70a0823100000000000000000000000000000000000000000000000000000000855230600486015287856024818c5afa9485156120c9575f9561209a575b5051945116947f0000000000000000000000000000000000000000000000000000000000000000968251986120188a6117fa565b89528801528601526060850152608084015260a08301527f000000000000000000000000000000000000000000000000000000000000000060c08301525f60e08301527f000000000000000000000000000000000000000000000000000000000000000061010083015260016101208301528061014083015261016082015290565b9094508781813d83116120c2575b6120b2818361184f565b8101031261056b5751935f611fe4565b503d6120a8565b83513d5f823e3d90fd5b6064888451907fc8fc27250000000000000000000000000000000000000000000000000000000082526004820152601460248201527f4f7264657220646f6573206e6f742065786973740000000000000000000000006044820152fd5b1561213757565b60646040517f8d8a611000000000000000000000000000000000000000000000000000000000815260206004820152601660248201527f4d696e20616d6f756e74206f7574206973207a65726f000000000000000000006044820152fd5b421161219d57565b60646040517f8d8a611000000000000000000000000000000000000000000000000000000000815260206004820152601760248201527f446561646c696e6520697320696e2074686520706173740000000000000000006044820152fd5b73ffffffffffffffffffffffffffffffffffffffff807f00000000000000000000000000000000000000000000000000000000000000001691604091825191166020820152602081528181019267ffffffffffffffff918085108386111761056f5784845261226985611817565b3085525f60608201526080810152803b1561056b576122c15f9491859285519687809481937f6bfae1ca0000000000000000000000000000000000000000000000000000000083528960048401526044830190611927565b6001602483015203925af180156122e4576122db57505050565b821161056f5752565b82513d5f823e3d90fd5b5f8073ffffffffffffffffffffffffffffffffffffffff61232493169360208151910182865af161231d612388565b90836123b7565b8051908115159182612365575b505061233a5750565b7f5274afe7000000000000000000000000000000000000000000000000000000005f5260045260245ffd5b819250906020918101031261056b57602061238091016118d4565b155f80612331565b3d156123b2573d9061239982611872565b916123a7604051938461184f565b82523d5f602084013e565b606090565b906123f457508051156123cc57805190602001fd5b7f1425ea42000000000000000000000000000000000000000000000000000000005f5260045ffd5b81511580612447575b612405575090565b73ffffffffffffffffffffffffffffffffffffffff907f9996b315000000000000000000000000000000000000000000000000000000005f521660045260245ffd5b50803b156123fd56fea26469706673582212209d7bc51efbcb3fc13e95da4d771bcfbe3a0816f35360bbd62491ae4231230d0e64736f6c634300081b0033",
  "linkReferences": {},
  "deployedLinkReferences": {}
}