{"contracts/TimelockAuthorizerMigrator.sol":{"TimelockAuthorizerMigrator":{"abi":[{"inputs":[{"internalType":"address","name":"_root","type":"address"},{"internalType":"contract IBasicAuthorizer","name":"_oldAuthorizer","type":"address"},{"internalType":"contract IAuthorizerAdaptorEntrypoint","name":"_authorizerAdaptorEntrypoint","type":"address"},{"internalType":"uint256","name":"_changeRootDelay","type":"uint256"},{"components":[{"internalType":"address","name":"grantee","type":"address"},{"internalType":"bytes32","name":"role","type":"bytes32"},{"internalType":"address","name":"target","type":"address"}],"internalType":"struct TimelockAuthorizerMigrator.RoleData[]","name":"_rolesData","type":"tuple[]"},{"components":[{"internalType":"address","name":"grantee","type":"address"},{"internalType":"bytes32","name":"role","type":"bytes32"},{"internalType":"address","name":"target","type":"address"}],"internalType":"struct TimelockAuthorizerMigrator.RoleData[]","name":"_grantersData","type":"tuple[]"},{"components":[{"internalType":"address","name":"grantee","type":"address"},{"internalType":"bytes32","name":"role","type":"bytes32"},{"internalType":"address","name":"target","type":"address"}],"internalType":"struct TimelockAuthorizerMigrator.RoleData[]","name":"_revokersData","type":"tuple[]"},{"components":[{"internalType":"bytes32","name":"actionId","type":"bytes32"},{"internalType":"uint256","name":"newDelay","type":"uint256"}],"internalType":"struct TimelockAuthorizerMigrator.DelayData[]","name":"_executeDelaysData","type":"tuple[]"},{"components":[{"internalType":"bytes32","name":"actionId","type":"bytes32"},{"internalType":"uint256","name":"newDelay","type":"uint256"}],"internalType":"struct TimelockAuthorizerMigrator.DelayData[]","name":"_grantDelaysData","type":"tuple[]"}],"stateMutability":"nonpayable","type":"constructor"},{"inputs":[],"name":"DEFAULT_ADMIN_ROLE","outputs":[{"internalType":"bytes32","name":"","type":"bytes32"}],"stateMutability":"view","type":"function"},{"inputs":[],"name":"EVERYWHERE","outputs":[{"internalType":"address","name":"","type":"address"}],"stateMutability":"view","type":"function"},{"inputs":[],"name":"GENERAL_PERMISSION_SPECIFIER","outputs":[{"internalType":"bytes32","name":"","type":"bytes32"}],"stateMutability":"view","type":"function"},{"inputs":[],"name":"changeRootDelay","outputs":[{"internalType":"uint256","name":"","type":"uint256"}],"stateMutability":"view","type":"function"},{"inputs":[],"name":"executeDelays","outputs":[],"stateMutability":"nonpayable","type":"function"},{"inputs":[],"name":"finalizeMigration","outputs":[],"stateMutability":"nonpayable","type":"function"},{"inputs":[],"name":"newAuthorizer","outputs":[{"internalType":"contract TimelockAuthorizer","name":"","type":"address"}],"stateMutability":"view","type":"function"},{"inputs":[],"name":"oldAuthorizer","outputs":[{"internalType":"contract IBasicAuthorizer","name":"","type":"address"}],"stateMutability":"view","type":"function"},{"inputs":[],"name":"root","outputs":[{"internalType":"address","name":"","type":"address"}],"stateMutability":"view","type":"function"},{"inputs":[],"name":"vault","outputs":[{"internalType":"contract IVault","name":"","type":"address"}],"stateMutability":"view","type":"function"}],"evm":{"bytecode":{"linkReferences":{},"object":"6101206040523480156200001257600080fd5b5060405162005eae38038062005eae833981016040819052620000359162000844565b6000308a89896040516200004990620006ba565b620000589493929190620009e0565b604051809103906000f08015801562000075573d6000803e3d6000fd5b506001600160601b0319606082811b821660e0528b901b1660c052604080516311b2515f60e31b815290519192506001600160a01b038a1691638d928af891600480820192602092909190829003018186803b158015620000d557600080fd5b505afa158015620000ea573d6000803e3d6000fd5b505050506040513d601f19601f820116820180604052508101906200011091906200098e565b6001600160601b0319606091821b8116608052908b901b1660a05261010087905260005b8651811015620002985762000148620006c8565b8782815181106200015557fe5b602002602001015190508a6001600160a01b0316639be2a8848260200151836000015184604001516040518463ffffffff1660e01b81526004016200019d9392919062000a0a565b60206040518083038186803b158015620001b657600080fd5b505afa158015620001cb573d6000803e3d6000fd5b505050506040513d601f19601f82011682018060405250810190620001f1919062000965565b620002195760405162461bcd60e51b8152600401620002109062000a88565b60405180910390fd5b602081015181516040808401519051634661e83960e11b81526001600160a01b03871693638cc3d072936200025693919290919060040162000a0a565b600060405180830381600087803b1580156200027157600080fd5b505af115801562000286573d6000803e3d6000fd5b50506001909301925062000134915050565b5060005b85518110156200036157816001600160a01b0316632229edb4878381518110620002c257fe5b602002602001015160200151888481518110620002db57fe5b602002602001015160000151898581518110620002f457fe5b6020026020010151604001516040518463ffffffff1660e01b8152600401620003209392919062000a0a565b600060405180830381600087803b1580156200033b57600080fd5b505af115801562000350573d6000803e3d6000fd5b5050600190920191506200029c9050565b5060005b84518110156200041057816001600160a01b031663a44495d18683815181106200038b57fe5b602002602001015160000151878481518110620003a457fe5b6020026020010151604001516040518363ffffffff1660e01b8152600401620003cf929190620009c6565b600060405180830381600087803b158015620003ea57600080fd5b505af1158015620003ff573d6000803e3d6000fd5b505060019092019150620003659050565b506000805b8451811015620005305762278d008582815181106200043057fe5b60200260200101516020015111156200045d5760405162461bcd60e51b8152600401620002109062000ab1565b826001600160a01b031663f08455228683815181106200047957fe5b6020026020010151600001518784815181106200049257fe5b602002602001015160200151620004af306200066460201b60201c565b6040518463ffffffff1660e01b8152600401620004cf9392919062000a29565b602060405180830381600087803b158015620004ea57600080fd5b505af1158015620004ff573d6000803e3d6000fd5b505050506040513d601f19601f82011682018060405250810190620005259190620009ad565b915060010162000415565b5060005b83518110156200064f5762278d008482815181106200054f57fe5b60200260200101516020015111156200057c5760405162461bcd60e51b8152600401620002109062000ab1565b826001600160a01b03166363cdbf368583815181106200059857fe5b602002602001015160000151868481518110620005b157fe5b602002602001015160200151620005ce306200066460201b60201c565b6040518463ffffffff1660e01b8152600401620005ee9392919062000a29565b602060405180830381600087803b1580156200060957600080fd5b505af11580156200061e573d6000803e3d6000fd5b505050506040513d601f19601f82011682018060405250810190620006449190620009ad565b915060010162000534565b506000555062000b4898505050505050505050565b6040805160018082528183019092526060916020808301908036833701905050905081816000815181106200069557fe5b60200260200101906001600160a01b031690816001600160a01b031681525050919050565b6149c880620014e683390190565b604080516060810182526000808252602082018190529181019190915290565b8051620006f58162000b2f565b92915050565b600082601f8301126200070c578081fd5b8151620007236200071d8262000b0f565b62000ae8565b81815291506020808301908481016040808502870183018810156200074757600080fd5b6000805b868110156200078d5782848b03121562000763578182fd5b6200076e8362000ae8565b845181528585015186820152865294840194928201926001016200074b565b5050505050505092915050565b600082601f830112620007ab578081fd5b8151620007bc6200071d8262000b0f565b8181529150602080830190848101606080850287018301881015620007e057600080fd5b6000805b868110156200078d5782848b031215620007fc578182fd5b620008078362000ae8565b620008138b86620006e8565b8152858501518682015260406200082d8c828801620006e8565b9082015286529484019492820192600101620007e4565b60008060008060008060008060006101208a8c03121562000863578485fd5b6200086f8b8b620006e8565b9850620008808b60208c01620006e8565b9750620008918b60408c01620006e8565b60608b015160808c015191985096506001600160401b0380821115620008b5578687fd5b620008c38d838e016200079a565b965060a08c0151915080821115620008d9578586fd5b620008e78d838e016200079a565b955060c08c0151915080821115620008fd578485fd5b6200090b8d838e016200079a565b945060e08c015191508082111562000921578384fd5b6200092f8d838e01620006fb565b93506101008c015191508082111562000946578283fd5b50620009558c828d01620006fb565b9150509295985092959850929598565b60006020828403121562000977578081fd5b8151801515811462000987578182fd5b9392505050565b600060208284031215620009a0578081fd5b8151620009878162000b2f565b600060208284031215620009bf578081fd5b5051919050565b6001600160a01b0392831681529116602082015260400190565b6001600160a01b039485168152928416602084015292166040820152606081019190915260800190565b9283526001600160a01b03918216602084015216604082015260600190565b60006060820185835260208581850152606060408501528185518084526080860191508287019350845b8181101562000a7a5784516001600160a01b03168352938301939183019160010162000a53565b509098975050505050505050565b6020808252600f908201526e554e45585045435445445f524f4c4560881b604082015260600190565b60208082526016908201527f554e45585045435445445f4c415247455f44454c415900000000000000000000604082015260600190565b6040518181016001600160401b038111828210171562000b0757600080fd5b604052919050565b60006001600160401b0382111562000b25578081fd5b5060209081020190565b6001600160a01b038116811462000b4557600080fd5b50565b60805160601c60a05160601c60c05160601c60e05160601c6101005161092a62000bbc6000398061013a5250806101a5528061028052806102e452806106215250806104b3528061068152508061031152806106a552508061040852806104f152806105f452806106c9525061092a6000f3fe608060405234801561001057600080fd5b50600436106100be5760003560e01c8063b78b608711610076578063ebf0c7171161005b578063ebf0c71714610120578063fbfa77cf14610128578063fc78a22814610130576100be565b8063b78b608714610110578063c6bfe9ae14610118576100be565b806362cde1ba116100a757806362cde1ba146100eb578063a0c286d814610100578063a217fddf14610108576100be565b8063064cb76a146100c35780633c44172d146100e1575b600080fd5b6100cb610138565b6040516100d89190610824565b60405180910390f35b6100e961015c565b005b6100f361025a565b6040516100d89190610803565b6100f361027e565b6100cb6102a2565b6100e96102a7565b6100f361067f565b6100f36106a3565b6100f36106c7565b6100cb61025a565b7f000000000000000000000000000000000000000000000000000000000000000081565b60005b6000548111610257576040517ffe0d94c100000000000000000000000000000000000000000000000000000000815273ffffffffffffffffffffffffffffffffffffffff7f0000000000000000000000000000000000000000000000000000000000000000169063fe0d94c1906101da908490600401610824565b600060405180830381600087803b1580156101f457600080fd5b505af1158015610208573d6000803e3d6000fd5b505050506040513d6000823e601f3d9081017fffffffffffffffffffffffffffffffffffffffffffffffffffffffffffffffe016820160405261024e919081019061072a565b5060010161015f565b50565b7fffffffffffffffffffffffffffffffffffffffffffffffffffffffffffffffff81565b7f000000000000000000000000000000000000000000000000000000000000000081565b600081565b6040517f557a640300000000000000000000000000000000000000000000000000000000815273ffffffffffffffffffffffffffffffffffffffff7f0000000000000000000000000000000000000000000000000000000000000000169063557a640390610339907f000000000000000000000000000000000000000000000000000000000000000090600401610803565b60206040518083038186803b15801561035157600080fd5b505afa158015610365573d6000803e3d6000fd5b505050506040513d601f19601f8201168201806040525081019061038991906106eb565b6103c8576040517f08c379a00000000000000000000000000000000000000000000000000000000081526004016103bf90610886565b60405180910390fd5b6040517f851c1bb300000000000000000000000000000000000000000000000000000000815260009073ffffffffffffffffffffffffffffffffffffffff7f0000000000000000000000000000000000000000000000000000000000000000169063851c1bb39061045d907f058a628f0000000000000000000000000000000000000000000000000000000090600401610859565b60206040518083038186803b15801561047557600080fd5b505afa158015610489573d6000803e3d6000fd5b505050506040513d601f19601f820116820180604052508101906104ad9190610712565b905060007f000000000000000000000000000000000000000000000000000000000000000073ffffffffffffffffffffffffffffffffffffffff16639be2a88483307f00000000000000000000000000000000000000000000000000000000000000006040518463ffffffff1660e01b815260040161052e9392919061082d565b60206040518083038186803b15801561054657600080fd5b505afa15801561055a573d6000803e3d6000fd5b505050506040513d601f19601f8201168201806040525081019061057e91906106eb565b9050806105b7576040517f08c379a00000000000000000000000000000000000000000000000000000000081526004016103bf906108bd565b6040517f058a628f00000000000000000000000000000000000000000000000000000000815273ffffffffffffffffffffffffffffffffffffffff7f0000000000000000000000000000000000000000000000000000000000000000169063058a628f90610649907f000000000000000000000000000000000000000000000000000000000000000090600401610803565b600060405180830381600087803b15801561066357600080fd5b505af1158015610677573d6000803e3d6000fd5b505050505050565b7f000000000000000000000000000000000000000000000000000000000000000081565b7f000000000000000000000000000000000000000000000000000000000000000081565b7f000000000000000000000000000000000000000000000000000000000000000081565b6000602082840312156106fc578081fd5b8151801515811461070b578182fd5b9392505050565b600060208284031215610723578081fd5b5051919050565b6000602080838503121561073c578182fd5b825167ffffffffffffffff80821115610753578384fd5b818501915085601f830112610766578384fd5b815181811115610774578485fd5b604051847fffffffffffffffffffffffffffffffffffffffffffffffffffffffffffffffe0601f84011682010181811084821117156107b1578687fd5b60405281815283820185018810156107c7578586fd5b8592505b818310156107e857838301850151818401860152918401916107cb565b818311156107f857858583830101525b979650505050505050565b73ffffffffffffffffffffffffffffffffffffffff91909116815260200190565b90815260200190565b92835273ffffffffffffffffffffffffffffffffffffffff918216602084015216604082015260600190565b7fffffffff0000000000000000000000000000000000000000000000000000000091909116815260200190565b60208082526014908201527f524f4f545f4e4f545f434c41494d45445f594554000000000000000000000000604082015260600190565b6020808252601e908201527f4d49475241544f525f43414e4e4f545f5345545f415554484f52495a4552000060408201526060019056fea2646970667358221220857541f5a4452e3bc694076f85301b0246ab926303c8cf3bf12a3b9024aed39664736f6c634300070100336101406040523480156200001257600080fd5b50604051620049c8380380620049c8833981016040819052620000359162000366565b8383836001600160a01b0316638d928af86040518163ffffffff1660e01b815260040160206040518083038186803b1580156200007157600080fd5b505afa15801562000086573d6000803e3d6000fd5b505050506040513d601f19601f82011682018060405250810190620000ac9190620003d8565b83620000b884620002c6565b620000c3836200030e565b6001600160601b0319606083901b1660a052604051620000e39062000358565b604051809103906000f08015801562000100573d6000803e3d6000fd5b5060601b6001600160601b03191660805260c05250506040805163e758d36b60e01b815290516001600160a01b038516925063e758d36b91600480820192602092909190829003018186803b1580156200015957600080fd5b505afa1580156200016e573d6000803e3d6000fd5b505050506040513d601f19601f82011682018060405250810190620001949190620003d8565b6001600160601b0319606091821b8116610100529083901b1660e052604080516311b2515f60e31b815290516001600160a01b03841691638d928af8916004808301926020929190829003018186803b158015620001f157600080fd5b505afa15801562000206573d6000803e3d6000fd5b505050506040513d601f19601f820116820180604052508101906200022c9190620003d8565b60405163851c1bb360e01b81526001600160a01b03919091169063851c1bb390620002639063058a628f60e01b90600401620003fe565b60206040518083038186803b1580156200027c57600080fd5b505afa15801562000291573d6000803e3d6000fd5b505050506040513d601f19601f82011682018060405250810190620002b79190620003bf565b61012052506200042c92505050565b600080546001600160a01b0319166001600160a01b038316908117825560405190917f39510b933a9d010f906528d6019d3f4e2450a10dc33b10887503b31ed82f111191a250565b600180546001600160a01b0319166001600160a01b0383169081179091556040517f566fe119ff450afc2580186c62762b6c1258245c8b1b6bb095e7276eb5a75b5590600090a250565b6104ef80620044d983390190565b600080600080608085870312156200037c578384fd5b8451620003898162000413565b60208601519094506200039c8162000413565b6040860151909350620003af8162000413565b6060959095015193969295505050565b600060208284031215620003d1578081fd5b5051919050565b600060208284031215620003ea578081fd5b8151620003f78162000413565b9392505050565b6001600160e01b031991909116815260200190565b6001600160a01b03811681146200042957600080fd5b50565b60805160601c60a05160601c60c05160e05160601c6101005160601c61012051614039620004a0600039806124f852806127ea5250806119bc5250806119e4525080611d195250806118385250806106e15280610a955280610ac25280611dc552806124b9528061271a52506140396000f3fe608060405234801561001057600080fd5b50600436106103205760003560e01c80638bd6bbc9116101a7578063c284b6b9116100ee578063e4c00f4f11610097578063f23481e011610071578063f23481e01461065a578063f6ebcbaf14610662578063fe0d94c11461067557610320565b8063e4c00f4f14610614578063f084552214610634578063f0bb94061461064757610320565b8063cc63604a116100c8578063cc63604a146105e6578063d00bef4d146105f9578063e2b4146b1461060157610320565b8063c284b6b9146105b8578063c6192ee3146105c0578063c80c23e1146105d357610320565b80639be2a88411610150578063b1e31aa01161012a578063b1e31aa01461058a578063b3eb281d14610592578063b99db526146105a557610320565b80639be2a88414610551578063a44495d114610564578063a8eae12d1461057757610320565b8063902168121161018157806390216812146105235780639299942e1461053657806399a7f6e21461053e57610320565b80638bd6bbc9146104f55780638cc3d072146105085780638d928af81461051b57610320565b806340e58ee51161026b57806362cde1ba1161021457806372efb120116101ee57806372efb120146104bc578063863bac6b146104cf57806386ff254b146104e257610320565b806362cde1ba1461048157806363cdbf36146104895780636badd2ab1461049c57610320565b80635b78b780116102455780635b78b780146104535780635ca1e16514610466578063608dd7e41461046e57610320565b806340e58ee5146104255780634125ff9014610438578063557a64031461044057610320565b80631b3c85eb116102cd5780633ac5d439116102a75780633ac5d439146103ec5780633bf46797146103ff5780633e1df46d1461041257610320565b80631b3c85eb146103b35780632229edb4146103c65780632e3ed05b146103d957610320565b806314ea35e7116102fe57806314ea35e714610376578063169f14681461037e57806318ef871a1461039e57610320565b806304434606146103255780630df322a61461034e57806310d3ab2c14610361575b600080fd5b6103386103333660046131b2565b610695565b60405161034591906135cd565b60405180910390f35b61033861035c366004613033565b6106c2565b61037461036f36600461327a565b6106d6565b005b61037461079b565b61039161038c3660046130cf565b6107dc565b6040516103459190613f73565b6103a6610a93565b60405161034591906134a0565b6103746103c1366004613033565b610ab7565b6103746103d43660046131d5565b610b08565b6103916103e7366004613082565b610bc0565b6103746103fa3660046131d5565b610cb9565b61039161040d366004613182565b610d3f565b6103386104203660046131b2565b610d51565b610374610433366004613182565b610dc3565b610391610f0a565b61033861044e366004613033565b610f12565b610391610461366004613212565b610f26565b6103a6611079565b61039161047c36600461329b565b611088565b6103a66111b8565b61039161049736600461329b565b6111dc565b6104af6104aa366004613182565b61130c565b6040516103459190613f60565b6103746104ca3660046131b2565b611494565b6103916104dd366004613212565b6115be565b6103386104f03660046131d5565b6116e7565b610391610503366004613182565b61171a565b6103746105163660046131d5565b61172c565b6103a6611836565b61037461053136600461304e565b61185a565b6103916111b8565b61037461054c3660046131b2565b6119a0565b61033861055f3660046131d5565b6119af565b61037461057236600461304e565b611a66565b6103746105853660046131d5565b611b0f565b610391611c6e565b6103386105a03660046131d5565b611c75565b6103916105b3366004613182565b611d05565b610391611d17565b6103386105ce36600461304e565b611d3b565b6103746105e136600461327a565b611dba565b6103386105f4366004613182565b611e6a565b6103a6611ee3565b61033861060f3660046131d5565b611ef2565b610627610622366004613352565b611f7a565b604051610345919061354f565b61039161064236600461329b565b61237e565b61037461065536600461327a565b6124ae565b610391612585565b6103746106703660046131b2565b61258b565b610688610683366004613182565b6125ba565b6040516103459190613632565b60008281526002602090815260408083206001600160a01b038516845290915290205460ff165b92915050565b6001546001600160a01b0390811691161490565b336001600160a01b037f000000000000000000000000000000000000000000000000000000000000000016146107275760405162461bcd60e51b815260040161071e90613d71565b60405180910390fd5b610730816127e8565b61074c5760405162461bcd60e51b815260040161071e90613849565b600082815260076020526040908190208290555182907f6922a4f4deeb55fdca50df28a72475aa87f9f1377ed93a95842ce8bc69dc01e89061078f908490613f73565b60405180910390a25050565b6001546001600160a01b03163381146107c65760405162461bcd60e51b815260040161071e90613bf0565b6107cf8161281d565b6107d9600061287d565b50565b60006001600160a01b0384163014156108075760405162461bcd60e51b815260040161071e9061377e565b61080f610a93565b6001600160a01b0316846001600160a01b031614156108405760405162461bcd60e51b815260040161071e90613645565b6004835110156108625760405162461bcd60e51b815260040161071e90613a01565b600060188460038151811061087357fe5b016020015185517fff0000000000000000000000000000000000000000000000000000000000000090911690911c90601090869060029081106108b257fe5b016020015186517fff0000000000000000000000000000000000000000000000000000000000000090911690911c90600890879060019081106108f157fe5b016020015187517fff0000000000000000000000000000000000000000000000000000000000000090911690911c90879060009061092b57fe5b602001015160f81c60f81b7effffffffffffffffffffffffffffffffffffffffffffffffffffffffffffff191617171790506000856001600160a01b031663851c1bb3836040518263ffffffff1660e01b815260040161098b9190613605565b60206040518083038186803b1580156109a357600080fd5b505afa1580156109b7573d6000803e3d6000fd5b505050506040513d601f19601f820116820180604052508101906109db919061319a565b90506109e8813388611ef2565b610a045760405162461bcd60e51b815260040161071e90613a38565b6000818152600a602052604090205480610a305760405162461bcd60e51b815260040161071e90613a6f565b6000610a3e888884896128df565b905080837f26ce5ffb7ab1ce72d9ca4a3e4f906d2b99194d6c53dd9832fd7a59d0b2fc6bed60405160405180910390a3610a788133610d51565b610a8657610a868133612c37565b93505050505b9392505050565b7f000000000000000000000000000000000000000000000000000000000000000090565b336001600160a01b037f00000000000000000000000000000000000000000000000000000000000000001614610aff5760405162461bcd60e51b815260040161071e90613d71565b6107d98161287d565b610b1133610f12565b610b2d5760405162461bcd60e51b815260040161071e90613b14565b610b38838383611c75565b15610b555760405162461bcd60e51b815260040161071e90613880565b60008381526003602090815260408083206001600160a01b038087168086529184528285209086168086529352818420805460ff1916600117905590519192909186917f2d106cf4379aad979c25af765e6f7169b732d4c4660e41aa733a150c7fc0a6f791a4505050565b6000610bcb33610f12565b610be75760405162461bcd60e51b815260040161071e90613b14565b6060631b3c85eb60e01b84604051602401610c0291906134a0565b60408051601f198184030181529190526020810180517bffffffffffffffffffffffffffffffffffffffffffffffffffffffff167fffffffff000000000000000000000000000000000000000000000000000000009093169290921790915290506000610c783083610c72611d17565b876128df565b905080856001600160a01b03167f7de09ff5f925ca34a396df31b30cdbdd0cd10b88833b4f7334cecc02454c1be760405160405180910390a3949350505050565b600083815260086020526040902054610cf757610cd63382611d3b565b610cf25760405162461bcd60e51b815260040161071e90613add565b610d2f565b610cff610a93565b6001600160a01b0316336001600160a01b031614610d2f5760405162461bcd60e51b815260040161071e90613bb9565b610d3a838383612d47565b505050565b6000908152600a602052604090205490565b60008281526005602090815260408083206001600160a01b038516845290915281205460ff1680610db4575060056000610d896111b8565b8152602080820192909252604090810160009081206001600160a01b038616825290925290205460ff165b80610a8c5750610a8c82610f12565b6006548110610de45760405162461bcd60e51b815260040161071e906136a2565b600060068281548110610df357fe5b60009182526020909120600a90910201600281015490915060ff1615610e2b5760405162461bcd60e51b815260040161071e90613d3a565b6002810154610100900460ff1615610e555760405162461bcd60e51b815260040161071e90613993565b610e5f8233610d51565b610e7b5760405162461bcd60e51b815260040161071e90613f29565b6002810180547fffffffffffffffffffffffffffffffffffffffffffffffffffffffffffff00ff166101001790556008810180547fffffffffffffffffffffffff0000000000000000000000000000000000000000163317905542600982015560405182907fe48f88ceada5a6ddb8ded9b5e457cb802e319a647eec8ff1f2a0512c0a741ed990600090a25050565b6303c2670090565b6000546001600160a01b0390811691161490565b6000610f323384611d3b565b610f4e5760405162461bcd60e51b815260040161071e90613add565b60008581526008602052604090205480610f7a5760405162461bcd60e51b815260040161071e90613c95565b6060633ac5d43960e01b878787604051602401610f99939291906135d8565b60408051601f198184030181529190526020810180517bffffffffffffffffffffffffffffffffffffffffffffffffffffffff167fffffffff000000000000000000000000000000000000000000000000000000009093169290921790915290506000611008308385886128df565b9050856001600160a01b0316876001600160a01b0316897f645fdc5699106b1dffda57f54fdcca22ad57d87f0afd651edf857af3bfbd87848460405161104e9190613f73565b60405180910390a46110608133610d51565b61106e5761106e8133612c37565b979650505050505050565b6000546001600160a01b031690565b600061109333610f12565b6110af5760405162461bcd60e51b815260040161071e90613b14565b6110b7610f0a565b8311156110d65760405162461bcd60e51b815260040161071e90613c5e565b6000848152600860205260408120546110ef9085612e5b565b9050606063c80c23e160e01b868660405160240161110e9291906135f7565b60408051601f198184030181529190526020810180517bffffffffffffffffffffffffffffffffffffffffffffffffffffffff167fffffffff00000000000000000000000000000000000000000000000000000000909316929092179091529050600061117d308385886128df565b90508086887f2f330faf5e23fc7ff1c46f2b1a3299d86249055a5bf74a8b747ab7fb66f6dc9f60405160405180910390a49695505050505050565b7fffffffffffffffffffffffffffffffffffffffffffffffffffffffffffffffff90565b60006111e733610f12565b6112035760405162461bcd60e51b815260040161071e90613b14565b61120b610f0a565b83111561122a5760405162461bcd60e51b815260040161071e90613c5e565b6000848152600760205260408120546112439085612e5b565b905060606310d3ab2c60e01b86866040516024016112629291906135f7565b60408051601f198184030181529190526020810180517bffffffffffffffffffffffffffffffffffffffffffffffffffffffff167fffffffff0000000000000000000000000000000000000000000000000000000090931692909217909152905060006112d1308385886128df565b90508086887f3d8c3ad02346a1ddf099dd26578662fb8cf85903168ebfeb1f14473fed8ee48860405160405180910390a49695505050505050565b611314612e9c565b6006828154811061132157fe5b60009182526020918290206040805161018081018252600a90930290910180546001600160a01b03168352600180820180548451601f60027fffffffffffffffffffffffffffffffffffffffffffffffffffffffffffffffff95841615610100029590950190921693909304908101879004870283018701909452838252939491938583019391929091908301828280156113fd5780601f106113d2576101008083540402835291602001916113fd565b820191906000526020600020905b8154815290600101906020018083116113e057829003601f168201915b5050509183525050600282015460ff808216151560208401526101008083048216151560408501526201000090920416151560608301526003830154608083015260048301546001600160a01b0390811660a0840152600584015460c08401526006840154811660e08401526007840154918301919091526008830154166101208201526009909101546101409091015292915050565b61149d33610f12565b6114b95760405162461bcd60e51b815260040161071e90613b14565b6114c281610f12565b156114df5760405162461bcd60e51b815260040161071e906136d9565b6114e98282610d51565b6115055760405162461bcd60e51b815260040161071e90613ddf565b600560006115116111b8565b8152602080820192909252604090810160009081206001600160a01b038516825290925290205460ff1615611566576115486111b8565b82146115665760405162461bcd60e51b815260040161071e90613da8565b60008281526005602090815260408083206001600160a01b0385168085529252808320805460ff1916905551909184917fd6b522eb4b505a0843020e304ba27d827b52c89347e6176b2f2737e6e4015c2d9190a35050565b60006115cb853385611c75565b6115e75760405162461bcd60e51b815260040161071e906137db565b600085815260076020526040902054806116135760405162461bcd60e51b815260040161071e9061395c565b6060638cc3d07260e01b878787604051602401611632939291906135d8565b60408051601f198184030181529190526020810180517bffffffffffffffffffffffffffffffffffffffffffffffffffffffff167fffffffff0000000000000000000000000000000000000000000000000000000090931692909217909152905060006116a1308385886128df565b9050856001600160a01b0316876001600160a01b0316897f185f04ff33c89687859342776c7fdcf04d9eb9444d65192bfebab5a5ac9874a88460405161104e9190613f73565b60009283526009602090815260408085206001600160a01b03948516865282528085209290931684525290205460ff1690565b60009081526007602052604090205490565b60008381526007602052604090205461176b5761174a833383611c75565b6117665760405162461bcd60e51b815260040161071e906137db565b6117a3565b611773610a93565b6001600160a01b0316336001600160a01b0316146117a35760405162461bcd60e51b815260040161071e90613e16565b6117ae838383611ef2565b156117cb5760405162461bcd60e51b815260040161071e90613747565b60008381526009602090815260408083206001600160a01b038087168086529184528285209086168086529352818420805460ff1916600117905590519192909186917fef6ee312a0062a24a46be2eba5284183a87ff848110e8d4df979bd690d9e9f6891a4505050565b7f000000000000000000000000000000000000000000000000000000000000000090565b61186333610f12565b61187f5760405162461bcd60e51b815260040161071e90613b14565b6118898282611d3b565b6118a55760405162461bcd60e51b815260040161071e90613e4d565b6118ae82610f12565b156118cb5760405162461bcd60e51b815260040161071e90613b4b565b6001600160a01b0382166000908152600460205260408120906118ec6111b8565b6001600160a01b0316815260208101919091526040016000205460ff1615611946576119166111b8565b6001600160a01b0316816001600160a01b0316146119465760405162461bcd60e51b815260040161071e90613aa6565b6001600160a01b03808316600081815260046020908152604080832094861680845294909152808220805460ff19169055517fb6fe3ab11eb9ab1d9f1d41c8f42a5d72d10122099ba1548e4a6d1a4d8cefec4b9190a35050565b6119ab823383612d47565b5050565b6000336001600160a01b037f0000000000000000000000000000000000000000000000000000000000000000161415611a1e577f00000000000000000000000000000000000000000000000000000000000000006001600160a01b0316836001600160a01b0316149050610a8c565b6000848152600a602052604090205415611a5357611a3a610a93565b6001600160a01b0316836001600160a01b031614611a5e565b611a5e848484611ef2565b949350505050565b611a6f33610f12565b611a8b5760405162461bcd60e51b815260040161071e90613b14565b611a958282611d3b565b15611ab25760405162461bcd60e51b815260040161071e90613ef2565b6001600160a01b03808316600081815260046020908152604080832094861680845294909152808220805460ff19166001179055517f2b5f18afd9a7b21f41bf023b012b3d4c8a22a21b79fa425cd4494ecbe29701969190a35050565b611b1833610f12565b611b345760405162461bcd60e51b815260040161071e90613b14565b611b3f838383611c75565b611b5b5760405162461bcd60e51b815260040161071e90613d03565b611b6482610f12565b15611b815760405162461bcd60e51b815260040161071e90613ebb565b60008381526003602090815260408083206001600160a01b0386168452909152812090611bac6111b8565b6001600160a01b0316815260208101919091526040016000205460ff1615611c0657611bd66111b8565b6001600160a01b0316816001600160a01b031614611c065760405162461bcd60e51b815260040161071e90613710565b60008381526003602090815260408083206001600160a01b038087168086529184528285209086168086529352818420805460ff1916905590519192909186917ff8034293d5b4ed16b867ded8f122c475bc0d1b6bd9309a606609a754e5f3adc391a4505050565b6206978090565b60008381526003602090815260408083206001600160a01b038087168552908352818420908516845290915281205460ff1680611cf6575060008481526003602090815260408083206001600160a01b0387168452909152812090611cd86111b8565b6001600160a01b0316815260208101919091526040016000205460ff165b80611a5e5750611a5e83610f12565b60009081526008602052604090205490565b7f000000000000000000000000000000000000000000000000000000000000000090565b6001600160a01b03808316600090815260046020908152604080832093851683529290529081205460ff1680611dab57506001600160a01b038316600090815260046020526040812090611d8d6111b8565b6001600160a01b0316815260208101919091526040016000205460ff165b80610a8c5750610a8c83610f12565b336001600160a01b037f00000000000000000000000000000000000000000000000000000000000000001614611e025760405162461bcd60e51b815260040161071e90613d71565b611e0b816127e8565b611e275760405162461bcd60e51b815260040161071e90613849565b600082815260086020526040908190208290555182907f6aeebd84e31437f28a17927609991676c31c2b84875c601373da2c194e9d23419061078f908490613f73565b6006546000908210611e8e5760405162461bcd60e51b815260040161071e906136a2565b600060068381548110611e9d57fe5b60009182526020909120600a90910201600281015490915060ff16158015611ecf57506002810154610100900460ff16155b8015610a8c57506003015442101592915050565b6001546001600160a01b031690565b60008381526009602090815260408083206001600160a01b038087168552908352818420908516845290915281205460ff1680611a5e575060008481526009602090815260408083206001600160a01b0387168452909152812090611f556111b8565b6001600160a01b0316815260208101919091526040016000205460ff16949350505050565b6006546060908410611f9e5760405162461bcd60e51b815260040161071e90613925565b60008311611fbe5760405162461bcd60e51b815260040161071e90613ccc565b6006548490036000611fd08286612e84565b905060608167ffffffffffffffff81118015611feb57600080fd5b5060405190808252806020026020018201604052801561202557816020015b612012612e9c565b81526020019060019003908161200a5790505b50905060005b8281101561237357856121d25760068189018154811061204757fe5b60009182526020918290206040805161018081018252600a90930290910180546001600160a01b03168352600180820180548451601f60027fffffffffffffffffffffffffffffffffffffffffffffffffffffffffffffffff95841615610100029590950190921693909304908101879004870283018701909452838252939491938583019391929091908301828280156121235780601f106120f857610100808354040283529160200191612123565b820191906000526020600020905b81548152906001019060200180831161210657829003601f168201915b5050509183525050600282015460ff808216151560208401526101008083048216151560408501526201000090920416151560608301526003830154608083015260048301546001600160a01b0390811660a0840152600584015460c08401526006840154811660e08401526007840154918301919091526008830154166101208201526009909101546101409091015282518390839081106121c257fe5b602002602001018190525061236b565b6006816001860303815481106121e457fe5b60009182526020918290206040805161018081018252600a90930290910180546001600160a01b03168352600180820180548451601f60027fffffffffffffffffffffffffffffffffffffffffffffffffffffffffffffffff95841615610100029590950190921693909304908101879004870283018701909452838252939491938583019391929091908301828280156122c05780601f10612295576101008083540402835291602001916122c0565b820191906000526020600020905b8154815290600101906020018083116122a357829003601f168201915b5050509183525050600282015460ff808216151560208401526101008083048216151560408501526201000090920416151560608301526003830154608083015260048301546001600160a01b0390811660a0840152600584015460c08401526006840154811660e084015260078401549183019190915260088301541661012082015260099091015461014090910152825183908390811061235f57fe5b60200260200101819052505b60010161202b565b509695505050505050565b600061238933610f12565b6123a55760405162461bcd60e51b815260040161071e90613b14565b6123ad610f0a565b8311156123cc5760405162461bcd60e51b815260040161071e90613c5e565b6000848152600a60205260408120546123e59085612e5b565b9050606063f0bb940660e01b86866040516024016124049291906135f7565b60408051601f198184030181529190526020810180517bffffffffffffffffffffffffffffffffffffffffffffffffffffffff167fffffffff000000000000000000000000000000000000000000000000000000009093169290921790915290506000612473308385886128df565b90508086887fbc72942fa810fe8985041bb36295502eddf2c163774be55e25d205958956072860405160405180910390a49695505050505050565b336001600160a01b037f000000000000000000000000000000000000000000000000000000000000000016146124f65760405162461bcd60e51b815260040161071e90613d71565b7f0000000000000000000000000000000000000000000000000000000000000000821461254257612526816127e8565b6125425760405162461bcd60e51b815260040161071e90613849565b6000828152600a6020526040908190208290555182907f0e182617f9e5f9ce5f761c791ec15ad52176d97f9706b5c2707ffda7b6bdf7909061078f908490613f73565b60065490565b61259433610f12565b6125b05760405162461bcd60e51b815260040161071e90613b14565b6119ab8282612c37565b60065460609082106125de5760405162461bcd60e51b815260040161071e906136a2565b6000600683815481106125ed57fe5b60009182526020909120600a90910201600281015490915060ff16156126255760405162461bcd60e51b815260040161071e90613d3a565b6002810154610100900460ff161561264f5760405162461bcd60e51b815260040161071e90613993565b80600301544210156126735760405162461bcd60e51b815260040161071e90613b82565b600281015462010000900460ff16156126ac576126908333610695565b6126ac5760405162461bcd60e51b815260040161071e90613812565b60028101805460ff191660019081179091556006820180547fffffffffffffffffffffffff0000000000000000000000000000000000000000163317905542600783015581546040517f1cff79cd0000000000000000000000000000000000000000000000000000000081527f00000000000000000000000000000000000000000000000000000000000000006001600160a01b0390811693631cff79cd9361275e93921691908601906004016134b4565b600060405180830381600087803b15801561277857600080fd5b505af115801561278c573d6000803e3d6000fd5b505050506040513d6000823e601f3d908101601f191682016040526127b491908101906132df565b60405190925083907f4fa5548c15e2d4a0b806eee962935acea143d79644d2340af39f4edf13b335a990600090a250919050565b7f00000000000000000000000000000000000000000000000000000000000000006000908152600a6020526040902054101590565b600080547fffffffffffffffffffffffff0000000000000000000000000000000000000000166001600160a01b038316908117825560405190917f39510b933a9d010f906528d6019d3f4e2450a10dc33b10887503b31ed82f111191a250565b600180547fffffffffffffffffffffffff0000000000000000000000000000000000000000166001600160a01b0383169081179091556040517f566fe119ff450afc2580186c62762b6c1258245c8b1b6bb095e7276eb5a75b5590600090a250565b60068054825160408051610180810182526001600160a01b03898116825260208083018a815260009484018590526060840185905294151560808401819052428a810160a086018190523360c087015260e086019190915261010085018690526101208501869052610140850186905261016085018690526001880189559790945282517ff652222313e28459528d920b65115c16c04f3efc82aaedc97be59f3f377c0d3f600a880290810180547fffffffffffffffffffffffff00000000000000000000000000000000000000001692909416919091178355945180519697969495939492936129f9937ff652222313e28459528d920b65115c16c04f3efc82aaedc97be59f3f377c0d40909101929190910190612f01565b5060408201516002820180546060850151608086015160ff19909216931515939093177fffffffffffffffffffffffffffffffffffffffffffffffffffffffffffff00ff166101009315158402177fffffffffffffffffffffffffffffffffffffffffffffffffffffffffff00ffff16620100009115159190910217905560a0830151600383015560c08301516004830180547fffffffffffffffffffffffff00000000000000000000000000000000000000009081166001600160a01b039384161790915560e08501516005850155918401516006840180548416918316919091179055610120840151600784015561014084015160088401805490931691161790556101609091015160099091015560005b8451811015612c2c57600260008581526020019081526020016000206000868381518110612b3757fe5b6020908102919091018101516001600160a01b031682528101919091526040016000205460ff1615612b7b5760405162461bcd60e51b815260040161071e906138ee565b6000848152600260205260408120865160019290889085908110612b9b57fe5b60200260200101516001600160a01b03166001600160a01b0316815260200190815260200160002060006101000a81548160ff021916908315150217905550848181518110612be657fe5b60200260200101516001600160a01b0316847f2d0aa562da96ca6dd124fee5588e6f8545b0aa0b15cfd87cc231eff1ae7000e460405160405180910390a3600101612b0d565b505050949350505050565b612c418282610d51565b15612c5e5760405162461bcd60e51b815260040161071e90613e84565b612c666111b8565b8214612cec576006548210612c8d5760405162461bcd60e51b815260040161071e906136a2565b600060068381548110612c9c57fe5b60009182526020909120600a90910201600281015490915060ff16158015612cce57506002810154610100900460ff16155b612cea5760405162461bcd60e51b815260040161071e906139ca565b505b60008281526005602090815260408083206001600160a01b0385168085529252808320805460ff1916600117905551909184917f1b55562f9a67454174f758170aba47751c0af4c1f3b7d4e0b70667f1e82066069190a35050565b612d52838383611ef2565b612d6e5760405162461bcd60e51b815260040161071e906138b7565b60008381526009602090815260408083206001600160a01b0386168452909152812090612d996111b8565b6001600160a01b0316815260208101919091526040016000205460ff1615612df357612dc36111b8565b6001600160a01b0316816001600160a01b031614612df35760405162461bcd60e51b815260040161071e90613c27565b60008381526009602090815260408083206001600160a01b038087168086529184528285209086168086529352818420805460ff1916905590519192909186917f7b42e026d3b17cf41399915c285780d0f724b3464b269297aff73c0de0fe417f91a4505050565b6000828210612e7157612e6c611c6e565b610a8c565b610a8c828403612e7f611c6e565b612e90565b80820390821102900390565b80820390821002900390565b604080516101808101825260008082526060602083018190529282018190529181018290526080810182905260a0810182905260c0810182905260e0810182905261010081018290526101208101829052610140810182905261016081019190915290565b828054600181600116156101000203166002900490600052602060002090601f016020900481019282601f10612f4257805160ff1916838001178555612f6f565b82800160010185558215612f6f579182015b82811115612f6f578251825591602001919060010190612f54565b50612f7b929150612f7f565b5090565b5b80821115612f7b5760008155600101612f80565b80356001600160a01b03811681146106bc57600080fd5b600082601f830112612fbb578081fd5b813567ffffffffffffffff811115612fd1578182fd5b6020808202612fe1828201613f7c565b83815293508184018583018287018401881015612ffd57600080fd5b600092505b84831015613028576130148882612f94565b825260019290920191908301908301613002565b505050505092915050565b600060208284031215613044578081fd5b610a8c8383612f94565b60008060408385031215613060578081fd5b61306a8484612f94565b91506130798460208501612f94565b90509250929050565b60008060408385031215613094578182fd5b61309e8484612f94565b9150602083013567ffffffffffffffff8111156130b9578182fd5b6130c585828601612fab565b9150509250929050565b6000806000606084860312156130e3578081fd5b6130ed8585612f94565b9250602084013567ffffffffffffffff80821115613109578283fd5b818601915086601f83011261311c578283fd5b813561312f61312a82613fa3565b613f7c565b818152886020838601011115613143578485fd5b816020850160208301379081016020018490529350604086013591508082111561316b578283fd5b5061317886828701612fab565b9150509250925092565b600060208284031215613193578081fd5b5035919050565b6000602082840312156131ab578081fd5b5051919050565b600080604083850312156131c4578182fd5b823591506130798460208501612f94565b6000806000606084860312156131e9578283fd5b833592506131fa8560208601612f94565b91506132098560408601612f94565b90509250925092565b60008060008060808587031215613227578081fd5b843593506132388660208701612f94565b92506132478660408701612f94565b9150606085013567ffffffffffffffff811115613262578182fd5b61326e87828801612fab565b91505092959194509250565b6000806040838503121561328c578182fd5b50508035926020909101359150565b6000806000606084860312156132af578283fd5b8335925060208401359150604084013567ffffffffffffffff8111156132d3578182fd5b61317886828701612fab565b6000602082840312156132f0578081fd5b815167ffffffffffffffff811115613306578182fd5b8201601f81018413613316578182fd5b805161332461312a82613fa3565b818152856020838501011115613338578384fd5b613349826020830160208601613fd3565b95945050505050565b600080600060608486031215613366578081fd5b833592506020840135915060408401358015158114613383578182fd5b809150509250925092565b6001600160a01b03169052565b15159052565b600081518084526133b9816020860160208601613fd3565b601f01601f19169290920160200192915050565b60006101806133dd84845161338e565b60208301518160208601526133f4828601826133a1565b9150506040830151613409604086018261339b565b50606083015161341c606086018261339b565b50608083015161342f608086018261339b565b5060a083015160a085015260c083015161344c60c086018261338e565b5060e083015160e08501526101008084015161346a8287018261338e565b505061012083810151908501526101408084015161348a8287018261338e565b5050610160928301519390920192909252919050565b6001600160a01b0391909116815260200190565b6000604082016001600160a01b038516835260206040818501528285546001808216600081146134eb576001811461350957613541565b607f6002840416865260ff1983166060890152608088019350613541565b600283048087526135198a613fc7565b885b828110156135375781548b82016060015290840190870161351b565b8a01606001955050505b509198975050505050505050565b6000602080830181845280855180835260408601915060408482028701019250838701855b828110156135c0577fffffffffffffffffffffffffffffffffffffffffffffffffffffffffffffffc08886030184526135ae8583516133cd565b94509285019290850190600101613574565b5092979650505050505050565b901515815260200190565b9283526001600160a01b03918216602084015216604082015260600190565b918252602082015260400190565b7fffffffff0000000000000000000000000000000000000000000000000000000091909116815260200190565b600060208252610a8c60208301846133a1565b60208082526026908201527f415454454d5054494e475f455845435554494f4e5f48454c5045525f5245454e60408201527f5452414e43590000000000000000000000000000000000000000000000000000606082015260800190565b60208082526018908201527f455845435554494f4e5f444f45535f4e4f545f45584953540000000000000000604082015260600190565b6020808252601b908201527f43414e4e4f545f52454d4f56455f524f4f545f43414e43454c45520000000000604082015260600190565b60208082526011908201527f4752414e5445525f49535f474c4f42414c000000000000000000000000000000604082015260600190565b6020808252601a908201527f5045524d495353494f4e5f414c52454144595f4752414e544544000000000000604082015260600190565b60208082526022908201527f43414e4e4f545f5343484544554c455f415554484f52495a45525f414354494f60408201527f4e53000000000000000000000000000000000000000000000000000000000000606082015260800190565b60208082526015908201527f53454e4445525f49535f4e4f545f4752414e5445520000000000000000000000604082015260600190565b60208082526016908201527f53454e4445525f49535f4e4f545f4558454355544f5200000000000000000000604082015260600190565b6020808252601c908201527f44454c41595f455843454544535f5345545f415554484f52495a455200000000604082015260600190565b6020808252601a908201527f4143434f554e545f49535f414c52454144595f4752414e544552000000000000604082015260600190565b60208082526016908201527f5045524d495353494f4e5f4e4f545f4752414e54454400000000000000000000604082015260600190565b60208082526013908201527f4455504c49434154455f4558454355544f525300000000000000000000000000604082015260600190565b60208082526014908201527f534b49505f56414c55455f544f4f5f4c41524745000000000000000000000000604082015260600190565b60208082526019908201527f414354494f4e5f4841535f4e4f5f4752414e545f44454c415900000000000000604082015260600190565b6020808252601a908201527f455845435554494f4e5f414c52454144595f43414e43454c4544000000000000604082015260600190565b60208082526018908201527f455845435554494f4e5f49535f4e4f545f50454e44494e470000000000000000604082015260600190565b6020808252600e908201527f444154415f544f4f5f53484f5254000000000000000000000000000000000000604082015260600190565b6020808252601f908201527f53454e4445525f444f45535f4e4f545f484156455f5045524d495353494f4e00604082015260600190565b60208082526010908201527f44454c41595f49535f4e4f545f53455400000000000000000000000000000000604082015260600190565b60208082526011908201527f5245564f4b45525f49535f474c4f42414c000000000000000000000000000000604082015260600190565b60208082526015908201527f53454e4445525f49535f4e4f545f5245564f4b45520000000000000000000000604082015260600190565b60208082526012908201527f53454e4445525f49535f4e4f545f524f4f540000000000000000000000000000604082015260600190565b6020808252601a908201527f43414e4e4f545f52454d4f56455f524f4f545f5245564f4b4552000000000000604082015260600190565b6020808252601c908201527f455845435554494f4e5f4e4f545f5945545f45584543555441424c4500000000604082015260600190565b60208082526018908201527f5245564f4b455f4d5553545f42455f5343484544554c45440000000000000000604082015260600190565b6020808252601a908201527f53454e4445525f49535f4e4f545f50454e44494e475f524f4f54000000000000604082015260600190565b6020808252601d908201527f4143434f554e545f4841535f474c4f42414c5f5045524d495353494f4e000000604082015260600190565b6020808252600f908201527f44454c41595f544f4f5f4c415247450000000000000000000000000000000000604082015260600190565b6020808252601a908201527f414354494f4e5f4841535f4e4f5f5245564f4b455f44454c4159000000000000604082015260600190565b60208082526013908201527f5a45524f5f4d41585f53495a455f56414c554500000000000000000000000000604082015260600190565b60208082526016908201527f4143434f554e545f49535f4e4f545f4752414e54455200000000000000000000604082015260600190565b6020808252601a908201527f455845435554494f4e5f414c52454144595f4558454355544544000000000000604082015260600190565b60208082526015908201527f43414e5f4f4e4c595f42455f5343484544554c45440000000000000000000000604082015260600190565b6020808252601a908201527f4143434f554e545f49535f474c4f42414c5f43414e43454c4552000000000000604082015260600190565b60208082526017908201527f4143434f554e545f49535f4e4f545f43414e43454c4552000000000000000000604082015260600190565b60208082526017908201527f4752414e545f4d5553545f42455f5343484544554c4544000000000000000000604082015260600190565b60208082526016908201527f4143434f554e545f49535f4e4f545f5245564f4b455200000000000000000000604082015260600190565b6020808252601b908201527f4143434f554e545f49535f414c52454144595f43414e43454c45520000000000604082015260600190565b6020808252601a908201527f43414e4e4f545f52454d4f56455f524f4f545f4752414e544552000000000000604082015260600190565b6020808252601a908201527f4143434f554e545f49535f414c52454144595f5245564f4b4552000000000000604082015260600190565b60208082526016908201527f53454e4445525f49535f4e4f545f43414e43454c455200000000000000000000604082015260600190565b600060208252610a8c60208301846133cd565b90815260200190565b60405181810167ffffffffffffffff81118282101715613f9b57600080fd5b604052919050565b600067ffffffffffffffff821115613fb9578081fd5b50601f01601f191660200190565b60009081526020902090565b60005b83811015613fee578181015183820152602001613fd6565b83811115613ffd576000848401525b5050505056fea264697066735822122037f0e3720b561c4cafbdf5ecf3a34a6e219f54e10c51332596704601e0c342b464736f6c6343000701003360a060405234801561001057600080fd5b5060016000553360601b60805260805160601c6104b061003f600039806101c6528061026e52506104b06000f3fe608060405234801561001057600080fd5b50600436106100365760003560e01c80631cff79cd1461003b578063aaabadc514610173575b600080fd5b6100fe6004803603604081101561005157600080fd5b73ffffffffffffffffffffffffffffffffffffffff823516919081019060408101602082013564010000000081111561008957600080fd5b82018360208201111561009b57600080fd5b803590602001918460018302840111640100000000831117156100bd57600080fd5b91908080601f0160208091040260200160405190810160405280939291908181526020018383808284376000920191909152509295506101a4945050505050565b6040805160208082528351818301528351919283929083019185019080838360005b83811015610138578181015183820152602001610120565b50505050905090810190601f1680156101655780820380516001836020036101000a031916815260200191505b509250505060405180910390f35b61017b61026c565b6040805173ffffffffffffffffffffffffffffffffffffffff9092168252519081900360200190f35b60606101ae610290565b3373ffffffffffffffffffffffffffffffffffffffff7f0000000000000000000000000000000000000000000000000000000000000000161461025257604080517f08c379a000000000000000000000000000000000000000000000000000000000815260206004820152601860248201527f53454e4445525f49535f4e4f545f415554484f52495a45520000000000000000604482015290519081900360640190fd5b61025c83836102a9565b9050610266610393565b92915050565b7f000000000000000000000000000000000000000000000000000000000000000090565b6102a26002600054141561019061039a565b6002600055565b6060600060608473ffffffffffffffffffffffffffffffffffffffff16846040518082805190602001908083835b6020831061031457805182527fffffffffffffffffffffffffffffffffffffffffffffffffffffffffffffffe090920191602091820191016102d7565b6001836020036101000a0380198251168184511680821785525050505050509050019150506000604051808303816000865af19150503d8060008114610376576040519150601f19603f3d011682016040523d82523d6000602084013e61037b565b606091505b509150915061038a82826103ac565b95945050505050565b6001600055565b816103a8576103a8816103d2565b5050565b606082156103bb575080610266565b8151156103cb5781518083602001fd5b6102666101ae5b6103fc817f42414c00000000000000000000000000000000000000000000000000000000006103ff565b50565b7f08c379a000000000000000000000000000000000000000000000000000000000600090815260206004526007602452600a808404818106603090810160081b958390069590950190829004918206850160101b01602363ffffff0060e086901c160160181b0190930160c81b60445260e882901c90606490fdfea264697066735822122016cd979c4c38299344fadf84720b5591b2802063c0d73384a34a0d1ca0b517e764736f6c63430007010033","opcodes":"PUSH2 0x120 PUSH1 0x40 MSTORE CALLVALUE DUP1 ISZERO PUSH3 0x12 JUMPI PUSH1 0x0 DUP1 REVERT JUMPDEST POP PUSH1 0x40 MLOAD PUSH3 0x5EAE CODESIZE SUB DUP1 PUSH3 0x5EAE DUP4 CODECOPY DUP2 ADD PUSH1 0x40 DUP2 SWAP1 MSTORE PUSH3 0x35 SWAP2 PUSH3 0x844 JUMP JUMPDEST PUSH1 0x0 ADDRESS DUP11 DUP10 DUP10 PUSH1 0x40 MLOAD PUSH3 0x49 SWAP1 PUSH3 0x6BA JUMP JUMPDEST PUSH3 0x58 SWAP5 SWAP4 SWAP3 SWAP2 SWAP1 PUSH3 0x9E0 JUMP JUMPDEST PUSH1 0x40 MLOAD DUP1 SWAP2 SUB SWAP1 PUSH1 0x0 CREATE DUP1 ISZERO DUP1 ISZERO PUSH3 0x75 JUMPI RETURNDATASIZE PUSH1 0x0 DUP1 RETURNDATACOPY RETURNDATASIZE PUSH1 0x0 REVERT JUMPDEST POP PUSH1 0x1 PUSH1 0x1 PUSH1 0x60 SHL SUB NOT PUSH1 0x60 DUP3 DUP2 SHL DUP3 AND PUSH1 0xE0 MSTORE DUP12 SWAP1 SHL AND PUSH1 0xC0 MSTORE PUSH1 0x40 DUP1 MLOAD PUSH4 0x11B2515F PUSH1 0xE3 SHL DUP2 MSTORE SWAP1 MLOAD SWAP2 SWAP3 POP PUSH1 0x1 PUSH1 0x1 PUSH1 0xA0 SHL SUB DUP11 AND SWAP2 PUSH4 0x8D928AF8 SWAP2 PUSH1 0x4 DUP1 DUP3 ADD SWAP3 PUSH1 0x20 SWAP3 SWAP1 SWAP2 SWAP1 DUP3 SWAP1 SUB ADD DUP2 DUP7 DUP1 EXTCODESIZE ISZERO DUP1 ISZERO PUSH3 0xD5 JUMPI PUSH1 0x0 DUP1 REVERT JUMPDEST POP GAS STATICCALL ISZERO DUP1 ISZERO PUSH3 0xEA JUMPI RETURNDATASIZE PUSH1 0x0 DUP1 RETURNDATACOPY RETURNDATASIZE PUSH1 0x0 REVERT JUMPDEST POP POP POP POP PUSH1 0x40 MLOAD RETURNDATASIZE PUSH1 0x1F NOT PUSH1 0x1F DUP3 ADD AND DUP3 ADD DUP1 PUSH1 0x40 MSTORE POP DUP2 ADD SWAP1 PUSH3 0x110 SWAP2 SWAP1 PUSH3 0x98E JUMP JUMPDEST PUSH1 0x1 PUSH1 0x1 PUSH1 0x60 SHL SUB NOT PUSH1 0x60 SWAP2 DUP3 SHL DUP2 AND PUSH1 0x80 MSTORE SWAP1 DUP12 SWAP1 SHL AND PUSH1 0xA0 MSTORE PUSH2 0x100 DUP8 SWAP1 MSTORE PUSH1 0x0 JUMPDEST DUP7 MLOAD DUP2 LT ISZERO PUSH3 0x298 JUMPI PUSH3 0x148 PUSH3 0x6C8 JUMP JUMPDEST DUP8 DUP3 DUP2 MLOAD DUP2 LT PUSH3 0x155 JUMPI INVALID JUMPDEST PUSH1 0x20 MUL PUSH1 0x20 ADD ADD MLOAD SWAP1 POP DUP11 PUSH1 0x1 PUSH1 0x1 PUSH1 0xA0 SHL SUB AND PUSH4 0x9BE2A884 DUP3 PUSH1 0x20 ADD MLOAD DUP4 PUSH1 0x0 ADD MLOAD DUP5 PUSH1 0x40 ADD MLOAD PUSH1 0x40 MLOAD DUP5 PUSH4 0xFFFFFFFF AND PUSH1 0xE0 SHL DUP2 MSTORE PUSH1 0x4 ADD PUSH3 0x19D SWAP4 SWAP3 SWAP2 SWAP1 PUSH3 0xA0A JUMP JUMPDEST PUSH1 0x20 PUSH1 0x40 MLOAD DUP1 DUP4 SUB DUP2 DUP7 DUP1 EXTCODESIZE ISZERO DUP1 ISZERO PUSH3 0x1B6 JUMPI PUSH1 0x0 DUP1 REVERT JUMPDEST POP GAS STATICCALL ISZERO DUP1 ISZERO PUSH3 0x1CB JUMPI RETURNDATASIZE PUSH1 0x0 DUP1 RETURNDATACOPY RETURNDATASIZE PUSH1 0x0 REVERT JUMPDEST POP POP POP POP PUSH1 0x40 MLOAD RETURNDATASIZE PUSH1 0x1F NOT PUSH1 0x1F DUP3 ADD AND DUP3 ADD DUP1 PUSH1 0x40 MSTORE POP DUP2 ADD SWAP1 PUSH3 0x1F1 SWAP2 SWAP1 PUSH3 0x965 JUMP JUMPDEST PUSH3 0x219 JUMPI PUSH1 0x40 MLOAD PUSH3 0x461BCD PUSH1 0xE5 SHL DUP2 MSTORE PUSH1 0x4 ADD PUSH3 0x210 SWAP1 PUSH3 0xA88 JUMP JUMPDEST PUSH1 0x40 MLOAD DUP1 SWAP2 SUB SWAP1 REVERT JUMPDEST PUSH1 0x20 DUP2 ADD MLOAD DUP2 MLOAD PUSH1 0x40 DUP1 DUP5 ADD MLOAD SWAP1 MLOAD PUSH4 0x4661E839 PUSH1 0xE1 SHL DUP2 MSTORE PUSH1 0x1 PUSH1 0x1 PUSH1 0xA0 SHL SUB DUP8 AND SWAP4 PUSH4 0x8CC3D072 SWAP4 PUSH3 0x256 SWAP4 SWAP2 SWAP3 SWAP1 SWAP2 SWAP1 PUSH1 0x4 ADD PUSH3 0xA0A JUMP JUMPDEST PUSH1 0x0 PUSH1 0x40 MLOAD DUP1 DUP4 SUB DUP2 PUSH1 0x0 DUP8 DUP1 EXTCODESIZE ISZERO DUP1 ISZERO PUSH3 0x271 JUMPI PUSH1 0x0 DUP1 REVERT JUMPDEST POP GAS CALL ISZERO DUP1 ISZERO PUSH3 0x286 JUMPI RETURNDATASIZE PUSH1 0x0 DUP1 RETURNDATACOPY RETURNDATASIZE PUSH1 0x0 REVERT JUMPDEST POP POP PUSH1 0x1 SWAP1 SWAP4 ADD SWAP3 POP PUSH3 0x134 SWAP2 POP POP JUMP JUMPDEST POP PUSH1 0x0 JUMPDEST DUP6 MLOAD DUP2 LT ISZERO PUSH3 0x361 JUMPI DUP2 PUSH1 0x1 PUSH1 0x1 PUSH1 0xA0 SHL SUB AND PUSH4 0x2229EDB4 DUP8 DUP4 DUP2 MLOAD DUP2 LT PUSH3 0x2C2 JUMPI INVALID JUMPDEST PUSH1 0x20 MUL PUSH1 0x20 ADD ADD MLOAD PUSH1 0x20 ADD MLOAD DUP9 DUP5 DUP2 MLOAD DUP2 LT PUSH3 0x2DB JUMPI INVALID JUMPDEST PUSH1 0x20 MUL PUSH1 0x20 ADD ADD MLOAD PUSH1 0x0 ADD MLOAD DUP10 DUP6 DUP2 MLOAD DUP2 LT PUSH3 0x2F4 JUMPI INVALID JUMPDEST PUSH1 0x20 MUL PUSH1 0x20 ADD ADD MLOAD PUSH1 0x40 ADD MLOAD PUSH1 0x40 MLOAD DUP5 PUSH4 0xFFFFFFFF AND PUSH1 0xE0 SHL DUP2 MSTORE PUSH1 0x4 ADD PUSH3 0x320 SWAP4 SWAP3 SWAP2 SWAP1 PUSH3 0xA0A JUMP JUMPDEST PUSH1 0x0 PUSH1 0x40 MLOAD DUP1 DUP4 SUB DUP2 PUSH1 0x0 DUP8 DUP1 EXTCODESIZE ISZERO DUP1 ISZERO PUSH3 0x33B JUMPI PUSH1 0x0 DUP1 REVERT JUMPDEST POP GAS CALL ISZERO DUP1 ISZERO PUSH3 0x350 JUMPI RETURNDATASIZE PUSH1 0x0 DUP1 RETURNDATACOPY RETURNDATASIZE PUSH1 0x0 REVERT JUMPDEST POP POP PUSH1 0x1 SWAP1 SWAP3 ADD SWAP2 POP PUSH3 0x29C SWAP1 POP JUMP JUMPDEST POP PUSH1 0x0 JUMPDEST DUP5 MLOAD DUP2 LT ISZERO PUSH3 0x410 JUMPI DUP2 PUSH1 0x1 PUSH1 0x1 PUSH1 0xA0 SHL SUB AND PUSH4 0xA44495D1 DUP7 DUP4 DUP2 MLOAD DUP2 LT PUSH3 0x38B JUMPI INVALID JUMPDEST PUSH1 0x20 MUL PUSH1 0x20 ADD ADD MLOAD PUSH1 0x0 ADD MLOAD DUP8 DUP5 DUP2 MLOAD DUP2 LT PUSH3 0x3A4 JUMPI INVALID JUMPDEST PUSH1 0x20 MUL PUSH1 0x20 ADD ADD MLOAD PUSH1 0x40 ADD MLOAD PUSH1 0x40 MLOAD DUP4 PUSH4 0xFFFFFFFF AND PUSH1 0xE0 SHL DUP2 MSTORE PUSH1 0x4 ADD PUSH3 0x3CF SWAP3 SWAP2 SWAP1 PUSH3 0x9C6 JUMP JUMPDEST PUSH1 0x0 PUSH1 0x40 MLOAD DUP1 DUP4 SUB DUP2 PUSH1 0x0 DUP8 DUP1 EXTCODESIZE ISZERO DUP1 ISZERO PUSH3 0x3EA JUMPI PUSH1 0x0 DUP1 REVERT JUMPDEST POP GAS CALL ISZERO DUP1 ISZERO PUSH3 0x3FF JUMPI RETURNDATASIZE PUSH1 0x0 DUP1 RETURNDATACOPY RETURNDATASIZE PUSH1 0x0 REVERT JUMPDEST POP POP PUSH1 0x1 SWAP1 SWAP3 ADD SWAP2 POP PUSH3 0x365 SWAP1 POP JUMP JUMPDEST POP PUSH1 0x0 DUP1 JUMPDEST DUP5 MLOAD DUP2 LT ISZERO PUSH3 0x530 JUMPI PUSH3 0x278D00 DUP6 DUP3 DUP2 MLOAD DUP2 LT PUSH3 0x430 JUMPI INVALID JUMPDEST PUSH1 0x20 MUL PUSH1 0x20 ADD ADD MLOAD PUSH1 0x20 ADD MLOAD GT ISZERO PUSH3 0x45D JUMPI PUSH1 0x40 MLOAD PUSH3 0x461BCD PUSH1 0xE5 SHL DUP2 MSTORE PUSH1 0x4 ADD PUSH3 0x210 SWAP1 PUSH3 0xAB1 JUMP JUMPDEST DUP3 PUSH1 0x1 PUSH1 0x1 PUSH1 0xA0 SHL SUB AND PUSH4 0xF0845522 DUP7 DUP4 DUP2 MLOAD DUP2 LT PUSH3 0x479 JUMPI INVALID JUMPDEST PUSH1 0x20 MUL PUSH1 0x20 ADD ADD MLOAD PUSH1 0x0 ADD MLOAD DUP8 DUP5 DUP2 MLOAD DUP2 LT PUSH3 0x492 JUMPI INVALID JUMPDEST PUSH1 0x20 MUL PUSH1 0x20 ADD ADD MLOAD PUSH1 0x20 ADD MLOAD PUSH3 0x4AF ADDRESS PUSH3 0x664 PUSH1 0x20 SHL PUSH1 0x20 SHR JUMP JUMPDEST PUSH1 0x40 MLOAD DUP5 PUSH4 0xFFFFFFFF AND PUSH1 0xE0 SHL DUP2 MSTORE PUSH1 0x4 ADD PUSH3 0x4CF SWAP4 SWAP3 SWAP2 SWAP1 PUSH3 0xA29 JUMP JUMPDEST PUSH1 0x20 PUSH1 0x40 MLOAD DUP1 DUP4 SUB DUP2 PUSH1 0x0 DUP8 DUP1 EXTCODESIZE ISZERO DUP1 ISZERO PUSH3 0x4EA JUMPI PUSH1 0x0 DUP1 REVERT JUMPDEST POP GAS CALL ISZERO DUP1 ISZERO PUSH3 0x4FF JUMPI RETURNDATASIZE PUSH1 0x0 DUP1 RETURNDATACOPY RETURNDATASIZE PUSH1 0x0 REVERT JUMPDEST POP POP POP POP PUSH1 0x40 MLOAD RETURNDATASIZE PUSH1 0x1F NOT PUSH1 0x1F DUP3 ADD AND DUP3 ADD DUP1 PUSH1 0x40 MSTORE POP DUP2 ADD SWAP1 PUSH3 0x525 SWAP2 SWAP1 PUSH3 0x9AD JUMP JUMPDEST SWAP2 POP PUSH1 0x1 ADD PUSH3 0x415 JUMP JUMPDEST POP PUSH1 0x0 JUMPDEST DUP4 MLOAD DUP2 LT ISZERO PUSH3 0x64F JUMPI PUSH3 0x278D00 DUP5 DUP3 DUP2 MLOAD DUP2 LT PUSH3 0x54F JUMPI INVALID JUMPDEST PUSH1 0x20 MUL PUSH1 0x20 ADD ADD MLOAD PUSH1 0x20 ADD MLOAD GT ISZERO PUSH3 0x57C JUMPI PUSH1 0x40 MLOAD PUSH3 0x461BCD PUSH1 0xE5 SHL DUP2 MSTORE PUSH1 0x4 ADD PUSH3 0x210 SWAP1 PUSH3 0xAB1 JUMP JUMPDEST DUP3 PUSH1 0x1 PUSH1 0x1 PUSH1 0xA0 SHL SUB AND PUSH4 0x63CDBF36 DUP6 DUP4 DUP2 MLOAD DUP2 LT PUSH3 0x598 JUMPI INVALID JUMPDEST PUSH1 0x20 MUL PUSH1 0x20 ADD ADD MLOAD PUSH1 0x0 ADD MLOAD DUP7 DUP5 DUP2 MLOAD DUP2 LT PUSH3 0x5B1 JUMPI INVALID JUMPDEST PUSH1 0x20 MUL PUSH1 0x20 ADD ADD MLOAD PUSH1 0x20 ADD MLOAD PUSH3 0x5CE ADDRESS PUSH3 0x664 PUSH1 0x20 SHL PUSH1 0x20 SHR JUMP JUMPDEST PUSH1 0x40 MLOAD DUP5 PUSH4 0xFFFFFFFF AND PUSH1 0xE0 SHL DUP2 MSTORE PUSH1 0x4 ADD PUSH3 0x5EE SWAP4 SWAP3 SWAP2 SWAP1 PUSH3 0xA29 JUMP JUMPDEST PUSH1 0x20 PUSH1 0x40 MLOAD DUP1 DUP4 SUB DUP2 PUSH1 0x0 DUP8 DUP1 EXTCODESIZE ISZERO DUP1 ISZERO PUSH3 0x609 JUMPI PUSH1 0x0 DUP1 REVERT JUMPDEST POP GAS CALL ISZERO DUP1 ISZERO PUSH3 0x61E JUMPI RETURNDATASIZE PUSH1 0x0 DUP1 RETURNDATACOPY RETURNDATASIZE PUSH1 0x0 REVERT JUMPDEST POP POP POP POP PUSH1 0x40 MLOAD RETURNDATASIZE PUSH1 0x1F NOT PUSH1 0x1F DUP3 ADD AND DUP3 ADD DUP1 PUSH1 0x40 MSTORE POP DUP2 ADD SWAP1 PUSH3 0x644 SWAP2 SWAP1 PUSH3 0x9AD JUMP JUMPDEST SWAP2 POP PUSH1 0x1 ADD PUSH3 0x534 JUMP JUMPDEST POP PUSH1 0x0 SSTORE POP PUSH3 0xB48 SWAP9 POP POP POP POP POP POP POP POP POP JUMP JUMPDEST PUSH1 0x40 DUP1 MLOAD PUSH1 0x1 DUP1 DUP3 MSTORE DUP2 DUP4 ADD SWAP1 SWAP3 MSTORE PUSH1 0x60 SWAP2 PUSH1 0x20 DUP1 DUP4 ADD SWAP1 DUP1 CALLDATASIZE DUP4 CALLDATACOPY ADD SWAP1 POP POP SWAP1 POP DUP2 DUP2 PUSH1 0x0 DUP2 MLOAD DUP2 LT PUSH3 0x695 JUMPI INVALID JUMPDEST PUSH1 0x20 MUL PUSH1 0x20 ADD ADD SWAP1 PUSH1 0x1 PUSH1 0x1 PUSH1 0xA0 SHL SUB AND SWAP1 DUP2 PUSH1 0x1 PUSH1 0x1 PUSH1 0xA0 SHL SUB AND DUP2 MSTORE POP POP SWAP2 SWAP1 POP JUMP JUMPDEST PUSH2 0x49C8 DUP1 PUSH3 0x14E6 DUP4 CODECOPY ADD SWAP1 JUMP JUMPDEST PUSH1 0x40 DUP1 MLOAD PUSH1 0x60 DUP2 ADD DUP3 MSTORE PUSH1 0x0 DUP1 DUP3 MSTORE PUSH1 0x20 DUP3 ADD DUP2 SWAP1 MSTORE SWAP2 DUP2 ADD SWAP2 SWAP1 SWAP2 MSTORE SWAP1 JUMP JUMPDEST DUP1 MLOAD PUSH3 0x6F5 DUP2 PUSH3 0xB2F JUMP JUMPDEST SWAP3 SWAP2 POP POP JUMP JUMPDEST PUSH1 0x0 DUP3 PUSH1 0x1F DUP4 ADD SLT PUSH3 0x70C JUMPI DUP1 DUP2 REVERT JUMPDEST DUP2 MLOAD PUSH3 0x723 PUSH3 0x71D DUP3 PUSH3 0xB0F JUMP JUMPDEST PUSH3 0xAE8 JUMP JUMPDEST DUP2 DUP2 MSTORE SWAP2 POP PUSH1 0x20 DUP1 DUP4 ADD SWAP1 DUP5 DUP2 ADD PUSH1 0x40 DUP1 DUP6 MUL DUP8 ADD DUP4 ADD DUP9 LT ISZERO PUSH3 0x747 JUMPI PUSH1 0x0 DUP1 REVERT JUMPDEST PUSH1 0x0 DUP1 JUMPDEST DUP7 DUP2 LT ISZERO PUSH3 0x78D JUMPI DUP3 DUP5 DUP12 SUB SLT ISZERO PUSH3 0x763 JUMPI DUP2 DUP3 REVERT JUMPDEST PUSH3 0x76E DUP4 PUSH3 0xAE8 JUMP JUMPDEST DUP5 MLOAD DUP2 MSTORE DUP6 DUP6 ADD MLOAD DUP7 DUP3 ADD MSTORE DUP7 MSTORE SWAP5 DUP5 ADD SWAP5 SWAP3 DUP3 ADD SWAP3 PUSH1 0x1 ADD PUSH3 0x74B JUMP JUMPDEST POP POP POP POP POP POP POP SWAP3 SWAP2 POP POP JUMP JUMPDEST PUSH1 0x0 DUP3 PUSH1 0x1F DUP4 ADD SLT PUSH3 0x7AB JUMPI DUP1 DUP2 REVERT JUMPDEST DUP2 MLOAD PUSH3 0x7BC PUSH3 0x71D DUP3 PUSH3 0xB0F JUMP JUMPDEST DUP2 DUP2 MSTORE SWAP2 POP PUSH1 0x20 DUP1 DUP4 ADD SWAP1 DUP5 DUP2 ADD PUSH1 0x60 DUP1 DUP6 MUL DUP8 ADD DUP4 ADD DUP9 LT ISZERO PUSH3 0x7E0 JUMPI PUSH1 0x0 DUP1 REVERT JUMPDEST PUSH1 0x0 DUP1 JUMPDEST DUP7 DUP2 LT ISZERO PUSH3 0x78D JUMPI DUP3 DUP5 DUP12 SUB SLT ISZERO PUSH3 0x7FC JUMPI DUP2 DUP3 REVERT JUMPDEST PUSH3 0x807 DUP4 PUSH3 0xAE8 JUMP JUMPDEST PUSH3 0x813 DUP12 DUP7 PUSH3 0x6E8 JUMP JUMPDEST DUP2 MSTORE DUP6 DUP6 ADD MLOAD DUP7 DUP3 ADD MSTORE PUSH1 0x40 PUSH3 0x82D DUP13 DUP3 DUP9 ADD PUSH3 0x6E8 JUMP JUMPDEST SWAP1 DUP3 ADD MSTORE DUP7 MSTORE SWAP5 DUP5 ADD SWAP5 SWAP3 DUP3 ADD SWAP3 PUSH1 0x1 ADD PUSH3 0x7E4 JUMP JUMPDEST PUSH1 0x0 DUP1 PUSH1 0x0 DUP1 PUSH1 0x0 DUP1 PUSH1 0x0 DUP1 PUSH1 0x0 PUSH2 0x120 DUP11 DUP13 SUB SLT ISZERO PUSH3 0x863 JUMPI DUP5 DUP6 REVERT JUMPDEST PUSH3 0x86F DUP12 DUP12 PUSH3 0x6E8 JUMP JUMPDEST SWAP9 POP PUSH3 0x880 DUP12 PUSH1 0x20 DUP13 ADD PUSH3 0x6E8 JUMP JUMPDEST SWAP8 POP PUSH3 0x891 DUP12 PUSH1 0x40 DUP13 ADD PUSH3 0x6E8 JUMP JUMPDEST PUSH1 0x60 DUP12 ADD MLOAD PUSH1 0x80 DUP13 ADD MLOAD SWAP2 SWAP9 POP SWAP7 POP PUSH1 0x1 PUSH1 0x1 PUSH1 0x40 SHL SUB DUP1 DUP3 GT ISZERO PUSH3 0x8B5 JUMPI DUP7 DUP8 REVERT JUMPDEST PUSH3 0x8C3 DUP14 DUP4 DUP15 ADD PUSH3 0x79A JUMP JUMPDEST SWAP7 POP PUSH1 0xA0 DUP13 ADD MLOAD SWAP2 POP DUP1 DUP3 GT ISZERO PUSH3 0x8D9 JUMPI DUP6 DUP7 REVERT JUMPDEST PUSH3 0x8E7 DUP14 DUP4 DUP15 ADD PUSH3 0x79A JUMP JUMPDEST SWAP6 POP PUSH1 0xC0 DUP13 ADD MLOAD SWAP2 POP DUP1 DUP3 GT ISZERO PUSH3 0x8FD JUMPI DUP5 DUP6 REVERT JUMPDEST PUSH3 0x90B DUP14 DUP4 DUP15 ADD PUSH3 0x79A JUMP JUMPDEST SWAP5 POP PUSH1 0xE0 DUP13 ADD MLOAD SWAP2 POP DUP1 DUP3 GT ISZERO PUSH3 0x921 JUMPI DUP4 DUP5 REVERT JUMPDEST PUSH3 0x92F DUP14 DUP4 DUP15 ADD PUSH3 0x6FB JUMP JUMPDEST SWAP4 POP PUSH2 0x100 DUP13 ADD MLOAD SWAP2 POP DUP1 DUP3 GT ISZERO PUSH3 0x946 JUMPI DUP3 DUP4 REVERT JUMPDEST POP PUSH3 0x955 DUP13 DUP3 DUP14 ADD PUSH3 0x6FB JUMP JUMPDEST SWAP2 POP POP SWAP3 SWAP6 SWAP9 POP SWAP3 SWAP6 SWAP9 POP SWAP3 SWAP6 SWAP9 JUMP JUMPDEST PUSH1 0x0 PUSH1 0x20 DUP3 DUP5 SUB SLT ISZERO PUSH3 0x977 JUMPI DUP1 DUP2 REVERT JUMPDEST DUP2 MLOAD DUP1 ISZERO ISZERO DUP2 EQ PUSH3 0x987 JUMPI DUP2 DUP3 REVERT JUMPDEST SWAP4 SWAP3 POP POP POP JUMP JUMPDEST PUSH1 0x0 PUSH1 0x20 DUP3 DUP5 SUB SLT ISZERO PUSH3 0x9A0 JUMPI DUP1 DUP2 REVERT JUMPDEST DUP2 MLOAD PUSH3 0x987 DUP2 PUSH3 0xB2F JUMP JUMPDEST PUSH1 0x0 PUSH1 0x20 DUP3 DUP5 SUB SLT ISZERO PUSH3 0x9BF JUMPI DUP1 DUP2 REVERT JUMPDEST POP MLOAD SWAP2 SWAP1 POP JUMP JUMPDEST PUSH1 0x1 PUSH1 0x1 PUSH1 0xA0 SHL SUB SWAP3 DUP4 AND DUP2 MSTORE SWAP2 AND PUSH1 0x20 DUP3 ADD MSTORE PUSH1 0x40 ADD SWAP1 JUMP JUMPDEST PUSH1 0x1 PUSH1 0x1 PUSH1 0xA0 SHL SUB SWAP5 DUP6 AND DUP2 MSTORE SWAP3 DUP5 AND PUSH1 0x20 DUP5 ADD MSTORE SWAP3 AND PUSH1 0x40 DUP3 ADD MSTORE PUSH1 0x60 DUP2 ADD SWAP2 SWAP1 SWAP2 MSTORE PUSH1 0x80 ADD SWAP1 JUMP JUMPDEST SWAP3 DUP4 MSTORE PUSH1 0x1 PUSH1 0x1 PUSH1 0xA0 SHL SUB SWAP2 DUP3 AND PUSH1 0x20 DUP5 ADD MSTORE AND PUSH1 0x40 DUP3 ADD MSTORE PUSH1 0x60 ADD SWAP1 JUMP JUMPDEST PUSH1 0x0 PUSH1 0x60 DUP3 ADD DUP6 DUP4 MSTORE PUSH1 0x20 DUP6 DUP2 DUP6 ADD MSTORE PUSH1 0x60 PUSH1 0x40 DUP6 ADD MSTORE DUP2 DUP6 MLOAD DUP1 DUP5 MSTORE PUSH1 0x80 DUP7 ADD SWAP2 POP DUP3 DUP8 ADD SWAP4 POP DUP5 JUMPDEST DUP2 DUP2 LT ISZERO PUSH3 0xA7A JUMPI DUP5 MLOAD PUSH1 0x1 PUSH1 0x1 PUSH1 0xA0 SHL SUB AND DUP4 MSTORE SWAP4 DUP4 ADD SWAP4 SWAP2 DUP4 ADD SWAP2 PUSH1 0x1 ADD PUSH3 0xA53 JUMP JUMPDEST POP SWAP1 SWAP9 SWAP8 POP POP POP POP POP POP POP POP JUMP JUMPDEST PUSH1 0x20 DUP1 DUP3 MSTORE PUSH1 0xF SWAP1 DUP3 ADD MSTORE PUSH15 0x554E45585045435445445F524F4C45 PUSH1 0x88 SHL PUSH1 0x40 DUP3 ADD MSTORE PUSH1 0x60 ADD SWAP1 JUMP JUMPDEST PUSH1 0x20 DUP1 DUP3 MSTORE PUSH1 0x16 SWAP1 DUP3 ADD MSTORE PUSH32 0x554E45585045435445445F4C415247455F44454C415900000000000000000000 PUSH1 0x40 DUP3 ADD MSTORE PUSH1 0x60 ADD SWAP1 JUMP JUMPDEST PUSH1 0x40 MLOAD DUP2 DUP2 ADD PUSH1 0x1 PUSH1 0x1 PUSH1 0x40 SHL SUB DUP2 GT DUP3 DUP3 LT OR ISZERO PUSH3 0xB07 JUMPI PUSH1 0x0 DUP1 REVERT JUMPDEST PUSH1 0x40 MSTORE SWAP2 SWAP1 POP JUMP JUMPDEST PUSH1 0x0 PUSH1 0x1 PUSH1 0x1 PUSH1 0x40 SHL SUB DUP3 GT ISZERO PUSH3 0xB25 JUMPI DUP1 DUP2 REVERT JUMPDEST POP PUSH1 0x20 SWAP1 DUP2 MUL ADD SWAP1 JUMP JUMPDEST PUSH1 0x1 PUSH1 0x1 PUSH1 0xA0 SHL SUB DUP2 AND DUP2 EQ PUSH3 0xB45 JUMPI PUSH1 0x0 DUP1 REVERT JUMPDEST POP JUMP JUMPDEST PUSH1 0x80 MLOAD PUSH1 0x60 SHR PUSH1 0xA0 MLOAD PUSH1 0x60 SHR PUSH1 0xC0 MLOAD PUSH1 0x60 SHR PUSH1 0xE0 MLOAD PUSH1 0x60 SHR PUSH2 0x100 MLOAD PUSH2 0x92A PUSH3 0xBBC PUSH1 0x0 CODECOPY DUP1 PUSH2 0x13A MSTORE POP DUP1 PUSH2 0x1A5 MSTORE DUP1 PUSH2 0x280 MSTORE DUP1 PUSH2 0x2E4 MSTORE DUP1 PUSH2 0x621 MSTORE POP DUP1 PUSH2 0x4B3 MSTORE DUP1 PUSH2 0x681 MSTORE POP DUP1 PUSH2 0x311 MSTORE DUP1 PUSH2 0x6A5 MSTORE POP DUP1 PUSH2 0x408 MSTORE DUP1 PUSH2 0x4F1 MSTORE DUP1 PUSH2 0x5F4 MSTORE DUP1 PUSH2 0x6C9 MSTORE POP PUSH2 0x92A PUSH1 0x0 RETURN INVALID PUSH1 0x80 PUSH1 0x40 MSTORE CALLVALUE DUP1 ISZERO PUSH2 0x10 JUMPI PUSH1 0x0 DUP1 REVERT JUMPDEST POP PUSH1 0x4 CALLDATASIZE LT PUSH2 0xBE JUMPI PUSH1 0x0 CALLDATALOAD PUSH1 0xE0 SHR DUP1 PUSH4 0xB78B6087 GT PUSH2 0x76 JUMPI DUP1 PUSH4 0xEBF0C717 GT PUSH2 0x5B JUMPI DUP1 PUSH4 0xEBF0C717 EQ PUSH2 0x120 JUMPI DUP1 PUSH4 0xFBFA77CF EQ PUSH2 0x128 JUMPI DUP1 PUSH4 0xFC78A228 EQ PUSH2 0x130 JUMPI PUSH2 0xBE JUMP JUMPDEST DUP1 PUSH4 0xB78B6087 EQ PUSH2 0x110 JUMPI DUP1 PUSH4 0xC6BFE9AE EQ PUSH2 0x118 JUMPI PUSH2 0xBE JUMP JUMPDEST DUP1 PUSH4 0x62CDE1BA GT PUSH2 0xA7 JUMPI DUP1 PUSH4 0x62CDE1BA EQ PUSH2 0xEB JUMPI DUP1 PUSH4 0xA0C286D8 EQ PUSH2 0x100 JUMPI DUP1 PUSH4 0xA217FDDF EQ PUSH2 0x108 JUMPI PUSH2 0xBE JUMP JUMPDEST DUP1 PUSH4 0x64CB76A EQ PUSH2 0xC3 JUMPI DUP1 PUSH4 0x3C44172D EQ PUSH2 0xE1 JUMPI JUMPDEST PUSH1 0x0 DUP1 REVERT JUMPDEST PUSH2 0xCB PUSH2 0x138 JUMP JUMPDEST PUSH1 0x40 MLOAD PUSH2 0xD8 SWAP2 SWAP1 PUSH2 0x824 JUMP JUMPDEST PUSH1 0x40 MLOAD DUP1 SWAP2 SUB SWAP1 RETURN JUMPDEST PUSH2 0xE9 PUSH2 0x15C JUMP JUMPDEST STOP JUMPDEST PUSH2 0xF3 PUSH2 0x25A JUMP JUMPDEST PUSH1 0x40 MLOAD PUSH2 0xD8 SWAP2 SWAP1 PUSH2 0x803 JUMP JUMPDEST PUSH2 0xF3 PUSH2 0x27E JUMP JUMPDEST PUSH2 0xCB PUSH2 0x2A2 JUMP JUMPDEST PUSH2 0xE9 PUSH2 0x2A7 JUMP JUMPDEST PUSH2 0xF3 PUSH2 0x67F JUMP JUMPDEST PUSH2 0xF3 PUSH2 0x6A3 JUMP JUMPDEST PUSH2 0xF3 PUSH2 0x6C7 JUMP JUMPDEST PUSH2 0xCB PUSH2 0x25A JUMP JUMPDEST PUSH32 0x0 DUP2 JUMP JUMPDEST PUSH1 0x0 JUMPDEST PUSH1 0x0 SLOAD DUP2 GT PUSH2 0x257 JUMPI PUSH1 0x40 MLOAD PUSH32 0xFE0D94C100000000000000000000000000000000000000000000000000000000 DUP2 MSTORE PUSH20 0xFFFFFFFFFFFFFFFFFFFFFFFFFFFFFFFFFFFFFFFF PUSH32 0x0 AND SWAP1 PUSH4 0xFE0D94C1 SWAP1 PUSH2 0x1DA SWAP1 DUP5 SWAP1 PUSH1 0x4 ADD PUSH2 0x824 JUMP JUMPDEST PUSH1 0x0 PUSH1 0x40 MLOAD DUP1 DUP4 SUB DUP2 PUSH1 0x0 DUP8 DUP1 EXTCODESIZE ISZERO DUP1 ISZERO PUSH2 0x1F4 JUMPI PUSH1 0x0 DUP1 REVERT JUMPDEST POP GAS CALL ISZERO DUP1 ISZERO PUSH2 0x208 JUMPI RETURNDATASIZE PUSH1 0x0 DUP1 RETURNDATACOPY RETURNDATASIZE PUSH1 0x0 REVERT JUMPDEST POP POP POP POP PUSH1 0x40 MLOAD RETURNDATASIZE PUSH1 0x0 DUP3 RETURNDATACOPY PUSH1 0x1F RETURNDATASIZE SWAP1 DUP2 ADD PUSH32 0xFFFFFFFFFFFFFFFFFFFFFFFFFFFFFFFFFFFFFFFFFFFFFFFFFFFFFFFFFFFFFFE0 AND DUP3 ADD PUSH1 0x40 MSTORE PUSH2 0x24E SWAP2 SWAP1 DUP2 ADD SWAP1 PUSH2 0x72A JUMP JUMPDEST POP PUSH1 0x1 ADD PUSH2 0x15F JUMP JUMPDEST POP JUMP JUMPDEST PUSH32 0xFFFFFFFFFFFFFFFFFFFFFFFFFFFFFFFFFFFFFFFFFFFFFFFFFFFFFFFFFFFFFFFF DUP2 JUMP JUMPDEST PUSH32 0x0 DUP2 JUMP JUMPDEST PUSH1 0x0 DUP2 JUMP JUMPDEST PUSH1 0x40 MLOAD PUSH32 0x557A640300000000000000000000000000000000000000000000000000000000 DUP2 MSTORE PUSH20 0xFFFFFFFFFFFFFFFFFFFFFFFFFFFFFFFFFFFFFFFF PUSH32 0x0 AND SWAP1 PUSH4 0x557A6403 SWAP1 PUSH2 0x339 SWAP1 PUSH32 0x0 SWAP1 PUSH1 0x4 ADD PUSH2 0x803 JUMP JUMPDEST PUSH1 0x20 PUSH1 0x40 MLOAD DUP1 DUP4 SUB DUP2 DUP7 DUP1 EXTCODESIZE ISZERO DUP1 ISZERO PUSH2 0x351 JUMPI PUSH1 0x0 DUP1 REVERT JUMPDEST POP GAS STATICCALL ISZERO DUP1 ISZERO PUSH2 0x365 JUMPI RETURNDATASIZE PUSH1 0x0 DUP1 RETURNDATACOPY RETURNDATASIZE PUSH1 0x0 REVERT JUMPDEST POP POP POP POP PUSH1 0x40 MLOAD RETURNDATASIZE PUSH1 0x1F NOT PUSH1 0x1F DUP3 ADD AND DUP3 ADD DUP1 PUSH1 0x40 MSTORE POP DUP2 ADD SWAP1 PUSH2 0x389 SWAP2 SWAP1 PUSH2 0x6EB JUMP JUMPDEST PUSH2 0x3C8 JUMPI PUSH1 0x40 MLOAD PUSH32 0x8C379A000000000000000000000000000000000000000000000000000000000 DUP2 MSTORE PUSH1 0x4 ADD PUSH2 0x3BF SWAP1 PUSH2 0x886 JUMP JUMPDEST PUSH1 0x40 MLOAD DUP1 SWAP2 SUB SWAP1 REVERT JUMPDEST PUSH1 0x40 MLOAD PUSH32 0x851C1BB300000000000000000000000000000000000000000000000000000000 DUP2 MSTORE PUSH1 0x0 SWAP1 PUSH20 0xFFFFFFFFFFFFFFFFFFFFFFFFFFFFFFFFFFFFFFFF PUSH32 0x0 AND SWAP1 PUSH4 0x851C1BB3 SWAP1 PUSH2 0x45D SWAP1 PUSH32 0x58A628F00000000000000000000000000000000000000000000000000000000 SWAP1 PUSH1 0x4 ADD PUSH2 0x859 JUMP JUMPDEST PUSH1 0x20 PUSH1 0x40 MLOAD DUP1 DUP4 SUB DUP2 DUP7 DUP1 EXTCODESIZE ISZERO DUP1 ISZERO PUSH2 0x475 JUMPI PUSH1 0x0 DUP1 REVERT JUMPDEST POP GAS STATICCALL ISZERO DUP1 ISZERO PUSH2 0x489 JUMPI RETURNDATASIZE PUSH1 0x0 DUP1 RETURNDATACOPY RETURNDATASIZE PUSH1 0x0 REVERT JUMPDEST POP POP POP POP PUSH1 0x40 MLOAD RETURNDATASIZE PUSH1 0x1F NOT PUSH1 0x1F DUP3 ADD AND DUP3 ADD DUP1 PUSH1 0x40 MSTORE POP DUP2 ADD SWAP1 PUSH2 0x4AD SWAP2 SWAP1 PUSH2 0x712 JUMP JUMPDEST SWAP1 POP PUSH1 0x0 PUSH32 0x0 PUSH20 0xFFFFFFFFFFFFFFFFFFFFFFFFFFFFFFFFFFFFFFFF AND PUSH4 0x9BE2A884 DUP4 ADDRESS PUSH32 0x0 PUSH1 0x40 MLOAD DUP5 PUSH4 0xFFFFFFFF AND PUSH1 0xE0 SHL DUP2 MSTORE PUSH1 0x4 ADD PUSH2 0x52E SWAP4 SWAP3 SWAP2 SWAP1 PUSH2 0x82D JUMP JUMPDEST PUSH1 0x20 PUSH1 0x40 MLOAD DUP1 DUP4 SUB DUP2 DUP7 DUP1 EXTCODESIZE ISZERO DUP1 ISZERO PUSH2 0x546 JUMPI PUSH1 0x0 DUP1 REVERT JUMPDEST POP GAS STATICCALL ISZERO DUP1 ISZERO PUSH2 0x55A JUMPI RETURNDATASIZE PUSH1 0x0 DUP1 RETURNDATACOPY RETURNDATASIZE PUSH1 0x0 REVERT JUMPDEST POP POP POP POP PUSH1 0x40 MLOAD RETURNDATASIZE PUSH1 0x1F NOT PUSH1 0x1F DUP3 ADD AND DUP3 ADD DUP1 PUSH1 0x40 MSTORE POP DUP2 ADD SWAP1 PUSH2 0x57E SWAP2 SWAP1 PUSH2 0x6EB JUMP JUMPDEST SWAP1 POP DUP1 PUSH2 0x5B7 JUMPI PUSH1 0x40 MLOAD PUSH32 0x8C379A000000000000000000000000000000000000000000000000000000000 DUP2 MSTORE PUSH1 0x4 ADD PUSH2 0x3BF SWAP1 PUSH2 0x8BD JUMP JUMPDEST PUSH1 0x40 MLOAD PUSH32 0x58A628F00000000000000000000000000000000000000000000000000000000 DUP2 MSTORE PUSH20 0xFFFFFFFFFFFFFFFFFFFFFFFFFFFFFFFFFFFFFFFF PUSH32 0x0 AND SWAP1 PUSH4 0x58A628F SWAP1 PUSH2 0x649 SWAP1 PUSH32 0x0 SWAP1 PUSH1 0x4 ADD PUSH2 0x803 JUMP JUMPDEST PUSH1 0x0 PUSH1 0x40 MLOAD DUP1 DUP4 SUB DUP2 PUSH1 0x0 DUP8 DUP1 EXTCODESIZE ISZERO DUP1 ISZERO PUSH2 0x663 JUMPI PUSH1 0x0 DUP1 REVERT JUMPDEST POP GAS CALL ISZERO DUP1 ISZERO PUSH2 0x677 JUMPI RETURNDATASIZE PUSH1 0x0 DUP1 RETURNDATACOPY RETURNDATASIZE PUSH1 0x0 REVERT JUMPDEST POP POP POP POP POP POP JUMP JUMPDEST PUSH32 0x0 DUP2 JUMP JUMPDEST PUSH32 0x0 DUP2 JUMP JUMPDEST PUSH32 0x0 DUP2 JUMP JUMPDEST PUSH1 0x0 PUSH1 0x20 DUP3 DUP5 SUB SLT ISZERO PUSH2 0x6FC JUMPI DUP1 DUP2 REVERT JUMPDEST DUP2 MLOAD DUP1 ISZERO ISZERO DUP2 EQ PUSH2 0x70B JUMPI DUP2 DUP3 REVERT JUMPDEST SWAP4 SWAP3 POP POP POP JUMP JUMPDEST PUSH1 0x0 PUSH1 0x20 DUP3 DUP5 SUB SLT ISZERO PUSH2 0x723 JUMPI DUP1 DUP2 REVERT JUMPDEST POP MLOAD SWAP2 SWAP1 POP JUMP JUMPDEST PUSH1 0x0 PUSH1 0x20 DUP1 DUP4 DUP6 SUB SLT ISZERO PUSH2 0x73C JUMPI DUP2 DUP3 REVERT JUMPDEST DUP3 MLOAD PUSH8 0xFFFFFFFFFFFFFFFF DUP1 DUP3 GT ISZERO PUSH2 0x753 JUMPI DUP4 DUP5 REVERT JUMPDEST DUP2 DUP6 ADD SWAP2 POP DUP6 PUSH1 0x1F DUP4 ADD SLT PUSH2 0x766 JUMPI DUP4 DUP5 REVERT JUMPDEST DUP2 MLOAD DUP2 DUP2 GT ISZERO PUSH2 0x774 JUMPI DUP5 DUP6 REVERT JUMPDEST PUSH1 0x40 MLOAD DUP5 PUSH32 0xFFFFFFFFFFFFFFFFFFFFFFFFFFFFFFFFFFFFFFFFFFFFFFFFFFFFFFFFFFFFFFE0 PUSH1 0x1F DUP5 ADD AND DUP3 ADD ADD DUP2 DUP2 LT DUP5 DUP3 GT OR ISZERO PUSH2 0x7B1 JUMPI DUP7 DUP8 REVERT JUMPDEST PUSH1 0x40 MSTORE DUP2 DUP2 MSTORE DUP4 DUP3 ADD DUP6 ADD DUP9 LT ISZERO PUSH2 0x7C7 JUMPI DUP6 DUP7 REVERT JUMPDEST DUP6 SWAP3 POP JUMPDEST DUP2 DUP4 LT ISZERO PUSH2 0x7E8 JUMPI DUP4 DUP4 ADD DUP6 ADD MLOAD DUP2 DUP5 ADD DUP7 ADD MSTORE SWAP2 DUP5 ADD SWAP2 PUSH2 0x7CB JUMP JUMPDEST DUP2 DUP4 GT ISZERO PUSH2 0x7F8 JUMPI DUP6 DUP6 DUP4 DUP4 ADD ADD MSTORE JUMPDEST SWAP8 SWAP7 POP POP POP POP POP POP POP JUMP JUMPDEST PUSH20 0xFFFFFFFFFFFFFFFFFFFFFFFFFFFFFFFFFFFFFFFF SWAP2 SWAP1 SWAP2 AND DUP2 MSTORE PUSH1 0x20 ADD SWAP1 JUMP JUMPDEST SWAP1 DUP2 MSTORE PUSH1 0x20 ADD SWAP1 JUMP JUMPDEST SWAP3 DUP4 MSTORE PUSH20 0xFFFFFFFFFFFFFFFFFFFFFFFFFFFFFFFFFFFFFFFF SWAP2 DUP3 AND PUSH1 0x20 DUP5 ADD MSTORE AND PUSH1 0x40 DUP3 ADD MSTORE PUSH1 0x60 ADD SWAP1 JUMP JUMPDEST PUSH32 0xFFFFFFFF00000000000000000000000000000000000000000000000000000000 SWAP2 SWAP1 SWAP2 AND DUP2 MSTORE PUSH1 0x20 ADD SWAP1 JUMP JUMPDEST PUSH1 0x20 DUP1 DUP3 MSTORE PUSH1 0x14 SWAP1 DUP3 ADD MSTORE PUSH32 0x524F4F545F4E4F545F434C41494D45445F594554000000000000000000000000 PUSH1 0x40 DUP3 ADD MSTORE PUSH1 0x60 ADD SWAP1 JUMP JUMPDEST PUSH1 0x20 DUP1 DUP3 MSTORE PUSH1 0x1E SWAP1 DUP3 ADD MSTORE PUSH32 0x4D49475241544F525F43414E4E4F545F5345545F415554484F52495A45520000 PUSH1 0x40 DUP3 ADD MSTORE PUSH1 0x60 ADD SWAP1 JUMP INVALID LOG2 PUSH5 0x6970667358 0x22 SLT KECCAK256 DUP6 PUSH22 0x41F5A4452E3BC694076F85301B0246AB926303C8CF3B CALL 0x2A EXTCODESIZE SWAP1 0x24 0xAE 0xD3 SWAP7 PUSH5 0x736F6C6343 STOP SMOD ADD STOP CALLER PUSH2 0x140 PUSH1 0x40 MSTORE CALLVALUE DUP1 ISZERO PUSH3 0x12 JUMPI PUSH1 0x0 DUP1 REVERT JUMPDEST POP PUSH1 0x40 MLOAD PUSH3 0x49C8 CODESIZE SUB DUP1 PUSH3 0x49C8 DUP4 CODECOPY DUP2 ADD PUSH1 0x40 DUP2 SWAP1 MSTORE PUSH3 0x35 SWAP2 PUSH3 0x366 JUMP JUMPDEST DUP4 DUP4 DUP4 PUSH1 0x1 PUSH1 0x1 PUSH1 0xA0 SHL SUB AND PUSH4 0x8D928AF8 PUSH1 0x40 MLOAD DUP2 PUSH4 0xFFFFFFFF AND PUSH1 0xE0 SHL DUP2 MSTORE PUSH1 0x4 ADD PUSH1 0x20 PUSH1 0x40 MLOAD DUP1 DUP4 SUB DUP2 DUP7 DUP1 EXTCODESIZE ISZERO DUP1 ISZERO PUSH3 0x71 JUMPI PUSH1 0x0 DUP1 REVERT JUMPDEST POP GAS STATICCALL ISZERO DUP1 ISZERO PUSH3 0x86 JUMPI RETURNDATASIZE PUSH1 0x0 DUP1 RETURNDATACOPY RETURNDATASIZE PUSH1 0x0 REVERT JUMPDEST POP POP POP POP PUSH1 0x40 MLOAD RETURNDATASIZE PUSH1 0x1F NOT PUSH1 0x1F DUP3 ADD AND DUP3 ADD DUP1 PUSH1 0x40 MSTORE POP DUP2 ADD SWAP1 PUSH3 0xAC SWAP2 SWAP1 PUSH3 0x3D8 JUMP JUMPDEST DUP4 PUSH3 0xB8 DUP5 PUSH3 0x2C6 JUMP JUMPDEST PUSH3 0xC3 DUP4 PUSH3 0x30E JUMP JUMPDEST PUSH1 0x1 PUSH1 0x1 PUSH1 0x60 SHL SUB NOT PUSH1 0x60 DUP4 SWAP1 SHL AND PUSH1 0xA0 MSTORE PUSH1 0x40 MLOAD PUSH3 0xE3 SWAP1 PUSH3 0x358 JUMP JUMPDEST PUSH1 0x40 MLOAD DUP1 SWAP2 SUB SWAP1 PUSH1 0x0 CREATE DUP1 ISZERO DUP1 ISZERO PUSH3 0x100 JUMPI RETURNDATASIZE PUSH1 0x0 DUP1 RETURNDATACOPY RETURNDATASIZE PUSH1 0x0 REVERT JUMPDEST POP PUSH1 0x60 SHL PUSH1 0x1 PUSH1 0x1 PUSH1 0x60 SHL SUB NOT AND PUSH1 0x80 MSTORE PUSH1 0xC0 MSTORE POP POP PUSH1 0x40 DUP1 MLOAD PUSH4 0xE758D36B PUSH1 0xE0 SHL DUP2 MSTORE SWAP1 MLOAD PUSH1 0x1 PUSH1 0x1 PUSH1 0xA0 SHL SUB DUP6 AND SWAP3 POP PUSH4 0xE758D36B SWAP2 PUSH1 0x4 DUP1 DUP3 ADD SWAP3 PUSH1 0x20 SWAP3 SWAP1 SWAP2 SWAP1 DUP3 SWAP1 SUB ADD DUP2 DUP7 DUP1 EXTCODESIZE ISZERO DUP1 ISZERO PUSH3 0x159 JUMPI PUSH1 0x0 DUP1 REVERT JUMPDEST POP GAS STATICCALL ISZERO DUP1 ISZERO PUSH3 0x16E JUMPI RETURNDATASIZE PUSH1 0x0 DUP1 RETURNDATACOPY RETURNDATASIZE PUSH1 0x0 REVERT JUMPDEST POP POP POP POP PUSH1 0x40 MLOAD RETURNDATASIZE PUSH1 0x1F NOT PUSH1 0x1F DUP3 ADD AND DUP3 ADD DUP1 PUSH1 0x40 MSTORE POP DUP2 ADD SWAP1 PUSH3 0x194 SWAP2 SWAP1 PUSH3 0x3D8 JUMP JUMPDEST PUSH1 0x1 PUSH1 0x1 PUSH1 0x60 SHL SUB NOT PUSH1 0x60 SWAP2 DUP3 SHL DUP2 AND PUSH2 0x100 MSTORE SWAP1 DUP4 SWAP1 SHL AND PUSH1 0xE0 MSTORE PUSH1 0x40 DUP1 MLOAD PUSH4 0x11B2515F PUSH1 0xE3 SHL DUP2 MSTORE SWAP1 MLOAD PUSH1 0x1 PUSH1 0x1 PUSH1 0xA0 SHL SUB DUP5 AND SWAP2 PUSH4 0x8D928AF8 SWAP2 PUSH1 0x4 DUP1 DUP4 ADD SWAP3 PUSH1 0x20 SWAP3 SWAP2 SWAP1 DUP3 SWAP1 SUB ADD DUP2 DUP7 DUP1 EXTCODESIZE ISZERO DUP1 ISZERO PUSH3 0x1F1 JUMPI PUSH1 0x0 DUP1 REVERT JUMPDEST POP GAS STATICCALL ISZERO DUP1 ISZERO PUSH3 0x206 JUMPI RETURNDATASIZE PUSH1 0x0 DUP1 RETURNDATACOPY RETURNDATASIZE PUSH1 0x0 REVERT JUMPDEST POP POP POP POP PUSH1 0x40 MLOAD RETURNDATASIZE PUSH1 0x1F NOT PUSH1 0x1F DUP3 ADD AND DUP3 ADD DUP1 PUSH1 0x40 MSTORE POP DUP2 ADD SWAP1 PUSH3 0x22C SWAP2 SWAP1 PUSH3 0x3D8 JUMP JUMPDEST PUSH1 0x40 MLOAD PUSH4 0x851C1BB3 PUSH1 0xE0 SHL DUP2 MSTORE PUSH1 0x1 PUSH1 0x1 PUSH1 0xA0 SHL SUB SWAP2 SWAP1 SWAP2 AND SWAP1 PUSH4 0x851C1BB3 SWAP1 PUSH3 0x263 SWAP1 PUSH4 0x58A628F PUSH1 0xE0 SHL SWAP1 PUSH1 0x4 ADD PUSH3 0x3FE JUMP JUMPDEST PUSH1 0x20 PUSH1 0x40 MLOAD DUP1 DUP4 SUB DUP2 DUP7 DUP1 EXTCODESIZE ISZERO DUP1 ISZERO PUSH3 0x27C JUMPI PUSH1 0x0 DUP1 REVERT JUMPDEST POP GAS STATICCALL ISZERO DUP1 ISZERO PUSH3 0x291 JUMPI RETURNDATASIZE PUSH1 0x0 DUP1 RETURNDATACOPY RETURNDATASIZE PUSH1 0x0 REVERT JUMPDEST POP POP POP POP PUSH1 0x40 MLOAD RETURNDATASIZE PUSH1 0x1F NOT PUSH1 0x1F DUP3 ADD AND DUP3 ADD DUP1 PUSH1 0x40 MSTORE POP DUP2 ADD SWAP1 PUSH3 0x2B7 SWAP2 SWAP1 PUSH3 0x3BF JUMP JUMPDEST PUSH2 0x120 MSTORE POP PUSH3 0x42C SWAP3 POP POP POP JUMP JUMPDEST PUSH1 0x0 DUP1 SLOAD PUSH1 0x1 PUSH1 0x1 PUSH1 0xA0 SHL SUB NOT AND PUSH1 0x1 PUSH1 0x1 PUSH1 0xA0 SHL SUB DUP4 AND SWAP1 DUP2 OR DUP3 SSTORE PUSH1 0x40 MLOAD SWAP1 SWAP2 PUSH32 0x39510B933A9D010F906528D6019D3F4E2450A10DC33B10887503B31ED82F1111 SWAP2 LOG2 POP JUMP JUMPDEST PUSH1 0x1 DUP1 SLOAD PUSH1 0x1 PUSH1 0x1 PUSH1 0xA0 SHL SUB NOT AND PUSH1 0x1 PUSH1 0x1 PUSH1 0xA0 SHL SUB DUP4 AND SWAP1 DUP2 OR SWAP1 SWAP2 SSTORE PUSH1 0x40 MLOAD PUSH32 0x566FE119FF450AFC2580186C62762B6C1258245C8B1B6BB095E7276EB5A75B55 SWAP1 PUSH1 0x0 SWAP1 LOG2 POP JUMP JUMPDEST PUSH2 0x4EF DUP1 PUSH3 0x44D9 DUP4 CODECOPY ADD SWAP1 JUMP JUMPDEST PUSH1 0x0 DUP1 PUSH1 0x0 DUP1 PUSH1 0x80 DUP6 DUP8 SUB SLT ISZERO PUSH3 0x37C JUMPI DUP4 DUP5 REVERT JUMPDEST DUP5 MLOAD PUSH3 0x389 DUP2 PUSH3 0x413 JUMP JUMPDEST PUSH1 0x20 DUP7 ADD MLOAD SWAP1 SWAP5 POP PUSH3 0x39C DUP2 PUSH3 0x413 JUMP JUMPDEST PUSH1 0x40 DUP7 ADD MLOAD SWAP1 SWAP4 POP PUSH3 0x3AF DUP2 PUSH3 0x413 JUMP JUMPDEST PUSH1 0x60 SWAP6 SWAP1 SWAP6 ADD MLOAD SWAP4 SWAP7 SWAP3 SWAP6 POP POP POP JUMP JUMPDEST PUSH1 0x0 PUSH1 0x20 DUP3 DUP5 SUB SLT ISZERO PUSH3 0x3D1 JUMPI DUP1 DUP2 REVERT JUMPDEST POP MLOAD SWAP2 SWAP1 POP JUMP JUMPDEST PUSH1 0x0 PUSH1 0x20 DUP3 DUP5 SUB SLT ISZERO PUSH3 0x3EA JUMPI DUP1 DUP2 REVERT JUMPDEST DUP2 MLOAD PUSH3 0x3F7 DUP2 PUSH3 0x413 JUMP JUMPDEST SWAP4 SWAP3 POP POP POP JUMP JUMPDEST PUSH1 0x1 PUSH1 0x1 PUSH1 0xE0 SHL SUB NOT SWAP2 SWAP1 SWAP2 AND DUP2 MSTORE PUSH1 0x20 ADD SWAP1 JUMP JUMPDEST PUSH1 0x1 PUSH1 0x1 PUSH1 0xA0 SHL SUB DUP2 AND DUP2 EQ PUSH3 0x429 JUMPI PUSH1 0x0 DUP1 REVERT JUMPDEST POP JUMP JUMPDEST PUSH1 0x80 MLOAD PUSH1 0x60 SHR PUSH1 0xA0 MLOAD PUSH1 0x60 SHR PUSH1 0xC0 MLOAD PUSH1 0xE0 MLOAD PUSH1 0x60 SHR PUSH2 0x100 MLOAD PUSH1 0x60 SHR PUSH2 0x120 MLOAD PUSH2 0x4039 PUSH3 0x4A0 PUSH1 0x0 CODECOPY DUP1 PUSH2 0x24F8 MSTORE DUP1 PUSH2 0x27EA MSTORE POP DUP1 PUSH2 0x19BC MSTORE POP DUP1 PUSH2 0x19E4 MSTORE POP DUP1 PUSH2 0x1D19 MSTORE POP DUP1 PUSH2 0x1838 MSTORE POP DUP1 PUSH2 0x6E1 MSTORE DUP1 PUSH2 0xA95 MSTORE DUP1 PUSH2 0xAC2 MSTORE DUP1 PUSH2 0x1DC5 MSTORE DUP1 PUSH2 0x24B9 MSTORE DUP1 PUSH2 0x271A MSTORE POP PUSH2 0x4039 PUSH1 0x0 RETURN INVALID PUSH1 0x80 PUSH1 0x40 MSTORE CALLVALUE DUP1 ISZERO PUSH2 0x10 JUMPI PUSH1 0x0 DUP1 REVERT JUMPDEST POP PUSH1 0x4 CALLDATASIZE LT PUSH2 0x320 JUMPI PUSH1 0x0 CALLDATALOAD PUSH1 0xE0 SHR DUP1 PUSH4 0x8BD6BBC9 GT PUSH2 0x1A7 JUMPI DUP1 PUSH4 0xC284B6B9 GT PUSH2 0xEE JUMPI DUP1 PUSH4 0xE4C00F4F GT PUSH2 0x97 JUMPI DUP1 PUSH4 0xF23481E0 GT PUSH2 0x71 JUMPI DUP1 PUSH4 0xF23481E0 EQ PUSH2 0x65A JUMPI DUP1 PUSH4 0xF6EBCBAF EQ PUSH2 0x662 JUMPI DUP1 PUSH4 0xFE0D94C1 EQ PUSH2 0x675 JUMPI PUSH2 0x320 JUMP JUMPDEST DUP1 PUSH4 0xE4C00F4F EQ PUSH2 0x614 JUMPI DUP1 PUSH4 0xF0845522 EQ PUSH2 0x634 JUMPI DUP1 PUSH4 0xF0BB9406 EQ PUSH2 0x647 JUMPI PUSH2 0x320 JUMP JUMPDEST DUP1 PUSH4 0xCC63604A GT PUSH2 0xC8 JUMPI DUP1 PUSH4 0xCC63604A EQ PUSH2 0x5E6 JUMPI DUP1 PUSH4 0xD00BEF4D EQ PUSH2 0x5F9 JUMPI DUP1 PUSH4 0xE2B4146B EQ PUSH2 0x601 JUMPI PUSH2 0x320 JUMP JUMPDEST DUP1 PUSH4 0xC284B6B9 EQ PUSH2 0x5B8 JUMPI DUP1 PUSH4 0xC6192EE3 EQ PUSH2 0x5C0 JUMPI DUP1 PUSH4 0xC80C23E1 EQ PUSH2 0x5D3 JUMPI PUSH2 0x320 JUMP JUMPDEST DUP1 PUSH4 0x9BE2A884 GT PUSH2 0x150 JUMPI DUP1 PUSH4 0xB1E31AA0 GT PUSH2 0x12A JUMPI DUP1 PUSH4 0xB1E31AA0 EQ PUSH2 0x58A JUMPI DUP1 PUSH4 0xB3EB281D EQ PUSH2 0x592 JUMPI DUP1 PUSH4 0xB99DB526 EQ PUSH2 0x5A5 JUMPI PUSH2 0x320 JUMP JUMPDEST DUP1 PUSH4 0x9BE2A884 EQ PUSH2 0x551 JUMPI DUP1 PUSH4 0xA44495D1 EQ PUSH2 0x564 JUMPI DUP1 PUSH4 0xA8EAE12D EQ PUSH2 0x577 JUMPI PUSH2 0x320 JUMP JUMPDEST DUP1 PUSH4 0x90216812 GT PUSH2 0x181 JUMPI DUP1 PUSH4 0x90216812 EQ PUSH2 0x523 JUMPI DUP1 PUSH4 0x9299942E EQ PUSH2 0x536 JUMPI DUP1 PUSH4 0x99A7F6E2 EQ PUSH2 0x53E JUMPI PUSH2 0x320 JUMP JUMPDEST DUP1 PUSH4 0x8BD6BBC9 EQ PUSH2 0x4F5 JUMPI DUP1 PUSH4 0x8CC3D072 EQ PUSH2 0x508 JUMPI DUP1 PUSH4 0x8D928AF8 EQ PUSH2 0x51B JUMPI PUSH2 0x320 JUMP JUMPDEST DUP1 PUSH4 0x40E58EE5 GT PUSH2 0x26B JUMPI DUP1 PUSH4 0x62CDE1BA GT PUSH2 0x214 JUMPI DUP1 PUSH4 0x72EFB120 GT PUSH2 0x1EE JUMPI DUP1 PUSH4 0x72EFB120 EQ PUSH2 0x4BC JUMPI DUP1 PUSH4 0x863BAC6B EQ PUSH2 0x4CF JUMPI DUP1 PUSH4 0x86FF254B EQ PUSH2 0x4E2 JUMPI PUSH2 0x320 JUMP JUMPDEST DUP1 PUSH4 0x62CDE1BA EQ PUSH2 0x481 JUMPI DUP1 PUSH4 0x63CDBF36 EQ PUSH2 0x489 JUMPI DUP1 PUSH4 0x6BADD2AB EQ PUSH2 0x49C JUMPI PUSH2 0x320 JUMP JUMPDEST DUP1 PUSH4 0x5B78B780 GT PUSH2 0x245 JUMPI DUP1 PUSH4 0x5B78B780 EQ PUSH2 0x453 JUMPI DUP1 PUSH4 0x5CA1E165 EQ PUSH2 0x466 JUMPI DUP1 PUSH4 0x608DD7E4 EQ PUSH2 0x46E JUMPI PUSH2 0x320 JUMP JUMPDEST DUP1 PUSH4 0x40E58EE5 EQ PUSH2 0x425 JUMPI DUP1 PUSH4 0x4125FF90 EQ PUSH2 0x438 JUMPI DUP1 PUSH4 0x557A6403 EQ PUSH2 0x440 JUMPI PUSH2 0x320 JUMP JUMPDEST DUP1 PUSH4 0x1B3C85EB GT PUSH2 0x2CD JUMPI DUP1 PUSH4 0x3AC5D439 GT PUSH2 0x2A7 JUMPI DUP1 PUSH4 0x3AC5D439 EQ PUSH2 0x3EC JUMPI DUP1 PUSH4 0x3BF46797 EQ PUSH2 0x3FF JUMPI DUP1 PUSH4 0x3E1DF46D EQ PUSH2 0x412 JUMPI PUSH2 0x320 JUMP JUMPDEST DUP1 PUSH4 0x1B3C85EB EQ PUSH2 0x3B3 JUMPI DUP1 PUSH4 0x2229EDB4 EQ PUSH2 0x3C6 JUMPI DUP1 PUSH4 0x2E3ED05B EQ PUSH2 0x3D9 JUMPI PUSH2 0x320 JUMP JUMPDEST DUP1 PUSH4 0x14EA35E7 GT PUSH2 0x2FE JUMPI DUP1 PUSH4 0x14EA35E7 EQ PUSH2 0x376 JUMPI DUP1 PUSH4 0x169F1468 EQ PUSH2 0x37E JUMPI DUP1 PUSH4 0x18EF871A EQ PUSH2 0x39E JUMPI PUSH2 0x320 JUMP JUMPDEST DUP1 PUSH4 0x4434606 EQ PUSH2 0x325 JUMPI DUP1 PUSH4 0xDF322A6 EQ PUSH2 0x34E JUMPI DUP1 PUSH4 0x10D3AB2C EQ PUSH2 0x361 JUMPI JUMPDEST PUSH1 0x0 DUP1 REVERT JUMPDEST PUSH2 0x338 PUSH2 0x333 CALLDATASIZE PUSH1 0x4 PUSH2 0x31B2 JUMP JUMPDEST PUSH2 0x695 JUMP JUMPDEST PUSH1 0x40 MLOAD PUSH2 0x345 SWAP2 SWAP1 PUSH2 0x35CD JUMP JUMPDEST PUSH1 0x40 MLOAD DUP1 SWAP2 SUB SWAP1 RETURN JUMPDEST PUSH2 0x338 PUSH2 0x35C CALLDATASIZE PUSH1 0x4 PUSH2 0x3033 JUMP JUMPDEST PUSH2 0x6C2 JUMP JUMPDEST PUSH2 0x374 PUSH2 0x36F CALLDATASIZE PUSH1 0x4 PUSH2 0x327A JUMP JUMPDEST PUSH2 0x6D6 JUMP JUMPDEST STOP JUMPDEST PUSH2 0x374 PUSH2 0x79B JUMP JUMPDEST PUSH2 0x391 PUSH2 0x38C CALLDATASIZE PUSH1 0x4 PUSH2 0x30CF JUMP JUMPDEST PUSH2 0x7DC JUMP JUMPDEST PUSH1 0x40 MLOAD PUSH2 0x345 SWAP2 SWAP1 PUSH2 0x3F73 JUMP JUMPDEST PUSH2 0x3A6 PUSH2 0xA93 JUMP JUMPDEST PUSH1 0x40 MLOAD PUSH2 0x345 SWAP2 SWAP1 PUSH2 0x34A0 JUMP JUMPDEST PUSH2 0x374 PUSH2 0x3C1 CALLDATASIZE PUSH1 0x4 PUSH2 0x3033 JUMP JUMPDEST PUSH2 0xAB7 JUMP JUMPDEST PUSH2 0x374 PUSH2 0x3D4 CALLDATASIZE PUSH1 0x4 PUSH2 0x31D5 JUMP JUMPDEST PUSH2 0xB08 JUMP JUMPDEST PUSH2 0x391 PUSH2 0x3E7 CALLDATASIZE PUSH1 0x4 PUSH2 0x3082 JUMP JUMPDEST PUSH2 0xBC0 JUMP JUMPDEST PUSH2 0x374 PUSH2 0x3FA CALLDATASIZE PUSH1 0x4 PUSH2 0x31D5 JUMP JUMPDEST PUSH2 0xCB9 JUMP JUMPDEST PUSH2 0x391 PUSH2 0x40D CALLDATASIZE PUSH1 0x4 PUSH2 0x3182 JUMP JUMPDEST PUSH2 0xD3F JUMP JUMPDEST PUSH2 0x338 PUSH2 0x420 CALLDATASIZE PUSH1 0x4 PUSH2 0x31B2 JUMP JUMPDEST PUSH2 0xD51 JUMP JUMPDEST PUSH2 0x374 PUSH2 0x433 CALLDATASIZE PUSH1 0x4 PUSH2 0x3182 JUMP JUMPDEST PUSH2 0xDC3 JUMP JUMPDEST PUSH2 0x391 PUSH2 0xF0A JUMP JUMPDEST PUSH2 0x338 PUSH2 0x44E CALLDATASIZE PUSH1 0x4 PUSH2 0x3033 JUMP JUMPDEST PUSH2 0xF12 JUMP JUMPDEST PUSH2 0x391 PUSH2 0x461 CALLDATASIZE PUSH1 0x4 PUSH2 0x3212 JUMP JUMPDEST PUSH2 0xF26 JUMP JUMPDEST PUSH2 0x3A6 PUSH2 0x1079 JUMP JUMPDEST PUSH2 0x391 PUSH2 0x47C CALLDATASIZE PUSH1 0x4 PUSH2 0x329B JUMP JUMPDEST PUSH2 0x1088 JUMP JUMPDEST PUSH2 0x3A6 PUSH2 0x11B8 JUMP JUMPDEST PUSH2 0x391 PUSH2 0x497 CALLDATASIZE PUSH1 0x4 PUSH2 0x329B JUMP JUMPDEST PUSH2 0x11DC JUMP JUMPDEST PUSH2 0x4AF PUSH2 0x4AA CALLDATASIZE PUSH1 0x4 PUSH2 0x3182 JUMP JUMPDEST PUSH2 0x130C JUMP JUMPDEST PUSH1 0x40 MLOAD PUSH2 0x345 SWAP2 SWAP1 PUSH2 0x3F60 JUMP JUMPDEST PUSH2 0x374 PUSH2 0x4CA CALLDATASIZE PUSH1 0x4 PUSH2 0x31B2 JUMP JUMPDEST PUSH2 0x1494 JUMP JUMPDEST PUSH2 0x391 PUSH2 0x4DD CALLDATASIZE PUSH1 0x4 PUSH2 0x3212 JUMP JUMPDEST PUSH2 0x15BE JUMP JUMPDEST PUSH2 0x338 PUSH2 0x4F0 CALLDATASIZE PUSH1 0x4 PUSH2 0x31D5 JUMP JUMPDEST PUSH2 0x16E7 JUMP JUMPDEST PUSH2 0x391 PUSH2 0x503 CALLDATASIZE PUSH1 0x4 PUSH2 0x3182 JUMP JUMPDEST PUSH2 0x171A JUMP JUMPDEST PUSH2 0x374 PUSH2 0x516 CALLDATASIZE PUSH1 0x4 PUSH2 0x31D5 JUMP JUMPDEST PUSH2 0x172C JUMP JUMPDEST PUSH2 0x3A6 PUSH2 0x1836 JUMP JUMPDEST PUSH2 0x374 PUSH2 0x531 CALLDATASIZE PUSH1 0x4 PUSH2 0x304E JUMP JUMPDEST PUSH2 0x185A JUMP JUMPDEST PUSH2 0x391 PUSH2 0x11B8 JUMP JUMPDEST PUSH2 0x374 PUSH2 0x54C CALLDATASIZE PUSH1 0x4 PUSH2 0x31B2 JUMP JUMPDEST PUSH2 0x19A0 JUMP JUMPDEST PUSH2 0x338 PUSH2 0x55F CALLDATASIZE PUSH1 0x4 PUSH2 0x31D5 JUMP JUMPDEST PUSH2 0x19AF JUMP JUMPDEST PUSH2 0x374 PUSH2 0x572 CALLDATASIZE PUSH1 0x4 PUSH2 0x304E JUMP JUMPDEST PUSH2 0x1A66 JUMP JUMPDEST PUSH2 0x374 PUSH2 0x585 CALLDATASIZE PUSH1 0x4 PUSH2 0x31D5 JUMP JUMPDEST PUSH2 0x1B0F JUMP JUMPDEST PUSH2 0x391 PUSH2 0x1C6E JUMP JUMPDEST PUSH2 0x338 PUSH2 0x5A0 CALLDATASIZE PUSH1 0x4 PUSH2 0x31D5 JUMP JUMPDEST PUSH2 0x1C75 JUMP JUMPDEST PUSH2 0x391 PUSH2 0x5B3 CALLDATASIZE PUSH1 0x4 PUSH2 0x3182 JUMP JUMPDEST PUSH2 0x1D05 JUMP JUMPDEST PUSH2 0x391 PUSH2 0x1D17 JUMP JUMPDEST PUSH2 0x338 PUSH2 0x5CE CALLDATASIZE PUSH1 0x4 PUSH2 0x304E JUMP JUMPDEST PUSH2 0x1D3B JUMP JUMPDEST PUSH2 0x374 PUSH2 0x5E1 CALLDATASIZE PUSH1 0x4 PUSH2 0x327A JUMP JUMPDEST PUSH2 0x1DBA JUMP JUMPDEST PUSH2 0x338 PUSH2 0x5F4 CALLDATASIZE PUSH1 0x4 PUSH2 0x3182 JUMP JUMPDEST PUSH2 0x1E6A JUMP JUMPDEST PUSH2 0x3A6 PUSH2 0x1EE3 JUMP JUMPDEST PUSH2 0x338 PUSH2 0x60F CALLDATASIZE PUSH1 0x4 PUSH2 0x31D5 JUMP JUMPDEST PUSH2 0x1EF2 JUMP JUMPDEST PUSH2 0x627 PUSH2 0x622 CALLDATASIZE PUSH1 0x4 PUSH2 0x3352 JUMP JUMPDEST PUSH2 0x1F7A JUMP JUMPDEST PUSH1 0x40 MLOAD PUSH2 0x345 SWAP2 SWAP1 PUSH2 0x354F JUMP JUMPDEST PUSH2 0x391 PUSH2 0x642 CALLDATASIZE PUSH1 0x4 PUSH2 0x329B JUMP JUMPDEST PUSH2 0x237E JUMP JUMPDEST PUSH2 0x374 PUSH2 0x655 CALLDATASIZE PUSH1 0x4 PUSH2 0x327A JUMP JUMPDEST PUSH2 0x24AE JUMP JUMPDEST PUSH2 0x391 PUSH2 0x2585 JUMP JUMPDEST PUSH2 0x374 PUSH2 0x670 CALLDATASIZE PUSH1 0x4 PUSH2 0x31B2 JUMP JUMPDEST PUSH2 0x258B JUMP JUMPDEST PUSH2 0x688 PUSH2 0x683 CALLDATASIZE PUSH1 0x4 PUSH2 0x3182 JUMP JUMPDEST PUSH2 0x25BA JUMP JUMPDEST PUSH1 0x40 MLOAD PUSH2 0x345 SWAP2 SWAP1 PUSH2 0x3632 JUMP JUMPDEST PUSH1 0x0 DUP3 DUP2 MSTORE PUSH1 0x2 PUSH1 0x20 SWAP1 DUP2 MSTORE PUSH1 0x40 DUP1 DUP4 KECCAK256 PUSH1 0x1 PUSH1 0x1 PUSH1 0xA0 SHL SUB DUP6 AND DUP5 MSTORE SWAP1 SWAP2 MSTORE SWAP1 KECCAK256 SLOAD PUSH1 0xFF AND JUMPDEST SWAP3 SWAP2 POP POP JUMP JUMPDEST PUSH1 0x1 SLOAD PUSH1 0x1 PUSH1 0x1 PUSH1 0xA0 SHL SUB SWAP1 DUP2 AND SWAP2 AND EQ SWAP1 JUMP JUMPDEST CALLER PUSH1 0x1 PUSH1 0x1 PUSH1 0xA0 SHL SUB PUSH32 0x0 AND EQ PUSH2 0x727 JUMPI PUSH1 0x40 MLOAD PUSH3 0x461BCD PUSH1 0xE5 SHL DUP2 MSTORE PUSH1 0x4 ADD PUSH2 0x71E SWAP1 PUSH2 0x3D71 JUMP JUMPDEST PUSH1 0x40 MLOAD DUP1 SWAP2 SUB SWAP1 REVERT JUMPDEST PUSH2 0x730 DUP2 PUSH2 0x27E8 JUMP JUMPDEST PUSH2 0x74C JUMPI PUSH1 0x40 MLOAD PUSH3 0x461BCD PUSH1 0xE5 SHL DUP2 MSTORE PUSH1 0x4 ADD PUSH2 0x71E SWAP1 PUSH2 0x3849 JUMP JUMPDEST PUSH1 0x0 DUP3 DUP2 MSTORE PUSH1 0x7 PUSH1 0x20 MSTORE PUSH1 0x40 SWAP1 DUP2 SWAP1 KECCAK256 DUP3 SWAP1 SSTORE MLOAD DUP3 SWAP1 PUSH32 0x6922A4F4DEEB55FDCA50DF28A72475AA87F9F1377ED93A95842CE8BC69DC01E8 SWAP1 PUSH2 0x78F SWAP1 DUP5 SWAP1 PUSH2 0x3F73 JUMP JUMPDEST PUSH1 0x40 MLOAD DUP1 SWAP2 SUB SWAP1 LOG2 POP POP JUMP JUMPDEST PUSH1 0x1 SLOAD PUSH1 0x1 PUSH1 0x1 PUSH1 0xA0 SHL SUB AND CALLER DUP2 EQ PUSH2 0x7C6 JUMPI PUSH1 0x40 MLOAD PUSH3 0x461BCD PUSH1 0xE5 SHL DUP2 MSTORE PUSH1 0x4 ADD PUSH2 0x71E SWAP1 PUSH2 0x3BF0 JUMP JUMPDEST PUSH2 0x7CF DUP2 PUSH2 0x281D JUMP JUMPDEST PUSH2 0x7D9 PUSH1 0x0 PUSH2 0x287D JUMP JUMPDEST POP JUMP JUMPDEST PUSH1 0x0 PUSH1 0x1 PUSH1 0x1 PUSH1 0xA0 SHL SUB DUP5 AND ADDRESS EQ ISZERO PUSH2 0x807 JUMPI PUSH1 0x40 MLOAD PUSH3 0x461BCD PUSH1 0xE5 SHL DUP2 MSTORE PUSH1 0x4 ADD PUSH2 0x71E SWAP1 PUSH2 0x377E JUMP JUMPDEST PUSH2 0x80F PUSH2 0xA93 JUMP JUMPDEST PUSH1 0x1 PUSH1 0x1 PUSH1 0xA0 SHL SUB AND DUP5 PUSH1 0x1 PUSH1 0x1 PUSH1 0xA0 SHL SUB AND EQ ISZERO PUSH2 0x840 JUMPI PUSH1 0x40 MLOAD PUSH3 0x461BCD PUSH1 0xE5 SHL DUP2 MSTORE PUSH1 0x4 ADD PUSH2 0x71E SWAP1 PUSH2 0x3645 JUMP JUMPDEST PUSH1 0x4 DUP4 MLOAD LT ISZERO PUSH2 0x862 JUMPI PUSH1 0x40 MLOAD PUSH3 0x461BCD PUSH1 0xE5 SHL DUP2 MSTORE PUSH1 0x4 ADD PUSH2 0x71E SWAP1 PUSH2 0x3A01 JUMP JUMPDEST PUSH1 0x0 PUSH1 0x18 DUP5 PUSH1 0x3 DUP2 MLOAD DUP2 LT PUSH2 0x873 JUMPI INVALID JUMPDEST ADD PUSH1 0x20 ADD MLOAD DUP6 MLOAD PUSH32 0xFF00000000000000000000000000000000000000000000000000000000000000 SWAP1 SWAP2 AND SWAP1 SWAP2 SHR SWAP1 PUSH1 0x10 SWAP1 DUP7 SWAP1 PUSH1 0x2 SWAP1 DUP2 LT PUSH2 0x8B2 JUMPI INVALID JUMPDEST ADD PUSH1 0x20 ADD MLOAD DUP7 MLOAD PUSH32 0xFF00000000000000000000000000000000000000000000000000000000000000 SWAP1 SWAP2 AND SWAP1 SWAP2 SHR SWAP1 PUSH1 0x8 SWAP1 DUP8 SWAP1 PUSH1 0x1 SWAP1 DUP2 LT PUSH2 0x8F1 JUMPI INVALID JUMPDEST ADD PUSH1 0x20 ADD MLOAD DUP8 MLOAD PUSH32 0xFF00000000000000000000000000000000000000000000000000000000000000 SWAP1 SWAP2 AND SWAP1 SWAP2 SHR SWAP1 DUP8 SWAP1 PUSH1 0x0 SWAP1 PUSH2 0x92B JUMPI INVALID JUMPDEST PUSH1 0x20 ADD ADD MLOAD PUSH1 0xF8 SHR PUSH1 0xF8 SHL PUSH31 0xFFFFFFFFFFFFFFFFFFFFFFFFFFFFFFFFFFFFFFFFFFFFFFFFFFFFFFFFFFFFFF NOT AND OR OR OR SWAP1 POP PUSH1 0x0 DUP6 PUSH1 0x1 PUSH1 0x1 PUSH1 0xA0 SHL SUB AND PUSH4 0x851C1BB3 DUP4 PUSH1 0x40 MLOAD DUP3 PUSH4 0xFFFFFFFF AND PUSH1 0xE0 SHL DUP2 MSTORE PUSH1 0x4 ADD PUSH2 0x98B SWAP2 SWAP1 PUSH2 0x3605 JUMP JUMPDEST PUSH1 0x20 PUSH1 0x40 MLOAD DUP1 DUP4 SUB DUP2 DUP7 DUP1 EXTCODESIZE ISZERO DUP1 ISZERO PUSH2 0x9A3 JUMPI PUSH1 0x0 DUP1 REVERT JUMPDEST POP GAS STATICCALL ISZERO DUP1 ISZERO PUSH2 0x9B7 JUMPI RETURNDATASIZE PUSH1 0x0 DUP1 RETURNDATACOPY RETURNDATASIZE PUSH1 0x0 REVERT JUMPDEST POP POP POP POP PUSH1 0x40 MLOAD RETURNDATASIZE PUSH1 0x1F NOT PUSH1 0x1F DUP3 ADD AND DUP3 ADD DUP1 PUSH1 0x40 MSTORE POP DUP2 ADD SWAP1 PUSH2 0x9DB SWAP2 SWAP1 PUSH2 0x319A JUMP JUMPDEST SWAP1 POP PUSH2 0x9E8 DUP2 CALLER DUP9 PUSH2 0x1EF2 JUMP JUMPDEST PUSH2 0xA04 JUMPI PUSH1 0x40 MLOAD PUSH3 0x461BCD PUSH1 0xE5 SHL DUP2 MSTORE PUSH1 0x4 ADD PUSH2 0x71E SWAP1 PUSH2 0x3A38 JUMP JUMPDEST PUSH1 0x0 DUP2 DUP2 MSTORE PUSH1 0xA PUSH1 0x20 MSTORE PUSH1 0x40 SWAP1 KECCAK256 SLOAD DUP1 PUSH2 0xA30 JUMPI PUSH1 0x40 MLOAD PUSH3 0x461BCD PUSH1 0xE5 SHL DUP2 MSTORE PUSH1 0x4 ADD PUSH2 0x71E SWAP1 PUSH2 0x3A6F JUMP JUMPDEST PUSH1 0x0 PUSH2 0xA3E DUP9 DUP9 DUP5 DUP10 PUSH2 0x28DF JUMP JUMPDEST SWAP1 POP DUP1 DUP4 PUSH32 0x26CE5FFB7AB1CE72D9CA4A3E4F906D2B99194D6C53DD9832FD7A59D0B2FC6BED PUSH1 0x40 MLOAD PUSH1 0x40 MLOAD DUP1 SWAP2 SUB SWAP1 LOG3 PUSH2 0xA78 DUP2 CALLER PUSH2 0xD51 JUMP JUMPDEST PUSH2 0xA86 JUMPI PUSH2 0xA86 DUP2 CALLER PUSH2 0x2C37 JUMP JUMPDEST SWAP4 POP POP POP POP JUMPDEST SWAP4 SWAP3 POP POP POP JUMP JUMPDEST PUSH32 0x0 SWAP1 JUMP JUMPDEST CALLER PUSH1 0x1 PUSH1 0x1 PUSH1 0xA0 SHL SUB PUSH32 0x0 AND EQ PUSH2 0xAFF JUMPI PUSH1 0x40 MLOAD PUSH3 0x461BCD PUSH1 0xE5 SHL DUP2 MSTORE PUSH1 0x4 ADD PUSH2 0x71E SWAP1 PUSH2 0x3D71 JUMP JUMPDEST PUSH2 0x7D9 DUP2 PUSH2 0x287D JUMP JUMPDEST PUSH2 0xB11 CALLER PUSH2 0xF12 JUMP JUMPDEST PUSH2 0xB2D JUMPI PUSH1 0x40 MLOAD PUSH3 0x461BCD PUSH1 0xE5 SHL DUP2 MSTORE PUSH1 0x4 ADD PUSH2 0x71E SWAP1 PUSH2 0x3B14 JUMP JUMPDEST PUSH2 0xB38 DUP4 DUP4 DUP4 PUSH2 0x1C75 JUMP JUMPDEST ISZERO PUSH2 0xB55 JUMPI PUSH1 0x40 MLOAD PUSH3 0x461BCD PUSH1 0xE5 SHL DUP2 MSTORE PUSH1 0x4 ADD PUSH2 0x71E SWAP1 PUSH2 0x3880 JUMP JUMPDEST PUSH1 0x0 DUP4 DUP2 MSTORE PUSH1 0x3 PUSH1 0x20 SWAP1 DUP2 MSTORE PUSH1 0x40 DUP1 DUP4 KECCAK256 PUSH1 0x1 PUSH1 0x1 PUSH1 0xA0 SHL SUB DUP1 DUP8 AND DUP1 DUP7 MSTORE SWAP2 DUP5 MSTORE DUP3 DUP6 KECCAK256 SWAP1 DUP7 AND DUP1 DUP7 MSTORE SWAP4 MSTORE DUP2 DUP5 KECCAK256 DUP1 SLOAD PUSH1 0xFF NOT AND PUSH1 0x1 OR SWAP1 SSTORE SWAP1 MLOAD SWAP2 SWAP3 SWAP1 SWAP2 DUP7 SWAP2 PUSH32 0x2D106CF4379AAD979C25AF765E6F7169B732D4C4660E41AA733A150C7FC0A6F7 SWAP2 LOG4 POP POP POP JUMP JUMPDEST PUSH1 0x0 PUSH2 0xBCB CALLER PUSH2 0xF12 JUMP JUMPDEST PUSH2 0xBE7 JUMPI PUSH1 0x40 MLOAD PUSH3 0x461BCD PUSH1 0xE5 SHL DUP2 MSTORE PUSH1 0x4 ADD PUSH2 0x71E SWAP1 PUSH2 0x3B14 JUMP JUMPDEST PUSH1 0x60 PUSH4 0x1B3C85EB PUSH1 0xE0 SHL DUP5 PUSH1 0x40 MLOAD PUSH1 0x24 ADD PUSH2 0xC02 SWAP2 SWAP1 PUSH2 0x34A0 JUMP JUMPDEST PUSH1 0x40 DUP1 MLOAD PUSH1 0x1F NOT DUP2 DUP5 SUB ADD DUP2 MSTORE SWAP2 SWAP1 MSTORE PUSH1 0x20 DUP2 ADD DUP1 MLOAD PUSH28 0xFFFFFFFFFFFFFFFFFFFFFFFFFFFFFFFFFFFFFFFFFFFFFFFFFFFFFFFF AND PUSH32 0xFFFFFFFF00000000000000000000000000000000000000000000000000000000 SWAP1 SWAP4 AND SWAP3 SWAP1 SWAP3 OR SWAP1 SWAP2 MSTORE SWAP1 POP PUSH1 0x0 PUSH2 0xC78 ADDRESS DUP4 PUSH2 0xC72 PUSH2 0x1D17 JUMP JUMPDEST DUP8 PUSH2 0x28DF JUMP JUMPDEST SWAP1 POP DUP1 DUP6 PUSH1 0x1 PUSH1 0x1 PUSH1 0xA0 SHL SUB AND PUSH32 0x7DE09FF5F925CA34A396DF31B30CDBDD0CD10B88833B4F7334CECC02454C1BE7 PUSH1 0x40 MLOAD PUSH1 0x40 MLOAD DUP1 SWAP2 SUB SWAP1 LOG3 SWAP5 SWAP4 POP POP POP POP JUMP JUMPDEST PUSH1 0x0 DUP4 DUP2 MSTORE PUSH1 0x8 PUSH1 0x20 MSTORE PUSH1 0x40 SWAP1 KECCAK256 SLOAD PUSH2 0xCF7 JUMPI PUSH2 0xCD6 CALLER DUP3 PUSH2 0x1D3B JUMP JUMPDEST PUSH2 0xCF2 JUMPI PUSH1 0x40 MLOAD PUSH3 0x461BCD PUSH1 0xE5 SHL DUP2 MSTORE PUSH1 0x4 ADD PUSH2 0x71E SWAP1 PUSH2 0x3ADD JUMP JUMPDEST PUSH2 0xD2F JUMP JUMPDEST PUSH2 0xCFF PUSH2 0xA93 JUMP JUMPDEST PUSH1 0x1 PUSH1 0x1 PUSH1 0xA0 SHL SUB AND CALLER PUSH1 0x1 PUSH1 0x1 PUSH1 0xA0 SHL SUB AND EQ PUSH2 0xD2F JUMPI PUSH1 0x40 MLOAD PUSH3 0x461BCD PUSH1 0xE5 SHL DUP2 MSTORE PUSH1 0x4 ADD PUSH2 0x71E SWAP1 PUSH2 0x3BB9 JUMP JUMPDEST PUSH2 0xD3A DUP4 DUP4 DUP4 PUSH2 0x2D47 JUMP JUMPDEST POP POP POP JUMP JUMPDEST PUSH1 0x0 SWAP1 DUP2 MSTORE PUSH1 0xA PUSH1 0x20 MSTORE PUSH1 0x40 SWAP1 KECCAK256 SLOAD SWAP1 JUMP JUMPDEST PUSH1 0x0 DUP3 DUP2 MSTORE PUSH1 0x5 PUSH1 0x20 SWAP1 DUP2 MSTORE PUSH1 0x40 DUP1 DUP4 KECCAK256 PUSH1 0x1 PUSH1 0x1 PUSH1 0xA0 SHL SUB DUP6 AND DUP5 MSTORE SWAP1 SWAP2 MSTORE DUP2 KECCAK256 SLOAD PUSH1 0xFF AND DUP1 PUSH2 0xDB4 JUMPI POP PUSH1 0x5 PUSH1 0x0 PUSH2 0xD89 PUSH2 0x11B8 JUMP JUMPDEST DUP2 MSTORE PUSH1 0x20 DUP1 DUP3 ADD SWAP3 SWAP1 SWAP3 MSTORE PUSH1 0x40 SWAP1 DUP2 ADD PUSH1 0x0 SWAP1 DUP2 KECCAK256 PUSH1 0x1 PUSH1 0x1 PUSH1 0xA0 SHL SUB DUP7 AND DUP3 MSTORE SWAP1 SWAP3 MSTORE SWAP1 KECCAK256 SLOAD PUSH1 0xFF AND JUMPDEST DUP1 PUSH2 0xA8C JUMPI POP PUSH2 0xA8C DUP3 PUSH2 0xF12 JUMP JUMPDEST PUSH1 0x6 SLOAD DUP2 LT PUSH2 0xDE4 JUMPI PUSH1 0x40 MLOAD PUSH3 0x461BCD PUSH1 0xE5 SHL DUP2 MSTORE PUSH1 0x4 ADD PUSH2 0x71E SWAP1 PUSH2 0x36A2 JUMP JUMPDEST PUSH1 0x0 PUSH1 0x6 DUP3 DUP2 SLOAD DUP2 LT PUSH2 0xDF3 JUMPI INVALID JUMPDEST PUSH1 0x0 SWAP2 DUP3 MSTORE PUSH1 0x20 SWAP1 SWAP2 KECCAK256 PUSH1 0xA SWAP1 SWAP2 MUL ADD PUSH1 0x2 DUP2 ADD SLOAD SWAP1 SWAP2 POP PUSH1 0xFF AND ISZERO PUSH2 0xE2B JUMPI PUSH1 0x40 MLOAD PUSH3 0x461BCD PUSH1 0xE5 SHL DUP2 MSTORE PUSH1 0x4 ADD PUSH2 0x71E SWAP1 PUSH2 0x3D3A JUMP JUMPDEST PUSH1 0x2 DUP2 ADD SLOAD PUSH2 0x100 SWAP1 DIV PUSH1 0xFF AND ISZERO PUSH2 0xE55 JUMPI PUSH1 0x40 MLOAD PUSH3 0x461BCD PUSH1 0xE5 SHL DUP2 MSTORE PUSH1 0x4 ADD PUSH2 0x71E SWAP1 PUSH2 0x3993 JUMP JUMPDEST PUSH2 0xE5F DUP3 CALLER PUSH2 0xD51 JUMP JUMPDEST PUSH2 0xE7B JUMPI PUSH1 0x40 MLOAD PUSH3 0x461BCD PUSH1 0xE5 SHL DUP2 MSTORE PUSH1 0x4 ADD PUSH2 0x71E SWAP1 PUSH2 0x3F29 JUMP JUMPDEST PUSH1 0x2 DUP2 ADD DUP1 SLOAD PUSH32 0xFFFFFFFFFFFFFFFFFFFFFFFFFFFFFFFFFFFFFFFFFFFFFFFFFFFFFFFFFFFF00FF AND PUSH2 0x100 OR SWAP1 SSTORE PUSH1 0x8 DUP2 ADD DUP1 SLOAD PUSH32 0xFFFFFFFFFFFFFFFFFFFFFFFF0000000000000000000000000000000000000000 AND CALLER OR SWAP1 SSTORE TIMESTAMP PUSH1 0x9 DUP3 ADD SSTORE PUSH1 0x40 MLOAD DUP3 SWAP1 PUSH32 0xE48F88CEADA5A6DDB8DED9B5E457CB802E319A647EEC8FF1F2A0512C0A741ED9 SWAP1 PUSH1 0x0 SWAP1 LOG2 POP POP JUMP JUMPDEST PUSH4 0x3C26700 SWAP1 JUMP JUMPDEST PUSH1 0x0 SLOAD PUSH1 0x1 PUSH1 0x1 PUSH1 0xA0 SHL SUB SWAP1 DUP2 AND SWAP2 AND EQ SWAP1 JUMP JUMPDEST PUSH1 0x0 PUSH2 0xF32 CALLER DUP5 PUSH2 0x1D3B JUMP JUMPDEST PUSH2 0xF4E JUMPI PUSH1 0x40 MLOAD PUSH3 0x461BCD PUSH1 0xE5 SHL DUP2 MSTORE PUSH1 0x4 ADD PUSH2 0x71E SWAP1 PUSH2 0x3ADD JUMP JUMPDEST PUSH1 0x0 DUP6 DUP2 MSTORE PUSH1 0x8 PUSH1 0x20 MSTORE PUSH1 0x40 SWAP1 KECCAK256 SLOAD DUP1 PUSH2 0xF7A JUMPI PUSH1 0x40 MLOAD PUSH3 0x461BCD PUSH1 0xE5 SHL DUP2 MSTORE PUSH1 0x4 ADD PUSH2 0x71E SWAP1 PUSH2 0x3C95 JUMP JUMPDEST PUSH1 0x60 PUSH4 0x3AC5D439 PUSH1 0xE0 SHL DUP8 DUP8 DUP8 PUSH1 0x40 MLOAD PUSH1 0x24 ADD PUSH2 0xF99 SWAP4 SWAP3 SWAP2 SWAP1 PUSH2 0x35D8 JUMP JUMPDEST PUSH1 0x40 DUP1 MLOAD PUSH1 0x1F NOT DUP2 DUP5 SUB ADD DUP2 MSTORE SWAP2 SWAP1 MSTORE PUSH1 0x20 DUP2 ADD DUP1 MLOAD PUSH28 0xFFFFFFFFFFFFFFFFFFFFFFFFFFFFFFFFFFFFFFFFFFFFFFFFFFFFFFFF AND PUSH32 0xFFFFFFFF00000000000000000000000000000000000000000000000000000000 SWAP1 SWAP4 AND SWAP3 SWAP1 SWAP3 OR SWAP1 SWAP2 MSTORE SWAP1 POP PUSH1 0x0 PUSH2 0x1008 ADDRESS DUP4 DUP6 DUP9 PUSH2 0x28DF JUMP JUMPDEST SWAP1 POP DUP6 PUSH1 0x1 PUSH1 0x1 PUSH1 0xA0 SHL SUB AND DUP8 PUSH1 0x1 PUSH1 0x1 PUSH1 0xA0 SHL SUB AND DUP10 PUSH32 0x645FDC5699106B1DFFDA57F54FDCCA22AD57D87F0AFD651EDF857AF3BFBD8784 DUP5 PUSH1 0x40 MLOAD PUSH2 0x104E SWAP2 SWAP1 PUSH2 0x3F73 JUMP JUMPDEST PUSH1 0x40 MLOAD DUP1 SWAP2 SUB SWAP1 LOG4 PUSH2 0x1060 DUP2 CALLER PUSH2 0xD51 JUMP JUMPDEST PUSH2 0x106E JUMPI PUSH2 0x106E DUP2 CALLER PUSH2 0x2C37 JUMP JUMPDEST SWAP8 SWAP7 POP POP POP POP POP POP POP JUMP JUMPDEST PUSH1 0x0 SLOAD PUSH1 0x1 PUSH1 0x1 PUSH1 0xA0 SHL SUB AND SWAP1 JUMP JUMPDEST PUSH1 0x0 PUSH2 0x1093 CALLER PUSH2 0xF12 JUMP JUMPDEST PUSH2 0x10AF JUMPI PUSH1 0x40 MLOAD PUSH3 0x461BCD PUSH1 0xE5 SHL DUP2 MSTORE PUSH1 0x4 ADD PUSH2 0x71E SWAP1 PUSH2 0x3B14 JUMP JUMPDEST PUSH2 0x10B7 PUSH2 0xF0A JUMP JUMPDEST DUP4 GT ISZERO PUSH2 0x10D6 JUMPI PUSH1 0x40 MLOAD PUSH3 0x461BCD PUSH1 0xE5 SHL DUP2 MSTORE PUSH1 0x4 ADD PUSH2 0x71E SWAP1 PUSH2 0x3C5E JUMP JUMPDEST PUSH1 0x0 DUP5 DUP2 MSTORE PUSH1 0x8 PUSH1 0x20 MSTORE PUSH1 0x40 DUP2 KECCAK256 SLOAD PUSH2 0x10EF SWAP1 DUP6 PUSH2 0x2E5B JUMP JUMPDEST SWAP1 POP PUSH1 0x60 PUSH4 0xC80C23E1 PUSH1 0xE0 SHL DUP7 DUP7 PUSH1 0x40 MLOAD PUSH1 0x24 ADD PUSH2 0x110E SWAP3 SWAP2 SWAP1 PUSH2 0x35F7 JUMP JUMPDEST PUSH1 0x40 DUP1 MLOAD PUSH1 0x1F NOT DUP2 DUP5 SUB ADD DUP2 MSTORE SWAP2 SWAP1 MSTORE PUSH1 0x20 DUP2 ADD DUP1 MLOAD PUSH28 0xFFFFFFFFFFFFFFFFFFFFFFFFFFFFFFFFFFFFFFFFFFFFFFFFFFFFFFFF AND PUSH32 0xFFFFFFFF00000000000000000000000000000000000000000000000000000000 SWAP1 SWAP4 AND SWAP3 SWAP1 SWAP3 OR SWAP1 SWAP2 MSTORE SWAP1 POP PUSH1 0x0 PUSH2 0x117D ADDRESS DUP4 DUP6 DUP9 PUSH2 0x28DF JUMP JUMPDEST SWAP1 POP DUP1 DUP7 DUP9 PUSH32 0x2F330FAF5E23FC7FF1C46F2B1A3299D86249055A5BF74A8B747AB7FB66F6DC9F PUSH1 0x40 MLOAD PUSH1 0x40 MLOAD DUP1 SWAP2 SUB SWAP1 LOG4 SWAP7 SWAP6 POP POP POP POP POP POP JUMP JUMPDEST PUSH32 0xFFFFFFFFFFFFFFFFFFFFFFFFFFFFFFFFFFFFFFFFFFFFFFFFFFFFFFFFFFFFFFFF SWAP1 JUMP JUMPDEST PUSH1 0x0 PUSH2 0x11E7 CALLER PUSH2 0xF12 JUMP JUMPDEST PUSH2 0x1203 JUMPI PUSH1 0x40 MLOAD PUSH3 0x461BCD PUSH1 0xE5 SHL DUP2 MSTORE PUSH1 0x4 ADD PUSH2 0x71E SWAP1 PUSH2 0x3B14 JUMP JUMPDEST PUSH2 0x120B PUSH2 0xF0A JUMP JUMPDEST DUP4 GT ISZERO PUSH2 0x122A JUMPI PUSH1 0x40 MLOAD PUSH3 0x461BCD PUSH1 0xE5 SHL DUP2 MSTORE PUSH1 0x4 ADD PUSH2 0x71E SWAP1 PUSH2 0x3C5E JUMP JUMPDEST PUSH1 0x0 DUP5 DUP2 MSTORE PUSH1 0x7 PUSH1 0x20 MSTORE PUSH1 0x40 DUP2 KECCAK256 SLOAD PUSH2 0x1243 SWAP1 DUP6 PUSH2 0x2E5B JUMP JUMPDEST SWAP1 POP PUSH1 0x60 PUSH4 0x10D3AB2C PUSH1 0xE0 SHL DUP7 DUP7 PUSH1 0x40 MLOAD PUSH1 0x24 ADD PUSH2 0x1262 SWAP3 SWAP2 SWAP1 PUSH2 0x35F7 JUMP JUMPDEST PUSH1 0x40 DUP1 MLOAD PUSH1 0x1F NOT DUP2 DUP5 SUB ADD DUP2 MSTORE SWAP2 SWAP1 MSTORE PUSH1 0x20 DUP2 ADD DUP1 MLOAD PUSH28 0xFFFFFFFFFFFFFFFFFFFFFFFFFFFFFFFFFFFFFFFFFFFFFFFFFFFFFFFF AND PUSH32 0xFFFFFFFF00000000000000000000000000000000000000000000000000000000 SWAP1 SWAP4 AND SWAP3 SWAP1 SWAP3 OR SWAP1 SWAP2 MSTORE SWAP1 POP PUSH1 0x0 PUSH2 0x12D1 ADDRESS DUP4 DUP6 DUP9 PUSH2 0x28DF JUMP JUMPDEST SWAP1 POP DUP1 DUP7 DUP9 PUSH32 0x3D8C3AD02346A1DDF099DD26578662FB8CF85903168EBFEB1F14473FED8EE488 PUSH1 0x40 MLOAD PUSH1 0x40 MLOAD DUP1 SWAP2 SUB SWAP1 LOG4 SWAP7 SWAP6 POP POP POP POP POP POP JUMP JUMPDEST PUSH2 0x1314 PUSH2 0x2E9C JUMP JUMPDEST PUSH1 0x6 DUP3 DUP2 SLOAD DUP2 LT PUSH2 0x1321 JUMPI INVALID JUMPDEST PUSH1 0x0 SWAP2 DUP3 MSTORE PUSH1 0x20 SWAP2 DUP3 SWAP1 KECCAK256 PUSH1 0x40 DUP1 MLOAD PUSH2 0x180 DUP2 ADD DUP3 MSTORE PUSH1 0xA SWAP1 SWAP4 MUL SWAP1 SWAP2 ADD DUP1 SLOAD PUSH1 0x1 PUSH1 0x1 PUSH1 0xA0 SHL SUB AND DUP4 MSTORE PUSH1 0x1 DUP1 DUP3 ADD DUP1 SLOAD DUP5 MLOAD PUSH1 0x1F PUSH1 0x2 PUSH32 0xFFFFFFFFFFFFFFFFFFFFFFFFFFFFFFFFFFFFFFFFFFFFFFFFFFFFFFFFFFFFFFFF SWAP6 DUP5 AND ISZERO PUSH2 0x100 MUL SWAP6 SWAP1 SWAP6 ADD SWAP1 SWAP3 AND SWAP4 SWAP1 SWAP4 DIV SWAP1 DUP2 ADD DUP8 SWAP1 DIV DUP8 MUL DUP4 ADD DUP8 ADD SWAP1 SWAP5 MSTORE DUP4 DUP3 MSTORE SWAP4 SWAP5 SWAP2 SWAP4 DUP6 DUP4 ADD SWAP4 SWAP2 SWAP3 SWAP1 SWAP2 SWAP1 DUP4 ADD DUP3 DUP3 DUP1 ISZERO PUSH2 0x13FD JUMPI DUP1 PUSH1 0x1F LT PUSH2 0x13D2 JUMPI PUSH2 0x100 DUP1 DUP4 SLOAD DIV MUL DUP4 MSTORE SWAP2 PUSH1 0x20 ADD SWAP2 PUSH2 0x13FD JUMP JUMPDEST DUP3 ADD SWAP2 SWAP1 PUSH1 0x0 MSTORE PUSH1 0x20 PUSH1 0x0 KECCAK256 SWAP1 JUMPDEST DUP2 SLOAD DUP2 MSTORE SWAP1 PUSH1 0x1 ADD SWAP1 PUSH1 0x20 ADD DUP1 DUP4 GT PUSH2 0x13E0 JUMPI DUP3 SWAP1 SUB PUSH1 0x1F AND DUP3 ADD SWAP2 JUMPDEST POP POP POP SWAP2 DUP4 MSTORE POP POP PUSH1 0x2 DUP3 ADD SLOAD PUSH1 0xFF DUP1 DUP3 AND ISZERO ISZERO PUSH1 0x20 DUP5 ADD MSTORE PUSH2 0x100 DUP1 DUP4 DIV DUP3 AND ISZERO ISZERO PUSH1 0x40 DUP6 ADD MSTORE PUSH3 0x10000 SWAP1 SWAP3 DIV AND ISZERO ISZERO PUSH1 0x60 DUP4 ADD MSTORE PUSH1 0x3 DUP4 ADD SLOAD PUSH1 0x80 DUP4 ADD MSTORE PUSH1 0x4 DUP4 ADD SLOAD PUSH1 0x1 PUSH1 0x1 PUSH1 0xA0 SHL SUB SWAP1 DUP2 AND PUSH1 0xA0 DUP5 ADD MSTORE PUSH1 0x5 DUP5 ADD SLOAD PUSH1 0xC0 DUP5 ADD MSTORE PUSH1 0x6 DUP5 ADD SLOAD DUP2 AND PUSH1 0xE0 DUP5 ADD MSTORE PUSH1 0x7 DUP5 ADD SLOAD SWAP2 DUP4 ADD SWAP2 SWAP1 SWAP2 MSTORE PUSH1 0x8 DUP4 ADD SLOAD AND PUSH2 0x120 DUP3 ADD MSTORE PUSH1 0x9 SWAP1 SWAP2 ADD SLOAD PUSH2 0x140 SWAP1 SWAP2 ADD MSTORE SWAP3 SWAP2 POP POP JUMP JUMPDEST PUSH2 0x149D CALLER PUSH2 0xF12 JUMP JUMPDEST PUSH2 0x14B9 JUMPI PUSH1 0x40 MLOAD PUSH3 0x461BCD PUSH1 0xE5 SHL DUP2 MSTORE PUSH1 0x4 ADD PUSH2 0x71E SWAP1 PUSH2 0x3B14 JUMP JUMPDEST PUSH2 0x14C2 DUP2 PUSH2 0xF12 JUMP JUMPDEST ISZERO PUSH2 0x14DF JUMPI PUSH1 0x40 MLOAD PUSH3 0x461BCD PUSH1 0xE5 SHL DUP2 MSTORE PUSH1 0x4 ADD PUSH2 0x71E SWAP1 PUSH2 0x36D9 JUMP JUMPDEST PUSH2 0x14E9 DUP3 DUP3 PUSH2 0xD51 JUMP JUMPDEST PUSH2 0x1505 JUMPI PUSH1 0x40 MLOAD PUSH3 0x461BCD PUSH1 0xE5 SHL DUP2 MSTORE PUSH1 0x4 ADD PUSH2 0x71E SWAP1 PUSH2 0x3DDF JUMP JUMPDEST PUSH1 0x5 PUSH1 0x0 PUSH2 0x1511 PUSH2 0x11B8 JUMP JUMPDEST DUP2 MSTORE PUSH1 0x20 DUP1 DUP3 ADD SWAP3 SWAP1 SWAP3 MSTORE PUSH1 0x40 SWAP1 DUP2 ADD PUSH1 0x0 SWAP1 DUP2 KECCAK256 PUSH1 0x1 PUSH1 0x1 PUSH1 0xA0 SHL SUB DUP6 AND DUP3 MSTORE SWAP1 SWAP3 MSTORE SWAP1 KECCAK256 SLOAD PUSH1 0xFF AND ISZERO PUSH2 0x1566 JUMPI PUSH2 0x1548 PUSH2 0x11B8 JUMP JUMPDEST DUP3 EQ PUSH2 0x1566 JUMPI PUSH1 0x40 MLOAD PUSH3 0x461BCD PUSH1 0xE5 SHL DUP2 MSTORE PUSH1 0x4 ADD PUSH2 0x71E SWAP1 PUSH2 0x3DA8 JUMP JUMPDEST PUSH1 0x0 DUP3 DUP2 MSTORE PUSH1 0x5 PUSH1 0x20 SWAP1 DUP2 MSTORE PUSH1 0x40 DUP1 DUP4 KECCAK256 PUSH1 0x1 PUSH1 0x1 PUSH1 0xA0 SHL SUB DUP6 AND DUP1 DUP6 MSTORE SWAP3 MSTORE DUP1 DUP4 KECCAK256 DUP1 SLOAD PUSH1 0xFF NOT AND SWAP1 SSTORE MLOAD SWAP1 SWAP2 DUP5 SWAP2 PUSH32 0xD6B522EB4B505A0843020E304BA27D827B52C89347E6176B2F2737E6E4015C2D SWAP2 SWAP1 LOG3 POP POP JUMP JUMPDEST PUSH1 0x0 PUSH2 0x15CB DUP6 CALLER DUP6 PUSH2 0x1C75 JUMP JUMPDEST PUSH2 0x15E7 JUMPI PUSH1 0x40 MLOAD PUSH3 0x461BCD PUSH1 0xE5 SHL DUP2 MSTORE PUSH1 0x4 ADD PUSH2 0x71E SWAP1 PUSH2 0x37DB JUMP JUMPDEST PUSH1 0x0 DUP6 DUP2 MSTORE PUSH1 0x7 PUSH1 0x20 MSTORE PUSH1 0x40 SWAP1 KECCAK256 SLOAD DUP1 PUSH2 0x1613 JUMPI PUSH1 0x40 MLOAD PUSH3 0x461BCD PUSH1 0xE5 SHL DUP2 MSTORE PUSH1 0x4 ADD PUSH2 0x71E SWAP1 PUSH2 0x395C JUMP JUMPDEST PUSH1 0x60 PUSH4 0x8CC3D072 PUSH1 0xE0 SHL DUP8 DUP8 DUP8 PUSH1 0x40 MLOAD PUSH1 0x24 ADD PUSH2 0x1632 SWAP4 SWAP3 SWAP2 SWAP1 PUSH2 0x35D8 JUMP JUMPDEST PUSH1 0x40 DUP1 MLOAD PUSH1 0x1F NOT DUP2 DUP5 SUB ADD DUP2 MSTORE SWAP2 SWAP1 MSTORE PUSH1 0x20 DUP2 ADD DUP1 MLOAD PUSH28 0xFFFFFFFFFFFFFFFFFFFFFFFFFFFFFFFFFFFFFFFFFFFFFFFFFFFFFFFF AND PUSH32 0xFFFFFFFF00000000000000000000000000000000000000000000000000000000 SWAP1 SWAP4 AND SWAP3 SWAP1 SWAP3 OR SWAP1 SWAP2 MSTORE SWAP1 POP PUSH1 0x0 PUSH2 0x16A1 ADDRESS DUP4 DUP6 DUP9 PUSH2 0x28DF JUMP JUMPDEST SWAP1 POP DUP6 PUSH1 0x1 PUSH1 0x1 PUSH1 0xA0 SHL SUB AND DUP8 PUSH1 0x1 PUSH1 0x1 PUSH1 0xA0 SHL SUB AND DUP10 PUSH32 0x185F04FF33C89687859342776C7FDCF04D9EB9444D65192BFEBAB5A5AC9874A8 DUP5 PUSH1 0x40 MLOAD PUSH2 0x104E SWAP2 SWAP1 PUSH2 0x3F73 JUMP JUMPDEST PUSH1 0x0 SWAP3 DUP4 MSTORE PUSH1 0x9 PUSH1 0x20 SWAP1 DUP2 MSTORE PUSH1 0x40 DUP1 DUP6 KECCAK256 PUSH1 0x1 PUSH1 0x1 PUSH1 0xA0 SHL SUB SWAP5 DUP6 AND DUP7 MSTORE DUP3 MSTORE DUP1 DUP6 KECCAK256 SWAP3 SWAP1 SWAP4 AND DUP5 MSTORE MSTORE SWAP1 KECCAK256 SLOAD PUSH1 0xFF AND SWAP1 JUMP JUMPDEST PUSH1 0x0 SWAP1 DUP2 MSTORE PUSH1 0x7 PUSH1 0x20 MSTORE PUSH1 0x40 SWAP1 KECCAK256 SLOAD SWAP1 JUMP JUMPDEST PUSH1 0x0 DUP4 DUP2 MSTORE PUSH1 0x7 PUSH1 0x20 MSTORE PUSH1 0x40 SWAP1 KECCAK256 SLOAD PUSH2 0x176B JUMPI PUSH2 0x174A DUP4 CALLER DUP4 PUSH2 0x1C75 JUMP JUMPDEST PUSH2 0x1766 JUMPI PUSH1 0x40 MLOAD PUSH3 0x461BCD PUSH1 0xE5 SHL DUP2 MSTORE PUSH1 0x4 ADD PUSH2 0x71E SWAP1 PUSH2 0x37DB JUMP JUMPDEST PUSH2 0x17A3 JUMP JUMPDEST PUSH2 0x1773 PUSH2 0xA93 JUMP JUMPDEST PUSH1 0x1 PUSH1 0x1 PUSH1 0xA0 SHL SUB AND CALLER PUSH1 0x1 PUSH1 0x1 PUSH1 0xA0 SHL SUB AND EQ PUSH2 0x17A3 JUMPI PUSH1 0x40 MLOAD PUSH3 0x461BCD PUSH1 0xE5 SHL DUP2 MSTORE PUSH1 0x4 ADD PUSH2 0x71E SWAP1 PUSH2 0x3E16 JUMP JUMPDEST PUSH2 0x17AE DUP4 DUP4 DUP4 PUSH2 0x1EF2 JUMP JUMPDEST ISZERO PUSH2 0x17CB JUMPI PUSH1 0x40 MLOAD PUSH3 0x461BCD PUSH1 0xE5 SHL DUP2 MSTORE PUSH1 0x4 ADD PUSH2 0x71E SWAP1 PUSH2 0x3747 JUMP JUMPDEST PUSH1 0x0 DUP4 DUP2 MSTORE PUSH1 0x9 PUSH1 0x20 SWAP1 DUP2 MSTORE PUSH1 0x40 DUP1 DUP4 KECCAK256 PUSH1 0x1 PUSH1 0x1 PUSH1 0xA0 SHL SUB DUP1 DUP8 AND DUP1 DUP7 MSTORE SWAP2 DUP5 MSTORE DUP3 DUP6 KECCAK256 SWAP1 DUP7 AND DUP1 DUP7 MSTORE SWAP4 MSTORE DUP2 DUP5 KECCAK256 DUP1 SLOAD PUSH1 0xFF NOT AND PUSH1 0x1 OR SWAP1 SSTORE SWAP1 MLOAD SWAP2 SWAP3 SWAP1 SWAP2 DUP7 SWAP2 PUSH32 0xEF6EE312A0062A24A46BE2EBA5284183A87FF848110E8D4DF979BD690D9E9F68 SWAP2 LOG4 POP POP POP JUMP JUMPDEST PUSH32 0x0 SWAP1 JUMP JUMPDEST PUSH2 0x1863 CALLER PUSH2 0xF12 JUMP JUMPDEST PUSH2 0x187F JUMPI PUSH1 0x40 MLOAD PUSH3 0x461BCD PUSH1 0xE5 SHL DUP2 MSTORE PUSH1 0x4 ADD PUSH2 0x71E SWAP1 PUSH2 0x3B14 JUMP JUMPDEST PUSH2 0x1889 DUP3 DUP3 PUSH2 0x1D3B JUMP JUMPDEST PUSH2 0x18A5 JUMPI PUSH1 0x40 MLOAD PUSH3 0x461BCD PUSH1 0xE5 SHL DUP2 MSTORE PUSH1 0x4 ADD PUSH2 0x71E SWAP1 PUSH2 0x3E4D JUMP JUMPDEST PUSH2 0x18AE DUP3 PUSH2 0xF12 JUMP JUMPDEST ISZERO PUSH2 0x18CB JUMPI PUSH1 0x40 MLOAD PUSH3 0x461BCD PUSH1 0xE5 SHL DUP2 MSTORE PUSH1 0x4 ADD PUSH2 0x71E SWAP1 PUSH2 0x3B4B JUMP JUMPDEST PUSH1 0x1 PUSH1 0x1 PUSH1 0xA0 SHL SUB DUP3 AND PUSH1 0x0 SWAP1 DUP2 MSTORE PUSH1 0x4 PUSH1 0x20 MSTORE PUSH1 0x40 DUP2 KECCAK256 SWAP1 PUSH2 0x18EC PUSH2 0x11B8 JUMP JUMPDEST PUSH1 0x1 PUSH1 0x1 PUSH1 0xA0 SHL SUB AND DUP2 MSTORE PUSH1 0x20 DUP2 ADD SWAP2 SWAP1 SWAP2 MSTORE PUSH1 0x40 ADD PUSH1 0x0 KECCAK256 SLOAD PUSH1 0xFF AND ISZERO PUSH2 0x1946 JUMPI PUSH2 0x1916 PUSH2 0x11B8 JUMP JUMPDEST PUSH1 0x1 PUSH1 0x1 PUSH1 0xA0 SHL SUB AND DUP2 PUSH1 0x1 PUSH1 0x1 PUSH1 0xA0 SHL SUB AND EQ PUSH2 0x1946 JUMPI PUSH1 0x40 MLOAD PUSH3 0x461BCD PUSH1 0xE5 SHL DUP2 MSTORE PUSH1 0x4 ADD PUSH2 0x71E SWAP1 PUSH2 0x3AA6 JUMP JUMPDEST PUSH1 0x1 PUSH1 0x1 PUSH1 0xA0 SHL SUB DUP1 DUP4 AND PUSH1 0x0 DUP2 DUP2 MSTORE PUSH1 0x4 PUSH1 0x20 SWAP1 DUP2 MSTORE PUSH1 0x40 DUP1 DUP4 KECCAK256 SWAP5 DUP7 AND DUP1 DUP5 MSTORE SWAP5 SWAP1 SWAP2 MSTORE DUP1 DUP3 KECCAK256 DUP1 SLOAD PUSH1 0xFF NOT AND SWAP1 SSTORE MLOAD PUSH32 0xB6FE3AB11EB9AB1D9F1D41C8F42A5D72D10122099BA1548E4A6D1A4D8CEFEC4B SWAP2 SWAP1 LOG3 POP POP JUMP JUMPDEST PUSH2 0x19AB DUP3 CALLER DUP4 PUSH2 0x2D47 JUMP JUMPDEST POP POP JUMP JUMPDEST PUSH1 0x0 CALLER PUSH1 0x1 PUSH1 0x1 PUSH1 0xA0 SHL SUB PUSH32 0x0 AND EQ ISZERO PUSH2 0x1A1E JUMPI PUSH32 0x0 PUSH1 0x1 PUSH1 0x1 PUSH1 0xA0 SHL SUB AND DUP4 PUSH1 0x1 PUSH1 0x1 PUSH1 0xA0 SHL SUB AND EQ SWAP1 POP PUSH2 0xA8C JUMP JUMPDEST PUSH1 0x0 DUP5 DUP2 MSTORE PUSH1 0xA PUSH1 0x20 MSTORE PUSH1 0x40 SWAP1 KECCAK256 SLOAD ISZERO PUSH2 0x1A53 JUMPI PUSH2 0x1A3A PUSH2 0xA93 JUMP JUMPDEST PUSH1 0x1 PUSH1 0x1 PUSH1 0xA0 SHL SUB AND DUP4 PUSH1 0x1 PUSH1 0x1 PUSH1 0xA0 SHL SUB AND EQ PUSH2 0x1A5E JUMP JUMPDEST PUSH2 0x1A5E DUP5 DUP5 DUP5 PUSH2 0x1EF2 JUMP JUMPDEST SWAP5 SWAP4 POP POP POP POP JUMP JUMPDEST PUSH2 0x1A6F CALLER PUSH2 0xF12 JUMP JUMPDEST PUSH2 0x1A8B JUMPI PUSH1 0x40 MLOAD PUSH3 0x461BCD PUSH1 0xE5 SHL DUP2 MSTORE PUSH1 0x4 ADD PUSH2 0x71E SWAP1 PUSH2 0x3B14 JUMP JUMPDEST PUSH2 0x1A95 DUP3 DUP3 PUSH2 0x1D3B JUMP JUMPDEST ISZERO PUSH2 0x1AB2 JUMPI PUSH1 0x40 MLOAD PUSH3 0x461BCD PUSH1 0xE5 SHL DUP2 MSTORE PUSH1 0x4 ADD PUSH2 0x71E SWAP1 PUSH2 0x3EF2 JUMP JUMPDEST PUSH1 0x1 PUSH1 0x1 PUSH1 0xA0 SHL SUB DUP1 DUP4 AND PUSH1 0x0 DUP2 DUP2 MSTORE PUSH1 0x4 PUSH1 0x20 SWAP1 DUP2 MSTORE PUSH1 0x40 DUP1 DUP4 KECCAK256 SWAP5 DUP7 AND DUP1 DUP5 MSTORE SWAP5 SWAP1 SWAP2 MSTORE DUP1 DUP3 KECCAK256 DUP1 SLOAD PUSH1 0xFF NOT AND PUSH1 0x1 OR SWAP1 SSTORE MLOAD PUSH32 0x2B5F18AFD9A7B21F41BF023B012B3D4C8A22A21B79FA425CD4494ECBE2970196 SWAP2 SWAP1 LOG3 POP POP JUMP JUMPDEST PUSH2 0x1B18 CALLER PUSH2 0xF12 JUMP JUMPDEST PUSH2 0x1B34 JUMPI PUSH1 0x40 MLOAD PUSH3 0x461BCD PUSH1 0xE5 SHL DUP2 MSTORE PUSH1 0x4 ADD PUSH2 0x71E SWAP1 PUSH2 0x3B14 JUMP JUMPDEST PUSH2 0x1B3F DUP4 DUP4 DUP4 PUSH2 0x1C75 JUMP JUMPDEST PUSH2 0x1B5B JUMPI PUSH1 0x40 MLOAD PUSH3 0x461BCD PUSH1 0xE5 SHL DUP2 MSTORE PUSH1 0x4 ADD PUSH2 0x71E SWAP1 PUSH2 0x3D03 JUMP JUMPDEST PUSH2 0x1B64 DUP3 PUSH2 0xF12 JUMP JUMPDEST ISZERO PUSH2 0x1B81 JUMPI PUSH1 0x40 MLOAD PUSH3 0x461BCD PUSH1 0xE5 SHL DUP2 MSTORE PUSH1 0x4 ADD PUSH2 0x71E SWAP1 PUSH2 0x3EBB JUMP JUMPDEST PUSH1 0x0 DUP4 DUP2 MSTORE PUSH1 0x3 PUSH1 0x20 SWAP1 DUP2 MSTORE PUSH1 0x40 DUP1 DUP4 KECCAK256 PUSH1 0x1 PUSH1 0x1 PUSH1 0xA0 SHL SUB DUP7 AND DUP5 MSTORE SWAP1 SWAP2 MSTORE DUP2 KECCAK256 SWAP1 PUSH2 0x1BAC PUSH2 0x11B8 JUMP JUMPDEST PUSH1 0x1 PUSH1 0x1 PUSH1 0xA0 SHL SUB AND DUP2 MSTORE PUSH1 0x20 DUP2 ADD SWAP2 SWAP1 SWAP2 MSTORE PUSH1 0x40 ADD PUSH1 0x0 KECCAK256 SLOAD PUSH1 0xFF AND ISZERO PUSH2 0x1C06 JUMPI PUSH2 0x1BD6 PUSH2 0x11B8 JUMP JUMPDEST PUSH1 0x1 PUSH1 0x1 PUSH1 0xA0 SHL SUB AND DUP2 PUSH1 0x1 PUSH1 0x1 PUSH1 0xA0 SHL SUB AND EQ PUSH2 0x1C06 JUMPI PUSH1 0x40 MLOAD PUSH3 0x461BCD PUSH1 0xE5 SHL DUP2 MSTORE PUSH1 0x4 ADD PUSH2 0x71E SWAP1 PUSH2 0x3710 JUMP JUMPDEST PUSH1 0x0 DUP4 DUP2 MSTORE PUSH1 0x3 PUSH1 0x20 SWAP1 DUP2 MSTORE PUSH1 0x40 DUP1 DUP4 KECCAK256 PUSH1 0x1 PUSH1 0x1 PUSH1 0xA0 SHL SUB DUP1 DUP8 AND DUP1 DUP7 MSTORE SWAP2 DUP5 MSTORE DUP3 DUP6 KECCAK256 SWAP1 DUP7 AND DUP1 DUP7 MSTORE SWAP4 MSTORE DUP2 DUP5 KECCAK256 DUP1 SLOAD PUSH1 0xFF NOT AND SWAP1 SSTORE SWAP1 MLOAD SWAP2 SWAP3 SWAP1 SWAP2 DUP7 SWAP2 PUSH32 0xF8034293D5B4ED16B867DED8F122C475BC0D1B6BD9309A606609A754E5F3ADC3 SWAP2 LOG4 POP POP POP JUMP JUMPDEST PUSH3 0x69780 SWAP1 JUMP JUMPDEST PUSH1 0x0 DUP4 DUP2 MSTORE PUSH1 0x3 PUSH1 0x20 SWAP1 DUP2 MSTORE PUSH1 0x40 DUP1 DUP4 KECCAK256 PUSH1 0x1 PUSH1 0x1 PUSH1 0xA0 SHL SUB DUP1 DUP8 AND DUP6 MSTORE SWAP1 DUP4 MSTORE DUP2 DUP5 KECCAK256 SWAP1 DUP6 AND DUP5 MSTORE SWAP1 SWAP2 MSTORE DUP2 KECCAK256 SLOAD PUSH1 0xFF AND DUP1 PUSH2 0x1CF6 JUMPI POP PUSH1 0x0 DUP5 DUP2 MSTORE PUSH1 0x3 PUSH1 0x20 SWAP1 DUP2 MSTORE PUSH1 0x40 DUP1 DUP4 KECCAK256 PUSH1 0x1 PUSH1 0x1 PUSH1 0xA0 SHL SUB DUP8 AND DUP5 MSTORE SWAP1 SWAP2 MSTORE DUP2 KECCAK256 SWAP1 PUSH2 0x1CD8 PUSH2 0x11B8 JUMP JUMPDEST PUSH1 0x1 PUSH1 0x1 PUSH1 0xA0 SHL SUB AND DUP2 MSTORE PUSH1 0x20 DUP2 ADD SWAP2 SWAP1 SWAP2 MSTORE PUSH1 0x40 ADD PUSH1 0x0 KECCAK256 SLOAD PUSH1 0xFF AND JUMPDEST DUP1 PUSH2 0x1A5E JUMPI POP PUSH2 0x1A5E DUP4 PUSH2 0xF12 JUMP JUMPDEST PUSH1 0x0 SWAP1 DUP2 MSTORE PUSH1 0x8 PUSH1 0x20 MSTORE PUSH1 0x40 SWAP1 KECCAK256 SLOAD SWAP1 JUMP JUMPDEST PUSH32 0x0 SWAP1 JUMP JUMPDEST PUSH1 0x1 PUSH1 0x1 PUSH1 0xA0 SHL SUB DUP1 DUP4 AND PUSH1 0x0 SWAP1 DUP2 MSTORE PUSH1 0x4 PUSH1 0x20 SWAP1 DUP2 MSTORE PUSH1 0x40 DUP1 DUP4 KECCAK256 SWAP4 DUP6 AND DUP4 MSTORE SWAP3 SWAP1 MSTORE SWAP1 DUP2 KECCAK256 SLOAD PUSH1 0xFF AND DUP1 PUSH2 0x1DAB JUMPI POP PUSH1 0x1 PUSH1 0x1 PUSH1 0xA0 SHL SUB DUP4 AND PUSH1 0x0 SWAP1 DUP2 MSTORE PUSH1 0x4 PUSH1 0x20 MSTORE PUSH1 0x40 DUP2 KECCAK256 SWAP1 PUSH2 0x1D8D PUSH2 0x11B8 JUMP JUMPDEST PUSH1 0x1 PUSH1 0x1 PUSH1 0xA0 SHL SUB AND DUP2 MSTORE PUSH1 0x20 DUP2 ADD SWAP2 SWAP1 SWAP2 MSTORE PUSH1 0x40 ADD PUSH1 0x0 KECCAK256 SLOAD PUSH1 0xFF AND JUMPDEST DUP1 PUSH2 0xA8C JUMPI POP PUSH2 0xA8C DUP4 PUSH2 0xF12 JUMP JUMPDEST CALLER PUSH1 0x1 PUSH1 0x1 PUSH1 0xA0 SHL SUB PUSH32 0x0 AND EQ PUSH2 0x1E02 JUMPI PUSH1 0x40 MLOAD PUSH3 0x461BCD PUSH1 0xE5 SHL DUP2 MSTORE PUSH1 0x4 ADD PUSH2 0x71E SWAP1 PUSH2 0x3D71 JUMP JUMPDEST PUSH2 0x1E0B DUP2 PUSH2 0x27E8 JUMP JUMPDEST PUSH2 0x1E27 JUMPI PUSH1 0x40 MLOAD PUSH3 0x461BCD PUSH1 0xE5 SHL DUP2 MSTORE PUSH1 0x4 ADD PUSH2 0x71E SWAP1 PUSH2 0x3849 JUMP JUMPDEST PUSH1 0x0 DUP3 DUP2 MSTORE PUSH1 0x8 PUSH1 0x20 MSTORE PUSH1 0x40 SWAP1 DUP2 SWAP1 KECCAK256 DUP3 SWAP1 SSTORE MLOAD DUP3 SWAP1 PUSH32 0x6AEEBD84E31437F28A17927609991676C31C2B84875C601373DA2C194E9D2341 SWAP1 PUSH2 0x78F SWAP1 DUP5 SWAP1 PUSH2 0x3F73 JUMP JUMPDEST PUSH1 0x6 SLOAD PUSH1 0x0 SWAP1 DUP3 LT PUSH2 0x1E8E JUMPI PUSH1 0x40 MLOAD PUSH3 0x461BCD PUSH1 0xE5 SHL DUP2 MSTORE PUSH1 0x4 ADD PUSH2 0x71E SWAP1 PUSH2 0x36A2 JUMP JUMPDEST PUSH1 0x0 PUSH1 0x6 DUP4 DUP2 SLOAD DUP2 LT PUSH2 0x1E9D JUMPI INVALID JUMPDEST PUSH1 0x0 SWAP2 DUP3 MSTORE PUSH1 0x20 SWAP1 SWAP2 KECCAK256 PUSH1 0xA SWAP1 SWAP2 MUL ADD PUSH1 0x2 DUP2 ADD SLOAD SWAP1 SWAP2 POP PUSH1 0xFF AND ISZERO DUP1 ISZERO PUSH2 0x1ECF JUMPI POP PUSH1 0x2 DUP2 ADD SLOAD PUSH2 0x100 SWAP1 DIV PUSH1 0xFF AND ISZERO JUMPDEST DUP1 ISZERO PUSH2 0xA8C JUMPI POP PUSH1 0x3 ADD SLOAD TIMESTAMP LT ISZERO SWAP3 SWAP2 POP POP JUMP JUMPDEST PUSH1 0x1 SLOAD PUSH1 0x1 PUSH1 0x1 PUSH1 0xA0 SHL SUB AND SWAP1 JUMP JUMPDEST PUSH1 0x0 DUP4 DUP2 MSTORE PUSH1 0x9 PUSH1 0x20 SWAP1 DUP2 MSTORE PUSH1 0x40 DUP1 DUP4 KECCAK256 PUSH1 0x1 PUSH1 0x1 PUSH1 0xA0 SHL SUB DUP1 DUP8 AND DUP6 MSTORE SWAP1 DUP4 MSTORE DUP2 DUP5 KECCAK256 SWAP1 DUP6 AND DUP5 MSTORE SWAP1 SWAP2 MSTORE DUP2 KECCAK256 SLOAD PUSH1 0xFF AND DUP1 PUSH2 0x1A5E JUMPI POP PUSH1 0x0 DUP5 DUP2 MSTORE PUSH1 0x9 PUSH1 0x20 SWAP1 DUP2 MSTORE PUSH1 0x40 DUP1 DUP4 KECCAK256 PUSH1 0x1 PUSH1 0x1 PUSH1 0xA0 SHL SUB DUP8 AND DUP5 MSTORE SWAP1 SWAP2 MSTORE DUP2 KECCAK256 SWAP1 PUSH2 0x1F55 PUSH2 0x11B8 JUMP JUMPDEST PUSH1 0x1 PUSH1 0x1 PUSH1 0xA0 SHL SUB AND DUP2 MSTORE PUSH1 0x20 DUP2 ADD SWAP2 SWAP1 SWAP2 MSTORE PUSH1 0x40 ADD PUSH1 0x0 KECCAK256 SLOAD PUSH1 0xFF AND SWAP5 SWAP4 POP POP POP POP JUMP JUMPDEST PUSH1 0x6 SLOAD PUSH1 0x60 SWAP1 DUP5 LT PUSH2 0x1F9E JUMPI PUSH1 0x40 MLOAD PUSH3 0x461BCD PUSH1 0xE5 SHL DUP2 MSTORE PUSH1 0x4 ADD PUSH2 0x71E SWAP1 PUSH2 0x3925 JUMP JUMPDEST PUSH1 0x0 DUP4 GT PUSH2 0x1FBE JUMPI PUSH1 0x40 MLOAD PUSH3 0x461BCD PUSH1 0xE5 SHL DUP2 MSTORE PUSH1 0x4 ADD PUSH2 0x71E SWAP1 PUSH2 0x3CCC JUMP JUMPDEST PUSH1 0x6 SLOAD DUP5 SWAP1 SUB PUSH1 0x0 PUSH2 0x1FD0 DUP3 DUP7 PUSH2 0x2E84 JUMP JUMPDEST SWAP1 POP PUSH1 0x60 DUP2 PUSH8 0xFFFFFFFFFFFFFFFF DUP2 GT DUP1 ISZERO PUSH2 0x1FEB JUMPI PUSH1 0x0 DUP1 REVERT JUMPDEST POP PUSH1 0x40 MLOAD SWAP1 DUP1 DUP3 MSTORE DUP1 PUSH1 0x20 MUL PUSH1 0x20 ADD DUP3 ADD PUSH1 0x40 MSTORE DUP1 ISZERO PUSH2 0x2025 JUMPI DUP2 PUSH1 0x20 ADD JUMPDEST PUSH2 0x2012 PUSH2 0x2E9C JUMP JUMPDEST DUP2 MSTORE PUSH1 0x20 ADD SWAP1 PUSH1 0x1 SWAP1 SUB SWAP1 DUP2 PUSH2 0x200A JUMPI SWAP1 POP JUMPDEST POP SWAP1 POP PUSH1 0x0 JUMPDEST DUP3 DUP2 LT ISZERO PUSH2 0x2373 JUMPI DUP6 PUSH2 0x21D2 JUMPI PUSH1 0x6 DUP2 DUP10 ADD DUP2 SLOAD DUP2 LT PUSH2 0x2047 JUMPI INVALID JUMPDEST PUSH1 0x0 SWAP2 DUP3 MSTORE PUSH1 0x20 SWAP2 DUP3 SWAP1 KECCAK256 PUSH1 0x40 DUP1 MLOAD PUSH2 0x180 DUP2 ADD DUP3 MSTORE PUSH1 0xA SWAP1 SWAP4 MUL SWAP1 SWAP2 ADD DUP1 SLOAD PUSH1 0x1 PUSH1 0x1 PUSH1 0xA0 SHL SUB AND DUP4 MSTORE PUSH1 0x1 DUP1 DUP3 ADD DUP1 SLOAD DUP5 MLOAD PUSH1 0x1F PUSH1 0x2 PUSH32 0xFFFFFFFFFFFFFFFFFFFFFFFFFFFFFFFFFFFFFFFFFFFFFFFFFFFFFFFFFFFFFFFF SWAP6 DUP5 AND ISZERO PUSH2 0x100 MUL SWAP6 SWAP1 SWAP6 ADD SWAP1 SWAP3 AND SWAP4 SWAP1 SWAP4 DIV SWAP1 DUP2 ADD DUP8 SWAP1 DIV DUP8 MUL DUP4 ADD DUP8 ADD SWAP1 SWAP5 MSTORE DUP4 DUP3 MSTORE SWAP4 SWAP5 SWAP2 SWAP4 DUP6 DUP4 ADD SWAP4 SWAP2 SWAP3 SWAP1 SWAP2 SWAP1 DUP4 ADD DUP3 DUP3 DUP1 ISZERO PUSH2 0x2123 JUMPI DUP1 PUSH1 0x1F LT PUSH2 0x20F8 JUMPI PUSH2 0x100 DUP1 DUP4 SLOAD DIV MUL DUP4 MSTORE SWAP2 PUSH1 0x20 ADD SWAP2 PUSH2 0x2123 JUMP JUMPDEST DUP3 ADD SWAP2 SWAP1 PUSH1 0x0 MSTORE PUSH1 0x20 PUSH1 0x0 KECCAK256 SWAP1 JUMPDEST DUP2 SLOAD DUP2 MSTORE SWAP1 PUSH1 0x1 ADD SWAP1 PUSH1 0x20 ADD DUP1 DUP4 GT PUSH2 0x2106 JUMPI DUP3 SWAP1 SUB PUSH1 0x1F AND DUP3 ADD SWAP2 JUMPDEST POP POP POP SWAP2 DUP4 MSTORE POP POP PUSH1 0x2 DUP3 ADD SLOAD PUSH1 0xFF DUP1 DUP3 AND ISZERO ISZERO PUSH1 0x20 DUP5 ADD MSTORE PUSH2 0x100 DUP1 DUP4 DIV DUP3 AND ISZERO ISZERO PUSH1 0x40 DUP6 ADD MSTORE PUSH3 0x10000 SWAP1 SWAP3 DIV AND ISZERO ISZERO PUSH1 0x60 DUP4 ADD MSTORE PUSH1 0x3 DUP4 ADD SLOAD PUSH1 0x80 DUP4 ADD MSTORE PUSH1 0x4 DUP4 ADD SLOAD PUSH1 0x1 PUSH1 0x1 PUSH1 0xA0 SHL SUB SWAP1 DUP2 AND PUSH1 0xA0 DUP5 ADD MSTORE PUSH1 0x5 DUP5 ADD SLOAD PUSH1 0xC0 DUP5 ADD MSTORE PUSH1 0x6 DUP5 ADD SLOAD DUP2 AND PUSH1 0xE0 DUP5 ADD MSTORE PUSH1 0x7 DUP5 ADD SLOAD SWAP2 DUP4 ADD SWAP2 SWAP1 SWAP2 MSTORE PUSH1 0x8 DUP4 ADD SLOAD AND PUSH2 0x120 DUP3 ADD MSTORE PUSH1 0x9 SWAP1 SWAP2 ADD SLOAD PUSH2 0x140 SWAP1 SWAP2 ADD MSTORE DUP3 MLOAD DUP4 SWAP1 DUP4 SWAP1 DUP2 LT PUSH2 0x21C2 JUMPI INVALID JUMPDEST PUSH1 0x20 MUL PUSH1 0x20 ADD ADD DUP2 SWAP1 MSTORE POP PUSH2 0x236B JUMP JUMPDEST PUSH1 0x6 DUP2 PUSH1 0x1 DUP7 SUB SUB DUP2 SLOAD DUP2 LT PUSH2 0x21E4 JUMPI INVALID JUMPDEST PUSH1 0x0 SWAP2 DUP3 MSTORE PUSH1 0x20 SWAP2 DUP3 SWAP1 KECCAK256 PUSH1 0x40 DUP1 MLOAD PUSH2 0x180 DUP2 ADD DUP3 MSTORE PUSH1 0xA SWAP1 SWAP4 MUL SWAP1 SWAP2 ADD DUP1 SLOAD PUSH1 0x1 PUSH1 0x1 PUSH1 0xA0 SHL SUB AND DUP4 MSTORE PUSH1 0x1 DUP1 DUP3 ADD DUP1 SLOAD DUP5 MLOAD PUSH1 0x1F PUSH1 0x2 PUSH32 0xFFFFFFFFFFFFFFFFFFFFFFFFFFFFFFFFFFFFFFFFFFFFFFFFFFFFFFFFFFFFFFFF SWAP6 DUP5 AND ISZERO PUSH2 0x100 MUL SWAP6 SWAP1 SWAP6 ADD SWAP1 SWAP3 AND SWAP4 SWAP1 SWAP4 DIV SWAP1 DUP2 ADD DUP8 SWAP1 DIV DUP8 MUL DUP4 ADD DUP8 ADD SWAP1 SWAP5 MSTORE DUP4 DUP3 MSTORE SWAP4 SWAP5 SWAP2 SWAP4 DUP6 DUP4 ADD SWAP4 SWAP2 SWAP3 SWAP1 SWAP2 SWAP1 DUP4 ADD DUP3 DUP3 DUP1 ISZERO PUSH2 0x22C0 JUMPI DUP1 PUSH1 0x1F LT PUSH2 0x2295 JUMPI PUSH2 0x100 DUP1 DUP4 SLOAD DIV MUL DUP4 MSTORE SWAP2 PUSH1 0x20 ADD SWAP2 PUSH2 0x22C0 JUMP JUMPDEST DUP3 ADD SWAP2 SWAP1 PUSH1 0x0 MSTORE PUSH1 0x20 PUSH1 0x0 KECCAK256 SWAP1 JUMPDEST DUP2 SLOAD DUP2 MSTORE SWAP1 PUSH1 0x1 ADD SWAP1 PUSH1 0x20 ADD DUP1 DUP4 GT PUSH2 0x22A3 JUMPI DUP3 SWAP1 SUB PUSH1 0x1F AND DUP3 ADD SWAP2 JUMPDEST POP POP POP SWAP2 DUP4 MSTORE POP POP PUSH1 0x2 DUP3 ADD SLOAD PUSH1 0xFF DUP1 DUP3 AND ISZERO ISZERO PUSH1 0x20 DUP5 ADD MSTORE PUSH2 0x100 DUP1 DUP4 DIV DUP3 AND ISZERO ISZERO PUSH1 0x40 DUP6 ADD MSTORE PUSH3 0x10000 SWAP1 SWAP3 DIV AND ISZERO ISZERO PUSH1 0x60 DUP4 ADD MSTORE PUSH1 0x3 DUP4 ADD SLOAD PUSH1 0x80 DUP4 ADD MSTORE PUSH1 0x4 DUP4 ADD SLOAD PUSH1 0x1 PUSH1 0x1 PUSH1 0xA0 SHL SUB SWAP1 DUP2 AND PUSH1 0xA0 DUP5 ADD MSTORE PUSH1 0x5 DUP5 ADD SLOAD PUSH1 0xC0 DUP5 ADD MSTORE PUSH1 0x6 DUP5 ADD SLOAD DUP2 AND PUSH1 0xE0 DUP5 ADD MSTORE PUSH1 0x7 DUP5 ADD SLOAD SWAP2 DUP4 ADD SWAP2 SWAP1 SWAP2 MSTORE PUSH1 0x8 DUP4 ADD SLOAD AND PUSH2 0x120 DUP3 ADD MSTORE PUSH1 0x9 SWAP1 SWAP2 ADD SLOAD PUSH2 0x140 SWAP1 SWAP2 ADD MSTORE DUP3 MLOAD DUP4 SWAP1 DUP4 SWAP1 DUP2 LT PUSH2 0x235F JUMPI INVALID JUMPDEST PUSH1 0x20 MUL PUSH1 0x20 ADD ADD DUP2 SWAP1 MSTORE POP JUMPDEST PUSH1 0x1 ADD PUSH2 0x202B JUMP JUMPDEST POP SWAP7 SWAP6 POP POP POP POP POP POP JUMP JUMPDEST PUSH1 0x0 PUSH2 0x2389 CALLER PUSH2 0xF12 JUMP JUMPDEST PUSH2 0x23A5 JUMPI PUSH1 0x40 MLOAD PUSH3 0x461BCD PUSH1 0xE5 SHL DUP2 MSTORE PUSH1 0x4 ADD PUSH2 0x71E SWAP1 PUSH2 0x3B14 JUMP JUMPDEST PUSH2 0x23AD PUSH2 0xF0A JUMP JUMPDEST DUP4 GT ISZERO PUSH2 0x23CC JUMPI PUSH1 0x40 MLOAD PUSH3 0x461BCD PUSH1 0xE5 SHL DUP2 MSTORE PUSH1 0x4 ADD PUSH2 0x71E SWAP1 PUSH2 0x3C5E JUMP JUMPDEST PUSH1 0x0 DUP5 DUP2 MSTORE PUSH1 0xA PUSH1 0x20 MSTORE PUSH1 0x40 DUP2 KECCAK256 SLOAD PUSH2 0x23E5 SWAP1 DUP6 PUSH2 0x2E5B JUMP JUMPDEST SWAP1 POP PUSH1 0x60 PUSH4 0xF0BB9406 PUSH1 0xE0 SHL DUP7 DUP7 PUSH1 0x40 MLOAD PUSH1 0x24 ADD PUSH2 0x2404 SWAP3 SWAP2 SWAP1 PUSH2 0x35F7 JUMP JUMPDEST PUSH1 0x40 DUP1 MLOAD PUSH1 0x1F NOT DUP2 DUP5 SUB ADD DUP2 MSTORE SWAP2 SWAP1 MSTORE PUSH1 0x20 DUP2 ADD DUP1 MLOAD PUSH28 0xFFFFFFFFFFFFFFFFFFFFFFFFFFFFFFFFFFFFFFFFFFFFFFFFFFFFFFFF AND PUSH32 0xFFFFFFFF00000000000000000000000000000000000000000000000000000000 SWAP1 SWAP4 AND SWAP3 SWAP1 SWAP3 OR SWAP1 SWAP2 MSTORE SWAP1 POP PUSH1 0x0 PUSH2 0x2473 ADDRESS DUP4 DUP6 DUP9 PUSH2 0x28DF JUMP JUMPDEST SWAP1 POP DUP1 DUP7 DUP9 PUSH32 0xBC72942FA810FE8985041BB36295502EDDF2C163774BE55E25D2059589560728 PUSH1 0x40 MLOAD PUSH1 0x40 MLOAD DUP1 SWAP2 SUB SWAP1 LOG4 SWAP7 SWAP6 POP POP POP POP POP POP JUMP JUMPDEST CALLER PUSH1 0x1 PUSH1 0x1 PUSH1 0xA0 SHL SUB PUSH32 0x0 AND EQ PUSH2 0x24F6 JUMPI PUSH1 0x40 MLOAD PUSH3 0x461BCD PUSH1 0xE5 SHL DUP2 MSTORE PUSH1 0x4 ADD PUSH2 0x71E SWAP1 PUSH2 0x3D71 JUMP JUMPDEST PUSH32 0x0 DUP3 EQ PUSH2 0x2542 JUMPI PUSH2 0x2526 DUP2 PUSH2 0x27E8 JUMP JUMPDEST PUSH2 0x2542 JUMPI PUSH1 0x40 MLOAD PUSH3 0x461BCD PUSH1 0xE5 SHL DUP2 MSTORE PUSH1 0x4 ADD PUSH2 0x71E SWAP1 PUSH2 0x3849 JUMP JUMPDEST PUSH1 0x0 DUP3 DUP2 MSTORE PUSH1 0xA PUSH1 0x20 MSTORE PUSH1 0x40 SWAP1 DUP2 SWAP1 KECCAK256 DUP3 SWAP1 SSTORE MLOAD DUP3 SWAP1 PUSH32 0xE182617F9E5F9CE5F761C791EC15AD52176D97F9706B5C2707FFDA7B6BDF790 SWAP1 PUSH2 0x78F SWAP1 DUP5 SWAP1 PUSH2 0x3F73 JUMP JUMPDEST PUSH1 0x6 SLOAD SWAP1 JUMP JUMPDEST PUSH2 0x2594 CALLER PUSH2 0xF12 JUMP JUMPDEST PUSH2 0x25B0 JUMPI PUSH1 0x40 MLOAD PUSH3 0x461BCD PUSH1 0xE5 SHL DUP2 MSTORE PUSH1 0x4 ADD PUSH2 0x71E SWAP1 PUSH2 0x3B14 JUMP JUMPDEST PUSH2 0x19AB DUP3 DUP3 PUSH2 0x2C37 JUMP JUMPDEST PUSH1 0x6 SLOAD PUSH1 0x60 SWAP1 DUP3 LT PUSH2 0x25DE JUMPI PUSH1 0x40 MLOAD PUSH3 0x461BCD PUSH1 0xE5 SHL DUP2 MSTORE PUSH1 0x4 ADD PUSH2 0x71E SWAP1 PUSH2 0x36A2 JUMP JUMPDEST PUSH1 0x0 PUSH1 0x6 DUP4 DUP2 SLOAD DUP2 LT PUSH2 0x25ED JUMPI INVALID JUMPDEST PUSH1 0x0 SWAP2 DUP3 MSTORE PUSH1 0x20 SWAP1 SWAP2 KECCAK256 PUSH1 0xA SWAP1 SWAP2 MUL ADD PUSH1 0x2 DUP2 ADD SLOAD SWAP1 SWAP2 POP PUSH1 0xFF AND ISZERO PUSH2 0x2625 JUMPI PUSH1 0x40 MLOAD PUSH3 0x461BCD PUSH1 0xE5 SHL DUP2 MSTORE PUSH1 0x4 ADD PUSH2 0x71E SWAP1 PUSH2 0x3D3A JUMP JUMPDEST PUSH1 0x2 DUP2 ADD SLOAD PUSH2 0x100 SWAP1 DIV PUSH1 0xFF AND ISZERO PUSH2 0x264F JUMPI PUSH1 0x40 MLOAD PUSH3 0x461BCD PUSH1 0xE5 SHL DUP2 MSTORE PUSH1 0x4 ADD PUSH2 0x71E SWAP1 PUSH2 0x3993 JUMP JUMPDEST DUP1 PUSH1 0x3 ADD SLOAD TIMESTAMP LT ISZERO PUSH2 0x2673 JUMPI PUSH1 0x40 MLOAD PUSH3 0x461BCD PUSH1 0xE5 SHL DUP2 MSTORE PUSH1 0x4 ADD PUSH2 0x71E SWAP1 PUSH2 0x3B82 JUMP JUMPDEST PUSH1 0x2 DUP2 ADD SLOAD PUSH3 0x10000 SWAP1 DIV PUSH1 0xFF AND ISZERO PUSH2 0x26AC JUMPI PUSH2 0x2690 DUP4 CALLER PUSH2 0x695 JUMP JUMPDEST PUSH2 0x26AC JUMPI PUSH1 0x40 MLOAD PUSH3 0x461BCD PUSH1 0xE5 SHL DUP2 MSTORE PUSH1 0x4 ADD PUSH2 0x71E SWAP1 PUSH2 0x3812 JUMP JUMPDEST PUSH1 0x2 DUP2 ADD DUP1 SLOAD PUSH1 0xFF NOT AND PUSH1 0x1 SWAP1 DUP2 OR SWAP1 SWAP2 SSTORE PUSH1 0x6 DUP3 ADD DUP1 SLOAD PUSH32 0xFFFFFFFFFFFFFFFFFFFFFFFF0000000000000000000000000000000000000000 AND CALLER OR SWAP1 SSTORE TIMESTAMP PUSH1 0x7 DUP4 ADD SSTORE DUP2 SLOAD PUSH1 0x40 MLOAD PUSH32 0x1CFF79CD00000000000000000000000000000000000000000000000000000000 DUP2 MSTORE PUSH32 0x0 PUSH1 0x1 PUSH1 0x1 PUSH1 0xA0 SHL SUB SWAP1 DUP2 AND SWAP4 PUSH4 0x1CFF79CD SWAP4 PUSH2 0x275E SWAP4 SWAP3 AND SWAP2 SWAP1 DUP7 ADD SWAP1 PUSH1 0x4 ADD PUSH2 0x34B4 JUMP JUMPDEST PUSH1 0x0 PUSH1 0x40 MLOAD DUP1 DUP4 SUB DUP2 PUSH1 0x0 DUP8 DUP1 EXTCODESIZE ISZERO DUP1 ISZERO PUSH2 0x2778 JUMPI PUSH1 0x0 DUP1 REVERT JUMPDEST POP GAS CALL ISZERO DUP1 ISZERO PUSH2 0x278C JUMPI RETURNDATASIZE PUSH1 0x0 DUP1 RETURNDATACOPY RETURNDATASIZE PUSH1 0x0 REVERT JUMPDEST POP POP POP POP PUSH1 0x40 MLOAD RETURNDATASIZE PUSH1 0x0 DUP3 RETURNDATACOPY PUSH1 0x1F RETURNDATASIZE SWAP1 DUP2 ADD PUSH1 0x1F NOT AND DUP3 ADD PUSH1 0x40 MSTORE PUSH2 0x27B4 SWAP2 SWAP1 DUP2 ADD SWAP1 PUSH2 0x32DF JUMP JUMPDEST PUSH1 0x40 MLOAD SWAP1 SWAP3 POP DUP4 SWAP1 PUSH32 0x4FA5548C15E2D4A0B806EEE962935ACEA143D79644D2340AF39F4EDF13B335A9 SWAP1 PUSH1 0x0 SWAP1 LOG2 POP SWAP2 SWAP1 POP JUMP JUMPDEST PUSH32 0x0 PUSH1 0x0 SWAP1 DUP2 MSTORE PUSH1 0xA PUSH1 0x20 MSTORE PUSH1 0x40 SWAP1 KECCAK256 SLOAD LT ISZERO SWAP1 JUMP JUMPDEST PUSH1 0x0 DUP1 SLOAD PUSH32 0xFFFFFFFFFFFFFFFFFFFFFFFF0000000000000000000000000000000000000000 AND PUSH1 0x1 PUSH1 0x1 PUSH1 0xA0 SHL SUB DUP4 AND SWAP1 DUP2 OR DUP3 SSTORE PUSH1 0x40 MLOAD SWAP1 SWAP2 PUSH32 0x39510B933A9D010F906528D6019D3F4E2450A10DC33B10887503B31ED82F1111 SWAP2 LOG2 POP JUMP JUMPDEST PUSH1 0x1 DUP1 SLOAD PUSH32 0xFFFFFFFFFFFFFFFFFFFFFFFF0000000000000000000000000000000000000000 AND PUSH1 0x1 PUSH1 0x1 PUSH1 0xA0 SHL SUB DUP4 AND SWAP1 DUP2 OR SWAP1 SWAP2 SSTORE PUSH1 0x40 MLOAD PUSH32 0x566FE119FF450AFC2580186C62762B6C1258245C8B1B6BB095E7276EB5A75B55 SWAP1 PUSH1 0x0 SWAP1 LOG2 POP JUMP JUMPDEST PUSH1 0x6 DUP1 SLOAD DUP3 MLOAD PUSH1 0x40 DUP1 MLOAD PUSH2 0x180 DUP2 ADD DUP3 MSTORE PUSH1 0x1 PUSH1 0x1 PUSH1 0xA0 SHL SUB DUP10 DUP2 AND DUP3 MSTORE PUSH1 0x20 DUP1 DUP4 ADD DUP11 DUP2 MSTORE PUSH1 0x0 SWAP5 DUP5 ADD DUP6 SWAP1 MSTORE PUSH1 0x60 DUP5 ADD DUP6 SWAP1 MSTORE SWAP5 ISZERO ISZERO PUSH1 0x80 DUP5 ADD DUP2 SWAP1 MSTORE TIMESTAMP DUP11 DUP2 ADD PUSH1 0xA0 DUP7 ADD DUP2 SWAP1 MSTORE CALLER PUSH1 0xC0 DUP8 ADD MSTORE PUSH1 0xE0 DUP7 ADD SWAP2 SWAP1 SWAP2 MSTORE PUSH2 0x100 DUP6 ADD DUP7 SWAP1 MSTORE PUSH2 0x120 DUP6 ADD DUP7 SWAP1 MSTORE PUSH2 0x140 DUP6 ADD DUP7 SWAP1 MSTORE PUSH2 0x160 DUP6 ADD DUP7 SWAP1 MSTORE PUSH1 0x1 DUP9 ADD DUP10 SSTORE SWAP8 SWAP1 SWAP5 MSTORE DUP3 MLOAD PUSH32 0xF652222313E28459528D920B65115C16C04F3EFC82AAEDC97BE59F3F377C0D3F PUSH1 0xA DUP9 MUL SWAP1 DUP2 ADD DUP1 SLOAD PUSH32 0xFFFFFFFFFFFFFFFFFFFFFFFF0000000000000000000000000000000000000000 AND SWAP3 SWAP1 SWAP5 AND SWAP2 SWAP1 SWAP2 OR DUP4 SSTORE SWAP5 MLOAD DUP1 MLOAD SWAP7 SWAP8 SWAP7 SWAP5 SWAP6 SWAP4 SWAP5 SWAP3 SWAP4 PUSH2 0x29F9 SWAP4 PUSH32 0xF652222313E28459528D920B65115C16C04F3EFC82AAEDC97BE59F3F377C0D40 SWAP1 SWAP2 ADD SWAP3 SWAP2 SWAP1 SWAP2 ADD SWAP1 PUSH2 0x2F01 JUMP JUMPDEST POP PUSH1 0x40 DUP3 ADD MLOAD PUSH1 0x2 DUP3 ADD DUP1 SLOAD PUSH1 0x60 DUP6 ADD MLOAD PUSH1 0x80 DUP7 ADD MLOAD PUSH1 0xFF NOT SWAP1 SWAP3 AND SWAP4 ISZERO ISZERO SWAP4 SWAP1 SWAP4 OR PUSH32 0xFFFFFFFFFFFFFFFFFFFFFFFFFFFFFFFFFFFFFFFFFFFFFFFFFFFFFFFFFFFF00FF AND PUSH2 0x100 SWAP4 ISZERO ISZERO DUP5 MUL OR PUSH32 0xFFFFFFFFFFFFFFFFFFFFFFFFFFFFFFFFFFFFFFFFFFFFFFFFFFFFFFFFFF00FFFF AND PUSH3 0x10000 SWAP2 ISZERO ISZERO SWAP2 SWAP1 SWAP2 MUL OR SWAP1 SSTORE PUSH1 0xA0 DUP4 ADD MLOAD PUSH1 0x3 DUP4 ADD SSTORE PUSH1 0xC0 DUP4 ADD MLOAD PUSH1 0x4 DUP4 ADD DUP1 SLOAD PUSH32 0xFFFFFFFFFFFFFFFFFFFFFFFF0000000000000000000000000000000000000000 SWAP1 DUP2 AND PUSH1 0x1 PUSH1 0x1 PUSH1 0xA0 SHL SUB SWAP4 DUP5 AND OR SWAP1 SWAP2 SSTORE PUSH1 0xE0 DUP6 ADD MLOAD PUSH1 0x5 DUP6 ADD SSTORE SWAP2 DUP5 ADD MLOAD PUSH1 0x6 DUP5 ADD DUP1 SLOAD DUP5 AND SWAP2 DUP4 AND SWAP2 SWAP1 SWAP2 OR SWAP1 SSTORE PUSH2 0x120 DUP5 ADD MLOAD PUSH1 0x7 DUP5 ADD SSTORE PUSH2 0x140 DUP5 ADD MLOAD PUSH1 0x8 DUP5 ADD DUP1 SLOAD SWAP1 SWAP4 AND SWAP2 AND OR SWAP1 SSTORE PUSH2 0x160 SWAP1 SWAP2 ADD MLOAD PUSH1 0x9 SWAP1 SWAP2 ADD SSTORE PUSH1 0x0 JUMPDEST DUP5 MLOAD DUP2 LT ISZERO PUSH2 0x2C2C JUMPI PUSH1 0x2 PUSH1 0x0 DUP6 DUP2 MSTORE PUSH1 0x20 ADD SWAP1 DUP2 MSTORE PUSH1 0x20 ADD PUSH1 0x0 KECCAK256 PUSH1 0x0 DUP7 DUP4 DUP2 MLOAD DUP2 LT PUSH2 0x2B37 JUMPI INVALID JUMPDEST PUSH1 0x20 SWAP1 DUP2 MUL SWAP2 SWAP1 SWAP2 ADD DUP2 ADD MLOAD PUSH1 0x1 PUSH1 0x1 PUSH1 0xA0 SHL SUB AND DUP3 MSTORE DUP2 ADD SWAP2 SWAP1 SWAP2 MSTORE PUSH1 0x40 ADD PUSH1 0x0 KECCAK256 SLOAD PUSH1 0xFF AND ISZERO PUSH2 0x2B7B JUMPI PUSH1 0x40 MLOAD PUSH3 0x461BCD PUSH1 0xE5 SHL DUP2 MSTORE PUSH1 0x4 ADD PUSH2 0x71E SWAP1 PUSH2 0x38EE JUMP JUMPDEST PUSH1 0x0 DUP5 DUP2 MSTORE PUSH1 0x2 PUSH1 0x20 MSTORE PUSH1 0x40 DUP2 KECCAK256 DUP7 MLOAD PUSH1 0x1 SWAP3 SWAP1 DUP9 SWAP1 DUP6 SWAP1 DUP2 LT PUSH2 0x2B9B JUMPI INVALID JUMPDEST PUSH1 0x20 MUL PUSH1 0x20 ADD ADD MLOAD PUSH1 0x1 PUSH1 0x1 PUSH1 0xA0 SHL SUB AND PUSH1 0x1 PUSH1 0x1 PUSH1 0xA0 SHL SUB AND DUP2 MSTORE PUSH1 0x20 ADD SWAP1 DUP2 MSTORE PUSH1 0x20 ADD PUSH1 0x0 KECCAK256 PUSH1 0x0 PUSH2 0x100 EXP DUP2 SLOAD DUP2 PUSH1 0xFF MUL NOT AND SWAP1 DUP4 ISZERO ISZERO MUL OR SWAP1 SSTORE POP DUP5 DUP2 DUP2 MLOAD DUP2 LT PUSH2 0x2BE6 JUMPI INVALID JUMPDEST PUSH1 0x20 MUL PUSH1 0x20 ADD ADD MLOAD PUSH1 0x1 PUSH1 0x1 PUSH1 0xA0 SHL SUB AND DUP5 PUSH32 0x2D0AA562DA96CA6DD124FEE5588E6F8545B0AA0B15CFD87CC231EFF1AE7000E4 PUSH1 0x40 MLOAD PUSH1 0x40 MLOAD DUP1 SWAP2 SUB SWAP1 LOG3 PUSH1 0x1 ADD PUSH2 0x2B0D JUMP JUMPDEST POP POP POP SWAP5 SWAP4 POP POP POP POP JUMP JUMPDEST PUSH2 0x2C41 DUP3 DUP3 PUSH2 0xD51 JUMP JUMPDEST ISZERO PUSH2 0x2C5E JUMPI PUSH1 0x40 MLOAD PUSH3 0x461BCD PUSH1 0xE5 SHL DUP2 MSTORE PUSH1 0x4 ADD PUSH2 0x71E SWAP1 PUSH2 0x3E84 JUMP JUMPDEST PUSH2 0x2C66 PUSH2 0x11B8 JUMP JUMPDEST DUP3 EQ PUSH2 0x2CEC JUMPI PUSH1 0x6 SLOAD DUP3 LT PUSH2 0x2C8D JUMPI PUSH1 0x40 MLOAD PUSH3 0x461BCD PUSH1 0xE5 SHL DUP2 MSTORE PUSH1 0x4 ADD PUSH2 0x71E SWAP1 PUSH2 0x36A2 JUMP JUMPDEST PUSH1 0x0 PUSH1 0x6 DUP4 DUP2 SLOAD DUP2 LT PUSH2 0x2C9C JUMPI INVALID JUMPDEST PUSH1 0x0 SWAP2 DUP3 MSTORE PUSH1 0x20 SWAP1 SWAP2 KECCAK256 PUSH1 0xA SWAP1 SWAP2 MUL ADD PUSH1 0x2 DUP2 ADD SLOAD SWAP1 SWAP2 POP PUSH1 0xFF AND ISZERO DUP1 ISZERO PUSH2 0x2CCE JUMPI POP PUSH1 0x2 DUP2 ADD SLOAD PUSH2 0x100 SWAP1 DIV PUSH1 0xFF AND ISZERO JUMPDEST PUSH2 0x2CEA JUMPI PUSH1 0x40 MLOAD PUSH3 0x461BCD PUSH1 0xE5 SHL DUP2 MSTORE PUSH1 0x4 ADD PUSH2 0x71E SWAP1 PUSH2 0x39CA JUMP JUMPDEST POP JUMPDEST PUSH1 0x0 DUP3 DUP2 MSTORE PUSH1 0x5 PUSH1 0x20 SWAP1 DUP2 MSTORE PUSH1 0x40 DUP1 DUP4 KECCAK256 PUSH1 0x1 PUSH1 0x1 PUSH1 0xA0 SHL SUB DUP6 AND DUP1 DUP6 MSTORE SWAP3 MSTORE DUP1 DUP4 KECCAK256 DUP1 SLOAD PUSH1 0xFF NOT AND PUSH1 0x1 OR SWAP1 SSTORE MLOAD SWAP1 SWAP2 DUP5 SWAP2 PUSH32 0x1B55562F9A67454174F758170ABA47751C0AF4C1F3B7D4E0B70667F1E8206606 SWAP2 SWAP1 LOG3 POP POP JUMP JUMPDEST PUSH2 0x2D52 DUP4 DUP4 DUP4 PUSH2 0x1EF2 JUMP JUMPDEST PUSH2 0x2D6E JUMPI PUSH1 0x40 MLOAD PUSH3 0x461BCD PUSH1 0xE5 SHL DUP2 MSTORE PUSH1 0x4 ADD PUSH2 0x71E SWAP1 PUSH2 0x38B7 JUMP JUMPDEST PUSH1 0x0 DUP4 DUP2 MSTORE PUSH1 0x9 PUSH1 0x20 SWAP1 DUP2 MSTORE PUSH1 0x40 DUP1 DUP4 KECCAK256 PUSH1 0x1 PUSH1 0x1 PUSH1 0xA0 SHL SUB DUP7 AND DUP5 MSTORE SWAP1 SWAP2 MSTORE DUP2 KECCAK256 SWAP1 PUSH2 0x2D99 PUSH2 0x11B8 JUMP JUMPDEST PUSH1 0x1 PUSH1 0x1 PUSH1 0xA0 SHL SUB AND DUP2 MSTORE PUSH1 0x20 DUP2 ADD SWAP2 SWAP1 SWAP2 MSTORE PUSH1 0x40 ADD PUSH1 0x0 KECCAK256 SLOAD PUSH1 0xFF AND ISZERO PUSH2 0x2DF3 JUMPI PUSH2 0x2DC3 PUSH2 0x11B8 JUMP JUMPDEST PUSH1 0x1 PUSH1 0x1 PUSH1 0xA0 SHL SUB AND DUP2 PUSH1 0x1 PUSH1 0x1 PUSH1 0xA0 SHL SUB AND EQ PUSH2 0x2DF3 JUMPI PUSH1 0x40 MLOAD PUSH3 0x461BCD PUSH1 0xE5 SHL DUP2 MSTORE PUSH1 0x4 ADD PUSH2 0x71E SWAP1 PUSH2 0x3C27 JUMP JUMPDEST PUSH1 0x0 DUP4 DUP2 MSTORE PUSH1 0x9 PUSH1 0x20 SWAP1 DUP2 MSTORE PUSH1 0x40 DUP1 DUP4 KECCAK256 PUSH1 0x1 PUSH1 0x1 PUSH1 0xA0 SHL SUB DUP1 DUP8 AND DUP1 DUP7 MSTORE SWAP2 DUP5 MSTORE DUP3 DUP6 KECCAK256 SWAP1 DUP7 AND DUP1 DUP7 MSTORE SWAP4 MSTORE DUP2 DUP5 KECCAK256 DUP1 SLOAD PUSH1 0xFF NOT AND SWAP1 SSTORE SWAP1 MLOAD SWAP2 SWAP3 SWAP1 SWAP2 DUP7 SWAP2 PUSH32 0x7B42E026D3B17CF41399915C285780D0F724B3464B269297AFF73C0DE0FE417F SWAP2 LOG4 POP POP POP JUMP JUMPDEST PUSH1 0x0 DUP3 DUP3 LT PUSH2 0x2E71 JUMPI PUSH2 0x2E6C PUSH2 0x1C6E JUMP JUMPDEST PUSH2 0xA8C JUMP JUMPDEST PUSH2 0xA8C DUP3 DUP5 SUB PUSH2 0x2E7F PUSH2 0x1C6E JUMP JUMPDEST PUSH2 0x2E90 JUMP JUMPDEST DUP1 DUP3 SUB SWAP1 DUP3 GT MUL SWAP1 SUB SWAP1 JUMP JUMPDEST DUP1 DUP3 SUB SWAP1 DUP3 LT MUL SWAP1 SUB SWAP1 JUMP JUMPDEST PUSH1 0x40 DUP1 MLOAD PUSH2 0x180 DUP2 ADD DUP3 MSTORE PUSH1 0x0 DUP1 DUP3 MSTORE PUSH1 0x60 PUSH1 0x20 DUP4 ADD DUP2 SWAP1 MSTORE SWAP3 DUP3 ADD DUP2 SWAP1 MSTORE SWAP2 DUP2 ADD DUP3 SWAP1 MSTORE PUSH1 0x80 DUP2 ADD DUP3 SWAP1 MSTORE PUSH1 0xA0 DUP2 ADD DUP3 SWAP1 MSTORE PUSH1 0xC0 DUP2 ADD DUP3 SWAP1 MSTORE PUSH1 0xE0 DUP2 ADD DUP3 SWAP1 MSTORE PUSH2 0x100 DUP2 ADD DUP3 SWAP1 MSTORE PUSH2 0x120 DUP2 ADD DUP3 SWAP1 MSTORE PUSH2 0x140 DUP2 ADD DUP3 SWAP1 MSTORE PUSH2 0x160 DUP2 ADD SWAP2 SWAP1 SWAP2 MSTORE SWAP1 JUMP JUMPDEST DUP3 DUP1 SLOAD PUSH1 0x1 DUP2 PUSH1 0x1 AND ISZERO PUSH2 0x100 MUL SUB AND PUSH1 0x2 SWAP1 DIV SWAP1 PUSH1 0x0 MSTORE PUSH1 0x20 PUSH1 0x0 KECCAK256 SWAP1 PUSH1 0x1F ADD PUSH1 0x20 SWAP1 DIV DUP2 ADD SWAP3 DUP3 PUSH1 0x1F LT PUSH2 0x2F42 JUMPI DUP1 MLOAD PUSH1 0xFF NOT AND DUP4 DUP1 ADD OR DUP6 SSTORE PUSH2 0x2F6F JUMP JUMPDEST DUP3 DUP1 ADD PUSH1 0x1 ADD DUP6 SSTORE DUP3 ISZERO PUSH2 0x2F6F JUMPI SWAP2 DUP3 ADD JUMPDEST DUP3 DUP2 GT ISZERO PUSH2 0x2F6F JUMPI DUP3 MLOAD DUP3 SSTORE SWAP2 PUSH1 0x20 ADD SWAP2 SWAP1 PUSH1 0x1 ADD SWAP1 PUSH2 0x2F54 JUMP JUMPDEST POP PUSH2 0x2F7B SWAP3 SWAP2 POP PUSH2 0x2F7F JUMP JUMPDEST POP SWAP1 JUMP JUMPDEST JUMPDEST DUP1 DUP3 GT ISZERO PUSH2 0x2F7B JUMPI PUSH1 0x0 DUP2 SSTORE PUSH1 0x1 ADD PUSH2 0x2F80 JUMP JUMPDEST DUP1 CALLDATALOAD PUSH1 0x1 PUSH1 0x1 PUSH1 0xA0 SHL SUB DUP2 AND DUP2 EQ PUSH2 0x6BC JUMPI PUSH1 0x0 DUP1 REVERT JUMPDEST PUSH1 0x0 DUP3 PUSH1 0x1F DUP4 ADD SLT PUSH2 0x2FBB JUMPI DUP1 DUP2 REVERT JUMPDEST DUP2 CALLDATALOAD PUSH8 0xFFFFFFFFFFFFFFFF DUP2 GT ISZERO PUSH2 0x2FD1 JUMPI DUP2 DUP3 REVERT JUMPDEST PUSH1 0x20 DUP1 DUP3 MUL PUSH2 0x2FE1 DUP3 DUP3 ADD PUSH2 0x3F7C JUMP JUMPDEST DUP4 DUP2 MSTORE SWAP4 POP DUP2 DUP5 ADD DUP6 DUP4 ADD DUP3 DUP8 ADD DUP5 ADD DUP9 LT ISZERO PUSH2 0x2FFD JUMPI PUSH1 0x0 DUP1 REVERT JUMPDEST PUSH1 0x0 SWAP3 POP JUMPDEST DUP5 DUP4 LT ISZERO PUSH2 0x3028 JUMPI PUSH2 0x3014 DUP9 DUP3 PUSH2 0x2F94 JUMP JUMPDEST DUP3 MSTORE PUSH1 0x1 SWAP3 SWAP1 SWAP3 ADD SWAP2 SWAP1 DUP4 ADD SWAP1 DUP4 ADD PUSH2 0x3002 JUMP JUMPDEST POP POP POP POP POP SWAP3 SWAP2 POP POP JUMP JUMPDEST PUSH1 0x0 PUSH1 0x20 DUP3 DUP5 SUB SLT ISZERO PUSH2 0x3044 JUMPI DUP1 DUP2 REVERT JUMPDEST PUSH2 0xA8C DUP4 DUP4 PUSH2 0x2F94 JUMP JUMPDEST PUSH1 0x0 DUP1 PUSH1 0x40 DUP4 DUP6 SUB SLT ISZERO PUSH2 0x3060 JUMPI DUP1 DUP2 REVERT JUMPDEST PUSH2 0x306A DUP5 DUP5 PUSH2 0x2F94 JUMP JUMPDEST SWAP2 POP PUSH2 0x3079 DUP5 PUSH1 0x20 DUP6 ADD PUSH2 0x2F94 JUMP JUMPDEST SWAP1 POP SWAP3 POP SWAP3 SWAP1 POP JUMP JUMPDEST PUSH1 0x0 DUP1 PUSH1 0x40 DUP4 DUP6 SUB SLT ISZERO PUSH2 0x3094 JUMPI DUP2 DUP3 REVERT JUMPDEST PUSH2 0x309E DUP5 DUP5 PUSH2 0x2F94 JUMP JUMPDEST SWAP2 POP PUSH1 0x20 DUP4 ADD CALLDATALOAD PUSH8 0xFFFFFFFFFFFFFFFF DUP2 GT ISZERO PUSH2 0x30B9 JUMPI DUP2 DUP3 REVERT JUMPDEST PUSH2 0x30C5 DUP6 DUP3 DUP7 ADD PUSH2 0x2FAB JUMP JUMPDEST SWAP2 POP POP SWAP3 POP SWAP3 SWAP1 POP JUMP JUMPDEST PUSH1 0x0 DUP1 PUSH1 0x0 PUSH1 0x60 DUP5 DUP7 SUB SLT ISZERO PUSH2 0x30E3 JUMPI DUP1 DUP2 REVERT JUMPDEST PUSH2 0x30ED DUP6 DUP6 PUSH2 0x2F94 JUMP JUMPDEST SWAP3 POP PUSH1 0x20 DUP5 ADD CALLDATALOAD PUSH8 0xFFFFFFFFFFFFFFFF DUP1 DUP3 GT ISZERO PUSH2 0x3109 JUMPI DUP3 DUP4 REVERT JUMPDEST DUP2 DUP7 ADD SWAP2 POP DUP7 PUSH1 0x1F DUP4 ADD SLT PUSH2 0x311C JUMPI DUP3 DUP4 REVERT JUMPDEST DUP2 CALLDATALOAD PUSH2 0x312F PUSH2 0x312A DUP3 PUSH2 0x3FA3 JUMP JUMPDEST PUSH2 0x3F7C JUMP JUMPDEST DUP2 DUP2 MSTORE DUP9 PUSH1 0x20 DUP4 DUP7 ADD ADD GT ISZERO PUSH2 0x3143 JUMPI DUP5 DUP6 REVERT JUMPDEST DUP2 PUSH1 0x20 DUP6 ADD PUSH1 0x20 DUP4 ADD CALLDATACOPY SWAP1 DUP2 ADD PUSH1 0x20 ADD DUP5 SWAP1 MSTORE SWAP4 POP PUSH1 0x40 DUP7 ADD CALLDATALOAD SWAP2 POP DUP1 DUP3 GT ISZERO PUSH2 0x316B JUMPI DUP3 DUP4 REVERT JUMPDEST POP PUSH2 0x3178 DUP7 DUP3 DUP8 ADD PUSH2 0x2FAB JUMP JUMPDEST SWAP2 POP POP SWAP3 POP SWAP3 POP SWAP3 JUMP JUMPDEST PUSH1 0x0 PUSH1 0x20 DUP3 DUP5 SUB SLT ISZERO PUSH2 0x3193 JUMPI DUP1 DUP2 REVERT JUMPDEST POP CALLDATALOAD SWAP2 SWAP1 POP JUMP JUMPDEST PUSH1 0x0 PUSH1 0x20 DUP3 DUP5 SUB SLT ISZERO PUSH2 0x31AB JUMPI DUP1 DUP2 REVERT JUMPDEST POP MLOAD SWAP2 SWAP1 POP JUMP JUMPDEST PUSH1 0x0 DUP1 PUSH1 0x40 DUP4 DUP6 SUB SLT ISZERO PUSH2 0x31C4 JUMPI DUP2 DUP3 REVERT JUMPDEST DUP3 CALLDATALOAD SWAP2 POP PUSH2 0x3079 DUP5 PUSH1 0x20 DUP6 ADD PUSH2 0x2F94 JUMP JUMPDEST PUSH1 0x0 DUP1 PUSH1 0x0 PUSH1 0x60 DUP5 DUP7 SUB SLT ISZERO PUSH2 0x31E9 JUMPI DUP3 DUP4 REVERT JUMPDEST DUP4 CALLDATALOAD SWAP3 POP PUSH2 0x31FA DUP6 PUSH1 0x20 DUP7 ADD PUSH2 0x2F94 JUMP JUMPDEST SWAP2 POP PUSH2 0x3209 DUP6 PUSH1 0x40 DUP7 ADD PUSH2 0x2F94 JUMP JUMPDEST SWAP1 POP SWAP3 POP SWAP3 POP SWAP3 JUMP JUMPDEST PUSH1 0x0 DUP1 PUSH1 0x0 DUP1 PUSH1 0x80 DUP6 DUP8 SUB SLT ISZERO PUSH2 0x3227 JUMPI DUP1 DUP2 REVERT JUMPDEST DUP5 CALLDATALOAD SWAP4 POP PUSH2 0x3238 DUP7 PUSH1 0x20 DUP8 ADD PUSH2 0x2F94 JUMP JUMPDEST SWAP3 POP PUSH2 0x3247 DUP7 PUSH1 0x40 DUP8 ADD PUSH2 0x2F94 JUMP JUMPDEST SWAP2 POP PUSH1 0x60 DUP6 ADD CALLDATALOAD PUSH8 0xFFFFFFFFFFFFFFFF DUP2 GT ISZERO PUSH2 0x3262 JUMPI DUP2 DUP3 REVERT JUMPDEST PUSH2 0x326E DUP8 DUP3 DUP9 ADD PUSH2 0x2FAB JUMP JUMPDEST SWAP2 POP POP SWAP3 SWAP6 SWAP2 SWAP5 POP SWAP3 POP JUMP JUMPDEST PUSH1 0x0 DUP1 PUSH1 0x40 DUP4 DUP6 SUB SLT ISZERO PUSH2 0x328C JUMPI DUP2 DUP3 REVERT JUMPDEST POP POP DUP1 CALLDATALOAD SWAP3 PUSH1 0x20 SWAP1 SWAP2 ADD CALLDATALOAD SWAP2 POP JUMP JUMPDEST PUSH1 0x0 DUP1 PUSH1 0x0 PUSH1 0x60 DUP5 DUP7 SUB SLT ISZERO PUSH2 0x32AF JUMPI DUP3 DUP4 REVERT JUMPDEST DUP4 CALLDATALOAD SWAP3 POP PUSH1 0x20 DUP5 ADD CALLDATALOAD SWAP2 POP PUSH1 0x40 DUP5 ADD CALLDATALOAD PUSH8 0xFFFFFFFFFFFFFFFF DUP2 GT ISZERO PUSH2 0x32D3 JUMPI DUP2 DUP3 REVERT JUMPDEST PUSH2 0x3178 DUP7 DUP3 DUP8 ADD PUSH2 0x2FAB JUMP JUMPDEST PUSH1 0x0 PUSH1 0x20 DUP3 DUP5 SUB SLT ISZERO PUSH2 0x32F0 JUMPI DUP1 DUP2 REVERT JUMPDEST DUP2 MLOAD PUSH8 0xFFFFFFFFFFFFFFFF DUP2 GT ISZERO PUSH2 0x3306 JUMPI DUP2 DUP3 REVERT JUMPDEST DUP3 ADD PUSH1 0x1F DUP2 ADD DUP5 SGT PUSH2 0x3316 JUMPI DUP2 DUP3 REVERT JUMPDEST DUP1 MLOAD PUSH2 0x3324 PUSH2 0x312A DUP3 PUSH2 0x3FA3 JUMP JUMPDEST DUP2 DUP2 MSTORE DUP6 PUSH1 0x20 DUP4 DUP6 ADD ADD GT ISZERO PUSH2 0x3338 JUMPI DUP4 DUP5 REVERT JUMPDEST PUSH2 0x3349 DUP3 PUSH1 0x20 DUP4 ADD PUSH1 0x20 DUP7 ADD PUSH2 0x3FD3 JUMP JUMPDEST SWAP6 SWAP5 POP POP POP POP POP JUMP JUMPDEST PUSH1 0x0 DUP1 PUSH1 0x0 PUSH1 0x60 DUP5 DUP7 SUB SLT ISZERO PUSH2 0x3366 JUMPI DUP1 DUP2 REVERT JUMPDEST DUP4 CALLDATALOAD SWAP3 POP PUSH1 0x20 DUP5 ADD CALLDATALOAD SWAP2 POP PUSH1 0x40 DUP5 ADD CALLDATALOAD DUP1 ISZERO ISZERO DUP2 EQ PUSH2 0x3383 JUMPI DUP2 DUP3 REVERT JUMPDEST DUP1 SWAP2 POP POP SWAP3 POP SWAP3 POP SWAP3 JUMP JUMPDEST PUSH1 0x1 PUSH1 0x1 PUSH1 0xA0 SHL SUB AND SWAP1 MSTORE JUMP JUMPDEST ISZERO ISZERO SWAP1 MSTORE JUMP JUMPDEST PUSH1 0x0 DUP2 MLOAD DUP1 DUP5 MSTORE PUSH2 0x33B9 DUP2 PUSH1 0x20 DUP7 ADD PUSH1 0x20 DUP7 ADD PUSH2 0x3FD3 JUMP JUMPDEST PUSH1 0x1F ADD PUSH1 0x1F NOT AND SWAP3 SWAP1 SWAP3 ADD PUSH1 0x20 ADD SWAP3 SWAP2 POP POP JUMP JUMPDEST PUSH1 0x0 PUSH2 0x180 PUSH2 0x33DD DUP5 DUP5 MLOAD PUSH2 0x338E JUMP JUMPDEST PUSH1 0x20 DUP4 ADD MLOAD DUP2 PUSH1 0x20 DUP7 ADD MSTORE PUSH2 0x33F4 DUP3 DUP7 ADD DUP3 PUSH2 0x33A1 JUMP JUMPDEST SWAP2 POP POP PUSH1 0x40 DUP4 ADD MLOAD PUSH2 0x3409 PUSH1 0x40 DUP7 ADD DUP3 PUSH2 0x339B JUMP JUMPDEST POP PUSH1 0x60 DUP4 ADD MLOAD PUSH2 0x341C PUSH1 0x60 DUP7 ADD DUP3 PUSH2 0x339B JUMP JUMPDEST POP PUSH1 0x80 DUP4 ADD MLOAD PUSH2 0x342F PUSH1 0x80 DUP7 ADD DUP3 PUSH2 0x339B JUMP JUMPDEST POP PUSH1 0xA0 DUP4 ADD MLOAD PUSH1 0xA0 DUP6 ADD MSTORE PUSH1 0xC0 DUP4 ADD MLOAD PUSH2 0x344C PUSH1 0xC0 DUP7 ADD DUP3 PUSH2 0x338E JUMP JUMPDEST POP PUSH1 0xE0 DUP4 ADD MLOAD PUSH1 0xE0 DUP6 ADD MSTORE PUSH2 0x100 DUP1 DUP5 ADD MLOAD PUSH2 0x346A DUP3 DUP8 ADD DUP3 PUSH2 0x338E JUMP JUMPDEST POP POP PUSH2 0x120 DUP4 DUP2 ADD MLOAD SWAP1 DUP6 ADD MSTORE PUSH2 0x140 DUP1 DUP5 ADD MLOAD PUSH2 0x348A DUP3 DUP8 ADD DUP3 PUSH2 0x338E JUMP JUMPDEST POP POP PUSH2 0x160 SWAP3 DUP4 ADD MLOAD SWAP4 SWAP1 SWAP3 ADD SWAP3 SWAP1 SWAP3 MSTORE SWAP2 SWAP1 POP JUMP JUMPDEST PUSH1 0x1 PUSH1 0x1 PUSH1 0xA0 SHL SUB SWAP2 SWAP1 SWAP2 AND DUP2 MSTORE PUSH1 0x20 ADD SWAP1 JUMP JUMPDEST PUSH1 0x0 PUSH1 0x40 DUP3 ADD PUSH1 0x1 PUSH1 0x1 PUSH1 0xA0 SHL SUB DUP6 AND DUP4 MSTORE PUSH1 0x20 PUSH1 0x40 DUP2 DUP6 ADD MSTORE DUP3 DUP6 SLOAD PUSH1 0x1 DUP1 DUP3 AND PUSH1 0x0 DUP2 EQ PUSH2 0x34EB JUMPI PUSH1 0x1 DUP2 EQ PUSH2 0x3509 JUMPI PUSH2 0x3541 JUMP JUMPDEST PUSH1 0x7F PUSH1 0x2 DUP5 DIV AND DUP7 MSTORE PUSH1 0xFF NOT DUP4 AND PUSH1 0x60 DUP10 ADD MSTORE PUSH1 0x80 DUP9 ADD SWAP4 POP PUSH2 0x3541 JUMP JUMPDEST PUSH1 0x2 DUP4 DIV DUP1 DUP8 MSTORE PUSH2 0x3519 DUP11 PUSH2 0x3FC7 JUMP JUMPDEST DUP9 JUMPDEST DUP3 DUP2 LT ISZERO PUSH2 0x3537 JUMPI DUP2 SLOAD DUP12 DUP3 ADD PUSH1 0x60 ADD MSTORE SWAP1 DUP5 ADD SWAP1 DUP8 ADD PUSH2 0x351B JUMP JUMPDEST DUP11 ADD PUSH1 0x60 ADD SWAP6 POP POP POP JUMPDEST POP SWAP2 SWAP9 SWAP8 POP POP POP POP POP POP POP POP JUMP JUMPDEST PUSH1 0x0 PUSH1 0x20 DUP1 DUP4 ADD DUP2 DUP5 MSTORE DUP1 DUP6 MLOAD DUP1 DUP4 MSTORE PUSH1 0x40 DUP7 ADD SWAP2 POP PUSH1 0x40 DUP5 DUP3 MUL DUP8 ADD ADD SWAP3 POP DUP4 DUP8 ADD DUP6 JUMPDEST DUP3 DUP2 LT ISZERO PUSH2 0x35C0 JUMPI PUSH32 0xFFFFFFFFFFFFFFFFFFFFFFFFFFFFFFFFFFFFFFFFFFFFFFFFFFFFFFFFFFFFFFC0 DUP9 DUP7 SUB ADD DUP5 MSTORE PUSH2 0x35AE DUP6 DUP4 MLOAD PUSH2 0x33CD JUMP JUMPDEST SWAP5 POP SWAP3 DUP6 ADD SWAP3 SWAP1 DUP6 ADD SWAP1 PUSH1 0x1 ADD PUSH2 0x3574 JUMP JUMPDEST POP SWAP3 SWAP8 SWAP7 POP POP POP POP POP POP POP JUMP JUMPDEST SWAP1 ISZERO ISZERO DUP2 MSTORE PUSH1 0x20 ADD SWAP1 JUMP JUMPDEST SWAP3 DUP4 MSTORE PUSH1 0x1 PUSH1 0x1 PUSH1 0xA0 SHL SUB SWAP2 DUP3 AND PUSH1 0x20 DUP5 ADD MSTORE AND PUSH1 0x40 DUP3 ADD MSTORE PUSH1 0x60 ADD SWAP1 JUMP JUMPDEST SWAP2 DUP3 MSTORE PUSH1 0x20 DUP3 ADD MSTORE PUSH1 0x40 ADD SWAP1 JUMP JUMPDEST PUSH32 0xFFFFFFFF00000000000000000000000000000000000000000000000000000000 SWAP2 SWAP1 SWAP2 AND DUP2 MSTORE PUSH1 0x20 ADD SWAP1 JUMP JUMPDEST PUSH1 0x0 PUSH1 0x20 DUP3 MSTORE PUSH2 0xA8C PUSH1 0x20 DUP4 ADD DUP5 PUSH2 0x33A1 JUMP JUMPDEST PUSH1 0x20 DUP1 DUP3 MSTORE PUSH1 0x26 SWAP1 DUP3 ADD MSTORE PUSH32 0x415454454D5054494E475F455845435554494F4E5F48454C5045525F5245454E PUSH1 0x40 DUP3 ADD MSTORE PUSH32 0x5452414E43590000000000000000000000000000000000000000000000000000 PUSH1 0x60 DUP3 ADD MSTORE PUSH1 0x80 ADD SWAP1 JUMP JUMPDEST PUSH1 0x20 DUP1 DUP3 MSTORE PUSH1 0x18 SWAP1 DUP3 ADD MSTORE PUSH32 0x455845435554494F4E5F444F45535F4E4F545F45584953540000000000000000 PUSH1 0x40 DUP3 ADD MSTORE PUSH1 0x60 ADD SWAP1 JUMP JUMPDEST PUSH1 0x20 DUP1 DUP3 MSTORE PUSH1 0x1B SWAP1 DUP3 ADD MSTORE PUSH32 0x43414E4E4F545F52454D4F56455F524F4F545F43414E43454C45520000000000 PUSH1 0x40 DUP3 ADD MSTORE PUSH1 0x60 ADD SWAP1 JUMP JUMPDEST PUSH1 0x20 DUP1 DUP3 MSTORE PUSH1 0x11 SWAP1 DUP3 ADD MSTORE PUSH32 0x4752414E5445525F49535F474C4F42414C000000000000000000000000000000 PUSH1 0x40 DUP3 ADD MSTORE PUSH1 0x60 ADD SWAP1 JUMP JUMPDEST PUSH1 0x20 DUP1 DUP3 MSTORE PUSH1 0x1A SWAP1 DUP3 ADD MSTORE PUSH32 0x5045524D495353494F4E5F414C52454144595F4752414E544544000000000000 PUSH1 0x40 DUP3 ADD MSTORE PUSH1 0x60 ADD SWAP1 JUMP JUMPDEST PUSH1 0x20 DUP1 DUP3 MSTORE PUSH1 0x22 SWAP1 DUP3 ADD MSTORE PUSH32 0x43414E4E4F545F5343484544554C455F415554484F52495A45525F414354494F PUSH1 0x40 DUP3 ADD MSTORE PUSH32 0x4E53000000000000000000000000000000000000000000000000000000000000 PUSH1 0x60 DUP3 ADD MSTORE PUSH1 0x80 ADD SWAP1 JUMP JUMPDEST PUSH1 0x20 DUP1 DUP3 MSTORE PUSH1 0x15 SWAP1 DUP3 ADD MSTORE PUSH32 0x53454E4445525F49535F4E4F545F4752414E5445520000000000000000000000 PUSH1 0x40 DUP3 ADD MSTORE PUSH1 0x60 ADD SWAP1 JUMP JUMPDEST PUSH1 0x20 DUP1 DUP3 MSTORE PUSH1 0x16 SWAP1 DUP3 ADD MSTORE PUSH32 0x53454E4445525F49535F4E4F545F4558454355544F5200000000000000000000 PUSH1 0x40 DUP3 ADD MSTORE PUSH1 0x60 ADD SWAP1 JUMP JUMPDEST PUSH1 0x20 DUP1 DUP3 MSTORE PUSH1 0x1C SWAP1 DUP3 ADD MSTORE PUSH32 0x44454C41595F455843454544535F5345545F415554484F52495A455200000000 PUSH1 0x40 DUP3 ADD MSTORE PUSH1 0x60 ADD SWAP1 JUMP JUMPDEST PUSH1 0x20 DUP1 DUP3 MSTORE PUSH1 0x1A SWAP1 DUP3 ADD MSTORE PUSH32 0x4143434F554E545F49535F414C52454144595F4752414E544552000000000000 PUSH1 0x40 DUP3 ADD MSTORE PUSH1 0x60 ADD SWAP1 JUMP JUMPDEST PUSH1 0x20 DUP1 DUP3 MSTORE PUSH1 0x16 SWAP1 DUP3 ADD MSTORE PUSH32 0x5045524D495353494F4E5F4E4F545F4752414E54454400000000000000000000 PUSH1 0x40 DUP3 ADD MSTORE PUSH1 0x60 ADD SWAP1 JUMP JUMPDEST PUSH1 0x20 DUP1 DUP3 MSTORE PUSH1 0x13 SWAP1 DUP3 ADD MSTORE PUSH32 0x4455504C49434154455F4558454355544F525300000000000000000000000000 PUSH1 0x40 DUP3 ADD MSTORE PUSH1 0x60 ADD SWAP1 JUMP JUMPDEST PUSH1 0x20 DUP1 DUP3 MSTORE PUSH1 0x14 SWAP1 DUP3 ADD MSTORE PUSH32 0x534B49505F56414C55455F544F4F5F4C41524745000000000000000000000000 PUSH1 0x40 DUP3 ADD MSTORE PUSH1 0x60 ADD SWAP1 JUMP JUMPDEST PUSH1 0x20 DUP1 DUP3 MSTORE PUSH1 0x19 SWAP1 DUP3 ADD MSTORE PUSH32 0x414354494F4E5F4841535F4E4F5F4752414E545F44454C415900000000000000 PUSH1 0x40 DUP3 ADD MSTORE PUSH1 0x60 ADD SWAP1 JUMP JUMPDEST PUSH1 0x20 DUP1 DUP3 MSTORE PUSH1 0x1A SWAP1 DUP3 ADD MSTORE PUSH32 0x455845435554494F4E5F414C52454144595F43414E43454C4544000000000000 PUSH1 0x40 DUP3 ADD MSTORE PUSH1 0x60 ADD SWAP1 JUMP JUMPDEST PUSH1 0x20 DUP1 DUP3 MSTORE PUSH1 0x18 SWAP1 DUP3 ADD MSTORE PUSH32 0x455845435554494F4E5F49535F4E4F545F50454E44494E470000000000000000 PUSH1 0x40 DUP3 ADD MSTORE PUSH1 0x60 ADD SWAP1 JUMP JUMPDEST PUSH1 0x20 DUP1 DUP3 MSTORE PUSH1 0xE SWAP1 DUP3 ADD MSTORE PUSH32 0x444154415F544F4F5F53484F5254000000000000000000000000000000000000 PUSH1 0x40 DUP3 ADD MSTORE PUSH1 0x60 ADD SWAP1 JUMP JUMPDEST PUSH1 0x20 DUP1 DUP3 MSTORE PUSH1 0x1F SWAP1 DUP3 ADD MSTORE PUSH32 0x53454E4445525F444F45535F4E4F545F484156455F5045524D495353494F4E00 PUSH1 0x40 DUP3 ADD MSTORE PUSH1 0x60 ADD SWAP1 JUMP JUMPDEST PUSH1 0x20 DUP1 DUP3 MSTORE PUSH1 0x10 SWAP1 DUP3 ADD MSTORE PUSH32 0x44454C41595F49535F4E4F545F53455400000000000000000000000000000000 PUSH1 0x40 DUP3 ADD MSTORE PUSH1 0x60 ADD SWAP1 JUMP JUMPDEST PUSH1 0x20 DUP1 DUP3 MSTORE PUSH1 0x11 SWAP1 DUP3 ADD MSTORE PUSH32 0x5245564F4B45525F49535F474C4F42414C000000000000000000000000000000 PUSH1 0x40 DUP3 ADD MSTORE PUSH1 0x60 ADD SWAP1 JUMP JUMPDEST PUSH1 0x20 DUP1 DUP3 MSTORE PUSH1 0x15 SWAP1 DUP3 ADD MSTORE PUSH32 0x53454E4445525F49535F4E4F545F5245564F4B45520000000000000000000000 PUSH1 0x40 DUP3 ADD MSTORE PUSH1 0x60 ADD SWAP1 JUMP JUMPDEST PUSH1 0x20 DUP1 DUP3 MSTORE PUSH1 0x12 SWAP1 DUP3 ADD MSTORE PUSH32 0x53454E4445525F49535F4E4F545F524F4F540000000000000000000000000000 PUSH1 0x40 DUP3 ADD MSTORE PUSH1 0x60 ADD SWAP1 JUMP JUMPDEST PUSH1 0x20 DUP1 DUP3 MSTORE PUSH1 0x1A SWAP1 DUP3 ADD MSTORE PUSH32 0x43414E4E4F545F52454D4F56455F524F4F545F5245564F4B4552000000000000 PUSH1 0x40 DUP3 ADD MSTORE PUSH1 0x60 ADD SWAP1 JUMP JUMPDEST PUSH1 0x20 DUP1 DUP3 MSTORE PUSH1 0x1C SWAP1 DUP3 ADD MSTORE PUSH32 0x455845435554494F4E5F4E4F545F5945545F45584543555441424C4500000000 PUSH1 0x40 DUP3 ADD MSTORE PUSH1 0x60 ADD SWAP1 JUMP JUMPDEST PUSH1 0x20 DUP1 DUP3 MSTORE PUSH1 0x18 SWAP1 DUP3 ADD MSTORE PUSH32 0x5245564F4B455F4D5553545F42455F5343484544554C45440000000000000000 PUSH1 0x40 DUP3 ADD MSTORE PUSH1 0x60 ADD SWAP1 JUMP JUMPDEST PUSH1 0x20 DUP1 DUP3 MSTORE PUSH1 0x1A SWAP1 DUP3 ADD MSTORE PUSH32 0x53454E4445525F49535F4E4F545F50454E44494E475F524F4F54000000000000 PUSH1 0x40 DUP3 ADD MSTORE PUSH1 0x60 ADD SWAP1 JUMP JUMPDEST PUSH1 0x20 DUP1 DUP3 MSTORE PUSH1 0x1D SWAP1 DUP3 ADD MSTORE PUSH32 0x4143434F554E545F4841535F474C4F42414C5F5045524D495353494F4E000000 PUSH1 0x40 DUP3 ADD MSTORE PUSH1 0x60 ADD SWAP1 JUMP JUMPDEST PUSH1 0x20 DUP1 DUP3 MSTORE PUSH1 0xF SWAP1 DUP3 ADD MSTORE PUSH32 0x44454C41595F544F4F5F4C415247450000000000000000000000000000000000 PUSH1 0x40 DUP3 ADD MSTORE PUSH1 0x60 ADD SWAP1 JUMP JUMPDEST PUSH1 0x20 DUP1 DUP3 MSTORE PUSH1 0x1A SWAP1 DUP3 ADD MSTORE PUSH32 0x414354494F4E5F4841535F4E4F5F5245564F4B455F44454C4159000000000000 PUSH1 0x40 DUP3 ADD MSTORE PUSH1 0x60 ADD SWAP1 JUMP JUMPDEST PUSH1 0x20 DUP1 DUP3 MSTORE PUSH1 0x13 SWAP1 DUP3 ADD MSTORE PUSH32 0x5A45524F5F4D41585F53495A455F56414C554500000000000000000000000000 PUSH1 0x40 DUP3 ADD MSTORE PUSH1 0x60 ADD SWAP1 JUMP JUMPDEST PUSH1 0x20 DUP1 DUP3 MSTORE PUSH1 0x16 SWAP1 DUP3 ADD MSTORE PUSH32 0x4143434F554E545F49535F4E4F545F4752414E54455200000000000000000000 PUSH1 0x40 DUP3 ADD MSTORE PUSH1 0x60 ADD SWAP1 JUMP JUMPDEST PUSH1 0x20 DUP1 DUP3 MSTORE PUSH1 0x1A SWAP1 DUP3 ADD MSTORE PUSH32 0x455845435554494F4E5F414C52454144595F4558454355544544000000000000 PUSH1 0x40 DUP3 ADD MSTORE PUSH1 0x60 ADD SWAP1 JUMP JUMPDEST PUSH1 0x20 DUP1 DUP3 MSTORE PUSH1 0x15 SWAP1 DUP3 ADD MSTORE PUSH32 0x43414E5F4F4E4C595F42455F5343484544554C45440000000000000000000000 PUSH1 0x40 DUP3 ADD MSTORE PUSH1 0x60 ADD SWAP1 JUMP JUMPDEST PUSH1 0x20 DUP1 DUP3 MSTORE PUSH1 0x1A SWAP1 DUP3 ADD MSTORE PUSH32 0x4143434F554E545F49535F474C4F42414C5F43414E43454C4552000000000000 PUSH1 0x40 DUP3 ADD MSTORE PUSH1 0x60 ADD SWAP1 JUMP JUMPDEST PUSH1 0x20 DUP1 DUP3 MSTORE PUSH1 0x17 SWAP1 DUP3 ADD MSTORE PUSH32 0x4143434F554E545F49535F4E4F545F43414E43454C4552000000000000000000 PUSH1 0x40 DUP3 ADD MSTORE PUSH1 0x60 ADD SWAP1 JUMP JUMPDEST PUSH1 0x20 DUP1 DUP3 MSTORE PUSH1 0x17 SWAP1 DUP3 ADD MSTORE PUSH32 0x4752414E545F4D5553545F42455F5343484544554C4544000000000000000000 PUSH1 0x40 DUP3 ADD MSTORE PUSH1 0x60 ADD SWAP1 JUMP JUMPDEST PUSH1 0x20 DUP1 DUP3 MSTORE PUSH1 0x16 SWAP1 DUP3 ADD MSTORE PUSH32 0x4143434F554E545F49535F4E4F545F5245564F4B455200000000000000000000 PUSH1 0x40 DUP3 ADD MSTORE PUSH1 0x60 ADD SWAP1 JUMP JUMPDEST PUSH1 0x20 DUP1 DUP3 MSTORE PUSH1 0x1B SWAP1 DUP3 ADD MSTORE PUSH32 0x4143434F554E545F49535F414C52454144595F43414E43454C45520000000000 PUSH1 0x40 DUP3 ADD MSTORE PUSH1 0x60 ADD SWAP1 JUMP JUMPDEST PUSH1 0x20 DUP1 DUP3 MSTORE PUSH1 0x1A SWAP1 DUP3 ADD MSTORE PUSH32 0x43414E4E4F545F52454D4F56455F524F4F545F4752414E544552000000000000 PUSH1 0x40 DUP3 ADD MSTORE PUSH1 0x60 ADD SWAP1 JUMP JUMPDEST PUSH1 0x20 DUP1 DUP3 MSTORE PUSH1 0x1A SWAP1 DUP3 ADD MSTORE PUSH32 0x4143434F554E545F49535F414C52454144595F5245564F4B4552000000000000 PUSH1 0x40 DUP3 ADD MSTORE PUSH1 0x60 ADD SWAP1 JUMP JUMPDEST PUSH1 0x20 DUP1 DUP3 MSTORE PUSH1 0x16 SWAP1 DUP3 ADD MSTORE PUSH32 0x53454E4445525F49535F4E4F545F43414E43454C455200000000000000000000 PUSH1 0x40 DUP3 ADD MSTORE PUSH1 0x60 ADD SWAP1 JUMP JUMPDEST PUSH1 0x0 PUSH1 0x20 DUP3 MSTORE PUSH2 0xA8C PUSH1 0x20 DUP4 ADD DUP5 PUSH2 0x33CD JUMP JUMPDEST SWAP1 DUP2 MSTORE PUSH1 0x20 ADD SWAP1 JUMP JUMPDEST PUSH1 0x40 MLOAD DUP2 DUP2 ADD PUSH8 0xFFFFFFFFFFFFFFFF DUP2 GT DUP3 DUP3 LT OR ISZERO PUSH2 0x3F9B JUMPI PUSH1 0x0 DUP1 REVERT JUMPDEST PUSH1 0x40 MSTORE SWAP2 SWAP1 POP JUMP JUMPDEST PUSH1 0x0 PUSH8 0xFFFFFFFFFFFFFFFF DUP3 GT ISZERO PUSH2 0x3FB9 JUMPI DUP1 DUP2 REVERT JUMPDEST POP PUSH1 0x1F ADD PUSH1 0x1F NOT AND PUSH1 0x20 ADD SWAP1 JUMP JUMPDEST PUSH1 0x0 SWAP1 DUP2 MSTORE PUSH1 0x20 SWAP1 KECCAK256 SWAP1 JUMP JUMPDEST PUSH1 0x0 JUMPDEST DUP4 DUP2 LT ISZERO PUSH2 0x3FEE JUMPI DUP2 DUP2 ADD MLOAD DUP4 DUP3 ADD MSTORE PUSH1 0x20 ADD PUSH2 0x3FD6 JUMP JUMPDEST DUP4 DUP2 GT ISZERO PUSH2 0x3FFD JUMPI PUSH1 0x0 DUP5 DUP5 ADD MSTORE JUMPDEST POP POP POP POP JUMP INVALID LOG2 PUSH5 0x6970667358 0x22 SLT KECCAK256 CALLDATACOPY CREATE 0xE3 PUSH19 0xB561C4CAFBDF5ECF3A34A6E219F54E10C5133 0x25 SWAP7 PUSH17 0x4601E0C342B464736F6C63430007010033 PUSH1 0xA0 PUSH1 0x40 MSTORE CALLVALUE DUP1 ISZERO PUSH2 0x10 JUMPI PUSH1 0x0 DUP1 REVERT JUMPDEST POP PUSH1 0x1 PUSH1 0x0 SSTORE CALLER PUSH1 0x60 SHL PUSH1 0x80 MSTORE PUSH1 0x80 MLOAD PUSH1 0x60 SHR PUSH2 0x4B0 PUSH2 0x3F PUSH1 0x0 CODECOPY DUP1 PUSH2 0x1C6 MSTORE DUP1 PUSH2 0x26E MSTORE POP PUSH2 0x4B0 PUSH1 0x0 RETURN INVALID PUSH1 0x80 PUSH1 0x40 MSTORE CALLVALUE DUP1 ISZERO PUSH2 0x10 JUMPI PUSH1 0x0 DUP1 REVERT JUMPDEST POP PUSH1 0x4 CALLDATASIZE LT PUSH2 0x36 JUMPI PUSH1 0x0 CALLDATALOAD PUSH1 0xE0 SHR DUP1 PUSH4 0x1CFF79CD EQ PUSH2 0x3B JUMPI DUP1 PUSH4 0xAAABADC5 EQ PUSH2 0x173 JUMPI JUMPDEST PUSH1 0x0 DUP1 REVERT JUMPDEST PUSH2 0xFE PUSH1 0x4 DUP1 CALLDATASIZE SUB PUSH1 0x40 DUP2 LT ISZERO PUSH2 0x51 JUMPI PUSH1 0x0 DUP1 REVERT JUMPDEST PUSH20 0xFFFFFFFFFFFFFFFFFFFFFFFFFFFFFFFFFFFFFFFF DUP3 CALLDATALOAD AND SWAP2 SWAP1 DUP2 ADD SWAP1 PUSH1 0x40 DUP2 ADD PUSH1 0x20 DUP3 ADD CALLDATALOAD PUSH5 0x100000000 DUP2 GT ISZERO PUSH2 0x89 JUMPI PUSH1 0x0 DUP1 REVERT JUMPDEST DUP3 ADD DUP4 PUSH1 0x20 DUP3 ADD GT ISZERO PUSH2 0x9B JUMPI PUSH1 0x0 DUP1 REVERT JUMPDEST DUP1 CALLDATALOAD SWAP1 PUSH1 0x20 ADD SWAP2 DUP5 PUSH1 0x1 DUP4 MUL DUP5 ADD GT PUSH5 0x100000000 DUP4 GT OR ISZERO PUSH2 0xBD JUMPI PUSH1 0x0 DUP1 REVERT JUMPDEST SWAP2 SWAP1 DUP1 DUP1 PUSH1 0x1F ADD PUSH1 0x20 DUP1 SWAP2 DIV MUL PUSH1 0x20 ADD PUSH1 0x40 MLOAD SWAP1 DUP2 ADD PUSH1 0x40 MSTORE DUP1 SWAP4 SWAP3 SWAP2 SWAP1 DUP2 DUP2 MSTORE PUSH1 0x20 ADD DUP4 DUP4 DUP1 DUP3 DUP5 CALLDATACOPY PUSH1 0x0 SWAP3 ADD SWAP2 SWAP1 SWAP2 MSTORE POP SWAP3 SWAP6 POP PUSH2 0x1A4 SWAP5 POP POP POP POP POP JUMP JUMPDEST PUSH1 0x40 DUP1 MLOAD PUSH1 0x20 DUP1 DUP3 MSTORE DUP4 MLOAD DUP2 DUP4 ADD MSTORE DUP4 MLOAD SWAP2 SWAP3 DUP4 SWAP3 SWAP1 DUP4 ADD SWAP2 DUP6 ADD SWAP1 DUP1 DUP4 DUP4 PUSH1 0x0 JUMPDEST DUP4 DUP2 LT ISZERO PUSH2 0x138 JUMPI DUP2 DUP2 ADD MLOAD DUP4 DUP3 ADD MSTORE PUSH1 0x20 ADD PUSH2 0x120 JUMP JUMPDEST POP POP POP POP SWAP1 POP SWAP1 DUP2 ADD SWAP1 PUSH1 0x1F AND DUP1 ISZERO PUSH2 0x165 JUMPI DUP1 DUP3 SUB DUP1 MLOAD PUSH1 0x1 DUP4 PUSH1 0x20 SUB PUSH2 0x100 EXP SUB NOT AND DUP2 MSTORE PUSH1 0x20 ADD SWAP2 POP JUMPDEST POP SWAP3 POP POP POP PUSH1 0x40 MLOAD DUP1 SWAP2 SUB SWAP1 RETURN JUMPDEST PUSH2 0x17B PUSH2 0x26C JUMP JUMPDEST PUSH1 0x40 DUP1 MLOAD PUSH20 0xFFFFFFFFFFFFFFFFFFFFFFFFFFFFFFFFFFFFFFFF SWAP1 SWAP3 AND DUP3 MSTORE MLOAD SWAP1 DUP2 SWAP1 SUB PUSH1 0x20 ADD SWAP1 RETURN JUMPDEST PUSH1 0x60 PUSH2 0x1AE PUSH2 0x290 JUMP JUMPDEST CALLER PUSH20 0xFFFFFFFFFFFFFFFFFFFFFFFFFFFFFFFFFFFFFFFF PUSH32 0x0 AND EQ PUSH2 0x252 JUMPI PUSH1 0x40 DUP1 MLOAD PUSH32 0x8C379A000000000000000000000000000000000000000000000000000000000 DUP2 MSTORE PUSH1 0x20 PUSH1 0x4 DUP3 ADD MSTORE PUSH1 0x18 PUSH1 0x24 DUP3 ADD MSTORE PUSH32 0x53454E4445525F49535F4E4F545F415554484F52495A45520000000000000000 PUSH1 0x44 DUP3 ADD MSTORE SWAP1 MLOAD SWAP1 DUP2 SWAP1 SUB PUSH1 0x64 ADD SWAP1 REVERT JUMPDEST PUSH2 0x25C DUP4 DUP4 PUSH2 0x2A9 JUMP JUMPDEST SWAP1 POP PUSH2 0x266 PUSH2 0x393 JUMP JUMPDEST SWAP3 SWAP2 POP POP JUMP JUMPDEST PUSH32 0x0 SWAP1 JUMP JUMPDEST PUSH2 0x2A2 PUSH1 0x2 PUSH1 0x0 SLOAD EQ ISZERO PUSH2 0x190 PUSH2 0x39A JUMP JUMPDEST PUSH1 0x2 PUSH1 0x0 SSTORE JUMP JUMPDEST PUSH1 0x60 PUSH1 0x0 PUSH1 0x60 DUP5 PUSH20 0xFFFFFFFFFFFFFFFFFFFFFFFFFFFFFFFFFFFFFFFF AND DUP5 PUSH1 0x40 MLOAD DUP1 DUP3 DUP1 MLOAD SWAP1 PUSH1 0x20 ADD SWAP1 DUP1 DUP4 DUP4 JUMPDEST PUSH1 0x20 DUP4 LT PUSH2 0x314 JUMPI DUP1 MLOAD DUP3 MSTORE PUSH32 0xFFFFFFFFFFFFFFFFFFFFFFFFFFFFFFFFFFFFFFFFFFFFFFFFFFFFFFFFFFFFFFE0 SWAP1 SWAP3 ADD SWAP2 PUSH1 0x20 SWAP2 DUP3 ADD SWAP2 ADD PUSH2 0x2D7 JUMP JUMPDEST PUSH1 0x1 DUP4 PUSH1 0x20 SUB PUSH2 0x100 EXP SUB DUP1 NOT DUP3 MLOAD AND DUP2 DUP5 MLOAD AND DUP1 DUP3 OR DUP6 MSTORE POP POP POP POP POP POP SWAP1 POP ADD SWAP2 POP POP PUSH1 0x0 PUSH1 0x40 MLOAD DUP1 DUP4 SUB DUP2 PUSH1 0x0 DUP7 GAS CALL SWAP2 POP POP RETURNDATASIZE DUP1 PUSH1 0x0 DUP2 EQ PUSH2 0x376 JUMPI PUSH1 0x40 MLOAD SWAP2 POP PUSH1 0x1F NOT PUSH1 0x3F RETURNDATASIZE ADD AND DUP3 ADD PUSH1 0x40 MSTORE RETURNDATASIZE DUP3 MSTORE RETURNDATASIZE PUSH1 0x0 PUSH1 0x20 DUP5 ADD RETURNDATACOPY PUSH2 0x37B JUMP JUMPDEST PUSH1 0x60 SWAP2 POP JUMPDEST POP SWAP2 POP SWAP2 POP PUSH2 0x38A DUP3 DUP3 PUSH2 0x3AC JUMP JUMPDEST SWAP6 SWAP5 POP POP POP POP POP JUMP JUMPDEST PUSH1 0x1 PUSH1 0x0 SSTORE JUMP JUMPDEST DUP2 PUSH2 0x3A8 JUMPI PUSH2 0x3A8 DUP2 PUSH2 0x3D2 JUMP JUMPDEST POP POP JUMP JUMPDEST PUSH1 0x60 DUP3 ISZERO PUSH2 0x3BB JUMPI POP DUP1 PUSH2 0x266 JUMP JUMPDEST DUP2 MLOAD ISZERO PUSH2 0x3CB JUMPI DUP2 MLOAD DUP1 DUP4 PUSH1 0x20 ADD REVERT JUMPDEST PUSH2 0x266 PUSH2 0x1AE JUMPDEST PUSH2 0x3FC DUP2 PUSH32 0x42414C0000000000000000000000000000000000000000000000000000000000 PUSH2 0x3FF JUMP JUMPDEST POP JUMP JUMPDEST PUSH32 0x8C379A000000000000000000000000000000000000000000000000000000000 PUSH1 0x0 SWAP1 DUP2 MSTORE PUSH1 0x20 PUSH1 0x4 MSTORE PUSH1 0x7 PUSH1 0x24 MSTORE PUSH1 0xA DUP1 DUP5 DIV DUP2 DUP2 MOD PUSH1 0x30 SWAP1 DUP2 ADD PUSH1 0x8 SHL SWAP6 DUP4 SWAP1 MOD SWAP6 SWAP1 SWAP6 ADD SWAP1 DUP3 SWAP1 DIV SWAP2 DUP3 MOD DUP6 ADD PUSH1 0x10 SHL ADD PUSH1 0x23 PUSH4 0xFFFFFF00 PUSH1 0xE0 DUP7 SWAP1 SHR AND ADD PUSH1 0x18 SHL ADD SWAP1 SWAP4 ADD PUSH1 0xC8 SHL PUSH1 0x44 MSTORE PUSH1 0xE8 DUP3 SWAP1 SHR SWAP1 PUSH1 0x64 SWAP1 REVERT INVALID LOG2 PUSH5 0x6970667358 0x22 SLT KECCAK256 AND 0xCD SWAP8 SWAP13 0x4C CODESIZE 0x29 SWAP4 DIFFICULTY STATICCALL 0xDF DUP5 PUSH19 0xB5591B2802063C0D73384A34A0D1CA0B517E7 PUSH5 0x736F6C6343 STOP SMOD ADD STOP CALLER "},"methodIdentifiers":{"DEFAULT_ADMIN_ROLE()":"a217fddf","EVERYWHERE()":"62cde1ba","GENERAL_PERMISSION_SPECIFIER()":"fc78a228","changeRootDelay()":"064cb76a","executeDelays()":"3c44172d","finalizeMigration()":"b78b6087","newAuthorizer()":"a0c286d8","oldAuthorizer()":"c6bfe9ae","root()":"ebf0c717","vault()":"fbfa77cf"}}}}}