{
  "_format": "hh-sol-artifact-1",
  "contractName": "TimelockAuthorizer",
  "sourceName": "@balancer-labs/v2-vault/contracts/authorizer/TimelockAuthorizer.sol",
  "abi": [
    {
      "inputs": [
        {
          "internalType": "address",
          "name": "initialRoot",
          "type": "address"
        },
        {
          "internalType": "address",
          "name": "nextRoot",
          "type": "address"
        },
        {
          "internalType": "contract IAuthorizerAdaptorEntrypoint",
          "name": "authorizerAdaptorEntrypoint",
          "type": "address"
        },
        {
          "internalType": "uint256",
          "name": "rootTransferDelay",
          "type": "uint256"
        }
      ],
      "stateMutability": "nonpayable",
      "type": "constructor"
    },
    {
      "anonymous": false,
      "inputs": [
        {
          "indexed": true,
          "internalType": "bytes32",
          "name": "actionId",
          "type": "bytes32"
        },
        {
          "indexed": false,
          "internalType": "uint256",
          "name": "delay",
          "type": "uint256"
        }
      ],
      "name": "ActionDelaySet",
      "type": "event"
    },
    {
      "anonymous": false,
      "inputs": [
        {
          "indexed": true,
          "internalType": "uint256",
          "name": "scheduledExecutionId",
          "type": "uint256"
        },
        {
          "indexed": true,
          "internalType": "address",
          "name": "canceler",
          "type": "address"
        }
      ],
      "name": "CancelerAdded",
      "type": "event"
    },
    {
      "anonymous": false,
      "inputs": [
        {
          "indexed": true,
          "internalType": "uint256",
          "name": "scheduledExecutionId",
          "type": "uint256"
        },
        {
          "indexed": true,
          "internalType": "address",
          "name": "canceler",
          "type": "address"
        }
      ],
      "name": "CancelerRemoved",
      "type": "event"
    },
    {
      "anonymous": false,
      "inputs": [
        {
          "indexed": true,
          "internalType": "bytes32",
          "name": "actionId",
          "type": "bytes32"
        },
        {
          "indexed": true,
          "internalType": "uint256",
          "name": "newDelay",
          "type": "uint256"
        },
        {
          "indexed": true,
          "internalType": "uint256",
          "name": "scheduledExecutionId",
          "type": "uint256"
        }
      ],
      "name": "DelayChangeScheduled",
      "type": "event"
    },
    {
      "anonymous": false,
      "inputs": [
        {
          "indexed": true,
          "internalType": "uint256",
          "name": "scheduledExecutionId",
          "type": "uint256"
        }
      ],
      "name": "ExecutionCanceled",
      "type": "event"
    },
    {
      "anonymous": false,
      "inputs": [
        {
          "indexed": true,
          "internalType": "uint256",
          "name": "scheduledExecutionId",
          "type": "uint256"
        }
      ],
      "name": "ExecutionExecuted",
      "type": "event"
    },
    {
      "anonymous": false,
      "inputs": [
        {
          "indexed": true,
          "internalType": "bytes32",
          "name": "actionId",
          "type": "bytes32"
        },
        {
          "indexed": true,
          "internalType": "uint256",
          "name": "scheduledExecutionId",
          "type": "uint256"
        }
      ],
      "name": "ExecutionScheduled",
      "type": "event"
    },
    {
      "anonymous": false,
      "inputs": [
        {
          "indexed": true,
          "internalType": "uint256",
          "name": "scheduledExecutionId",
          "type": "uint256"
        },
        {
          "indexed": true,
          "internalType": "address",
          "name": "executor",
          "type": "address"
        }
      ],
      "name": "ExecutorAdded",
      "type": "event"
    },
    {
      "anonymous": false,
      "inputs": [
        {
          "indexed": true,
          "internalType": "bytes32",
          "name": "actionId",
          "type": "bytes32"
        },
        {
          "indexed": true,
          "internalType": "uint256",
          "name": "newDelay",
          "type": "uint256"
        },
        {
          "indexed": true,
          "internalType": "uint256",
          "name": "scheduledExecutionId",
          "type": "uint256"
        }
      ],
      "name": "GrantDelayChangeScheduled",
      "type": "event"
    },
    {
      "anonymous": false,
      "inputs": [
        {
          "indexed": true,
          "internalType": "bytes32",
          "name": "actionId",
          "type": "bytes32"
        },
        {
          "indexed": false,
          "internalType": "uint256",
          "name": "delay",
          "type": "uint256"
        }
      ],
      "name": "GrantDelaySet",
      "type": "event"
    },
    {
      "anonymous": false,
      "inputs": [
        {
          "indexed": true,
          "internalType": "bytes32",
          "name": "actionId",
          "type": "bytes32"
        },
        {
          "indexed": true,
          "internalType": "address",
          "name": "account",
          "type": "address"
        },
        {
          "indexed": true,
          "internalType": "address",
          "name": "where",
          "type": "address"
        },
        {
          "indexed": false,
          "internalType": "uint256",
          "name": "scheduledExecutionId",
          "type": "uint256"
        }
      ],
      "name": "GrantPermissionScheduled",
      "type": "event"
    },
    {
      "anonymous": false,
      "inputs": [
        {
          "indexed": true,
          "internalType": "bytes32",
          "name": "actionId",
          "type": "bytes32"
        },
        {
          "indexed": true,
          "internalType": "address",
          "name": "account",
          "type": "address"
        },
        {
          "indexed": true,
          "internalType": "address",
          "name": "where",
          "type": "address"
        }
      ],
      "name": "GranterAdded",
      "type": "event"
    },
    {
      "anonymous": false,
      "inputs": [
        {
          "indexed": true,
          "internalType": "bytes32",
          "name": "actionId",
          "type": "bytes32"
        },
        {
          "indexed": true,
          "internalType": "address",
          "name": "account",
          "type": "address"
        },
        {
          "indexed": true,
          "internalType": "address",
          "name": "where",
          "type": "address"
        }
      ],
      "name": "GranterRemoved",
      "type": "event"
    },
    {
      "anonymous": false,
      "inputs": [
        {
          "indexed": true,
          "internalType": "address",
          "name": "pendingRoot",
          "type": "address"
        }
      ],
      "name": "PendingRootSet",
      "type": "event"
    },
    {
      "anonymous": false,
      "inputs": [
        {
          "indexed": true,
          "internalType": "bytes32",
          "name": "actionId",
          "type": "bytes32"
        },
        {
          "indexed": true,
          "internalType": "address",
          "name": "account",
          "type": "address"
        },
        {
          "indexed": true,
          "internalType": "address",
          "name": "where",
          "type": "address"
        }
      ],
      "name": "PermissionGranted",
      "type": "event"
    },
    {
      "anonymous": false,
      "inputs": [
        {
          "indexed": true,
          "internalType": "bytes32",
          "name": "actionId",
          "type": "bytes32"
        },
        {
          "indexed": true,
          "internalType": "address",
          "name": "account",
          "type": "address"
        },
        {
          "indexed": true,
          "internalType": "address",
          "name": "where",
          "type": "address"
        }
      ],
      "name": "PermissionRevoked",
      "type": "event"
    },
    {
      "anonymous": false,
      "inputs": [
        {
          "indexed": true,
          "internalType": "bytes32",
          "name": "actionId",
          "type": "bytes32"
        },
        {
          "indexed": true,
          "internalType": "uint256",
          "name": "newDelay",
          "type": "uint256"
        },
        {
          "indexed": true,
          "internalType": "uint256",
          "name": "scheduledExecutionId",
          "type": "uint256"
        }
      ],
      "name": "RevokeDelayChangeScheduled",
      "type": "event"
    },
    {
      "anonymous": false,
      "inputs": [
        {
          "indexed": true,
          "internalType": "bytes32",
          "name": "actionId",
          "type": "bytes32"
        },
        {
          "indexed": false,
          "internalType": "uint256",
          "name": "delay",
          "type": "uint256"
        }
      ],
      "name": "RevokeDelaySet",
      "type": "event"
    },
    {
      "anonymous": false,
      "inputs": [
        {
          "indexed": true,
          "internalType": "bytes32",
          "name": "actionId",
          "type": "bytes32"
        },
        {
          "indexed": true,
          "internalType": "address",
          "name": "account",
          "type": "address"
        },
        {
          "indexed": true,
          "internalType": "address",
          "name": "where",
          "type": "address"
        },
        {
          "indexed": false,
          "internalType": "uint256",
          "name": "scheduledExecutionId",
          "type": "uint256"
        }
      ],
      "name": "RevokePermissionScheduled",
      "type": "event"
    },
    {
      "anonymous": false,
      "inputs": [
        {
          "indexed": true,
          "internalType": "address",
          "name": "account",
          "type": "address"
        },
        {
          "indexed": true,
          "internalType": "address",
          "name": "where",
          "type": "address"
        }
      ],
      "name": "RevokerAdded",
      "type": "event"
    },
    {
      "anonymous": false,
      "inputs": [
        {
          "indexed": true,
          "internalType": "address",
          "name": "account",
          "type": "address"
        },
        {
          "indexed": true,
          "internalType": "address",
          "name": "where",
          "type": "address"
        }
      ],
      "name": "RevokerRemoved",
      "type": "event"
    },
    {
      "anonymous": false,
      "inputs": [
        {
          "indexed": true,
          "internalType": "address",
          "name": "newRoot",
          "type": "address"
        },
        {
          "indexed": true,
          "internalType": "uint256",
          "name": "scheduledExecutionId",
          "type": "uint256"
        }
      ],
      "name": "RootChangeScheduled",
      "type": "event"
    },
    {
      "anonymous": false,
      "inputs": [
        {
          "indexed": true,
          "internalType": "address",
          "name": "root",
          "type": "address"
        }
      ],
      "name": "RootSet",
      "type": "event"
    },
    {
      "inputs": [],
      "name": "EVERYWHERE",
      "outputs": [
        {
          "internalType": "address",
          "name": "",
          "type": "address"
        }
      ],
      "stateMutability": "pure",
      "type": "function"
    },
    {
      "inputs": [],
      "name": "GLOBAL_CANCELER_SCHEDULED_EXECUTION_ID",
      "outputs": [
        {
          "internalType": "uint256",
          "name": "",
          "type": "uint256"
        }
      ],
      "stateMutability": "pure",
      "type": "function"
    },
    {
      "inputs": [],
      "name": "MAX_DELAY",
      "outputs": [
        {
          "internalType": "uint256",
          "name": "",
          "type": "uint256"
        }
      ],
      "stateMutability": "pure",
      "type": "function"
    },
    {
      "inputs": [],
      "name": "MINIMUM_CHANGE_DELAY_EXECUTION_DELAY",
      "outputs": [
        {
          "internalType": "uint256",
          "name": "",
          "type": "uint256"
        }
      ],
      "stateMutability": "pure",
      "type": "function"
    },
    {
      "inputs": [
        {
          "internalType": "uint256",
          "name": "scheduledExecutionId",
          "type": "uint256"
        },
        {
          "internalType": "address",
          "name": "account",
          "type": "address"
        }
      ],
      "name": "addCanceler",
      "outputs": [],
      "stateMutability": "nonpayable",
      "type": "function"
    },
    {
      "inputs": [
        {
          "internalType": "bytes32",
          "name": "actionId",
          "type": "bytes32"
        },
        {
          "internalType": "address",
          "name": "account",
          "type": "address"
        },
        {
          "internalType": "address",
          "name": "where",
          "type": "address"
        }
      ],
      "name": "addGranter",
      "outputs": [],
      "stateMutability": "nonpayable",
      "type": "function"
    },
    {
      "inputs": [
        {
          "internalType": "address",
          "name": "account",
          "type": "address"
        },
        {
          "internalType": "address",
          "name": "where",
          "type": "address"
        }
      ],
      "name": "addRevoker",
      "outputs": [],
      "stateMutability": "nonpayable",
      "type": "function"
    },
    {
      "inputs": [
        {
          "internalType": "uint256",
          "name": "scheduledExecutionId",
          "type": "uint256"
        }
      ],
      "name": "canExecute",
      "outputs": [
        {
          "internalType": "bool",
          "name": "",
          "type": "bool"
        }
      ],
      "stateMutability": "view",
      "type": "function"
    },
    {
      "inputs": [
        {
          "internalType": "bytes32",
          "name": "actionId",
          "type": "bytes32"
        },
        {
          "internalType": "address",
          "name": "account",
          "type": "address"
        },
        {
          "internalType": "address",
          "name": "where",
          "type": "address"
        }
      ],
      "name": "canPerform",
      "outputs": [
        {
          "internalType": "bool",
          "name": "",
          "type": "bool"
        }
      ],
      "stateMutability": "view",
      "type": "function"
    },
    {
      "inputs": [
        {
          "internalType": "uint256",
          "name": "scheduledExecutionId",
          "type": "uint256"
        }
      ],
      "name": "cancel",
      "outputs": [],
      "stateMutability": "nonpayable",
      "type": "function"
    },
    {
      "inputs": [],
      "name": "claimRoot",
      "outputs": [],
      "stateMutability": "nonpayable",
      "type": "function"
    },
    {
      "inputs": [
        {
          "internalType": "uint256",
          "name": "scheduledExecutionId",
          "type": "uint256"
        }
      ],
      "name": "execute",
      "outputs": [
        {
          "internalType": "bytes",
          "name": "result",
          "type": "bytes"
        }
      ],
      "stateMutability": "nonpayable",
      "type": "function"
    },
    {
      "inputs": [
        {
          "internalType": "bytes32",
          "name": "actionId",
          "type": "bytes32"
        }
      ],
      "name": "getActionIdDelay",
      "outputs": [
        {
          "internalType": "uint256",
          "name": "",
          "type": "uint256"
        }
      ],
      "stateMutability": "view",
      "type": "function"
    },
    {
      "inputs": [
        {
          "internalType": "bytes32",
          "name": "actionId",
          "type": "bytes32"
        }
      ],
      "name": "getActionIdGrantDelay",
      "outputs": [
        {
          "internalType": "uint256",
          "name": "",
          "type": "uint256"
        }
      ],
      "stateMutability": "view",
      "type": "function"
    },
    {
      "inputs": [
        {
          "internalType": "bytes32",
          "name": "actionId",
          "type": "bytes32"
        }
      ],
      "name": "getActionIdRevokeDelay",
      "outputs": [
        {
          "internalType": "uint256",
          "name": "",
          "type": "uint256"
        }
      ],
      "stateMutability": "view",
      "type": "function"
    },
    {
      "inputs": [],
      "name": "getPendingRoot",
      "outputs": [
        {
          "internalType": "address",
          "name": "",
          "type": "address"
        }
      ],
      "stateMutability": "view",
      "type": "function"
    },
    {
      "inputs": [],
      "name": "getRoot",
      "outputs": [
        {
          "internalType": "address",
          "name": "",
          "type": "address"
        }
      ],
      "stateMutability": "view",
      "type": "function"
    },
    {
      "inputs": [],
      "name": "getRootTransferDelay",
      "outputs": [
        {
          "internalType": "uint256",
          "name": "",
          "type": "uint256"
        }
      ],
      "stateMutability": "view",
      "type": "function"
    },
    {
      "inputs": [
        {
          "internalType": "uint256",
          "name": "scheduledExecutionId",
          "type": "uint256"
        }
      ],
      "name": "getScheduledExecution",
      "outputs": [
        {
          "components": [
            {
              "internalType": "address",
              "name": "where",
              "type": "address"
            },
            {
              "internalType": "bytes",
              "name": "data",
              "type": "bytes"
            },
            {
              "internalType": "bool",
              "name": "executed",
              "type": "bool"
            },
            {
              "internalType": "bool",
              "name": "canceled",
              "type": "bool"
            },
            {
              "internalType": "bool",
              "name": "protected",
              "type": "bool"
            },
            {
              "internalType": "uint256",
              "name": "executableAt",
              "type": "uint256"
            },
            {
              "internalType": "address",
              "name": "scheduledBy",
              "type": "address"
            },
            {
              "internalType": "uint256",
              "name": "scheduledAt",
              "type": "uint256"
            },
            {
              "internalType": "address",
              "name": "executedBy",
              "type": "address"
            },
            {
              "internalType": "uint256",
              "name": "executedAt",
              "type": "uint256"
            },
            {
              "internalType": "address",
              "name": "canceledBy",
              "type": "address"
            },
            {
              "internalType": "uint256",
              "name": "canceledAt",
              "type": "uint256"
            }
          ],
          "internalType": "struct ITimelockAuthorizer.ScheduledExecution",
          "name": "",
          "type": "tuple"
        }
      ],
      "stateMutability": "view",
      "type": "function"
    },
    {
      "inputs": [
        {
          "internalType": "uint256",
          "name": "skip",
          "type": "uint256"
        },
        {
          "internalType": "uint256",
          "name": "maxSize",
          "type": "uint256"
        },
        {
          "internalType": "bool",
          "name": "reverseOrder",
          "type": "bool"
        }
      ],
      "name": "getScheduledExecutions",
      "outputs": [
        {
          "components": [
            {
              "internalType": "address",
              "name": "where",
              "type": "address"
            },
            {
              "internalType": "bytes",
              "name": "data",
              "type": "bytes"
            },
            {
              "internalType": "bool",
              "name": "executed",
              "type": "bool"
            },
            {
              "internalType": "bool",
              "name": "canceled",
              "type": "bool"
            },
            {
              "internalType": "bool",
              "name": "protected",
              "type": "bool"
            },
            {
              "internalType": "uint256",
              "name": "executableAt",
              "type": "uint256"
            },
            {
              "internalType": "address",
              "name": "scheduledBy",
              "type": "address"
            },
            {
              "internalType": "uint256",
              "name": "scheduledAt",
              "type": "uint256"
            },
            {
              "internalType": "address",
              "name": "executedBy",
              "type": "address"
            },
            {
              "internalType": "uint256",
              "name": "executedAt",
              "type": "uint256"
            },
            {
              "internalType": "address",
              "name": "canceledBy",
              "type": "address"
            },
            {
              "internalType": "uint256",
              "name": "canceledAt",
              "type": "uint256"
            }
          ],
          "internalType": "struct ITimelockAuthorizer.ScheduledExecution[]",
          "name": "",
          "type": "tuple[]"
        }
      ],
      "stateMutability": "view",
      "type": "function"
    },
    {
      "inputs": [],
      "name": "getScheduledExecutionsCount",
      "outputs": [
        {
          "internalType": "uint256",
          "name": "",
          "type": "uint256"
        }
      ],
      "stateMutability": "view",
      "type": "function"
    },
    {
      "inputs": [],
      "name": "getTimelockExecutionHelper",
      "outputs": [
        {
          "internalType": "address",
          "name": "",
          "type": "address"
        }
      ],
      "stateMutability": "view",
      "type": "function"
    },
    {
      "inputs": [],
      "name": "getVault",
      "outputs": [
        {
          "internalType": "address",
          "name": "",
          "type": "address"
        }
      ],
      "stateMutability": "view",
      "type": "function"
    },
    {
      "inputs": [
        {
          "internalType": "bytes32",
          "name": "actionId",
          "type": "bytes32"
        },
        {
          "internalType": "address",
          "name": "account",
          "type": "address"
        },
        {
          "internalType": "address",
          "name": "where",
          "type": "address"
        }
      ],
      "name": "grantPermission",
      "outputs": [],
      "stateMutability": "nonpayable",
      "type": "function"
    },
    {
      "inputs": [
        {
          "internalType": "bytes32",
          "name": "actionId",
          "type": "bytes32"
        },
        {
          "internalType": "address",
          "name": "account",
          "type": "address"
        },
        {
          "internalType": "address",
          "name": "where",
          "type": "address"
        }
      ],
      "name": "hasPermission",
      "outputs": [
        {
          "internalType": "bool",
          "name": "",
          "type": "bool"
        }
      ],
      "stateMutability": "view",
      "type": "function"
    },
    {
      "inputs": [
        {
          "internalType": "uint256",
          "name": "scheduledExecutionId",
          "type": "uint256"
        },
        {
          "internalType": "address",
          "name": "account",
          "type": "address"
        }
      ],
      "name": "isCanceler",
      "outputs": [
        {
          "internalType": "bool",
          "name": "",
          "type": "bool"
        }
      ],
      "stateMutability": "view",
      "type": "function"
    },
    {
      "inputs": [
        {
          "internalType": "uint256",
          "name": "scheduledExecutionId",
          "type": "uint256"
        },
        {
          "internalType": "address",
          "name": "account",
          "type": "address"
        }
      ],
      "name": "isExecutor",
      "outputs": [
        {
          "internalType": "bool",
          "name": "",
          "type": "bool"
        }
      ],
      "stateMutability": "view",
      "type": "function"
    },
    {
      "inputs": [
        {
          "internalType": "bytes32",
          "name": "actionId",
          "type": "bytes32"
        },
        {
          "internalType": "address",
          "name": "account",
          "type": "address"
        },
        {
          "internalType": "address",
          "name": "where",
          "type": "address"
        }
      ],
      "name": "isGranter",
      "outputs": [
        {
          "internalType": "bool",
          "name": "",
          "type": "bool"
        }
      ],
      "stateMutability": "view",
      "type": "function"
    },
    {
      "inputs": [
        {
          "internalType": "address",
          "name": "account",
          "type": "address"
        }
      ],
      "name": "isPendingRoot",
      "outputs": [
        {
          "internalType": "bool",
          "name": "",
          "type": "bool"
        }
      ],
      "stateMutability": "view",
      "type": "function"
    },
    {
      "inputs": [
        {
          "internalType": "bytes32",
          "name": "actionId",
          "type": "bytes32"
        },
        {
          "internalType": "address",
          "name": "account",
          "type": "address"
        },
        {
          "internalType": "address",
          "name": "where",
          "type": "address"
        }
      ],
      "name": "isPermissionGrantedOnTarget",
      "outputs": [
        {
          "internalType": "bool",
          "name": "",
          "type": "bool"
        }
      ],
      "stateMutability": "view",
      "type": "function"
    },
    {
      "inputs": [
        {
          "internalType": "address",
          "name": "account",
          "type": "address"
        },
        {
          "internalType": "address",
          "name": "where",
          "type": "address"
        }
      ],
      "name": "isRevoker",
      "outputs": [
        {
          "internalType": "bool",
          "name": "",
          "type": "bool"
        }
      ],
      "stateMutability": "view",
      "type": "function"
    },
    {
      "inputs": [
        {
          "internalType": "address",
          "name": "account",
          "type": "address"
        }
      ],
      "name": "isRoot",
      "outputs": [
        {
          "internalType": "bool",
          "name": "",
          "type": "bool"
        }
      ],
      "stateMutability": "view",
      "type": "function"
    },
    {
      "inputs": [
        {
          "internalType": "uint256",
          "name": "scheduledExecutionId",
          "type": "uint256"
        },
        {
          "internalType": "address",
          "name": "account",
          "type": "address"
        }
      ],
      "name": "removeCanceler",
      "outputs": [],
      "stateMutability": "nonpayable",
      "type": "function"
    },
    {
      "inputs": [
        {
          "internalType": "bytes32",
          "name": "actionId",
          "type": "bytes32"
        },
        {
          "internalType": "address",
          "name": "account",
          "type": "address"
        },
        {
          "internalType": "address",
          "name": "where",
          "type": "address"
        }
      ],
      "name": "removeGranter",
      "outputs": [],
      "stateMutability": "nonpayable",
      "type": "function"
    },
    {
      "inputs": [
        {
          "internalType": "address",
          "name": "account",
          "type": "address"
        },
        {
          "internalType": "address",
          "name": "where",
          "type": "address"
        }
      ],
      "name": "removeRevoker",
      "outputs": [],
      "stateMutability": "nonpayable",
      "type": "function"
    },
    {
      "inputs": [
        {
          "internalType": "bytes32",
          "name": "actionId",
          "type": "bytes32"
        },
        {
          "internalType": "address",
          "name": "where",
          "type": "address"
        }
      ],
      "name": "renouncePermission",
      "outputs": [],
      "stateMutability": "nonpayable",
      "type": "function"
    },
    {
      "inputs": [
        {
          "internalType": "bytes32",
          "name": "actionId",
          "type": "bytes32"
        },
        {
          "internalType": "address",
          "name": "account",
          "type": "address"
        },
        {
          "internalType": "address",
          "name": "where",
          "type": "address"
        }
      ],
      "name": "revokePermission",
      "outputs": [],
      "stateMutability": "nonpayable",
      "type": "function"
    },
    {
      "inputs": [
        {
          "internalType": "address",
          "name": "where",
          "type": "address"
        },
        {
          "internalType": "bytes",
          "name": "data",
          "type": "bytes"
        },
        {
          "internalType": "address[]",
          "name": "executors",
          "type": "address[]"
        }
      ],
      "name": "schedule",
      "outputs": [
        {
          "internalType": "uint256",
          "name": "",
          "type": "uint256"
        }
      ],
      "stateMutability": "nonpayable",
      "type": "function"
    },
    {
      "inputs": [
        {
          "internalType": "bytes32",
          "name": "actionId",
          "type": "bytes32"
        },
        {
          "internalType": "uint256",
          "name": "newDelay",
          "type": "uint256"
        },
        {
          "internalType": "address[]",
          "name": "executors",
          "type": "address[]"
        }
      ],
      "name": "scheduleDelayChange",
      "outputs": [
        {
          "internalType": "uint256",
          "name": "",
          "type": "uint256"
        }
      ],
      "stateMutability": "nonpayable",
      "type": "function"
    },
    {
      "inputs": [
        {
          "internalType": "bytes32",
          "name": "actionId",
          "type": "bytes32"
        },
        {
          "internalType": "uint256",
          "name": "newDelay",
          "type": "uint256"
        },
        {
          "internalType": "address[]",
          "name": "executors",
          "type": "address[]"
        }
      ],
      "name": "scheduleGrantDelayChange",
      "outputs": [
        {
          "internalType": "uint256",
          "name": "",
          "type": "uint256"
        }
      ],
      "stateMutability": "nonpayable",
      "type": "function"
    },
    {
      "inputs": [
        {
          "internalType": "bytes32",
          "name": "actionId",
          "type": "bytes32"
        },
        {
          "internalType": "address",
          "name": "account",
          "type": "address"
        },
        {
          "internalType": "address",
          "name": "where",
          "type": "address"
        },
        {
          "internalType": "address[]",
          "name": "executors",
          "type": "address[]"
        }
      ],
      "name": "scheduleGrantPermission",
      "outputs": [
        {
          "internalType": "uint256",
          "name": "",
          "type": "uint256"
        }
      ],
      "stateMutability": "nonpayable",
      "type": "function"
    },
    {
      "inputs": [
        {
          "internalType": "bytes32",
          "name": "actionId",
          "type": "bytes32"
        },
        {
          "internalType": "uint256",
          "name": "newDelay",
          "type": "uint256"
        },
        {
          "internalType": "address[]",
          "name": "executors",
          "type": "address[]"
        }
      ],
      "name": "scheduleRevokeDelayChange",
      "outputs": [
        {
          "internalType": "uint256",
          "name": "",
          "type": "uint256"
        }
      ],
      "stateMutability": "nonpayable",
      "type": "function"
    },
    {
      "inputs": [
        {
          "internalType": "bytes32",
          "name": "actionId",
          "type": "bytes32"
        },
        {
          "internalType": "address",
          "name": "account",
          "type": "address"
        },
        {
          "internalType": "address",
          "name": "where",
          "type": "address"
        },
        {
          "internalType": "address[]",
          "name": "executors",
          "type": "address[]"
        }
      ],
      "name": "scheduleRevokePermission",
      "outputs": [
        {
          "internalType": "uint256",
          "name": "",
          "type": "uint256"
        }
      ],
      "stateMutability": "nonpayable",
      "type": "function"
    },
    {
      "inputs": [
        {
          "internalType": "address",
          "name": "newRoot",
          "type": "address"
        },
        {
          "internalType": "address[]",
          "name": "executors",
          "type": "address[]"
        }
      ],
      "name": "scheduleRootChange",
      "outputs": [
        {
          "internalType": "uint256",
          "name": "",
          "type": "uint256"
        }
      ],
      "stateMutability": "nonpayable",
      "type": "function"
    },
    {
      "inputs": [
        {
          "internalType": "bytes32",
          "name": "actionId",
          "type": "bytes32"
        },
        {
          "internalType": "uint256",
          "name": "delay",
          "type": "uint256"
        }
      ],
      "name": "setDelay",
      "outputs": [],
      "stateMutability": "nonpayable",
      "type": "function"
    },
    {
      "inputs": [
        {
          "internalType": "bytes32",
          "name": "actionId",
          "type": "bytes32"
        },
        {
          "internalType": "uint256",
          "name": "delay",
          "type": "uint256"
        }
      ],
      "name": "setGrantDelay",
      "outputs": [],
      "stateMutability": "nonpayable",
      "type": "function"
    },
    {
      "inputs": [
        {
          "internalType": "address",
          "name": "pendingRoot",
          "type": "address"
        }
      ],
      "name": "setPendingRoot",
      "outputs": [],
      "stateMutability": "nonpayable",
      "type": "function"
    },
    {
      "inputs": [
        {
          "internalType": "bytes32",
          "name": "actionId",
          "type": "bytes32"
        },
        {
          "internalType": "uint256",
          "name": "delay",
          "type": "uint256"
        }
      ],
      "name": "setRevokeDelay",
      "outputs": [],
      "stateMutability": "nonpayable",
      "type": "function"
    }
  ],
  "bytecode": "0x6101406040523480156200001257600080fd5b50604051620049c8380380620049c8833981016040819052620000359162000366565b8383836001600160a01b0316638d928af86040518163ffffffff1660e01b815260040160206040518083038186803b1580156200007157600080fd5b505afa15801562000086573d6000803e3d6000fd5b505050506040513d601f19601f82011682018060405250810190620000ac9190620003d8565b83620000b884620002c6565b620000c3836200030e565b6001600160601b0319606083901b1660a052604051620000e39062000358565b604051809103906000f08015801562000100573d6000803e3d6000fd5b5060601b6001600160601b03191660805260c05250506040805163e758d36b60e01b815290516001600160a01b038516925063e758d36b91600480820192602092909190829003018186803b1580156200015957600080fd5b505afa1580156200016e573d6000803e3d6000fd5b505050506040513d601f19601f82011682018060405250810190620001949190620003d8565b6001600160601b0319606091821b8116610100529083901b1660e052604080516311b2515f60e31b815290516001600160a01b03841691638d928af8916004808301926020929190829003018186803b158015620001f157600080fd5b505afa15801562000206573d6000803e3d6000fd5b505050506040513d601f19601f820116820180604052508101906200022c9190620003d8565b60405163851c1bb360e01b81526001600160a01b03919091169063851c1bb390620002639063058a628f60e01b90600401620003fe565b60206040518083038186803b1580156200027c57600080fd5b505afa15801562000291573d6000803e3d6000fd5b505050506040513d601f19601f82011682018060405250810190620002b79190620003bf565b61012052506200042c92505050565b600080546001600160a01b0319166001600160a01b038316908117825560405190917f39510b933a9d010f906528d6019d3f4e2450a10dc33b10887503b31ed82f111191a250565b600180546001600160a01b0319166001600160a01b0383169081179091556040517f566fe119ff450afc2580186c62762b6c1258245c8b1b6bb095e7276eb5a75b5590600090a250565b6104ef80620044d983390190565b600080600080608085870312156200037c578384fd5b8451620003898162000413565b60208601519094506200039c8162000413565b6040860151909350620003af8162000413565b6060959095015193969295505050565b600060208284031215620003d1578081fd5b5051919050565b600060208284031215620003ea578081fd5b8151620003f78162000413565b9392505050565b6001600160e01b031991909116815260200190565b6001600160a01b03811681146200042957600080fd5b50565b60805160601c60a05160601c60c05160e05160601c6101005160601c61012051614039620004a0600039806124f852806127ea5250806119bc5250806119e4525080611d195250806118385250806106e15280610a955280610ac25280611dc552806124b9528061271a52506140396000f3fe608060405234801561001057600080fd5b50600436106103205760003560e01c80638bd6bbc9116101a7578063c284b6b9116100ee578063e4c00f4f11610097578063f23481e011610071578063f23481e01461065a578063f6ebcbaf14610662578063fe0d94c11461067557610320565b8063e4c00f4f14610614578063f084552214610634578063f0bb94061461064757610320565b8063cc63604a116100c8578063cc63604a146105e6578063d00bef4d146105f9578063e2b4146b1461060157610320565b8063c284b6b9146105b8578063c6192ee3146105c0578063c80c23e1146105d357610320565b80639be2a88411610150578063b1e31aa01161012a578063b1e31aa01461058a578063b3eb281d14610592578063b99db526146105a557610320565b80639be2a88414610551578063a44495d114610564578063a8eae12d1461057757610320565b8063902168121161018157806390216812146105235780639299942e1461053657806399a7f6e21461053e57610320565b80638bd6bbc9146104f55780638cc3d072146105085780638d928af81461051b57610320565b806340e58ee51161026b57806362cde1ba1161021457806372efb120116101ee57806372efb120146104bc578063863bac6b146104cf57806386ff254b146104e257610320565b806362cde1ba1461048157806363cdbf36146104895780636badd2ab1461049c57610320565b80635b78b780116102455780635b78b780146104535780635ca1e16514610466578063608dd7e41461046e57610320565b806340e58ee5146104255780634125ff9014610438578063557a64031461044057610320565b80631b3c85eb116102cd5780633ac5d439116102a75780633ac5d439146103ec5780633bf46797146103ff5780633e1df46d1461041257610320565b80631b3c85eb146103b35780632229edb4146103c65780632e3ed05b146103d957610320565b806314ea35e7116102fe57806314ea35e714610376578063169f14681461037e57806318ef871a1461039e57610320565b806304434606146103255780630df322a61461034e57806310d3ab2c14610361575b600080fd5b6103386103333660046131b2565b610695565b60405161034591906135cd565b60405180910390f35b61033861035c366004613033565b6106c2565b61037461036f36600461327a565b6106d6565b005b61037461079b565b61039161038c3660046130cf565b6107dc565b6040516103459190613f73565b6103a6610a93565b60405161034591906134a0565b6103746103c1366004613033565b610ab7565b6103746103d43660046131d5565b610b08565b6103916103e7366004613082565b610bc0565b6103746103fa3660046131d5565b610cb9565b61039161040d366004613182565b610d3f565b6103386104203660046131b2565b610d51565b610374610433366004613182565b610dc3565b610391610f0a565b61033861044e366004613033565b610f12565b610391610461366004613212565b610f26565b6103a6611079565b61039161047c36600461329b565b611088565b6103a66111b8565b61039161049736600461329b565b6111dc565b6104af6104aa366004613182565b61130c565b6040516103459190613f60565b6103746104ca3660046131b2565b611494565b6103916104dd366004613212565b6115be565b6103386104f03660046131d5565b6116e7565b610391610503366004613182565b61171a565b6103746105163660046131d5565b61172c565b6103a6611836565b61037461053136600461304e565b61185a565b6103916111b8565b61037461054c3660046131b2565b6119a0565b61033861055f3660046131d5565b6119af565b61037461057236600461304e565b611a66565b6103746105853660046131d5565b611b0f565b610391611c6e565b6103386105a03660046131d5565b611c75565b6103916105b3366004613182565b611d05565b610391611d17565b6103386105ce36600461304e565b611d3b565b6103746105e136600461327a565b611dba565b6103386105f4366004613182565b611e6a565b6103a6611ee3565b61033861060f3660046131d5565b611ef2565b610627610622366004613352565b611f7a565b604051610345919061354f565b61039161064236600461329b565b61237e565b61037461065536600461327a565b6124ae565b610391612585565b6103746106703660046131b2565b61258b565b610688610683366004613182565b6125ba565b6040516103459190613632565b60008281526002602090815260408083206001600160a01b038516845290915290205460ff165b92915050565b6001546001600160a01b0390811691161490565b336001600160a01b037f000000000000000000000000000000000000000000000000000000000000000016146107275760405162461bcd60e51b815260040161071e90613d71565b60405180910390fd5b610730816127e8565b61074c5760405162461bcd60e51b815260040161071e90613849565b600082815260076020526040908190208290555182907f6922a4f4deeb55fdca50df28a72475aa87f9f1377ed93a95842ce8bc69dc01e89061078f908490613f73565b60405180910390a25050565b6001546001600160a01b03163381146107c65760405162461bcd60e51b815260040161071e90613bf0565b6107cf8161281d565b6107d9600061287d565b50565b60006001600160a01b0384163014156108075760405162461bcd60e51b815260040161071e9061377e565b61080f610a93565b6001600160a01b0316846001600160a01b031614156108405760405162461bcd60e51b815260040161071e90613645565b6004835110156108625760405162461bcd60e51b815260040161071e90613a01565b600060188460038151811061087357fe5b016020015185517fff0000000000000000000000000000000000000000000000000000000000000090911690911c90601090869060029081106108b257fe5b016020015186517fff0000000000000000000000000000000000000000000000000000000000000090911690911c90600890879060019081106108f157fe5b016020015187517fff0000000000000000000000000000000000000000000000000000000000000090911690911c90879060009061092b57fe5b602001015160f81c60f81b7effffffffffffffffffffffffffffffffffffffffffffffffffffffffffffff191617171790506000856001600160a01b031663851c1bb3836040518263ffffffff1660e01b815260040161098b9190613605565b60206040518083038186803b1580156109a357600080fd5b505afa1580156109b7573d6000803e3d6000fd5b505050506040513d601f19601f820116820180604052508101906109db919061319a565b90506109e8813388611ef2565b610a045760405162461bcd60e51b815260040161071e90613a38565b6000818152600a602052604090205480610a305760405162461bcd60e51b815260040161071e90613a6f565b6000610a3e888884896128df565b905080837f26ce5ffb7ab1ce72d9ca4a3e4f906d2b99194d6c53dd9832fd7a59d0b2fc6bed60405160405180910390a3610a788133610d51565b610a8657610a868133612c37565b93505050505b9392505050565b7f000000000000000000000000000000000000000000000000000000000000000090565b336001600160a01b037f00000000000000000000000000000000000000000000000000000000000000001614610aff5760405162461bcd60e51b815260040161071e90613d71565b6107d98161287d565b610b1133610f12565b610b2d5760405162461bcd60e51b815260040161071e90613b14565b610b38838383611c75565b15610b555760405162461bcd60e51b815260040161071e90613880565b60008381526003602090815260408083206001600160a01b038087168086529184528285209086168086529352818420805460ff1916600117905590519192909186917f2d106cf4379aad979c25af765e6f7169b732d4c4660e41aa733a150c7fc0a6f791a4505050565b6000610bcb33610f12565b610be75760405162461bcd60e51b815260040161071e90613b14565b6060631b3c85eb60e01b84604051602401610c0291906134a0565b60408051601f198184030181529190526020810180517bffffffffffffffffffffffffffffffffffffffffffffffffffffffff167fffffffff000000000000000000000000000000000000000000000000000000009093169290921790915290506000610c783083610c72611d17565b876128df565b905080856001600160a01b03167f7de09ff5f925ca34a396df31b30cdbdd0cd10b88833b4f7334cecc02454c1be760405160405180910390a3949350505050565b600083815260086020526040902054610cf757610cd63382611d3b565b610cf25760405162461bcd60e51b815260040161071e90613add565b610d2f565b610cff610a93565b6001600160a01b0316336001600160a01b031614610d2f5760405162461bcd60e51b815260040161071e90613bb9565b610d3a838383612d47565b505050565b6000908152600a602052604090205490565b60008281526005602090815260408083206001600160a01b038516845290915281205460ff1680610db4575060056000610d896111b8565b8152602080820192909252604090810160009081206001600160a01b038616825290925290205460ff165b80610a8c5750610a8c82610f12565b6006548110610de45760405162461bcd60e51b815260040161071e906136a2565b600060068281548110610df357fe5b60009182526020909120600a90910201600281015490915060ff1615610e2b5760405162461bcd60e51b815260040161071e90613d3a565b6002810154610100900460ff1615610e555760405162461bcd60e51b815260040161071e90613993565b610e5f8233610d51565b610e7b5760405162461bcd60e51b815260040161071e90613f29565b6002810180547fffffffffffffffffffffffffffffffffffffffffffffffffffffffffffff00ff166101001790556008810180547fffffffffffffffffffffffff0000000000000000000000000000000000000000163317905542600982015560405182907fe48f88ceada5a6ddb8ded9b5e457cb802e319a647eec8ff1f2a0512c0a741ed990600090a25050565b6303c2670090565b6000546001600160a01b0390811691161490565b6000610f323384611d3b565b610f4e5760405162461bcd60e51b815260040161071e90613add565b60008581526008602052604090205480610f7a5760405162461bcd60e51b815260040161071e90613c95565b6060633ac5d43960e01b878787604051602401610f99939291906135d8565b60408051601f198184030181529190526020810180517bffffffffffffffffffffffffffffffffffffffffffffffffffffffff167fffffffff000000000000000000000000000000000000000000000000000000009093169290921790915290506000611008308385886128df565b9050856001600160a01b0316876001600160a01b0316897f645fdc5699106b1dffda57f54fdcca22ad57d87f0afd651edf857af3bfbd87848460405161104e9190613f73565b60405180910390a46110608133610d51565b61106e5761106e8133612c37565b979650505050505050565b6000546001600160a01b031690565b600061109333610f12565b6110af5760405162461bcd60e51b815260040161071e90613b14565b6110b7610f0a565b8311156110d65760405162461bcd60e51b815260040161071e90613c5e565b6000848152600860205260408120546110ef9085612e5b565b9050606063c80c23e160e01b868660405160240161110e9291906135f7565b60408051601f198184030181529190526020810180517bffffffffffffffffffffffffffffffffffffffffffffffffffffffff167fffffffff00000000000000000000000000000000000000000000000000000000909316929092179091529050600061117d308385886128df565b90508086887f2f330faf5e23fc7ff1c46f2b1a3299d86249055a5bf74a8b747ab7fb66f6dc9f60405160405180910390a49695505050505050565b7fffffffffffffffffffffffffffffffffffffffffffffffffffffffffffffffff90565b60006111e733610f12565b6112035760405162461bcd60e51b815260040161071e90613b14565b61120b610f0a565b83111561122a5760405162461bcd60e51b815260040161071e90613c5e565b6000848152600760205260408120546112439085612e5b565b905060606310d3ab2c60e01b86866040516024016112629291906135f7565b60408051601f198184030181529190526020810180517bffffffffffffffffffffffffffffffffffffffffffffffffffffffff167fffffffff0000000000000000000000000000000000000000000000000000000090931692909217909152905060006112d1308385886128df565b90508086887f3d8c3ad02346a1ddf099dd26578662fb8cf85903168ebfeb1f14473fed8ee48860405160405180910390a49695505050505050565b611314612e9c565b6006828154811061132157fe5b60009182526020918290206040805161018081018252600a90930290910180546001600160a01b03168352600180820180548451601f60027fffffffffffffffffffffffffffffffffffffffffffffffffffffffffffffffff95841615610100029590950190921693909304908101879004870283018701909452838252939491938583019391929091908301828280156113fd5780601f106113d2576101008083540402835291602001916113fd565b820191906000526020600020905b8154815290600101906020018083116113e057829003601f168201915b5050509183525050600282015460ff808216151560208401526101008083048216151560408501526201000090920416151560608301526003830154608083015260048301546001600160a01b0390811660a0840152600584015460c08401526006840154811660e08401526007840154918301919091526008830154166101208201526009909101546101409091015292915050565b61149d33610f12565b6114b95760405162461bcd60e51b815260040161071e90613b14565b6114c281610f12565b156114df5760405162461bcd60e51b815260040161071e906136d9565b6114e98282610d51565b6115055760405162461bcd60e51b815260040161071e90613ddf565b600560006115116111b8565b8152602080820192909252604090810160009081206001600160a01b038516825290925290205460ff1615611566576115486111b8565b82146115665760405162461bcd60e51b815260040161071e90613da8565b60008281526005602090815260408083206001600160a01b0385168085529252808320805460ff1916905551909184917fd6b522eb4b505a0843020e304ba27d827b52c89347e6176b2f2737e6e4015c2d9190a35050565b60006115cb853385611c75565b6115e75760405162461bcd60e51b815260040161071e906137db565b600085815260076020526040902054806116135760405162461bcd60e51b815260040161071e9061395c565b6060638cc3d07260e01b878787604051602401611632939291906135d8565b60408051601f198184030181529190526020810180517bffffffffffffffffffffffffffffffffffffffffffffffffffffffff167fffffffff0000000000000000000000000000000000000000000000000000000090931692909217909152905060006116a1308385886128df565b9050856001600160a01b0316876001600160a01b0316897f185f04ff33c89687859342776c7fdcf04d9eb9444d65192bfebab5a5ac9874a88460405161104e9190613f73565b60009283526009602090815260408085206001600160a01b03948516865282528085209290931684525290205460ff1690565b60009081526007602052604090205490565b60008381526007602052604090205461176b5761174a833383611c75565b6117665760405162461bcd60e51b815260040161071e906137db565b6117a3565b611773610a93565b6001600160a01b0316336001600160a01b0316146117a35760405162461bcd60e51b815260040161071e90613e16565b6117ae838383611ef2565b156117cb5760405162461bcd60e51b815260040161071e90613747565b60008381526009602090815260408083206001600160a01b038087168086529184528285209086168086529352818420805460ff1916600117905590519192909186917fef6ee312a0062a24a46be2eba5284183a87ff848110e8d4df979bd690d9e9f6891a4505050565b7f000000000000000000000000000000000000000000000000000000000000000090565b61186333610f12565b61187f5760405162461bcd60e51b815260040161071e90613b14565b6118898282611d3b565b6118a55760405162461bcd60e51b815260040161071e90613e4d565b6118ae82610f12565b156118cb5760405162461bcd60e51b815260040161071e90613b4b565b6001600160a01b0382166000908152600460205260408120906118ec6111b8565b6001600160a01b0316815260208101919091526040016000205460ff1615611946576119166111b8565b6001600160a01b0316816001600160a01b0316146119465760405162461bcd60e51b815260040161071e90613aa6565b6001600160a01b03808316600081815260046020908152604080832094861680845294909152808220805460ff19169055517fb6fe3ab11eb9ab1d9f1d41c8f42a5d72d10122099ba1548e4a6d1a4d8cefec4b9190a35050565b6119ab823383612d47565b5050565b6000336001600160a01b037f0000000000000000000000000000000000000000000000000000000000000000161415611a1e577f00000000000000000000000000000000000000000000000000000000000000006001600160a01b0316836001600160a01b0316149050610a8c565b6000848152600a602052604090205415611a5357611a3a610a93565b6001600160a01b0316836001600160a01b031614611a5e565b611a5e848484611ef2565b949350505050565b611a6f33610f12565b611a8b5760405162461bcd60e51b815260040161071e90613b14565b611a958282611d3b565b15611ab25760405162461bcd60e51b815260040161071e90613ef2565b6001600160a01b03808316600081815260046020908152604080832094861680845294909152808220805460ff19166001179055517f2b5f18afd9a7b21f41bf023b012b3d4c8a22a21b79fa425cd4494ecbe29701969190a35050565b611b1833610f12565b611b345760405162461bcd60e51b815260040161071e90613b14565b611b3f838383611c75565b611b5b5760405162461bcd60e51b815260040161071e90613d03565b611b6482610f12565b15611b815760405162461bcd60e51b815260040161071e90613ebb565b60008381526003602090815260408083206001600160a01b0386168452909152812090611bac6111b8565b6001600160a01b0316815260208101919091526040016000205460ff1615611c0657611bd66111b8565b6001600160a01b0316816001600160a01b031614611c065760405162461bcd60e51b815260040161071e90613710565b60008381526003602090815260408083206001600160a01b038087168086529184528285209086168086529352818420805460ff1916905590519192909186917ff8034293d5b4ed16b867ded8f122c475bc0d1b6bd9309a606609a754e5f3adc391a4505050565b6206978090565b60008381526003602090815260408083206001600160a01b038087168552908352818420908516845290915281205460ff1680611cf6575060008481526003602090815260408083206001600160a01b0387168452909152812090611cd86111b8565b6001600160a01b0316815260208101919091526040016000205460ff165b80611a5e5750611a5e83610f12565b60009081526008602052604090205490565b7f000000000000000000000000000000000000000000000000000000000000000090565b6001600160a01b03808316600090815260046020908152604080832093851683529290529081205460ff1680611dab57506001600160a01b038316600090815260046020526040812090611d8d6111b8565b6001600160a01b0316815260208101919091526040016000205460ff165b80610a8c5750610a8c83610f12565b336001600160a01b037f00000000000000000000000000000000000000000000000000000000000000001614611e025760405162461bcd60e51b815260040161071e90613d71565b611e0b816127e8565b611e275760405162461bcd60e51b815260040161071e90613849565b600082815260086020526040908190208290555182907f6aeebd84e31437f28a17927609991676c31c2b84875c601373da2c194e9d23419061078f908490613f73565b6006546000908210611e8e5760405162461bcd60e51b815260040161071e906136a2565b600060068381548110611e9d57fe5b60009182526020909120600a90910201600281015490915060ff16158015611ecf57506002810154610100900460ff16155b8015610a8c57506003015442101592915050565b6001546001600160a01b031690565b60008381526009602090815260408083206001600160a01b038087168552908352818420908516845290915281205460ff1680611a5e575060008481526009602090815260408083206001600160a01b0387168452909152812090611f556111b8565b6001600160a01b0316815260208101919091526040016000205460ff16949350505050565b6006546060908410611f9e5760405162461bcd60e51b815260040161071e90613925565b60008311611fbe5760405162461bcd60e51b815260040161071e90613ccc565b6006548490036000611fd08286612e84565b905060608167ffffffffffffffff81118015611feb57600080fd5b5060405190808252806020026020018201604052801561202557816020015b612012612e9c565b81526020019060019003908161200a5790505b50905060005b8281101561237357856121d25760068189018154811061204757fe5b60009182526020918290206040805161018081018252600a90930290910180546001600160a01b03168352600180820180548451601f60027fffffffffffffffffffffffffffffffffffffffffffffffffffffffffffffffff95841615610100029590950190921693909304908101879004870283018701909452838252939491938583019391929091908301828280156121235780601f106120f857610100808354040283529160200191612123565b820191906000526020600020905b81548152906001019060200180831161210657829003601f168201915b5050509183525050600282015460ff808216151560208401526101008083048216151560408501526201000090920416151560608301526003830154608083015260048301546001600160a01b0390811660a0840152600584015460c08401526006840154811660e08401526007840154918301919091526008830154166101208201526009909101546101409091015282518390839081106121c257fe5b602002602001018190525061236b565b6006816001860303815481106121e457fe5b60009182526020918290206040805161018081018252600a90930290910180546001600160a01b03168352600180820180548451601f60027fffffffffffffffffffffffffffffffffffffffffffffffffffffffffffffffff95841615610100029590950190921693909304908101879004870283018701909452838252939491938583019391929091908301828280156122c05780601f10612295576101008083540402835291602001916122c0565b820191906000526020600020905b8154815290600101906020018083116122a357829003601f168201915b5050509183525050600282015460ff808216151560208401526101008083048216151560408501526201000090920416151560608301526003830154608083015260048301546001600160a01b0390811660a0840152600584015460c08401526006840154811660e084015260078401549183019190915260088301541661012082015260099091015461014090910152825183908390811061235f57fe5b60200260200101819052505b60010161202b565b509695505050505050565b600061238933610f12565b6123a55760405162461bcd60e51b815260040161071e90613b14565b6123ad610f0a565b8311156123cc5760405162461bcd60e51b815260040161071e90613c5e565b6000848152600a60205260408120546123e59085612e5b565b9050606063f0bb940660e01b86866040516024016124049291906135f7565b60408051601f198184030181529190526020810180517bffffffffffffffffffffffffffffffffffffffffffffffffffffffff167fffffffff000000000000000000000000000000000000000000000000000000009093169290921790915290506000612473308385886128df565b90508086887fbc72942fa810fe8985041bb36295502eddf2c163774be55e25d205958956072860405160405180910390a49695505050505050565b336001600160a01b037f000000000000000000000000000000000000000000000000000000000000000016146124f65760405162461bcd60e51b815260040161071e90613d71565b7f0000000000000000000000000000000000000000000000000000000000000000821461254257612526816127e8565b6125425760405162461bcd60e51b815260040161071e90613849565b6000828152600a6020526040908190208290555182907f0e182617f9e5f9ce5f761c791ec15ad52176d97f9706b5c2707ffda7b6bdf7909061078f908490613f73565b60065490565b61259433610f12565b6125b05760405162461bcd60e51b815260040161071e90613b14565b6119ab8282612c37565b60065460609082106125de5760405162461bcd60e51b815260040161071e906136a2565b6000600683815481106125ed57fe5b60009182526020909120600a90910201600281015490915060ff16156126255760405162461bcd60e51b815260040161071e90613d3a565b6002810154610100900460ff161561264f5760405162461bcd60e51b815260040161071e90613993565b80600301544210156126735760405162461bcd60e51b815260040161071e90613b82565b600281015462010000900460ff16156126ac576126908333610695565b6126ac5760405162461bcd60e51b815260040161071e90613812565b60028101805460ff191660019081179091556006820180547fffffffffffffffffffffffff0000000000000000000000000000000000000000163317905542600783015581546040517f1cff79cd0000000000000000000000000000000000000000000000000000000081527f00000000000000000000000000000000000000000000000000000000000000006001600160a01b0390811693631cff79cd9361275e93921691908601906004016134b4565b600060405180830381600087803b15801561277857600080fd5b505af115801561278c573d6000803e3d6000fd5b505050506040513d6000823e601f3d908101601f191682016040526127b491908101906132df565b60405190925083907f4fa5548c15e2d4a0b806eee962935acea143d79644d2340af39f4edf13b335a990600090a250919050565b7f00000000000000000000000000000000000000000000000000000000000000006000908152600a6020526040902054101590565b600080547fffffffffffffffffffffffff0000000000000000000000000000000000000000166001600160a01b038316908117825560405190917f39510b933a9d010f906528d6019d3f4e2450a10dc33b10887503b31ed82f111191a250565b600180547fffffffffffffffffffffffff0000000000000000000000000000000000000000166001600160a01b0383169081179091556040517f566fe119ff450afc2580186c62762b6c1258245c8b1b6bb095e7276eb5a75b5590600090a250565b60068054825160408051610180810182526001600160a01b03898116825260208083018a815260009484018590526060840185905294151560808401819052428a810160a086018190523360c087015260e086019190915261010085018690526101208501869052610140850186905261016085018690526001880189559790945282517ff652222313e28459528d920b65115c16c04f3efc82aaedc97be59f3f377c0d3f600a880290810180547fffffffffffffffffffffffff00000000000000000000000000000000000000001692909416919091178355945180519697969495939492936129f9937ff652222313e28459528d920b65115c16c04f3efc82aaedc97be59f3f377c0d40909101929190910190612f01565b5060408201516002820180546060850151608086015160ff19909216931515939093177fffffffffffffffffffffffffffffffffffffffffffffffffffffffffffff00ff166101009315158402177fffffffffffffffffffffffffffffffffffffffffffffffffffffffffff00ffff16620100009115159190910217905560a0830151600383015560c08301516004830180547fffffffffffffffffffffffff00000000000000000000000000000000000000009081166001600160a01b039384161790915560e08501516005850155918401516006840180548416918316919091179055610120840151600784015561014084015160088401805490931691161790556101609091015160099091015560005b8451811015612c2c57600260008581526020019081526020016000206000868381518110612b3757fe5b6020908102919091018101516001600160a01b031682528101919091526040016000205460ff1615612b7b5760405162461bcd60e51b815260040161071e906138ee565b6000848152600260205260408120865160019290889085908110612b9b57fe5b60200260200101516001600160a01b03166001600160a01b0316815260200190815260200160002060006101000a81548160ff021916908315150217905550848181518110612be657fe5b60200260200101516001600160a01b0316847f2d0aa562da96ca6dd124fee5588e6f8545b0aa0b15cfd87cc231eff1ae7000e460405160405180910390a3600101612b0d565b505050949350505050565b612c418282610d51565b15612c5e5760405162461bcd60e51b815260040161071e90613e84565b612c666111b8565b8214612cec576006548210612c8d5760405162461bcd60e51b815260040161071e906136a2565b600060068381548110612c9c57fe5b60009182526020909120600a90910201600281015490915060ff16158015612cce57506002810154610100900460ff16155b612cea5760405162461bcd60e51b815260040161071e906139ca565b505b60008281526005602090815260408083206001600160a01b0385168085529252808320805460ff1916600117905551909184917f1b55562f9a67454174f758170aba47751c0af4c1f3b7d4e0b70667f1e82066069190a35050565b612d52838383611ef2565b612d6e5760405162461bcd60e51b815260040161071e906138b7565b60008381526009602090815260408083206001600160a01b0386168452909152812090612d996111b8565b6001600160a01b0316815260208101919091526040016000205460ff1615612df357612dc36111b8565b6001600160a01b0316816001600160a01b031614612df35760405162461bcd60e51b815260040161071e90613c27565b60008381526009602090815260408083206001600160a01b038087168086529184528285209086168086529352818420805460ff1916905590519192909186917f7b42e026d3b17cf41399915c285780d0f724b3464b269297aff73c0de0fe417f91a4505050565b6000828210612e7157612e6c611c6e565b610a8c565b610a8c828403612e7f611c6e565b612e90565b80820390821102900390565b80820390821002900390565b604080516101808101825260008082526060602083018190529282018190529181018290526080810182905260a0810182905260c0810182905260e0810182905261010081018290526101208101829052610140810182905261016081019190915290565b828054600181600116156101000203166002900490600052602060002090601f016020900481019282601f10612f4257805160ff1916838001178555612f6f565b82800160010185558215612f6f579182015b82811115612f6f578251825591602001919060010190612f54565b50612f7b929150612f7f565b5090565b5b80821115612f7b5760008155600101612f80565b80356001600160a01b03811681146106bc57600080fd5b600082601f830112612fbb578081fd5b813567ffffffffffffffff811115612fd1578182fd5b6020808202612fe1828201613f7c565b83815293508184018583018287018401881015612ffd57600080fd5b600092505b84831015613028576130148882612f94565b825260019290920191908301908301613002565b505050505092915050565b600060208284031215613044578081fd5b610a8c8383612f94565b60008060408385031215613060578081fd5b61306a8484612f94565b91506130798460208501612f94565b90509250929050565b60008060408385031215613094578182fd5b61309e8484612f94565b9150602083013567ffffffffffffffff8111156130b9578182fd5b6130c585828601612fab565b9150509250929050565b6000806000606084860312156130e3578081fd5b6130ed8585612f94565b9250602084013567ffffffffffffffff80821115613109578283fd5b818601915086601f83011261311c578283fd5b813561312f61312a82613fa3565b613f7c565b818152886020838601011115613143578485fd5b816020850160208301379081016020018490529350604086013591508082111561316b578283fd5b5061317886828701612fab565b9150509250925092565b600060208284031215613193578081fd5b5035919050565b6000602082840312156131ab578081fd5b5051919050565b600080604083850312156131c4578182fd5b823591506130798460208501612f94565b6000806000606084860312156131e9578283fd5b833592506131fa8560208601612f94565b91506132098560408601612f94565b90509250925092565b60008060008060808587031215613227578081fd5b843593506132388660208701612f94565b92506132478660408701612f94565b9150606085013567ffffffffffffffff811115613262578182fd5b61326e87828801612fab565b91505092959194509250565b6000806040838503121561328c578182fd5b50508035926020909101359150565b6000806000606084860312156132af578283fd5b8335925060208401359150604084013567ffffffffffffffff8111156132d3578182fd5b61317886828701612fab565b6000602082840312156132f0578081fd5b815167ffffffffffffffff811115613306578182fd5b8201601f81018413613316578182fd5b805161332461312a82613fa3565b818152856020838501011115613338578384fd5b613349826020830160208601613fd3565b95945050505050565b600080600060608486031215613366578081fd5b833592506020840135915060408401358015158114613383578182fd5b809150509250925092565b6001600160a01b03169052565b15159052565b600081518084526133b9816020860160208601613fd3565b601f01601f19169290920160200192915050565b60006101806133dd84845161338e565b60208301518160208601526133f4828601826133a1565b9150506040830151613409604086018261339b565b50606083015161341c606086018261339b565b50608083015161342f608086018261339b565b5060a083015160a085015260c083015161344c60c086018261338e565b5060e083015160e08501526101008084015161346a8287018261338e565b505061012083810151908501526101408084015161348a8287018261338e565b5050610160928301519390920192909252919050565b6001600160a01b0391909116815260200190565b6000604082016001600160a01b038516835260206040818501528285546001808216600081146134eb576001811461350957613541565b607f6002840416865260ff1983166060890152608088019350613541565b600283048087526135198a613fc7565b885b828110156135375781548b82016060015290840190870161351b565b8a01606001955050505b509198975050505050505050565b6000602080830181845280855180835260408601915060408482028701019250838701855b828110156135c0577fffffffffffffffffffffffffffffffffffffffffffffffffffffffffffffffc08886030184526135ae8583516133cd565b94509285019290850190600101613574565b5092979650505050505050565b901515815260200190565b9283526001600160a01b03918216602084015216604082015260600190565b918252602082015260400190565b7fffffffff0000000000000000000000000000000000000000000000000000000091909116815260200190565b600060208252610a8c60208301846133a1565b60208082526026908201527f415454454d5054494e475f455845435554494f4e5f48454c5045525f5245454e60408201527f5452414e43590000000000000000000000000000000000000000000000000000606082015260800190565b60208082526018908201527f455845435554494f4e5f444f45535f4e4f545f45584953540000000000000000604082015260600190565b6020808252601b908201527f43414e4e4f545f52454d4f56455f524f4f545f43414e43454c45520000000000604082015260600190565b60208082526011908201527f4752414e5445525f49535f474c4f42414c000000000000000000000000000000604082015260600190565b6020808252601a908201527f5045524d495353494f4e5f414c52454144595f4752414e544544000000000000604082015260600190565b60208082526022908201527f43414e4e4f545f5343484544554c455f415554484f52495a45525f414354494f60408201527f4e53000000000000000000000000000000000000000000000000000000000000606082015260800190565b60208082526015908201527f53454e4445525f49535f4e4f545f4752414e5445520000000000000000000000604082015260600190565b60208082526016908201527f53454e4445525f49535f4e4f545f4558454355544f5200000000000000000000604082015260600190565b6020808252601c908201527f44454c41595f455843454544535f5345545f415554484f52495a455200000000604082015260600190565b6020808252601a908201527f4143434f554e545f49535f414c52454144595f4752414e544552000000000000604082015260600190565b60208082526016908201527f5045524d495353494f4e5f4e4f545f4752414e54454400000000000000000000604082015260600190565b60208082526013908201527f4455504c49434154455f4558454355544f525300000000000000000000000000604082015260600190565b60208082526014908201527f534b49505f56414c55455f544f4f5f4c41524745000000000000000000000000604082015260600190565b60208082526019908201527f414354494f4e5f4841535f4e4f5f4752414e545f44454c415900000000000000604082015260600190565b6020808252601a908201527f455845435554494f4e5f414c52454144595f43414e43454c4544000000000000604082015260600190565b60208082526018908201527f455845435554494f4e5f49535f4e4f545f50454e44494e470000000000000000604082015260600190565b6020808252600e908201527f444154415f544f4f5f53484f5254000000000000000000000000000000000000604082015260600190565b6020808252601f908201527f53454e4445525f444f45535f4e4f545f484156455f5045524d495353494f4e00604082015260600190565b60208082526010908201527f44454c41595f49535f4e4f545f53455400000000000000000000000000000000604082015260600190565b60208082526011908201527f5245564f4b45525f49535f474c4f42414c000000000000000000000000000000604082015260600190565b60208082526015908201527f53454e4445525f49535f4e4f545f5245564f4b45520000000000000000000000604082015260600190565b60208082526012908201527f53454e4445525f49535f4e4f545f524f4f540000000000000000000000000000604082015260600190565b6020808252601a908201527f43414e4e4f545f52454d4f56455f524f4f545f5245564f4b4552000000000000604082015260600190565b6020808252601c908201527f455845435554494f4e5f4e4f545f5945545f45584543555441424c4500000000604082015260600190565b60208082526018908201527f5245564f4b455f4d5553545f42455f5343484544554c45440000000000000000604082015260600190565b6020808252601a908201527f53454e4445525f49535f4e4f545f50454e44494e475f524f4f54000000000000604082015260600190565b6020808252601d908201527f4143434f554e545f4841535f474c4f42414c5f5045524d495353494f4e000000604082015260600190565b6020808252600f908201527f44454c41595f544f4f5f4c415247450000000000000000000000000000000000604082015260600190565b6020808252601a908201527f414354494f4e5f4841535f4e4f5f5245564f4b455f44454c4159000000000000604082015260600190565b60208082526013908201527f5a45524f5f4d41585f53495a455f56414c554500000000000000000000000000604082015260600190565b60208082526016908201527f4143434f554e545f49535f4e4f545f4752414e54455200000000000000000000604082015260600190565b6020808252601a908201527f455845435554494f4e5f414c52454144595f4558454355544544000000000000604082015260600190565b60208082526015908201527f43414e5f4f4e4c595f42455f5343484544554c45440000000000000000000000604082015260600190565b6020808252601a908201527f4143434f554e545f49535f474c4f42414c5f43414e43454c4552000000000000604082015260600190565b60208082526017908201527f4143434f554e545f49535f4e4f545f43414e43454c4552000000000000000000604082015260600190565b60208082526017908201527f4752414e545f4d5553545f42455f5343484544554c4544000000000000000000604082015260600190565b60208082526016908201527f4143434f554e545f49535f4e4f545f5245564f4b455200000000000000000000604082015260600190565b6020808252601b908201527f4143434f554e545f49535f414c52454144595f43414e43454c45520000000000604082015260600190565b6020808252601a908201527f43414e4e4f545f52454d4f56455f524f4f545f4752414e544552000000000000604082015260600190565b6020808252601a908201527f4143434f554e545f49535f414c52454144595f5245564f4b4552000000000000604082015260600190565b60208082526016908201527f53454e4445525f49535f4e4f545f43414e43454c455200000000000000000000604082015260600190565b600060208252610a8c60208301846133cd565b90815260200190565b60405181810167ffffffffffffffff81118282101715613f9b57600080fd5b604052919050565b600067ffffffffffffffff821115613fb9578081fd5b50601f01601f191660200190565b60009081526020902090565b60005b83811015613fee578181015183820152602001613fd6565b83811115613ffd576000848401525b5050505056fea264697066735822122037f0e3720b561c4cafbdf5ecf3a34a6e219f54e10c51332596704601e0c342b464736f6c6343000701003360a060405234801561001057600080fd5b5060016000553360601b60805260805160601c6104b061003f600039806101c6528061026e52506104b06000f3fe608060405234801561001057600080fd5b50600436106100365760003560e01c80631cff79cd1461003b578063aaabadc514610173575b600080fd5b6100fe6004803603604081101561005157600080fd5b73ffffffffffffffffffffffffffffffffffffffff823516919081019060408101602082013564010000000081111561008957600080fd5b82018360208201111561009b57600080fd5b803590602001918460018302840111640100000000831117156100bd57600080fd5b91908080601f0160208091040260200160405190810160405280939291908181526020018383808284376000920191909152509295506101a4945050505050565b6040805160208082528351818301528351919283929083019185019080838360005b83811015610138578181015183820152602001610120565b50505050905090810190601f1680156101655780820380516001836020036101000a031916815260200191505b509250505060405180910390f35b61017b61026c565b6040805173ffffffffffffffffffffffffffffffffffffffff9092168252519081900360200190f35b60606101ae610290565b3373ffffffffffffffffffffffffffffffffffffffff7f0000000000000000000000000000000000000000000000000000000000000000161461025257604080517f08c379a000000000000000000000000000000000000000000000000000000000815260206004820152601860248201527f53454e4445525f49535f4e4f545f415554484f52495a45520000000000000000604482015290519081900360640190fd5b61025c83836102a9565b9050610266610393565b92915050565b7f000000000000000000000000000000000000000000000000000000000000000090565b6102a26002600054141561019061039a565b6002600055565b6060600060608473ffffffffffffffffffffffffffffffffffffffff16846040518082805190602001908083835b6020831061031457805182527fffffffffffffffffffffffffffffffffffffffffffffffffffffffffffffffe090920191602091820191016102d7565b6001836020036101000a0380198251168184511680821785525050505050509050019150506000604051808303816000865af19150503d8060008114610376576040519150601f19603f3d011682016040523d82523d6000602084013e61037b565b606091505b509150915061038a82826103ac565b95945050505050565b6001600055565b816103a8576103a8816103d2565b5050565b606082156103bb575080610266565b8151156103cb5781518083602001fd5b6102666101ae5b6103fc817f42414c00000000000000000000000000000000000000000000000000000000006103ff565b50565b7f08c379a000000000000000000000000000000000000000000000000000000000600090815260206004526007602452600a808404818106603090810160081b958390069590950190829004918206850160101b01602363ffffff0060e086901c160160181b0190930160c81b60445260e882901c90606490fdfea264697066735822122016cd979c4c38299344fadf84720b5591b2802063c0d73384a34a0d1ca0b517e764736f6c63430007010033",
  "linkReferences": {},
  "deployedLinkReferences": {}
}