{
  "_format": "hh-sol-artifact-1",
  "contractName": "ChainlinkOracle",
  "sourceName": "contracts/ChainlinkOracle.sol",
  "abi": [
    {
      "inputs": [
        {
          "internalType": "address",
          "name": "_chainlinkFeed",
          "type": "address"
        }
      ],
      "stateMutability": "nonpayable",
      "type": "constructor"
    },
    {
      "inputs": [],
      "name": "getData",
      "outputs": [
        {
          "internalType": "int216",
          "name": "data",
          "type": "int216"
        },
        {
          "internalType": "uint40",
          "name": "timestamp",
          "type": "uint40"
        }
      ],
      "stateMutability": "view",
      "type": "function"
    }
  ],
  "bytecode": "0x60c080604052346100eb578061050f803803809161001d828561012f565b83396020928391810103126100eb57516001600160a01b03811691908290036100eb5781156101015780826004936080526040519384809263313ce56760e01b82525afa9081156100f6575f916100b9575b5060ff91501660120360ff81116100a55760ff1660a0526040516103a890816101678239608051816095015260a0518160d10152f35b634e487b7160e01b5f52601160045260245ffd5b905081813d83116100ef575b6100cf818361012f565b810103126100eb575160ff811681036100eb5760ff905f61006f565b5f80fd5b503d6100c5565b6040513d5f823e3d90fd5b6064906040519062461bcd60e51b82526004820152600760248201526624a72b20a2222960c91b6044820152fd5b601f909101601f19168101906001600160401b0382119082101761015257604052565b634e487b7160e01b5f52604160045260245ffdfe6080604090808252600480361015610015575f80fd5b5f3560e01c633bc5de3014610028575f80fd5b3461031a575f7ffffffffffffffffffffffffffffffffffffffffffffffffffffffffffffffffc36011261031a577ffeaf968c00000000000000000000000000000000000000000000000000000000825260a082828173ffffffffffffffffffffffffffffffffffffffff7f0000000000000000000000000000000000000000000000000000000000000000165afa8015610351575f925f91610293575b505f831315610236577f0000000000000000000000000000000000000000000000000000000000000000604d811161020a57600a0a92838102937f800000000000000000000000000000000000000000000000000000000000000081145f8312166101de5781850514901517156101b25764ffffffffff169081156101555750825191601a0b82526020820152f35b60649060208551917f08c379a0000000000000000000000000000000000000000000000000000000008352820152600a60248201527f494e564f52434c56414c000000000000000000000000000000000000000000006044820152fd5b6011827f4e487b71000000000000000000000000000000000000000000000000000000005f525260245ffd5b6011847f4e487b71000000000000000000000000000000000000000000000000000000005f525260245ffd5b6011837f4e487b71000000000000000000000000000000000000000000000000000000005f525260245ffd5b60648260208651917f08c379a0000000000000000000000000000000000000000000000000000000008352820152600960248201527f494e564c444441544100000000000000000000000000000000000000000000006044820152fd5b92505060a03d60a01161034a575b7fffffffffffffffffffffffffffffffffffffffffffffffffffffffffffffffe0601f820116830183811067ffffffffffffffff82111761031e5760a091849186528101031261031a576102f48261035b565b602083015192848101519361031060806060840151930161035b565b92509350906100c6565b5f80fd5b6041837f4e487b71000000000000000000000000000000000000000000000000000000005f525260245ffd5b503d6102a1565b83513d5f823e3d90fd5b519069ffffffffffffffffffff8216820361031a5756fea264697066735822122067a8842d1d5f454ee102f62d12f970ca0888ab7eacce8807f04ae6fc53a54b2c64736f6c634300081a0033",
  "linkReferences": {},
  "deployedLinkReferences": {}
}