{
  "_format": "hh-sol-artifact-1",
  "contractName": "DifferenceMomentumUpdateRule",
  "sourceName": "contracts/rules/DifferenceMomentumUpdateRule.sol",
  "abi": [
    {
      "inputs": [
        {
          "internalType": "address",
          "name": "_updateWeightRunner",
          "type": "address"
        }
      ],
      "stateMutability": "nonpayable",
      "type": "constructor"
    },
    {
      "inputs": [],
      "name": "PRBMathSD59x18__DivInputTooSmall",
      "type": "error"
    },
    {
      "inputs": [
        {
          "internalType": "uint256",
          "name": "rAbs",
          "type": "uint256"
        }
      ],
      "name": "PRBMathSD59x18__DivOverflow",
      "type": "error"
    },
    {
      "inputs": [
        {
          "internalType": "int256",
          "name": "x",
          "type": "int256"
        }
      ],
      "name": "PRBMathSD59x18__FromIntOverflow",
      "type": "error"
    },
    {
      "inputs": [
        {
          "internalType": "int256",
          "name": "x",
          "type": "int256"
        }
      ],
      "name": "PRBMathSD59x18__FromIntUnderflow",
      "type": "error"
    },
    {
      "inputs": [],
      "name": "PRBMathSD59x18__MulInputTooSmall",
      "type": "error"
    },
    {
      "inputs": [
        {
          "internalType": "uint256",
          "name": "rAbs",
          "type": "uint256"
        }
      ],
      "name": "PRBMathSD59x18__MulOverflow",
      "type": "error"
    },
    {
      "inputs": [
        {
          "internalType": "uint256",
          "name": "prod1",
          "type": "uint256"
        }
      ],
      "name": "PRBMath__MulDivFixedPointOverflow",
      "type": "error"
    },
    {
      "inputs": [
        {
          "internalType": "uint256",
          "name": "prod1",
          "type": "uint256"
        },
        {
          "internalType": "uint256",
          "name": "denominator",
          "type": "uint256"
        }
      ],
      "name": "PRBMath__MulDivOverflow",
      "type": "error"
    },
    {
      "inputs": [
        {
          "internalType": "int256[]",
          "name": "_prevWeights",
          "type": "int256[]"
        },
        {
          "internalType": "int256[]",
          "name": "_data",
          "type": "int256[]"
        },
        {
          "internalType": "address",
          "name": "_pool",
          "type": "address"
        },
        {
          "internalType": "int256[][]",
          "name": "_parameters",
          "type": "int256[][]"
        },
        {
          "internalType": "uint64[]",
          "name": "_lambdaStore",
          "type": "uint64[]"
        },
        {
          "internalType": "uint64",
          "name": "_epsilonMax",
          "type": "uint64"
        },
        {
          "internalType": "uint64",
          "name": "_absoluteWeightGuardRail",
          "type": "uint64"
        }
      ],
      "name": "CalculateNewWeights",
      "outputs": [
        {
          "internalType": "int256[]",
          "name": "updatedWeights",
          "type": "int256[]"
        }
      ],
      "stateMutability": "nonpayable",
      "type": "function"
    },
    {
      "inputs": [
        {
          "internalType": "address",
          "name": "_poolAddress",
          "type": "address"
        },
        {
          "internalType": "int256[]",
          "name": "_newMovingAverages",
          "type": "int256[]"
        },
        {
          "internalType": "int256[]",
          "name": "_newInitialValues",
          "type": "int256[]"
        },
        {
          "internalType": "uint256",
          "name": "_numberOfAssets",
          "type": "uint256"
        }
      ],
      "name": "initialisePoolRuleIntermediateValues",
      "outputs": [],
      "stateMutability": "nonpayable",
      "type": "function"
    },
    {
      "inputs": [
        {
          "internalType": "address",
          "name": "",
          "type": "address"
        },
        {
          "internalType": "uint256",
          "name": "",
          "type": "uint256"
        }
      ],
      "name": "movingAverages",
      "outputs": [
        {
          "internalType": "int256",
          "name": "",
          "type": "int256"
        }
      ],
      "stateMutability": "view",
      "type": "function"
    },
    {
      "inputs": [],
      "name": "name",
      "outputs": [
        {
          "internalType": "string",
          "name": "",
          "type": "string"
        }
      ],
      "stateMutability": "view",
      "type": "function"
    },
    {
      "inputs": [
        {
          "internalType": "uint256",
          "name": "",
          "type": "uint256"
        }
      ],
      "name": "parameterDescriptions",
      "outputs": [
        {
          "internalType": "string",
          "name": "",
          "type": "string"
        }
      ],
      "stateMutability": "view",
      "type": "function"
    },
    {
      "inputs": [
        {
          "internalType": "address",
          "name": "",
          "type": "address"
        },
        {
          "internalType": "uint256",
          "name": "",
          "type": "uint256"
        }
      ],
      "name": "shortMovingAverages",
      "outputs": [
        {
          "internalType": "int256",
          "name": "",
          "type": "int256"
        }
      ],
      "stateMutability": "view",
      "type": "function"
    },
    {
      "inputs": [
        {
          "internalType": "int256[][]",
          "name": "_parameters",
          "type": "int256[][]"
        }
      ],
      "name": "validParameters",
      "outputs": [
        {
          "internalType": "bool",
          "name": "",
          "type": "bool"
        }
      ],
      "stateMutability": "pure",
      "type": "function"
    }
  ],
  "bytecode": "0x60a03461052857601f196001600160401b03601f612eb638819003828101851686018481118782101761052c5786928291604052833960209586918101031261052857516001600160a01b03811681036105285760805260026100628154610540565b82811161050a575b507f446966666572656e63654d6f6d656e74756d00000000000000000000000000248155604051916024919060808401858111858210176104f7576040526003908185525f5b6060808210156100c7578682018a015288016100b0565b50508792939487878251926801000000000000000084116104e45786908654858855808610610471575b509291920191855f52865f20915f935b8585106103605750505050505081541561034d57815f52825f20906101268254610540565b81811161032c575b505060ff81555f527f73686f7274202d2045574d415f6c6f6e6729202f2045574d415f6c6f6e67290081835f207f4b617070613a204b61707061206469637461746573207468652061676772657381557f736976656e657373206f66207468652072756c65277320726573706f6e73652060018201557f746f2061207369676e616c206368616e67652028686572652c202845574d415f86820155015580546001101561031957805f526001825f20016101f16101eb8254610540565b8261058e565b60ad81555f527f2d6d656d6f7279206d6f76696e6720617665726167650000000000000000000083835f207f4c616d6264612053686f72743a2054686973204c616d6264612064696374617481557f657320707269636520736d6f6f7468696e6720666f72207468652073686f7274600182015501558054831015610319577f656d6f7279206d6f76696e67206176657261676500000000000000000000000093505f5281815f20016102a76101eb8254610540565b60a981555f525f207f4c616d626461204c6f6e673a2054686973204c616d626461206469637461746581557f7320707269636520736d6f6f7468696e6720666f7220746865206c6f6e672d6d600182015501556040516128fc90816105ba82396080518181816101c701526116020152f35b83634e487b7160e01b5f5260326004525ffd5b600461034692845f52865f20920160051c82019101610578565b858061012e565b84634e487b7160e01b5f5260326004525ffd5b8051805184811161045e578a916103778754610540565b8a8111610428575b5082908a83116001146103c4579180600195928695945f926103b9575b50505f19828e1b1c191690841b1787555b01940194019392610101565b015190505f8061039c565b9085831691885f52845f20925f5b81811061041057509160019693918588979694106103f9575b505050831b830187556103ad565b01515f19838f1b60f8161c191690558f80806103eb565b8284015185558f9660019095019493840193016103d2565b61044f90885f52845f2060058d808701821c830193888810610455575b01901c0190610578565b8e61037f565b93508293610445565b8c634e487b7160e01b5f5260416004525ffd5b875f5285835f2091820191015b81811061048b57506100f1565b60019192935061049b8154610540565b806104ac575b50019088929161047e565b88811183146104c057505f81555b8c6104a1565b5f908282526104db8a8d8420920160051c8201858301610578565b818355556104ba565b88634e487b7160e01b5f5260416004525ffd5b83634e487b7160e01b5f5260416004525ffd5b61052290825f5283875f20910160051c810190610578565b5f61006a565b5f80fd5b634e487b7160e01b5f52604160045260245ffd5b90600182811c9216801561056e575b602083101461055a57565b634e487b7160e01b5f52602260045260245ffd5b91607f169161054f565b818110610583575050565b5f8155600101610578565b90601f811161059b575050565b6105b7915f526003601f60205f20920160051c82019101610578565b56fe6080806040526004361015610012575f80fd5b5f3560e01c90816306fdde03146117c1575080630df61b8f1461177b57806333417d8e1461162a57806344a01eb3146112af578063632475341461125c578063b9579b0d146100ce5763fe8cb6d714610069575f80fd5b346100ca5760406003193601126100ca576100826119b6565b73ffffffffffffffffffffffffffffffffffffffff60243591165f52600160205260405f2080548210156100ca576020916100bc91611974565b90546040519160031b1c8152f35b5f80fd5b346100ca5760e06003193601126100ca5760043567ffffffffffffffff81116100ca576100ff903690600401611943565b60243567ffffffffffffffff81116100ca5761011f903690600401611943565b906044359273ffffffffffffffffffffffffffffffffffffffff841684036100ca5760643567ffffffffffffffff81116100ca57610161903690600401611943565b92909160843567ffffffffffffffff81116100ca57610184903690600401611943565b94909360a4359667ffffffffffffffff881688036100ca5760c43567ffffffffffffffff811681036100ca5773ffffffffffffffffffffffffffffffffffffffff7f00000000000000000000000000000000000000000000000000000000000000001633036111fe576040519a8b67ffffffffffffffff6101c0828181011092011117610efe576101c08c016040525f8c525f60208d01525f60608d01525f60808d0152606060a08d0152606060c08d0152606060e08d015260606101008d015260606101208d015260606101408d01525f6101608d01525f6101808d01525f6101a08d01528560408d0152855f19810111610949575f19860160208d015261028c89611c62565b6101408d01525b8b516101408d0151518110156102e5576102ae908a8a611cb1565b3567ffffffffffffffff81168091036100ca576102d88d9161014083015190600f0b925190611b28565b5260018c51018c52610293565b508b98508a9750895f60608b015261030660408b01518060808d0152611c62565b60a08b015261031860408b0151611c62565b60c08b015261032a60808b0151611c62565b60e08b015273ffffffffffffffffffffffffffffffffffffffff89165f52600160205261038e61036a8b6103656040805f2092015191611cc1565b611d1e565b8060a08d01526101408c015160408d0151916103888c8936916119f1565b90611ea5565b60c08b0152600160408b0151166111ee575b5f8a525b895160208b015181101561052b5760608b01516104fc575b506103cd60c08b01518b5190611b28565b516103de60e08c01518c5190611b28565b5260018a5101806101608c015260608b01516104c3575b5061040a60c08b01516101608c015190611b28565b5161041f60e08c01516101608d015190611b28565b5260608a015115610443575b6101808a018051600101905289516002018a526103a4565b6104be61047561045960c08d01518d5190611b28565b5160c08d01516101608e015161046e91611b28565b5190611fa7565b73ffffffffffffffffffffffffffffffffffffffff8b165f5260016020526104a78c61018060405f2091015190611974565b9091905f1983549160031b92831b921b1916179055565b61042b565b6104d19060a08c0151611b28565b516104f560e08c01516104ef8d604061016082015191015190611d11565b90611b28565b528a6103f5565b61050a9060a08c0151611b28565b5161052460e08c01516104ef8d6040815191015190611d11565b528a6103bc565b50888a9798604089015160018116610fe1575b506060890151610f2b575b6040519586608081011067ffffffffffffffff608089011117610efe5773ffffffffffffffffffffffffffffffffffffffff6105b993608089016040525f89525f60208a015260408901606081526060808b01526101408d0151905260e08c015160608a015216875236916119f1565b96604051988961010081011067ffffffffffffffff6101008c011117610efe576101008a0160405260608a52606060208b01525f60408b01525f60608b01525f60808b01525f60a08b01525f60c08b01525f60e08b015261062461061d8989611a5d565b36916119f1565b8a528060208701526106406106398989611ab9565b9050611c62565b985b60808b01518a51111561068d5761066a8b608061065f8c8c611ab9565b919092015191611cb1565b35600f0b61067c60808d01518c611b28565b5260808b0180516001019052610642565b8a97506106d5908a73ffffffffffffffffffffffffffffffffffffffff8951165f5260046020526106c960405f2061036560208c015191611cc1565b9160208a015192611ea5565b936106df8561202c565b73ffffffffffffffffffffffffffffffffffffffff8851165f52600460205260405f2081519167ffffffffffffffff8311610efe57680100000000000000008311610efe578154838355808410610ed7575b50602001905f5260205f205f5b838110610ec3575050505081606089015261075882611c62565b60208901525f60808901525b60808801516060890151811015610a285761078261079d9187611b28565b5161079660608a015160808c015190611b28565b5190611e8d565b6107b060208a015160808b015190611b28565b526107c4606088015160808a015190611b28565b518060a08a01527f80000000000000000000000000000000000000000000000000000000000000008114610a00575f8112156109fa57805f03905b81156109cd577f7fffffffffffffffffffffffffffffffffffffffffffffffffffffffffffffff826ec097ce7bc90715b34b9f10000000000411610990575f19600191138118145f14610976577f8000000000000000000000000000000000000000000000000000000000000000816ec097ce7bc90715b34b9f10000000000414610949576108b6906ec097ce7bc90715b34b9f1000000000045f035b6108af60208b015160808c015190611b28565b519061228a565b6108c960208a015160808b015190611b28565b5287515160010361090b576108f56108ea60208a015160808b015190611b28565b5160408a0151611b3c565b60408901525b6080880180516001019052610764565b61093f61093561092460208b015160808c015190611b28565b516108af8b5160808d015190611b28565b60408a0151611b3c565b60408901526108fb565b7f4e487b71000000000000000000000000000000000000000000000000000000005f52601160045260245ffd5b6108b6906ec097ce7bc90715b34b9f10000000000461089c565b507f7cb4bef5000000000000000000000000000000000000000000000000000000005f526ec097ce7bc90715b34b9f10000000000460045260245ffd5b7f4e487b71000000000000000000000000000000000000000000000000000000005f52601260045260245ffd5b806107ff565b7fb3c754a3000000000000000000000000000000000000000000000000000000005f5260045ffd5b5087945085610a3a6060870151611c62565b946001875151145f14610ddb576060870151604088015181156109cd575f1982147f8000000000000000000000000000000000000000000000000000000000000000821416610949570560408801525f60808801525b60808701516060880151811015610b0c57610aaf610aed918686611cb1565b35610ae7610abd8a51611b1b565b51610ae1610ad58c6080602082015191015190611b28565b5160408d015190611e8d565b9061228a565b90611b3c565b610afb608089015188611b28565b526080870180516001019052610a90565b50610b3c9293965067ffffffffffffffff809187610120610b44989995995b015216600f0b9516600f0b90612520565b9336916119f1565b81905f5b8151811015610bbd57610b5b8183611b28565b51610b668287611b28565b511215610ba057610b778183611b28565b51610b828287611b28565b5190035b838113610b97575b50600101610b48565b92506001610b8e565b610baa8186611b28565b51610bb58284611b28565b519003610b86565b505f92839283928392839281811315610d4d57610be1919794929796939596612449565b925f945b8851861015610c9e57610c0f85610bfc888c611b28565b51610c07898c611b28565b51900361228a565b610c19878a611b28565b5101610c25878b611b28565b52610c30868a611b28565b51019282610c3e878b611b28565b511315610c675750509394610c538488611b28565b51926001855b019495929690939196610be5565b959486610c79828b9a9597949a611b28565b5113610c88575b600190610c59565b96509450610c968688611b28565b519486610c80565b945095505050505b670de0b6b3a764000090818103610d00575b505050506040518091602082016020835281518091526020604084019201905f5b818110610ce7575050500390f35b8251845285945060209384019390920191600101610cd9565b81811315610d2d57829350610d18610d229386611b28565b5103019183611b28565b525b81808080610cb8565b610d479250610d3c8486611b28565b519103019183611b28565b52610d24565b5050509192935f925b8651841015610dd157610d698488611b28565b51019482610d778589611b28565b511315610d9c5750509192610d8c8286611b28565b51906001835b0192939490610d56565b939284610dac8289989498611b28565b5113610dbb575b600190610d92565b94509250610dc98486611b28565b519284610db3565b9250935050610ca6565b93915f6080889795939701525b608087015187518051821015610e2557610e1091610e0591611b28565b5160c0890151611b3c565b60c08801526080870180516001019052610de8565b5050919394909294610e40604088015160c089015190612449565b60408801525f60808801525b608087015184811015610ea057610e67610e7b918686611cb1565b35610ae7610abd8a5160808c015190611b28565b8060e0890152610e8f608089015188611b28565b526080870180516001019052610e4c565b50610b3c9293965067ffffffffffffffff809187610120610b4498999599610b2b565b60019060208451940193818401550161073e565b825f5260205f20908482015b8183018110610ef3575050610731565b5f8155600101610ee3565b7f4e487b71000000000000000000000000000000000000000000000000000000005f52604160045260245ffd5b610f3860c08a015161202c565b73ffffffffffffffffffffffffffffffffffffffff83165f52600160205260405f2081519167ffffffffffffffff8311610efe57680100000000000000008311610efe578154838355808410610fba575b50602001905f5260205f205f5b838110610fa65750505050610549565b600190602084519401938184015501610f96565b825f5260205f20908482015b8183018110610fd6575050610f89565b5f8155600101610fc6565b805f19810111610949575f1981016101a08b0181905260011c60208b015260608a01516111b8575b5061101e60c08a01516101a08b015190611b28565b5161103360e08b01516101a08c015190611b28565b52606089015115611045575b8a61053e565b61105960c08a01516101a08b015190611b28565b516f7fffffffffffffffffffffffffffffff811361115a577fffffffffffffffffffffffffffffffff8000000000000000000000000000000081126110fc576110f79073ffffffffffffffffffffffffffffffffffffffff84165f5260016020526fffffffffffffffffffffffffffffffff6110de8c602060405f2091015190611974565b91909216905f1983549160031b92831b921b1916179055565b61103f565b60646040517f08c379a000000000000000000000000000000000000000000000000000000000815260206004820152600960248201527f556e646572666c6f7700000000000000000000000000000000000000000000006044820152fd5b60646040517f08c379a000000000000000000000000000000000000000000000000000000000815260206004820152600860248201527f4f766572666c6f770000000000000000000000000000000000000000000000006044820152fd5b5f196111c9910160a08b0151611b28565b516111e760e08b01516104ef8c60406101a082015191015190611d11565b528a611009565b60208a0180515f190190526103a0565b60646040517f08c379a000000000000000000000000000000000000000000000000000000000815260206004820152600b60248201527f554e415554485f43414c430000000000000000000000000000000000000000006044820152fd5b346100ca5760406003193601126100ca576112756119b6565b73ffffffffffffffffffffffffffffffffffffffff60243591165f52600460205260405f2080548210156100ca576020916100bc91611974565b346100ca5760806003193601126100ca576112c86119b6565b67ffffffffffffffff602480358281116100ca576112ea903690600401611a3f565b926044358381116100ca57611303903690600401611a3f565b6064359473ffffffffffffffffffffffffffffffffffffffff809316928333149081156115fe575b50156115a05780518603611473576113429061202c565b825f526001906020600160205260405f20908251928884116115745768010000000000000000841161157457825484845580851061154c575b50602001915f5260205f20905f5b84811061153b57505050505050848151036114dd57815f526020946004865260405f2054159081156114d2575b5015611473576113c59061202c565b905f526004845260405f2091815193841161144857680100000000000000008411611448575083908254848455808510611420575b5001905f52825f20925f5b83811061140e57005b82518582015591810191600101611405565b835f5284835f2091820191015b81811061143a57506113fa565b5f815586935060010161142d565b7f4e487b71000000000000000000000000000000000000000000000000000000005f5260416004525ffd5b6040517f08c379a000000000000000000000000000000000000000000000000000000000815260206004820152601660248201527f496e76616c696420736574206d6f76696e6720617667000000000000000000006044820152606490fd5b9050815114866113b6565b6064836016604051917f08c379a0000000000000000000000000000000000000000000000000000000008352602060048401528201527f496e76616c696420696e697469616c2076616c756573000000000000000000006044820152fd5b835183820155928101928501611389565b835f52858560205f2092830192015b82811061156957505061137b565b5f815501869061155b565b877f4e487b71000000000000000000000000000000000000000000000000000000005f5260416004525ffd5b6064846006604051917f08c379a0000000000000000000000000000000000000000000000000000000008352602060048401528201527f554e4155544800000000000000000000000000000000000000000000000000006044820152fd5b90507f00000000000000000000000000000000000000000000000000000000000000001633148761132b565b346100ca576020806003193601126100ca576004356003548110156100ca5760035f527fc2575a0e9e593c00f959f8c92f12db2869c3395a3b0502d05e2516446f71f85b0190604051905f928054906001908260011c92600181168015611771575b85851081146117445784875290811561170457506001146116c8575b6116c4856116b8818903826118ba565b604051918291826118fb565b0390f35b5f908152838120939550925b8284106116f157505050816116c4936116b89282010193856116a8565b80548585018701529285019281016116d4565b7fffffffffffffffffffffffffffffffffffffffffffffffffffffffffffffff001686860152505050151560051b82010191506116b8816116c4856116a8565b7f4e487b71000000000000000000000000000000000000000000000000000000005f52602260045260245ffd5b93607f169361168c565b346100ca5760206003193601126100ca5760043567ffffffffffffffff81116100ca576117b76117b16020923690600401611943565b90611b57565b6040519015158152f35b346100ca575f6003193601126100ca575f9060025460018160011c90600183169283156118b0575b6020938484108114611744578386529081156118725750600114611818575b6116c4846116b8818803826118ba565b60025f9081529294507f405787fa12a823e0f2b7631cc41b3ba8828b3321ca811111fa75cd3aa3bb5ace5b82841061185f57505050816116c4936116b89282010193611808565b8054858501870152928501928101611843565b7fffffffffffffffffffffffffffffffffffffffffffffffffffffffffffffff0016858501525050151560051b82010191506116b8816116c4611808565b91607f16916117e9565b90601f7fffffffffffffffffffffffffffffffffffffffffffffffffffffffffffffffe0910116810190811067ffffffffffffffff821117610efe57604052565b7fffffffffffffffffffffffffffffffffffffffffffffffffffffffffffffffe0601f602060409481855280519182918282880152018686015e5f8582860101520116010190565b9181601f840112156100ca5782359167ffffffffffffffff83116100ca576020808501948460051b0101116100ca57565b8054821015611989575f5260205f2001905f90565b7f4e487b71000000000000000000000000000000000000000000000000000000005f52603260045260245ffd5b6004359073ffffffffffffffffffffffffffffffffffffffff821682036100ca57565b67ffffffffffffffff8111610efe5760051b60200190565b92916119fc826119d9565b91611a0a60405193846118ba565b829481845260208094019160051b81019283116100ca57905b828210611a305750505050565b81358152908301908301611a23565b9080601f830112156100ca57816020611a5a933591016119f1565b90565b9015611989578035907fffffffffffffffffffffffffffffffffffffffffffffffffffffffffffffffe1813603018212156100ca57019081359167ffffffffffffffff83116100ca576020018260051b360381136100ca579190565b9060011015611989576020810135907fffffffffffffffffffffffffffffffffffffffffffffffffffffffffffffffe1813603018212156100ca57019081359167ffffffffffffffff83116100ca576020018260051b360381136100ca579190565b8051156119895760200190565b80518210156119895760209160051b010190565b9190915f838201938412911290801582169115161761094957565b9060028103611c4957611b6d61061d8284611ab9565b905f5b8251811015611bd4576f7fffffffffffffffffffffffffffffff611b948285611b28565b5113611bcc575f611ba58285611b28565b5112611bcc57670de0b6b3a7640000611bbe8285611b28565b5113611bcc57600101611b70565b505050505f90565b5061061d9150611be392611a5d565b805161ffff9190821615611c5a5760ff60015b16925f92835b8351851015611c4f57611c0f8585611b28565b5115611c3457611c2c600191611c258787611b28565b5190611b3c565b940193611bfc565b9350915092505f915b15611c49571660011490565b50505f90565b919493509150611c3d565b60ff5f611bf6565b90611c6c826119d9565b611c7960405191826118ba565b8281527fffffffffffffffffffffffffffffffffffffffffffffffffffffffffffffffe0611ca782946119d9565b0190602036910137565b91908110156119895760051b0190565b90604051918281549182825260209260208301915f5260205f20935f905b828210611cf757505050611cf5925003836118ba565b565b855484526001958601958895509381019390910190611cdf565b9190820180921161094957565b9190918051926001918460011b60029580820460021490151715610949578211611e2f57611d4b82611c62565b945f938251915f19958684019384116109495788839160018816155f8115965b611dac575b505050505050611d81575b50505050565b611d8a91611b28565b51600f0b91810190811161094957611da29084611b28565b525f808080611d7b565b8851811015611e2a5784818195611dc489948d611b28565b5160801d611dd28783611b28565b52818c8b80611e21575b8015611e1a575b611df6575b505050019201918c93611d6b565b611e1191611e0391611b28565b51600f0b9184880190611b28565b528e818c611de8565b5086611de3565b508c8210611ddc565b611d70565b60646040517f08c379a000000000000000000000000000000000000000000000000000000000815260206004820152600860248201527f535243213d5447540000000000000000000000000000000000000000000000006044820152fd5b81810392915f13801582851316918412161761094957565b9290611eb082611c62565b93611eba84611b1b565b5190600f91600f0b90670de0b6b3a7640000828103935f8412828612811690838713901516176109495760019760018151145f14611f48575050505f5b858110611f08575050505050505090565b80611f37611f32611f2486611f1e8c9688611b28565b5161228a565b610ae788611f1e868c611b28565b612385565b611f41828b611b28565b5201611ef7565b919594509192505f5b868110611f6357505050505050505090565b80611f96611f32611f758b9486611b28565b51860b610ae7611f8982611f1e878c611b28565b918b03611f1e868c611b28565b611fa0828c611b28565b5201611f51565b906f7fffffffffffffffffffffffffffffff808313159081612021575b501561115a577fffffffffffffffffffffffffffffffff80000000000000000000000000000000808312159081612016575b50156110fc576fffffffffffffffffffffffffffffffff169060801b1790565b90508112155f611ff6565b90508113155f611fc4565b908151915f831561222c578151600192908381166120bc575061205385849693961c611c62565b945f925f198101908111855b61206c575b505050505050565b8061094957818510156120b7576120838585611b28565b51868601908187116109495787966120a260029261046e8a958a611b28565b6120ac878d611b28565b52019301929461205f565b612064565b5f199592939590818101908111610949576120d79083611b28565b517fffffffffffffffffffffffffffffffff800000000000000000000000000000008112159081612211575b50156121b3578201916121198684811c01611c62565b957ffffffffffffffffffffffffffffffffffffffffffffffffffffffffffffffffe820182811161094957905f5b8281106121725750505082116109495761216f9161216491611b28565b51600f0b9184611b28565b52565b612180818698939498611b28565b51838201918281116109495761219d60029261046e87958a611b28565b6121a7858d611b28565b52019101959190612147565b60646040517f08c379a000000000000000000000000000000000000000000000000000000000815260206004820152601b60248201527f4c61737420617272617920656c656d656e74206f766572666c6f7700000000006044820152fd5b6f7fffffffffffffffffffffffffffffff915013155f612103565b60646040517f08c379a000000000000000000000000000000000000000000000000000000000815260206004820152600460248201527f4c454e30000000000000000000000000000000000000000000000000000000006044820152fd5b7f800000000000000000000000000000000000000000000000000000000000000080821490811561237b575b50612353575f81121561234a576122db815f035b5f84121561234357835f03906126c7565b917f7fffffffffffffffffffffffffffffffffffffffffffffffffffffffffffffff8311612317575f19918212911218600103611a5a575f0390565b827fbf79e8d9000000000000000000000000000000000000000000000000000000005f5260045260245ffd5b83906126c7565b6122db816122ca565b7f3406846c000000000000000000000000000000000000000000000000000000005f5260045ffd5b905082145f6122b6565b7f80000000000000000000000000000000000000000000000000000000000000008082148015612442575b610a00575f821215612439576123c7825f0361276c565b917f7fffffffffffffffffffffffffffffffffffffffffffffffffffffffffffffff831161240d5760015f1981921318145f14612409578114610949575f0390565b5090565b827f7cb4bef5000000000000000000000000000000000000000000000000000000005f5260045260245ffd5b6123c78261276c565b505f6123b0565b7f8000000000000000000000000000000000000000000000000000000000000000908181148015612517575b610a00575f81121561250e57612499815f035b5f85121561250757845f039061280a565b927f7fffffffffffffffffffffffffffffffffffffffffffffffffffffffffffffff84116124db575f19918212911218600103612409578114610949575f0390565b837f7cb4bef5000000000000000000000000000000000000000000000000000000005f5260045260245ffd5b849061280a565b61249981612488565b50818314612475565b9190918051600190600181146126c0575f1981017ffffffffffffffff6c6d11716de2a2f8c500cdd19dbc6030cd280cbb9b6b8f0708112612695577809392ee8e921d5d073aff322e62439fcf32d7f344649470f90811361266a5761259086670de0b6b3a764000080930261228a565b8103905f915f905b85898684106126005750505050816125b4575b50929450505050565b906125be91612449565b5f5b828110156125ab5780876125d5869388611b28565b51036125e2575b016125c0565b6125f083611f1e8389611b28565b6125fa8288611b28565b526125dc565b909192938161260f868b611b28565b51121561262c5781612621868b611b28565b5203925b0190612598565b93948380925061263c878b611b28565b511315612656578161264e878b611b28565b520193612625565b90506126628589611b28565b510193612625565b7f71f72a31000000000000000000000000000000000000000000000000000000005f5260045260245ffd5b7fe608e18b000000000000000000000000000000000000000000000000000000005f5260045260245ffd5b5090925050565b5f19828209828202908180821091039381850390670de0b6b3a764000094858310156127405790859109916706f05b59d3b1ffff83119514612739577faccb18165bd6fe31ae1cf318dc5b51eee0e1ba569b88cd74c1773b91fac106699350828211900360ee1b910360121c17020190565b5050040190565b827fd31b3402000000000000000000000000000000000000000000000000000000005f5260045260245ffd5b90670de0b6b3a7640000915f198382098382029182808310920391808303921461280157848210156127d15793807faccb18165bd6fe31ae1cf318dc5b51eee0e1ba569b88cd74c1773b91fac1066994950990828211900360ee1b910360121c170290565b84827f773cc18c000000000000000000000000000000000000000000000000000000005f5260045260245260445ffd5b50509190910490565b670de0b6b3a7640000915f1983830992808302928380861095039480860395146128b85782851015612888579082910960018219018216809204600280826003021880830282030280830282030280830282030280830282030280830282030280920290030293600183805f03040190848311900302920304170290565b82857f773cc18c000000000000000000000000000000000000000000000000000000005f5260045260245260445ffd5b5050809250156109cd57049056fea2646970667358221220ad71891898ce5efe30819fbbbf57412a1d9857ccb978618fe36ad6ef80eb25c064736f6c634300081a0033",
  "linkReferences": {},
  "deployedLinkReferences": {}
}