{
  "_format": "hh-sol-artifact-1",
  "contractName": "MomentumUpdateRule",
  "sourceName": "contracts/rules/MomentumUpdateRule.sol",
  "abi": [
    {
      "inputs": [
        {
          "internalType": "address",
          "name": "_updateWeightRunner",
          "type": "address"
        }
      ],
      "stateMutability": "nonpayable",
      "type": "constructor"
    },
    {
      "inputs": [],
      "name": "PRBMathSD59x18__DivInputTooSmall",
      "type": "error"
    },
    {
      "inputs": [
        {
          "internalType": "uint256",
          "name": "rAbs",
          "type": "uint256"
        }
      ],
      "name": "PRBMathSD59x18__DivOverflow",
      "type": "error"
    },
    {
      "inputs": [
        {
          "internalType": "int256",
          "name": "x",
          "type": "int256"
        }
      ],
      "name": "PRBMathSD59x18__Exp2InputTooBig",
      "type": "error"
    },
    {
      "inputs": [
        {
          "internalType": "int256",
          "name": "x",
          "type": "int256"
        }
      ],
      "name": "PRBMathSD59x18__FromIntOverflow",
      "type": "error"
    },
    {
      "inputs": [
        {
          "internalType": "int256",
          "name": "x",
          "type": "int256"
        }
      ],
      "name": "PRBMathSD59x18__FromIntUnderflow",
      "type": "error"
    },
    {
      "inputs": [
        {
          "internalType": "int256",
          "name": "x",
          "type": "int256"
        }
      ],
      "name": "PRBMathSD59x18__LogInputTooSmall",
      "type": "error"
    },
    {
      "inputs": [],
      "name": "PRBMathSD59x18__MulInputTooSmall",
      "type": "error"
    },
    {
      "inputs": [
        {
          "internalType": "uint256",
          "name": "rAbs",
          "type": "uint256"
        }
      ],
      "name": "PRBMathSD59x18__MulOverflow",
      "type": "error"
    },
    {
      "inputs": [
        {
          "internalType": "uint256",
          "name": "prod1",
          "type": "uint256"
        }
      ],
      "name": "PRBMath__MulDivFixedPointOverflow",
      "type": "error"
    },
    {
      "inputs": [
        {
          "internalType": "uint256",
          "name": "prod1",
          "type": "uint256"
        },
        {
          "internalType": "uint256",
          "name": "denominator",
          "type": "uint256"
        }
      ],
      "name": "PRBMath__MulDivOverflow",
      "type": "error"
    },
    {
      "inputs": [
        {
          "internalType": "int256[]",
          "name": "_prevWeights",
          "type": "int256[]"
        },
        {
          "internalType": "int256[]",
          "name": "_data",
          "type": "int256[]"
        },
        {
          "internalType": "address",
          "name": "_pool",
          "type": "address"
        },
        {
          "internalType": "int256[][]",
          "name": "_parameters",
          "type": "int256[][]"
        },
        {
          "internalType": "uint64[]",
          "name": "_lambdaStore",
          "type": "uint64[]"
        },
        {
          "internalType": "uint64",
          "name": "_epsilonMax",
          "type": "uint64"
        },
        {
          "internalType": "uint64",
          "name": "_absoluteWeightGuardRail",
          "type": "uint64"
        }
      ],
      "name": "CalculateNewWeights",
      "outputs": [
        {
          "internalType": "int256[]",
          "name": "updatedWeights",
          "type": "int256[]"
        }
      ],
      "stateMutability": "nonpayable",
      "type": "function"
    },
    {
      "inputs": [
        {
          "internalType": "address",
          "name": "_poolAddress",
          "type": "address"
        },
        {
          "internalType": "int256[]",
          "name": "_newMovingAverages",
          "type": "int256[]"
        },
        {
          "internalType": "int256[]",
          "name": "_newInitialValues",
          "type": "int256[]"
        },
        {
          "internalType": "uint256",
          "name": "_numberOfAssets",
          "type": "uint256"
        }
      ],
      "name": "initialisePoolRuleIntermediateValues",
      "outputs": [],
      "stateMutability": "nonpayable",
      "type": "function"
    },
    {
      "inputs": [
        {
          "internalType": "address",
          "name": "",
          "type": "address"
        },
        {
          "internalType": "uint256",
          "name": "",
          "type": "uint256"
        }
      ],
      "name": "movingAverages",
      "outputs": [
        {
          "internalType": "int256",
          "name": "",
          "type": "int256"
        }
      ],
      "stateMutability": "view",
      "type": "function"
    },
    {
      "inputs": [],
      "name": "name",
      "outputs": [
        {
          "internalType": "string",
          "name": "",
          "type": "string"
        }
      ],
      "stateMutability": "view",
      "type": "function"
    },
    {
      "inputs": [
        {
          "internalType": "uint256",
          "name": "",
          "type": "uint256"
        }
      ],
      "name": "parameterDescriptions",
      "outputs": [
        {
          "internalType": "string",
          "name": "",
          "type": "string"
        }
      ],
      "stateMutability": "view",
      "type": "function"
    },
    {
      "inputs": [
        {
          "internalType": "int256[][]",
          "name": "_parameters",
          "type": "int256[][]"
        }
      ],
      "name": "validParameters",
      "outputs": [
        {
          "internalType": "bool",
          "name": "",
          "type": "bool"
        }
      ],
      "stateMutability": "pure",
      "type": "function"
    }
  ],
  "bytecode": "0x60a0346104ff57601f196001600160401b03601f613f8538819003828101851686018481118782101761045a578692829160405283396020958691810103126104ff57516001600160a01b03811681036104ff576080526002906100638254610503565b8181116104e1575b507f4d6f6d656e74756d000000000000000000000000000000000000000000000010825560405191608083018481118482101761045a5760405260038084525f5b6060808210156100c35785820189015287016100ac565b5050869084878782519268010000000000000000841161045a578590855485875580861061046e575b509291920191845f52855f20915f935b8585106103585750505050505080541561030357805f52815f206101208154610503565b858111610337575b5060d381555f52686772616469656e742960b81b81835f207f4b617070613a204b61707061206469637461746573207468652061676772657381557f736976656e657373206f66207468652072756c65277320726573706f6e73652060018201557f746f2061207369676e616c206368616e67652028686572652c2070726963652086820155015580546001101561030357805f526001825f20016101cd8154610503565b858111610317575b50607181555f527f65726167652c2031203d207573652072617720707269636500000000000000006001835f207f557365207261772070726963653a2030203d20757365206d6f76696e67206176815501558054831015610303577f696e6720666f72206120676976656e20706572696f64206f662074696d65000093815f5283835f2001916102658354610503565b908282116102e3575b50505060bd81555f525f207f4c616d6264613a204c616d62646120646963746174657320746865206573746981557f6d61746f7220776569676874696e6720616e6420707269636520736d6f6f746860018201550155604051613a33908161055282396080518181816101bf0152611b700152f35b6102fb92845f52855f20920160051c8201910161053b565b84808061026e565b634e487b7160e01b5f52603260045260245ffd5b61033190825f528587865f20920160051c8201910161053b565b856101d5565b61035290825f52600487865f20920160051c8201910161053b565b85610128565b8051805184811161045a5789918c6103708854610503565b818111610422575b505082908d83116001146103be579180600195928695945f926103b3575b50505f19828d1b1c191690841b1787555b019401940193926100fc565b015190508f80610396565b9085831691885f52845f20925f5b81811061040a57509160019693918588979694106103f3575b505050831b830187556103a7565b01515f19838e1b60f8161c191690558e80806103e5565b8284015185558e9660019095019493840193016103cc565b61044a91895f52855f2090600590808701821c830193888810610451575b01901c019061053b565b8c8e610378565b93508293610440565b634e487b7160e01b5f52604160045260245ffd5b865f5285835f2091820191015b81811061048857506100ec565b6001919293506104988154610503565b806104a9575b50019087929161047b565b8b811183146104bd57505f81555b8b61049e565b5f908282526104d88d8c8420920160051c820185830161053b565b818355556104b7565b6104f990835f5282875f20910160051c81019061053b565b5f61006b565b5f80fd5b90600182811c92168015610531575b602083101461051d57565b634e487b7160e01b5f52602260045260245ffd5b91607f1691610512565b818110610546575050565b5f815560010161053b56fe6080806040526004361015610012575f80fd5b5f3560e01c90816306fdde0314611d2f575080630df61b8f14611ce957806333417d8e14611b9857806344a01eb314611798578063b9579b0d146100c35763fe8cb6d71461005e575f80fd5b346100bf5760406003193601126100bf57610077611ef7565b73ffffffffffffffffffffffffffffffffffffffff60243591165f52600160205260405f2080548210156100bf576020916100b191611ee2565b90546040519160031b1c8152f35b5f80fd5b346100bf5760e06003193601126100bf5760043567ffffffffffffffff81116100bf576100f4903690600401611eb1565b9060243567ffffffffffffffff81116100bf57610115903690600401611eb1565b919073ffffffffffffffffffffffffffffffffffffffff60443516604435036100bf5760643567ffffffffffffffff81116100bf57610158903690600401611eb1565b60849291923567ffffffffffffffff81116100bf5761017b903690600401611eb1565b93909260a4359067ffffffffffffffff821682036100bf5760c4359167ffffffffffffffff831683036100bf5773ffffffffffffffffffffffffffffffffffffffff7f000000000000000000000000000000000000000000000000000000000000000016330361173a57604051998a6101c081011067ffffffffffffffff6101c08d011117611456576101c08b016040525f8b525f60208c01525f60608c01525f60808c0152606060a08c0152606060c08c0152606060e08c015260606101008c015260606101208c015260606101408c01525f6101608c01525f6101808c01525f6101a08c01528060408c0152610272816121af565b60208c0152610280886121bd565b6101408c01525b8a516101408c0151518110156102d8576102a290898961207d565b3567ffffffffffffffff81168091036100bf576102cb6101408d015191600f0b918d5190612069565b5260018b51018b52610287565b508a9750899650885f60608a01526102f960408a01518060808c01526121bd565b60a08a015261030b60408a01516121bd565b60c08a015261031d60808a01516121bd565b60e08a015261036261034f60443573ffffffffffffffffffffffffffffffffffffffff165f52600160205260405f2090565b61035d60408c01519161220c565b612283565b8060a08b01526101408a015160408b01519061037f368c89611f32565b90610389836121bd565b936103938261205c565b516103a081600f0b6123f2565b9260018151145f146116d557505f5b858110611691575050505050505b60c08a0152600160408a015116611681575b5f89525b885160208a01518110156105615760608a0151610532575b506103fc60c08a01518a5190612069565b5161040d60e08b01518b5190612069565b526001895101806101608b015260608a01516104f9575b5061043960c08a01516101608b015190612069565b5161044e60e08b01516101608c015190612069565b52606089015115610472575b610180890180516001019052885160020189526103d3565b6104f46104a461048860c08c01518c5190612069565b5160c08c01516101608d015161049d91612069565b5190612556565b6104dd6104d160443573ffffffffffffffffffffffffffffffffffffffff165f52600160205260405f2090565b6101808d015190611ee2565b9091905f1983549160031b92831b921b1916179055565b61045a565b6105079060a08b0151612069565b5161052b60e08b01516105258c60406101608201519101519061225c565b90612069565b5289610424565b6105409060a08b0151612069565b5161055a60e08b01516105258c604081519101519061225c565b52896103eb565b5090889188604084015160018116611593575b5060608401516114d5575b6040519586608081011067ffffffffffffffff608089011117611456576105f491608088016040525f88525f602089015260606040890152606080890152610140860151604089015260e0860151606089015273ffffffffffffffffffffffffffffffffffffffff6044351688523691611f32565b96604051988961012081011067ffffffffffffffff6101208c011117611456576101208a0160405260608a52606060208b01525f60408b01525f60608b01525f60808b01525f60a08b01525f60c08b01525f60e08b01525f6101008b015261066661065f8284612000565b3691611f32565b8a525f60808b015260018111611483575b50508160208601528160608901526040518060e081011067ffffffffffffffff60e0830111176114565760e081016040525f81525f60208201525f60408201525f60608201525f6080820152606060a0820152606060c08201526106de60208701516121bd565b60a082015273ffffffffffffffffffffffffffffffffffffffff8651165f525f60205261071660405f2061035d60208901519161220c565b60c08201526020860151610729816121af565b90610737604089015161205c565b51600f0b91610745836123f2565b91600160408b015151145f14611116576107678461076285612ef1565b6129f8565b85526001811661110c575b83905f5b8d858d89878510610fc35750505050506001915016610eeb575b50505060a0905b015160208901525f60a08901525b60a08801516060890151811015610a4f576107c4906060870151612069565b5160c08901526080880151610a36575b60c08801517f80000000000000000000000000000000000000000000000000000000000000008114610a0e575f811215610a0857805f03905b81156109db577f7fffffffffffffffffffffffffffffffffffffffffffffffffffffffffffffff826ec097ce7bc90715b34b9f1000000000041161099e575f19600191138118145f14610984577f8000000000000000000000000000000000000000000000000000000000000000816ec097ce7bc90715b34b9f10000000000414610957576108c4906ec097ce7bc90715b34b9f1000000000045f035b6108bd60208b015160a08c015190612069565b5190612839565b6108d760208a015160a08b015190612069565b52875151600103610919576109036108f860208a015160a08b015190612069565b5160408a015161242c565b60408901525b60a08801805160010190526107a5565b61094d61094361093260208b015160a08c015190612069565b516108bd8b5160a08d015190612069565b60408a015161242c565b6040890152610909565b7f4e487b71000000000000000000000000000000000000000000000000000000005f52601160045260245ffd5b6108c4906ec097ce7bc90715b34b9f1000000000046108aa565b507f7cb4bef5000000000000000000000000000000000000000000000000000000005f526ec097ce7bc90715b34b9f10000000000460045260245ffd5b7f4e487b71000000000000000000000000000000000000000000000000000000005f52601260045260245ffd5b8061080d565b7fb3c754a3000000000000000000000000000000000000000000000000000000005f5260045ffd5b610a4460a089015188612069565b5160c08901526107d4565b5087945085610a6160608701516121bd565b946001875151145f14610e02576060870151604088015181156109db575f1982147f8000000000000000000000000000000000000000000000000000000000000000821416610957570560408801525f60a08801525b60a08701516060880151811015610b3357610ad6610b1491868661207d565b35610b0e610ae48a5161205c565b51610b08610afc8c60a0602082015191015190612069565b5160408d015190612414565b90612839565b9061242c565b610b2260a089015188612069565b5260a0870180516001019052610ab7565b50610b639293965067ffffffffffffffff809187610120610b6b989995995b015216600f0b9516600f0b90612acf565b933691611f32565b81905f5b8151811015610be457610b828183612069565b51610b8d8287612069565b511215610bc757610b9e8183612069565b51610ba98287612069565b5190035b838113610bbe575b50600101610b6f565b92506001610bb5565b610bd18186612069565b51610bdc8284612069565b519003610bad565b505f92839283928392839281811315610d7457610c089197949297969395966129f8565b925f945b8851861015610cc557610c3685610c23888c612069565b51610c2e898c612069565b519003612839565b610c40878a612069565b5101610c4c878b612069565b52610c57868a612069565b51019282610c65878b612069565b511315610c8e5750509394610c7a8488612069565b51926001855b019495929690939196610c0c565b959486610ca0828b9a9597949a612069565b5113610caf575b600190610c80565b96509450610cbd8688612069565b519486610ca7565b945095505050505b670de0b6b3a764000090818103610d27575b505050506040518091602082016020835281518091526020604084019201905f5b818110610d0e575050500390f35b8251845285945060209384019390920191600101610d00565b81811315610d5457829350610d3f610d499386612069565b5103019183612069565b525b81808080610cdf565b610d6e9250610d638486612069565b519103019183612069565b52610d4b565b5050509192935f925b8651841015610df857610d908488612069565b51019482610d9e8589612069565b511315610dc35750509192610db38286612069565b51906001835b0192939490610d7d565b939284610dd38289989498612069565b5113610de2575b600190610db9565b94509250610df08486612069565b519284610dda565b9250935050610ccd565b93915f60a0889795939701525b60a087015187518051821015610e4c57610e3791610e2c91612069565b5160e089015161242c565b60e088015260a0870180516001019052610e0f565b5050919394909294610e67604088015160e0890151906129f8565b60408801525f60a08801525b60a087015184811015610ec857610e8e610ea291868661207d565b35610b0e610ae48a5160a08c015190612069565b80610100890152610eb760a089015188612069565b5260a0870180516001019052610e73565b50610b639293965067ffffffffffffffff809187610120610b6b98999599610b52565b600101918260c085015190610eff91612069565b51610f0991612839565b90610f14838c612069565b518360608b015190610f2591612069565b51610f2f91612414565b90610f39916129f8565b610f429161242c565b806020840152610f5190612447565b875173ffffffffffffffffffffffffffffffffffffffff165f525f60205260405f206080840151610f8191611ee2565b610f9a92905f1983549160031b92831b921b1916179055565b81516020830151610faa91612839565b9060a083015190610fba91612069565b52898080610790565b82610762836110238460608061107961106e60029e9f6108bd8f6110939f9d906110869f8f610b0e9f61102a92610762600196611023878e61101a826110148f6108bd8360c0610b0e9d0151612069565b99612069565b51930151612069565b5190612414565b8060208b015261103e8260c08c0151612069565b5261104f895160208b015190612839565b61105d8260a08c0151612069565b5201808689015260c0880151612069565b998285015190612069565b5194015191015190612069565b8060408a01528851612839565b6110a660a089015160608a015190612069565b526110f88c73ffffffffffffffffffffffffffffffffffffffff6110dd6110d18560c08d0151612069565b5160408c015190612556565b9151165f525f6020526104dd60405f2060808b015190611ee2565b608087018051600101905285929101610776565b905f190190610772565b600191935080925016611446575b5f5b82811061124b575060011661113f575b5060a090610797565b6001018060408801519061115291612069565b51600f0b80670de0b6b3a764000003908061116c83612ef1565b90611176916129f8565b84528260c08501519061118891612069565b5161119291612839565b9061119d838c612069565b518360608b0151906111ae91612069565b516111b891612414565b906111c2916129f8565b6111cb9161242c565b8060208401528251906111dd91612839565b9060a0830151906111ed91612069565b5260208101516111fc90612447565b865173ffffffffffffffffffffffffffffffffffffffff165f525f60205260405f20608083015161122c91611ee2565b61124592905f1983549160031b92831b921b1916179055565b89611136565b8a818060408c01519061125d91612069565b51600f0b8b82670de0b6b3a764000094838603938061127b86612ef1565b90611285916129f8565b8b528260c08c01519061129791612069565b516112a191612839565b946112ab91612069565b519160600151906112bb91612069565b516112c591612414565b906112cf916129f8565b6112d89161242c565b8060208701528260c0870151906112ee91612069565b52845160208601516112ff91612839565b8260a08701519061130f91612069565b526001820180606087015260408b01519061132991612069565b51600f0b809103908061133b83612ef1565b90611345916129f8565b865260c0860151606087015161135a91612069565b5161136491612839565b908c606087015161137491612069565b5160608c0151606088015161138891612069565b5161139291612414565b9061139c916129f8565b6113a59161242c565b8060408601528451906113b791612839565b60a085015160608601516113ca91612069565b528060c0850151906113db91612069565b5160408501516113ea91612556565b895173ffffffffffffffffffffffffffffffffffffffff165f525f60205260405f20608086015161141a91611ee2565b61143392905f1983549160031b92831b921b1916179055565b6080840180516001019052600201611126565b908015610957575f190190611124565b7f4e487b71000000000000000000000000000000000000000000000000000000005f52604160045260245ffd5b61148c91611f9e565b156114a85735670de0b6b3a76400001460808901528880610677565b7f4e487b71000000000000000000000000000000000000000000000000000000005f52603260045260245ffd5b6114e260c08501516125db565b61150c60443573ffffffffffffffffffffffffffffffffffffffff165f52600160205260405f2090565b81519167ffffffffffffffff83116114565768010000000000000000831161145657815483835580841061156c575b50602001905f5260205f205f5b838110611558575050505061057f565b600190602084519401938184015501611548565b825f5260205f20908482015b818301811061158857505061153b565b5f8155600101611578565b61159c906121af565b806101a08601528060011c6020860152606085015161164f575b506115cb60c08501516101a086015190612069565b516115e060e08601516101a087015190612069565b526060840151156115f2575b89610574565b61164a61161261160c60c08701516101a088015190612069565b51612447565b6104dd61163f60443573ffffffffffffffffffffffffffffffffffffffff165f52600160205260405f2090565b602088015190611ee2565b6115ec565b61165d9060a0860151612069565b5161167a60e08601516105256101a088015160408901519061225c565b52896115b6565b6020890180515f190190526103cf565b6001906116c46116bf6116b185600f0b6116ab8589612069565b51612839565b610b0e886116ab868c612069565b612934565b6116ce828a612069565b52016103af565b919250505f5b8481106116ec5750505050506103bd565b806117296116bf6116ff60019486612069565b51600f0b610b0e611714826116ab878b612069565b91670de0b6b3a7640000036116ab868b612069565b6117338289612069565b52016116db565b60646040517f08c379a000000000000000000000000000000000000000000000000000000000815260206004820152600b60248201527f554e415554485f43414c430000000000000000000000000000000000000000006044820152fd5b346100bf5760806003193601126100bf576117b1611ef7565b67ffffffffffffffff602480358281116100bf576117d3903690600401611f80565b926044358381116100bf576117ec903690600401611f80565b6064359473ffffffffffffffffffffffffffffffffffffffff80931692833314908115611b6c575b5015611b0e5780518603611ab05761182b906125db565b825f526001906020600160205260405f2090825192888411611a8457680100000000000000008411611a84578254848455808510611a5c575b50602001915f5260205f20905f5b848110611a4b57505050505050815f526020945f865260405f2054825191821491826119b3575b505015611956576118a9906125db565b905f525f845260405f2091815193841161192b5768010000000000000000841161192b575083908254848455808510611903575b5001905f52825f20925f5b8381106118f157005b825185820155918101916001016118e8565b835f5284835f2091820191015b81811061191d57506118dd565b5f8155869350600101611910565b7f4e487b71000000000000000000000000000000000000000000000000000000005f5260416004525ffd5b606485601485604051927f08c379a000000000000000000000000000000000000000000000000000000000845260048401528201527f496e76616c696420736574206772616469656e740000000000000000000000006044820152fd5b81159250908215611a2c575b82156119cf575b50508680611899565b600182161515925090826119e7575b505086806119c6565b90915060011c60018101809111611a00571486806119de565b847f4e487b71000000000000000000000000000000000000000000000000000000005f5260116004525ffd5b9150600181161580611a3f575b916119bf565b50818160011c14611a39565b835183820155928101928501611872565b835f52858560205f2092830192015b828110611a79575050611864565b5f8155018690611a6b565b877f4e487b71000000000000000000000000000000000000000000000000000000005f5260416004525ffd5b6064846016604051917f08c379a0000000000000000000000000000000000000000000000000000000008352602060048401528201527f496e76616c696420736574206d6f76696e6720617667000000000000000000006044820152fd5b6064846006604051917f08c379a0000000000000000000000000000000000000000000000000000000008352602060048401528201527f554e4155544800000000000000000000000000000000000000000000000000006044820152fd5b90507f000000000000000000000000000000000000000000000000000000000000000016331487611814565b346100bf576020806003193601126100bf576004356003548110156100bf5760035f527fc2575a0e9e593c00f959f8c92f12db2869c3395a3b0502d05e2516446f71f85b0190604051905f928054906001908260011c92600181168015611cdf575b8585108114611cb257848752908115611c725750600114611c36575b611c3285611c2681890382611e28565b60405191829182611e69565b0390f35b5f908152838120939550925b828410611c5f5750505081611c3293611c26928201019385611c16565b8054858501870152928501928101611c42565b7fffffffffffffffffffffffffffffffffffffffffffffffffffffffffffffff001686860152505050151560051b8201019150611c2681611c3285611c16565b7f4e487b71000000000000000000000000000000000000000000000000000000005f52602260045260245ffd5b93607f1693611bfa565b346100bf5760206003193601126100bf5760043567ffffffffffffffff81116100bf57611d25611d1f6020923690600401611eb1565b9061208d565b6040519015158152f35b346100bf575f6003193601126100bf575f9060025460018160011c9060018316928315611e1e575b6020938484108114611cb257838652908115611de05750600114611d86575b611c3284611c2681880382611e28565b60025f9081529294507f405787fa12a823e0f2b7631cc41b3ba8828b3321ca811111fa75cd3aa3bb5ace5b828410611dcd5750505081611c3293611c269282010193611d76565b8054858501870152928501928101611db1565b7fffffffffffffffffffffffffffffffffffffffffffffffffffffffffffffff0016858501525050151560051b8201019150611c2681611c32611d76565b91607f1691611d57565b90601f7fffffffffffffffffffffffffffffffffffffffffffffffffffffffffffffffe0910116810190811067ffffffffffffffff82111761145657604052565b7fffffffffffffffffffffffffffffffffffffffffffffffffffffffffffffffe0601f602060409481855280519182918282880152018686015e5f8582860101520116010190565b9181601f840112156100bf5782359167ffffffffffffffff83116100bf576020808501948460051b0101116100bf57565b80548210156114a8575f5260205f2001905f90565b6004359073ffffffffffffffffffffffffffffffffffffffff821682036100bf57565b67ffffffffffffffff81116114565760051b60200190565b9291611f3d82611f1a565b91611f4b6040519384611e28565b829481845260208094019160051b81019283116100bf57905b828210611f715750505050565b81358152908301908301611f64565b9080601f830112156100bf57816020611f9b93359101611f32565b90565b90600110156114a8576020810135907fffffffffffffffffffffffffffffffffffffffffffffffffffffffffffffffe1813603018212156100bf57019081359167ffffffffffffffff83116100bf576020018260051b360381136100bf579190565b90156114a8578035907fffffffffffffffffffffffffffffffffffffffffffffffffffffffffffffffe1813603018212156100bf57019081359167ffffffffffffffff83116100bf576020018260051b360381136100bf579190565b8051156114a85760200190565b80518210156114a85760209160051b010190565b91908110156114a85760051b0190565b906001918282148015612190575b6120a6575050505f90565b6120b361065f8383612000565b9061ffff928383511615155f14612187578460ff815b16935f825b612150575b505050600281148061213c575b6120ec575b5050161490565b6120f68183611f9e565b156114a857351591821561211b575b505015612114575b5f806120e5565b505f61210d565b6121259250611f9e565b156114a85735670de0b6b3a7640000145f80612105565b50846121488284611f9e565b9050146120e0565b8151811015612182575f6121648284612069565b511315612173578201826120ce565b50505091505f91845f806120d3565b6120d3565b8460ff5f6120c9565b5060028214801561209b5750826121a78383611f9e565b90501461209b565b905f19820191821161095757565b906121c782611f1a565b6121d46040519182611e28565b8281527fffffffffffffffffffffffffffffffffffffffffffffffffffffffffffffffe06122028294611f1a565b0190602036910137565b90604051918281549182825260209260208301915f5260205f20935f905b8282106122425750505061224092500383611e28565b565b85548452600195860195889550938101939091019061222a565b9190820180921161095757565b80156109db576ec097ce7bc90715b34b9f10000000000590565b9190918051926001918460011b60029580820460021490151715610957578211612394576122b0826121bd565b945f938251915f19958684019384116109575788839160018816155f8115965b612311575b5050505050506122e6575b50505050565b6122ef91612069565b51600f0b918101908111610957576123079084612069565b525f8080806122e0565b885181101561238f578481819561232989948d612069565b5160801d6123378783612069565b52818c8b80612386575b801561237f575b61235b575b505050019201918c936122d0565b6123769161236891612069565b51600f0b9184880190612069565b528e818c61234d565b5086612348565b508c8210612341565b6122d5565b60646040517f08c379a000000000000000000000000000000000000000000000000000000000815260206004820152600860248201527f535243213d5447540000000000000000000000000000000000000000000000006044820152fd5b90670de0b6b3a76400005f838203931281841281169184139015161761095757565b81810392915f13801582851316918412161761095757565b9190915f838201938412911290801582169115161761095757565b6f7fffffffffffffffffffffffffffffff81136124f8577fffffffffffffffffffffffffffffffff80000000000000000000000000000000811261249a576fffffffffffffffffffffffffffffffff1690565b60646040517f08c379a000000000000000000000000000000000000000000000000000000000815260206004820152600960248201527f556e646572666c6f7700000000000000000000000000000000000000000000006044820152fd5b60646040517f08c379a000000000000000000000000000000000000000000000000000000000815260206004820152600860248201527f4f766572666c6f770000000000000000000000000000000000000000000000006044820152fd5b906f7fffffffffffffffffffffffffffffff8083131590816125d0575b50156124f8577fffffffffffffffffffffffffffffffff800000000000000000000000000000008083121590816125c5575b501561249a576fffffffffffffffffffffffffffffffff169060801b1790565b90508112155f6125a5565b90508113155f612573565b908151915f83156127db5781516001929083811661266b575061260285849693961c6121bd565b945f925f198101908111855b61261b575b505050505050565b806109575781851015612666576126328585612069565b518686019081871161095757879661265160029261049d8a958a612069565b61265b878d612069565b52019301929461260e565b612613565b5f199592939590818101908111610957576126869083612069565b517fffffffffffffffffffffffffffffffff8000000000000000000000000000000081121590816127c0575b5015612762578201916126c88684811c016121bd565b957ffffffffffffffffffffffffffffffffffffffffffffffffffffffffffffffffe820182811161095757905f5b8281106127215750505082116109575761271e9161271391612069565b51600f0b9184612069565b52565b61272f818698939498612069565b51838201918281116109575761274c60029261049d87958a612069565b612756858d612069565b520191019591906126f6565b60646040517f08c379a000000000000000000000000000000000000000000000000000000000815260206004820152601b60248201527f4c61737420617272617920656c656d656e74206f766572666c6f7700000000006044820152fd5b6f7fffffffffffffffffffffffffffffff915013155f6126b2565b60646040517f08c379a000000000000000000000000000000000000000000000000000000000815260206004820152600460248201527f4c454e30000000000000000000000000000000000000000000000000000000006044820152fd5b7f800000000000000000000000000000000000000000000000000000000000000080821490811561292a575b50612902575f8112156128f95761288a815f035b5f8412156128f257835f0390612d25565b917f7fffffffffffffffffffffffffffffffffffffffffffffffffffffffffffffff83116128c6575f19918212911218600103611f9b575f0390565b827fbf79e8d9000000000000000000000000000000000000000000000000000000005f5260045260245ffd5b8390612d25565b61288a81612879565b7f3406846c000000000000000000000000000000000000000000000000000000005f5260045ffd5b905082145f612865565b7f800000000000000000000000000000000000000000000000000000000000000080821480156129f1575b610a0e575f8212156129e857612976825f03612d97565b917f7fffffffffffffffffffffffffffffffffffffffffffffffffffffffffffffff83116129bc5760015f1981921318145f146129b8578114610957575f0390565b5090565b827f7cb4bef5000000000000000000000000000000000000000000000000000000005f5260045260245ffd5b61297682612d97565b505f61295f565b7f8000000000000000000000000000000000000000000000000000000000000000908181148015612ac6575b610a0e575f811215612abd57612a48815f035b5f851215612ab657845f0390612e35565b927f7fffffffffffffffffffffffffffffffffffffffffffffffffffffffffffffff8411612a8a575f199182129112186001036129b8578114610957575f0390565b837f7cb4bef5000000000000000000000000000000000000000000000000000000005f5260045260245ffd5b8490612e35565b612a4881612a37565b50818314612a24565b919091805160019060018114612c6f575f1981017ffffffffffffffff6c6d11716de2a2f8c500cdd19dbc6030cd280cbb9b6b8f0708112612c44577809392ee8e921d5d073aff322e62439fcf32d7f344649470f908113612c1957612b3f86670de0b6b3a7640000809302612839565b8103905f915f905b8589868410612baf575050505081612b63575b50929450505050565b90612b6d916129f8565b5f5b82811015612b5a578087612b84869388612069565b5103612b91575b01612b6f565b612b9f836116ab8389612069565b612ba98288612069565b52612b8b565b9091929381612bbe868b612069565b511215612bdb5781612bd0868b612069565b5203925b0190612b47565b939483809250612beb878b612069565b511315612c055781612bfd878b612069565b520193612bd4565b9050612c118589612069565b510193612bd4565b7f71f72a31000000000000000000000000000000000000000000000000000000005f5260045260245ffd5b7fe608e18b000000000000000000000000000000000000000000000000000000005f5260045260245ffd5b5090925050565b6729a2241af62c0000905f19828209828202908180821091039381850390670de0b6b3a76400009485831015612cf95790859109916706f05b59d3b1ffff83119514612cf2577faccb18165bd6fe31ae1cf318dc5b51eee0e1ba569b88cd74c1773b91fac106699350828211900360ee1b910360121c17020190565b5050040190565b827fd31b3402000000000000000000000000000000000000000000000000000000005f5260045260245ffd5b5f19828209828202908180821091039381850390670de0b6b3a76400009485831015612cf95790859109916706f05b59d3b1ffff83119514612cf2577faccb18165bd6fe31ae1cf318dc5b51eee0e1ba569b88cd74c1773b91fac106699350828211900360ee1b910360121c17020190565b90670de0b6b3a7640000915f1983820983820291828083109203918083039214612e2c5784821015612dfc5793807faccb18165bd6fe31ae1cf318dc5b51eee0e1ba569b88cd74c1773b91fac1066994950990828211900360ee1b910360121c170290565b84827f773cc18c000000000000000000000000000000000000000000000000000000005f5260045260245260445ffd5b50509190910490565b670de0b6b3a7640000915f198383099280830292838086109503948086039514612ee35782851015612eb3579082910960018219018216809204600280826003021880830282030280830282030280830282030280830282030280830282030280920290030293600183805f03040190848311900302920304170290565b82857f773cc18c000000000000000000000000000000000000000000000000000000005f5260045260245260445ffd5b5050809250156109db570490565b80612efb57505f90565b612f0490612fc8565b7f800000000000000000000000000000000000000000000000000000000000000081148015612fc1575b612902575f811215612fb857612f45815f03612c76565b907f7fffffffffffffffffffffffffffffffffffffffffffffffffffffffffffffff8211612f8c57906001805f19611f9b941318145f14612f87575f03613199565b613199565b507fbf79e8d9000000000000000000000000000000000000000000000000000000005f5260045260245ffd5b612f4581612c76565b505f612f2e565b5f81131561316e57670de0b6b3a764000090818112613153576001915b5f90808305700100000000000000000000000000000000811015613148575b68010000000000000000811015613133575b64010000000081101561311e575b62010000811015613109575b6101008110156130f4575b60108110156130df575b60048110156130ca575b600211156130b8575b80820292821d918183146130ae57506706f05b59d3b20000915b5f8313613080575050500290565b808291020591671bc16d674ec800008312156130a0575b60011d91613072565b809293019260011d91613097565b9150929150020290565b90600181018091116109575790613058565b60021c9160028101809111610957579161304f565b60041c91600481018091116109575791613045565b60081c9160088101809111610957579161303b565b60101c91601081018091116109575791613030565b60201c91602081018091116109575791613024565b60401c91604081018091116109575791613016565b60809250821c613004565b905f19916ec097ce7bc90715b34b9f10000000000490612fe5565b7f613f4fba000000000000000000000000000000000000000000000000000000005f5260045260245ffd5b5f8112156131e1577ffffffffffffffffffffffffffffffffffffffffffffffffcc22e87f6eb468eeb81126131dc576131d3905f03613199565b611f9b90612269565b505f90565b680a688906bd8b0000008112156139d257670de0b6b3a764000080604092831b04907780000000000000000000000000000000000000000000000067800000000000000083166139b3575b67400000000000000083166139a1575b672000000000000000831661398f575b671000000000000000831661397d575b670800000000000000831661396b575b6704000000000000008316613959575b6702000000000000008316613947575b6701000000000000008316613935575b66800000000000008316613923575b66400000000000008316613911575b662000000000000083166138ff575b661000000000000083166138ed575b660800000000000083166138db575b660400000000000083166138c9575b660200000000000083166138b7575b660100000000000083166138a5575b658000000000008316613893575b654000000000008316613881575b65200000000000831661386f575b65100000000000831661385d575b65080000000000831661384b575b650400000000008316613839575b650200000000008316613827575b650100000000008316613815575b6480000000008316613803575b64400000000083166137f1575b64200000000083166137df575b64100000000083166137cd575b64080000000083166137bb575b64040000000083166137a9575b6402000000008316613797575b6401000000008316613785575b63800000008316613773575b63400000008316613761575b6320000000831661374f575b6310000000831661373d575b6308000000831661372b575b63040000008316613719575b63020000008316613707575b630100000083166136f5575b6280000083166136e3575b6240000083166136d1575b6220000083166136bf575b6210000083166136ad575b62080000831661369b575b620400008316613689575b620200008316613677575b620100008316613665575b6180008316613653575b6140008316613641575b612000831661362f575b611000831661361d575b610800831661360b575b61040083166135f9575b61020083166135e7575b61010083166135d5575b608083166135c3575b8383166135b1575b6020831661359f575b6010831661358d575b6008831661357b575b60048316613569575b60028316613557575b60018316613545575b02911c60bf031c90565b6801000000000000000102831c61353b565b6801000000000000000102831c613532565b6801000000000000000302831c613529565b6801000000000000000602831c613520565b6801000000000000000b02831c613517565b6801000000000000001602831c61350e565b6801000000000000002c02831c613505565b6801000000000000005902831c6134fd565b680100000000000000b102831c6134f4565b6801000000000000016302831c6134ea565b680100000000000002c602831c6134e0565b6801000000000000058c02831c6134d6565b68010000000000000b1702831c6134cc565b6801000000000000162e02831c6134c2565b68010000000000002c5d02831c6134b8565b680100000000000058b902831c6134ae565b6801000000000000b17202831c6134a4565b680100000000000162e402831c613499565b6801000000000002c5c802831c61348e565b68010000000000058b9102831c613483565b680100000000000b172102831c613478565b68010000000000162e4302831c61346d565b680100000000002c5c8602831c613462565b6801000000000058b90c02831c613457565b68010000000000b1721802831c61344c565b6801000000000162e43002831c613440565b68010000000002c5c86002831c613434565b680100000000058b90c002831c613428565b6801000000000b17217f02831c61341c565b680100000000162e42ff02831c613410565b6801000000002c5c85fe02831c613404565b68010000000058b90bfc02831c6133f8565b680100000000b17217f802831c6133ec565b68010000000162e42ff102831c6133df565b680100000002c5c85fe302831c6133d2565b6801000000058b90bfce02831c6133c5565b68010000000b17217fbb02831c6133b8565b6801000000162e42fff002831c6133ab565b68010000002c5c8601cc02831c61339e565b680100000058b90c0b4902831c613391565b6801000000b17218355102831c613384565b680100000162e430e5a202831c613376565b6801000002c5c863b73f02831c613368565b68010000058b90cf1e6e02831c61335a565b680100000b1721bcfc9a02831c61334c565b68010000162e43f4f83102831c61333e565b680100002c5c89d5ec6d02831c613330565b6801000058b91b5bc9ae02831c613322565b68010000b17255775c0402831c613314565b6801000162e525ee054702831c613305565b68010002c5cc37da949202831c6132f6565b680100058ba01fb9f96d02831c6132e7565b6801000b175effdc76ba02831c6132d8565b680100162f3904051fa102831c6132c9565b6801002c605e2e8cec5002831c6132ba565b68010058c86da1c09ea202831c6132ab565b680100b1afa5abcbed6102831c61329c565b68010163da9fb33356d802831c61328c565b680102c9a3e778060ee702831c61327c565b6801059b0d31585743ae02831c61326c565b68010b5586cf9890f62a02831c61325c565b6801172b83c7d517adce02831c61324c565b6801306fe0a31b7152df02831c61323c565b5077b504f333f9de64848000000000000000000000000000000061322c565b7fe69458f9000000000000000000000000000000000000000000000000000000005f5260045260245ffdfea264697066735822122005e265982a0a2988e78df79f4f8a7891b4234d2330b1861937e8590ee425469364736f6c634300081a0033",
  "linkReferences": {},
  "deployedLinkReferences": {}
}