{
  "_format": "hh-sol-artifact-1",
  "contractName": "PowerChannelUpdateRule",
  "sourceName": "contracts/rules/PowerChannelUpdateRule.sol",
  "abi": [
    {
      "inputs": [
        {
          "internalType": "address",
          "name": "_updateWeightRunner",
          "type": "address"
        }
      ],
      "stateMutability": "nonpayable",
      "type": "constructor"
    },
    {
      "inputs": [],
      "name": "PRBMathSD59x18__AbsInputTooSmall",
      "type": "error"
    },
    {
      "inputs": [],
      "name": "PRBMathSD59x18__DivInputTooSmall",
      "type": "error"
    },
    {
      "inputs": [
        {
          "internalType": "uint256",
          "name": "rAbs",
          "type": "uint256"
        }
      ],
      "name": "PRBMathSD59x18__DivOverflow",
      "type": "error"
    },
    {
      "inputs": [
        {
          "internalType": "int256",
          "name": "x",
          "type": "int256"
        }
      ],
      "name": "PRBMathSD59x18__Exp2InputTooBig",
      "type": "error"
    },
    {
      "inputs": [
        {
          "internalType": "int256",
          "name": "x",
          "type": "int256"
        }
      ],
      "name": "PRBMathSD59x18__FromIntOverflow",
      "type": "error"
    },
    {
      "inputs": [
        {
          "internalType": "int256",
          "name": "x",
          "type": "int256"
        }
      ],
      "name": "PRBMathSD59x18__FromIntUnderflow",
      "type": "error"
    },
    {
      "inputs": [
        {
          "internalType": "int256",
          "name": "x",
          "type": "int256"
        }
      ],
      "name": "PRBMathSD59x18__LogInputTooSmall",
      "type": "error"
    },
    {
      "inputs": [],
      "name": "PRBMathSD59x18__MulInputTooSmall",
      "type": "error"
    },
    {
      "inputs": [
        {
          "internalType": "uint256",
          "name": "rAbs",
          "type": "uint256"
        }
      ],
      "name": "PRBMathSD59x18__MulOverflow",
      "type": "error"
    },
    {
      "inputs": [
        {
          "internalType": "uint256",
          "name": "prod1",
          "type": "uint256"
        }
      ],
      "name": "PRBMath__MulDivFixedPointOverflow",
      "type": "error"
    },
    {
      "inputs": [
        {
          "internalType": "uint256",
          "name": "prod1",
          "type": "uint256"
        },
        {
          "internalType": "uint256",
          "name": "denominator",
          "type": "uint256"
        }
      ],
      "name": "PRBMath__MulDivOverflow",
      "type": "error"
    },
    {
      "inputs": [
        {
          "internalType": "int256[]",
          "name": "_prevWeights",
          "type": "int256[]"
        },
        {
          "internalType": "int256[]",
          "name": "_data",
          "type": "int256[]"
        },
        {
          "internalType": "address",
          "name": "_pool",
          "type": "address"
        },
        {
          "internalType": "int256[][]",
          "name": "_parameters",
          "type": "int256[][]"
        },
        {
          "internalType": "uint64[]",
          "name": "_lambdaStore",
          "type": "uint64[]"
        },
        {
          "internalType": "uint64",
          "name": "_epsilonMax",
          "type": "uint64"
        },
        {
          "internalType": "uint64",
          "name": "_absoluteWeightGuardRail",
          "type": "uint64"
        }
      ],
      "name": "CalculateNewWeights",
      "outputs": [
        {
          "internalType": "int256[]",
          "name": "updatedWeights",
          "type": "int256[]"
        }
      ],
      "stateMutability": "nonpayable",
      "type": "function"
    },
    {
      "inputs": [
        {
          "internalType": "address",
          "name": "_poolAddress",
          "type": "address"
        },
        {
          "internalType": "int256[]",
          "name": "_newMovingAverages",
          "type": "int256[]"
        },
        {
          "internalType": "int256[]",
          "name": "_newInitialValues",
          "type": "int256[]"
        },
        {
          "internalType": "uint256",
          "name": "_numberOfAssets",
          "type": "uint256"
        }
      ],
      "name": "initialisePoolRuleIntermediateValues",
      "outputs": [],
      "stateMutability": "nonpayable",
      "type": "function"
    },
    {
      "inputs": [
        {
          "internalType": "address",
          "name": "",
          "type": "address"
        },
        {
          "internalType": "uint256",
          "name": "",
          "type": "uint256"
        }
      ],
      "name": "movingAverages",
      "outputs": [
        {
          "internalType": "int256",
          "name": "",
          "type": "int256"
        }
      ],
      "stateMutability": "view",
      "type": "function"
    },
    {
      "inputs": [],
      "name": "name",
      "outputs": [
        {
          "internalType": "string",
          "name": "",
          "type": "string"
        }
      ],
      "stateMutability": "view",
      "type": "function"
    },
    {
      "inputs": [
        {
          "internalType": "uint256",
          "name": "",
          "type": "uint256"
        }
      ],
      "name": "parameterDescriptions",
      "outputs": [
        {
          "internalType": "string",
          "name": "",
          "type": "string"
        }
      ],
      "stateMutability": "view",
      "type": "function"
    },
    {
      "inputs": [
        {
          "internalType": "int256[][]",
          "name": "parameters",
          "type": "int256[][]"
        }
      ],
      "name": "validParameters",
      "outputs": [
        {
          "internalType": "bool",
          "name": "valid",
          "type": "bool"
        }
      ],
      "stateMutability": "pure",
      "type": "function"
    }
  ],
  "bytecode": "0x60a03461055a576001600160401b03601f601f196142783881900383810183168601858111878210176105285786928291604052833960209586918101031261055a57516001600160a01b038116810361055a57608090608052600293610066855461055e565b84811161053c575b507f506f7765724368616e6e656c000000000000000000000000000000000000001885556040519260a084018281118582101761052857604052600492838552875f5b828110610519575050508351916801000000000000000083116105065787600395865485885580861061048e575b509291920191855f52885f20915f935b8585106103775750505050505081541561033157815f52845f2061011c610116825461055e565b826105ac565b608f81555f52845f20927f4b617070613a204b617070612064696374617465732074686520616767726573845566206368616e676560c81b856001957f736976656e657373206f6620726573706f6e736520746f2061207369676e616c878201550155825484101561036457825f5283865f20019061019b825461055e565b86828211610344575b505050606581555f52716865206368616e6e656c20626f756e64727960701b83865f207f513a2051206469637461746573207468652068617273686e657373206f66207481550155815484101561033157815f5283855f200161020a610116825461055e565b60ad81555f527f736564206173207468652064656e6f6d696e61746f720000000000000000000084865f207f557365207261772070726963653a2030203d20757365206d6f76696e6720617681557f65726167652c2031203d207573652072617720707269636520746f2062652075868201550155815482101561033157507f696e6720666f72206120676976656e20706572696f64206f662074696d65000093817f6d61746f7220776569676874696e6720616e6420707269636520736d6f6f7468925f52815f20016102e1610116825461055e565b60bd81555f525f20917f4c616d6264613a204c616d62646120646963746174657320746865206573746983558201550155604051613ca090816105d882396080518181816101bd0152611cad0152f35b603290634e487b7160e01b5f525260245ffd5b61035c92845f52895f20920160051c82019101610596565b5f80866101a4565b603282634e487b7160e01b5f525260245ffd5b805180519084821161047b57908c9291610391875461055e565b8c8111610443575b5083908c83116001146103df57918060019593928695935f926103d4575b50505f19828e1b1c191690841b1787555b019401940193926100ef565b015190505f806103b7565b9085831691885f52855f20925f5b81811061042c575091600196949291838897959310610415575b505050831b830187556103c8565b01515f19838f1b60f8161c191690555f8080610407565b9293876001819287860151815501950193016103ed565b61046c90885f528d865f2090600590808701821c830193898810610472575b01901c0190610596565b5f610399565b93508293610462565b604189634e487b7160e01b5f525260245ffd5b875f5285835f2091820191015b8181106104a857506100df565b600191929350896104b9825461055e565b806104cb575b505001908a929161049b565b8d82821185146104e3575050505f81555b895f6104bf565b5f926104fd918585528420920160051c8201858301610596565b818355556104dc565b604184634e487b7160e01b5f525260245ffd5b606087820183015281016100b1565b634e487b7160e01b5f52604160045260245ffd5b61055490865f5285885f20910160051c810190610596565b5f61006e565b5f80fd5b90600182811c9216801561058c575b602083101461057857565b634e487b7160e01b5f52602260045260245ffd5b91607f169161056d565b8181106105a1575050565b5f8155600101610596565b90601f81116105b9575050565b6105d5915f526003601f60205f20920160051c82019101610596565b56fe6080806040526004361015610012575f80fd5b5f3560e01c90816306fdde0314611e6c575080630df61b8f14611e2657806333417d8e14611cd557806344a01eb3146118d5578063b9579b0d146100c35763fe8cb6d71461005e575f80fd5b346100bf5760406003193601126100bf57610077612034565b73ffffffffffffffffffffffffffffffffffffffff60243591165f52600160205260405f2080548210156100bf576020916100b19161201f565b90546040519160031b1c8152f35b5f80fd5b346100bf5760e06003193601126100bf5760043567ffffffffffffffff81116100bf576100f4903690600401611fee565b9060243567ffffffffffffffff81116100bf57610115903690600401611fee565b91909273ffffffffffffffffffffffffffffffffffffffff60443516604435036100bf5760643567ffffffffffffffff81116100bf57610159903690600401611fee565b9160843567ffffffffffffffff81116100bf5761017a903690600401611fee565b93909260a4359567ffffffffffffffff871687036100bf5760c43567ffffffffffffffff811681036100bf5773ffffffffffffffffffffffffffffffffffffffff7f000000000000000000000000000000000000000000000000000000000000000016330361187757604051998a6101c081011067ffffffffffffffff6101c08d0111176115e5576101c08b016040525f8b525f60208c01525f60608c01525f60808c0152606060a08c0152606060c08c0152606060e08c015260606101008c015260606101208c015260606101408c01525f6101608c01525f6101808c01525f6101a08c01528560408c0152610270866123b2565b60208c015261027e886123c0565b6101408c01525b8a516101408c0151518110156102d6576102a09089896121fb565b3567ffffffffffffffff81168091036100bf576102c96101408d015191600f0b918d519061241c565b5260018b51018b52610285565b508a9750899650885f60608a01526102f760408a01518060808c01526123c0565b60a08a015261030960408a01516123c0565b60c08a015261031b60808a01516123c0565b60e08a015261036061034d60443573ffffffffffffffffffffffffffffffffffffffff165f52600160205260405f2090565b61035b60408c015191612430565b6124a7565b8060a08b01526101408a015160408b01519061037d368c8761206f565b90610387836123c0565b936103918261240f565b5161039e81600f0b612616565b9260018151145f1461181257505f5b8581106117ce575050505050505b60c08a0152600160408a0151166117be575b5f89525b885160208a015181101561055f5760608a0151610530575b506103fa60c08a01518a519061241c565b5161040b60e08b01518b519061241c565b526001895101806101608b015260608a01516104f7575b5061043760c08a01516101608b01519061241c565b5161044c60e08b01516101608c01519061241c565b52606089015115610470575b610180890180516001019052885160020189526103d1565b6104f26104a261048660c08c01518c519061241c565b5160c08c01516101608d015161049b9161241c565b519061277a565b6104db6104cf60443573ffffffffffffffffffffffffffffffffffffffff165f52600160205260405f2090565b6101808d01519061201f565b9091905f1983549160031b92831b921b1916179055565b610458565b6105059060a08b015161241c565b5161052960e08b01516105238c604061016082015191015190612480565b9061241c565b5289610422565b61053e9060a08b015161241c565b5161055860e08b01516105238c6040815191015190612480565b52896103e9565b508896976040880151600181166116d0575b506060880151611612575b6040519283608081011067ffffffffffffffff6080860111176115e5576105f191608085016040525f85525f6020860152606060408601526060808601526101408a0151604086015260e08a0151606086015273ffffffffffffffffffffffffffffffffffffffff604435168552369161206f565b9660405198896101a081011067ffffffffffffffff6101a08c0111176115e5576101a08a0160405260608a52606060208b01525f60408b01525f60808b01525f60a08b01525f60c08b0152606060e08b01525f6101008b01525f6101208b01525f6101408b01525f6101608b01525f6101808b01528060608b01528060208501526040518060e081011067ffffffffffffffff60e0830111176115e55760e081016040525f81525f60208201525f60408201525f60608201525f6080820152606060a0820152606060c08201526106cb60208601516123c0565b60a082015273ffffffffffffffffffffffffffffffffffffffff8551165f525f60205261070360405f2061035b602088015191612430565b60c08201526020850151610716816123b2565b90610724604088015161240f565b51600f0b9161073283612616565b91600160408a015151145f146112a5576107548461074f85613168565b612c1c565b85526001811661129b575b908d9392915f5b8a8784831061114a57505050600116611070575b5050505060a0905b015160208b015261079d610796898961213d565b369161206f565b8a525f60808b01526002881161104c575b6107b88888612199565b9690506107c58989612199565b1561101f573560c08c01525f60a08c01525b60a08b015160608c0151811015610b7f576107f690606087015161241c565b516101008c015260018703610b59575b60808b0151610b3f575b6101008b01517f80000000000000000000000000000000000000000000000000000000000000008114610b17575f811215610b1157805f03905b8115610ae4577f7fffffffffffffffffffffffffffffffffffffffffffffffffffffffffffffff826ec097ce7bc90715b34b9f10000000000411610aa7575f19600191138118145f14610a8d577f8000000000000000000000000000000000000000000000000000000000000000816ec097ce7bc90715b34b9f10000000000414610a6057610901906ec097ce7bc90715b34b9f1000000000045f035b60208d015160a08e01516108fa9161241c565b5190612a5d565b6101808c018190525f8112610a3557670de0b6b3a7640000806101608e5b01527f80000000000000000000000000000000000000000000000000000000000000008214610a0d576109678d60c061096d945f81125f14610a07575f03915b015190612cf3565b90612a5d565b60208c015160a08d01516109809161241c565b528a805160018151145f146109c857506109a78160a060206109b29401519101519061241c565b5160408d0151612650565b60408c01525b60a08b01805160010190526107d7565b816108fa6109e16109f39360a06109fd9601519061241c565b519160a060208201519101519061241c565b60408d0151612650565b60408c01526109b8565b9161095f565b7f741d0b8c000000000000000000000000000000000000000000000000000000005f5260045ffd5b7ffffffffffffffffffffffffffffffffffffffffffffffffff21f494c589c0000806101608e61091f565b7f4e487b71000000000000000000000000000000000000000000000000000000005f52601160045260245ffd5b610901906ec097ce7bc90715b34b9f1000000000046108e7565b507f7cb4bef5000000000000000000000000000000000000000000000000000000005f526ec097ce7bc90715b34b9f10000000000460045260245ffd5b7f4e487b71000000000000000000000000000000000000000000000000000000005f52601260045260245ffd5b8061084a565b7fb3c754a3000000000000000000000000000000000000000000000000000000005f5260045ffd5b610b4d60a08c01518b61241c565b516101008c0152610810565b610b748b60a0610b698c8c612199565b9190920151916121fb565b3560c08c0152610806565b508a945085610b9160608701516123c0565b946001875151145f14610f3357606087015160408801518115610ae4575f1982147f8000000000000000000000000000000000000000000000000000000000000000821416610a60570560408801525f60a08801525b60a08701516060880151811015610c6457610c06610c3e9186866121fb565b35610c38610c148a5161240f565b51610967610c2c8c60a060208201519101519061241c565b5160408d015190612638565b90612650565b80610140890152610c5360a08901518861241c565b5260a0870180516001019052610be7565b50610c949293965067ffffffffffffffff809187610120610c9c989995995b015216600f0b9516600f0b90612d46565b93369161206f565b81905f5b8151811015610d1557610cb3818361241c565b51610cbe828761241c565b511215610cf857610ccf818361241c565b51610cda828761241c565b5190035b838113610cef575b50600101610ca0565b92506001610ce6565b610d02818661241c565b51610d0d828461241c565b519003610cde565b505f92839283928392839281811315610ea557610d39919794929796939596612c1c565b925f945b8851861015610df657610d6785610d54888c61241c565b51610d5f898c61241c565b519003612a5d565b610d71878a61241c565b5101610d7d878b61241c565b52610d88868a61241c565b51019282610d96878b61241c565b511315610dbf5750509394610dab848861241c565b51926001855b019495929690939196610d3d565b959486610dd1828b9a9597949a61241c565b5113610de0575b600190610db1565b96509450610dee868861241c565b519486610dd8565b945095505050505b670de0b6b3a764000090818103610e58575b505050506040518091602082016020835281518091526020604084019201905f5b818110610e3f575050500390f35b8251845285945060209384019390920191600101610e31565b81811315610e8557829350610e70610e7a938661241c565b510301918361241c565b525b81808080610e10565b610e9f9250610e94848661241c565b51910301918361241c565b52610e7c565b5050509192935f925b8651841015610f2957610ec1848861241c565b51019482610ecf858961241c565b511315610ef45750509192610ee4828661241c565b51906001835b0192939490610eae565b939284610f04828998949861241c565b5113610f13575b600190610eea565b94509250610f21848661241c565b519284610f0b565b9250935050610dfe565b93915f60a0889795939701525b60a087015187518051821015610f7f57610f6991610f5d9161241c565b51610120890151612650565b61012088015260a0870180516001019052610f40565b5050919394909294610f9b604088015161012089015190612c1c565b60408801525f60a08801525b60a087015184811015610ffc57610fc2610fd69186866121fb565b35610c38610c148a5160a08c01519061241c565b80610140890152610feb60a08901518861241c565b5260a0870180516001019052610fa7565b50610c949293965067ffffffffffffffff809187610120610c9c98999599610c83565b7f4e487b71000000000000000000000000000000000000000000000000000000005f52603260045260245ffd5b61105688886120db565b1561101f5735670de0b6b3a76400001460808b01526107ae565b6001019283928360c0870151906110869161241c565b5161109091612a5d565b9261109a9161241c565b518360608a0151906110ab9161241c565b516110b591612638565b906110bf91612c1c565b6110c891612650565b8060208401526110d79061266b565b865173ffffffffffffffffffffffffffffffffffffffff165f525f60205260405f2060808401516111079161201f565b61112092905f1983549160031b92831b921b1916179055565b8151602083015161113091612a5d565b9060a0830151906111409161241c565b52898c808061077a565b87610c388761074f856111b08660608e9f869f60029d9e9f816108fa8f6112209f906112139f8897610c386111fb9761074f6001966111b0878e6111a76112069f6111a184916108fa8360c06111b79f015161241c565b9961241c565b5193015161241c565b5190612638565b8060208b01526111cb8260c08c015161241c565b526111dc895160208b015190612a5d565b6111ea8260a08c015161241c565b5201808689015260c088015161241c565b99828501519061241c565b519401519101519061241c565b8060408a01528851612a5d565b61123360a089015160608a01519061241c565b526112846112546112488360c08b015161241c565b5160408a01519061277a565b73ffffffffffffffffffffffffffffffffffffffff8d51165f525f6020526104db60405f2060808b01519061201f565b60808701805160010190528f959493929101610766565b905f19019061075f565b6001919350809250166115d5575b5f5b8281106113db57506001166112ce575b5060a090610782565b60010180806040880151906112e29161241c565b51600f0b8c81670de0b6b3a76400000391806112fd84613168565b9061130791612c1c565b86528360c0870151906113199161241c565b5161132391612a5d565b9261132d9161241c565b518360608a01519061133e9161241c565b5161134891612638565b9061135291612c1c565b61135b91612650565b80602084015282519061136d91612a5d565b9060a08301519061137d9161241c565b52602081015161138c9061266b565b855173ffffffffffffffffffffffffffffffffffffffff165f525f60205260405f2060808301516113bc9161201f565b6113d592905f1983549160031b92831b921b1916179055565b8b6112c5565b8c8160408a0151906113ec9161241c565b51600f0b670de0b6b3a764000090808203908061140883613168565b9061141291612c1c565b88528460c0890151906114249161241c565b5161142e91612a5d565b908b8561143b818761241c565b5191606001519061144b9161241c565b5161145591612638565b9061145f91612c1c565b61146891612650565b8060208801528360c08801519061147e9161241c565b528551602087015161148f91612a5d565b8360a08801519061149f9161241c565b526001830180606088015260408b0151906114b99161241c565b51600f0b80910390806114cb83613168565b906114d591612c1c565b875260c087015160608801516114ea9161241c565b516114f491612a5d565b9160608701516115039161241c565b5160608b015160608801516115179161241c565b5161152191612638565b9061152b91612c1c565b61153491612650565b80604086015284519061154691612a5d565b60a085015160608601516115599161241c565b528060c08501519061156a9161241c565b5160408501516115799161277a565b885173ffffffffffffffffffffffffffffffffffffffff165f525f60205260405f2060808601516115a99161201f565b6115c292905f1983549160031b92831b921b1916179055565b60808401805160010190526002016112b5565b908015610a60575f1901906112b3565b7f4e487b71000000000000000000000000000000000000000000000000000000005f52604160045260245ffd5b61161f60c08901516127ff565b61164960443573ffffffffffffffffffffffffffffffffffffffff165f52600160205260405f2090565b81519167ffffffffffffffff83116115e5576801000000000000000083116115e55781548383558084106116a9575b50602001905f5260205f205f5b838110611695575050505061057c565b600190602084519401938184015501611685565b825f5260205f20908482015b81830181106116c5575050611678565b5f81556001016116b5565b6116d9906123b2565b806101a08a01528060011c60208a0152606089015161178c575b5061170860c08901516101a08a01519061241c565b5161171d60e08a01516101a08b01519061241c565b5260608801511561172f575b89610571565b61178761174f61174960c08b01516101a08c01519061241c565b5161266b565b6104db61177c60443573ffffffffffffffffffffffffffffffffffffffff165f52600160205260405f2090565b60208c01519061201f565b611729565b61179a9060a08a015161241c565b516117b760e08a01516105236101a08c015160408d015190612480565b52896116f3565b6020890180515f190190526103cd565b6001906118016117fc6117ee85600f0b6117e8858961241c565b51612a5d565b610c38886117e8868c61241c565b612b58565b61180b828a61241c565b52016103ad565b919250505f5b8481106118295750505050506103bb565b806118666117fc61183c6001948661241c565b51600f0b610c38611851826117e8878b61241c565b91670de0b6b3a7640000036117e8868b61241c565b611870828961241c565b5201611818565b60646040517f08c379a000000000000000000000000000000000000000000000000000000000815260206004820152600b60248201527f554e415554485f43414c430000000000000000000000000000000000000000006044820152fd5b346100bf5760806003193601126100bf576118ee612034565b67ffffffffffffffff602480358281116100bf576119109036906004016120bd565b926044358381116100bf576119299036906004016120bd565b6064359473ffffffffffffffffffffffffffffffffffffffff80931692833314908115611ca9575b5015611c4b5780518603611bed57611968906127ff565b825f526001906020600160205260405f2090825192888411611bc157680100000000000000008411611bc1578254848455808510611b99575b50602001915f5260205f20905f5b848110611b8857505050505050815f526020945f865260405f205482519182149182611af0575b505015611a93576119e6906127ff565b905f525f845260405f20918151938411611a6857680100000000000000008411611a68575083908254848455808510611a40575b5001905f52825f20925f5b838110611a2e57005b82518582015591810191600101611a25565b835f5284835f2091820191015b818110611a5a5750611a1a565b5f8155869350600101611a4d565b7f4e487b71000000000000000000000000000000000000000000000000000000005f5260416004525ffd5b606485601485604051927f08c379a000000000000000000000000000000000000000000000000000000000845260048401528201527f496e76616c696420736574206772616469656e740000000000000000000000006044820152fd5b81159250908215611b69575b8215611b0c575b505086806119d6565b60018216151592509082611b24575b50508680611b03565b90915060011c60018101809111611b3d57148680611b1b565b847f4e487b71000000000000000000000000000000000000000000000000000000005f5260116004525ffd5b9150600181161580611b7c575b91611afc565b50818160011c14611b76565b8351838201559281019285016119af565b835f52858560205f2092830192015b828110611bb65750506119a1565b5f8155018690611ba8565b877f4e487b71000000000000000000000000000000000000000000000000000000005f5260416004525ffd5b6064846016604051917f08c379a0000000000000000000000000000000000000000000000000000000008352602060048401528201527f496e76616c696420736574206d6f76696e6720617667000000000000000000006044820152fd5b6064846006604051917f08c379a0000000000000000000000000000000000000000000000000000000008352602060048401528201527f554e4155544800000000000000000000000000000000000000000000000000006044820152fd5b90507f000000000000000000000000000000000000000000000000000000000000000016331487611951565b346100bf576020806003193601126100bf576004356003548110156100bf5760035f527fc2575a0e9e593c00f959f8c92f12db2869c3395a3b0502d05e2516446f71f85b0190604051905f928054906001908260011c92600181168015611e1c575b8585108114611def57848752908115611daf5750600114611d73575b611d6f85611d6381890382611f65565b60405191829182611fa6565b0390f35b5f908152838120939550925b828410611d9c5750505081611d6f93611d63928201019385611d53565b8054858501870152928501928101611d7f565b7fffffffffffffffffffffffffffffffffffffffffffffffffffffffffffffff001686860152505050151560051b8201019150611d6381611d6f85611d53565b7f4e487b71000000000000000000000000000000000000000000000000000000005f52602260045260245ffd5b93607f1693611d37565b346100bf5760206003193601126100bf5760043567ffffffffffffffff81116100bf57611e62611e5c6020923690600401611fee565b9061220b565b6040519015158152f35b346100bf575f6003193601126100bf575f9060025460018160011c9060018316928315611f5b575b6020938484108114611def57838652908115611f1d5750600114611ec3575b611d6f84611d6381880382611f65565b60025f9081529294507f405787fa12a823e0f2b7631cc41b3ba8828b3321ca811111fa75cd3aa3bb5ace5b828410611f0a5750505081611d6f93611d639282010193611eb3565b8054858501870152928501928101611eee565b7fffffffffffffffffffffffffffffffffffffffffffffffffffffffffffffff0016858501525050151560051b8201019150611d6381611d6f611eb3565b91607f1691611e94565b90601f7fffffffffffffffffffffffffffffffffffffffffffffffffffffffffffffffe0910116810190811067ffffffffffffffff8211176115e557604052565b7fffffffffffffffffffffffffffffffffffffffffffffffffffffffffffffffe0601f602060409481855280519182918282880152018686015e5f8582860101520116010190565b9181601f840112156100bf5782359167ffffffffffffffff83116100bf576020808501948460051b0101116100bf57565b805482101561101f575f5260205f2001905f90565b6004359073ffffffffffffffffffffffffffffffffffffffff821682036100bf57565b67ffffffffffffffff81116115e55760051b60200190565b929161207a82612057565b916120886040519384611f65565b829481845260208094019160051b81019283116100bf57905b8282106120ae5750505050565b813581529083019083016120a1565b9080601f830112156100bf578160206120d89335910161206f565b90565b906002101561101f576040810135907fffffffffffffffffffffffffffffffffffffffffffffffffffffffffffffffe1813603018212156100bf57019081359167ffffffffffffffff83116100bf576020018260051b360381136100bf579190565b901561101f578035907fffffffffffffffffffffffffffffffffffffffffffffffffffffffffffffffe1813603018212156100bf57019081359167ffffffffffffffff83116100bf576020018260051b360381136100bf579190565b906001101561101f576020810135907fffffffffffffffffffffffffffffffffffffffffffffffffffffffffffffffe1813603018212156100bf57019081359167ffffffffffffffff83116100bf576020018260051b360381136100bf579190565b919081101561101f5760051b0190565b600282148015612392575b8061237e575b8061232e575b61222c5750505f90565b6001915f5b61223b828461213d565b9050811015612327575f61225982612253858761213d565b906121fb565b35131561226857600101612231565b505f9250905b5f5b61227a8383612199565b905081101561232057670de0b6b3a764000061229a826122538686612199565b3513156122a957600101612270565b505f9250905b600381148061230b575b6122c257505090565b6122cc81836120db565b1561101f5735159182156122ea575b5050156122e55790565b505f90565b6122f492506120db565b1561101f5735670de0b6b3a7640000145f806122db565b50600161231882846120db565b9050146122b9565b50906122af565b509061226e565b50600161233b838361213d565b90501480612369575b8061222257506123548282612199565b9050612360838361213d565b91905014612222565b5060016123768383612199565b905014612344565b50612389828261213d565b9050151561221c565b50600382148015612216575060016123aa83836120db565b905014612216565b905f198201918211610a6057565b906123ca82612057565b6123d76040519182611f65565b8281527fffffffffffffffffffffffffffffffffffffffffffffffffffffffffffffffe06124058294612057565b0190602036910137565b80511561101f5760200190565b805182101561101f5760209160051b010190565b90604051918281549182825260209260208301915f5260205f20935f905b8282106124665750505061246492500383611f65565b565b85548452600195860195889550938101939091019061244e565b91908201809211610a6057565b8015610ae4576ec097ce7bc90715b34b9f10000000000590565b9190918051926001918460011b60029580820460021490151715610a605782116125b8576124d4826123c0565b945f938251915f1995868401938411610a605788839160018816155f8115965b612535575b50505050505061250a575b50505050565b6125139161241c565b51600f0b918101908111610a605761252b908461241c565b525f808080612504565b88518110156125b3578481819561254d89948d61241c565b5160801d61255b878361241c565b52818c8b806125aa575b80156125a3575b61257f575b505050019201918c936124f4565b61259a9161258c9161241c565b51600f0b918488019061241c565b528e818c612571565b508661256c565b508c8210612565565b6124f9565b60646040517f08c379a000000000000000000000000000000000000000000000000000000000815260206004820152600860248201527f535243213d5447540000000000000000000000000000000000000000000000006044820152fd5b90670de0b6b3a76400005f8382039312818412811691841390151617610a6057565b81810392915f138015828513169184121617610a6057565b9190915f8382019384129112908015821691151617610a6057565b6f7fffffffffffffffffffffffffffffff811361271c577fffffffffffffffffffffffffffffffff8000000000000000000000000000000081126126be576fffffffffffffffffffffffffffffffff1690565b60646040517f08c379a000000000000000000000000000000000000000000000000000000000815260206004820152600960248201527f556e646572666c6f7700000000000000000000000000000000000000000000006044820152fd5b60646040517f08c379a000000000000000000000000000000000000000000000000000000000815260206004820152600860248201527f4f766572666c6f770000000000000000000000000000000000000000000000006044820152fd5b906f7fffffffffffffffffffffffffffffff8083131590816127f4575b501561271c577fffffffffffffffffffffffffffffffff800000000000000000000000000000008083121590816127e9575b50156126be576fffffffffffffffffffffffffffffffff169060801b1790565b90508112155f6127c9565b90508113155f612797565b908151915f83156129ff5781516001929083811661288f575061282685849693961c6123c0565b945f925f198101908111855b61283f575b505050505050565b80610a60578185101561288a57612856858561241c565b5186860190818711610a6057879661287560029261049b8a958a61241c565b61287f878d61241c565b520193019294612832565b612837565b5f199592939590818101908111610a60576128aa908361241c565b517fffffffffffffffffffffffffffffffff8000000000000000000000000000000081121590816129e4575b5015612986578201916128ec8684811c016123c0565b957ffffffffffffffffffffffffffffffffffffffffffffffffffffffffffffffffe8201828111610a6057905f5b828110612945575050508211610a6057612942916129379161241c565b51600f0b918461241c565b52565b61295381869893949861241c565b5183820191828111610a605761297060029261049b87958a61241c565b61297a858d61241c565b5201910195919061291a565b60646040517f08c379a000000000000000000000000000000000000000000000000000000000815260206004820152601b60248201527f4c61737420617272617920656c656d656e74206f766572666c6f7700000000006044820152fd5b6f7fffffffffffffffffffffffffffffff915013155f6128d6565b60646040517f08c379a000000000000000000000000000000000000000000000000000000000815260206004820152600460248201527f4c454e30000000000000000000000000000000000000000000000000000000006044820152fd5b7f8000000000000000000000000000000000000000000000000000000000000000808214908115612b4e575b50612b26575f811215612b1d57612aae815f035b5f841215612b1657835f0390612f9c565b917f7fffffffffffffffffffffffffffffffffffffffffffffffffffffffffffffff8311612aea575f199182129112186001036120d8575f0390565b827fbf79e8d9000000000000000000000000000000000000000000000000000000005f5260045260245ffd5b8390612f9c565b612aae81612a9d565b7f3406846c000000000000000000000000000000000000000000000000000000005f5260045ffd5b905082145f612a89565b7f80000000000000000000000000000000000000000000000000000000000000008082148015612c15575b610b17575f821215612c0c57612b9a825f0361300e565b917f7fffffffffffffffffffffffffffffffffffffffffffffffffffffffffffffff8311612be05760015f1981921318145f14612bdc578114610a60575f0390565b5090565b827f7cb4bef5000000000000000000000000000000000000000000000000000000005f5260045260245ffd5b612b9a8261300e565b505f612b83565b7f8000000000000000000000000000000000000000000000000000000000000000908181148015612cea575b610b17575f811215612ce157612c6c815f035b5f851215612cda57845f03906130ac565b927f7fffffffffffffffffffffffffffffffffffffffffffffffffffffffffffffff8411612cae575f19918212911218600103612bdc578114610a60575f0390565b837f7cb4bef5000000000000000000000000000000000000000000000000000000005f5260045260245ffd5b84906130ac565b612c6c81612c5b565b50818314612c48565b81158015612d2f575b612d21578015612d1b576120d891610967612d169261323a565b61340b565b50505f90565b5050670de0b6b3a764000090565b81159081612d3e575b50612cfc565b90505f612d38565b919091805160019060018114612ee6575f1981017ffffffffffffffff6c6d11716de2a2f8c500cdd19dbc6030cd280cbb9b6b8f0708112612ebb577809392ee8e921d5d073aff322e62439fcf32d7f344649470f908113612e9057612db686670de0b6b3a7640000809302612a5d565b8103905f915f905b8589868410612e26575050505081612dda575b50929450505050565b90612de491612c1c565b5f5b82811015612dd1578087612dfb86938861241c565b5103612e08575b01612de6565b612e16836117e8838961241c565b612e20828861241c565b52612e02565b9091929381612e35868b61241c565b511215612e525781612e47868b61241c565b5203925b0190612dbe565b939483809250612e62878b61241c565b511315612e7c5781612e74878b61241c565b520193612e4b565b9050612e88858961241c565b510193612e4b565b7f71f72a31000000000000000000000000000000000000000000000000000000005f5260045260245ffd5b7fe608e18b000000000000000000000000000000000000000000000000000000005f5260045260245ffd5b5090925050565b6729a2241af62c0000905f19828209828202908180821091039381850390670de0b6b3a76400009485831015612f705790859109916706f05b59d3b1ffff83119514612f69577faccb18165bd6fe31ae1cf318dc5b51eee0e1ba569b88cd74c1773b91fac106699350828211900360ee1b910360121c17020190565b5050040190565b827fd31b3402000000000000000000000000000000000000000000000000000000005f5260045260245ffd5b5f19828209828202908180821091039381850390670de0b6b3a76400009485831015612f705790859109916706f05b59d3b1ffff83119514612f69577faccb18165bd6fe31ae1cf318dc5b51eee0e1ba569b88cd74c1773b91fac106699350828211900360ee1b910360121c17020190565b90670de0b6b3a7640000915f19838209838202918280831092039180830392146130a357848210156130735793807faccb18165bd6fe31ae1cf318dc5b51eee0e1ba569b88cd74c1773b91fac1066994950990828211900360ee1b910360121c170290565b84827f773cc18c000000000000000000000000000000000000000000000000000000005f5260045260245260445ffd5b50509190910490565b670de0b6b3a7640000915f19838309928083029283808610950394808603951461315a578285101561312a579082910960018219018216809204600280826003021880830282030280830282030280830282030280830282030280830282030280920290030293600183805f03040190848311900302920304170290565b82857f773cc18c000000000000000000000000000000000000000000000000000000005f5260045260245260445ffd5b505080925015610ae4570490565b8061317257505f90565b61317b9061323a565b7f800000000000000000000000000000000000000000000000000000000000000081148015613233575b612b26575f81121561322a576131bc815f03612eed565b907f7fffffffffffffffffffffffffffffffffffffffffffffffffffffffffffffff82116131fe57906001805f196120d8941318145f14612d16575f0361340b565b507fbf79e8d9000000000000000000000000000000000000000000000000000000005f5260045260245ffd5b6131bc81612eed565b505f6131a5565b5f8113156133e057670de0b6b3a7640000908181126133c5576001915b5f908083057001000000000000000000000000000000008110156133ba575b680100000000000000008110156133a5575b640100000000811015613390575b6201000081101561337b575b610100811015613366575b6010811015613351575b600481101561333c575b6002111561332a575b80820292821d9181831461332057506706f05b59d3b20000915b5f83136132f2575050500290565b808291020591671bc16d674ec80000831215613312575b60011d916132e4565b809293019260011d91613309565b9150929150020290565b9060018101809111610a6057906132ca565b60021c9160028101809111610a6057916132c1565b60041c9160048101809111610a6057916132b7565b60081c9160088101809111610a6057916132ad565b60101c9160108101809111610a6057916132a2565b60201c9160208101809111610a605791613296565b60401c9160408101809111610a605791613288565b60809250821c613276565b905f19916ec097ce7bc90715b34b9f10000000000490613257565b7f613f4fba000000000000000000000000000000000000000000000000000000005f5260045260245ffd5b5f81121561344e577ffffffffffffffffffffffffffffffffffffffffffffffffcc22e87f6eb468eeb81126122e557613445905f0361340b565b6120d89061248d565b680a688906bd8b000000811215613c3f57670de0b6b3a764000080604092831b0490778000000000000000000000000000000000000000000000006780000000000000008316613c20575b6740000000000000008316613c0e575b6720000000000000008316613bfc575b6710000000000000008316613bea575b6708000000000000008316613bd8575b6704000000000000008316613bc6575b6702000000000000008316613bb4575b6701000000000000008316613ba2575b66800000000000008316613b90575b66400000000000008316613b7e575b66200000000000008316613b6c575b66100000000000008316613b5a575b66080000000000008316613b48575b66040000000000008316613b36575b66020000000000008316613b24575b66010000000000008316613b12575b658000000000008316613b00575b654000000000008316613aee575b652000000000008316613adc575b651000000000008316613aca575b650800000000008316613ab8575b650400000000008316613aa6575b650200000000008316613a94575b650100000000008316613a82575b6480000000008316613a70575b6440000000008316613a5e575b6420000000008316613a4c575b6410000000008316613a3a575b6408000000008316613a28575b6404000000008316613a16575b6402000000008316613a04575b64010000000083166139f2575b638000000083166139e0575b634000000083166139ce575b632000000083166139bc575b631000000083166139aa575b63080000008316613998575b63040000008316613986575b63020000008316613974575b63010000008316613962575b628000008316613950575b62400000831661393e575b62200000831661392c575b62100000831661391a575b620800008316613908575b6204000083166138f6575b6202000083166138e4575b6201000083166138d2575b61800083166138c0575b61400083166138ae575b612000831661389c575b611000831661388a575b6108008316613878575b6104008316613866575b6102008316613854575b6101008316613842575b60808316613830575b83831661381e575b6020831661380c575b601083166137fa575b600883166137e8575b600483166137d6575b600283166137c4575b600183166137b2575b02911c60bf031c90565b6801000000000000000102831c6137a8565b6801000000000000000102831c61379f565b6801000000000000000302831c613796565b6801000000000000000602831c61378d565b6801000000000000000b02831c613784565b6801000000000000001602831c61377b565b6801000000000000002c02831c613772565b6801000000000000005902831c61376a565b680100000000000000b102831c613761565b6801000000000000016302831c613757565b680100000000000002c602831c61374d565b6801000000000000058c02831c613743565b68010000000000000b1702831c613739565b6801000000000000162e02831c61372f565b68010000000000002c5d02831c613725565b680100000000000058b902831c61371b565b6801000000000000b17202831c613711565b680100000000000162e402831c613706565b6801000000000002c5c802831c6136fb565b68010000000000058b9102831c6136f0565b680100000000000b172102831c6136e5565b68010000000000162e4302831c6136da565b680100000000002c5c8602831c6136cf565b6801000000000058b90c02831c6136c4565b68010000000000b1721802831c6136b9565b6801000000000162e43002831c6136ad565b68010000000002c5c86002831c6136a1565b680100000000058b90c002831c613695565b6801000000000b17217f02831c613689565b680100000000162e42ff02831c61367d565b6801000000002c5c85fe02831c613671565b68010000000058b90bfc02831c613665565b680100000000b17217f802831c613659565b68010000000162e42ff102831c61364c565b680100000002c5c85fe302831c61363f565b6801000000058b90bfce02831c613632565b68010000000b17217fbb02831c613625565b6801000000162e42fff002831c613618565b68010000002c5c8601cc02831c61360b565b680100000058b90c0b4902831c6135fe565b6801000000b17218355102831c6135f1565b680100000162e430e5a202831c6135e3565b6801000002c5c863b73f02831c6135d5565b68010000058b90cf1e6e02831c6135c7565b680100000b1721bcfc9a02831c6135b9565b68010000162e43f4f83102831c6135ab565b680100002c5c89d5ec6d02831c61359d565b6801000058b91b5bc9ae02831c61358f565b68010000b17255775c0402831c613581565b6801000162e525ee054702831c613572565b68010002c5cc37da949202831c613563565b680100058ba01fb9f96d02831c613554565b6801000b175effdc76ba02831c613545565b680100162f3904051fa102831c613536565b6801002c605e2e8cec5002831c613527565b68010058c86da1c09ea202831c613518565b680100b1afa5abcbed6102831c613509565b68010163da9fb33356d802831c6134f9565b680102c9a3e778060ee702831c6134e9565b6801059b0d31585743ae02831c6134d9565b68010b5586cf9890f62a02831c6134c9565b6801172b83c7d517adce02831c6134b9565b6801306fe0a31b7152df02831c6134a9565b5077b504f333f9de648480000000000000000000000000000000613499565b7fe69458f9000000000000000000000000000000000000000000000000000000005f5260045260245ffdfea2646970667358221220a685486346f88b4e9ce945d75d691e99df5ee1f0df4b52535a4e6b309924b75564736f6c634300081a0033",
  "linkReferences": {},
  "deployedLinkReferences": {}
}