{
  "_format": "hh-sol-artifact-1",
  "contractName": "QuantAMMWeightedPoolFactory",
  "sourceName": "contracts/QuantAMMWeightedPoolFactory.sol",
  "abi": [
    {
      "inputs": [
        {
          "internalType": "contract IVault",
          "name": "vault",
          "type": "address"
        },
        {
          "internalType": "uint32",
          "name": "pauseWindowDuration",
          "type": "uint32"
        },
        {
          "internalType": "string",
          "name": "factoryVersion",
          "type": "string"
        },
        {
          "internalType": "string",
          "name": "poolVersion",
          "type": "string"
        },
        {
          "internalType": "address",
          "name": "updateWeightRunner",
          "type": "address"
        }
      ],
      "stateMutability": "nonpayable",
      "type": "constructor"
    },
    {
      "inputs": [],
      "name": "CodeDeploymentFailed",
      "type": "error"
    },
    {
      "inputs": [],
      "name": "Create2EmptyBytecode",
      "type": "error"
    },
    {
      "inputs": [],
      "name": "Create2FailedDeployment",
      "type": "error"
    },
    {
      "inputs": [
        {
          "internalType": "uint256",
          "name": "balance",
          "type": "uint256"
        },
        {
          "internalType": "uint256",
          "name": "needed",
          "type": "uint256"
        }
      ],
      "name": "Create2InsufficientBalance",
      "type": "error"
    },
    {
      "inputs": [],
      "name": "Disabled",
      "type": "error"
    },
    {
      "inputs": [],
      "name": "ImcompatibleRouterConfiguration",
      "type": "error"
    },
    {
      "inputs": [],
      "name": "IndexOutOfBounds",
      "type": "error"
    },
    {
      "inputs": [],
      "name": "InputLengthMismatch",
      "type": "error"
    },
    {
      "inputs": [],
      "name": "MinWeight",
      "type": "error"
    },
    {
      "inputs": [],
      "name": "NormalizedWeightInvariant",
      "type": "error"
    },
    {
      "inputs": [
        {
          "internalType": "int256",
          "name": "x",
          "type": "int256"
        }
      ],
      "name": "PRBMathSD59x18__FromIntOverflow",
      "type": "error"
    },
    {
      "inputs": [
        {
          "internalType": "int256",
          "name": "x",
          "type": "int256"
        }
      ],
      "name": "PRBMathSD59x18__FromIntUnderflow",
      "type": "error"
    },
    {
      "inputs": [],
      "name": "PoolPauseWindowDurationOverflow",
      "type": "error"
    },
    {
      "inputs": [],
      "name": "SenderNotAllowed",
      "type": "error"
    },
    {
      "inputs": [],
      "name": "StandardPoolWithCreator",
      "type": "error"
    },
    {
      "anonymous": false,
      "inputs": [],
      "name": "FactoryDisabled",
      "type": "event"
    },
    {
      "anonymous": false,
      "inputs": [
        {
          "indexed": true,
          "internalType": "address",
          "name": "pool",
          "type": "address"
        }
      ],
      "name": "PoolCreated",
      "type": "event"
    },
    {
      "inputs": [
        {
          "components": [
            {
              "internalType": "string",
              "name": "name",
              "type": "string"
            },
            {
              "internalType": "string",
              "name": "symbol",
              "type": "string"
            },
            {
              "components": [
                {
                  "internalType": "contract IERC20",
                  "name": "token",
                  "type": "address"
                },
                {
                  "internalType": "enum TokenType",
                  "name": "tokenType",
                  "type": "uint8"
                },
                {
                  "internalType": "contract IRateProvider",
                  "name": "rateProvider",
                  "type": "address"
                },
                {
                  "internalType": "bool",
                  "name": "paysYieldFees",
                  "type": "bool"
                }
              ],
              "internalType": "struct TokenConfig[]",
              "name": "tokens",
              "type": "tuple[]"
            },
            {
              "internalType": "uint256[]",
              "name": "normalizedWeights",
              "type": "uint256[]"
            },
            {
              "components": [
                {
                  "internalType": "address",
                  "name": "pauseManager",
                  "type": "address"
                },
                {
                  "internalType": "address",
                  "name": "swapFeeManager",
                  "type": "address"
                },
                {
                  "internalType": "address",
                  "name": "poolCreator",
                  "type": "address"
                }
              ],
              "internalType": "struct PoolRoleAccounts",
              "name": "roleAccounts",
              "type": "tuple"
            },
            {
              "internalType": "uint256",
              "name": "swapFeePercentage",
              "type": "uint256"
            },
            {
              "internalType": "address",
              "name": "poolHooksContract",
              "type": "address"
            },
            {
              "internalType": "bool",
              "name": "enableDonation",
              "type": "bool"
            },
            {
              "internalType": "bool",
              "name": "disableUnbalancedLiquidity",
              "type": "bool"
            },
            {
              "internalType": "bytes32",
              "name": "salt",
              "type": "bytes32"
            },
            {
              "internalType": "int256[]",
              "name": "_initialWeights",
              "type": "int256[]"
            },
            {
              "components": [
                {
                  "internalType": "contract IERC20[]",
                  "name": "assets",
                  "type": "address[]"
                },
                {
                  "internalType": "contract IUpdateRule",
                  "name": "rule",
                  "type": "address"
                },
                {
                  "internalType": "address[][]",
                  "name": "oracles",
                  "type": "address[][]"
                },
                {
                  "internalType": "uint16",
                  "name": "updateInterval",
                  "type": "uint16"
                },
                {
                  "internalType": "uint64[]",
                  "name": "lambda",
                  "type": "uint64[]"
                },
                {
                  "internalType": "uint64",
                  "name": "epsilonMax",
                  "type": "uint64"
                },
                {
                  "internalType": "uint64",
                  "name": "absoluteWeightGuardRail",
                  "type": "uint64"
                },
                {
                  "internalType": "uint64",
                  "name": "maxTradeSizeRatio",
                  "type": "uint64"
                },
                {
                  "internalType": "int256[][]",
                  "name": "ruleParameters",
                  "type": "int256[][]"
                },
                {
                  "internalType": "address",
                  "name": "poolManager",
                  "type": "address"
                }
              ],
              "internalType": "struct IQuantAMMWeightedPool.PoolSettings",
              "name": "_poolSettings",
              "type": "tuple"
            },
            {
              "internalType": "int256[]",
              "name": "_initialMovingAverages",
              "type": "int256[]"
            },
            {
              "internalType": "int256[]",
              "name": "_initialIntermediateValues",
              "type": "int256[]"
            },
            {
              "internalType": "uint256",
              "name": "_oracleStalenessThreshold",
              "type": "uint256"
            },
            {
              "internalType": "uint256",
              "name": "poolRegistry",
              "type": "uint256"
            },
            {
              "internalType": "string[][]",
              "name": "poolDetails",
              "type": "string[][]"
            }
          ],
          "internalType": "struct QuantAMMWeightedPoolFactory.CreationNewPoolParams",
          "name": "params",
          "type": "tuple"
        }
      ],
      "name": "create",
      "outputs": [
        {
          "internalType": "address",
          "name": "pool",
          "type": "address"
        },
        {
          "internalType": "bytes",
          "name": "poolArgs",
          "type": "bytes"
        }
      ],
      "stateMutability": "nonpayable",
      "type": "function"
    },
    {
      "inputs": [
        {
          "components": [
            {
              "internalType": "string",
              "name": "name",
              "type": "string"
            },
            {
              "internalType": "string",
              "name": "symbol",
              "type": "string"
            },
            {
              "components": [
                {
                  "internalType": "contract IERC20",
                  "name": "token",
                  "type": "address"
                },
                {
                  "internalType": "enum TokenType",
                  "name": "tokenType",
                  "type": "uint8"
                },
                {
                  "internalType": "contract IRateProvider",
                  "name": "rateProvider",
                  "type": "address"
                },
                {
                  "internalType": "bool",
                  "name": "paysYieldFees",
                  "type": "bool"
                }
              ],
              "internalType": "struct TokenConfig[]",
              "name": "tokens",
              "type": "tuple[]"
            },
            {
              "internalType": "uint256[]",
              "name": "normalizedWeights",
              "type": "uint256[]"
            },
            {
              "components": [
                {
                  "internalType": "address",
                  "name": "pauseManager",
                  "type": "address"
                },
                {
                  "internalType": "address",
                  "name": "swapFeeManager",
                  "type": "address"
                },
                {
                  "internalType": "address",
                  "name": "poolCreator",
                  "type": "address"
                }
              ],
              "internalType": "struct PoolRoleAccounts",
              "name": "roleAccounts",
              "type": "tuple"
            },
            {
              "internalType": "uint256",
              "name": "swapFeePercentage",
              "type": "uint256"
            },
            {
              "internalType": "address",
              "name": "poolHooksContract",
              "type": "address"
            },
            {
              "internalType": "bool",
              "name": "enableDonation",
              "type": "bool"
            },
            {
              "internalType": "bool",
              "name": "disableUnbalancedLiquidity",
              "type": "bool"
            },
            {
              "internalType": "bytes32",
              "name": "salt",
              "type": "bytes32"
            },
            {
              "internalType": "int256[]",
              "name": "_initialWeights",
              "type": "int256[]"
            },
            {
              "components": [
                {
                  "internalType": "contract IERC20[]",
                  "name": "assets",
                  "type": "address[]"
                },
                {
                  "internalType": "contract IUpdateRule",
                  "name": "rule",
                  "type": "address"
                },
                {
                  "internalType": "address[][]",
                  "name": "oracles",
                  "type": "address[][]"
                },
                {
                  "internalType": "uint16",
                  "name": "updateInterval",
                  "type": "uint16"
                },
                {
                  "internalType": "uint64[]",
                  "name": "lambda",
                  "type": "uint64[]"
                },
                {
                  "internalType": "uint64",
                  "name": "epsilonMax",
                  "type": "uint64"
                },
                {
                  "internalType": "uint64",
                  "name": "absoluteWeightGuardRail",
                  "type": "uint64"
                },
                {
                  "internalType": "uint64",
                  "name": "maxTradeSizeRatio",
                  "type": "uint64"
                },
                {
                  "internalType": "int256[][]",
                  "name": "ruleParameters",
                  "type": "int256[][]"
                },
                {
                  "internalType": "address",
                  "name": "poolManager",
                  "type": "address"
                }
              ],
              "internalType": "struct IQuantAMMWeightedPool.PoolSettings",
              "name": "_poolSettings",
              "type": "tuple"
            },
            {
              "internalType": "int256[]",
              "name": "_initialMovingAverages",
              "type": "int256[]"
            },
            {
              "internalType": "int256[]",
              "name": "_initialIntermediateValues",
              "type": "int256[]"
            },
            {
              "internalType": "uint256",
              "name": "_oracleStalenessThreshold",
              "type": "uint256"
            },
            {
              "internalType": "uint256",
              "name": "poolRegistry",
              "type": "uint256"
            },
            {
              "internalType": "string[][]",
              "name": "poolDetails",
              "type": "string[][]"
            }
          ],
          "internalType": "struct QuantAMMWeightedPoolFactory.CreationNewPoolParams",
          "name": "params",
          "type": "tuple"
        }
      ],
      "name": "createWithoutArgs",
      "outputs": [
        {
          "internalType": "address",
          "name": "pool",
          "type": "address"
        }
      ],
      "stateMutability": "nonpayable",
      "type": "function"
    },
    {
      "inputs": [],
      "name": "disable",
      "outputs": [],
      "stateMutability": "nonpayable",
      "type": "function"
    },
    {
      "inputs": [
        {
          "internalType": "bytes4",
          "name": "selector",
          "type": "bytes4"
        }
      ],
      "name": "getActionId",
      "outputs": [
        {
          "internalType": "bytes32",
          "name": "",
          "type": "bytes32"
        }
      ],
      "stateMutability": "view",
      "type": "function"
    },
    {
      "inputs": [],
      "name": "getAuthorizer",
      "outputs": [
        {
          "internalType": "contract IAuthorizer",
          "name": "",
          "type": "address"
        }
      ],
      "stateMutability": "view",
      "type": "function"
    },
    {
      "inputs": [],
      "name": "getCreationCode",
      "outputs": [
        {
          "internalType": "bytes",
          "name": "",
          "type": "bytes"
        }
      ],
      "stateMutability": "view",
      "type": "function"
    },
    {
      "inputs": [],
      "name": "getCreationCodeContracts",
      "outputs": [
        {
          "internalType": "address",
          "name": "contractA",
          "type": "address"
        },
        {
          "internalType": "address",
          "name": "contractB",
          "type": "address"
        }
      ],
      "stateMutability": "view",
      "type": "function"
    },
    {
      "inputs": [],
      "name": "getDefaultLiquidityManagement",
      "outputs": [
        {
          "components": [
            {
              "internalType": "bool",
              "name": "disableUnbalancedLiquidity",
              "type": "bool"
            },
            {
              "internalType": "bool",
              "name": "enableAddLiquidityCustom",
              "type": "bool"
            },
            {
              "internalType": "bool",
              "name": "enableRemoveLiquidityCustom",
              "type": "bool"
            },
            {
              "internalType": "bool",
              "name": "enableDonation",
              "type": "bool"
            }
          ],
          "internalType": "struct LiquidityManagement",
          "name": "liquidityManagement",
          "type": "tuple"
        }
      ],
      "stateMutability": "pure",
      "type": "function"
    },
    {
      "inputs": [],
      "name": "getDefaultPoolHooksContract",
      "outputs": [
        {
          "internalType": "address",
          "name": "",
          "type": "address"
        }
      ],
      "stateMutability": "pure",
      "type": "function"
    },
    {
      "inputs": [
        {
          "internalType": "bytes",
          "name": "constructorArgs",
          "type": "bytes"
        },
        {
          "internalType": "bytes32",
          "name": "salt",
          "type": "bytes32"
        }
      ],
      "name": "getDeploymentAddress",
      "outputs": [
        {
          "internalType": "address",
          "name": "",
          "type": "address"
        }
      ],
      "stateMutability": "view",
      "type": "function"
    },
    {
      "inputs": [],
      "name": "getNewPoolPauseWindowEndTime",
      "outputs": [
        {
          "internalType": "uint32",
          "name": "",
          "type": "uint32"
        }
      ],
      "stateMutability": "view",
      "type": "function"
    },
    {
      "inputs": [],
      "name": "getOriginalPauseWindowEndTime",
      "outputs": [
        {
          "internalType": "uint32",
          "name": "",
          "type": "uint32"
        }
      ],
      "stateMutability": "view",
      "type": "function"
    },
    {
      "inputs": [],
      "name": "getPauseWindowDuration",
      "outputs": [
        {
          "internalType": "uint32",
          "name": "",
          "type": "uint32"
        }
      ],
      "stateMutability": "view",
      "type": "function"
    },
    {
      "inputs": [],
      "name": "getPoolCount",
      "outputs": [
        {
          "internalType": "uint256",
          "name": "",
          "type": "uint256"
        }
      ],
      "stateMutability": "view",
      "type": "function"
    },
    {
      "inputs": [],
      "name": "getPoolVersion",
      "outputs": [
        {
          "internalType": "string",
          "name": "",
          "type": "string"
        }
      ],
      "stateMutability": "view",
      "type": "function"
    },
    {
      "inputs": [],
      "name": "getPools",
      "outputs": [
        {
          "internalType": "address[]",
          "name": "",
          "type": "address[]"
        }
      ],
      "stateMutability": "view",
      "type": "function"
    },
    {
      "inputs": [
        {
          "internalType": "uint256",
          "name": "start",
          "type": "uint256"
        },
        {
          "internalType": "uint256",
          "name": "count",
          "type": "uint256"
        }
      ],
      "name": "getPoolsInRange",
      "outputs": [
        {
          "internalType": "address[]",
          "name": "pools",
          "type": "address[]"
        }
      ],
      "stateMutability": "view",
      "type": "function"
    },
    {
      "inputs": [],
      "name": "getVault",
      "outputs": [
        {
          "internalType": "contract IVault",
          "name": "",
          "type": "address"
        }
      ],
      "stateMutability": "view",
      "type": "function"
    },
    {
      "inputs": [],
      "name": "isDisabled",
      "outputs": [
        {
          "internalType": "bool",
          "name": "",
          "type": "bool"
        }
      ],
      "stateMutability": "view",
      "type": "function"
    },
    {
      "inputs": [
        {
          "internalType": "address",
          "name": "pool",
          "type": "address"
        }
      ],
      "name": "isPoolFromFactory",
      "outputs": [
        {
          "internalType": "bool",
          "name": "",
          "type": "bool"
        }
      ],
      "stateMutability": "view",
      "type": "function"
    },
    {
      "inputs": [],
      "name": "version",
      "outputs": [
        {
          "internalType": "string",
          "name": "",
          "type": "string"
        }
      ],
      "stateMutability": "view",
      "type": "function"
    }
  ],
  "bytecode": "0x6101a0604052346100bb5761001e61001561015f565b93929092610412565b604051612fad908161066a823960805181818161021301526121b0015260a0518161213a015260c05181818161023701526121d5015260e0518161215b01526101005181612017015261012051818181610df6015281816115170152818161165d015281816120980152612da9015261014051816113db01526101605181818161170d0152612102015261018051818181610dc001526114e10152f35b5f80fd5b634e487b7160e01b5f52604160045260245ffd5b6040519190601f01601f191682016001600160401b038111838210176100f857604052565b6100bf565b6001600160a01b038116036100bb57565b81601f820112156100bb578051906001600160401b0382116100f85761013d601f8301601f19166020016100d3565b92828452602083830101116100bb57815f9260208093018386015e8301015290565b61a4938038038061016f816100d3565b92833981019060a0818303126100bb57805161018a816100fd565b60208201519363ffffffff851685036100bb5760408301516001600160401b0394908581116100bb57816101bf91860161010e565b9460608501519081116100bb576080916101da91860161010e565b930151916101e7836100fd565b9493929190565b156101f557565b60405162461bcd60e51b815260206004820152602e60248201527f757064617465207765696768742072756e6e65722063616e6e6f74206265206460448201526d656661756c74206164647265737360901b6064820152608490fd5b90600182811c9216801561027f575b602083101461026b57565b634e487b7160e01b5f52602260045260245ffd5b91607f1691610260565b601f8111610295575050565b60035f5260205f20906020601f840160051c830193106102cf575b601f0160051c01905b8181106102c4575050565b5f81556001016102b9565b90915081906102b0565b601f81116102e5575050565b60045f5260205f20906020601f840160051c8301931061031f575b601f0160051c01905b818110610314575050565b5f8155600101610309565b9091508190610300565b80519091906001600160401b0381116100f8576103508161034b600454610251565b6102d9565b602080601f83116001146103915750819061038193945f92610386575b50508160011b915f199060031b1c19161790565b600455565b015190505f8061036d565b60045f52601f198316949091907f8a35acfbc15ff81a39ae7d344fd709f28e8600b4aa8c65c6b64bfe7fe36bd19b925f905b8782106103fa5750508360019596106103e2575b505050811b01600455565b01515f1960f88460031b161c191690555f80806103d7565b806001859682949686015181550195019301906103c3565b929192616e7c610424602082016100d3565b9080825261361760208301398051908160011c918260a052828103928184116104d7578360e052808352610457836105da565b608052820191825193835261046b83610629565b60c052525230610100526101205263ffffffff9261048b848316426104eb565b938085116104c8576104c2946104a9936101405216610160526104fd565b6104bd6001600160a01b03841615156101ee565b610329565b61018052565b6368755a1160e01b5f5260045ffd5b634e487b7160e01b5f52601160045260245ffd5b919082018092116104f857565b6104d7565b80519091906001600160401b0381116100f8576105248161051f600354610251565b610289565b602080601f83116001146105595750819061055493945f926103865750508160011b915f199060031b1c19161790565b600355565b60035f52601f198316949091907fc2575a0e9e593c00f959f8c92f12db2869c3395a3b0502d05e2516446f71f85b925f905b8782106105c25750508360019596106105aa575b505050811b01600355565b01515f1960f88460031b161c191690555f808061059f565b8060018596829496860151815501950193019061058b565b9081517f602038038060206000396000f3fefefefefefefefefefefefefefefefefefefe835260208101835ff092526001600160a01b0382161561061a57565b63fef8220760e01b5f5260045ffd5b9081517f60fe600053602038038060206001396001016000f3fefefefefefefefefefefe835260208101835ff092526001600160a01b0382161561061a5756fe60806040526004361015610011575f80fd5b5f3560e01c8062c194db14610163578063174481fa1461015e578063193ad50f146101595780632f2770db146101545780632fcb03051461014f5780633f819b6f1461014a57806344f6fec71461014557806353a72f7e1461014057806354fd4d501461013b5780636634b75314610136578063673a2a1f146101315780636c57f5a91461012c57806378da80cb146101275780638110f22e14610122578063851c1bb31461011d5780638d928af8146101185780638eec5d7014610113578063aaabadc51461010e578063db035ebc14610109578063e9d56e19146101045763ec888061146100ff575f80fd5b611731565b6116f1565b6116c9565b61169e565b611681565b61163e565b611606565b61141f565b6113bf565b61139d565b61130f565b6112cf565b6111ce565b6110c9565b610fef565b610fd4565b610cb8565b6102ad565b61025e565b6101f4565b61019a565b5f91031261017257565b5f80fd5b805180835260209291819084018484015e5f828201840152601f01601f1916010190565b34610172575f366003190112610172576040516020810181811067ffffffffffffffff8211176101ef576101eb916101d7916040525f8152612137565b604051918291602083526020830190610176565b0390f35b61039e565b34610172575f36600319011261017257604080516001600160a01b03807f00000000000000000000000000000000000000000000000000000000000000001682527f0000000000000000000000000000000000000000000000000000000000000000166020820152f35b34610172575f36600319011261017257608061027861174b565b6102ab60405180926060809180511515845260208101511515602085015260408101511515604085015201511515910152565bf35b34610172575f366003190112610172576102d16001600160e01b03195f3516612004565b60206001600160a01b036102e3612062565b16916064604051809481937f9be2a88400000000000000000000000000000000000000000000000000000000835260048301523360248301523060448301525afa908115610399575f9161036a575b50156103425761034061176f565b005b7f23dada53000000000000000000000000000000000000000000000000000000005f5260045ffd5b61038c915060203d602011610392575b61038481836103e2565b8101906127c8565b5f610332565b503d61037a565b611873565b634e487b7160e01b5f52604160045260245ffd5b6080810190811067ffffffffffffffff8211176101ef57604052565b67ffffffffffffffff81116101ef57604052565b90601f8019910116810190811067ffffffffffffffff8211176101ef57604052565b60405190610140820182811067ffffffffffffffff8211176101ef57604052565b60405190610220820182811067ffffffffffffffff8211176101ef57604052565b6040519060e0820182811067ffffffffffffffff8211176101ef57604052565b92919267ffffffffffffffff82116101ef5760405191610490601f8201601f1916602001846103e2565b829481845281830111610172578281602093845f960137010152565b9080601f83011215610172578160206104c793359101610466565b90565b67ffffffffffffffff81116101ef5760051b60200190565b6001600160a01b0381160361017257565b8015150361017257565b3590610508826104f3565b565b9080601f83011215610172578135916020610524846104ca565b9360409361053560405196876103e2565b818652828087019260071b85010193818511610172578301915b84831061055f5750505050505090565b60808383031261017257855190610575826103b2565b8335610580816104e2565b82528484013590600282101561017257828692836080950152888601356105a6816104e2565b89820152606080870135906105ba826104f3565b82015281520192019161054f565b9080601f830112156101725760209082356105e2816104ca565b936105f060405195866103e2565b81855260208086019260051b82010192831161017257602001905b828210610619575050505090565b8135815290830190830161060b565b3590610508826104e2565b9190826060910312610172576040516060810181811067ffffffffffffffff8211176101ef576040526040808294803561066c816104e2565b8452602081013561067c816104e2565b602085015201359161068d836104e2565b0152565b9080601f830112156101725760209082356106ab816104ca565b936106b960405195866103e2565b81855260208086019260051b82010192831161017257602001905b8282106106e2575050505090565b83809183356106f0816104e2565b8152019101906106d4565b81601f82011215610172576020908035610714816104ca565b93604061072460405196876103e2565b828652848601918560059460051b8601019481861161017257868101935b86851061075457505050505050505090565b843567ffffffffffffffff811161017257820183603f82011215610172578881013590610780826104ca565b9161078d875193846103e2565b808352868b8401918a1b830101918683116101725791878c94929593015b8181106107c2575050829350815201940193610742565b91938091939583356107d3816104e2565b8152019101918b939194926107ab565b359061ffff8216820361017257565b359067ffffffffffffffff8216820361017257565b9080601f83011215610172576020908235610821816104ca565b9361082f60405195866103e2565b81855260208086019260051b82010192831161017257602001905b828210610858575050505090565b838091610864846107f2565b81520191019061084a565b81601f8201121561017257803591602091610889846104ca565b9361089760405195866103e2565b808552838086019160051b8301019280841161017257848301915b8483106108c25750505050505090565b823567ffffffffffffffff81116101725786916108e4848480948901016105c8565b8152019201916108b2565b9190916101408184031261017257610905610404565b9267ffffffffffffffff82358181116101725782610924918501610691565b855261093260208401610628565b60208601526040830135818111610172578261094f9185016106fb565b6040860152610960606084016107e3565b60608601526080830135818111610172578261097d918501610807565b608086015261098e60a084016107f2565b60a086015261099f60c084016107f2565b60c08601526109b060e084016107f2565b60e08601526101009182840135918211610172576109cf91840161086f565b908401526109e1610120809201610628565b90830152565b81601f82011215610172576020908035610a00816104ca565b93604091610a1160405196876103e2565b808652848601918560059260051b8601019481861161017257868101935b868510610a4157505050505050505090565b67ffffffffffffffff853581811161017257830184603f82011215610172578981013590610a6e826104ca565b92610a7b8a5194856103e2565b828452898c850193891b830101918783116101725790918c94928b8397959701925b828410610ab65750505050829350815201940193610a2f565b919395509193958435838111610172578e91610ad78b8f85948701016104ac565b8152019401918d959391969496610a9d565b600319906020818301126101725760049081359167ffffffffffffffff938484116101725761026090848403011261017257610b23610425565b9383820135818111610172578383610b3d928701016104ac565b85526024840135818111610172578383610b59928701016104ac565b60208601526044840135818111610172578383610b789287010161050a565b60408601526064840135818111610172578383610b97928701016105c8565b6060860152610ba98360848601610633565b608086015260e484013560a0860152610bc56101048501610628565b60c0860152610bd761012485016104fd565b60e0860152610be961014485016104fd565b610100860152610164840135610120860152610184840135818111610172578383610c16928701016105c8565b6101408601526101a4840135818111610172578383610c37928701016108ef565b6101608601526101c4840135818111610172578383610c58928701016105c8565b6101808601526101e4840135818111610172578383610c79928701016105c8565b6101a08601526102048401356101c08601526102248401356101e086015261024484013590811161017257610caf9301016109e7565b61020082015290565b3461017257610cc636610ae9565b60808101906001600160a01b039060409082610ced838651016001600160a01b0390511690565b16610f9b5760c081019083610d0983516001600160a01b031690565b168015159081610eff575b50610ed757610d2161174b565b90610d3b610d3260e0830151151590565b15156060840152565b610d52610d4c610100830151151590565b15158352565b83810192610e39610e1f610e2d865151610d7360608701918251511461187e565b610d7c8661233b565b85519060208701519051516101e08801519061020089015192610d9d610446565b94855260208501528b840152610db16118d5565b60608401526001600160a01b037f000000000000000000000000000000000000000000000000000000000000000016608084015260a083015260c082015288519283917f00000000000000000000000000000000000000000000000000000000000000009060208401611a5a565b03601f1981018352826103e2565b610120840151906123f9565b95610e4383612986565b861696873b15610172575f8651809963d36a274f60e01b8252818381610e6c8960048301611df6565b03925af19788156103995760a0610ea696610e9f926101eb9b610ebe575b5051940151915192516001600160a01b031690565b9287612d98565b516001600160a01b0390911681529081906020820190565b80610ecb610ed1926103ce565b80610168565b5f610e8a565b7fbcf1332d000000000000000000000000000000000000000000000000000000005f5260045ffd5b9050835180917fd77153a70000000000000000000000000000000000000000000000000000000082528160046101409485935afa90811561039957610f4d925f92610f6e575b505051151590565b610f63610f5e610100840151151590565b151590565b90151514155f610d14565b610f8d9250803d10610f94575b610f8581836103e2565b8101906117b5565b5f80610f45565b503d610f7b565b7f61ee1764000000000000000000000000000000000000000000000000000000005f5260045ffd5b9060206104c7928181520190610176565b34610172575f366003190112610172576101eb6101d76118d5565b346101725760403660031901126101725760043567ffffffffffffffff81116101725736602382011215610172576055600b6110386101eb933690602481600401359101610466565b61104c611046602435612f1f565b91612137565b602081519101209060405191604083015260208201523081520160ff8153206040516001600160a01b0390911681529081906020820190565b60209060206040818301928281528551809452019301915f5b8281106110ac575050505090565b83516001600160a01b03168552938101939281019260010161109e565b346101725760403660031901126101725760043560243590600191600154808310156111a6578183018084116111a1578110611190575b5061110a816104ca565b9161111860405193846103e2565b818352601f19611127836104ca565b013660208501375f5b82811061114557604051806101eb8682611085565b8061118a61117261115f61115a899587611f95565b611fb6565b90546001600160a01b039160031b1c1690565b61117c8388611ff0565b906001600160a01b03169052565b01611130565b828103915081116111a1575f611100565b611f81565b7f4e23d035000000000000000000000000000000000000000000000000000000005f5260045ffd5b34610172575f366003190112610172576040515f60035460018160011c91600181169182156112c5575b6020916020851084146112b15784875260208701939081156112925750600114611239575b6101eb8661122d818803826103e2565b60405191829182610fc3565b60035f90815294509192917fc2575a0e9e593c00f959f8c92f12db2869c3395a3b0502d05e2516446f71f85b5b838610611281575050509101905061122d826101eb5f61121d565b805485870152948201948101611266565b60ff1916845250505090151560051b01905061122d826101eb5f61121d565b634e487b7160e01b5f52602260045260245ffd5b92607f16926111f8565b34610172576020366003190112610172576001600160a01b036004356112f4816104e2565b165f525f602052602060ff60405f2054166040519015158152f35b34610172575f36600319011261017257604051806001916001549283825260208092019360015f527fb10e2d527612073b26eecdfd717e6a320cf44b4afac2b0732d9fcbe2b7fa0cf6925f905b82821061137f576101eb86611373818a03826103e2565b60405191829182611085565b84546001600160a01b0316875295860195938301939083019061135c565b34610172575f36600319011261017257602060ff600254166040519015158152f35b34610172575f36600319011261017257602060405163ffffffff7f0000000000000000000000000000000000000000000000000000000000000000168152f35b6040906001600160a01b036104c794931681528160208201520190610176565b346101725761142d36610ae9565b60808101906001600160a01b0390604082611453828651016001600160a01b0390511690565b16610f9b576115409361146461174b565b61147d61147460e0860151151590565b15156060830152565b61149461148e610100860151151590565b15158252565b83519161154e60208601519360608701948551516101e0890151906102008a0151926114be610446565b9485526020850152888401526114d26118d5565b60608401526001600160a01b037f000000000000000000000000000000000000000000000000000000000000000016608084015260a083015260c082015285519889917f00000000000000000000000000000000000000000000000000000000000000009060208401611a5a565b03601f1981018952886103e2565b611561848601938451519051511461187e565b61156a8561233b565b611579610120860151886123f9565b9561158386612986565b861694853b15610172575f8551809763d36a274f60e01b82528183816115ac8760048301611df6565b03925af1938415610399576101eb966115e9956115f3575b5051916115e260c060a084015192519301516001600160a01b031690565b9288612d98565b51928392836113ff565b80610ecb611600926103ce565b5f6115c4565b34610172576020366003190112610172576004356001600160e01b03198116810361017257611636602091612004565b604051908152f35b34610172575f3660031901126101725760206040516001600160a01b037f0000000000000000000000000000000000000000000000000000000000000000168152f35b34610172575f366003190112610172576020600154604051908152f35b34610172575f3660031901126101725760206116b8612062565b6001600160a01b0360405191168152f35b34610172575f3660031901126101725760206116e3612100565b63ffffffff60405191168152f35b34610172575f36600319011261017257602060405163ffffffff7f0000000000000000000000000000000000000000000000000000000000000000168152f35b34610172575f3660031901126101725760206040515f8152f35b60405190611758826103b2565b5f6060838281528260208201528260408201520152565b6117776121fd565b600160ff1960025416176002557f432acbfd662dbb5d8b378384a67159b47ca9d0f1b79f97cf64cf8585fa362d505f80a1565b5190610508826104f3565b9081610140910312610172576117c9610404565b906117d3816117aa565b82526117e1602082016117aa565b60208301526117f2604082016117aa565b6040830152611803606082016117aa565b6060830152611814608082016117aa565b608083015261182560a082016117aa565b60a083015261183660c082016117aa565b60c083015261184760e082016117aa565b60e083015261010061185a8183016117aa565b9083015261186c6101208092016117aa565b9082015290565b6040513d5f823e3d90fd5b1561188557565b60405162461bcd60e51b815260206004820152602260248201527f546f6b656e20616e642077656967687420636f756e7473206d757374206d61746044820152610c6d60f31b6064820152608490fd5b604051905f6004546001918160011c92600183169081156119a6575b6020906020861083146112b157858852879460208601939081156119875750600114611927575b505050610508925003836103e2565b92509361195560045f527f8a35acfbc15ff81a39ae7d344fd709f28e8600b4aa8c65c6b64bfe7fe36bd19b90565b945f935b828510611971575050506105089350015f8080611918565b8654858501529586019588955093810193611959565b925050506105089491925060ff19168252151560051b015f8080611918565b93607f16936118f1565b9080825190818152602080910160059082808560051b8701019601945f925b8584106119e0575050505050505090565b9091929394959685601f1980858403018652895192835180825283820191848083891b8301019601935f905b838210611a2e57505050505050806001929901940194019295949391906119cf565b91939580611a49898588600196989a9c03018a528a51610176565b9801960192018b9594929391611a0c565b92916020611aee6105089360408752611a80815160e060408a0152610120890190610176565b60c0611abf611aa18685015193603f19948c60608782850301910152610176565b604085015160808c01526060850151848c83030160a08d0152610176565b926001600160a01b03608082015116828b015260a081015160e08b0152015190888303016101008901526119b0565b9401906001600160a01b03169052565b906001600160a01b03918281511682526020810151906002821015611b4057608093606092602085015260408201511660408401520151151560608201520190565b634e487b7160e01b5f52602160045260245ffd5b9081518082526020808093019301915f5b828110611b73575050505090565b9091929382611b856001928751611afe565b950193929101611b65565b9081518082526020808093019301915f5b828110611baf575050505090565b835185529381019392810192600101611ba1565b9081518082526020808093019301915f5b828110611be2575050505090565b83516001600160a01b031685529381019392810192600101611bd4565b908082519081815260208091019281808460051b8301019501935f915b848310611c2c5750505050505090565b90919280949596601f198382030184528751908280835192838152019201905f905b808210611c6d5750505090806001929801930193019194939290611c1c565b919380600192946001600160a01b038751168152019401920187939291611c4e565b9081518082526020808093019301915f5b828110611cae575050505090565b835167ffffffffffffffff1685529381019392810192600101611ca0565b90808251908181526020809101926020808460051b8301019501935f915b848310611cfa5750505050505090565b9091929394958480611d18600193601f198682030187528a51611b90565b9801930193019194939290611cea565b906104c790611ddf611d8f611d6f611d4a610140875190808752860190611bc3565b6020878101516001600160a01b03169086015260408701518582036040870152611bff565b60608681015161ffff169085015260808601518482036080860152611c8f565b60a08581015167ffffffffffffffff169084015260c08581015167ffffffffffffffff169084015260e08581015167ffffffffffffffff1690840152610100808601519084830390850152611ccc565b610120938401516001600160a01b03169190930152565b906104c79160208152815190611e1a61026092836020840152610280830190610176565b91611e65611e51611e3d602087015195601f199687878303016040880152610176565b604087015186868303016060870152611b54565b606086015185858303016080860152611b90565b608085015180516001600160a01b0390811660a08601526020820151811660c08601526040909101511660e084015260a085015194610100958685015260c081015195611ec061012097888701906001600160a01b03169052565b611f5f611f48611f31611f1a60e086015194611ee361014096878c019015159052565b8601519a611ef86101609c8d8c019015159052565b8601519461018095868b0152860151966101a0978b8b830301898c0152611b90565b99850151996101c09a8a8a8303018c8b0152611d28565b92840151926101e0938989830301858a0152611b90565b938301519361020094888883030186890152611b90565b96820151610220860152810151610240850152015192828503019101526119b0565b634e487b7160e01b5f52601160045260245ffd5b919082018092116111a157565b634e487b7160e01b5f52603260045260245ffd5b600154811015611feb5760015f527fb10e2d527612073b26eecdfd717e6a320cf44b4afac2b0732d9fcbe2b7fa0cf601905f90565b611fa2565b8051821015611feb5760209160051b010190565b6040516001600160e01b031960208201927f00000000000000000000000000000000000000000000000000000000000000008452166040820152602481526060810181811067ffffffffffffffff8211176101ef5760405251902090565b6040517faaabadc50000000000000000000000000000000000000000000000000000000081526020816004816001600160a01b037f0000000000000000000000000000000000000000000000000000000000000000165afa908115610399575f916120cb575090565b90506020813d6020116120f8575b816120e6602093836103e2565b8101031261017257516104c7816104e2565b3d91506120d9565b7f000000000000000000000000000000000000000000000000000000000000000063ffffffff81164210156121325790565b505f90565b907f00000000000000000000000000000000000000000000000000000000000000007f0000000000000000000000000000000000000000000000000000000000000000808201908183116111a157845192838301958684116111a15760209260018480946040519a82818d01016040528b52805f838d017f00000000000000000000000000000000000000000000000000000000000000003c8a01017f00000000000000000000000000000000000000000000000000000000000000003c01918501015e565b60ff6002541661220957565b7f75884cda000000000000000000000000000000000000000000000000000000005f5260045ffd5b1561223857565b60405162461bcd60e51b815260206004820152601560248201527f496e76616c696420706f6f6c20726567697374727900000000000000000000006044820152606490fd5b1561228457565b60405162461bcd60e51b815260206004820152601a60248201527f4c696d69742065786365656473206172726179206c656e6774680000000000006044820152606490fd5b156122d057565b60405162461bcd60e51b815260206004820152603160248201527f64657461696c206e6565647320616c6c2034205b63617465676f72792c206e6160448201527f6d652c20747970652c2064657461696c5d0000000000000000000000000000006064820152608490fd5b612377906102006101e08201519160019383600186951615908115916123ec575b81156123df575b81156123d2575b81156123c5575b50612231565b016123876032825151111561227d565b5f915b61239357505050565b805180518310156123bf57826123b860046123b087968795611ff0565b5151146122c9565b019161238a565b50505050565b602091501615155f612371565b601081161515915061236a565b6008811615159150612363565b600281161515915061235c565b9061104661240691612f1f565b8051156124cd576020815191015ff5906001600160a01b03918281169081156124a557926124326121fd565b815f525f60205260405f20600160ff19825416179055600154680100000000000000008110156101ef5780600161246c9201600155611fb6565b819291549060031b9184831b921b19161790557f83a48fbcfc991335314e74d0496aab6a1987e992ddc85dddbcc4d6dd6ef2e9fc5f80a2565b7f741752c2000000000000000000000000000000000000000000000000000000005f5260045ffd5b7f4ca249dc000000000000000000000000000000000000000000000000000000005f5260045ffd5b156124fc57565b60405162461bcd60e51b815260206004820152600a60248201527f494e5641535357454947000000000000000000000000000000000000000000006044820152606490fd5b1561254857565b60405162461bcd60e51b815260206004820152600a60248201527f494e564f52435354414c000000000000000000000000000000000000000000006044820152606490fd5b1561259457565b60405162461bcd60e51b815260206004820152600c60248201527f496e76616c69642072756c6500000000000000000000000000000000000000006044820152606490fd5b156125e057565b60405162461bcd60e51b815260206004820152600660248201527f494e564c414d00000000000000000000000000000000000000000000000000006044820152606490fd5b1561262c57565b60405162461bcd60e51b815260206004820152601760248201527f456974686572207363616c6172206f7220766563746f720000000000000000006044820152606490fd5b1561267857565b60405162461bcd60e51b815260206004820152600860248201527f494e565f45504d580000000000000000000000000000000000000000000000006044820152606490fd5b80156126d057670de0b6b3a76400000590565b634e487b7160e01b5f52601260045260245ffd5b156126eb57565b60405162461bcd60e51b815260206004820152600a60248201527f494e565f414253574754000000000000000000000000000000000000000000006044820152606490fd5b1561273757565b60405162461bcd60e51b815260206004820152600960248201527f4e4f50524f564f524300000000000000000000000000000000000000000000006044820152606490fd5b1561278357565b60405162461bcd60e51b815260206004820152600760248201527f4f4c4e57454947000000000000000000000000000000000000000000000000006044820152606490fd5b9081602091031261017257516104c7816104f3565b6020808201906020835283518092526040830192602060408460051b8301019501935f915b8483106128125750505050505090565b9091929394958480612830600193603f198682030187528a51611b90565b9801930193019194939290612802565b1561284757565b60405162461bcd60e51b815260206004820152600960248201527f494e56524c4550524d00000000000000000000000000000000000000000000006044820152606490fd5b1561289357565b60405162461bcd60e51b815260206004820152600b60248201527f494e564d415854524144450000000000000000000000000000000000000000006044820152606490fd5b156128df57565b606460405162461bcd60e51b815260206004820152602060248201527f4174206c656173742074776f20746f6b656e73206172652072657175697265646044820152fd5b908160011b91808304600214901517156111a157565b90612943826104ca565b61295060405191826103e2565b8281528092612961601f19916104ca565b0190602036910137565b9190915f83820193841291129080158216911516176111a157565b90610160820190815151518015159081612d88575b5080612d74575b6129ab906124f5565b6129bb6101c08401511515612541565b6129f36001600160a01b036129eb6129df60208651016001600160a01b0390511690565b6001600160a01b031690565b16151561258d565b5f5b6080835101518051821015612a5d5790612a45612a35612a28612a1a84600196611ff0565b5167ffffffffffffffff1690565b67ffffffffffffffff1690565b5f81139081612a4b575b506125d9565b016129f5565b670de0b6b3a76400009150125f612a3f565b5050916080825101515190612a8060019260018114908115612d64575b50612625565b612aad612a9d612a2860a086510167ffffffffffffffff90511690565b5f81139081612d51575b50612671565b60c0612ac9612a2860c086510167ffffffffffffffff90511690565b610140830190612ada8251516126bd565b1380612d22575b612aea906126e4565b612afb604086510151511515612730565b612b0e604086510151518251511461277c565b8451610100612b2a6129df60208401516001600160a01b031690565b91015190602060405180927f0df61b8f0000000000000000000000000000000000000000000000000000000082528180612b69600497600483016127dd565b03915afa8015610399578695612b8c606092612bdf945f91612d03575b50612840565b612bc267ffffffffffffffff612bae60e08c51015167ffffffffffffffff1690565b168015159081612cf0575b509a999a61288c565b612bd36001604083015151116128d8565b01515183515190612f48565b5f96612bf4612bef845151612923565b612939565b935f965b612c3d575b5050505050505090670de0b6b3a764000003612c1557565b7f39cf114e000000000000000000000000000000000000000000000000000000005f5260045ffd5b83518051881015612cea5787612c5291611ff0565b518251820151612c6b9067ffffffffffffffff16612a28565b13612cc35785612ca188999a612c83839a8851611ff0565b51612c8e8c8a611ff0565b52612c9a8b8851611ff0565b519061296b565b985f612cb8612cb288515184611f95565b89611ff0565b520196989798612bf8565b827fbd393583000000000000000000000000000000000000000000000000000000005f525ffd5b50612bfd565b670429d069189e0000915011155f612bb9565b612d1c915060203d6020116103925761038481836103e2565b5f612b86565b50612aea662386f26fc10000612d48612a2860c089510167ffffffffffffffff90511690565b12159050612ae1565b670de0b6b3a7640000915013155f612aa7565b905061014083015151145f612a7a565b5061014083015151606084015151146129a2565b905061014084015151145f61299b565b94919390926001600160a01b0395867f00000000000000000000000000000000000000000000000000000000000000001695612dd2612100565b91873b15610172576040517feeec802f000000000000000000000000000000000000000000000000000000008152981660048901526101a0602489015285516101a4890181905288966101c488019695949392916020918201915f5b828110612ef25750505050604487015263ffffffff1660648601525f9593859387938593612ed49291612ea291612e919088608489015260a4880190604090816001600160a01b0391828151168552826020820151166020860152015116910152565b6001600160a01b0316610104860152565b805115156101248501526020810151151561014485015260408101511515610164850152606001511515610184840152565b03925af1801561039957612ee55750565b80610ecb610508926103ce565b91939495969798839a5090612f0b600192829551611afe565b9a019101918b999897969594939192612e2e565b6040516020810191338352466040830152606082015260608152612f42816103b2565b51902090565b03612f4f57565b7faaad13f7000000000000000000000000000000000000000000000000000000005f5260045ffdfea2646970667358221220eafc93c49f631d02da1c1f76f9769d12ab0330749626f97fb5f3c7dffbb4f18864736f6c634300081a00336102206040523461082257616e7c803803809161001e82610220610b47565b610220396040811261082257610220516001600160401b03811161082257610220019060e08282610220010312610822576040519160e083016001600160401b038111848210176106b15760405280516001600160401b0381116108225761008d908361022001908301610b6a565b835260208101516001600160401b038111610822576100b3908361022001908301610b6a565b60208401526040818101519084015260608101516001600160401b038111610822576100e6908361022001908301610b6a565b60608401526100f760808201610bbf565b608084015260a0818101519084015260c08101516001600160401b038111610822578261022001601f82840101121561082257808201519061013882610bd3565b936101466040519586610b47565b8285526020850193816102200160208560051b85840101011161082257602083820101945b60208560051b85840101018610610a7f5760c0880187905261024051886001600160a01b03821682036108225760608101519080519260208201519360405180604081011060018060401b036040830111176106b1576040810160405260018152603160f81b60208201526101df82610c38565b610120526101ec81610d9d565b6101405281516020830120908160e0526020815191012080610100524660a052604051917f8b73c3c69bb8fe3d512ecc4cf759cc79239f7b179b0ffacaa9a75d522b39400f6020840152604083015260608201524660808201523060a082015260a081528060c081011060018060401b0360c0830111176106b15760c08101604052602081519101206080523060c052816101605280519060018060401b0382116106b15761029c600354610bea565b601f8111610a31575b50602090601f83116001146109aa576102d592915f918361099f575b50508160011b915f199060031b1c19161790565b6003555b83516001600160401b0381116106b1576102f4600454610bea565b601f8111610951575b506020601f82116001146108ea57819061032e939495965f926108df5750508160011b915f199060031b1c19161790565b6004555b610180528151916001600160401b0383116106b157610352600554610bea565b601f81116108ae575b50602090601f841160011461084457928061038d926004955f926108395750508160011b915f199060031b1c19161790565b6005555b6040818101516101a0526080820151600980546001600160a01b0319166001600160a01b0392909216918217905590516360bcf9b160e11b81529260209184919082905afa801561082e575f906107f0575b6101e052426101c05260a08101516102005260c00151805191506801000000000000000082116106b15760065482600655808310610735575b506020019060065f5260205f205f925b82841061054557604051615fcf9081610ead82396080518161497f015260a05181614a4a015260c05181614950015260e051816149ce015261010051816149f4015261012051816129d501526101405181612a0101526101605181818161075b0152818161085f01528181610d1a015281816126490152818161299901528181612cdb0152818161304b0152818161335c01528181613f4401526148f20152610180518181816121420152818161224f0152818161233f0152818161256a0152612aba01526101a05181818161038701528181613113015281816141ed0152614a8901526101c0518181816102ba01528181610611015261372b01526101e051816105e101526102005181818161089c01526122d00152f35b80518051906801000000000000000082116106b15783548285558083106106c5575b5060200190835f5260205f205f925b82841061059357505050506001602081920192019301929061042c565b80518051906001600160401b0382116106b1576105b08454610bea565b601f8111610676575b50602090601f831160011461060a57926105f0836001959460209487965f926105ff5750508160011b915f199060031b1c19161790565b85555b01920193019290610576565b015190508e806102c1565b90845f5260205f20915f5b601f198516811061065e575083602093600196938796938794601f19811610610646575b505050811b0185556105f3565b01515f1960f88460031b161c191690558d8080610639565b91926020600181928685015181550194019201610615565b6106a190855f5260205f20601f850160051c810191602086106106a7575b601f0160051c0190610c22565b8a6105b9565b9091508190610694565b634e487b7160e01b5f52604160045260245ffd5b845f528260205f2091820191015b8181106106e05750610567565b806106ed60019254610bea565b806106fa575b50016106d3565b601f8111831461070f57505f81555b896106f3565b5f9082825261072c601f60208420920160051c8201858301610c22565b81835555610709565b60065f527ff652222313e28459528d920b65115c16c04f3efc82aaedc97be59f3f377c0d3f9081019083015b81811061076e575061041c565b80545f825580610782575b50600101610761565b815f5260205f20908101905b81811061079b5750610779565b806107a860019254610bea565b806107b5575b500161078e565b601f811183146107ca57505f81555b876107ae565b5f908282526107e7601f60208420920160051c8201858301610c22565b818355556107c4565b506020823d602011610826575b8161080a60209383610b47565b810103126108225761081d60c092610bbf565b6103e3565b5f80fd5b3d91506107fd565b6040513d5f823e3d90fd5b0151905085806102c1565b9060055f5260205f20915f5b601f19861681106108965750918491600193600496601f1981161061087e575b505050811b01600555610391565b01515f1960f88460031b161c19169055848080610870565b91926020600181928685015181550194019201610850565b6108d99060055f5260205f20601f860160051c810191602087106106a757601f0160051c0190610c22565b8361035b565b0151905086806102c1565b60045f5260205f20905f5b601f1984168110610939575060019394959683601f19811610610921575b505050811b01600455610332565b01515f1960f88460031b161c19169055858080610913565b9091602060018192858b0151815501930191016108f5565b60045f52610999907f8a35acfbc15ff81a39ae7d344fd709f28e8600b4aa8c65c6b64bfe7fe36bd19b601f840160051c810191602085106106a757601f0160051c0190610c22565b856102fd565b0151905087806102c1565b60035f90815292917fc2575a0e9e593c00f959f8c92f12db2869c3395a3b0502d05e2516446f71f85b915b601f1984168510610a16576001945083601f198116106109fe575b505050811b016003556102d9565b01515f1960f88460031b161c191690558680806109f0565b818101518355602094850194600190930192909101906109d5565b60035f52610a79907fc2575a0e9e593c00f959f8c92f12db2869c3395a3b0502d05e2516446f71f85b601f850160051c810191602086106106a757601f0160051c0190610c22565b866102a5565b85516001600160401b038111610822578361022001603f828786010101121561082257602081868501010151610ab481610bd3565b91610ac26040519384610b47565b81835260208301866102200160408460051b848b8a0101010111610822576040828988010101905b60408460051b848b8a010101018210610b1057505050908252506020958601950161016b565b81516001600160401b03811161082257602091610b3c8960408594888f8f610220019401010101610b6a565b815201910190610aea565b601f909101601f19168101906001600160401b038211908210176106b157604052565b81601f82011215610822578051906001600160401b0382116106b15760405192610b9e601f8401601f191660200185610b47565b8284526020838301011161082257815f9260208093018386015e8301015290565b51906001600160a01b038216820361082257565b6001600160401b0381116106b15760051b60200190565b90600182811c92168015610c18575b6020831014610c0457565b634e487b7160e01b5f52602260045260245ffd5b91607f1691610bf9565b818110610c2d575050565b5f8155600101610c22565b805160209081811015610cae5750601f825111610c705780825192015190808310610c6257501790565b825f19910360031b1b161790565b60448260405192839163305a27a960e01b83528160048401528051918291826024860152018484015e5f828201840152601f01601f19168101030190fd5b919291906001600160401b0382116106b157610cca5f54610bea565b601f8111610d76575b5080601f8311600114610d1457508190610d0293945f92610d095750508160011b915f199060031b1c19161790565b5f5560ff90565b015190505f806102c1565b90601f198316945f8052825f20925f905b878210610d5e575050836001959610610d46575b505050811b015f5560ff90565b01515f1960f88460031b161c191690555f8080610d39565b80600185968294968601518155019501930190610d25565b610d97905f8052601f835f20910160051c810190601f850160051c01610c22565b5f610cd3565b805160209081811015610dc75750601f825111610c705780825192015190808310610c6257501790565b9192916001600160401b0381116106b157600191610de58354610bea565b601f8111610e85575b5080601f8311600114610e2557508190610e1e9394955f92610d095750508160011b915f199060031b1c19161790565b905560ff90565b90601f19831695845f52825f20925f905b888210610e6e5750508385969710610e56575b505050811b01905560ff90565b01515f1960f88460031b161c191690555f8080610e49565b808785968294968601518155019501930190610e36565b610ea690845f52601f835f20910160051c810190601f850160051c01610c22565b5f610dee56fe610160806040526004361015610013575f80fd5b5f905f3560e01c90816301ffc9a71461375957508063021eb7cd1461370f57806306fdde0314613666578063095ea7b31461360f5780630f6480df146135f2578063132f4264146132f757806316a0b3e01461309c57806318160ddd1461308257806323b872dd14612fe757806323de665114612fb6578063273c1adf14612f9457806330adf81f14612f5a578063313ce56714612f3f5780633644e51514612f25578063451a10aa14612ea757806354fd4d5014612dfe5780635687f2b814612daa578063627cdcb914612d81578063654cf15d14612d5f578063679aefce14612d4157806370a0823114612c7b57806372c9818614612b8f5780637445e37f14612b695780637ecebe0014612b3157806381fa807c14612a8457806384b0196e146129bd5780638d928af81461297a5780638ddf01c01461295157806395d89b4114612873578063984de9e8146126b8578063a9059cbb146125cc578063aa6ca80814612538578063abb1dc44146122f3578063afcff50f146122b9578063b156aa0a1461221d578063b677fa56146121fb578063c0f38e741461219b578063ce20ece71461217b578063d335b0cf146120f6578063d36a274f14610ddf578063d505accf14610bbf578063d5787898146107d8578063dd62ed3e146106e9578063dddd104a146105bc578063e313fe3814610554578063e4e3b53514610304578063eb296de1146102dd578063ecda10f5146102a2578063f89f27ed1461026e5763fd2c80ae14610245575f80fd5b3461026b578060031936011261026b5760206001600160401b03600f5416604051908152f35b80fd5b503461026b578060031936011261026b5761029e61028a614a87565b604051918291602083526020830190613a72565b0390f35b503461026b578060031936011261026b5760206040517f00000000000000000000000000000000000000000000000000000000000000008152f35b503461026b578060031936011261026b5760206001600160401b03600d5416604051908152f35b503461026b57606036600319011261026b576004356001600160401b038082116105505736602383011215610550578160040135908111610550576024820191602436918360051b0101116105505761035b6137fb565b906044359164ffffffffff9182841680850361054c576001600160a01b039384600954163303610521577f0000000000000000000000000000000000000000000000000000000000000000906001918060011b908082046002149015171561050d5784036104e35760088411156104c05761040b6103fd6103f76103e86103e336898e613b0c565b615125565b6104026103fd6103f783613e41565b51614d1a565b613e41565b51600755613e62565b51600855959092955b42169260405191610424836138f0565b848352836020809401528469ffffffffff0000000000600a549260281b169169ffffffffffffffffffff19161717600a5560405196806060890160608a52526080880198928a5b8281106104ad578b8b7f3f678b7d550c0f8dfb5dce7c8568f6e139b01f5582a5613d669ebe77729a49fc8c808d8d8d8d6020850152604084015216930390a280f35b84358b529981019993810193830161046b565b6104d66103fd6104d136878c613b0c565b614d1a565b5160075595909295610414565b60405162461bcd60e51b815260206004820152600260248201526115d160f21b6044820152606490fd5b60248a634e487b7160e01b81526011600452fd5b60405162461bcd60e51b81526020600482015260036024820152622c2aa960e91b6044820152606490fd5b8680fd5b8280fd5b503461026b57602036600319011261026b57600435600c548110156105b857600c602092526001600160401b038160021c7fdf6966c971051c3d54ec59162606531493a51404a002842f56009d7e5cf4a8c7015460c06040519360061b161c168152f35b5080fd5b503461026b57602036600319011261026b576105d66137e5565b6001600160a01b03807f00000000000000000000000000000000000000000000000000000000000000001633036106be576305a39a806106367f000000000000000000000000000000000000000000000000000000000000000042613c21565b10156106935780600954921691827fffffffffffffffffffffffff0000000000000000000000000000000000000000821617600955167fc51fb6cc8e37fb27ff77886c5b33be204bb0a91dc410398c3a9bef63760c0b9d8380a380f35b60405162461bcd60e51b815260206004820152600360248201526258494d60e81b6044820152606490fd5b60405162461bcd60e51b815260206004820152600360248201526216105160ea1b6044820152606490fd5b503461026b57604036600319011261026b576107036137e5565b90602061070e6137fb565b9260646001600160a01b0391828060405197889586947f927da1050000000000000000000000000000000000000000000000000000000086523060048701521660248501521660448301527f0000000000000000000000000000000000000000000000000000000000000000165afa9081156107cc5790610795575b602090604051908152f35b506020813d6020116107c4575b816107af60209383613942565b810103126107c0576020905161078a565b5f80fd5b3d91506107a2565b604051903d90823e3d90fd5b503461026b578060031936011261026b576040519061012082018281106001600160401b03821117610bab5760405260608252806020830152806040830152606080830152606060808301528060a08301528060c08301528060e08301528061010083015260405163ca4f280360e01b815230600482015281816024816001600160a01b037f0000000000000000000000000000000000000000000000000000000000000000165afa908115610ba0578291610b7e575b50825260105460208301527f00000000000000000000000000000000000000000000000000000000000000006040830152600b546108cc81613963565b906108da6040519283613942565b808252827f0175b7a638427703f0dbe7bb9bbf987a2551717b34e79f33b5b1008d1fa01db9602084015b838310610b2457505050506060830152604051908180926020600c54918281520190600c84527fdf6966c971051c3d54ec59162606531493a51404a002842f56009d7e5cf4a8c793905b806003830110610ad257610986945490808310610ab6575b808310610a97575b808310610a78575b8210610a64575b50500382613942565b60808201526001600160401b03600d5481811660a084015260401c1660c0820152600e5460e08201526001600160401b03600f54166101008201526040518091602082526001600160401b03610100610a356109f084516101206020880152610140870190613aa5565b6020850151604087015260408501516060870152610a20606086015191601f1992838983030160808a0152613b89565b906080860151908783030160a0880152613be5565b928260a08201511660c08601528260c08201511660e086015260e0810151828601520151166101208301520390f35b60c01c82526020909101906001015f61097d565b919260206001916001600160401b038460801c16815201930191610976565b919260206001916001600160401b038460401c1681520193019161096e565b919260206001916001600160401b038416815201930191610966565b916004919350608060019186546001600160401b03811682526001600160401b038160401c1660208301526001600160401b0381841c16604083015260c01c606082015201940192018492939161094e565b604051825480825283885260208089209083019189905b808210610b665750505060019282610b5885946020940382613942565b815201920192019190610904565b90919260016020819286548152019401920190610b3b565b610b9a91503d8084833e610b928183613942565b81019061468d565b5f61088f565b6040513d84823e3d90fd5b634e487b7160e01b5f52604160045260245ffd5b503461026b5760e036600319011261026b57610bd96137e5565b610be16137fb565b90604435916064359160843560ff81168103610ddb57834211610daf57610c22826001600160a01b03165f52600260205260405f2080549060018201905590565b9060405160208101917f6e71edae12b1b97f4d1f60370fef10105fa2faae0126114a169c64845d6126c983526001600160a01b039687861694856040850152888816606085015289608085015260a084015260c083015260c0825260e08201908282106001600160401b03831117610bab578793610cdc93610cd393604052519020610cac614946565b906040519161190160f01b83526002830152602282015260c43591604260a4359220615636565b909291926156b8565b16818103610d815760405163e1f21c6760e01b81526001600160a01b03848116600483015285166024820152604481018790528790602081606481857f00000000000000000000000000000000000000000000000000000000000000008c165af18015610ba057610d4b575080f35b6020813d602011610d79575b81610d6460209383613942565b810103126105b857610d7590613c66565b5080f35b3d9150610d57565b7f4b800e46000000000000000000000000000000000000000000000000000000008752600452602452604485fd5b602486857f62791302000000000000000000000000000000000000000000000000000000008252600452fd5b8580fd5b50346107c05760203660031901126107c0576001600160401b03600435116107c057610260600435360360031901126107c05760405161022081018181106001600160401b03821117610bab57604052600435600401356001600160401b0381116107c057610e55906004369181350101613a54565b8152602460043501356001600160401b0381116107c057610e7d906004369181350101613a54565b6020820152604460043501356001600160401b0381116107c05760043501366023820112156107c057600481013590610eb582613963565b91610ec36040519384613942565b80835260208301913660248360071b830101116107c0579160248301925b60248360071b820101841061207857505050506040820152606460043501356001600160401b0381116107c057610f1f90600436918135010161397a565b60608201526060608319600435360301126107c057604051610f40816138a7565b610f4e608460043501613811565b8152610f5e60a460043501613811565b6020820152610f7160c460043501613811565b6040820152608082015260e4600435013560a0820152610f9661010460043501613811565b60c0820152610faa61012460043501613aff565b60e0820152610fbe61014460043501613aff565b61010082015260043561016481013561012083015261018401356001600160401b0381116107c057610ff7906004369181350101613b5a565b6101408201526101a460043501356001600160401b0381116107c0576101406004358201360360031901126107c057604051906110338261388b565b60048181350101356001600160401b0381116107c057366023828460043501010112156107c05761106c60048284823501010135613963565b9061107a6040519283613942565b60048035840182019081013580845260208401913660059290921b01602401116107c05760248285600435010101905b60048035860184019081013560051b01602401821061205c5750505082526004358101602401356001600160a01b03811690036107c057600435810160248101356020840152604401356001600160401b0381116107c057366023828460043501010112156107c057600481838235010101359061112782613963565b916111356040519384613942565b808352602083013660248360051b858860043501010101116107c05760248386600435010101905b60248360051b8588600435010101018210611fa45750505050604083015260043581016064013561ffff811690036107c057600435810160648101356060840152608401356001600160401b0381116107c057366023828460043501010112156107c057600481838235010101356111d481613963565b916111e26040519384613942565b81835260208301903660248460051b838860043501010101116107c0579060248286600435010101915b60248460051b8288600435010101018310611f885750505050608083015261123a60a4826004350101613b75565b60a083015261124f60c4826004350101613b75565b60c083015261126460e4826004350101613b75565b60e0830152610104816004350101356001600160401b0381116107c057366023828460043501010112156107c057600481838235010101356112a581613963565b916112b36040519384613942565b818352602083013660248460051b848860043501010101116107c05760248286600435010101905b60248460051b8488600435010101018210611f4f575050505061010083015261130b906004350161012401613811565b6101208201526101608201526101c460043501356001600160401b0381116107c05761133e906004369181350101613b5a565b6101808201526001600160401b036101e46004350135116107c05761136e36600480356101e48101350101613b5a565b6101a08201526004356102048101356101c08301526102248101356101e083015261024401356001600160401b0381116107c05736602382600435010112156107c0576004818135010135906113c382613963565b916113d16040519384613942565b80835260208301913660248360051b83600435010101116107c0576024816004350101925b60248360051b836004350101018410611e8757505050506102008201527ff0c57e16840df040f15088dc2f81fe391c3923bec73e23a9662efc9c229c6a0054916001600160401b0383161580611e79575b60016001600160401b038516149081611e6f575b159081611e66575b50611e3e5760016001600160401b03198416177ff0c57e16840df040f15088dc2f81fe391c3923bec73e23a9662efc9c229c6a005560ff8360401c1615611dff575b6101c0820151601055608061016083015161ffff6060820151166001600160401b0319600f541617600f5501518051906001600160401b038211610bab57680100000000000000008211610bab57600c5482600c55808310611d47575b5060200190600c5f525f5b8160021c8110611ce257506003198116808203611c65575b5050506101006101608301516001600160401b0360a082015116600d54906fffffffffffffffff000000000000000060c084015160401b16916fffffffffffffffffffffffffffffffff19161717600d556001600160401b0360e082015116600e550151805190680100000000000000008211610bab57600b5482600b55808310611bf6575b5060200190600b5f527f0175b7a638427703f0dbe7bb9bbf987a2551717b34e79f33b5b1008d1fa01db9915f905b828210611b6157505050506001600160a01b036020610160840151015116610180830151906101a08401516101408501515191803b156107c0576116615f611673958195604051978896879586947f44a01eb3000000000000000000000000000000000000000000000000000000008652306004870152608060248701526084860190614c77565b84810360031901604486015290614c77565b90606483015203925af18015611b5657611b45575b506001600160a01b036009541661016083015190803b15610550578291829160405180948180947f727cc6b6000000000000000000000000000000000000000000000000000000008252602060048301526001600160a01b0361012061179d61174b611727611705865161014060248a0152610164890190613aa5565b60208701518616604489015260408701518882036023190160648a01526146b2565b606086015161ffff16608488015260808601518782036023190160a4890152613be5565b6001600160401b0360a08601511660c48701526001600160401b0360c08601511660e48701526001600160401b0360e08601511661010487015261010085015160231987830301610124880152613b89565b9201511661014483015203925af18015610ba057908291611b31575b5050610140820151600754611aed578051808060011b0460021481151715611ad9576117e79060011b6145ea565b93825b8251811015611828578061180060019285613ef4565b5161180b8289613ef4565b528461182161181b865184614a7a565b89613ef4565b52016117ea565b5082610160858760088151115f14611ac45761184c6103fd6103f76103e884615125565b516008555b7f3f678b7d550c0f8dfb5dce7c8568f6e139b01f5582a5613d669ebe77729a49fc64ffffffffff42169182602060405161188a816138f0565b8281520152600a548369ffffffffff00000000004260281b169169ffffffffffffffffffff19161717600a556118cb60405191606083526060830190614c77565b9280602083015260408201528030930390a20151916001600160a01b03602084015116604084015193608081015194610100820151916001600160401b0360a082015116966001600160401b0360c083015116906119546001600160a01b0361012061ffff606087015116950151169460405197885261012060208901526101208801906146b2565b868103604088015260208083519283815201920190895b818110611aa5575050508581036060870152845180825260208201906020808260051b8501019701918a905b828210611a73578b60ff8c8f8d808e8e8e8e7f0fac2c21f556c18c8ccc516e0c773f53ac94c19685206bc8dabe8a189cb1f43a96608086015260a085015260c084015260e0830152336101008301520390a160401c16156119f55780f35b68ff0000000000000000197ff0c57e16840df040f15088dc2f81fe391c3923bec73e23a9662efc9c229c6a0054167ff0c57e16840df040f15088dc2f81fe391c3923bec73e23a9662efc9c229c6a00557fc7f505b2f371ae2175ee4913f4499e1f2633a7b5936321eed1cdaeb6115181d2602060405160018152a180f35b90919297602080611a94879f9793600194601f199082030186528c51613858565b9a01920192019092919b939b611997565b82516001600160401b031684526020938401939092019160010161196b565b611ad06103fd82614d1a565b51600755611851565b602483634e487b7160e01b81526011600452fd5b606460405162461bcd60e51b815260206004820152600460248201527f696e6974000000000000000000000000000000000000000000000000000000006044820152fd5b611b3a906138dd565b61026b57805f6117b9565b611b4f91506138dd565b5f80611688565b6040513d5f823e3d90fd5b80518051906001600160401b038211610bab57680100000000000000008211610bab578554828755808310611bcf575b50602001855f5260205f205f5b838110611bbb5750505050600160208192019401910190926115d9565b600190602084519401938184015501611b9e565b865f5260205f20908382015b8183018110611beb575050611b91565b5f8155600101611bdb565b7f0175b7a638427703f0dbe7bb9bbf987a2551717b34e79f33b5b1008d1fa01db9908382015b8183018110611c2c5750506115ab565b80545f825580611c40575b50600101611c1c565b815f5260205f2090815b8183018110611c5a575050611c37565b5f8155600101611c4a565b915f925f5b8184038110611ca45750505060021c7fdf6966c971051c3d54ec59162606531493a51404a002842f56009d7e5cf4a8c701555f8080611525565b9091936020611cd86001926001600160401b03885116908560031b60031b916001600160401b03809116831b921b19161790565b9501929101611c6a565b5f805b60048110611d1a57507fdf6966c971051c3d54ec59162606531493a51404a002842f56009d7e5cf4a8c782015560010161150d565b84519094916001916020916001600160401b03600689901b81811b199092169216901b1792019401611ce5565b60188360031b1680611dbf575b506003830160021c7fdf6966c971051c3d54ec59162606531493a51404a002842f56009d7e5cf4a8c7015b6003820160021c7fdf6966c971051c3d54ec59162606531493a51404a002842f56009d7e5cf4a8c7018110611db45750611502565b5f8155600101611d7f565b7fdf6966c971051c3d54ec59162606531493a51404a002842f56009d7e5cf4a8c66003850160021c01908154905f199060200360031b1c1690555f611d54565b68ffffffffffffffffff19831668010000000000000001177ff0c57e16840df040f15088dc2f81fe391c3923bec73e23a9662efc9c229c6a00556114a5565b7ff92ee8a9000000000000000000000000000000000000000000000000000000005f5260045ffd5b9050155f611463565b303b15915061145b565b5060ff8360401c1615611447565b83356001600160401b0381116107c057366043828560043501010112156107c0576024818460043501010135611ebc81613963565b91611eca6040519384613942565b818352602083013660448460051b848960043501010101116107c05760448287600435010101905b60448460051b8489600435010101018210611f1a5750505090825250602093840193016113f6565b81356001600160401b0381116107c057602091611f44839260443691888d60043501010101613a54565b815201910190611ef2565b8135906001600160401b0382116107c05760208091611f7b602494853691898d60043501010101613b5a565b81520192019190506112db565b602080602493611f9786613b75565b815201930192915061120c565b81356001600160401b0381116107c05736604382878a6004350101010112156107c05760248186896004350101010135611fdd81613963565b91611feb6040519384613942565b81835260208301903660448b838b8760051b926004350101010101116107c057604481898c60043501010101915b60448b838b8760051b926004350101010101831061204457505050908252506020918201910161115d565b6020809161205185613811565b815201920191612019565b60208060249261206b85613811565b81520192019190506110aa565b6080843603126107c0576040519161208f836138c2565b61209885613811565b83526002602086013510156107c0576020858101359084015260408501356001600160a01b03811690036107c05760206080916024946040880135604082015260606120e5818a01613aff565b908201528152019401939150610ee1565b346107c0575f3660031901126107c0576040517fb45090f90000000000000000000000000000000000000000000000000000000081523060048201526020816024816001600160a01b037f0000000000000000000000000000000000000000000000000000000000000000165afa8015611b56575f9061079557602090604051908152f35b346107c0575f3660031901126107c05760206040516509184e72a0008152f35b346107c05760403660031901126107c05760043560243590600b548110156107c0577f0175b7a638427703f0dbe7bb9bbf987a2551717b34e79f33b5b1008d1fa01db9019081548110156107c0576020915f52815f200154604051908152f35b346107c0575f3660031901126107c05760206040516709b6e64a8ec600008152f35b346107c0575f3660031901126107c0576040516329ae7ec560e11b81523060048201525f816024816001600160a01b037f0000000000000000000000000000000000000000000000000000000000000000165afa8015611b565761029e915f91612297575b50604051918291602083526020830190613a72565b6122b391503d805f833e6122ab8183613942565b810190613cd4565b82612282565b346107c0575f3660031901126107c05760206040517f00000000000000000000000000000000000000000000000000000000000000008152f35b346107c0575f3660031901126107c0576001600160a01b036040517f67e0e0760000000000000000000000000000000000000000000000000000000081523060048201525f81602481857f0000000000000000000000000000000000000000000000000000000000000000165afa8015611b56575f915f935f915f9361240b575b5061238a60405194608086526080860190613aa5565b6020858203818701528080885193848152019701925f905b8382106123cf57878061029e896123c18d8b8582036040870152613a72565b908382036060850152613a72565b909192939783606060019260408c5180516123e981613ae1565b83528085015187168584015201511515604082015201990194939201906123a2565b9450925050503d805f843e6124208184613942565b8201906080838303126107c0578251926001600160401b03938481116107c0578361244c91830161461c565b90602093848201518681116107c057820181601f820112156107c05780519061247482613963565b966124826040519889613942565b828852808801816060809502840101928584116107c0578201905b8382106124e357505050505060408201518681116107c057816124c1918401613c73565b9560608301519081116107c0576124d89201613c73565b909293909185612374565b84828703126107c057604051906124f9826138a7565b825160028110156107c057825283830151908a821682036107c057828592838995015261252860408601613c66565b604082015281520191019061249d565b346107c0575f3660031901126107c05760405163ca4f280360e01b81523060048201525f816024816001600160a01b037f0000000000000000000000000000000000000000000000000000000000000000165afa8015611b565761029e915f916125b2575b50604051918291602083526020830190613aa5565b6125c691503d805f833e610b928183613942565b8261259d565b346107c05760403660031901126107c05761263c60206125ea6137e5565b6040517fbeabacc80000000000000000000000000000000000000000000000000000000081523360048201526001600160a01b0390911660248083019190915235604482015291829081906064820190565b03815f6001600160a01b037f0000000000000000000000000000000000000000000000000000000000000000165af18015611b5657612681575b602060405160018152f35b6020813d6020116126b0575b8161269a60209383613942565b810103126107c0576126ab90613c66565b612676565b3d915061268d565b346107c05760403660031901126107c0576004356001600160401b0381116107c0576126e890369060040161397a565b60243560028110156107c0576126fd81613ae1565b61286c5760045b61270c614a87565b9080600314612818578060041461279457806001146127545760021461274057634e487b7160e01b5f52605160045260245ffd5b60209161274c91615763565b604051908152f35b50670de0b6b3a7640000908181029181830414901517156127805760209161277b91614a70565b61274c565b634e487b7160e01b5f52601160045260245ffd5b505f9190670de0b6b3a76400005b81518410156127de576127d66001916127d06127be8787613ef4565b516127c98887613ef4565b51906152c3565b9061534e565b9301926127a2565b9250505080156127f05760209061274c565b7f26543689000000000000000000000000000000000000000000000000000000005f5260045ffd5b505f9190670de0b6b3a76400005b81518410156127de57670de0b6b3a764000061286360019261285d61284b8888613ef4565b516128568988613ef4565b5190615541565b90614776565b04930192612826565b6003612704565b346107c0575f3660031901126107c0576040516004545f8261289483613c2e565b91828252602093600190856001821691825f146129315750506001146128d6575b506128c292500383613942565b61029e6040519282849384528301906137c1565b84915060045f527f8a35acfbc15ff81a39ae7d344fd709f28e8600b4aa8c65c6b64bfe7fe36bd19b905f915b8583106129195750506128c29350820101856128b5565b80548389018501528794508693909201918101612902565b60ff1916858201526128c295151560051b85010192508791506128b59050565b346107c0575f3660031901126107c05760206001600160401b03600d5460401c16604051908152f35b346107c0575f3660031901126107c05760206040516001600160a01b037f0000000000000000000000000000000000000000000000000000000000000000168152f35b346107c0575f3660031901126107c057612a566129f97f0000000000000000000000000000000000000000000000000000000000000000615370565b61029e612a257f0000000000000000000000000000000000000000000000000000000000000000615483565b612a6460405191612a358361390b565b5f8352604051958695600f60f81b875260e0602088015260e08701906137c1565b9085820360408701526137c1565b904660608501523060808501525f60a085015283820360c0850152613a72565b346107c0575f3660031901126107c05760405163f29486a160e01b81523060048201526101a09081816024816001600160a01b037f0000000000000000000000000000000000000000000000000000000000000000165afa908115611b56576040925f92612b04575b505060608282015191015182519182526020820152f35b612b239250803d10612b2a575b612b1b8183613942565b810190613cf9565b8280612aed565b503d612b11565b346107c05760203660031901126107c0576001600160a01b03612b526137e5565b165f526002602052602060405f2054604051908152f35b346107c0575f3660031901126107c05760206001600160a01b0360095416604051908152f35b346107c0576003196020368201126107c057600435906001600160401b03908183116107c05760e09083360301126107c0576040519160e0830183811083821117610bab57604052806004013560028110156107c05783526024810135602084015260448101358281116107c057612c0d906004369184010161397a565b60408401526064810135606084015260848101356080840152612c3260a48201613811565b60a084015260c48101359182116107c05701366023820112156107c057602091612c6961274c923690602460048201359101613a0f565b60c0820152612c766148e8565b6141e3565b346107c0576020806003193601126107c057604481612c986137e5565b6040517ff7888aec0000000000000000000000000000000000000000000000000000000081523060048201526001600160a01b03918216602482015292839182907f0000000000000000000000000000000000000000000000000000000000000000165afa908115611b56575f91612d14575b50604051908152f35b90508181813d8311612d3a575b612d2b8183613942565b810103126107c0575182612d0b565b503d612d21565b346107c0575f3660031901126107c05762c73cd160e51b5f5260045ffd5b346107c0575f3660031901126107c057602060405167016345785d8a00008152f35b346107c0575f3660031901126107c057335f908152600260205260409020805460018101909155005b346107c05760207f8c5be1e5ebec7d5bd14f71427d1e84f3dd0314c0f7b2291e5b200ac8c7c3b925612ddb366139da565b92919390612de76148e8565b6001600160a01b03809160405195865216941692a3005b346107c0575f3660031901126107c0576040516005545f82612e1f83613c2e565b91828252602093600190856001821691825f14612931575050600114612e4c57506128c292500383613942565b84915060055f527f036b6384b5eca791c62761152d0c79bb0604c104a5fb6f4eb0703f3154bb3db0905f915b858310612e8f5750506128c29350820101856128b5565b80548389018501528794508693909201918101612e78565b346107c05760403660031901126107c0576001600160401b036004358181116107c057612ed8903690600401613a54565b6024359182116107c057612f0061029e91612efa612f17943690600401613a54565b90613fa6565b6040929192519384936040855260408501906137c1565b9083820360208501526137c1565b346107c0575f3660031901126107c057602061274c614946565b346107c0575f3660031901126107c057602060405160128152f35b346107c0575f3660031901126107c05760206040517f6e71edae12b1b97f4d1f60370fef10105fa2faae0126114a169c64845d6126c98152f35b346107c0575f3660031901126107c05760206040516729a2241af62c00008152f35b346107c05760207fddf252ad1be2c89b69c2b068fc378daa952ba7f163c4a11628f55a4df523b3ef612ddb366139da565b346107c05760846020612ff9366139da565b6040517f15dacbea0000000000000000000000000000000000000000000000000000000081523360048201526001600160a01b0393841660248201529183166044830152606482015292839182905f907f0000000000000000000000000000000000000000000000000000000000000000165af18015611b565761268157602060405160018152f35b346107c0575f3660031901126107c057602061274c613f08565b346107c05760603660031901126107c0576004356001600160401b0381116107c0576130cc90369060040161397a565b6044359061313860243561310f8164ffffffffff613108428216826130ef613e02565b81602082015116804210156132ef575b50511690613e2a565b1694613ef4565b51927f00000000000000000000000000000000000000000000000000000000000000009161487a565b60019190828411156132e95760025b80600314613278578060041461320a57806001146131cb5760021461317a57634e487b7160e01b5f52605160045260245ffd5b80156131a35760209361274c936127d0926ec097ce7bc90715b34b9f0fffffffff0401906152c3565b7f0a0c22c7000000000000000000000000000000000000000000000000000000005f5260045ffd5b5080939250156131f6576127d061274c926020946ec097ce7bc90715b34b9f100000000004906152c3565b634e487b7160e01b5f52601260045260245ffd5b50670de0b6b3a764000093925f91815b613238575b50505082156127f0576127d061274c92602094906152c3565b909194670de0b6b3a76400005186101561327257908261326a81936127d06132608a86613ef4565b516127c98b613ed3565b96019261321a565b9461321f565b50670de0b6b3a764000093925f91815b6132a55750505082156127f0576127d061274c92602094906152c3565b909194670de0b6b3a764000051861015613272579082670de0b6b3a76400006132e0829461285d6132d68b87613ef4565b516128568c613ed3565b04960192613288565b82613147565b92508b6130ff565b346107c0575f3660031901126107c0576040516133138161388b565b60608152606060208201525f60408201525f60608201525f60808201525f60a0820152606060c0820152606060e08201525f6101008201525f6101208201526001600160a01b037f0000000000000000000000000000000000000000000000000000000000000000166040516329ae7ec560e11b81523060048201525f81602481855afa908115611b56575f916135d8575b5082526040517f7e361bde0000000000000000000000000000000000000000000000000000000081523060048201525f81602481855afa908115611b56575f91613573575b506024916101a09160208501526133ff613f08565b60408501526040519283809263f29486a160e01b82523060048301525afa8015611b5657610120915f91613552575b5060e081015115156060840152610100810151151560808401520151151560a082015261345c6007546147a2565b60c082015261346c6008546147a2565b60e082015264ffffffffff6020613481613e02565b8281511661010085015201511661012082015260405180916020825264ffffffffff6101206135386134c184516101406020880152610160870190613825565b6135226134e0602087015192601f1993848a83030160408b0152613825565b604087015160608901526060870151151560808901526080870151151560a089015260a0870151151560c089015260c0870151838983030160e08a0152613858565b9060e08601519087830301610100880152613858565b928261010082015116828601520151166101408301520390f35b61356d91506101a03d6101a011612b2a57612b1b8183613942565b8361342e565b90503d805f833e6135848183613942565b8101916040828403126107c0578151916001600160401b03928381116107c057846135b0918301613c73565b9060208101519384116107c0576024946101a0946135ce9201613c73565b90509150916133ea565b6135ec91503d805f833e6122ab8183613942565b836133a5565b346107c0575f3660031901126107c0576020601054604051908152f35b346107c05760403660031901126107c05761263c602061362d6137e5565b60405163e1f21c6760e01b81523360048201526001600160a01b0390911660248083019190915235604482015291829081906064820190565b346107c0575f3660031901126107c0576040516003545f8261368783613c2e565b91828252602093600190856001821691825f146129315750506001146136b457506128c292500383613942565b84915060035f527fc2575a0e9e593c00f959f8c92f12db2869c3395a3b0502d05e2516446f71f85b905f915b8583106136f75750506128c29350820101856128b5565b805483890185015287945086939092019181016136e0565b346107c0575f3660031901126107c05760206305a39a806137507f000000000000000000000000000000000000000000000000000000000000000042613c21565b10604051908152f35b346107c05760203660031901126107c057600435907fffffffff0000000000000000000000000000000000000000000000000000000082168092036107c0577f01ffc9a700000000000000000000000000000000000000000000000000000000602092148152f35b805180835260209291819084018484015e5f828201840152601f01601f1916010190565b600435906001600160a01b03821682036107c057565b602435906001600160a01b03821682036107c057565b35906001600160a01b03821682036107c057565b9081518082526020808093019301915f5b828110613844575050505090565b835185529381019392810192600101613836565b9081518082526020808093019301915f5b828110613877575050505090565b835185529381019392810192600101613869565b61014081019081106001600160401b03821117610bab57604052565b606081019081106001600160401b03821117610bab57604052565b608081019081106001600160401b03821117610bab57604052565b6001600160401b038111610bab57604052565b604081019081106001600160401b03821117610bab57604052565b602081019081106001600160401b03821117610bab57604052565b61012081019081106001600160401b03821117610bab57604052565b90601f801991011681019081106001600160401b03821117610bab57604052565b6001600160401b038111610bab5760051b60200190565b9080601f830112156107c057602090823561399481613963565b936139a26040519586613942565b81855260208086019260051b8201019283116107c057602001905b8282106139cb575050505090565b813581529083019083016139bd565b60609060031901126107c0576001600160a01b039060043582811681036107c0579160243590811681036107c0579060443590565b9291926001600160401b038211610bab5760405191613a38601f8201601f191660200184613942565b8294818452818301116107c0578281602093845f960137010152565b9080601f830112156107c057816020613a6f93359101613a0f565b90565b9081518082526020808093019301915f5b828110613a91575050505090565b835185529381019392810192600101613a83565b9081518082526020808093019301915f5b828110613ac4575050505090565b83516001600160a01b031685529381019392810192600101613ab6565b60021115613aeb57565b634e487b7160e01b5f52602160045260245ffd5b359081151582036107c057565b9291613b1782613963565b91613b256040519384613942565b829481845260208094019160051b81019283116107c057905b828210613b4b5750505050565b81358152908301908301613b3e565b9080601f830112156107c057816020613a6f93359101613b0c565b35906001600160401b03821682036107c057565b90808251908181526020809101926020808460051b8301019501935f915b848310613bb75750505050505090565b9091929394958480613bd5600193601f198682030187528a51613858565b9801930193019194939290613ba7565b9081518082526020808093019301915f5b828110613c04575050505090565b83516001600160401b031685529381019392810192600101613bf6565b9190820391821161278057565b90600182811c92168015613c5c575b6020831014613c4857565b634e487b7160e01b5f52602260045260245ffd5b91607f1691613c3d565b519081151582036107c057565b9080601f830112156107c057815190602091613c8e81613963565b93613c9c6040519586613942565b81855260208086019260051b8201019283116107c057602001905b828210613cc5575050505090565b81518152908301908301613cb7565b906020828203126107c05781516001600160401b0381116107c057613a6f9201613c73565b809103906101a082126107c057608060405192613d158461388b565b126107c057604051613d26816138c2565b613d2f82613c66565b8152613d3d60208301613c66565b6020820152613d4e60408301613c66565b6040820152613d5f60608301613c66565b606082015282526080810151602083015260a0810151604083015260c0810151606083015260e081015164ffffffffff811681036107c0576080830152610100908181015163ffffffff811681036107c057613dfb916101809160a086015261012093613dcd858301613c66565b60c0870152613ddf6101408301613c66565b60e0870152613df16101608301613c66565b9086015201613c66565b9082015290565b60405190613e0f826138f0565b816020600a5464ffffffffff90818116845260281c16910152565b64ffffffffff918216908216039190821161278057565b805115613e4e5760200190565b634e487b7160e01b5f52603260045260245ffd5b805160011015613e4e5760400190565b805160021015613e4e5760600190565b805160031015613e4e5760800190565b805160041015613e4e5760a00190565b805160051015613e4e5760c00190565b805160061015613e4e5760e00190565b805160071015613e4e576101000190565b670de0b6b3a764000051811015613e4e5760051b670de0b6b3a76400200190565b8051821015613e4e5760209160051b010190565b6040517fe4dc2aa40000000000000000000000000000000000000000000000000000000081523060048201526020816024816001600160a01b037f0000000000000000000000000000000000000000000000000000000000000000165afa908115611b56575f91613f77575090565b90506020813d602011613f9e575b81613f9260209383613942565b810103126107c0575190565b3d9150613f85565b905f9060068054925b838110613fdd575050505050604051613fc78161390b565b5f815290604051613fd78161390b565b5f815290565b815f52807ff652222313e28459528d920b65115c16c04f3efc82aaedc97be59f3f377c0d3f0180549061400f82613963565b9160409061401f82519485613942565b808452602092838501905f52835f205f915b838310614133575050505061404583613e41565b51815161406c84828180820195805191829101875e81015f83820152038084520182613942565b51902088825161409685828180820195805191829101875e81015f83820152038084520182613942565b5190201491826140ce575b50506140b05750600101613faf565b959450505050506140ca6140c383613e72565b5192613e82565b5190565b9091506140da83613e62565b51825161410183828180820195805191829101875e81015f83820152038084520182613942565b51902091516141288282019282895180838c01875e81015f83820152038084520182613942565b519020145f806140a1565b8451825491905f61414384613c2e565b8083526001948a86821691825f146141c6575050600114614180575b5091816141728a93600196950382613942565b815201920192019190614031565b9050989e9d9c9b9a9998845f52885f20905f915b8183106141b357509e9f9d9e509b9c9a9b999a9899810188018161415f565b80548484018c0152918a01918501614194565b60ff19168582015291151560051b8401909101915082905061415f565b6141eb613e02565b7f00000000000000000000000000000000000000000000000000000000000000009061423464ffffffffff91828042169181602082015116804210156145e25750511690613e2a565b16906060830180519260049384811080806145d3575b81156145b6575b501561459557508151926080860151905f6020604051614270816138f0565b82815201528185878381841061456357505050506003199485810190811161455057918581019081116145505794810190811161451657906142db6142f19392956142ea6142e1856142c36008546147a2565b956142db6142d38c830189613ef4565b519188613ef4565b516155de565b97820184613ef4565b5192613ef4565b91826020604051614301816138f0565b838152015291935b805161431481613ae1565b61431d81613ae1565b6144555760208101805193604083019661433a8851865190613ef4565b5194600e54968796614356670de0b6b3a7640000998a92614776565b0410614447578851905161436991613ef4565b5161437c60808a51960195865190613ef4565b5193518761438983614742565b048111614420579061439e6143a49282614a7a565b90615763565b918681029080820488149015171561440d576143ef936143d76143f59796946143d18a956143e495614a70565b906152c3565b8381810391100290614776565b049651905190613ef4565b51614776565b048211614400575090565b6327e92f0f60e01b5f525ffd5b601188634e487b7160e01b5f525260245ffd5b887f340a4533000000000000000000000000000000000000000000000000000000005f525ffd5b876327e92f0f60e01b5f525ffd5b906020829593950191825193604082019661447860808951940193845190613ef4565b5194600e54968796614494670de0b6b3a7640000998a92614776565b0410614447576144b66144aa8a51875190613ef4565b51948a51905190613ef4565b519051876144c383614742565b04811161452957916144e08261439e6144e696956143d195613c21565b92615763565b670de0b6b3a763ffff19810191908211614516579161450c6143ef926143f5959461534e565b9651905190613ef4565b601186634e487b7160e01b5f525260245ffd5b887f64590b9f000000000000000000000000000000000000000000000000000000005f525ffd5b601187634e487b7160e01b5f525260245ffd5b9193969594509196501161458d575b6142db6142f19394956142ea6142e1856142c36007546147a2565b859350614572565b926145a581836145b0949661487a565b93608087015161487a565b93614309565b905015806145c5575b5f614251565b5084608087015110156145bf565b9050856080880151109061424a565b92505f6130ff565b906145f482613963565b6146016040519182613942565b8281528092614612601f1991613963565b0190602036910137565b9080601f830112156107c05781519060209161463781613963565b936146456040519586613942565b81855260208086019260051b8201019283116107c057602001905b82821061466e575050505090565b81516001600160a01b03811681036107c0578152908301908301614660565b906020828203126107c05781516001600160401b0381116107c057613a6f920161461c565b908082519081815260208091019281808460051b8301019501935f915b8483106146df5750505050505090565b90919280949596601f198382030184528751908280835192838152019201905f905b80821061472057505050908060019298019301930191949392906146cf565b919380600192946001600160a01b038751168152019401920187939291614701565b90670429d069189e00009182810292818404149015171561278057565b906127109182810292818404149015171561278057565b8181029291811591840414171561278057565b90633b9aca009182810292818405149015171561278057565b61486d604051916147b283613926565b600883526101003660208501376147cb8160e01d614789565b6147d484613e41565b5260036147e58260c01d820b614789565b6147ee85613e62565b526147fd8260a01d820b614789565b61480685613e72565b526148158260801d820b614789565b61481e85613e82565b5261482d8260601d820b614789565b61483685613e92565b526148458260401d820b614789565b61484e85613ea2565b5261485d8260201d820b614789565b61486685613eb2565b520b614789565b61487682613ec2565b5290565b8083600482106148bf57506003199180830191508111612780579260085491810190811161278057613a6f936142ea6148b66142db93946147a2565b93820184613ef4565b613a6f9492506004106148df575b6142db906142ea6148b66007546147a2565b600491506148cd565b6001600160a01b037f000000000000000000000000000000000000000000000000000000000000000016330361491a57565b7f089676d5000000000000000000000000000000000000000000000000000000005f523360045260245ffd5b6001600160a01b037f000000000000000000000000000000000000000000000000000000000000000016301480614a47575b156149a1577f000000000000000000000000000000000000000000000000000000000000000090565b60405160208101907f8b73c3c69bb8fe3d512ecc4cf759cc79239f7b179b0ffacaa9a75d522b39400f82527f000000000000000000000000000000000000000000000000000000000000000060408201527f000000000000000000000000000000000000000000000000000000000000000060608201524660808201523060a082015260a0815260c081018181106001600160401b03821117610bab5760405251902090565b507f00000000000000000000000000000000000000000000000000000000000000004614614978565b81156131f6570490565b9190820180921161278057565b7f0000000000000000000000000000000000000000000000000000000000000000614ab1816145ea565b9064ffffffffff80421681600a54818160281c1680421015614c6f575b5016900316614ade6007546147a2565b9180600482119384614c66575b614b0a84614af883613e41565b51614b038585613ef4565b51906155de565b614b1387613e41565b52614b2f84614b2183613e62565b51614b036001860185613ef4565b614b3887613e62565b526002831115614c5e57614b5d84614b4f83613e72565b51614b036002860185613ef4565b614b6687613e72565b526003831115614c5e57614b8d91614b03826003614b848895613e82565b51930190613ef4565b614b9685613e82565b5260048114614c5857614baa6008546147a2565b9215614c5857614bcc82614bbd85613e41565b51614b03600319850187613ef4565b614bd585613e92565b526005811115614c5857614bfb82614bec85613e62565b51614b03600219850187613ef4565b614c0485613ea2565b526006811115614c5857614c2a82614c1b85613e72565b51614b03600119850187613ef4565b614c3385613eb2565b526007811115614c5857614b0383614c4d61486d95613e82565b51925f190190613ef4565b50505090565b505050505090565b60049150614aeb565b92505f614ace565b9081518082526020808093019301915f5b828110614c96575050505090565b835185529381019392810192600101614c88565b80156131f6576ec097ce7bc90715b34b9f10000000000590565b81156131f6570590565b15614cd557565b60405162461bcd60e51b815260206004820152601260248201527f4f766572666c6f772f556e646572666c6f7700000000000000000000000000006044820152606490fd5b906060915f805f9083516008906008811015614ddc575b505015614dc5575b614d44818451613c21565b614d4d57505050565b919360e0939193915f5b8651851015614db15760019063ffffffff633b9aca00614d77888b613ef4565b5105637fffffff81131580614da2575b614d9090614cce565b16851b1793601f190194019392614d57565b50637fffffff19811215614d87565b935093909450614dc2915084613ef4565b52565b9350614dd660018560031c016145ea565b93614d39565b809197508392505b87811015615104575b50146150fb5760018160031c015b614e04816145ea565b955f5b83811015614d315781633b9aca009182614e21828a613ef4565b51056101405263ffffffff60019380614e3c8685018c613ef4565b51056101205280614e50600285018c613ef4565b51056101005280614e64600385018c613ef4565b510560e05280614e77600485018c613ef4565b510560c05280614e8a600585018c613ef4565b510560a05280614e9d600685018c613ef4565b5105608052614eaf600784018b613ef4565b5105637fffffff610140511315806150e9575b806150d8575b806150c6575b806150b5575b806150a3575b80615093575b80615082575b80615072575b80615061575b80615051575b80615040575b80615030575b8061501f575b80615011575b80615002575b614f1f90614cce565b1667ffffffff0000000060805160201b166bffffffff000000000000000060a05160401b166fffffffff00000000000000000000000060c05160601b1673ffffffff0000000000000000000000000000000060e05160801b1677ffffffff00000000000000000000000000000000000000006101005160a01b167bffffffff0000000000000000000000000000000000000000000000006101205160c01b167fffffffff000000000000000000000000000000000000000000000000000000006101405160e01b1617171717171717614ff8888c613ef4565b5201940193614e07565b50637fffffff19811215614f16565b50637fffffff811315614f10565b50637fffffff196080511215614f0a565b50637fffffff6080511315614f04565b50637fffffff1960a0511215614efe565b50637fffffff60a0511315614ef8565b50637fffffff1960c0511215614ef2565b50637fffffff60c0511315614eec565b50637fffffff1960e0511215614ee6565b50637fffffff60e0511315614ee0565b50637fffffff19610100511215614eda565b50637fffffff610100511315614ed4565b50637fffffff19610120511215614ece565b50637fffffff610120511315614ec8565b50637fffffff19610140511215614ec2565b8060031c614dfb565b909150600781161561511b578291905f1901614de4565b915081905f614ded565b90815160019060011c604080519061513c826138a7565b600282525f5b8181106152b2575050809460405161515981613926565b60088152610100908136602083013761517184613e41565b5261517b83613e41565b505f855b615248575b506040519061519282613926565b600882523660208301376151a583613e62565b526151af82613e62565b50600319830190838211612780575f5b8281106151ce57505050505050565b60048082019081831161523557509061521061520a87846151f08b9688613ef4565b51615204866151fe8c613e62565b51613ef4565b52614a7a565b84613ef4565b5161522e61521d87613e62565b516152288785614a7a565b90613ef4565b52016151bf565b601190634e487b7160e01b5f525260245ffd5b6004808210156152ac5761525c8285613ef4565b5161526a836151fe88613e41565b5261527e6152788784614a7a565b85613ef4565b519061528986613e41565b51818401918285116152355750916152a48994928594613ef4565b52019061517f565b50615184565b806060602080938601015201615142565b90670de0b6b3a7640000908181036152da57505090565b671bc16d674ec8000081036152f557505080613a6f9161534e565b673782dace9d900000810361531957505061531381613a6f9261534e565b8061534e565b6153239192615794565b90600161532f8361475f565b915f1983010401901515026001810180911161278057613a6f91614a7a565b9061535891614776565b6001670de0b6b3a76400005f19830104019015150290565b60ff81146153c45760ff811690601f821161539c5760405191615392836138f0565b8252602082015290565b7fb3512b0c000000000000000000000000000000000000000000000000000000005f5260045ffd5b506040515f815f54916153d683613c2e565b8083529260209060019081811690811561545f5750600114615401575b5050613a6f92500382613942565b9150925f80527f290decd9548b62a8d60345a988386fc84ba6bc95484008f6362f93160ef3e563935f925b8284106154475750613a6f9450505081016020015f806153f3565b8554878501830152948501948694509281019261542c565b91505060209250613a6f94915060ff191682840152151560051b8201015f806153f3565b60ff81146154a55760ff811690601f821161539c5760405191615392836138f0565b506040515f816001916001546154ba81613c2e565b808452936020916001811690811561545f57506001146154e2575050613a6f92500382613942565b91509260015f527fb10e2d527612073b26eecdfd717e6a320cf44b4afac2b0732d9fcbe2b7fa0cf6935f925b8284106155295750613a6f9450505081016020015f806153f3565b8554878501830152948501948694509281019261550e565b670de0b6b3a7640000918083036155585750905090565b8290671bc16d674ec8000081036155795750508061557591614776565b0490565b673782dace9d900000810361559d57506155968261557593614776565b0480614776565b90506155a891615794565b6155b18161475f565b60015f19938483010401901515029060018201808311612780578110156155d9575050505f90565b030190565b90670de0b6b3a76400009081810290808205831481151715612780575f121561561557613a6f9361560e91614776565b0490614a7a565b600160ff1b811461278057613a6f9361562f915f03614776565b0490613c21565b91907f7fffffffffffffffffffffffffffffff5d576e7357a4501ddfe92f46681b20a084116156ad579160209360809260ff5f9560405194855216868401526040830152606082015282805260015afa15611b56575f516001600160a01b038116156156a357905f905f90565b505f906001905f90565b5050505f9160039190565b6004811015613aeb57806156ca575050565b600181036156fa577ff645eedf000000000000000000000000000000000000000000000000000000005f5260045ffd5b6002810361572e57507ffce698f7000000000000000000000000000000000000000000000000000000005f5260045260245ffd5b6003146157385750565b7fd78bce0c000000000000000000000000000000000000000000000000000000005f5260045260245ffd5b9080156131a357670de0b6b3a764000091828102928184041490151715612780576001905f19830104019015150290565b908015615f8b578115615f85578160ff1c615f7757770bce5086492111aea88f4bb1ca6bcf584181ea8059f76532811015615f4f5781670c7d713b49da00001280615f3e575b15615bf157670de0b6b3a7640000916ec097ce7bc90715b34b9f10000000009061581d908402828101906ec097ce7bc90715b34b9f0fffffffff19018302614cc4565b9080828002059181838202058284820205838582020591848684020593858786020595808888020597880205600f900596600d900595600b900594600990059360079005926005900591600390050101010101010160011b918082818507020592050201670de0b6b3a7640000905b05680238fd42c5cf03ffff198181131580615bde575b15615bb657819082121580615ba3575b15615b7b575f915f8112615b6c575b506064906806f05b59d3b20000008112615b1f576806f05b59d3b1ffffff190168056bc75e2d6310000082770195e54c5dd42177f53a27172fa9ec630262827000000000925b02819068ad78ebc5ac62000000811215615afc575b6856bc75e2d631000000811215615ad8575b682b5e3af16b18800000811215615ab6575b6815af1d78b58c400000811215615a94575b680ad78ebc5ac6200000811215615a73575b82811215615a52575b6802b5e3af16b1880000811215615a31575b68015af1d78b58c40000811215615a10575b60028382800205056003848383020505600485848302050585600581868402050560068287830205056007838883020505906008848984020505926009858a8602050595600a868b8902050597600b878c8b02050599600c888d8d0205059b01010101010101010101010102050205905f14613a6f57613a6f90614caa565b6806f5f1775788937937839168015af1d78b58c3ffff190192020590615991565b6808f00f760a4b2db55d83916802b5e3af16b187ffff19019202059061597f565b680ebc5fb41746121110839168056bc75e2d630fffff19019202059061596d565b68280e60114edb805d038391680ad78ebc5ac61fffff190192020590615964565b690127fa27722cc06cc5e283916815af1d78b58c3fffff190192020590615952565b693f1fce3da636ea5cf8508391682b5e3af16b187fffff190192020590615940565b6b02df0ab5a80a22c61ab5a70083916856bc75e2d630ffffff19019202059061592e565b6e01855144814a7ff805980ff0084000915068ad78ebc5ac61ffffff190161591c565b6803782dace9d90000008112615b59576803782dace9d8ffffff190168056bc75e2d63100000826b1425982cf597cd205cef738092615907565b68056bc75e2d6310000082600192615907565b600192505f03905060646158c1565b7fd4794efd000000000000000000000000000000000000000000000000000000005f5260045ffd5b5068070c1cc73b00c800008213156158b2565b7fa2f9f7e3000000000000000000000000000000000000000000000000000000005f5260045ffd5b5068070c1cc73b00c800008213156158a2565b81670de0b6b3a7640000925f91848112615f28575b506064905f7e1600ef3172e58d2e933ec884fde10064c63b5372d805e203c0000000000000821215615efd575b73011798004d755d3c8bc8e03204cf44619e000000821215615edc575b820290808302906e01855144814a7ff805980ff00840009081831215615eb9575b50506b02df0ab5a80a22c61ab5a70080821215615e99575b50693f1fce3da636ea5cf85080821215615e79575b50690127fa27722cc06cc5e280821215615e59575b5068280e60114edb805d0380821215615e39575b50680ebc5fb4174612111080821215615e22575b506808f00f760a4b2db55d80821215615e02575b506806f5f177578893793780821215615de2575b506806248f33704b28660380821215615dc3575b506805c548670b9510e7ac80821215615da4575b50615d5168056bc75e2d6310000091828082019168056bc75e2d630fffff190102614cc4565b9080828002059181838202058284820205916003600560076009600b888a89020598808b8b02059a8b0205059805960594059205010101010160011b0105905f14615d9f575f035b0261588c565b615d99565b68056bc75e2d631000006756bc75e2d63100009202059101905f615d2b565b68056bc75e2d6310000067ad78ebc5ac6200009202059101905f615d17565b68056bc75e2d6310000068015af1d78b58c400009202059101905f615d03565b68056bc75e2d631000006802b5e3af16b18800009202059101905f615cef565b68056bc75e2d63100000809202059101905f615cdb565b68056bc75e2d63100000680ad78ebc5ac62000009202059101905f615cc7565b68056bc75e2d631000006815af1d78b58c4000009202059101905f615cb3565b68056bc75e2d63100000682b5e3af16b188000009202059101905f615c9e565b68056bc75e2d631000006856bc75e2d6310000009202059101905f615c89565b68ad78ebc5ac62000000925069021e19e0c9bab240000002059101905f80615c71565b906b1425982cf597cd205cef73806803782dace9d900000091059101615c50565b50770195e54c5dd42177f53a27172fa9ec63026282700000000090056806f05b59d3b2000000615c33565b9050615f349150614caa565b6001906064615c06565b50670f43fc2c04ee000082126157da565b7fd8317311000000000000000000000000000000000000000000000000000000005f5260045ffd5b6211380f60e51b5f5260045ffd5b50505f90565b5050670de0b6b3a76400009056fea26469706673582212207851227d935e32ef24a4a09bdb7d5075c9c27488a9f47681dedbdb66b78fa18064736f6c634300081a0033",
  "linkReferences": {},
  "deployedLinkReferences": {}
}