{
  "_format": "hh-sol-artifact-1",
  "contractName": "UpdateWeightRunner",
  "sourceName": "contracts/UpdateWeightRunner.sol",
  "abi": [
    {
      "inputs": [
        {
          "internalType": "address",
          "name": "_quantammAdmin",
          "type": "address"
        },
        {
          "internalType": "address",
          "name": "_ethOracle",
          "type": "address"
        }
      ],
      "stateMutability": "nonpayable",
      "type": "constructor"
    },
    {
      "inputs": [
        {
          "internalType": "int256",
          "name": "x",
          "type": "int256"
        }
      ],
      "name": "PRBMathSD59x18__FromIntOverflow",
      "type": "error"
    },
    {
      "inputs": [
        {
          "internalType": "int256",
          "name": "x",
          "type": "int256"
        }
      ],
      "name": "PRBMathSD59x18__FromIntUnderflow",
      "type": "error"
    },
    {
      "inputs": [],
      "name": "PRBMathSD59x18__MulInputTooSmall",
      "type": "error"
    },
    {
      "inputs": [
        {
          "internalType": "uint256",
          "name": "rAbs",
          "type": "uint256"
        }
      ],
      "name": "PRBMathSD59x18__MulOverflow",
      "type": "error"
    },
    {
      "inputs": [
        {
          "internalType": "uint256",
          "name": "prod1",
          "type": "uint256"
        }
      ],
      "name": "PRBMath__MulDivFixedPointOverflow",
      "type": "error"
    },
    {
      "anonymous": false,
      "inputs": [
        {
          "indexed": false,
          "internalType": "address",
          "name": "ethUsdOracle",
          "type": "address"
        }
      ],
      "name": "ETHUSDOracleSet",
      "type": "event"
    },
    {
      "anonymous": false,
      "inputs": [
        {
          "indexed": true,
          "internalType": "address",
          "name": "oracleAddress",
          "type": "address"
        }
      ],
      "name": "OracleAdded",
      "type": "event"
    },
    {
      "anonymous": false,
      "inputs": [
        {
          "indexed": true,
          "internalType": "address",
          "name": "oracleAddress",
          "type": "address"
        }
      ],
      "name": "OracleRemved",
      "type": "event"
    },
    {
      "anonymous": false,
      "inputs": [
        {
          "indexed": false,
          "internalType": "address",
          "name": "poolAddress",
          "type": "address"
        },
        {
          "indexed": false,
          "internalType": "uint40",
          "name": "time",
          "type": "uint40"
        }
      ],
      "name": "PoolLastRunSet",
      "type": "event"
    },
    {
      "anonymous": false,
      "inputs": [
        {
          "indexed": false,
          "internalType": "address",
          "name": "admin",
          "type": "address"
        },
        {
          "indexed": false,
          "internalType": "address",
          "name": "poolAddress",
          "type": "address"
        },
        {
          "indexed": false,
          "internalType": "address",
          "name": "ruleAddress",
          "type": "address"
        }
      ],
      "name": "PoolRuleSetAdminOverride",
      "type": "event"
    },
    {
      "anonymous": false,
      "inputs": [
        {
          "indexed": true,
          "internalType": "address",
          "name": "caller",
          "type": "address"
        },
        {
          "indexed": true,
          "internalType": "address",
          "name": "pool",
          "type": "address"
        },
        {
          "indexed": false,
          "internalType": "uint256",
          "name": "actions",
          "type": "uint256"
        }
      ],
      "name": "SetApprovedActionsForPool",
      "type": "event"
    },
    {
      "anonymous": false,
      "inputs": [
        {
          "indexed": true,
          "internalType": "address",
          "name": "caller",
          "type": "address"
        },
        {
          "indexed": true,
          "internalType": "address",
          "name": "pool",
          "type": "address"
        },
        {
          "indexed": false,
          "internalType": "int256[]",
          "name": "newMovingAverages",
          "type": "int256[]"
        },
        {
          "indexed": false,
          "internalType": "int256[]",
          "name": "newParameters",
          "type": "int256[]"
        },
        {
          "indexed": false,
          "internalType": "uint256",
          "name": "numberOfAssets",
          "type": "uint256"
        }
      ],
      "name": "SetIntermediateValuesManually",
      "type": "event"
    },
    {
      "anonymous": false,
      "inputs": [
        {
          "indexed": true,
          "internalType": "address",
          "name": "caller",
          "type": "address"
        },
        {
          "indexed": true,
          "internalType": "address",
          "name": "pool",
          "type": "address"
        },
        {
          "indexed": false,
          "internalType": "int256[]",
          "name": "weights",
          "type": "int256[]"
        },
        {
          "indexed": false,
          "internalType": "uint40",
          "name": "lastInterpolationTimePossible",
          "type": "uint40"
        },
        {
          "indexed": false,
          "internalType": "uint40",
          "name": "lastUpdateTime",
          "type": "uint40"
        }
      ],
      "name": "SetWeightManual",
      "type": "event"
    },
    {
      "anonymous": false,
      "inputs": [
        {
          "indexed": false,
          "internalType": "uint256",
          "name": "oldSwapFee",
          "type": "uint256"
        },
        {
          "indexed": false,
          "internalType": "uint256",
          "name": "newSwapFee",
          "type": "uint256"
        }
      ],
      "name": "SwapFeeTakeSet",
      "type": "event"
    },
    {
      "anonymous": false,
      "inputs": [
        {
          "indexed": true,
          "internalType": "address",
          "name": "caller",
          "type": "address"
        },
        {
          "indexed": true,
          "internalType": "address",
          "name": "pool",
          "type": "address"
        }
      ],
      "name": "UpdatePerformed",
      "type": "event"
    },
    {
      "anonymous": false,
      "inputs": [
        {
          "indexed": true,
          "internalType": "address",
          "name": "caller",
          "type": "address"
        },
        {
          "indexed": true,
          "internalType": "address",
          "name": "pool",
          "type": "address"
        }
      ],
      "name": "UpdatePerformedQuantAMM",
      "type": "event"
    },
    {
      "anonymous": false,
      "inputs": [
        {
          "indexed": false,
          "internalType": "uint256",
          "name": "oldSwapFee",
          "type": "uint256"
        },
        {
          "indexed": false,
          "internalType": "uint256",
          "name": "newSwapFee",
          "type": "uint256"
        }
      ],
      "name": "UpliftFeeTakeSet",
      "type": "event"
    },
    {
      "anonymous": false,
      "inputs": [
        {
          "indexed": true,
          "internalType": "address",
          "name": "poolAddress",
          "type": "address"
        },
        {
          "indexed": false,
          "internalType": "address",
          "name": "updateOwner",
          "type": "address"
        },
        {
          "indexed": false,
          "internalType": "int256[]",
          "name": "weights",
          "type": "int256[]"
        },
        {
          "indexed": false,
          "internalType": "uint40",
          "name": "lastInterpolationTimePossible",
          "type": "uint40"
        },
        {
          "indexed": false,
          "internalType": "uint40",
          "name": "lastUpdateTime",
          "type": "uint40"
        }
      ],
      "name": "WeightsUpdated",
      "type": "event"
    },
    {
      "inputs": [
        {
          "internalType": "address",
          "name": "_poolAddress",
          "type": "address"
        },
        {
          "internalType": "uint40",
          "name": "_time",
          "type": "uint40"
        }
      ],
      "name": "InitialisePoolLastRunTime",
      "outputs": [],
      "stateMutability": "nonpayable",
      "type": "function"
    },
    {
      "inputs": [
        {
          "internalType": "contract OracleWrapper",
          "name": "_oracle",
          "type": "address"
        }
      ],
      "name": "addOracle",
      "outputs": [],
      "stateMutability": "nonpayable",
      "type": "function"
    },
    {
      "inputs": [
        {
          "internalType": "address",
          "name": "",
          "type": "address"
        }
      ],
      "name": "approvedOracles",
      "outputs": [
        {
          "internalType": "bool",
          "name": "",
          "type": "bool"
        }
      ],
      "stateMutability": "view",
      "type": "function"
    },
    {
      "inputs": [
        {
          "internalType": "address",
          "name": "",
          "type": "address"
        }
      ],
      "name": "approvedPoolActions",
      "outputs": [
        {
          "internalType": "uint256",
          "name": "",
          "type": "uint256"
        }
      ],
      "stateMutability": "view",
      "type": "function"
    },
    {
      "inputs": [
        {
          "components": [
            {
              "internalType": "int256[]",
              "name": "currentWeights",
              "type": "int256[]"
            },
            {
              "internalType": "int256[]",
              "name": "updatedWeights",
              "type": "int256[]"
            },
            {
              "internalType": "int256",
              "name": "updateInterval",
              "type": "int256"
            },
            {
              "internalType": "int256",
              "name": "absoluteWeightGuardRail18",
              "type": "int256"
            },
            {
              "internalType": "address",
              "name": "poolAddress",
              "type": "address"
            }
          ],
          "internalType": "struct UpdateWeightRunner.CalculateMuliplierAndSetWeightsLocal",
          "name": "params",
          "type": "tuple"
        }
      ],
      "name": "calculateMultiplierAndSetWeightsFromRule",
      "outputs": [],
      "stateMutability": "nonpayable",
      "type": "function"
    },
    {
      "inputs": [],
      "name": "ethOracle",
      "outputs": [
        {
          "internalType": "contract OracleWrapper",
          "name": "",
          "type": "address"
        }
      ],
      "stateMutability": "view",
      "type": "function"
    },
    {
      "inputs": [
        {
          "internalType": "address",
          "name": "_pool",
          "type": "address"
        }
      ],
      "name": "getData",
      "outputs": [
        {
          "internalType": "int256[]",
          "name": "outputData",
          "type": "int256[]"
        }
      ],
      "stateMutability": "view",
      "type": "function"
    },
    {
      "inputs": [
        {
          "internalType": "address",
          "name": "_poolAddress",
          "type": "address"
        }
      ],
      "name": "getOptimisedPoolOracle",
      "outputs": [
        {
          "internalType": "address[]",
          "name": "oracles",
          "type": "address[]"
        }
      ],
      "stateMutability": "view",
      "type": "function"
    },
    {
      "inputs": [
        {
          "internalType": "address",
          "name": "_poolAddress",
          "type": "address"
        }
      ],
      "name": "getPoolApprovedActions",
      "outputs": [
        {
          "internalType": "uint256",
          "name": "",
          "type": "uint256"
        }
      ],
      "stateMutability": "view",
      "type": "function"
    },
    {
      "inputs": [
        {
          "internalType": "address",
          "name": "_poolAddress",
          "type": "address"
        }
      ],
      "name": "getPoolOracleAndBackups",
      "outputs": [
        {
          "internalType": "address[][]",
          "name": "oracles",
          "type": "address[][]"
        }
      ],
      "stateMutability": "view",
      "type": "function"
    },
    {
      "inputs": [
        {
          "internalType": "address",
          "name": "_poolAddress",
          "type": "address"
        }
      ],
      "name": "getPoolRule",
      "outputs": [
        {
          "internalType": "contract IUpdateRule",
          "name": "rule",
          "type": "address"
        }
      ],
      "stateMutability": "view",
      "type": "function"
    },
    {
      "inputs": [
        {
          "internalType": "address",
          "name": "_poolAddress",
          "type": "address"
        }
      ],
      "name": "getPoolRuleSettings",
      "outputs": [
        {
          "components": [
            {
              "internalType": "uint64[]",
              "name": "lambda",
              "type": "uint64[]"
            },
            {
              "components": [
                {
                  "internalType": "uint40",
                  "name": "lastPoolUpdateRun",
                  "type": "uint40"
                },
                {
                  "internalType": "uint40",
                  "name": "updateInterval",
                  "type": "uint40"
                }
              ],
              "internalType": "struct IUpdateWeightRunner.PoolTimingSettings",
              "name": "timingSettings",
              "type": "tuple"
            },
            {
              "internalType": "uint64",
              "name": "epsilonMax",
              "type": "uint64"
            },
            {
              "internalType": "uint64",
              "name": "absoluteWeightGuardRail",
              "type": "uint64"
            },
            {
              "internalType": "int256[][]",
              "name": "ruleParameters",
              "type": "int256[][]"
            },
            {
              "internalType": "address",
              "name": "poolManager",
              "type": "address"
            }
          ],
          "internalType": "struct IUpdateWeightRunner.PoolRuleSettings",
          "name": "oracles",
          "type": "tuple"
        }
      ],
      "stateMutability": "view",
      "type": "function"
    },
    {
      "inputs": [],
      "name": "getQuantAMMAdmin",
      "outputs": [
        {
          "internalType": "address",
          "name": "",
          "type": "address"
        }
      ],
      "stateMutability": "view",
      "type": "function"
    },
    {
      "inputs": [],
      "name": "getQuantAMMSwapFeeTake",
      "outputs": [
        {
          "internalType": "uint256",
          "name": "",
          "type": "uint256"
        }
      ],
      "stateMutability": "view",
      "type": "function"
    },
    {
      "inputs": [],
      "name": "getQuantAMMUpliftFeeTake",
      "outputs": [
        {
          "internalType": "uint256",
          "name": "",
          "type": "uint256"
        }
      ],
      "stateMutability": "view",
      "type": "function"
    },
    {
      "inputs": [
        {
          "internalType": "address",
          "name": "_pool",
          "type": "address"
        }
      ],
      "name": "performUpdate",
      "outputs": [],
      "stateMutability": "nonpayable",
      "type": "function"
    },
    {
      "inputs": [
        {
          "internalType": "address",
          "name": "",
          "type": "address"
        },
        {
          "internalType": "uint256",
          "name": "",
          "type": "uint256"
        },
        {
          "internalType": "uint256",
          "name": "",
          "type": "uint256"
        }
      ],
      "name": "poolBackupOracles",
      "outputs": [
        {
          "internalType": "address",
          "name": "",
          "type": "address"
        }
      ],
      "stateMutability": "view",
      "type": "function"
    },
    {
      "inputs": [
        {
          "internalType": "address",
          "name": "",
          "type": "address"
        },
        {
          "internalType": "uint256",
          "name": "",
          "type": "uint256"
        }
      ],
      "name": "poolOracles",
      "outputs": [
        {
          "internalType": "address",
          "name": "",
          "type": "address"
        }
      ],
      "stateMutability": "view",
      "type": "function"
    },
    {
      "inputs": [
        {
          "internalType": "address",
          "name": "",
          "type": "address"
        }
      ],
      "name": "poolRuleSettings",
      "outputs": [
        {
          "components": [
            {
              "internalType": "uint40",
              "name": "lastPoolUpdateRun",
              "type": "uint40"
            },
            {
              "internalType": "uint40",
              "name": "updateInterval",
              "type": "uint40"
            }
          ],
          "internalType": "struct IUpdateWeightRunner.PoolTimingSettings",
          "name": "timingSettings",
          "type": "tuple"
        },
        {
          "internalType": "uint64",
          "name": "epsilonMax",
          "type": "uint64"
        },
        {
          "internalType": "uint64",
          "name": "absoluteWeightGuardRail",
          "type": "uint64"
        },
        {
          "internalType": "address",
          "name": "poolManager",
          "type": "address"
        }
      ],
      "stateMutability": "view",
      "type": "function"
    },
    {
      "inputs": [],
      "name": "quantAMMSwapFeeTake",
      "outputs": [
        {
          "internalType": "uint256",
          "name": "",
          "type": "uint256"
        }
      ],
      "stateMutability": "view",
      "type": "function"
    },
    {
      "inputs": [],
      "name": "quantammAdmin",
      "outputs": [
        {
          "internalType": "address",
          "name": "",
          "type": "address"
        }
      ],
      "stateMutability": "view",
      "type": "function"
    },
    {
      "inputs": [
        {
          "internalType": "contract OracleWrapper",
          "name": "_oracleToRemove",
          "type": "address"
        }
      ],
      "name": "removeOracle",
      "outputs": [],
      "stateMutability": "nonpayable",
      "type": "function"
    },
    {
      "inputs": [
        {
          "internalType": "address",
          "name": "",
          "type": "address"
        }
      ],
      "name": "ruleOracleStalenessThreshold",
      "outputs": [
        {
          "internalType": "uint256",
          "name": "",
          "type": "uint256"
        }
      ],
      "stateMutability": "view",
      "type": "function"
    },
    {
      "inputs": [
        {
          "internalType": "address",
          "name": "",
          "type": "address"
        }
      ],
      "name": "rules",
      "outputs": [
        {
          "internalType": "contract IUpdateRule",
          "name": "",
          "type": "address"
        }
      ],
      "stateMutability": "view",
      "type": "function"
    },
    {
      "inputs": [
        {
          "internalType": "address",
          "name": "_pool",
          "type": "address"
        },
        {
          "internalType": "uint256",
          "name": "_actions",
          "type": "uint256"
        }
      ],
      "name": "setApprovedActionsForPool",
      "outputs": [],
      "stateMutability": "nonpayable",
      "type": "function"
    },
    {
      "inputs": [
        {
          "internalType": "address",
          "name": "_ethUsdOracle",
          "type": "address"
        }
      ],
      "name": "setETHUSDOracle",
      "outputs": [],
      "stateMutability": "nonpayable",
      "type": "function"
    },
    {
      "inputs": [
        {
          "internalType": "address",
          "name": "_poolAddress",
          "type": "address"
        },
        {
          "internalType": "int256[]",
          "name": "_newMovingAverages",
          "type": "int256[]"
        },
        {
          "internalType": "int256[]",
          "name": "_newParameters",
          "type": "int256[]"
        },
        {
          "internalType": "uint256",
          "name": "_numberOfAssets",
          "type": "uint256"
        }
      ],
      "name": "setIntermediateValuesManually",
      "outputs": [],
      "stateMutability": "nonpayable",
      "type": "function"
    },
    {
      "inputs": [
        {
          "internalType": "uint256",
          "name": "_quantAMMSwapFeeTake",
          "type": "uint256"
        }
      ],
      "name": "setQuantAMMSwapFeeTake",
      "outputs": [],
      "stateMutability": "nonpayable",
      "type": "function"
    },
    {
      "inputs": [
        {
          "internalType": "uint256",
          "name": "_quantAMMUpliftFeeTake",
          "type": "uint256"
        }
      ],
      "name": "setQuantAMMUpliftFeeTake",
      "outputs": [],
      "stateMutability": "nonpayable",
      "type": "function"
    },
    {
      "inputs": [
        {
          "components": [
            {
              "internalType": "contract IERC20[]",
              "name": "assets",
              "type": "address[]"
            },
            {
              "internalType": "contract IUpdateRule",
              "name": "rule",
              "type": "address"
            },
            {
              "internalType": "address[][]",
              "name": "oracles",
              "type": "address[][]"
            },
            {
              "internalType": "uint16",
              "name": "updateInterval",
              "type": "uint16"
            },
            {
              "internalType": "uint64[]",
              "name": "lambda",
              "type": "uint64[]"
            },
            {
              "internalType": "uint64",
              "name": "epsilonMax",
              "type": "uint64"
            },
            {
              "internalType": "uint64",
              "name": "absoluteWeightGuardRail",
              "type": "uint64"
            },
            {
              "internalType": "uint64",
              "name": "maxTradeSizeRatio",
              "type": "uint64"
            },
            {
              "internalType": "int256[][]",
              "name": "ruleParameters",
              "type": "int256[][]"
            },
            {
              "internalType": "address",
              "name": "poolManager",
              "type": "address"
            }
          ],
          "internalType": "struct IQuantAMMWeightedPool.PoolSettings",
          "name": "_poolSettings",
          "type": "tuple"
        }
      ],
      "name": "setRuleForPool",
      "outputs": [],
      "stateMutability": "nonpayable",
      "type": "function"
    },
    {
      "inputs": [
        {
          "components": [
            {
              "internalType": "contract IERC20[]",
              "name": "assets",
              "type": "address[]"
            },
            {
              "internalType": "contract IUpdateRule",
              "name": "rule",
              "type": "address"
            },
            {
              "internalType": "address[][]",
              "name": "oracles",
              "type": "address[][]"
            },
            {
              "internalType": "uint16",
              "name": "updateInterval",
              "type": "uint16"
            },
            {
              "internalType": "uint64[]",
              "name": "lambda",
              "type": "uint64[]"
            },
            {
              "internalType": "uint64",
              "name": "epsilonMax",
              "type": "uint64"
            },
            {
              "internalType": "uint64",
              "name": "absoluteWeightGuardRail",
              "type": "uint64"
            },
            {
              "internalType": "uint64",
              "name": "maxTradeSizeRatio",
              "type": "uint64"
            },
            {
              "internalType": "int256[][]",
              "name": "ruleParameters",
              "type": "int256[][]"
            },
            {
              "internalType": "address",
              "name": "poolManager",
              "type": "address"
            }
          ],
          "internalType": "struct IQuantAMMWeightedPool.PoolSettings",
          "name": "_poolSettings",
          "type": "tuple"
        },
        {
          "internalType": "address",
          "name": "_pool",
          "type": "address"
        }
      ],
      "name": "setRuleForPoolAdminInitialise",
      "outputs": [],
      "stateMutability": "nonpayable",
      "type": "function"
    },
    {
      "inputs": [
        {
          "internalType": "int256[]",
          "name": "_weights",
          "type": "int256[]"
        },
        {
          "internalType": "address",
          "name": "_poolAddress",
          "type": "address"
        },
        {
          "internalType": "uint40",
          "name": "_lastInterpolationTimePossible",
          "type": "uint40"
        },
        {
          "internalType": "uint256",
          "name": "_numberOfAssets",
          "type": "uint256"
        }
      ],
      "name": "setWeightsManually",
      "outputs": [],
      "stateMutability": "nonpayable",
      "type": "function"
    }
  ],
  "bytecode": "0x60a03461018157601f613fe238819003918201601f19168301916001600160401b0383118484101761018557808492604094855283398101031261018157610052602061004b83610199565b9201610199565b6706f05b59d3b200006004556001600160a01b03908282161561013c57169081156100eb576080525f80546001600160a01b031916919091179055604051613e3490816101ae82396080518181816101aa0152818161025301528181610e7b0152818161114a015281816112ef015281816113ce01528181611668015281816119b201528181611b680152818161240101526129ca0152f35b60405162461bcd60e51b8152602060048201526024808201527f657468206f7261636c652063616e6e6f742062652064656661756c74206164646044820152637265737360e01b6064820152608490fd5b60405162461bcd60e51b815260206004820152601f60248201527f41646d696e2063616e6e6f742062652064656661756c742061646472657373006044820152606490fd5b5f80fd5b634e487b7160e01b5f52604160045260245ffd5b51906001600160a01b03821682036101815756fe6080806040526004361015610012575f80fd5b5f905f3560e01c908163215f790d1461252b575080632775e419146124d35780632a03fdc9146124965780633201189f1461217057806338266b2214611dce5780633c93c03114611d935780633f485e8514611d9357806343caf8cc14611d42578063446679b4146115a55780635972571714611c425780635e9fb0fe146117255780636bf44b251461175d57806370dc6dcd14611b4657806372058b2014611b0e578063727cc6b614611a7a578063741d3c18146119895780638d2a47df146118fa5780638e0bf872146117885780639c8762e114611762578063a1cde13c1461175d578063ad7b245b14611725578063aebdc7f31461163b578063b16db1d0146115c8578063b5c038df146115aa578063c179f362146115a5578063ccfba36d14611385578063ce768b32146111e4578063d4ead0b214610f99578063df5dd1a514610e48578063e3a11da114610307578063eb3afa72146102315763fdc85fc41461017e575f80fd5b3461022e57602060031936011261022e576004356001600160a01b0380821680920361022a576101d1907f0000000000000000000000000000000000000000000000000000000000000000163314612e70565b8082526005602052604082207fffffffffffffffffffffffffffffffffffffffffffffffffffffffffffffff0081541690557fcaae23b6deed9cee0d3372e8c640972bec6f2308e756ff89a3b1302c89daf9f78280a280f35b8280fd5b80fd5b503461022e57602060031936011261022e5760043561027a6001600160a01b037f0000000000000000000000000000000000000000000000000000000000000000163314612e70565b670de0b6b3a764000081116102c35760407f7bc4745e401d493ca08acd9501be03b4df00544341ee17b1819898db343dece691600454908060045582519182526020820152a180f35b606460405162461bcd60e51b815260206004820152601f60248201527f5377617020666565206d757374206265206c657373207468616e2031303025006044820152fd5b503461022e57602060031936011261022e576001600160a01b036103296128ba565b1680825260086020526001600160a01b0360408320541615610e04578082526001602052604082206040519061035e82612a0b565b6040518081602084549283815201848852602088209288905b806003830110610dbc576103af945490808310610d9f575b808310610d7f575b808310610d5f575b8210610d4b575b50500382612aa0565b82526103bd60018201612e49565b602083015267ffffffffffffffff6002820154818116604085015260401c1660608301526003810180546103f081612ac3565b916103fe6040519384612aa0565b81835286526020808720879184015b838310610cf157505050506080830152600401546001600160a01b031660a08201526020810151516104469064ffffffffff16426130f1565b64ffffffffff60208084015101511611610cad578183526006602052604083205460011615610c4357604051907ff89f27ed0000000000000000000000000000000000000000000000000000000082528382600481865afa9182156107be578492610b94575b506104b782516130fe565b93805b85518110156104e257806104d06001928661312f565b516104db828961312f565b52016104ba565b508385815f5260026020526104f960405f20612f46565b93845194610506866130fe565b956040517f0f6480df000000000000000000000000000000000000000000000000000000008152602081600481895afa908115610b89575f91610b53575b505f5b8281106108555750505050836105e39584825260086020526001600160a01b03604083205416608084015184519067ffffffffffffffff60408701511667ffffffffffffffff606088015116916040519b8c967fb9579b0d00000000000000000000000000000000000000000000000000000000885260e060048901526105d160e489018c61293c565b906003198983030160248a015261293c565b8a6044880152600319878203016064880152815180825260208201916020808360051b8301019401928a915b8383106107ef57505050505060031986820301608487015260208085519283815201940190875b8181106107c95750505084928692849260a484015260c483015203925af19081156107be57849161071d575b849550836106f594955260016020526001604087200164ffffffffff42167fffffffffffffffffffffffffffffffffffffffffffffffffffffff000000000082541617905567ffffffffffffffff606064ffffffffff60208085015101511660040b9201511660070b91604051936106d985612a68565b84526020840152604083015260608201528260808201526138e5565b337f5182541565a0a53b3f95727ceaa2a0feffd43b7a7f7a095032e4c9f8fbb009288380a380f35b90503d8085873e61072e8187612aa0565b8501946020818703126107b65780519067ffffffffffffffff82116107ba570185601f820112156107b65780519561076587612ac3565b916107736040519384612aa0565b87835260208084019860051b8201019182116107b257602001965b8188106107a2575094955085945090610662565b875181526020978801970161078e565b8680fd5b8480fd5b8580fd5b6040513d86823e3d90fd5b825167ffffffffffffffff1686528c98508d975060209586019590920191600101610636565b601f19919497999b50809396989a50859295030183528d86519160208084519283815201930191905b80821061083d575050506020806001929701930193018d999795938f9997959261060f565b90919260208060019286518152019401920190610818565b60405161086181612a84565b5f81525f60208201526001600160a01b0361087c838761312f565b51165f52600560205261089560ff60405f205416613143565b600460406001600160a01b036108ab858961312f565b51168151928380927f3bc5de300000000000000000000000000000000000000000000000000000000082525afa805f925f92610b2f575b50610b185750505f81525f60208201525b64ffffffffff60208201511661090984426130f1565b1015610929579060019151601a0b610921828c61312f565b525b01610547565b875f52600360205261093e8260405f206128fa565b505460018114610a5b5760015b81811061096d575b50509060019151601a0b610967828c61312f565b52610923565b895f5260036020526001600160a01b036109948261098e8760405f206128fa565b506128fa565b90549060031b1c165f5260056020526109b360ff60405f205416613143565b895f526003602052600460406001600160a01b036109d78461098e89855f206128fa565b90549060031b1c168151928380927f3bc5de300000000000000000000000000000000000000000000000000000000082525afa805f925f92610ae4575b50610acd5750505f83525f60208401525b64ffffffffff602084015116610a3b86426130f1565b105f03610953575f198201828111610aa0578114610a5b5760010161094b565b60405162461bcd60e51b815260206004820181905260248201527f4e6f206672657368206f7261636c652076616c75657320617661696c61626c656044820152606490fd5b7f4e487b71000000000000000000000000000000000000000000000000000000005f52601160045260245ffd5b64ffffffffff91601a0b8552166020840152610a25565b909250610b09915060403d604011610b11575b610b018183612aa0565b81019061318e565b90918f610a14565b503d610af7565b64ffffffffff91601a0b83521660208201526108f3565b909250610b4b915060403d604011610b1157610b018183612aa0565b90918d6108e2565b90506020813d602011610b81575b81610b6e60209383612aa0565b81010312610b7d575188610544565b5f80fd5b3d9150610b61565b6040513d5f823e3d90fd5b9091503d8085833e610ba68183612aa0565b81016020828203126107b65781519067ffffffffffffffff82116107ba5780601f8385010112156107ba578183015191610bdf83612ac3565b93610bed6040519586612aa0565b838552602085019260208560051b848401010111610c3f5780820160200192915b60208560051b82840101018410610c2b575050505050905f6104ac565b602080809486518152019401939250610c0e565b8780fd5b608460405162461bcd60e51b815260206004820152602360248201527f506f6f6c206e6f7420617070726f76656420746f20706572666f726d2075706460448201527f61746500000000000000000000000000000000000000000000000000000000006064820152fd5b606460405162461bcd60e51b815260206004820152601260248201527f557064617465206e6f7420616c6c6f77656400000000000000000000000000006044820152fd5b6040518254808252838b526020808c20908301918c905b808210610d335750505060019282610d2585946020940382612aa0565b81520192019201919061040d565b90919260016020819286548152019401920190610d08565b60c01c82526020909101906001015f6103a6565b9192602060019167ffffffffffffffff8460801c1681520193019161039f565b9192602060019167ffffffffffffffff8460401c16815201930191610397565b9192602060019167ffffffffffffffff841681520193019161038f565b91600491935060019085549067ffffffffffffffff918281168252828160401c16602083015260809281841c16604083015260c01c6060820152019401920184929391610377565b606460405162461bcd60e51b815260206004820152601360248201527f506f6f6c206e6f742072656769737465726564000000000000000000000000006044820152fd5b503461022e57602060031936011261022e576004356001600160a01b0380821680920361022a578115610f5557610ea2907f0000000000000000000000000000000000000000000000000000000000000000163314612e70565b8082526005602052604082205460ff16610f115780825260056020526040822060017fffffffffffffffffffffffffffffffffffffffffffffffffffffffffffffff008254161790557e47706786c922d17b39285dc59d696bafea72c0b003d3841ae1202076f4c2e48280a280f35b606460405162461bcd60e51b815260206004820152601460248201527f4f7261636c6520616c72656164792061646465640000000000000000000000006044820152fd5b606460405162461bcd60e51b815260206004820152601660248201527f496e76616c6964206f7261636c652061646472657373000000000000000000006044820152fd5b503461022e576003196080813601126111e057610fb46128ba565b9067ffffffffffffffff6024358181116107b657610fd6903690600401612af0565b906044359081116107b657610fef903690600401612af0565b9084606435936001600160a01b0380961695868352600660205260408320546008811615155f1461113757508683526001602052611037816004604086200154163314612ebb565b8683526008602052604083205416803b1561022a576110aa83929183926040519485809481937f44a01eb30000000000000000000000000000000000000000000000000000000083528d60048401526080602484015261109a608484018c61293c565b908382030160448401528b61293c565b8b606483015203925af1801561112c57611118575b50506111097fd800d1b75993a532fcdc42cfad69c08e80a232f051683f302292c0b13957406d926110fb6040519360608552606085019061293c565b90838203602085015261293c565b9260408201528033930390a380f35b61112190612a54565b6107b657845f6110bf565b6040513d84823e3d90fd5b90925060101615611176578161117188937f0000000000000000000000000000000000000000000000000000000000000000163314612e70565b611037565b608460405162461bcd60e51b815260206004820152602860248201527f4e6f207065726d697373696f6e20746f2073657420696e7465726d656469617460448201527f652076616c7565730000000000000000000000000000000000000000000000006064820152fd5b5080fd5b503461022e57604060031936011261022e576111fe6128ba565b6024359064ffffffffff8216809203610b7d576001600160a01b039081168084526006602052604084205490919060088116156112ba5750907f79a782d8b17346e0b863d44323bb26710950eb32858ac04fe6c20fdc8d83d2dc92611276604093838752600160205260048588200154163314612ebb565b8185526001602052600183862001817fffffffffffffffffffffffffffffffffffffffffffffffffffffff000000000082541617905582519182526020820152a180f35b9091906010161561131b577f79a782d8b17346e0b863d44323bb26710950eb32858ac04fe6c20fdc8d83d2dc926113166040937f0000000000000000000000000000000000000000000000000000000000000000163314612e70565b611276565b608460405162461bcd60e51b815260206004820152602260248201527f4e6f207065726d697373696f6e20746f20736574206c6173742072756e20746960448201527f6d650000000000000000000000000000000000000000000000000000000000006064820152fd5b503461022e57604060031936011261022e5760043567ffffffffffffffff81116111e0576113b7903690600401612b50565b6113bf6128d0565b906001600160a01b036113f5817f0000000000000000000000000000000000000000000000000000000000000000163314612e70565b80831691821561156157604051937f021eb7cd0000000000000000000000000000000000000000000000000000000085526020948581600481885afa908115611556578791611520575b50156114dc57918484926114c57f452964d7e38fbfb6f59e8cfb65ab1369a361c9ae44a2fb79c57af93585d72fb497956060978a52600884526114888560408c20541615612f9f565b6114986040840151511515612fea565b858a52600284526114ad60408b205415613035565b6114bf61ffff89850151161515613080565b8261320a565b01511690604051923384528301526040820152a180f35b6064856040519062461bcd60e51b82526004820152601260248201527f506f6f6c206e6f7720696d6d757461626c6500000000000000000000000000006044820152fd5b90508581813d831161154f575b6115378183612aa0565b810103126107b2575180151581036107b2575f61143f565b503d61152d565b6040513d89823e3d90fd5b606460405162461bcd60e51b815260206004820152601460248201527f496e76616c696420706f6f6c20616464726573730000000000000000000000006044820152fd5b6129ab565b503461022e578060031936011261022e576020600454604051908152f35b503461022e57606060031936011261022e576115e26128ba565b60243591604435926001600160a01b038093168252600360205260408220805482101561022a5790611613916128fa565b5090815484101561022e575060209261162b916128fa565b90549060031b1c16604051908152f35b503461022e57604060031936011261022e576116556128ba565b602435906001600160a01b039061168f827f0000000000000000000000000000000000000000000000000000000000000000163314612e70565b16908183526006602052604083205481146116e15781835260066020528060408420556040519081527f3a309afa88cec49f72c320ed28a537fb2892836e81170d3adf2560ae12c68fdf60203392a380f35b606460405162461bcd60e51b815260206004820152600a60248201527f44555045414354494f4e000000000000000000000000000000000000000000006044820152fd5b503461022e57602060031936011261022e5760406020916001600160a01b0361174c6128ba565b168152600683522054604051908152f35b6129ee565b503461022e578060031936011261022e576001600160a01b036020915416604051908152f35b503461022e57602060031990808236011261022a5760043567ffffffffffffffff928382116107b65760a09082360301126118f657604051926117ca84612a68565b81600401358181116107ba576117e69060043691850101612af0565b845260248201359081116107b6576118289161180a60849260043691840101612af0565b848601526044810135604086015260648101356060860152016128e6565b608083018181526001600160a01b038092168552600883528160408620541633036118b2575116835260068152806040842054161561186e575061186b906138e5565b80f35b6064906040519062461bcd60e51b82526004820152601a60248201527f46554e4354494f4e4e4f54415050524f564544464f52504f4f4c0000000000006044820152fd5b6064836040519062461bcd60e51b82526004820152601560248201527f4f4e4c5952554c4543414e5345545745494748545300000000000000000000006044820152fd5b8380fd5b503461022e57602060031936011261022e5760a09060406001600160a01b0391826119236128ba565b1681526001602052209061193960018301612e49565b91600281015491600467ffffffffffffffff920154169161197160405180956020908164ffffffffff91828151168552015116910152565b818116604085015260401c1660608301526080820152f35b503461022e57602060031936011261022e576119a36128ba565b6001600160a01b03906119d9827f0000000000000000000000000000000000000000000000000000000000000000163314612e70565b168015611a36576020817f4e76cd2b10c38c98ffe935e9b3e851cf6d1078a0a6f487a0636af025eded5158927fffffffffffffffffffffffff0000000000000000000000000000000000000000855416178455604051908152a180f35b606460405162461bcd60e51b815260206004820152600f60248201527f494e564554485553444f5241434c4500000000000000000000000000000000006044820152fd5b503461022e57602060031936011261022e5760043567ffffffffffffffff81116111e057611aaf61186b913690600401612b50565b3383526008602052611ace6001600160a01b0360408520541615612f9f565b611ade6040820151511515612fea565b3383526002602052611af4604084205415613035565b611b0761ffff6060830151161515613080565b339061320a565b503461022e57602060031936011261022e5760406020916001600160a01b03611b356128ba565b168152600783522054604051908152f35b503461022e57602060031936011261022e57600435611b8f6001600160a01b037f0000000000000000000000000000000000000000000000000000000000000000163314612e70565b670de0b6b3a76400008111611bd85760407f7f0e453f7deb9a7f69060510bc7a36b3fb02fd02208c55de1426c5901796687591600454908060045582519182526020820152a180f35b608460405162461bcd60e51b815260206004820152602160248201527f55706c69667420666565206d757374206265206c657373207468616e2031303060448201527f25000000000000000000000000000000000000000000000000000000000000006064820152fd5b503461022e576020806003193601126111e057906001600160a01b03611c666128ba565b1681526003825260408120805491611c7d83612ac3565b92611c8b6040519485612aa0565b8084528484018093835285832083915b838310611d1e5750505050604051928484019085855251809152604084019460408260051b8601019392955b828710611cd45785850386f35b909192938280611d0e837fffffffffffffffffffffffffffffffffffffffffffffffffffffffffffffffc08a60019603018652885161296f565b9601920196019592919092611cc7565b6001888192611d30859b9a989b612f46565b81520192019201919096939596611c9b565b503461022e57602060031936011261022e57611d7b6040611d8f926001600160a01b03611d6d6128ba565b168152600260205220612f46565b60405191829160208352602083019061296f565b0390f35b503461022e57602060031936011261022e5760209060406001600160a01b039182611dbc6128ba565b16815260088452205416604051908152f35b503461022e57602060031936011261022e576001600160a01b03611df06128ba565b16805f526006602052600260405f2054161561212c57805f526002602052611e1a60405f20612f46565b908151611e26816130fe565b916040517f0f6480df000000000000000000000000000000000000000000000000000000008152602081600481855afa908115610b89575f916120fa575b505f5b838110611e845760405160208082528190611d8f9082018861293c565b604051611e9081612a84565b5f81525f60208201526001600160a01b03611eab838961312f565b51165f526005602052611ec460ff60405f205416613143565b600460406001600160a01b03611eda858b61312f565b51168151928380927f3bc5de300000000000000000000000000000000000000000000000000000000082525afa805f925f926120d6575b506120bf5750505f81525f60208201525b64ffffffffff602082015116611f3884426130f1565b1015611f58579060019151601a0b611f50828861312f565b525b01611e67565b835f526003602052611f6d8260405f206128fa565b505460018114610a5b5760015b818110611f9c575b50509060019151601a0b611f96828861312f565b52611f52565b855f5260036020526001600160a01b03611fbd8261098e8760405f206128fa565b90549060031b1c165f526005602052611fdc60ff60405f205416613143565b855f526003602052600460406001600160a01b036120008461098e89855f206128fa565b90549060031b1c168151928380927f3bc5de300000000000000000000000000000000000000000000000000000000082525afa805f925f9261209b575b506120845750505f83525f60208401525b64ffffffffff60208401511661206486426130f1565b105f03611f82575f198201828111610aa0578114610a5b57600101611f7a565b64ffffffffff91601a0b855216602084015261204e565b9092506120b7915060403d604011610b1157610b018183612aa0565b90918c61203d565b64ffffffffff91601a0b8352166020820152611f22565b9092506120f2915060403d604011610b1157610b018183612aa0565b90918a611f11565b90506020813d602011612124575b8161211560209383612aa0565b81010312610b7d575185611e64565b3d9150612108565b606460405162461bcd60e51b815260206004820152601760248201527f4e6f7420616c6c6f77656420746f2067657420646174610000000000000000006044820152fd5b5034610b7d576080600319360112610b7d576004359067ffffffffffffffff808311610b7d5736602384011215610b7d578260040135908111610b7d57602490818401938236918360051b010111610b7d576121ca6128d0565b9060449260443564ffffffffff91828216809203610b7d57606480356001600160a01b0380971697885f526020976006895260405f20546008811615155f146123f35750612229908a5f5260018a52600460405f200154163314612ebb565b5f5b8781106123235750505050853b15610b7d575f6040518080937fe4e3b535000000000000000000000000000000000000000000000000000000008252606060048301528961227e8d8a6064860191612f16565b918301528560448301520381838a5af18015610b89576122e8575b506122d47f0c188c3f85c8cdb09e4055c9d8016b36cc23162ab457635e7c040941f0f3ce7e9495969760405194606086526060860191612f16565b94830152421660408201528033930390a380f35b7f0c188c3f85c8cdb09e4055c9d8016b36cc23162ab457635e7c040941f0f3ce7e9495965061231690612a54565b6122d45f96959450612299565b878c848310612337575b505060010161222b565b82662386f26fc100009261234a92612f06565b35126123b257670dbd2fc137a30000612364828a8f612f06565b351361237157878c61232d565b83897f41626f7665206d617820616c6c6f776564207765696768740000000000000000846018896040519462461bcd60e51b86526004860152840152820152fd5b83897f42656c6f77206d696e20616c6c6f776564207765696768740000000000000000846018896040519462461bcd60e51b86526004860152840152820152fd5b6010161561242d57612428907f0000000000000000000000000000000000000000000000000000000000000000163314612e70565b612229565b6084896022876040519262461bcd60e51b845260048401528201527f4e6f207065726d697373696f6e20746f20736574207765696768742076616c7560448201527f65730000000000000000000000000000000000000000000000000000000000006064820152fd5b34610b7d576020600319360112610b7d576001600160a01b036124b76128ba565b165f526005602052602060ff60405f2054166040519015158152f35b34610b7d576040600319360112610b7d576124ec6128ba565b602435906001600160a01b038091165f52600260205260405f208054831015610b7d5760209261251b916128fa565b9190546040519260031b1c168152f35b34610b7d576020600319360112610b7d576125446128ba565b9061254e81612a0b565b5f60a06060926060815260405161256481612a84565b83815283602082015260208201528260408201528260608201526060608082015201526001600160a01b038092165f52600160205260405f20604051916125aa83612a0b565b60405180809260208554938481520190855f5260205f20935f915b81600384011061287657506125fd945490808310612859575b808310612839575b808310612819575b82106128055750500382612aa0565b825261260b60018201612e49565b926020830193845260028201549167ffffffffffffffff8381809516604087015260401c166060850152816003820191825461264681612ac3565b936126546040519586612aa0565b81855260208501905f5260205f205f915b83831061279f5750505050600490608087019384520154169260a08501938452604051946020865261010086019681519760e060208901528851809152602061012089019901905f5b81811061278757505050906126de6060925160408901906020908164ffffffffff91828151168552015116910152565b82604082015116608088015201511660a08501525191601f19808587030160c0860152835180875260208701916020808360051b8a01019601925f915b838310612731578551871660e08a015288880389f35b9091929396818a8203018352875190602080835192838152019201905f905b80821061276f575050506020806001929901930193019193929061271b565b90919260208060019286518152019401920190612750565b825186168b5260209a8b019a909201916001016126ae565b9091929394506040518060208454918281520190845f5260205f20905f905b8082106127ed57505050600192826127db85946020940382612aa0565b81520192019201909186949392612665565b909192600160208192865481520194019201906127be565b60c01c8252602090910190600101886103a6565b9192602060019167ffffffffffffffff8460801c168152019301916125ee565b9192602060019167ffffffffffffffff8460401c168152019301916125e6565b9192602060019167ffffffffffffffff84168152019301916125de565b93509160016080600492875467ffffffffffffffff8082168352808260401c16602084015281841c16604083015260c01c87820152019501910190939185936125c5565b600435906001600160a01b0382168203610b7d57565b602435906001600160a01b0382168203610b7d57565b35906001600160a01b0382168203610b7d57565b805482101561290f575f5260205f2001905f90565b7f4e487b71000000000000000000000000000000000000000000000000000000005f52603260045260245ffd5b9081518082526020808093019301915f5b82811061295b575050505090565b83518552938101939281019260010161294d565b9081518082526020808093019301915f5b82811061298e575050505090565b83516001600160a01b031685529381019392810192600101612980565b34610b7d575f600319360112610b7d5760206040516001600160a01b037f0000000000000000000000000000000000000000000000000000000000000000168152f35b34610b7d575f600319360112610b7d576020600454604051908152f35b60c0810190811067ffffffffffffffff821117612a2757604052565b7f4e487b71000000000000000000000000000000000000000000000000000000005f52604160045260245ffd5b67ffffffffffffffff8111612a2757604052565b60a0810190811067ffffffffffffffff821117612a2757604052565b6040810190811067ffffffffffffffff821117612a2757604052565b90601f601f19910116810190811067ffffffffffffffff821117612a2757604052565b67ffffffffffffffff8111612a275760051b60200190565b359067ffffffffffffffff82168203610b7d57565b9080601f83011215610b7d576020908235612b0a81612ac3565b93612b186040519586612aa0565b81855260208086019260051b820101928311610b7d57602001905b828210612b41575050505090565b81358152908301908301612b33565b919091610140908181850312610b7d576040805192830167ffffffffffffffff9084811082821117612a2757825283958335828111610b7d5784019080601f83011215610b7d578135602092612ba582612ac3565b90612bb287519283612aa0565b8282528482018560059460051b83010191858311610b7d578601905b828210612e2a575050508752828601356001600160a01b0381168103610b7d578388015284860135848111610b7d57860182601f82011215610b7d57803591612c1683612ac3565b92612c2388519485612aa0565b808452858085019160051b84010192858411610b7d57868101915b848310612da557505050505084870152606085013561ffff81168103610b7d5760608701526080850135838111610b7d57850181601f82011215610b7d57803590612c8882612ac3565b91612c9587519384612aa0565b808352848084019160051b83010191848311610b7d5785809101915b838310612d8d57505050506080870152612ccd60a08601612adb565b60a0870152612cde60c08601612adb565b60c0870152612cef60e08601612adb565b60e08701526101009283860135818111610b7d5786019082601f83011215610b7d57813590612d29612d2083612ac3565b97519788612aa0565b818752848088019260051b84010193808511610b7d57858401925b858410612d685750505050505050830152612d636101208092016128e6565b910152565b8335838111610b7d578791612d82848480948a0101612af0565b815201930192612d44565b8190612d9884612adb565b8152019101908590612cb1565b8235898111610b7d57820187603f82011215610b7d578881013590612dc982612ac3565b91612dd68d519384612aa0565b8083528c8b840191881b830101918a8311610b7d57918d8c94929593015b818110612e0b575050829350815201920191612c3e565b919380919395612e1a846128e6565b8152019101918b93919492612df4565b81356001600160a01b0381168103610b7d578152908601908601612bce565b90604051612e5681612a84565b602081935464ffffffffff90818116845260281c16910152565b15612e7757565b606460405162461bcd60e51b815260206004820152600960248201527f4f4e4c5941444d494e00000000000000000000000000000000000000000000006044820152fd5b15612ec257565b606460405162461bcd60e51b815260206004820152600b60248201527f4f4e4c594d414e414745520000000000000000000000000000000000000000006044820152fd5b919081101561290f5760051b0190565b9190808252602080920192915f5b828110612f32575050505090565b833585529381019392810192600101612f24565b90604051918281549182825260209260208301915f5260205f20935f905b828210612f7c57505050612f7a92500383612aa0565b565b85546001600160a01b031684526001958601958895509381019390910190612f64565b15612fa657565b606460405162461bcd60e51b815260206004820152601060248201527f52756c6520616c726561647920736574000000000000000000000000000000006044820152fd5b15612ff157565b606460405162461bcd60e51b815260206004820152601360248201527f456d707479206f7261636c6573206172726179000000000000000000000000006044820152fd5b1561303c57565b606460405162461bcd60e51b815260206004820152601560248201527f706f6f6c2072756c6520616c72656164792073657400000000000000000000006044820152fd5b1561308757565b608460405162461bcd60e51b815260206004820152602660248201527f55706461746520696e74657276616c206d75737420626520677265617465722060448201527f7468616e203000000000000000000000000000000000000000000000000000006064820152fd5b91908203918211610aa057565b9061310882612ac3565b6131156040519182612aa0565b828152601f196131258294612ac3565b0190602036910137565b805182101561290f5760209160051b010190565b1561314a57565b606460405162461bcd60e51b815260206004820152601360248201527f4f7261636c65206e6f7420617070726f766564000000000000000000000000006044820152fd5b9190826040910312610b7d57815180601a0b8103610b7d5760209092015164ffffffffff81168103610b7d5790565b8181106131c8575050565b5f81556001016131bd565b90680100000000000000008111612a27578154908083558181106131f657505050565b612f7a925f5260205f2091820191016131bd565b91905f905b60409283850194855180518510156132dc5761322e856132379261312f565b51511515612fea565b5f5b61324485885161312f565b51518110156132cc576001600160a01b0361326a82613264888b5161312f565b5161312f565b51165f5260206005815260ff875f205416156132895750600101613239565b60649087519062461bcd60e51b82526004820152601960248201527f4e6f7420617070726f766564206f7261636c65642075736564000000000000006044820152fd5b509450925060019091019061320f565b5094509250905060408301918251519361330e6132f886612ac3565b956133066040519788612aa0565b808752612ac3565b92601f196020870194013685375f5b8551805182101561335c57816133329161312f565b519081511561290f576001600160a01b036020600193015116613355828a61312f565b520161331d565b505091949390926001600160a01b0380931694855f52600260205260405f2090519167ffffffffffffffff8311612a275761339783836131d3565b905f5260205f205f5b83811061389857505050505191835f526003928360205260405f20815191680100000000000000008311612a2757815483835580841061384e575b50602001905f5260205f205f915b8383106137f057505050508160208201511692845f52600860205260405f207fffffffffffffffffffffffff0000000000000000000000000000000000000000948582541617905560808201519067ffffffffffffffff60a08401511667ffffffffffffffff60c085015116610100850151978661012061ffff60608901511697604051986134778a612a84565b5f8a5260208a0152015116986040519561349087612a0b565b8652602086019687526040860193845260608601928352608086015260a085019889525f52600160205260405f2094845180519067ffffffffffffffff8211612a2757680100000000000000008211612a27576020908854838a558084106137a6575b500190875f5260205f208160021c915f5b83811061374f575060031981169003806136f5575b5050505090608093929160018701905164ffffffffff8151167fffffffffffffffffffffffffffffffffffffffffffff0000000000000000000069ffffffffff00000000006020855494015160281b1692161717905567ffffffffffffffff600287019251167fffffffffffffffffffffffffffffffff000000000000000000000000000000006fffffffffffffffff00000000000000008454935160401b169216171790558301910151805190680100000000000000008211612a275782548284558083106136a2575b50602001915f5260205f20915f905b82821061360d575050505060040192511690825416179055565b805180519067ffffffffffffffff8211612a2757680100000000000000008211612a2757855482875580831061367c575b50602001855f5260205f205f5b8381106136685750505050600160208192019401910190926135f3565b60019060208451940193818401550161364b565b865f528260205f2091820191015b818110613697575061363e565b5f815560010161368a565b835f528260205f2091820191015b8181106136bd57506135e4565b80545f8255806136d1575b506001016136b0565b815f5260205f20908101905b8181106136ea57506136c8565b5f81556001016136dd565b925f935f5b81811061371057505050015560805f8080613519565b90919460206137458b6001938567ffffffffffffffff8b5116921b60031b9167ffffffffffffffff809116831b921b19161790565b96019291016136fa565b5f805b8a6004821061376957505083820155600101613504565b61379d60209189948467ffffffffffffffff6001969c5116921b60031b9167ffffffffffffffff809116831b921b19161790565b92019601613752565b6137d2908a5f52835f208980870160021c820192601888831b16806137d8575b500160021c01906131bd565b5f6134f3565b5f1990818601918254918a03851b1c1690555f6137c6565b805180519067ffffffffffffffff8211612a275760209061381183866131d3565b01835f5260205f205f5b8381106138385750505050600160208192019201920191906133e9565b60019060208b855116940193818401550161381b565b825f528360205f2091820191015b81811061386957506133db565b80600191545f82558061387e575b500161385c565b61389290825f5260205f20908101906131bd565b5f613877565b60019060208785511694019381840155016133a0565b81156138b8570590565b7f4e487b71000000000000000000000000000000000000000000000000000000005f52601260045260245ffd5b805151906001918060011b9080820460021490151715610aa057613908906130fe565b7f7fffffffffffffffffffffffffffffffffffffffffffffffffffffffffffffff925f815b613a6e575b505064ffffffffff91824216938460040b90647fffffffff828103905f8412818312811691831390151617610aa0578112613a4b575b5050608001906001600160a01b03928383511693843b15610b7d575f60405180967fe4e3b5350000000000000000000000000000000000000000000000000000000082526060600483015281838164ffffffffff6139c9606483018b61293c565b98856024840152169788604483015203925af1938415610b89577f30f7151deb2a6edd0073424d948b6da843616acab7248b8cdace73ea9ec81ac695613a2c95613a3c575b5051169460405193849333855260806020860152608085019061293c565b91604084015260608301520390a2565b613a4590612a54565b5f613a0e565b5f8282969496019283129112908015821691151617610aa057169160805f613968565b83518051821015613d535781613a839161312f565b51613a8e828561312f565b52613a9d81602086015161312f565b51613aa982865161312f565b51905f8282039212818312811691831390151617610aa05760408501519081156138b8575f19917f80000000000000000000000000000000000000000000000000000000000000009183821483821416610aa05705908651518401808511610aa057613b1683918861312f565b5286515190838201918211610aa0577ffffffffffffffff6c6d11716de2a2f8c500cdd19dbc6030cd280cbb9b6b8f0708212613d27577809392ee8e921d5d073aff322e62439fcf32d7f344649470f908213613cfb57670de0b6b3a76400008092026060890194855192808314908115613cf1575b50613cc9575f821215613cc057613bb0825f035b5f851215613cb957845f0390613d59565b927f7fffffffffffffffffffffffffffffffffffffffffffffffffffffffffffffff8411613c8d579181129113188603613c88575f035b8082035f8212838083128216921390151617610aa0575f831315613c3757613c1e9350613c1585895161312f565b510190036138ae565b858112613c2f575b5081018161392d565b945081613c26565b505080613c665750507f7fffffffffffffffffffffffffffffffffffffffffffffffffffffffffffffff613c1e565b613c8391613c7584885161312f565b5190519003905f03906138ae565b613c1e565b613be7565b837fbf79e8d9000000000000000000000000000000000000000000000000000000005f5260045260245ffd5b8490613d59565b613bb082613b9f565b7f3406846c000000000000000000000000000000000000000000000000000000005f5260045ffd5b905083145f613b8b565b507f71f72a31000000000000000000000000000000000000000000000000000000005f5260045260245ffd5b507fe608e18b000000000000000000000000000000000000000000000000000000005f5260045260245ffd5b50613932565b5f19828209828202908180821091039381850390670de0b6b3a76400009485831015613dd25790859109916706f05b59d3b1ffff83119514613dcb577faccb18165bd6fe31ae1cf318dc5b51eee0e1ba569b88cd74c1773b91fac106699350828211900360ee1b910360121c17020190565b5050040190565b827fd31b3402000000000000000000000000000000000000000000000000000000005f5260045260245ffdfea2646970667358221220f52b5583f8da89cd91f8333a3209fc43cac5db3aa6d001c1f0d78567aa88020164736f6c634300081a0033",
  "linkReferences": {},
  "deployedLinkReferences": {}
}