{
  "_format": "hh-sol-artifact-1",
  "contractName": "ProtocolFeeControllerMigration",
  "sourceName": "contracts/ProtocolFeeControllerMigration.sol",
  "abi": [
    {
      "inputs": [
        {
          "internalType": "contract IVault",
          "name": "_vault",
          "type": "address"
        }
      ],
      "stateMutability": "nonpayable",
      "type": "constructor"
    },
    {
      "inputs": [],
      "name": "AlreadyMigrated",
      "type": "error"
    },
    {
      "inputs": [],
      "name": "InvalidFeeController",
      "type": "error"
    },
    {
      "inputs": [],
      "name": "ReentrancyGuardReentrantCall",
      "type": "error"
    },
    {
      "inputs": [],
      "name": "SenderNotAllowed",
      "type": "error"
    },
    {
      "inputs": [],
      "name": "finalizeMigration",
      "outputs": [],
      "stateMutability": "nonpayable",
      "type": "function"
    },
    {
      "inputs": [
        {
          "internalType": "bytes4",
          "name": "selector",
          "type": "bytes4"
        }
      ],
      "name": "getActionId",
      "outputs": [
        {
          "internalType": "bytes32",
          "name": "",
          "type": "bytes32"
        }
      ],
      "stateMutability": "view",
      "type": "function"
    },
    {
      "inputs": [],
      "name": "getAuthorizer",
      "outputs": [
        {
          "internalType": "contract IAuthorizer",
          "name": "",
          "type": "address"
        }
      ],
      "stateMutability": "view",
      "type": "function"
    },
    {
      "inputs": [],
      "name": "getVault",
      "outputs": [
        {
          "internalType": "contract IVault",
          "name": "",
          "type": "address"
        }
      ],
      "stateMutability": "view",
      "type": "function"
    },
    {
      "inputs": [],
      "name": "isMigrationComplete",
      "outputs": [
        {
          "internalType": "bool",
          "name": "",
          "type": "bool"
        }
      ],
      "stateMutability": "view",
      "type": "function"
    },
    {
      "inputs": [
        {
          "internalType": "address[]",
          "name": "pools",
          "type": "address[]"
        }
      ],
      "name": "migratePools",
      "outputs": [],
      "stateMutability": "nonpayable",
      "type": "function"
    },
    {
      "inputs": [],
      "name": "newFeeController",
      "outputs": [
        {
          "internalType": "contract IProtocolFeeController",
          "name": "",
          "type": "address"
        }
      ],
      "stateMutability": "view",
      "type": "function"
    },
    {
      "inputs": [],
      "name": "oldFeeController",
      "outputs": [
        {
          "internalType": "contract IProtocolFeeController",
          "name": "",
          "type": "address"
        }
      ],
      "stateMutability": "view",
      "type": "function"
    },
    {
      "inputs": [
        {
          "internalType": "contract IProtocolFeeController",
          "name": "_newFeeController",
          "type": "address"
        }
      ],
      "name": "setNewFeeController",
      "outputs": [],
      "stateMutability": "nonpayable",
      "type": "function"
    },
    {
      "inputs": [],
      "name": "vault",
      "outputs": [
        {
          "internalType": "contract IVault",
          "name": "",
          "type": "address"
        }
      ],
      "stateMutability": "view",
      "type": "function"
    }
  ],
  "bytecode": "0x610120604081815234610169578161149a803803809161001f82856101c3565b833960209384918101031261016957516001600160a01b0390818116808203610169573060805260a0829052835163217cb6f560e21b81528581600481855afa9081156101b957908692915f9161017e575b509260049360c05260e05284519283809263aaabadc560e01b82525afa938415610174575f94610137575b5050610100921682525161129f91826101fb8339608051826111f2015260a051828181610b3801528181610fc90152611052015260c0518281816105b50152818161062a01526110f2015260e05182818160ba0152610c5b0152518181816104290152818161048c015281816104ea0152818161052b01528181610740015281816107a301528181610801015281816108430152610c960152f35b9080929450813d831161016d575b61014f81836101c3565b810103126101695751828116810361016957915f8061009c565b5f80fd5b503d610145565b83513d5f823e3d90fd5b8381939492503d83116101b2575b61019681836101c3565b8101031261016957519083821682036101695785916004610071565b503d61018c565b85513d5f823e3d90fd5b601f909101601f19168101906001600160401b038211908210176101e657604052565b634e487b7160e01b5f52604160045260245ffdfe6080806040526004361015610012575f80fd5b5f905f358060e01c91826351da116d14611116575081637ea3a964146110c6578163851c1bb3146110765781638d928af814611026578163aaabadc514610f76578163b78b608714610ab357508063b8350e2714610167578063bba1af4714610106578063d7128084146100e15763fbfa77cf1461008e575f80fd5b346100de57806003193601126100de57602060405173ffffffffffffffffffffffffffffffffffffffff7f0000000000000000000000000000000000000000000000000000000000000000168152f35b80fd5b50346100de57806003193601126100de5760ff6020915460a01c166040519015158152f35b50346100de5760206003193601126100de5760043573ffffffffffffffffffffffffffffffffffffffff8116809103610163577fffffffffffffffffffffffff000000000000000000000000000000000000000082541617815580f35b5080fd5b50346100de5760206003193601126100de5767ffffffffffffffff6004358181116108a457366023820112156108a4578060040135918211610a86578160051b90604051926101b96020840185611186565b835260246020840192820101903682116108db57602401915b818310610a59575050507f9b779b17422d0df92223018b32b4d1fa46e071723d6817e2486d003becc55f005c610a315760017f9b779b17422d0df92223018b32b4d1fa46e071723d6817e2486d003becc55f005d815460ff8160a01c16610a09578060ff849260a81c1615610314575b50805b82518110156102ed5773ffffffffffffffffffffffffffffffffffffffff808354169060208360051b8601015116813b156102e95783916024839260405194859384927f0874327f00000000000000000000000000000000000000000000000000000000845260048401525af19081156102de5783916102ca575b5050600101610245565b6102d390611145565b61016357815f6102c0565b6040513d85823e3d90fd5b8380fd5b50807f9b779b17422d0df92223018b32b4d1fa46e071723d6817e2486d003becc55f005d80f35b8075010000000000000000000000000000000000000000007fffffffffffffffffffff00ffffffffffffffffffffffffffffffffffffffffff73ffffffffffffffffffffffffffffffffffffffff9316178355166040517f851c1bb3000000000000000000000000000000000000000000000000000000008082527f8a3c5c69000000000000000000000000000000000000000000000000000000006004830152602082602481865afa9182156108bc5784926109d1575b5060209060246040518095819382527fa93df2a40000000000000000000000000000000000000000000000000000000060048301525afa9182156102de57839261099a575b5073ffffffffffffffffffffffffffffffffffffffff7f0000000000000000000000000000000000000000000000000000000000000000163b156108a4576040517f2f2ff15d0000000000000000000000000000000000000000000000000000000080825260048201839052306024830152908481604481837f000000000000000000000000000000000000000000000000000000000000000073ffffffffffffffffffffffffffffffffffffffff165af19081156108f3578591610986575b505073ffffffffffffffffffffffffffffffffffffffff7f0000000000000000000000000000000000000000000000000000000000000000163b156102e957604051908152600481018390523060248201528381604481837f000000000000000000000000000000000000000000000000000000000000000073ffffffffffffffffffffffffffffffffffffffff165af19081156108bc578491610972575b50506040517f7869ee1800000000000000000000000000000000000000000000000000000000815260208160048173ffffffffffffffffffffffffffffffffffffffff7f0000000000000000000000000000000000000000000000000000000000000000165afa9081156108bc57849161093d575b50604051907f55fb76af00000000000000000000000000000000000000000000000000000000825260208260048173ffffffffffffffffffffffffffffffffffffffff7f0000000000000000000000000000000000000000000000000000000000000000165afa9182156108f3578592610902575b5073ffffffffffffffffffffffffffffffffffffffff85541690813b156108fe5785916024839260405194859384927f8a3c5c6900000000000000000000000000000000000000000000000000000000845260048401525af19081156108f35785916108df575b505473ffffffffffffffffffffffffffffffffffffffff1690813b156108db5784916024839260405194859384927fa93df2a400000000000000000000000000000000000000000000000000000000845260048401525af19081156108bc5784916108c7575b505073ffffffffffffffffffffffffffffffffffffffff7f0000000000000000000000000000000000000000000000000000000000000000163b156108a4576040517f36568abe0000000000000000000000000000000000000000000000000000000080825260048201929092523060248201528381604481837f000000000000000000000000000000000000000000000000000000000000000073ffffffffffffffffffffffffffffffffffffffff165af19081156108bc5784916108a8575b505073ffffffffffffffffffffffffffffffffffffffff7f0000000000000000000000000000000000000000000000000000000000000000163b156108a45760405190815260048101919091523060248201528181604481837f000000000000000000000000000000000000000000000000000000000000000073ffffffffffffffffffffffffffffffffffffffff165af1801561089957156102425761088e90611145565b61016357815f610242565b6040513d84823e3d90fd5b8280fd5b6108b190611145565b6108a457825f6107e8565b6040513d86823e3d90fd5b6108d090611145565b6108a457825f610727565b8480fd5b6108e890611145565b6102e957835f6106c1565b6040513d87823e3d90fd5b8580fd5b945090506020843d602011610935575b8161091f60209383611186565b8101031261093157859351905f61065a565b5f80fd5b3d9150610912565b9350506020833d60201161096a575b8161095960209383611186565b81010312610931578492515f6105e5565b3d915061094c565b61097b90611145565b6108a457825f610570565b61098f90611145565b6102e957835f6104d1565b925090506020823d6020116109c9575b816109b760209383611186565b8101031261093157839151905f610411565b3d91506109aa565b935090506020833d602011610a01575b816109ee60209383611186565b81010312610931579151849260206103cc565b3d91506109e1565b6004837fca1c3cbc000000000000000000000000000000000000000000000000000000008152fd5b6004827f3ee5aeb5000000000000000000000000000000000000000000000000000000008152fd5b823573ffffffffffffffffffffffffffffffffffffffff811681036108fe578152602092830192016101d2565b6024837f4e487b710000000000000000000000000000000000000000000000000000000081526041600452fd5b905034610931575f600319360112610931577fffffffff00000000000000000000000000000000000000000000000000000000610af091166111c7565b9073ffffffffffffffffffffffffffffffffffffffff604051927faaabadc50000000000000000000000000000000000000000000000000000000084526020938481600481867f0000000000000000000000000000000000000000000000000000000000000000165afa8015610e8457839286925f92610f44575b5060649060405194859384927f9be2a8840000000000000000000000000000000000000000000000000000000084526004840152336024840152306044840152165afa908115610e84575f91610f0e575b5015610ee6575f5460ff8160a01c16610ebe577fffffffffffffffffffffff00ffffffffffffffffffffffffffffffffffffffff1674010000000000000000000000000000000000000000175f556040517f851c1bb30000000000000000000000000000000000000000000000000000000081527f2d7713890000000000000000000000000000000000000000000000000000000060048201819052937f000000000000000000000000000000000000000000000000000000000000000083168183602481845afa928315610e84575f93610e8f575b50837f00000000000000000000000000000000000000000000000000000000000000001693843b15610931576040517f2f2ff15d000000000000000000000000000000000000000000000000000000008152600481018590523060248201525f81604481838a5af18015610e8457610e71575b50958596865416823b15610e6d5760248792836040519586948593845260048401525af19081156108f3578591610e59575b5050823b15610e0f576040517f36568abe000000000000000000000000000000000000000000000000000000008082526004820193909352306024820152848160448183885af19081156108f3578591610e45575b50506040517fa217fddf0000000000000000000000000000000000000000000000000000000081528181600481875afa9182156108f3578592610e14575b5050823b15610e0f5760405191825260048201523060248201529082908290604490829084905af1801561089957610dff5750f35b610e0890611145565b6100de5780f35b505050fd5b8195508092503d8311610e3e575b610e2c8183611186565b81010312610931578392515f80610dca565b503d610e22565b610e4e90611145565b610e0f57835f610d8c565b610e6290611145565b610e0f57835f610d37565b8680fd5b610e7c919650611145565b5f945f610d05565b6040513d5f823e3d90fd5b9092508181813d8311610eb7575b610ea78183611186565b810103126109315751915f610c92565b503d610e9d565b7fca1c3cbc000000000000000000000000000000000000000000000000000000005f5260045ffd5b7f23dada53000000000000000000000000000000000000000000000000000000005f5260045ffd5b90508381813d8311610f3d575b610f258183611186565b8101031261093157518015158103610931575f610bbc565b503d610f1b565b6064919250610f6890843d8611610f6f575b610f608183611186565b81019061123d565b9190610b6b565b503d610f56565b34610931575f600319360112610931576040517faaabadc500000000000000000000000000000000000000000000000000000000815273ffffffffffffffffffffffffffffffffffffffff6020826004817f000000000000000000000000000000000000000000000000000000000000000085165afa908115610e84576020925f92611007575b5060405191168152f35b61101f919250833d8511610f6f57610f608183611186565b9083610ffd565b34610931575f60031936011261093157602060405173ffffffffffffffffffffffffffffffffffffffff7f0000000000000000000000000000000000000000000000000000000000000000168152f35b34610931576020600319360112610931576004357fffffffff0000000000000000000000000000000000000000000000000000000081168103610931576110be6020916111c7565b604051908152f35b34610931575f60031936011261093157602060405173ffffffffffffffffffffffffffffffffffffffff7f0000000000000000000000000000000000000000000000000000000000000000168152f35b34610931575f6003193601126109315760209073ffffffffffffffffffffffffffffffffffffffff5f54168152f35b67ffffffffffffffff811161115957604052565b7f4e487b71000000000000000000000000000000000000000000000000000000005f52604160045260245ffd5b90601f7fffffffffffffffffffffffffffffffffffffffffffffffffffffffffffffffe0910116810190811067ffffffffffffffff82111761115957604052565b6040517fffffffff0000000000000000000000000000000000000000000000000000000060208201927f00000000000000000000000000000000000000000000000000000000000000008452166040820152602481526060810181811067ffffffffffffffff8211176111595760405251902090565b90816020910312610931575173ffffffffffffffffffffffffffffffffffffffff81168103610931579056fea2646970667358221220af9ff083a28d67ed36b023f4ca0b05ea33e3e5dc407c20a91f546c2d81aaa95764736f6c634300081b0033",
  "linkReferences": {},
  "deployedLinkReferences": {}
}