{
  "_format": "hh-sol-artifact-1",
  "contractName": "ProtocolFeeControllerMigration",
  "sourceName": "contracts/ProtocolFeeControllerMigration.sol",
  "abi": [
    {
      "inputs": [
        {
          "internalType": "contract IVault",
          "name": "_vault",
          "type": "address"
        },
        {
          "internalType": "contract IProtocolFeeController",
          "name": "_newFeeController",
          "type": "address"
        }
      ],
      "stateMutability": "nonpayable",
      "type": "constructor"
    },
    {
      "inputs": [],
      "name": "AlreadyMigrated",
      "type": "error"
    },
    {
      "inputs": [],
      "name": "InvalidFeeController",
      "type": "error"
    },
    {
      "inputs": [],
      "name": "ReentrancyGuardReentrantCall",
      "type": "error"
    },
    {
      "inputs": [],
      "name": "SenderNotAllowed",
      "type": "error"
    },
    {
      "inputs": [],
      "name": "finalizeMigration",
      "outputs": [],
      "stateMutability": "nonpayable",
      "type": "function"
    },
    {
      "inputs": [
        {
          "internalType": "bytes4",
          "name": "selector",
          "type": "bytes4"
        }
      ],
      "name": "getActionId",
      "outputs": [
        {
          "internalType": "bytes32",
          "name": "",
          "type": "bytes32"
        }
      ],
      "stateMutability": "view",
      "type": "function"
    },
    {
      "inputs": [],
      "name": "getAuthorizer",
      "outputs": [
        {
          "internalType": "contract IAuthorizer",
          "name": "",
          "type": "address"
        }
      ],
      "stateMutability": "view",
      "type": "function"
    },
    {
      "inputs": [],
      "name": "getVault",
      "outputs": [
        {
          "internalType": "contract IVault",
          "name": "",
          "type": "address"
        }
      ],
      "stateMutability": "view",
      "type": "function"
    },
    {
      "inputs": [],
      "name": "isMigrationComplete",
      "outputs": [
        {
          "internalType": "bool",
          "name": "",
          "type": "bool"
        }
      ],
      "stateMutability": "view",
      "type": "function"
    },
    {
      "inputs": [
        {
          "internalType": "address[]",
          "name": "pools",
          "type": "address[]"
        }
      ],
      "name": "migratePools",
      "outputs": [],
      "stateMutability": "nonpayable",
      "type": "function"
    },
    {
      "inputs": [],
      "name": "newFeeController",
      "outputs": [
        {
          "internalType": "contract IProtocolFeeController",
          "name": "",
          "type": "address"
        }
      ],
      "stateMutability": "view",
      "type": "function"
    },
    {
      "inputs": [],
      "name": "oldFeeController",
      "outputs": [
        {
          "internalType": "contract IProtocolFeeController",
          "name": "",
          "type": "address"
        }
      ],
      "stateMutability": "view",
      "type": "function"
    },
    {
      "inputs": [],
      "name": "vault",
      "outputs": [
        {
          "internalType": "contract IVault",
          "name": "",
          "type": "address"
        }
      ],
      "stateMutability": "view",
      "type": "function"
    }
  ],
  "bytecode": "0x6101206040818152346101bc5780826114eb80380380916100208285610268565b8339810103126101bc576100338261029f565b610040602080940161029f565b3060805260a0829052825163217cb6f560e21b81526001600160a01b03928381169290918681600481875afa90811561022657908592915f91610230575b5060c0521691845163fbfa77cf60e01b81528681600481875afa90811561022657829186915f916101ed575b5016148015906101e0575b6101d157600492869260e05260018060a01b03195f5416175f5584519283809263aaabadc560e01b82525afa9384156101c7575f9461018a575b5050610100921682525161123791826102b483396080518261118a015260a051828181610ad001528181610f610152610fea015260c05182818161054d015281816105c2015261108a015260e05182818160af0152610bf30152518181816103c10152818161042401528181610482015281816104c3015281816106d80152818161073b01528181610799015281816107db0152610c2e0152f35b9080929450813d83116101c0575b6101a28183610268565b810103126101bc575182811681036101bc57915f806100ef565b5f80fd5b503d610198565b83513d5f823e3d90fd5b63d6f1cb0560e01b5f5260045ffd5b508360c0511683146100b5565b925050508681813d831161021f575b6102068183610268565b810103126101bc5784610219839261029f565b5f6100aa565b503d6101fc565b86513d5f823e3d90fd5b809350888092503d8311610261575b6102498183610268565b810103126101bc5761025b859261029f565b5f61007e565b503d61023f565b601f909101601f19168101906001600160401b0382119082101761028b57604052565b634e487b7160e01b5f52604160045260245ffd5b51906001600160a01b03821682036101bc5756fe6080806040526004361015610012575f80fd5b5f905f358060e01c91826351da116d146110ae575081637ea3a9641461105e578163851c1bb31461100e5781638d928af814610fbe578163aaabadc514610f0e578163b78b608714610a4b57508063b8350e27146100fb578063d7128084146100d65763fbfa77cf14610083575f80fd5b346100d357806003193601126100d357602060405173ffffffffffffffffffffffffffffffffffffffff7f0000000000000000000000000000000000000000000000000000000000000000168152f35b80fd5b50346100d357806003193601126100d35760ff6020915460a01c166040519015158152f35b50346100d35760206003193601126100d35767ffffffffffffffff60043581811161083c573660238201121561083c578060040135918211610a1e578160051b906040519261014d602084018561111e565b8352602460208401928201019036821161087357602401915b8183106109f1575050507f9b779b17422d0df92223018b32b4d1fa46e071723d6817e2486d003becc55f005c6109c95760017f9b779b17422d0df92223018b32b4d1fa46e071723d6817e2486d003becc55f005d815460ff8160a01c166109a1578060ff849260a81c16156102ac575b50805b82518110156102855773ffffffffffffffffffffffffffffffffffffffff808354169060208360051b8601015116813b156102815783916024839260405194859384927f0874327f00000000000000000000000000000000000000000000000000000000845260048401525af190811561027657839161025e575b50506001016101d9565b610267906110dd565b61027257815f610254565b5080fd5b6040513d85823e3d90fd5b8380fd5b50807f9b779b17422d0df92223018b32b4d1fa46e071723d6817e2486d003becc55f005d80f35b8075010000000000000000000000000000000000000000007fffffffffffffffffffff00ffffffffffffffffffffffffffffffffffffffffff73ffffffffffffffffffffffffffffffffffffffff9316178355166040517f851c1bb3000000000000000000000000000000000000000000000000000000008082527f8a3c5c69000000000000000000000000000000000000000000000000000000006004830152602082602481865afa918215610854578492610969575b5060209060246040518095819382527fa93df2a40000000000000000000000000000000000000000000000000000000060048301525afa918215610276578392610932575b5073ffffffffffffffffffffffffffffffffffffffff7f0000000000000000000000000000000000000000000000000000000000000000163b1561083c576040517f2f2ff15d0000000000000000000000000000000000000000000000000000000080825260048201839052306024830152908481604481837f000000000000000000000000000000000000000000000000000000000000000073ffffffffffffffffffffffffffffffffffffffff165af190811561088b57859161091e575b505073ffffffffffffffffffffffffffffffffffffffff7f0000000000000000000000000000000000000000000000000000000000000000163b1561028157604051908152600481018390523060248201528381604481837f000000000000000000000000000000000000000000000000000000000000000073ffffffffffffffffffffffffffffffffffffffff165af190811561085457849161090a575b50506040517f7869ee1800000000000000000000000000000000000000000000000000000000815260208160048173ffffffffffffffffffffffffffffffffffffffff7f0000000000000000000000000000000000000000000000000000000000000000165afa9081156108545784916108d5575b50604051907f55fb76af00000000000000000000000000000000000000000000000000000000825260208260048173ffffffffffffffffffffffffffffffffffffffff7f0000000000000000000000000000000000000000000000000000000000000000165afa91821561088b57859261089a575b5073ffffffffffffffffffffffffffffffffffffffff85541690813b156108965785916024839260405194859384927f8a3c5c6900000000000000000000000000000000000000000000000000000000845260048401525af190811561088b578591610877575b505473ffffffffffffffffffffffffffffffffffffffff1690813b156108735784916024839260405194859384927fa93df2a400000000000000000000000000000000000000000000000000000000845260048401525af190811561085457849161085f575b505073ffffffffffffffffffffffffffffffffffffffff7f0000000000000000000000000000000000000000000000000000000000000000163b1561083c576040517f36568abe0000000000000000000000000000000000000000000000000000000080825260048201929092523060248201528381604481837f000000000000000000000000000000000000000000000000000000000000000073ffffffffffffffffffffffffffffffffffffffff165af1908115610854578491610840575b505073ffffffffffffffffffffffffffffffffffffffff7f0000000000000000000000000000000000000000000000000000000000000000163b1561083c5760405190815260048101919091523060248201528181604481837f000000000000000000000000000000000000000000000000000000000000000073ffffffffffffffffffffffffffffffffffffffff165af1801561083157156101d657610826906110dd565b61027257815f6101d6565b6040513d84823e3d90fd5b8280fd5b610849906110dd565b61083c57825f610780565b6040513d86823e3d90fd5b610868906110dd565b61083c57825f6106bf565b8480fd5b610880906110dd565b61028157835f610659565b6040513d87823e3d90fd5b8580fd5b945090506020843d6020116108cd575b816108b76020938361111e565b810103126108c957859351905f6105f2565b5f80fd5b3d91506108aa565b9350506020833d602011610902575b816108f16020938361111e565b810103126108c9578492515f61057d565b3d91506108e4565b610913906110dd565b61083c57825f610508565b610927906110dd565b61028157835f610469565b925090506020823d602011610961575b8161094f6020938361111e565b810103126108c957839151905f6103a9565b3d9150610942565b935090506020833d602011610999575b816109866020938361111e565b810103126108c957915184926020610364565b3d9150610979565b6004837fca1c3cbc000000000000000000000000000000000000000000000000000000008152fd5b6004827f3ee5aeb5000000000000000000000000000000000000000000000000000000008152fd5b823573ffffffffffffffffffffffffffffffffffffffff8116810361089657815260209283019201610166565b6024837f4e487b710000000000000000000000000000000000000000000000000000000081526041600452fd5b9050346108c9575f6003193601126108c9577fffffffff00000000000000000000000000000000000000000000000000000000610a88911661115f565b9073ffffffffffffffffffffffffffffffffffffffff604051927faaabadc50000000000000000000000000000000000000000000000000000000084526020938481600481867f0000000000000000000000000000000000000000000000000000000000000000165afa8015610e1c57839286925f92610edc575b5060649060405194859384927f9be2a8840000000000000000000000000000000000000000000000000000000084526004840152336024840152306044840152165afa908115610e1c575f91610ea6575b5015610e7e575f5460ff8160a01c16610e56577fffffffffffffffffffffff00ffffffffffffffffffffffffffffffffffffffff1674010000000000000000000000000000000000000000175f556040517f851c1bb30000000000000000000000000000000000000000000000000000000081527f2d7713890000000000000000000000000000000000000000000000000000000060048201819052937f000000000000000000000000000000000000000000000000000000000000000083168183602481845afa928315610e1c575f93610e27575b50837f00000000000000000000000000000000000000000000000000000000000000001693843b156108c9576040517f2f2ff15d000000000000000000000000000000000000000000000000000000008152600481018590523060248201525f81604481838a5af18015610e1c57610e09575b50958596865416823b15610e055760248792836040519586948593845260048401525af190811561088b578591610df1575b5050823b15610da7576040517f36568abe000000000000000000000000000000000000000000000000000000008082526004820193909352306024820152848160448183885af190811561088b578591610ddd575b50506040517fa217fddf0000000000000000000000000000000000000000000000000000000081528181600481875afa91821561088b578592610dac575b5050823b15610da75760405191825260048201523060248201529082908290604490829084905af1801561083157610d975750f35b610da0906110dd565b6100d35780f35b505050fd5b8195508092503d8311610dd6575b610dc4818361111e565b810103126108c9578392515f80610d62565b503d610dba565b610de6906110dd565b610da757835f610d24565b610dfa906110dd565b610da757835f610ccf565b8680fd5b610e149196506110dd565b5f945f610c9d565b6040513d5f823e3d90fd5b9092508181813d8311610e4f575b610e3f818361111e565b810103126108c95751915f610c2a565b503d610e35565b7fca1c3cbc000000000000000000000000000000000000000000000000000000005f5260045ffd5b7f23dada53000000000000000000000000000000000000000000000000000000005f5260045ffd5b90508381813d8311610ed5575b610ebd818361111e565b810103126108c9575180151581036108c9575f610b54565b503d610eb3565b6064919250610f0090843d8611610f07575b610ef8818361111e565b8101906111d5565b9190610b03565b503d610eee565b346108c9575f6003193601126108c9576040517faaabadc500000000000000000000000000000000000000000000000000000000815273ffffffffffffffffffffffffffffffffffffffff6020826004817f000000000000000000000000000000000000000000000000000000000000000085165afa908115610e1c576020925f92610f9f575b5060405191168152f35b610fb7919250833d8511610f0757610ef8818361111e565b9083610f95565b346108c9575f6003193601126108c957602060405173ffffffffffffffffffffffffffffffffffffffff7f0000000000000000000000000000000000000000000000000000000000000000168152f35b346108c95760206003193601126108c9576004357fffffffff00000000000000000000000000000000000000000000000000000000811681036108c95761105660209161115f565b604051908152f35b346108c9575f6003193601126108c957602060405173ffffffffffffffffffffffffffffffffffffffff7f0000000000000000000000000000000000000000000000000000000000000000168152f35b346108c9575f6003193601126108c95760209073ffffffffffffffffffffffffffffffffffffffff5f54168152f35b67ffffffffffffffff81116110f157604052565b7f4e487b71000000000000000000000000000000000000000000000000000000005f52604160045260245ffd5b90601f7fffffffffffffffffffffffffffffffffffffffffffffffffffffffffffffffe0910116810190811067ffffffffffffffff8211176110f157604052565b6040517fffffffff0000000000000000000000000000000000000000000000000000000060208201927f00000000000000000000000000000000000000000000000000000000000000008452166040820152602481526060810181811067ffffffffffffffff8211176110f15760405251902090565b908160209103126108c9575173ffffffffffffffffffffffffffffffffffffffff811681036108c9579056fea2646970667358221220125bce215259ea60cf119045f492046669f9f38f7080a1ace3863c2eb3a863b464736f6c634300081b0033",
  "linkReferences": {},
  "deployedLinkReferences": {}
}