{
  "_format": "hh-sol-artifact-1",
  "contractName": "WeightedPoolFactory",
  "sourceName": "contracts/WeightedPoolFactory.sol",
  "abi": [
    {
      "inputs": [
        {
          "internalType": "contract IVault",
          "name": "vault",
          "type": "address"
        },
        {
          "internalType": "uint32",
          "name": "pauseWindowDuration",
          "type": "uint32"
        },
        {
          "internalType": "string",
          "name": "factoryVersion",
          "type": "string"
        },
        {
          "internalType": "string",
          "name": "poolVersion",
          "type": "string"
        }
      ],
      "stateMutability": "nonpayable",
      "type": "constructor"
    },
    {
      "inputs": [],
      "name": "Create2EmptyBytecode",
      "type": "error"
    },
    {
      "inputs": [],
      "name": "Create2FailedDeployment",
      "type": "error"
    },
    {
      "inputs": [
        {
          "internalType": "uint256",
          "name": "balance",
          "type": "uint256"
        },
        {
          "internalType": "uint256",
          "name": "needed",
          "type": "uint256"
        }
      ],
      "name": "Create2InsufficientBalance",
      "type": "error"
    },
    {
      "inputs": [],
      "name": "Disabled",
      "type": "error"
    },
    {
      "inputs": [],
      "name": "IndexOutOfBounds",
      "type": "error"
    },
    {
      "inputs": [],
      "name": "PoolPauseWindowDurationOverflow",
      "type": "error"
    },
    {
      "inputs": [],
      "name": "SenderNotAllowed",
      "type": "error"
    },
    {
      "inputs": [],
      "name": "StandardPoolWithCreator",
      "type": "error"
    },
    {
      "anonymous": false,
      "inputs": [],
      "name": "FactoryDisabled",
      "type": "event"
    },
    {
      "anonymous": false,
      "inputs": [
        {
          "indexed": true,
          "internalType": "address",
          "name": "pool",
          "type": "address"
        }
      ],
      "name": "PoolCreated",
      "type": "event"
    },
    {
      "inputs": [
        {
          "internalType": "string",
          "name": "name",
          "type": "string"
        },
        {
          "internalType": "string",
          "name": "symbol",
          "type": "string"
        },
        {
          "components": [
            {
              "internalType": "contract IERC20",
              "name": "token",
              "type": "address"
            },
            {
              "internalType": "enum TokenType",
              "name": "tokenType",
              "type": "uint8"
            },
            {
              "internalType": "contract IRateProvider",
              "name": "rateProvider",
              "type": "address"
            },
            {
              "internalType": "bool",
              "name": "paysYieldFees",
              "type": "bool"
            }
          ],
          "internalType": "struct TokenConfig[]",
          "name": "tokens",
          "type": "tuple[]"
        },
        {
          "internalType": "uint256[]",
          "name": "normalizedWeights",
          "type": "uint256[]"
        },
        {
          "components": [
            {
              "internalType": "address",
              "name": "pauseManager",
              "type": "address"
            },
            {
              "internalType": "address",
              "name": "swapFeeManager",
              "type": "address"
            },
            {
              "internalType": "address",
              "name": "poolCreator",
              "type": "address"
            }
          ],
          "internalType": "struct PoolRoleAccounts",
          "name": "roleAccounts",
          "type": "tuple"
        },
        {
          "internalType": "uint256",
          "name": "swapFeePercentage",
          "type": "uint256"
        },
        {
          "internalType": "address",
          "name": "poolHooksContract",
          "type": "address"
        },
        {
          "internalType": "bool",
          "name": "enableDonation",
          "type": "bool"
        },
        {
          "internalType": "bool",
          "name": "disableUnbalancedLiquidity",
          "type": "bool"
        },
        {
          "internalType": "bytes32",
          "name": "salt",
          "type": "bytes32"
        }
      ],
      "name": "create",
      "outputs": [
        {
          "internalType": "address",
          "name": "pool",
          "type": "address"
        }
      ],
      "stateMutability": "nonpayable",
      "type": "function"
    },
    {
      "inputs": [],
      "name": "disable",
      "outputs": [],
      "stateMutability": "nonpayable",
      "type": "function"
    },
    {
      "inputs": [
        {
          "internalType": "bytes4",
          "name": "selector",
          "type": "bytes4"
        }
      ],
      "name": "getActionId",
      "outputs": [
        {
          "internalType": "bytes32",
          "name": "",
          "type": "bytes32"
        }
      ],
      "stateMutability": "view",
      "type": "function"
    },
    {
      "inputs": [],
      "name": "getAuthorizer",
      "outputs": [
        {
          "internalType": "contract IAuthorizer",
          "name": "",
          "type": "address"
        }
      ],
      "stateMutability": "view",
      "type": "function"
    },
    {
      "inputs": [],
      "name": "getDefaultLiquidityManagement",
      "outputs": [
        {
          "components": [
            {
              "internalType": "bool",
              "name": "disableUnbalancedLiquidity",
              "type": "bool"
            },
            {
              "internalType": "bool",
              "name": "enableAddLiquidityCustom",
              "type": "bool"
            },
            {
              "internalType": "bool",
              "name": "enableRemoveLiquidityCustom",
              "type": "bool"
            },
            {
              "internalType": "bool",
              "name": "enableDonation",
              "type": "bool"
            }
          ],
          "internalType": "struct LiquidityManagement",
          "name": "liquidityManagement",
          "type": "tuple"
        }
      ],
      "stateMutability": "pure",
      "type": "function"
    },
    {
      "inputs": [],
      "name": "getDefaultPoolHooksContract",
      "outputs": [
        {
          "internalType": "address",
          "name": "",
          "type": "address"
        }
      ],
      "stateMutability": "pure",
      "type": "function"
    },
    {
      "inputs": [
        {
          "internalType": "bytes",
          "name": "constructorArgs",
          "type": "bytes"
        },
        {
          "internalType": "bytes32",
          "name": "salt",
          "type": "bytes32"
        }
      ],
      "name": "getDeploymentAddress",
      "outputs": [
        {
          "internalType": "address",
          "name": "",
          "type": "address"
        }
      ],
      "stateMutability": "view",
      "type": "function"
    },
    {
      "inputs": [],
      "name": "getNewPoolPauseWindowEndTime",
      "outputs": [
        {
          "internalType": "uint32",
          "name": "",
          "type": "uint32"
        }
      ],
      "stateMutability": "view",
      "type": "function"
    },
    {
      "inputs": [],
      "name": "getOriginalPauseWindowEndTime",
      "outputs": [
        {
          "internalType": "uint32",
          "name": "",
          "type": "uint32"
        }
      ],
      "stateMutability": "view",
      "type": "function"
    },
    {
      "inputs": [],
      "name": "getPauseWindowDuration",
      "outputs": [
        {
          "internalType": "uint32",
          "name": "",
          "type": "uint32"
        }
      ],
      "stateMutability": "view",
      "type": "function"
    },
    {
      "inputs": [],
      "name": "getPoolCount",
      "outputs": [
        {
          "internalType": "uint256",
          "name": "",
          "type": "uint256"
        }
      ],
      "stateMutability": "view",
      "type": "function"
    },
    {
      "inputs": [],
      "name": "getPoolVersion",
      "outputs": [
        {
          "internalType": "string",
          "name": "",
          "type": "string"
        }
      ],
      "stateMutability": "view",
      "type": "function"
    },
    {
      "inputs": [],
      "name": "getPools",
      "outputs": [
        {
          "internalType": "address[]",
          "name": "",
          "type": "address[]"
        }
      ],
      "stateMutability": "view",
      "type": "function"
    },
    {
      "inputs": [
        {
          "internalType": "uint256",
          "name": "start",
          "type": "uint256"
        },
        {
          "internalType": "uint256",
          "name": "count",
          "type": "uint256"
        }
      ],
      "name": "getPoolsInRange",
      "outputs": [
        {
          "internalType": "address[]",
          "name": "pools",
          "type": "address[]"
        }
      ],
      "stateMutability": "view",
      "type": "function"
    },
    {
      "inputs": [],
      "name": "getVault",
      "outputs": [
        {
          "internalType": "contract IVault",
          "name": "",
          "type": "address"
        }
      ],
      "stateMutability": "view",
      "type": "function"
    },
    {
      "inputs": [],
      "name": "isDisabled",
      "outputs": [
        {
          "internalType": "bool",
          "name": "",
          "type": "bool"
        }
      ],
      "stateMutability": "view",
      "type": "function"
    },
    {
      "inputs": [
        {
          "internalType": "address",
          "name": "pool",
          "type": "address"
        }
      ],
      "name": "isPoolFromFactory",
      "outputs": [
        {
          "internalType": "bool",
          "name": "",
          "type": "bool"
        }
      ],
      "stateMutability": "view",
      "type": "function"
    },
    {
      "inputs": [],
      "name": "version",
      "outputs": [
        {
          "internalType": "string",
          "name": "",
          "type": "string"
        }
      ],
      "stateMutability": "view",
      "type": "function"
    }
  ],
  "bytecode": "0x6101006040523461042b5761617c8038038061001a8161042f565b928339810160808282031261042b578151916001600160a01b038316830361042b57602092838201519363ffffffff8086169586810361042b5760408501516001600160401b03959086811161042b5787610076918301610454565b96606082015187811161042b5761008d9201610454565b966146439461009d85870161042f565b95808752611b39868801393060805260a052420190814211610417578282116104085760c0521660e052815193838511610366576003946100de86546104a5565b93601f948581116103dc575b50839085831160011461037a5761011892915f9183610217575b50508160011b915f199060031b1c19161790565b85555b80518481116103665760049161013183546104a5565b858111610330575b5083908583116001146102ce5761016692915f91836102175750508160011b915f199060031b1c19161790565b81555b85519384116102bb575060059361018085546104a5565b838111610287575b508192841160011461022257505081906101b793945f926102175750508160011b915f199060031b1c19161790565b90555b60405161164590816104f4823960805181611504015260a05181818161044101528181610591015281816106b6015281816109c201528181610a780152610fdf015260c05181610b08015260e051818181610923015261157d0152f35b015190505f80610104565b9091601f19841695855f52835f20935f905b88821061026f575050846001969710610256575b50505050811b0190556101ba565b01519060f8845f19921b161c191690555f808080610248565b80600185978294968601518155019601930190610234565b6102ac90865f52835f2085808801891c8201928689106102b2575b01881c01906104dd565b5f610188565b925081926102a2565b604190634e487b7160e01b5f525260245ffd5b90601f19831691845f52855f20925f5b8782821061031a575050908460019594939210610303575b505050811b018155610169565b01515f19838a1b60f8161c191690555f80806102f6565b60018596829396860151815501950193016102de565b61035790845f52855f208780860160051c82019288871061035d575b0160051c01906104dd565b5f610139565b9250819261034c565b634e487b7160e01b5f52604160045260245ffd5b90601f19831691885f52855f20925f5b878282106103c65750509084600195949392106103af575b505050811b01855561011b565b01515f19838a1b60f8161c191690555f80806103a2565b600185968293968601518155019501930161038a565b61040290885f52855f208780860160051c82019288871061035d570160051c01906104dd565b5f6100ea565b6368755a1160e01b5f5260045ffd5b634e487b7160e01b5f52601160045260245ffd5b5f80fd5b6040519190601f01601f191682016001600160401b0381118382101761036657604052565b81601f8201121561042b578051906001600160401b03821161036657610483601f8301601f191660200161042f565b928284526020838301011161042b57815f9260208093018386015e8301015290565b90600182811c921680156104d3575b60208310146104bf57565b634e487b7160e01b5f52602260045260245ffd5b91607f16916104b4565b8181106104e8575050565b5f81556001016104dd56fe60806040526004361015610011575f80fd5b5f358060e01c908163193ad50f146111255781632f2770db14610f5e575080633f819b6f14610f2f57806344f6fec714610e7557806353a72f7e14610d1757806354fd4d5014610c395780636634b75314610bed578063673a2a1f14610b4e5780636c57f5a914610b2c57806378da80cb14610aec578063851c1bb314610a9c5780638d928af814610a4c5780638eec5d7014610a2f578063aaabadc51461096f578063db035ebc14610947578063e9d56e1914610907578063ec888061146108ed5763fed4cdda146100e2575f80fd5b346107ec576101806003193601126107ec5760043567ffffffffffffffff81116107ec5761011490369060040161126f565b60243567ffffffffffffffff81116107ec5761013490369060040161126f565b6044359167ffffffffffffffff83116107ec57366023840112156107ec578260040135906101618261128d565b9361016f60405195866111b5565b82855260208501906024829460071b820101903682116107ec57602401915b8183106108695750505060643567ffffffffffffffff81116107ec57366023820112156107ec578060040135906101c48261128d565b916101d260405193846111b5565b8083526024602084019160051b830101913683116107ec57602401905b8282106108595750505060607fffffffffffffffffffffffffffffffffffffffffffffffffffffffffffffff7c3601126107ec57604051936060850185811067ffffffffffffffff8211176107085760405260843573ffffffffffffffffffffffffffffffffffffffff811681036107ec57855260a43573ffffffffffffffffffffffffffffffffffffffff811681036107ec57602086015260c43573ffffffffffffffffffffffffffffffffffffffff811681036107ec576040860152610104359173ffffffffffffffffffffffffffffffffffffffff831683036107ec57610124359384151585036107ec576101443580151581036107ec576102f26112a5565b951515606087015215158552875191604051918260a081011067ffffffffffffffff60a0850111176107085790829160a06103a696959401604052825260208201938452604082019283526060820190815261034c61131a565b608083015260405194859460406020870152610375845160a06060890152610100880190611174565b90517fffffffffffffffffffffffffffffffffffffffffffffffffffffffffffffffa0878303016080880152611174565b925160a085015251917fffffffffffffffffffffffffffffffffffffffffffffffffffffffffffffffa08482030160c0850152602080845192838152019301905f5b8181106108405750505090608061042a9201517fffffffffffffffffffffffffffffffffffffffffffffffffffffffffffffffa08483030160e0850152611174565b73ffffffffffffffffffffffffffffffffffffffff7f0000000000000000000000000000000000000000000000000000000000000000166040830152039061047a601f19928381018352826111b5565b6104aa6040519283602080820194610491866113de565b90805192839101825e015f8152039081018452836111b5565b6104b6610164356115e6565b908251156108185773ffffffffffffffffffffffffffffffffffffffff9251905ff5169384156107f0576104e86115b2565b845f525f60205260405f20600160ff1982541617905560015468010000000000000000811015610708578060016105229201600155611477565b81549060031b9073ffffffffffffffffffffffffffffffffffffffff88831b921b191617905560405195857f83a48fbcfc991335314e74d0496aab6a1987e992ddc85dddbcc4d6dd6ef2e9fc5f80a261057961157b565b9073ffffffffffffffffffffffffffffffffffffffff7f0000000000000000000000000000000000000000000000000000000000000000163b156107ec57908794959392917feeec802f0000000000000000000000000000000000000000000000000000000086526101a48601908860048801526101a06024880152518091526101c4860194905f5b818110610740575050509473ffffffffffffffffffffffffffffffffffffffff85949381604061069c9563ffffffff5f9b60e43560448c01521660648a01528a60848a01528281511660a48a01528260208201511660c48a015201511660e4870152166101048501526101248401906060809180511515845260208101511515602085015260408101511515604085015201511515910152565b03818373ffffffffffffffffffffffffffffffffffffffff7f0000000000000000000000000000000000000000000000000000000000000000165af18015610735576106ee575b602090604051908152f35b67ffffffffffffffff8211610708576020916040526106e3565b7f4e487b71000000000000000000000000000000000000000000000000000000005f52604160045260245ffd5b6040513d5f823e3d90fd5b91809897509590929394955173ffffffffffffffffffffffffffffffffffffffff815116825260208101519060028210156107bf5782606060809260209485600197015273ffffffffffffffffffffffffffffffffffffffff604082015116604084015201511515606082015201980191019189969795949392610602565b7f4e487b71000000000000000000000000000000000000000000000000000000005f52602160045260245ffd5b5f80fd5b7f741752c2000000000000000000000000000000000000000000000000000000005f5260045ffd5b7f4ca249dc000000000000000000000000000000000000000000000000000000005f5260045ffd5b82518552869550602094850194909201916001016103e8565b81358152602091820191016101ef565b6080833603126107ec576040519061088082611199565b73ffffffffffffffffffffffffffffffffffffffff843581811681036107ec578352602085013560028110156107ec576020840152604085013590811681036107ec576040830152606090818501359283151584036107ec5760809360209382015281520192019161018e565b346107ec575f6003193601126107ec5760206040515f8152f35b346107ec575f6003193601126107ec57602060405163ffffffff7f0000000000000000000000000000000000000000000000000000000000000000168152f35b346107ec575f6003193601126107ec57602061096161157b565b63ffffffff60405191168152f35b346107ec575f6003193601126107ec576040517faaabadc500000000000000000000000000000000000000000000000000000000815273ffffffffffffffffffffffffffffffffffffffff6020826004817f000000000000000000000000000000000000000000000000000000000000000085165afa908115610735576020925f92610a00575b5060405191168152f35b610a21919250833d8511610a28575b610a1981836111b5565b81019061154f565b90836109f6565b503d610a0f565b346107ec575f6003193601126107ec576020600154604051908152f35b346107ec575f6003193601126107ec57602060405173ffffffffffffffffffffffffffffffffffffffff7f0000000000000000000000000000000000000000000000000000000000000000168152f35b346107ec5760206003193601126107ec576004357fffffffff00000000000000000000000000000000000000000000000000000000811681036107ec57610ae46020916114d9565b604051908152f35b346107ec575f6003193601126107ec57602060405163ffffffff7f0000000000000000000000000000000000000000000000000000000000000000168152f35b346107ec575f6003193601126107ec57602060ff600254166040519015158152f35b346107ec575f6003193601126107ec57604051806001916001549283825260208092019360015f527fb10e2d527612073b26eecdfd717e6a320cf44b4afac2b0732d9fcbe2b7fa0cf6925f905b828210610bc257610bbe86610bb2818a03826111b5565b6040519182918261121e565b0390f35b845473ffffffffffffffffffffffffffffffffffffffff168752958601959383019390830190610b9b565b346107ec5760206003193601126107ec5760043573ffffffffffffffffffffffffffffffffffffffff81168091036107ec575f525f602052602060ff60405f2054166040519015158152f35b346107ec575f6003193601126107ec576040516004545f82610c5a836112c9565b91828252602093600190856001821691825f14610cf7575050600114610c9c575b50610c88925003836111b5565b610bbe604051928284938452830190611174565b84915060045f527f8a35acfbc15ff81a39ae7d344fd709f28e8600b4aa8c65c6b64bfe7fe36bd19b905f915b858310610cdf575050610c88935082010185610c7b565b80548389018501528794508693909201918101610cc8565b60ff191685820152610c8895151560051b8501019250879150610c7b9050565b346107ec5760406003193601126107ec576004356024803560019260015480821015610e4d5780610d48848461146a565b11610e0c575b50610d588261128d565b92610d6660405194856111b5565b828452610d728361128d565b91601f19602093013660208701375f5b848110610d975760405180610bbe888261121e565b610da9610da4828461146a565b611477565b9054908751831015610de05760031b1c73ffffffffffffffffffffffffffffffffffffffff16600582901b87018501528601610d82565b847f4e487b71000000000000000000000000000000000000000000000000000000005f5260326004525ffd5b908092508103908111610e20579084610d4e565b7f4e487b71000000000000000000000000000000000000000000000000000000005f52601160045260245ffd5b7f4e23d035000000000000000000000000000000000000000000000000000000005f5260045ffd5b346107ec5760406003193601126107ec5760043567ffffffffffffffff81116107ec57366023820112156107ec576055600b610ebd60209336906024816004013591016111d8565b604051610eed818680820194610ed2866113de565b90805192839101825e015f815203601f1981018352826111b5565b519020610efb6024356115e6565b604051916040830152848201523081520160ff81532073ffffffffffffffffffffffffffffffffffffffff60405191168152f35b346107ec575f6003193601126107ec57610bbe610f4a61131a565b604051918291602083526020830190611174565b346107ec575f6003193601126107ec577fffffffff00000000000000000000000000000000000000000000000000000000610f9991166114d9565b73ffffffffffffffffffffffffffffffffffffffff6040517faaabadc50000000000000000000000000000000000000000000000000000000081526020928382600481867f0000000000000000000000000000000000000000000000000000000000000000165afa9081156107355784925f92611103575b5060649060405194859384927f9be2a8840000000000000000000000000000000000000000000000000000000084526004840152336024840152306044840152165afa918215610735575f926110cc575b5050156110a4576110716115b2565b600160ff1960025416176002557f432acbfd662dbb5d8b378384a67159b47ca9d0f1b79f97cf64cf8585fa362d505f80a1005b7f23dada53000000000000000000000000000000000000000000000000000000005f5260045ffd5b90809250813d83116110fc575b6110e381836111b5565b810103126107ec575180151581036107ec578180611062565b503d6110d9565b606491925061111e90843d8611610a2857610a1981836111b5565b9190611011565b346107ec575f6003193601126107ec57608061113f6112a5565b61117260405180926060809180511515845260208101511515602085015260408101511515604085015201511515910152565bf35b90601f19601f602080948051918291828752018686015e5f8582860101520116010190565b6080810190811067ffffffffffffffff82111761070857604052565b90601f601f19910116810190811067ffffffffffffffff82111761070857604052565b92919267ffffffffffffffff821161070857604051916112026020601f19601f84011601846111b5565b8294818452818301116107ec578281602093845f960137010152565b60209060206040818301928281528551809452019301915f5b828110611245575050505090565b835173ffffffffffffffffffffffffffffffffffffffff1685529381019392810192600101611237565b9080601f830112156107ec5781602061128a933591016111d8565b90565b67ffffffffffffffff81116107085760051b60200190565b604051906112b282611199565b5f6060838281528260208201528260408201520152565b90600182811c92168015611310575b60208310146112e357565b7f4e487b71000000000000000000000000000000000000000000000000000000005f52602260045260245ffd5b91607f16916112d8565b604051905f826005549161132d836112c9565b808352926020906001908181169081156113b9575060011461135a575b5050611358925003836111b5565b565b91509260055f527f036b6384b5eca791c62761152d0c79bb0604c104a5fb6f4eb0703f3154bb3db0935f925b8284106113a157506113589450505081016020015f8061134a565b85548885018301529485019487945092810192611386565b90506020935061135895925060ff1991501682840152151560051b8201015f8061134a565b6003545f92916113ed826112c9565b91600190818116908115611457575060011461140857505050565b909192935060035f527fc2575a0e9e593c00f959f8c92f12db2869c3395a3b0502d05e2516446f71f85b905f915b848310611444575050500190565b8181602092548587015201920191611436565b60ff191683525050811515909102019150565b91908201809211610e2057565b6001548110156114ac5760015f527fb10e2d527612073b26eecdfd717e6a320cf44b4afac2b0732d9fcbe2b7fa0cf601905f90565b7f4e487b71000000000000000000000000000000000000000000000000000000005f52603260045260245ffd5b6040517fffffffff0000000000000000000000000000000000000000000000000000000060208201927f00000000000000000000000000000000000000000000000000000000000000008452166040820152602481526060810181811067ffffffffffffffff8211176107085760405251902090565b908160209103126107ec575173ffffffffffffffffffffffffffffffffffffffff811681036107ec5790565b7f000000000000000000000000000000000000000000000000000000000000000063ffffffff81164210156115ad5790565b505f90565b60ff600254166115be57565b7f75884cda000000000000000000000000000000000000000000000000000000005f5260045ffd5b604051602081019133835246604083015260608201526060815261160981611199565b5190209056fea26469706673582212208f161342a59821cfe8bcf58b3a2e65ee6e23527ad9e05d36bd40767f1f181b5064736f6c634300081b00336102c080604052346108e157614643803803809161001d82856108f5565b833981016040828203126108e15781516001600160401b0381116108e15782019160a0838303126108e1576040519160a083016001600160401b038111848210176107105760405283516001600160401b0381116108e15781610081918601610918565b835260208401516001600160401b0381116108e157816100a2918601610918565b602084019081526040808601519085015260608501519094906001600160401b0381116108e157810182601f820112156108e1578051906001600160401b038211610710578160051b604051926100fc60208301856108f5565b8352602080840191830101918583116108e157602001905b8282106108e55750505060608501526080810151916001600160401b0383116108e1576020926101449201610918565b608084018190529101516001600160a01b03811681036108e15782519351604080519195919081016001600160401b03811182821017610710576040526001815260208101603160f81b81526101998361096d565b610120526101a682610af0565b6101405282516020840120918260e05251902080610100524660a0526040519060208201927f8b73c3c69bb8fe3d512ecc4cf759cc79239f7b179b0ffacaa9a75d522b39400f8452604083015260608201524660808201523060a082015260a0815260c0810181811060018060401b03821117610710576040525190206080523060c0526101608290528051906001600160401b0382116107105760035490600182811c921680156108d7575b60208310146106f25781601f84931161087f575b50602090601f831160011461080a575f926107ff575b50508160011b915f199060031b1c1916176003555b83516001600160401b03811161071057600454600181811c911680156107f5575b60208210146106f257601f8111610796575b506020601f821160011461072f5781929394955f92610724575b50508160011b915f199060031b1c1916176004555b610180528051906001600160401b0382116107105760055490600182811c92168015610706575b60208310146106f25781601f8493116106a4575b50602090601f831160011461061c575f92610611575b50508160011b915f199060031b1c1916176005555b60408101516101a09080825260608301515103610602575f905f5b81519260ff821693841015610494576060850151805185101561048057602090611fe08460051b1601015190662386f26fc100008210610471578181018091116103d95793806103ed57506101c0525b60ff8091169081146103d957600101610375565b634e487b7160e01b5f52601160045260245ffd5b600181036103ff57506101e0526103c5565b600281036104115750610200526103c5565b600381036104235750610220526103c5565b600481036104355750610240526103c5565b600581036104475750610260526103c5565b600681036104595750610280526103c5565b600714610467575b506103c5565b6102a0525f610461565b63bd39358360e01b5f5260045ffd5b634e487b7160e01b5f52603260045260245ffd5b670de0b6b3a76400009150036105f3576040516139fc9182610c27833960805182612806015260a051826128d2015260c051826127d7015260e051826128550152610100518261287b0152610120518261112801526101405182611152015261016051828181610260015281816104880152818161065f01528181610d7e015281816110ed015281816114ae01528181611733015281816119d801528181612118015261276c01526101805182818161059d0152818161094a01528181610a1201528181610c7a0152611277015251816128fa01526101c0518181816125d2015261295101526101e0518181816125ff015261297e01526102005181818161262c01526129b701526102205181818161265901526129f00152610240518181816126860152612a2a0152610260518181816126b30152612a630152610280518181816126e00152612a9f01526102a05181818161270b0152612ad90152f35b631ce788a760e11b5f5260045ffd5b63aaad13f760e01b5f5260045ffd5b015190505f80610345565b60055f90815293507f036b6384b5eca791c62761152d0c79bb0604c104a5fb6f4eb0703f3154bb3db091905b601f1984168510610689576001945083601f19811610610671575b505050811b0160055561035a565b01515f1960f88460031b161c191690555f8080610663565b81810151835560209485019460019093019290910190610648565b90915060055f5260205f20601f840160051c8101602085106106eb575b90849392915b601f830160051c820181106106dd57505061032f565b5f81558594506001016106c7565b50806106c1565b634e487b7160e01b5f52602260045260245ffd5b91607f169161031b565b634e487b7160e01b5f52604160045260245ffd5b015190505f806102df565b60045f5260205f20905f5b601f198416811061077e575060019394959683601f19811610610766575b505050811b016004556102f4565b01515f1960f88460031b161c191690555f8080610758565b9091602060018192858b01518155019301910161073a565b60045f527f8a35acfbc15ff81a39ae7d344fd709f28e8600b4aa8c65c6b64bfe7fe36bd19b601f830160051c8101602084106107ee575b601f830160051c820181106107e35750506102c5565b5f81556001016107cd565b50806107cd565b90607f16906102b3565b015190505f8061027d565b60035f90815293505f5160206146235f395f51905f5291905b601f1984168510610864576001945083601f1981161061084c575b505050811b01600355610292565b01515f1960f88460031b161c191690555f808061083e565b81810151835560209485019460019093019290910190610823565b60035f529091505f5160206146235f395f51905f52601f840160051c8101602085106108d0575b90849392915b601f830160051c820181106108c2575050610267565b5f81558594506001016108ac565b50806108a6565b91607f1691610253565b5f80fd5b8151815260209182019101610114565b601f909101601f19168101906001600160401b0382119082101761071057604052565b81601f820112156108e1578051906001600160401b038211610710576040519261094c601f8401601f1916602001856108f5565b828452602083830101116108e157815f9260208093018386015e8301015290565b8051602090818110156109e35750601f8251116109a5578082519201519080831061099757501790565b825f19910360031b1b161790565b60448260405192839163305a27a960e01b83528160048401528051918291826024860152018484015e5f828201840152601f01601f19168101030190fd5b906001600160401b038211610710575f54926001938481811c91168015610ae6575b838210146106f257601f8111610ab3575b5081601f8411600114610a5157509282939183925f94610a46575b50501b915f199060031b1c1916175f5560ff90565b015192505f80610a31565b919083601f1981165f8052845f20945f905b88838310610a995750505010610a81575b505050811b015f5560ff90565b01515f1960f88460031b161c191690555f8080610a74565b858701518855909601959485019487935090810190610a63565b5f805284601f845f20920160051c820191601f860160051c015b828110610adb575050610a16565b5f8155018590610acd565b90607f1690610a05565b805160209081811015610b1a5750601f8251116109a5578082519201519080831061099757501790565b9192916001600160401b0381116107105760019182548381811c91168015610c1c575b828210146106f257601f8111610be9575b5080601f8311600114610b895750819293945f92610b7e575b50505f19600383901b1c191690821b17905560ff90565b015190505f80610b67565b90601f19831695845f52825f20925f905b888210610bd25750508385969710610bba575b505050811b01905560ff90565b01515f1960f88460031b161c191690555f8080610bad565b808785968294968601518155019501930190610b9a565b835f5283601f835f20920160051c820191601f850160051c015b828110610c11575050610b4e565b5f8155018490610c03565b90607f1690610b3d56fe6080604090808252600480361015610015575f80fd5b60e05f35811c92836301ffc9a714611d905750826306fdde0314611ce1578263095ea7b314611c6357826316a0b3e014611a2a57826318160ddd14611a0e57826323b872dd1461196657826323de665114611934578263273c1adf1461191257826330adf81f146118d8578263313ce567146118bd5782633644e515146118a157826353b79bd7146116e557826354fd4d50146115f55782635687f2b814611596578263627cdcb91461156d578263654cf15d1461154b578263679aefce1461151457826370a082311461144057826372c981861461131f5782637ecebe00146112db57826381fa807c1461121a57826384b0196e146111115782638d928af8146110c157826395d89b4114610fbb578263984de9e814610df9578263a9059cbb14610ce6578263aa6ca80814610c21578263abb1dc44146109b8578263b156aa0a146108f1578263b677fa56146108cf578263c0bc6f33146105f6578263ce20ece7146105d6578263d335b0cf14610543578263d505accf146102d857508163dd62ed3e146101e5575063f89f27ed146101ae575f80fd5b346101e1575f6003193601126101e1576101dd906101ca6128f8565b9051918291602083526020830190611fa7565b0390f35b5f80fd5b82346101e157806003193601126101e1576020610200611e1c565b606461020a611e3f565b9473ffffffffffffffffffffffffffffffffffffffff808097875198899687957f927da10500000000000000000000000000000000000000000000000000000000875230908701521660248501521660448301527f0000000000000000000000000000000000000000000000000000000000000000165afa9081156102cf575f9161029a575b6020925051908152f35b90506020823d6020116102c7575b816102b560209383611eca565b810103126101e1576020915190610290565b3d91506102a8565b513d5f823e3d90fd5b8390346101e1576003193601126101e1576102f1611e1c565b906102fa611e3f565b604435926084359060643560ff831683036101e157804211610519576103478273ffffffffffffffffffffffffffffffffffffffff165f52600260205260405f2080549060018201905590565b9061041361040a875195602087017f6e71edae12b1b97f4d1f60370fef10105fa2faae0126114a169c64845d6126c9815273ffffffffffffffffffffffffffffffffffffffff97889586891697888d840152878c1660608401528d608084015260a083015260c082015260c081526103be81611e92565b5190206103c96127c0565b908a51917f190100000000000000000000000000000000000000000000000000000000000083526002830152602282015260c43591604260a4359220612ed8565b90929192612f67565b168181036104ec5750505f84959661048460209651988996879586947fe1f21c67000000000000000000000000000000000000000000000000000000008652850160409194939294606082019573ffffffffffffffffffffffffffffffffffffffff80921683521660208201520152565b03927f0000000000000000000000000000000000000000000000000000000000000000165af19081156102cf57506104b857005b6020813d6020116104e4575b816104d160209383611eca565b810103126101e1576104e290612079565b005b3d91506104c4565b877f4b800e46000000000000000000000000000000000000000000000000000000005f525260245260445ffd5b867f62791302000000000000000000000000000000000000000000000000000000005f525260245ffd5b5082346101e1575f6003193601126101e1578051917fb45090f9000000000000000000000000000000000000000000000000000000008352309083015260208260248173ffffffffffffffffffffffffffffffffffffffff7f0000000000000000000000000000000000000000000000000000000000000000165afa9081156102cf575f9161029a576020925051908152f35b83346101e1575f6003193601126101e157602090516509184e72a0008152f35b9150346101e1575f6003193601126101e157825161061381611e92565b606081526020918282019160608352858101925f8452606082015f815260808301915f835260a08401935f855260c08101955f875273ffffffffffffffffffffffffffffffffffffffff7f000000000000000000000000000000000000000000000000000000000000000016908b517f535cfd8a00000000000000000000000000000000000000000000000000000000815230828201525f81602481865afa90811561087f575f916108ad575b5083528b517f7e361bde00000000000000000000000000000000000000000000000000000000815230828201525f81602481865afa90811561087f575f91610889575b5084528b517fb45090f900000000000000000000000000000000000000000000000000000000815230828201528a81602481865afa90811561087f575f91610852575b5089526107516120cf565b85528b519182917ff29486a100000000000000000000000000000000000000000000000000000000835230908301528160246101a09485935afa91821561084857928b9c926107e0926107f396955f9e9c9d9e9261081b575b50508a81015115158852610120610100918281015115158b52015115158a5283519d8d8f9e938f948552519301528c0190611fa7565b915190601f198b840301908b0152611fa7565b9551606088015251608087015251151560a086015251151560c0850152511515908301520390f35b61083a9250803d10610841575b6108328183611eca565b810190612482565b5f806107aa565b503d610828565b8c513d5f823e3d90fd5b90508a81813d8311610878575b6108698183611eca565b810103126101e157515f610746565b503d61085f565b8d513d5f823e3d90fd5b6108a591503d805f833e61089d8183611eca565b81019061228d565b90505f610703565b6108c991503d805f833e6108c18183611eca565b8101906125a4565b5f6106c0565b83346101e1575f6003193601126101e157602090516709b6e64a8ec600008152f35b8382346101e1575f6003193601126101e1578151907f535cfd8a00000000000000000000000000000000000000000000000000000000825230908201525f8160248173ffffffffffffffffffffffffffffffffffffffff7f0000000000000000000000000000000000000000000000000000000000000000165afa9081156109ae57916101dd925f92610992575b5051918291602083526020830190611fa7565b6109a79192503d805f833e6108c18183611eca565b908361097f565b82513d5f823e3d90fd5b8382346101e1575f6003193601126101e15773ffffffffffffffffffffffffffffffffffffffff8251917f67e0e07600000000000000000000000000000000000000000000000000000000835230908301525f82602481847f0000000000000000000000000000000000000000000000000000000000000000165afa918215610c17575f935f925f925f95610aed575b5090610a6595949392918151968796608088526080880190611fda565b6020878203818901528080875193848152019601925f905b838210610aa957898803868b015289806101dd8b610a9b8c8c611fa7565b908382036060850152611fa7565b9184989950606086979860019395978397518051610ac681612023565b83528685820151168584015201511515898201520198019201899897969594929391610a7d565b955093509150503d805f853e610b038185611eca565b8301926080818503126101e15780519167ffffffffffffffff928381116101e15785610b30918401612185565b91602095868201518581116101e157820181601f820112156101e157805190610b5882611eed565b98610b6586519a8b611eca565b828a52808a01816060809502840101928584116101e1578201905b838210610bc5575050505050828201518581116101e15781610ba391840161222c565b9460608301519081116101e157610bba920161222c565b919492919386610a48565b84828703126101e157875190610bda82611e62565b825160028110156101e157825283830151908c821682036101e1578285928389950152610c088b8601612079565b8b820152815201910190610b80565b83513d5f823e3d90fd5b8382346101e1575f6003193601126101e1578151907fca4f280300000000000000000000000000000000000000000000000000000000825230908201525f8160248173ffffffffffffffffffffffffffffffffffffffff7f0000000000000000000000000000000000000000000000000000000000000000165afa9081156109ae57916101dd925f92610cc2575b5051918291602083526020830190611fda565b610cdf9192503d805f833e610cd78183611eca565b810190612203565b9083610caf565b5082346101e157806003193601126101e1576020610d6492610d06611e1c565b83517fbeabacc80000000000000000000000000000000000000000000000000000000081523392810192835273ffffffffffffffffffffffffffffffffffffffff909116602083015260243560408301529384918291606090910190565b03815f73ffffffffffffffffffffffffffffffffffffffff7f0000000000000000000000000000000000000000000000000000000000000000165af18015610def57610db5575b6020905160018152f35b6020823d602011610de7575b81610dce60209383611eca565b810103126101e157610de1602092612079565b50610dab565b3d9150610dc1565b50513d5f823e3d90fd5b5082346101e157806003193601126101e157813567ffffffffffffffff81116101e157610e299036908401611f05565b60243560028110156101e157610e3e81612023565b610fb457825b610e4c6128f8565b9080600314610f5f5780600414610ed85780600114610e9557600214610e7f57605184634e487b7160e01b5f525260245ffd5b6020935090610e8d91613012565b905b51908152f35b509092670de0b6b3a764000091828102928184041490151715610ec55750602092610ebf91612b84565b90610e8f565b601190634e487b7160e01b5f525260245ffd5b50925f9190670de0b6b3a76400005b8551841015610f2357610f1b600191610f15610f0387876120bb565b51610f0e888b6120bb565b5190612ba2565b90612c2d565b930192610ee7565b92509350508015610f38576020925090610e8f565b827f26543689000000000000000000000000000000000000000000000000000000005f525ffd5b50925f9190670de0b6b3a76400005b8551841015610f2357670de0b6b3a7640000610fab600192610fa5610f9388886120bb565b51610f9e898c6120bb565b5190612e3f565b90612b71565b04930192610f6e565b6003610e44565b8382346101e1575f6003193601126101e157815191825f8354610fdd81612041565b90818452602095600191876001821691825f1461107c575050600114611020575b5050506101dd9291611011910385611eca565b51928284938452830190611df7565b5f90815286935091907f8a35acfbc15ff81a39ae7d344fd709f28e8600b4aa8c65c6b64bfe7fe36bd19b5b82841061106457505050820101816110116101dd610ffe565b8054848a01860152889550879490930192810161104b565b7fffffffffffffffffffffffffffffffffffffffffffffffffffffffffffffff00168782015293151560051b8601909301935084925061101191506101dd9050610ffe565b83346101e1575f6003193601126101e1576020905173ffffffffffffffffffffffffffffffffffffffff7f0000000000000000000000000000000000000000000000000000000000000000168152f35b9150346101e1575f6003193601126101e15761114c7f0000000000000000000000000000000000000000000000000000000000000000612c4f565b926111767f0000000000000000000000000000000000000000000000000000000000000000612d81565b815192602084019084821067ffffffffffffffff8311176112075750916111e7916101dd949382525f84526111da82519788977f0f0000000000000000000000000000000000000000000000000000000000000089528060208a0152880190611df7565b9186830390870152611df7565b904660608501523060808501525f60a085015283820360c0850152611fa7565b604190634e487b7160e01b5f525260245ffd5b8382346101e1575f6003193601126101e1578151907ff29486a100000000000000000000000000000000000000000000000000000000825230908201526101a090818160248173ffffffffffffffffffffffffffffffffffffffff7f0000000000000000000000000000000000000000000000000000000000000000165afa918215610c17575f926112be575b505060608282015191015182519182526020820152f35b6112d49250803d10610841576108328183611eca565b82806112a7565b83346101e15760206003193601126101e15760209073ffffffffffffffffffffffffffffffffffffffff61130d611e1c565b165f5260028252805f20549051908152f35b8382346101e15760209260031984813601126101e15782359167ffffffffffffffff918284116101e15783360301126101e15783519161135e83611e92565b8084013560028110156101e157835260248101358684015260448101358281116101e15761139190853691840101611f05565b85840152606481013560608401526084810135608084015260a481013573ffffffffffffffffffffffffffffffffffffffff811681036101e15760a084015260c4810135908282116101e1570192366023850112156101e15780840135918211611207575083519061140c86601f19601f8401160183611eca565b80825236602482860101116101e15785815f926024610e8d9701838601378301015260c082015261143b612755565b6122d1565b8382346101e157602091826003193601126101e1578261145e611e1c565b604473ffffffffffffffffffffffffffffffffffffffff9485855196879485937ff7888aec00000000000000000000000000000000000000000000000000000000855230908501521660248301527f0000000000000000000000000000000000000000000000000000000000000000165afa918215610def575f926114e5575b5051908152f35b9091508281813d831161150d575b6114fd8183611eca565b810103126101e1575190836114de565b503d6114f3565b50346101e1575f6003193601126101e1577f18e79a20000000000000000000000000000000000000000000000000000000005f525ffd5b83346101e1575f6003193601126101e1576020905167016345785d8a00008152f35b346101e1575f6003193601126101e157335f908152600260205260409020805460018101909155005b83346101e15760207f8c5be1e5ebec7d5bd14f71427d1e84f3dd0314c0f7b2291e5b200ac8c7c3b9256115c836611f65565b9391946115d3612755565b5193845273ffffffffffffffffffffffffffffffffffffffff908116941692a3005b83346101e1575f6003193601126101e15780516005549091825f61161884612041565b808352602094600190866001821691825f146116a557505060011461164a575b50506101dd9291611011910385611eca565b9085925060055f527f036b6384b5eca791c62761152d0c79bb0604c104a5fb6f4eb0703f3154bb3db0915f925b82841061168d5750505082010181611011611638565b8054848a018601528895508794909301928101611677565b7fffffffffffffffffffffffffffffffffffffffffffffffffffffffffffffff00168682015292151560051b850190920192508391506110119050611638565b5082346101e1575f6003193601126101e15780519061170382611e62565b606082526020908183019160608352818401926060845273ffffffffffffffffffffffffffffffffffffffff95867f0000000000000000000000000000000000000000000000000000000000000000169084517fca4f280300000000000000000000000000000000000000000000000000000000815230828201525f81602481865afa90811561189757905f9291839161187d575b50885260248651809481937f7e361bde00000000000000000000000000000000000000000000000000000000835230908301525afa908115611873575f9161185a575b5081959295526117e96128f8565b84528251948086526080860192519260608288015283518091528160a088019401915f5b8281106118445788806101dd8a8a6118338b8b51601f1993848884030190880152611fa7565b915190848303016060850152611fa7565b83518a168652948101949281019260010161180d565b61186e91503d805f833e61089d8183611eca565b6117db565b84513d5f823e3d90fd5b61189191503d8085833e610cd78183611eca565b8a611798565b86513d5f823e3d90fd5b83346101e1575f6003193601126101e157602090610e8d6127c0565b83346101e1575f6003193601126101e1576020905160128152f35b83346101e1575f6003193601126101e157602090517f6e71edae12b1b97f4d1f60370fef10105fa2faae0126114a169c64845d6126c98152f35b83346101e1575f6003193601126101e157602090516729a2241af62c00008152f35b83346101e15760207fddf252ad1be2c89b69c2b068fc378daa952ba7f163c4a11628f55a4df523b3ef6115c836611f65565b5082346101e15760205f608461197b36611f65565b86517f15dacbea000000000000000000000000000000000000000000000000000000008152339881019890985273ffffffffffffffffffffffffffffffffffffffff928316602489015290821660448801526064870152859283917f0000000000000000000000000000000000000000000000000000000000000000165af18015610def57610db5576020905160018152f35b83346101e1575f6003193601126101e157602090610e8d6120cf565b8382346101e15760606003193601126101e157803567ffffffffffffffff81116101e157611a5b9036908301611f05565b9160243592611a77611a7085604435936120bb565b51946125ca565b60019081831115611c5d5760025b80600314611be75780600414611b4e5780600114611b0c57600214611ab757605185634e487b7160e01b5f525260245ffd5b909192938115611ae65750610e8d9260209592610f15926ec097ce7bc90715b34b9f0fffffffff040190612ba2565b7f0a0c22c7000000000000000000000000000000000000000000000000000000005f525ffd5b5080929394915015611b3b575092610f15610e8d926020956ec097ce7bc90715b34b9f10000000000490612ba2565b601290634e487b7160e01b5f525260245ffd5b509192939080670de0b6b3a7640000935f925b611ba7575b5050508115611b81575092610f15610e8d9260209590612ba2565b7f26543689000000000000000000000000000000000000000000000000000000005f525ffd5b909193670de0b6b3a764000051851015611be1579082611bd98193610f15611bcf89866120bb565b51610f0e8a612086565b950192611b61565b93611b66565b509192939080670de0b6b3a7640000935f925b611c19575050508115611b81575092610f15610e8d9260209590612ba2565b909193670de0b6b3a764000051851015611be1579082670de0b6b3a7640000611c548294610fa5611c4a8a876120bb565b51610f9e8b612086565b04950192611bfa565b81611a85565b5082346101e157806003193601126101e1576020610d6492611c83611e1c565b83517fe1f21c670000000000000000000000000000000000000000000000000000000081523392810192835273ffffffffffffffffffffffffffffffffffffffff909116602083015260243560408301529384918291606090910190565b83346101e1575f6003193601126101e15780516003549091825f611d0484612041565b808352602094600190866001821691825f146116a5575050600114611d355750506101dd9291611011910385611eca565b9085925060035f527fc2575a0e9e593c00f959f8c92f12db2869c3395a3b0502d05e2516446f71f85b915f925b828410611d785750505082010181611011611638565b8054848a018601528895508794909301928101611d62565b82346101e15760206003193601126101e15735907fffffffff0000000000000000000000000000000000000000000000000000000082168092036101e1577f01ffc9a700000000000000000000000000000000000000000000000000000000602092148152f35b90601f19601f602080948051918291828752018686015e5f8582860101520116010190565b6004359073ffffffffffffffffffffffffffffffffffffffff821682036101e157565b6024359073ffffffffffffffffffffffffffffffffffffffff821682036101e157565b6060810190811067ffffffffffffffff821117611e7e57604052565b634e487b7160e01b5f52604160045260245ffd5b60e0810190811067ffffffffffffffff821117611e7e57604052565b6040810190811067ffffffffffffffff821117611e7e57604052565b90601f601f19910116810190811067ffffffffffffffff821117611e7e57604052565b67ffffffffffffffff8111611e7e5760051b60200190565b9080601f830112156101e1576020908235611f1f81611eed565b93611f2d6040519586611eca565b81855260208086019260051b8201019283116101e157602001905b828210611f56575050505090565b81358152908301908301611f48565b60031960609101126101e15773ffffffffffffffffffffffffffffffffffffffff9060043582811681036101e1579160243590811681036101e1579060443590565b9081518082526020808093019301915f5b828110611fc6575050505090565b835185529381019392810192600101611fb8565b9081518082526020808093019301915f5b828110611ff9575050505090565b835173ffffffffffffffffffffffffffffffffffffffff1685529381019392810192600101611feb565b6002111561202d57565b634e487b7160e01b5f52602160045260245ffd5b90600182811c9216801561206f575b602083101461205b57565b634e487b7160e01b5f52602260045260245ffd5b91607f1691612050565b519081151582036101e157565b670de0b6b3a7640000518110156120a75760051b670de0b6b3a76400200190565b634e487b7160e01b5f52603260045260245ffd5b80518210156120a75760209160051b010190565b6040517fe4dc2aa400000000000000000000000000000000000000000000000000000000815230600482015260208160248173ffffffffffffffffffffffffffffffffffffffff7f0000000000000000000000000000000000000000000000000000000000000000165afa90811561217a575f9161214b575090565b90506020813d602011612172575b8161216660209383611eca565b810103126101e1575190565b3d9150612159565b6040513d5f823e3d90fd5b9080601f830112156101e1578151906020916121a081611eed565b936121ae6040519586611eca565b81855260208086019260051b8201019283116101e157602001905b8282106121d7575050505090565b815173ffffffffffffffffffffffffffffffffffffffff811681036101e15781529083019083016121c9565b906020828203126101e157815167ffffffffffffffff81116101e1576122299201612185565b90565b9080601f830112156101e15781519060209161224781611eed565b936122556040519586611eca565b81855260208086019260051b8201019283116101e157602001905b82821061227e575050505090565b81518152908301908301612270565b9190916040818403126101e15780519267ffffffffffffffff938481116101e157816122ba91840161222c565b9360208301519081116101e157612229920161222c565b604081019081516122e860608301918251906120bb565b519251916122fc60808201938451906120bb565b5191815161230981612023565b61231281612023565b6123d15761232c612325602092516125ca565b94516125ca565b910151670de0b6b3a7640000948561234382612b3d565b0482116123a95761235761235d9282612b30565b90613012565b848402938085048614901517156123955761237e6123849261239195612b84565b90612ba2565b8381810391100290612b71565b0490565b634e487b7160e01b5f52601160045260245ffd5b7f340a4533000000000000000000000000000000000000000000000000000000005f5260045ffd5b6123eb6123e460209295939495516125ca565b92516125ca565b920151670de0b6b3a764000061240085612b3d565b04811161245a578303908382116123955761242161237e9261242795613012565b92613012565b7ffffffffffffffffffffffffffffffffffffffffffffffffff21f494c589c000081019081116123955761222991612c2d565b7f64590b9f000000000000000000000000000000000000000000000000000000005f5260045ffd5b6101a0918190038281126101e15760405192610140928385019267ffffffffffffffff9086851082861117611e7e576080136101e1576101c0860190811184821017611e7e576040526124d481612079565b83526124e260208201612079565b9261016093848701526124f760408301612079565b92610180938488015261250c60608401612079565b9087015285526080810151602086015260a0810151604086015260c0810151606086015260e081015164ffffffffff811681036101e15760808601526101008082015163ffffffff811681036101e15761259d946125939160a08901526125876101209761257b898701612079565b60c08b01528501612079565b60e08901528301612079565b9086015201612079565b9082015290565b906020828203126101e157815167ffffffffffffffff81116101e157612229920161222c565b806125f457507f000000000000000000000000000000000000000000000000000000000000000090565b6001810361262157507f000000000000000000000000000000000000000000000000000000000000000090565b6002810361264e57507f000000000000000000000000000000000000000000000000000000000000000090565b6003810361267b57507f000000000000000000000000000000000000000000000000000000000000000090565b600481036126a857507f000000000000000000000000000000000000000000000000000000000000000090565b600581036126d557507f000000000000000000000000000000000000000000000000000000000000000090565b6006810361270257507f000000000000000000000000000000000000000000000000000000000000000090565b60070361272d577f000000000000000000000000000000000000000000000000000000000000000090565b7fc1ab6dc1000000000000000000000000000000000000000000000000000000005f5260045ffd5b73ffffffffffffffffffffffffffffffffffffffff7f000000000000000000000000000000000000000000000000000000000000000016330361279457565b7f089676d5000000000000000000000000000000000000000000000000000000005f523360045260245ffd5b73ffffffffffffffffffffffffffffffffffffffff7f0000000000000000000000000000000000000000000000000000000000000000163014806128cf575b15612828577f000000000000000000000000000000000000000000000000000000000000000090565b60405160208101907f8b73c3c69bb8fe3d512ecc4cf759cc79239f7b179b0ffacaa9a75d522b39400f82527f000000000000000000000000000000000000000000000000000000000000000060408201527f000000000000000000000000000000000000000000000000000000000000000060608201524660808201523060a082015260a0815260c0810181811067ffffffffffffffff821117611e7e5760405251902090565b507f000000000000000000000000000000000000000000000000000000000000000046146127ff565b7f000000000000000000000000000000000000000000000000000000000000000061292281611eed565b906129306040519283611eca565b80825261293c81611eed565b601f196020840191013682378251156120a7577f000000000000000000000000000000000000000000000000000000000000000090528151600110156120a7577f000000000000000000000000000000000000000000000000000000000000000060408301526002811115612b2c578151600210156120a7577f000000000000000000000000000000000000000000000000000000000000000060608301526003811115612b2c578151600310156120a7577f0000000000000000000000000000000000000000000000000000000000000000608083015260049081811115612b27578251821015612b14577f000000000000000000000000000000000000000000000000000000000000000060a08401526005811115612b2757825160051015612b14577f000000000000000000000000000000000000000000000000000000000000000060c08401526006811115612b2757825160061015612b14576007907f000000000000000000000000000000000000000000000000000000000000000060e085015211612acc575090565b815160071015612b0157507f000000000000000000000000000000000000000000000000000000000000000061010082015290565b603290634e487b7160e01b5f525260245ffd5b603282634e487b7160e01b5f525260245ffd5b505090565b5090565b9190820180921161239557565b90670429d069189e00009182810292818404149015171561239557565b906127109182810292818404149015171561239557565b8181029291811591840414171561239557565b8115612b8e570490565b634e487b7160e01b5f52601260045260245ffd5b90670de0b6b3a764000090818103612bb957505090565b671bc16d674ec800008103612bd45750508061222991612c2d565b673782dace9d9000008103612bf8575050612bf28161222992612c2d565b80612c2d565b612c02919261308f565b906001612c0e83612b5a565b915f198301040190151502600181018091116123955761222991612b30565b90612c3791612b71565b6001670de0b6b3a76400005f19830104019015150290565b60ff8114612ca35760ff811690601f8211612c7b5760405191612c7183611eae565b8252602082015290565b7fb3512b0c000000000000000000000000000000000000000000000000000000005f5260045ffd5b506040515f815f5491612cb583612041565b80835292602090600190818116908115612d3e5750600114612ce0575b505061222992500382611eca565b9150925f80527f290decd9548b62a8d60345a988386fc84ba6bc95484008f6362f93160ef3e563935f925b828410612d2657506122299450505081016020015f80612cd2565b85548785018301529485019486945092810192612d0b565b9050602093506122299592507fffffffffffffffffffffffffffffffffffffffffffffffffffffffffffffff0091501682840152151560051b8201015f80612cd2565b60ff8114612da35760ff811690601f8211612c7b5760405191612c7183611eae565b506040515f81600191600154612db881612041565b8084529360209160018116908115612d3e5750600114612de057505061222992500382611eca565b91509260015f527fb10e2d527612073b26eecdfd717e6a320cf44b4afac2b0732d9fcbe2b7fa0cf6935f925b828410612e2757506122299450505081016020015f80612cd2565b85548785018301529485019486945092810192612e0c565b670de0b6b3a764000091808303612e565750905090565b8290671bc16d674ec800008103612e735750508061239191612b71565b673782dace9d9000008103612e975750612e908261239193612b71565b0480612b71565b9050612ea29161308f565b612eab81612b5a565b60015f1993848301040190151502906001820180831161239557811015612ed3575050505f90565b030190565b91907f7fffffffffffffffffffffffffffffff5d576e7357a4501ddfe92f46681b20a08411612f5c579160209360809260ff5f9560405194855216868401526040830152606082015282805260015afa1561217a575f5173ffffffffffffffffffffffffffffffffffffffff811615612f5257905f905f90565b505f906001905f90565b5050505f9160039190565b600481101561202d5780612f79575050565b60018103612fa9577ff645eedf000000000000000000000000000000000000000000000000000000005f5260045ffd5b60028103612fdd57507ffce698f7000000000000000000000000000000000000000000000000000000005f5260045260245ffd5b600314612fe75750565b7fd78bce0c000000000000000000000000000000000000000000000000000000005f5260045260245ffd5b90801561304357670de0b6b3a764000091828102928184041490151715612395576001905f19830104019015150290565b7f0a0c22c7000000000000000000000000000000000000000000000000000000005f5260045ffd5b8015612b8e576ec097ce7bc90715b34b9f10000000000590565b8115612b8e570590565b9080156139b85781156139b2578160ff1c61398a57770bce5086492111aea88f4bb1ca6bcf584181ea8059f765328110156139625781670c7d713b49da00001280613951575b156135ee57670de0b6b3a7640000916ec097ce7bc90715b34b9f100000000090613128908402828101907fffffffffffffffffffffffffffffffffff3f68318436f8ea4cb460f000000000018302613085565b9080828002059181838202058284820205838582020591848684020593858786020595808888020597880205600f900596600d900595600b900594600990059360079005926005900591600390050101010101010160011b918082818507020592050201670de0b6b3a7640000905b057ffffffffffffffffffffffffffffffffffffffffffffffffdc702bd3a30fc000081811315806135db575b156135b3578190821215806135a0575b15613578575f915f8112613569575b506064906806f05b59d3b20000008112613506577ffffffffffffffffffffffffffffffffffffffffffffffff90fa4a62c4e0000000168056bc75e2d6310000082770195e54c5dd42177f53a27172fa9ec630262827000000000925b02819068ad78ebc5ac620000008112156134cd575b6856bc75e2d631000000811215613493575b682b5e3af16b1880000081121561345b575b6815af1d78b58c400000811215613423575b680ad78ebc5ac62000008112156133ec575b828112156133b5575b6802b5e3af16b188000081121561337e575b68015af1d78b58c40000811215613347575b60028382800205056003848383020505600485848302050585600581868402050560068287830205056007838883020505906008848984020505926009858a8602050595600a868b8902050597600b878c8b02050599600c888d8d0205059b01010101010101010101010102050205905f14612229576122299061306b565b6806f5f17757889379377ffffffffffffffffffffffffffffffffffffffffffffffffea50e2874a73c0000849201920205906132c8565b6808f00f760a4b2db55d7ffffffffffffffffffffffffffffffffffffffffffffffffd4a1c50e94e780000849201920205906132b6565b680ebc5fb417461211107ffffffffffffffffffffffffffffffffffffffffffffffffa9438a1d29cf00000849201920205906132a4565b68280e60114edb805d037ffffffffffffffffffffffffffffffffffffffffffffffff5287143a539e000008492019202059061329b565b690127fa27722cc06cc5e27fffffffffffffffffffffffffffffffffffffffffffffffea50e2874a73c0000084920192020590613289565b693f1fce3da636ea5cf8507fffffffffffffffffffffffffffffffffffffffffffffffd4a1c50e94e780000084920192020590613277565b6b02df0ab5a80a22c61ab5a7007fffffffffffffffffffffffffffffffffffffffffffffffa9438a1d29cf00000084920192020590613265565b6e01855144814a7ff805980ff008400091507fffffffffffffffffffffffffffffffffffffffffffffff5287143a539e00000001613253565b6803782dace9d90000008112613556577ffffffffffffffffffffffffffffffffffffffffffffffffc87d25316270000000168056bc75e2d63100000826b1425982cf597cd205cef73809261323e565b68056bc75e2d631000008260019261323e565b600192505f03905060646131e2565b7fd4794efd000000000000000000000000000000000000000000000000000000005f5260045ffd5b5068070c1cc73b00c800008213156131d3565b7fa2f9f7e3000000000000000000000000000000000000000000000000000000005f5260045ffd5b5068070c1cc73b00c800008213156131c3565b81670de0b6b3a7640000925f9184811261393b575b506064905f7e1600ef3172e58d2e933ec884fde10064c63b5372d805e203c0000000000000821215613910575b73011798004d755d3c8bc8e03204cf44619e0000008212156138ef575b820290808302906e01855144814a7ff805980ff008400090818312156138cc575b50506b02df0ab5a80a22c61ab5a700808212156138ac575b50693f1fce3da636ea5cf8508082121561388c575b50690127fa27722cc06cc5e28082121561386c575b5068280e60114edb805d038082121561384c575b50680ebc5fb4174612111080821215613835575b506808f00f760a4b2db55d80821215613815575b506806f5f1775788937937808212156137f5575b506806248f33704b286603808212156137d6575b506805c548670b9510e7ac808212156137b7575b5061376468056bc75e2d6310000091827ffffffffffffffffffffffffffffffffffffffffffffffffa9438a1d29cf00000818301920102613085565b9080828002059181838202058284820205916003600560076009600b888a89020598808b8b02059a8b0205059805960594059205010101010160011b0105905f146137b2575f035b02613197565b6137ac565b68056bc75e2d631000006756bc75e2d63100009202059101905f613728565b68056bc75e2d6310000067ad78ebc5ac6200009202059101905f613714565b68056bc75e2d6310000068015af1d78b58c400009202059101905f613700565b68056bc75e2d631000006802b5e3af16b18800009202059101905f6136ec565b68056bc75e2d63100000809202059101905f6136d8565b68056bc75e2d63100000680ad78ebc5ac62000009202059101905f6136c4565b68056bc75e2d631000006815af1d78b58c4000009202059101905f6136b0565b68056bc75e2d63100000682b5e3af16b188000009202059101905f61369b565b68056bc75e2d631000006856bc75e2d6310000009202059101905f613686565b68ad78ebc5ac62000000925069021e19e0c9bab240000002059101905f8061366e565b906b1425982cf597cd205cef73806803782dace9d90000009105910161364d565b50770195e54c5dd42177f53a27172fa9ec63026282700000000090056806f05b59d3b2000000613630565b9050613947915061306b565b6001906064613603565b50670f43fc2c04ee000082126130d5565b7fd8317311000000000000000000000000000000000000000000000000000000005f5260045ffd5b7f022701e0000000000000000000000000000000000000000000000000000000005f5260045ffd5b50505f90565b5050670de0b6b3a76400009056fea26469706673582212203ec0118ae17c0f0adba7459b5c62781ac22adb46f73c1467746703ba70b9c43764736f6c634300081b0033c2575a0e9e593c00f959f8c92f12db2869c3395a3b0502d05e2516446f71f85b",
  "linkReferences": {},
  "deployedLinkReferences": {}
}