{
  "_format": "hh-sol-artifact-1",
  "contractName": "CompositeLiquidityRouter",
  "sourceName": "contracts/CompositeLiquidityRouter.sol",
  "abi": [
    {
      "inputs": [
        {
          "internalType": "contract IVault",
          "name": "vault",
          "type": "address"
        },
        {
          "internalType": "contract IWETH",
          "name": "weth",
          "type": "address"
        },
        {
          "internalType": "contract IPermit2",
          "name": "permit2",
          "type": "address"
        },
        {
          "internalType": "string",
          "name": "routerVersion",
          "type": "string"
        }
      ],
      "stateMutability": "nonpayable",
      "type": "constructor"
    },
    {
      "inputs": [
        {
          "internalType": "address",
          "name": "target",
          "type": "address"
        }
      ],
      "name": "AddressEmptyCode",
      "type": "error"
    },
    {
      "inputs": [
        {
          "internalType": "address",
          "name": "account",
          "type": "address"
        }
      ],
      "name": "AddressInsufficientBalance",
      "type": "error"
    },
    {
      "inputs": [
        {
          "internalType": "contract IERC20",
          "name": "tokenIn",
          "type": "address"
        },
        {
          "internalType": "uint256",
          "name": "amountIn",
          "type": "uint256"
        },
        {
          "internalType": "uint256",
          "name": "maxAmountIn",
          "type": "uint256"
        }
      ],
      "name": "AmountInAboveMax",
      "type": "error"
    },
    {
      "inputs": [
        {
          "internalType": "contract IERC20",
          "name": "tokenOut",
          "type": "address"
        },
        {
          "internalType": "uint256",
          "name": "amountOut",
          "type": "uint256"
        },
        {
          "internalType": "uint256",
          "name": "minAmountOut",
          "type": "uint256"
        }
      ],
      "name": "AmountOutBelowMin",
      "type": "error"
    },
    {
      "inputs": [
        {
          "internalType": "contract IERC4626",
          "name": "wrappedToken",
          "type": "address"
        }
      ],
      "name": "BufferNotInitialized",
      "type": "error"
    },
    {
      "inputs": [],
      "name": "ErrorSelectorNotFound",
      "type": "error"
    },
    {
      "inputs": [],
      "name": "EthTransfer",
      "type": "error"
    },
    {
      "inputs": [],
      "name": "FailedInnerCall",
      "type": "error"
    },
    {
      "inputs": [],
      "name": "InputLengthMismatch",
      "type": "error"
    },
    {
      "inputs": [],
      "name": "InsufficientEth",
      "type": "error"
    },
    {
      "inputs": [],
      "name": "ReentrancyGuardReentrantCall",
      "type": "error"
    },
    {
      "inputs": [
        {
          "internalType": "uint8",
          "name": "bits",
          "type": "uint8"
        },
        {
          "internalType": "uint256",
          "name": "value",
          "type": "uint256"
        }
      ],
      "name": "SafeCastOverflowedUintDowncast",
      "type": "error"
    },
    {
      "inputs": [
        {
          "internalType": "address",
          "name": "token",
          "type": "address"
        }
      ],
      "name": "SafeERC20FailedOperation",
      "type": "error"
    },
    {
      "inputs": [
        {
          "internalType": "address",
          "name": "sender",
          "type": "address"
        }
      ],
      "name": "SenderIsNotVault",
      "type": "error"
    },
    {
      "inputs": [],
      "name": "SwapDeadline",
      "type": "error"
    },
    {
      "inputs": [
        {
          "internalType": "address[]",
          "name": "expectedTokensOut",
          "type": "address[]"
        },
        {
          "internalType": "address[]",
          "name": "tokensOut",
          "type": "address[]"
        }
      ],
      "name": "WrongTokensOut",
      "type": "error"
    },
    {
      "inputs": [
        {
          "components": [
            {
              "internalType": "address",
              "name": "sender",
              "type": "address"
            },
            {
              "internalType": "address",
              "name": "pool",
              "type": "address"
            },
            {
              "internalType": "uint256[]",
              "name": "maxAmountsIn",
              "type": "uint256[]"
            },
            {
              "internalType": "uint256",
              "name": "minBptAmountOut",
              "type": "uint256"
            },
            {
              "internalType": "enum AddLiquidityKind",
              "name": "kind",
              "type": "uint8"
            },
            {
              "internalType": "bool",
              "name": "wethIsEth",
              "type": "bool"
            },
            {
              "internalType": "bytes",
              "name": "userData",
              "type": "bytes"
            }
          ],
          "internalType": "struct IRouterCommon.AddLiquidityHookParams",
          "name": "params",
          "type": "tuple"
        },
        {
          "internalType": "bool[]",
          "name": "wrapUnderlying",
          "type": "bool[]"
        }
      ],
      "name": "addLiquidityERC4626PoolProportionalHook",
      "outputs": [
        {
          "internalType": "address[]",
          "name": "tokensIn",
          "type": "address[]"
        },
        {
          "internalType": "uint256[]",
          "name": "amountsIn",
          "type": "uint256[]"
        }
      ],
      "stateMutability": "nonpayable",
      "type": "function"
    },
    {
      "inputs": [
        {
          "components": [
            {
              "internalType": "address",
              "name": "sender",
              "type": "address"
            },
            {
              "internalType": "address",
              "name": "pool",
              "type": "address"
            },
            {
              "internalType": "uint256[]",
              "name": "maxAmountsIn",
              "type": "uint256[]"
            },
            {
              "internalType": "uint256",
              "name": "minBptAmountOut",
              "type": "uint256"
            },
            {
              "internalType": "enum AddLiquidityKind",
              "name": "kind",
              "type": "uint8"
            },
            {
              "internalType": "bool",
              "name": "wethIsEth",
              "type": "bool"
            },
            {
              "internalType": "bytes",
              "name": "userData",
              "type": "bytes"
            }
          ],
          "internalType": "struct IRouterCommon.AddLiquidityHookParams",
          "name": "params",
          "type": "tuple"
        },
        {
          "internalType": "bool[]",
          "name": "wrapUnderlying",
          "type": "bool[]"
        }
      ],
      "name": "addLiquidityERC4626PoolUnbalancedHook",
      "outputs": [
        {
          "internalType": "uint256",
          "name": "bptAmountOut",
          "type": "uint256"
        }
      ],
      "stateMutability": "nonpayable",
      "type": "function"
    },
    {
      "inputs": [
        {
          "internalType": "address",
          "name": "pool",
          "type": "address"
        },
        {
          "internalType": "bool[]",
          "name": "wrapUnderlying",
          "type": "bool[]"
        },
        {
          "internalType": "uint256[]",
          "name": "maxAmountsIn",
          "type": "uint256[]"
        },
        {
          "internalType": "uint256",
          "name": "exactBptAmountOut",
          "type": "uint256"
        },
        {
          "internalType": "bool",
          "name": "wethIsEth",
          "type": "bool"
        },
        {
          "internalType": "bytes",
          "name": "userData",
          "type": "bytes"
        }
      ],
      "name": "addLiquidityProportionalToERC4626Pool",
      "outputs": [
        {
          "internalType": "address[]",
          "name": "tokensIn",
          "type": "address[]"
        },
        {
          "internalType": "uint256[]",
          "name": "amountsIn",
          "type": "uint256[]"
        }
      ],
      "stateMutability": "payable",
      "type": "function"
    },
    {
      "inputs": [
        {
          "internalType": "address",
          "name": "pool",
          "type": "address"
        },
        {
          "internalType": "bool[]",
          "name": "wrapUnderlying",
          "type": "bool[]"
        },
        {
          "internalType": "uint256[]",
          "name": "exactAmountsIn",
          "type": "uint256[]"
        },
        {
          "internalType": "uint256",
          "name": "minBptAmountOut",
          "type": "uint256"
        },
        {
          "internalType": "bool",
          "name": "wethIsEth",
          "type": "bool"
        },
        {
          "internalType": "bytes",
          "name": "userData",
          "type": "bytes"
        }
      ],
      "name": "addLiquidityUnbalancedToERC4626Pool",
      "outputs": [
        {
          "internalType": "uint256",
          "name": "bptAmountOut",
          "type": "uint256"
        }
      ],
      "stateMutability": "payable",
      "type": "function"
    },
    {
      "inputs": [],
      "name": "getPermit2",
      "outputs": [
        {
          "internalType": "contract IPermit2",
          "name": "",
          "type": "address"
        }
      ],
      "stateMutability": "view",
      "type": "function"
    },
    {
      "inputs": [],
      "name": "getSender",
      "outputs": [
        {
          "internalType": "address",
          "name": "",
          "type": "address"
        }
      ],
      "stateMutability": "view",
      "type": "function"
    },
    {
      "inputs": [],
      "name": "getWeth",
      "outputs": [
        {
          "internalType": "contract IWETH",
          "name": "",
          "type": "address"
        }
      ],
      "stateMutability": "view",
      "type": "function"
    },
    {
      "inputs": [
        {
          "internalType": "bytes[]",
          "name": "data",
          "type": "bytes[]"
        }
      ],
      "name": "multicall",
      "outputs": [
        {
          "internalType": "bytes[]",
          "name": "results",
          "type": "bytes[]"
        }
      ],
      "stateMutability": "payable",
      "type": "function"
    },
    {
      "inputs": [
        {
          "components": [
            {
              "internalType": "address",
              "name": "token",
              "type": "address"
            },
            {
              "internalType": "address",
              "name": "owner",
              "type": "address"
            },
            {
              "internalType": "address",
              "name": "spender",
              "type": "address"
            },
            {
              "internalType": "uint256",
              "name": "amount",
              "type": "uint256"
            },
            {
              "internalType": "uint256",
              "name": "nonce",
              "type": "uint256"
            },
            {
              "internalType": "uint256",
              "name": "deadline",
              "type": "uint256"
            }
          ],
          "internalType": "struct IRouterCommon.PermitApproval[]",
          "name": "permitBatch",
          "type": "tuple[]"
        },
        {
          "internalType": "bytes[]",
          "name": "permitSignatures",
          "type": "bytes[]"
        },
        {
          "components": [
            {
              "components": [
                {
                  "internalType": "address",
                  "name": "token",
                  "type": "address"
                },
                {
                  "internalType": "uint160",
                  "name": "amount",
                  "type": "uint160"
                },
                {
                  "internalType": "uint48",
                  "name": "expiration",
                  "type": "uint48"
                },
                {
                  "internalType": "uint48",
                  "name": "nonce",
                  "type": "uint48"
                }
              ],
              "internalType": "struct IAllowanceTransfer.PermitDetails[]",
              "name": "details",
              "type": "tuple[]"
            },
            {
              "internalType": "address",
              "name": "spender",
              "type": "address"
            },
            {
              "internalType": "uint256",
              "name": "sigDeadline",
              "type": "uint256"
            }
          ],
          "internalType": "struct IAllowanceTransfer.PermitBatch",
          "name": "permit2Batch",
          "type": "tuple"
        },
        {
          "internalType": "bytes",
          "name": "permit2Signature",
          "type": "bytes"
        },
        {
          "internalType": "bytes[]",
          "name": "multicallData",
          "type": "bytes[]"
        }
      ],
      "name": "permitBatchAndCall",
      "outputs": [
        {
          "internalType": "bytes[]",
          "name": "results",
          "type": "bytes[]"
        }
      ],
      "stateMutability": "payable",
      "type": "function"
    },
    {
      "inputs": [
        {
          "internalType": "address",
          "name": "pool",
          "type": "address"
        },
        {
          "internalType": "bool[]",
          "name": "wrapUnderlying",
          "type": "bool[]"
        },
        {
          "internalType": "uint256",
          "name": "exactBptAmountOut",
          "type": "uint256"
        },
        {
          "internalType": "address",
          "name": "sender",
          "type": "address"
        },
        {
          "internalType": "bytes",
          "name": "userData",
          "type": "bytes"
        }
      ],
      "name": "queryAddLiquidityProportionalToERC4626Pool",
      "outputs": [
        {
          "internalType": "address[]",
          "name": "tokensIn",
          "type": "address[]"
        },
        {
          "internalType": "uint256[]",
          "name": "amountsIn",
          "type": "uint256[]"
        }
      ],
      "stateMutability": "nonpayable",
      "type": "function"
    },
    {
      "inputs": [
        {
          "internalType": "address",
          "name": "pool",
          "type": "address"
        },
        {
          "internalType": "bool[]",
          "name": "wrapUnderlying",
          "type": "bool[]"
        },
        {
          "internalType": "uint256[]",
          "name": "exactAmountsIn",
          "type": "uint256[]"
        },
        {
          "internalType": "address",
          "name": "sender",
          "type": "address"
        },
        {
          "internalType": "bytes",
          "name": "userData",
          "type": "bytes"
        }
      ],
      "name": "queryAddLiquidityUnbalancedToERC4626Pool",
      "outputs": [
        {
          "internalType": "uint256",
          "name": "bptAmountOut",
          "type": "uint256"
        }
      ],
      "stateMutability": "nonpayable",
      "type": "function"
    },
    {
      "inputs": [
        {
          "internalType": "address",
          "name": "pool",
          "type": "address"
        },
        {
          "internalType": "bool[]",
          "name": "unwrapWrapped",
          "type": "bool[]"
        },
        {
          "internalType": "uint256",
          "name": "exactBptAmountIn",
          "type": "uint256"
        },
        {
          "internalType": "address",
          "name": "sender",
          "type": "address"
        },
        {
          "internalType": "bytes",
          "name": "userData",
          "type": "bytes"
        }
      ],
      "name": "queryRemoveLiquidityProportionalFromERC4626Pool",
      "outputs": [
        {
          "internalType": "address[]",
          "name": "tokensOut",
          "type": "address[]"
        },
        {
          "internalType": "uint256[]",
          "name": "amountsOut",
          "type": "uint256[]"
        }
      ],
      "stateMutability": "nonpayable",
      "type": "function"
    },
    {
      "inputs": [
        {
          "components": [
            {
              "internalType": "address",
              "name": "sender",
              "type": "address"
            },
            {
              "internalType": "address",
              "name": "pool",
              "type": "address"
            },
            {
              "internalType": "uint256[]",
              "name": "minAmountsOut",
              "type": "uint256[]"
            },
            {
              "internalType": "uint256",
              "name": "maxBptAmountIn",
              "type": "uint256"
            },
            {
              "internalType": "enum RemoveLiquidityKind",
              "name": "kind",
              "type": "uint8"
            },
            {
              "internalType": "bool",
              "name": "wethIsEth",
              "type": "bool"
            },
            {
              "internalType": "bytes",
              "name": "userData",
              "type": "bytes"
            }
          ],
          "internalType": "struct IRouterCommon.RemoveLiquidityHookParams",
          "name": "params",
          "type": "tuple"
        },
        {
          "internalType": "bool[]",
          "name": "unwrapWrapped",
          "type": "bool[]"
        }
      ],
      "name": "removeLiquidityERC4626PoolProportionalHook",
      "outputs": [
        {
          "internalType": "address[]",
          "name": "tokensOut",
          "type": "address[]"
        },
        {
          "internalType": "uint256[]",
          "name": "amountsOut",
          "type": "uint256[]"
        }
      ],
      "stateMutability": "nonpayable",
      "type": "function"
    },
    {
      "inputs": [
        {
          "internalType": "address",
          "name": "pool",
          "type": "address"
        },
        {
          "internalType": "bool[]",
          "name": "unwrapWrapped",
          "type": "bool[]"
        },
        {
          "internalType": "uint256",
          "name": "exactBptAmountIn",
          "type": "uint256"
        },
        {
          "internalType": "uint256[]",
          "name": "minAmountsOut",
          "type": "uint256[]"
        },
        {
          "internalType": "bool",
          "name": "wethIsEth",
          "type": "bool"
        },
        {
          "internalType": "bytes",
          "name": "userData",
          "type": "bytes"
        }
      ],
      "name": "removeLiquidityProportionalFromERC4626Pool",
      "outputs": [
        {
          "internalType": "address[]",
          "name": "tokensOut",
          "type": "address[]"
        },
        {
          "internalType": "uint256[]",
          "name": "amountsOut",
          "type": "uint256[]"
        }
      ],
      "stateMutability": "payable",
      "type": "function"
    },
    {
      "inputs": [],
      "name": "version",
      "outputs": [
        {
          "internalType": "string",
          "name": "",
          "type": "string"
        }
      ],
      "stateMutability": "view",
      "type": "function"
    },
    {
      "stateMutability": "payable",
      "type": "receive"
    }
  ],
  "bytecode": "0x6101c0604090808252346104ef57613f6a803803809161001f828561050e565b83398101916080828403126104ef5781516001600160a01b03939084811681036104ef57602093848101519286841684036104ef578482015196871687036104ef5760608201516001600160401b03928382116104ef570192601f908282860112156104ef5784518481116104db57601f19958851946100a58b8987860116018761050e565b8286528a83830101116104ef57815f928b8093018388015e8501015260805281519283116104db575f54916001928381811c911680156104d1575b898210146104bd5782811161047a575b508791841160011461041d57839450908392915f94610412575b50501b915f199060031b1c1916175f555b610149610126610531565b835190610132826104f3565b600682526539b2b73232b960d11b8683015261058f565b60a052610185610157610531565b835190610163826104f3565b60118252701a5cd4995d1d5c9b915d1a131bd8dad959607a1b8683015261058f565b60c05260e0526101009283526101cd815161019f816104f3565b601381527f63757272656e7453776170546f6b656e73496e0000000000000000000000000084820152610559565b9161012092835261021082516101e2816104f3565b601481527f63757272656e7453776170546f6b656e734f757400000000000000000000000083820152610559565b6101409081526102528351610224816104f3565b601981527f63757272656e7453776170546f6b656e496e416d6f756e74730000000000000084820152610559565b906101609182526102d8610298855161026a816104f3565b601a81527f63757272656e7453776170546f6b656e4f7574416d6f756e747300000000000086820152610559565b936101809485527f736574746c6564546f6b656e416d6f756e7473000000000000000000000000008651916102cc836104f3565b60138352820152610559565b936101a094855251946139289687610642883960805187818161014d0152818161040a015281816106a50152818161087601528181610bc001528181610d6601528181610e3101528181610f1801528181611237015281816113a4015281816114780152818161157401528181611e0901528181611f2a01528181612042015281816122400152818161309301528181613168015281816132ad0152818161348a0152613680015260a0518781816102bc015281816106f6015281816109e101528181612f2a015261337d015260c051878181612eb401526133c3015260e0518781816024015281816123fc015281816131f0015281816133470152818161342001526137e90152518681816116bb015281816118a5015281816119bf015261365d01525185505051845050518350505182505051815050f35b015192505f8061010a565b91938316915f805283885f20935f5b8a88838310610463575050501061044b575b505050811b015f5561011b565b01515f1960f88460031b161c191690555f808061043e565b86860151885590960195948501948793500161042c565b5f8052885f208380870160051c8201928b88106104b4575b0160051c019084905b8281106104a95750506100f0565b5f815501849061049b565b92508192610492565b634e487b7160e01b5f52602260045260245ffd5b90607f16906100e0565b634e487b7160e01b5f52604160045260245ffd5b5f80fd5b604081019081106001600160401b038211176104db57604052565b601f909101601f19168101906001600160401b038211908210176104db57604052565b6040519061053e826104f3565b600c82526b2937baba32b921b7b6b6b7b760a11b6020830152565b61058c90604051610569816104f3565b60118152702130ba31b42937baba32b921b7b6b6b7b760791b602082015261058f565b90565b906105fc603a60209260405193849181808401977f62616c616e6365722d6c6162732e76332e73746f726167652e000000000000008952805191829101603986015e830190601760f91b60398301528051928391018583015e015f8382015203601a81018452018261050e565b5190205f19810190811161062d57604051906020820190815260208252610622826104f3565b9051902060ff191690565b634e487b7160e01b5f52601160045260245ffdfe6080806040526004361015610074575b50361561001a575f80fd5b6001600160a01b037f000000000000000000000000000000000000000000000000000000000000000016330361004c57005b7f0540ddf6000000000000000000000000000000000000000000000000000000005f5260045ffd5b5f3560e01c908163107c279f146123df5750806319aceff314611d9757806319c6989f146116df5780631bbf2e231461169c57806327bfb13a146111c65780634c97a87814610b4f57806354fd4d5014610a125780635e01eb5a146109cd578063698cc74b1461084f578063ac9650d81461080b578063c1da024c14610735578063c9b8ddb214610564578063d8a7f9fe14610466578063e3c3e64f146103345763f921696e14610125575f61000f565b34610330576101406101363661276b565b9391929490613378565b936001600160a01b0390817f00000000000000000000000000000000000000000000000000000000000000001691604051937fca4f2803000000000000000000000000000000000000000000000000000000008552168060048501525f84602481865afa908115610303575f9687966101c861023e9461027b988a9161030e575b50516129b1565b604051936101d585612632565b3085526020850152604084015260608301528660808301528660a083015260c08201526102306040519384927f4c97a87800000000000000000000000000000000000000000000000000000000602085015260248401612ffb565b03601f19810183528261264e565b6040519485809481937fedfa3568000000000000000000000000000000000000000000000000000000008352602060048401526024830190612516565b03925af18015610303576102a0915f916102e1575b5060208082518301019101612e07565b916102b9575b6102b56040519283928361249d565b0390f35b5f7f00000000000000000000000000000000000000000000000000000000000000005d6102a6565b6102fd91503d805f833e6102f5818361264e565b810190612de1565b5f610290565b6040513d5f823e3d90fd5b61032a91503d808c833e610322818361264e565b8101906128d3565b5f6101c1565b5f80fd5b6103c95f806104066103453661283f565b90610354999395929933613378565b996001600160a01b0396876040519561036c87612632565b33875216602086015260408501526060840152876080840152151560a083015260c08201526102306040519384927f19aceff300000000000000000000000000000000000000000000000000000000602085015260248401612d34565b6040519485809481937f48c89491000000000000000000000000000000000000000000000000000000008352602060048401526024830190612516565b03927f0000000000000000000000000000000000000000000000000000000000000000165af18015610303576102a0915f9161044c575060208082518301019101612e07565b61046091503d805f833e6102f5818361264e565b83610290565b60c06003193601126103305761047a6125bc565b67ffffffffffffffff6024358181116103305761049b9036906004016126e0565b90606435818111610330576104b4903690600401612824565b92608435938415158095036103305760a435928311610330575f936103c9610406936104e587963690600401612750565b6104ee33613378565b986001600160a01b0395866040519461050686612632565b3386521660208501526040840152604435606084015287608084015260a083015260c08201526102306040519384927f4c97a87800000000000000000000000000000000000000000000000000000000602085015260248401612ffb565b346103305760a06003193601126103305761057d6125bc565b67ffffffffffffffff6024358181116103305761059e9036906004016126e0565b604435828111610330576105b6903690600401612824565b91606435926001600160a01b03808516850361033057608435928311610330575f936106656106a1936105f76105f188973690600401612750565b98613378565b976040519161060583612632565b3083528560209b168b8401526040830152866060830152600160808301528660a083015260c08201526102306040519384927f27bfb13a000000000000000000000000000000000000000000000000000000008c85015260248401612d34565b6040519485809481937fedfa35680000000000000000000000000000000000000000000000000000000083528a60048401526024830190612516565b03927f0000000000000000000000000000000000000000000000000000000000000000165af1908115610303575f9161071b575b50828180518101031261033057820151906106f3575b604051908152f35b5f7f00000000000000000000000000000000000000000000000000000000000000005d6106eb565b61072f91503d805f833e6102f5818361264e565b836106d5565b6106a16107cf5f806107463661283f565b61075899959998929493919833613378565b986001600160a01b03956040519361076f85612632565b3385528760209d168d8601526040850152606084015260016080840152151560a083015260c08201526102306040519384927f27bfb13a000000000000000000000000000000000000000000000000000000008c85015260248401612d34565b6040519485809481937f48c894910000000000000000000000000000000000000000000000000000000083528a60048401526024830190612516565b60206003193601126103305760043567ffffffffffffffff81116103305761084361083d6102b5923690600401612420565b90612ea6565b6040519182918261253b565b34610330576108696108603661276b565b92919490613378565b926001600160a01b0392837f00000000000000000000000000000000000000000000000000000000000000001693604051927fca4f280300000000000000000000000000000000000000000000000000000000845216918260048201525f81602481885afa908115610303575f916109b3575b5051956108e8876129b1565b965f5b81811061098e5750509261023e61096a935f969387968a6040519361090f85612632565b3085526020850152604084015260608301528660808301528660a083015260c08201526102306040519384927f19aceff300000000000000000000000000000000000000000000000000000000602085015260248401612d34565b03925af18015610303576102a0915f9161044c575060208082518301019101612e07565b806fffffffffffffffffffffffffffffffff6109ac6001938c6129e2565b52016108eb565b6109c791503d805f833e610322818361264e565b876108dc565b34610330575f6003193601126103305760207f00000000000000000000000000000000000000000000000000000000000000005c6001600160a01b0360405191168152f35b34610330575f600319360112610330576040515f5f549060018260011c9160018416918215610b45575b6020948585108414610b185785879486865291825f14610ada575050600114610a81575b50610a6d9250038361264e565b6102b5604051928284938452830190612516565b5f808052859250907f290decd9548b62a8d60345a988386fc84ba6bc95484008f6362f93160ef3e5635b858310610ac2575050610a6d935082010185610a60565b80548389018501528794508693909201918101610aab565b7fffffffffffffffffffffffffffffffffffffffffffffffffffffffffffffff001685820152610a6d95151560051b8501019250879150610a609050565b7f4e487b71000000000000000000000000000000000000000000000000000000005f52602260045260245ffd5b92607f1692610a3c565b3461033057610b5d36612451565b610b6561305c565b610b6d613089565b6020830192610b7b846128bf565b926001600160a01b03604051947fca4f28030000000000000000000000000000000000000000000000000000000086521660048501525f846024816001600160a01b037f0000000000000000000000000000000000000000000000000000000000000000165afa938415610303575f946111aa575b50835192610c0d81610c05604086018661295d565b9050866130e7565b610c1f610c19856129b1565b966128bf565b610c28846128bf565b610c31866129b1565b9160046080870135101561033057610c975f926001600160a01b03610d5995610c5d60c08b018b612a23565b9290938160405197610c6e896125e6565b16875216602086015260608a01356040860152606085015260808901356080850152369161271a565b60a0820152604051809381927f21457897000000000000000000000000000000000000000000000000000000008352602060048401526001600160a01b0381511660248401526001600160a01b0360208201511660448401526040810151606484015260a0610d15606083015160c0608487015260e4860190612b9d565b91610d28608082015160a4870190612c5a565b01517fffffffffffffffffffffffffffffffffffffffffffffffffffffffffffffffdc8483030160c4850152612516565b0381836001600160a01b037f0000000000000000000000000000000000000000000000000000000000000000165af1908115610303575f91611142575b50610da28596956129b1565b945f5b878110610de05788875f7f9b779b17422d0df92223018b32b4d1fa46e071723d6817e2486d003becc55f005d6102b56040519283928361249d565b6001600160a01b03610df282846129e2565b5116604051907f0387587d0000000000000000000000000000000000000000000000000000000082528060048301526020826024816001600160a01b037f0000000000000000000000000000000000000000000000000000000000000000165afa918215610303575f92611106575b50610e75610e7084888a612c7b565b612c4d565b1561109a576001600160a01b0382161561106f576060610f0b91610e9985886129e2565b51610eb186610eab60408e018e61295d565b90612c7b565b359060405192610ec084612602565b5f8452600160208501526040840152838301526080820152604051809381927f43583be500000000000000000000000000000000000000000000000000000000835260048301612cb0565b03815f6001600160a01b037f0000000000000000000000000000000000000000000000000000000000000000165af1908115610303575f9161103d575b50610f53838c6129e2565b526001600160a01b038116610f68838a6129e2565b5232611002575b505b610f7b818a6129e2565b51610f8d82610eab60408a018a61295d565b3511610f9b57600101610da5565b85610fcf82610eab610fc3826001600160a01b038f97610fbb908f6129e2565b5116966129e2565b5193604081019061295d565b35917f2f785e46000000000000000000000000000000000000000000000000000000005f5260045260245260445260645ffd5b6110379061100f886128bf565b611019848d6129e2565b51906001600160a01b0361102f60a08c01612c4d565b931690613148565b89610f6f565b61105f915060603d606011611068575b611057818361264e565b810190612c95565b9150508b610f48565b503d61104d565b7f85f41299000000000000000000000000000000000000000000000000000000005f5260045260245ffd5b90506110a682856129e2565b516110b1838c6129e2565b526110bc82896129e2565b523215610f71576111016110cf876128bf565b6001600160a01b036110e184866129e2565b51166110ed848d6129e2565b51906110fb60a08b01612c4d565b92613148565b610f71565b9091506020813d60201161113a575b816111226020938361264e565b810103126103305761113390612c67565b908b610e61565b3d9150611115565b3d9150815f823e611153828261264e565b60608183810103126103305780519160208201519167ffffffffffffffff928381116103305761118890838301908301612aad565b926040820151908111610330576111a29282019101612b0e565b915090610d96565b6111bf9194503d805f833e610322818361264e565b9285610bf0565b34610330576111d436612451565b91906111de61305c565b6111e6613089565b6111f2602083016128bf565b926001600160a01b03604051947fca4f28030000000000000000000000000000000000000000000000000000000086521660048501525f846024816001600160a01b037f0000000000000000000000000000000000000000000000000000000000000000165afa938415610303575f9461167c575b506112b7906112bf85519361128d836040880196611285888a61295d565b9190506130e7565b6112a0611299876128bf565b958761295d565b9490916112af60a08901612c4d565b943691612689565b9336916127d6565b908551916112cc836129b1565b965f5b8481106114265788886112e1896133ba565b6112ed602082016128bf565b6112f6826128bf565b6080830135906005821015610330576001600160a01b0361135861135f936060876113979961132960c05f9b0183612a23565b969097816040519b61133a8d6125e6565b168b521660208a015260408901520135606087015260808601612a74565b369161271a565b60a0820152604051809381927f4af29ec400000000000000000000000000000000000000000000000000000000835260048301612bdd565b0381836001600160a01b037f0000000000000000000000000000000000000000000000000000000000000000165af18015610303576020915f91611402575b505f7f9b779b17422d0df92223018b32b4d1fa46e071723d6817e2486d003becc55f005d604051908152f35b61141e91503d805f833e611416818361264e565b810190612b54565b9150906113d6565b6001600160a01b0361143882846129e2565b511690604051917f0387587d0000000000000000000000000000000000000000000000000000000083528060048401526020836024816001600160a01b037f0000000000000000000000000000000000000000000000000000000000000000165afa928315610303575f93611640575b50856114b4838a6129e2565b51156115f557506001600160a01b0383161561106f575f906114d683876129e2565b516114f3575b50600192506114eb828c6129e2565b525b016112cf565b606091506115679387326115cf575b505061150e83876129e2565b516040519161151c83612602565b5f83525f60208401526040830152828201525f6080820152604051809481927f43583be500000000000000000000000000000000000000000000000000000000835260048301612cb0565b03815f6001600160a01b037f0000000000000000000000000000000000000000000000000000000000000000165af18015610303576001925f916115ad575b508b6114dc565b6115c6915060603d60601161106857611057818361264e565b9150508b6115a6565b6115ee916001600160a01b036115e5878b6129e2565b5191168d6133fd565b8c87611502565b6001935082918c6116118461160a818b6129e2565b51926129e2565b528c32611622575b505050506114ed565b6116379361162f916129e2565b51908b6133fd565b80858c8c611619565b9092506020813d602011611674575b8161165c6020938361264e565b810103126103305761166d90612c67565b918b6114a8565b3d915061164f565b6112b7919450611695903d805f833e610322818361264e565b9390611267565b34610330575f6003193601126103305760206040516001600160a01b037f0000000000000000000000000000000000000000000000000000000000000000168152f35b60a06003193601126103305767ffffffffffffffff60043511610330573660236004350112156103305767ffffffffffffffff60043560040135116103305736602460c060043560040135026004350101116103305760243567ffffffffffffffff811161033057611755903690600401612420565b67ffffffffffffffff60443511610330576060600319604435360301126103305767ffffffffffffffff60643511610330573660236064350112156103305767ffffffffffffffff606435600401351161033057366024606435600401356064350101116103305760843567ffffffffffffffff8111610330576117dd903690600401612420565b9290916117e861305c565b806004356004013503611d6f575f5b600435600401358110611a8f57505050604435600401357fffffffffffffffffffffffffffffffffffffffffffffffffffffffffffffffdd60443536030181121561033057806044350160048101359067ffffffffffffffff82116103305760248260071b36039101136103305761189a575b6102b561084384845f7f9b779b17422d0df92223018b32b4d1fa46e071723d6817e2486d003becc55f005d612ea6565b916001600160a01b037f0000000000000000000000000000000000000000000000000000000000000000163b1561033057604051927f2a2d80d10000000000000000000000000000000000000000000000000000000084523360048501526060602485015260c484019060443501602481019167ffffffffffffffff60048301351161033057600482013560071b36038313610330576060606487015260048201359052849160e48301915f905b60048101358210611a1557505050906020815f936001600160a01b036119726024604435016125d2565b1660848301526044803581013560a4840152600319838303019083015260643560048101358083529060240184830137600460643501358181018401869052601f01601f191601030181837f00000000000000000000000000000000000000000000000000000000000000006001600160a01b03165af1918215610303576102b59361084393611a06575b5091509161186a565b611a0f9061261e565b846119fd565b919350916001600160a01b03611a2a856125d2565b168152602080850135916001600160a01b03831680930361033057600492600192820152611a5a60408701613135565b65ffffffffffff8091166040830152611a7560608801613135565b166060820152608080910195019301905086939291611948565b611a9d611358828486612fe4565b60405180606081011067ffffffffffffffff606083011117611d4257606081016040525f81526020915f838301525f60408301528281015190606060408201519101515f1a91835283830152604082015260c07fffffffffffffffffffffffffffffffffffffffffffffffffffffffffffffffdc81850260043501360301126103305760405190611b2d826125e6565b611b40602460c0860260043501016125d2565b808352611b56604460c0870260043501016125d2565b908185850152611b6f606460c0880260043501016125d2565b60408581019190915260043560c08802016084810135606087015260a4810135608087015260c4013560a086015283015183519386015160ff91909116926001600160a01b0383163b15610330575f6001600160a01b03809460e4948b98849860c460c06040519c8d9b8c9a7fd505accf000000000000000000000000000000000000000000000000000000008c521660048b01523060248b0152608482820260043501013560448b0152026004350101356064880152608487015260a486015260c4850152165af19081611d33575b50611d2957611c4c613106565b906001600160a01b0381511690836001600160a01b0381830151166044604051809581937fdd62ed3e00000000000000000000000000000000000000000000000000000000835260048301523060248301525afa918215610303575f92611cf9575b506060015103611cc45750506001905b016117f7565b805115611cd15780519101fd5b7fa7285689000000000000000000000000000000000000000000000000000000005f5260045ffd5b9091508381813d8311611d22575b611d11818361264e565b810103126103305751906060611cae565b503d611d07565b5050600190611cbe565b611d3c9061261e565b88611c3f565b7f4e487b71000000000000000000000000000000000000000000000000000000005f52604160045260245ffd5b7faaad13f7000000000000000000000000000000000000000000000000000000005f5260045ffd5b3461033057611da536612451565b9091611daf61305c565b611db7613089565b60208101611dc4816128bf565b916001600160a01b03604051937fca4f28030000000000000000000000000000000000000000000000000000000085521660048401525f836024816001600160a01b037f0000000000000000000000000000000000000000000000000000000000000000165afa928315610303575f936123c3575b50825193946040820192611e5987611e51868661295d565b9050886130e7565b611e62866129b1565b955f5b818110612399575050611e77906128bf565b94611e81836128bf565b95608084013591600583101561033057611f1d976001600160a01b036113585f95611ee594611eb360c08b018b612a23565b9490958160405199611ec48b6125e6565b16895216602088015260408701526060890135606087015260808601612a74565b60a0820152604051809781927f4af29ec400000000000000000000000000000000000000000000000000000000835260048301612bdd565b0381836001600160a01b037f0000000000000000000000000000000000000000000000000000000000000000165af1948515610303575f9561236b575b5081611f8c611f9492611f84611f7b611f7460a0976128bf565b978561295d565b96909401612c4d565b983691612689565b9236916127d6565b90835194611fa1866129b1565b96611fab876129b1565b955f5b888110611ff2578988611fc0896133ba565b5f7f9b779b17422d0df92223018b32b4d1fa46e071723d6817e2486d003becc55f005d6102b56040519283928361249d565b6001600160a01b0361200482846129e2565b51166040517f0387587d0000000000000000000000000000000000000000000000000000000081528160048201526020816024816001600160a01b037f0000000000000000000000000000000000000000000000000000000000000000165afa908115610303575f91612331575b5061207d83886129e2565b51156122e9576001600160a01b038116156122bd575f9161209e84886129e2565b516121b5575b50828c32612149575b6001600160a01b0393916120c0916129e2565b52166120cc828a6129e2565b525b6120d8818b6129e2565b516120e382886129e2565b51106120f157600101611fae565b856121168261160a816001600160a01b038f9661210e908f6129e2565b5116956129e2565b51917f8eda85e4000000000000000000000000000000000000000000000000000000005f5260045260245260445260645ffd5b5061215490896129e2565b51918281810311612188576120c0848e61217e898e866001600160a01b0399039089891690613148565b91509193506120ad565b7f4e487b71000000000000000000000000000000000000000000000000000000005f52601160045260245ffd5b61223391925060609032612299575b6121ce85896129e2565b516121d9868c6129e2565b5190604051926121e884612602565b600184525f60208501526040840152838301526080820152604051809381927f43583be500000000000000000000000000000000000000000000000000000000835260048301612cb0565b03815f6001600160a01b037f0000000000000000000000000000000000000000000000000000000000000000165af1908115610303575f91612278575b50908c6120a4565b612291915060603d60601161106857611057818361264e565b915090612270565b6122b8876122a7878d6129e2565b516001600160a01b0387168e6133fd565b6121c4565b507f85f41299000000000000000000000000000000000000000000000000000000005f5260045260245ffd5b5032612316575b6122fa82866129e2565b51612305838d6129e2565b52612310828a6129e2565b526120ce565b61232c8461232484886129e2565b51838b6133fd565b6122f0565b90506020813d602011612363575b8161234c6020938361264e565b810103126103305761235d90612c67565b8c612072565b3d915061233f565b611f9491955091611f8c61238a60a0943d805f833e611416818361264e565b90989198505092505091611f5a565b806fffffffffffffffffffffffffffffffff6123b96001938b9c9b6129e2565b5201979697611e65565b6123d89193503d805f833e610322818361264e565b9185611e39565b34610330575f600319360112610330576020906001600160a01b037f0000000000000000000000000000000000000000000000000000000000000000168152f35b9181601f840112156103305782359167ffffffffffffffff8311610330576020808501948460051b01011161033057565b906003196040818401126103305760043567ffffffffffffffff918282116103305760e090828603011261033057600401926024359182116103305761249991600401612420565b9091565b604081019060408152825180925260608101916020809401905f5b8181106124f957505050828183039101528180845192838152019301915f5b8281106124e5575050505090565b8351855293810193928101926001016124d7565b82516001600160a01b0316855293850193918501916001016124b8565b90601f19601f602080948051918291828752018686015e5f8582860101520116010190565b6020808201906020835283518092526040830192602060408460051b8301019501935f915b8483106125705750505050505090565b90919293949584806125ac837fffffffffffffffffffffffffffffffffffffffffffffffffffffffffffffffc086600196030187528a51612516565b9801930193019194939290612560565b600435906001600160a01b038216820361033057565b35906001600160a01b038216820361033057565b60c0810190811067ffffffffffffffff821117611d4257604052565b60a0810190811067ffffffffffffffff821117611d4257604052565b67ffffffffffffffff8111611d4257604052565b60e0810190811067ffffffffffffffff821117611d4257604052565b90601f601f19910116810190811067ffffffffffffffff821117611d4257604052565b67ffffffffffffffff8111611d425760051b60200190565b929161269482612671565b916126a2604051938461264e565b829481845260208094019160051b810192831161033057905b8282106126c85750505050565b813580151581036103305781529083019083016126bb565b9080601f83011215610330578160206126fb93359101612689565b90565b67ffffffffffffffff8111611d4257601f01601f191660200190565b929192612726826126fe565b91612734604051938461264e565b829481845281830111610330578281602093845f960137010152565b9080601f83011215610330578160206126fb9335910161271a565b9060a0600319830112610330576001600160a01b036004358181168103610330579267ffffffffffffffff9260243584811161033057826127ae916004016126e0565b936044359360643590811681036103305792608435918211610330576126fb91600401612750565b92916127e182612671565b916127ef604051938461264e565b829481845260208094019160051b810192831161033057905b8282106128155750505050565b81358152908301908301612808565b9080601f83011215610330578160206126fb933591016127d6565b60c0600319820112610330576004356001600160a01b0381168103610330579167ffffffffffffffff602435818111610330578361287f916004016126e0565b92604435828111610330578161289791600401612824565b92606435926084358015158103610330579260a435918211610330576126fb91600401612750565b356001600160a01b03811681036103305790565b60209081818403126103305780519067ffffffffffffffff821161033057019180601f8401121561033057825161290981612671565b93612917604051958661264e565b818552838086019260051b820101928311610330578301905b82821061293e575050505090565b81516001600160a01b0381168103610330578152908301908301612930565b9035907fffffffffffffffffffffffffffffffffffffffffffffffffffffffffffffffe181360301821215610330570180359067ffffffffffffffff821161033057602001918160051b3603831361033057565b906129bb82612671565b6129c8604051918261264e565b828152601f196129d88294612671565b0190602036910137565b80518210156129f65760209160051b010190565b7f4e487b71000000000000000000000000000000000000000000000000000000005f52603260045260245ffd5b9035907fffffffffffffffffffffffffffffffffffffffffffffffffffffffffffffffe181360301821215610330570180359067ffffffffffffffff82116103305760200191813603831361033057565b6005821015612a805752565b7f4e487b71000000000000000000000000000000000000000000000000000000005f52602160045260245ffd5b9080601f8301121561033057815190602091612ac881612671565b93612ad6604051958661264e565b81855260208086019260051b82010192831161033057602001905b828210612aff575050505090565b81518152908301908301612af1565b81601f8201121561033057805190612b25826126fe565b92612b33604051948561264e565b8284526020838301011161033057815f9260208093018386015e8301015290565b90916060828403126103305781519167ffffffffffffffff928381116103305784612b80918301612aad565b936020820151936040830151908111610330576126fb9201612b0e565b9081518082526020808093019301915f5b828110612bbc575050505090565b835185529381019392810192600101612bae565b906005821015612a805752565b906126fb91602081526001600160a01b03808351166020830152602083015116604082015260a0612c1d604084015160c0606085015260e0840190612b9d565b9260608101516080840152612c39608082015183850190612bd0565b01519060c0601f1982850301910152612516565b3580151581036103305790565b906004821015612a805752565b51906001600160a01b038216820361033057565b91908110156129f65760051b0190565b60021115612a8057565b90816060910312610330578051916040602083015192015190565b91909160808060a08301948051612cc681612c8b565b84526020810151612cd681612c8b565b60208501526001600160a01b036040820151166040850152606081015160608501520151910152565b9081518082526020808093019301915f5b828110612d1e575050505090565b8351151585529381019392810192600101612d10565b9091612dd36126fb93604084526001600160a01b03808251166040860152602082015116606085015260c0612d79604083015160e06080880152610120870190612b9d565b91606081015160a0870152612d95608082015183880190612bd0565b60a0810151151560e087015201517fffffffffffffffffffffffffffffffffffffffffffffffffffffffffffffffc085830301610100860152612516565b916020818403910152612cff565b9060208282031261033057815167ffffffffffffffff8111610330576126fb9201612b0e565b9190916040818403126103305780519267ffffffffffffffff938481116103305782019381601f8601121561033057845194602095612e4581612671565b91612e53604051938461264e565b818352878084019260051b820101918583116103305788809201905b838210612e8f575050505094830151908111610330576126fb9201612aad565b828091612e9b84612c67565b815201910190612e6f565b9190612eb133613378565b907f000000000000000000000000000000000000000000000000000000000000000093845c612fbc576001906001865d612eea83612671565b92612ef8604051948561264e565b808452601f19612f0782612671565b015f5b818110612fab5750505f5b818110612f625750505050905f612f5792945d7f0000000000000000000000000000000000000000000000000000000000000000805c91612f59575b506133ba565b565b5f905d5f612f51565b80612f8f5f80612f776113588996888a612fe4565b602081519101305af4612f88613106565b903061388e565b612f9982886129e2565b52612fa481876129e2565b5001612f15565b806060602080938901015201612f0a565b7f3ee5aeb5000000000000000000000000000000000000000000000000000000005f5260045ffd5b908210156129f6576124999160051b810190612a23565b9091612dd36126fb93604084526001600160a01b03808251166040860152602082015116606085015260c0613040604083015160e06080880152610120870190612b9d565b91606081015160a0870152612d95608082015183880190612c5a565b7f9b779b17422d0df92223018b32b4d1fa46e071723d6817e2486d003becc55f00805c612fbc576001905d565b6001600160a01b037f00000000000000000000000000000000000000000000000000000000000000001633036130bb57565b7f089676d5000000000000000000000000000000000000000000000000000000005f523360045260245ffd5b811480159291906130fb575b5050611d6f57565b141590505f806130f3565b3d15613130573d90613117826126fe565b91613125604051938461264e565b82523d5f602084013e565b606090565b359065ffffffffffff8216820361033057565b5f94938315613370578061333b575b1561329f576001600160a01b0391827f000000000000000000000000000000000000000000000000000000000000000016803b15610330576040517fae6393290000000000000000000000000000000000000000000000000000000081526001600160a01b03929092166004830152306024830152604482018590525f908290606490829084905af180156103035761328c575b5084827f000000000000000000000000000000000000000000000000000000000000000016803b156132885781906024604051809481937f2e1a7d4d0000000000000000000000000000000000000000000000000000000083528960048401525af1801561327d57613265575b50612f5793945016613812565b61326f869161261e565b6132795784613258565b8480fd5b6040513d88823e3d90fd5b5080fd5b61329791955061261e565b5f935f6131eb565b929350906001600160a01b037f000000000000000000000000000000000000000000000000000000000000000016803b15610330576040517fae6393290000000000000000000000000000000000000000000000000000000081526001600160a01b03938416600482015293909216602484015260448301525f908290606490829084905af18015610303576133325750565b612f579061261e565b506001600160a01b03807f00000000000000000000000000000000000000000000000000000000000000001690831614613157565b505050509050565b905f917f00000000000000000000000000000000000000000000000000000000000000006001600160a01b03815c16156133b0575050565b909192505d600190565b4780156133f9577f00000000000000000000000000000000000000000000000000000000000000005c6133f9576001600160a01b03612f579216613812565b5050565b909192806137dd575b1561364257505080471061361a576001600160a01b0390817f00000000000000000000000000000000000000000000000000000000000000001691823b15610330576040908151907fd0e30db00000000000000000000000000000000000000000000000000000000082525f915f81600481888a5af18015613610576135fd575b507f00000000000000000000000000000000000000000000000000000000000000001692825194602095868101907fa9059cbb000000000000000000000000000000000000000000000000000000008252866024820152836044820152604481526080810181811067ffffffffffffffff821117611d425786525161351d918591829182865af1613516613106565b908361388e565b80518781151591826135d8575b505090506135ad57906044869284865197889485937f15afd409000000000000000000000000000000000000000000000000000000008552600485015260248401525af19182156135a357505061357f575050565b813d831161359c575b613592818361264e565b8101031261033057565b503d613588565b51903d90823e3d90fd5b7f5274afe7000000000000000000000000000000000000000000000000000000008352600452602482fd5b83809293500103126135f9578601518015908115036135f95780875f61352a565b8380fd5b61360891925061261e565b5f905f613487565b84513d5f823e3d90fd5b7fa01a9df6000000000000000000000000000000000000000000000000000000005f5260045ffd5b90915f9080613652575b50505050565b6001600160a01b03807f000000000000000000000000000000000000000000000000000000000000000016817f000000000000000000000000000000000000000000000000000000000000000016958284116137ac57821694813b1561033057608483915f809460405196879586947f36c785160000000000000000000000000000000000000000000000000000000086521660048501528b6024850152881660448401528960648401525af1801561030357613795575b506044829360209360405196879485937f15afd409000000000000000000000000000000000000000000000000000000008552600485015260248401525af1908115613789575061375e575b80808061364c565b602090813d8311613782575b613774818361264e565b81010312610330575f613756565b503d61376a565b604051903d90823e3d90fd5b602092506137a29061261e565b60445f925061370a565b837f6dfcc650000000000000000000000000000000000000000000000000000000005f5260a060045260245260445ffd5b506001600160a01b03807f00000000000000000000000000000000000000000000000000000000000000001690831614613406565b814710613862575f8080936001600160a01b038294165af1613832613106565b501561383a57565b7f1425ea42000000000000000000000000000000000000000000000000000000005f5260045ffd5b7fcd786059000000000000000000000000000000000000000000000000000000005f523060045260245ffd5b906138a3575080511561383a57805190602001fd5b815115806138e9575b6138b4575090565b6001600160a01b03907f9996b315000000000000000000000000000000000000000000000000000000005f521660045260245ffd5b50803b156138ac56fea2646970667358221220b2e3e932737f7206a16c2d82e61f906d445d8c4205b1b98dbe20fe43560e8c3964736f6c634300081b0033",
  "linkReferences": {},
  "deployedLinkReferences": {}
}