{
  "_format": "hh-sol-artifact-1",
  "contractName": "StakelessGaugeCheckpointer",
  "sourceName": "contracts/gauges/StakelessGaugeCheckpointer.sol",
  "abi": [
    {
      "inputs": [
        {
          "internalType": "contract IGaugeAdder",
          "name": "gaugeAdder",
          "type": "address"
        },
        {
          "internalType": "contract IAuthorizerAdaptorEntrypoint",
          "name": "authorizerAdaptorEntrypoint",
          "type": "address"
        }
      ],
      "stateMutability": "nonpayable",
      "type": "constructor"
    },
    {
      "anonymous": false,
      "inputs": [
        {
          "indexed": true,
          "internalType": "contract IStakelessGauge",
          "name": "gauge",
          "type": "address"
        },
        {
          "indexed": true,
          "internalType": "string",
          "name": "indexedGaugeType",
          "type": "string"
        },
        {
          "indexed": false,
          "internalType": "string",
          "name": "gaugeType",
          "type": "string"
        }
      ],
      "name": "GaugeAdded",
      "type": "event"
    },
    {
      "anonymous": false,
      "inputs": [
        {
          "indexed": true,
          "internalType": "contract IStakelessGauge",
          "name": "gauge",
          "type": "address"
        },
        {
          "indexed": true,
          "internalType": "string",
          "name": "indexedGaugeType",
          "type": "string"
        },
        {
          "indexed": false,
          "internalType": "string",
          "name": "gaugeType",
          "type": "string"
        }
      ],
      "name": "GaugeRemoved",
      "type": "event"
    },
    {
      "inputs": [
        {
          "internalType": "string",
          "name": "gaugeType",
          "type": "string"
        },
        {
          "internalType": "contract IStakelessGauge[]",
          "name": "gauges",
          "type": "address[]"
        }
      ],
      "name": "addGauges",
      "outputs": [],
      "stateMutability": "nonpayable",
      "type": "function"
    },
    {
      "inputs": [
        {
          "internalType": "string",
          "name": "gaugeType",
          "type": "string"
        },
        {
          "internalType": "contract IStakelessGauge[]",
          "name": "gauges",
          "type": "address[]"
        }
      ],
      "name": "addGaugesWithVerifiedType",
      "outputs": [],
      "stateMutability": "nonpayable",
      "type": "function"
    },
    {
      "inputs": [
        {
          "internalType": "uint256",
          "name": "minRelativeWeight",
          "type": "uint256"
        }
      ],
      "name": "checkpointGaugesAboveRelativeWeight",
      "outputs": [],
      "stateMutability": "payable",
      "type": "function"
    },
    {
      "inputs": [
        {
          "internalType": "string",
          "name": "gaugeType",
          "type": "string"
        },
        {
          "internalType": "uint256",
          "name": "minRelativeWeight",
          "type": "uint256"
        }
      ],
      "name": "checkpointGaugesOfTypeAboveRelativeWeight",
      "outputs": [],
      "stateMutability": "payable",
      "type": "function"
    },
    {
      "inputs": [
        {
          "internalType": "string[]",
          "name": "gaugeTypes",
          "type": "string[]"
        },
        {
          "internalType": "address[]",
          "name": "gauges",
          "type": "address[]"
        }
      ],
      "name": "checkpointMultipleGauges",
      "outputs": [],
      "stateMutability": "payable",
      "type": "function"
    },
    {
      "inputs": [
        {
          "internalType": "string",
          "name": "gaugeType",
          "type": "string"
        },
        {
          "internalType": "address",
          "name": "gauge",
          "type": "address"
        }
      ],
      "name": "checkpointSingleGauge",
      "outputs": [],
      "stateMutability": "payable",
      "type": "function"
    },
    {
      "inputs": [
        {
          "internalType": "bytes4",
          "name": "selector",
          "type": "bytes4"
        }
      ],
      "name": "getActionId",
      "outputs": [
        {
          "internalType": "bytes32",
          "name": "",
          "type": "bytes32"
        }
      ],
      "stateMutability": "view",
      "type": "function"
    },
    {
      "inputs": [],
      "name": "getAuthorizer",
      "outputs": [
        {
          "internalType": "contract IAuthorizer",
          "name": "",
          "type": "address"
        }
      ],
      "stateMutability": "view",
      "type": "function"
    },
    {
      "inputs": [],
      "name": "getGaugeAdder",
      "outputs": [
        {
          "internalType": "contract IGaugeAdder",
          "name": "",
          "type": "address"
        }
      ],
      "stateMutability": "view",
      "type": "function"
    },
    {
      "inputs": [
        {
          "internalType": "string",
          "name": "gaugeType",
          "type": "string"
        },
        {
          "internalType": "uint256",
          "name": "index",
          "type": "uint256"
        }
      ],
      "name": "getGaugeAtIndex",
      "outputs": [
        {
          "internalType": "contract IStakelessGauge",
          "name": "",
          "type": "address"
        }
      ],
      "stateMutability": "view",
      "type": "function"
    },
    {
      "inputs": [],
      "name": "getRoundedDownBlockTimestamp",
      "outputs": [
        {
          "internalType": "uint256",
          "name": "",
          "type": "uint256"
        }
      ],
      "stateMutability": "view",
      "type": "function"
    },
    {
      "inputs": [
        {
          "internalType": "string",
          "name": "gaugeType",
          "type": "string"
        },
        {
          "internalType": "address",
          "name": "gauge",
          "type": "address"
        }
      ],
      "name": "getSingleBridgeCost",
      "outputs": [
        {
          "internalType": "uint256",
          "name": "",
          "type": "uint256"
        }
      ],
      "stateMutability": "view",
      "type": "function"
    },
    {
      "inputs": [
        {
          "internalType": "uint256",
          "name": "minRelativeWeight",
          "type": "uint256"
        }
      ],
      "name": "getTotalBridgeCost",
      "outputs": [
        {
          "internalType": "uint256",
          "name": "",
          "type": "uint256"
        }
      ],
      "stateMutability": "view",
      "type": "function"
    },
    {
      "inputs": [
        {
          "internalType": "string",
          "name": "gaugeType",
          "type": "string"
        }
      ],
      "name": "getTotalGauges",
      "outputs": [
        {
          "internalType": "uint256",
          "name": "",
          "type": "uint256"
        }
      ],
      "stateMutability": "view",
      "type": "function"
    },
    {
      "inputs": [],
      "name": "getVault",
      "outputs": [
        {
          "internalType": "contract IVault",
          "name": "",
          "type": "address"
        }
      ],
      "stateMutability": "view",
      "type": "function"
    },
    {
      "inputs": [
        {
          "internalType": "string",
          "name": "gaugeType",
          "type": "string"
        },
        {
          "internalType": "contract IStakelessGauge",
          "name": "gauge",
          "type": "address"
        }
      ],
      "name": "hasGauge",
      "outputs": [
        {
          "internalType": "bool",
          "name": "",
          "type": "bool"
        }
      ],
      "stateMutability": "view",
      "type": "function"
    },
    {
      "inputs": [
        {
          "internalType": "string",
          "name": "gaugeType",
          "type": "string"
        }
      ],
      "name": "isValidGaugeType",
      "outputs": [
        {
          "internalType": "bool",
          "name": "",
          "type": "bool"
        }
      ],
      "stateMutability": "view",
      "type": "function"
    },
    {
      "inputs": [
        {
          "internalType": "string",
          "name": "gaugeType",
          "type": "string"
        },
        {
          "internalType": "contract IStakelessGauge[]",
          "name": "gauges",
          "type": "address[]"
        }
      ],
      "name": "removeGauges",
      "outputs": [],
      "stateMutability": "nonpayable",
      "type": "function"
    }
  ],
  "bytecode": "0x61014060405262000012610160620001f9565b60408051601f19818403018152919052805160209091012060c0523480156200003a57600080fd5b5060405162002e3c38038062002e3c8339810160408190526200005d9162000195565b806001600160a01b0316638d928af86040518163ffffffff1660e01b815260040160206040518083038186803b1580156200009757600080fd5b505afa158015620000ac573d6000803e3d6000fd5b505050506040513d601f19601f82011682018060405250810190620000d29190620001d3565b6001600055306080526001600160601b0319606091821b811660a05283821b8116610100529082901b1660e05260408051632c6f4d6f60e11b815290516001600160a01b038416916358de9ade916004808301926020929190829003018186803b1580156200014057600080fd5b505afa15801562000155573d6000803e3d6000fd5b505050506040513d601f19601f820116820180604052508101906200017b9190620001d3565b60601b6001600160601b0319166101205250620002269050565b60008060408385031215620001a8578182fd5b8251620001b5816200020d565b6020840151909250620001c8816200020d565b809150509250929050565b600060208284031215620001e5578081fd5b8151620001f2816200020d565b9392505050565b67417262697472756d60c01b815260080190565b6001600160a01b03811681146200022357600080fd5b50565b60805160a05160601c60c05160e05160601c6101005160601c6101205160601c612b6b620002d160003980610582528061168b5280611775528061181c5280611a2d525080610380528061041052806108d752806109f35280610c1d5280610d635280610e525280610f7d5280611080528061117f5280611bd35250806113855280611e0a5280611fa95250806107165280611616525080610cb5525080610c655250612b6b6000f3fe6080604052600436106101295760003560e01c80637d0a6616116100a5578063c91be04311610074578063d8dba2ce11610059578063d8dba2ce146102ed578063db5d12251461030d578063f7178b881461032057610129565b8063c91be043146102ba578063d14cfe3b146102da57610129565b80637d0a66161461025d578063851c1bb3146102705780638d928af814610290578063aaabadc5146102a557610129565b806346583adf116100fc5780634db34d2a116100e15780634db34d2a1461020857806373ebd060146102285780637c1fef511461024857610129565b806346583adf146101de5780634a3a1e11146101f357610129565b806316e772bc1461012e57806327cb2a3b1461016457806327f79107146101915780632adbe5ac146101be575b600080fd5b34801561013a57600080fd5b5061014e6101493660046124d1565b610340565b60405161015b919061277c565b60405180910390f35b34801561017057600080fd5b5061018461017f3660046125e7565b61040b565b60405161015b91906126fe565b34801561019d57600080fd5b506101b16101ac36600461262a565b61050f565b60405161015b9190612787565b3480156101ca57600080fd5b506101b16101d9366004612504565b6106cd565b3480156101ea57600080fd5b506101b16107f0565b610206610201366004612355565b6107ff565b005b34801561021457600080fd5b506101b16102233660046124d1565b6108d2565b34801561023457600080fd5b50610206610243366004612554565b6109b4565b34801561025457600080fd5b50610184610c1b565b61020661026b366004612504565b610c3f565b34801561027c57600080fd5b506101b161028b366004612426565b610c61565b34801561029c57600080fd5b50610184610cb3565b3480156102b157600080fd5b50610184610cd7565b3480156102c657600080fd5b5061014e6102d5366004612504565b610d5e565b6102066102e836600461262a565b610e3a565b3480156102f957600080fd5b50610206610308366004612554565b610f3e565b61020661031b3660046125e7565b611039565b34801561032c57600080fd5b5061020661033b366004612554565b611140565b6040517f16e772bc00000000000000000000000000000000000000000000000000000000815260009073ffffffffffffffffffffffffffffffffffffffff7f000000000000000000000000000000000000000000000000000000000000000016906316e772bc906103b59085906004016127bc565b60206040518083038186803b1580156103cd57600080fd5b505afa1580156103e1573d6000803e3d6000fd5b505050506040513d601f19601f820116820180604052508101906104059190612406565b92915050565b6000827f000000000000000000000000000000000000000000000000000000000000000073ffffffffffffffffffffffffffffffffffffffff166316e772bc826040518263ffffffff1660e01b815260040161046791906127bc565b60206040518083038186803b15801561047f57600080fd5b505afa158015610493573d6000803e3d6000fd5b505050506040513d601f19601f820116820180604052508101906104b79190612406565b6104dc5760405162461bcd60e51b81526004016104d3906129b1565b60405180910390fd5b610505836001866040516104f091906126b6565b9081526040519081900360200190209061122d565b91505b5092915050565b60008061051a611249565b90506000610542600160405161052f906126d2565b908152602001604051809103902061125e565b905060006001604051610554906126d2565b90815260405190819003602001902090506000805b838110156106c357600061057d8483611262565b9050877f000000000000000000000000000000000000000000000000000000000000000073ffffffffffffffffffffffffffffffffffffffff1663d3078c9483896040518363ffffffff1660e01b81526004016105db929190612756565b60206040518083038186803b1580156105f357600080fd5b505afa158015610607573d6000803e3d6000fd5b505050506040513d601f19601f8201168201806040525081019061062b9190612642565b101561063757506106bb565b8073ffffffffffffffffffffffffffffffffffffffff1663b02452256040518163ffffffff1660e01b815260040160206040518083038186803b15801561067d57600080fd5b505afa158015610691573d6000803e3d6000fd5b505050506040513d601f19601f820116820180604052508101906106b59190612642565b83019250505b600101610569565b5095945050505050565b60006106f8826001856040516106e391906126b6565b9081526040519081900360200190209061129c565b6107145760405162461bcd60e51b81526004016104d39061291d565b7f00000000000000000000000000000000000000000000000000000000000000008360405160200161074691906126b6565b6040516020818303038152906040528051906020012014156107e7578173ffffffffffffffffffffffffffffffffffffffff1663b02452256040518163ffffffff1660e01b815260040160206040518083038186803b1580156107a857600080fd5b505afa1580156107bc573d6000803e3d6000fd5b505050506040513d601f19601f820116820180604052508101906107e09190612642565b9050610405565b50600092915050565b60006107fa611249565b905090565b6108076112ca565b81518151600182149114806108195750805b6108355760405162461bcd60e51b81526004016104d390612863565b60008251116108565760405162461bcd60e51b81526004016104d39061282c565b815160005b818110156108bb576108b3836108845785828151811061087757fe5b602002602001015161089a565b8560008151811061089157fe5b60200260200101515b8583815181106108a657fe5b60200260200101516112e3565b60010161085b565b506108c4611410565b50506108ce611421565b5050565b6000817f000000000000000000000000000000000000000000000000000000000000000073ffffffffffffffffffffffffffffffffffffffff166316e772bc826040518263ffffffff1660e01b815260040161092e91906127bc565b60206040518083038186803b15801561094657600080fd5b505afa15801561095a573d6000803e3d6000fd5b505050506040513d601f19601f8201168201806040525081019061097e9190612406565b61099a5760405162461bcd60e51b81526004016104d3906129b1565b6109ad60018460405161052f91906126b6565b9392505050565b6040517f16e772bc000000000000000000000000000000000000000000000000000000008152839073ffffffffffffffffffffffffffffffffffffffff7f000000000000000000000000000000000000000000000000000000000000000016906316e772bc90610a289084906004016127bc565b60206040518083038186803b158015610a4057600080fd5b505afa158015610a54573d6000803e3d6000fd5b505050506040513d601f19601f82011682018060405250810190610a789190612406565b610a945760405162461bcd60e51b81526004016104d3906129b1565b6000600185604051610aa691906126b6565b9081526020016040518091039020905060005b83811015610c13576000858583818110610acf57fe5b9050602002016020810190610ae491906124b5565b90508073ffffffffffffffffffffffffffffffffffffffff16639c868ac06040518163ffffffff1660e01b815260040160206040518083038186803b158015610b2c57600080fd5b505afa158015610b40573d6000803e3d6000fd5b505050506040513d601f19601f82011682018060405250810190610b649190612406565b610b805760405162461bcd60e51b81526004016104d3906129e8565b610b8a8382611428565b610ba65760405162461bcd60e51b81526004016104d39061291d565b86604051610bb491906126b6565b60405180910390208173ffffffffffffffffffffffffffffffffffffffff167fb87757e0365ca4f80cc1f429f422c0ea7ec26bbd3e5778727e77c809462aad0289604051610c0291906127bc565b60405180910390a350600101610ab9565b505050505050565b7f000000000000000000000000000000000000000000000000000000000000000090565b610c476112ca565b610c5182826112e3565b610c59611410565b6108ce611421565b60007f000000000000000000000000000000000000000000000000000000000000000082604051602001610c96929190612686565b604051602081830303815290604052805190602001209050919050565b7f000000000000000000000000000000000000000000000000000000000000000090565b6000610ce1610cb3565b73ffffffffffffffffffffffffffffffffffffffff1663aaabadc56040518163ffffffff1660e01b815260040160206040518083038186803b158015610d2657600080fd5b505afa158015610d3a573d6000803e3d6000fd5b505050506040513d601f19601f820116820180604052508101906107fa9190612499565b6000827f000000000000000000000000000000000000000000000000000000000000000073ffffffffffffffffffffffffffffffffffffffff166316e772bc826040518263ffffffff1660e01b8152600401610dba91906127bc565b60206040518083038186803b158015610dd257600080fd5b505afa158015610de6573d6000803e3d6000fd5b505050506040513d601f19601f82011682018060405250810190610e0a9190612406565b610e265760405162461bcd60e51b81526004016104d3906129b1565b610505836001866040516106e391906126b6565b610e426112ca565b6000610e4c611249565b905060607f000000000000000000000000000000000000000000000000000000000000000073ffffffffffffffffffffffffffffffffffffffff1663afcb1a866040518163ffffffff1660e01b815260040160006040518083038186803b158015610eb657600080fd5b505afa158015610eca573d6000803e3d6000fd5b505050506040513d6000823e601f3d908101601f19168201604052610ef291908101906122cc565b905060005b8151811015610f2657610f1e828281518110610f0f57fe5b602002602001015185856115d6565b600101610ef7565b50610f3133476118d0565b5050610f3b611421565b50565b6040517f16e772bc000000000000000000000000000000000000000000000000000000008152839073ffffffffffffffffffffffffffffffffffffffff7f000000000000000000000000000000000000000000000000000000000000000016906316e772bc90610fb29084906004016127bc565b60206040518083038186803b158015610fca57600080fd5b505afa158015610fde573d6000803e3d6000fd5b505050506040513d601f19601f820116820180604052508101906110029190612406565b61101e5760405162461bcd60e51b81526004016104d3906129b1565b611026611957565b611033848484600161199d565b50505050565b6110416112ca565b6040517f16e772bc000000000000000000000000000000000000000000000000000000008152829073ffffffffffffffffffffffffffffffffffffffff7f000000000000000000000000000000000000000000000000000000000000000016906316e772bc906110b59084906004016127bc565b60206040518083038186803b1580156110cd57600080fd5b505afa1580156110e1573d6000803e3d6000fd5b505050506040513d601f19601f820116820180604052508101906111059190612406565b6111215760405162461bcd60e51b81526004016104d3906129b1565b600061112b611249565b90506111388484836115d6565b6108c4611410565b6040517f16e772bc000000000000000000000000000000000000000000000000000000008152839073ffffffffffffffffffffffffffffffffffffffff7f000000000000000000000000000000000000000000000000000000000000000016906316e772bc906111b49084906004016127bc565b60206040518083038186803b1580156111cc57600080fd5b505afa1580156111e0573d6000803e3d6000fd5b505050506040513d601f19601f820116820180604052508101906112049190612406565b6112205760405162461bcd60e51b81526004016104d3906129b1565b611033848484600061199d565b815460009061123f9083106064611d69565b6109ad8383611262565b6000600162093a8042040362093a8002905090565b5490565b600082600001828154811061127357fe5b60009182526020909120015473ffffffffffffffffffffffffffffffffffffffff169392505050565b73ffffffffffffffffffffffffffffffffffffffff1660009081526001919091016020526040902054151590565b6112dc60026000541415610190611d69565b6002600055565b60006112ef83836106cd565b6040805160048082526024820183526020820180517bffffffffffffffffffffffffffffffffffffffffffffffffffffffff167fc2c4c5c10000000000000000000000000000000000000000000000000000000017905291517f4036176a00000000000000000000000000000000000000000000000000000000815292935073ffffffffffffffffffffffffffffffffffffffff7f00000000000000000000000000000000000000000000000000000000000000001692634036176a9285926113ba9288920161271f565b6000604051808303818588803b1580156113d357600080fd5b505af11580156113e7573d6000803e3d6000fd5b50505050506040513d6000823e601f3d908101601f191682016040526110339190810190612466565b478015610f3b57610f3b33826118d0565b6001600055565b73ffffffffffffffffffffffffffffffffffffffff8116600090815260018301602052604081205480156115cc5783547fffffffffffffffffffffffffffffffffffffffffffffffffffffffffffffffff808301910180821461153157600086600001828154811061149657fe5b600091825260209091200154875473ffffffffffffffffffffffffffffffffffffffff909116915081908890859081106114cc57fe5b600091825260208083209190910180547fffffffffffffffffffffffff00000000000000000000000000000000000000001673ffffffffffffffffffffffffffffffffffffffff94851617905592909116815260018881019092526040902090830190555b855486908061153c57fe5b6000828152602080822083017fffffffffffffffffffffffffffffffffffffffffffffffffffffffffffffffff90810180547fffffffffffffffffffffffff000000000000000000000000000000000000000016905590920190925573ffffffffffffffffffffffffffffffffffffffff8716825260018881019091526040822091909155935061040592505050565b6000915050610405565b60006001846040516115e891906126b6565b9081526020016040518091039020905060006116038261125e565b9050806116115750506118cb565b6121bf7f00000000000000000000000000000000000000000000000000000000000000008660405160200161164691906126b6565b604051602081830303815290604052805190602001201461166957611d7761166d565b611e935b905060005b828110156118c65760006116868583611262565b9050857f000000000000000000000000000000000000000000000000000000000000000073ffffffffffffffffffffffffffffffffffffffff1663a4d7a250836040518263ffffffff1660e01b81526004016116e291906126fe565b60206040518083038186803b1580156116fa57600080fd5b505afa15801561170e573d6000803e3d6000fd5b505050506040513d601f19601f820116820180604052508101906117329190612642565b10156117dd576040517f615e523700000000000000000000000000000000000000000000000000000000815273ffffffffffffffffffffffffffffffffffffffff7f0000000000000000000000000000000000000000000000000000000000000000169063615e5237906117aa9084906004016126fe565b600060405180830381600087803b1580156117c457600080fd5b505af11580156117d8573d6000803e3d6000fd5b505050505b6040517fd3078c94000000000000000000000000000000000000000000000000000000008152879073ffffffffffffffffffffffffffffffffffffffff7f0000000000000000000000000000000000000000000000000000000000000000169063d3078c94906118539085908b90600401612756565b60206040518083038186803b15801561186b57600080fd5b505afa15801561187f573d6000803e3d6000fd5b505050506040513d601f19601f820116820180604052508101906118a39190612642565b10156118af57506118be565b6118bc818463ffffffff16565b505b600101611672565b505050505b505050565b6118df814710156101a3611d69565b60008273ffffffffffffffffffffffffffffffffffffffff1682604051611905906126fb565b60006040518083038185875af1925050503d8060008114611942576040519150601f19603f3d011682016040523d82523d6000602084013e611947565b606091505b505090506118cb816101a4611d69565b60006119866000357fffffffff0000000000000000000000000000000000000000000000000000000016610c61565b9050610f3b6119958233612034565b610191611d69565b60006001856040516119af91906126b6565b9081526020016040518091039020905060005b83811015610c135760008585838181106119d857fe5b90506020020160208101906119ed91906124b5565b6040517f61df1bf900000000000000000000000000000000000000000000000000000000815290915073ffffffffffffffffffffffffffffffffffffffff7f000000000000000000000000000000000000000000000000000000000000000016906361df1bf990611a629084906004016126fe565b60206040518083038186803b158015611a7a57600080fd5b505afa158015611a8e573d6000803e3d6000fd5b505050506040513d601f19601f82011682018060405250810190611ab29190612406565b611ace5760405162461bcd60e51b81526004016104d3906127cf565b8073ffffffffffffffffffffffffffffffffffffffff16639c868ac06040518163ffffffff1660e01b815260040160206040518083038186803b158015611b1457600080fd5b505afa158015611b28573d6000803e3d6000fd5b505050506040513d601f19601f82011682018060405250810190611b4c9190612406565b15611b695760405162461bcd60e51b81526004016104d39061297a565b611b7383826120ca565b611b8f5760405162461bcd60e51b81526004016104d390612a1f565b8380611ce057506040517f572cb6a500000000000000000000000000000000000000000000000000000000815273ffffffffffffffffffffffffffffffffffffffff7f0000000000000000000000000000000000000000000000000000000000000000169063572cb6a590611c08908a906004016127bc565b60206040518083038186803b158015611c2057600080fd5b505afa158015611c34573d6000803e3d6000fd5b505050506040513d601f19601f82011682018060405250810190611c589190612499565b73ffffffffffffffffffffffffffffffffffffffff1663ce3cc8bd826040518263ffffffff1660e01b8152600401611c9091906126fe565b60206040518083038186803b158015611ca857600080fd5b505afa158015611cbc573d6000803e3d6000fd5b505050506040513d601f19601f82011682018060405250810190611ce09190612406565b611cfc5760405162461bcd60e51b81526004016104d3906128c0565b86604051611d0a91906126b6565b60405180910390208173ffffffffffffffffffffffffffffffffffffffff167fbd3a33b3738a69bcfb84219d93fb0b1b2d91efbf2e5bef206c9af4122290fb5489604051611d5891906127bc565b60405180910390a3506001016119c2565b816108ce576108ce8161214a565b6040805160048082526024820183526020820180517bffffffffffffffffffffffffffffffffffffffffffffffffffffffff167fc2c4c5c10000000000000000000000000000000000000000000000000000000017905291517f4036176a00000000000000000000000000000000000000000000000000000000815273ffffffffffffffffffffffffffffffffffffffff7f00000000000000000000000000000000000000000000000000000000000000001692634036176a92611e3d9286920161271f565b600060405180830381600087803b158015611e5757600080fd5b505af1158015611e6b573d6000803e3d6000fd5b505050506040513d6000823e601f3d908101601f191682016040526108ce9190810190612466565b60008173ffffffffffffffffffffffffffffffffffffffff1663b02452256040518163ffffffff1660e01b815260040160206040518083038186803b158015611edb57600080fd5b505afa158015611eef573d6000803e3d6000fd5b505050506040513d601f19601f82011682018060405250810190611f139190612642565b6040805160048082526024820183526020820180517bffffffffffffffffffffffffffffffffffffffffffffffffffffffff167fc2c4c5c10000000000000000000000000000000000000000000000000000000017905291517f4036176a00000000000000000000000000000000000000000000000000000000815292935073ffffffffffffffffffffffffffffffffffffffff7f00000000000000000000000000000000000000000000000000000000000000001692634036176a928592611fde9288920161271f565b6000604051808303818588803b158015611ff757600080fd5b505af115801561200b573d6000803e3d6000fd5b50505050506040513d6000823e601f3d908101601f191682016040526118cb9190810190612466565b600061203e610cd7565b73ffffffffffffffffffffffffffffffffffffffff16639be2a8848484306040518463ffffffff1660e01b815260040161207a93929190612790565b60206040518083038186803b15801561209257600080fd5b505afa1580156120a6573d6000803e3d6000fd5b505050506040513d601f19601f820116820180604052508101906109ad9190612406565b60006120d6838361129c565b6107e757508154600180820184556000848152602080822090930180547fffffffffffffffffffffffff00000000000000000000000000000000000000001673ffffffffffffffffffffffffffffffffffffffff861690811790915585549082528286019093526040902091909155610405565b62461bcd60e51b600090815260206004526007602452600a808304818106603090810160081b83860601918390049283060160101b016642414c230000300160c81b604452610f3b917f42414c0000000000000000000000000000000000000000000000000000000000906242414c90606490fd5bfe5b600082601f8301126121d1578081fd5b81356121e46121df82612aa3565b612a7c565b81815291506020808301908481018184028601820187101561220557600080fd5b60005b8481101561222d57813561221b81612b13565b84529282019290820190600101612208565b505050505092915050565b600082601f830112612248578081fd5b81516122566121df82612ac3565b915080825283602082850101111561226d57600080fd5b610508816020840160208601612ae7565b600082601f83011261228e578081fd5b813561229c6121df82612ac3565b91508082528360208285010111156122b357600080fd5b8060208401602084013760009082016020015292915050565b600060208083850312156122de578182fd5b825167ffffffffffffffff8111156122f4578283fd5b8301601f81018513612304578283fd5b80516123126121df82612aa3565b81815283810190838501865b84811015612347576123358a888451890101612238565b8452928601929086019060010161231e565b509098975050505050505050565b60008060408385031215612367578081fd5b823567ffffffffffffffff8082111561237e578283fd5b818501915085601f830112612391578283fd5b813561239f6121df82612aa3565b81815260208082019190858101875b858110156123d7576123c58c8484358b010161227e565b855293820193908201906001016123ae565b509197508801359450505050808211156123ef578283fd5b506123fc858286016121c1565b9150509250929050565b600060208284031215612417578081fd5b815180151581146109ad578182fd5b600060208284031215612437578081fd5b81357fffffffff00000000000000000000000000000000000000000000000000000000811681146109ad578182fd5b600060208284031215612477578081fd5b815167ffffffffffffffff81111561248d578182fd5b61050584828501612238565b6000602082840312156124aa578081fd5b81516109ad81612b13565b6000602082840312156124c6578081fd5b81356109ad81612b13565b6000602082840312156124e2578081fd5b813567ffffffffffffffff8111156124f8578182fd5b6105058482850161227e565b60008060408385031215612516578182fd5b823567ffffffffffffffff81111561252c578283fd5b6125388582860161227e565b925050602083013561254981612b13565b809150509250929050565b600080600060408486031215612568578081fd5b833567ffffffffffffffff8082111561257f578283fd5b61258b8783880161227e565b945060208601359150808211156125a0578283fd5b818601915086601f8301126125b3578283fd5b8135818111156125c1578384fd5b87602080830285010111156125d4578384fd5b6020830194508093505050509250925092565b600080604083850312156125f9578182fd5b823567ffffffffffffffff81111561260f578283fd5b61261b8582860161227e565b95602094909401359450505050565b60006020828403121561263b578081fd5b5035919050565b600060208284031215612653578081fd5b5051919050565b60008151808452612672816020860160208601612ae7565b601f01601f19169290920160200192915050565b9182527fffffffff0000000000000000000000000000000000000000000000000000000016602082015260240190565b600082516126c8818460208701612ae7565b9190910192915050565b7f417262697472756d000000000000000000000000000000000000000000000000815260080190565b90565b73ffffffffffffffffffffffffffffffffffffffff91909116815260200190565b600073ffffffffffffffffffffffffffffffffffffffff841682526040602083015261274e604083018461265a565b949350505050565b73ffffffffffffffffffffffffffffffffffffffff929092168252602082015260400190565b901515815260200190565b90815260200190565b92835273ffffffffffffffffffffffffffffffffffffffff918216602084015216604082015260600190565b6000602082526109ad602083018461265a565b6020808252602a908201527f476175676520776173206e6f7420616464656420746f2074686520476175676560408201527f436f6e74726f6c6c657200000000000000000000000000000000000000000000606082015260800190565b60208082526017908201527f4e6f2067617567657320746f20636865636b706f696e74000000000000000000604082015260600190565b6020808252602a908201527f4d69736d61746368206265747765656e20676175676520747970657320616e6460408201527f2061646472657373657300000000000000000000000000000000000000000000606082015260800190565b6020808252602e908201527f476175676520646f6573206e6f7420636f72726573706f6e6420746f2074686560408201527f2073656c65637465642074797065000000000000000000000000000000000000606082015260800190565b60208082526027908201527f476175676520776173206e6f7420616464656420746f2074686520636865636b60408201527f706f696e74657200000000000000000000000000000000000000000000000000606082015260800190565b60208082526010908201527f476175676520776173206b696c6c656400000000000000000000000000000000604082015260600190565b60208082526012908201527f496e76616c696420676175676520747970650000000000000000000000000000604082015260600190565b60208082526014908201527f476175676520776173206e6f74206b696c6c6564000000000000000000000000604082015260600190565b60208082526027908201527f476175676520616c726561647920616464656420746f2074686520636865636b60408201527f706f696e74657200000000000000000000000000000000000000000000000000606082015260800190565b60405181810167ffffffffffffffff81118282101715612a9b57600080fd5b604052919050565b600067ffffffffffffffff821115612ab9578081fd5b5060209081020190565b600067ffffffffffffffff821115612ad9578081fd5b50601f01601f191660200190565b60005b83811015612b02578181015183820152602001612aea565b838111156110335750506000910152565b73ffffffffffffffffffffffffffffffffffffffff81168114610f3b57600080fdfea2646970667358221220b9f6f917b1cf30fad5b1e065d73e52594bb6b08f6b2bb12776ba3f8c6f38aa6b64736f6c63430007010033",
  "linkReferences": {},
  "deployedLinkReferences": {}
}