{
  "_format": "hh-sol-artifact-1",
  "contractName": "PoolSwapFeeHelper",
  "sourceName": "contracts/PoolSwapFeeHelper.sol",
  "abi": [
    {
      "inputs": [
        {
          "internalType": "contract IVault",
          "name": "vault",
          "type": "address"
        },
        {
          "internalType": "address",
          "name": "initialOwner",
          "type": "address"
        }
      ],
      "stateMutability": "nonpayable",
      "type": "constructor"
    },
    {
      "inputs": [
        {
          "internalType": "uint256",
          "name": "poolSetId",
          "type": "uint256"
        }
      ],
      "name": "IndexOutOfBounds",
      "type": "error"
    },
    {
      "inputs": [
        {
          "internalType": "uint256",
          "name": "poolSetId",
          "type": "uint256"
        }
      ],
      "name": "InvalidPoolSetId",
      "type": "error"
    },
    {
      "inputs": [],
      "name": "InvalidPoolSetManager",
      "type": "error"
    },
    {
      "inputs": [
        {
          "internalType": "address",
          "name": "owner",
          "type": "address"
        }
      ],
      "name": "OwnableInvalidOwner",
      "type": "error"
    },
    {
      "inputs": [
        {
          "internalType": "address",
          "name": "account",
          "type": "address"
        }
      ],
      "name": "OwnableUnauthorizedAccount",
      "type": "error"
    },
    {
      "inputs": [
        {
          "internalType": "address",
          "name": "pool",
          "type": "address"
        },
        {
          "internalType": "uint256",
          "name": "poolSetId",
          "type": "uint256"
        }
      ],
      "name": "PoolAlreadyInSet",
      "type": "error"
    },
    {
      "inputs": [
        {
          "internalType": "address",
          "name": "pool",
          "type": "address"
        }
      ],
      "name": "PoolHasSwapManager",
      "type": "error"
    },
    {
      "inputs": [
        {
          "internalType": "address",
          "name": "pool",
          "type": "address"
        },
        {
          "internalType": "uint256",
          "name": "poolSetId",
          "type": "uint256"
        }
      ],
      "name": "PoolNotInSet",
      "type": "error"
    },
    {
      "inputs": [
        {
          "internalType": "address",
          "name": "pool",
          "type": "address"
        }
      ],
      "name": "PoolNotRegistered",
      "type": "error"
    },
    {
      "inputs": [
        {
          "internalType": "address",
          "name": "poolSetManager",
          "type": "address"
        }
      ],
      "name": "PoolSetManagerNotUnique",
      "type": "error"
    },
    {
      "inputs": [],
      "name": "SenderIsNotPoolSetManager",
      "type": "error"
    },
    {
      "inputs": [],
      "name": "SenderNotAllowed",
      "type": "error"
    },
    {
      "inputs": [],
      "name": "VaultNotSet",
      "type": "error"
    },
    {
      "anonymous": false,
      "inputs": [
        {
          "indexed": true,
          "internalType": "address",
          "name": "previousOwner",
          "type": "address"
        },
        {
          "indexed": true,
          "internalType": "address",
          "name": "newOwner",
          "type": "address"
        }
      ],
      "name": "OwnershipTransferStarted",
      "type": "event"
    },
    {
      "anonymous": false,
      "inputs": [
        {
          "indexed": true,
          "internalType": "address",
          "name": "previousOwner",
          "type": "address"
        },
        {
          "indexed": true,
          "internalType": "address",
          "name": "newOwner",
          "type": "address"
        }
      ],
      "name": "OwnershipTransferred",
      "type": "event"
    },
    {
      "anonymous": false,
      "inputs": [
        {
          "indexed": true,
          "internalType": "address",
          "name": "pool",
          "type": "address"
        },
        {
          "indexed": true,
          "internalType": "uint256",
          "name": "poolSetId",
          "type": "uint256"
        }
      ],
      "name": "PoolAddedToSet",
      "type": "event"
    },
    {
      "anonymous": false,
      "inputs": [
        {
          "indexed": true,
          "internalType": "address",
          "name": "pool",
          "type": "address"
        },
        {
          "indexed": true,
          "internalType": "uint256",
          "name": "poolSetId",
          "type": "uint256"
        }
      ],
      "name": "PoolRemovedFromSet",
      "type": "event"
    },
    {
      "anonymous": false,
      "inputs": [
        {
          "indexed": true,
          "internalType": "uint256",
          "name": "poolSetId",
          "type": "uint256"
        },
        {
          "indexed": true,
          "internalType": "address",
          "name": "initialManager",
          "type": "address"
        }
      ],
      "name": "PoolSetCreated",
      "type": "event"
    },
    {
      "anonymous": false,
      "inputs": [
        {
          "indexed": true,
          "internalType": "uint256",
          "name": "poolSetId",
          "type": "uint256"
        },
        {
          "indexed": true,
          "internalType": "address",
          "name": "manager",
          "type": "address"
        }
      ],
      "name": "PoolSetDestroyed",
      "type": "event"
    },
    {
      "anonymous": false,
      "inputs": [
        {
          "indexed": true,
          "internalType": "uint256",
          "name": "poolSetId",
          "type": "uint256"
        },
        {
          "indexed": true,
          "internalType": "address",
          "name": "oldManager",
          "type": "address"
        },
        {
          "indexed": true,
          "internalType": "address",
          "name": "newManager",
          "type": "address"
        }
      ],
      "name": "PoolSetOwnershipTransferred",
      "type": "event"
    },
    {
      "inputs": [],
      "name": "acceptOwnership",
      "outputs": [],
      "stateMutability": "nonpayable",
      "type": "function"
    },
    {
      "inputs": [
        {
          "internalType": "uint256",
          "name": "poolSetId",
          "type": "uint256"
        },
        {
          "internalType": "address[]",
          "name": "newPools",
          "type": "address[]"
        }
      ],
      "name": "addPoolsToSet",
      "outputs": [],
      "stateMutability": "nonpayable",
      "type": "function"
    },
    {
      "inputs": [
        {
          "internalType": "address",
          "name": "initialManager",
          "type": "address"
        },
        {
          "internalType": "address[]",
          "name": "newPools",
          "type": "address[]"
        }
      ],
      "name": "createPoolSet",
      "outputs": [
        {
          "internalType": "uint256",
          "name": "poolSetId",
          "type": "uint256"
        }
      ],
      "stateMutability": "nonpayable",
      "type": "function"
    },
    {
      "inputs": [
        {
          "internalType": "address",
          "name": "initialManager",
          "type": "address"
        }
      ],
      "name": "createPoolSet",
      "outputs": [
        {
          "internalType": "uint256",
          "name": "",
          "type": "uint256"
        }
      ],
      "stateMutability": "nonpayable",
      "type": "function"
    },
    {
      "inputs": [
        {
          "internalType": "uint256",
          "name": "poolSetId",
          "type": "uint256"
        }
      ],
      "name": "destroyPoolSet",
      "outputs": [],
      "stateMutability": "nonpayable",
      "type": "function"
    },
    {
      "inputs": [
        {
          "internalType": "address",
          "name": "newOwner",
          "type": "address"
        }
      ],
      "name": "forceTransferOwnership",
      "outputs": [],
      "stateMutability": "nonpayable",
      "type": "function"
    },
    {
      "inputs": [
        {
          "internalType": "bytes4",
          "name": "selector",
          "type": "bytes4"
        }
      ],
      "name": "getActionId",
      "outputs": [
        {
          "internalType": "bytes32",
          "name": "",
          "type": "bytes32"
        }
      ],
      "stateMutability": "view",
      "type": "function"
    },
    {
      "inputs": [
        {
          "internalType": "uint256",
          "name": "poolSetId",
          "type": "uint256"
        }
      ],
      "name": "getAllPoolsInSet",
      "outputs": [
        {
          "internalType": "address[]",
          "name": "pools",
          "type": "address[]"
        }
      ],
      "stateMutability": "view",
      "type": "function"
    },
    {
      "inputs": [],
      "name": "getAuthorizer",
      "outputs": [
        {
          "internalType": "contract IAuthorizer",
          "name": "",
          "type": "address"
        }
      ],
      "stateMutability": "view",
      "type": "function"
    },
    {
      "inputs": [
        {
          "internalType": "uint256",
          "name": "poolSetId",
          "type": "uint256"
        }
      ],
      "name": "getManagerForPoolSet",
      "outputs": [
        {
          "internalType": "address",
          "name": "",
          "type": "address"
        }
      ],
      "stateMutability": "view",
      "type": "function"
    },
    {
      "inputs": [],
      "name": "getNextPoolSetId",
      "outputs": [
        {
          "internalType": "uint256",
          "name": "",
          "type": "uint256"
        }
      ],
      "stateMutability": "view",
      "type": "function"
    },
    {
      "inputs": [
        {
          "internalType": "uint256",
          "name": "poolSetId",
          "type": "uint256"
        }
      ],
      "name": "getPoolCountForSet",
      "outputs": [
        {
          "internalType": "uint256",
          "name": "",
          "type": "uint256"
        }
      ],
      "stateMutability": "view",
      "type": "function"
    },
    {
      "inputs": [],
      "name": "getPoolSetIdForCaller",
      "outputs": [
        {
          "internalType": "uint256",
          "name": "",
          "type": "uint256"
        }
      ],
      "stateMutability": "view",
      "type": "function"
    },
    {
      "inputs": [
        {
          "internalType": "address",
          "name": "manager",
          "type": "address"
        }
      ],
      "name": "getPoolSetIdForManager",
      "outputs": [
        {
          "internalType": "uint256",
          "name": "",
          "type": "uint256"
        }
      ],
      "stateMutability": "view",
      "type": "function"
    },
    {
      "inputs": [
        {
          "internalType": "uint256",
          "name": "poolSetId",
          "type": "uint256"
        },
        {
          "internalType": "uint256",
          "name": "from",
          "type": "uint256"
        },
        {
          "internalType": "uint256",
          "name": "to",
          "type": "uint256"
        }
      ],
      "name": "getPoolsInSet",
      "outputs": [
        {
          "internalType": "address[]",
          "name": "pools",
          "type": "address[]"
        }
      ],
      "stateMutability": "view",
      "type": "function"
    },
    {
      "inputs": [
        {
          "internalType": "address",
          "name": "pool",
          "type": "address"
        },
        {
          "internalType": "uint256",
          "name": "poolSetId",
          "type": "uint256"
        }
      ],
      "name": "isPoolInSet",
      "outputs": [
        {
          "internalType": "bool",
          "name": "",
          "type": "bool"
        }
      ],
      "stateMutability": "view",
      "type": "function"
    },
    {
      "inputs": [
        {
          "internalType": "uint256",
          "name": "poolSetId",
          "type": "uint256"
        }
      ],
      "name": "isValidPoolSetId",
      "outputs": [
        {
          "internalType": "bool",
          "name": "",
          "type": "bool"
        }
      ],
      "stateMutability": "view",
      "type": "function"
    },
    {
      "inputs": [],
      "name": "owner",
      "outputs": [
        {
          "internalType": "address",
          "name": "",
          "type": "address"
        }
      ],
      "stateMutability": "view",
      "type": "function"
    },
    {
      "inputs": [],
      "name": "pendingOwner",
      "outputs": [
        {
          "internalType": "address",
          "name": "",
          "type": "address"
        }
      ],
      "stateMutability": "view",
      "type": "function"
    },
    {
      "inputs": [
        {
          "internalType": "uint256",
          "name": "poolSetId",
          "type": "uint256"
        },
        {
          "internalType": "address[]",
          "name": "pools",
          "type": "address[]"
        }
      ],
      "name": "removePoolsFromSet",
      "outputs": [],
      "stateMutability": "nonpayable",
      "type": "function"
    },
    {
      "inputs": [],
      "name": "renounceOwnership",
      "outputs": [],
      "stateMutability": "nonpayable",
      "type": "function"
    },
    {
      "inputs": [
        {
          "internalType": "address",
          "name": "pool",
          "type": "address"
        },
        {
          "internalType": "uint256",
          "name": "swapFeePercentage",
          "type": "uint256"
        }
      ],
      "name": "setStaticSwapFeePercentage",
      "outputs": [],
      "stateMutability": "nonpayable",
      "type": "function"
    },
    {
      "inputs": [
        {
          "internalType": "address",
          "name": "newOwner",
          "type": "address"
        }
      ],
      "name": "transferOwnership",
      "outputs": [],
      "stateMutability": "nonpayable",
      "type": "function"
    },
    {
      "inputs": [
        {
          "internalType": "address",
          "name": "newManager",
          "type": "address"
        }
      ],
      "name": "transferPoolSetOwnership",
      "outputs": [],
      "stateMutability": "nonpayable",
      "type": "function"
    },
    {
      "inputs": [],
      "name": "vault",
      "outputs": [
        {
          "internalType": "contract IVault",
          "name": "",
          "type": "address"
        }
      ],
      "stateMutability": "view",
      "type": "function"
    }
  ],
  "bytecode": "0x60c03461011e57601f611b8d38819003918201601f19168301916001600160401b0383118484101761012257808492604094855283398101031261011e5780516001600160a01b03918282169081830361011e576020015183811680910361011e57801561010b5760018060a01b0319938460015416600155815f54958616175f5560405194167f8be0079c531659141344cd1fd0a4f28419497f9722a3daafe3b4186f6b6457e05f80a330608052156100fc5760a0526001600255611a569081610137823960805181611442015260a0518181816101610152818161029b015281816105c20152818161074b01528181610d9301526118f40152f35b630647140b60e51b5f5260045ffd5b631e4fbdf760e01b5f525f60045260245ffd5b5f80fd5b634e487b7160e01b5f52604160045260245ffdfe60406080815260049081361015610014575f80fd5b5f915f35908160e01c918263182551da146111a8578263255dae411461116857826325c427ed146111255782632da55a1d1461105d5782633700f98714610fa95782633e035f9b14610d0b57826362d5346214610cda578263715018a614610c5557826379ba509714610bf15782637c1ec46014610aa5578263851c1bb314610a5c5782638c60ebd0146109165782638da5cb5b146108e357826394fc405814610863578263a89b1128146107c057508163aaabadc5146106f7578163c482e822146106d9578163ce998aba146106b5578163d15126ba14610559578163e30c397814610524578163e909c19b146104e6578163ebf3a8d01461025d578163f167a1e61461021b57508063f2fde38b146101895763fbfa77cf14610136575f80fd5b346101855781600319360112610185576020905173ffffffffffffffffffffffffffffffffffffffff7f0000000000000000000000000000000000000000000000000000000000000000168152f35b5080fd5b8234610218576020600319360112610218576101a3611210565b6101ab61155f565b73ffffffffffffffffffffffffffffffffffffffff80911690817fffffffffffffffffffffffff000000000000000000000000000000000000000060015416176001558254167f38d16b8cac22d99fc7c124b9cd0de2d3fa1faef420bfe791d8c362d765e227008380a380f35b80fd5b905034610259576020600319360112610259578160209373ffffffffffffffffffffffffffffffffffffffff92358152600385522054169051908152f35b8280fd5b919050346102595761026e36611352565b909161027861155f565b610281836114fa565b81519373ffffffffffffffffffffffffffffffffffffffff7f0000000000000000000000000000000000000000000000000000000000000000811693875b8781106102ca578880f35b826102d582846113d6565b511685517fc673bdaf00000000000000000000000000000000000000000000000000000000815281868201526020602491818184818d5afa9081156104dc578d916104af575b50156104855761033483898e8d815260058552206119c8565b15610457578b88517fe9ddeb260000000000000000000000000000000000000000000000000000000081528489820152808b818660609384935afa92831561044c57908994939291926103e4575b50500151166103bb575090876001927f5cda7ebcbcc755c3ef1c6cf035a6e26bf48b6421f72f932756d942c896287b698c80a3016102bf565b8a82877ff043494a00000000000000000000000000000000000000000000000000000000835252fd5b8194508092503d8311610445575b6103fc818361127c565b810103126104415786916104368a80519261041684611233565b61041f81611773565b845261042c858201611773565b8585015201611773565b8a8201525f80610382565b8c80fd5b503d6103f2565b8b51903d90823e3d90fd5b60448c8b84868b7f5a17aa8d0000000000000000000000000000000000000000000000000000000085525252fd5b508a82877f9e51bd5c00000000000000000000000000000000000000000000000000000000835252fd5b6104cf9150823d84116104d5575b6104c7818361127c565b8101906114e2565b5f61031b565b503d6104bd565b89513d8f823e3d90fd5b5050346101855760206003193601126101855760209061051d610507611210565b61050f61155f565b610518816115ab565b61166c565b9051908152f35b50503461018557816003193601126101855760209073ffffffffffffffffffffffffffffffffffffffff600154169051908152f35b91905034610683578060031936011261068357610574611210565b9161057d61162e565b92835f526005602052825f20936105ba73ffffffffffffffffffffffffffffffffffffffff80931680966001915f520160205260405f2054151590565b1561068757507f00000000000000000000000000000000000000000000000000000000000000001692833b15610683575f9360448592855196879384927fd15126ba0000000000000000000000000000000000000000000000000000000084528784015260243560248401525af1801561067957610636578380f35b9091925067ffffffffffffffff831161064d575052005b6041907f4e487b71000000000000000000000000000000000000000000000000000000005f525260245ffd5b82513d5f823e3d90fd5b5f80fd5b84837f80145d72000000000000000000000000000000000000000000000000000000005f525260245260445ffd5b8234610683575f60031936011261068357602091335f528252805f20549051908152f35b8234610683575f600319360112610683576020906002549051908152f35b905034610683575f6003193601126106835773ffffffffffffffffffffffffffffffffffffffff6020835180937faaabadc500000000000000000000000000000000000000000000000000000000825281847f0000000000000000000000000000000000000000000000000000000000000000165afa9182156107b657926020935f93610787575b505191168152f35b6107a8919350843d86116107af575b6107a0818361127c565b8101906114b6565b918461077f565b503d610796565b83513d5f823e3d90fd5b346106835760206003193601126106835761080e6108077fffffffff00000000000000000000000000000000000000000000000000000000610800611210565b9316611417565b339061189d565b1561083c5773ffffffffffffffffffffffffffffffffffffffff5f5416331461083c5761083a90611701565b005b507f23dada53000000000000000000000000000000000000000000000000000000005f525ffd5b8382346106835760209060206003193601126106835735610883816114fa565b5f526005602052815f209180519182602085549182815201945f5260205f20915f905b8282106108cc576108c886866108be828b038361127c565b5191829182611385565b0390f35b8354875295860195600193840193909101906108a6565b8334610683575f6003193601126106835760209073ffffffffffffffffffffffffffffffffffffffff5f54169051908152f35b838234610683576060600319360112610683578035906024356044359161093c846114fa565b835f526005906020906005602052865f2054858511908115610a52575b8115610a47575b50610a1c5750610970838561147c565b947fffffffffffffffffffffffffffffffffffffffffffffffffffffffffffffffe06109b361099e886112bd565b976109ab8a51998a61127c565b8089526112bd565b01366020880137835b8581106109d0578751806108c88982611385565b600190825f5284845273ffffffffffffffffffffffffffffffffffffffff6109fa828b5f20611794565b90549060031b1c16610a15610a0f888461147c565b8a6113d6565b52016109bc565b85907f44945fcc000000000000000000000000000000000000000000000000000000005f525260245ffd5b905084101588610960565b8087119150610959565b8382346106835760206003193601126106835735907fffffffff00000000000000000000000000000000000000000000000000000000821682036106835761051d602092611417565b838234610683576020918260031936011261068357813591610ac561155f565b610ace836114fa565b825f5260058452815f208054805b610b91575050825f5260058452815f208054905f815581610b74575b5050905f9183835260038552818320948554957fffffffffffffffffffffffff000000000000000000000000000000000000000073ffffffffffffffffffffffffffffffffffffffff881697169055858452528120557f79baa5e19a392c29299f3a0871dfaa49cb3bcce18826d5d6df199c9e0846a6c05f80a3005b5f52845f20908101905b81811015610af8575f8155600101610b7e565b5f190180610beb73ffffffffffffffffffffffffffffffffffffffff610bb78386611794565b90549060031b1c1687817fe632b6be71c5c7f5d98ba00da8b648a72422f750973138bc6474de6fe711b66e5f80a3846117a9565b50610adc565b5034610683575f600319360112610683573373ffffffffffffffffffffffffffffffffffffffff6001541603610c2a5761083a33611701565b7f118cdaa7000000000000000000000000000000000000000000000000000000005f5233905260245ffd5b34610683575f60031936011261068357610c6d61155f565b5f73ffffffffffffffffffffffffffffffffffffffff7fffffffffffffffffffffffff0000000000000000000000000000000000000000806001541660015582549081168355167f8be0079c531659141344cd1fd0a4f28419497f9722a3daafe3b4186f6b6457e08280a3005b5082346106835760206003193601126106835760209135610cfa816114fa565b5f5260058252805f20549051908152f35b838234610683578160031936011261068357610d25611210565b91602492833567ffffffffffffffff811161068357610d4a610d5391369086016112d5565b9161050f61155f565b928151610d65575b6020848451908152f35b610d6d61155f565b610d76846114fa565b8151915f73ffffffffffffffffffffffffffffffffffffffff91827f000000000000000000000000000000000000000000000000000000000000000016915b858110610dc55750505050610d5b565b83610dd082846113d6565b511687517fc673bdaf000000000000000000000000000000000000000000000000000000008152818782015260209081818d81895afa908115610f9f575f91610f82575b5015610f5857895f5260058152610e2d828a5f206119c8565b15610f2a5788517fe9ddeb260000000000000000000000000000000000000000000000000000000081528288820152808c6060928391818a5afa918215610f205790889392915f92610edc575b5050015116610eb25790886001927f5cda7ebcbcc755c3ef1c6cf035a6e26bf48b6421f72f932756d942c896287b695f80a301610db5565b8990867ff043494a000000000000000000000000000000000000000000000000000000005f52525ffd5b8194508092503d8311610f19575b610ef4818361127c565b81010312610683578691610f0e8b80519261041684611233565b8b8201528d80610e7a565b503d610eea565b8b513d5f823e3d90fd5b898b83897f5a17aa8d000000000000000000000000000000000000000000000000000000005f52525260445ffd5b8a82887f9e51bd5c000000000000000000000000000000000000000000000000000000005f52525ffd5b610f999150823d84116104d5576104c7818361127c565b8c610e14565b8a513d5f823e3d90fd5b50823461068357602060031936011261068357610fc4611210565b91610fce836115ab565b610fd661162e565b918291825f52600360205273ffffffffffffffffffffffffffffffffffffffff825f20951694857fffffffffffffffffffffffff0000000000000000000000000000000000000000825416179055335f526020525f81812055835f525f205533907f8a5583d08cb82be0e3e26d52a1941f10fe2fdd1bb7cc5e085a0ba35b3d7972055f80a4005b5082346106835761106d36611352565b9161107661155f565b61107f826114fa565b8251925f5b84811061108d57005b73ffffffffffffffffffffffffffffffffffffffff6110ac82846113d6565b5116845f5260056020526110c281855f206117a9565b156110f65790846001927fe632b6be71c5c7f5d98ba00da8b648a72422f750973138bc6474de6fe711b66e5f80a301611084565b8490877f80145d72000000000000000000000000000000000000000000000000000000005f525260245260445ffd5b5082346106835760206003193601126106835760209173ffffffffffffffffffffffffffffffffffffffff611158611210565b165f528252805f20549051908152f35b50823461068357602060031936011261068357602091355f526003825273ffffffffffffffffffffffffffffffffffffffff815f20541615159051908152f35b83346106835780600319360112610683576020906112076111c7611210565b6024356111d3816114fa565b5f526005845273ffffffffffffffffffffffffffffffffffffffff835f209116906001915f520160205260405f2054151590565b90519015158152f35b6004359073ffffffffffffffffffffffffffffffffffffffff8216820361068357565b6060810190811067ffffffffffffffff82111761124f57604052565b7f4e487b71000000000000000000000000000000000000000000000000000000005f52604160045260245ffd5b90601f7fffffffffffffffffffffffffffffffffffffffffffffffffffffffffffffffe0910116810190811067ffffffffffffffff82111761124f57604052565b67ffffffffffffffff811161124f5760051b60200190565b9080601f830112156106835760209082356112ef816112bd565b936112fd604051958661127c565b81855260208086019260051b82010192831161068357602001905b828210611326575050505090565b813573ffffffffffffffffffffffffffffffffffffffff81168103610683578152908301908301611318565b90604060031983011261068357600435916024359067ffffffffffffffff821161068357611382916004016112d5565b90565b60209060206040818301928281528551809452019301915f5b8281106113ac575050505090565b835173ffffffffffffffffffffffffffffffffffffffff168552938101939281019260010161139e565b80518210156113ea5760209160051b010190565b7f4e487b71000000000000000000000000000000000000000000000000000000005f52603260045260245ffd5b6040517fffffffff0000000000000000000000000000000000000000000000000000000060208201927f000000000000000000000000000000000000000000000000000000000000000084521660408201526024815261147681611233565b51902090565b9190820391821161148957565b7f4e487b71000000000000000000000000000000000000000000000000000000005f52601160045260245ffd5b90816020910312610683575173ffffffffffffffffffffffffffffffffffffffff811681036106835790565b90816020910312610683575180151581036106835790565b80158015611535575b61150a5750565b7f98592ddb000000000000000000000000000000000000000000000000000000005f5260045260245ffd5b50805f52600360205273ffffffffffffffffffffffffffffffffffffffff60405f20541615611503565b73ffffffffffffffffffffffffffffffffffffffff5f5416330361157f57565b7f118cdaa7000000000000000000000000000000000000000000000000000000005f523360045260245ffd5b73ffffffffffffffffffffffffffffffffffffffff16801561160657805f52600460205260405f20546115db5750565b7f2c35aa96000000000000000000000000000000000000000000000000000000005f5260045260245ffd5b7f2de5256e000000000000000000000000000000000000000000000000000000005f5260045ffd5b335f52600460205260405f205490811561164457565b7fbcc08f74000000000000000000000000000000000000000000000000000000005f5260045ffd5b90600254915f198314611489576001830160025582805f52600360205273ffffffffffffffffffffffffffffffffffffffff60405f20921691827fffffffffffffffffffffffff0000000000000000000000000000000000000000825416179055815f5260046020528060405f20557fdc91443db112ae1beb8fab12e3fa2dedea028e9eb6a8e92776a1aa2343007be25f80a3565b7fffffffffffffffffffffffff00000000000000000000000000000000000000009081600154166001555f5473ffffffffffffffffffffffffffffffffffffffff80921680938216175f55167f8be0079c531659141344cd1fd0a4f28419497f9722a3daafe3b4186f6b6457e05f80a3565b519073ffffffffffffffffffffffffffffffffffffffff8216820361068357565b80548210156113ea575f5260205f2001905f90565b906001820191815f528260205260405f2054908115155f14611895575f1991828101818111611489578254908482019182116114895781810361184a575b5050508054801561181d578201916117ff8383611794565b909182549160031b1b19169055555f526020525f6040812055600190565b7f4e487b71000000000000000000000000000000000000000000000000000000005f52603160045260245ffd5b61188061185a61186a9386611794565b90549060031b1c92839286611794565b81939154905f199060031b92831b921b19161790565b90555f528460205260405f20555f80806117e7565b505050505f90565b9073ffffffffffffffffffffffffffffffffffffffff9081805f541691169081146119c057604051907faaabadc50000000000000000000000000000000000000000000000000000000082526020938483600481877f0000000000000000000000000000000000000000000000000000000000000000165afa9384156119915785935f9561199c575b509060649160405195869485937f9be2a88400000000000000000000000000000000000000000000000000000000855260048501526024840152306044840152165afa918215611991575f9261197b57505090565b6113829250803d106104d5576104c7818361127c565b6040513d5f823e3d90fd5b6064929195506119b890853d87116107af576107a0818361127c565b949091611926565b505050600190565b5f828152600182016020526040902054611a1a578054906801000000000000000082101561124f5782611a0561186a846001809601855584611794565b90558054925f520160205260405f2055600190565b50505f9056fea26469706673582212208dc0e4743e12ee5f0d77b67b9e416275d12bb9532fbad2e7db007a9e72871de864736f6c634300081b0033",
  "linkReferences": {},
  "deployedLinkReferences": {}
}