{
  "_format": "hh-sol-artifact-1",
  "contractName": "ProtocolFeePercentagesProvider",
  "sourceName": "contracts/ProtocolFeePercentagesProvider.sol",
  "abi": [
    {
      "inputs": [
        {
          "internalType": "contract IVault",
          "name": "vault",
          "type": "address"
        },
        {
          "internalType": "contract IProtocolFeeController",
          "name": "protocolFeeController",
          "type": "address"
        },
        {
          "internalType": "contract IBalancerContractRegistry",
          "name": "trustedContractRegistry",
          "type": "address"
        }
      ],
      "stateMutability": "nonpayable",
      "type": "constructor"
    },
    {
      "inputs": [
        {
          "internalType": "address",
          "name": "factory",
          "type": "address"
        }
      ],
      "name": "FactoryFeesNotSet",
      "type": "error"
    },
    {
      "inputs": [],
      "name": "FeePrecisionTooHigh",
      "type": "error"
    },
    {
      "inputs": [
        {
          "internalType": "address",
          "name": "pool",
          "type": "address"
        },
        {
          "internalType": "address",
          "name": "factory",
          "type": "address"
        }
      ],
      "name": "PoolNotFromFactory",
      "type": "error"
    },
    {
      "inputs": [],
      "name": "ProtocolSwapFeePercentageTooHigh",
      "type": "error"
    },
    {
      "inputs": [],
      "name": "ProtocolYieldFeePercentageTooHigh",
      "type": "error"
    },
    {
      "inputs": [
        {
          "internalType": "uint8",
          "name": "bits",
          "type": "uint8"
        },
        {
          "internalType": "uint256",
          "name": "value",
          "type": "uint256"
        }
      ],
      "name": "SafeCastOverflowedUintDowncast",
      "type": "error"
    },
    {
      "inputs": [],
      "name": "SenderNotAllowed",
      "type": "error"
    },
    {
      "inputs": [
        {
          "internalType": "address",
          "name": "factory",
          "type": "address"
        }
      ],
      "name": "UnknownFactory",
      "type": "error"
    },
    {
      "inputs": [],
      "name": "VaultNotSet",
      "type": "error"
    },
    {
      "inputs": [],
      "name": "WrongProtocolFeeControllerDeployment",
      "type": "error"
    },
    {
      "anonymous": false,
      "inputs": [
        {
          "indexed": true,
          "internalType": "address",
          "name": "factory",
          "type": "address"
        },
        {
          "indexed": false,
          "internalType": "uint256",
          "name": "protocolSwapFeePercentage",
          "type": "uint256"
        },
        {
          "indexed": false,
          "internalType": "uint256",
          "name": "protocolYieldFeePercentage",
          "type": "uint256"
        }
      ],
      "name": "FactorySpecificProtocolFeePercentagesSet",
      "type": "event"
    },
    {
      "inputs": [
        {
          "internalType": "bytes4",
          "name": "selector",
          "type": "bytes4"
        }
      ],
      "name": "getActionId",
      "outputs": [
        {
          "internalType": "bytes32",
          "name": "",
          "type": "bytes32"
        }
      ],
      "stateMutability": "view",
      "type": "function"
    },
    {
      "inputs": [],
      "name": "getAuthorizer",
      "outputs": [
        {
          "internalType": "contract IAuthorizer",
          "name": "",
          "type": "address"
        }
      ],
      "stateMutability": "view",
      "type": "function"
    },
    {
      "inputs": [],
      "name": "getBalancerContractRegistry",
      "outputs": [
        {
          "internalType": "contract IBalancerContractRegistry",
          "name": "",
          "type": "address"
        }
      ],
      "stateMutability": "view",
      "type": "function"
    },
    {
      "inputs": [
        {
          "internalType": "address",
          "name": "factory",
          "type": "address"
        }
      ],
      "name": "getFactorySpecificProtocolFeePercentages",
      "outputs": [
        {
          "internalType": "uint256",
          "name": "protocolSwapFeePercentage",
          "type": "uint256"
        },
        {
          "internalType": "uint256",
          "name": "protocolYieldFeePercentage",
          "type": "uint256"
        }
      ],
      "stateMutability": "view",
      "type": "function"
    },
    {
      "inputs": [],
      "name": "getProtocolFeeController",
      "outputs": [
        {
          "internalType": "contract IProtocolFeeController",
          "name": "",
          "type": "address"
        }
      ],
      "stateMutability": "view",
      "type": "function"
    },
    {
      "inputs": [],
      "name": "getVault",
      "outputs": [
        {
          "internalType": "contract IVault",
          "name": "",
          "type": "address"
        }
      ],
      "stateMutability": "view",
      "type": "function"
    },
    {
      "inputs": [
        {
          "internalType": "address",
          "name": "factory",
          "type": "address"
        },
        {
          "internalType": "uint256",
          "name": "protocolSwapFeePercentage",
          "type": "uint256"
        },
        {
          "internalType": "uint256",
          "name": "protocolYieldFeePercentage",
          "type": "uint256"
        }
      ],
      "name": "setFactorySpecificProtocolFeePercentages",
      "outputs": [],
      "stateMutability": "nonpayable",
      "type": "function"
    },
    {
      "inputs": [
        {
          "internalType": "address",
          "name": "factory",
          "type": "address"
        },
        {
          "internalType": "address[]",
          "name": "pools",
          "type": "address[]"
        }
      ],
      "name": "setProtocolFeePercentagesForPools",
      "outputs": [],
      "stateMutability": "nonpayable",
      "type": "function"
    }
  ],
  "bytecode": "0x61014060408181523461017957606082610f118038038091610021828561021a565b8339810103126101795761003482610251565b6020838101516001600160a01b0380821695929493909286830361017957840151928084168403610179573060805280821691821561020b5760a052845163fbfa77cf60e01b815286816004818b5afa908115610201575f916101cc575b5016036101bd5760e05260c05280516313b968ab60e11b8152928284600481845afa938415610184575f9461018e575b5082600491610100958652835192838092630bc65c9d60e31b82525afa928315610184575f93610150575b50506101209182525190610cab9283610266843960805183610ab4015260a05183818161015f015281816102000152610668015260c05183818160e7015261077e015260e0518381816102500152610373015251826106f40152518161071b0152f35b9080929350813d831161017d575b610168818361021a565b810103126101795751905f806100ed565b5f80fd5b503d61015e565b82513d5f823e3d90fd5b9093508281813d83116101b6575b6101a6818361021a565b81010312610179575192826100c2565b503d61019c565b631bbe95c760e01b5f5260045ffd5b90508681813d83116101fa575b6101e3818361021a565b81010312610179576101f490610251565b5f610092565b503d6101d9565b86513d5f823e3d90fd5b630647140b60e51b5f5260045ffd5b601f909101601f19168101906001600160401b0382119082101761023d57604052565b634e487b7160e01b5f52604160045260245ffd5b51906001600160a01b03821682036101795756fe604060808152600480361015610013575f80fd5b5f35908160e01c918262859689146105d557508163344b12d5146102c4578163851c1bb31461027457816385f2dbd4146102245781638d928af8146101d4578163aaabadc51461010b57508063deb27a7a146100bb5763f2c24ec814610077575f80fd5b346100b75760206003193601126100b7576100986100936109b0565b610bd4565b67ffffffffffffffff6020818351169201511682519182526020820152f35b5f80fd5b50346100b7575f6003193601126100b7576020905173ffffffffffffffffffffffffffffffffffffffff7f0000000000000000000000000000000000000000000000000000000000000000168152f35b9050346100b7575f6003193601126100b75773ffffffffffffffffffffffffffffffffffffffff6020835180937faaabadc500000000000000000000000000000000000000000000000000000000825281847f0000000000000000000000000000000000000000000000000000000000000000165afa9182156101ca57926020935f9361019b575b505191168152f35b6101bc919350843d86116101c3575b6101b48183610a30565b810190610aee565b915f610193565b503d6101aa565b83513d5f823e3d90fd5b82346100b7575f6003193601126100b7576020905173ffffffffffffffffffffffffffffffffffffffff7f0000000000000000000000000000000000000000000000000000000000000000168152f35b82346100b7575f6003193601126100b7576020905173ffffffffffffffffffffffffffffffffffffffff7f0000000000000000000000000000000000000000000000000000000000000000168152f35b9050346100b75760206003193601126100b75735907fffffffff00000000000000000000000000000000000000000000000000000000821682036100b7576102bd602092610a89565b9051908152f35b9050346100b757816003193601126100b7576102de6109b0565b60249182359167ffffffffffffffff8084116100b757366023850112156100b75783830135908082116105aa5760058260051b9560209689519461032489830187610a30565b85528888860191830101913683116100b7579880959901905b8282106105785750505061035084610bd4565b905f938783019573ffffffffffffffffffffffffffffffffffffffff80911692817f000000000000000000000000000000000000000000000000000000000000000016965b8b5181101561057657828b8d83851b01015116908d517f6634b753000000000000000000000000000000000000000000000000000000008152828c8201528c8187818a5afa90811561056c575f9161053f575b5015610510578787511691888b5116928a3b156100b7578f517ffd267f3900000000000000000000000000000000000000000000000000000000815273ffffffffffffffffffffffffffffffffffffffff83168e82019081526020810192909252905f90829081900360400181838f5af18015610505576104f6575b50893b156100b7578e517fabaa335600000000000000000000000000000000000000000000000000000000815273ffffffffffffffffffffffffffffffffffffffff909116818d019081526020810193909352915f90839081906040010381838d5af19182156104ec576001926104dd575b5001610395565b6104e690610a1c565b5f6104d6565b8e513d5f823e3d90fd5b6104ff90610a1c565b5f610464565b508f513d5f823e3d90fd5b50915050877ff400ce63000000000000000000000000000000000000000000000000000000005f52525260445ffd5b61055f91508d803d10610565575b6105578183610a30565b810190610a71565b5f6103e8565b503d61054d565b8f513d5f823e3d90fd5b005b819995993573ffffffffffffffffffffffffffffffffffffffff811681036100b757815294989490880190880161033d565b856041857f4e487b71000000000000000000000000000000000000000000000000000000005f52525ffd5b9083346100b75760606003193601126100b7576105f06109b0565b92602435906106237fffffffff000000000000000000000000000000000000000000000000000000006044359216610a89565b73ffffffffffffffffffffffffffffffffffffffff9584517faaabadc5000000000000000000000000000000000000000000000000000000008152602092838289818c7f0000000000000000000000000000000000000000000000000000000000000000165afa9182156109a6579184918a935f92610984575b50606490895194859384927f9be2a8840000000000000000000000000000000000000000000000000000000084528d840152336024840152306044840152165afa90811561097a575f9161095d575b5015610936577f0000000000000000000000000000000000000000000000000000000000000000841161090f577f000000000000000000000000000000000000000000000000000000000000000083116108e85781879160448751809481937fae2733a400000000000000000000000000000000000000000000000000000000835260018c840152169a8b60248301527f0000000000000000000000000000000000000000000000000000000000000000165afa9081156108de575f916108c1575b5015610896577f2c3f7d4fd7252aea844c55450b24cac1853ac3a3293a3d0616193b7d854cf0f094506107e083610b1a565b6107e982610b1a565b6107f283610b8f565b6107fb83610b8f565b855191610807836109d3565b67ffffffffffffffff809116835280848401921682528683019060018252895f525f8552875f209351167fffffffffffffffffffffffffffffff000000000000000000000000000000000070ff000000000000000000000000000000006fffffffffffffffff0000000000000000865495518b1b169351151560801b16931617171790558351928352820152a2005b85857fc2a47384000000000000000000000000000000000000000000000000000000005f525260245ffd5b6108d89150823d8411610565576105578183610a30565b876107ae565b85513d5f823e3d90fd5b857fa7849e8e000000000000000000000000000000000000000000000000000000005f525ffd5b857f7e6eb7fb000000000000000000000000000000000000000000000000000000005f525ffd5b857f23dada53000000000000000000000000000000000000000000000000000000005f525ffd5b6109749150833d8511610565576105578183610a30565b886106ec565b86513d5f823e3d90fd5b606491925061099f90843d86116101c3576101b48183610a30565b919061069d565b87513d5f823e3d90fd5b6004359073ffffffffffffffffffffffffffffffffffffffff821682036100b757565b6060810190811067ffffffffffffffff8211176109ef57604052565b7f4e487b71000000000000000000000000000000000000000000000000000000005f52604160045260245ffd5b67ffffffffffffffff81116109ef57604052565b90601f7fffffffffffffffffffffffffffffffffffffffffffffffffffffffffffffffe0910116810190811067ffffffffffffffff8211176109ef57604052565b908160209103126100b7575180151581036100b75790565b6040517fffffffff0000000000000000000000000000000000000000000000000000000060208201927f0000000000000000000000000000000000000000000000000000000000000000845216604082015260248152610ae8816109d3565b51902090565b908160209103126100b7575173ffffffffffffffffffffffffffffffffffffffff811681036100b75790565b64174876e800808204818102918183041490151715610b625703610b3a57565b7f833fb3ce000000000000000000000000000000000000000000000000000000005f5260045ffd5b7f4e487b71000000000000000000000000000000000000000000000000000000005f52601160045260245ffd5b67ffffffffffffffff90818111610ba4571690565b7f6dfcc650000000000000000000000000000000000000000000000000000000005f52604060045260245260445ffd5b9073ffffffffffffffffffffffffffffffffffffffff6040925f848051610bfa816109d3565b828152826020820152015216805f525f602052825f2060ff845191610c1e836109d3565b5467ffffffffffffffff808216845281871c16602084015260801c16159384159082015292610c4a5750565b7fa589c09e000000000000000000000000000000000000000000000000000000005f5260045260245ffdfea2646970667358221220e0e46dc12db654dd1f66a42d58affbb6d70bc594d2c0341c57b23526e1e7e9e864736f6c634300081b0033",
  "linkReferences": {},
  "deployedLinkReferences": {}
}