{
  "_format": "hh-sol-artifact-1",
  "contractName": "LBPMigrationRouter",
  "sourceName": "contracts/lbp/LBPMigrationRouter.sol",
  "abi": [
    {
      "inputs": [
        {
          "internalType": "contract BalancerContractRegistry",
          "name": "contractRegistry",
          "type": "address"
        },
        {
          "internalType": "string",
          "name": "version",
          "type": "string"
        }
      ],
      "stateMutability": "nonpayable",
      "type": "constructor"
    },
    {
      "inputs": [
        {
          "internalType": "string",
          "name": "contractName",
          "type": "string"
        }
      ],
      "name": "ContractIsNotActiveInRegistry",
      "type": "error"
    },
    {
      "inputs": [
        {
          "internalType": "contract IERC20",
          "name": "token",
          "type": "address"
        },
        {
          "internalType": "uint256",
          "name": "actualAmount",
          "type": "uint256"
        }
      ],
      "name": "InsufficientInputAmount",
      "type": "error"
    },
    {
      "inputs": [
        {
          "internalType": "contract ILBPool",
          "name": "lbp",
          "type": "address"
        }
      ],
      "name": "LBPWeightsNotFinalized",
      "type": "error"
    },
    {
      "inputs": [],
      "name": "SenderIsNotLBPOwner",
      "type": "error"
    },
    {
      "inputs": [
        {
          "internalType": "address",
          "name": "sender",
          "type": "address"
        }
      ],
      "name": "SenderIsNotVault",
      "type": "error"
    },
    {
      "anonymous": false,
      "inputs": [
        {
          "indexed": true,
          "internalType": "contract ILBPool",
          "name": "lbp",
          "type": "address"
        },
        {
          "indexed": true,
          "internalType": "contract IWeightedPool",
          "name": "weightedPool",
          "type": "address"
        },
        {
          "indexed": false,
          "internalType": "uint256",
          "name": "bptAmountOut",
          "type": "uint256"
        }
      ],
      "name": "PoolMigrated",
      "type": "event"
    },
    {
      "inputs": [
        {
          "internalType": "contract ILBPool",
          "name": "lbp",
          "type": "address"
        },
        {
          "internalType": "uint256[]",
          "name": "exactAmountsIn",
          "type": "uint256[]"
        },
        {
          "internalType": "uint256",
          "name": "minAddBptAmountOut",
          "type": "uint256"
        },
        {
          "internalType": "uint256[]",
          "name": "minRemoveAmountsOut",
          "type": "uint256[]"
        },
        {
          "internalType": "address",
          "name": "excessReceiver",
          "type": "address"
        },
        {
          "components": [
            {
              "internalType": "string",
              "name": "name",
              "type": "string"
            },
            {
              "internalType": "string",
              "name": "symbol",
              "type": "string"
            },
            {
              "internalType": "uint256[]",
              "name": "normalizedWeights",
              "type": "uint256[]"
            },
            {
              "components": [
                {
                  "internalType": "address",
                  "name": "pauseManager",
                  "type": "address"
                },
                {
                  "internalType": "address",
                  "name": "swapFeeManager",
                  "type": "address"
                },
                {
                  "internalType": "address",
                  "name": "poolCreator",
                  "type": "address"
                }
              ],
              "internalType": "struct PoolRoleAccounts",
              "name": "roleAccounts",
              "type": "tuple"
            },
            {
              "internalType": "uint256",
              "name": "swapFeePercentage",
              "type": "uint256"
            },
            {
              "internalType": "address",
              "name": "poolHooksContract",
              "type": "address"
            },
            {
              "internalType": "bool",
              "name": "enableDonation",
              "type": "bool"
            },
            {
              "internalType": "bool",
              "name": "disableUnbalancedLiquidity",
              "type": "bool"
            },
            {
              "internalType": "bytes32",
              "name": "salt",
              "type": "bytes32"
            }
          ],
          "internalType": "struct ILBPMigrationRouter.WeightedPoolParams",
          "name": "params",
          "type": "tuple"
        }
      ],
      "name": "migrateLiquidity",
      "outputs": [
        {
          "internalType": "contract IWeightedPool",
          "name": "",
          "type": "address"
        },
        {
          "internalType": "uint256",
          "name": "",
          "type": "uint256"
        }
      ],
      "stateMutability": "nonpayable",
      "type": "function"
    },
    {
      "inputs": [
        {
          "components": [
            {
              "internalType": "contract ILBPool",
              "name": "lbp",
              "type": "address"
            },
            {
              "internalType": "contract IWeightedPool",
              "name": "weightedPool",
              "type": "address"
            },
            {
              "internalType": "contract IERC20[]",
              "name": "tokens",
              "type": "address[]"
            },
            {
              "internalType": "address",
              "name": "sender",
              "type": "address"
            },
            {
              "internalType": "address",
              "name": "excessReceiver",
              "type": "address"
            },
            {
              "internalType": "uint256[]",
              "name": "exactAmountsIn",
              "type": "uint256[]"
            },
            {
              "internalType": "uint256",
              "name": "minAddBptAmountOut",
              "type": "uint256"
            },
            {
              "internalType": "uint256[]",
              "name": "minRemoveAmountsOut",
              "type": "uint256[]"
            }
          ],
          "internalType": "struct ILBPMigrationRouter.MigrationHookParams",
          "name": "params",
          "type": "tuple"
        }
      ],
      "name": "migrateLiquidityHook",
      "outputs": [
        {
          "internalType": "uint256",
          "name": "bptAmountOut",
          "type": "uint256"
        }
      ],
      "stateMutability": "nonpayable",
      "type": "function"
    },
    {
      "inputs": [
        {
          "internalType": "contract ILBPool",
          "name": "lbp",
          "type": "address"
        },
        {
          "internalType": "uint256[]",
          "name": "exactAmountsIn",
          "type": "uint256[]"
        },
        {
          "internalType": "address",
          "name": "sender",
          "type": "address"
        },
        {
          "internalType": "address",
          "name": "excessReceiver",
          "type": "address"
        },
        {
          "components": [
            {
              "internalType": "string",
              "name": "name",
              "type": "string"
            },
            {
              "internalType": "string",
              "name": "symbol",
              "type": "string"
            },
            {
              "internalType": "uint256[]",
              "name": "normalizedWeights",
              "type": "uint256[]"
            },
            {
              "components": [
                {
                  "internalType": "address",
                  "name": "pauseManager",
                  "type": "address"
                },
                {
                  "internalType": "address",
                  "name": "swapFeeManager",
                  "type": "address"
                },
                {
                  "internalType": "address",
                  "name": "poolCreator",
                  "type": "address"
                }
              ],
              "internalType": "struct PoolRoleAccounts",
              "name": "roleAccounts",
              "type": "tuple"
            },
            {
              "internalType": "uint256",
              "name": "swapFeePercentage",
              "type": "uint256"
            },
            {
              "internalType": "address",
              "name": "poolHooksContract",
              "type": "address"
            },
            {
              "internalType": "bool",
              "name": "enableDonation",
              "type": "bool"
            },
            {
              "internalType": "bool",
              "name": "disableUnbalancedLiquidity",
              "type": "bool"
            },
            {
              "internalType": "bytes32",
              "name": "salt",
              "type": "bytes32"
            }
          ],
          "internalType": "struct ILBPMigrationRouter.WeightedPoolParams",
          "name": "params",
          "type": "tuple"
        }
      ],
      "name": "queryMigrateLiquidity",
      "outputs": [
        {
          "internalType": "uint256",
          "name": "bptAmountOut",
          "type": "uint256"
        }
      ],
      "stateMutability": "nonpayable",
      "type": "function"
    },
    {
      "inputs": [],
      "name": "version",
      "outputs": [
        {
          "internalType": "string",
          "name": "",
          "type": "string"
        }
      ],
      "stateMutability": "view",
      "type": "function"
    }
  ],
  "bytecode": "0x60c06040908082523461024c576120d5803803809161001e8285610397565b8339810190828183031261024c5780516001600160a01b0392838216929183900361024c5760208281015190926001600160401b03919082821161024c570190601f9083828401121561024c57825181811161034157601f199389519561008b8887878601160188610397565b82875287838301011161024c57815f92888093018389015e8601015287516311b2515f60e31b81529185836004818a5afa92831561038d575f93610355575b508451918211610341575f54946001948587811c97168015610337575b888810146103235786838c98116102cd575b508792841160011461026c57505f919083610261575b50505f19600383901b1c191690831b175f555b60805281519384916341d8c0bb60e01b83526004830152826024830152818061016860448201604090600c81526b15d95a59da1d1959141bdbdb60a21b60208201520190565b03915afa8015610257575f925f9161020b575b50156101d657501660a05251611d1a90816103bb82396080518181816101b10152818161035a0152818161041d0152818161048a0152818161065801528181610c1a015261148c015260a051818181610aea015261135b0152f35b835163d348bb1160e01b81526004810191909152600c60248201526b15d95a59da1d1959141bdbdb60a21b6044820152606490fd5b809350858092503d8311610250575b6102248183610397565b8101031261024c57815191838316830361024c5781015191821515830361024c57915f61017b565b5f80fd5b503d61021a565b84513d5f823e3d90fd5b015190505f8061010f565b5f8080528881209392918516905b898282106102b6575050908487959493921061029e575b505050811b015f55610122565b01515f1960f88460031b161c191690555f8080610291565b8484015186558d995094880194938401930161027a565b90919293949596505f8052875f208480870160051c8201928a881061031a575b958d999897969594939291950160051c01905b81811061030d57506100f9565b5f81558c98508701610300565b925081926102ed565b634e487b7160e01b5f52602260045260245ffd5b96607f16966100e7565b634e487b7160e01b5f52604160045260245ffd5b9092508581813d8311610386575b61036d8183610397565b8101031261024c5751878116810361024c57915f6100ca565b503d610363565b89513d5f823e3d90fd5b601f909101601f19168101906001600160401b038211908210176103415760405256fe60806040526004361015610011575f80fd5b5f3560e01c80633aed45d3146110d257806354fd4d5014610f915780636053fd8d1461081c57636086b5de14610045575f80fd5b3461050f57602060031936011261050f5767ffffffffffffffff6004351161050f576101006003196004353603011261050f57604051610084816117da565b6100926004356004016117c6565b8152602460043501356001600160a01b038116810361050f5760208201526044600435013567ffffffffffffffff811161050f57600435013660238201121561050f5760048101356100e38161186f565b916100f1604051938461184c565b8183526024602084019260051b8201019036821161050f57602401915b8183106107fc57505050604082015261012b6064600435016117c6565b606082015261013e6084600435016117c6565b608082015267ffffffffffffffff60a460043501351161050f5761016c366004803560a48101350101611887565b60a082015260043560c481013560c083015260e4013567ffffffffffffffff811161050f576101a2906004369181350101611887565b60e08201526001600160a01b037f00000000000000000000000000000000000000000000000000000000000000001633036107d0576001600160a01b038151166001600160a01b036060830151166040517f70a08231000000000000000000000000000000000000000000000000000000008152816004820152602081602481865afa908115610504575f9161079e575b5060e0840151906040519261024784611830565b5f8452604051948560c081011067ffffffffffffffff60c0880111176104d75760c0860160405285526020850152604084015260608301525f608083015260a0820152604051907f21457897000000000000000000000000000000000000000000000000000000008252602060048301526001600160a01b0381511660248301526001600160a01b036020820151166044830152604081015160648301526102fe606082015160c0608485015260e4840190611b78565b608082015160048110156107715761034d849260a05f95859460a486015201517fffffffffffffffffffffffffffffffffffffffffffffffffffffffffffffffdc8483030160c4850152611a8d565b0381836001600160a01b037f0000000000000000000000000000000000000000000000000000000000000000165af1908115610504575f91610704575b505f5b8151811015610592576103a48160a0850151611bab565b516103af8284611bab565b5110610540576103bf8183611bab565b51906103cf8160a0860151611bab565b518281810311610513578083036103ec575b50600191500161038d565b6001600160a01b03610402836040880151611bab565b5116926001600160a01b036080870151166001600160a01b037f0000000000000000000000000000000000000000000000000000000000000000163b1561050f57604051947fae639329000000000000000000000000000000000000000000000000000000008652600486015260248501520360448301525f82606481836001600160a01b037f0000000000000000000000000000000000000000000000000000000000000000165af18015610504576104bd575b816103e1565b67ffffffffffffffff82116104d7576001916040526104b7565b7f4e487b71000000000000000000000000000000000000000000000000000000005f52604160045260245ffd5b6040513d5f823e3d90fd5b5f80fd5b7f4e487b71000000000000000000000000000000000000000000000000000000005f52601160045260245ffd5b6001600160a01b0361055a82604061056295960151611bab565b511692611bab565b51907f802f8a45000000000000000000000000000000000000000000000000000000005f5260045260245260445ffd5b826001600160a01b036020820151169060206001600160a01b0360608301511660408301519361064b60a085015160c086015190610634604051916105d683611830565b5f83526106226040519a8b9889987fba8a2be0000000000000000000000000000000000000000000000000000000008a5260048a0152602489015260c0604489015260c4880190611bec565b90600319878303016064880152611b78565b9160848501526003198483030160a4850152611a8d565b03815f6001600160a01b037f0000000000000000000000000000000000000000000000000000000000000000165af1908115610504575f916106cf575b602092506001600160a01b03838183511692015116907f9709ea45c02f498263083ec21328dfba675d200cb8d8dda882f6fa43934d622584604051858152a3604051908152f35b90506020823d6020116106fc575b816106ea6020938361184c565b8101031261050f576020915190610688565b3d91506106dd565b3d9150815f823e610715828261184c565b606081838101031261050f57805191602082015167ffffffffffffffff811161050f5761074790828401908401611ad1565b91604081015167ffffffffffffffff811161050f576107699282019101611b32565b91509061038a565b7f4e487b71000000000000000000000000000000000000000000000000000000005f52602160045260245ffd5b90506020813d6020116107c8575b816107b96020938361184c565b8101031261050f57515f610233565b3d91506107ac565b7f089676d5000000000000000000000000000000000000000000000000000000005f523360045260245ffd5b82356001600160a01b038116810361050f5781526020928301920161010e565b3461050f5760c060031936011261050f576108356117b0565b60243567ffffffffffffffff811161050f57610855903690600401611887565b60643567ffffffffffffffff811161050f57610875903690600401611887565b608435906001600160a01b038216820361050f5760a43567ffffffffffffffff811161050f576108a9903690600401611956565b936040517f8da5cb5b0000000000000000000000000000000000000000000000000000000081526020816004816001600160a01b0386165afa8015610504576001600160a01b03915f91610f72575b50163303610f4a576040517f0ca898480000000000000000000000000000000000000000000000000000000081525f816004816001600160a01b0386165afa908115610504575f91610d90575b5060a0810151421115610d5b57805151936109786109628661186f565b95610970604051978861184c565b80875261186f565b5f5b601f1982018110610d275750505f5b825180518210156109bd57906001600160a01b036109a982600194611bab565b51166109b58289611bab565b515201610989565b505085610a4385878a805190602081015190604081015160608201519460808301516001600160a01b0360a0850151169160c0850151151593610a5561010060e08801511515970151976040519c8d9a7ffed4cdda000000000000000000000000000000000000000000000000000000008c5261018060048d01526101848c0190611a8d565b906003198b83030160248c0152611a8d565b6003198982030160448a0152602080845192838152019301905f5b818110610cbe57505050916001600160a01b036040610aa3848b9a98966003198c60209f9c9a98030160648d0152611b78565b978281511660848b0152828c8201511660a48b015201511660c488015260e487015261010486015261012485015261014484015261016483015203815f6001600160a01b037f0000000000000000000000000000000000000000000000000000000000000000165af190811561050457610c0d965f95610bc4956001600160a01b038095610bd2978a91610c8f575b50168099604051968794610b45866117da565b604086016060815260608701908d825260808801948e865260a0890196606088528560e060c08c019b5f8d52019b60608d52168d5260208d0152519052339052169052526044359052526040519283917f6086b5de00000000000000000000000000000000000000000000000000000000602084015260248301611c28565b03601f19810183528261184c565b604051809481927f48c89491000000000000000000000000000000000000000000000000000000008352602060048401526024830190611a8d565b0381836001600160a01b037f0000000000000000000000000000000000000000000000000000000000000000165af1918215610504575f92610c6b575b5060208280518101031261050f576020604092015182519182526020820152f35b610c889192503d805f833e610c80818361184c565b810190611cbe565b9082610c4a565b610cb1915060203d602011610cb7575b610ca9818361184c565b810190611ab2565b8c610b32565b503d610c9f565b918095969798999a5093909293516001600160a01b0381511682526020810151906002821015610771578260606080926020948560019701526001600160a01b0360408201511660408401520151151560608201520195019101918c9998979695949392610a70565b6020601f1991604051610d3981611814565b5f81525f838201525f60408201525f606082015282828b01015201905061097a565b6001600160a01b03827f9eba44d3000000000000000000000000000000000000000000000000000000005f521660045260245ffd5b3d9150815f823e610da1828261184c565b602081838101031261050f5780519067ffffffffffffffff821161050f57610120828201848301031261050f5760405192610ddb846117f7565b8282015167ffffffffffffffff811161050f57818301601f828686010101121561050f5780848401015190610e0f8261186f565b91610e1d604051938461184c565b808352602083019184860160208360051b838a8a010101011161050f57916020838888010101925b60208360051b828a8a010101018410610f24575050505084526020838301015167ffffffffffffffff811161050f57610e85908284019085850101611ad1565b60208501526040838301015167ffffffffffffffff811161050f57610eb1908284019085850101611ad1565b60408501526060838301015167ffffffffffffffff811161050f57610edc9183019084840101611ad1565b6060840152016080818101519083015260a0808201519083015260c0808201519083015260e080820151908301526101009081015190811515820361050f5782015286610945565b8351916001600160a01b038316830361050f576020818194829352019401939150610e45565b7fea37ac06000000000000000000000000000000000000000000000000000000005f5260045ffd5b610f8b915060203d602011610cb757610ca9818361184c565b876108f8565b3461050f575f60031936011261050f576040515f5f549060018260011c91600184169182156110c8575b602094858510841461109b5785879486865291825f1461105d575050600114611004575b50610fec9250038361184c565b611000604051928284938452830190611a8d565b0390f35b5f808052859250907f290decd9548b62a8d60345a988386fc84ba6bc95484008f6362f93160ef3e5635b858310611045575050610fec935082010185610fdf565b8054838901850152879450869390920191810161102e565b7fffffffffffffffffffffffffffffffffffffffffffffffffffffffffffffff001685820152610fec95151560051b8501019250879150610fdf9050565b7f4e487b71000000000000000000000000000000000000000000000000000000005f52602260045260245ffd5b92607f1692610fbb565b3461050f5760a060031936011261050f576110eb6117b0565b60243567ffffffffffffffff811161050f5761110b903690600401611887565b90604435916001600160a01b038316830361050f576064356001600160a01b038116810361050f5760843567ffffffffffffffff811161050f57611153903690600401611956565b938251601f1961117b6111658361186f565b92611173604051948561184c565b80845261186f565b01366020830137604051947f0ca898480000000000000000000000000000000000000000000000000000000086525f866004816001600160a01b0385165afa958615610504575f966115f3575b5060a08601514211156115be57855151946111fb6111e58761186f565b966111f3604051988961184c565b80885261186f565b5f5b601f198201811061158a5750505f5b8751805182101561124057906001600160a01b0361122c82600194611bab565b5116611238828a611bab565b51520161120c565b5050610a438786888b805190602081015190604081015160608201519460808301516001600160a01b0360a0850151169160c08501511515936112c661010060e08801511515970151976040519d8e9a7ffed4cdda000000000000000000000000000000000000000000000000000000008c5261018060048d01526101848c0190611a8d565b6003198982030160448a0152602080845192838152019301905f5b81811061152157505050916001600160a01b036040611314848b9a98966003198c60209f9c9a98030160648d0152611b78565b978281511660848b0152828c8201511660a48b015201511660c488015260e487015261010486015261012485015261014484015261016483015203815f6001600160a01b037f0000000000000000000000000000000000000000000000000000000000000000165af1928315610504575f93611500575b5060405196611399886117da565b60408801906060825260608901915f835260808a01945f865260a08b01966060885260c08c015f905260e08c019960608b526001600160a01b03168c526001600160a01b031660208c01525190526001600160a01b031690526001600160a01b0316905252526040518091602082017f6086b5de000000000000000000000000000000000000000000000000000000009052602482019061143991611c28565b03601f198101825261144b908261184c565b60405180917fedfa356800000000000000000000000000000000000000000000000000000000825260048201602090526024820161148891611a8d565b03817f00000000000000000000000000000000000000000000000000000000000000006001600160a01b031691815a5f948591f1908115610504575f916114e6575b5060208180518101031261050f57602080910151604051908152f35b6114fa91503d805f833e610c80818361184c565b816114ca565b61151a91935060203d602011610cb757610ca9818361184c565b918761138b565b918095969798999a5093909293516001600160a01b0381511682526020810151906002821015610771578260606080926020948560019701526001600160a01b0360408201511660408401520151151560608201520195019101918d99989796959493926112e1565b6020601f199160405161159c81611814565b5f81525f838201525f60408201525f606082015282828c0101520190506111fd565b6001600160a01b03907f9eba44d3000000000000000000000000000000000000000000000000000000005f521660045260245ffd5b9095503d90815f823e611606828261184c565b602081838101031261050f5780519067ffffffffffffffff821161050f57610120828201848301031261050f5760405192611640846117f7565b8282015167ffffffffffffffff811161050f57818301601f828686010101121561050f57808484010151906116748261186f565b91611682604051938461184c565b808352602083019184860160208360051b838a8a010101011161050f57916020838888010101925b60208360051b828a8a01010101841061178a575050505084526020838301015167ffffffffffffffff811161050f576116ea908284019085850101611ad1565b60208501526040838301015167ffffffffffffffff811161050f57611716908284019085850101611ad1565b60408501526060838301015167ffffffffffffffff811161050f576117419183019084840101611ad1565b6060840152016080818101519083015260a0808201519083015260c0808201519083015260e080820151908301526101009081015190811515820361050f5782015294876111c8565b8351916001600160a01b038316830361050f5760208181948293520194019391506116aa565b600435906001600160a01b038216820361050f57565b35906001600160a01b038216820361050f57565b610100810190811067ffffffffffffffff8211176104d757604052565b610120810190811067ffffffffffffffff8211176104d757604052565b6080810190811067ffffffffffffffff8211176104d757604052565b6020810190811067ffffffffffffffff8211176104d757604052565b90601f601f19910116810190811067ffffffffffffffff8211176104d757604052565b67ffffffffffffffff81116104d75760051b60200190565b9080601f8301121561050f5760209082356118a18161186f565b936118af604051958661184c565b81855260208086019260051b82010192831161050f57602001905b8282106118d8575050505090565b813581529083019083016118ca565b67ffffffffffffffff81116104d757601f01601f191660200190565b81601f8201121561050f5780359061191a826118e7565b92611928604051948561184c565b8284526020838301011161050f57815f926020809301838601378301015290565b3590811515820361050f57565b919082810392610160841261050f57604091825192611974846117f7565b839583359267ffffffffffffffff9384811161050f5781611996918701611903565b8652602085013584811161050f57816119b0918701611903565b6020870152828501359184831161050f576119f07fffffffffffffffffffffffffffffffffffffffffffffffffffffffffffffffa0926060948801611887565b84880152011261050f5780519160608301908111838210176104d7578152611a1a606084016117c6565b8252611a28608084016117c6565b6020830152611a3960a084016117c6565b90820152606083015260c08101356080830152611a5860e082016117c6565b60a083015261014061010091611a6f838201611949565b60c0850152611a816101208201611949565b60e08501520135910152565b90601f19601f602080948051918291828752018686015e5f8582860101520116010190565b9081602091031261050f57516001600160a01b038116810361050f5790565b9080601f8301121561050f57815190602091611aec8161186f565b93611afa604051958661184c565b81855260208086019260051b82010192831161050f57602001905b828210611b23575050505090565b81518152908301908301611b15565b81601f8201121561050f57805190611b49826118e7565b92611b57604051948561184c565b8284526020838301011161050f57815f9260208093018386015e8301015290565b9081518082526020808093019301915f5b828110611b97575050505090565b835185529381019392810192600101611b89565b8051821015611bbf5760209160051b010190565b7f4e487b71000000000000000000000000000000000000000000000000000000005f52603260045260245ffd5b9081518082526020808093019301915f5b828110611c0b575050505090565b83516001600160a01b031685529381019392810192600101611bfd565b90611cbb91602081526001600160a01b03908183511660208201528160208401511660408201526040830151611c6c61010091826060850152610120840190611bec565b9280606086015116608084015260808501511660a083015260e0611ca260a086015194601f1995868683030160c0870152611b78565b9460c08101518285015201519282850301910152611b78565b90565b9060208282031261050f57815167ffffffffffffffff811161050f57611cbb9201611b3256fea26469706673582212201c3a6281b2736a9473cfaa53070e783574bfc961968531c81ff2bfbdbe43e51e64736f6c634300081b0033",
  "linkReferences": {},
  "deployedLinkReferences": {}
}