{
  "_format": "hh-sol-artifact-1",
  "contractName": "LBPMigrationRouter",
  "sourceName": "contracts/LBPMigrationRouter.sol",
  "abi": [
    {
      "inputs": [
        {
          "internalType": "contract IVault",
          "name": "_vault",
          "type": "address"
        },
        {
          "internalType": "contract WeightedPoolFactory",
          "name": "_weightedPoolFactory",
          "type": "address"
        },
        {
          "internalType": "address",
          "name": "_treasury",
          "type": "address"
        }
      ],
      "stateMutability": "nonpayable",
      "type": "constructor"
    },
    {
      "inputs": [
        {
          "internalType": "contract IERC20",
          "name": "token",
          "type": "address"
        },
        {
          "internalType": "uint256",
          "name": "actualAmount",
          "type": "uint256"
        }
      ],
      "name": "InsufficientInputAmount",
      "type": "error"
    },
    {
      "inputs": [
        {
          "internalType": "contract ILBPool",
          "name": "lbp",
          "type": "address"
        }
      ],
      "name": "LBPWeightsNotFinalized",
      "type": "error"
    },
    {
      "inputs": [
        {
          "internalType": "address",
          "name": "lbpOwner",
          "type": "address"
        }
      ],
      "name": "SenderIsNotLBPOwner",
      "type": "error"
    },
    {
      "inputs": [
        {
          "internalType": "address",
          "name": "sender",
          "type": "address"
        }
      ],
      "name": "SenderIsNotVault",
      "type": "error"
    },
    {
      "inputs": [
        {
          "internalType": "contract ILBPool",
          "name": "lbp",
          "type": "address"
        },
        {
          "internalType": "uint256[]",
          "name": "exactAmountsIn",
          "type": "uint256[]"
        },
        {
          "internalType": "uint256",
          "name": "minAddBptAmountOut",
          "type": "uint256"
        },
        {
          "internalType": "uint256[]",
          "name": "minRemoveAmountsOut",
          "type": "uint256[]"
        },
        {
          "components": [
            {
              "internalType": "string",
              "name": "name",
              "type": "string"
            },
            {
              "internalType": "string",
              "name": "symbol",
              "type": "string"
            },
            {
              "internalType": "uint256[]",
              "name": "normalizedWeights",
              "type": "uint256[]"
            },
            {
              "components": [
                {
                  "internalType": "address",
                  "name": "pauseManager",
                  "type": "address"
                },
                {
                  "internalType": "address",
                  "name": "swapFeeManager",
                  "type": "address"
                },
                {
                  "internalType": "address",
                  "name": "poolCreator",
                  "type": "address"
                }
              ],
              "internalType": "struct PoolRoleAccounts",
              "name": "roleAccounts",
              "type": "tuple"
            },
            {
              "internalType": "uint256",
              "name": "swapFeePercentage",
              "type": "uint256"
            },
            {
              "internalType": "address",
              "name": "poolHooksContract",
              "type": "address"
            },
            {
              "internalType": "bool",
              "name": "enableDonation",
              "type": "bool"
            },
            {
              "internalType": "bool",
              "name": "disableUnbalancedLiquidity",
              "type": "bool"
            },
            {
              "internalType": "bytes32",
              "name": "salt",
              "type": "bytes32"
            }
          ],
          "internalType": "struct ILBPMigrationRouter.WeightedPoolParams",
          "name": "params",
          "type": "tuple"
        }
      ],
      "name": "migrateLiquidity",
      "outputs": [
        {
          "internalType": "contract IWeightedPool",
          "name": "",
          "type": "address"
        },
        {
          "internalType": "uint256",
          "name": "",
          "type": "uint256"
        }
      ],
      "stateMutability": "nonpayable",
      "type": "function"
    },
    {
      "inputs": [
        {
          "components": [
            {
              "internalType": "contract ILBPool",
              "name": "lbp",
              "type": "address"
            },
            {
              "internalType": "contract IWeightedPool",
              "name": "weightedPool",
              "type": "address"
            },
            {
              "internalType": "contract IERC20[]",
              "name": "tokens",
              "type": "address[]"
            },
            {
              "internalType": "address",
              "name": "sender",
              "type": "address"
            },
            {
              "internalType": "uint256[]",
              "name": "exactAmountsIn",
              "type": "uint256[]"
            },
            {
              "internalType": "uint256",
              "name": "minAddBptAmountOut",
              "type": "uint256"
            },
            {
              "internalType": "uint256[]",
              "name": "minRemoveAmountsOut",
              "type": "uint256[]"
            }
          ],
          "internalType": "struct ILBPMigrationRouter.MigrationHookParams",
          "name": "params",
          "type": "tuple"
        }
      ],
      "name": "migrateLiquidityHook",
      "outputs": [
        {
          "internalType": "uint256",
          "name": "",
          "type": "uint256"
        }
      ],
      "stateMutability": "nonpayable",
      "type": "function"
    },
    {
      "inputs": [
        {
          "internalType": "contract ILBPool",
          "name": "lbp",
          "type": "address"
        },
        {
          "internalType": "uint256[]",
          "name": "exactAmountsIn",
          "type": "uint256[]"
        },
        {
          "internalType": "address",
          "name": "sender",
          "type": "address"
        },
        {
          "components": [
            {
              "internalType": "string",
              "name": "name",
              "type": "string"
            },
            {
              "internalType": "string",
              "name": "symbol",
              "type": "string"
            },
            {
              "internalType": "uint256[]",
              "name": "normalizedWeights",
              "type": "uint256[]"
            },
            {
              "components": [
                {
                  "internalType": "address",
                  "name": "pauseManager",
                  "type": "address"
                },
                {
                  "internalType": "address",
                  "name": "swapFeeManager",
                  "type": "address"
                },
                {
                  "internalType": "address",
                  "name": "poolCreator",
                  "type": "address"
                }
              ],
              "internalType": "struct PoolRoleAccounts",
              "name": "roleAccounts",
              "type": "tuple"
            },
            {
              "internalType": "uint256",
              "name": "swapFeePercentage",
              "type": "uint256"
            },
            {
              "internalType": "address",
              "name": "poolHooksContract",
              "type": "address"
            },
            {
              "internalType": "bool",
              "name": "enableDonation",
              "type": "bool"
            },
            {
              "internalType": "bool",
              "name": "disableUnbalancedLiquidity",
              "type": "bool"
            },
            {
              "internalType": "bytes32",
              "name": "salt",
              "type": "bytes32"
            }
          ],
          "internalType": "struct ILBPMigrationRouter.WeightedPoolParams",
          "name": "params",
          "type": "tuple"
        }
      ],
      "name": "queryMigrateLiquidity",
      "outputs": [
        {
          "internalType": "contract IWeightedPool",
          "name": "",
          "type": "address"
        },
        {
          "internalType": "uint256",
          "name": "",
          "type": "uint256"
        }
      ],
      "stateMutability": "nonpayable",
      "type": "function"
    },
    {
      "inputs": [],
      "name": "treasury",
      "outputs": [
        {
          "internalType": "address",
          "name": "",
          "type": "address"
        }
      ],
      "stateMutability": "view",
      "type": "function"
    },
    {
      "inputs": [],
      "name": "vault",
      "outputs": [
        {
          "internalType": "contract IVault",
          "name": "",
          "type": "address"
        }
      ],
      "stateMutability": "view",
      "type": "function"
    },
    {
      "inputs": [],
      "name": "weightedPoolFactory",
      "outputs": [
        {
          "internalType": "contract WeightedPoolFactory",
          "name": "",
          "type": "address"
        }
      ],
      "stateMutability": "view",
      "type": "function"
    }
  ],
  "bytecode": "0x610100346100f357601f611d2d38819003918201601f19168301916001600160401b038311848410176100f7578084926060946040528339810103126100f35780516001600160a01b039081811681036100f35760208301519282841684036100f3576040015191821682036100f3578060805260a05260c05260e052604051611c21908161010c823960805181818161023f015281816103e80152818161049d01528181610534015281816106fd015281816109d6015261113d015260a051818181607a0152610cd6015260c0518181816104f90152610fec015260e05181818160c101528181610bc7015261131c0152f35b5f80fd5b634e487b7160e01b5f52604160045260245ffdfe60806040526004361015610011575f80fd5b5f3560e01c806313294bb01461101057806361d027b314610fcd578063813396961461087c578063a7548e7e146100e5578063ae2d9696146100a25763fbfa77cf1461005b575f80fd5b3461009e575f60031936011261009e5760206040516001600160a01b037f0000000000000000000000000000000000000000000000000000000000000000168152f35b5f80fd5b3461009e575f60031936011261009e5760206040516001600160a01b037f0000000000000000000000000000000000000000000000000000000000000000168152f35b3461009e57602060031936011261009e5767ffffffffffffffff6004351161009e5760e06003196004353603011261009e576040516101238161164b565b610131600435600401611637565b8152602460043501356001600160a01b038116810361009e5760208201526044600435013567ffffffffffffffff811161009e57600435013660238201121561009e576004810135610182816116df565b9161019060405193846116bc565b8183526024602084019260051b8201019036821161009e57602401915b81831061085c5750505060408201526101ca606460043501611637565b60608201526084600435013567ffffffffffffffff811161009e576101f69060043691813501016116f7565b608082015260a4600435013560a082015267ffffffffffffffff60c460043501351161009e57610230366004803560c481013501016116f7565b60c08201526001600160a01b037f0000000000000000000000000000000000000000000000000000000000000000163303610830576001600160a01b038151166001600160a01b036060830151166040517f70a08231000000000000000000000000000000000000000000000000000000008152816004820152602081602481865afa9081156105ae575f916107fe575b5060c084015190604051926102d5846116a0565b5f8452604051948560c081011067ffffffffffffffff60c0880111176105815760c0860160405285526020850152604084015260608301525f608083015260a0820152604051907f21457897000000000000000000000000000000000000000000000000000000008252602060048301526001600160a01b0381511660248301526001600160a01b0360208201511660448301526040810151606483015261038c606082015160c0608485015260e48401906119c3565b608082015160048110156107d1576103db849260a05f95859460a486015201517fffffffffffffffffffffffffffffffffffffffffffffffffffffffffffffffdc8483030160c48501526119f6565b0381836001600160a01b037f0000000000000000000000000000000000000000000000000000000000000000165af19081156105ae575f9161076a575b505f5b815181101561063857610432816080850151611a1b565b5161043d8284611a1b565b51106105e65761044d8183611a1b565b519061045d816080860151611a1b565b5182818103116105b95780830361047a575b50600191500161041b565b6001600160a01b03610490836040880151611a1b565b5116926001600160a01b037f0000000000000000000000000000000000000000000000000000000000000000163b1561009e57604051937fae63932900000000000000000000000000000000000000000000000000000000855260048501526001600160a01b037f00000000000000000000000000000000000000000000000000000000000000001660248501520360448301525f82606481836001600160a01b037f0000000000000000000000000000000000000000000000000000000000000000165af180156105ae57610567575b8161046f565b67ffffffffffffffff821161058157600191604052610561565b7f4e487b71000000000000000000000000000000000000000000000000000000005f52604160045260245ffd5b6040513d5f823e3d90fd5b7f4e487b71000000000000000000000000000000000000000000000000000000005f52601160045260245ffd5b6001600160a01b0361060082604061060895960151611a1b565b511692611a1b565b51907f802f8a45000000000000000000000000000000000000000000000000000000005f5260045260245260445ffd5b8260206001600160a01b0381830151166001600160a01b03606084015116906106f060408501519460a06080820151910151906106d96040519161067b836116a0565b5f83526106c7604051998a9889987fba8a2be0000000000000000000000000000000000000000000000000000000008a5260048a0152602489015260c0604489015260c4880190611a5c565b90600319878303016064880152611a98565b9160848501526003198483030160a48501526119f6565b03815f6001600160a01b037f0000000000000000000000000000000000000000000000000000000000000000165af180156105ae575f90610737575b602090604051908152f35b506020813d602011610762575b81610751602093836116bc565b8101031261009e576020905161072c565b3d9150610744565b90503d805f833e61077b81836116bc565b810160608282031261009e57815191602081015167ffffffffffffffff811161009e57826107aa91830161191c565b91604082015167ffffffffffffffff811161009e576107c9920161197d565b915090610418565b7f4e487b71000000000000000000000000000000000000000000000000000000005f52602160045260245ffd5b90506020813d602011610828575b81610819602093836116bc565b8101031261009e5751846102c1565b3d915061080c565b7f089676d5000000000000000000000000000000000000000000000000000000005f523360045260245ffd5b82356001600160a01b038116810361009e578152602092830192016101ad565b3461009e5760a060031936011261009e57610895611621565b67ffffffffffffffff9060243582811161009e576108b79036906004016116f7565b9060643583811161009e576108d09036906004016116f7565b60843584811161009e576108e89036906004016117c6565b926040517f8da5cb5b0000000000000000000000000000000000000000000000000000000081526020816004816001600160a01b0388165afa80156105ae576001600160a01b03915f91610fae575b5016803303610f8357506040517f0ca898480000000000000000000000000000000000000000000000000000000081525f816004816001600160a01b0388165afa80156105ae575f90610e91575b60a091500151421115610e5c576040517fca4f28030000000000000000000000000000000000000000000000000000000081526001600160a01b03841660048201525f816024816001600160a01b037f0000000000000000000000000000000000000000000000000000000000000000165afa9586156105ae575f96610e21575b5050845192610a2d610a17856116df565b94610a2560405196876116bc565b8086526116df565b5f5b601f1982018110610ded5750505f5b8651811015610a9b57806001600160a01b03610a5c6001938a611a1b565b511660405190610a6b82611684565b81525f60208201525f60408201525f6060820152610a898288611a1b565b52610a948187611a1b565b5001610a3e565b509092610b209294805190602081015190604081015160608201519460808301516001600160a01b0360a0850151169160c0850151151593610b3261010060e08801511515970151976040519c8d9a7ffed4cdda000000000000000000000000000000000000000000000000000000008c5261018060048d01526101848c01906119f6565b906003198b83030160248c01526119f6565b6003198982030160448a0152602080845192838152019301905f5b818110610d8457505050916001600160a01b036040610b80848b9a98966003198c60209f9c9a98030160648d0152611a98565b978281511660848b0152828c8201511660a48b015201511660c488015260e487015261010486015261012485015261014484015261016483015203815f6001600160a01b037f0000000000000000000000000000000000000000000000000000000000000000165af19081156105ae57610cc9945f946001600160a01b03610c8e94610c80968891610d55575b5016976001600160a01b0360405194610c258661164b565b1684528860208501526040840152336060840152608083015260443560a083015260c08201526040519283917fa7548e7e00000000000000000000000000000000000000000000000000000000602084015260248301611b3c565b03601f1981018352826116bc565b604051809381927f48c894910000000000000000000000000000000000000000000000000000000083526020600484015260248301906119f6565b0381836001600160a01b037f0000000000000000000000000000000000000000000000000000000000000000165af19081156105ae575f91610d33575b5060208180518101031261009e57602090810151604080516001600160a01b039490941684529183015290f35b610d4f91503d805f833e610d4781836116bc565b810190611bc5565b82610d06565b610d77915060203d602011610d7d575b610d6f81836116bc565b8101906118fd565b8a610c0d565b503d610d65565b918095969798999a5093909293516001600160a01b03815116825260208101519060028210156107d1578260606080926020948560019701526001600160a01b0360408201511660408401520151151560608201520195019101918c9998979695949392610b4d565b6020601f1991604051610dff81611684565b5f81525f838201525f60408201525f606082015282828a010152019050610a2f565b909195503d805f843e610e3481846116bc565b82019060208383031261009e57825190811161009e57610e549201611acb565b938580610a06565b6001600160a01b03837f9eba44d3000000000000000000000000000000000000000000000000000000005f521660045260245ffd5b503d805f833e610ea181836116bc565b81019060208183031261009e5780519087821161009e5701906101208282031261009e5760405190610ed282611667565b825188811161009e5781610ee7918501611acb565b8252602083015188811161009e5781610f0191850161191c565b6020830152604083015188811161009e5781610f1e91850161191c565b604083015260608301519088821161009e57610f3b91840161191c565b60608201526080820151608082015260a082015160a082015260c082015160c082015260e082015160e082015261010080920151801515810361009e5760a092820152610985565b7f8e5ac65d000000000000000000000000000000000000000000000000000000005f5260045260245ffd5b610fc7915060203d602011610d7d57610d6f81836116bc565b87610937565b3461009e575f60031936011261009e5760206040516001600160a01b037f0000000000000000000000000000000000000000000000000000000000000000168152f35b3461009e57608060031936011261009e57611029611621565b67ffffffffffffffff9060243582811161009e5761104b9036906004016116f7565b90604435916001600160a01b038316830361009e5760643584811161009e576110789036906004016117c6565b92815190601f196110a161108b846116df565b9361109960405195866116bc565b8085526116df565b013660208401376040517f0ca898480000000000000000000000000000000000000000000000000000000081525f816004816001600160a01b0389165afa80156105ae575f9061152f575b60a0915001514211156114fa576040517fca4f28030000000000000000000000000000000000000000000000000000000081526001600160a01b03851660048201525f816024816001600160a01b037f0000000000000000000000000000000000000000000000000000000000000000165afa9687156105ae575f976114bf575b5050855193601f19611197611181876116df565b9661118f60405198896116bc565b8088526116df565b015f5b8181106114905750505f5b875181101561120257806001600160a01b036111c36001938b611a1b565b5116604051906111d282611684565b81525f60208201525f60408201525f60608201526111f08289611a1b565b526111fb8188611a1b565b50016111a5565b50610b2090879587805190602081015190604081015160608201519460808301516001600160a01b0360a0850151169160c085015115159361128761010060e08801511515970151976040519c8d9a7ffed4cdda000000000000000000000000000000000000000000000000000000008c5261018060048d01526101848c01906119f6565b6003198982030160448a0152602080845192838152019301905f5b81811061142757505050916001600160a01b0360406112d5848b9a98966003198c60209f9c9a98030160648d0152611a98565b978281511660848b0152828c8201511660a48b015201511660c488015260e487015261010486015261012485015261014484015261016483015203815f6001600160a01b037f0000000000000000000000000000000000000000000000000000000000000000165af19384156105ae57610cc9956001600160a01b03610c8095815f986113cd978a91611408575b50169982604051966113748861164b565b1686528a6020870152604086015216606084015260808301528460a083015260c08201526040519283917fa7548e7e00000000000000000000000000000000000000000000000000000000602084015260248301611b3c565b604051809381927fedfa35680000000000000000000000000000000000000000000000000000000083526020600484015260248301906119f6565b611421915060203d602011610d7d57610d6f81836116bc565b8c611363565b918095969798999a5093909293516001600160a01b03815116825260208101519060028210156107d1578260606080926020948560019701526001600160a01b0360408201511660408401520151151560608201520195019101918c99989796959493926112a2565b60209060405161149f81611684565b5f81525f838201525f60408201525f606082015282828a0101520161119a565b909196503d805f843e6114d281846116bc565b82019060208383031261009e57825190811161009e576114f29201611acb565b94868061116d565b6001600160a01b03847f9eba44d3000000000000000000000000000000000000000000000000000000005f521660045260245ffd5b503d805f833e61153f81836116bc565b81019060208183031261009e5780519088821161009e5701906101208282031261009e576040519061157082611667565b825189811161009e5781611585918501611acb565b8252602083015189811161009e578161159f91850161191c565b6020830152604083015189811161009e57816115bc91850161191c565b604083015260608301519089821161009e576115d991840161191c565b60608201526080820151608082015260a082015160a082015260c082015160c082015260e082015160e082015261010080920151801515810361009e5760a0928201526110ec565b600435906001600160a01b038216820361009e57565b35906001600160a01b038216820361009e57565b60e0810190811067ffffffffffffffff82111761058157604052565b610120810190811067ffffffffffffffff82111761058157604052565b6080810190811067ffffffffffffffff82111761058157604052565b6020810190811067ffffffffffffffff82111761058157604052565b90601f601f19910116810190811067ffffffffffffffff82111761058157604052565b67ffffffffffffffff81116105815760051b60200190565b9080601f8301121561009e576020908235611711816116df565b9361171f60405195866116bc565b81855260208086019260051b82010192831161009e57602001905b828210611748575050505090565b8135815290830190830161173a565b67ffffffffffffffff811161058157601f01601f191660200190565b81601f8201121561009e5780359061178a82611757565b9261179860405194856116bc565b8284526020838301011161009e57815f926020809301838601378301015290565b3590811515820361009e57565b919082810392610160841261009e576040918251926117e484611667565b839583359267ffffffffffffffff9384811161009e5781611806918701611773565b8652602085013584811161009e5781611820918701611773565b6020870152828501359184831161009e576118607fffffffffffffffffffffffffffffffffffffffffffffffffffffffffffffffa09260609488016116f7565b84880152011261009e57805191606083019081118382101761058157815261188a60608401611637565b825261189860808401611637565b60208301526118a960a08401611637565b90820152606083015260c081013560808301526118c860e08201611637565b60a0830152610140610100916118df8382016117b9565b60c08501526118f161012082016117b9565b60e08501520135910152565b9081602091031261009e57516001600160a01b038116810361009e5790565b9080601f8301121561009e57815190602091611937816116df565b9361194560405195866116bc565b81855260208086019260051b82010192831161009e57602001905b82821061196e575050505090565b81518152908301908301611960565b81601f8201121561009e5780519061199482611757565b926119a260405194856116bc565b8284526020838301011161009e57815f9260208093018386015e8301015290565b9081518082526020808093019301915f5b8281106119e2575050505090565b8351855293810193928101926001016119d4565b90601f19601f602080948051918291828752018686015e5f8582860101520116010190565b8051821015611a2f5760209160051b010190565b7f4e487b71000000000000000000000000000000000000000000000000000000005f52603260045260245ffd5b9081518082526020808093019301915f5b828110611a7b575050505090565b83516001600160a01b031685529381019392810192600101611a6d565b9081518082526020808093019301915f5b828110611ab7575050505090565b835185529381019392810192600101611aa9565b9080601f8301121561009e57815190602091611ae6816116df565b93611af460405195866116bc565b81855260208086019260051b82010192831161009e57602001905b828210611b1d575050505090565b81516001600160a01b038116810361009e578152908301908301611b0f565b90611bc291602081526001600160a01b0390818351166020820152816020840151166040820152611b7d604084015160e06060840152610100830190611a5c565b91606084015116608082015260e060c0611ba9608086015194601f1995868683030160a08701526119c3565b9460a081015182850152015192828503019101526119c3565b90565b9060208282031261009e57815167ffffffffffffffff811161009e57611bc2920161197d56fea264697066735822122002d48d798f52242e45d7e33dd8570ff0734cbb363c236534862e2f9bdb59da3964736f6c634300081b0033",
  "linkReferences": {},
  "deployedLinkReferences": {}
}