{
  "_format": "hh-sol-artifact-1",
  "contractName": "BufferRouter",
  "sourceName": "contracts/BufferRouter.sol",
  "abi": [
    {
      "inputs": [
        {
          "internalType": "contract IVault",
          "name": "vault",
          "type": "address"
        },
        {
          "internalType": "contract IWETH",
          "name": "weth",
          "type": "address"
        },
        {
          "internalType": "contract IPermit2",
          "name": "permit2",
          "type": "address"
        },
        {
          "internalType": "string",
          "name": "routerVersion",
          "type": "string"
        }
      ],
      "stateMutability": "nonpayable",
      "type": "constructor"
    },
    {
      "inputs": [
        {
          "internalType": "address",
          "name": "target",
          "type": "address"
        }
      ],
      "name": "AddressEmptyCode",
      "type": "error"
    },
    {
      "inputs": [
        {
          "internalType": "address",
          "name": "account",
          "type": "address"
        }
      ],
      "name": "AddressInsufficientBalance",
      "type": "error"
    },
    {
      "inputs": [],
      "name": "ErrorSelectorNotFound",
      "type": "error"
    },
    {
      "inputs": [],
      "name": "EthTransfer",
      "type": "error"
    },
    {
      "inputs": [],
      "name": "FailedInnerCall",
      "type": "error"
    },
    {
      "inputs": [],
      "name": "InputLengthMismatch",
      "type": "error"
    },
    {
      "inputs": [],
      "name": "InsufficientEth",
      "type": "error"
    },
    {
      "inputs": [],
      "name": "ReentrancyGuardReentrantCall",
      "type": "error"
    },
    {
      "inputs": [
        {
          "internalType": "uint8",
          "name": "bits",
          "type": "uint8"
        },
        {
          "internalType": "uint256",
          "name": "value",
          "type": "uint256"
        }
      ],
      "name": "SafeCastOverflowedUintDowncast",
      "type": "error"
    },
    {
      "inputs": [
        {
          "internalType": "address",
          "name": "token",
          "type": "address"
        }
      ],
      "name": "SafeERC20FailedOperation",
      "type": "error"
    },
    {
      "inputs": [
        {
          "internalType": "address",
          "name": "sender",
          "type": "address"
        }
      ],
      "name": "SenderIsNotVault",
      "type": "error"
    },
    {
      "inputs": [],
      "name": "SwapDeadline",
      "type": "error"
    },
    {
      "inputs": [
        {
          "internalType": "contract IERC4626",
          "name": "wrappedToken",
          "type": "address"
        },
        {
          "internalType": "uint256",
          "name": "maxAmountUnderlyingIn",
          "type": "uint256"
        },
        {
          "internalType": "uint256",
          "name": "maxAmountWrappedIn",
          "type": "uint256"
        },
        {
          "internalType": "uint256",
          "name": "exactSharesToIssue",
          "type": "uint256"
        }
      ],
      "name": "addLiquidityToBuffer",
      "outputs": [
        {
          "internalType": "uint256",
          "name": "amountUnderlyingIn",
          "type": "uint256"
        },
        {
          "internalType": "uint256",
          "name": "amountWrappedIn",
          "type": "uint256"
        }
      ],
      "stateMutability": "nonpayable",
      "type": "function"
    },
    {
      "inputs": [
        {
          "internalType": "contract IERC4626",
          "name": "wrappedToken",
          "type": "address"
        },
        {
          "internalType": "uint256",
          "name": "maxAmountUnderlyingIn",
          "type": "uint256"
        },
        {
          "internalType": "uint256",
          "name": "maxAmountWrappedIn",
          "type": "uint256"
        },
        {
          "internalType": "uint256",
          "name": "exactSharesToIssue",
          "type": "uint256"
        },
        {
          "internalType": "address",
          "name": "sharesOwner",
          "type": "address"
        }
      ],
      "name": "addLiquidityToBufferHook",
      "outputs": [
        {
          "internalType": "uint256",
          "name": "amountUnderlyingIn",
          "type": "uint256"
        },
        {
          "internalType": "uint256",
          "name": "amountWrappedIn",
          "type": "uint256"
        }
      ],
      "stateMutability": "nonpayable",
      "type": "function"
    },
    {
      "inputs": [],
      "name": "getSender",
      "outputs": [
        {
          "internalType": "address",
          "name": "",
          "type": "address"
        }
      ],
      "stateMutability": "view",
      "type": "function"
    },
    {
      "inputs": [
        {
          "internalType": "contract IERC4626",
          "name": "wrappedToken",
          "type": "address"
        },
        {
          "internalType": "uint256",
          "name": "exactAmountUnderlyingIn",
          "type": "uint256"
        },
        {
          "internalType": "uint256",
          "name": "exactAmountWrappedIn",
          "type": "uint256"
        },
        {
          "internalType": "uint256",
          "name": "minIssuedShares",
          "type": "uint256"
        }
      ],
      "name": "initializeBuffer",
      "outputs": [
        {
          "internalType": "uint256",
          "name": "issuedShares",
          "type": "uint256"
        }
      ],
      "stateMutability": "nonpayable",
      "type": "function"
    },
    {
      "inputs": [
        {
          "internalType": "contract IERC4626",
          "name": "wrappedToken",
          "type": "address"
        },
        {
          "internalType": "uint256",
          "name": "exactAmountUnderlyingIn",
          "type": "uint256"
        },
        {
          "internalType": "uint256",
          "name": "exactAmountWrappedIn",
          "type": "uint256"
        },
        {
          "internalType": "uint256",
          "name": "minIssuedShares",
          "type": "uint256"
        },
        {
          "internalType": "address",
          "name": "sharesOwner",
          "type": "address"
        }
      ],
      "name": "initializeBufferHook",
      "outputs": [
        {
          "internalType": "uint256",
          "name": "issuedShares",
          "type": "uint256"
        }
      ],
      "stateMutability": "nonpayable",
      "type": "function"
    },
    {
      "inputs": [
        {
          "internalType": "bytes[]",
          "name": "data",
          "type": "bytes[]"
        }
      ],
      "name": "multicall",
      "outputs": [
        {
          "internalType": "bytes[]",
          "name": "results",
          "type": "bytes[]"
        }
      ],
      "stateMutability": "payable",
      "type": "function"
    },
    {
      "inputs": [
        {
          "components": [
            {
              "internalType": "address",
              "name": "token",
              "type": "address"
            },
            {
              "internalType": "address",
              "name": "owner",
              "type": "address"
            },
            {
              "internalType": "address",
              "name": "spender",
              "type": "address"
            },
            {
              "internalType": "uint256",
              "name": "amount",
              "type": "uint256"
            },
            {
              "internalType": "uint256",
              "name": "nonce",
              "type": "uint256"
            },
            {
              "internalType": "uint256",
              "name": "deadline",
              "type": "uint256"
            }
          ],
          "internalType": "struct IRouterCommon.PermitApproval[]",
          "name": "permitBatch",
          "type": "tuple[]"
        },
        {
          "internalType": "bytes[]",
          "name": "permitSignatures",
          "type": "bytes[]"
        },
        {
          "components": [
            {
              "components": [
                {
                  "internalType": "address",
                  "name": "token",
                  "type": "address"
                },
                {
                  "internalType": "uint160",
                  "name": "amount",
                  "type": "uint160"
                },
                {
                  "internalType": "uint48",
                  "name": "expiration",
                  "type": "uint48"
                },
                {
                  "internalType": "uint48",
                  "name": "nonce",
                  "type": "uint48"
                }
              ],
              "internalType": "struct IAllowanceTransfer.PermitDetails[]",
              "name": "details",
              "type": "tuple[]"
            },
            {
              "internalType": "address",
              "name": "spender",
              "type": "address"
            },
            {
              "internalType": "uint256",
              "name": "sigDeadline",
              "type": "uint256"
            }
          ],
          "internalType": "struct IAllowanceTransfer.PermitBatch",
          "name": "permit2Batch",
          "type": "tuple"
        },
        {
          "internalType": "bytes",
          "name": "permit2Signature",
          "type": "bytes"
        },
        {
          "internalType": "bytes[]",
          "name": "multicallData",
          "type": "bytes[]"
        }
      ],
      "name": "permitBatchAndCall",
      "outputs": [
        {
          "internalType": "bytes[]",
          "name": "results",
          "type": "bytes[]"
        }
      ],
      "stateMutability": "payable",
      "type": "function"
    },
    {
      "inputs": [
        {
          "internalType": "contract IERC4626",
          "name": "wrappedToken",
          "type": "address"
        },
        {
          "internalType": "uint256",
          "name": "exactSharesToIssue",
          "type": "uint256"
        }
      ],
      "name": "queryAddLiquidityToBuffer",
      "outputs": [
        {
          "internalType": "uint256",
          "name": "amountUnderlyingIn",
          "type": "uint256"
        },
        {
          "internalType": "uint256",
          "name": "amountWrappedIn",
          "type": "uint256"
        }
      ],
      "stateMutability": "nonpayable",
      "type": "function"
    },
    {
      "inputs": [
        {
          "internalType": "contract IERC4626",
          "name": "wrappedToken",
          "type": "address"
        },
        {
          "internalType": "uint256",
          "name": "exactSharesToIssue",
          "type": "uint256"
        }
      ],
      "name": "queryAddLiquidityToBufferHook",
      "outputs": [
        {
          "internalType": "uint256",
          "name": "amountUnderlyingIn",
          "type": "uint256"
        },
        {
          "internalType": "uint256",
          "name": "amountWrappedIn",
          "type": "uint256"
        }
      ],
      "stateMutability": "nonpayable",
      "type": "function"
    },
    {
      "inputs": [
        {
          "internalType": "contract IERC4626",
          "name": "wrappedToken",
          "type": "address"
        },
        {
          "internalType": "uint256",
          "name": "exactAmountUnderlyingIn",
          "type": "uint256"
        },
        {
          "internalType": "uint256",
          "name": "exactAmountWrappedIn",
          "type": "uint256"
        }
      ],
      "name": "queryInitializeBuffer",
      "outputs": [
        {
          "internalType": "uint256",
          "name": "issuedShares",
          "type": "uint256"
        }
      ],
      "stateMutability": "nonpayable",
      "type": "function"
    },
    {
      "inputs": [
        {
          "internalType": "contract IERC4626",
          "name": "wrappedToken",
          "type": "address"
        },
        {
          "internalType": "uint256",
          "name": "exactAmountUnderlyingIn",
          "type": "uint256"
        },
        {
          "internalType": "uint256",
          "name": "exactAmountWrappedIn",
          "type": "uint256"
        }
      ],
      "name": "queryInitializeBufferHook",
      "outputs": [
        {
          "internalType": "uint256",
          "name": "issuedShares",
          "type": "uint256"
        }
      ],
      "stateMutability": "nonpayable",
      "type": "function"
    },
    {
      "inputs": [
        {
          "internalType": "contract IERC4626",
          "name": "wrappedToken",
          "type": "address"
        },
        {
          "internalType": "uint256",
          "name": "exactSharesToRemove",
          "type": "uint256"
        }
      ],
      "name": "queryRemoveLiquidityFromBuffer",
      "outputs": [
        {
          "internalType": "uint256",
          "name": "removedUnderlyingBalanceOut",
          "type": "uint256"
        },
        {
          "internalType": "uint256",
          "name": "removedWrappedBalanceOut",
          "type": "uint256"
        }
      ],
      "stateMutability": "nonpayable",
      "type": "function"
    },
    {
      "inputs": [
        {
          "internalType": "contract IERC4626",
          "name": "wrappedToken",
          "type": "address"
        },
        {
          "internalType": "uint256",
          "name": "exactSharesToRemove",
          "type": "uint256"
        }
      ],
      "name": "queryRemoveLiquidityFromBufferHook",
      "outputs": [
        {
          "internalType": "uint256",
          "name": "removedUnderlyingBalanceOut",
          "type": "uint256"
        },
        {
          "internalType": "uint256",
          "name": "removedWrappedBalanceOut",
          "type": "uint256"
        }
      ],
      "stateMutability": "nonpayable",
      "type": "function"
    },
    {
      "inputs": [],
      "name": "version",
      "outputs": [
        {
          "internalType": "string",
          "name": "",
          "type": "string"
        }
      ],
      "stateMutability": "view",
      "type": "function"
    },
    {
      "stateMutability": "payable",
      "type": "receive"
    }
  ],
  "bytecode": "0x61012060409080825234610303576122ee803803809161001f8285610322565b83398101916080828403126103035781516001600160a01b039283821682036103035760209081810151928584168403610303578482015195861686036103035760608201516001600160401b0392838211610303570190601f908882840112156103035782518481116102ef57601f199388519a6100a4888787860116018d610322565b828c5287838301011161030357815f928c898080950191015e8b01015260805287519283116102ef575f54916001928381811c911680156102e5575b868210146102d15782811161028e575b508491841160011461022f575082918291610186969798995f94610224575b50501b915f199060031b1c1916175f555b61014e61012b610345565b85519061013782610307565b600682526539b2b73232b960d11b8483015261036d565b60a052610159610345565b701a5cd4995d1d5c9b915d1a131bd8dad959607a1b85519261017a84610307565b6011845283015261036d565b60c05260e05261010091825251611ece9182610420833960805182818161020901528181610344015281816104f60152818161066d015281816107aa0152818161090c01528181610c1201528181610dc701528181611b700152611c0f015260a05182818161098d015261189e015260c0518281816118de0152611d76015260e051826031015251818181610ffe015281816111250152611bec0152f35b015192505f8061010f565b83929316905f8052845f20915f5b818110610279575098836101869798999a10610261575b505050811b015f55610120565b01515f1960f88460031b161c191690555f8080610254565b8a83015184559285019291860191860161023d565b5f8052855f208380870160051c8201928888106102c8575b0160051c019084905b8281106102bd5750506100f0565b5f81550184906102af565b925081926102a6565b634e487b7160e01b5f52602260045260245ffd5b90607f16906100e0565b634e487b7160e01b5f52604160045260245ffd5b5f80fd5b604081019081106001600160401b038211176102ef57604052565b601f909101601f19168101906001600160401b038211908210176102ef57604052565b6040519061035282610307565b600c82526b2937baba32b921b7b6b6b7b760a11b6020830152565b906103da603a60209260405193849181808401977f62616c616e6365722d6c6162732e76332e73746f726167652e000000000000008952805191829101603986015e830190601760f91b60398301528051928391018583015e015f8382015203601a810184520182610322565b5190205f19810190811161040b5760405190602082019081526020825261040082610307565b9051902060ff191690565b634e487b7160e01b5f52601160045260245ffdfe6080806040526004361015610081575b50361561001a575f80fd5b73ffffffffffffffffffffffffffffffffffffffff7f000000000000000000000000000000000000000000000000000000000000000016330361005957005b7f0540ddf6000000000000000000000000000000000000000000000000000000005f5260045ffd5b5f3560e01c90816313f7bb4d146115535750806319c6989f14610e2b578063400f230d14610d255780634fe56ed614610b88578063502383f414610b0857806354fd4d50146109cb5780635e01eb5a14610979578063662727cc1461083a578063a390260414610723578063ac9650d8146106db578063b365a3c21461058a578063d96af0701461046a578063d9f70869146102b95763e0fefe3514610127575f61000f565b346102565761013536611769565b73ffffffffffffffffffffffffffffffffffffffff9182604051947fa3902604000000000000000000000000000000000000000000000000000000006020870152166024850152604484015260648301526064825260a082019082821067ffffffffffffffff83111761028c57815f91816040527fedfa3568000000000000000000000000000000000000000000000000000000008252602060a486015281837fffffffffffffffffffffffffffffffffffffffffffffffffffffffffffffff608761020460c482018261163f565b0301927f0000000000000000000000000000000000000000000000000000000000000000165af1918215610281575f9261025a575b505060208180518101031261025657602080910151604051908152f35b5f80fd5b61027a925060a0903d90815f853e61027282856117b4565b0101906117f3565b5f80610239565b6040513d5f823e3d90fd5b7f4e487b71000000000000000000000000000000000000000000000000000000005f52604160045260245ffd5b34610256576102c7366116e5565b91906102d4949394611b2c565b6102dc611b59565b6040517f653eb3b000000000000000000000000000000000000000000000000000000000815273ffffffffffffffffffffffffffffffffffffffff858116600483015260248201879052604482018490526064820192909252838216608482015260209591937f00000000000000000000000000000000000000000000000000000000000000008516929091878160a4815f885af19687156102815788915f98610437575b50908692916024604051809581937f4afbaf5a00000000000000000000000000000000000000000000000000000000835216978860048301525afa958615610281576103df966103da935f9161040a575b501683611bc4565b611bc4565b5f7f9b779b17422d0df92223018b32b4d1fa46e071723d6817e2486d003becc55f005d604051908152f35b61042a91508a3d8c11610430575b61042281836117b4565b81019061186c565b8a6103d2565b503d610418565b828194939299503d8311610463575b61045081836117b4565b8101031261025657905195879086610381565b503d610446565b3461025657604060031936011261025657608460406104876115ca565b61048f611b2c565b610497611b59565b73ffffffffffffffffffffffffffffffffffffffff9283915f845195869485937febc7955c00000000000000000000000000000000000000000000000000000000855216600484015260243560248401528160448401528160648401527f0000000000000000000000000000000000000000000000000000000000000000165af1908115610281576040915f915f9161055b575b505f7f9b779b17422d0df92223018b32b4d1fa46e071723d6817e2486d003becc55f005d82519182526020820152f35b905061057d9150823d8411610583575b61057581836117b4565b810190611856565b8361052b565b503d61056b565b34610256576106535f61060a6106186105a23661172e565b6040517fd9f7086900000000000000000000000000000000000000000000000000000000602082015273ffffffffffffffffffffffffffffffffffffffff90941660248501526044840192909252606483015260848201523360a482015291829060c4820190565b03601f1981018352826117b4565b604051809381927f48c8949100000000000000000000000000000000000000000000000000000000835260206004840152602483019061163f565b03818373ffffffffffffffffffffffffffffffffffffffff7f0000000000000000000000000000000000000000000000000000000000000000165af1908115610281575f916106b9575b5060208180518101031261025657602080910151604051908152f35b6106d591503d805f833e6106cd81836117b4565b8101906117f3565b8161069d565b60206003193601126102565760043567ffffffffffffffff81116102565761071361070d61071f92369060040161160e565b90611898565b60405191829182611664565b0390f35b346102565760a4602061073536611769565b91610741949194611b2c565b610749611b59565b5f73ffffffffffffffffffffffffffffffffffffffff809460405197889687957f653eb3b0000000000000000000000000000000000000000000000000000000008752166004860152602485015260448401528160648401523060848401527f0000000000000000000000000000000000000000000000000000000000000000165af18015610281575f90610807575b6020905f7f9b779b17422d0df92223018b32b4d1fa46e071723d6817e2486d003becc55f005d604051908152f35b506020813d602011610832575b81610821602093836117b4565b8101031261025657602090516107d9565b3d9150610814565b34610256576040600319360112610256576108f25f61060a6108b761085d6115ca565b6040517f400f230d00000000000000000000000000000000000000000000000000000000602082015273ffffffffffffffffffffffffffffffffffffffff9091166024808301919091523560448201529182906064820190565b604051809381927fedfa356800000000000000000000000000000000000000000000000000000000835260206004840152602483019061163f565b03818373ffffffffffffffffffffffffffffffffffffffff7f0000000000000000000000000000000000000000000000000000000000000000165af190811561028157604091610953915f9161095f575b5060208082518301019101611856565b82519182526020820152f35b61097391503d805f833e6106cd81836117b4565b83610943565b34610256575f6003193601126102565760207f00000000000000000000000000000000000000000000000000000000000000005c73ffffffffffffffffffffffffffffffffffffffff60405191168152f35b34610256575f600319360112610256576040515f80549060018260011c9160018416918215610afe575b6020948585108414610ad15785879486865291825f14610a93575050600114610a3a575b50610a26925003836117b4565b61071f60405192828493845283019061163f565b5f808052859250907f290decd9548b62a8d60345a988386fc84ba6bc95484008f6362f93160ef3e5635b858310610a7b575050610a26935082010185610a19565b80548389018501528794508693909201918101610a64565b7fffffffffffffffffffffffffffffffffffffffffffffffffffffffffffffff001685820152610a2695151560051b8501019250879150610a199050565b7f4e487b71000000000000000000000000000000000000000000000000000000005f52602260045260245ffd5b92607f16926109f5565b34610256576108f25f61060a610618610b203661172e565b6040517f4fe56ed600000000000000000000000000000000000000000000000000000000602082015273ffffffffffffffffffffffffffffffffffffffff90941660248501526044840192909252606483015260848201523360a482015291829060c4820190565b3461025657610b96366116e5565b93919092610ba2611b2c565b610baa611b59565b604080517fe2a92b1a00000000000000000000000000000000000000000000000000000000815273ffffffffffffffffffffffffffffffffffffffff8581166004830152602482019390935260448101939093526064830194909452848116608483015290927f00000000000000000000000000000000000000000000000000000000000000008216908460a4815f855af1928315610281575f945f94610cf8575b5090602083926024604051809681937f4afbaf5a00000000000000000000000000000000000000000000000000000000835216948560048301525afa958615610281576103da868694604099610caa975f91610cd957501683611bc4565b5f7f9b779b17422d0df92223018b32b4d1fa46e071723d6817e2486d003becc55f005d82519182526020820152f35b610cf2915060203d6020116104305761042281836117b4565b8b6103d2565b602095508392919450610d199060403d6040116105835761057581836117b4565b95909594919250610c4c565b346102565760406003193601126102565760a46040610d426115ca565b610d4a611b2c565b610d52611b59565b73ffffffffffffffffffffffffffffffffffffffff9283915f845195869485937fe2a92b1a0000000000000000000000000000000000000000000000000000000085521660048401526fffffffffffffffffffffffffffffffff806024850152604484015260243560648401523060848401527f0000000000000000000000000000000000000000000000000000000000000000165af1908115610281576040915f915f9161055b57505f7f9b779b17422d0df92223018b32b4d1fa46e071723d6817e2486d003becc55f005d82519182526020820152f35b60a06003193601126102565767ffffffffffffffff60043511610256573660236004350112156102565767ffffffffffffffff60043560040135116102565736602460c060043560040135026004350101116102565760243567ffffffffffffffff811161025657610ea190369060040161160e565b67ffffffffffffffff60443511610256576060600319604435360301126102565767ffffffffffffffff60643511610256573660236064350112156102565767ffffffffffffffff606435600401351161025657366024606435600401356064350101116102565760843567ffffffffffffffff811161025657610f2990369060040161160e565b929091610f34611b2c565b80600435600401350361152b575f5b60043560040135811061121c57505050604435600401357fffffffffffffffffffffffffffffffffffffffffffffffffffffffffffffffdd60443536030181121561025657806044350160048101359067ffffffffffffffff82116102565760248260071b360391011361025657610fe6575b61071f61071384845f7f9b779b17422d0df92223018b32b4d1fa46e071723d6817e2486d003becc55f005d611898565b9173ffffffffffffffffffffffffffffffffffffffff7f0000000000000000000000000000000000000000000000000000000000000000163b1561025657604051927f2a2d80d10000000000000000000000000000000000000000000000000000000084523360048501526060602485015260c484019060443501602481019167ffffffffffffffff60048301351161025657600482013560071b36038313610256576060606487015260048201359052849160e48301915f905b6004810135821061118857505050906020815f9373ffffffffffffffffffffffffffffffffffffffff6110d86024604435016115ed565b1660848301526044803581013560a4840152600319838303019083015260643560048101358083529060240184830137600460643501358181018401869052601f01601f191601030181837f000000000000000000000000000000000000000000000000000000000000000073ffffffffffffffffffffffffffffffffffffffff165af19182156102815761071f9361071393611179575b50915091610fb6565b611182906117a0565b84611170565b9193509173ffffffffffffffffffffffffffffffffffffffff6111aa856115ed565b1681526020808501359173ffffffffffffffffffffffffffffffffffffffff8316809303610256576004926001928201526111e760408701611b19565b65ffffffffffff809116604083015261120260608801611b19565b1660608201526080809101950193019050869392916110a1565b61123161122a828486611a13565b3691611aa0565b6040519081606081011067ffffffffffffffff60608401111761028c57606082016040525f82525f60208301525f6040830152602081015190606060408201519101515f1a9183526020830152604082015260c07fffffffffffffffffffffffffffffffffffffffffffffffffffffffffffffffdc818402600435013603011261025657604051908160c081011067ffffffffffffffff60c08401111761028c5760c082016040526112ec602460c0850260043501016115ed565b808352611302604460c0860260043501016115ed565b9081602085015261131c606460c0870260043501016115ed565b60408581019190915260043560c08702016084810135606087015260a4810135608087015260c4013560a0860152830151835160209094015160ff919091169273ffffffffffffffffffffffffffffffffffffffff83163b15610256575f73ffffffffffffffffffffffffffffffffffffffff809460e4948a98849860c460c06040519c8d9b8c9a7fd505accf000000000000000000000000000000000000000000000000000000008c521660048b01523060248b0152608482820260043501013560448b0152026004350101356064880152608487015260a486015260c4850152165af1908161151c575b5061151357611415611aea565b9073ffffffffffffffffffffffffffffffffffffffff81511690602073ffffffffffffffffffffffffffffffffffffffff81830151166044604051809581937fdd62ed3e00000000000000000000000000000000000000000000000000000000835260048301523060248301525afa918215610281575f926114de575b5060600151036114a757506001905b01610f43565b8051156114b657805190602001fd5b7fa7285689000000000000000000000000000000000000000000000000000000005f5260045ffd5b9091506020813d60201161150b575b816114fa602093836117b4565b810103126102565751906060611492565b3d91506114ed565b506001906114a1565b611525906117a0565b87611408565b7faaad13f7000000000000000000000000000000000000000000000000000000005f5260045ffd5b34610256576040600319360112610256575f816108b76108f29361060a6115786115ca565b7fd96af07000000000000000000000000000000000000000000000000000000000602084015273ffffffffffffffffffffffffffffffffffffffff166024808401919091523560448301526064820190565b6004359073ffffffffffffffffffffffffffffffffffffffff8216820361025657565b359073ffffffffffffffffffffffffffffffffffffffff8216820361025657565b9181601f840112156102565782359167ffffffffffffffff8311610256576020808501948460051b01011161025657565b90601f19601f602080948051918291828752018686015e5f8582860101520116010190565b6020808201906020835283518092526040830192602060408460051b8301019501935f915b8483106116995750505050505090565b90919293949584806116d5837fffffffffffffffffffffffffffffffffffffffffffffffffffffffffffffffc086600196030187528a5161163f565b9801930193019194939290611689565b60031960a09101126102565773ffffffffffffffffffffffffffffffffffffffff6004358181168103610256579160243591604435916064359160843590811681036102565790565b60031960809101126102565760043573ffffffffffffffffffffffffffffffffffffffff811681036102565790602435906044359060643590565b60031960609101126102565760043573ffffffffffffffffffffffffffffffffffffffff8116810361025657906024359060443590565b67ffffffffffffffff811161028c57604052565b90601f601f19910116810190811067ffffffffffffffff82111761028c57604052565b67ffffffffffffffff811161028c57601f01601f191660200190565b6020818303126102565780519067ffffffffffffffff8211610256570181601f8201121561025657805190611827826117d7565b9261183560405194856117b4565b8284526020838301011161025657815f9260208093018386015e8301015290565b9190826040910312610256576020825192015190565b90816020910312610256575173ffffffffffffffffffffffffffffffffffffffff811681036102565790565b91905f907f00000000000000000000000000000000000000000000000000000000000000009073ffffffffffffffffffffffffffffffffffffffff825c16156119ee575b7f000000000000000000000000000000000000000000000000000000000000000094855c6119c6576001906001875d611914836119fb565b9261192260405194856117b4565b808452601f19611931826119fb565b015f5b8181106119b55750505f5b81811061196c5750505050905f6119619392955d805c91611963575b50611d6c565b565b5f905d5f61195b565b806119995f8061198161122a8996888a611a13565b602081519101305af4611992611aea565b9030611e27565b6119a38288611ad6565b526119ae8187611ad6565b500161193f565b806060602080938901015201611934565b7f3ee5aeb5000000000000000000000000000000000000000000000000000000005f5260045ffd5b915033815d6001916118dc565b67ffffffffffffffff811161028c5760051b60200190565b9190811015611a735760051b810135907fffffffffffffffffffffffffffffffffffffffffffffffffffffffffffffffe18136030182121561025657019081359167ffffffffffffffff8311610256576020018236038113610256579190565b7f4e487b71000000000000000000000000000000000000000000000000000000005f52603260045260245ffd5b929192611aac826117d7565b91611aba60405193846117b4565b829481845281830111610256578281602093845f960137010152565b8051821015611a735760209160051b010190565b3d15611b14573d90611afb826117d7565b91611b0960405193846117b4565b82523d5f602084013e565b606090565b359065ffffffffffff8216820361025657565b7f9b779b17422d0df92223018b32b4d1fa46e071723d6817e2486d003becc55f00805c6119c6576001905d565b73ffffffffffffffffffffffffffffffffffffffff7f0000000000000000000000000000000000000000000000000000000000000000163303611b9857565b7f089676d5000000000000000000000000000000000000000000000000000000005f523360045260245ffd5b90915f9080611bd4575b50505050565b73ffffffffffffffffffffffffffffffffffffffff807f000000000000000000000000000000000000000000000000000000000000000016817f00000000000000000000000000000000000000000000000000000000000000001695828411611d3b57821694813b1561025657608483915f809460405196879586947f36c785160000000000000000000000000000000000000000000000000000000086521660048501528b6024850152881660448401528960648401525af1801561028157611d24575b506044829360209360405196879485937f15afd409000000000000000000000000000000000000000000000000000000008552600485015260248401525af1908115611d185750611ced575b808080611bce565b602090813d8311611d11575b611d0381836117b4565b81010312610256575f611ce5565b503d611cf9565b604051903d90823e3d90fd5b60209250611d31906117a0565b60445f9250611c99565b837f6dfcc650000000000000000000000000000000000000000000000000000000005f5260a060045260245260445ffd5b47908115611e23577f00000000000000000000000000000000000000000000000000000000000000005c611e2357814710611df7575f80809373ffffffffffffffffffffffffffffffffffffffff8294165af1611dc7611aea565b5015611dcf57565b7f1425ea42000000000000000000000000000000000000000000000000000000005f5260045ffd5b7fcd786059000000000000000000000000000000000000000000000000000000005f523060045260245ffd5b5050565b90611e3c5750805115611dcf57805190602001fd5b81511580611e8f575b611e4d575090565b73ffffffffffffffffffffffffffffffffffffffff907f9996b315000000000000000000000000000000000000000000000000000000005f521660045260245ffd5b50803b15611e4556fea2646970667358221220cb88d5489da577926486c21ac77c1c35f073a7d5c5ace289b5c544ff7cb53dba64736f6c634300081a0033",
  "linkReferences": {},
  "deployedLinkReferences": {}
}