{
  "_format": "hh-sol-artifact-1",
  "contractName": "CompositeLiquidityRouter",
  "sourceName": "contracts/CompositeLiquidityRouter.sol",
  "abi": [
    {
      "inputs": [
        {
          "internalType": "contract IVault",
          "name": "vault",
          "type": "address"
        },
        {
          "internalType": "contract IWETH",
          "name": "weth",
          "type": "address"
        },
        {
          "internalType": "contract IPermit2",
          "name": "permit2",
          "type": "address"
        },
        {
          "internalType": "string",
          "name": "routerVersion",
          "type": "string"
        }
      ],
      "stateMutability": "nonpayable",
      "type": "constructor"
    },
    {
      "inputs": [
        {
          "internalType": "address",
          "name": "target",
          "type": "address"
        }
      ],
      "name": "AddressEmptyCode",
      "type": "error"
    },
    {
      "inputs": [
        {
          "internalType": "address",
          "name": "account",
          "type": "address"
        }
      ],
      "name": "AddressInsufficientBalance",
      "type": "error"
    },
    {
      "inputs": [
        {
          "internalType": "contract IERC20",
          "name": "tokenIn",
          "type": "address"
        },
        {
          "internalType": "uint256",
          "name": "amountIn",
          "type": "uint256"
        },
        {
          "internalType": "uint256",
          "name": "maxAmountIn",
          "type": "uint256"
        }
      ],
      "name": "AmountInAboveMax",
      "type": "error"
    },
    {
      "inputs": [
        {
          "internalType": "contract IERC20",
          "name": "tokenOut",
          "type": "address"
        },
        {
          "internalType": "uint256",
          "name": "amountOut",
          "type": "uint256"
        },
        {
          "internalType": "uint256",
          "name": "minAmountOut",
          "type": "uint256"
        }
      ],
      "name": "AmountOutBelowMin",
      "type": "error"
    },
    {
      "inputs": [],
      "name": "ElementNotFound",
      "type": "error"
    },
    {
      "inputs": [],
      "name": "ErrorSelectorNotFound",
      "type": "error"
    },
    {
      "inputs": [],
      "name": "EthTransfer",
      "type": "error"
    },
    {
      "inputs": [],
      "name": "FailedInnerCall",
      "type": "error"
    },
    {
      "inputs": [],
      "name": "InputLengthMismatch",
      "type": "error"
    },
    {
      "inputs": [],
      "name": "InsufficientEth",
      "type": "error"
    },
    {
      "inputs": [],
      "name": "ReentrancyGuardReentrantCall",
      "type": "error"
    },
    {
      "inputs": [
        {
          "internalType": "uint8",
          "name": "bits",
          "type": "uint8"
        },
        {
          "internalType": "uint256",
          "name": "value",
          "type": "uint256"
        }
      ],
      "name": "SafeCastOverflowedUintDowncast",
      "type": "error"
    },
    {
      "inputs": [
        {
          "internalType": "address",
          "name": "token",
          "type": "address"
        }
      ],
      "name": "SafeERC20FailedOperation",
      "type": "error"
    },
    {
      "inputs": [
        {
          "internalType": "address",
          "name": "sender",
          "type": "address"
        }
      ],
      "name": "SenderIsNotVault",
      "type": "error"
    },
    {
      "inputs": [],
      "name": "SwapDeadline",
      "type": "error"
    },
    {
      "inputs": [],
      "name": "TransientIndexOutOfBounds",
      "type": "error"
    },
    {
      "inputs": [
        {
          "internalType": "address[]",
          "name": "expectedTokensOut",
          "type": "address[]"
        },
        {
          "internalType": "address[]",
          "name": "tokensOut",
          "type": "address[]"
        }
      ],
      "name": "WrongTokensOut",
      "type": "error"
    },
    {
      "inputs": [
        {
          "components": [
            {
              "internalType": "address",
              "name": "sender",
              "type": "address"
            },
            {
              "internalType": "address",
              "name": "pool",
              "type": "address"
            },
            {
              "internalType": "uint256[]",
              "name": "maxAmountsIn",
              "type": "uint256[]"
            },
            {
              "internalType": "uint256",
              "name": "minBptAmountOut",
              "type": "uint256"
            },
            {
              "internalType": "enum AddLiquidityKind",
              "name": "kind",
              "type": "uint8"
            },
            {
              "internalType": "bool",
              "name": "wethIsEth",
              "type": "bool"
            },
            {
              "internalType": "bytes",
              "name": "userData",
              "type": "bytes"
            }
          ],
          "internalType": "struct IRouterCommon.AddLiquidityHookParams",
          "name": "params",
          "type": "tuple"
        }
      ],
      "name": "addLiquidityERC4626PoolProportionalHook",
      "outputs": [
        {
          "internalType": "uint256[]",
          "name": "underlyingAmountsIn",
          "type": "uint256[]"
        }
      ],
      "stateMutability": "nonpayable",
      "type": "function"
    },
    {
      "inputs": [
        {
          "components": [
            {
              "internalType": "address",
              "name": "sender",
              "type": "address"
            },
            {
              "internalType": "address",
              "name": "pool",
              "type": "address"
            },
            {
              "internalType": "uint256[]",
              "name": "maxAmountsIn",
              "type": "uint256[]"
            },
            {
              "internalType": "uint256",
              "name": "minBptAmountOut",
              "type": "uint256"
            },
            {
              "internalType": "enum AddLiquidityKind",
              "name": "kind",
              "type": "uint8"
            },
            {
              "internalType": "bool",
              "name": "wethIsEth",
              "type": "bool"
            },
            {
              "internalType": "bytes",
              "name": "userData",
              "type": "bytes"
            }
          ],
          "internalType": "struct IRouterCommon.AddLiquidityHookParams",
          "name": "params",
          "type": "tuple"
        }
      ],
      "name": "addLiquidityERC4626PoolUnbalancedHook",
      "outputs": [
        {
          "internalType": "uint256",
          "name": "bptAmountOut",
          "type": "uint256"
        }
      ],
      "stateMutability": "nonpayable",
      "type": "function"
    },
    {
      "inputs": [
        {
          "internalType": "address",
          "name": "pool",
          "type": "address"
        },
        {
          "internalType": "uint256[]",
          "name": "maxUnderlyingAmountsIn",
          "type": "uint256[]"
        },
        {
          "internalType": "uint256",
          "name": "exactBptAmountOut",
          "type": "uint256"
        },
        {
          "internalType": "bool",
          "name": "wethIsEth",
          "type": "bool"
        },
        {
          "internalType": "bytes",
          "name": "userData",
          "type": "bytes"
        }
      ],
      "name": "addLiquidityProportionalToERC4626Pool",
      "outputs": [
        {
          "internalType": "uint256[]",
          "name": "underlyingAmountsIn",
          "type": "uint256[]"
        }
      ],
      "stateMutability": "payable",
      "type": "function"
    },
    {
      "inputs": [
        {
          "internalType": "address",
          "name": "parentPool",
          "type": "address"
        },
        {
          "internalType": "address[]",
          "name": "tokensIn",
          "type": "address[]"
        },
        {
          "internalType": "uint256[]",
          "name": "exactAmountsIn",
          "type": "uint256[]"
        },
        {
          "internalType": "uint256",
          "name": "minBptAmountOut",
          "type": "uint256"
        },
        {
          "internalType": "bool",
          "name": "wethIsEth",
          "type": "bool"
        },
        {
          "internalType": "bytes",
          "name": "userData",
          "type": "bytes"
        }
      ],
      "name": "addLiquidityUnbalancedNestedPool",
      "outputs": [
        {
          "internalType": "uint256",
          "name": "",
          "type": "uint256"
        }
      ],
      "stateMutability": "payable",
      "type": "function"
    },
    {
      "inputs": [
        {
          "components": [
            {
              "internalType": "address",
              "name": "sender",
              "type": "address"
            },
            {
              "internalType": "address",
              "name": "pool",
              "type": "address"
            },
            {
              "internalType": "uint256[]",
              "name": "maxAmountsIn",
              "type": "uint256[]"
            },
            {
              "internalType": "uint256",
              "name": "minBptAmountOut",
              "type": "uint256"
            },
            {
              "internalType": "enum AddLiquidityKind",
              "name": "kind",
              "type": "uint8"
            },
            {
              "internalType": "bool",
              "name": "wethIsEth",
              "type": "bool"
            },
            {
              "internalType": "bytes",
              "name": "userData",
              "type": "bytes"
            }
          ],
          "internalType": "struct IRouterCommon.AddLiquidityHookParams",
          "name": "params",
          "type": "tuple"
        },
        {
          "internalType": "address[]",
          "name": "tokensIn",
          "type": "address[]"
        }
      ],
      "name": "addLiquidityUnbalancedNestedPoolHook",
      "outputs": [
        {
          "internalType": "uint256",
          "name": "exactBptAmountOut",
          "type": "uint256"
        }
      ],
      "stateMutability": "nonpayable",
      "type": "function"
    },
    {
      "inputs": [
        {
          "internalType": "address",
          "name": "pool",
          "type": "address"
        },
        {
          "internalType": "uint256[]",
          "name": "exactUnderlyingAmountsIn",
          "type": "uint256[]"
        },
        {
          "internalType": "uint256",
          "name": "minBptAmountOut",
          "type": "uint256"
        },
        {
          "internalType": "bool",
          "name": "wethIsEth",
          "type": "bool"
        },
        {
          "internalType": "bytes",
          "name": "userData",
          "type": "bytes"
        }
      ],
      "name": "addLiquidityUnbalancedToERC4626Pool",
      "outputs": [
        {
          "internalType": "uint256",
          "name": "bptAmountOut",
          "type": "uint256"
        }
      ],
      "stateMutability": "payable",
      "type": "function"
    },
    {
      "inputs": [],
      "name": "getSender",
      "outputs": [
        {
          "internalType": "address",
          "name": "",
          "type": "address"
        }
      ],
      "stateMutability": "view",
      "type": "function"
    },
    {
      "inputs": [
        {
          "internalType": "bytes[]",
          "name": "data",
          "type": "bytes[]"
        }
      ],
      "name": "multicall",
      "outputs": [
        {
          "internalType": "bytes[]",
          "name": "results",
          "type": "bytes[]"
        }
      ],
      "stateMutability": "payable",
      "type": "function"
    },
    {
      "inputs": [
        {
          "components": [
            {
              "internalType": "address",
              "name": "token",
              "type": "address"
            },
            {
              "internalType": "address",
              "name": "owner",
              "type": "address"
            },
            {
              "internalType": "address",
              "name": "spender",
              "type": "address"
            },
            {
              "internalType": "uint256",
              "name": "amount",
              "type": "uint256"
            },
            {
              "internalType": "uint256",
              "name": "nonce",
              "type": "uint256"
            },
            {
              "internalType": "uint256",
              "name": "deadline",
              "type": "uint256"
            }
          ],
          "internalType": "struct IRouterCommon.PermitApproval[]",
          "name": "permitBatch",
          "type": "tuple[]"
        },
        {
          "internalType": "bytes[]",
          "name": "permitSignatures",
          "type": "bytes[]"
        },
        {
          "components": [
            {
              "components": [
                {
                  "internalType": "address",
                  "name": "token",
                  "type": "address"
                },
                {
                  "internalType": "uint160",
                  "name": "amount",
                  "type": "uint160"
                },
                {
                  "internalType": "uint48",
                  "name": "expiration",
                  "type": "uint48"
                },
                {
                  "internalType": "uint48",
                  "name": "nonce",
                  "type": "uint48"
                }
              ],
              "internalType": "struct IAllowanceTransfer.PermitDetails[]",
              "name": "details",
              "type": "tuple[]"
            },
            {
              "internalType": "address",
              "name": "spender",
              "type": "address"
            },
            {
              "internalType": "uint256",
              "name": "sigDeadline",
              "type": "uint256"
            }
          ],
          "internalType": "struct IAllowanceTransfer.PermitBatch",
          "name": "permit2Batch",
          "type": "tuple"
        },
        {
          "internalType": "bytes",
          "name": "permit2Signature",
          "type": "bytes"
        },
        {
          "internalType": "bytes[]",
          "name": "multicallData",
          "type": "bytes[]"
        }
      ],
      "name": "permitBatchAndCall",
      "outputs": [
        {
          "internalType": "bytes[]",
          "name": "results",
          "type": "bytes[]"
        }
      ],
      "stateMutability": "payable",
      "type": "function"
    },
    {
      "inputs": [
        {
          "internalType": "address",
          "name": "pool",
          "type": "address"
        },
        {
          "internalType": "uint256",
          "name": "exactBptAmountOut",
          "type": "uint256"
        },
        {
          "internalType": "address",
          "name": "sender",
          "type": "address"
        },
        {
          "internalType": "bytes",
          "name": "userData",
          "type": "bytes"
        }
      ],
      "name": "queryAddLiquidityProportionalToERC4626Pool",
      "outputs": [
        {
          "internalType": "uint256[]",
          "name": "underlyingAmountsIn",
          "type": "uint256[]"
        }
      ],
      "stateMutability": "nonpayable",
      "type": "function"
    },
    {
      "inputs": [
        {
          "internalType": "address",
          "name": "parentPool",
          "type": "address"
        },
        {
          "internalType": "address[]",
          "name": "tokensIn",
          "type": "address[]"
        },
        {
          "internalType": "uint256[]",
          "name": "exactAmountsIn",
          "type": "uint256[]"
        },
        {
          "internalType": "address",
          "name": "sender",
          "type": "address"
        },
        {
          "internalType": "bytes",
          "name": "userData",
          "type": "bytes"
        }
      ],
      "name": "queryAddLiquidityUnbalancedNestedPool",
      "outputs": [
        {
          "internalType": "uint256",
          "name": "",
          "type": "uint256"
        }
      ],
      "stateMutability": "nonpayable",
      "type": "function"
    },
    {
      "inputs": [
        {
          "internalType": "address",
          "name": "pool",
          "type": "address"
        },
        {
          "internalType": "uint256[]",
          "name": "exactUnderlyingAmountsIn",
          "type": "uint256[]"
        },
        {
          "internalType": "address",
          "name": "sender",
          "type": "address"
        },
        {
          "internalType": "bytes",
          "name": "userData",
          "type": "bytes"
        }
      ],
      "name": "queryAddLiquidityUnbalancedToERC4626Pool",
      "outputs": [
        {
          "internalType": "uint256",
          "name": "bptAmountOut",
          "type": "uint256"
        }
      ],
      "stateMutability": "nonpayable",
      "type": "function"
    },
    {
      "inputs": [
        {
          "internalType": "address",
          "name": "pool",
          "type": "address"
        },
        {
          "internalType": "uint256",
          "name": "exactBptAmountIn",
          "type": "uint256"
        },
        {
          "internalType": "address",
          "name": "sender",
          "type": "address"
        },
        {
          "internalType": "bytes",
          "name": "userData",
          "type": "bytes"
        }
      ],
      "name": "queryRemoveLiquidityProportionalFromERC4626Pool",
      "outputs": [
        {
          "internalType": "uint256[]",
          "name": "underlyingAmountsOut",
          "type": "uint256[]"
        }
      ],
      "stateMutability": "nonpayable",
      "type": "function"
    },
    {
      "inputs": [
        {
          "internalType": "address",
          "name": "parentPool",
          "type": "address"
        },
        {
          "internalType": "uint256",
          "name": "exactBptAmountIn",
          "type": "uint256"
        },
        {
          "internalType": "address[]",
          "name": "tokensOut",
          "type": "address[]"
        },
        {
          "internalType": "address",
          "name": "sender",
          "type": "address"
        },
        {
          "internalType": "bytes",
          "name": "userData",
          "type": "bytes"
        }
      ],
      "name": "queryRemoveLiquidityProportionalNestedPool",
      "outputs": [
        {
          "internalType": "uint256[]",
          "name": "amountsOut",
          "type": "uint256[]"
        }
      ],
      "stateMutability": "nonpayable",
      "type": "function"
    },
    {
      "inputs": [
        {
          "components": [
            {
              "internalType": "address",
              "name": "sender",
              "type": "address"
            },
            {
              "internalType": "address",
              "name": "pool",
              "type": "address"
            },
            {
              "internalType": "uint256[]",
              "name": "minAmountsOut",
              "type": "uint256[]"
            },
            {
              "internalType": "uint256",
              "name": "maxBptAmountIn",
              "type": "uint256"
            },
            {
              "internalType": "enum RemoveLiquidityKind",
              "name": "kind",
              "type": "uint8"
            },
            {
              "internalType": "bool",
              "name": "wethIsEth",
              "type": "bool"
            },
            {
              "internalType": "bytes",
              "name": "userData",
              "type": "bytes"
            }
          ],
          "internalType": "struct IRouterCommon.RemoveLiquidityHookParams",
          "name": "params",
          "type": "tuple"
        }
      ],
      "name": "removeLiquidityERC4626PoolProportionalHook",
      "outputs": [
        {
          "internalType": "uint256[]",
          "name": "underlyingAmountsOut",
          "type": "uint256[]"
        }
      ],
      "stateMutability": "nonpayable",
      "type": "function"
    },
    {
      "inputs": [
        {
          "internalType": "address",
          "name": "pool",
          "type": "address"
        },
        {
          "internalType": "uint256",
          "name": "exactBptAmountIn",
          "type": "uint256"
        },
        {
          "internalType": "uint256[]",
          "name": "minUnderlyingAmountsOut",
          "type": "uint256[]"
        },
        {
          "internalType": "bool",
          "name": "wethIsEth",
          "type": "bool"
        },
        {
          "internalType": "bytes",
          "name": "userData",
          "type": "bytes"
        }
      ],
      "name": "removeLiquidityProportionalFromERC4626Pool",
      "outputs": [
        {
          "internalType": "uint256[]",
          "name": "underlyingAmountsOut",
          "type": "uint256[]"
        }
      ],
      "stateMutability": "payable",
      "type": "function"
    },
    {
      "inputs": [
        {
          "internalType": "address",
          "name": "parentPool",
          "type": "address"
        },
        {
          "internalType": "uint256",
          "name": "exactBptAmountIn",
          "type": "uint256"
        },
        {
          "internalType": "address[]",
          "name": "tokensOut",
          "type": "address[]"
        },
        {
          "internalType": "uint256[]",
          "name": "minAmountsOut",
          "type": "uint256[]"
        },
        {
          "internalType": "bool",
          "name": "wethIsEth",
          "type": "bool"
        },
        {
          "internalType": "bytes",
          "name": "userData",
          "type": "bytes"
        }
      ],
      "name": "removeLiquidityProportionalNestedPool",
      "outputs": [
        {
          "internalType": "uint256[]",
          "name": "amountsOut",
          "type": "uint256[]"
        }
      ],
      "stateMutability": "payable",
      "type": "function"
    },
    {
      "inputs": [
        {
          "components": [
            {
              "internalType": "address",
              "name": "sender",
              "type": "address"
            },
            {
              "internalType": "address",
              "name": "pool",
              "type": "address"
            },
            {
              "internalType": "uint256[]",
              "name": "minAmountsOut",
              "type": "uint256[]"
            },
            {
              "internalType": "uint256",
              "name": "maxBptAmountIn",
              "type": "uint256"
            },
            {
              "internalType": "enum RemoveLiquidityKind",
              "name": "kind",
              "type": "uint8"
            },
            {
              "internalType": "bool",
              "name": "wethIsEth",
              "type": "bool"
            },
            {
              "internalType": "bytes",
              "name": "userData",
              "type": "bytes"
            }
          ],
          "internalType": "struct IRouterCommon.RemoveLiquidityHookParams",
          "name": "params",
          "type": "tuple"
        },
        {
          "internalType": "address[]",
          "name": "tokensOut",
          "type": "address[]"
        }
      ],
      "name": "removeLiquidityProportionalNestedPoolHook",
      "outputs": [
        {
          "internalType": "uint256[]",
          "name": "amountsOut",
          "type": "uint256[]"
        }
      ],
      "stateMutability": "nonpayable",
      "type": "function"
    },
    {
      "inputs": [],
      "name": "version",
      "outputs": [
        {
          "internalType": "string",
          "name": "",
          "type": "string"
        }
      ],
      "stateMutability": "view",
      "type": "function"
    },
    {
      "stateMutability": "payable",
      "type": "receive"
    }
  ],
  "bytecode": "0x6101c0604090808252346105f357615df9803803809161001f8285610612565b83398101916080828403126105f35781516001600160a01b03939084811681036105f357602093848101519286841684036105f3578482015196871687036105f35760608201516001600160401b03928382116105f3570192601f908282860112156105f35784518481116105df57601f19958851946100a58b89878601160187610612565b8286528a83830101116105f357815f928b8093018388015e8501015260805281519283116105df575f54916001928381811c911680156105d5575b898210146105c15782811161057e575b508791841160011461052157839450908392915f94610516575b50501b915f199060031b1c1916175f555b610149610126610635565b835190610132826105f7565b600682526539b2b73232b960d11b86830152610693565b60a052610185610157610635565b835190610163826105f7565b60118252701a5cd4995d1d5c9b915d1a131bd8dad959607a1b86830152610693565b60c05260e0526101009283526101cd815161019f816105f7565b601381527f63757272656e7453776170546f6b656e73496e000000000000000000000000008482015261065d565b9161012092835261021082516101e2816105f7565b601481527f63757272656e7453776170546f6b656e734f75740000000000000000000000008382015261065d565b6101409081526102528351610224816105f7565b601981527f63757272656e7453776170546f6b656e496e416d6f756e7473000000000000008482015261065d565b906101609182526102d8610298855161026a816105f7565b601a81527f63757272656e7453776170546f6b656e4f7574416d6f756e74730000000000008682015261065d565b936101809485527f736574746c6564546f6b656e416d6f756e7473000000000000000000000000008651916102cc836105f7565b6013835282015261065d565b936101a094855251946156b396876107468839608051878181610294015281816103ab015281816104c401528181610555015281816105a00152818161061d0152818161068701528181610769015281816107f70152818161098b01528181610df601528181610ef901528181610fbf015281816110880152818161138b015281816114940152818161170b0152818161178f015281816119f701528181611b5501528181611c2801528181611cff01528181612147015281816121d301528181612244015281816122e10152818161232f015281816123e9015281816124bd0152818161267101528181612aca01528181612b9701528181612c9801528181612d7201528181614565015281816145f60152818161488901528181614c8601528181614dcb01528181614eca015281816151440152615301015260a0518781816102e5015281816113ea0152818161284d0152818161428701526144f1015260c0518781816142110152614c2c015260e051878181602201528181614d0e01528181614e65015281816150da01526154810152518681816133590152818161347301526152de0152518581816127450152614afc015251848181610854015281816109e001528181610a5101528181614ad80152614fac0152518381816120c60152818161236b0152818161252d0152818161276e0152818161466501528181614975015281816149b70152614b2801525182818161088701528181610aba01528181614b600152614fd30152518181816126a601526148000152f35b015192505f8061010a565b91938316915f805283885f20935f5b8a88838310610567575050501061054f575b505050811b015f5561011b565b01515f1960f88460031b161c191690555f8080610542565b868601518855909601959485019487935001610530565b5f8052885f208380870160051c8201928b88106105b8575b0160051c019084905b8281106105ad5750506100f0565b5f815501849061059f565b92508192610596565b634e487b7160e01b5f52602260045260245ffd5b90607f16906100e0565b634e487b7160e01b5f52604160045260245ffd5b5f80fd5b604081019081106001600160401b038211176105df57604052565b601f909101601f19168101906001600160401b038211908210176105df57604052565b60405190610642826105f7565b600c82526b2937baba32b921b7b6b6b7b760a11b6020830152565b6106909060405161066d816105f7565b60118152702130ba31b42937baba32b921b7b6b6b7b760791b6020820152610693565b90565b90610700603a60209260405193849181808401977f62616c616e6365722d6c6162732e76332e73746f726167652e000000000000008952805191829101603986015e830190601760f91b60398301528051928391018583015e015f8382015203601a810184520182610612565b5190205f19810190811161073157604051906020820190815260208252610726826105f7565b9051902060ff191690565b634e487b7160e01b5f52601160045260245ffdfe60806040526004361015610072575b3615610018575f80fd5b6001600160a01b037f000000000000000000000000000000000000000000000000000000000000000016330361004a57005b7f0540ddf6000000000000000000000000000000000000000000000000000000005f5260045ffd5b5f3560e01c806319c6989f14613190578063280bdfc61461309e57806338947f0b14612fb05780634b35fab414612a5a57806354fd4d501461291d578063560561d01461287e5780635e01eb5a146128395780636dcf1366146120555780636fb9398014611f575780637251d34e146119885780638aea48d514611897578063916cc9611461177157806398f3b18c1461162c578063a4953ebd1461146d578063ac9650d814611429578063e48fd3bb1461124d578063e9c9083814610d87578063f4f1cdee1461033b5763f702bddb0361000e573461030a5760a060031936011261030a576101606138fa565b67ffffffffffffffff60243581811161030a576101819036906004016139dd565b9060443581811161030a5761019a903690600401613b36565b916101a3613910565b9160843590811161030a575f9283926102546101cf6101c9610290953690600401613a97565b936144ec565b966001600160a01b0393604051916101e68361396a565b3083528560209b168b8401526040830152866060830152600160808301528660a083015260c08201526102466040519384927f6dcf1366000000000000000000000000000000000000000000000000000000008c850152602484016141ec565b03601f1981018352826139a2565b6040519485809481937fedfa35680000000000000000000000000000000000000000000000000000000083528a60048401526024830190613854565b03927f0000000000000000000000000000000000000000000000000000000000000000165af1908115610330575f9161030e575b50828180518101031261030a57820151906102e2575b604051908152f35b5f7f00000000000000000000000000000000000000000000000000000000000000005d6102da565b5f80fd5b61032a91503d805f833e61032281836139a2565b810190613e25565b5f6102c4565b6040513d5f823e3d90fd5b3461030a5761034936613bfc565b61035161452e565b61035961455b565b6020820161036681613ed2565b906001600160a01b03604051927fca4f28030000000000000000000000000000000000000000000000000000000084521660048301525f826024816001600160a01b037f0000000000000000000000000000000000000000000000000000000000000000165afa918215610330575f92610d67575b506103fe906103f96103f060408701876140d4565b865191506145b9565b613ed2565b9061040884613ed2565b6104128251613c96565b9260046080870135101561030a5761047f5f926001600160a01b036104b79661043e60c08b018b613fb1565b929093816040519761044f8961393a565b16875216602086015260608a01356040860152606085015261047860808a013560808601613cc7565b3691613a61565b60a0820152604051809481927f21457897000000000000000000000000000000000000000000000000000000008352600483016143a4565b0381836001600160a01b037f0000000000000000000000000000000000000000000000000000000000000000165af1918215610330575f92610d49575b505f939293925b8151841015610a4d576001600160a01b036105168584613f70565b5116946040517fc673bdaf0000000000000000000000000000000000000000000000000000000081528660048201526020816024816001600160a01b037f0000000000000000000000000000000000000000000000000000000000000000165afa908115610330575f91610a2e575b501561094a576105958585613f70565b516001600160a01b037f0000000000000000000000000000000000000000000000000000000000000000163b1561030a576040517fae6393290000000000000000000000000000000000000000000000000000000081526001600160a01b038816600482015230602482015260448101919091525f8180606481010381836001600160a01b037f0000000000000000000000000000000000000000000000000000000000000000165af180156103305761093b575b50604051937fca4f28030000000000000000000000000000000000000000000000000000000085528660048601525f856024816001600160a01b037f0000000000000000000000000000000000000000000000000000000000000000165afa948515610330575f95610917575b506106c28682613f70565b516106cd8651613c96565b9760046080860135101561030a576107245f9261075c9a6106f160c0890189613fb1565b919092604051956107018761393a565b865230602087015260408601526060850152610478608089013560808601613cc7565b60a0820152604051809981927f21457897000000000000000000000000000000000000000000000000000000008352600483016143a4565b0381836001600160a01b037f0000000000000000000000000000000000000000000000000000000000000000165af1968715610330575f976108f1575b505f5b85518110156108df576001600160a01b036107b78288613f70565b511690604051917f6844846b0000000000000000000000000000000000000000000000000000000083528060048401526020836024816001600160a01b037f0000000000000000000000000000000000000000000000000000000000000000165afa8015610330576001935f916108b0575b501561084a576108449061083d838c613f70565b5190614eaf565b0161079c565b806108786108ab927f0000000000000000000000000000000000000000000000000000000000000000614a0e565b50610883838c613f70565b51907f0000000000000000000000000000000000000000000000000000000000000000614e96565b610844565b6108d2915060203d6020116108d8575b6108ca81836139a2565b81019061418d565b8b610829565b503d6108c0565b5093509360019195505b0192936104fb565b61090e9197503d805f833e61090681836139a2565b81019061435c565b97915096610799565b6109349195503d805f833e61092c81836139a2565b810190613ee6565b93876106b7565b61094490613956565b8661064a565b93604095919551917f6844846b0000000000000000000000000000000000000000000000000000000083528060048401526020836024816001600160a01b037f0000000000000000000000000000000000000000000000000000000000000000165afa8015610330576001935f91610a0f575b50156109d6576109d19061083d8387613f70565b6108e9565b80610a046109d1927f0000000000000000000000000000000000000000000000000000000000000000614a0e565b506108838387613f70565b610a28915060203d6020116108d8576108ca81836139a2565b886109bd565b610a47915060203d6020116108d8576108ca81836139a2565b87610585565b84907f000000000000000000000000000000000000000000000000000000000000000090815c835103610d3f57610a8683929351613c96565b91805190601f19610aaf610a99846139c5565b93610aa760405195866139a2565b8085526139c5565b013660208401375f947f0000000000000000000000000000000000000000000000000000000000000000906001938460018301905b610b5b575b505050505050610b32925032610b36575b505f7f9b779b17422d0df92223018b32b4d1fa46e071723d6817e2486d003becc55f005d604051918291602083526020830190613ab5565b0390f35b80610b4f60a0610b48610b5594613ed2565b92016141a5565b90614ad5565b82610afa565b849796959751891015610d36576001600160a01b03610b7a8a87613f70565b51165f528060205260405f205c8015610d0e577fffffffffffffffffffffffffffffffffffffffffffffffffffffffffffffffff01610bda6001600160a01b03610bc48c89613f70565b5116856001915f520160205260405f205c151590565b158015610cfb575b610cb857610bf1899184613f70565b526001600160a01b03610c048a87613f70565b51165f528360205260405f205c610c1b8a89613f70565b52610c268988613f70565b51610c3e8a610c3860408a018a6140d4565b9061417d565b3511610c5257878099989697980198610ae4565b8686610c858b610c38610c79826001600160a01b03610c71828e613f70565b511696613f70565b519360408101906140d4565b35917f2f785e46000000000000000000000000000000000000000000000000000000005f5260045260245260445260645ffd5b85610cc28561504c565b610cf76040519283927f94ae280c00000000000000000000000000000000000000000000000000000000845260048401614493565b0390fd5b50610d068184613f70565b511515610be2565b7f66af5392000000000000000000000000000000000000000000000000000000005f5260045ffd5b85969750610ae9565b50610cc29061504c565b610d5e9192503d805f833e61090681836139a2565b929150916104f4565b6103fe919250610d80903d805f833e61092c81836139a2565b91906103db565b3461030a57610d9536613b60565b610d9d61452e565b610da561455b565b60208101610db281613ed2565b6001600160a01b03604051917fca4f28030000000000000000000000000000000000000000000000000000000083521660048201525f816024816001600160a01b037f0000000000000000000000000000000000000000000000000000000000000000165afa908115610330575f91611233575b50805190610e3c610e3683613c96565b93613ed2565b93610e4681613ed2565b94610e5084613c96565b90608083013591600483101561030a57610eec976001600160a01b036104785f95610eb494610e8260c08a018a613fb1565b9490958160405199610e938b61393a565b16895216602088015260608901356040880152606087015260808601613cc7565b60a0820152604051809781927f21457897000000000000000000000000000000000000000000000000000000008352600483016143a4565b0381836001600160a01b037f0000000000000000000000000000000000000000000000000000000000000000165af1948515610330575f95611215575b505f5b838110610f6e57610b32855f7f9b779b17422d0df92223018b32b4d1fa46e071723d6817e2486d003becc55f005d604051918291602083526020830190613ab5565b6001600160a01b03610f808285613f70565b5116906040517f0387587d0000000000000000000000000000000000000000000000000000000081528260048201526020816024816001600160a01b037f0000000000000000000000000000000000000000000000000000000000000000165afa908115610330575f916111e6575b506001600160a01b0381161561114157606061107b9361100f848b613f70565b5161102185610c3860408a018a6140d4565b35906040519261103084613986565b5f8452600160208501526040840152838301526080820152604051809581927f43583be500000000000000000000000000000000000000000000000000000000835260048301614444565b03815f6001600160a01b037f0000000000000000000000000000000000000000000000000000000000000000165af18015610330576001935f9161110f575b506110c58389613f70565b52326110d4575b505b01610f2c565b611109906110e185613ed2565b6110eb848a613f70565b51906001600160a01b0361110160a089016141a5565b931690614c66565b876110cc565b611131915060603d60601161113a575b61112981836139a2565b810190614429565b915050896110ba565b503d61111f565b50905061114e8187613f70565b5161116082610c3860408601866140d4565b35116111c8578061117360019288613f70565b5161117e8288613f70565b5232156110ce576111c361119184613ed2565b6001600160a01b036111a38488613f70565b51166111af848a613f70565b51906111bd60a088016141a5565b92614c66565b6110ce565b80610c38610c79826001600160a01b03610c71610c85968c99613f70565b611208915060203d60201161120e575b61120081836139a2565b810190614400565b88610fef565b503d6111f6565b61122a9195503d805f833e61090681836139a2565b95915094610f29565b61124791503d805f833e61092c81836139a2565b83610e26565b60c060031936011261030a576112616138fa565b67ffffffffffffffff9060443582811161030a576112839036906004016139dd565b9160643581811161030a5761129c903690600401613b36565b926112a5613b51565b9160a43590811161030a575f92839261134b6112c8611387943690600401613a97565b976112d2336144ec565b986001600160a01b0394604051926112e98461396a565b3384528660209b168b85015260408401526024356060840152876080840152151560a083015260c08201526102466040519384927ff4f1cdee000000000000000000000000000000000000000000000000000000008b85015260248401613dba565b6040519485809481937f48c894910000000000000000000000000000000000000000000000000000000083528960048401526024830190613854565b03927f0000000000000000000000000000000000000000000000000000000000000000165af18015610330576113cd915f9161140f575b50828082518301019101613eac565b916113e7575b610b32604051928284938452830190613ab5565b5f7f00000000000000000000000000000000000000000000000000000000000000005d6113d3565b61142391503d805f833e61032281836139a2565b846113be565b602060031936011261030a5760043567ffffffffffffffff811161030a5761146161145b610b32923690600401613823565b90614203565b60405191829182613879565b3461030a5761148761147e36613c44565b929193906144ec565b916001600160a01b0390817f00000000000000000000000000000000000000000000000000000000000000001691604051937fca4f280300000000000000000000000000000000000000000000000000000000855216928360048201525f81602481865afa908115610330575f91611612575b50519461150686613c96565b955f5b8181106115ed5750505f9261024661158e8886956115ca956040519261152e8461396a565b30845260209a8b850152604084015260608301528660808301528660a083015260c08201526040519283917f4b35fab4000000000000000000000000000000000000000000000000000000008a8401528960248401526044830190614128565b6040519485809481937fedfa35680000000000000000000000000000000000000000000000000000000083528960048401526024830190613854565b03925af18015610330576113cd915f9161140f5750828082518301019101613eac565b806fffffffffffffffffffffffffffffffff61160b6001938b613f70565b5201611509565b61162691503d805f833e61092c81836139a2565b866114fa565b6102466116cb5f8061170761164036613b92565b61165099939198929499336144ec565b986001600160a01b0395604051936116678561396a565b3385528760209d168d8601526040850152606084015260016080840152151560a083015260c08201526040519283917f7251d34e000000000000000000000000000000000000000000000000000000008b8401528a60248401526044830190614128565b6040519485809481937f48c894910000000000000000000000000000000000000000000000000000000083528a60048401526024830190613854565b03927f0000000000000000000000000000000000000000000000000000000000000000165af1908115610330575f916117575750828180518101031261030a57820151906102e257604051908152f35b61176b91503d805f833e61032281836139a2565b836102c4565b3461030a5761178261147e36613c44565b926001600160a01b0392837f00000000000000000000000000000000000000000000000000000000000000001693604051937fca4f280300000000000000000000000000000000000000000000000000000000855216938460048501525f84602481845afa9384156103305761158e5f95946115ca9461180f889761024695899161187d575b5051613c96565b916040519261181d8461396a565b30845260209a8b850152604084015260608301528660808301528660a083015260c08201526040519283917fe9c90838000000000000000000000000000000000000000000000000000000008a8401528960248401526044830190613d0d565b61189191503d808b833e61092c81836139a2565b8c611808565b3461030a57608060031936011261030a576118b06138fa565b67ffffffffffffffff60243581811161030a576118d1903690600401613b36565b90604435916001600160a01b0391828416840361030a5760643590811161030a575f926102466102548594611916611910611707963690600401613a97565b986144ec565b97604051916119248361396a565b3083528560209b168b8401526040830152866060830152600160808301528660a083015260c08201526040519283917f7251d34e000000000000000000000000000000000000000000000000000000008b8401528a60248401526044830190614128565b3461030a5761199636613b60565b61199e61452e565b6119a661455b565b6119b260208201613ed2565b906001600160a01b03604051927fca4f28030000000000000000000000000000000000000000000000000000000084521660048301525f826024816001600160a01b037f0000000000000000000000000000000000000000000000000000000000000000165afa801561033057611a5d925f91611f3d575b50611a658151611a48611a4060408601866140d4565b9050826145b9565b611a5560408501856140d4565b959091613c96565b943691613ae8565b92815191611a7283613c96565b91611a7c84613c96565b955f5b858110611bd7578787611a99611a9482613ed2565b614c23565b611aa560208201613ed2565b611aae82613ed2565b608083013590600582101561030a576001600160a01b03610478611b1093606087611b4899611ae160c05f9b0183613fb1565b969097816040519b611af28d61393a565b168b521660208a015260408901520135606087015260808601614002565b60a0820152604051809381927f4af29ec400000000000000000000000000000000000000000000000000000000835260048301614064565b0381836001600160a01b037f0000000000000000000000000000000000000000000000000000000000000000165af18015610330576020915f91611bb3575b505f7f9b779b17422d0df92223018b32b4d1fa46e071723d6817e2486d003becc55f005d604051908152f35b611bcf91503d805f833e611bc781836139a2565b81019061400e565b915090611b87565b6001600160a01b03611be98286613f70565b5116906040517f0387587d0000000000000000000000000000000000000000000000000000000081528260048201526020816024816001600160a01b037f0000000000000000000000000000000000000000000000000000000000000000165afa908115610330575f91611f1e575b506001600160a01b03811615611e305732611df7575b611c788285613f70565b5115611dd6576060611cf293611c8e8487613f70565b51611c998589613f70565b519060405192611ca884613986565b5f84525f60208501526040840152838301526080820152604051809581927f43583be500000000000000000000000000000000000000000000000000000000835260048301614444565b03815f6001600160a01b037f0000000000000000000000000000000000000000000000000000000000000000165af1928315610330576001935f915f91611db2575b50611d3f848d613f70565b52611d4a8389613f70565b525b32151532611dab575b611d62575b505b01611a7f565b611da59089866001600160a01b0361110160a0611d9e8d611d978a611d9081611d8a8b613ed2565b99613f70565b5192613f70565b51906141b2565b94016141a5565b89611d5a565b505f611d55565b9050611dcd915060603d60601161113a5761112981836139a2565b9150908c611d34565b600192505f611de58389613f70565b525f611df1838c613f70565b52611d4c565b611e2b611e038a613ed2565b611e0d8487613f70565b51611e1a60a08d016141a5565b916001600160a01b038516906150b8565b611c6e565b509050611e3d8183613f70565b51611e4f82610c3860408b018b6140d4565b3510611ecd5780611e6260019284613f70565b51611e6d8288613f70565b52611e788184613f70565b51611e83828b613f70565b523215611d5c57611ec8611e9689613ed2565b6001600160a01b03611ea88489613f70565b5116611eb48487613f70565b5190611ec260a08d016141a5565b926150b8565b611d5c565b611eeb81610c38610c79826001600160a01b03610c718d978b613f70565b35917f8eda85e4000000000000000000000000000000000000000000000000000000005f5260045260245260445260645ffd5b611f37915060203d60201161120e5761120081836139a2565b8a611c58565b611f5191503d805f833e61092c81836139a2565b83611a2a565b60c060031936011261030a57611f6b6138fa565b67ffffffffffffffff60243581811161030a57611f8c9036906004016139dd565b9060443581811161030a57611fa5903690600401613b36565b91611fae613b51565b9160a43590811161030a575f9283926116cb611fd1611707943690600401613a97565b96611fdb336144ec565b976001600160a01b039460405192611ff28461396a565b3384528660209c168c8501526040840152606435606084015260016080840152151560a083015260c08201526102466040519384927f6dcf1366000000000000000000000000000000000000000000000000000000008c850152602484016141ec565b3461030a5761206336613bfc565b9061206c61452e565b61207461455b565b61208d61208460408301836140d4565b845191506145b9565b5f5b82518110156120f357806001600160a01b036120ad60019386613f70565b51166120c082610c3860408701876140d4565b35905f527f000000000000000000000000000000000000000000000000000000000000000060205260405f205d0161208f565b50602081019161210283613ed2565b906001600160a01b03604051927fca4f28030000000000000000000000000000000000000000000000000000000084521660048301525f826024816001600160a01b037f0000000000000000000000000000000000000000000000000000000000000000165afa918215610330575f9261281d575b505f5b8251811015612598576001600160a01b036121958285613f70565b51166040517fc673bdaf0000000000000000000000000000000000000000000000000000000081528160048201526020816024816001600160a01b037f0000000000000000000000000000000000000000000000000000000000000000165afa908115610330575f91612579575b501561247f576040517fca4f28030000000000000000000000000000000000000000000000000000000081528160048201525f816024816001600160a01b037f0000000000000000000000000000000000000000000000000000000000000000165afa801561033057612293915f91612465575b5061228187613ed2565b61228d60a089016141a5565b91614867565b156122a5575b50506001905b0161217a565b60056080870135101561030a575f61232291611b106122c760c08a018a613fb1565b604051936122d48561393a565b8785526001600160a01b037f0000000000000000000000000000000000000000000000000000000000000000166020860152604085015284606085015261047860808c013560808601614002565b0381836001600160a01b037f0000000000000000000000000000000000000000000000000000000000000000165af18015610330576123dc926020925f92612447575b50805f527f000000000000000000000000000000000000000000000000000000000000000083528160405f205d60405193849283927f15afd40900000000000000000000000000000000000000000000000000000000845260048401602090939291936001600160a01b0360408201951681520152565b03815f6001600160a01b037f0000000000000000000000000000000000000000000000000000000000000000165af180156103305761241c575b80612299565b602090813d8311612440575b61243281836139a2565b8101031261030a5785612416565b503d612428565b61245c9192503d805f833e611bc781836139a2565b92915091612365565b61247991503d805f833e61092c81836139a2565b88612277565b90604051917f6844846b0000000000000000000000000000000000000000000000000000000083528060048401526020836024816001600160a01b037f0000000000000000000000000000000000000000000000000000000000000000165afa8015610330576001935f9161255a575b5080612527575b612501575b5061229f565b6125209061250e87613ed2565b61251a60a089016141a5565b916145e8565b50866124fb565b50805f527f000000000000000000000000000000000000000000000000000000000000000060205260405f205c156124f6565b612573915060203d6020116108d8576108ca81836139a2565b886124ef565b612592915060203d6020116108d8576108ca81836139a2565b87612203565b5083836125c06125b96125aa83613ed2565b9560a084019661228d886141a5565b5092613ed2565b913261280e5730925b608083013591600583101561030a57612664946001600160a01b036104785f9561262c946125fa60c08a018a613fb1565b949095816040519961260b8b61393a565b16895216602088015260408701526060880135606087015260808601614002565b60a0820152604051809481927f4af29ec400000000000000000000000000000000000000000000000000000000835260048301614064565b0381836001600160a01b037f0000000000000000000000000000000000000000000000000000000000000000165af1918215610330575f926127f0575b5090917f000000000000000000000000000000000000000000000000000000000000000091905f5b815181101561279c57806001600160a01b036126e760019385613f70565b51166127106126fd83610c3860408901896140d4565b35825f528760205260405f205c906141b2565b90805f52866020525f604081205d8161272c575b5050016126c9565b6127696001600160a01b036127418588613f70565b51167f0000000000000000000000000000000000000000000000000000000000000000614a0e565b505f527f000000000000000000000000000000000000000000000000000000000000000060205260405f205d8780612724565b6020858488326127d4575b50505f7f9b779b17422d0df92223018b32b4d1fa46e071723d6817e2486d003becc55f005d604051908152f35b610b4f6127e36127e993613ed2565b916141a5565b82806127a7565b6128059192503d805f833e611bc781836139a2565b929150916126a1565b61281782613ed2565b926125c9565b6128329192503d805f833e61092c81836139a2565b9084612177565b3461030a575f60031936011261030a5760207f00000000000000000000000000000000000000000000000000000000000000005c6001600160a01b0360405191168152f35b61024661134b5f8061138761289236613b92565b6128a39993919998929498336144ec565b996001600160a01b0395604051936128ba8561396a565b3385528760209c168c86015260408501526060840152876080840152151560a083015260c08201526040519283917f4b35fab4000000000000000000000000000000000000000000000000000000008a8401528960248401526044830190614128565b3461030a575f60031936011261030a576040515f80549060018260011c9160018416918215612a50575b6020948585108414612a235785879486865291825f146129e557505060011461298c575b50612978925003836139a2565b610b32604051928284938452830190613854565b5f808052859250907f290decd9548b62a8d60345a988386fc84ba6bc95484008f6362f93160ef3e5635b8583106129cd57505061297893508201018561296b565b805483890185015287945086939092019181016129b6565b7fffffffffffffffffffffffffffffffffffffffffffffffffffffffffffffff00168582015261297895151560051b850101925087915061296b9050565b7f4e487b71000000000000000000000000000000000000000000000000000000005f52602260045260245ffd5b92607f1692612947565b3461030a57612a6836613b60565b612a7061452e565b612a7861455b565b60208101612a8581613ed2565b906001600160a01b03604051927fca4f28030000000000000000000000000000000000000000000000000000000084521660048301525f826024816001600160a01b037f0000000000000000000000000000000000000000000000000000000000000000165afa918215610330575f92612f94575b50815190612b0782613c96565b915f5b818110612f6f575050612b1c90613ed2565b90612b2684613ed2565b91608085013591600583101561030a57612b8a936001600160a01b036104785f95611b1094612b5860c08c018c613fb1565b9490958160405199612b698b61393a565b168952166020880152604087015260608a0135606087015260808601614002565b0381836001600160a01b037f0000000000000000000000000000000000000000000000000000000000000000165af1908115610330575f91612f54575b50612bdf612bd860408501856140d4565b3691613ae8565b91805190612bec82613c96565b93612bf683613c96565b935f5b848110612c4757610b3287612c10611a948b613ed2565b5f7f9b779b17422d0df92223018b32b4d1fa46e071723d6817e2486d003becc55f005d604051918291602083526020830190613ab5565b6001600160a01b03612c598286613f70565b5116906040517f0387587d0000000000000000000000000000000000000000000000000000000081528260048201526020816024816001600160a01b037f0000000000000000000000000000000000000000000000000000000000000000165afa908115610330575f91612f35575b506001600160a01b03811615612e805732612e57575b88612ce98386613f70565b5115612e3557506060612d6593612d008487613f70565b51612d0b8589613f70565b519060405192612d1a84613986565b600184525f60208501526040840152838301526080820152604051809581927f43583be500000000000000000000000000000000000000000000000000000000835260048301614444565b03815f6001600160a01b037f0000000000000000000000000000000000000000000000000000000000000000165af1908115610330576001938a925f915f91612e11575b50612db4858c613f70565b52612dbf8484613f70565b525b8a8632151532612e0a575b612ddc575b505050505b01612bf9565b6001600160a01b0361110160a0611d9e612e0197611d978a611d9081611d8a8b613ed2565b878a8a86612dd1565b5085612dcc565b9050612e2c915060603d60601161113a5761112981836139a2565b9150908d612da9565b90600193505f612e458484613f70565b525f612e51848b613f70565b52612dc1565b612e7b612e638b613ed2565b8b611e1a60a0612e73878b613f70565b5192016141a5565b612cde565b509050612e8d8183613f70565b51612e9f82610c3860408c018c6140d4565b3510612f175780612eb260019284613f70565b51612ebd828a613f70565b52612ec88184613f70565b51612ed38289613f70565b523215612dd657612f12612ee68a613ed2565b8a6001600160a01b03612ef9858a613f70565b5116611ec260a0612f0a878a613f70565b5193016141a5565b612dd6565b611eeb81610c38610c79826001600160a01b03610c718e978b613f70565b612f4e915060203d60201161120e5761120081836139a2565b8a612cc8565b612f6891503d805f833e611bc781836139a2565b9050612bc7565b806fffffffffffffffffffffffffffffffff612f8d60019387613f70565b5201612b0a565b612fa99192503d805f833e61092c81836139a2565b9083612afa565b60a060031936011261030a57612fc46138fa565b67ffffffffffffffff9060443582811161030a57612fe6903690600401613b36565b9160643580151580910361030a5760843591821161030a576113875f929161024661134b61301986953690600401613a97565b97613023336144ec565b986001600160a01b03946040519261303a8461396a565b3384528660209b168b8501526040840152602435606084015287608084015260a083015260c08201526040519283917fe9c90838000000000000000000000000000000000000000000000000000000008a8401528960248401526044830190613d0d565b3461030a5760a060031936011261030a576130b76138fa565b67ffffffffffffffff9060443582811161030a576130d99036906004016139dd565b916130e2613910565b60843591821161030a576113875f929161310a61310485943690600401613a97565b916144ec565b9561158e6001600160a01b03926131218351613c96565b906040519161312f8361396a565b3083528560209a168a840152604083015260243560608301528660808301528660a083015260c08201526102466040519384927ff4f1cdee000000000000000000000000000000000000000000000000000000008b85015260248401613dba565b60a060031936011261030a5767ffffffffffffffff6004351161030a5736602360043501121561030a5767ffffffffffffffff600435600401351161030a5736602460c0600435600401350260043501011161030a5760243567ffffffffffffffff811161030a57613206903690600401613823565b67ffffffffffffffff6044351161030a5760606003196044353603011261030a5767ffffffffffffffff6064351161030a5736602360643501121561030a5767ffffffffffffffff606435600401351161030a573660246064356004013560643501011161030a5767ffffffffffffffff6084351161030a5761328e36608435600401613823565b92909161329961452e565b6132a981600435600401356145b9565b5f5b60043560040135811061354357505050604435600401357fffffffffffffffffffffffffffffffffffffffffffffffffffffffffffffffdd60443536030181121561030a57806044350160048101359067ffffffffffffffff821161030a5760248260071b360391011361030a5761334e575b610b3261146184845f7f9b779b17422d0df92223018b32b4d1fa46e071723d6817e2486d003becc55f005d614203565b916001600160a01b037f0000000000000000000000000000000000000000000000000000000000000000163b1561030a57604051927f2a2d80d10000000000000000000000000000000000000000000000000000000084523360048501526060602485015260c484019060443501602481019167ffffffffffffffff60048301351161030a57600482013560071b3603831361030a576060606487015260048201359052849160e48301915f905b600481013582106134c957505050906020815f936001600160a01b03613426602460443501613926565b1660848301526044803581013560a4840152600319838303019083015260643560048101358083529060240184830137600460643501358181018401869052601f01601f191601030181837f00000000000000000000000000000000000000000000000000000000000000006001600160a01b03165af191821561033057610b3293611461936134ba575b5091509161331e565b6134c390613956565b846134b1565b919350916001600160a01b036134de85613926565b168152602080850135916001600160a01b03831680930361030a5760049260019282015261350e604087016144d9565b65ffffffffffff8091166040830152613529606088016144d9565b1660608201526080809101950193019050869392916133fc565b613551610478828486614341565b60405180606081011067ffffffffffffffff6060830111176137f657606081016040525f81526020915f838301525f60408301528281015190606060408201519101515f1a91835283830152604082015260c07fffffffffffffffffffffffffffffffffffffffffffffffffffffffffffffffdc818502600435013603011261030a57604051906135e18261393a565b6135f4602460c086026004350101613926565b80835261360a604460c087026004350101613926565b908185850152613623606460c088026004350101613926565b60408581019190915260043560c08802016084810135606087015260a4810135608087015260c4013560a086015283015183519386015160ff91909116926001600160a01b0383163b1561030a575f6001600160a01b03809460e4948b98849860c460c06040519c8d9b8c9a7fd505accf000000000000000000000000000000000000000000000000000000008c521660048b01523060248b0152608482820260043501013560448b0152026004350101356064880152608487015260a486015260c4850152165af190816137e7575b506137dd576137006144aa565b906001600160a01b0381511690836001600160a01b0381830151166044604051809581937fdd62ed3e00000000000000000000000000000000000000000000000000000000835260048301523060248301525afa918215610330575f926137ad575b5060600151036137785750506001905b016132ab565b8051156137855780519101fd5b7fa7285689000000000000000000000000000000000000000000000000000000005f5260045ffd5b9091508381813d83116137d6575b6137c581836139a2565b8101031261030a5751906060613762565b503d6137bb565b5050600190613772565b6137f090613956565b886136f3565b7f4e487b71000000000000000000000000000000000000000000000000000000005f52604160045260245ffd5b9181601f8401121561030a5782359167ffffffffffffffff831161030a576020808501948460051b01011161030a57565b90601f19601f602080948051918291828752018686015e5f8582860101520116010190565b6020808201906020835283518092526040830192602060408460051b8301019501935f915b8483106138ae5750505050505090565b90919293949584806138ea837fffffffffffffffffffffffffffffffffffffffffffffffffffffffffffffffc086600196030187528a51613854565b980193019301919493929061389e565b600435906001600160a01b038216820361030a57565b606435906001600160a01b038216820361030a57565b35906001600160a01b038216820361030a57565b60c0810190811067ffffffffffffffff8211176137f657604052565b67ffffffffffffffff81116137f657604052565b60e0810190811067ffffffffffffffff8211176137f657604052565b60a0810190811067ffffffffffffffff8211176137f657604052565b90601f601f19910116810190811067ffffffffffffffff8211176137f657604052565b67ffffffffffffffff81116137f65760051b60200190565b9080601f8301121561030a5760209082356139f7816139c5565b93613a0560405195866139a2565b81855260208086019260051b82010192831161030a57602001905b828210613a2e575050505090565b838091613a3a84613926565b815201910190613a20565b67ffffffffffffffff81116137f657601f01601f191660200190565b929192613a6d82613a45565b91613a7b60405193846139a2565b82948184528183011161030a578281602093845f960137010152565b9080601f8301121561030a57816020613ab293359101613a61565b90565b9081518082526020808093019301915f5b828110613ad4575050505090565b835185529381019392810192600101613ac6565b9291613af3826139c5565b91613b0160405193846139a2565b829481845260208094019160051b810192831161030a57905b828210613b275750505050565b81358152908301908301613b1a565b9080601f8301121561030a57816020613ab293359101613ae8565b60843590811515820361030a57565b6003199060208282011261030a576004359167ffffffffffffffff831161030a578260e09203011261030a5760040190565b9060a060031983011261030a576004356001600160a01b038116810361030a579167ffffffffffffffff9060243582811161030a5781613bd491600401613b36565b9260443592606435801515810361030a579260843591821161030a57613ab291600401613a97565b9060031960408184011261030a5760043567ffffffffffffffff9182821161030a5760e090828603011261030a576004019260243591821161030a57613ab2916004016139dd565b608060031982011261030a576001600160a01b0390600435828116810361030a579260243592604435908116810361030a57916064359067ffffffffffffffff821161030a57613ab291600401613a97565b90613ca0826139c5565b613cad60405191826139a2565b828152601f19613cbd82946139c5565b0190602036910137565b6004821015613cd35752565b7f4e487b71000000000000000000000000000000000000000000000000000000005f52602160045260245ffd5b906004821015613cd35752565b613ab2916001600160a01b03808351168252602083015116602082015260c0613d45604084015160e0604085015260e0840190613ab5565b9260608101516060840152613d6260808201516080850190613d00565b60a0810151151560a084015201519060c0818403910152613854565b9081518082526020808093019301915f5b828110613d9d575050505090565b83516001600160a01b031685529381019392810192600101613d8f565b9091613dd1613ab293604084526040840190613d0d565b916020818403910152613d7e565b81601f8201121561030a57805190613df682613a45565b92613e0460405194856139a2565b8284526020838301011161030a57815f9260208093018386015e8301015290565b9060208282031261030a57815167ffffffffffffffff811161030a57613ab29201613ddf565b9080601f8301121561030a57815190602091613e66816139c5565b93613e7460405195866139a2565b81855260208086019260051b82010192831161030a57602001905b828210613e9d575050505090565b81518152908301908301613e8f565b9060208282031261030a57815167ffffffffffffffff811161030a57613ab29201613e4b565b356001600160a01b038116810361030a5790565b602090818184031261030a5780519067ffffffffffffffff821161030a57019180601f8401121561030a578251613f1c816139c5565b93613f2a60405195866139a2565b818552838086019260051b82010192831161030a578301905b828210613f51575050505090565b81516001600160a01b038116810361030a578152908301908301613f43565b8051821015613f845760209160051b010190565b7f4e487b71000000000000000000000000000000000000000000000000000000005f52603260045260245ffd5b9035907fffffffffffffffffffffffffffffffffffffffffffffffffffffffffffffffe18136030182121561030a570180359067ffffffffffffffff821161030a5760200191813603831361030a57565b6005821015613cd35752565b909160608284031261030a5781519167ffffffffffffffff9283811161030a578461403a918301613e4b565b93602082015193604083015190811161030a57613ab29201613ddf565b906005821015613cd35752565b90613ab291602081526001600160a01b03808351166020830152602083015116604082015260a06140a4604084015160c0606085015260e0840190613ab5565b92606081015160808401526140c0608082015183850190614057565b01519060c0601f1982850301910152613854565b9035907fffffffffffffffffffffffffffffffffffffffffffffffffffffffffffffffe18136030182121561030a570180359067ffffffffffffffff821161030a57602001918160051b3603831361030a57565b613ab2916001600160a01b03808351168252602083015116602082015260c0614160604084015160e0604085015260e0840190613ab5565b9260608101516060840152613d6260808201516080850190614057565b9190811015613f845760051b0190565b9081602091031261030a5751801515810361030a5790565b35801515810361030a5790565b919082039182116141bf57565b7f4e487b71000000000000000000000000000000000000000000000000000000005f52601160045260245ffd5b9091613dd1613ab293604084526040840190614128565b919061420e336144ec565b907f000000000000000000000000000000000000000000000000000000000000000093845c614319576001906001865d614247836139c5565b9261425560405194856139a2565b808452601f19614264826139c5565b015f5b8181106143085750505f5b8181106142bf5750505050905f6142b492945d7f0000000000000000000000000000000000000000000000000000000000000000805c916142b6575b50614c23565b565b5f905d5f6142ae565b806142ec5f806142d46104788996888a614341565b602081519101305af46142e56144aa565b90306155e8565b6142f68288613f70565b526143018187613f70565b5001614272565b806060602080938901015201614267565b7f3ee5aeb5000000000000000000000000000000000000000000000000000000005f5260045ffd5b90821015613f84576143589160051b810190613fb1565b9091565b9160608383031261030a5782519260208101519267ffffffffffffffff9384811161030a578161438d918401613e4b565b93604083015190811161030a57613ab29201613ddf565b90613ab291602081526001600160a01b0380835116602083015260208301511660408201526040820151606082015260a06143ee606084015160c0608085015260e0840190613ab5565b926140c0608082015183850190613d00565b9081602091031261030a57516001600160a01b038116810361030a5790565b60021115613cd357565b9081606091031261030a578051916040602083015192015190565b91909160808060a0830194805161445a8161441f565b8452602081015161446a8161441f565b60208501526001600160a01b036040820151166040850152606081015160608501520151910152565b9091613dd1613ab293604084526040840190613d7e565b3d156144d4573d906144bb82613a45565b916144c960405193846139a2565b82523d5f602084013e565b606090565b359065ffffffffffff8216820361030a57565b905f917f00000000000000000000000000000000000000000000000000000000000000006001600160a01b03815c1615614524575050565b909192505d600190565b7f9b779b17422d0df92223018b32b4d1fa46e071723d6817e2486d003becc55f00805c614319576001905d565b6001600160a01b037f000000000000000000000000000000000000000000000000000000000000000016330361458d57565b7f089676d5000000000000000000000000000000000000000000000000000000005f523360045260245ffd5b036145c057565b7faaad13f7000000000000000000000000000000000000000000000000000000005f5260045ffd5b9291906001600160a01b03807f00000000000000000000000000000000000000000000000000000000000000001690604092818451977f4afbaf5a00000000000000000000000000000000000000000000000000000000895216918260048901526020958689602481885afa98891561485d575f9961483e575b507f000000000000000000000000000000000000000000000000000000000000000092895f52838852865f205c928315614830576060928461470498979695938d93326147f0575b50505050508651906146bb82613986565b5f82525f898301528488830152828201525f60808201528651809681927f43583be500000000000000000000000000000000000000000000000000000000835260048301614444565b03815f875af19384156147e657918693916147819695935f946147c2575b5083995f5284525f8581205d805f5282855f205d5f85518097819582947f15afd40900000000000000000000000000000000000000000000000000000000845260048401602090939291936001600160a01b0360408201951681520152565b03925af19081156147b95750614795575050565b813d83116147b2575b6147a881836139a2565b8101031261030a57565b503d61479e565b513d5f823e3d90fd5b6147dc91945060603d60601161113a5761112981836139a2565b915050925f614722565b85513d5f823e3d90fd5b6147fb9416906150b8565b895f527f0000000000000000000000000000000000000000000000000000000000000000885280875f205d895f8281806146aa565b505f99505050505050505050565b614856919950873d891161120e5761120081836139a2565b975f614662565b86513d5f823e3d90fd5b91926148738351613c96565b93600180916001945f966001600160a01b0390817f000000000000000000000000000000000000000000000000000000000000000016945b6148bb575b505050505050909150565b8051891015614a0957816148cf8a83613f70565b5116604080517f6844846b00000000000000000000000000000000000000000000000000000000815282600482015260209081816024818c5afa9081156149ff57928d8f95929389948b965f916149e2575b50806149b1575b156149685750505061493a93506145e8565b6149448a8c613f70565b525b614950898b613f70565b51614960575b97850197856148ab565b5f9750614956565b9291945092505f946149a57f0000000000000000000000000000000000000000000000000000000000000000948388528585528688205c92613f70565b5284525281205d614946565b50835f527f00000000000000000000000000000000000000000000000000000000000000008152825f205c15614928565b6149f99150823d84116108d8576108ca81836139a2565b5f614921565b83513d5f823e3d90fd5b6148b0565b5f82815260018201602052604090205c614a5357805c90805f52828260205f20015d600182018092116141bf57600191815d805c925f520160205260405f205d600190565b50505f90565b907fffffffffffffffffffffffffffffffffffffffffffffffffffffffffffffffff82019182136001166141bf57565b7f800000000000000000000000000000000000000000000000000000000000000081146141bf577fffffffffffffffffffffffffffffffffffffffffffffffffffffffffffffffff0190565b907f000000000000000000000000000000000000000000000000000000000000000090815c7f0000000000000000000000000000000000000000000000000000000000000000614b25815c614a59565b907f0000000000000000000000000000000000000000000000000000000000000000915b5f811215614be657505050614b5d90614a59565b917f0000000000000000000000000000000000000000000000000000000000000000925b5f811215614b9657505050506142b490614c23565b614be190825f52614bdb60205f83828220015c9182825288815288604091614bce8a8d8587205c906001600160a01b03891690614c66565b8484525281205d846154aa565b50614a89565b614b81565b614c1e90825f52614bdb60205f8a8785848420015c93848452818152614bce8c6040948587205c906001600160a01b038916906150b8565b614b49565b478015614c62577f00000000000000000000000000000000000000000000000000000000000000005c614c62576001600160a01b036142b4921661556c565b5050565b5f94938315614e8e5780614e59575b15614dbd576001600160a01b0391827f000000000000000000000000000000000000000000000000000000000000000016803b1561030a576040517fae6393290000000000000000000000000000000000000000000000000000000081526001600160a01b03929092166004830152306024830152604482018590525f908290606490829084905af1801561033057614daa575b5084827f000000000000000000000000000000000000000000000000000000000000000016803b15614da65781906024604051809481937f2e1a7d4d0000000000000000000000000000000000000000000000000000000083528960048401525af18015614d9b57614d83575b506142b49394501661556c565b614d8d8691613956565b614d975784614d76565b8480fd5b6040513d88823e3d90fd5b5080fd5b614db5919550613956565b5f935f614d09565b929350906001600160a01b037f000000000000000000000000000000000000000000000000000000000000000016803b1561030a576040517fae6393290000000000000000000000000000000000000000000000000000000081526001600160a01b03938416600482015293909216602484015260448301525f908290606490829084905af1801561033057614e505750565b6142b490613956565b506001600160a01b03807f00000000000000000000000000000000000000000000000000000000000000001690831614614c75565b505050509050565b905f5260205260405f20805c9182018092116141bf575d565b919091821561504757614f47906001600160a01b03936060857f00000000000000000000000000000000000000000000000000000000000000001692604096875191614efa83613986565b5f83526001602084015216928388830152828201525f60808201528651809581927f43583be500000000000000000000000000000000000000000000000000000000835260048301614444565b03815f865af19283156147e6575f93615020575b5060209060248651809481937f4afbaf5a00000000000000000000000000000000000000000000000000000000835260048301525afa908115615016576142b49394505f91614ff7575b50614fd0817f0000000000000000000000000000000000000000000000000000000000000000614a0e565b507f0000000000000000000000000000000000000000000000000000000000000000614e96565b615010915060203d60201161120e5761120081836139a2565b5f614fa5565b84513d5f823e3d90fd5b602091935061503d9060603d60601161113a5761112981836139a2565b9150509290614f5b565b509050565b90815c615058816139c5565b61506560405191826139a2565b818152615071826139c5565b601f196020910136602084013781945f5b848110615090575050505050565b600190825f5280845f20015c6001600160a01b036150ae8388613f70565b9116905201615082565b919280615475575b156152c257505080471061529a576001600160a01b0390817f00000000000000000000000000000000000000000000000000000000000000001691823b1561030a576040908151907fd0e30db00000000000000000000000000000000000000000000000000000000082525f915f81600481888a5af1801561501657615287575b507f00000000000000000000000000000000000000000000000000000000000000001692825194602095868101907fa9059cbb000000000000000000000000000000000000000000000000000000008252866024820152836044820152604481526080810181811067ffffffffffffffff8211176137f6578652516151d7918591829182865af16151d06144aa565b90836155e8565b80519087821515928361526e575b50505061524357906044869284865197889485937f15afd409000000000000000000000000000000000000000000000000000000008552600485015260248401525af1918215615239575050614795575050565b51903d90823e3d90fd5b7f5274afe7000000000000000000000000000000000000000000000000000000008352600452602482fd5b61527e935082018101910161418d565b155f87816151e5565b615292919250613956565b5f905f615141565b7fa01a9df6000000000000000000000000000000000000000000000000000000005f5260045ffd5b90915f90806152d2575b50505050565b6001600160a01b0393847f000000000000000000000000000000000000000000000000000000000000000016857f0000000000000000000000000000000000000000000000000000000000000000169186841161544457813b1561030a57608487915f80946040519a8b9586947f36c7851600000000000000000000000000000000000000000000000000000000865216600485015287602485015280891660448501528a1660648401525af1948515610330576153e095615430575b5082936020936040518097819582947f15afd40900000000000000000000000000000000000000000000000000000000845260048401602090939291936001600160a01b0360408201951681520152565b03925af190811561542457506153f9575b8080806152cc565b602090813d831161541d575b61540f81836139a2565b8101031261030a575f6153f1565b503d615405565b604051903d90823e3d90fd5b6020935061543d90613956565b5f9261538f565b837f6dfcc650000000000000000000000000000000000000000000000000000000005f5260a060045260245260445ffd5b506001600160a01b03807f000000000000000000000000000000000000000000000000000000000000000016908216146150c0565b6001810191805f5260209183835260405f205c8015155f14615563577fffffffffffffffffffffffffffffffffffffffffffffffffffffffffffffffff90818101835c8380820191828403615526575b5050505050815c818101928184116141bf575f93815d835284832001015d5f52525f604081205d600190565b615533615543938861564c565b865f52885f2001015c918561564c565b835f52808383885f2001015d5f5285855260405f205d5f808083816154fa565b50505050505f90565b8147106155bc575f8080936001600160a01b038294165af161558c6144aa565b501561559457565b7f1425ea42000000000000000000000000000000000000000000000000000000005f5260045ffd5b7fcd786059000000000000000000000000000000000000000000000000000000005f523060045260245ffd5b906155fd575080511561559457805190602001fd5b81511580615643575b61560e575090565b6001600160a01b03907f9996b315000000000000000000000000000000000000000000000000000000005f521660045260245ffd5b50803b15615606565b5c111561565557565b7f0f4ae0e4000000000000000000000000000000000000000000000000000000005f5260045ffdfea26469706673582212202ede581f002acaac12f6750ffb9aff95e6f54e253eb6a623958fbd2cfdfdff8264736f6c634300081a0033",
  "linkReferences": {},
  "deployedLinkReferences": {}
}