{"contracts/ProtocolFeeControllerMigration.sol":{"ProtocolFeeControllerMigration":{"abi":[{"inputs":[{"internalType":"contract IVault","name":"_vault","type":"address"},{"internalType":"contract IProtocolFeeController","name":"_newFeeController","type":"address"}],"stateMutability":"nonpayable","type":"constructor"},{"inputs":[],"name":"AlreadyMigrated","type":"error"},{"inputs":[],"name":"InvalidFeeController","type":"error"},{"inputs":[],"name":"ReentrancyGuardReentrantCall","type":"error"},{"inputs":[],"name":"SenderNotAllowed","type":"error"},{"inputs":[],"name":"finalizeMigration","outputs":[],"stateMutability":"nonpayable","type":"function"},{"inputs":[{"internalType":"bytes4","name":"selector","type":"bytes4"}],"name":"getActionId","outputs":[{"internalType":"bytes32","name":"","type":"bytes32"}],"stateMutability":"view","type":"function"},{"inputs":[],"name":"getAuthorizer","outputs":[{"internalType":"contract IAuthorizer","name":"","type":"address"}],"stateMutability":"view","type":"function"},{"inputs":[],"name":"getVault","outputs":[{"internalType":"contract IVault","name":"","type":"address"}],"stateMutability":"view","type":"function"},{"inputs":[],"name":"isMigrationComplete","outputs":[{"internalType":"bool","name":"","type":"bool"}],"stateMutability":"view","type":"function"},{"inputs":[{"internalType":"address[]","name":"pools","type":"address[]"}],"name":"migratePools","outputs":[],"stateMutability":"nonpayable","type":"function"},{"inputs":[],"name":"newFeeController","outputs":[{"internalType":"contract IProtocolFeeController","name":"","type":"address"}],"stateMutability":"view","type":"function"},{"inputs":[],"name":"oldFeeController","outputs":[{"internalType":"contract IProtocolFeeController","name":"","type":"address"}],"stateMutability":"view","type":"function"},{"inputs":[],"name":"vault","outputs":[{"internalType":"contract IVault","name":"","type":"address"}],"stateMutability":"view","type":"function"}],"evm":{"bytecode":{"linkReferences":{},"object":"6101206040818152346101bc5780826114eb80380380916100208285610268565b8339810103126101bc576100338261029f565b610040602080940161029f565b3060805260a0829052825163217cb6f560e21b81526001600160a01b03928381169290918681600481875afa90811561022657908592915f91610230575b5060c0521691845163fbfa77cf60e01b81528681600481875afa90811561022657829186915f916101ed575b5016148015906101e0575b6101d157600492869260e05260018060a01b03195f5416175f5584519283809263aaabadc560e01b82525afa9384156101c7575f9461018a575b5050610100921682525161123791826102b483396080518261118a015260a051828181610ad001528181610f610152610fea015260c05182818161054d015281816105c2015261108a015260e05182818160af0152610bf30152518181816103c10152818161042401528181610482015281816104c3015281816106d80152818161073b01528181610799015281816107db0152610c2e0152f35b9080929450813d83116101c0575b6101a28183610268565b810103126101bc575182811681036101bc57915f806100ef565b5f80fd5b503d610198565b83513d5f823e3d90fd5b63d6f1cb0560e01b5f5260045ffd5b508360c0511683146100b5565b925050508681813d831161021f575b6102068183610268565b810103126101bc5784610219839261029f565b5f6100aa565b503d6101fc565b86513d5f823e3d90fd5b809350888092503d8311610261575b6102498183610268565b810103126101bc5761025b859261029f565b5f61007e565b503d61023f565b601f909101601f19168101906001600160401b0382119082101761028b57604052565b634e487b7160e01b5f52604160045260245ffd5b51906001600160a01b03821682036101bc5756fe6080806040526004361015610012575f80fd5b5f905f358060e01c91826351da116d146110ae575081637ea3a9641461105e578163851c1bb31461100e5781638d928af814610fbe578163aaabadc514610f0e578163b78b608714610a4b57508063b8350e27146100fb578063d7128084146100d65763fbfa77cf14610083575f80fd5b346100d357806003193601126100d357602060405173ffffffffffffffffffffffffffffffffffffffff7f0000000000000000000000000000000000000000000000000000000000000000168152f35b80fd5b50346100d357806003193601126100d35760ff6020915460a01c166040519015158152f35b50346100d35760206003193601126100d35767ffffffffffffffff60043581811161083c573660238201121561083c578060040135918211610a1e578160051b906040519261014d602084018561111e565b8352602460208401928201019036821161087357602401915b8183106109f1575050507f9b779b17422d0df92223018b32b4d1fa46e071723d6817e2486d003becc55f005c6109c95760017f9b779b17422d0df92223018b32b4d1fa46e071723d6817e2486d003becc55f005d815460ff8160a01c166109a1578060ff849260a81c16156102ac575b50805b82518110156102855773ffffffffffffffffffffffffffffffffffffffff808354169060208360051b8601015116813b156102815783916024839260405194859384927f0874327f00000000000000000000000000000000000000000000000000000000845260048401525af190811561027657839161025e575b50506001016101d9565b610267906110dd565b61027257815f610254565b5080fd5b6040513d85823e3d90fd5b8380fd5b50807f9b779b17422d0df92223018b32b4d1fa46e071723d6817e2486d003becc55f005d80f35b8075010000000000000000000000000000000000000000007fffffffffffffffffffff00ffffffffffffffffffffffffffffffffffffffffff73ffffffffffffffffffffffffffffffffffffffff9316178355166040517f851c1bb3000000000000000000000000000000000000000000000000000000008082527f8a3c5c69000000000000000000000000000000000000000000000000000000006004830152602082602481865afa918215610854578492610969575b5060209060246040518095819382527fa93df2a40000000000000000000000000000000000000000000000000000000060048301525afa918215610276578392610932575b5073ffffffffffffffffffffffffffffffffffffffff7f0000000000000000000000000000000000000000000000000000000000000000163b1561083c576040517f2f2ff15d0000000000000000000000000000000000000000000000000000000080825260048201839052306024830152908481604481837f000000000000000000000000000000000000000000000000000000000000000073ffffffffffffffffffffffffffffffffffffffff165af190811561088b57859161091e575b505073ffffffffffffffffffffffffffffffffffffffff7f0000000000000000000000000000000000000000000000000000000000000000163b1561028157604051908152600481018390523060248201528381604481837f000000000000000000000000000000000000000000000000000000000000000073ffffffffffffffffffffffffffffffffffffffff165af190811561085457849161090a575b50506040517f7869ee1800000000000000000000000000000000000000000000000000000000815260208160048173ffffffffffffffffffffffffffffffffffffffff7f0000000000000000000000000000000000000000000000000000000000000000165afa9081156108545784916108d5575b50604051907f55fb76af00000000000000000000000000000000000000000000000000000000825260208260048173ffffffffffffffffffffffffffffffffffffffff7f0000000000000000000000000000000000000000000000000000000000000000165afa91821561088b57859261089a575b5073ffffffffffffffffffffffffffffffffffffffff85541690813b156108965785916024839260405194859384927f8a3c5c6900000000000000000000000000000000000000000000000000000000845260048401525af190811561088b578591610877575b505473ffffffffffffffffffffffffffffffffffffffff1690813b156108735784916024839260405194859384927fa93df2a400000000000000000000000000000000000000000000000000000000845260048401525af190811561085457849161085f575b505073ffffffffffffffffffffffffffffffffffffffff7f0000000000000000000000000000000000000000000000000000000000000000163b1561083c576040517f36568abe0000000000000000000000000000000000000000000000000000000080825260048201929092523060248201528381604481837f000000000000000000000000000000000000000000000000000000000000000073ffffffffffffffffffffffffffffffffffffffff165af1908115610854578491610840575b505073ffffffffffffffffffffffffffffffffffffffff7f0000000000000000000000000000000000000000000000000000000000000000163b1561083c5760405190815260048101919091523060248201528181604481837f000000000000000000000000000000000000000000000000000000000000000073ffffffffffffffffffffffffffffffffffffffff165af1801561083157156101d657610826906110dd565b61027257815f6101d6565b6040513d84823e3d90fd5b8280fd5b610849906110dd565b61083c57825f610780565b6040513d86823e3d90fd5b610868906110dd565b61083c57825f6106bf565b8480fd5b610880906110dd565b61028157835f610659565b6040513d87823e3d90fd5b8580fd5b945090506020843d6020116108cd575b816108b76020938361111e565b810103126108c957859351905f6105f2565b5f80fd5b3d91506108aa565b9350506020833d602011610902575b816108f16020938361111e565b810103126108c9578492515f61057d565b3d91506108e4565b610913906110dd565b61083c57825f610508565b610927906110dd565b61028157835f610469565b925090506020823d602011610961575b8161094f6020938361111e565b810103126108c957839151905f6103a9565b3d9150610942565b935090506020833d602011610999575b816109866020938361111e565b810103126108c957915184926020610364565b3d9150610979565b6004837fca1c3cbc000000000000000000000000000000000000000000000000000000008152fd5b6004827f3ee5aeb5000000000000000000000000000000000000000000000000000000008152fd5b823573ffffffffffffffffffffffffffffffffffffffff8116810361089657815260209283019201610166565b6024837f4e487b710000000000000000000000000000000000000000000000000000000081526041600452fd5b9050346108c9575f6003193601126108c9577fffffffff00000000000000000000000000000000000000000000000000000000610a88911661115f565b9073ffffffffffffffffffffffffffffffffffffffff604051927faaabadc50000000000000000000000000000000000000000000000000000000084526020938481600481867f0000000000000000000000000000000000000000000000000000000000000000165afa8015610e1c57839286925f92610edc575b5060649060405194859384927f9be2a8840000000000000000000000000000000000000000000000000000000084526004840152336024840152306044840152165afa908115610e1c575f91610ea6575b5015610e7e575f5460ff8160a01c16610e56577fffffffffffffffffffffff00ffffffffffffffffffffffffffffffffffffffff1674010000000000000000000000000000000000000000175f556040517f851c1bb30000000000000000000000000000000000000000000000000000000081527f2d7713890000000000000000000000000000000000000000000000000000000060048201819052937f000000000000000000000000000000000000000000000000000000000000000083168183602481845afa928315610e1c575f93610e27575b50837f00000000000000000000000000000000000000000000000000000000000000001693843b156108c9576040517f2f2ff15d000000000000000000000000000000000000000000000000000000008152600481018590523060248201525f81604481838a5af18015610e1c57610e09575b50958596865416823b15610e055760248792836040519586948593845260048401525af190811561088b578591610df1575b5050823b15610da7576040517f36568abe000000000000000000000000000000000000000000000000000000008082526004820193909352306024820152848160448183885af190811561088b578591610ddd575b50506040517fa217fddf0000000000000000000000000000000000000000000000000000000081528181600481875afa91821561088b578592610dac575b5050823b15610da75760405191825260048201523060248201529082908290604490829084905af1801561083157610d975750f35b610da0906110dd565b6100d35780f35b505050fd5b8195508092503d8311610dd6575b610dc4818361111e565b810103126108c9578392515f80610d62565b503d610dba565b610de6906110dd565b610da757835f610d24565b610dfa906110dd565b610da757835f610ccf565b8680fd5b610e149196506110dd565b5f945f610c9d565b6040513d5f823e3d90fd5b9092508181813d8311610e4f575b610e3f818361111e565b810103126108c95751915f610c2a565b503d610e35565b7fca1c3cbc000000000000000000000000000000000000000000000000000000005f5260045ffd5b7f23dada53000000000000000000000000000000000000000000000000000000005f5260045ffd5b90508381813d8311610ed5575b610ebd818361111e565b810103126108c9575180151581036108c9575f610b54565b503d610eb3565b6064919250610f0090843d8611610f07575b610ef8818361111e565b8101906111d5565b9190610b03565b503d610eee565b346108c9575f6003193601126108c9576040517faaabadc500000000000000000000000000000000000000000000000000000000815273ffffffffffffffffffffffffffffffffffffffff6020826004817f000000000000000000000000000000000000000000000000000000000000000085165afa908115610e1c576020925f92610f9f575b5060405191168152f35b610fb7919250833d8511610f0757610ef8818361111e565b9083610f95565b346108c9575f6003193601126108c957602060405173ffffffffffffffffffffffffffffffffffffffff7f0000000000000000000000000000000000000000000000000000000000000000168152f35b346108c95760206003193601126108c9576004357fffffffff00000000000000000000000000000000000000000000000000000000811681036108c95761105660209161115f565b604051908152f35b346108c9575f6003193601126108c957602060405173ffffffffffffffffffffffffffffffffffffffff7f0000000000000000000000000000000000000000000000000000000000000000168152f35b346108c9575f6003193601126108c95760209073ffffffffffffffffffffffffffffffffffffffff5f54168152f35b67ffffffffffffffff81116110f157604052565b7f4e487b71000000000000000000000000000000000000000000000000000000005f52604160045260245ffd5b90601f7fffffffffffffffffffffffffffffffffffffffffffffffffffffffffffffffe0910116810190811067ffffffffffffffff8211176110f157604052565b6040517fffffffff0000000000000000000000000000000000000000000000000000000060208201927f00000000000000000000000000000000000000000000000000000000000000008452166040820152602481526060810181811067ffffffffffffffff8211176110f15760405251902090565b908160209103126108c9575173ffffffffffffffffffffffffffffffffffffffff811681036108c9579056fea2646970667358221220125bce215259ea60cf119045f492046669f9f38f7080a1ace3863c2eb3a863b464736f6c634300081b0033","opcodes":"PUSH2 0x120 PUSH1 0x40 DUP2 DUP2 MSTORE CALLVALUE PUSH2 0x1BC JUMPI DUP1 DUP3 PUSH2 0x14EB DUP1 CODESIZE SUB DUP1 SWAP2 PUSH2 0x20 DUP3 DUP6 PUSH2 0x268 JUMP JUMPDEST DUP4 CODECOPY DUP2 ADD SUB SLT PUSH2 0x1BC JUMPI PUSH2 0x33 DUP3 PUSH2 0x29F JUMP JUMPDEST PUSH2 0x40 PUSH1 0x20 DUP1 SWAP5 ADD PUSH2 0x29F JUMP JUMPDEST ADDRESS PUSH1 0x80 MSTORE PUSH1 0xA0 DUP3 SWAP1 MSTORE DUP3 MLOAD PUSH4 0x217CB6F5 PUSH1 0xE2 SHL DUP2 MSTORE PUSH1 0x1 PUSH1 0x1 PUSH1 0xA0 SHL SUB SWAP3 DUP4 DUP2 AND SWAP3 SWAP1 SWAP2 DUP7 DUP2 PUSH1 0x4 DUP2 DUP8 GAS STATICCALL SWAP1 DUP2 ISZERO PUSH2 0x226 JUMPI SWAP1 DUP6 SWAP3 SWAP2 PUSH0 SWAP2 PUSH2 0x230 JUMPI JUMPDEST POP PUSH1 0xC0 MSTORE AND SWAP2 DUP5 MLOAD PUSH4 0xFBFA77CF PUSH1 0xE0 SHL DUP2 MSTORE DUP7 DUP2 PUSH1 0x4 DUP2 DUP8 GAS STATICCALL SWAP1 DUP2 ISZERO PUSH2 0x226 JUMPI DUP3 SWAP2 DUP7 SWAP2 PUSH0 SWAP2 PUSH2 0x1ED JUMPI JUMPDEST POP AND EQ DUP1 ISZERO SWAP1 PUSH2 0x1E0 JUMPI JUMPDEST PUSH2 0x1D1 JUMPI PUSH1 0x4 SWAP3 DUP7 SWAP3 PUSH1 0xE0 MSTORE PUSH1 0x1 DUP1 PUSH1 0xA0 SHL SUB NOT PUSH0 SLOAD AND OR PUSH0 SSTORE DUP5 MLOAD SWAP3 DUP4 DUP1 SWAP3 PUSH4 0xAAABADC5 PUSH1 0xE0 SHL DUP3 MSTORE GAS STATICCALL SWAP4 DUP5 ISZERO PUSH2 0x1C7 JUMPI PUSH0 SWAP5 PUSH2 0x18A JUMPI JUMPDEST POP POP PUSH2 0x100 SWAP3 AND DUP3 MSTORE MLOAD PUSH2 0x1237 SWAP2 DUP3 PUSH2 0x2B4 DUP4 CODECOPY PUSH1 0x80 MLOAD DUP3 PUSH2 0x118A ADD MSTORE PUSH1 0xA0 MLOAD DUP3 DUP2 DUP2 PUSH2 0xAD0 ADD MSTORE DUP2 DUP2 PUSH2 0xF61 ADD MSTORE PUSH2 0xFEA ADD MSTORE PUSH1 0xC0 MLOAD DUP3 DUP2 DUP2 PUSH2 0x54D ADD MSTORE DUP2 DUP2 PUSH2 0x5C2 ADD MSTORE PUSH2 0x108A ADD MSTORE PUSH1 0xE0 MLOAD DUP3 DUP2 DUP2 PUSH1 0xAF ADD MSTORE PUSH2 0xBF3 ADD MSTORE MLOAD DUP2 DUP2 DUP2 PUSH2 0x3C1 ADD MSTORE DUP2 DUP2 PUSH2 0x424 ADD MSTORE DUP2 DUP2 PUSH2 0x482 ADD MSTORE DUP2 DUP2 PUSH2 0x4C3 ADD MSTORE DUP2 DUP2 PUSH2 0x6D8 ADD MSTORE DUP2 DUP2 PUSH2 0x73B ADD MSTORE DUP2 DUP2 PUSH2 0x799 ADD MSTORE DUP2 DUP2 PUSH2 0x7DB ADD MSTORE PUSH2 0xC2E ADD MSTORE RETURN JUMPDEST SWAP1 DUP1 SWAP3 SWAP5 POP DUP2 RETURNDATASIZE DUP4 GT PUSH2 0x1C0 JUMPI JUMPDEST PUSH2 0x1A2 DUP2 DUP4 PUSH2 0x268 JUMP JUMPDEST DUP2 ADD SUB SLT PUSH2 0x1BC JUMPI MLOAD DUP3 DUP2 AND DUP2 SUB PUSH2 0x1BC JUMPI SWAP2 PUSH0 DUP1 PUSH2 0xEF JUMP JUMPDEST PUSH0 DUP1 REVERT JUMPDEST POP RETURNDATASIZE PUSH2 0x198 JUMP JUMPDEST DUP4 MLOAD RETURNDATASIZE PUSH0 DUP3 RETURNDATACOPY RETURNDATASIZE SWAP1 REVERT JUMPDEST PUSH4 0xD6F1CB05 PUSH1 0xE0 SHL PUSH0 MSTORE PUSH1 0x4 PUSH0 REVERT JUMPDEST POP DUP4 PUSH1 0xC0 MLOAD AND DUP4 EQ PUSH2 0xB5 JUMP JUMPDEST SWAP3 POP POP POP DUP7 DUP2 DUP2 RETURNDATASIZE DUP4 GT PUSH2 0x21F JUMPI JUMPDEST PUSH2 0x206 DUP2 DUP4 PUSH2 0x268 JUMP JUMPDEST DUP2 ADD SUB SLT PUSH2 0x1BC JUMPI DUP5 PUSH2 0x219 DUP4 SWAP3 PUSH2 0x29F JUMP JUMPDEST PUSH0 PUSH2 0xAA JUMP JUMPDEST POP RETURNDATASIZE PUSH2 0x1FC JUMP JUMPDEST DUP7 MLOAD RETURNDATASIZE PUSH0 DUP3 RETURNDATACOPY RETURNDATASIZE SWAP1 REVERT JUMPDEST DUP1 SWAP4 POP DUP9 DUP1 SWAP3 POP RETURNDATASIZE DUP4 GT PUSH2 0x261 JUMPI JUMPDEST PUSH2 0x249 DUP2 DUP4 PUSH2 0x268 JUMP JUMPDEST DUP2 ADD SUB SLT PUSH2 0x1BC JUMPI PUSH2 0x25B DUP6 SWAP3 PUSH2 0x29F JUMP JUMPDEST PUSH0 PUSH2 0x7E JUMP JUMPDEST POP RETURNDATASIZE PUSH2 0x23F JUMP JUMPDEST PUSH1 0x1F SWAP1 SWAP2 ADD PUSH1 0x1F NOT AND DUP2 ADD SWAP1 PUSH1 0x1 PUSH1 0x1 PUSH1 0x40 SHL SUB DUP3 GT SWAP1 DUP3 LT OR PUSH2 0x28B JUMPI PUSH1 0x40 MSTORE JUMP JUMPDEST PUSH4 0x4E487B71 PUSH1 0xE0 SHL PUSH0 MSTORE PUSH1 0x41 PUSH1 0x4 MSTORE PUSH1 0x24 PUSH0 REVERT JUMPDEST MLOAD SWAP1 PUSH1 0x1 PUSH1 0x1 PUSH1 0xA0 SHL SUB DUP3 AND DUP3 SUB PUSH2 0x1BC JUMPI JUMP INVALID PUSH1 0x80 DUP1 PUSH1 0x40 MSTORE PUSH1 0x4 CALLDATASIZE LT ISZERO PUSH2 0x12 JUMPI PUSH0 DUP1 REVERT JUMPDEST PUSH0 SWAP1 PUSH0 CALLDATALOAD DUP1 PUSH1 0xE0 SHR SWAP2 DUP3 PUSH4 0x51DA116D EQ PUSH2 0x10AE JUMPI POP DUP2 PUSH4 0x7EA3A964 EQ PUSH2 0x105E JUMPI DUP2 PUSH4 0x851C1BB3 EQ PUSH2 0x100E JUMPI DUP2 PUSH4 0x8D928AF8 EQ PUSH2 0xFBE JUMPI DUP2 PUSH4 0xAAABADC5 EQ PUSH2 0xF0E JUMPI DUP2 PUSH4 0xB78B6087 EQ PUSH2 0xA4B JUMPI POP DUP1 PUSH4 0xB8350E27 EQ PUSH2 0xFB JUMPI DUP1 PUSH4 0xD7128084 EQ PUSH2 0xD6 JUMPI PUSH4 0xFBFA77CF EQ PUSH2 0x83 JUMPI PUSH0 DUP1 REVERT JUMPDEST CALLVALUE PUSH2 0xD3 JUMPI DUP1 PUSH1 0x3 NOT CALLDATASIZE ADD SLT PUSH2 0xD3 JUMPI PUSH1 0x20 PUSH1 0x40 MLOAD PUSH20 0xFFFFFFFFFFFFFFFFFFFFFFFFFFFFFFFFFFFFFFFF PUSH32 0x0 AND DUP2 MSTORE RETURN JUMPDEST DUP1 REVERT JUMPDEST POP CALLVALUE PUSH2 0xD3 JUMPI DUP1 PUSH1 0x3 NOT CALLDATASIZE ADD SLT PUSH2 0xD3 JUMPI PUSH1 0xFF PUSH1 0x20 SWAP2 SLOAD PUSH1 0xA0 SHR AND PUSH1 0x40 MLOAD SWAP1 ISZERO ISZERO DUP2 MSTORE RETURN JUMPDEST POP CALLVALUE PUSH2 0xD3 JUMPI PUSH1 0x20 PUSH1 0x3 NOT CALLDATASIZE ADD SLT PUSH2 0xD3 JUMPI PUSH8 0xFFFFFFFFFFFFFFFF PUSH1 0x4 CALLDATALOAD DUP2 DUP2 GT PUSH2 0x83C JUMPI CALLDATASIZE PUSH1 0x23 DUP3 ADD SLT ISZERO PUSH2 0x83C JUMPI DUP1 PUSH1 0x4 ADD CALLDATALOAD SWAP2 DUP3 GT PUSH2 0xA1E JUMPI DUP2 PUSH1 0x5 SHL SWAP1 PUSH1 0x40 MLOAD SWAP3 PUSH2 0x14D PUSH1 0x20 DUP5 ADD DUP6 PUSH2 0x111E JUMP JUMPDEST DUP4 MSTORE PUSH1 0x24 PUSH1 0x20 DUP5 ADD SWAP3 DUP3 ADD ADD SWAP1 CALLDATASIZE DUP3 GT PUSH2 0x873 JUMPI PUSH1 0x24 ADD SWAP2 JUMPDEST DUP2 DUP4 LT PUSH2 0x9F1 JUMPI POP POP POP PUSH32 0x9B779B17422D0DF92223018B32B4D1FA46E071723D6817E2486D003BECC55F00 TLOAD PUSH2 0x9C9 JUMPI PUSH1 0x1 PUSH32 0x9B779B17422D0DF92223018B32B4D1FA46E071723D6817E2486D003BECC55F00 TSTORE DUP2 SLOAD PUSH1 0xFF DUP2 PUSH1 0xA0 SHR AND PUSH2 0x9A1 JUMPI DUP1 PUSH1 0xFF DUP5 SWAP3 PUSH1 0xA8 SHR AND ISZERO PUSH2 0x2AC JUMPI JUMPDEST POP DUP1 JUMPDEST DUP3 MLOAD DUP2 LT ISZERO PUSH2 0x285 JUMPI PUSH20 0xFFFFFFFFFFFFFFFFFFFFFFFFFFFFFFFFFFFFFFFF DUP1 DUP4 SLOAD AND SWAP1 PUSH1 0x20 DUP4 PUSH1 0x5 SHL DUP7 ADD ADD MLOAD AND DUP2 EXTCODESIZE ISZERO PUSH2 0x281 JUMPI DUP4 SWAP2 PUSH1 0x24 DUP4 SWAP3 PUSH1 0x40 MLOAD SWAP5 DUP6 SWAP4 DUP5 SWAP3 PUSH32 0x874327F00000000000000000000000000000000000000000000000000000000 DUP5 MSTORE PUSH1 0x4 DUP5 ADD MSTORE GAS CALL SWAP1 DUP2 ISZERO PUSH2 0x276 JUMPI DUP4 SWAP2 PUSH2 0x25E JUMPI JUMPDEST POP POP PUSH1 0x1 ADD PUSH2 0x1D9 JUMP JUMPDEST PUSH2 0x267 SWAP1 PUSH2 0x10DD JUMP JUMPDEST PUSH2 0x272 JUMPI DUP2 PUSH0 PUSH2 0x254 JUMP JUMPDEST POP DUP1 REVERT JUMPDEST PUSH1 0x40 MLOAD RETURNDATASIZE DUP6 DUP3 RETURNDATACOPY RETURNDATASIZE SWAP1 REVERT JUMPDEST DUP4 DUP1 REVERT JUMPDEST POP DUP1 PUSH32 0x9B779B17422D0DF92223018B32B4D1FA46E071723D6817E2486D003BECC55F00 TSTORE DUP1 RETURN JUMPDEST DUP1 PUSH22 0x1000000000000000000000000000000000000000000 PUSH32 0xFFFFFFFFFFFFFFFFFFFF00FFFFFFFFFFFFFFFFFFFFFFFFFFFFFFFFFFFFFFFFFF PUSH20 0xFFFFFFFFFFFFFFFFFFFFFFFFFFFFFFFFFFFFFFFF SWAP4 AND OR DUP4 SSTORE AND PUSH1 0x40 MLOAD PUSH32 0x851C1BB300000000000000000000000000000000000000000000000000000000 DUP1 DUP3 MSTORE PUSH32 0x8A3C5C6900000000000000000000000000000000000000000000000000000000 PUSH1 0x4 DUP4 ADD MSTORE PUSH1 0x20 DUP3 PUSH1 0x24 DUP2 DUP7 GAS STATICCALL SWAP2 DUP3 ISZERO PUSH2 0x854 JUMPI DUP5 SWAP3 PUSH2 0x969 JUMPI JUMPDEST POP PUSH1 0x20 SWAP1 PUSH1 0x24 PUSH1 0x40 MLOAD DUP1 SWAP6 DUP2 SWAP4 DUP3 MSTORE PUSH32 0xA93DF2A400000000000000000000000000000000000000000000000000000000 PUSH1 0x4 DUP4 ADD MSTORE GAS STATICCALL SWAP2 DUP3 ISZERO PUSH2 0x276 JUMPI DUP4 SWAP3 PUSH2 0x932 JUMPI JUMPDEST POP PUSH20 0xFFFFFFFFFFFFFFFFFFFFFFFFFFFFFFFFFFFFFFFF PUSH32 0x0 AND EXTCODESIZE ISZERO PUSH2 0x83C JUMPI PUSH1 0x40 MLOAD PUSH32 0x2F2FF15D00000000000000000000000000000000000000000000000000000000 DUP1 DUP3 MSTORE PUSH1 0x4 DUP3 ADD DUP4 SWAP1 MSTORE ADDRESS PUSH1 0x24 DUP4 ADD MSTORE SWAP1 DUP5 DUP2 PUSH1 0x44 DUP2 DUP4 PUSH32 0x0 PUSH20 0xFFFFFFFFFFFFFFFFFFFFFFFFFFFFFFFFFFFFFFFF AND GAS CALL SWAP1 DUP2 ISZERO PUSH2 0x88B JUMPI DUP6 SWAP2 PUSH2 0x91E JUMPI JUMPDEST POP POP PUSH20 0xFFFFFFFFFFFFFFFFFFFFFFFFFFFFFFFFFFFFFFFF PUSH32 0x0 AND EXTCODESIZE ISZERO PUSH2 0x281 JUMPI PUSH1 0x40 MLOAD SWAP1 DUP2 MSTORE PUSH1 0x4 DUP2 ADD DUP4 SWAP1 MSTORE ADDRESS PUSH1 0x24 DUP3 ADD MSTORE DUP4 DUP2 PUSH1 0x44 DUP2 DUP4 PUSH32 0x0 PUSH20 0xFFFFFFFFFFFFFFFFFFFFFFFFFFFFFFFFFFFFFFFF AND GAS CALL SWAP1 DUP2 ISZERO PUSH2 0x854 JUMPI DUP5 SWAP2 PUSH2 0x90A JUMPI JUMPDEST POP POP PUSH1 0x40 MLOAD PUSH32 0x7869EE1800000000000000000000000000000000000000000000000000000000 DUP2 MSTORE PUSH1 0x20 DUP2 PUSH1 0x4 DUP2 PUSH20 0xFFFFFFFFFFFFFFFFFFFFFFFFFFFFFFFFFFFFFFFF PUSH32 0x0 AND GAS STATICCALL SWAP1 DUP2 ISZERO PUSH2 0x854 JUMPI DUP5 SWAP2 PUSH2 0x8D5 JUMPI JUMPDEST POP PUSH1 0x40 MLOAD SWAP1 PUSH32 0x55FB76AF00000000000000000000000000000000000000000000000000000000 DUP3 MSTORE PUSH1 0x20 DUP3 PUSH1 0x4 DUP2 PUSH20 0xFFFFFFFFFFFFFFFFFFFFFFFFFFFFFFFFFFFFFFFF PUSH32 0x0 AND GAS STATICCALL SWAP2 DUP3 ISZERO PUSH2 0x88B JUMPI DUP6 SWAP3 PUSH2 0x89A JUMPI JUMPDEST POP PUSH20 0xFFFFFFFFFFFFFFFFFFFFFFFFFFFFFFFFFFFFFFFF DUP6 SLOAD AND SWAP1 DUP2 EXTCODESIZE ISZERO PUSH2 0x896 JUMPI DUP6 SWAP2 PUSH1 0x24 DUP4 SWAP3 PUSH1 0x40 MLOAD SWAP5 DUP6 SWAP4 DUP5 SWAP3 PUSH32 0x8A3C5C6900000000000000000000000000000000000000000000000000000000 DUP5 MSTORE PUSH1 0x4 DUP5 ADD MSTORE GAS CALL SWAP1 DUP2 ISZERO PUSH2 0x88B JUMPI DUP6 SWAP2 PUSH2 0x877 JUMPI JUMPDEST POP SLOAD PUSH20 0xFFFFFFFFFFFFFFFFFFFFFFFFFFFFFFFFFFFFFFFF AND SWAP1 DUP2 EXTCODESIZE ISZERO PUSH2 0x873 JUMPI DUP5 SWAP2 PUSH1 0x24 DUP4 SWAP3 PUSH1 0x40 MLOAD SWAP5 DUP6 SWAP4 DUP5 SWAP3 PUSH32 0xA93DF2A400000000000000000000000000000000000000000000000000000000 DUP5 MSTORE PUSH1 0x4 DUP5 ADD MSTORE GAS CALL SWAP1 DUP2 ISZERO PUSH2 0x854 JUMPI DUP5 SWAP2 PUSH2 0x85F JUMPI JUMPDEST POP POP PUSH20 0xFFFFFFFFFFFFFFFFFFFFFFFFFFFFFFFFFFFFFFFF PUSH32 0x0 AND EXTCODESIZE ISZERO PUSH2 0x83C JUMPI PUSH1 0x40 MLOAD PUSH32 0x36568ABE00000000000000000000000000000000000000000000000000000000 DUP1 DUP3 MSTORE PUSH1 0x4 DUP3 ADD SWAP3 SWAP1 SWAP3 MSTORE ADDRESS PUSH1 0x24 DUP3 ADD MSTORE DUP4 DUP2 PUSH1 0x44 DUP2 DUP4 PUSH32 0x0 PUSH20 0xFFFFFFFFFFFFFFFFFFFFFFFFFFFFFFFFFFFFFFFF AND GAS CALL SWAP1 DUP2 ISZERO PUSH2 0x854 JUMPI DUP5 SWAP2 PUSH2 0x840 JUMPI JUMPDEST POP POP PUSH20 0xFFFFFFFFFFFFFFFFFFFFFFFFFFFFFFFFFFFFFFFF PUSH32 0x0 AND EXTCODESIZE ISZERO PUSH2 0x83C JUMPI PUSH1 0x40 MLOAD SWAP1 DUP2 MSTORE PUSH1 0x4 DUP2 ADD SWAP2 SWAP1 SWAP2 MSTORE ADDRESS PUSH1 0x24 DUP3 ADD MSTORE DUP2 DUP2 PUSH1 0x44 DUP2 DUP4 PUSH32 0x0 PUSH20 0xFFFFFFFFFFFFFFFFFFFFFFFFFFFFFFFFFFFFFFFF AND GAS CALL DUP1 ISZERO PUSH2 0x831 JUMPI ISZERO PUSH2 0x1D6 JUMPI PUSH2 0x826 SWAP1 PUSH2 0x10DD JUMP JUMPDEST PUSH2 0x272 JUMPI DUP2 PUSH0 PUSH2 0x1D6 JUMP JUMPDEST PUSH1 0x40 MLOAD RETURNDATASIZE DUP5 DUP3 RETURNDATACOPY RETURNDATASIZE SWAP1 REVERT JUMPDEST DUP3 DUP1 REVERT JUMPDEST PUSH2 0x849 SWAP1 PUSH2 0x10DD JUMP JUMPDEST PUSH2 0x83C JUMPI DUP3 PUSH0 PUSH2 0x780 JUMP JUMPDEST PUSH1 0x40 MLOAD RETURNDATASIZE DUP7 DUP3 RETURNDATACOPY RETURNDATASIZE SWAP1 REVERT JUMPDEST PUSH2 0x868 SWAP1 PUSH2 0x10DD JUMP JUMPDEST PUSH2 0x83C JUMPI DUP3 PUSH0 PUSH2 0x6BF JUMP JUMPDEST DUP5 DUP1 REVERT JUMPDEST PUSH2 0x880 SWAP1 PUSH2 0x10DD JUMP JUMPDEST PUSH2 0x281 JUMPI DUP4 PUSH0 PUSH2 0x659 JUMP JUMPDEST PUSH1 0x40 MLOAD RETURNDATASIZE DUP8 DUP3 RETURNDATACOPY RETURNDATASIZE SWAP1 REVERT JUMPDEST DUP6 DUP1 REVERT JUMPDEST SWAP5 POP SWAP1 POP PUSH1 0x20 DUP5 RETURNDATASIZE PUSH1 0x20 GT PUSH2 0x8CD JUMPI JUMPDEST DUP2 PUSH2 0x8B7 PUSH1 0x20 SWAP4 DUP4 PUSH2 0x111E JUMP JUMPDEST DUP2 ADD SUB SLT PUSH2 0x8C9 JUMPI DUP6 SWAP4 MLOAD SWAP1 PUSH0 PUSH2 0x5F2 JUMP JUMPDEST PUSH0 DUP1 REVERT JUMPDEST RETURNDATASIZE SWAP2 POP PUSH2 0x8AA JUMP JUMPDEST SWAP4 POP POP PUSH1 0x20 DUP4 RETURNDATASIZE PUSH1 0x20 GT PUSH2 0x902 JUMPI JUMPDEST DUP2 PUSH2 0x8F1 PUSH1 0x20 SWAP4 DUP4 PUSH2 0x111E JUMP JUMPDEST DUP2 ADD SUB SLT PUSH2 0x8C9 JUMPI DUP5 SWAP3 MLOAD PUSH0 PUSH2 0x57D JUMP JUMPDEST RETURNDATASIZE SWAP2 POP PUSH2 0x8E4 JUMP JUMPDEST PUSH2 0x913 SWAP1 PUSH2 0x10DD JUMP JUMPDEST PUSH2 0x83C JUMPI DUP3 PUSH0 PUSH2 0x508 JUMP JUMPDEST PUSH2 0x927 SWAP1 PUSH2 0x10DD JUMP JUMPDEST PUSH2 0x281 JUMPI DUP4 PUSH0 PUSH2 0x469 JUMP JUMPDEST SWAP3 POP SWAP1 POP PUSH1 0x20 DUP3 RETURNDATASIZE PUSH1 0x20 GT PUSH2 0x961 JUMPI JUMPDEST DUP2 PUSH2 0x94F PUSH1 0x20 SWAP4 DUP4 PUSH2 0x111E JUMP JUMPDEST DUP2 ADD SUB SLT PUSH2 0x8C9 JUMPI DUP4 SWAP2 MLOAD SWAP1 PUSH0 PUSH2 0x3A9 JUMP JUMPDEST RETURNDATASIZE SWAP2 POP PUSH2 0x942 JUMP JUMPDEST SWAP4 POP SWAP1 POP PUSH1 0x20 DUP4 RETURNDATASIZE PUSH1 0x20 GT PUSH2 0x999 JUMPI JUMPDEST DUP2 PUSH2 0x986 PUSH1 0x20 SWAP4 DUP4 PUSH2 0x111E JUMP JUMPDEST DUP2 ADD SUB SLT PUSH2 0x8C9 JUMPI SWAP2 MLOAD DUP5 SWAP3 PUSH1 0x20 PUSH2 0x364 JUMP JUMPDEST RETURNDATASIZE SWAP2 POP PUSH2 0x979 JUMP JUMPDEST PUSH1 0x4 DUP4 PUSH32 0xCA1C3CBC00000000000000000000000000000000000000000000000000000000 DUP2 MSTORE REVERT JUMPDEST PUSH1 0x4 DUP3 PUSH32 0x3EE5AEB500000000000000000000000000000000000000000000000000000000 DUP2 MSTORE REVERT JUMPDEST DUP3 CALLDATALOAD PUSH20 0xFFFFFFFFFFFFFFFFFFFFFFFFFFFFFFFFFFFFFFFF DUP2 AND DUP2 SUB PUSH2 0x896 JUMPI DUP2 MSTORE PUSH1 0x20 SWAP3 DUP4 ADD SWAP3 ADD PUSH2 0x166 JUMP JUMPDEST PUSH1 0x24 DUP4 PUSH32 0x4E487B7100000000000000000000000000000000000000000000000000000000 DUP2 MSTORE PUSH1 0x41 PUSH1 0x4 MSTORE REVERT JUMPDEST SWAP1 POP CALLVALUE PUSH2 0x8C9 JUMPI PUSH0 PUSH1 0x3 NOT CALLDATASIZE ADD SLT PUSH2 0x8C9 JUMPI PUSH32 0xFFFFFFFF00000000000000000000000000000000000000000000000000000000 PUSH2 0xA88 SWAP2 AND PUSH2 0x115F JUMP JUMPDEST SWAP1 PUSH20 0xFFFFFFFFFFFFFFFFFFFFFFFFFFFFFFFFFFFFFFFF PUSH1 0x40 MLOAD SWAP3 PUSH32 0xAAABADC500000000000000000000000000000000000000000000000000000000 DUP5 MSTORE PUSH1 0x20 SWAP4 DUP5 DUP2 PUSH1 0x4 DUP2 DUP7 PUSH32 0x0 AND GAS STATICCALL DUP1 ISZERO PUSH2 0xE1C JUMPI DUP4 SWAP3 DUP7 SWAP3 PUSH0 SWAP3 PUSH2 0xEDC JUMPI JUMPDEST POP PUSH1 0x64 SWAP1 PUSH1 0x40 MLOAD SWAP5 DUP6 SWAP4 DUP5 SWAP3 PUSH32 0x9BE2A88400000000000000000000000000000000000000000000000000000000 DUP5 MSTORE PUSH1 0x4 DUP5 ADD MSTORE CALLER PUSH1 0x24 DUP5 ADD MSTORE ADDRESS PUSH1 0x44 DUP5 ADD MSTORE AND GAS STATICCALL SWAP1 DUP2 ISZERO PUSH2 0xE1C JUMPI PUSH0 SWAP2 PUSH2 0xEA6 JUMPI JUMPDEST POP ISZERO PUSH2 0xE7E JUMPI PUSH0 SLOAD PUSH1 0xFF DUP2 PUSH1 0xA0 SHR AND PUSH2 0xE56 JUMPI PUSH32 0xFFFFFFFFFFFFFFFFFFFFFF00FFFFFFFFFFFFFFFFFFFFFFFFFFFFFFFFFFFFFFFF AND PUSH21 0x10000000000000000000000000000000000000000 OR PUSH0 SSTORE PUSH1 0x40 MLOAD PUSH32 0x851C1BB300000000000000000000000000000000000000000000000000000000 DUP2 MSTORE PUSH32 0x2D77138900000000000000000000000000000000000000000000000000000000 PUSH1 0x4 DUP3 ADD DUP2 SWAP1 MSTORE SWAP4 PUSH32 0x0 DUP4 AND DUP2 DUP4 PUSH1 0x24 DUP2 DUP5 GAS STATICCALL SWAP3 DUP4 ISZERO PUSH2 0xE1C JUMPI PUSH0 SWAP4 PUSH2 0xE27 JUMPI JUMPDEST POP DUP4 PUSH32 0x0 AND SWAP4 DUP5 EXTCODESIZE ISZERO PUSH2 0x8C9 JUMPI PUSH1 0x40 MLOAD PUSH32 0x2F2FF15D00000000000000000000000000000000000000000000000000000000 DUP2 MSTORE PUSH1 0x4 DUP2 ADD DUP6 SWAP1 MSTORE ADDRESS PUSH1 0x24 DUP3 ADD MSTORE PUSH0 DUP2 PUSH1 0x44 DUP2 DUP4 DUP11 GAS CALL DUP1 ISZERO PUSH2 0xE1C JUMPI PUSH2 0xE09 JUMPI JUMPDEST POP SWAP6 DUP6 SWAP7 DUP7 SLOAD AND DUP3 EXTCODESIZE ISZERO PUSH2 0xE05 JUMPI PUSH1 0x24 DUP8 SWAP3 DUP4 PUSH1 0x40 MLOAD SWAP6 DUP7 SWAP5 DUP6 SWAP4 DUP5 MSTORE PUSH1 0x4 DUP5 ADD MSTORE GAS CALL SWAP1 DUP2 ISZERO PUSH2 0x88B JUMPI DUP6 SWAP2 PUSH2 0xDF1 JUMPI JUMPDEST POP POP DUP3 EXTCODESIZE ISZERO PUSH2 0xDA7 JUMPI PUSH1 0x40 MLOAD PUSH32 0x36568ABE00000000000000000000000000000000000000000000000000000000 DUP1 DUP3 MSTORE PUSH1 0x4 DUP3 ADD SWAP4 SWAP1 SWAP4 MSTORE ADDRESS PUSH1 0x24 DUP3 ADD MSTORE DUP5 DUP2 PUSH1 0x44 DUP2 DUP4 DUP9 GAS CALL SWAP1 DUP2 ISZERO PUSH2 0x88B JUMPI DUP6 SWAP2 PUSH2 0xDDD JUMPI JUMPDEST POP POP PUSH1 0x40 MLOAD PUSH32 0xA217FDDF00000000000000000000000000000000000000000000000000000000 DUP2 MSTORE DUP2 DUP2 PUSH1 0x4 DUP2 DUP8 GAS STATICCALL SWAP2 DUP3 ISZERO PUSH2 0x88B JUMPI DUP6 SWAP3 PUSH2 0xDAC JUMPI JUMPDEST POP POP DUP3 EXTCODESIZE ISZERO PUSH2 0xDA7 JUMPI PUSH1 0x40 MLOAD SWAP2 DUP3 MSTORE PUSH1 0x4 DUP3 ADD MSTORE ADDRESS PUSH1 0x24 DUP3 ADD MSTORE SWAP1 DUP3 SWAP1 DUP3 SWAP1 PUSH1 0x44 SWAP1 DUP3 SWAP1 DUP5 SWAP1 GAS CALL DUP1 ISZERO PUSH2 0x831 JUMPI PUSH2 0xD97 JUMPI POP RETURN JUMPDEST PUSH2 0xDA0 SWAP1 PUSH2 0x10DD JUMP JUMPDEST PUSH2 0xD3 JUMPI DUP1 RETURN JUMPDEST POP POP POP REVERT JUMPDEST DUP2 SWAP6 POP DUP1 SWAP3 POP RETURNDATASIZE DUP4 GT PUSH2 0xDD6 JUMPI JUMPDEST PUSH2 0xDC4 DUP2 DUP4 PUSH2 0x111E JUMP JUMPDEST DUP2 ADD SUB SLT PUSH2 0x8C9 JUMPI DUP4 SWAP3 MLOAD PUSH0 DUP1 PUSH2 0xD62 JUMP JUMPDEST POP RETURNDATASIZE PUSH2 0xDBA JUMP JUMPDEST PUSH2 0xDE6 SWAP1 PUSH2 0x10DD JUMP JUMPDEST PUSH2 0xDA7 JUMPI DUP4 PUSH0 PUSH2 0xD24 JUMP JUMPDEST PUSH2 0xDFA SWAP1 PUSH2 0x10DD JUMP JUMPDEST PUSH2 0xDA7 JUMPI DUP4 PUSH0 PUSH2 0xCCF JUMP JUMPDEST DUP7 DUP1 REVERT JUMPDEST PUSH2 0xE14 SWAP2 SWAP7 POP PUSH2 0x10DD JUMP JUMPDEST PUSH0 SWAP5 PUSH0 PUSH2 0xC9D JUMP JUMPDEST PUSH1 0x40 MLOAD RETURNDATASIZE PUSH0 DUP3 RETURNDATACOPY RETURNDATASIZE SWAP1 REVERT JUMPDEST SWAP1 SWAP3 POP DUP2 DUP2 DUP2 RETURNDATASIZE DUP4 GT PUSH2 0xE4F JUMPI JUMPDEST PUSH2 0xE3F DUP2 DUP4 PUSH2 0x111E JUMP JUMPDEST DUP2 ADD SUB SLT PUSH2 0x8C9 JUMPI MLOAD SWAP2 PUSH0 PUSH2 0xC2A JUMP JUMPDEST POP RETURNDATASIZE PUSH2 0xE35 JUMP JUMPDEST PUSH32 0xCA1C3CBC00000000000000000000000000000000000000000000000000000000 PUSH0 MSTORE PUSH1 0x4 PUSH0 REVERT JUMPDEST PUSH32 0x23DADA5300000000000000000000000000000000000000000000000000000000 PUSH0 MSTORE PUSH1 0x4 PUSH0 REVERT JUMPDEST SWAP1 POP DUP4 DUP2 DUP2 RETURNDATASIZE DUP4 GT PUSH2 0xED5 JUMPI JUMPDEST PUSH2 0xEBD DUP2 DUP4 PUSH2 0x111E JUMP JUMPDEST DUP2 ADD SUB SLT PUSH2 0x8C9 JUMPI MLOAD DUP1 ISZERO ISZERO DUP2 SUB PUSH2 0x8C9 JUMPI PUSH0 PUSH2 0xB54 JUMP JUMPDEST POP RETURNDATASIZE PUSH2 0xEB3 JUMP JUMPDEST PUSH1 0x64 SWAP2 SWAP3 POP PUSH2 0xF00 SWAP1 DUP5 RETURNDATASIZE DUP7 GT PUSH2 0xF07 JUMPI JUMPDEST PUSH2 0xEF8 DUP2 DUP4 PUSH2 0x111E JUMP JUMPDEST DUP2 ADD SWAP1 PUSH2 0x11D5 JUMP JUMPDEST SWAP2 SWAP1 PUSH2 0xB03 JUMP JUMPDEST POP RETURNDATASIZE PUSH2 0xEEE JUMP JUMPDEST CALLVALUE PUSH2 0x8C9 JUMPI PUSH0 PUSH1 0x3 NOT CALLDATASIZE ADD SLT PUSH2 0x8C9 JUMPI PUSH1 0x40 MLOAD PUSH32 0xAAABADC500000000000000000000000000000000000000000000000000000000 DUP2 MSTORE PUSH20 0xFFFFFFFFFFFFFFFFFFFFFFFFFFFFFFFFFFFFFFFF PUSH1 0x20 DUP3 PUSH1 0x4 DUP2 PUSH32 0x0 DUP6 AND GAS STATICCALL SWAP1 DUP2 ISZERO PUSH2 0xE1C JUMPI PUSH1 0x20 SWAP3 PUSH0 SWAP3 PUSH2 0xF9F JUMPI JUMPDEST POP PUSH1 0x40 MLOAD SWAP2 AND DUP2 MSTORE RETURN JUMPDEST PUSH2 0xFB7 SWAP2 SWAP3 POP DUP4 RETURNDATASIZE DUP6 GT PUSH2 0xF07 JUMPI PUSH2 0xEF8 DUP2 DUP4 PUSH2 0x111E JUMP JUMPDEST SWAP1 DUP4 PUSH2 0xF95 JUMP JUMPDEST CALLVALUE PUSH2 0x8C9 JUMPI PUSH0 PUSH1 0x3 NOT CALLDATASIZE ADD SLT PUSH2 0x8C9 JUMPI PUSH1 0x20 PUSH1 0x40 MLOAD PUSH20 0xFFFFFFFFFFFFFFFFFFFFFFFFFFFFFFFFFFFFFFFF PUSH32 0x0 AND DUP2 MSTORE RETURN JUMPDEST CALLVALUE PUSH2 0x8C9 JUMPI PUSH1 0x20 PUSH1 0x3 NOT CALLDATASIZE ADD SLT PUSH2 0x8C9 JUMPI PUSH1 0x4 CALLDATALOAD PUSH32 0xFFFFFFFF00000000000000000000000000000000000000000000000000000000 DUP2 AND DUP2 SUB PUSH2 0x8C9 JUMPI PUSH2 0x1056 PUSH1 0x20 SWAP2 PUSH2 0x115F JUMP JUMPDEST PUSH1 0x40 MLOAD SWAP1 DUP2 MSTORE RETURN JUMPDEST CALLVALUE PUSH2 0x8C9 JUMPI PUSH0 PUSH1 0x3 NOT CALLDATASIZE ADD SLT PUSH2 0x8C9 JUMPI PUSH1 0x20 PUSH1 0x40 MLOAD PUSH20 0xFFFFFFFFFFFFFFFFFFFFFFFFFFFFFFFFFFFFFFFF PUSH32 0x0 AND DUP2 MSTORE RETURN JUMPDEST CALLVALUE PUSH2 0x8C9 JUMPI PUSH0 PUSH1 0x3 NOT CALLDATASIZE ADD SLT PUSH2 0x8C9 JUMPI PUSH1 0x20 SWAP1 PUSH20 0xFFFFFFFFFFFFFFFFFFFFFFFFFFFFFFFFFFFFFFFF PUSH0 SLOAD AND DUP2 MSTORE RETURN JUMPDEST PUSH8 0xFFFFFFFFFFFFFFFF DUP2 GT PUSH2 0x10F1 JUMPI PUSH1 0x40 MSTORE JUMP JUMPDEST PUSH32 0x4E487B7100000000000000000000000000000000000000000000000000000000 PUSH0 MSTORE PUSH1 0x41 PUSH1 0x4 MSTORE PUSH1 0x24 PUSH0 REVERT JUMPDEST SWAP1 PUSH1 0x1F PUSH32 0xFFFFFFFFFFFFFFFFFFFFFFFFFFFFFFFFFFFFFFFFFFFFFFFFFFFFFFFFFFFFFFE0 SWAP2 ADD AND DUP2 ADD SWAP1 DUP2 LT PUSH8 0xFFFFFFFFFFFFFFFF DUP3 GT OR PUSH2 0x10F1 JUMPI PUSH1 0x40 MSTORE JUMP JUMPDEST PUSH1 0x40 MLOAD PUSH32 0xFFFFFFFF00000000000000000000000000000000000000000000000000000000 PUSH1 0x20 DUP3 ADD SWAP3 PUSH32 0x0 DUP5 MSTORE AND PUSH1 0x40 DUP3 ADD MSTORE PUSH1 0x24 DUP2 MSTORE PUSH1 0x60 DUP2 ADD DUP2 DUP2 LT PUSH8 0xFFFFFFFFFFFFFFFF DUP3 GT OR PUSH2 0x10F1 JUMPI PUSH1 0x40 MSTORE MLOAD SWAP1 KECCAK256 SWAP1 JUMP JUMPDEST SWAP1 DUP2 PUSH1 0x20 SWAP2 SUB SLT PUSH2 0x8C9 JUMPI MLOAD PUSH20 0xFFFFFFFFFFFFFFFFFFFFFFFFFFFFFFFFFFFFFFFF DUP2 AND DUP2 SUB PUSH2 0x8C9 JUMPI SWAP1 JUMP INVALID LOG2 PUSH5 0x6970667358 0x22 SLT KECCAK256 SLT JUMPDEST 0xCE 0x21 MSTORE MSIZE 0xEA PUSH1 0xCF GT SWAP1 GASLIMIT DELEGATECALL SWAP3 DIV PUSH7 0x69F9F38F7080A1 0xAC 0xE3 DUP7 EXTCODECOPY 0x2E 0xB3 0xA8 PUSH4 0xB464736F PUSH13 0x634300081B0033000000000000 "},"methodIdentifiers":{"finalizeMigration()":"b78b6087","getActionId(bytes4)":"851c1bb3","getAuthorizer()":"aaabadc5","getVault()":"8d928af8","isMigrationComplete()":"d7128084","migratePools(address[])":"b8350e27","newFeeController()":"51da116d","oldFeeController()":"7ea3a964","vault()":"fbfa77cf"}}}}}