{
  "_format": "hh-sol-artifact-1",
  "contractName": "Router",
  "sourceName": "contracts/Router.sol",
  "abi": [
    {
      "inputs": [
        {
          "internalType": "contract IVault",
          "name": "vault",
          "type": "address"
        },
        {
          "internalType": "contract IWETH",
          "name": "weth",
          "type": "address"
        },
        {
          "internalType": "contract IPermit2",
          "name": "permit2",
          "type": "address"
        },
        {
          "internalType": "string",
          "name": "routerVersion",
          "type": "string"
        }
      ],
      "stateMutability": "nonpayable",
      "type": "constructor"
    },
    {
      "inputs": [
        {
          "internalType": "address",
          "name": "target",
          "type": "address"
        }
      ],
      "name": "AddressEmptyCode",
      "type": "error"
    },
    {
      "inputs": [
        {
          "internalType": "address",
          "name": "account",
          "type": "address"
        }
      ],
      "name": "AddressInsufficientBalance",
      "type": "error"
    },
    {
      "inputs": [],
      "name": "ErrorSelectorNotFound",
      "type": "error"
    },
    {
      "inputs": [],
      "name": "EthTransfer",
      "type": "error"
    },
    {
      "inputs": [],
      "name": "FailedInnerCall",
      "type": "error"
    },
    {
      "inputs": [],
      "name": "InputLengthMismatch",
      "type": "error"
    },
    {
      "inputs": [],
      "name": "InsufficientEth",
      "type": "error"
    },
    {
      "inputs": [],
      "name": "ReentrancyGuardReentrantCall",
      "type": "error"
    },
    {
      "inputs": [
        {
          "internalType": "uint8",
          "name": "bits",
          "type": "uint8"
        },
        {
          "internalType": "uint256",
          "name": "value",
          "type": "uint256"
        }
      ],
      "name": "SafeCastOverflowedUintDowncast",
      "type": "error"
    },
    {
      "inputs": [
        {
          "internalType": "address",
          "name": "token",
          "type": "address"
        }
      ],
      "name": "SafeERC20FailedOperation",
      "type": "error"
    },
    {
      "inputs": [
        {
          "internalType": "address",
          "name": "sender",
          "type": "address"
        }
      ],
      "name": "SenderIsNotVault",
      "type": "error"
    },
    {
      "inputs": [],
      "name": "SwapDeadline",
      "type": "error"
    },
    {
      "inputs": [
        {
          "internalType": "address",
          "name": "pool",
          "type": "address"
        },
        {
          "internalType": "uint256[]",
          "name": "maxAmountsIn",
          "type": "uint256[]"
        },
        {
          "internalType": "uint256",
          "name": "minBptAmountOut",
          "type": "uint256"
        },
        {
          "internalType": "bool",
          "name": "wethIsEth",
          "type": "bool"
        },
        {
          "internalType": "bytes",
          "name": "userData",
          "type": "bytes"
        }
      ],
      "name": "addLiquidityCustom",
      "outputs": [
        {
          "internalType": "uint256[]",
          "name": "amountsIn",
          "type": "uint256[]"
        },
        {
          "internalType": "uint256",
          "name": "bptAmountOut",
          "type": "uint256"
        },
        {
          "internalType": "bytes",
          "name": "returnData",
          "type": "bytes"
        }
      ],
      "stateMutability": "payable",
      "type": "function"
    },
    {
      "inputs": [
        {
          "components": [
            {
              "internalType": "address",
              "name": "sender",
              "type": "address"
            },
            {
              "internalType": "address",
              "name": "pool",
              "type": "address"
            },
            {
              "internalType": "uint256[]",
              "name": "maxAmountsIn",
              "type": "uint256[]"
            },
            {
              "internalType": "uint256",
              "name": "minBptAmountOut",
              "type": "uint256"
            },
            {
              "internalType": "enum AddLiquidityKind",
              "name": "kind",
              "type": "uint8"
            },
            {
              "internalType": "bool",
              "name": "wethIsEth",
              "type": "bool"
            },
            {
              "internalType": "bytes",
              "name": "userData",
              "type": "bytes"
            }
          ],
          "internalType": "struct IRouterCommon.AddLiquidityHookParams",
          "name": "params",
          "type": "tuple"
        }
      ],
      "name": "addLiquidityHook",
      "outputs": [
        {
          "internalType": "uint256[]",
          "name": "amountsIn",
          "type": "uint256[]"
        },
        {
          "internalType": "uint256",
          "name": "bptAmountOut",
          "type": "uint256"
        },
        {
          "internalType": "bytes",
          "name": "returnData",
          "type": "bytes"
        }
      ],
      "stateMutability": "nonpayable",
      "type": "function"
    },
    {
      "inputs": [
        {
          "internalType": "address",
          "name": "pool",
          "type": "address"
        },
        {
          "internalType": "uint256[]",
          "name": "maxAmountsIn",
          "type": "uint256[]"
        },
        {
          "internalType": "uint256",
          "name": "exactBptAmountOut",
          "type": "uint256"
        },
        {
          "internalType": "bool",
          "name": "wethIsEth",
          "type": "bool"
        },
        {
          "internalType": "bytes",
          "name": "userData",
          "type": "bytes"
        }
      ],
      "name": "addLiquidityProportional",
      "outputs": [
        {
          "internalType": "uint256[]",
          "name": "amountsIn",
          "type": "uint256[]"
        }
      ],
      "stateMutability": "payable",
      "type": "function"
    },
    {
      "inputs": [
        {
          "internalType": "address",
          "name": "pool",
          "type": "address"
        },
        {
          "internalType": "contract IERC20",
          "name": "tokenIn",
          "type": "address"
        },
        {
          "internalType": "uint256",
          "name": "maxAmountIn",
          "type": "uint256"
        },
        {
          "internalType": "uint256",
          "name": "exactBptAmountOut",
          "type": "uint256"
        },
        {
          "internalType": "bool",
          "name": "wethIsEth",
          "type": "bool"
        },
        {
          "internalType": "bytes",
          "name": "userData",
          "type": "bytes"
        }
      ],
      "name": "addLiquiditySingleTokenExactOut",
      "outputs": [
        {
          "internalType": "uint256",
          "name": "amountIn",
          "type": "uint256"
        }
      ],
      "stateMutability": "payable",
      "type": "function"
    },
    {
      "inputs": [
        {
          "internalType": "address",
          "name": "pool",
          "type": "address"
        },
        {
          "internalType": "uint256[]",
          "name": "exactAmountsIn",
          "type": "uint256[]"
        },
        {
          "internalType": "uint256",
          "name": "minBptAmountOut",
          "type": "uint256"
        },
        {
          "internalType": "bool",
          "name": "wethIsEth",
          "type": "bool"
        },
        {
          "internalType": "bytes",
          "name": "userData",
          "type": "bytes"
        }
      ],
      "name": "addLiquidityUnbalanced",
      "outputs": [
        {
          "internalType": "uint256",
          "name": "bptAmountOut",
          "type": "uint256"
        }
      ],
      "stateMutability": "payable",
      "type": "function"
    },
    {
      "inputs": [
        {
          "internalType": "address",
          "name": "pool",
          "type": "address"
        },
        {
          "internalType": "uint256[]",
          "name": "amountsIn",
          "type": "uint256[]"
        },
        {
          "internalType": "bool",
          "name": "wethIsEth",
          "type": "bool"
        },
        {
          "internalType": "bytes",
          "name": "userData",
          "type": "bytes"
        }
      ],
      "name": "donate",
      "outputs": [],
      "stateMutability": "payable",
      "type": "function"
    },
    {
      "inputs": [],
      "name": "getPermit2",
      "outputs": [
        {
          "internalType": "contract IPermit2",
          "name": "",
          "type": "address"
        }
      ],
      "stateMutability": "view",
      "type": "function"
    },
    {
      "inputs": [],
      "name": "getSender",
      "outputs": [
        {
          "internalType": "address",
          "name": "",
          "type": "address"
        }
      ],
      "stateMutability": "view",
      "type": "function"
    },
    {
      "inputs": [],
      "name": "getWeth",
      "outputs": [
        {
          "internalType": "contract IWETH",
          "name": "",
          "type": "address"
        }
      ],
      "stateMutability": "view",
      "type": "function"
    },
    {
      "inputs": [
        {
          "internalType": "address",
          "name": "pool",
          "type": "address"
        },
        {
          "internalType": "contract IERC20[]",
          "name": "tokens",
          "type": "address[]"
        },
        {
          "internalType": "uint256[]",
          "name": "exactAmountsIn",
          "type": "uint256[]"
        },
        {
          "internalType": "uint256",
          "name": "minBptAmountOut",
          "type": "uint256"
        },
        {
          "internalType": "bool",
          "name": "wethIsEth",
          "type": "bool"
        },
        {
          "internalType": "bytes",
          "name": "userData",
          "type": "bytes"
        }
      ],
      "name": "initialize",
      "outputs": [
        {
          "internalType": "uint256",
          "name": "bptAmountOut",
          "type": "uint256"
        }
      ],
      "stateMutability": "payable",
      "type": "function"
    },
    {
      "inputs": [
        {
          "components": [
            {
              "internalType": "address",
              "name": "sender",
              "type": "address"
            },
            {
              "internalType": "address",
              "name": "pool",
              "type": "address"
            },
            {
              "internalType": "contract IERC20[]",
              "name": "tokens",
              "type": "address[]"
            },
            {
              "internalType": "uint256[]",
              "name": "exactAmountsIn",
              "type": "uint256[]"
            },
            {
              "internalType": "uint256",
              "name": "minBptAmountOut",
              "type": "uint256"
            },
            {
              "internalType": "bool",
              "name": "wethIsEth",
              "type": "bool"
            },
            {
              "internalType": "bytes",
              "name": "userData",
              "type": "bytes"
            }
          ],
          "internalType": "struct IRouter.InitializeHookParams",
          "name": "params",
          "type": "tuple"
        }
      ],
      "name": "initializeHook",
      "outputs": [
        {
          "internalType": "uint256",
          "name": "bptAmountOut",
          "type": "uint256"
        }
      ],
      "stateMutability": "nonpayable",
      "type": "function"
    },
    {
      "inputs": [
        {
          "internalType": "bytes[]",
          "name": "data",
          "type": "bytes[]"
        }
      ],
      "name": "multicall",
      "outputs": [
        {
          "internalType": "bytes[]",
          "name": "results",
          "type": "bytes[]"
        }
      ],
      "stateMutability": "payable",
      "type": "function"
    },
    {
      "inputs": [
        {
          "components": [
            {
              "internalType": "address",
              "name": "token",
              "type": "address"
            },
            {
              "internalType": "address",
              "name": "owner",
              "type": "address"
            },
            {
              "internalType": "address",
              "name": "spender",
              "type": "address"
            },
            {
              "internalType": "uint256",
              "name": "amount",
              "type": "uint256"
            },
            {
              "internalType": "uint256",
              "name": "nonce",
              "type": "uint256"
            },
            {
              "internalType": "uint256",
              "name": "deadline",
              "type": "uint256"
            }
          ],
          "internalType": "struct IRouterCommon.PermitApproval[]",
          "name": "permitBatch",
          "type": "tuple[]"
        },
        {
          "internalType": "bytes[]",
          "name": "permitSignatures",
          "type": "bytes[]"
        },
        {
          "components": [
            {
              "components": [
                {
                  "internalType": "address",
                  "name": "token",
                  "type": "address"
                },
                {
                  "internalType": "uint160",
                  "name": "amount",
                  "type": "uint160"
                },
                {
                  "internalType": "uint48",
                  "name": "expiration",
                  "type": "uint48"
                },
                {
                  "internalType": "uint48",
                  "name": "nonce",
                  "type": "uint48"
                }
              ],
              "internalType": "struct IAllowanceTransfer.PermitDetails[]",
              "name": "details",
              "type": "tuple[]"
            },
            {
              "internalType": "address",
              "name": "spender",
              "type": "address"
            },
            {
              "internalType": "uint256",
              "name": "sigDeadline",
              "type": "uint256"
            }
          ],
          "internalType": "struct IAllowanceTransfer.PermitBatch",
          "name": "permit2Batch",
          "type": "tuple"
        },
        {
          "internalType": "bytes",
          "name": "permit2Signature",
          "type": "bytes"
        },
        {
          "internalType": "bytes[]",
          "name": "multicallData",
          "type": "bytes[]"
        }
      ],
      "name": "permitBatchAndCall",
      "outputs": [
        {
          "internalType": "bytes[]",
          "name": "results",
          "type": "bytes[]"
        }
      ],
      "stateMutability": "payable",
      "type": "function"
    },
    {
      "inputs": [
        {
          "internalType": "address",
          "name": "pool",
          "type": "address"
        },
        {
          "internalType": "uint256[]",
          "name": "maxAmountsIn",
          "type": "uint256[]"
        },
        {
          "internalType": "uint256",
          "name": "minBptAmountOut",
          "type": "uint256"
        },
        {
          "internalType": "address",
          "name": "sender",
          "type": "address"
        },
        {
          "internalType": "bytes",
          "name": "userData",
          "type": "bytes"
        }
      ],
      "name": "queryAddLiquidityCustom",
      "outputs": [
        {
          "internalType": "uint256[]",
          "name": "amountsIn",
          "type": "uint256[]"
        },
        {
          "internalType": "uint256",
          "name": "bptAmountOut",
          "type": "uint256"
        },
        {
          "internalType": "bytes",
          "name": "returnData",
          "type": "bytes"
        }
      ],
      "stateMutability": "nonpayable",
      "type": "function"
    },
    {
      "inputs": [
        {
          "components": [
            {
              "internalType": "address",
              "name": "sender",
              "type": "address"
            },
            {
              "internalType": "address",
              "name": "pool",
              "type": "address"
            },
            {
              "internalType": "uint256[]",
              "name": "maxAmountsIn",
              "type": "uint256[]"
            },
            {
              "internalType": "uint256",
              "name": "minBptAmountOut",
              "type": "uint256"
            },
            {
              "internalType": "enum AddLiquidityKind",
              "name": "kind",
              "type": "uint8"
            },
            {
              "internalType": "bool",
              "name": "wethIsEth",
              "type": "bool"
            },
            {
              "internalType": "bytes",
              "name": "userData",
              "type": "bytes"
            }
          ],
          "internalType": "struct IRouterCommon.AddLiquidityHookParams",
          "name": "params",
          "type": "tuple"
        }
      ],
      "name": "queryAddLiquidityHook",
      "outputs": [
        {
          "internalType": "uint256[]",
          "name": "amountsIn",
          "type": "uint256[]"
        },
        {
          "internalType": "uint256",
          "name": "bptAmountOut",
          "type": "uint256"
        },
        {
          "internalType": "bytes",
          "name": "returnData",
          "type": "bytes"
        }
      ],
      "stateMutability": "nonpayable",
      "type": "function"
    },
    {
      "inputs": [
        {
          "internalType": "address",
          "name": "pool",
          "type": "address"
        },
        {
          "internalType": "uint256",
          "name": "exactBptAmountOut",
          "type": "uint256"
        },
        {
          "internalType": "address",
          "name": "sender",
          "type": "address"
        },
        {
          "internalType": "bytes",
          "name": "userData",
          "type": "bytes"
        }
      ],
      "name": "queryAddLiquidityProportional",
      "outputs": [
        {
          "internalType": "uint256[]",
          "name": "amountsIn",
          "type": "uint256[]"
        }
      ],
      "stateMutability": "nonpayable",
      "type": "function"
    },
    {
      "inputs": [
        {
          "internalType": "address",
          "name": "pool",
          "type": "address"
        },
        {
          "internalType": "contract IERC20",
          "name": "tokenIn",
          "type": "address"
        },
        {
          "internalType": "uint256",
          "name": "exactBptAmountOut",
          "type": "uint256"
        },
        {
          "internalType": "address",
          "name": "sender",
          "type": "address"
        },
        {
          "internalType": "bytes",
          "name": "userData",
          "type": "bytes"
        }
      ],
      "name": "queryAddLiquiditySingleTokenExactOut",
      "outputs": [
        {
          "internalType": "uint256",
          "name": "amountIn",
          "type": "uint256"
        }
      ],
      "stateMutability": "nonpayable",
      "type": "function"
    },
    {
      "inputs": [
        {
          "internalType": "address",
          "name": "pool",
          "type": "address"
        },
        {
          "internalType": "uint256[]",
          "name": "exactAmountsIn",
          "type": "uint256[]"
        },
        {
          "internalType": "address",
          "name": "sender",
          "type": "address"
        },
        {
          "internalType": "bytes",
          "name": "userData",
          "type": "bytes"
        }
      ],
      "name": "queryAddLiquidityUnbalanced",
      "outputs": [
        {
          "internalType": "uint256",
          "name": "bptAmountOut",
          "type": "uint256"
        }
      ],
      "stateMutability": "nonpayable",
      "type": "function"
    },
    {
      "inputs": [
        {
          "internalType": "address",
          "name": "pool",
          "type": "address"
        },
        {
          "internalType": "uint256",
          "name": "maxBptAmountIn",
          "type": "uint256"
        },
        {
          "internalType": "uint256[]",
          "name": "minAmountsOut",
          "type": "uint256[]"
        },
        {
          "internalType": "address",
          "name": "sender",
          "type": "address"
        },
        {
          "internalType": "bytes",
          "name": "userData",
          "type": "bytes"
        }
      ],
      "name": "queryRemoveLiquidityCustom",
      "outputs": [
        {
          "internalType": "uint256",
          "name": "bptAmountIn",
          "type": "uint256"
        },
        {
          "internalType": "uint256[]",
          "name": "amountsOut",
          "type": "uint256[]"
        },
        {
          "internalType": "bytes",
          "name": "returnData",
          "type": "bytes"
        }
      ],
      "stateMutability": "nonpayable",
      "type": "function"
    },
    {
      "inputs": [
        {
          "components": [
            {
              "internalType": "address",
              "name": "sender",
              "type": "address"
            },
            {
              "internalType": "address",
              "name": "pool",
              "type": "address"
            },
            {
              "internalType": "uint256[]",
              "name": "minAmountsOut",
              "type": "uint256[]"
            },
            {
              "internalType": "uint256",
              "name": "maxBptAmountIn",
              "type": "uint256"
            },
            {
              "internalType": "enum RemoveLiquidityKind",
              "name": "kind",
              "type": "uint8"
            },
            {
              "internalType": "bool",
              "name": "wethIsEth",
              "type": "bool"
            },
            {
              "internalType": "bytes",
              "name": "userData",
              "type": "bytes"
            }
          ],
          "internalType": "struct IRouterCommon.RemoveLiquidityHookParams",
          "name": "params",
          "type": "tuple"
        }
      ],
      "name": "queryRemoveLiquidityHook",
      "outputs": [
        {
          "internalType": "uint256",
          "name": "bptAmountIn",
          "type": "uint256"
        },
        {
          "internalType": "uint256[]",
          "name": "amountsOut",
          "type": "uint256[]"
        },
        {
          "internalType": "bytes",
          "name": "returnData",
          "type": "bytes"
        }
      ],
      "stateMutability": "nonpayable",
      "type": "function"
    },
    {
      "inputs": [
        {
          "internalType": "address",
          "name": "pool",
          "type": "address"
        },
        {
          "internalType": "uint256",
          "name": "exactBptAmountIn",
          "type": "uint256"
        },
        {
          "internalType": "address",
          "name": "sender",
          "type": "address"
        },
        {
          "internalType": "bytes",
          "name": "userData",
          "type": "bytes"
        }
      ],
      "name": "queryRemoveLiquidityProportional",
      "outputs": [
        {
          "internalType": "uint256[]",
          "name": "amountsOut",
          "type": "uint256[]"
        }
      ],
      "stateMutability": "nonpayable",
      "type": "function"
    },
    {
      "inputs": [
        {
          "internalType": "address",
          "name": "pool",
          "type": "address"
        },
        {
          "internalType": "uint256",
          "name": "exactBptAmountIn",
          "type": "uint256"
        }
      ],
      "name": "queryRemoveLiquidityRecovery",
      "outputs": [
        {
          "internalType": "uint256[]",
          "name": "amountsOut",
          "type": "uint256[]"
        }
      ],
      "stateMutability": "nonpayable",
      "type": "function"
    },
    {
      "inputs": [
        {
          "internalType": "address",
          "name": "pool",
          "type": "address"
        },
        {
          "internalType": "address",
          "name": "sender",
          "type": "address"
        },
        {
          "internalType": "uint256",
          "name": "exactBptAmountIn",
          "type": "uint256"
        }
      ],
      "name": "queryRemoveLiquidityRecoveryHook",
      "outputs": [
        {
          "internalType": "uint256[]",
          "name": "amountsOut",
          "type": "uint256[]"
        }
      ],
      "stateMutability": "nonpayable",
      "type": "function"
    },
    {
      "inputs": [
        {
          "internalType": "address",
          "name": "pool",
          "type": "address"
        },
        {
          "internalType": "uint256",
          "name": "exactBptAmountIn",
          "type": "uint256"
        },
        {
          "internalType": "contract IERC20",
          "name": "tokenOut",
          "type": "address"
        },
        {
          "internalType": "address",
          "name": "sender",
          "type": "address"
        },
        {
          "internalType": "bytes",
          "name": "userData",
          "type": "bytes"
        }
      ],
      "name": "queryRemoveLiquiditySingleTokenExactIn",
      "outputs": [
        {
          "internalType": "uint256",
          "name": "amountOut",
          "type": "uint256"
        }
      ],
      "stateMutability": "nonpayable",
      "type": "function"
    },
    {
      "inputs": [
        {
          "internalType": "address",
          "name": "pool",
          "type": "address"
        },
        {
          "internalType": "contract IERC20",
          "name": "tokenOut",
          "type": "address"
        },
        {
          "internalType": "uint256",
          "name": "exactAmountOut",
          "type": "uint256"
        },
        {
          "internalType": "address",
          "name": "sender",
          "type": "address"
        },
        {
          "internalType": "bytes",
          "name": "userData",
          "type": "bytes"
        }
      ],
      "name": "queryRemoveLiquiditySingleTokenExactOut",
      "outputs": [
        {
          "internalType": "uint256",
          "name": "bptAmountIn",
          "type": "uint256"
        }
      ],
      "stateMutability": "nonpayable",
      "type": "function"
    },
    {
      "inputs": [
        {
          "components": [
            {
              "internalType": "address",
              "name": "sender",
              "type": "address"
            },
            {
              "internalType": "enum SwapKind",
              "name": "kind",
              "type": "uint8"
            },
            {
              "internalType": "address",
              "name": "pool",
              "type": "address"
            },
            {
              "internalType": "contract IERC20",
              "name": "tokenIn",
              "type": "address"
            },
            {
              "internalType": "contract IERC20",
              "name": "tokenOut",
              "type": "address"
            },
            {
              "internalType": "uint256",
              "name": "amountGiven",
              "type": "uint256"
            },
            {
              "internalType": "uint256",
              "name": "limit",
              "type": "uint256"
            },
            {
              "internalType": "uint256",
              "name": "deadline",
              "type": "uint256"
            },
            {
              "internalType": "bool",
              "name": "wethIsEth",
              "type": "bool"
            },
            {
              "internalType": "bytes",
              "name": "userData",
              "type": "bytes"
            }
          ],
          "internalType": "struct IRouter.SwapSingleTokenHookParams",
          "name": "params",
          "type": "tuple"
        }
      ],
      "name": "querySwapHook",
      "outputs": [
        {
          "internalType": "uint256",
          "name": "",
          "type": "uint256"
        }
      ],
      "stateMutability": "nonpayable",
      "type": "function"
    },
    {
      "inputs": [
        {
          "internalType": "address",
          "name": "pool",
          "type": "address"
        },
        {
          "internalType": "contract IERC20",
          "name": "tokenIn",
          "type": "address"
        },
        {
          "internalType": "contract IERC20",
          "name": "tokenOut",
          "type": "address"
        },
        {
          "internalType": "uint256",
          "name": "exactAmountIn",
          "type": "uint256"
        },
        {
          "internalType": "address",
          "name": "sender",
          "type": "address"
        },
        {
          "internalType": "bytes",
          "name": "userData",
          "type": "bytes"
        }
      ],
      "name": "querySwapSingleTokenExactIn",
      "outputs": [
        {
          "internalType": "uint256",
          "name": "amountCalculated",
          "type": "uint256"
        }
      ],
      "stateMutability": "nonpayable",
      "type": "function"
    },
    {
      "inputs": [
        {
          "internalType": "address",
          "name": "pool",
          "type": "address"
        },
        {
          "internalType": "contract IERC20",
          "name": "tokenIn",
          "type": "address"
        },
        {
          "internalType": "contract IERC20",
          "name": "tokenOut",
          "type": "address"
        },
        {
          "internalType": "uint256",
          "name": "exactAmountOut",
          "type": "uint256"
        },
        {
          "internalType": "address",
          "name": "sender",
          "type": "address"
        },
        {
          "internalType": "bytes",
          "name": "userData",
          "type": "bytes"
        }
      ],
      "name": "querySwapSingleTokenExactOut",
      "outputs": [
        {
          "internalType": "uint256",
          "name": "amountCalculated",
          "type": "uint256"
        }
      ],
      "stateMutability": "nonpayable",
      "type": "function"
    },
    {
      "inputs": [
        {
          "internalType": "address",
          "name": "pool",
          "type": "address"
        },
        {
          "internalType": "uint256",
          "name": "maxBptAmountIn",
          "type": "uint256"
        },
        {
          "internalType": "uint256[]",
          "name": "minAmountsOut",
          "type": "uint256[]"
        },
        {
          "internalType": "bool",
          "name": "wethIsEth",
          "type": "bool"
        },
        {
          "internalType": "bytes",
          "name": "userData",
          "type": "bytes"
        }
      ],
      "name": "removeLiquidityCustom",
      "outputs": [
        {
          "internalType": "uint256",
          "name": "bptAmountIn",
          "type": "uint256"
        },
        {
          "internalType": "uint256[]",
          "name": "amountsOut",
          "type": "uint256[]"
        },
        {
          "internalType": "bytes",
          "name": "returnData",
          "type": "bytes"
        }
      ],
      "stateMutability": "payable",
      "type": "function"
    },
    {
      "inputs": [
        {
          "components": [
            {
              "internalType": "address",
              "name": "sender",
              "type": "address"
            },
            {
              "internalType": "address",
              "name": "pool",
              "type": "address"
            },
            {
              "internalType": "uint256[]",
              "name": "minAmountsOut",
              "type": "uint256[]"
            },
            {
              "internalType": "uint256",
              "name": "maxBptAmountIn",
              "type": "uint256"
            },
            {
              "internalType": "enum RemoveLiquidityKind",
              "name": "kind",
              "type": "uint8"
            },
            {
              "internalType": "bool",
              "name": "wethIsEth",
              "type": "bool"
            },
            {
              "internalType": "bytes",
              "name": "userData",
              "type": "bytes"
            }
          ],
          "internalType": "struct IRouterCommon.RemoveLiquidityHookParams",
          "name": "params",
          "type": "tuple"
        }
      ],
      "name": "removeLiquidityHook",
      "outputs": [
        {
          "internalType": "uint256",
          "name": "bptAmountIn",
          "type": "uint256"
        },
        {
          "internalType": "uint256[]",
          "name": "amountsOut",
          "type": "uint256[]"
        },
        {
          "internalType": "bytes",
          "name": "returnData",
          "type": "bytes"
        }
      ],
      "stateMutability": "nonpayable",
      "type": "function"
    },
    {
      "inputs": [
        {
          "internalType": "address",
          "name": "pool",
          "type": "address"
        },
        {
          "internalType": "uint256",
          "name": "exactBptAmountIn",
          "type": "uint256"
        },
        {
          "internalType": "uint256[]",
          "name": "minAmountsOut",
          "type": "uint256[]"
        },
        {
          "internalType": "bool",
          "name": "wethIsEth",
          "type": "bool"
        },
        {
          "internalType": "bytes",
          "name": "userData",
          "type": "bytes"
        }
      ],
      "name": "removeLiquidityProportional",
      "outputs": [
        {
          "internalType": "uint256[]",
          "name": "amountsOut",
          "type": "uint256[]"
        }
      ],
      "stateMutability": "payable",
      "type": "function"
    },
    {
      "inputs": [
        {
          "internalType": "address",
          "name": "pool",
          "type": "address"
        },
        {
          "internalType": "uint256",
          "name": "exactBptAmountIn",
          "type": "uint256"
        },
        {
          "internalType": "uint256[]",
          "name": "minAmountsOut",
          "type": "uint256[]"
        }
      ],
      "name": "removeLiquidityRecovery",
      "outputs": [
        {
          "internalType": "uint256[]",
          "name": "amountsOut",
          "type": "uint256[]"
        }
      ],
      "stateMutability": "payable",
      "type": "function"
    },
    {
      "inputs": [
        {
          "internalType": "address",
          "name": "pool",
          "type": "address"
        },
        {
          "internalType": "address",
          "name": "sender",
          "type": "address"
        },
        {
          "internalType": "uint256",
          "name": "exactBptAmountIn",
          "type": "uint256"
        },
        {
          "internalType": "uint256[]",
          "name": "minAmountsOut",
          "type": "uint256[]"
        }
      ],
      "name": "removeLiquidityRecoveryHook",
      "outputs": [
        {
          "internalType": "uint256[]",
          "name": "amountsOut",
          "type": "uint256[]"
        }
      ],
      "stateMutability": "nonpayable",
      "type": "function"
    },
    {
      "inputs": [
        {
          "internalType": "address",
          "name": "pool",
          "type": "address"
        },
        {
          "internalType": "uint256",
          "name": "exactBptAmountIn",
          "type": "uint256"
        },
        {
          "internalType": "contract IERC20",
          "name": "tokenOut",
          "type": "address"
        },
        {
          "internalType": "uint256",
          "name": "minAmountOut",
          "type": "uint256"
        },
        {
          "internalType": "bool",
          "name": "wethIsEth",
          "type": "bool"
        },
        {
          "internalType": "bytes",
          "name": "userData",
          "type": "bytes"
        }
      ],
      "name": "removeLiquiditySingleTokenExactIn",
      "outputs": [
        {
          "internalType": "uint256",
          "name": "amountOut",
          "type": "uint256"
        }
      ],
      "stateMutability": "payable",
      "type": "function"
    },
    {
      "inputs": [
        {
          "internalType": "address",
          "name": "pool",
          "type": "address"
        },
        {
          "internalType": "uint256",
          "name": "maxBptAmountIn",
          "type": "uint256"
        },
        {
          "internalType": "contract IERC20",
          "name": "tokenOut",
          "type": "address"
        },
        {
          "internalType": "uint256",
          "name": "exactAmountOut",
          "type": "uint256"
        },
        {
          "internalType": "bool",
          "name": "wethIsEth",
          "type": "bool"
        },
        {
          "internalType": "bytes",
          "name": "userData",
          "type": "bytes"
        }
      ],
      "name": "removeLiquiditySingleTokenExactOut",
      "outputs": [
        {
          "internalType": "uint256",
          "name": "bptAmountIn",
          "type": "uint256"
        }
      ],
      "stateMutability": "payable",
      "type": "function"
    },
    {
      "inputs": [
        {
          "internalType": "address",
          "name": "pool",
          "type": "address"
        },
        {
          "internalType": "contract IERC20",
          "name": "tokenIn",
          "type": "address"
        },
        {
          "internalType": "contract IERC20",
          "name": "tokenOut",
          "type": "address"
        },
        {
          "internalType": "uint256",
          "name": "exactAmountIn",
          "type": "uint256"
        },
        {
          "internalType": "uint256",
          "name": "minAmountOut",
          "type": "uint256"
        },
        {
          "internalType": "uint256",
          "name": "deadline",
          "type": "uint256"
        },
        {
          "internalType": "bool",
          "name": "wethIsEth",
          "type": "bool"
        },
        {
          "internalType": "bytes",
          "name": "userData",
          "type": "bytes"
        }
      ],
      "name": "swapSingleTokenExactIn",
      "outputs": [
        {
          "internalType": "uint256",
          "name": "",
          "type": "uint256"
        }
      ],
      "stateMutability": "payable",
      "type": "function"
    },
    {
      "inputs": [
        {
          "internalType": "address",
          "name": "pool",
          "type": "address"
        },
        {
          "internalType": "contract IERC20",
          "name": "tokenIn",
          "type": "address"
        },
        {
          "internalType": "contract IERC20",
          "name": "tokenOut",
          "type": "address"
        },
        {
          "internalType": "uint256",
          "name": "exactAmountOut",
          "type": "uint256"
        },
        {
          "internalType": "uint256",
          "name": "maxAmountIn",
          "type": "uint256"
        },
        {
          "internalType": "uint256",
          "name": "deadline",
          "type": "uint256"
        },
        {
          "internalType": "bool",
          "name": "wethIsEth",
          "type": "bool"
        },
        {
          "internalType": "bytes",
          "name": "userData",
          "type": "bytes"
        }
      ],
      "name": "swapSingleTokenExactOut",
      "outputs": [
        {
          "internalType": "uint256",
          "name": "",
          "type": "uint256"
        }
      ],
      "stateMutability": "payable",
      "type": "function"
    },
    {
      "inputs": [
        {
          "components": [
            {
              "internalType": "address",
              "name": "sender",
              "type": "address"
            },
            {
              "internalType": "enum SwapKind",
              "name": "kind",
              "type": "uint8"
            },
            {
              "internalType": "address",
              "name": "pool",
              "type": "address"
            },
            {
              "internalType": "contract IERC20",
              "name": "tokenIn",
              "type": "address"
            },
            {
              "internalType": "contract IERC20",
              "name": "tokenOut",
              "type": "address"
            },
            {
              "internalType": "uint256",
              "name": "amountGiven",
              "type": "uint256"
            },
            {
              "internalType": "uint256",
              "name": "limit",
              "type": "uint256"
            },
            {
              "internalType": "uint256",
              "name": "deadline",
              "type": "uint256"
            },
            {
              "internalType": "bool",
              "name": "wethIsEth",
              "type": "bool"
            },
            {
              "internalType": "bytes",
              "name": "userData",
              "type": "bytes"
            }
          ],
          "internalType": "struct IRouter.SwapSingleTokenHookParams",
          "name": "params",
          "type": "tuple"
        }
      ],
      "name": "swapSingleTokenHook",
      "outputs": [
        {
          "internalType": "uint256",
          "name": "",
          "type": "uint256"
        }
      ],
      "stateMutability": "nonpayable",
      "type": "function"
    },
    {
      "inputs": [],
      "name": "version",
      "outputs": [
        {
          "internalType": "string",
          "name": "",
          "type": "string"
        }
      ],
      "stateMutability": "view",
      "type": "function"
    },
    {
      "stateMutability": "payable",
      "type": "receive"
    }
  ],
  "bytecode": "0x6101206040908082523461046557615cdc803803809161001f8285610484565b83398101916080828403126104655781516001600160a01b039283821682036104655760209081810151928584168403610465578482015195861686036104655760608201516001600160401b0392838211610465570190601f9088828401121561046557825184811161045157601f199388519a6100a4888787860116018d610484565b828c5287838301011161046557815f928c898080950191015e8b01015261010987516100cf81610469565b600b81526a14d95b99195c91dd585c9960aa1b878201528851906100f282610469565b600682526539b2b73232b960d11b888301526104a7565b60805260a0528751928311610451575f54916001928381811c91168015610447575b86821014610433578281116103f0575b50849184116001146103915750829182916101bb969798995f94610386575b50501b915f199060031b1c1916175f555b835161017681610469565b600c81526b2937baba32b921b7b6b6b7b760a11b82820152701a5cd4995d1d5c9b915d1a131bd8dad959607a1b8551926101af84610469565b601184528301526104a7565b60c05260e05261010091825251615782918261055a83396080518281816104ed0152818161099e01528181610bd20152818161111b015281816120ab0152818161291b01528181614d340152614e0a015260a0518281816103150152818161048c0152818161061a015281816107aa0152818161093e01528181610b9b01528181610d3f01528181610e9101528181610fa9015281816112b10152818161138f0152818161167601528181611ad801528181611c1801528181611cc101528181611de001528181611f89015281816121040152818161275e015281816128bb01528181612a6a01528181612b3701528181612d0201528181613644015281816138c10152818161394501528181613f0601528181614e7e015281816151df0152818161539f0152818161545c01526154ac015260c051828181614cbe0152615115015260e05182818160220152818161180e015281816118be01528181611ce201528181611d3601528181611f2b015281816122aa015281816124260152818161360201528181613af501528181613c750152818161547d0152615546015251818181611dbc015281816122d801528181612e93015281816130590152818161315b0152613b220152f35b015192505f8061015a565b83929316905f8052845f20915f5b8181106103db575098836101bb9798999a106103c3575b505050811b015f5561016b565b01515f1960f88460031b161c191690555f80806103b6565b8a83015184559285019291860191860161039f565b5f8052855f208380870160051c82019288881061042a575b0160051c019084905b82811061041f57505061013b565b5f8155018490610411565b92508192610408565b634e487b7160e01b5f52602260045260245ffd5b90607f169061012b565b634e487b7160e01b5f52604160045260245ffd5b5f80fd5b604081019081106001600160401b0382111761045157604052565b601f909101601f19168101906001600160401b0382119082101761045157604052565b90610514603a60209260405193849181808401977f62616c616e6365722d6c6162732e76332e73746f726167652e000000000000008952805191829101603986015e830190601760f91b60398301528051928391018583015e015f8382015203601a810184520182610484565b5190205f1981019081116105455760405190602082019081526020825261053a82610469565b9051902060ff191690565b634e487b7160e01b5f52601160045260245ffdfe60806040526004361015610072575b3615610018575f80fd5b6001600160a01b037f000000000000000000000000000000000000000000000000000000000000000016330361004a57005b7f0540ddf6000000000000000000000000000000000000000000000000000000005f5260045ffd5b5f3560e01c8063026b3d9514613d25578063086fad661461391d57806308c04793146137ff5780630ca078ec146137675780630f71088814613626578063107c279f146135e3578063175d44081461350457806319c6989f14612eb75780631bbf2e2314612e745780631d56798d14612cd957806323b3924114612ad75780633ebc54e51461295a578063452db952146127d657806351682750146126c357806353d0bb981461260e57806354fd4d50146124d15780635b343791146120dc5780635e01eb5a146120975780635f9815ff14611f5457806368a24fe014611c59578063724dba3314611b4057806372657d17146119f5578063750283bc146119785780637b03c7ba1461164857806382bf2b241461157457806382cd54fb1461132c57806394e86ef8146111a15780639de9051814610f82578063ac9650d814610f3e578063b037ed3614610dad578063b24bd57114610c63578063be5ae84114610c0e578063bf6ee3fd14610a75578063c08bc851146109dd578063c330c7be14610816578063da001f7d14610685578063e7326def14610534578063ecb2182c146103965763efd85f140361000e57346103925761023136614177565b610239614e74565b6001600160a01b039061024e602082016146d3565b610257826146d3565b9261026560408401846146e7565b9093608081013593600585101561039257836102d0610311966060856102bb5f9c9b6102ab99878f9e61029e60c06102d79d018761473b565b9a909b6040519e8f614038565b168d521660208c0152369161408f565b604089015201356060870152608086016148ac565b3691614126565b60a08201526040519485809481937f4af29ec400000000000000000000000000000000000000000000000000000000835260048301614be4565b03927f0000000000000000000000000000000000000000000000000000000000000000165af18015610387575f905f925f9161035d575b50610359906040519384938461426b565b0390f35b9050610359925061038091503d805f833e6103788183614054565b81019061496f565b9092610348565b6040513d5f823e3d90fd5b5f80fd5b61044c6103c55f61043e816104886103ad366145d1565b97939a92999094916103be33614e05565b9a83615191565b9790946001600160a01b039b8c96604051946103e086613feb565b33865260209e8f9116908601526040850152606084015260016080840152151560a083015260c08201526040519283917f7b03c7ba000000000000000000000000000000000000000000000000000000008c84015260248301614a8c565b03601f198101835282614054565b6040519586809481937f48c894910000000000000000000000000000000000000000000000000000000083528b60048401526024830190614246565b03927f0000000000000000000000000000000000000000000000000000000000000000165af1918215610387576104db926104d3915f91610512575b50858082518301019101614aea565b509050614bd0565b51906104ea575b604051908152f35b5f7f00000000000000000000000000000000000000000000000000000000000000005d6104e2565b61052e91503d805f833e6105268183614054565b8101906146ad565b866104c4565b61043e6105da5f8061061661056561054b366145d1565b9161055e9b959b9a949691939a33614e05565b9a8c615191565b50916001600160a01b03956040519361057d85613feb565b3385528760209d168d8601526040850152606084015260026080840152151560a083015260c08201526040519283917f7b03c7ba000000000000000000000000000000000000000000000000000000008b84015260248301614a8c565b6040519485809481937f48c894910000000000000000000000000000000000000000000000000000000083528a60048401526024830190614246565b03927f0000000000000000000000000000000000000000000000000000000000000000165af180156103875761065c915f9161066b575b50838082518301019101614aea565b5050906104ea57604051908152f35b61067f91503d805f833e6105268183614054565b8461064d565b346103925760806003193601126103925761069e613f7f565b67ffffffffffffffff602435818111610392576106bf9036906004016140dd565b906106c8613fc1565b606435918211610392576107a65f929161043e61076a6106f66106f08796369060040161415c565b93614e05565b966001600160a01b03936040519161070d83613feb565b3083528560209b168b8401526040830152866060830152600160808301528660a083015260c08201526040519283917fefd85f14000000000000000000000000000000000000000000000000000000008b840152602483016148f2565b6040519485809481937fedfa35680000000000000000000000000000000000000000000000000000000083528a60048401526024830190614246565b03927f0000000000000000000000000000000000000000000000000000000000000000165af18015610387576107ec915f916107fc575b5083808251830101910161496f565b509190506104ea57604051908152f35b61081091503d805f833e6105268183614054565b846107dd565b346103925760a06003193601126103925761082f613f7f565b67ffffffffffffffff604435818111610392576108509036906004016140dd565b91610859613f95565b91608435908111610392575f9361043e6108fd869461088861088261093a96369060040161415c565b97614e05565b966001600160a01b039485604051936108a085613feb565b30855216602084015260408301526024356060830152600360808301528660a083015260c08201526040519283917fb24bd57100000000000000000000000000000000000000000000000000000000602084015260248301614a8c565b6040519586809481937fedfa3568000000000000000000000000000000000000000000000000000000008352602060048401526024830190614246565b03927f0000000000000000000000000000000000000000000000000000000000000000165af19182156103875761035992610986915f916109c3575b5060208082518301019101614aea565b9093919261099b575b604051938493846145a6565b5f7f00000000000000000000000000000000000000000000000000000000000000005d61098f565b6109d791503d805f833e6105268183614054565b84610976565b61043e6105da5f806107a66109f1366141dc565b610a019993919892949933614e05565b986001600160a01b039560405193610a1885613feb565b3385528760209d168d8601526040850152606084015260016080840152151560a083015260c08201526040519283917f5b343791000000000000000000000000000000000000000000000000000000008b840152602483016148f2565b608060031936011261039257610a89613f7f565b67ffffffffffffffff9060243582811161039257610aab9036906004016140dd565b906044359283151580940361039257606435908111610392575f9261043e610b5a8594610adf610b9795369060040161415c565b610ae833614e05565b986001600160a01b03958660405194610b0086613feb565b33865216602085015260408401528760608401526003608084015260a083015260c08201526040519283917f5b343791000000000000000000000000000000000000000000000000000000006020840152602483016148f2565b6040519485809481937f48c89491000000000000000000000000000000000000000000000000000000008352602060048401526024830190614246565b03927f0000000000000000000000000000000000000000000000000000000000000000165af1801561038757610bf4575b50610bcf57005b5f7f00000000000000000000000000000000000000000000000000000000000000005d005b610c07903d805f833e6105268183614054565b5081610bc8565b34610392576020610c36610c21366144fa565b610c29614e47565b610c31614e74565b61526b565b50505f7f9b779b17422d0df92223018b32b4d1fa46e071723d6817e2486d003becc55f005d604051908152f35b3461039257610c7136614177565b610c79614e74565b6001600160a01b03610c8d602083016146d3565b610c96836146d3565b91610ca460408501856146e7565b9490608082013593600485101561039257836102d0610d3b96610cf3610d01955f9b606089878f9e61029e60c0610cdc9e018461473b565b168d521660208c0152013560408a0152369161408f565b606087015260808601614a73565b60a08201526040519485809481937f2145789700000000000000000000000000000000000000000000000000000000835260048301614c54565b03927f0000000000000000000000000000000000000000000000000000000000000000165af18015610387575f905f925f91610d83575b5061035990604051938493846145a6565b90506103599250610da691503d805f833e610d9e8183614054565b810190614aea565b9092610d72565b3461039257604060031936011261039257610dc6613f7f565b6001600160a01b0360405190806020937f5f9815ff000000000000000000000000000000000000000000000000000000008585015216602483015230604483015260243560648301526064825260a082019082821067ffffffffffffffff831117610f1157815f91816040527fedfa35680000000000000000000000000000000000000000000000000000000082528560a486015281837fffffffffffffffffffffffffffffffffffffffffffffffffffffffffffffff6087610e8c60c4820182614246565b0301927f0000000000000000000000000000000000000000000000000000000000000000165af190811561038757610ed5925f92610eea575b5050828082518301019101614886565b906103596040519282849384528301906141a9565b610f0a925060a0903d90815f853e610f028285614054565b0101906146ad565b8380610ec5565b7f4e487b71000000000000000000000000000000000000000000000000000000005f52604160045260245ffd5b60206003193601126103925760043567ffffffffffffffff811161039257610f76610f70610359923690600401614352565b90614cb0565b604051918291826143b1565b3461039257610f9c610f9336614294565b92919390614e05565b916001600160a01b0390817f00000000000000000000000000000000000000000000000000000000000000001691604051937fca4f280300000000000000000000000000000000000000000000000000000000855216928360048201525f81602481865afa908115610387575f9161117f575b50519461101b86614a42565b955f5b81811061115a5750505f9261043e61109c8886956110d8956040519261104384613feb565b30845260209a8b850152604084015260608301528660808301528660a083015260c08201526040519283917fefd85f14000000000000000000000000000000000000000000000000000000008a840152602483016148f2565b6040519485809481937fedfa35680000000000000000000000000000000000000000000000000000000083528960048401526024830190614246565b03925af18015610387576110fc915f91611140575b5082808251830101910161496f565b505091611118575b6103596040519282849384528301906141a9565b5f7f00000000000000000000000000000000000000000000000000000000000000005d611104565b61115491503d805f833e6105268183614054565b846110ed565b806fffffffffffffffffffffffffffffffff6111786001938b614bd0565b520161101e565b61119b91503d805f833e6111938183614054565b8101906149b8565b8661100f565b6111aa3661452d565b949095939193336111ba90614e05565b97604051996111c88b61401b565b338b5260208b01600190526001600160a01b031660408b01526001600160a01b031660608a01526001600160a01b0316608089015260a088015260c087015260e08601521515610100850152369061121f92614126565b6101208301526040517f68a24fe000000000000000000000000000000000000000000000000000000000602082015291829061125e9060248301614b3f565b03601f19810183526112709083614054565b60405180927f48c894910000000000000000000000000000000000000000000000000000000082526004820160209052602482016112ad91614246565b03827f00000000000000000000000000000000000000000000000000000000000000006001600160a01b031691815a5f948591f1918215610387575f92611310575b5060208280518101031261039257602080920151906104ea57604051908152f35b6113259192503d805f833e6105268183614054565b90826112ef565b3461039257608060031936011261039257611345613f7f565b61134d613fab565b906064359067ffffffffffffffff8211610392576113726113e89236906004016140dd565b9061137b614e47565b611383614e74565b6001600160a01b035f817f00000000000000000000000000000000000000000000000000000000000000001693604051809681927fa07d60400000000000000000000000000000000000000000000000000000000083526044358a88600486016147f6565b038183875af1938415610387575f94611550575b5080604051927fca4f28030000000000000000000000000000000000000000000000000000000084521660048301525f82602481865afa918215610387575f92611534575b505f5b82518110156114f0576114578186614bd0565b519081611469575b6001915001611444565b826114748286614bd0565b5116853b15610392576040517fae6393290000000000000000000000000000000000000000000000000000000081526001600160a01b039182166004820152908816602482015260448101929092525f8260648183895af1918215610387576001926114e1575b5061145f565b6114ea90614007565b876114db565b610359856114fd8861510c565b5f7f9b779b17422d0df92223018b32b4d1fa46e071723d6817e2486d003becc55f005d6040519182916020835260208301906141a9565b6115499192503d805f833e6111938183614054565b9085611441565b61156d9194503d805f833e6115658183614054565b810190614886565b92856113fc565b5f61043e8161093a61160b61158836614491565b9061159898949295939833614e05565b986001600160a01b039687604051956115b087613feb565b3387521660208601526040850152606084015260036080840152151560a083015260c08201526040519283917f7b03c7ba00000000000000000000000000000000000000000000000000000000602084015260248301614a8c565b6040519586809481937f48c89491000000000000000000000000000000000000000000000000000000008352602060048401526024830190614246565b346103925761165636614177565b61165e614e47565b611666614e74565b6001600160a01b039060208101907f0000000000000000000000000000000000000000000000000000000000000000908382166116a2846146d3565b946116ac836146d3565b6116b960408501856146e7565b979091608086013590600482101561039257846102d061171593610cf35f9761174d9e6116ea8d60c081019061473b565b969097816040519b6116fb8d614038565b168b521660208a015260608d013560408a0152369161408f565b60a0820152604051809881927f2145789700000000000000000000000000000000000000000000000000000000835260048301614c54565b038183865af1908115610387575f955f975f9361194f575b5061176f906146d3565b9681604051987fca4f2803000000000000000000000000000000000000000000000000000000008a521660048901525f88602481875afa978815610387575f98611933575b50919560a0850192905f5b89518110156118ee576117d28184614bd0565b519081156118e557846117e5828d614bd0565b51166117f0876147e9565b806118ba575b15611838575061183260019261180b8a6146d3565b8b7f0000000000000000000000000000000000000000000000000000000000000000615575565b016117bf565b611841896146d3565b883b15610392576040517fae6393290000000000000000000000000000000000000000000000000000000081526001600160a01b0392831660048201529116602482015260448101929092525f82606481838b5af1918215610387576001926118ab575b50611832565b6118b490614007565b8b6118a5565b50857f00000000000000000000000000000000000000000000000000000000000000001681146117f6565b60019150611832565b50610359886119046118ff896146d3565b61510c565b5f7f9b779b17422d0df92223018b32b4d1fa46e071723d6817e2486d003becc55f005d604051938493846145a6565b6119489198503d805f833e6111938183614054565b96886117b4565b90925061196c91975061176f96503d805f833e610d9e8183614054565b97919690979290611765565b6119813661452d565b9490959391933361199190614e05565b976040519961199f8b61401b565b338b5260208b015f90526001600160a01b031660408b01526001600160a01b031660608a01526001600160a01b0316608089015260a088015260c087015260e08601521515610100850152369061121f92614126565b60c060031936011261039257611a09613f7f565b611a11613fab565b611a196140fb565b60a4359067ffffffffffffffff8211610392575f611ad4611a3f8294369060040161415c565b9261043e61044c611a5d611a5233614e05565b98604435908b615191565b966001600160a01b039460405192611a7484613feb565b3384528660209d168d8501526040840152606435606084015260026080840152151560a083015260c08201526040519283917f5b343791000000000000000000000000000000000000000000000000000000008c840152602483016148f2565b03927f0000000000000000000000000000000000000000000000000000000000000000165af1918215610387576104db92611b1f915f91611b26575b5085808251830101910161496f565b5050614bd0565b611b3a91503d805f833e6105268183614054565b86611b10565b61043e611bd85f80611c14611b54366141dc565b611b65999391999892949833614e05565b996001600160a01b039560405193611b7c85613feb565b3385528760209c168c86015260408501526060840152876080840152151560a083015260c08201526040519283917f5b343791000000000000000000000000000000000000000000000000000000008a840152602483016148f2565b6040519485809481937f48c894910000000000000000000000000000000000000000000000000000000083528960048401526024830190614246565b03927f0000000000000000000000000000000000000000000000000000000000000000165af18015610387576110fc915f91611140575082808251830101910161496f565b3461039257611c67366144fa565b611c6f614e47565b611c77614e74565b611c808161526b565b611c8e6060859395016146d3565b90611c98836146d3565b94610100840195611ca8876147e9565b80611f1f575b15611d9c575094611d2b91611d066020977f00000000000000000000000000000000000000000000000000000000000000007f0000000000000000000000000000000000000000000000000000000000000000614f16565b611d0f856146d3565b91611d25611d1f608088016146d3565b916147e9565b92615443565b6001600160a01b03807f000000000000000000000000000000000000000000000000000000000000000016911614611d8a575b505f7f9b779b17422d0df92223018b32b4d1fa46e071723d6817e2486d003becc55f005d604051908152f35b6118ff611d96916146d3565b82611d5e565b81611db0575b5050602094611d2b91611d06565b6001600160a01b0390817f00000000000000000000000000000000000000000000000000000000000000001691807f00000000000000000000000000000000000000000000000000000000000000001691611e0a85614ed2565b93803b15610392576040517f36c785160000000000000000000000000000000000000000000000000000000081526001600160a01b039283166004820152848316602482015294821660448601529187161660648401525f908390608490829084905af1908115610387575f93602093611ed093611f10575b506040519485809481937f15afd4090000000000000000000000000000000000000000000000000000000083528a60048401602090939291936001600160a01b0360408201951681520152565b03925af1801561038757611ee5575b80611da2565b602090813d8311611f09575b611efb8183614054565b810103126103925785611edf565b503d611ef1565b611f1990614007565b8a611e83565b506001600160a01b03807f00000000000000000000000000000000000000000000000000000000000000001690851614611cae565b3461039257606060031936011261039257611f6d613f7f565b611f75613fab565b611f7d614e74565b6001600160a01b0390817f000000000000000000000000000000000000000000000000000000000000000016604051927fca4f2803000000000000000000000000000000000000000000000000000000008452841660048401525f83602481845afa938415610387575f611ffe612039968296839161207d575b5051614a42565b93604051968795869485937fa07d604000000000000000000000000000000000000000000000000000000000855260443591600486016147f6565b03925af1801561038757610359915f91612063575b506040519182916020835260208301906141a9565b61207791503d805f833e6115658183614054565b8261204e565b61209191503d8085833e6111938183614054565b88611ff7565b34610392575f6003193601126103925760207f00000000000000000000000000000000000000000000000000000000000000005c6001600160a01b0360405191168152f35b34610392576120ea36614177565b6120f2614e47565b6120fa614e74565b6001600160a01b037f00000000000000000000000000000000000000000000000000000000000000008181169260209081810190612137826146d3565b95612141826146d3565b9661214f60408401846146e7565b919098608085013591600583101561039257896102d0612193946121a26121f29e5f988d866121ba996121868f60c081019061473b565b99909a6040519d8e614038565b168c5216908a0152369161408f565b604087015260608901356060870152608086016148ac565b60a0820152604051809981927f4af29ec400000000000000000000000000000000000000000000000000000000835260048301614be4565b038183855af1958615610387575f935f985f986124a8575b50612214906146d3565b81604051917fca4f28030000000000000000000000000000000000000000000000000000000083521660048201525f81602481865afa908115610387575f9161248e575b50969760a0840197905f5b825181101561244d57836122778285614bd0565b51166122838289614bd0565b519081156123e0576122948c6147e9565b80612422575b156122d45750906122ce6001928b7f0000000000000000000000000000000000000000000000000000000000000000614f16565b01612263565b90857f00000000000000000000000000000000000000000000000000000000000000001690612302896146d3565b61230b82614ed2565b833b15610392576040517f36c785160000000000000000000000000000000000000000000000000000000081526001600160a01b0392831660048201528a831660248201529082166044820152908416606482015292915f908490608490829084905af1918215610387576123cc938c93612413575b5060405193849283927f15afd40900000000000000000000000000000000000000000000000000000000845260048401602090939291936001600160a01b0360408201951681520152565b03815f8a5af19081156103875789916123ea575b50506001906122ce565b813d831161240c575b6123fd8183614054565b8101031261039257878c6123e0565b503d6123f3565b61241c90614007565b8f612381565b50857f000000000000000000000000000000000000000000000000000000000000000016811461229a565b50856103598b61245f6118ff896146d3565b5f7f9b779b17422d0df92223018b32b4d1fa46e071723d6817e2486d003becc55f005d6040519384938461426b565b6124a291503d805f833e6111938183614054565b89612258565b9097506124c591985061221494503d805f833e6103788183614054565b9891949098979061220a565b34610392575f600319360112610392576040515f5f549060018260011c9160018416918215612604575b60209485851084146125d75785879486865291825f14612599575050600114612540575b5061252c92500383614054565b610359604051928284938452830190614246565b5f808052859250907f290decd9548b62a8d60345a988386fc84ba6bc95484008f6362f93160ef3e5635b85831061258157505061252c93508201018561251f565b8054838901850152879450869390920191810161256a565b7fffffffffffffffffffffffffffffffffffffffffffffffffffffffffffffff00168582015261252c95151560051b850101925087915061251f9050565b7f4e487b71000000000000000000000000000000000000000000000000000000005f52602260045260245ffd5b92607f16926124fb565b346103925761263f6126385f8061061661076a61043e61262d36614432565b95939a929990614e05565b988a615191565b506001600160a01b03936040519161265683613feb565b3083528560209b168b84015260408301526fffffffffffffffffffffffffffffffff6060830152600260808301528660a083015260c08201526040519283917fb24bd571000000000000000000000000000000000000000000000000000000008b84015260248301614a8c565b61043e611bd85f8061275a6126d736614491565b6126e79993949892919933614e05565b996001600160a01b0395604051936126fe85613feb565b3385528760209c168c86015260408501526060840152876080840152151560a083015260c08201526040519283917f7b03c7ba000000000000000000000000000000000000000000000000000000008a84015260248301614a8c565b03927f0000000000000000000000000000000000000000000000000000000000000000165af18015610387576127a0915f916127bc575b50828082518301019101614aea565b50929050611118576103596040519282849384528301906141a9565b6127d091503d805f833e6105268183614054565b84612791565b346103925760a0600319360112610392576127ef613f7f565b67ffffffffffffffff602435818111610392576128109036906004016140dd565b91612819613f95565b91608435908111610392575f9361043e6108fd86946128426108826128b796369060040161415c565b966001600160a01b0394856040519361285a85613feb565b30855216602084015260408301526044356060830152600460808301528660a083015260c08201526040519283917fefd85f14000000000000000000000000000000000000000000000000000000006020840152602483016148f2565b03927f0000000000000000000000000000000000000000000000000000000000000000165af19182156103875761035992612903915f91612940575b506020808251830101910161496f565b90939192612918575b6040519384938461426b565b5f7f00000000000000000000000000000000000000000000000000000000000000005d61290c565b61295491503d805f833e6105268183614054565b846128f3565b3461039257612968366142e6565b906129769094939294614e05565b936001600160a01b038093816040519661298f8861401b565b3388528160209a8b8a015f905216604089015216606087015216608085015260a084015260c083015f905260e083016fffffffffffffffffffffffffffffffff905261010083015f905261012083015260405180928582017fbe5ae8410000000000000000000000000000000000000000000000000000000090526024820190612a1891614b3f565b03601f1981018352612a2a9083614054565b6040518080937fedfa356800000000000000000000000000000000000000000000000000000000825286600483015260248201612a6691614246565b03917f00000000000000000000000000000000000000000000000000000000000000001691815a5f948591f1908115610387575f91612abd575b50828180518101031261039257820151906104ea57604051908152f35b612ad191503d805f833e6105268183614054565b83612aa0565b346103925760a060031936011261039257612af0613f7f565b612af8613fc1565b90612b01613f95565b60843567ffffffffffffffff811161039257612b24612b2a91369060040161415c565b91614e05565b916001600160a01b0391827f0000000000000000000000000000000000000000000000000000000000000000169280604051937fc9c1661b0000000000000000000000000000000000000000000000000000000085521695866004850152166024830152604082604481865afa918215610387575f905f93612c9a575b505f9361043e612c368694612bbe612c7295614a42565b906001612bcb8984614bd0565b5260405191612bd983613feb565b30835260209b8c84015260408301526024356060830152600160808301528660a083015260c08201526040519283917fb24bd571000000000000000000000000000000000000000000000000000000008c84015260248301614a8c565b6040519586809481937fedfa35680000000000000000000000000000000000000000000000000000000083528b60048401526024830190614246565b03925af1918215610387576104db926104d3915f916105125750858082518301019101614aea565b925050916040823d604011612cd1575b81612cb760409383614054565b81010312610392578151602090920151909290915f612ba7565b3d9150612caa565b3461039257612cf5612cea36614432565b929490939193614e05565b926001600160a01b0392837f0000000000000000000000000000000000000000000000000000000000000000169380604051947fc9c1661b0000000000000000000000000000000000000000000000000000000086521696876004860152166024840152604083604481875afa928315610387575f905f94612e37575b509361043e612c365f9694612e0f94612d8b8997614a42565b916fffffffffffffffffffffffffffffffff612da78a85614bd0565b5260405192612db584613feb565b30845260209c8d85015260408401526060830152600260808301528660a083015260c08201526040519283917fefd85f14000000000000000000000000000000000000000000000000000000008c840152602483016148f2565b03925af1918215610387576104db92611b1f915f91611b26575085808251830101910161496f565b9350506040833d604011612e6c575b81612e5360409383614054565b810103126103925782516020909301519261043e612d72565b3d9150612e46565b34610392575f6003193601126103925760206040516001600160a01b037f0000000000000000000000000000000000000000000000000000000000000000168152f35b60a06003193601126103925767ffffffffffffffff60043511610392573660236004350112156103925767ffffffffffffffff60043560040135116103925736602460c060043560040135026004350101116103925760243567ffffffffffffffff811161039257612f2d903690600401614352565b67ffffffffffffffff60443511610392576060600319604435360301126103925760643567ffffffffffffffff811161039257612f6e903690600401614383565b60843567ffffffffffffffff811161039257612f8e903690600401614352565b949093612f99614e47565b8060043560040135036134dc575f5b6004356004013581106132295750505060443560040135907fffffffffffffffffffffffffffffffffffffffffffffffffffffffffffffffdd60443536030182121561039257816044350160048101359067ffffffffffffffff82116103925760248260071b36039101136103925761304c575b610359610f7686865f7f9b779b17422d0df92223018b32b4d1fa46e071723d6817e2486d003becc55f005d614cb0565b6001600160a01b039492947f0000000000000000000000000000000000000000000000000000000000000000163b1561039257604051947f2a2d80d10000000000000000000000000000000000000000000000000000000086523360048701526060602487015260c486019260443501602481019367ffffffffffffffff60048301351161039257600482013560071b360385136103925760606064890152600482013590529192869260e484019291905f905b600481013582106131ab5750505082915f9461314e926001600160a01b0361312c602460443501613fd7565b16608486015260448035013560a486015260031985840301604486015261478c565b0381836001600160a01b037f0000000000000000000000000000000000000000000000000000000000000000165af19182156103875761035993610f769361319c575b82945081935061301c565b6131a590614007565b84613191565b9195945091926001600160a01b036131c287613fd7565b168152602080870135916001600160a01b038316809303610392576004926001928201526131f26040890161517e565b65ffffffffffff809116604083015261320d60608a0161517e565b1660608201526080809101970193019050889495939291613100565b6132376102d0828486614dee565b60405180606081011067ffffffffffffffff606083011117610f1157606081016040525f81526020915f838301525f60408301528281015190606060408201519101515f1a91835283830152604082015260c07fffffffffffffffffffffffffffffffffffffffffffffffffffffffffffffffdc818502600435013603011261039257604051906132c782614038565b6132da602460c086026004350101613fd7565b8083526132f0604460c087026004350101613fd7565b908185850152613309606460c088026004350101613fd7565b60408581019190915260043560c08802016084810135606087015260a4810135608087015260c4013560a086015283015183519386015160ff91909116926001600160a01b0383163b15610392575f6001600160a01b03809460e4948b98849860c460c06040519c8d9b8c9a7fd505accf000000000000000000000000000000000000000000000000000000008c521660048b01523060248b0152608482820260043501013560448b0152026004350101356064880152608487015260a486015260c4850152165af190816134cd575b506134c3576133e661514f565b906001600160a01b0381511690836001600160a01b0381830151166044604051809581937fdd62ed3e00000000000000000000000000000000000000000000000000000000835260048301523060248301525afa918215610387575f92613493575b50606001510361345e5750506001905b01612fa8565b80511561346b5780519101fd5b7fa7285689000000000000000000000000000000000000000000000000000000005f5260045ffd5b9091508381813d83116134bc575b6134ab8183614054565b810103126103925751906060613448565b503d6134a1565b5050600190613458565b6134d690614007565b8a6133d9565b7faaad13f7000000000000000000000000000000000000000000000000000000005f5260045ffd5b3461039257613512366142e6565b906135209094939294614e05565b936001600160a01b03809381604051966135398861401b565b3388528160209a8b8a016001905216604089015216606087015216608085015260a084015260c083016fffffffffffffffffffffffffffffffff905260e083017fffffffffffffffffffffffffffffffffffffffffffffffffffffffffffffffff905261010083015f905261012083015260405180928582017fbe5ae8410000000000000000000000000000000000000000000000000000000090526024820190612a1891614b3f565b34610392575f6003193601126103925760206040516001600160a01b037f0000000000000000000000000000000000000000000000000000000000000000168152f35b3461039257613637610f9336614294565b926001600160a01b0392837f00000000000000000000000000000000000000000000000000000000000000001693604051937fca4f280300000000000000000000000000000000000000000000000000000000855216938460048501525f84602481845afa9384156103875761109c5f959461372a946136c3889761043e95899161374d575051614a42565b91604051926136d184613feb565b30845260209a8b850152604084015260608301528660808301528660a083015260c08201526040519283917fb24bd571000000000000000000000000000000000000000000000000000000008a84015260248301614a8c565b03925af18015610387576127a0915f916127bc5750828082518301019101614aea565b61376191503d808b833e6111938183614054565b8c611ff7565b5f61043e816128b761160b61377b366141dc565b9061378c9894929895939533614e05565b986001600160a01b039687604051956137a487613feb565b3387521660208601526040850152606084015260046080840152151560a083015260c08201526040519283917f5b343791000000000000000000000000000000000000000000000000000000006020840152602483016148f2565b606060031936011261039257613813613f7f565b60443567ffffffffffffffff8111610392575f61043e61387a61383d6138b49436906004016140dd565b6040519283916020977f82cd54fb0000000000000000000000000000000000000000000000000000000089850152602435903390602486016147f6565b604051809381927f48c894910000000000000000000000000000000000000000000000000000000083528660048401526024830190614246565b0381836001600160a01b037f0000000000000000000000000000000000000000000000000000000000000000165af1801561038757610ed5915f91613903575b50828082518301019101614886565b61391791503d805f833e6105268183614054565b836138f4565b346103925761392b36614177565b613933614e47565b61393b614e74565b6001600160a01b037f00000000000000000000000000000000000000000000000000000000000000006020826139728583016146d3565b9461397c816146d3565b95604082019661398c88846146e7565b9061399a60608601866146e7565b939092806139ab60c089018961473b565b6040517fba8a2be0000000000000000000000000000000000000000000000000000000008152988e1660048a01529c909316602488015260c0604488015260c487015294999460e48b0192905f5b8a828210613d0657505050506003198a83030160648b01528382527f07ffffffffffffffffffffffffffffffffffffffffffffffffffffffffffffff8411610392578794858b9594613a6d94879660051b8092848301370160808901356084870152601c8682030160a4870152019161478c565b03815f8689165af1948515610387575f95613cd7575b50939460a0850194905f5b613a9882846146e7565b9050811015613c9e57613abd613ab882613ab285876146e7565b906147ac565b6146d3565b613ace82613ab260608701876146e7565b35908115613c2f57613adf896147e9565b80613c71575b15613b1f575090613b19600192887f0000000000000000000000000000000000000000000000000000000000000000614f16565b01613a8e565b857f00000000000000000000000000000000000000000000000000000000000000001691613b4c866146d3565b613b5582614ed2565b843b15610392576040517f36c785160000000000000000000000000000000000000000000000000000000081526001600160a01b039283166004820152898c168316602482015290821660448201528389169091166064820152925f908490608490829084905af191821561038757613c19938993613c62575060405193849283927f15afd40900000000000000000000000000000000000000000000000000000000845260048401602090939291936001600160a01b0360408201951681520152565b03815f898c165af1908115610387578691613c39575b5050600190613b19565b813d8311613c5b575b613c4c8183614054565b81010312610392578489613c2f565b503d613c42565b613c6b90614007565b8c612381565b50857f00000000000000000000000000000000000000000000000000000000000000001686821614613ae5565b8488613cac6118ff866146d3565b5f7f9b779b17422d0df92223018b32b4d1fa46e071723d6817e2486d003becc55f005d604051908152f35b9094508281813d8311613cff575b613cef8183614054565b8101031261039257519386613a83565b503d613ce5565b8084968c613d176001959697613fd7565b1681520195019291016139f9565b60c060031936011261039257613d39613f7f565b6024359067ffffffffffffffff808311610392573660238401121561039257826004013591613d6783614077565b92613d756040519485614054565b80845260209460248686019260051b82010191368311610392576024879201905b838210613f68575050505060443582811161039257613db99036906004016140dd565b92613dc26140fb565b9260a43590811161039257613ddb90369060040161415c565b93613de533614e05565b946001600160a01b039460405192613dfc84613feb565b338452868985019616865260408401948552606084019081526080840194606435865260a08501921515835260c0850193845287604051977f086fad66000000000000000000000000000000000000000000000000000000008c8a01528b60248a0152816101248a0197511660448a015251166064880152519360e0608488015284518091528961014488019501905f5b8b828210613f5257505050509461043e613f02955f989583956105da95613ee28c9b51937fffffffffffffffffffffffffffffffffffffffffffffffffffffffffffffffbc94858983030160a48a0152614634565b935160c487015251151560e4860152519084830301610104850152614246565b03927f0000000000000000000000000000000000000000000000000000000000000000165af1908115610387575f91612abd5750828180518101031261039257820151906104ea57604051908152f35b83518b1688529687019690920191600101613e8d565b828091613f7484613fd7565b815201910190613d96565b600435906001600160a01b038216820361039257565b606435906001600160a01b038216820361039257565b602435906001600160a01b038216820361039257565b604435906001600160a01b038216820361039257565b35906001600160a01b038216820361039257565b60e0810190811067ffffffffffffffff821117610f1157604052565b67ffffffffffffffff8111610f1157604052565b610140810190811067ffffffffffffffff821117610f1157604052565b60c0810190811067ffffffffffffffff821117610f1157604052565b90601f601f19910116810190811067ffffffffffffffff821117610f1157604052565b67ffffffffffffffff8111610f115760051b60200190565b929161409a82614077565b916140a86040519384614054565b829481845260208094019160051b810192831161039257905b8282106140ce5750505050565b813581529083019083016140c1565b9080601f83011215610392578160206140f89335910161408f565b90565b60843590811515820361039257565b67ffffffffffffffff8111610f1157601f01601f191660200190565b9291926141328261410a565b916141406040519384614054565b829481845281830111610392578281602093845f960137010152565b9080601f83011215610392578160206140f893359101614126565b60031990602082820112610392576004359167ffffffffffffffff8311610392578260e0920301126103925760040190565b9081518082526020808093019301915f5b8281106141c8575050505090565b8351855293810193928101926001016141ba565b9060a0600319830112610392576004356001600160a01b0381168103610392579167ffffffffffffffff90602435828111610392578161421e916004016140dd565b926044359260643580151581036103925792608435918211610392576140f89160040161415c565b90601f19601f602080948051918291828752018686015e5f8582860101520116010190565b6142816140f894926060835260608301906141a9565b9260208201526040818403910152614246565b6080600319820112610392576001600160a01b03906004358281168103610392579260243592604435908116810361039257916064359067ffffffffffffffff8211610392576140f89160040161415c565b60c0600319820112610392576001600160a01b0391600435838116810361039257926024358181168103610392579260443582811681036103925792606435926084359081168103610392579160a4359067ffffffffffffffff8211610392576140f89160040161415c565b9181601f840112156103925782359167ffffffffffffffff8311610392576020808501948460051b01011161039257565b9181601f840112156103925782359167ffffffffffffffff8311610392576020838186019501011161039257565b6020808201906020835283518092526040830192602060408460051b8301019501935f915b8483106143e65750505050505090565b9091929394958480614422837fffffffffffffffffffffffffffffffffffffffffffffffffffffffffffffffc086600196030187528a51614246565b98019301930191949392906143d6565b9060a0600319830112610392576001600160a01b03600435818116810361039257926024358281168103610392579260443592606435908116810361039257916084359067ffffffffffffffff8211610392576140f89160040161415c565b60a0600319820112610392576004356001600160a01b038116810361039257916024359167ffffffffffffffff9160443583811161039257826144d6916004016140dd565b9260643580151581036103925792608435918211610392576140f89160040161415c565b60031990602082820112610392576004359167ffffffffffffffff83116103925782610140920301126103925760040190565b610100600319820112610392576001600160a01b0390600435828116810361039257926024358381168103610392579260443590811681036103925791606435916084359160a4359160c4358015158103610392579160e4359067ffffffffffffffff8211610392576145a291600401614383565b9091565b916145c3906140f8949284526060602085015260608401906141a9565b916040818403910152614246565b60c0600319820112610392576001600160a01b0390600435828116810361039257926024359260443590811681036103925791606435916084358015158103610392579160a4359067ffffffffffffffff8211610392576140f89160040161415c565b9081518082526020808093019301915f5b828110614653575050505090565b835185529381019392810192600101614645565b81601f820112156103925780519061467e8261410a565b9261468c6040519485614054565b8284526020838301011161039257815f9260208093018386015e8301015290565b9060208282031261039257815167ffffffffffffffff8111610392576140f89201614667565b356001600160a01b03811681036103925790565b9035907fffffffffffffffffffffffffffffffffffffffffffffffffffffffffffffffe181360301821215610392570180359067ffffffffffffffff821161039257602001918160051b3603831361039257565b9035907fffffffffffffffffffffffffffffffffffffffffffffffffffffffffffffffe181360301821215610392570180359067ffffffffffffffff82116103925760200191813603831361039257565b601f8260209493601f1993818652868601375f8582860101520116010190565b91908110156147bc5760051b0190565b7f4e487b71000000000000000000000000000000000000000000000000000000005f52603260045260245ffd5b3580151581036103925790565b90926140f894936080936001600160a01b038092168452166020830152604082015281606082015201906141a9565b9080601f830112156103925781519060209161484081614077565b9361484e6040519586614054565b81855260208086019260051b82010192831161039257602001905b828210614877575050505090565b81518152908301908301614869565b9060208282031261039257815167ffffffffffffffff8111610392576140f89201614825565b60058210156148b85752565b7f4e487b71000000000000000000000000000000000000000000000000000000005f52602160045260245ffd5b9060058210156148b85752565b906140f891602081526001600160a01b03808351166020830152602083015116604082015260c0614933604084015160e06060850152610100840190614634565b9260608101516080840152614950608082015160a08501906148e5565b60a081015115158284015201519060e0601f1982850301910152614246565b90916060828403126103925781519167ffffffffffffffff92838111610392578461499b918301614825565b936020820151936040830151908111610392576140f89201614667565b60209081818403126103925780519067ffffffffffffffff821161039257019180601f840112156103925782516149ee81614077565b936149fc6040519586614054565b818552838086019260051b820101928311610392578301905b828210614a23575050505090565b81516001600160a01b0381168103610392578152908301908301614a15565b90614a4c82614077565b614a596040519182614054565b828152601f19614a698294614077565b0190602036910137565b60048210156148b85752565b9060048210156148b85752565b906140f891602081526001600160a01b03808351166020830152602083015116604082015260c0614acd604084015160e06060850152610100840190614634565b9260608101516080840152614950608082015160a0850190614a7f565b916060838303126103925782519260208101519267ffffffffffffffff938481116103925781614b1b918401614825565b936040830151908111610392576140f89201614667565b9060028210156148b85752565b6101606140f892602083526001600160a01b03808251166020850152614b6d60208301516040860190614b32565b80604083015116606085015280606083015116608085015260808201511660a084015260a081015160c084015260c081015160e084015260e081015161010090818501528101519061012091151582850152015191610140808201520190614246565b80518210156147bc5760209160051b010190565b906140f891602081526001600160a01b03808351166020830152602083015116604082015260a0614c24604084015160c0606085015260e0840190614634565b9260608101516080840152614c406080820151838501906148e5565b01519060c0601f1982850301910152614246565b906140f891602081526001600160a01b0380835116602083015260208301511660408201526040820151606082015260a0614c9e606084015160c0608085015260e0840190614634565b92614c40608082015183850190614a7f565b9190614cbb33614e05565b907f000000000000000000000000000000000000000000000000000000000000000093845c614dc6576001906001865d614cf483614077565b92614d026040519485614054565b808452601f19614d1182614077565b015f5b818110614db55750505f5b818110614d6c5750505050905f614d6192945d7f0000000000000000000000000000000000000000000000000000000000000000805c91614d63575b5061510c565b565b5f905d5f614d5b565b80614d995f80614d816102d08996888a614dee565b602081519101305af4614d9261514f565b90306156e8565b614da38288614bd0565b52614dae8187614bd0565b5001614d1f565b806060602080938901015201614d14565b7f3ee5aeb5000000000000000000000000000000000000000000000000000000005f5260045ffd5b908210156147bc576145a29160051b81019061473b565b905f917f00000000000000000000000000000000000000000000000000000000000000006001600160a01b03815c1615614e3d575050565b909192505d600190565b7f9b779b17422d0df92223018b32b4d1fa46e071723d6817e2486d003becc55f00805c614dc6576001905d565b6001600160a01b037f0000000000000000000000000000000000000000000000000000000000000000163303614ea657565b7f089676d5000000000000000000000000000000000000000000000000000000005f523360045260245ffd5b6001600160a01b0390818111614ee6571690565b7f6dfcc650000000000000000000000000000000000000000000000000000000005f5260a060045260245260445ffd5b9190918147106150e4576001600160a01b0380911692833b15610392576040918251917fd0e30db00000000000000000000000000000000000000000000000000000000083525f925f81600481898b5af180156150da576150c7575b501692825194602095868101907fa9059cbb000000000000000000000000000000000000000000000000000000008252866024820152836044820152604481526080810181811067ffffffffffffffff821117610f1157865251614fe7918591829182865af1614fe061514f565b90836156e8565b80518781151591826150a2575b5050905061507757906044869284865197889485937f15afd409000000000000000000000000000000000000000000000000000000008552600485015260248401525af191821561506d575050615049575050565b813d8311615066575b61505c8183614054565b8101031261039257565b503d615052565b51903d90823e3d90fd5b7f5274afe7000000000000000000000000000000000000000000000000000000008352600452602482fd5b83809293500103126150c3578601518015908115036150c35780875f614ff4565b8380fd5b6150d2919350614007565b5f915f614f72565b85513d5f823e3d90fd5b7fa01a9df6000000000000000000000000000000000000000000000000000000005f5260045ffd5b47801561514b577f00000000000000000000000000000000000000000000000000000000000000005c61514b576001600160a01b03614d61921661566c565b5050565b3d15615179573d906151608261410a565b9161516e6040519384614054565b82523d5f602084013e565b606090565b359065ffffffffffff8216820361039257565b916044929391936001600160a01b03604094859282808551998a9586947fc9c1661b0000000000000000000000000000000000000000000000000000000086521660048501521660248301527f0000000000000000000000000000000000000000000000000000000000000000165afa938415615261575f935f9561522a575b50506152276152208594614a42565b9485614bd0565b52565b809295508194503d831161525a575b6152438183614054565b810103126103925760208251920151925f80615211565b503d615239565b83513d5f823e3d90fd5b60e0810135421161541b576001600160a01b0360208201359160028310156103925760409261529b8285016146d3565b928060609485938486016152ae906146d3565b956152bb608082016146d3565b90846152cb61012083018361473b565b91908c51956152d987613feb565b8652816020870197168752818d87019b168b52818a870195168552608086019260a0850135845260a087019460c001358552369061531692614126565b9360c08601948552818d519b8c9a8b998a997f2bfb780c000000000000000000000000000000000000000000000000000000008b5260048b016020905260248b0190519061536391614b32565b5116604489015251166064870152511660848501525160a48401525160c48301525160e4820160e09052610104820161539b91614246565b03917f0000000000000000000000000000000000000000000000000000000000000000165a905f91f1908115615261575f935f935f936153de575b505050909192565b92509250809350813d8311615414575b6153f88183614054565b81010312610392578151602083015191909201515f80806153d6565b503d6153ee565b7fe08b8af0000000000000000000000000000000000000000000000000000000005f5260045ffd5b92821561556f578061553a575b156154a15750614d61917f00000000000000000000000000000000000000000000000000000000000000007f0000000000000000000000000000000000000000000000000000000000000000615575565b906001600160a01b037f000000000000000000000000000000000000000000000000000000000000000016803b15610392576040517fae6393290000000000000000000000000000000000000000000000000000000081526001600160a01b03938416600482015293909216602484015260448301525f908290606490829084905af18015610387576155315750565b614d6190614007565b506001600160a01b03807f00000000000000000000000000000000000000000000000000000000000000001690821614615450565b50505050565b9392916001600160a01b03809216803b15610392576040517fae6393290000000000000000000000000000000000000000000000000000000081525f816064818388819c16968760048401523060248401528a60448401525af1801561038757615659575b508086913b156156555781906024604051809481937f2e1a7d4d0000000000000000000000000000000000000000000000000000000083528960048401525af1801561564a57615632575b50614d619394501661566c565b61563c8691614007565b6156465784615625565b8480fd5b6040513d88823e3d90fd5b5080fd5b615664919650614007565b5f945f6155da565b8147106156bc575f8080936001600160a01b038294165af161568c61514f565b501561569457565b7f1425ea42000000000000000000000000000000000000000000000000000000005f5260045ffd5b7fcd786059000000000000000000000000000000000000000000000000000000005f523060045260245ffd5b906156fd575080511561569457805190602001fd5b81511580615743575b61570e575090565b6001600160a01b03907f9996b315000000000000000000000000000000000000000000000000000000005f521660045260245ffd5b50803b1561570656fea26469706673582212204e7d6ff674984d91fa2ea97e805c1b2a23fe7676d6d8a92cac923b6993f6f51964736f6c634300081b0033",
  "linkReferences": {},
  "deployedLinkReferences": {}
}