{
  "_format": "hh-sol-artifact-1",
  "contractName": "TimelockAuthorizerMigrator",
  "sourceName": "contracts/TimelockAuthorizerMigrator.sol",
  "abi": [
    {
      "inputs": [
        {
          "internalType": "address",
          "name": "_root",
          "type": "address"
        },
        {
          "internalType": "contract IBasicAuthorizer",
          "name": "_oldAuthorizer",
          "type": "address"
        },
        {
          "internalType": "contract IVault",
          "name": "_vault",
          "type": "address"
        },
        {
          "internalType": "uint256",
          "name": "_changeRootDelay",
          "type": "uint256"
        },
        {
          "components": [
            {
              "internalType": "address",
              "name": "grantee",
              "type": "address"
            },
            {
              "internalType": "bytes32",
              "name": "role",
              "type": "bytes32"
            },
            {
              "internalType": "address",
              "name": "target",
              "type": "address"
            }
          ],
          "internalType": "struct TimelockAuthorizerMigrator.RoleData[]",
          "name": "_rolesData",
          "type": "tuple[]"
        },
        {
          "components": [
            {
              "internalType": "address",
              "name": "grantee",
              "type": "address"
            },
            {
              "internalType": "bytes32",
              "name": "role",
              "type": "bytes32"
            },
            {
              "internalType": "address",
              "name": "target",
              "type": "address"
            }
          ],
          "internalType": "struct TimelockAuthorizerMigrator.RoleData[]",
          "name": "_grantersData",
          "type": "tuple[]"
        },
        {
          "components": [
            {
              "internalType": "address",
              "name": "grantee",
              "type": "address"
            },
            {
              "internalType": "bytes32",
              "name": "role",
              "type": "bytes32"
            },
            {
              "internalType": "address",
              "name": "target",
              "type": "address"
            }
          ],
          "internalType": "struct TimelockAuthorizerMigrator.RoleData[]",
          "name": "_revokersData",
          "type": "tuple[]"
        },
        {
          "components": [
            {
              "internalType": "bytes32",
              "name": "actionId",
              "type": "bytes32"
            },
            {
              "internalType": "uint256",
              "name": "newDelay",
              "type": "uint256"
            }
          ],
          "internalType": "struct TimelockAuthorizerMigrator.DelayData[]",
          "name": "_executeDelaysData",
          "type": "tuple[]"
        },
        {
          "components": [
            {
              "internalType": "bytes32",
              "name": "actionId",
              "type": "bytes32"
            },
            {
              "internalType": "uint256",
              "name": "newDelay",
              "type": "uint256"
            }
          ],
          "internalType": "struct TimelockAuthorizerMigrator.DelayData[]",
          "name": "_grantDelaysData",
          "type": "tuple[]"
        }
      ],
      "stateMutability": "nonpayable",
      "type": "constructor"
    },
    {
      "inputs": [],
      "name": "DEFAULT_ADMIN_ROLE",
      "outputs": [
        {
          "internalType": "bytes32",
          "name": "",
          "type": "bytes32"
        }
      ],
      "stateMutability": "view",
      "type": "function"
    },
    {
      "inputs": [],
      "name": "EVERYWHERE",
      "outputs": [
        {
          "internalType": "address",
          "name": "",
          "type": "address"
        }
      ],
      "stateMutability": "view",
      "type": "function"
    },
    {
      "inputs": [],
      "name": "GENERAL_PERMISSION_SPECIFIER",
      "outputs": [
        {
          "internalType": "bytes32",
          "name": "",
          "type": "bytes32"
        }
      ],
      "stateMutability": "view",
      "type": "function"
    },
    {
      "inputs": [],
      "name": "changeRootDelay",
      "outputs": [
        {
          "internalType": "uint256",
          "name": "",
          "type": "uint256"
        }
      ],
      "stateMutability": "view",
      "type": "function"
    },
    {
      "inputs": [],
      "name": "executeDelays",
      "outputs": [],
      "stateMutability": "nonpayable",
      "type": "function"
    },
    {
      "inputs": [],
      "name": "finalizeMigration",
      "outputs": [],
      "stateMutability": "nonpayable",
      "type": "function"
    },
    {
      "inputs": [],
      "name": "newAuthorizer",
      "outputs": [
        {
          "internalType": "contract TimelockAuthorizer",
          "name": "",
          "type": "address"
        }
      ],
      "stateMutability": "view",
      "type": "function"
    },
    {
      "inputs": [],
      "name": "oldAuthorizer",
      "outputs": [
        {
          "internalType": "contract IBasicAuthorizer",
          "name": "",
          "type": "address"
        }
      ],
      "stateMutability": "view",
      "type": "function"
    },
    {
      "inputs": [],
      "name": "root",
      "outputs": [
        {
          "internalType": "address",
          "name": "",
          "type": "address"
        }
      ],
      "stateMutability": "view",
      "type": "function"
    },
    {
      "inputs": [],
      "name": "vault",
      "outputs": [
        {
          "internalType": "contract IVault",
          "name": "",
          "type": "address"
        }
      ],
      "stateMutability": "view",
      "type": "function"
    }
  ],
  "bytecode": "0x610120806040523461026757614c42803803809161001d8285610617565b8339810161012082820312610267576100358261063a565b60208301516001600160a01b0381169390929091848403610267576040830151916001600160a01b03831680840361026757606085015160808601516001600160401b039490858111610267578461008e918901610665565b9560a088015186811161026757856100a7918a01610665565b9560c089015181811161026757866100c0918b01610665565b9860e081015182811161026757876100d9918301610710565b96610100820151838111610267576100f19201610710565b946040519182613b1381011090613b13840111176105f057613b1361112f833930613b1383019081526001600160a01b0385166020820152604081019190915260608101859052819003608001905ff098891561025c5760e08a905260c05260805260a0526101005293946001600160a01b0316935f5b84518110156102dc578061017d8992876107a3565b516020808201805183516040808601805191516326f8aa2160e21b81526004808201959095526001600160a01b039384166024820152929091166044830152969194939091829060649082905afa90811561025c575f916102a1575b501561026b5751905193516001600160a01b03948516941691893b156102675760408051634661e83960e11b81529182019283526001600160a01b03958616602084015292909416918101919091525f90839081906060010381838b5af191821561025c5760019261024d575b5001610168565b61025690610604565b5f610246565b6040513d5f823e3d90fd5b5f80fd5b60405162461bcd60e51b8152602081850152600f60248201526e554e45585045435445445f524f4c4560881b6044820152606490fd5b90506020813d6020116102d4575b816102bc60209383610617565b8101031261026757518015158103610267575f6101d9565b3d91506102af565b508490865f5b855181101561038d5760206102f782886107a3565b510151906001600160a01b0361030d82896107a3565b515116916001600160a01b036040610325848b6107a3565b5101511692863b156102675760405163088a7b6d60e21b815260048101929092526001600160a01b0390811660248301529290921660448301525f8260648183895af191821561025c5760019261037e575b50016102e2565b61038790610604565b87610377565b50835f5b8251811015610415576001600160a01b036103ac82856107a3565b515116906001600160a01b0360406103c483876107a3565b51015116863b15610267576040519263a44495d160e01b8452600484015260248301525f82604481838a5af191821561025c57600192610406575b5001610391565b61040f90610604565b866103ff565b505f8484825b84518410156104d8575061044262278d00602061043886886107a3565b51015111156107cb565b61044c83856107a3565b515160208061045b86886107a3565b51015161046730610866565b9261048660405194859384936378422a9160e11b855260048501610817565b03815f875af1801561025c575f906104a5575b6001915093019261041b565b506020813d6020116104d0575b816104bf60209383610617565b810103126102675760019051610499565b3d91506104b2565b825f915b835183101561058f57506104f962278d00602061043885876107a3565b61050382846107a3565b515160208061051285876107a3565b51015161051e30610866565b9261053d60405194859384936331e6df9b60e11b855260048501610817565b03815f865af1801561025c575f9061055c575b600191509201916104dc565b506020813d602011610587575b8161057660209383610617565b810103126102675760019051610550565b3d9150610569565b5f5560405161088890816108a7823960805181818160f9015261027a015260a0518181816101490152610232015260c051818181610199015261033d015260e0518181816101e80152818161058001526105e6015261010051816107a90152f35b634e487b7160e01b5f52604160045260245ffd5b6001600160401b0381116105f057604052565b601f909101601f19168101906001600160401b038211908210176105f057604052565b51906001600160a01b038216820361026757565b6001600160401b0381116105f05760051b60200190565b81601f8201121561026757805190602061067e8361064e565b93604061068e6040519687610617565b8486528286019183606080970286010194818611610267578401925b8584106106bb575050505050505090565b868483031261026757825190878201906001600160401b038211838310176105f0578892879286526106ec8761063a565b8152828701518382015261070186880161063a565b868201528152019301926106aa565b9080601f8301121561026757815191602061072a8461064e565b9360409361073a85519687610617565b818652828087019260061b85010193818511610267578301915b8483106107645750505050505090565b858383031261026757855190818701906001600160401b038211838310176105f057879286928452855181528286015183820152815201920191610754565b80518210156107b75760209160051b010190565b634e487b7160e01b5f52603260045260245ffd5b156107d257565b60405162461bcd60e51b815260206004820152601660248201527f554e45585045435445445f4c415247455f44454c4159000000000000000000006044820152606490fd5b608060209160608101938152829483820152606060408201528551809452019301915f5b828110610849575050505090565b83516001600160a01b03168552938101939281019260010161083b565b6040805192919083016001600160401b038111848210176105f05760405260018352602083019060203683378351156107b7576001600160a01b0316905256fe6080604081815260049182361015610015575f80fd5b5f925f3560e01c918263064cb76a14610794575081633c44172d146105d257816362cde1ba146105a4578163a0c286d814610554578163a217fddf1461053a578163b78b6087146101bd57508063c6bfe9ae1461016d578063ebf0c7171461011d578063fbfa77cf146100cd5763fc78a22814610090575f80fd5b346100c957816003193601126100c957602090517fffffffffffffffffffffffffffffffffffffffffffffffffffffffffffffffff8152f35b5080fd5b50346100c957816003193601126100c9576020905173ffffffffffffffffffffffffffffffffffffffff7f0000000000000000000000000000000000000000000000000000000000000000168152f35b50346100c957816003193601126100c9576020905173ffffffffffffffffffffffffffffffffffffffff7f0000000000000000000000000000000000000000000000000000000000000000168152f35b50346100c957816003193601126100c9576020905173ffffffffffffffffffffffffffffffffffffffff7f0000000000000000000000000000000000000000000000000000000000000000168152f35b919050346103e9575f6003193601126103e95773ffffffffffffffffffffffffffffffffffffffff807f000000000000000000000000000000000000000000000000000000000000000016928251917f557a6403000000000000000000000000000000000000000000000000000000008352807f0000000000000000000000000000000000000000000000000000000000000000168284015260209460249386818681855afa908115610530575f91610513575b50156104b857817f000000000000000000000000000000000000000000000000000000000000000016958551927f851c1bb30000000000000000000000000000000000000000000000000000000084527f058a628f00000000000000000000000000000000000000000000000000000000938486820152828188818c5afa9081156104ae579083915f9161047f575b5060648951809481937f9be2a8840000000000000000000000000000000000000000000000000000000083528a830152308b8301528c60448301527f0000000000000000000000000000000000000000000000000000000000000000165afa908115610475575f91610448575b50156103ed5750853b156103e957835f9283875198899485938452878401525af180156103df5761039c578480f35b909192935067ffffffffffffffff84116103b557505052005b6041907f4e487b71000000000000000000000000000000000000000000000000000000005f52525ffd5b83513d5f823e3d90fd5b5f80fd5b83601e866064938951937f08c379a00000000000000000000000000000000000000000000000000000000085528401528201527f4d49475241544f525f43414e4e4f545f5345545f415554484f52495a455200006044820152fd5b6104689150823d841161046e575b61046081836107cc565b81019061083a565b5f61036d565b503d610456565b87513d5f823e3d90fd5b82819392503d83116104a7575b61049681836107cc565b810103126103e9578290515f610300565b503d61048c565b88513d5f823e3d90fd5b606483601486898951937f08c379a00000000000000000000000000000000000000000000000000000000085528401528201527f524f4f545f4e4f545f434c41494d45445f5945540000000000000000000000006044820152fd5b61052a9150873d891161046e5761046081836107cc565b5f610271565b86513d5f823e3d90fd5b82346103e9575f6003193601126103e957602090515f8152f35b82346103e9575f6003193601126103e9576020905173ffffffffffffffffffffffffffffffffffffffff7f0000000000000000000000000000000000000000000000000000000000000000168152f35b82346103e9575f6003193601126103e9576020905173ffffffffffffffffffffffffffffffffffffffff8152f35b9050346103e9575f6003193601126103e9577f000000000000000000000000000000000000000000000000000000000000000073ffffffffffffffffffffffffffffffffffffffff16915f5b5f5481116107925781517ffe0d94c1000000000000000000000000000000000000000000000000000000008152818482015260245f828281838a5af18015610788576106c2575b50507fffffffffffffffffffffffffffffffffffffffffffffffffffffffffffffffff81146106965760010161061e565b6011837f4e487b71000000000000000000000000000000000000000000000000000000005f525260245ffd5b3d805f843e6106d181846107cc565b82019160209182828503126103e957815167ffffffffffffffff928382116103e9570193601f918183870112156103e957855193841161075e575061073e847fffffffffffffffffffffffffffffffffffffffffffffffffffffffffffffffe089519486011601836107cc565b8282528383860101116103e95781835f95018483015e0101528480610665565b6041897f4e487b71000000000000000000000000000000000000000000000000000000005f52525ffd5b84513d5f823e3d90fd5b005b346103e9575f6003193601126103e9576020907f00000000000000000000000000000000000000000000000000000000000000008152f35b90601f7fffffffffffffffffffffffffffffffffffffffffffffffffffffffffffffffe0910116810190811067ffffffffffffffff82111761080d57604052565b7f4e487b71000000000000000000000000000000000000000000000000000000005f52604160045260245ffd5b908160209103126103e9575180151581036103e9579056fea26469706673582212207e0408fc58d89b113e73895cca0c6d59e68a3683c3d06bfdc25cf0dbb5807e4564736f6c634300081b0033610100604090808252346101e757608081613b138038038091610022828561021b565b8339810103126101e7576100358161023e565b906100426020820161023e565b838201516001600160a01b03808216939092918490036101e75760608391015194169160018060a01b03199183835f5416175f558651937f39510b933a9d010f906528d6019d3f4e2450a10dc33b10887503b31ed82f11115f80a216809160015416176001557f566fe119ff450afc2580186c62762b6c1258245c8b1b6bb095e7276eb5a75b555f80a260a08290526104518181016001600160401b038111838210176102075782916136c2833903905ff09081156101fd5760249260209260805260c05283519283809263851c1bb360e01b825263058a628f60e01b60048301525afa9081156101f3575f916101bd575b5060e0525161346f908161025382396080518181816103310152818161055b015281816109de01528181610db1015281816110cc0152818161199801528181611c2501528181611cbc01528181611d8b0152612294015260a05181610fbf015260c051818181610a920152611aaf015260e05181818161058401528181610a0701526122bd0152f35b90506020813d6020116101eb575b816101d86020938361021b565b810103126101e757515f610134565b5f80fd5b3d91506101cb565b82513d5f823e3d90fd5b83513d5f823e3d90fd5b634e487b7160e01b5f52604160045260245ffd5b601f909101601f19168101906001600160401b0382119082101761020757604052565b51906001600160a01b03821682036101e75756fe608060409080825260049081361015610016575f80fd5b5f3560e01c9081630443460614612338575080630df322a61461230457806310d3ab2c1461225357806314ea35e71461216e578063169f146814611ce057806318ef871a14611c9d5780631b3c85eb14611bfd5780632229edb414611b2d5780632e3ed05b14611a0c5780633ac5d439146119505780633bf46797146119285780633e1df46d1461190157806340e58ee5146117d95780634125ff90146117bb578063557a6403146117885780635b78b7801461166e5780635ca1e16514611648578063608dd7e41461158757806362cde1ba1461156657806363cdbf36146114a55780636badd2ab1461146657806372efb120146112e2578063863bac6b146111a757806386ff254b146111635780638bd6bbc91461113b5780638cc3d07214610fe35780638d928af814610fa05780639021681214610e1b5780639299942e14610e0057806399a7f6e214610dda5780639be2a88414610d6c578063a44495d114610c99578063a8eae12d14610b15578063b1e31aa014610af8578063b3eb281d14610add578063b99db52614610ab5578063c284b6b914610a7b578063c6192ee314610a4e578063c80c23e11461099d578063cc63604a14610934578063d00bef4d1461090d578063e2b4146b146108e9578063e4c00f4f146106a1578063f0845522146105da578063f0bb94061461051a578063f23481e0146104fc578063f6ebcbaf146104c15763fe0d94c114610230575f80fd5b346104165760209182600319360112610416578135916102536006548410612814565b61025c8361285f565b509060028201805461027160ff8216156128c5565b61028160ff8260081c1615612910565b6003840154421061047f5760ff8160101c16610423575b9161032d949391600160ff195f951617905560068201337fffffffffffffffffffffffff00000000000000000000000000000000000000008254161790554260078301556001600160a01b03908382845416918651978895869485937f1cff79cd0000000000000000000000000000000000000000000000000000000085528401528860248401526001604484019101612a50565b03927f0000000000000000000000000000000000000000000000000000000000000000165af190811561041a575f9161039d575b6103999250519384937f4fa5548c15e2d4a0b806eee962935acea143d79644d2340af39f4edf13b335a95f80a28084528301906125a9565b0390f35b90503d805f843e6103ae8184612424565b82019184818403126104165780519067ffffffffffffffff821161041657019180601f840112156104165782516103e481612447565b916103f184519384612424565b8183528682860101116104165785815f928261039997018386015e8301015290610361565b5f80fd5b513d5f823e3d90fd5b855f5260028752845f20335f52875260ff855f205416610298576064838887519162461bcd60e51b8352820152601660248201527f53454e4445525f49535f4e4f545f4558454355544f52000000000000000000006044820152fd5b6064838887519162461bcd60e51b8352820152601c60248201527f455845435554494f4e5f4e4f545f5945545f45584543555441424c45000000006044820152fd5b50903461041657600319360112610416576104fa906104de61237c565b906104f46001600160a01b035f54163314612706565b356131c3565b005b8234610416575f600319360112610416576020906006549051908152f35b8234610416577f0e182617f9e5f9ce5f761c791ec15ad52176d97f9706b5c2707ffda7b6bdf790602061054c366123a8565b90936105826001600160a01b037f0000000000000000000000000000000000000000000000000000000000000000163314612670565b7f00000000000000000000000000000000000000000000000000000000000000008086036105bf575b50845f52600a835281815f205551908152a2005b5f52600a83526105d4815f20548311156126bb565b856105ab565b8234610416576020906106746105ef36612576565b61060a6001600160a01b035f96949695939554163314612706565b61061a6303c2670085111561295b565b845f52600a865261062e84845f205461340e565b83517ff0bb940600000000000000000000000000000000000000000000000000000000888201528660248201528560448201526044815261066e81612408565b30612d77565b91829151937fbc72942fa810fe8985041bb36295502eddf2c163774be55e25d20595895607285f80a48152f35b50346104165760606003193601126104165780359060248035926044359384159485150361041657600654808310156108a657811561086357826106e491612d1c565b908082108183180218926106f784612463565b9461070488519687612424565b84865261071085612463565b96601f1960209801885f5b82811061084d575050505f5b8681106107a857898989825191808301818452825180915281858501958260051b8601019301915f955b82871061075e5785850386f35b909192938280610798837fffffffffffffffffffffffffffffffffffffffffffffffffffffffffffffffc08a6001960301865288516125ce565b9601920196019592919092610751565b81156107e957806107cc6107c66107c16001948a612d6a565b61285f565b50612ae1565b6107d6828b612d56565b526107e1818a612d56565b505b01610727565b5f19850185811161082257906108076107c66107c183600195612d1c565b610811828b612d56565b5261081c818a612d56565b506107e3565b846011857f4e487b71000000000000000000000000000000000000000000000000000000005f52525ffd5b6108556129a6565b82828c01015201899061071b565b606485602089519162461bcd60e51b8352820152601360248201527f5a45524f5f4d41585f53495a455f56414c5545000000000000000000000000006044820152fd5b606485602089519162461bcd60e51b8352820152601460248201527f534b49505f56414c55455f544f4f5f4c415247450000000000000000000000006044820152fd5b8234610416576020906109046108fe366124eb565b91612cb1565b90519015158152f35b8234610416575f600319360112610416576020906001600160a01b03600154169051908152f35b5090346104165760206003193601126104165761095b602092356107c16006548210612814565b509060028201549160ff831615928361098e575b508261097f575b50519015158152f35b6003015442101591505f610976565b60081c60ff161592505f61096f565b8234610416577f6aeebd84e31437f28a17927609991676c31c2b84875c601373da2c194e9d234160206109cf366123a8565b9093610a056001600160a01b037f0000000000000000000000000000000000000000000000000000000000000000163314612670565b7f00000000000000000000000000000000000000000000000000000000000000005f52600a8352610a3b815f20548311156126bb565b845f526008835281815f205551908152a2005b8234610416578060031936011261041657602090610904610a6d612392565b610a7561237c565b90612c54565b8234610416575f60031936011261041657602090517f00000000000000000000000000000000000000000000000000000000000000008152f35b50903461041657602060031936011261041657602091355f5260088252805f20549051908152f35b823461041657602090610904610af2366124eb565b91612be2565b8234610416575f6003193601126104165760209051620697808152f35b50903461041657610b25366124eb565b5f546001600160a01b039081169492610b3f338714612706565b610b4a838287612be2565b15610c56578116948514610c1357835f5260209560038752835f20865f528752835f20825f52875260ff845f205416610bc8575b50835f5260038652825f20855f528652825f20911694855f52525f2060ff1981541690557ff8034293d5b4ed16b867ded8f122c475bc0d1b6bd9309a606609a754e5f3adc35f80a4005b8282168214610b7e576064908785519162461bcd60e51b8352820152601160248201527f4752414e5445525f49535f474c4f42414c0000000000000000000000000000006044820152fd5b606486602085519162461bcd60e51b8352820152601a60248201527f43414e4e4f545f52454d4f56455f524f4f545f4752414e5445520000000000006044820152fd5b606487602086519162461bcd60e51b8352820152601660248201527f4143434f554e545f49535f4e4f545f4752414e544552000000000000000000006044820152fd5b5034610416578160031936011261041657610cb2612392565b91610cbb61237c565b926001600160a01b0390610cd3825f54163314612706565b610cdd8582612c54565b610d2957811692835f52602052815f20931692835f526020525f20600160ff198254161790557f2b5f18afd9a7b21f41bf023b012b3d4c8a22a21b79fa425cd4494ecbe29701965f80a3005b606484602085519162461bcd60e51b8352820152601a60248201527f4143434f554e545f49535f414c52454144595f5245564f4b45520000000000006044820152fd5b823461041657602090610d7e366124eb565b9091805f52600a8552835f2054155f14610da4579161090492612cb1565b519015158152f35b50506001600160a01b03807f00000000000000000000000000000000000000000000000000000000000000001691161490610d9c565b50903461041657600319360112610416576104fa90610df761237c565b903390356132ef565b8234610416575f60031936011261041657602090515f198152f35b509034610416578060031936011261041657610e35612392565b90610e3e61237c565b926001600160a01b0390815f541693610e58853314612706565b610e628682612c54565b15610f5d578216938414610f1a57835f5280602052825f20825f5260205260ff835f205416610ece575b835f52602052815f20931692835f526020525f2060ff1981541690557fb6fe3ab11eb9ab1d9f1d41c8f42a5d72d10122099ba1548e4a6d1a4d8cefec4b5f80a3005b8482168214610e8c57606490602084519162461bcd60e51b8352820152601160248201527f5245564f4b45525f49535f474c4f42414c0000000000000000000000000000006044820152fd5b606490602084519162461bcd60e51b8352820152601a60248201527f43414e4e4f545f52454d4f56455f524f4f545f5245564f4b45520000000000006044820152fd5b606482602086519162461bcd60e51b8352820152601660248201527f4143434f554e545f49535f4e4f545f5245564f4b4552000000000000000000006044820152fd5b8234610416575f60031936011261041657602090516001600160a01b037f0000000000000000000000000000000000000000000000000000000000000000168152f35b50903461041657610ff3366124eb565b825f9492945260209460078652825f2054155f146110c95761101e611019833387612be2565b612b97565b611029828686612cb1565b6110875750825f5260098552815f20936001600160a01b0380911694855f528652825f20911694855f52525f20600160ff198254161790557fef6ee312a0062a24a46be2eba5284183a87ff848110e8d4df979bd690d9e9f685f80a4005b6064908684519162461bcd60e51b8352820152601a60248201527f5045524d495353494f4e5f414c52454144595f4752414e5445440000000000006044820152fd5b337f00000000000000000000000000000000000000000000000000000000000000006001600160a01b03161461101e576064908684519162461bcd60e51b8352820152601760248201527f4752414e545f4d5553545f42455f5343484544554c45440000000000000000006044820152fd5b50903461041657602060031936011261041657602091355f5260078252805f20549051908152f35b823461041657602090611175366124eb565b915f5260098452825f206001600160a01b038092165f528452825f2091165f52825260ff815f20541690519015158152f35b5034610416576111b636612520565b9492936111c7611019833388612be2565b845f526007602052835f205490811561129f575083517f8cc3d07200000000000000000000000000000000000000000000000000000000602082810191909152602482018790526001600160a01b038086166044840152841660648301529661124392909161066e81608481015b03601f198101835282612424565b937f185f04ff33c89687859342776c7fdcf04d9eb9444d65192bfebab5a5ac9874a8866001600160a01b038087519589875216951693a4611284338361279c565b15611290575b51908152f35b61129a33836131c3565b61128a565b606490602086519162461bcd60e51b8352820152601960248201527f414354494f4e5f4841535f4e4f5f4752414e545f44454c4159000000000000006044820152fd5b5090346104165780600319360112610416578135906112ff61237c565b926001600160a01b0393845f541694611319863314612706565b81169485146114235761132c908461279c565b156113e1575f19805f526005602052825f20855f5260205260ff835f205416611393575b5050815f526005602052805f20835f526020525f2060ff1981541690557fd6b522eb4b505a0843020e304ba27d827b52c89347e6176b2f2737e6e4015c2d5f80a3005b830361139f5780611350565b6020606492519162461bcd60e51b8352820152601a60248201527f4143434f554e545f49535f474c4f42414c5f43414e43454c45520000000000006044820152fd5b6020606492519162461bcd60e51b8352820152601760248201527f4143434f554e545f49535f4e4f545f43414e43454c45520000000000000000006044820152fd5b506020606492519162461bcd60e51b8352820152601b60248201527f43414e4e4f545f52454d4f56455f524f4f545f43414e43454c455200000000006044820152fd5b509034610416576020600319360112610416576114926107c66103999361148b6129a6565b503561285f565b90519182916020835260208301906125ce565b8234610416576020906115396114ba36612576565b6114d56001600160a01b035f96949695939554163314612706565b6114e56303c2670085111561295b565b845f52600786526114f984845f205461340e565b83517f10d3ab2c00000000000000000000000000000000000000000000000000000000888201528660248201528560448201526044815261066e81612408565b91829151937f3d8c3ad02346a1ddf099dd26578662fb8cf85903168ebfeb1f14473fed8ee4885f80a48152f35b8234610416575f60031936011261041657602090516001600160a01b038152f35b82346104165760209061161b61159c36612576565b6115b76001600160a01b035f96949695939554163314612706565b6115c76303c2670085111561295b565b845f52600886526115db84845f205461340e565b83517fc80c23e100000000000000000000000000000000000000000000000000000000888201528660248201528560448201526044815261066e81612408565b91829151937f2f330faf5e23fc7ff1c46f2b1a3299d86249055a5bf74a8b747ab7fb66f6dc9f5f80a48152f35b8234610416575f600319360112610416576020906001600160a01b035f54169051908152f35b50346104165761167d36612520565b94929361169261168d8333612c54565b612751565b845f526008602052835f2054908115611745575083517f3ac5d43900000000000000000000000000000000000000000000000000000000602082810191909152602482018790526001600160a01b038086166044840152841660648301529661170492909161066e8160848101611235565b937f645fdc5699106b1dffda57f54fdcca22ad57d87f0afd651edf857af3bfbd8784866001600160a01b038087519589875216951693a4611284338361279c565b606490602086519162461bcd60e51b8352820152601a60248201527f414354494f4e5f4841535f4e4f5f5245564f4b455f44454c41590000000000006044820152fd5b8234610416576020600319360112610416576020906117a5612392565b6001600160a01b03805f54169116149051908152f35b8234610416575f60031936011261041657602090516303c267008152f35b509034610416576020600319360112610416578135916117fc6006548410612814565b6118058361285f565b5091600283019182549161181c60ff8416156128c5565b61182c60ff8460081c1615612910565b611836338761279c565b156118be5750507fffffffffffffffffffffffffffffffffffffffffffffffffffffffffffff00ff610100911617905560088101337fffffffffffffffffffffffff00000000000000000000000000000000000000008254161790556009429101557fe48f88ceada5a6ddb8ded9b5e457cb802e319a647eec8ff1f2a0512c0a741ed95f80a2005b906020606492519162461bcd60e51b8352820152601660248201527f53454e4445525f49535f4e4f545f43414e43454c4552000000000000000000006044820152fd5b50903461041657806003193601126104165761090460209261192161237c565b903561279c565b50903461041657602060031936011261041657602091355f52600a8252805f20549051908152f35b50346104165761195f366124eb565b92825f939293526008602052845f2054155f1461198e57506104fa935061198961168d8433612c54565b6132ef565b6001600160a01b037f00000000000000000000000000000000000000000000000000000000000000001633036119c957506104fa93506132ef565b606490602086519162461bcd60e51b8352820152601860248201527f5245564f4b455f4d5553545f42455f5343484544554c454400000000000000006044820152fd5b5034610416578160031936011261041657611a25612392565b67ffffffffffffffff929060243584811161041657611a47903690850161247b565b936001600160a01b03611a5e815f54163314612706565b8351927f1b3c85eb000000000000000000000000000000000000000000000000000000006020850152169384602484015260248352606083019183831090831117611b0157508252602093611ad5917f00000000000000000000000000000000000000000000000000000000000000009030612d77565b809151927f7de09ff5f925ca34a396df31b30cdbdd0cd10b88833b4f7334cecc02454c1be75f80a38152f35b6041907f4e487b71000000000000000000000000000000000000000000000000000000005f525260245ffd5b503461041657611b3c366124eb565b9390926001600160a01b0390611b56825f54163314612706565b611b61868686612be2565b611bba5750825f52600360205280825f20941693845f52602052815f20941693845f526020525f20600160ff198254161790557f2d106cf4379aad979c25af765e6f7169b732d4c4660e41aa733a150c7fc0a6f75f80a4005b606490602084519162461bcd60e51b8352820152601a60248201527f4143434f554e545f49535f414c52454144595f4752414e5445520000000000006044820152fd5b3461041657602060031936011261041657611c16612392565b6001600160a01b0390611c4c827f0000000000000000000000000000000000000000000000000000000000000000163314612670565b16807fffffffffffffffffffffffff000000000000000000000000000000000000000060015416176001557f566fe119ff450afc2580186c62762b6c1258245c8b1b6bb095e7276eb5a75b555f80a2005b8234610416575f60031936011261041657602090516001600160a01b037f0000000000000000000000000000000000000000000000000000000000000000168152f35b50903461041657606060031936011261041657611cfb612392565b9060249283359367ffffffffffffffff918286116104165736602387011215610416578581013594611d2c86612447565b91611d3986519384612424565b868352602096878401983686838301011161041657815f92878b93018c3785010152604494853590811161041657611d74903690830161247b565b946001600160a01b039889841699308b14612108577f0000000000000000000000000000000000000000000000000000000000000000168a146120a2578285511061206257845115612037577fff0000000000000000000000000000000000000000000000000000000000000090511698845160011015612037577eff000000000000000000000000000000000000000000000000000000000000602186015160081c169085516002101561200c576022860151865160031015611fe1578a9b7dff00000000000000000000000000000000000000000000000000000000009b939289927cff0000000000000000000000000000000000000000000000000000000060238b015160181c16908d519e8f9687957f851c1bb3000000000000000000000000000000000000000000000000000000008752179160101c161717878301525afa978815611fd7575f98611fa8575b50611ed283338a612cb1565b15611f6857875f52600a8952865f2054948515611f285750505090611ef8939291612d77565b80927f26ce5ffb7ab1ce72d9ca4a3e4f906d2b99194d6c53dd9832fd7a59d0b2fc6bed5f80a3611284338361279c565b6064929160107f44454c41595f49535f4e4f545f53455400000000000000000000000000000000928c8b519562461bcd60e51b8752860152840152820152fd5b907f53454e4445525f444f45535f4e4f545f484156455f5045524d495353494f4e00606492601f878c8b519562461bcd60e51b8752860152840152820152fd5b9097508881813d8311611fd0575b611fc08183612424565b810103126104165751965f611ec6565b503d611fb6565b87513d5f823e3d90fd5b876032867f4e487b71000000000000000000000000000000000000000000000000000000005f52525ffd5b866032857f4e487b71000000000000000000000000000000000000000000000000000000005f52525ffd5b856032847f4e487b71000000000000000000000000000000000000000000000000000000005f52525ffd5b6064837f444154415f544f4f5f53484f525400000000000000000000000000000000000084600e8a8e8e519562461bcd60e51b8752860152840152820152fd5b6084837f415454454d5054494e475f455845435554494f4e5f48454c5045525f5245454e8460268a8e8e519562461bcd60e51b87528601528401528201527f5452414e435900000000000000000000000000000000000000000000000000006064820152fd5b6084847f43414e4e4f545f5343484544554c455f415554484f52495a45525f414354494f8560228b8f8f519562461bcd60e51b87528601528401528201527f4e530000000000000000000000000000000000000000000000000000000000006064820152fd5b5034610416575f60031936011261041657600154906001600160a01b038216928333036122105750507fffffffffffffffffffffffff00000000000000000000000000000000000000009180835f5416175f557f39510b933a9d010f906528d6019d3f4e2450a10dc33b10887503b31ed82f11115f80a2166001555f7f566fe119ff450afc2580186c62762b6c1258245c8b1b6bb095e7276eb5a75b558180a2005b906020606492519162461bcd60e51b8352820152601a60248201527f53454e4445525f49535f4e4f545f50454e44494e475f524f4f540000000000006044820152fd5b8234610416577f6922a4f4deeb55fdca50df28a72475aa87f9f1377ed93a95842ce8bc69dc01e86020612285366123a8565b90936122bb6001600160a01b037f0000000000000000000000000000000000000000000000000000000000000000163314612670565b7f00000000000000000000000000000000000000000000000000000000000000005f52600a83526122f1815f20548311156126bb565b845f526007835281815f205551908152a2005b823461041657602060031936011261041657602090612321612392565b6001600160a01b0380600154169116149051908152f35b9190503461041657826003193601126104165760209260ff9161235961237c565b90355f52600285526001600160a01b03825f2091165f5284525f20541615158152f35b602435906001600160a01b038216820361041657565b600435906001600160a01b038216820361041657565b6003196040910112610416576004359060243590565b610180810190811067ffffffffffffffff8211176123db57604052565b7f4e487b71000000000000000000000000000000000000000000000000000000005f52604160045260245ffd5b6080810190811067ffffffffffffffff8211176123db57604052565b90601f601f19910116810190811067ffffffffffffffff8211176123db57604052565b67ffffffffffffffff81116123db57601f01601f191660200190565b67ffffffffffffffff81116123db5760051b60200190565b9080601f8301121561041657602090823561249581612463565b936124a36040519586612424565b81855260208086019260051b82010192831161041657602001905b8282106124cc575050505090565b81356001600160a01b03811681036104165781529083019083016124be565b600319606091011261041657600435906001600160a01b03906024358281168103610416579160443590811681036104165790565b90608060031983011261041657600435916001600160a01b039160243583811681036104165792604435908116810361041657916064359067ffffffffffffffff8211610416576125739160040161247b565b90565b60606003198201126104165760043591602435916044359067ffffffffffffffff8211610416576125739160040161247b565b90601f19601f602080948051918291828752018686015e5f8582860101520116010190565b90610180916125f96001600160a01b03938483511684526020830151908060208601528401906125a9565b9260408201511515604084015260608201511515606084015260808201511515608084015260a082015160a08401528060c08301511660c084015260e082015160e0840152610100818184015116908401526101208083015190840152610140908183015116908301526101608091015191015290565b1561267757565b606460405162461bcd60e51b815260206004820152601560248201527f43414e5f4f4e4c595f42455f5343484544554c454400000000000000000000006044820152fd5b156126c257565b606460405162461bcd60e51b815260206004820152601c60248201527f44454c41595f455843454544535f5345545f415554484f52495a4552000000006044820152fd5b1561270d57565b606460405162461bcd60e51b815260206004820152601260248201527f53454e4445525f49535f4e4f545f524f4f5400000000000000000000000000006044820152fd5b1561275857565b606460405162461bcd60e51b815260206004820152601560248201527f53454e4445525f49535f4e4f545f5245564f4b455200000000000000000000006044820152fd5b5f52600560205260405f206001600160a01b0380921690815f5260205260ff60405f2054169182156127dd575b82156127d457505090565b5f541614919050565b5f8281527f2e8de2577e7c560a9913fd732cd5ba1f61f809b10c283800da9499091ac562a5602052604090205460ff1692506127c9565b1561281b57565b606460405162461bcd60e51b815260206004820152601860248201527f455845435554494f4e5f444f45535f4e4f545f455849535400000000000000006044820152fd5b60065481101561289857600a9060065f52027ff652222313e28459528d920b65115c16c04f3efc82aaedc97be59f3f377c0d3f01905f90565b7f4e487b71000000000000000000000000000000000000000000000000000000005f52603260045260245ffd5b156128cc57565b606460405162461bcd60e51b815260206004820152601a60248201527f455845435554494f4e5f414c52454144595f45584543555445440000000000006044820152fd5b1561291757565b606460405162461bcd60e51b815260206004820152601a60248201527f455845435554494f4e5f414c52454144595f43414e43454c45440000000000006044820152fd5b1561296257565b606460405162461bcd60e51b815260206004820152600f60248201527f44454c41595f544f4f5f4c4152474500000000000000000000000000000000006044820152fd5b604051906129b3826123be565b5f61016083828152606060208201528260408201528260608201528260808201528260a08201528260c08201528260e08201528261010082015282610120820152826101408201520152565b90600182811c92168015612a46575b6020831014612a1957565b7f4e487b71000000000000000000000000000000000000000000000000000000005f52602260045260245ffd5b91607f1691612a0e565b80545f9392612a5e826129ff565b918282526020936001916001811690815f14612ac25750600114612a84575b5050505050565b90939495505f92919252835f2092845f945b838610612aae57505050500101905f80808080612a7d565b805485870183015294019385908201612a96565b60ff19168685015250505090151560051b010191505f80808080612a7d565b90604051612aee816123be565b610160600982946001600160a01b03808254168552604051612b1e81612b178160018701612a50565b0382612424565b602086015260ff600283015481811615156040880152818160081c161515606088015260101c1615156080860152600382015460a08601528060048301541660c0860152600582015460e08601528060068301541661010086015260078201546101208601526008820154166101408501520154910152565b15612b9e57565b606460405162461bcd60e51b815260206004820152601560248201527f53454e4445525f49535f4e4f545f4752414e54455200000000000000000000006044820152fd5b9190825f52602060038152604090815f20936001600160a01b0380941694855f52825283835f2091165f52815260ff825f205416948515612c2c575b50505082156127d457505090565b60ff9395505f5260038152815f20845f528152815f2090855f52525f205416915f8080612c1e565b906001600160a01b0380921690815f5260046020528260405f2091165f5260205260ff60405f205416918215612c8f5782156127d457505090565b9150805f52600460205260405f20825f5260205260ff60405f205416916127c9565b9190825f52602060098152604092835f20906001600160a01b0380941691825f52835283855f2091165f52825260ff845f205416948515612cf5575b505050505090565b60ff95505f5260098252835f20905f528152825f20915f52525f2054165f80808080612ced565b91908203918211612d2957565b7f4e487b71000000000000000000000000000000000000000000000000000000005f52601160045260245ffd5b80518210156128985760209160051b010190565b91908201809211612d2957565b90939293612d886006549342612d6a565b9085511515906001600160a01b0360405194612da3866123be565b16845260208401525f60408401525f6060840152608083015260a08201523360c08201524260e08201525f6101008201525f6101208201525f6101408201525f610160820152680100000000000000008210156123db5760018201600655612e0a8261285f565b919091613197576001600160a01b038151167fffffffffffffffffffffffff0000000000000000000000000000000000000000835416178255602081015180519067ffffffffffffffff82116123db578190612e6960018601546129ff565b601f8111613147575b50602090601f83116001146130d9575f926130ce575b50505f198260011b9260031b1c19161760018301555b60029160408201511515600282015461ff0060608501511515917fffffffffffffffffffffffffffffffffffffffffffffffffffffffffff00000060ff62ff00006080890151151560101b1695169116179160081b161717600282015560a082015160038201556009610160600493600484016001600160a01b0360c0830151167fffffffffffffffffffffffff000000000000000000000000000000000000000082541617905560e08101516005850155600684016001600160a01b03610100830151167fffffffffffffffffffffffff00000000000000000000000000000000000000008254161790556101208101516007850155600884016001600160a01b03610140830151167fffffffffffffffffffffffff000000000000000000000000000000000000000082541617905501519101555f5b85518110156130c757835f528260205260405f206001600160a01b03612ffc8389612d56565b51165f5260205260ff60405f20541661308357600190845f528360205260405f206001600160a01b0361302f838a612d56565b51165f5260205260405f208260ff198254161790556001600160a01b036130568289612d56565b5116857f2d0aa562da96ca6dd124fee5588e6f8545b0aa0b15cfd87cc231eff1ae7000e45f80a301612fd6565b60648260206040519162461bcd60e51b8352820152601360248201527f4455504c49434154455f4558454355544f5253000000000000000000000000006044820152fd5b5050509150565b015190505f80612e88565b9250600185015f5260205f20905f935b601f198416851061312c576001945083601f19811610613114575b505050811b016001830155612e9e565b01515f1960f88460031b161c191690555f8080613104565b818101518355602094850194600190930192909101906130e9565b909150600185015f5260205f20601f840160051c810160208510613190575b90849392915b601f830160051c82018110613182575050612e72565b5f815585945060010161316c565b5080613166565b7f4e487b71000000000000000000000000000000000000000000000000000000005f525f60045260245ffd5b6131cd828261279c565b6132ab575f19810361322c575b805f5260056020526001600160a01b0360405f20921691825f5260205260405f20600160ff198254161790557f1b55562f9a67454174f758170aba47751c0af4c1f3b7d4e0b70667f1e82066065f80a3565b6132396006548210612814565b60026132448261285f565b50015460ff811615908161329c575b506131da57606460405162461bcd60e51b815260206004820152601860248201527f455845435554494f4e5f49535f4e4f545f50454e44494e4700000000000000006044820152fd5b60ff915060081c16155f613253565b606460405162461bcd60e51b815260206004820152601b60248201527f4143434f554e545f49535f414c52454144595f43414e43454c455200000000006044820152fd5b6132fa838383612cb1565b156133ca57805f5260209260098452604090815f20936001600160a01b0380911694855f528652825f20815f52865260ff835f20541661337e575b835f5260098652825f20855f528652825f20911694855f52525f2060ff1981541690557f7b42e026d3b17cf41399915c285780d0f724b3464b269297aff73c0de0fe417f5f80a4565b81811681146133355760648684519062461bcd60e51b82526004820152601d60248201527f4143434f554e545f4841535f474c4f42414c5f5045524d495353494f4e0000006044820152fd5b606460405162461bcd60e51b815260206004820152601660248201527f5045524d495353494f4e5f4e4f545f4752414e544544000000000000000000006044820152fd5b90818110156134305761342091612d1c565b6206978090818082119118021890565b5050620697809056fea26469706673582212208d9aaac6713b648347bc3f325fc8269cd31ec05a2661f0dffeba7a457b5ecf2f64736f6c634300081b003360a0806040523460285733608052610424908161002d8239608051818181607901526101790152f35b5f80fdfe6040608081526004361015610012575f80fd5b5f3560e01c80631cff79cd146100a15763aaabadc514610030575f80fd5b3461009d575f7ffffffffffffffffffffffffffffffffffffffffffffffffffffffffffffffffc36011261009d576020905173ffffffffffffffffffffffffffffffffffffffff7f0000000000000000000000000000000000000000000000000000000000000000168152f35b5f80fd5b503461009d57807ffffffffffffffffffffffffffffffffffffffffffffffffffffffffffffffffc36011261009d576004359073ffffffffffffffffffffffffffffffffffffffff808316830361009d576024359267ffffffffffffffff841161009d573660238501121561009d578360040135936101276101228661031b565b6102aa565b85815260209586820192366024838301011161009d57815f9260248a93018637830101527f9b779b17422d0df92223018b32b4d1fa46e071723d6817e2486d003becc55f0093845c610282576001855d7f000000000000000000000000000000000000000000000000000000000000000016330361022557915f806101d1938195519082855af13d841461021d573d916101c36101228461031b565b9283523d858985013e610355565b915d7fffffffffffffffffffffffffffffffffffffffffffffffffffffffffffffffe0601f835194859381855280519182918282880152018686015e5f85828601015201168101030190f35b606091610355565b6064868651907f08c379a00000000000000000000000000000000000000000000000000000000082526004820152601860248201527f53454e4445525f49535f4e4f545f415554484f52495a455200000000000000006044820152fd5b7f3ee5aeb5000000000000000000000000000000000000000000000000000000005f5260045ffd5b907fffffffffffffffffffffffffffffffffffffffffffffffffffffffffffffffe0601f604051930116820182811067ffffffffffffffff8211176102ee57604052565b7f4e487b71000000000000000000000000000000000000000000000000000000005f52604160045260245ffd5b67ffffffffffffffff81116102ee57601f017fffffffffffffffffffffffffffffffffffffffffffffffffffffffffffffffe01660200190565b90610392575080511561036a57602081519101fd5b7fd6bda275000000000000000000000000000000000000000000000000000000005f5260045ffd5b815115806103e5575b6103a3575090565b73ffffffffffffffffffffffffffffffffffffffff907f9996b315000000000000000000000000000000000000000000000000000000005f521660045260245ffd5b50803b1561039b56fea2646970667358221220a226db169c0f7b134d6ce8aa30cc72d413c761617f119fe0d9d08ebc0db0656464736f6c634300081b0033",
  "linkReferences": {},
  "deployedLinkReferences": {}
}