{
  "_format": "hh-sol-artifact-1",
  "contractName": "VaultExtension",
  "sourceName": "contracts/VaultExtension.sol",
  "abi": [
    {
      "inputs": [
        {
          "internalType": "contract IVault",
          "name": "mainVault",
          "type": "address"
        },
        {
          "internalType": "contract IVaultAdmin",
          "name": "vaultAdmin",
          "type": "address"
        }
      ],
      "stateMutability": "nonpayable",
      "type": "constructor"
    },
    {
      "inputs": [
        {
          "internalType": "address",
          "name": "target",
          "type": "address"
        }
      ],
      "name": "AddressEmptyCode",
      "type": "error"
    },
    {
      "inputs": [
        {
          "internalType": "address",
          "name": "account",
          "type": "address"
        }
      ],
      "name": "AddressInsufficientBalance",
      "type": "error"
    },
    {
      "inputs": [],
      "name": "AfterAddLiquidityHookFailed",
      "type": "error"
    },
    {
      "inputs": [],
      "name": "AfterInitializeHookFailed",
      "type": "error"
    },
    {
      "inputs": [],
      "name": "AfterRemoveLiquidityHookFailed",
      "type": "error"
    },
    {
      "inputs": [],
      "name": "AfterSwapHookFailed",
      "type": "error"
    },
    {
      "inputs": [],
      "name": "AmountGivenZero",
      "type": "error"
    },
    {
      "inputs": [
        {
          "internalType": "contract IERC20",
          "name": "tokenIn",
          "type": "address"
        },
        {
          "internalType": "uint256",
          "name": "amountIn",
          "type": "uint256"
        },
        {
          "internalType": "uint256",
          "name": "maxAmountIn",
          "type": "uint256"
        }
      ],
      "name": "AmountInAboveMax",
      "type": "error"
    },
    {
      "inputs": [
        {
          "internalType": "contract IERC20",
          "name": "tokenOut",
          "type": "address"
        },
        {
          "internalType": "uint256",
          "name": "amountOut",
          "type": "uint256"
        },
        {
          "internalType": "uint256",
          "name": "minAmountOut",
          "type": "uint256"
        }
      ],
      "name": "AmountOutBelowMin",
      "type": "error"
    },
    {
      "inputs": [],
      "name": "BalanceNotSettled",
      "type": "error"
    },
    {
      "inputs": [],
      "name": "BalanceOverflow",
      "type": "error"
    },
    {
      "inputs": [],
      "name": "BeforeAddLiquidityHookFailed",
      "type": "error"
    },
    {
      "inputs": [],
      "name": "BeforeInitializeHookFailed",
      "type": "error"
    },
    {
      "inputs": [],
      "name": "BeforeRemoveLiquidityHookFailed",
      "type": "error"
    },
    {
      "inputs": [],
      "name": "BeforeSwapHookFailed",
      "type": "error"
    },
    {
      "inputs": [
        {
          "internalType": "uint256",
          "name": "amountIn",
          "type": "uint256"
        },
        {
          "internalType": "uint256",
          "name": "maxAmountIn",
          "type": "uint256"
        }
      ],
      "name": "BptAmountInAboveMax",
      "type": "error"
    },
    {
      "inputs": [
        {
          "internalType": "uint256",
          "name": "amountOut",
          "type": "uint256"
        },
        {
          "internalType": "uint256",
          "name": "minAmountOut",
          "type": "uint256"
        }
      ],
      "name": "BptAmountOutBelowMin",
      "type": "error"
    },
    {
      "inputs": [
        {
          "internalType": "contract IERC4626",
          "name": "wrappedToken",
          "type": "address"
        }
      ],
      "name": "BufferAlreadyInitialized",
      "type": "error"
    },
    {
      "inputs": [
        {
          "internalType": "contract IERC4626",
          "name": "wrappedToken",
          "type": "address"
        }
      ],
      "name": "BufferNotInitialized",
      "type": "error"
    },
    {
      "inputs": [],
      "name": "BufferSharesInvalidOwner",
      "type": "error"
    },
    {
      "inputs": [],
      "name": "BufferSharesInvalidReceiver",
      "type": "error"
    },
    {
      "inputs": [
        {
          "internalType": "uint256",
          "name": "totalSupply",
          "type": "uint256"
        }
      ],
      "name": "BufferTotalSupplyTooLow",
      "type": "error"
    },
    {
      "inputs": [],
      "name": "CannotReceiveEth",
      "type": "error"
    },
    {
      "inputs": [],
      "name": "CannotSwapSameToken",
      "type": "error"
    },
    {
      "inputs": [],
      "name": "CodecOverflow",
      "type": "error"
    },
    {
      "inputs": [],
      "name": "DoesNotSupportAddLiquidityCustom",
      "type": "error"
    },
    {
      "inputs": [],
      "name": "DoesNotSupportDonation",
      "type": "error"
    },
    {
      "inputs": [],
      "name": "DoesNotSupportRemoveLiquidityCustom",
      "type": "error"
    },
    {
      "inputs": [],
      "name": "DoesNotSupportUnbalancedLiquidity",
      "type": "error"
    },
    {
      "inputs": [],
      "name": "DynamicSwapFeeHookFailed",
      "type": "error"
    },
    {
      "inputs": [
        {
          "internalType": "address",
          "name": "spender",
          "type": "address"
        },
        {
          "internalType": "uint256",
          "name": "allowance",
          "type": "uint256"
        },
        {
          "internalType": "uint256",
          "name": "needed",
          "type": "uint256"
        }
      ],
      "name": "ERC20InsufficientAllowance",
      "type": "error"
    },
    {
      "inputs": [
        {
          "internalType": "address",
          "name": "sender",
          "type": "address"
        },
        {
          "internalType": "uint256",
          "name": "balance",
          "type": "uint256"
        },
        {
          "internalType": "uint256",
          "name": "needed",
          "type": "uint256"
        }
      ],
      "name": "ERC20InsufficientBalance",
      "type": "error"
    },
    {
      "inputs": [
        {
          "internalType": "address",
          "name": "approver",
          "type": "address"
        }
      ],
      "name": "ERC20InvalidApprover",
      "type": "error"
    },
    {
      "inputs": [
        {
          "internalType": "address",
          "name": "receiver",
          "type": "address"
        }
      ],
      "name": "ERC20InvalidReceiver",
      "type": "error"
    },
    {
      "inputs": [
        {
          "internalType": "address",
          "name": "sender",
          "type": "address"
        }
      ],
      "name": "ERC20InvalidSender",
      "type": "error"
    },
    {
      "inputs": [
        {
          "internalType": "address",
          "name": "spender",
          "type": "address"
        }
      ],
      "name": "ERC20InvalidSpender",
      "type": "error"
    },
    {
      "inputs": [],
      "name": "ErrorSelectorNotFound",
      "type": "error"
    },
    {
      "inputs": [],
      "name": "FailedInnerCall",
      "type": "error"
    },
    {
      "inputs": [],
      "name": "FeePrecisionTooHigh",
      "type": "error"
    },
    {
      "inputs": [
        {
          "internalType": "contract IERC20",
          "name": "tokenIn",
          "type": "address"
        },
        {
          "internalType": "uint256",
          "name": "amountIn",
          "type": "uint256"
        },
        {
          "internalType": "uint256",
          "name": "maxAmountIn",
          "type": "uint256"
        }
      ],
      "name": "HookAdjustedAmountInAboveMax",
      "type": "error"
    },
    {
      "inputs": [
        {
          "internalType": "contract IERC20",
          "name": "tokenOut",
          "type": "address"
        },
        {
          "internalType": "uint256",
          "name": "amountOut",
          "type": "uint256"
        },
        {
          "internalType": "uint256",
          "name": "minAmountOut",
          "type": "uint256"
        }
      ],
      "name": "HookAdjustedAmountOutBelowMin",
      "type": "error"
    },
    {
      "inputs": [
        {
          "internalType": "uint256",
          "name": "amount",
          "type": "uint256"
        },
        {
          "internalType": "uint256",
          "name": "limit",
          "type": "uint256"
        }
      ],
      "name": "HookAdjustedSwapLimit",
      "type": "error"
    },
    {
      "inputs": [
        {
          "internalType": "address",
          "name": "poolHooksContract",
          "type": "address"
        },
        {
          "internalType": "address",
          "name": "pool",
          "type": "address"
        },
        {
          "internalType": "address",
          "name": "poolFactory",
          "type": "address"
        }
      ],
      "name": "HookRegistrationFailed",
      "type": "error"
    },
    {
      "inputs": [],
      "name": "InputLengthMismatch",
      "type": "error"
    },
    {
      "inputs": [],
      "name": "InvalidAddLiquidityKind",
      "type": "error"
    },
    {
      "inputs": [],
      "name": "InvalidRemoveLiquidityKind",
      "type": "error"
    },
    {
      "inputs": [],
      "name": "InvalidToken",
      "type": "error"
    },
    {
      "inputs": [],
      "name": "InvalidTokenConfiguration",
      "type": "error"
    },
    {
      "inputs": [],
      "name": "InvalidTokenDecimals",
      "type": "error"
    },
    {
      "inputs": [],
      "name": "InvalidTokenType",
      "type": "error"
    },
    {
      "inputs": [
        {
          "internalType": "contract IERC4626",
          "name": "wrappedToken",
          "type": "address"
        }
      ],
      "name": "InvalidUnderlyingToken",
      "type": "error"
    },
    {
      "inputs": [
        {
          "internalType": "uint256",
          "name": "issuedShares",
          "type": "uint256"
        },
        {
          "internalType": "uint256",
          "name": "minIssuedShares",
          "type": "uint256"
        }
      ],
      "name": "IssuedSharesBelowMin",
      "type": "error"
    },
    {
      "inputs": [],
      "name": "MaxTokens",
      "type": "error"
    },
    {
      "inputs": [],
      "name": "MinTokens",
      "type": "error"
    },
    {
      "inputs": [],
      "name": "NotEnoughBufferShares",
      "type": "error"
    },
    {
      "inputs": [
        {
          "internalType": "contract IERC4626",
          "name": "wrappedToken",
          "type": "address"
        },
        {
          "internalType": "uint256",
          "name": "expectedUnderlyingAmount",
          "type": "uint256"
        },
        {
          "internalType": "uint256",
          "name": "actualUnderlyingAmount",
          "type": "uint256"
        }
      ],
      "name": "NotEnoughUnderlying",
      "type": "error"
    },
    {
      "inputs": [
        {
          "internalType": "contract IERC4626",
          "name": "wrappedToken",
          "type": "address"
        },
        {
          "internalType": "uint256",
          "name": "expectedWrappedAmount",
          "type": "uint256"
        },
        {
          "internalType": "uint256",
          "name": "actualWrappedAmount",
          "type": "uint256"
        }
      ],
      "name": "NotEnoughWrapped",
      "type": "error"
    },
    {
      "inputs": [],
      "name": "NotStaticCall",
      "type": "error"
    },
    {
      "inputs": [],
      "name": "NotVaultDelegateCall",
      "type": "error"
    },
    {
      "inputs": [],
      "name": "OutOfBounds",
      "type": "error"
    },
    {
      "inputs": [],
      "name": "PauseBufferPeriodDurationTooLarge",
      "type": "error"
    },
    {
      "inputs": [],
      "name": "PercentageAboveMax",
      "type": "error"
    },
    {
      "inputs": [
        {
          "internalType": "address",
          "name": "pool",
          "type": "address"
        }
      ],
      "name": "PoolAlreadyInitialized",
      "type": "error"
    },
    {
      "inputs": [
        {
          "internalType": "address",
          "name": "pool",
          "type": "address"
        }
      ],
      "name": "PoolAlreadyRegistered",
      "type": "error"
    },
    {
      "inputs": [
        {
          "internalType": "address",
          "name": "pool",
          "type": "address"
        }
      ],
      "name": "PoolInRecoveryMode",
      "type": "error"
    },
    {
      "inputs": [
        {
          "internalType": "address",
          "name": "pool",
          "type": "address"
        }
      ],
      "name": "PoolNotInRecoveryMode",
      "type": "error"
    },
    {
      "inputs": [
        {
          "internalType": "address",
          "name": "pool",
          "type": "address"
        }
      ],
      "name": "PoolNotInitialized",
      "type": "error"
    },
    {
      "inputs": [
        {
          "internalType": "address",
          "name": "pool",
          "type": "address"
        }
      ],
      "name": "PoolNotPaused",
      "type": "error"
    },
    {
      "inputs": [
        {
          "internalType": "address",
          "name": "pool",
          "type": "address"
        }
      ],
      "name": "PoolNotRegistered",
      "type": "error"
    },
    {
      "inputs": [
        {
          "internalType": "address",
          "name": "pool",
          "type": "address"
        }
      ],
      "name": "PoolPauseWindowExpired",
      "type": "error"
    },
    {
      "inputs": [
        {
          "internalType": "address",
          "name": "pool",
          "type": "address"
        }
      ],
      "name": "PoolPaused",
      "type": "error"
    },
    {
      "inputs": [
        {
          "internalType": "uint256",
          "name": "totalSupply",
          "type": "uint256"
        }
      ],
      "name": "PoolTotalSupplyTooLow",
      "type": "error"
    },
    {
      "inputs": [],
      "name": "ProtocolFeesExceedTotalCollected",
      "type": "error"
    },
    {
      "inputs": [],
      "name": "QueriesDisabled",
      "type": "error"
    },
    {
      "inputs": [],
      "name": "QueriesDisabledPermanently",
      "type": "error"
    },
    {
      "inputs": [],
      "name": "QuoteResultSpoofed",
      "type": "error"
    },
    {
      "inputs": [],
      "name": "ReentrancyGuardReentrantCall",
      "type": "error"
    },
    {
      "inputs": [
        {
          "internalType": "bytes",
          "name": "result",
          "type": "bytes"
        }
      ],
      "name": "Result",
      "type": "error"
    },
    {
      "inputs": [],
      "name": "RouterNotTrusted",
      "type": "error"
    },
    {
      "inputs": [
        {
          "internalType": "uint256",
          "name": "value",
          "type": "uint256"
        }
      ],
      "name": "SafeCastOverflowedUintToInt",
      "type": "error"
    },
    {
      "inputs": [
        {
          "internalType": "address",
          "name": "sender",
          "type": "address"
        }
      ],
      "name": "SenderIsNotVault",
      "type": "error"
    },
    {
      "inputs": [],
      "name": "SwapFeePercentageTooHigh",
      "type": "error"
    },
    {
      "inputs": [],
      "name": "SwapFeePercentageTooLow",
      "type": "error"
    },
    {
      "inputs": [
        {
          "internalType": "uint256",
          "name": "amount",
          "type": "uint256"
        },
        {
          "internalType": "uint256",
          "name": "limit",
          "type": "uint256"
        }
      ],
      "name": "SwapLimit",
      "type": "error"
    },
    {
      "inputs": [
        {
          "internalType": "contract IERC20",
          "name": "token",
          "type": "address"
        }
      ],
      "name": "TokenAlreadyRegistered",
      "type": "error"
    },
    {
      "inputs": [
        {
          "internalType": "contract IERC20",
          "name": "token",
          "type": "address"
        }
      ],
      "name": "TokenNotRegistered",
      "type": "error"
    },
    {
      "inputs": [
        {
          "internalType": "address",
          "name": "pool",
          "type": "address"
        },
        {
          "internalType": "address",
          "name": "expectedToken",
          "type": "address"
        },
        {
          "internalType": "address",
          "name": "actualToken",
          "type": "address"
        }
      ],
      "name": "TokensMismatch",
      "type": "error"
    },
    {
      "inputs": [],
      "name": "TokensNotSorted",
      "type": "error"
    },
    {
      "inputs": [],
      "name": "TradeAmountTooSmall",
      "type": "error"
    },
    {
      "inputs": [],
      "name": "VaultBuffersArePaused",
      "type": "error"
    },
    {
      "inputs": [],
      "name": "VaultIsNotUnlocked",
      "type": "error"
    },
    {
      "inputs": [],
      "name": "VaultNotPaused",
      "type": "error"
    },
    {
      "inputs": [],
      "name": "VaultPauseWindowDurationTooLarge",
      "type": "error"
    },
    {
      "inputs": [],
      "name": "VaultPauseWindowExpired",
      "type": "error"
    },
    {
      "inputs": [],
      "name": "VaultPaused",
      "type": "error"
    },
    {
      "inputs": [
        {
          "internalType": "contract IERC4626",
          "name": "wrappedToken",
          "type": "address"
        }
      ],
      "name": "WrapAmountTooSmall",
      "type": "error"
    },
    {
      "inputs": [],
      "name": "WrongProtocolFeeControllerDeployment",
      "type": "error"
    },
    {
      "inputs": [
        {
          "internalType": "contract IERC4626",
          "name": "wrappedToken",
          "type": "address"
        },
        {
          "internalType": "address",
          "name": "underlyingToken",
          "type": "address"
        }
      ],
      "name": "WrongUnderlyingToken",
      "type": "error"
    },
    {
      "inputs": [],
      "name": "WrongVaultAdminDeployment",
      "type": "error"
    },
    {
      "inputs": [],
      "name": "WrongVaultExtensionDeployment",
      "type": "error"
    },
    {
      "anonymous": false,
      "inputs": [
        {
          "indexed": true,
          "internalType": "address",
          "name": "pool",
          "type": "address"
        },
        {
          "indexed": false,
          "internalType": "uint256",
          "name": "aggregateSwapFeePercentage",
          "type": "uint256"
        }
      ],
      "name": "AggregateSwapFeePercentageChanged",
      "type": "event"
    },
    {
      "anonymous": false,
      "inputs": [
        {
          "indexed": true,
          "internalType": "address",
          "name": "pool",
          "type": "address"
        },
        {
          "indexed": false,
          "internalType": "uint256",
          "name": "aggregateYieldFeePercentage",
          "type": "uint256"
        }
      ],
      "name": "AggregateYieldFeePercentageChanged",
      "type": "event"
    },
    {
      "anonymous": false,
      "inputs": [
        {
          "indexed": true,
          "internalType": "address",
          "name": "pool",
          "type": "address"
        },
        {
          "indexed": true,
          "internalType": "address",
          "name": "owner",
          "type": "address"
        },
        {
          "indexed": true,
          "internalType": "address",
          "name": "spender",
          "type": "address"
        },
        {
          "indexed": false,
          "internalType": "uint256",
          "name": "value",
          "type": "uint256"
        }
      ],
      "name": "Approval",
      "type": "event"
    },
    {
      "anonymous": false,
      "inputs": [
        {
          "indexed": true,
          "internalType": "contract IAuthorizer",
          "name": "newAuthorizer",
          "type": "address"
        }
      ],
      "name": "AuthorizerChanged",
      "type": "event"
    },
    {
      "anonymous": false,
      "inputs": [
        {
          "indexed": true,
          "internalType": "contract IERC4626",
          "name": "wrappedToken",
          "type": "address"
        },
        {
          "indexed": true,
          "internalType": "address",
          "name": "from",
          "type": "address"
        },
        {
          "indexed": false,
          "internalType": "uint256",
          "name": "burnedShares",
          "type": "uint256"
        }
      ],
      "name": "BufferSharesBurned",
      "type": "event"
    },
    {
      "anonymous": false,
      "inputs": [
        {
          "indexed": true,
          "internalType": "contract IERC4626",
          "name": "wrappedToken",
          "type": "address"
        },
        {
          "indexed": true,
          "internalType": "address",
          "name": "to",
          "type": "address"
        },
        {
          "indexed": false,
          "internalType": "uint256",
          "name": "issuedShares",
          "type": "uint256"
        }
      ],
      "name": "BufferSharesMinted",
      "type": "event"
    },
    {
      "anonymous": false,
      "inputs": [
        {
          "indexed": true,
          "internalType": "address",
          "name": "pool",
          "type": "address"
        },
        {
          "indexed": true,
          "internalType": "address",
          "name": "liquidityProvider",
          "type": "address"
        },
        {
          "indexed": true,
          "internalType": "enum AddLiquidityKind",
          "name": "kind",
          "type": "uint8"
        },
        {
          "indexed": false,
          "internalType": "uint256",
          "name": "totalSupply",
          "type": "uint256"
        },
        {
          "indexed": false,
          "internalType": "uint256[]",
          "name": "amountsAddedRaw",
          "type": "uint256[]"
        },
        {
          "indexed": false,
          "internalType": "uint256[]",
          "name": "swapFeeAmountsRaw",
          "type": "uint256[]"
        }
      ],
      "name": "LiquidityAdded",
      "type": "event"
    },
    {
      "anonymous": false,
      "inputs": [
        {
          "indexed": true,
          "internalType": "contract IERC4626",
          "name": "wrappedToken",
          "type": "address"
        },
        {
          "indexed": false,
          "internalType": "uint256",
          "name": "amountUnderlying",
          "type": "uint256"
        },
        {
          "indexed": false,
          "internalType": "uint256",
          "name": "amountWrapped",
          "type": "uint256"
        },
        {
          "indexed": false,
          "internalType": "bytes32",
          "name": "bufferBalances",
          "type": "bytes32"
        }
      ],
      "name": "LiquidityAddedToBuffer",
      "type": "event"
    },
    {
      "anonymous": false,
      "inputs": [
        {
          "indexed": true,
          "internalType": "address",
          "name": "pool",
          "type": "address"
        },
        {
          "indexed": true,
          "internalType": "address",
          "name": "liquidityProvider",
          "type": "address"
        },
        {
          "indexed": true,
          "internalType": "enum RemoveLiquidityKind",
          "name": "kind",
          "type": "uint8"
        },
        {
          "indexed": false,
          "internalType": "uint256",
          "name": "totalSupply",
          "type": "uint256"
        },
        {
          "indexed": false,
          "internalType": "uint256[]",
          "name": "amountsRemovedRaw",
          "type": "uint256[]"
        },
        {
          "indexed": false,
          "internalType": "uint256[]",
          "name": "swapFeeAmountsRaw",
          "type": "uint256[]"
        }
      ],
      "name": "LiquidityRemoved",
      "type": "event"
    },
    {
      "anonymous": false,
      "inputs": [
        {
          "indexed": true,
          "internalType": "contract IERC4626",
          "name": "wrappedToken",
          "type": "address"
        },
        {
          "indexed": false,
          "internalType": "uint256",
          "name": "amountUnderlying",
          "type": "uint256"
        },
        {
          "indexed": false,
          "internalType": "uint256",
          "name": "amountWrapped",
          "type": "uint256"
        },
        {
          "indexed": false,
          "internalType": "bytes32",
          "name": "bufferBalances",
          "type": "bytes32"
        }
      ],
      "name": "LiquidityRemovedFromBuffer",
      "type": "event"
    },
    {
      "anonymous": false,
      "inputs": [
        {
          "indexed": true,
          "internalType": "address",
          "name": "pool",
          "type": "address"
        }
      ],
      "name": "PoolInitialized",
      "type": "event"
    },
    {
      "anonymous": false,
      "inputs": [
        {
          "indexed": true,
          "internalType": "address",
          "name": "pool",
          "type": "address"
        },
        {
          "indexed": false,
          "internalType": "bool",
          "name": "paused",
          "type": "bool"
        }
      ],
      "name": "PoolPausedStateChanged",
      "type": "event"
    },
    {
      "anonymous": false,
      "inputs": [
        {
          "indexed": true,
          "internalType": "address",
          "name": "pool",
          "type": "address"
        },
        {
          "indexed": false,
          "internalType": "bool",
          "name": "recoveryMode",
          "type": "bool"
        }
      ],
      "name": "PoolRecoveryModeStateChanged",
      "type": "event"
    },
    {
      "anonymous": false,
      "inputs": [
        {
          "indexed": true,
          "internalType": "address",
          "name": "pool",
          "type": "address"
        },
        {
          "indexed": true,
          "internalType": "address",
          "name": "factory",
          "type": "address"
        },
        {
          "components": [
            {
              "internalType": "contract IERC20",
              "name": "token",
              "type": "address"
            },
            {
              "internalType": "enum TokenType",
              "name": "tokenType",
              "type": "uint8"
            },
            {
              "internalType": "contract IRateProvider",
              "name": "rateProvider",
              "type": "address"
            },
            {
              "internalType": "bool",
              "name": "paysYieldFees",
              "type": "bool"
            }
          ],
          "indexed": false,
          "internalType": "struct TokenConfig[]",
          "name": "tokenConfig",
          "type": "tuple[]"
        },
        {
          "indexed": false,
          "internalType": "uint256",
          "name": "swapFeePercentage",
          "type": "uint256"
        },
        {
          "indexed": false,
          "internalType": "uint32",
          "name": "pauseWindowEndTime",
          "type": "uint32"
        },
        {
          "components": [
            {
              "internalType": "address",
              "name": "pauseManager",
              "type": "address"
            },
            {
              "internalType": "address",
              "name": "swapFeeManager",
              "type": "address"
            },
            {
              "internalType": "address",
              "name": "poolCreator",
              "type": "address"
            }
          ],
          "indexed": false,
          "internalType": "struct PoolRoleAccounts",
          "name": "roleAccounts",
          "type": "tuple"
        },
        {
          "components": [
            {
              "internalType": "bool",
              "name": "enableHookAdjustedAmounts",
              "type": "bool"
            },
            {
              "internalType": "bool",
              "name": "shouldCallBeforeInitialize",
              "type": "bool"
            },
            {
              "internalType": "bool",
              "name": "shouldCallAfterInitialize",
              "type": "bool"
            },
            {
              "internalType": "bool",
              "name": "shouldCallComputeDynamicSwapFee",
              "type": "bool"
            },
            {
              "internalType": "bool",
              "name": "shouldCallBeforeSwap",
              "type": "bool"
            },
            {
              "internalType": "bool",
              "name": "shouldCallAfterSwap",
              "type": "bool"
            },
            {
              "internalType": "bool",
              "name": "shouldCallBeforeAddLiquidity",
              "type": "bool"
            },
            {
              "internalType": "bool",
              "name": "shouldCallAfterAddLiquidity",
              "type": "bool"
            },
            {
              "internalType": "bool",
              "name": "shouldCallBeforeRemoveLiquidity",
              "type": "bool"
            },
            {
              "internalType": "bool",
              "name": "shouldCallAfterRemoveLiquidity",
              "type": "bool"
            },
            {
              "internalType": "address",
              "name": "hooksContract",
              "type": "address"
            }
          ],
          "indexed": false,
          "internalType": "struct HooksConfig",
          "name": "hooksConfig",
          "type": "tuple"
        },
        {
          "components": [
            {
              "internalType": "bool",
              "name": "disableUnbalancedLiquidity",
              "type": "bool"
            },
            {
              "internalType": "bool",
              "name": "enableAddLiquidityCustom",
              "type": "bool"
            },
            {
              "internalType": "bool",
              "name": "enableRemoveLiquidityCustom",
              "type": "bool"
            },
            {
              "internalType": "bool",
              "name": "enableDonation",
              "type": "bool"
            }
          ],
          "indexed": false,
          "internalType": "struct LiquidityManagement",
          "name": "liquidityManagement",
          "type": "tuple"
        }
      ],
      "name": "PoolRegistered",
      "type": "event"
    },
    {
      "anonymous": false,
      "inputs": [
        {
          "indexed": true,
          "internalType": "contract IProtocolFeeController",
          "name": "newProtocolFeeController",
          "type": "address"
        }
      ],
      "name": "ProtocolFeeControllerChanged",
      "type": "event"
    },
    {
      "anonymous": false,
      "inputs": [
        {
          "indexed": true,
          "internalType": "address",
          "name": "pool",
          "type": "address"
        },
        {
          "indexed": true,
          "internalType": "contract IERC20",
          "name": "tokenIn",
          "type": "address"
        },
        {
          "indexed": true,
          "internalType": "contract IERC20",
          "name": "tokenOut",
          "type": "address"
        },
        {
          "indexed": false,
          "internalType": "uint256",
          "name": "amountIn",
          "type": "uint256"
        },
        {
          "indexed": false,
          "internalType": "uint256",
          "name": "amountOut",
          "type": "uint256"
        },
        {
          "indexed": false,
          "internalType": "uint256",
          "name": "swapFeePercentage",
          "type": "uint256"
        },
        {
          "indexed": false,
          "internalType": "uint256",
          "name": "swapFeeAmount",
          "type": "uint256"
        }
      ],
      "name": "Swap",
      "type": "event"
    },
    {
      "anonymous": false,
      "inputs": [
        {
          "indexed": true,
          "internalType": "address",
          "name": "pool",
          "type": "address"
        },
        {
          "indexed": false,
          "internalType": "uint256",
          "name": "swapFeePercentage",
          "type": "uint256"
        }
      ],
      "name": "SwapFeePercentageChanged",
      "type": "event"
    },
    {
      "anonymous": false,
      "inputs": [
        {
          "indexed": true,
          "internalType": "address",
          "name": "pool",
          "type": "address"
        },
        {
          "indexed": true,
          "internalType": "address",
          "name": "from",
          "type": "address"
        },
        {
          "indexed": true,
          "internalType": "address",
          "name": "to",
          "type": "address"
        },
        {
          "indexed": false,
          "internalType": "uint256",
          "name": "value",
          "type": "uint256"
        }
      ],
      "name": "Transfer",
      "type": "event"
    },
    {
      "anonymous": false,
      "inputs": [
        {
          "indexed": true,
          "internalType": "contract IERC4626",
          "name": "wrappedToken",
          "type": "address"
        },
        {
          "indexed": false,
          "internalType": "uint256",
          "name": "burnedShares",
          "type": "uint256"
        },
        {
          "indexed": false,
          "internalType": "uint256",
          "name": "withdrawnUnderlying",
          "type": "uint256"
        },
        {
          "indexed": false,
          "internalType": "bytes32",
          "name": "bufferBalances",
          "type": "bytes32"
        }
      ],
      "name": "Unwrap",
      "type": "event"
    },
    {
      "anonymous": false,
      "inputs": [
        {
          "indexed": false,
          "internalType": "address",
          "name": "pool",
          "type": "address"
        },
        {
          "indexed": false,
          "internalType": "string",
          "name": "eventKey",
          "type": "string"
        },
        {
          "indexed": false,
          "internalType": "bytes",
          "name": "eventData",
          "type": "bytes"
        }
      ],
      "name": "VaultAuxiliary",
      "type": "event"
    },
    {
      "anonymous": false,
      "inputs": [
        {
          "indexed": false,
          "internalType": "bool",
          "name": "paused",
          "type": "bool"
        }
      ],
      "name": "VaultBuffersPausedStateChanged",
      "type": "event"
    },
    {
      "anonymous": false,
      "inputs": [
        {
          "indexed": false,
          "internalType": "bool",
          "name": "paused",
          "type": "bool"
        }
      ],
      "name": "VaultPausedStateChanged",
      "type": "event"
    },
    {
      "anonymous": false,
      "inputs": [],
      "name": "VaultQueriesDisabled",
      "type": "event"
    },
    {
      "anonymous": false,
      "inputs": [],
      "name": "VaultQueriesEnabled",
      "type": "event"
    },
    {
      "anonymous": false,
      "inputs": [
        {
          "indexed": true,
          "internalType": "contract IERC4626",
          "name": "wrappedToken",
          "type": "address"
        },
        {
          "indexed": false,
          "internalType": "uint256",
          "name": "depositedUnderlying",
          "type": "uint256"
        },
        {
          "indexed": false,
          "internalType": "uint256",
          "name": "mintedShares",
          "type": "uint256"
        },
        {
          "indexed": false,
          "internalType": "bytes32",
          "name": "bufferBalances",
          "type": "bytes32"
        }
      ],
      "name": "Wrap",
      "type": "event"
    },
    {
      "stateMutability": "payable",
      "type": "fallback"
    },
    {
      "inputs": [
        {
          "internalType": "address",
          "name": "token",
          "type": "address"
        },
        {
          "internalType": "address",
          "name": "owner",
          "type": "address"
        },
        {
          "internalType": "address",
          "name": "spender",
          "type": "address"
        }
      ],
      "name": "allowance",
      "outputs": [
        {
          "internalType": "uint256",
          "name": "",
          "type": "uint256"
        }
      ],
      "stateMutability": "view",
      "type": "function"
    },
    {
      "inputs": [
        {
          "internalType": "address",
          "name": "owner",
          "type": "address"
        },
        {
          "internalType": "address",
          "name": "spender",
          "type": "address"
        },
        {
          "internalType": "uint256",
          "name": "amount",
          "type": "uint256"
        }
      ],
      "name": "approve",
      "outputs": [
        {
          "internalType": "bool",
          "name": "",
          "type": "bool"
        }
      ],
      "stateMutability": "nonpayable",
      "type": "function"
    },
    {
      "inputs": [
        {
          "internalType": "address",
          "name": "token",
          "type": "address"
        },
        {
          "internalType": "address",
          "name": "account",
          "type": "address"
        }
      ],
      "name": "balanceOf",
      "outputs": [
        {
          "internalType": "uint256",
          "name": "",
          "type": "uint256"
        }
      ],
      "stateMutability": "view",
      "type": "function"
    },
    {
      "inputs": [
        {
          "internalType": "address",
          "name": "pool",
          "type": "address"
        },
        {
          "components": [
            {
              "internalType": "enum SwapKind",
              "name": "kind",
              "type": "uint8"
            },
            {
              "internalType": "uint256",
              "name": "amountGivenScaled18",
              "type": "uint256"
            },
            {
              "internalType": "uint256[]",
              "name": "balancesScaled18",
              "type": "uint256[]"
            },
            {
              "internalType": "uint256",
              "name": "indexIn",
              "type": "uint256"
            },
            {
              "internalType": "uint256",
              "name": "indexOut",
              "type": "uint256"
            },
            {
              "internalType": "address",
              "name": "router",
              "type": "address"
            },
            {
              "internalType": "bytes",
              "name": "userData",
              "type": "bytes"
            }
          ],
          "internalType": "struct PoolSwapParams",
          "name": "swapParams",
          "type": "tuple"
        }
      ],
      "name": "computeDynamicSwapFeePercentage",
      "outputs": [
        {
          "internalType": "uint256",
          "name": "dynamicSwapFeePercentage",
          "type": "uint256"
        }
      ],
      "stateMutability": "view",
      "type": "function"
    },
    {
      "inputs": [
        {
          "internalType": "string",
          "name": "eventKey",
          "type": "string"
        },
        {
          "internalType": "bytes",
          "name": "eventData",
          "type": "bytes"
        }
      ],
      "name": "emitAuxiliaryEvent",
      "outputs": [],
      "stateMutability": "nonpayable",
      "type": "function"
    },
    {
      "inputs": [
        {
          "internalType": "address",
          "name": "pool",
          "type": "address"
        }
      ],
      "name": "getAddLiquidityCalledFlag",
      "outputs": [
        {
          "internalType": "bool",
          "name": "",
          "type": "bool"
        }
      ],
      "stateMutability": "view",
      "type": "function"
    },
    {
      "inputs": [
        {
          "internalType": "address",
          "name": "pool",
          "type": "address"
        },
        {
          "internalType": "contract IERC20",
          "name": "token",
          "type": "address"
        }
      ],
      "name": "getAggregateSwapFeeAmount",
      "outputs": [
        {
          "internalType": "uint256",
          "name": "",
          "type": "uint256"
        }
      ],
      "stateMutability": "view",
      "type": "function"
    },
    {
      "inputs": [
        {
          "internalType": "address",
          "name": "pool",
          "type": "address"
        },
        {
          "internalType": "contract IERC20",
          "name": "token",
          "type": "address"
        }
      ],
      "name": "getAggregateYieldFeeAmount",
      "outputs": [
        {
          "internalType": "uint256",
          "name": "",
          "type": "uint256"
        }
      ],
      "stateMutability": "view",
      "type": "function"
    },
    {
      "inputs": [
        {
          "internalType": "address",
          "name": "pool",
          "type": "address"
        }
      ],
      "name": "getBptRate",
      "outputs": [
        {
          "internalType": "uint256",
          "name": "rate",
          "type": "uint256"
        }
      ],
      "stateMutability": "view",
      "type": "function"
    },
    {
      "inputs": [
        {
          "internalType": "address",
          "name": "pool",
          "type": "address"
        }
      ],
      "name": "getCurrentLiveBalances",
      "outputs": [
        {
          "internalType": "uint256[]",
          "name": "balancesLiveScaled18",
          "type": "uint256[]"
        }
      ],
      "stateMutability": "view",
      "type": "function"
    },
    {
      "inputs": [
        {
          "internalType": "contract IERC4626",
          "name": "wrappedToken",
          "type": "address"
        }
      ],
      "name": "getERC4626BufferAsset",
      "outputs": [
        {
          "internalType": "address",
          "name": "asset",
          "type": "address"
        }
      ],
      "stateMutability": "view",
      "type": "function"
    },
    {
      "inputs": [
        {
          "internalType": "address",
          "name": "pool",
          "type": "address"
        }
      ],
      "name": "getHooksConfig",
      "outputs": [
        {
          "components": [
            {
              "internalType": "bool",
              "name": "enableHookAdjustedAmounts",
              "type": "bool"
            },
            {
              "internalType": "bool",
              "name": "shouldCallBeforeInitialize",
              "type": "bool"
            },
            {
              "internalType": "bool",
              "name": "shouldCallAfterInitialize",
              "type": "bool"
            },
            {
              "internalType": "bool",
              "name": "shouldCallComputeDynamicSwapFee",
              "type": "bool"
            },
            {
              "internalType": "bool",
              "name": "shouldCallBeforeSwap",
              "type": "bool"
            },
            {
              "internalType": "bool",
              "name": "shouldCallAfterSwap",
              "type": "bool"
            },
            {
              "internalType": "bool",
              "name": "shouldCallBeforeAddLiquidity",
              "type": "bool"
            },
            {
              "internalType": "bool",
              "name": "shouldCallAfterAddLiquidity",
              "type": "bool"
            },
            {
              "internalType": "bool",
              "name": "shouldCallBeforeRemoveLiquidity",
              "type": "bool"
            },
            {
              "internalType": "bool",
              "name": "shouldCallAfterRemoveLiquidity",
              "type": "bool"
            },
            {
              "internalType": "address",
              "name": "hooksContract",
              "type": "address"
            }
          ],
          "internalType": "struct HooksConfig",
          "name": "",
          "type": "tuple"
        }
      ],
      "stateMutability": "view",
      "type": "function"
    },
    {
      "inputs": [],
      "name": "getNonzeroDeltaCount",
      "outputs": [
        {
          "internalType": "uint256",
          "name": "",
          "type": "uint256"
        }
      ],
      "stateMutability": "view",
      "type": "function"
    },
    {
      "inputs": [
        {
          "internalType": "address",
          "name": "pool",
          "type": "address"
        }
      ],
      "name": "getPoolConfig",
      "outputs": [
        {
          "components": [
            {
              "components": [
                {
                  "internalType": "bool",
                  "name": "disableUnbalancedLiquidity",
                  "type": "bool"
                },
                {
                  "internalType": "bool",
                  "name": "enableAddLiquidityCustom",
                  "type": "bool"
                },
                {
                  "internalType": "bool",
                  "name": "enableRemoveLiquidityCustom",
                  "type": "bool"
                },
                {
                  "internalType": "bool",
                  "name": "enableDonation",
                  "type": "bool"
                }
              ],
              "internalType": "struct LiquidityManagement",
              "name": "liquidityManagement",
              "type": "tuple"
            },
            {
              "internalType": "uint256",
              "name": "staticSwapFeePercentage",
              "type": "uint256"
            },
            {
              "internalType": "uint256",
              "name": "aggregateSwapFeePercentage",
              "type": "uint256"
            },
            {
              "internalType": "uint256",
              "name": "aggregateYieldFeePercentage",
              "type": "uint256"
            },
            {
              "internalType": "uint40",
              "name": "tokenDecimalDiffs",
              "type": "uint40"
            },
            {
              "internalType": "uint32",
              "name": "pauseWindowEndTime",
              "type": "uint32"
            },
            {
              "internalType": "bool",
              "name": "isPoolRegistered",
              "type": "bool"
            },
            {
              "internalType": "bool",
              "name": "isPoolInitialized",
              "type": "bool"
            },
            {
              "internalType": "bool",
              "name": "isPoolPaused",
              "type": "bool"
            },
            {
              "internalType": "bool",
              "name": "isPoolInRecoveryMode",
              "type": "bool"
            }
          ],
          "internalType": "struct PoolConfig",
          "name": "",
          "type": "tuple"
        }
      ],
      "stateMutability": "view",
      "type": "function"
    },
    {
      "inputs": [
        {
          "internalType": "address",
          "name": "pool",
          "type": "address"
        }
      ],
      "name": "getPoolData",
      "outputs": [
        {
          "components": [
            {
              "internalType": "PoolConfigBits",
              "name": "poolConfigBits",
              "type": "bytes32"
            },
            {
              "internalType": "contract IERC20[]",
              "name": "tokens",
              "type": "address[]"
            },
            {
              "components": [
                {
                  "internalType": "enum TokenType",
                  "name": "tokenType",
                  "type": "uint8"
                },
                {
                  "internalType": "contract IRateProvider",
                  "name": "rateProvider",
                  "type": "address"
                },
                {
                  "internalType": "bool",
                  "name": "paysYieldFees",
                  "type": "bool"
                }
              ],
              "internalType": "struct TokenInfo[]",
              "name": "tokenInfo",
              "type": "tuple[]"
            },
            {
              "internalType": "uint256[]",
              "name": "balancesRaw",
              "type": "uint256[]"
            },
            {
              "internalType": "uint256[]",
              "name": "balancesLiveScaled18",
              "type": "uint256[]"
            },
            {
              "internalType": "uint256[]",
              "name": "tokenRates",
              "type": "uint256[]"
            },
            {
              "internalType": "uint256[]",
              "name": "decimalScalingFactors",
              "type": "uint256[]"
            }
          ],
          "internalType": "struct PoolData",
          "name": "",
          "type": "tuple"
        }
      ],
      "stateMutability": "view",
      "type": "function"
    },
    {
      "inputs": [
        {
          "internalType": "address",
          "name": "pool",
          "type": "address"
        }
      ],
      "name": "getPoolPausedState",
      "outputs": [
        {
          "internalType": "bool",
          "name": "",
          "type": "bool"
        },
        {
          "internalType": "uint32",
          "name": "",
          "type": "uint32"
        },
        {
          "internalType": "uint32",
          "name": "",
          "type": "uint32"
        },
        {
          "internalType": "address",
          "name": "",
          "type": "address"
        }
      ],
      "stateMutability": "view",
      "type": "function"
    },
    {
      "inputs": [
        {
          "internalType": "address",
          "name": "pool",
          "type": "address"
        }
      ],
      "name": "getPoolRoleAccounts",
      "outputs": [
        {
          "components": [
            {
              "internalType": "address",
              "name": "pauseManager",
              "type": "address"
            },
            {
              "internalType": "address",
              "name": "swapFeeManager",
              "type": "address"
            },
            {
              "internalType": "address",
              "name": "poolCreator",
              "type": "address"
            }
          ],
          "internalType": "struct PoolRoleAccounts",
          "name": "",
          "type": "tuple"
        }
      ],
      "stateMutability": "view",
      "type": "function"
    },
    {
      "inputs": [
        {
          "internalType": "address",
          "name": "pool",
          "type": "address"
        }
      ],
      "name": "getPoolTokenInfo",
      "outputs": [
        {
          "internalType": "contract IERC20[]",
          "name": "tokens",
          "type": "address[]"
        },
        {
          "components": [
            {
              "internalType": "enum TokenType",
              "name": "tokenType",
              "type": "uint8"
            },
            {
              "internalType": "contract IRateProvider",
              "name": "rateProvider",
              "type": "address"
            },
            {
              "internalType": "bool",
              "name": "paysYieldFees",
              "type": "bool"
            }
          ],
          "internalType": "struct TokenInfo[]",
          "name": "tokenInfo",
          "type": "tuple[]"
        },
        {
          "internalType": "uint256[]",
          "name": "balancesRaw",
          "type": "uint256[]"
        },
        {
          "internalType": "uint256[]",
          "name": "lastBalancesLiveScaled18",
          "type": "uint256[]"
        }
      ],
      "stateMutability": "view",
      "type": "function"
    },
    {
      "inputs": [
        {
          "internalType": "address",
          "name": "pool",
          "type": "address"
        }
      ],
      "name": "getPoolTokenRates",
      "outputs": [
        {
          "internalType": "uint256[]",
          "name": "decimalScalingFactors",
          "type": "uint256[]"
        },
        {
          "internalType": "uint256[]",
          "name": "tokenRates",
          "type": "uint256[]"
        }
      ],
      "stateMutability": "view",
      "type": "function"
    },
    {
      "inputs": [
        {
          "internalType": "address",
          "name": "pool",
          "type": "address"
        }
      ],
      "name": "getPoolTokens",
      "outputs": [
        {
          "internalType": "contract IERC20[]",
          "name": "tokens",
          "type": "address[]"
        }
      ],
      "stateMutability": "view",
      "type": "function"
    },
    {
      "inputs": [],
      "name": "getProtocolFeeController",
      "outputs": [
        {
          "internalType": "contract IProtocolFeeController",
          "name": "",
          "type": "address"
        }
      ],
      "stateMutability": "view",
      "type": "function"
    },
    {
      "inputs": [
        {
          "internalType": "contract IERC20",
          "name": "token",
          "type": "address"
        }
      ],
      "name": "getReservesOf",
      "outputs": [
        {
          "internalType": "uint256",
          "name": "",
          "type": "uint256"
        }
      ],
      "stateMutability": "view",
      "type": "function"
    },
    {
      "inputs": [
        {
          "internalType": "address",
          "name": "pool",
          "type": "address"
        }
      ],
      "name": "getStaticSwapFeePercentage",
      "outputs": [
        {
          "internalType": "uint256",
          "name": "",
          "type": "uint256"
        }
      ],
      "stateMutability": "view",
      "type": "function"
    },
    {
      "inputs": [
        {
          "internalType": "contract IERC20",
          "name": "token",
          "type": "address"
        }
      ],
      "name": "getTokenDelta",
      "outputs": [
        {
          "internalType": "int256",
          "name": "",
          "type": "int256"
        }
      ],
      "stateMutability": "view",
      "type": "function"
    },
    {
      "inputs": [],
      "name": "getVaultAdmin",
      "outputs": [
        {
          "internalType": "address",
          "name": "",
          "type": "address"
        }
      ],
      "stateMutability": "view",
      "type": "function"
    },
    {
      "inputs": [
        {
          "internalType": "address",
          "name": "pool",
          "type": "address"
        },
        {
          "internalType": "address",
          "name": "to",
          "type": "address"
        },
        {
          "internalType": "contract IERC20[]",
          "name": "tokens",
          "type": "address[]"
        },
        {
          "internalType": "uint256[]",
          "name": "exactAmountsIn",
          "type": "uint256[]"
        },
        {
          "internalType": "uint256",
          "name": "minBptAmountOut",
          "type": "uint256"
        },
        {
          "internalType": "bytes",
          "name": "userData",
          "type": "bytes"
        }
      ],
      "name": "initialize",
      "outputs": [
        {
          "internalType": "uint256",
          "name": "bptAmountOut",
          "type": "uint256"
        }
      ],
      "stateMutability": "nonpayable",
      "type": "function"
    },
    {
      "inputs": [
        {
          "internalType": "contract IERC4626",
          "name": "wrappedToken",
          "type": "address"
        }
      ],
      "name": "isERC4626BufferInitialized",
      "outputs": [
        {
          "internalType": "bool",
          "name": "",
          "type": "bool"
        }
      ],
      "stateMutability": "view",
      "type": "function"
    },
    {
      "inputs": [
        {
          "internalType": "address",
          "name": "pool",
          "type": "address"
        }
      ],
      "name": "isPoolInRecoveryMode",
      "outputs": [
        {
          "internalType": "bool",
          "name": "",
          "type": "bool"
        }
      ],
      "stateMutability": "view",
      "type": "function"
    },
    {
      "inputs": [
        {
          "internalType": "address",
          "name": "pool",
          "type": "address"
        }
      ],
      "name": "isPoolInitialized",
      "outputs": [
        {
          "internalType": "bool",
          "name": "",
          "type": "bool"
        }
      ],
      "stateMutability": "view",
      "type": "function"
    },
    {
      "inputs": [
        {
          "internalType": "address",
          "name": "pool",
          "type": "address"
        }
      ],
      "name": "isPoolPaused",
      "outputs": [
        {
          "internalType": "bool",
          "name": "",
          "type": "bool"
        }
      ],
      "stateMutability": "view",
      "type": "function"
    },
    {
      "inputs": [
        {
          "internalType": "address",
          "name": "pool",
          "type": "address"
        }
      ],
      "name": "isPoolRegistered",
      "outputs": [
        {
          "internalType": "bool",
          "name": "",
          "type": "bool"
        }
      ],
      "stateMutability": "view",
      "type": "function"
    },
    {
      "inputs": [],
      "name": "isQueryDisabled",
      "outputs": [
        {
          "internalType": "bool",
          "name": "",
          "type": "bool"
        }
      ],
      "stateMutability": "view",
      "type": "function"
    },
    {
      "inputs": [],
      "name": "isQueryDisabledPermanently",
      "outputs": [
        {
          "internalType": "bool",
          "name": "",
          "type": "bool"
        }
      ],
      "stateMutability": "view",
      "type": "function"
    },
    {
      "inputs": [],
      "name": "isUnlocked",
      "outputs": [
        {
          "internalType": "bool",
          "name": "",
          "type": "bool"
        }
      ],
      "stateMutability": "view",
      "type": "function"
    },
    {
      "inputs": [
        {
          "internalType": "bytes",
          "name": "data",
          "type": "bytes"
        }
      ],
      "name": "quote",
      "outputs": [
        {
          "internalType": "bytes",
          "name": "result",
          "type": "bytes"
        }
      ],
      "stateMutability": "nonpayable",
      "type": "function"
    },
    {
      "inputs": [
        {
          "internalType": "bytes",
          "name": "data",
          "type": "bytes"
        }
      ],
      "name": "quoteAndRevert",
      "outputs": [],
      "stateMutability": "nonpayable",
      "type": "function"
    },
    {
      "inputs": [],
      "name": "reentrancyGuardEntered",
      "outputs": [
        {
          "internalType": "bool",
          "name": "",
          "type": "bool"
        }
      ],
      "stateMutability": "view",
      "type": "function"
    },
    {
      "inputs": [
        {
          "internalType": "address",
          "name": "pool",
          "type": "address"
        },
        {
          "components": [
            {
              "internalType": "contract IERC20",
              "name": "token",
              "type": "address"
            },
            {
              "internalType": "enum TokenType",
              "name": "tokenType",
              "type": "uint8"
            },
            {
              "internalType": "contract IRateProvider",
              "name": "rateProvider",
              "type": "address"
            },
            {
              "internalType": "bool",
              "name": "paysYieldFees",
              "type": "bool"
            }
          ],
          "internalType": "struct TokenConfig[]",
          "name": "tokenConfig",
          "type": "tuple[]"
        },
        {
          "internalType": "uint256",
          "name": "swapFeePercentage",
          "type": "uint256"
        },
        {
          "internalType": "uint32",
          "name": "pauseWindowEndTime",
          "type": "uint32"
        },
        {
          "internalType": "bool",
          "name": "protocolFeeExempt",
          "type": "bool"
        },
        {
          "components": [
            {
              "internalType": "address",
              "name": "pauseManager",
              "type": "address"
            },
            {
              "internalType": "address",
              "name": "swapFeeManager",
              "type": "address"
            },
            {
              "internalType": "address",
              "name": "poolCreator",
              "type": "address"
            }
          ],
          "internalType": "struct PoolRoleAccounts",
          "name": "roleAccounts",
          "type": "tuple"
        },
        {
          "internalType": "address",
          "name": "poolHooksContract",
          "type": "address"
        },
        {
          "components": [
            {
              "internalType": "bool",
              "name": "disableUnbalancedLiquidity",
              "type": "bool"
            },
            {
              "internalType": "bool",
              "name": "enableAddLiquidityCustom",
              "type": "bool"
            },
            {
              "internalType": "bool",
              "name": "enableRemoveLiquidityCustom",
              "type": "bool"
            },
            {
              "internalType": "bool",
              "name": "enableDonation",
              "type": "bool"
            }
          ],
          "internalType": "struct LiquidityManagement",
          "name": "liquidityManagement",
          "type": "tuple"
        }
      ],
      "name": "registerPool",
      "outputs": [],
      "stateMutability": "nonpayable",
      "type": "function"
    },
    {
      "inputs": [
        {
          "internalType": "address",
          "name": "pool",
          "type": "address"
        },
        {
          "internalType": "address",
          "name": "from",
          "type": "address"
        },
        {
          "internalType": "uint256",
          "name": "exactBptAmountIn",
          "type": "uint256"
        },
        {
          "internalType": "uint256[]",
          "name": "minAmountsOut",
          "type": "uint256[]"
        }
      ],
      "name": "removeLiquidityRecovery",
      "outputs": [
        {
          "internalType": "uint256[]",
          "name": "amountsOutRaw",
          "type": "uint256[]"
        }
      ],
      "stateMutability": "nonpayable",
      "type": "function"
    },
    {
      "inputs": [
        {
          "internalType": "address",
          "name": "token",
          "type": "address"
        }
      ],
      "name": "totalSupply",
      "outputs": [
        {
          "internalType": "uint256",
          "name": "",
          "type": "uint256"
        }
      ],
      "stateMutability": "view",
      "type": "function"
    },
    {
      "inputs": [],
      "name": "vault",
      "outputs": [
        {
          "internalType": "contract IVault",
          "name": "",
          "type": "address"
        }
      ],
      "stateMutability": "view",
      "type": "function"
    },
    {
      "stateMutability": "payable",
      "type": "receive"
    }
  ],
  "bytecode": "0x6101e06040908082523461033157818161530080380380916100218285610375565b8339810103126103315761003481610398565b6020918201516001600160a01b0392909190838316908184036103315761007a865161005f81610346565b600a8152691a5cd55b9b1bd8dad95960b21b838201526103c8565b60c0526100ad865161008b81610346565b60118152701b9bdb96995c9bd1195b1d1850dbdd5b9d607a1b838201526103c8565b60e0526100da86516100be81610346565b600b81526a746f6b656e44656c74617360a81b838201526103c8565b9561010096875261011281516100ef81610346565b6012815271185919131a5c5d5a591a5d1e50d85b1b195960721b848201526103c8565b610120908152815163fbfa77cf60e01b815290968382600481885afa91821561033c575f92610301575b508086169116036102f2578051634546891d60e11b8152908282600481875afa9182156102e8575f926102c9575b506101409182528051631060fdbd60e11b8152938385600481845afa94851561029b575f956102a5575b508360049161018096875283519283809263cd51c12f60e01b82525afa93841561029b575f9461026c575b50506101609283526101a09485526101c09586525195614e64978861049c893960805188505060a05188505060c0518881816110f401528181612dd60152612fe0015260e051888181611b6d015281816147b401526147fc01525187818161126d015261475a01525186818161142801526117230152518550505184613a9b0152518381816105b40152612c380152518281816120d1015261294e01525181818161063401526129110152f35b61028c929450803d10610294575b6102848183610375565b8101906103ac565b915f806101bf565b503d61027a565b82513d5f823e3d90fd5b60049195506102c18591823d8411610294576102848183610375565b959150610194565b6102e1919250833d8511610294576102848183610375565b905f61016a565b50513d5f823e3d90fd5b634166145b60e11b5f5260045ffd5b9091508381813d8311610335575b6103198183610375565b810103126103315761032a90610398565b905f61013c565b5f80fd5b503d61030f565b83513d5f823e3d90fd5b604081019081106001600160401b0382111761036157604052565b634e487b7160e01b5f52604160045260245ffd5b601f909101601f19168101906001600160401b0382119082101761036157604052565b51906001600160a01b038216820361033157565b90816020910312610331575163ffffffff811681036103315790565b604051906103d582610346565b600c8252610456603a602084016b5661756c7453746f7261676560a01b81526020604051948592828401977f62616c616e6365722d6c6162732e76332e73746f726167652e000000000000008952518091603986015e830190601760f91b60398301528051928391018583015e015f8382015203601a810184520182610375565b5190205f1981019081116104875760405190602082019081526020825261047c82610346565b9051902060ff191690565b634e487b7160e01b5f52601160045260245ffdfe60806040526004361015610018575b366128fa576128eb565b5f3560e01c8062fdfa13146102a657806313d21cdf146102a157806313ef8a5d1461029c57806315e32046146102975780631ba0ae45146102925780634afbaf5a1461028d5780634d472bdd146102885780634e1f396c146102835780634f037ee71461027e578063532cec7c14610279578063535cfd8a1461027457806367e0e0761461026f5780636844846b1461026a5780636c9bc73214610265578063757d64b3146102605780637e361bde1461025b5780638380edb71461025657806385e0b9991461025157806385f2dbd41461024c578063927da1051461024757806396787092146102425780639e825ff51461023d578063a07d604014610238578063ace9b89b14610233578063b45090f91461022e578063b4aef0ab14610229578063ba8a2be014610224578063be7d628a1461021f578063c673bdaf1461021a578063ca4f280314610215578063ce8630d414610210578063d2c725e01461020b578063db81718714610206578063e1f21c6714610201578063e4dc2aa4146101fc578063e9ddeb26146101f7578063edfa3568146101f2578063eeec802f146101ed578063f29486a1146101e8578063f7888aec146101e35763fbfa77cf0361000e576120b2565b612049565b611faf565b611dbb565b611d10565b611c55565b611bde565b611b95565b611b51565b611b13565b611a9f565b611968565b61190f565b6118bb565b6117d0565b6117a6565b61175a565b6116f7565b6112a3565b611241565b6111fd565b6111ad565b61117f565b61111e565b6110d8565b610fb8565b610ec6565b610e54565b610e0c565b610cbf565b610bb9565b610b55565b610a6c565b6109bd565b6108ad565b610658565b610615565b610573565b610549565b61045a565b610303565b6001600160a01b038116036102bc57565b5f80fd5b61010435906102ce826102ab565b565b35906102ce826102ab565b60409060031901126102bc576004356102f3816102ab565b90602435610300816102ab565b90565b346102bc5760206103526001600160a01b0361031e366102db565b9190610328612944565b61033181612985565b165f526006835260405f20906001600160a01b03165f5260205260405f2090565b5460801c604051908152f35b9081518082526020808093019301915f5b82811061037d575050505090565b83516001600160a01b03168552938101939281019260010161036f565b600211156103a457565b634e487b7160e01b5f52602160045260245ffd5b90604060609280516103c98161039a565b83526001600160a01b0360208201511660208401520151151560408201520190565b9081518082526020808093019301915f5b82811061040a575050505090565b909192938261041c60019287516103b8565b9501939291016103fc565b9081518082526020808093019301915f5b828110610446575050505090565b835185529381019392810192600101610438565b346102bc5760203660031901126102bc5761053b61049c60043561047d816102ab565b6104856120f5565b5061048e612944565b610497816129b7565b6129eb565b60405191829160208352805160208401526104c7602082015160e0604086015261010085019061035e565b60c06105296105166105026104ee604087015195601f1996878b83030160608c01526103eb565b6060870151868a83030160808b0152610427565b6080860151858983030160a08a0152610427565b60a0850151848883030184890152610427565b920151908483030160e0850152610427565b0390f35b5f9103126102bc57565b346102bc575f3660031901126102bc57610561612944565b602060ff600954166040519015158152f35b346102bc5760203660031901126102bc576080600435610592816102ab565b61059a612944565b6105a381612985565b6105ac81612bf9565b6105d99291927f000000000000000000000000000000000000000000000000000000000000000082612140565b916001600160a01b038091165f52600160205260405f20541691604051931515845263ffffffff80921660208501521660408301526060820152f35b346102bc575f3660031901126102bc5760206040516001600160a01b037f0000000000000000000000000000000000000000000000000000000000000000168152f35b346102bc5760203660031901126102bc576020600435610677816102ab565b61067f612944565b6001600160a01b038091165f52600e825260405f205416604051908152f35b634e487b7160e01b5f52604160045260245ffd5b6060810190811067ffffffffffffffff8211176106ce57604052565b61069e565b6080810190811067ffffffffffffffff8211176106ce57604052565b610140810190811067ffffffffffffffff8211176106ce57604052565b60e0810190811067ffffffffffffffff8211176106ce57604052565b67ffffffffffffffff81116106ce57604052565b90601f8019910116810190811067ffffffffffffffff8211176106ce57604052565b604051906102ce8261070c565b604051906102ce826106d3565b604051906102ce826106ef565b60405190610160820182811067ffffffffffffffff8211176106ce57604052565b604051906102ce826106b2565b600211156102bc57565b35906102ce826107b3565b67ffffffffffffffff81116106ce5760051b60200190565b9080601f830112156102bc5760209082356107fa816107c8565b93610808604051958661073c565b81855260208086019260051b8201019283116102bc57602001905b828210610831575050505090565b81358152908301908301610823565b67ffffffffffffffff81116106ce57601f01601f191660200190565b92919261086882610840565b91610876604051938461073c565b8294818452818301116102bc578281602093845f960137010152565b9080601f830112156102bc578160206103009335910161085c565b346102bc576003196040368201126102bc576004356108cb816102ab565b6024359067ffffffffffffffff928383116102bc5760e09083360301126102bc576108f461075e565b90610901836004016107bd565b82526024830135602083015260448301358481116102bc5761092990600436918601016107e0565b6040830152606483013560608301526084830135608083015261094e60a484016102d0565b60a083015260c48301359384116102bc5761097561097f93600461053b9636920101610892565b60c083015261215d565b6040519081529081906020820190565b9181601f840112156102bc5782359167ffffffffffffffff83116102bc57602083818601950101116102bc57565b346102bc5760403660031901126102bc5767ffffffffffffffff6004358181116102bc576109ef90369060040161098f565b6024359283116102bc57610a67610a2b7faab77de5d9273732599aefee9448827ea047e79241ed11070e8dc893dda4133f94369060040161098f565b610a33612944565b610a3c33612985565b610a5960405195869533875260606020880152606087019161223e565b91848303604086015261223e565b0390a1005b346102bc5760203660031901126102bc57600435610a89816102ab565b610a91612944565b610a9a816129b7565b610ace60206080610aaa846129eb565b015160405180938192631309bd3d60e31b8352604060048401526044830190610427565b6001602483015203816001600160a01b0386165afa8015610b505761053b9261097f925f92610b1b575b50610b14906001600160a01b03165f52601160205260405f2090565b5490612d9f565b610b14919250610b429060203d602011610b49575b610b3a818361073c565b81019061225e565b9190610af8565b503d610b30565b61228a565b346102bc5760203660031901126102bc576001600160a01b03600435610b7a816102ab565b610b82612944565b610b8b81612985565b165f525f6020526020600160405f2054811c166040519015158152f35b906020610300928181520190610427565b346102bc5760203660031901126102bc5761053b6080610bef600435610bde816102ab565b610be6612944565b61049781612985565b0151604051918291602083526020830190610427565b9081518082526020808093019301915f5b828110610c24575050505090565b83516001600160a01b031685529381019392810192600101610c16565b9290610c599095949295608085526080850190610c05565b6020908481036020860152602080885192838152019701915f5b828110610ca2575050505084610c9491846103009697036040860152610427565b916060818403910152610427565b9091929782610cb46001928b516103b8565b990193929101610c73565b346102bc5760203660031901126102bc57600435610cdc816102ab565b610ce4612944565b610ced81612985565b6001600160a01b0381165f52600560205260405f20610d25610d20836001600160a01b03165f52600360205260405f2090565b612295565b90815192610d328461230a565b93610d3c81612359565b91610d4682612359565b935f5b838110610d61576040518061053b88888c8c85610c41565b80610d7660019284905f5260205260405f2090565b54610dcd610dc88a610db3610da686610da08b6001600160a01b03165f52600460205260405f2090565b9361239f565b516001600160a01b031690565b6001600160a01b03165f5260205260405f2090565b6123c4565b610dd7838c61239f565b52610de2828b61239f565b506001600160801b038116610df7838961239f565b5260801c610e05828961239f565b5201610d49565b346102bc5760203660031901126102bc576020600435610e2b816102ab565b610e33612944565b6001600160a01b038091165f52600e825260405f2054161515604051908152f35b346102bc5760203660031901126102bc576020610e8c600435610e76816102ab565b610e7e612944565b610e8781612985565b612bf9565b506040519015158152f35b60206003198201126102bc576004359067ffffffffffffffff82116102bc57610ec29160040161098f565b9091565b346102bc575f80610ed636610e97565b90610edf612dc3565b610ee7612944565b8160405192839283378101838152039082335af1610f03612403565b908015610f375790610f1981610f339333612e25565b50604051630b56c9f760e31b815291829160048301611cff565b0390fd5b506004815110610f845760208101517fffffffff00000000000000000000000000000000000000000000000000000000166314a9360960e31b01612e16576328f9554160e01b5f5260045ffd5b63a728568960e01b5f5260045ffd5b9091610faa61030093604084526040840190610427565b916020818403910152610427565b346102bc5760203660031901126102bc57600435610fd5816102ab565b610fdd612944565b610fe681612985565b6001600160a01b038082165f525f60205260405f2054600360205260405f209160405180938491602082549182815201915f5260205f20935f905b8282106110b0575050506110379250038361073c565b61104382518092612e7f565b9161104d82612359565b935f5b838110611066576040518061053b888883610f93565b60019061109f61109a610dc861108d866001600160a01b03165f52600460205260405f2090565b610db3610da6868a61239f565b612ed1565b6110a9828961239f565b5201611050565b85546001600160a01b0390821616845260019586019588955060209094019390910190611021565b346102bc575f3660031901126102bc576110f0612944565b60207f00000000000000000000000000000000000000000000000000000000000000005c6040519015158152f35b346102bc5760206001600160801b036111756001600160a01b03611141366102db565b919061114b612944565b61115481612985565b165f526006845260405f20906001600160a01b03165f5260205260405f2090565b5416604051908152f35b346102bc575f3660031901126102bc57611197612944565b60206001600160a01b03600a5416604051908152f35b346102bc5760603660031901126102bc5760206111f56004356111cf816102ab565b6024356111db816102ab565b604435916111e8836102ab565b6111f0612944565b612f7c565b604051908152f35b346102bc5760203660031901126102bc576001600160a01b03600435611222816102ab565b61122a612944565b165f526008602052602060405f2054604051908152f35b346102bc5760203660031901126102bc5760206111f5600435611263816102ab565b61126b612944565b7f0000000000000000000000000000000000000000000000000000000000000000906001600160a01b03165f5260205260405f205c90565b346102bc5760803660031901126102bc576004356112c0816102ab565b6024356112cc816102ab565b6044359060643567ffffffffffffffff81116102bc576112f09036906004016107e0565b6112f8612944565b611300612fde565b611308613016565b611311846129b7565b6001600160a01b039384811691825f526020905f60205261133a60405f205460019060031c1690565b156116e45761135a836001600160a01b03165f52600560205260405f2090565b96611363612432565b92611382610d20866001600160a01b03165f52600360205260405f2090565b80855251966113976040860198808a52612359565b97608086019889525f5b81518110156113e157806113cf6113c26001938f905f5260205260405f2090565b546001600160801b031690565b6113da828d5161239f565b52016113a1565b50899896979861140f8189516114088c6001600160a01b03165f52601160205260405f2090565b5490613077565b9961141a8351612359565b95606089019687526114558b7f0000000000000000000000000000000000000000000000000000000000000000905f5260205260405f205c90565b151560a08a0181815295906116b7575b5f5b855181101561159c57611491818f8a8e838e6114838e51151590565b61154c575b5050505061239f565b5161149c828c61239f565b51116114fc57808c8f826114ef8f826114f5946114d66114c5610da660019b6114db965161239f565b6114cf848461239f565b51906130e8565b61239f565b519351936114e9838661239f565b51612486565b9261239f565b5201611467565b8d8a6115258361151e8f95611518610da682611549995161239f565b9561239f565b519261239f565b516317bc2f2360e11b5f526001600160a01b03909216600452602452604452606490565b5ffd5b61156b61157d9361158895611561858961239f565b51910151906130c6565b61157683835161239f565b525161239f565b516114e9848461239f565b611592838361239f565b528a8e838e611488565b508a95509187918d938d6115c1816001600160a01b03165f52600560205260405f2090565b965f5b895181101561161257806115f98c6115f2836115ea6001968f905f5260205260405f2090565b54925161239f565b519061310a565b61160b828c905f5260205260405f2090565b55016115c4565b61053b885f89897ffbe5b0d79fb94f1e81c0a92bf86ae9d3a19e9d1bf6202c0d3e75120f65d5d8a58a8a61169061167e8c6116678d61165381338886613118565b61165b61317b565b6116a7575b85836131e0565b6001600160a01b03165f52601160205260405f2090565b54955188604051948594169784612493565b0390a461169b613052565b60405191829182610ba8565b6116b281878561319d565b611660565b6116da6116d48d6001600160a01b03165f525f60205260405f2090565b54612ca0565b60208b0152611465565b8363ef029adf60e01b5f5260045260245ffd5b346102bc5760203660031901126102bc576020611750600435611719816102ab565b611721612944565b7f0000000000000000000000000000000000000000000000000000000000000000905f5260205260405f205c90565b6040519015158152f35b346102bc5760203660031901126102bc576001600160a01b0360043561177f816102ab565b611787612944565b61179081612985565b165f525f60205260206111f560405f2054612ca0565b346102bc575f3660031901126102bc576117be612944565b60206001600754166040519015158152f35b346102bc5760c03660031901126102bc576004356117ed816102ab565b602435906117fa826102ab565b6044359167ffffffffffffffff918284116102bc57366023850112156102bc578360040135611828816107c8565b94611836604051968761073c565b8186526020916024602088019160051b830101913683116102bc57602401905b8282106118a257505050506064358381116102bc576118799036906004016107e0565b60a4359384116102bc5761053b9461189861097f953690600401610892565b93608435936124be565b83809183356118b0816102ab565b815201910190611856565b346102bc5760203660031901126102bc576001600160a01b036004356118e0816102ab565b6118e8612944565b6118f181612985565b165f525f6020526020600160405f205460031c166040519015158152f35b346102bc5760203660031901126102bc576001600160a01b03600435611934816102ab565b61193c612944565b165f525f6020526020600160405f2054166040519015158152f35b906020610300928181520190610c05565b346102bc5760203660031901126102bc57600435611985816102ab565b61198d612944565b61199681612985565b6001600160a01b038091165f52600360205260405f20906040519081602084549182815201935f5260205f20915f905b8282106119e95761053b856119dd8189038261073c565b60405191829182611957565b909192946001611a0b819284895416906001600160a01b036020921681520190565b9601939201906119c6565b80511515825260208082015115159083015260408082015115159083015260608082015115159083015260808082015115159083015260a08082015115159083015260c08082015115159083015260e0808201511515908301526101008082015115159083015261012080820151151590830152610140908101516001600160a01b0316910152565b346102bc5760203660031901126102bc57610160611b04600435611ac2816102ab565b611aca61264c565b50611ad3612944565b611adc81612985565b6001600160a01b038091165f525f60205260405f205490600260205260405f2054169061385c565b611b116040518092611a16565bf35b346102bc575f3660031901126102bc5760207f9b779b17422d0df92223018b32b4d1fa46e071723d6817e2486d003becc55f005c6040519015158152f35b346102bc575f3660031901126102bc57611b69612944565b60207f00000000000000000000000000000000000000000000000000000000000000005c604051908152f35b346102bc5760603660031901126102bc57611bd3600435611bb5816102ab565b602435611bc1816102ab565b611bc9612944565b604435913361399a565b602060405160018152f35b346102bc5760203660031901126102bc576001600160a01b03600435611c03816102ab565b611c0b612944565b165f526011602052602060405f2054604051908152f35b6102ce909291926060810193604090816001600160a01b0391828151168552826020820151166020860152015116910152565b346102bc5760203660031901126102bc5761053b600435611c75816102ab565b611c7d6122ec565b50611c86612944565b611c8f81612985565b6001600160a01b038091165f52600160205260405f2090600260405192611cb5846106b2565b828154168452826001820154166020850152015416604082015260405191829182611c22565b805180835260209291819084018484015e5f828201840152601f01601f1916010190565b906020610300928181520190611cdb565b346102bc5761053b611d595f80611d40611d2936610e97565b611d31612dc3565b611d39612944565b369161085c565b60208151910182335af1611d52612403565b9033612e25565b604051918291602083526020830190611cdb565b801515036102bc57565b608435906102ce82611d6d565b6064359063ffffffff821682036102bc57565b60609060a31901126102bc5760a490565b6080906101231901126102bc5761012490565b346102bc576101a03660031901126102bc57600435611dd9816102ab565b60243567ffffffffffffffff81116102bc57366023820112156102bc57806004013591611e05836107c8565b91604093611e16604051948561073c565b8084526020906024602086019160071b840101923684116102bc57602401905b838210611e7a57611e788686611e4a611d84565b611e52611d77565b611e5b36611d97565b91611e646102c0565b93611e6e36611da8565b95604435916126af565b005b6080823603126102bc57826080918851611e93816106d3565b8435611e9e816102ab565b815282850135611ead816107b3565b8382015289850135611ebe816102ab565b8a82015260608086013590611ed282611d6d565b820152815201910190611e36565b6102ce909291926101806101a0820194611f218382516060809180511515845260208101511515602085015260408101511515604085015201511515910152565b60208101516080840152604081015160a0840152606081015160c0840152611f57608082015160e085019064ffffffffff169052565b60a081015190611f72610100928386019063ffffffff169052565b611fa660c082015192611f8c610120948588019015159052565b60e083015115156101408701528201511515610160860152565b01511515910152565b346102bc5760203660031901126102bc5761053b61203d600435611fd2816102ab565b5f610120604051611fe2816106ef565b604051611fee816106d3565b83815283602082015283604082015283606082015281528260208201528260408201528260608201528260808201528260a08201528260c08201528260e08201528261010082015201526127d5565b60405191829182611ee0565b346102bc5760403660031901126102bc5760206120a960043561206b816102ab565b6001600160a01b0360243591612080836102ab565b612088612944565b165f52600f835260405f20906001600160a01b03165f5260205260405f2090565b54604051908152f35b346102bc575f3660031901126102bc5760206040516001600160a01b037f0000000000000000000000000000000000000000000000000000000000000000168152f35b604051906121028261070c565b815f815260c060609182602082015282604082015282808201528260808201528260a08201520152565b634e487b7160e01b5f52601160045260245ffd5b91909163ffffffff8080941691160191821161215857565b61212c565b6121c191612169612944565b612172826129b7565b6001600160a01b039081831690815f525f6020526040938493612197855f2054612ca0565b935f526002602052845f2054169184519687948593849363283a3d6b60e21b855260048501612ced565b03915afa918215610b50575f915f9361220c575b5050156121fd57670de0b5cad2bef00081116121ee5790565b6301d1b96560e61b5f5260045ffd5b6314fe5db560e21b5f5260045ffd5b61222f935080919250903d10612237575b612227818361073c565b810190612cce565b905f806121d5565b503d61221d565b908060209392818452848401375f828201840152601f01601f1916010190565b908160209103126102bc575190565b91906020612285600192604086526040860190610427565b930152565b6040513d5f823e3d90fd5b90604051918281549182825260209260208301915f5260205f20935f905b8282106122c9575050506102ce9250038361073c565b85546001600160a01b0316845260019586019588955093810193909101906122b3565b604051906122f9826106b2565b5f6040838281528260208201520152565b90612314826107c8565b612321604051918261073c565b8281528092612332601f19916107c8565b01905f5b82811061234257505050565b60209061234d6122ec565b82828501015201612336565b90612363826107c8565b612370604051918261073c565b8281528092612381601f19916107c8565b0190602036910137565b634e487b7160e01b5f52603260045260245ffd5b80518210156123b35760209160051b010190565b61238b565b6123c18261039a565b52565b906040516123d1816106b2565b604060ff8294548181166123e48161039a565b84526001600160a01b038160081c16602085015260a81c161515910152565b3d1561242d573d9061241482610840565b91612422604051938461073c565b82523d5f602084013e565b606090565b6040519060c0820182811067ffffffffffffffff8211176106ce576040525f60a08360608152826020820152826040820152606080820152606060808201520152565b620f423f1981019190821161215857565b9190820391821161215857565b916124b09061030094928452606060208501526060840190610427565b916040818403910152610427565b93959491959290926124ce612944565b6124d6612fde565b6124df85612985565b6124e7613016565b6124f085613362565b6124f9856129eb565b916125088351600190811c1690565b612630576125719697612522602085015151835190613397565b60c0840195865161253a60a0870191825190866133ad565b978961254b885160019060081c1690565b6125bf575b899492508791509261256396959361355b565b94859151600190600a1c1690565b612582575b50505050610300613052565b6125b06125a36125b6956001600160a01b03165f52600260205260405f2090565b546001600160a01b031690565b926137c2565b5f808083612576565b91612623916125f5899b8b6125ef6125a36125639c9b999a986001600160a01b03165f52600260205260405f2090565b91613453565b6126196126138d6001600160a01b03165f52600560205260405f2090565b8a6134f7565b51905190846133ad565b9781939294955089612550565b63218e374760e01b5f526001600160a01b03861660045260245ffd5b60405190610160820182811067ffffffffffffffff8211176106ce576040525f610140838281528260208201528260408201528260608201528260808201528260a08201528260c08201528260e082015282610100820152826101208201520152565b94969263ffffffff919694926126c3612944565b6126cb613016565b6126d3613a94565b604051976126e08961070c565b88526020880152166040860152151560608501526060853603126102bc5761275c6127639261276d966040805191612717836106b2565b8035612722816102ab565b83526020810135612732816102ab565b60208401520135612742816102ab565b604082015260808701526001600160a01b031660a0860152565b3690612775565b60c0830152613e74565b6102ce613052565b91908260809103126102bc5760405161278d816106d3565b6060808294803561279d81611d6d565b845260208101356127ad81611d6d565b602085015260408101356127c081611d6d565b60408501520135916127d183611d6d565b0152565b612800906127e1612944565b6127ea81612985565b6001600160a01b03165f525f60205260405f2090565b54610300600161280f83612ca0565b926128b861281c82614678565b6128ab6128288461469b565b64ffffffffff85605a1c169063ffffffff86612842608290565b1c169361284d61076b565b600488901c89161515815299600588901c8916151560208c0152600688901c8916151560408c0152600788901c8916151560608c015261288b610778565b9a8b5260208b015260408a0152606089015264ffffffffff166080880152565b63ffffffff1660a0860152565b808216151560c085015280821c8216151560e0850152600281901c8216151561010085015260031c161515610120830152565b637911c44b60e11b5f5260045ffd5b346128eb57365f80375f8036816001600160a01b037f0000000000000000000000000000000000000000000000000000000000000000165af43d5f803e15612940573d5ff35b3d5ffd5b6001600160a01b037f000000000000000000000000000000000000000000000000000000000000000016300361297657565b634fe92d9b60e11b5f5260045ffd5b6001600160a01b0316805f525f602052600160405f205416156129a55750565b6327946f5760e21b5f5260045260245ffd5b6001600160a01b0316805f525f602052600160405f2054811c16156129d95750565b634bdace1360e01b5f5260045260245ffd5b906001600160a01b036129fc6120f5565b92165f5260056020526040805f205f602052815f2054906004602052825f20906003602052835f20938454938752612a3760208801956146be565b8552612a428461230a565b91818801928352612a5285612359565b9160608901928352612a6386612359565b9460809560808b0152612a77878b51612e7f565b60c08b0152612a8587612359565b60a08b019081528a5191600199600184811c169384612be5575b5083612bd3575b8c5f5b8b8110612abf5750505050505050505050505050565b8a8d92828c8c8c612b0684612af281612ae4610dc88f8f610da685610db3925161239f565b94905f5260205260405f2090565b54945183612b00838361239f565b5261239f565b50612b1081612ed1565b612b1b858d5161239f565b52612b306001600160801b038416858761489a565b878d8d15612bc65782015115159182612ba8575b5050612b59575b50505050505b018d90612aa9565b82612b7c92612b7382612b6c885161469b565b945161239f565b51961c85614d18565b9283612b8c575b8e93508c612b4b565b612b9f93612b9991612486565b9161489a565b5f8f8282612b83565b90915051612bb58161039a565b612bbe8161039a565b14875f612b44565b5050505050505050612b51565b8c5190935060031c6001161592612aa6565b612bf091945061469b565b1515925f612a9f565b6001600160a01b03165f525f60205260405f20549060018260021c1663ffffffff8093612c24608290565b1c169281612c3157509190565b9050612c5d7f000000000000000000000000000000000000000000000000000000000000000084612140565b164211159190565b60ff60019116019060ff821161215857565b9060058202918083046005149015171561215857565b8181029291811591840414171561215857565b62ffffff9060121c1664174876e800908181029181830414901517156121585790565b51906102ce82611d6d565b91908260409103126102bc5760208251612ce781611d6d565b92015190565b6127d1612d6f60409396959496606084528051612d098161039a565b60608501526020810151608085015260c0612d338683015160e060a0880152610140870190610427565b606083015186830152608083015160e087015260a08301516001600160a01b0316610100870152910151848203605f1901610120860152611cdb565b6001600160a01b039096166020830152565b8115612d8b570490565b634e487b7160e01b5f52601260045260245ffd5b90670de0b6b3a7640000918281029281840414901517156121585761030091612d81565b32612e0757600160075416612df85760017f00000000000000000000000000000000000000000000000000000000000000005d565b633d0cc44360e11b5f5260045ffd5b6333fc255960e11b5f5260045ffd5b805115610f8457805190602001fd5b90612e495750805115612e3a57805190602001fd5b630a12f52160e11b5f5260045ffd5b81511580612e76575b612e5a575090565b6001600160a01b0390639996b31560e01b5f521660045260245ffd5b50803b15612e52565b9064ffffffffff612e8f82612359565b92605a1c165f5b828110612ea35750505090565b601f82612eaf83612c77565b1c1690604d821161215857600191600a0a612eca828761239f565b5201612e96565b8051612edc8161039a565b612ee58161039a565b80612ef8575050670de0b6b3a764000090565b80612f0460019261039a565b03612f6d576020612f2f612f238260049401516001600160a01b031690565b6001600160a01b031690565b6040516333cd77e760e11b815292839182905afa908115610b50575f91612f54575090565b610300915060203d602011610b4957610b3a818361073c565b636fa2831960e11b5f5260045ffd5b6001600160a01b03929183811684841603612f9a57505050505f1990565b612fda93612fc492165f52601060205260405f20906001600160a01b03165f5260205260405f2090565b906001600160a01b03165f5260205260405f2090565b5490565b7f00000000000000000000000000000000000000000000000000000000000000005c1561300757565b63604dd39b60e11b5f5260045ffd5b7f9b779b17422d0df92223018b32b4d1fa46e071723d6817e2486d003becc55f00805c613043576001905d565b633ee5aeb560e01b5f5260045ffd5b5f7f9b779b17422d0df92223018b32b4d1fa46e071723d6817e2486d003becc55f005d565b92916130838451612359565b935f5b81518110156130c057806130af856130aa866130a46001968861239f565b51612c8d565b612d81565b6130b9828961239f565b5201613086565b50505050565b906130d091612c8d565b6001670de0b6b3a76400005f19830104019015150290565b906130f290614715565b90600160ff1b8214612158576102ce915f0390614751565b906103009160801c90614839565b9190939293613128828285612f7c565b60018101613139575b505050509050565b808611613157579461314d9495039261399a565b805f808080613131565b85906001600160a01b0384637dc7a0d960e11b5f521660045260245260445260645ffd5b3215806131855790565b506001600754161590565b9190820180921161215857565b9032612e07576001600160a01b036131d192165f52600f60205260405f20906001600160a01b03165f5260205260405f2090565b80549182018092116121585755565b916001600160a01b038083169384156133465761321284612fc4836001600160a01b03165f52600f60205260405f2090565b548084116133225790835f93920361323f86612fc4846001600160a01b03165f52600f60205260405f2090565b556132658461325f836001600160a01b03165f52601160205260405f2090565b54612486565b61326e8161487b565b613289826001600160a01b03165f52601160205260405f2090565b551693847fd1398bee19313d6bf672ccb116e51f4a1a947e91c757907f51fbb5b5e56c698f604051806132c187829190602083019252565b0390a4823b156102bc576040516323de665160e01b81526001600160a01b0390921660048301525f60248301819052604483019190915290918290818381606481015b03925af161330f5750565b8061331c6102ce92610728565b8061053f565b63391434e360e21b5f526001600160a01b038516600452602452604483905260645ffd5b634b637e8f60e11b5f526001600160a01b03841660045260245ffd5b61336a613a94565b61337381612bf9565b5061337b5750565b6001600160a01b039063d971f59760e01b5f521660045260245ffd5b0361339e57565b63aaad13f760e01b5f5260045ffd5b91908251918151815181851491821592613433575b505061339e576133d183612359565b935f5b8481106133e357505050505090565b80670de0b6b3a76400006134216133fc6001948661239f565b5161341c61340a858a61239f565b51613415868a61239f565b5192612c8d565b612c8d565b0461342c828961239f565b52016133d4565b141590505f806133c2565b908160209103126102bc575161030081611d6d565b9061349e9261348c5f6001600160a01b036020956040519788968795869363038293c560e31b8552604060048601526044850190610427565b83810360031901602485015290611cdb565b0393165af1908115610b50575f916134c8575b50156134b957565b636061292560e01b5f5260045ffd5b6134ea915060203d6020116134f0575b6134e2818361073c565b81019061343e565b5f6134b1565b503d6134d8565b60208082015151925f5b84811061350f575050505050565b6001906135556001600160801b03604061353561352f85838b015161239f565b51612ed1565b6135438560a08b015161239f565b52835f528587525f205416828761489a565b01613501565b92919596949661357c846001600160a01b03165f52600560205260405f2090565b955f5b6020890151805182101561365a57610da68261359a9261239f565b6135aa612f23610da6848961239f565b6001600160a01b0382169081036136065750906135d46001926135cd838b61239f565b51906148e7565b6135ed8b6135e68361151e818d61239f565b5190614839565b6135ff828b905f5260205260405f2090565b550161357f565b611549908861361b612f23610da6878c61239f565b7fffe261a1000000000000000000000000000000000000000000000000000000005f526001600160a01b03918216600452811660245216604452606490565b5050969491925096945061367384516002908119161790565b808552613690846001600160a01b03165f525f60205260405f2090565b556001600160a01b03926136bd60208583169760405180938192631309bd3d60e31b83526004830161226d565b03818a5afa8015610b50576136e2915f916137a3575b506136dd8161487b565b612475565b976136ec826148f9565b6136f78985846149e3565b80891061378c57509285926137637fa26a52d8d53702bba7f137907b8e1f99ff87f6d450144270ca25e72481cca87193613754602061374a60019a996001600160a01b03165f52601160205260405f2090565b5498015151612359565b90604051948594169784612493565b0390a47fcad8c9d32507393b6508ca4a888b81979919b477510585bde8488f153072d6f35f80a2565b638d261d5d60e01b5f52600489905260245260445ffd5b6137bc915060203d602011610b4957610b3a818361073c565b5f6136d3565b926137fc5f6001600160a01b036020959496613813604051988997889687946338be241d60e01b8652606060048701526064860190610427565b916024850152600319848303016044850152611cdb565b0393165af1908115610b50575f9161383d575b501561382e57565b630791ede360e11b5f5260045ffd5b613856915060203d6020116134f0576134e2818361073c565b5f613826565b9061386561264c565b5060ff6001808483613877600c612c65565b61388090612c65565b161c16818584613890600c612c65565b61389990612c65565b6138a290612c65565b161c16908286856138b3600c612c65565b6138bc90612c65565b6138c590612c65565b6138ce90612c65565b161c16928087866138df600c612c65565b6138e890612c65565b6138f190612c65565b6138fa90612c65565b61390390612c65565b161c16948188818184600c161c1692600c61391d90612c65565b161c1691613929610785565b60098a901c82161515815298600881901c8216151560208b0152600a81901c8216151560408b0152600b1c161515606089015215156080880152151560a0870152151560c0860152151560e0850152151561010084015215156101208301526001600160a01b031661014082015290565b929091926001600160a01b0390818416918215613a7857808616918215613a5c57846139df88612fc489612fc4866001600160a01b03165f52601060205260405f2090565b551691827fa0175360a15bca328baf7ea85c7b784d58b222a50d0ce760b10dba336d226a6160405180613a1788829190602083019252565b0390a4803b156102bc57604051630ad0fe5760e31b81526001600160a01b03938416600482015293909216602484015260448301525f90829081838160648101613304565b634a1406b160e11b5f526001600160a01b03871660045260245ffd5b63e602df0560e01b5f526001600160a01b03851660045260245ffd5b63ffffffff7f00000000000000000000000000000000000000000000000000000000000000001642111580613ad9575b613aca57565b6336a7e2cd60e21b5f5260045ffd5b506001600754811c16613ac4565b90805190613af48261039a565b613afd8261039a565b8254602082015160409092015175ffffffffffffffffffffffffffffffffffffffffffff1990911660ff939093169290921760089190911b74ffffffffffffffffffffffffffffffffffffffff00161790151560a81b60ff60a81b16179055565b908160209103126102bc575160ff811681036102bc5790565b8054680100000000000000008110156106ce57600181018083558110156123b3576001600160a01b03915f5260205f200191166001600160a01b0319825416179055565b8151815473ffffffffffffffffffffffffffffffffffffffff19166001600160a01b039182161782556102ce9260029190604090613c188360208301511660018701906001600160a01b03166001600160a01b0319825416179055565b0151169101906001600160a01b03166001600160a01b0319825416179055565b91908260409103126102bc576020825192015190565b9081518082526020808093019301915f5b828110613c6d575050505090565b9091929382608060019287516001600160a01b0380825116835284820151613c948161039a565b838601526040828101519091169083015260609081015115159082015201950193929101613c5f565b9493916102ce93606092613cef926001600160a01b03809216895216602088015260e0604088015260e0870190613c4e565b9401906060809180511515845260208101511515602085015260408101511515604085015201511515910152565b90816101409103126102bc57613d31610778565b90613d3b81612cc3565b8252613d4960208201612cc3565b6020830152613d5a60408201612cc3565b6040830152613d6b60608201612cc3565b6060830152613d7c60808201612cc3565b6080830152613d8d60a08201612cc3565b60a0830152613d9e60c08201612cc3565b60c0830152613daf60e08201612cc3565b60e0830152610100613dc2818301612cc3565b90830152613dd4610120809201612cc3565b9082015290565b9196959394613e3d6102ce9663ffffffff61022096613e05613e47966102a0808a52890190613c4e565b9b60208801521660408601526060850190604090816001600160a01b0391828151168552826020820151166020860152015116910152565b60c0830190611a16565b01906060809180511515845260208101511515602085015260408101511515604085015201511515910152565b90613e99613e92836001600160a01b03165f525f60205260405f2090565b5460011690565b61465c578051516002811061464d576008811161463e57929190613ebc84612359565b5f945f5b8181106143c7575050613f73929394506080820191613efa8351613ef5876001600160a01b03165f52600160205260405f2090565b613bbb565b613f0f612f23600a546001600160a01b031690565b60408091613f28828751016001600160a01b0390511690565b90613f366060860151151590565b83516377ff76e760e01b81526001600160a01b03808c166004830152909316602484015215156044830152909687919082905f9082906064820190565b03925af18015610b50575f955f91614394575b5061404260c084019161403d61400c845197613ff5613fef613fae8b51151560041b60011790565b9a6060613fde613fcc60209e8f850151151560051b90602019161790565b8c840151151560061b90604019161790565b910151151560071b90608019161790565b91614aff565b90605a9164ffffffffff908116831b921b19161790565b986140388688019a6140228c5163ffffffff1690565b9060829163ffffffff908116831b921b19161790565b614b9d565b614bbd565b9360a08401906001600160a01b0395898761406485516001600160a01b031690565b168061414d575b50906140898193926001600160a01b03165f525f60205260405f2090565b5582516001600160a01b03166001600160a01b03166140b98b6001600160a01b03165f52600260205260405f2090565b906140d991906001600160a01b03166001600160a01b0319825416179055565b85019485516140e8908b614be1565b519451975163ffffffff16965191516001600160a01b03166001600160a01b03166141129161385c565b91519251958695339916976141279587613ddb565b037fbc1561eeab9f40962e2fb827a7ff9c7cdb47a9d7c84caeefa4ed90e043842dad91a3565b61417691849189515f8951938b51968795869485936305c4f8c160e11b85523360048601613cbd565b03925af1908115610b50575f91614377575b5015614362576141a5612f23612f2385516001600160a01b031690565b908551809263d77153a760e01b82528160046101409586935afa928315610b50575f93614333575b50508151151580614319575b6142df57906142ca6101206142256142b46142a061428c6142786142646142508e61424361423a8c8f6142d89f9061422561422d926142188551151590565b60091b9061020019161790565b920151151590565b60081b9061010019161790565b918c0151151590565b600a1b9061040019161790565b60608a01511515600b1b9061080019161790565b60808901511515600c1b9061100019161790565b60a08801511515600d1b9061200019161790565b60c08701511515600e1b9061400019161790565b60e08601511515600f1b9061800019161790565b610100850151151560101b906201000019161790565b60111b906202000019161790565b895f61406b565b6115498b6142f486516001600160a01b031690565b633ea4f60560e21b5f526001600160a01b039081166004521660245233604452606490565b5061432d614328865151151590565b151590565b156141d9565b614353929350803d1061435b575b61434b818361073c565b810190613d1d565b905f806141cd565b503d614341565b6115498a6142f485516001600160a01b031690565b61438e9150833d85116134f0576134e2818361073c565b5f614188565b9050816143b79296503d87116143c0575b6143af818361073c565b810190613c38565b9490945f613f86565b503d6143a5565b6143d281855161239f565b51966143e588516001600160a01b031690565b906001600160a01b038083169182158015614633575b61462457168082106146155781146145f957604090818a01998a51614426906001600160a01b031690565b6001600160a01b0316159060209b8c8201908d8251916144458361039a565b516001600160a01b03169360600193845161445f90151590565b916144686107a6565b9361447390856123b8565b6001600160a01b0390911690830152151581870152866144a48d6001600160a01b03165f52600460205260405f2090565b906144bf91906001600160a01b03165f5260205260405f2090565b906144c991613ae7565b80516144d48161039a565b6144dd8161039a565b6145c357508115916145b8575b50612f6d5789915b51998a809263313ce56760e01b825260049c8d915afa918215610b50575f9261458b575b505060129060ff9180838316115f14614537578a63686d360760e01b5f525ffd5b60019495969798999a509061455b92910316614553858861239f565b9060ff169052565b61457f8161457a896001600160a01b03165f52600360205260405f2090565b613b77565b96959493929101613ec0565b6145aa9250803d106145b1575b6145a2818361073c565b810190613b5e565b5f80614516565b503d614598565b51151590505f6144ea565b60019150516145d18161039a565b6145da8161039a565b036145ea57612f6d5789916144f2565b63a1e9dd9d60e01b5f5260045ffd5b6327a5b1a760e11b5f526001600160a01b03821660045260245ffd5b636e8f194760e01b5f5260045ffd5b63c1ab6dc160e01b5f5260045ffd5b5081891683146143fb565b630e0f7beb60e31b5f5260045ffd5b635ed4ba8f60e01b5f5260045ffd5b6301b6ee3960e71b5f526001600160a01b03821660045260245ffd5b62ffffff90602a1c1664174876e800908181029181830414901517156121585790565b62ffffff9060421c1664174876e800908181029181830414901517156121585790565b90604051918281549182825260209260208301915f5260205f20935f905b8282106146f2575050506102ce9250038361073c565b85546001600160a01b0316845260019586019588955093810193909101906146dc565b7f7fffffffffffffffffffffffffffffffffffffffffffffffffffffffffffffff811161473f5790565b63123baf0360e11b5f5260045260245ffd5b908015614835577f0000000000000000000000000000000000000000000000000000000000000000916147968184906001600160a01b03165f5260205260405f205c90565b8281019283125f821290801582169115161761215857826147eb57507f000000000000000000000000000000000000000000000000000000000000000092835c5f198101908111612158576102ce945d614d86565b156147fa575b6102ce92614d86565b7f000000000000000000000000000000000000000000000000000000000000000092835c60018101809111612158576102ce945d92506147f1565b5050565b906001600160801b03808311908115614871575b506148625760801b9081018091116121585790565b6389560ca160e01b5f5260045ffd5b905081115f61484d565b620f424081106148885750565b6334e3483f60e21b5f5260045260245ffd5b91906080670de0b6b3a76400006148de6123c194806148bd8660608a015161239f565b5261341c6148cf8660c08a015161239f565b516134158760a08b015161239f565b0493015161239f565b6148f36102ce92614715565b90614751565b614914816001600160a01b03165f52601160205260405f2090565b908154620f424090818101809111612158576001600160a01b03935561494b826001600160a01b03165f52600f60205260405f2090565b5f805260205260405f20908154019055165f80827fd1398bee19313d6bf672ccb116e51f4a1a947e91c757907f51fbb5b5e56c698f604051806149958190620f4240602083019252565b0390a4803b156102bc575f60405180926323de665160e01b82528183816149d26004820190620f4240604060608401935f81525f60208201520152565b03925af18015610b505761330f5750565b916001600160a01b03808316938415614ae357614a1b83614a15836001600160a01b03165f52601160205260405f2090565b54613190565b614a3a85612fc4846001600160a01b03165f52600f60205260405f2090565b848154019055614a498161487b565b614a64826001600160a01b03165f52601160205260405f2090565b5516925f847fd1398bee19313d6bf672ccb116e51f4a1a947e91c757907f51fbb5b5e56c698f60405180614a9d87829190602083019252565b0390a4823b156102bc576040516323de665160e01b81525f600482018190526001600160a01b0390931660248201526044810191909152918290818381606481016149d2565b63ec442f0560e01b5f526001600160a01b03841660045260245ffd5b5f9190825b8151841015614b9157614b17848361239f565b5160ff91614b2486612c77565b9161010080841015614b7d578381039081116121585780851015614b8c5750835b6005908111614b7d57816007911c16614b6e57600193601f9116831b921b191617930192614b04565b63e4337c0560e01b5f5260045ffd5b632d0483c560e21b5f5260045ffd5b614b45565b64ffffffffff16925050565b670de0b5cad2bef00082116121ee5764174876e800610300920490614d9c565b90670de0b5cad2bef00081116121ee576103009164174876e8006042920490614db6565b60405163ce20ece760e01b81526001600160a01b0382169291906020908181600481885afa908115610b50575f91614cfb575b508310614cec5760405163654cf15d60e01b81528181600481885afa918215610b50575f92614ccf575b50508211614cc0578181614caa614c937f89d41522342fabac1471ca6073a5623e5caf367b03ca6e9a001478d0cf8be4a195614c8d614cbb966001600160a01b03165f525f60205260405f2090565b54614dfd565b916001600160a01b03165f525f60205260405f2090565b556040519081529081906020820190565b0390a2565b637f47834b60e01b5f5260045ffd5b614ce59250803d10610b4957610b3a818361073c565b5f80614c3e565b6317f640d160e31b5f5260045ffd5b614d129150823d8411610b4957610b3a818361073c565b5f614c14565b9093925f94614d2b84608085015161239f565b51818111614d3b575b5050505050565b614d7b959650614d759392614d6e92614d5492036130c6565b9360a0614d658260c086015161239f565b5193015161239f565b5190612c8d565b90612d9f565b905f80808080614d34565b906001600160a01b03165f5260205260405f205d565b908060181c614b6e57602a1b9062ffffff602a1b19161790565b9061010080841015614b7d57838103908111612158578060ff105f14614df8575060ff5b601811614b7d578060181c614b6e5762ffffff90831b921b19161790565b614dda565b90670de0b5cad2bef00081116121ee5764174876e80090048060181c614b6e5760121b906503fffffc00001916179056fea264697066735822122018003707ad93c1ab70d3794f87e4d396e3c1002b2d23b379d62068de2aed5a9e64736f6c634300081a0033",
  "linkReferences": {},
  "deployedLinkReferences": {}
}