{
  "_format": "hh-sol-artifact-1",
  "contractName": "BalancerRelayer",
  "sourceName": "contracts/relayer/BalancerRelayer.sol",
  "abi": [
    {
      "inputs": [
        {
          "internalType": "contract IVault",
          "name": "vault",
          "type": "address"
        },
        {
          "internalType": "address",
          "name": "libraryAddress",
          "type": "address"
        },
        {
          "internalType": "address",
          "name": "queryLibrary",
          "type": "address"
        },
        {
          "internalType": "string",
          "name": "version",
          "type": "string"
        }
      ],
      "stateMutability": "nonpayable",
      "type": "constructor"
    },
    {
      "inputs": [],
      "name": "getLibrary",
      "outputs": [
        {
          "internalType": "address",
          "name": "",
          "type": "address"
        }
      ],
      "stateMutability": "view",
      "type": "function"
    },
    {
      "inputs": [],
      "name": "getVault",
      "outputs": [
        {
          "internalType": "contract IVault",
          "name": "",
          "type": "address"
        }
      ],
      "stateMutability": "view",
      "type": "function"
    },
    {
      "inputs": [
        {
          "internalType": "bytes[]",
          "name": "data",
          "type": "bytes[]"
        }
      ],
      "name": "multicall",
      "outputs": [
        {
          "internalType": "bytes[]",
          "name": "results",
          "type": "bytes[]"
        }
      ],
      "stateMutability": "payable",
      "type": "function"
    },
    {
      "inputs": [
        {
          "internalType": "bytes[]",
          "name": "data",
          "type": "bytes[]"
        }
      ],
      "name": "vaultActionsQueryMulticall",
      "outputs": [
        {
          "internalType": "bytes[]",
          "name": "results",
          "type": "bytes[]"
        }
      ],
      "stateMutability": "nonpayable",
      "type": "function"
    },
    {
      "inputs": [],
      "name": "version",
      "outputs": [
        {
          "internalType": "string",
          "name": "",
          "type": "string"
        }
      ],
      "stateMutability": "view",
      "type": "function"
    },
    {
      "stateMutability": "payable",
      "type": "receive"
    }
  ],
  "bytecode": "0x60e06040523480156200001157600080fd5b5060405162000b9e38038062000b9e833981016040819052620000349162000123565b8062000040816200006e565b5050600180556001600160601b0319606093841b811660805291831b821660a05290911b1660c05262000241565b80516200008390600090602084019062000087565b5050565b828054600181600116156101000203166002900490600052602060002090601f016020900481019282601f10620000ca57805160ff1916838001178555620000fa565b82800160010185558215620000fa579182015b82811115620000fa578251825591602001919060010190620000dd565b50620001089291506200010c565b5090565b5b808211156200010857600081556001016200010d565b6000806000806080858703121562000139578384fd5b8451620001468162000228565b809450506020808601516200015b8162000228565b60408701519094506200016e8162000228565b60608701519093506001600160401b03808211156200018b578384fd5b818801915088601f8301126200019f578384fd5b815181811115620001ae578485fd5b604051601f8201601f1916810185018381118282101715620001ce578687fd5b60405281815283820185018b1015620001e5578586fd5b8592505b81831015620002085783830185015181840186015291840191620001e9565b818311156200021957858583830101525b979a9699509497505050505050565b6001600160a01b03811681146200023e57600080fd5b50565b60805160601c60a05160601c60c05160601c61091e62000280600039806103085250806102185280610452525080607e5280610362525061091e6000f3fe60806040526004361061005e5760003560e01c80637887b7c0116100435780637887b7c0146100fb5780638d928af814610128578063ac9650d81461013d576100a9565b806354fd4d50146100ae5780637678922e146100d9576100a9565b366100a9576100a73373ffffffffffffffffffffffffffffffffffffffff7f00000000000000000000000000000000000000000000000000000000000000001614610206610150565b005b600080fd5b3480156100ba57600080fd5b506100c3610162565b6040516100d09190610834565b60405180910390f35b3480156100e557600080fd5b506100ee610216565b6040516100d09190610795565b34801561010757600080fd5b5061011b6101163660046106bd565b61023a565b6040516100d091906107b6565b34801561013457600080fd5b506100ee610360565b61011b61014b3660046106bd565b610384565b8161015e5761015e816104ac565b5050565b60008054604080516020601f60027fffffffffffffffffffffffffffffffffffffffffffffffffffffffffffffffff61010060018816150201909516949094049384018190048102820181019092528281526060939092909183018282801561020c5780601f106101e15761010080835404028352916020019161020c565b820191906000526020600020905b8154815290600101906020018083116101ef57829003601f168201915b5050505050905090565b7f000000000000000000000000000000000000000000000000000000000000000090565b60606102446104d9565b818067ffffffffffffffff8111801561025c57600080fd5b5060405190808252806020026020018201604052801561029057816020015b606081526020019060019003908161027b5790505b50915060005b81811015610350576103318585838181106102ad57fe5b90506020028101906102bf919061084e565b8080601f0160208091040260200160405190810160405280939291908181526020018383808284376000920191909152505073ffffffffffffffffffffffffffffffffffffffff7f000000000000000000000000000000000000000000000000000000000000000016929150506104f2565b83828151811061033d57fe5b6020908102919091010152600101610296565b505061035a610575565b92915050565b7f000000000000000000000000000000000000000000000000000000000000000090565b606061038e6104d9565b818067ffffffffffffffff811180156103a657600080fd5b506040519080825280602002602001820160405280156103da57816020015b60608152602001906001900390816103c55790505b50915060005b8181101561049a5761047b8585838181106103f757fe5b9050602002810190610409919061084e565b8080601f0160208091040260200160405190810160405280939291908181526020018383808284376000920191909152505073ffffffffffffffffffffffffffffffffffffffff7f000000000000000000000000000000000000000000000000000000000000000016929150506104f2565b83828151811061048757fe5b60209081029190910101526001016103e0565b506104a361057b565b5061035a610575565b6104d6817f42414c000000000000000000000000000000000000000000000000000000000061058c565b50565b6104eb60026001541415610190610150565b6002600155565b6060600060608473ffffffffffffffffffffffffffffffffffffffff168460405161051d9190610776565b600060405180830381855af49150503d8060008114610558576040519150601f19603f3d011682016040523d82523d6000602084013e61055d565b606091505b509150915061056c8282610607565b95945050505050565b60018055565b4780156104d6576104d63382610631565b7f08c379a000000000000000000000000000000000000000000000000000000000600090815260206004526007602452600a808404818106603090810160081b958390069590950190829004918206850160101b01602363ffffff0060e086901c160160181b0190930160c81b60445260e882901c90606490fd5b6060821561061657508061035a565b8151156106265781518083602001fd5b61035a6101ae6104ac565b610640814710156101a3610150565b60008273ffffffffffffffffffffffffffffffffffffffff168260405161066690610792565b60006040518083038185875af1925050503d80600081146106a3576040519150601f19603f3d011682016040523d82523d6000602084013e6106a8565b606091505b505090506106b8816101a4610150565b505050565b600080602083850312156106cf578182fd5b823567ffffffffffffffff808211156106e6578384fd5b818501915085601f8301126106f9578384fd5b813581811115610707578485fd5b866020808302850101111561071a578485fd5b60209290920196919550909350505050565b600081518084526107448160208601602086016108b8565b601f017fffffffffffffffffffffffffffffffffffffffffffffffffffffffffffffffe0169290920160200192915050565b600082516107888184602087016108b8565b9190910192915050565b90565b73ffffffffffffffffffffffffffffffffffffffff91909116815260200190565b6000602080830181845280855180835260408601915060408482028701019250838701855b82811015610827577fffffffffffffffffffffffffffffffffffffffffffffffffffffffffffffffc088860301845261081585835161072c565b945092850192908501906001016107db565b5092979650505050505050565b600060208252610847602083018461072c565b9392505050565b60008083357fffffffffffffffffffffffffffffffffffffffffffffffffffffffffffffffe1843603018112610882578283fd5b83018035915067ffffffffffffffff82111561089c578283fd5b6020019150368190038213156108b157600080fd5b9250929050565b60005b838110156108d35781810151838201526020016108bb565b838111156108e2576000848401525b5050505056fea264697066735822122085d048fc87295b00b52f4dbc31f1f1c9f80b0872ec35dcf76d4b035a5a3abd1664736f6c63430007010033",
  "linkReferences": {},
  "deployedLinkReferences": {}
}