{
  "_format": "hh-sol-artifact-1",
  "contractName": "StablePool",
  "sourceName": "@balancer-labs/v3-pool-stable/contracts/StablePool.sol",
  "abi": [
    {
      "inputs": [
        {
          "components": [
            {
              "internalType": "string",
              "name": "name",
              "type": "string"
            },
            {
              "internalType": "string",
              "name": "symbol",
              "type": "string"
            },
            {
              "internalType": "uint256",
              "name": "amplificationParameter",
              "type": "uint256"
            },
            {
              "internalType": "string",
              "name": "version",
              "type": "string"
            }
          ],
          "internalType": "struct StablePool.NewPoolParams",
          "name": "params",
          "type": "tuple"
        },
        {
          "internalType": "contract IVault",
          "name": "vault",
          "type": "address"
        }
      ],
      "stateMutability": "nonpayable",
      "type": "constructor"
    },
    {
      "inputs": [],
      "name": "AmpUpdateAlreadyStarted",
      "type": "error"
    },
    {
      "inputs": [],
      "name": "AmpUpdateDurationTooShort",
      "type": "error"
    },
    {
      "inputs": [],
      "name": "AmpUpdateNotStarted",
      "type": "error"
    },
    {
      "inputs": [],
      "name": "AmpUpdateRateTooFast",
      "type": "error"
    },
    {
      "inputs": [],
      "name": "AmplificationFactorTooHigh",
      "type": "error"
    },
    {
      "inputs": [],
      "name": "AmplificationFactorTooLow",
      "type": "error"
    },
    {
      "inputs": [],
      "name": "ECDSAInvalidSignature",
      "type": "error"
    },
    {
      "inputs": [
        {
          "internalType": "uint256",
          "name": "length",
          "type": "uint256"
        }
      ],
      "name": "ECDSAInvalidSignatureLength",
      "type": "error"
    },
    {
      "inputs": [
        {
          "internalType": "bytes32",
          "name": "s",
          "type": "bytes32"
        }
      ],
      "name": "ECDSAInvalidSignatureS",
      "type": "error"
    },
    {
      "inputs": [
        {
          "internalType": "uint256",
          "name": "deadline",
          "type": "uint256"
        }
      ],
      "name": "ERC2612ExpiredSignature",
      "type": "error"
    },
    {
      "inputs": [
        {
          "internalType": "address",
          "name": "signer",
          "type": "address"
        },
        {
          "internalType": "address",
          "name": "owner",
          "type": "address"
        }
      ],
      "name": "ERC2612InvalidSigner",
      "type": "error"
    },
    {
      "inputs": [
        {
          "internalType": "address",
          "name": "account",
          "type": "address"
        },
        {
          "internalType": "uint256",
          "name": "currentNonce",
          "type": "uint256"
        }
      ],
      "name": "InvalidAccountNonce",
      "type": "error"
    },
    {
      "inputs": [],
      "name": "InvalidShortString",
      "type": "error"
    },
    {
      "inputs": [
        {
          "internalType": "uint8",
          "name": "bits",
          "type": "uint8"
        },
        {
          "internalType": "uint256",
          "name": "value",
          "type": "uint256"
        }
      ],
      "name": "SafeCastOverflowedUintDowncast",
      "type": "error"
    },
    {
      "inputs": [
        {
          "internalType": "address",
          "name": "sender",
          "type": "address"
        }
      ],
      "name": "SenderIsNotVault",
      "type": "error"
    },
    {
      "inputs": [],
      "name": "SenderNotAllowed",
      "type": "error"
    },
    {
      "inputs": [],
      "name": "StableComputeBalanceDidNotConverge",
      "type": "error"
    },
    {
      "inputs": [],
      "name": "StableInvariantDidNotConverge",
      "type": "error"
    },
    {
      "inputs": [
        {
          "internalType": "string",
          "name": "str",
          "type": "string"
        }
      ],
      "name": "StringTooLong",
      "type": "error"
    },
    {
      "inputs": [],
      "name": "ZeroDivision",
      "type": "error"
    },
    {
      "anonymous": false,
      "inputs": [
        {
          "indexed": false,
          "internalType": "uint256",
          "name": "startValue",
          "type": "uint256"
        },
        {
          "indexed": false,
          "internalType": "uint256",
          "name": "endValue",
          "type": "uint256"
        },
        {
          "indexed": false,
          "internalType": "uint256",
          "name": "startTime",
          "type": "uint256"
        },
        {
          "indexed": false,
          "internalType": "uint256",
          "name": "endTime",
          "type": "uint256"
        }
      ],
      "name": "AmpUpdateStarted",
      "type": "event"
    },
    {
      "anonymous": false,
      "inputs": [
        {
          "indexed": false,
          "internalType": "uint256",
          "name": "currentValue",
          "type": "uint256"
        }
      ],
      "name": "AmpUpdateStopped",
      "type": "event"
    },
    {
      "anonymous": false,
      "inputs": [
        {
          "indexed": true,
          "internalType": "address",
          "name": "owner",
          "type": "address"
        },
        {
          "indexed": true,
          "internalType": "address",
          "name": "spender",
          "type": "address"
        },
        {
          "indexed": false,
          "internalType": "uint256",
          "name": "value",
          "type": "uint256"
        }
      ],
      "name": "Approval",
      "type": "event"
    },
    {
      "anonymous": false,
      "inputs": [],
      "name": "EIP712DomainChanged",
      "type": "event"
    },
    {
      "anonymous": false,
      "inputs": [
        {
          "indexed": true,
          "internalType": "address",
          "name": "from",
          "type": "address"
        },
        {
          "indexed": true,
          "internalType": "address",
          "name": "to",
          "type": "address"
        },
        {
          "indexed": false,
          "internalType": "uint256",
          "name": "value",
          "type": "uint256"
        }
      ],
      "name": "Transfer",
      "type": "event"
    },
    {
      "inputs": [],
      "name": "DOMAIN_SEPARATOR",
      "outputs": [
        {
          "internalType": "bytes32",
          "name": "",
          "type": "bytes32"
        }
      ],
      "stateMutability": "view",
      "type": "function"
    },
    {
      "inputs": [],
      "name": "PERMIT_TYPEHASH",
      "outputs": [
        {
          "internalType": "bytes32",
          "name": "",
          "type": "bytes32"
        }
      ],
      "stateMutability": "view",
      "type": "function"
    },
    {
      "inputs": [
        {
          "internalType": "address",
          "name": "owner",
          "type": "address"
        },
        {
          "internalType": "address",
          "name": "spender",
          "type": "address"
        }
      ],
      "name": "allowance",
      "outputs": [
        {
          "internalType": "uint256",
          "name": "",
          "type": "uint256"
        }
      ],
      "stateMutability": "view",
      "type": "function"
    },
    {
      "inputs": [
        {
          "internalType": "address",
          "name": "spender",
          "type": "address"
        },
        {
          "internalType": "uint256",
          "name": "amount",
          "type": "uint256"
        }
      ],
      "name": "approve",
      "outputs": [
        {
          "internalType": "bool",
          "name": "",
          "type": "bool"
        }
      ],
      "stateMutability": "nonpayable",
      "type": "function"
    },
    {
      "inputs": [
        {
          "internalType": "address",
          "name": "account",
          "type": "address"
        }
      ],
      "name": "balanceOf",
      "outputs": [
        {
          "internalType": "uint256",
          "name": "",
          "type": "uint256"
        }
      ],
      "stateMutability": "view",
      "type": "function"
    },
    {
      "inputs": [
        {
          "internalType": "uint256[]",
          "name": "balancesLiveScaled18",
          "type": "uint256[]"
        },
        {
          "internalType": "uint256",
          "name": "tokenInIndex",
          "type": "uint256"
        },
        {
          "internalType": "uint256",
          "name": "invariantRatio",
          "type": "uint256"
        }
      ],
      "name": "computeBalance",
      "outputs": [
        {
          "internalType": "uint256",
          "name": "newBalance",
          "type": "uint256"
        }
      ],
      "stateMutability": "view",
      "type": "function"
    },
    {
      "inputs": [
        {
          "internalType": "uint256[]",
          "name": "balancesLiveScaled18",
          "type": "uint256[]"
        },
        {
          "internalType": "enum Rounding",
          "name": "rounding",
          "type": "uint8"
        }
      ],
      "name": "computeInvariant",
      "outputs": [
        {
          "internalType": "uint256",
          "name": "",
          "type": "uint256"
        }
      ],
      "stateMutability": "view",
      "type": "function"
    },
    {
      "inputs": [],
      "name": "decimals",
      "outputs": [
        {
          "internalType": "uint8",
          "name": "",
          "type": "uint8"
        }
      ],
      "stateMutability": "pure",
      "type": "function"
    },
    {
      "inputs": [],
      "name": "eip712Domain",
      "outputs": [
        {
          "internalType": "bytes1",
          "name": "fields",
          "type": "bytes1"
        },
        {
          "internalType": "string",
          "name": "name",
          "type": "string"
        },
        {
          "internalType": "string",
          "name": "version",
          "type": "string"
        },
        {
          "internalType": "uint256",
          "name": "chainId",
          "type": "uint256"
        },
        {
          "internalType": "address",
          "name": "verifyingContract",
          "type": "address"
        },
        {
          "internalType": "bytes32",
          "name": "salt",
          "type": "bytes32"
        },
        {
          "internalType": "uint256[]",
          "name": "extensions",
          "type": "uint256[]"
        }
      ],
      "stateMutability": "view",
      "type": "function"
    },
    {
      "inputs": [
        {
          "internalType": "address",
          "name": "owner",
          "type": "address"
        },
        {
          "internalType": "address",
          "name": "spender",
          "type": "address"
        },
        {
          "internalType": "uint256",
          "name": "amount",
          "type": "uint256"
        }
      ],
      "name": "emitApproval",
      "outputs": [],
      "stateMutability": "nonpayable",
      "type": "function"
    },
    {
      "inputs": [
        {
          "internalType": "address",
          "name": "from",
          "type": "address"
        },
        {
          "internalType": "address",
          "name": "to",
          "type": "address"
        },
        {
          "internalType": "uint256",
          "name": "amount",
          "type": "uint256"
        }
      ],
      "name": "emitTransfer",
      "outputs": [],
      "stateMutability": "nonpayable",
      "type": "function"
    },
    {
      "inputs": [
        {
          "internalType": "bytes4",
          "name": "selector",
          "type": "bytes4"
        }
      ],
      "name": "getActionId",
      "outputs": [
        {
          "internalType": "bytes32",
          "name": "",
          "type": "bytes32"
        }
      ],
      "stateMutability": "view",
      "type": "function"
    },
    {
      "inputs": [],
      "name": "getAggregateFeePercentages",
      "outputs": [
        {
          "internalType": "uint256",
          "name": "aggregateSwapFeePercentage",
          "type": "uint256"
        },
        {
          "internalType": "uint256",
          "name": "aggregateYieldFeePercentage",
          "type": "uint256"
        }
      ],
      "stateMutability": "view",
      "type": "function"
    },
    {
      "inputs": [],
      "name": "getAmplificationParameter",
      "outputs": [
        {
          "internalType": "uint256",
          "name": "value",
          "type": "uint256"
        },
        {
          "internalType": "bool",
          "name": "isUpdating",
          "type": "bool"
        },
        {
          "internalType": "uint256",
          "name": "precision",
          "type": "uint256"
        }
      ],
      "stateMutability": "view",
      "type": "function"
    },
    {
      "inputs": [],
      "name": "getAmplificationState",
      "outputs": [
        {
          "components": [
            {
              "internalType": "uint64",
              "name": "startValue",
              "type": "uint64"
            },
            {
              "internalType": "uint64",
              "name": "endValue",
              "type": "uint64"
            },
            {
              "internalType": "uint32",
              "name": "startTime",
              "type": "uint32"
            },
            {
              "internalType": "uint32",
              "name": "endTime",
              "type": "uint32"
            }
          ],
          "internalType": "struct AmplificationState",
          "name": "amplificationState",
          "type": "tuple"
        },
        {
          "internalType": "uint256",
          "name": "precision",
          "type": "uint256"
        }
      ],
      "stateMutability": "view",
      "type": "function"
    },
    {
      "inputs": [],
      "name": "getCurrentLiveBalances",
      "outputs": [
        {
          "internalType": "uint256[]",
          "name": "balancesLiveScaled18",
          "type": "uint256[]"
        }
      ],
      "stateMutability": "view",
      "type": "function"
    },
    {
      "inputs": [],
      "name": "getMaximumInvariantRatio",
      "outputs": [
        {
          "internalType": "uint256",
          "name": "",
          "type": "uint256"
        }
      ],
      "stateMutability": "pure",
      "type": "function"
    },
    {
      "inputs": [],
      "name": "getMaximumSwapFeePercentage",
      "outputs": [
        {
          "internalType": "uint256",
          "name": "",
          "type": "uint256"
        }
      ],
      "stateMutability": "pure",
      "type": "function"
    },
    {
      "inputs": [],
      "name": "getMinimumInvariantRatio",
      "outputs": [
        {
          "internalType": "uint256",
          "name": "",
          "type": "uint256"
        }
      ],
      "stateMutability": "pure",
      "type": "function"
    },
    {
      "inputs": [],
      "name": "getMinimumSwapFeePercentage",
      "outputs": [
        {
          "internalType": "uint256",
          "name": "",
          "type": "uint256"
        }
      ],
      "stateMutability": "pure",
      "type": "function"
    },
    {
      "inputs": [],
      "name": "getRate",
      "outputs": [
        {
          "internalType": "uint256",
          "name": "",
          "type": "uint256"
        }
      ],
      "stateMutability": "view",
      "type": "function"
    },
    {
      "inputs": [],
      "name": "getStablePoolDynamicData",
      "outputs": [
        {
          "components": [
            {
              "internalType": "uint256[]",
              "name": "balancesLiveScaled18",
              "type": "uint256[]"
            },
            {
              "internalType": "uint256[]",
              "name": "tokenRates",
              "type": "uint256[]"
            },
            {
              "internalType": "uint256",
              "name": "staticSwapFeePercentage",
              "type": "uint256"
            },
            {
              "internalType": "uint256",
              "name": "totalSupply",
              "type": "uint256"
            },
            {
              "internalType": "uint256",
              "name": "bptRate",
              "type": "uint256"
            },
            {
              "internalType": "uint256",
              "name": "amplificationParameter",
              "type": "uint256"
            },
            {
              "internalType": "uint256",
              "name": "startValue",
              "type": "uint256"
            },
            {
              "internalType": "uint256",
              "name": "endValue",
              "type": "uint256"
            },
            {
              "internalType": "uint32",
              "name": "startTime",
              "type": "uint32"
            },
            {
              "internalType": "uint32",
              "name": "endTime",
              "type": "uint32"
            },
            {
              "internalType": "bool",
              "name": "isAmpUpdating",
              "type": "bool"
            },
            {
              "internalType": "bool",
              "name": "isPoolInitialized",
              "type": "bool"
            },
            {
              "internalType": "bool",
              "name": "isPoolPaused",
              "type": "bool"
            },
            {
              "internalType": "bool",
              "name": "isPoolInRecoveryMode",
              "type": "bool"
            }
          ],
          "internalType": "struct StablePoolDynamicData",
          "name": "data",
          "type": "tuple"
        }
      ],
      "stateMutability": "view",
      "type": "function"
    },
    {
      "inputs": [],
      "name": "getStablePoolImmutableData",
      "outputs": [
        {
          "components": [
            {
              "internalType": "contract IERC20[]",
              "name": "tokens",
              "type": "address[]"
            },
            {
              "internalType": "uint256[]",
              "name": "decimalScalingFactors",
              "type": "uint256[]"
            },
            {
              "internalType": "uint256",
              "name": "amplificationParameterPrecision",
              "type": "uint256"
            }
          ],
          "internalType": "struct StablePoolImmutableData",
          "name": "data",
          "type": "tuple"
        }
      ],
      "stateMutability": "view",
      "type": "function"
    },
    {
      "inputs": [],
      "name": "getStaticSwapFeePercentage",
      "outputs": [
        {
          "internalType": "uint256",
          "name": "",
          "type": "uint256"
        }
      ],
      "stateMutability": "view",
      "type": "function"
    },
    {
      "inputs": [],
      "name": "getTokenInfo",
      "outputs": [
        {
          "internalType": "contract IERC20[]",
          "name": "tokens",
          "type": "address[]"
        },
        {
          "components": [
            {
              "internalType": "enum TokenType",
              "name": "tokenType",
              "type": "uint8"
            },
            {
              "internalType": "contract IRateProvider",
              "name": "rateProvider",
              "type": "address"
            },
            {
              "internalType": "bool",
              "name": "paysYieldFees",
              "type": "bool"
            }
          ],
          "internalType": "struct TokenInfo[]",
          "name": "tokenInfo",
          "type": "tuple[]"
        },
        {
          "internalType": "uint256[]",
          "name": "balancesRaw",
          "type": "uint256[]"
        },
        {
          "internalType": "uint256[]",
          "name": "lastBalancesLiveScaled18",
          "type": "uint256[]"
        }
      ],
      "stateMutability": "view",
      "type": "function"
    },
    {
      "inputs": [],
      "name": "getTokens",
      "outputs": [
        {
          "internalType": "contract IERC20[]",
          "name": "tokens",
          "type": "address[]"
        }
      ],
      "stateMutability": "view",
      "type": "function"
    },
    {
      "inputs": [],
      "name": "getVault",
      "outputs": [
        {
          "internalType": "contract IVault",
          "name": "",
          "type": "address"
        }
      ],
      "stateMutability": "view",
      "type": "function"
    },
    {
      "inputs": [],
      "name": "incrementNonce",
      "outputs": [],
      "stateMutability": "nonpayable",
      "type": "function"
    },
    {
      "inputs": [],
      "name": "name",
      "outputs": [
        {
          "internalType": "string",
          "name": "",
          "type": "string"
        }
      ],
      "stateMutability": "view",
      "type": "function"
    },
    {
      "inputs": [
        {
          "internalType": "address",
          "name": "owner",
          "type": "address"
        }
      ],
      "name": "nonces",
      "outputs": [
        {
          "internalType": "uint256",
          "name": "",
          "type": "uint256"
        }
      ],
      "stateMutability": "view",
      "type": "function"
    },
    {
      "inputs": [
        {
          "components": [
            {
              "internalType": "enum SwapKind",
              "name": "kind",
              "type": "uint8"
            },
            {
              "internalType": "uint256",
              "name": "amountGivenScaled18",
              "type": "uint256"
            },
            {
              "internalType": "uint256[]",
              "name": "balancesScaled18",
              "type": "uint256[]"
            },
            {
              "internalType": "uint256",
              "name": "indexIn",
              "type": "uint256"
            },
            {
              "internalType": "uint256",
              "name": "indexOut",
              "type": "uint256"
            },
            {
              "internalType": "address",
              "name": "router",
              "type": "address"
            },
            {
              "internalType": "bytes",
              "name": "userData",
              "type": "bytes"
            }
          ],
          "internalType": "struct PoolSwapParams",
          "name": "request",
          "type": "tuple"
        }
      ],
      "name": "onSwap",
      "outputs": [
        {
          "internalType": "uint256",
          "name": "",
          "type": "uint256"
        }
      ],
      "stateMutability": "view",
      "type": "function"
    },
    {
      "inputs": [
        {
          "internalType": "address",
          "name": "owner",
          "type": "address"
        },
        {
          "internalType": "address",
          "name": "spender",
          "type": "address"
        },
        {
          "internalType": "uint256",
          "name": "amount",
          "type": "uint256"
        },
        {
          "internalType": "uint256",
          "name": "deadline",
          "type": "uint256"
        },
        {
          "internalType": "uint8",
          "name": "v",
          "type": "uint8"
        },
        {
          "internalType": "bytes32",
          "name": "r",
          "type": "bytes32"
        },
        {
          "internalType": "bytes32",
          "name": "s",
          "type": "bytes32"
        }
      ],
      "name": "permit",
      "outputs": [],
      "stateMutability": "nonpayable",
      "type": "function"
    },
    {
      "inputs": [
        {
          "internalType": "uint256",
          "name": "rawEndValue",
          "type": "uint256"
        },
        {
          "internalType": "uint256",
          "name": "endTime",
          "type": "uint256"
        }
      ],
      "name": "startAmplificationParameterUpdate",
      "outputs": [],
      "stateMutability": "nonpayable",
      "type": "function"
    },
    {
      "inputs": [],
      "name": "stopAmplificationParameterUpdate",
      "outputs": [],
      "stateMutability": "nonpayable",
      "type": "function"
    },
    {
      "inputs": [
        {
          "internalType": "bytes4",
          "name": "interfaceId",
          "type": "bytes4"
        }
      ],
      "name": "supportsInterface",
      "outputs": [
        {
          "internalType": "bool",
          "name": "",
          "type": "bool"
        }
      ],
      "stateMutability": "view",
      "type": "function"
    },
    {
      "inputs": [],
      "name": "symbol",
      "outputs": [
        {
          "internalType": "string",
          "name": "",
          "type": "string"
        }
      ],
      "stateMutability": "view",
      "type": "function"
    },
    {
      "inputs": [],
      "name": "totalSupply",
      "outputs": [
        {
          "internalType": "uint256",
          "name": "",
          "type": "uint256"
        }
      ],
      "stateMutability": "view",
      "type": "function"
    },
    {
      "inputs": [
        {
          "internalType": "address",
          "name": "to",
          "type": "address"
        },
        {
          "internalType": "uint256",
          "name": "amount",
          "type": "uint256"
        }
      ],
      "name": "transfer",
      "outputs": [
        {
          "internalType": "bool",
          "name": "",
          "type": "bool"
        }
      ],
      "stateMutability": "nonpayable",
      "type": "function"
    },
    {
      "inputs": [
        {
          "internalType": "address",
          "name": "from",
          "type": "address"
        },
        {
          "internalType": "address",
          "name": "to",
          "type": "address"
        },
        {
          "internalType": "uint256",
          "name": "amount",
          "type": "uint256"
        }
      ],
      "name": "transferFrom",
      "outputs": [
        {
          "internalType": "bool",
          "name": "",
          "type": "bool"
        }
      ],
      "stateMutability": "nonpayable",
      "type": "function"
    },
    {
      "inputs": [],
      "name": "version",
      "outputs": [
        {
          "internalType": "string",
          "name": "",
          "type": "string"
        }
      ],
      "stateMutability": "view",
      "type": "function"
    }
  ],
  "bytecode": "0x6101e080604052346107de576143cf803803809161001d82856107e2565b833981016040828203126107de5781516001600160401b0381116107de5782019060809283838303126107de57604051918483016001600160401b038111848210176106035760405283516001600160401b0381116107de5781610082918601610805565b835260208401516001600160401b0381116107de57816100a3918601610805565b60208401908152604080860151908501526060850151909490916001600160401b0383116107de576020926100d89201610805565b60608401819052910151916001600160a01b03831683036107de578051935160408051959086016001600160401b03811187821017610603576040526001865260208601603160f81b815261012c8261085a565b61012052610139876109dd565b6101405281516020830120968760e05251902095610100968088524660a0526040519060208201927f8b73c3c69bb8fe3d512ecc4cf759cc79239f7b179b0ffacaa9a75d522b39400f84526040830152606082015246898201523060a082015260a0815260c0810181811060018060401b038211176106035760405251902087523060c0526101608590528051906001600160401b0382116106035760035490600182811c921680156107d4575b60208310146105e55781601f849311610779575b50602090601f8311600114610704575f926106f9575b50508160011b915f199060031b1c1916176003555b8051906001600160401b0382116106035760045490600182811c921680156106ef575b60208310146105e55781601f849311610697575b50602090601f8311600114610622575f92610617575b50508160011b915f199060031b1c1916176004555b610180903382526101a0928484526101c0948552805160018060401b03811161060357600591825490600182811c921680156105f9575b60208310146105e55781601f849311610597575b50602090601f8311600114610533575f92610528575b50508160011b915f199060031b1c19161790555b60016040820151106105195761138860408201511161050a57604001516103e8908181029181830414901517156104f6576001600160401b0381116104df57600654906001600160401b03811663ffffffff42116104c7574280891b63ffffffff60801b16604093841b6fffffffffffffffff0000000000000000166001600160c01b03199095168317949094179390931760a09390931b63ffffffff60a01b1692909217600655519081527fa0d01593e47e69d07e0ccd87bece09411e07dd1ed40ca8f2e7af2976542a023390602090a16040519361387b9586610b14873951856132b0015260a0518561337c015260c05185613281015260e051856132ff015251846133250152610120518461146d015261014051846114960152610160518481816102d90152818161045b0152818161068f015281816109090152818161098401528181610a0301528181610afc01528181611187015281816113e1015281816117f30152818161193e01528181611dd4015281816120bc0152818161230c0152818161275e015281816129ba0152612f9b01525183612c63015251826130610152518181816107e001528181610d5b01528181610e1f0152818161108201526115ab0152f35b6306dfcc6560e41b5f5260206004524260245260445ffd5b6306dfcc6560e41b5f52604060045260245260445ffd5b634e487b7160e01b5f52601160045260245ffd5b6309b80d3960e41b5f5260045ffd5b63ab92332360e01b5f5260045ffd5b015190505f806102e9565b5f858152602081209350601f198516905b81811061057f5750908460019594939210610567575b505050811b0190556102fd565b01515f1960f88460031b161c191690555f808061055a565b92936020600181928786015181550195019301610544565b909150835f5260205f20601f8401851c810191602085106105db575b90601f8594939201861c01905b8181106105cd57506102d3565b5f81558493506001016105c0565b90915081906105b3565b634e487b7160e01b5f52602260045260245ffd5b91607f16916102bf565b634e487b7160e01b5f52604160045260245ffd5b015190505f80610273565b60045f90815293505f5160206143af5f395f51905f5291905b601f198416851061067c576001945083601f19811610610664575b505050811b01600455610288565b01515f1960f88460031b161c191690555f8080610656565b8181015183556020948501946001909301929091019061063b565b60045f529091505f5160206143af5f395f51905f52601f840160051c8101602085106106e8575b90849392915b601f830160051c820181106106da57505061025d565b5f81558594506001016106c4565b50806106be565b91607f1691610249565b015190505f80610211565b60035f90815293505f51602061438f5f395f51905f5291905b601f198416851061075e576001945083601f19811610610746575b505050811b01600355610226565b01515f1960f88460031b161c191690555f8080610738565b8181015183556020948501946001909301929091019061071d565b60035f529091505f51602061438f5f395f51905f52601f840160051c810191602085106107ca575b90601f859493920160051c01905b8181106107bc57506101fb565b5f81558493506001016107af565b90915081906107a1565b91607f16916101e7565b5f80fd5b601f909101601f19168101906001600160401b0382119082101761060357604052565b81601f820112156107de578051906001600160401b0382116106035760405192610839601f8401601f1916602001856107e2565b828452602083830101116107de57815f9260208093018386015e8301015290565b8051602090818110156108d05750601f825111610892578082519201519080831061088457501790565b825f19910360031b1b161790565b60448260405192839163305a27a960e01b83528160048401528051918291826024860152018484015e5f828201840152601f01601f19168101030190fd5b906001600160401b038211610603575f54926001938481811c911680156109d3575b838210146105e557601f81116109a0575b5081601f841160011461093e57509282939183925f94610933575b50501b915f199060031b1c1916175f5560ff90565b015192505f8061091e565b919083601f1981165f8052845f20945f905b88838310610986575050501061096e575b505050811b015f5560ff90565b01515f1960f88460031b161c191690555f8080610961565b858701518855909601959485019487935090810190610950565b5f805284601f845f20920160051c820191601f860160051c015b8281106109c8575050610903565b5f81550185906109ba565b90607f16906108f2565b805160209081811015610a075750601f825111610892578082519201519080831061088457501790565b9192916001600160401b0381116106035760019182548381811c91168015610b09575b828210146105e557601f8111610ad6575b5080601f8311600114610a765750819293945f92610a6b575b50505f19600383901b1c191690821b17905560ff90565b015190505f80610a54565b90601f19831695845f52825f20925f905b888210610abf5750508385969710610aa7575b505050811b01905560ff90565b01515f1960f88460031b161c191690555f8080610a9a565b808785968294968601518155019501930190610a87565b835f5283601f835f20920160051c820191601f850160051c015b828110610afe575050610a3b565b5f8155018490610af0565b90607f1690610a2a56fe6080806040526004361015610012575f80fd5b5f905f3560e01c90816301ffc9a7146123ec5750806306fdde0314612343578063095ea7b31461227557806316a0b3e0146121c357806318160ddd146121a957806321da5e191461212a57806323b872dd1461204b57806323de665114611fea578063273c1adf14611fc85780632f1a0bc914611c2557806330adf81f14611bea578063313ce56714611bce5780633644e51514611bb357806354fd4d5014611b095780635687f2b814611aa65780635c1e6259146118f1578063627cdcb9146118c8578063654cf15d146118a5578063679aefce1461188a5780636daccffa1461185857806370a082311461178457806372c98186146116565780637ecebe001461161157806381fa807c1461154e57806384b0196e14611457578063851c1bb3146114055780638d928af8146113b457806395d89b41146112b7578063984de9e8146111f8578063a9059cbb146110ef578063aa6ca80814611029578063abb1dc4414610dc4578063b156aa0a14610d02578063b677fa5614610cdf578063cbd4e28014610839578063ce20ece714610819578063d335b0cf14610785578063d505accf146104d8578063dd62ed3e146103dc5763eb0f24d6146101d6575f80fd5b346103a257806003193601126103a2576101ee612fef565b6101f6612d07565b156103b457807fa0d01593e47e69d07e0ccd87bece09411e07dd1ed40ca8f2e7af2976542a0233602061022985946131e4565b60065467ffffffffffffffff82169173ffffffff0000000000000000000000000000000061025642613229565b916fffffffffffffffff0000000000000000857fffffffffffffffff00000000000000000000000000000000000000000000000077ffffffff00000000000000000000000000000000000000008660a01b169616179160401b16179160801b161717600655604051908152a173ffffffffffffffffffffffffffffffffffffffff7f0000000000000000000000000000000000000000000000000000000000000000166040519160208301526020825261030f8261250b565b803b156103b05761038183929183926040519485809481937fc80882470000000000000000000000000000000000000000000000000000000083527f416d7055706461746553746f70706564000000000000000000000000000000006004840152604060248401526044830190612454565b03925af180156103a5576103925750f35b61039b906124db565b6103a25780f35b80fd5b6040513d84823e3d90fd5b5050fd5b6004827f4673a675000000000000000000000000000000000000000000000000000000008152fd5b50346103a25760406003193601126103a2576103f6612479565b90602061040161249c565b92606473ffffffffffffffffffffffffffffffffffffffff91828060405197889586947f927da1050000000000000000000000000000000000000000000000000000000086523060048701521660248501521660448301527f0000000000000000000000000000000000000000000000000000000000000000165afa9081156104cc5790610495575b602090604051908152f35b506020813d6020116104c4575b816104af60209383612527565b810103126104c0576020905161048a565b5f80fd5b3d91506104a2565b604051903d90823e3d90fd5b50346103a25760e06003193601126103a2576104f2612479565b6104fa61249c565b90604435916064359160843560ff8116810361078157834211610755576105488273ffffffffffffffffffffffffffffffffffffffff165f52600260205260405f2080549060018201905590565b9060405160208101917f6e71edae12b1b97f4d1f60370fef10105fa2faae0126114a169c64845d6126c9835273ffffffffffffffffffffffffffffffffffffffff9687861694856040850152888816606085015289608085015260a084015260c083015260c0825260e082019082821067ffffffffffffffff83111761072857879361062b93610622936040525190206105e061326a565b90604051917f190100000000000000000000000000000000000000000000000000000000000083526002830152602282015260c43591604260a435922061370b565b9092919261379a565b168181036106fa576040517fe1f21c6700000000000000000000000000000000000000000000000000000000815273ffffffffffffffffffffffffffffffffffffffff848116600483015285166024820152604481018790528790602081606481857f00000000000000000000000000000000000000000000000000000000000000008c165af180156103a5576106c0575080f35b6020813d6020116106f2575b816106d960209383612527565b810103126106ee576106ea90612708565b5080f35b5080fd5b3d91506106cc565b7f4b800e46000000000000000000000000000000000000000000000000000000008752600452602452604485fd5b7f4e487b71000000000000000000000000000000000000000000000000000000005f52604160045260245ffd5b602486857f62791302000000000000000000000000000000000000000000000000000000008252600452fd5b8580fd5b50346103a257806003193601126103a257604051907fb45090f900000000000000000000000000000000000000000000000000000000825230600483015260208260248173ffffffffffffffffffffffffffffffffffffffff7f0000000000000000000000000000000000000000000000000000000000000000165afa9081156104cc579061049557602090604051908152f35b50346103a257806003193601126103a257602060405164e8d4a510008152f35b50346103a257806003193601126103a2576040516101c0810181811067ffffffffffffffff8211176107285760405260608152606060208201528160408201528160608201528160808201528160a08201528160c08201528160e08201528161010082015281610120820152816101408201528161016082015281610180820152816101a08201526040517f535cfd8a000000000000000000000000000000000000000000000000000000008152306004820152828160248173ffffffffffffffffffffffffffffffffffffffff7f0000000000000000000000000000000000000000000000000000000000000000165afa908115610c5c578391610cbd575b5081526040517f7e361bde000000000000000000000000000000000000000000000000000000008152306004820152828160248173ffffffffffffffffffffffffffffffffffffffff7f0000000000000000000000000000000000000000000000000000000000000000165afa908115610c5c578391610c99575b5060208201526040517fb45090f900000000000000000000000000000000000000000000000000000000815230600482015260208160248173ffffffffffffffffffffffffffffffffffffffff7f0000000000000000000000000000000000000000000000000000000000000000165afa908115610c5c578391610c67575b506040820152610a41612715565b6060820152610a4e612971565b6080820152610a5b612d07565b151561014083015260a082015263ffffffff6060610a776127c0565b67ffffffffffffffff81511660c085015267ffffffffffffffff60208201511660e0850152826040820151166101008501520151166101208201526040517ff29486a10000000000000000000000000000000000000000000000000000000081523060048201526101a08160248173ffffffffffffffffffffffffffffffffffffffff7f0000000000000000000000000000000000000000000000000000000000000000165afa908115610c5c57610120929391610c2b575b5060e081015115156101608401526101008101511515610180840152015115156101a08201526040518091602082526101a0610b93610b7d83516101c060208701526101e0860190612604565b6020840151601f19868303016040870152612604565b916040810151606085015260608101516080850152608081015160a085015260a081015160c085015260c081015160e085015260e081015161010085015263ffffffff6101008201511661012085015263ffffffff6101208201511661014085015261014081015115156101608501526101608101511515610180850152610180810151151582850152015115156101c08301520390f35b610c4f91506101a03d6101a011610c55575b610c478183612527565b810190612b1d565b5f610b30565b503d610c3d565b6040513d85823e3d90fd5b90506020813d602011610c91575b81610c8260209383612527565b810103126104c057515f610a33565b3d9150610c75565b610cb591503d8085833e610cad8183612527565b81019061292d565b90505f6109b4565b610cd991503d8085833e610cd18183612527565b810190612caa565b5f610939565b50346103a257806003193601126103a2576020604051670853a0d2313c00008152f35b50346103a257806003193601126103a2576040517f535cfd8a000000000000000000000000000000000000000000000000000000008152306004820152818160248173ffffffffffffffffffffffffffffffffffffffff7f0000000000000000000000000000000000000000000000000000000000000000165afa9081156103a55782610da59392610da9575b5050604051918291602083526020830190612604565b0390f35b610dbd92503d8091833e610cd18183612527565b5f80610d8f565b50346103a257806003193601126103a25773ffffffffffffffffffffffffffffffffffffffff906040517f67e0e0760000000000000000000000000000000000000000000000000000000081523060048201528181602481867f0000000000000000000000000000000000000000000000000000000000000000165afa9081156103a55782809481928294610eec575b50610e6a60405195608087526080870190612637565b9060209086830382880152818089519485815201980193905b838210610eb0578780610da589610ea28d8b8582036040870152612604565b908382036060850152612604565b909192939783606060019260408c518051610eca81612680565b8352808501518716858401520151151560408201520199019493920190610e83565b955092509250503d8083853e610f028185612527565b83016080848203126110255783519267ffffffffffffffff938481116106ee5782610f2e918701612825565b9160209485870151818111610fc657870182601f82011215610fc657805190610f568261254a565b97610f64604051998a612527565b82895280890181606080950284010192868411611021578201905b838210610fca5750505050506040870151818111610fc65782610fa39189016128cc565b966060810151918211610fc657610fbb9291016128cc565b91939491925f610e54565b8380fd5b848288031261102157604051610fdf816124ef565b8251600281101561101d578152838301518b8116810361101d57848201528591849161100d60408601612708565b6040820152815201910190610f7f565b8980fd5b8780fd5b8280fd5b50346103a257806003193601126103a2576040517fca4f2803000000000000000000000000000000000000000000000000000000008152306004820152818160248173ffffffffffffffffffffffffffffffffffffffff7f0000000000000000000000000000000000000000000000000000000000000000165afa9081156103a55782610da593926110cc575b5050604051918291602083526020830190612637565b6110e892503d8091833e6110e08183612527565b8101906128a3565b5f806110b6565b50346103a25760406003193601126103a25761116d602061110e612479565b6040517fbeabacc800000000000000000000000000000000000000000000000000000000815233600482015273ffffffffffffffffffffffffffffffffffffffff90911660248083019190915235604482015291829081906064820190565b03818573ffffffffffffffffffffffffffffffffffffffff7f0000000000000000000000000000000000000000000000000000000000000000165af180156103a5576111bf575b602060405160018152f35b6020813d6020116111f0575b816111d860209383612527565b810103126106ee576111ea9150612708565b5f6111b4565b3d91506111cb565b50346103a25760406003193601126103a25760043567ffffffffffffffff81116106ee5761122a903690600401612562565b6024359160028310156103a2575061124a90611244612d07565b506133a2565b908161125c575b602082604051908152f35b80611268600192612680565b03611277576020905b90611251565b6001810180911161128a57602090611271565b7f4e487b71000000000000000000000000000000000000000000000000000000005f52601160045260245ffd5b50346103a257806003193601126103a2576040516004545f826112d9836126b7565b91828252602093600190856001821691825f1461137657505060011461131b575b5061130792500383612527565b610da5604051928284938452830190612454565b84915060045f527f8a35acfbc15ff81a39ae7d344fd709f28e8600b4aa8c65c6b64bfe7fe36bd19b905f915b85831061135e5750506113079350820101856112fa565b80548389018501528794508693909201918101611347565b7fffffffffffffffffffffffffffffffffffffffffffffffffffffffffffffff00168582015261130795151560051b85010192508791506112fa9050565b50346103a257806003193601126103a257602060405173ffffffffffffffffffffffffffffffffffffffff7f0000000000000000000000000000000000000000000000000000000000000000168152f35b50346103a25760206003193601126103a257600435907fffffffff00000000000000000000000000000000000000000000000000000000821682036103a257602061144f83612c38565b604051908152f35b50346103a257806003193601126103a2576114917f000000000000000000000000000000000000000000000000000000000000000061351b565b6114ba7f000000000000000000000000000000000000000000000000000000000000000061364d565b60405192602084019380851067ffffffffffffffff8611176107285761152f610da593611521966040528383526040519687967f0f00000000000000000000000000000000000000000000000000000000000000885260e0602089015260e0880190612454565b908682036040880152612454565b9146606086015230608086015260a085015283820360c0850152612604565b50346103a257806003193601126103a2576040517ff29486a10000000000000000000000000000000000000000000000000000000081523060048201526101a090818160248173ffffffffffffffffffffffffffffffffffffffff7f0000000000000000000000000000000000000000000000000000000000000000165afa918215610c5c57604093926115f4575b505060608282015191015182519182526020820152f35b61160a9250803d10610c5557610c478183612527565b5f806115dd565b50346103a25760206003193601126103a257604060209173ffffffffffffffffffffffffffffffffffffffff611645612479565b168152600283522054604051908152f35b50346103a25760206003198181360112611025576004359067ffffffffffffffff908183116117805760e0908336030112610fc6576040519160e083018381108382111761072857604052806004013560028110156107815783526024810135848401526044810135828111610781576116d69060043691840101612562565b6040840152606481013560608401526084810135608084015260a481013573ffffffffffffffffffffffffffffffffffffffff811681036104c05760a084015260c48101359082821161078157019036602383011215611780576004820135908111610728576040519161175385601f19601f8501160184612527565b8183523660248383010111610781579381819692602461144f9701838601378301015260c08201526129ed565b8480fd5b50346103a257602090816003193601126103a2576044826117a3612479565b6040517ff7888aec00000000000000000000000000000000000000000000000000000000815230600482015273ffffffffffffffffffffffffffffffffffffffff918216602482015292839182907f0000000000000000000000000000000000000000000000000000000000000000165afa9182156104cc579161182b575b50604051908152f35b90508181813d8311611851575b6118428183612527565b810103126104c057515f611822565b503d611838565b50346103a257806003193601126103a2576060611873612d07565b604051918252151560208201526103e86040820152f35b50346103a257806003193601126103a257602061144f612971565b50346103a257806003193601126103a257602060405167016345785d8a00008152f35b50346103a257806003193601126103a257335f9081526002602052604090208054600101905580f35b50346103a257806003193601126103a2576040519061190f826124ef565b6060825260209182810160608152604082019183835273ffffffffffffffffffffffffffffffffffffffff94857f0000000000000000000000000000000000000000000000000000000000000000166040517fca4f28030000000000000000000000000000000000000000000000000000000081523060048201528681602481855afa908115611a9b579187916024938391611a81575b508552604051928380927f7e361bde0000000000000000000000000000000000000000000000000000000082523060048301525afa908115611a76578691611a5d575b508395929195526103e88452604051948086526080860191519660608288015287518093528160a08801980193905b838210611a4457878088611a398c8a51601f19858303016040860152612604565b905160608301520390f35b8451811689529782019793820193600190910190611a18565b611a7191503d8088833e610cad8183612527565b6119e9565b6040513d88823e3d90fd5b611a9591503d8085833e6110e08183612527565b5f6119a6565b6040513d89823e3d90fd5b50346103a25760207f8c5be1e5ebec7d5bd14f71427d1e84f3dd0314c0f7b2291e5b200ac8c7c3b925611ad8366125c2565b92919390611ae4612f84565b73ffffffffffffffffffffffffffffffffffffffff809160405195865216941692a380f35b50346103a257806003193601126103a2576040516005545f82611b2b836126b7565b91828252602093600190856001821691825f14611376575050600114611b58575061130792500383612527565b84915060055f527f036b6384b5eca791c62761152d0c79bb0604c104a5fb6f4eb0703f3154bb3db0905f915b858310611b9b5750506113079350820101856112fa565b80548389018501528794508693909201918101611b84565b50346103a257806003193601126103a257602061144f61326a565b50346103a257806003193601126103a257602060405160128152f35b50346103a257806003193601126103a25760206040517f6e71edae12b1b97f4d1f60370fef10105fa2faae0126114a169c64845d6126c98152f35b50346104c05760406003193601126104c057600435602435611c45612fef565b60018210611fa0576113888211611f7857611c604282612805565b62015180808210611f5057611c73612d07565b929092611f28576103e89485810295818704148115171561128a5783861115611f02576305265c000291858304148515171561128a57600291611cb9611cbf9285612812565b90613187565b11611eda57611cd0611cd6916131e4565b926131e4565b611ce8611ce242613229565b92613229565b67ffffffffffffffff809416916006548582169473ffffffff0000000000000000000000000000000063ffffffff936fffffffffffffffff0000000000000000877fffffffffffffffff00000000000000000000000000000000000000000000000077ffffffff0000000000000000000000000000000000000000888716988a169960a01b169616179160401b16179160801b1617176006557f1835882ee7a34ac194f717a35e09bb1d24c82a3b9d854ab6c9749525b714cdf26080604051858152866020820152836040820152846060820152a173ffffffffffffffffffffffffffffffffffffffff7f000000000000000000000000000000000000000000000000000000000000000016936040519360208501526040840152606083015260808201526080815260a0810192818410908411176107285782604052813b156104c0575f9183837fffffffffffffffffffffffffffffffffffffffffffffffffffffffffffffff6082947fc80882470000000000000000000000000000000000000000000000000000000084527f416d70557064617465537461727465640000000000000000000000000000000060a4820152604060c4820152611eb060e4820182612454565b0301925af18015611ecf57611ec3575080f35b611ecd91506124db565b005b6040513d5f823e3d90fd5b7f1c708b92000000000000000000000000000000000000000000000000000000005f5260045ffd5b5081830291838304148315171561128a57600291611cb9611f239287612812565b611cbf565b7f2f301e7e000000000000000000000000000000000000000000000000000000005f5260045ffd5b7fcd6b022a000000000000000000000000000000000000000000000000000000005f5260045ffd5b7f9b80d390000000000000000000000000000000000000000000000000000000005f5260045ffd5b7fab923323000000000000000000000000000000000000000000000000000000005f5260045ffd5b346104c0575f6003193601126104c0576020604051674563918244f400008152f35b346104c05760207fddf252ad1be2c89b69c2b068fc378daa952ba7f163c4a11628f55a4df523b3ef61201b366125c2565b92919390612027612f84565b73ffffffffffffffffffffffffffffffffffffffff809160405195865216941692a3005b346104c0576084602061205d366125c2565b6040517f15dacbea00000000000000000000000000000000000000000000000000000000815233600482015273ffffffffffffffffffffffffffffffffffffffff93841660248201529183166044830152606482015292839182905f907f0000000000000000000000000000000000000000000000000000000000000000165af18015611ecf576120f357602060405160018152f35b6020813d602011612122575b8161210c60209383612527565b810103126104c05761211d90612708565b6111b4565b3d91506120ff565b346104c0575f6003193601126104c0575f6060604051612149816124bf565b828152826020820152826040820152015260a06121646127c0565b6040519067ffffffffffffffff8082511683526020820151166020830152606060408201519163ffffffff809316604085015201511660608201526103e86080820152f35b346104c0575f6003193601126104c057602061144f612715565b346104c05760606003193601126104c05760043567ffffffffffffffff81116104c0576121f4903690600401612562565b6121fc612d07565b509061220a81611244612d07565b80612263575b9060209261222461144f9360443590612812565b91602435926001670de0b6b3a76400007fffffffffffffffffffffffffffffffffffffffffffffffffffffffffffffffff830104019015150291612dcf565b906001820180921161128a5790612210565b346104c05760406003193601126104c0576122f26020612293612479565b6040517fe1f21c6700000000000000000000000000000000000000000000000000000000815233600482015273ffffffffffffffffffffffffffffffffffffffff90911660248083019190915235604482015291829081906064820190565b03815f73ffffffffffffffffffffffffffffffffffffffff7f0000000000000000000000000000000000000000000000000000000000000000165af18015611ecf576120f357602060405160018152f35b346104c0575f6003193601126104c0576040516003545f82612364836126b7565b91828252602093600190856001821691825f14611376575050600114612391575061130792500383612527565b84915060035f527fc2575a0e9e593c00f959f8c92f12db2869c3395a3b0502d05e2516446f71f85b905f915b8583106123d45750506113079350820101856112fa565b805483890185015287945086939092019181016123bd565b346104c05760206003193601126104c057600435907fffffffff0000000000000000000000000000000000000000000000000000000082168092036104c0577f01ffc9a700000000000000000000000000000000000000000000000000000000602092148152f35b90601f19601f602080948051918291828752018686015e5f8582860101520116010190565b6004359073ffffffffffffffffffffffffffffffffffffffff821682036104c057565b6024359073ffffffffffffffffffffffffffffffffffffffff821682036104c057565b6080810190811067ffffffffffffffff82111761072857604052565b67ffffffffffffffff811161072857604052565b6060810190811067ffffffffffffffff82111761072857604052565b6040810190811067ffffffffffffffff82111761072857604052565b90601f601f19910116810190811067ffffffffffffffff82111761072857604052565b67ffffffffffffffff81116107285760051b60200190565b9080601f830112156104c057602090823561257c8161254a565b9361258a6040519586612527565b81855260208086019260051b8201019283116104c057602001905b8282106125b3575050505090565b813581529083019083016125a5565b60031960609101126104c05773ffffffffffffffffffffffffffffffffffffffff9060043582811681036104c0579160243590811681036104c0579060443590565b9081518082526020808093019301915f5b828110612623575050505090565b835185529381019392810192600101612615565b9081518082526020808093019301915f5b828110612656575050505090565b835173ffffffffffffffffffffffffffffffffffffffff1685529381019392810192600101612648565b6002111561268a57565b7f4e487b71000000000000000000000000000000000000000000000000000000005f52602160045260245ffd5b90600182811c921680156126fe575b60208310146126d157565b7f4e487b71000000000000000000000000000000000000000000000000000000005f52602260045260245ffd5b91607f16916126c6565b519081151582036104c057565b6040517fe4dc2aa400000000000000000000000000000000000000000000000000000000815230600482015260208160248173ffffffffffffffffffffffffffffffffffffffff7f0000000000000000000000000000000000000000000000000000000000000000165afa908115611ecf575f91612791575090565b90506020813d6020116127b8575b816127ac60209383612527565b810103126104c0575190565b3d915061279f565b604051906127cd826124bf565b81606060065467ffffffffffffffff80821684528160401c16602084015263ffffffff90818160801c16604085015260a01c16910152565b9190820391821161128a57565b8181029291811591840414171561128a57565b9080601f830112156104c0578151906020916128408161254a565b9361284e6040519586612527565b81855260208086019260051b8201019283116104c057602001905b828210612877575050505090565b815173ffffffffffffffffffffffffffffffffffffffff811681036104c0578152908301908301612869565b906020828203126104c057815167ffffffffffffffff81116104c0576128c99201612825565b90565b9080601f830112156104c0578151906020916128e78161254a565b936128f56040519586612527565b81855260208086019260051b8201019283116104c057602001905b82821061291e575050505090565b81518152908301908301612910565b9190916040818403126104c05780519267ffffffffffffffff938481116104c0578161295a9184016128cc565b9360208301519081116104c0576128c992016128cc565b6040517f4f037ee700000000000000000000000000000000000000000000000000000000815230600482015260208160248173ffffffffffffffffffffffffffffffffffffffff7f0000000000000000000000000000000000000000000000000000000000000000165afa908115611ecf575f91612791575090565b60408101906129ff8251611244612d07565b9081612b18575b612a0e612d07565b50918151612a1b81612680565b612a2481612680565b612abe57612a8b91602091612a85612a71612a91975193606081015193856080830151978893015199612a618b612a5b8985612dbb565b51612c9d565b612a6b8884612dbb565b52612dcf565b95612a7c8385612dbb565b51039183612dbb565b52612dbb565b51612805565b7fffffffffffffffffffffffffffffffffffffffffffffffffffffffffffffffff810190811161128a5790565b612b0391612b0a945190612a85612aef60608301518095856020608087015196015199612a618b612a8b8985612dbb565b95612afa8385612dbb565b51019183612dbb565b5190612805565b6001810180911161128a5790565b612a06565b6101a0918190038281126104c05760405192610140928385019285841067ffffffffffffffff8511176107285760809084604052126104c057612b5f836124bf565b612b6881612708565b8352612b7660208201612708565b926101609384870152612b8b60408301612708565b926101809384880152612ba060608401612708565b9087015285526080810151602086015260a0810151604086015260c0810151606086015260e081015164ffffffffff811681036104c05760808601526101008082015163ffffffff811681036104c057612c3194612c279160a0890152612c1b61012097612c0f898701612708565b60c08b01528501612708565b60e08901528301612708565b9086015201612708565b9082015290565b6040517fffffffff0000000000000000000000000000000000000000000000000000000060208201927f0000000000000000000000000000000000000000000000000000000000000000845216604082015260248152612c97816124ef565b51902090565b9190820180921161128a57565b906020828203126104c057815167ffffffffffffffff81116104c0576128c992016128cc565b8115612cda570490565b7f4e487b71000000000000000000000000000000000000000000000000000000005f52601260045260245ffd5b612d0f6127c0565b67ffffffffffffffff80825116906020830151169163ffffffff60608160408401511692015116908142105f14612d79576001938380821115612d615782612d5d9403924203910302612cd0565b0191565b5081612d74930391420390840302612cd0565b900391565b5050505f9091565b805115612d8e5760200190565b7f4e487b71000000000000000000000000000000000000000000000000000000005f52603260045260245ffd5b8051821015612d8e5760209160051b010190565b92919092612ddf84518092612812565b90612de985612d81565b51612dfd82612df788612d81565b51612812565b916001905b8588828410612f4257612e1e949350612b039250889150612dbb565b90612e298480612812565b956103e8958688029088820488148915171561128a57612e53612e5992611cb9612e609689612812565b92612dbb565b5190612812565b9380840290848204148415171561128a57612e8c612e9292612e86612e9c958894612cd0565b90612c9d565b95612c9d565b611cb98584612c9d565b5f5b60ff8110612ece577fdcbda05c000000000000000000000000000000000000000000000000000000005f5260045ffd5b81612ee285612edd8380612812565b612c9d565b908060011b908082046002149015171561128a57600191611cb986612f0a8a612f0f95612c9d565b612805565b928381811115612f3257031115612f2a576001905b01612e9e565b509250505090565b90031115612f2a57600190612f24565b612f7c91612f6584612f60879899612e5960019899612f6a97612dbb565b612812565b612cd0565b94612f75858b612dbb565b5190612c9d565b920190612e02565b73ffffffffffffffffffffffffffffffffffffffff7f0000000000000000000000000000000000000000000000000000000000000000163303612fc357565b7f089676d5000000000000000000000000000000000000000000000000000000005f523360045260245ffd5b61301b7fffffffff000000000000000000000000000000000000000000000000000000005f3516612c38565b73ffffffffffffffffffffffffffffffffffffffff6040517faaabadc50000000000000000000000000000000000000000000000000000000081526020928382600481867f0000000000000000000000000000000000000000000000000000000000000000165afa908115611ecf5784925f9261314b575b5060649060405194859384927f9be2a8840000000000000000000000000000000000000000000000000000000084526004840152336024840152306044840152165afa918215611ecf575f92613115575b5050156130ed57565b7f23dada53000000000000000000000000000000000000000000000000000000005f5260045ffd5b90809250813d8311613144575b61312c8183612527565b810103126104c05761313d90612708565b5f806130e4565b503d613122565b8092508391933d8311613180575b6131638183612527565b810103126104c057519082821682036104c0578391906064613093565b503d613159565b9080156131bc577fffffffffffffffffffffffffffffffffffffffffffffffffffffffffffffffff8201046001019015150290565b7f0a0c22c7000000000000000000000000000000000000000000000000000000005f5260045ffd5b67ffffffffffffffff908181116131f9571690565b7f6dfcc650000000000000000000000000000000000000000000000000000000005f52604060045260245260445ffd5b63ffffffff9081811161323a571690565b7f6dfcc650000000000000000000000000000000000000000000000000000000005f52602060045260245260445ffd5b73ffffffffffffffffffffffffffffffffffffffff7f000000000000000000000000000000000000000000000000000000000000000016301480613379575b156132d2577f000000000000000000000000000000000000000000000000000000000000000090565b60405160208101907f8b73c3c69bb8fe3d512ecc4cf759cc79239f7b179b0ffacaa9a75d522b39400f82527f000000000000000000000000000000000000000000000000000000000000000060408201527f000000000000000000000000000000000000000000000000000000000000000060608201524660808201523060a082015260a0815260c0810181811067ffffffffffffffff8211176107285760405251902090565b507f000000000000000000000000000000000000000000000000000000000000000046146132a9565b90915f9183515f5b818110613503575083156134fa5792906133c5848392612812565b915f907ffffffffffffffffffffffffffffffffffffffffffffffffffffffffffffffc18840196848811916001986001890194858a11965b60ff821061342d577f010ca320000000000000000000000000000000000000000000000000000000005f5260045ffd5b805f5b8d8d82106134cc575050908187866134648f95612f608f9897612e86839a61345c6103e8978892612812565b049189612812565b9161128a576134748c9388612812565b049161128a5761348d8f9392612e86613493948d612812565b90612cd0565b9283818111156134bd570311156134ae578b905b01906133fd565b50985050505050505050915090565b900311156134ae578b906134a7565b909691939c926134df856134ed92612812565b61348d85612df78b87612dbb565b96019b929095919b613430565b50509150505f90565b93613514600191612f758789612dbb565b94016133aa565b60ff811461356f5760ff811690601f8211613547576040519161353d8361250b565b8252602082015290565b7fb3512b0c000000000000000000000000000000000000000000000000000000005f5260045ffd5b506040515f815f5491613581836126b7565b8083529260209060019081811690811561360a57506001146135ac575b50506128c992500382612527565b9150925f80527f290decd9548b62a8d60345a988386fc84ba6bc95484008f6362f93160ef3e563935f925b8284106135f257506128c99450505081016020015f8061359e565b855487850183015294850194869450928101926135d7565b9050602093506128c99592507fffffffffffffffffffffffffffffffffffffffffffffffffffffffffffffff0091501682840152151560051b8201015f8061359e565b60ff811461366f5760ff811690601f8211613547576040519161353d8361250b565b506040515f81600191600154613684816126b7565b808452936020916001811690811561360a57506001146136ac5750506128c992500382612527565b91509260015f527fb10e2d527612073b26eecdfd717e6a320cf44b4afac2b0732d9fcbe2b7fa0cf6935f925b8284106136f357506128c99450505081016020015f8061359e565b855487850183015294850194869450928101926136d8565b91907f7fffffffffffffffffffffffffffffff5d576e7357a4501ddfe92f46681b20a0841161378f579160209360809260ff5f9560405194855216868401526040830152606082015282805260015afa15611ecf575f5173ffffffffffffffffffffffffffffffffffffffff81161561378557905f905f90565b505f906001905f90565b5050505f9160039190565b600481101561268a57806137ac575050565b600181036137dc577ff645eedf000000000000000000000000000000000000000000000000000000005f5260045ffd5b6002810361381057507ffce698f7000000000000000000000000000000000000000000000000000000005f5260045260245ffd5b60031461381a5750565b7fd78bce0c000000000000000000000000000000000000000000000000000000005f5260045260245ffdfea2646970667358221220bb8b077bad55a0e0b58802a7624b301faad8f0b39b2066fffe91ed5854caf21a64736f6c634300081b0033c2575a0e9e593c00f959f8c92f12db2869c3395a3b0502d05e2516446f71f85b8a35acfbc15ff81a39ae7d344fd709f28e8600b4aa8c65c6b64bfe7fe36bd19b",
  "linkReferences": {},
  "deployedLinkReferences": {}
}