{
  "_format": "hh-sol-artifact-1",
  "contractName": "StableSurgeHook",
  "sourceName": "contracts/StableSurgeHook.sol",
  "abi": [
    {
      "inputs": [
        {
          "internalType": "contract IVault",
          "name": "vault",
          "type": "address"
        },
        {
          "internalType": "uint256",
          "name": "defaultMaxSurgeFeePercentage",
          "type": "uint256"
        },
        {
          "internalType": "uint256",
          "name": "defaultSurgeThresholdPercentage",
          "type": "uint256"
        }
      ],
      "stateMutability": "nonpayable",
      "type": "constructor"
    },
    {
      "inputs": [],
      "name": "InputLengthMismatch",
      "type": "error"
    },
    {
      "inputs": [],
      "name": "InvalidPercentage",
      "type": "error"
    },
    {
      "inputs": [
        {
          "internalType": "uint8",
          "name": "bits",
          "type": "uint8"
        },
        {
          "internalType": "uint256",
          "name": "value",
          "type": "uint256"
        }
      ],
      "name": "SafeCastOverflowedUintDowncast",
      "type": "error"
    },
    {
      "inputs": [
        {
          "internalType": "address",
          "name": "sender",
          "type": "address"
        }
      ],
      "name": "SenderIsNotVault",
      "type": "error"
    },
    {
      "inputs": [],
      "name": "SenderNotAllowed",
      "type": "error"
    },
    {
      "anonymous": false,
      "inputs": [
        {
          "indexed": true,
          "internalType": "address",
          "name": "pool",
          "type": "address"
        },
        {
          "indexed": false,
          "internalType": "uint256",
          "name": "newMaxSurgeFeePercentage",
          "type": "uint256"
        }
      ],
      "name": "MaxSurgeFeePercentageChanged",
      "type": "event"
    },
    {
      "anonymous": false,
      "inputs": [
        {
          "indexed": true,
          "internalType": "address",
          "name": "pool",
          "type": "address"
        },
        {
          "indexed": true,
          "internalType": "address",
          "name": "factory",
          "type": "address"
        }
      ],
      "name": "StableSurgeHookRegistered",
      "type": "event"
    },
    {
      "anonymous": false,
      "inputs": [
        {
          "indexed": true,
          "internalType": "address",
          "name": "pool",
          "type": "address"
        },
        {
          "indexed": false,
          "internalType": "uint256",
          "name": "newSurgeThresholdPercentage",
          "type": "uint256"
        }
      ],
      "name": "ThresholdSurgePercentageChanged",
      "type": "event"
    },
    {
      "inputs": [
        {
          "internalType": "bytes4",
          "name": "selector",
          "type": "bytes4"
        }
      ],
      "name": "getActionId",
      "outputs": [
        {
          "internalType": "bytes32",
          "name": "",
          "type": "bytes32"
        }
      ],
      "stateMutability": "view",
      "type": "function"
    },
    {
      "inputs": [],
      "name": "getAllowedPoolFactory",
      "outputs": [
        {
          "internalType": "address",
          "name": "",
          "type": "address"
        }
      ],
      "stateMutability": "view",
      "type": "function"
    },
    {
      "inputs": [],
      "name": "getAuthorizer",
      "outputs": [
        {
          "internalType": "contract IAuthorizer",
          "name": "",
          "type": "address"
        }
      ],
      "stateMutability": "view",
      "type": "function"
    },
    {
      "inputs": [],
      "name": "getDefaultMaxSurgeFeePercentage",
      "outputs": [
        {
          "internalType": "uint256",
          "name": "",
          "type": "uint256"
        }
      ],
      "stateMutability": "view",
      "type": "function"
    },
    {
      "inputs": [],
      "name": "getDefaultSurgeThresholdPercentage",
      "outputs": [
        {
          "internalType": "uint256",
          "name": "",
          "type": "uint256"
        }
      ],
      "stateMutability": "view",
      "type": "function"
    },
    {
      "inputs": [],
      "name": "getHookFlags",
      "outputs": [
        {
          "components": [
            {
              "internalType": "bool",
              "name": "enableHookAdjustedAmounts",
              "type": "bool"
            },
            {
              "internalType": "bool",
              "name": "shouldCallBeforeInitialize",
              "type": "bool"
            },
            {
              "internalType": "bool",
              "name": "shouldCallAfterInitialize",
              "type": "bool"
            },
            {
              "internalType": "bool",
              "name": "shouldCallComputeDynamicSwapFee",
              "type": "bool"
            },
            {
              "internalType": "bool",
              "name": "shouldCallBeforeSwap",
              "type": "bool"
            },
            {
              "internalType": "bool",
              "name": "shouldCallAfterSwap",
              "type": "bool"
            },
            {
              "internalType": "bool",
              "name": "shouldCallBeforeAddLiquidity",
              "type": "bool"
            },
            {
              "internalType": "bool",
              "name": "shouldCallAfterAddLiquidity",
              "type": "bool"
            },
            {
              "internalType": "bool",
              "name": "shouldCallBeforeRemoveLiquidity",
              "type": "bool"
            },
            {
              "internalType": "bool",
              "name": "shouldCallAfterRemoveLiquidity",
              "type": "bool"
            }
          ],
          "internalType": "struct HookFlags",
          "name": "hookFlags",
          "type": "tuple"
        }
      ],
      "stateMutability": "pure",
      "type": "function"
    },
    {
      "inputs": [
        {
          "internalType": "address",
          "name": "pool",
          "type": "address"
        }
      ],
      "name": "getMaxSurgeFeePercentage",
      "outputs": [
        {
          "internalType": "uint256",
          "name": "",
          "type": "uint256"
        }
      ],
      "stateMutability": "view",
      "type": "function"
    },
    {
      "inputs": [
        {
          "components": [
            {
              "internalType": "enum SwapKind",
              "name": "kind",
              "type": "uint8"
            },
            {
              "internalType": "uint256",
              "name": "amountGivenScaled18",
              "type": "uint256"
            },
            {
              "internalType": "uint256[]",
              "name": "balancesScaled18",
              "type": "uint256[]"
            },
            {
              "internalType": "uint256",
              "name": "indexIn",
              "type": "uint256"
            },
            {
              "internalType": "uint256",
              "name": "indexOut",
              "type": "uint256"
            },
            {
              "internalType": "address",
              "name": "router",
              "type": "address"
            },
            {
              "internalType": "bytes",
              "name": "userData",
              "type": "bytes"
            }
          ],
          "internalType": "struct PoolSwapParams",
          "name": "params",
          "type": "tuple"
        },
        {
          "internalType": "address",
          "name": "pool",
          "type": "address"
        },
        {
          "internalType": "uint256",
          "name": "staticFeePercentage",
          "type": "uint256"
        }
      ],
      "name": "getSurgeFeePercentage",
      "outputs": [
        {
          "internalType": "uint256",
          "name": "",
          "type": "uint256"
        }
      ],
      "stateMutability": "view",
      "type": "function"
    },
    {
      "inputs": [
        {
          "internalType": "address",
          "name": "pool",
          "type": "address"
        }
      ],
      "name": "getSurgeThresholdPercentage",
      "outputs": [
        {
          "internalType": "uint256",
          "name": "",
          "type": "uint256"
        }
      ],
      "stateMutability": "view",
      "type": "function"
    },
    {
      "inputs": [],
      "name": "getVault",
      "outputs": [
        {
          "internalType": "contract IVault",
          "name": "",
          "type": "address"
        }
      ],
      "stateMutability": "view",
      "type": "function"
    },
    {
      "inputs": [
        {
          "internalType": "address",
          "name": "",
          "type": "address"
        },
        {
          "internalType": "address",
          "name": "",
          "type": "address"
        },
        {
          "internalType": "enum AddLiquidityKind",
          "name": "",
          "type": "uint8"
        },
        {
          "internalType": "uint256[]",
          "name": "",
          "type": "uint256[]"
        },
        {
          "internalType": "uint256[]",
          "name": "amountsInRaw",
          "type": "uint256[]"
        },
        {
          "internalType": "uint256",
          "name": "",
          "type": "uint256"
        },
        {
          "internalType": "uint256[]",
          "name": "",
          "type": "uint256[]"
        },
        {
          "internalType": "bytes",
          "name": "",
          "type": "bytes"
        }
      ],
      "name": "onAfterAddLiquidity",
      "outputs": [
        {
          "internalType": "bool",
          "name": "",
          "type": "bool"
        },
        {
          "internalType": "uint256[]",
          "name": "",
          "type": "uint256[]"
        }
      ],
      "stateMutability": "nonpayable",
      "type": "function"
    },
    {
      "inputs": [
        {
          "internalType": "uint256[]",
          "name": "",
          "type": "uint256[]"
        },
        {
          "internalType": "uint256",
          "name": "",
          "type": "uint256"
        },
        {
          "internalType": "bytes",
          "name": "",
          "type": "bytes"
        }
      ],
      "name": "onAfterInitialize",
      "outputs": [
        {
          "internalType": "bool",
          "name": "",
          "type": "bool"
        }
      ],
      "stateMutability": "nonpayable",
      "type": "function"
    },
    {
      "inputs": [
        {
          "internalType": "address",
          "name": "",
          "type": "address"
        },
        {
          "internalType": "address",
          "name": "",
          "type": "address"
        },
        {
          "internalType": "enum RemoveLiquidityKind",
          "name": "",
          "type": "uint8"
        },
        {
          "internalType": "uint256",
          "name": "",
          "type": "uint256"
        },
        {
          "internalType": "uint256[]",
          "name": "",
          "type": "uint256[]"
        },
        {
          "internalType": "uint256[]",
          "name": "amountsOutRaw",
          "type": "uint256[]"
        },
        {
          "internalType": "uint256[]",
          "name": "",
          "type": "uint256[]"
        },
        {
          "internalType": "bytes",
          "name": "",
          "type": "bytes"
        }
      ],
      "name": "onAfterRemoveLiquidity",
      "outputs": [
        {
          "internalType": "bool",
          "name": "",
          "type": "bool"
        },
        {
          "internalType": "uint256[]",
          "name": "",
          "type": "uint256[]"
        }
      ],
      "stateMutability": "nonpayable",
      "type": "function"
    },
    {
      "inputs": [
        {
          "components": [
            {
              "internalType": "enum SwapKind",
              "name": "kind",
              "type": "uint8"
            },
            {
              "internalType": "contract IERC20",
              "name": "tokenIn",
              "type": "address"
            },
            {
              "internalType": "contract IERC20",
              "name": "tokenOut",
              "type": "address"
            },
            {
              "internalType": "uint256",
              "name": "amountInScaled18",
              "type": "uint256"
            },
            {
              "internalType": "uint256",
              "name": "amountOutScaled18",
              "type": "uint256"
            },
            {
              "internalType": "uint256",
              "name": "tokenInBalanceScaled18",
              "type": "uint256"
            },
            {
              "internalType": "uint256",
              "name": "tokenOutBalanceScaled18",
              "type": "uint256"
            },
            {
              "internalType": "uint256",
              "name": "amountCalculatedScaled18",
              "type": "uint256"
            },
            {
              "internalType": "uint256",
              "name": "amountCalculatedRaw",
              "type": "uint256"
            },
            {
              "internalType": "address",
              "name": "router",
              "type": "address"
            },
            {
              "internalType": "address",
              "name": "pool",
              "type": "address"
            },
            {
              "internalType": "bytes",
              "name": "userData",
              "type": "bytes"
            }
          ],
          "internalType": "struct AfterSwapParams",
          "name": "",
          "type": "tuple"
        }
      ],
      "name": "onAfterSwap",
      "outputs": [
        {
          "internalType": "bool",
          "name": "",
          "type": "bool"
        },
        {
          "internalType": "uint256",
          "name": "",
          "type": "uint256"
        }
      ],
      "stateMutability": "nonpayable",
      "type": "function"
    },
    {
      "inputs": [
        {
          "internalType": "address",
          "name": "",
          "type": "address"
        },
        {
          "internalType": "address",
          "name": "",
          "type": "address"
        },
        {
          "internalType": "enum AddLiquidityKind",
          "name": "",
          "type": "uint8"
        },
        {
          "internalType": "uint256[]",
          "name": "",
          "type": "uint256[]"
        },
        {
          "internalType": "uint256",
          "name": "",
          "type": "uint256"
        },
        {
          "internalType": "uint256[]",
          "name": "",
          "type": "uint256[]"
        },
        {
          "internalType": "bytes",
          "name": "",
          "type": "bytes"
        }
      ],
      "name": "onBeforeAddLiquidity",
      "outputs": [
        {
          "internalType": "bool",
          "name": "",
          "type": "bool"
        }
      ],
      "stateMutability": "nonpayable",
      "type": "function"
    },
    {
      "inputs": [
        {
          "internalType": "uint256[]",
          "name": "",
          "type": "uint256[]"
        },
        {
          "internalType": "bytes",
          "name": "",
          "type": "bytes"
        }
      ],
      "name": "onBeforeInitialize",
      "outputs": [
        {
          "internalType": "bool",
          "name": "",
          "type": "bool"
        }
      ],
      "stateMutability": "nonpayable",
      "type": "function"
    },
    {
      "inputs": [
        {
          "internalType": "address",
          "name": "",
          "type": "address"
        },
        {
          "internalType": "address",
          "name": "",
          "type": "address"
        },
        {
          "internalType": "enum RemoveLiquidityKind",
          "name": "",
          "type": "uint8"
        },
        {
          "internalType": "uint256",
          "name": "",
          "type": "uint256"
        },
        {
          "internalType": "uint256[]",
          "name": "",
          "type": "uint256[]"
        },
        {
          "internalType": "uint256[]",
          "name": "",
          "type": "uint256[]"
        },
        {
          "internalType": "bytes",
          "name": "",
          "type": "bytes"
        }
      ],
      "name": "onBeforeRemoveLiquidity",
      "outputs": [
        {
          "internalType": "bool",
          "name": "",
          "type": "bool"
        }
      ],
      "stateMutability": "nonpayable",
      "type": "function"
    },
    {
      "inputs": [
        {
          "components": [
            {
              "internalType": "enum SwapKind",
              "name": "kind",
              "type": "uint8"
            },
            {
              "internalType": "uint256",
              "name": "amountGivenScaled18",
              "type": "uint256"
            },
            {
              "internalType": "uint256[]",
              "name": "balancesScaled18",
              "type": "uint256[]"
            },
            {
              "internalType": "uint256",
              "name": "indexIn",
              "type": "uint256"
            },
            {
              "internalType": "uint256",
              "name": "indexOut",
              "type": "uint256"
            },
            {
              "internalType": "address",
              "name": "router",
              "type": "address"
            },
            {
              "internalType": "bytes",
              "name": "userData",
              "type": "bytes"
            }
          ],
          "internalType": "struct PoolSwapParams",
          "name": "",
          "type": "tuple"
        },
        {
          "internalType": "address",
          "name": "",
          "type": "address"
        }
      ],
      "name": "onBeforeSwap",
      "outputs": [
        {
          "internalType": "bool",
          "name": "",
          "type": "bool"
        }
      ],
      "stateMutability": "nonpayable",
      "type": "function"
    },
    {
      "inputs": [
        {
          "components": [
            {
              "internalType": "enum SwapKind",
              "name": "kind",
              "type": "uint8"
            },
            {
              "internalType": "uint256",
              "name": "amountGivenScaled18",
              "type": "uint256"
            },
            {
              "internalType": "uint256[]",
              "name": "balancesScaled18",
              "type": "uint256[]"
            },
            {
              "internalType": "uint256",
              "name": "indexIn",
              "type": "uint256"
            },
            {
              "internalType": "uint256",
              "name": "indexOut",
              "type": "uint256"
            },
            {
              "internalType": "address",
              "name": "router",
              "type": "address"
            },
            {
              "internalType": "bytes",
              "name": "userData",
              "type": "bytes"
            }
          ],
          "internalType": "struct PoolSwapParams",
          "name": "params",
          "type": "tuple"
        },
        {
          "internalType": "address",
          "name": "pool",
          "type": "address"
        },
        {
          "internalType": "uint256",
          "name": "staticSwapFeePercentage",
          "type": "uint256"
        }
      ],
      "name": "onComputeDynamicSwapFeePercentage",
      "outputs": [
        {
          "internalType": "bool",
          "name": "",
          "type": "bool"
        },
        {
          "internalType": "uint256",
          "name": "",
          "type": "uint256"
        }
      ],
      "stateMutability": "view",
      "type": "function"
    },
    {
      "inputs": [
        {
          "internalType": "address",
          "name": "factory",
          "type": "address"
        },
        {
          "internalType": "address",
          "name": "pool",
          "type": "address"
        },
        {
          "components": [
            {
              "internalType": "contract IERC20",
              "name": "token",
              "type": "address"
            },
            {
              "internalType": "enum TokenType",
              "name": "tokenType",
              "type": "uint8"
            },
            {
              "internalType": "contract IRateProvider",
              "name": "rateProvider",
              "type": "address"
            },
            {
              "internalType": "bool",
              "name": "paysYieldFees",
              "type": "bool"
            }
          ],
          "internalType": "struct TokenConfig[]",
          "name": "",
          "type": "tuple[]"
        },
        {
          "components": [
            {
              "internalType": "bool",
              "name": "disableUnbalancedLiquidity",
              "type": "bool"
            },
            {
              "internalType": "bool",
              "name": "enableAddLiquidityCustom",
              "type": "bool"
            },
            {
              "internalType": "bool",
              "name": "enableRemoveLiquidityCustom",
              "type": "bool"
            },
            {
              "internalType": "bool",
              "name": "enableDonation",
              "type": "bool"
            }
          ],
          "internalType": "struct LiquidityManagement",
          "name": "",
          "type": "tuple"
        }
      ],
      "name": "onRegister",
      "outputs": [
        {
          "internalType": "bool",
          "name": "",
          "type": "bool"
        }
      ],
      "stateMutability": "nonpayable",
      "type": "function"
    },
    {
      "inputs": [
        {
          "internalType": "address",
          "name": "pool",
          "type": "address"
        },
        {
          "internalType": "uint256",
          "name": "newMaxSurgeSurgeFeePercentage",
          "type": "uint256"
        }
      ],
      "name": "setMaxSurgeFeePercentage",
      "outputs": [],
      "stateMutability": "nonpayable",
      "type": "function"
    },
    {
      "inputs": [
        {
          "internalType": "address",
          "name": "pool",
          "type": "address"
        },
        {
          "internalType": "uint256",
          "name": "newSurgeThresholdPercentage",
          "type": "uint256"
        }
      ],
      "name": "setSurgeThresholdPercentage",
      "outputs": [],
      "stateMutability": "nonpayable",
      "type": "function"
    }
  ],
  "bytecode": "0x610140346100ee57601f611c3d38819003918201601f19168301916001600160401b038311848410176100f2578084926060946040528339810103126100ee5780516001600160a01b03811681036100ee576040602083015192015190806080523060a05260c05261007081610106565b61007982610106565b6101209081526101009182523360e05260405190611b179283610126843960805183818161145801526117ea015260a0518361134b015260c05183818161097f01526113d9015260e0518381816107520152610c82015251828181610ad70152610cb40152518181816109300152610cde0152f35b5f80fd5b634e487b7160e01b5f52604160045260245ffd5b670de0b6b3a76400001061011657565b631f3b85d360e01b5f5260045ffdfe60806040526004361015610011575f80fd5b5f3560e01c80630b89f1821461017457806318b6eb551461016f5780631a4a64be1461016a5780631c149e2814610165578063249d6761146101605780632754888d1461015b57806338be241d1461015657806345347f9c1461015157806345421ec71461014c5780634e493cfd146101475780635211fa771461014257806359f004661461013d578063851c1bb3146101385780638bc694ad146101335780638d928af81461012e578063976907cc14610129578063a0e8f5ac14610124578063aaabadc51461011f578063ba5f9f401461011a578063c17ef2cc14610115578063d77153a7146101105763e23816021461010b575f80fd5b610be2565b610b7b565b610ac0565b610a71565b610a39565b610a0a565b6109a3565b610953565b610919565b6108d1565b610896565b61084f565b610812565b610785565b610726565b6106db565b610633565b6105c3565b610520565b610409565b6103c9565b6102ab565b73ffffffffffffffffffffffffffffffffffffffff81160361019757565b5f80fd5b600435906101a882610179565b565b602435906101a882610179565b35906101a882610179565b7f4e487b71000000000000000000000000000000000000000000000000000000005f52604160045260245ffd5b6080810190811067ffffffffffffffff82111761020b57604052565b6101c2565b610140810190811067ffffffffffffffff82111761020b57604052565b90601f601f19910116810190811067ffffffffffffffff82111761020b57604052565b67ffffffffffffffff811161020b5760051b60200190565b6002111561019757565b8015150361019757565b7fffffffffffffffffffffffffffffffffffffffffffffffffffffffffffffff9c608091011261019757606490565b346101975760e0600319360112610197576004356102c881610179565b602435906102d582610179565b60443567ffffffffffffffff811161019757366023820112156101975780600401359061030182610250565b604092610311604051928361022d565b808252602460208093019160071b8401019236841161019757602401905b8382106103635761035f61034d88886103473661027c565b50610c34565b60405190151581529081906020820190565b0390f35b6080823603126101975782608091865161037c816101ef565b843561038781610179565b81528285013561039681610268565b83820152878501356103a781610179565b88820152606080860135906103bb82610272565b82015281520191019061032f565b3461019757600319602081360112610197576004359067ffffffffffffffff821161019757610180913603011261019757604080515f81525f6020820152f35b346101975760206003193601126101975773ffffffffffffffffffffffffffffffffffffffff60043561043b81610179565b165f525f602052602067ffffffffffffffff60405f205460401c16604051908152f35b929161046982610250565b91610477604051938461022d565b829481845260208094019160051b810192831161019757905b82821061049d5750505050565b81358152908301908301610490565b9080601f83011215610197578160206104c79335910161045e565b90565b81601f820112156101975780359067ffffffffffffffff821161020b57604051926104ff6020601f19601f860116018561022d565b8284526020838301011161019757815f926020809301838601378301015290565b346101975760406003193601126101975767ffffffffffffffff600435818111610197576105529036906004016104ac565b506024359081116101975761056b9036906004016104ca565b5060206040515f8152f35b908160e09103126101975790565b6060600319820112610197576004359067ffffffffffffffff8211610197576105af91600401610576565b906024356105bc81610179565b9060443590565b346101975760206105dc6105d636610584565b916110d9565b604051908152f35b60443590600482101561019757565b604081015f82526020606081936040838201528551809452019301915f5b82811061061f575050505090565b835185529381019392810192600101610611565b34610197576101006003193601126101975761064d61019b565b506106566101aa565b5061065f6105e4565b5067ffffffffffffffff608435818111610197576106819036906004016104ac565b5060a4358181116101975761069a9036906004016104ac565b60c435828111610197576106b29036906004016104ac565b5060e435918211610197576106ce61035f9236906004016104ca565b50604051918291826105f3565b346101975760606003193601126101975767ffffffffffffffff6004358181116101975761070d9036906004016104ac565b506044359081116101975761056b9036906004016104ca565b34610197575f60031936011261019757602060405173ffffffffffffffffffffffffffffffffffffffff7f0000000000000000000000000000000000000000000000000000000000000000168152f35b60443590600582101561019757565b346101975760e0600319360112610197576107a1600435610179565b6107a96101aa565b506107b2610776565b5067ffffffffffffffff606435818111610197576107d49036906004016104ac565b5060a435818111610197576107ed9036906004016104ac565b5060c435908111610197576108069036906004016104ca565b506040515f8152602090f35b346101975760406003193601126101975761084d60043561083281610179565b6024359061083f82611707565b6108488161179e565b6114ac565b005b346101975760406003193601126101975760043567ffffffffffffffff811161019757610880903690600401610576565b5061088c602435610179565b60206040515f8152f35b346101975760406003193601126101975761084d6004356108b681610179565b602435906108c382611707565b6108cc8161179e565b611544565b34610197576020600319360112610197576004357fffffffff0000000000000000000000000000000000000000000000000000000081168103610197576105dc602091611320565b34610197575f6003193601126101975760206040517f00000000000000000000000000000000000000000000000000000000000000008152f35b34610197575f60031936011261019757602060405173ffffffffffffffffffffffffffffffffffffffff7f0000000000000000000000000000000000000000000000000000000000000000168152f35b3461019757610100600319360112610197576109bd61019b565b506109c66101aa565b506109cf610776565b5067ffffffffffffffff606435818111610197576109f19036906004016104ac565b506084358181116101975761069a9036906004016104ac565b34610197576040610a2b610a1d36610584565b91610a26611441565b6110d9565b815190600182526020820152f35b34610197575f600319360112610197576020610a53611396565b73ffffffffffffffffffffffffffffffffffffffff60405191168152f35b346101975760e060031936011261019757610a8d600435610179565b610a956101aa565b50610a9e6105e4565b5067ffffffffffffffff608435818111610197576107d49036906004016104ac565b34610197575f6003193601126101975760206040517f00000000000000000000000000000000000000000000000000000000000000008152f35b815115158152610140810192916101a8919060208181015115159083015260408181015115159083015260608181015115159083015260808181015115159083015260a08181015115159083015260c08181015115159083015260e08181015115159083015261010081810151151590830152610120908101511515910152565b34610197575f6003193601126101975761035f604051610b9a81610210565b5f81525f60208201525f60408201525f60808201525f60a08201525f60c08201525f60e08201525f6101008201525f6101208201526001606082015260405191829182610afa565b346101975760206003193601126101975773ffffffffffffffffffffffffffffffffffffffff600435610c1481610179565b165f525f602052602067ffffffffffffffff60405f205416604051908152f35b906104c791610c41611441565b610c66565b9081602091031261019757516104c781610272565b6040513d5f823e3d90fd5b73ffffffffffffffffffffffffffffffffffffffff80911691817f000000000000000000000000000000000000000000000000000000000000000016831480610d34575b15610d2d57610cd97f0000000000000000000000000000000000000000000000000000000000000000826114ac565b610d037f000000000000000000000000000000000000000000000000000000000000000082611544565b167ffd42028b1ab0233596a5bfda7bb185da4a89e41288da447e5135765d4b50d46b5f80a3600190565b5050505f90565b506040517f6634b75300000000000000000000000000000000000000000000000000000000815273ffffffffffffffffffffffffffffffffffffffff82166004820152602081602481875afa908115610dc3575f91610d94575b50610caa565b610db6915060203d602011610dbc575b610dae818361022d565b810190610c46565b5f610d8e565b503d610da4565b610c5b565b9035907fffffffffffffffffffffffffffffffffffffffffffffffffffffffffffffffe181360301821215610197570180359067ffffffffffffffff821161019757602001918160051b3603831361019757565b90816020910312610197575190565b60021115610e3557565b7f4e487b71000000000000000000000000000000000000000000000000000000005f52602160045260245ffd5b90357fffffffffffffffffffffffffffffffffffffffffffffffffffffffffffffffe18236030181121561019757016020813591019167ffffffffffffffff8211610197578160051b3603831361019757565b90918281527f07ffffffffffffffffffffffffffffffffffffffffffffffffffffffffffffff83116101975760209260051b809284830137010190565b90357fffffffffffffffffffffffffffffffffffffffffffffffffffffffffffffffe18236030181121561019757016020813591019167ffffffffffffffff821161019757813603831361019757565b601f8260209493601f1993818652868601375f8582860101520116010190565b9060208252803591610f7383610268565b6002831015610e35576104c792602082015260208201356040820152610fff610fb4610fa26040850185610e62565b60e06060860152610100850191610eb5565b9260608101356080840152608081013560a0840152610ff5610fd860a083016101b7565b73ffffffffffffffffffffffffffffffffffffffff1660c0850152565b60c0810190610ef2565b9160e0601f1982860301910152610f42565b9061101b82610250565b611028604051918261022d565b828152601f196110388294610250565b0190602036910137565b356104c781610268565b80518210156110605760209160051b010190565b7f4e487b71000000000000000000000000000000000000000000000000000000005f52603260045260245ffd5b7f4e487b71000000000000000000000000000000000000000000000000000000005f52601160045260245ffd5b919082018092116110c757565b61108d565b919082039182116110c757565b90604082016110e88184610dc8565b6040517f72c981860000000000000000000000000000000000000000000000000000000081529150602082806111218860048301610f62565b038173ffffffffffffffffffffffffffffffffffffffff88165afa908115610dc3576111dd925f926112eb575b5061115890611011565b906111768261117161116a878a610dc8565b369161045e565b6115cf565b61117f86611042565b61118881610e2b565b6112ba5760608601356111b36111ac60208901356111a6848761104c565b516110ba565b918461104c565b526111d76111d06080880135926111ca848661104c565b516110cc565b918361104c565b52611610565b9283156112b3576111f761116a611220936111fc93610dc8565b611610565b9173ffffffffffffffffffffffffffffffffffffffff165f525f60205260405f2090565b908211801590611288575b611283576104c7929161127761127d92549161126167ffffffffffffffff61125887828760401c166110cc565b941680926110cc565b90670de0b6b3a7640000818103911002906116c5565b906116e9565b906110ba565b505090565b506112ab61129e825467ffffffffffffffff1690565b67ffffffffffffffff1690565b82111561122b565b5050505090565b6112d06111d06060880135926111a6848661104c565b5260808501356111d76111d060208801356111ca848661104c565b6111589192506113129060203d602011611319575b61130a818361022d565b810190610e1c565b919061114e565b503d611300565b6040517fffffffff0000000000000000000000000000000000000000000000000000000060208201927f00000000000000000000000000000000000000000000000000000000000000008452166040820152602481526060810181811067ffffffffffffffff82111761020b5760405251902090565b6040517faaabadc500000000000000000000000000000000000000000000000000000000815260208160048173ffffffffffffffffffffffffffffffffffffffff7f0000000000000000000000000000000000000000000000000000000000000000165afa908115610dc3575f9161140c575090565b90506020813d602011611439575b816114276020938361022d565b8101031261019757516104c781610179565b3d915061141a565b73ffffffffffffffffffffffffffffffffffffffff7f000000000000000000000000000000000000000000000000000000000000000016330361148057565b7f089676d5000000000000000000000000000000000000000000000000000000005f523360045260245ffd5b9060207fcc7585f1dd40a0def67658a884745a1eca326ed902fe084d36e9e040842120329173ffffffffffffffffffffffffffffffffffffffff6114ef826118e4565b941693845f525f835260405f20907fffffffffffffffffffffffffffffffff0000000000000000ffffffffffffffff6fffffffffffffffff000000000000000083549260401b169116179055604051908152a2565b9060207f3b64afdb883fd4fa590572fb2db0b4d199d8ffb9703f5d32f4d87d1d468c026c9173ffffffffffffffffffffffffffffffffffffffff611587826118e4565b941693845f525f835267ffffffffffffffff60405f2091167fffffffffffffffffffffffffffffffffffffffffffffffff0000000000000000825416179055604051908152a2565b908151815181036115e8576020809160051b930191015e565b7faaad13f7000000000000000000000000000000000000000000000000000000005f5260045ffd5b9061161a82611929565b5f9283805b825186101561166f57611632868461104c565b5181018091116110c7579083611648878561104c565b518181111561166857035b81018091116110c7576001909501949061161f565b9003611653565b939450670de0b6b3a76400008082029350811591840414171590506110c7578115611698570490565b7f4e487b71000000000000000000000000000000000000000000000000000000005f52601260045260245ffd5b670de0b6b3a7640000908181029181830414901517156110c7578115611698570490565b8181029181830414901517156110c757670de0b6b3a7640000900490565b670de0b6b3a76400001061171757565b7f1f3b85d3000000000000000000000000000000000000000000000000000000005f5260045ffd5b908160609103126101975760405190606082019082821067ffffffffffffffff83111761020b576040918252805161177681610179565b8352602081015161178681610179565b6020840152015161179681610179565b604082015290565b6040517fe9ddeb2600000000000000000000000000000000000000000000000000000000815273ffffffffffffffffffffffffffffffffffffffff8281166004830152906060816024817f000000000000000000000000000000000000000000000000000000000000000086165afa908115610dc35761183e916020915f916118b5575b50015173ffffffffffffffffffffffffffffffffffffffff1690565b1690816118ac5761187d91506118767fffffffff000000000000000000000000000000000000000000000000000000005f3516611320565b33906119aa565b1561188457565b7f23dada53000000000000000000000000000000000000000000000000000000005f5260045ffd5b50330361188457565b6118d7915060603d6060116118dd575b6118cf818361022d565b81019061173f565b5f611822565b503d6118c5565b67ffffffffffffffff908181116118f9571690565b7f6dfcc650000000000000000000000000000000000000000000000000000000005f52604060045260245260445ffd5b61194160016020835160051b84010160208401611a3a565b8051600181811c911661199d577fffffffffffffffffffffffffffffffffffffffffffffffffffffffffffffffff8101908082116110c75761198661198d928461104c565b519261104c565b5181018091116110c75760011c90565b6119a69161104c565b5190565b90606460209273ffffffffffffffffffffffffffffffffffffffff9485806119d0611396565b169160405197889687957f9be2a88400000000000000000000000000000000000000000000000000000000875260048701521660248501521660448301525afa908115610dc3575f91611a21575090565b6104c7915060203d602011610dbc57610dae818361022d565b9190604083820310611adc5782519282818095602090602085015b868110611a7c575050835182518552825250611a7092611a3a565b60206101a89301611a3a565b9193509150805186600114611ab8577f4e487b71000000000000000000000000000000000000000000000000000000005f52605160045260245ffd5b8211611acb575b82019186918693611a55565b958201805187518252875295611abf565b50505056fea2646970667358221220ec077b9d74396e7a28506ac1dcafbaf6ce5907d1a5a94ed7f004171d4221a55564736f6c634300081b0033",
  "linkReferences": {},
  "deployedLinkReferences": {}
}