{
  "_format": "hh-sol-artifact-1",
  "contractName": "BalancerContractRegistry",
  "sourceName": "contracts/BalancerContractRegistry.sol",
  "abi": [
    {
      "inputs": [
        {
          "internalType": "contract IVault",
          "name": "vault",
          "type": "address"
        }
      ],
      "stateMutability": "nonpayable",
      "type": "constructor"
    },
    {
      "inputs": [
        {
          "internalType": "enum ContractType",
          "name": "contractType",
          "type": "uint8"
        },
        {
          "internalType": "address",
          "name": "contractAddress",
          "type": "address"
        }
      ],
      "name": "ContractAddressAlreadyRegistered",
      "type": "error"
    },
    {
      "inputs": [
        {
          "internalType": "address",
          "name": "contractAddress",
          "type": "address"
        }
      ],
      "name": "ContractAddressNotRegistered",
      "type": "error"
    },
    {
      "inputs": [
        {
          "internalType": "enum ContractType",
          "name": "contractType",
          "type": "uint8"
        },
        {
          "internalType": "string",
          "name": "contractName",
          "type": "string"
        }
      ],
      "name": "ContractAliasInUseAsName",
      "type": "error"
    },
    {
      "inputs": [
        {
          "internalType": "address",
          "name": "contractAddress",
          "type": "address"
        }
      ],
      "name": "ContractAlreadyDeprecated",
      "type": "error"
    },
    {
      "inputs": [
        {
          "internalType": "enum ContractType",
          "name": "contractType",
          "type": "uint8"
        },
        {
          "internalType": "string",
          "name": "contractName",
          "type": "string"
        }
      ],
      "name": "ContractNameAlreadyRegistered",
      "type": "error"
    },
    {
      "inputs": [
        {
          "internalType": "string",
          "name": "contractName",
          "type": "string"
        },
        {
          "internalType": "address",
          "name": "contractAddress",
          "type": "address"
        }
      ],
      "name": "ContractNameInUseAsAlias",
      "type": "error"
    },
    {
      "inputs": [
        {
          "internalType": "string",
          "name": "contractName",
          "type": "string"
        }
      ],
      "name": "ContractNameNotRegistered",
      "type": "error"
    },
    {
      "inputs": [
        {
          "internalType": "string",
          "name": "contractName",
          "type": "string"
        },
        {
          "internalType": "address",
          "name": "contractAddress",
          "type": "address"
        }
      ],
      "name": "InconsistentState",
      "type": "error"
    },
    {
      "inputs": [],
      "name": "InvalidContractAlias",
      "type": "error"
    },
    {
      "inputs": [],
      "name": "InvalidContractName",
      "type": "error"
    },
    {
      "inputs": [],
      "name": "SenderNotAllowed",
      "type": "error"
    },
    {
      "inputs": [],
      "name": "ZeroContractAddress",
      "type": "error"
    },
    {
      "anonymous": false,
      "inputs": [
        {
          "indexed": true,
          "internalType": "address",
          "name": "contractAddress",
          "type": "address"
        }
      ],
      "name": "BalancerContractDeprecated",
      "type": "event"
    },
    {
      "anonymous": false,
      "inputs": [
        {
          "indexed": true,
          "internalType": "enum ContractType",
          "name": "contractType",
          "type": "uint8"
        },
        {
          "indexed": true,
          "internalType": "string",
          "name": "contractName",
          "type": "string"
        },
        {
          "indexed": true,
          "internalType": "address",
          "name": "contractAddress",
          "type": "address"
        }
      ],
      "name": "BalancerContractDeregistered",
      "type": "event"
    },
    {
      "anonymous": false,
      "inputs": [
        {
          "indexed": true,
          "internalType": "enum ContractType",
          "name": "contractType",
          "type": "uint8"
        },
        {
          "indexed": true,
          "internalType": "string",
          "name": "contractName",
          "type": "string"
        },
        {
          "indexed": true,
          "internalType": "address",
          "name": "contractAddress",
          "type": "address"
        }
      ],
      "name": "BalancerContractRegistered",
      "type": "event"
    },
    {
      "anonymous": false,
      "inputs": [
        {
          "indexed": true,
          "internalType": "string",
          "name": "contractAlias",
          "type": "string"
        },
        {
          "indexed": true,
          "internalType": "address",
          "name": "contractAddress",
          "type": "address"
        }
      ],
      "name": "ContractAliasUpdated",
      "type": "event"
    },
    {
      "inputs": [
        {
          "internalType": "string",
          "name": "contractAlias",
          "type": "string"
        },
        {
          "internalType": "address",
          "name": "contractAddress",
          "type": "address"
        }
      ],
      "name": "addOrUpdateBalancerContractAlias",
      "outputs": [],
      "stateMutability": "nonpayable",
      "type": "function"
    },
    {
      "inputs": [
        {
          "internalType": "address",
          "name": "contractAddress",
          "type": "address"
        }
      ],
      "name": "deprecateBalancerContract",
      "outputs": [],
      "stateMutability": "nonpayable",
      "type": "function"
    },
    {
      "inputs": [
        {
          "internalType": "string",
          "name": "contractName",
          "type": "string"
        }
      ],
      "name": "deregisterBalancerContract",
      "outputs": [],
      "stateMutability": "nonpayable",
      "type": "function"
    },
    {
      "inputs": [
        {
          "internalType": "bytes4",
          "name": "selector",
          "type": "bytes4"
        }
      ],
      "name": "getActionId",
      "outputs": [
        {
          "internalType": "bytes32",
          "name": "",
          "type": "bytes32"
        }
      ],
      "stateMutability": "view",
      "type": "function"
    },
    {
      "inputs": [],
      "name": "getAuthorizer",
      "outputs": [
        {
          "internalType": "contract IAuthorizer",
          "name": "",
          "type": "address"
        }
      ],
      "stateMutability": "view",
      "type": "function"
    },
    {
      "inputs": [
        {
          "internalType": "enum ContractType",
          "name": "contractType",
          "type": "uint8"
        },
        {
          "internalType": "string",
          "name": "contractName",
          "type": "string"
        }
      ],
      "name": "getBalancerContract",
      "outputs": [
        {
          "internalType": "address",
          "name": "contractAddress",
          "type": "address"
        },
        {
          "internalType": "bool",
          "name": "isActive",
          "type": "bool"
        }
      ],
      "stateMutability": "view",
      "type": "function"
    },
    {
      "inputs": [
        {
          "internalType": "address",
          "name": "contractAddress",
          "type": "address"
        }
      ],
      "name": "getBalancerContractInfo",
      "outputs": [
        {
          "components": [
            {
              "internalType": "enum ContractType",
              "name": "contractType",
              "type": "uint8"
            },
            {
              "internalType": "bool",
              "name": "isRegistered",
              "type": "bool"
            },
            {
              "internalType": "bool",
              "name": "isActive",
              "type": "bool"
            }
          ],
          "internalType": "struct IBalancerContractRegistry.ContractInfo",
          "name": "info",
          "type": "tuple"
        }
      ],
      "stateMutability": "view",
      "type": "function"
    },
    {
      "inputs": [],
      "name": "getVault",
      "outputs": [
        {
          "internalType": "contract IVault",
          "name": "",
          "type": "address"
        }
      ],
      "stateMutability": "view",
      "type": "function"
    },
    {
      "inputs": [
        {
          "internalType": "enum ContractType",
          "name": "contractType",
          "type": "uint8"
        },
        {
          "internalType": "address",
          "name": "contractAddress",
          "type": "address"
        }
      ],
      "name": "isActiveBalancerContract",
      "outputs": [
        {
          "internalType": "bool",
          "name": "",
          "type": "bool"
        }
      ],
      "stateMutability": "view",
      "type": "function"
    },
    {
      "inputs": [
        {
          "internalType": "enum ContractType",
          "name": "contractType",
          "type": "uint8"
        },
        {
          "internalType": "string",
          "name": "contractName",
          "type": "string"
        },
        {
          "internalType": "address",
          "name": "contractAddress",
          "type": "address"
        }
      ],
      "name": "registerBalancerContract",
      "outputs": [],
      "stateMutability": "nonpayable",
      "type": "function"
    }
  ],
  "bytecode": "0x60c034607a57601f61119e38819003918201601f19168301916001600160401b03831184841017607e57808492602094604052833981010312607a57516001600160a01b0381168103607a573060805260a05260405161110b9081610093823960805181610e7e015260a0518181816106c90152610efb0152f35b5f80fd5b634e487b7160e01b5f52604160045260245ffdfe60406080815260049081361015610014575f80fd5b5f3560e01c80632967af9614610a6657806341d8c0bb1461095357806344969a9c146107e8578063851c1bb3146107985780638554c327146106ed5780638d928af81461069d578063aaabadc514610664578063ae2733a414610591578063c7f90793146103cf5763e0376ab41461008a575f80fd5b346103cb5760606003193601126103cb57813560058110156103cb5760243567ffffffffffffffff81116103cb576100c59036908501610ce7565b6044359273ffffffffffffffffffffffffffffffffffffffff948585168095036103cb576100f1610fa8565b84156103a55782511561037f57845f52602060018152825f209683519761011789610c5d565b549760ff986101288a821683610ddb565b89808260081c16151591828685015260101c16151586830152610346575061014f856110ad565b90815f525f835280855f205416806102b85750815f5260028352845f2054168061027f57505f525f8152825f20867fffffffffffffffffffffffff00000000000000000000000000000000000000008254161790558251926101b084610c5d565b6101ba8685610ddb565b8184019060018252600181860193818552895f52525f20935192600584101561025357507fffffffffffffffffffffffffffffffffffffffffffffffffffffffffff00000061022c96979862ff000061ff0087549451151560081b169451151560101b16941691161717179055610e37565b907fb12ed936cf481273b3ed037dc706d110c49bd7ba6743e67082cd772a6e9102e25f80a4005b6021907f4e487b71000000000000000000000000000000000000000000000000000000005f525260245ffd5b836102b4879287519384937f6d4f99900000000000000000000000000000000000000000000000000000000085528401610f74565b0390fd5b846102b488610303878e8b965f5260018252865f20918751926102da84610c5d565b54906102e883831685610ddb565b828260081c1615159084015260101c16151586820152610de7565b9361033781519586957fa1e69ed3000000000000000000000000000000000000000000000000000000008752860190610da1565b60248401526044830190610df4565b518790846005821015610253577f25a14e0c000000000000000000000000000000000000000000000000000000005f525260245260445ffd5b7f830c907e000000000000000000000000000000000000000000000000000000005f525ffd5b7fb4d92c53000000000000000000000000000000000000000000000000000000005f525ffd5b5f80fd5b5090346103cb57602091826003193601126103cb57813567ffffffffffffffff81116103cb576104029036908401610ce7565b9061040b610fa8565b81511561056a5761041b826110ad565b90815f525f855273ffffffffffffffffffffffffffffffffffffffff815f20541694851561053057855f5260018152815f209282519361045a85610c5d565b5461046860ff821686610ddb565b60ff808260081c16159182158588015260101c161515848601526104fd575f929160019184528381528284207fffffffffffffffffffffffff00000000000000000000000000000000000000008154169055878452528120555191600583101561025357506104d690610e37565b907ffa2e7bfe3791287aa74ffe867372b78e61b60e0516978c4952f83f7416fafb7c5f80a4005b82517f36a7ac0a000000000000000000000000000000000000000000000000000000008152806102b48988838b01610f74565b846102b48584519384937fcd3599f90000000000000000000000000000000000000000000000000000000085528401526024830190610df4565b827f830c907e000000000000000000000000000000000000000000000000000000005f525ffd5b50346103cb57806003193601126103cb5781359060058210156103cb5773ffffffffffffffffffffffffffffffffffffffff6105cb610d5b565b165f526001602052805f209160ff8251936105e585610c5d565b546105f282821686610ddb565b818160081c161515602086015260101c1615159283838201528361061d575b60208484519015158152f35b90919250516005811015610638576020935014905f80610611565b6021847f4e487b71000000000000000000000000000000000000000000000000000000005f525260245ffd5b50346103cb575f6003193601126103cb5760209073ffffffffffffffffffffffffffffffffffffffff610695610eb8565b915191168152f35b50346103cb575f6003193601126103cb576020905173ffffffffffffffffffffffffffffffffffffffff7f0000000000000000000000000000000000000000000000000000000000000000168152f35b50346103cb5760206003193601126103cb5760609073ffffffffffffffffffffffffffffffffffffffff61071f610d7e565b5f83805161072c81610c5d565b8281528260208201520152165f526001602052805f209080519161074f83610c5d565b5461075d60ff821684610ddb565b6020830160ff8260081c161515815260ff8385019260101c16151582526107878351809551610da1565b511515602084015251151590820152f35b5090346103cb5760206003193601126103cb5735907fffffffff00000000000000000000000000000000000000000000000000000000821682036103cb576107e1602092610e53565b9051908152f35b50346103cb5760206003193601126103cb5773ffffffffffffffffffffffffffffffffffffffff610817610d7e565b61081f610fa8565b169182156103a557825f526001602052815f209180519261083f84610c5d565b549061084e60ff831685610ddb565b602084019060ff8360081c16158015835260ff8287019460101c1615158452610928578251156108fd575f8352855f5260016020525f20935192600584101561025357507fffffffffffffffffffffffffffffffffffffffffffffffffffffffffff00000060ff62ff000061ff0087549451151560081b169451151560101b169416911617171790557f07b81cace396ea12f83465895486ac006cd17917e41b9759ad5e663404f1497b5f80a2005b85847f1f118c35000000000000000000000000000000000000000000000000000000005f525260245ffd5b85847ff5b5d364000000000000000000000000000000000000000000000000000000005f525260245ffd5b5090346103cb57816003193601126103cb57803560058110156103cb5760243567ffffffffffffffff81116103cb5761098f9036908401610ce7565b905f9261099c5f936110ad565b5f525f60205273ffffffffffffffffffffffffffffffffffffffff9182865f205416908115610a53575b8382165f526001602052865f20908751916109e083610c5d565b54936109ef60ff861684610ddb565b60ff8560081c1615159283602082015260ff8a82019660101c161515865283610a3c575b505050610a2c575b505083519216825215156020820152f35b9051909350151591505f80610a1b565b5191925060058210156102535750145f8080610a13565b9050600260205282865f205416906109c6565b5090346103cb57816003193601126103cb57803567ffffffffffffffff81116103cb57610a969036908301610ce7565b610a9e610d5b565b91610aa7610fa8565b815115610c375773ffffffffffffffffffffffffffffffffffffffff809316928315610c1057835f5260209160018352855f20865190610ae682610c5d565b5460ff91610af683831682610ddb565b8883808460081c16159384158985015260101c161515910152610be557610b1c856110ad565b92835f525f8552875f20541680610b8f5786610b69878a600289895f52525f20837fffffffffffffffffffffffff0000000000000000000000000000000000000000825416179055610e37565b7f06618a6a1a6a413a59097e7c362ee8260afae8f07bd94bc0938e5730584654835f80a3005b85610bb1868a95946102b4945f5260018252865f20918751926102da84610c5d565b9361033781519586957f4466cf0c000000000000000000000000000000000000000000000000000000008752860190610da1565b85827ff5b5d364000000000000000000000000000000000000000000000000000000005f525260245ffd5b507fb4d92c53000000000000000000000000000000000000000000000000000000005f525ffd5b7f907f9fd9000000000000000000000000000000000000000000000000000000005f525ffd5b6060810190811067ffffffffffffffff821117610c7957604052565b7f4e487b71000000000000000000000000000000000000000000000000000000005f52604160045260245ffd5b90601f7fffffffffffffffffffffffffffffffffffffffffffffffffffffffffffffffe0910116810190811067ffffffffffffffff821117610c7957604052565b81601f820112156103cb5780359067ffffffffffffffff8211610c795760405192610d3a60207fffffffffffffffffffffffffffffffffffffffffffffffffffffffffffffffe0601f8601160185610ca6565b828452602083830101116103cb57815f926020809301838601378301015290565b6024359073ffffffffffffffffffffffffffffffffffffffff821682036103cb57565b6004359073ffffffffffffffffffffffffffffffffffffffff821682036103cb57565b906005821015610dae5752565b7f4e487b71000000000000000000000000000000000000000000000000000000005f52602160045260245ffd5b6005821015610dae5752565b516005811015610dae5790565b907fffffffffffffffffffffffffffffffffffffffffffffffffffffffffffffffe0601f602080948051918291828752018686015e5f8582860101520116010190565b602090604051918183925191829101835e81015f815203902090565b6040517fffffffff0000000000000000000000000000000000000000000000000000000060208201927f0000000000000000000000000000000000000000000000000000000000000000845216604082015260248152610eb281610c5d565b51902090565b6040517faaabadc500000000000000000000000000000000000000000000000000000000815273ffffffffffffffffffffffffffffffffffffffff6020826004817f000000000000000000000000000000000000000000000000000000000000000085165afa918215610f69575f92610f3057505090565b9091506020813d602011610f61575b81610f4c60209383610ca6565b810103126103cb575190811681036103cb5790565b3d9150610f3f565b6040513d5f823e3d90fd5b9073ffffffffffffffffffffffffffffffffffffffff610fa1602092959495604085526040850190610df4565b9416910152565b610fd47fffffffff000000000000000000000000000000000000000000000000000000005f3516610e53565b602073ffffffffffffffffffffffffffffffffffffffff610ff3610eb8565b16916064604051809481937f9be2a88400000000000000000000000000000000000000000000000000000000835260048301523360248301523060448301525afa908115610f69575f91611072575b501561104a57565b7f23dada53000000000000000000000000000000000000000000000000000000005f5260045ffd5b90506020813d6020116110a5575b8161108d60209383610ca6565b810103126103cb575180151581036103cb575f611042565b3d9150611080565b604051610eb26020828180820195805191829101875e81015f83820152038084520182610ca656fea26469706673582212205f8c22218979328bb60d75c08cd4986215c06cbe08b0a0ce796b60a680f034f064736f6c634300081b0033",
  "linkReferences": {},
  "deployedLinkReferences": {}
}