{
  "_format": "hh-sol-artifact-1",
  "contractName": "StableLPOracle",
  "sourceName": "contracts/StableLPOracle.sol",
  "abi": [
    {
      "inputs": [
        {
          "internalType": "contract IVault",
          "name": "vault_",
          "type": "address"
        },
        {
          "internalType": "contract IStablePool",
          "name": "pool_",
          "type": "address"
        },
        {
          "internalType": "contract AggregatorV3Interface[]",
          "name": "feeds",
          "type": "address[]"
        },
        {
          "internalType": "uint256",
          "name": "version_",
          "type": "uint256"
        }
      ],
      "stateMutability": "nonpayable",
      "type": "constructor"
    },
    {
      "inputs": [],
      "name": "InputLengthMismatch",
      "type": "error"
    },
    {
      "inputs": [],
      "name": "KDidNotConverge",
      "type": "error"
    },
    {
      "inputs": [
        {
          "internalType": "int256",
          "name": "value",
          "type": "int256"
        }
      ],
      "name": "SafeCastOverflowedIntToUint",
      "type": "error"
    },
    {
      "inputs": [
        {
          "internalType": "uint256",
          "name": "value",
          "type": "uint256"
        }
      ],
      "name": "SafeCastOverflowedUintToInt",
      "type": "error"
    },
    {
      "inputs": [],
      "name": "UnsupportedDecimals",
      "type": "error"
    },
    {
      "inputs": [],
      "name": "ZeroDivision",
      "type": "error"
    },
    {
      "inputs": [
        {
          "internalType": "int256[]",
          "name": "prices",
          "type": "int256[]"
        }
      ],
      "name": "calculateTVL",
      "outputs": [
        {
          "internalType": "uint256",
          "name": "tvl",
          "type": "uint256"
        }
      ],
      "stateMutability": "view",
      "type": "function"
    },
    {
      "inputs": [],
      "name": "decimals",
      "outputs": [
        {
          "internalType": "uint8",
          "name": "",
          "type": "uint8"
        }
      ],
      "stateMutability": "pure",
      "type": "function"
    },
    {
      "inputs": [],
      "name": "description",
      "outputs": [
        {
          "internalType": "string",
          "name": "",
          "type": "string"
        }
      ],
      "stateMutability": "view",
      "type": "function"
    },
    {
      "inputs": [],
      "name": "getFeedData",
      "outputs": [
        {
          "internalType": "int256[]",
          "name": "prices",
          "type": "int256[]"
        },
        {
          "internalType": "uint256",
          "name": "updatedAt",
          "type": "uint256"
        }
      ],
      "stateMutability": "view",
      "type": "function"
    },
    {
      "inputs": [],
      "name": "getFeedTokenDecimalScalingFactors",
      "outputs": [
        {
          "internalType": "uint256[]",
          "name": "",
          "type": "uint256[]"
        }
      ],
      "stateMutability": "view",
      "type": "function"
    },
    {
      "inputs": [],
      "name": "getFeeds",
      "outputs": [
        {
          "internalType": "contract AggregatorV3Interface[]",
          "name": "",
          "type": "address[]"
        }
      ],
      "stateMutability": "view",
      "type": "function"
    },
    {
      "inputs": [],
      "name": "getPoolTokens",
      "outputs": [
        {
          "internalType": "contract IERC20[]",
          "name": "",
          "type": "address[]"
        }
      ],
      "stateMutability": "view",
      "type": "function"
    },
    {
      "inputs": [
        {
          "internalType": "uint80",
          "name": "",
          "type": "uint80"
        }
      ],
      "name": "getRoundData",
      "outputs": [
        {
          "internalType": "uint80",
          "name": "roundId",
          "type": "uint80"
        },
        {
          "internalType": "int256",
          "name": "answer",
          "type": "int256"
        },
        {
          "internalType": "uint256",
          "name": "startedAt",
          "type": "uint256"
        },
        {
          "internalType": "uint256",
          "name": "updatedAt",
          "type": "uint256"
        },
        {
          "internalType": "uint80",
          "name": "answeredInRound",
          "type": "uint80"
        }
      ],
      "stateMutability": "pure",
      "type": "function"
    },
    {
      "inputs": [],
      "name": "latestRoundData",
      "outputs": [
        {
          "internalType": "uint80",
          "name": "roundId",
          "type": "uint80"
        },
        {
          "internalType": "int256",
          "name": "answer",
          "type": "int256"
        },
        {
          "internalType": "uint256",
          "name": "startedAt",
          "type": "uint256"
        },
        {
          "internalType": "uint256",
          "name": "updatedAt",
          "type": "uint256"
        },
        {
          "internalType": "uint80",
          "name": "answeredInRound",
          "type": "uint80"
        }
      ],
      "stateMutability": "view",
      "type": "function"
    },
    {
      "inputs": [],
      "name": "pool",
      "outputs": [
        {
          "internalType": "contract IBasePool",
          "name": "",
          "type": "address"
        }
      ],
      "stateMutability": "view",
      "type": "function"
    },
    {
      "inputs": [],
      "name": "version",
      "outputs": [
        {
          "internalType": "uint256",
          "name": "",
          "type": "uint256"
        }
      ],
      "stateMutability": "view",
      "type": "function"
    }
  ],
  "bytecode": "0x6103006040818152346105b55761246a803803809161001e8286610684565b84398201906080838303126105b55782516001600160a01b038082169290918381036105b55760209081870151948486168096036105b557878401516001600160401b0392908381116105b557890198601f98808a8c0112156105b5578a51610086816106bb565b9b87808a519e8f906100989082610684565b848152019260051b8201019283116105b5578701905b82821061066c57505050915f916060602494015160c05260a0528760805285519283809263ca4f280360e01b825260049a8b8301525afa908115610662575f916105d6575b5051958660e052855f86608051168651928380926395d89b4160e01b82525afa9081156105cc579084915f91610539575b5060246101559187519381859251918291018984015e8101630bd554d160e21b888201520389810184520182610684565b8051928311610526575f54936001948581811c9116801561051c575b82821014610509578381116104c6575b508092841160011461046457509282939183925f94610459575b50501b915f199060031b1c1916175f555b8451840361044b57816101be866106d2565b5116946101009586526101db836101d4836106d2565b5116610764565b926102009384526007816101ee846106f3565b511696610120978852610204836101d4866106f3565b9661022097885260028211610425575b600382116103ff575b81116103d9575b600581116103b3575b6006811161038d575b11610366575b50505192611c44948561082686396080518581816101010152818161034e0152818161072801526109ab015260a0518581816101270152818161037a0152610a17015260c05185610630015260e05185818161021f0152818161044701528181610af10152818161104e01528181611881015281816118e80152818161190d015281816119400152818161197901526119e2015251846113bb015251836113e80152610140518361141f015261016051836114560152610180518361148d01526101a051836114c401526101c051836114ff01526101e051836115360152518261156c01525181611597015261024051816115cb015261026051816115ff0152610280518161163301526102a0518161166701526102c0518161169e01526102e051816116d10152f35b6101d4828261037761038295610753565b51166101e052610753565b6102e0525f8061023c565b8261039785610743565b51166101c0526103aa836101d486610743565b6102c052610236565b826103bd85610733565b51166101a0526103d0836101d486610733565b6102a05261022d565b826103e385610723565b5116610180526103f6836101d486610723565b61028052610224565b8361040986610713565b51166101605261041c846101d487610713565b6102605261021d565b8361042f86610703565b511661014052610442846101d487610703565b61024052610214565b8263aaad13f760e01b5f525ffd5b015192505f8061019b565b919083601f1981165f8052845f20945f905b888383106104ac5750505010610494575b505050811b015f556101ac565b01515f1960f88460031b161c191690555f8080610487565b858701518855909601959485019487935090810190610476565b5f8052815f208480870160051c820192848810610500575b0160051c019086905b8281106104f5575050610181565b5f81550186906104e7565b925081926104de565b602289634e487b7160e01b5f525260245ffd5b90607f1690610171565b604187634e487b7160e01b5f525260245ffd5b9150503d805f833e61054b8183610684565b81019084818303126105b5578051908482116105b557018183820112156105b5578051908482116105b95786519261058b838601601f1916880185610684565b8284528683830101116105b55785925f84846101559582602496018386015e830101529150610124565b5f80fd5b604189634e487b7160e01b5f525260245ffd5b85513d5f823e3d90fd5b90503d805f833e6105e78183610684565b81019083818303126105b5578051908382116105b55701908088830112156105b5578151610614816106bb565b9261062187519485610684565b818452858085019260051b8201019283116105b5578501905b82821061064a575050505f6100f3565b815188811681036105b557815290850190850161063a565b84513d5f823e3d90fd5b81518a811681036105b55781529087019087016100ae565b601f909101601f19168101906001600160401b038211908210176106a757604052565b634e487b7160e01b5f52604160045260245ffd5b6001600160401b0381116106a75760051b60200190565b8051156106df5760200190565b634e487b7160e01b5f52603260045260245ffd5b8051600110156106df5760400190565b8051600210156106df5760600190565b8051600310156106df5760800190565b8051600410156106df5760a00190565b8051600510156106df5760c00190565b8051600610156106df5760e00190565b8051600710156106df576101000190565b60405163313ce56760e01b815290602090829060049082906001600160a01b03165afa801561081a575f906107dd575b60ff915016601281116107ce57601203601281116107ba57604d81116107ba57600a0a90565b634e487b7160e01b5f52601160045260245ffd5b636a78e98160e11b5f5260045ffd5b506020813d602011610812575b816107f760209383610684565b810103126105b5575160ff811681036105b55760ff90610794565b3d91506107ea565b6040513d5f823e3d90fdfe6080604081815260049182361015610015575f80fd5b5f3560e01c90816316f0115b146106fe57508063313ce567146106e357806347bcac3b1461065357806354fd4d50146106195780637284e416146104c55780637fe955d41461043157806389c06568146102fe5780639a6fc8f5146102b7578063af1296d31461025a578063cd2c9e70146102055763feaf968c14610098575f80fd5b346101ef575f6003193601126101ef576100bd6024926100b661104c565b9290610992565b90602073ffffffffffffffffffffffffffffffffffffffff8551968780927fe4dc2aa4000000000000000000000000000000000000000000000000000000008252807f000000000000000000000000000000000000000000000000000000000000000016868301527f0000000000000000000000000000000000000000000000000000000000000000165afa9485156101fb575f956101c3575b50841561019d575061018160a09460016101715f9461133b565b915f198301040190151502611701565b92805193828552602085015283015260608201525f6080820152f35b7f0a0c22c7000000000000000000000000000000000000000000000000000000005f525ffd5b9094506020813d6020116101f3575b816101df6020938361074c565b810103126101ef5751935f610157565b5f80fd5b3d91506101d2565b84513d5f823e3d90fd5b50346101ef575f6003193601126101ef57610256906102437f0000000000000000000000000000000000000000000000000000000000000000611560565b90519182916020835260208301906107b4565b0390f35b50346101ef575f6003193601126101ef5761027361104c565b91805191818301918352805180925260608301916020809201915f5b8281106102a3578580868960208301520390f35b83518552938101939281019260010161028f565b5090346101ef5760206003193601126101ef573569ffffffffffffffffffff8116036101ef57805f60a09251918183528160208401528201525f60608201525f6080820152f35b50346101ef575f6003193601126101ef5773ffffffffffffffffffffffffffffffffffffffff918151907fca4f2803000000000000000000000000000000000000000000000000000000008252837f000000000000000000000000000000000000000000000000000000000000000016908201525f81602481867f0000000000000000000000000000000000000000000000000000000000000000165afa908115610427575f916103e9575b50815191602090602080850191818652845180935285019301915f5b8281106103d35785850386f35b83518716855293810193928101926001016103c6565b90503d805f833e6103fa818361074c565b81016020828203126101ef57815167ffffffffffffffff81116101ef5761042192016107e7565b5f6103aa565b82513d5f823e3d90fd5b50346101ef575f6003193601126101ef5761046b7f000000000000000000000000000000000000000000000000000000000000000061136b565b908051918291602090602080850191818652845180935285019301915f5b82811061049857505050500390f35b835173ffffffffffffffffffffffffffffffffffffffff1685528695509381019392810192600101610489565b50346101ef575f6003193601126101ef5780515f5f549060018260011c906001841693841561060f575b60209788841086146105e357509187918694938286528386019690815f146105a95750600114610553575b5050509161052f601f92601f1994038561074c565b845195869481865251918280928701528686015e5f85828601015201168101030190f35b5f8080529293507f290decd9548b62a8d60345a988386fc84ba6bc95484008f6362f93160ef3e5635b828410610593575050508201018582601f1961051a565b805488850186015287955092840192810161057c565b7fffffffffffffffffffffffffffffffffffffffffffffffffffffffffffffff001687525050151560051b83010190508582601f1961051a565b6022907f4e487b71000000000000000000000000000000000000000000000000000000005f525260245ffd5b91607f16916104ef565b50346101ef575f6003193601126101ef57602090517f00000000000000000000000000000000000000000000000000000000000000008152f35b50346101ef576020806003193601126101ef5782359267ffffffffffffffff84116101ef57366023850112156101ef57830135926106908461079c565b9361069d8451958661074c565b8085526024602086019160051b830101913683116101ef57602401905b8282106106d4576020856106cd88610992565b9051908152f35b813581529083019083016106ba565b50346101ef575f6003193601126101ef576020905160128152f35b346101ef575f6003193601126101ef5760209073ffffffffffffffffffffffffffffffffffffffff7f0000000000000000000000000000000000000000000000000000000000000000168152f35b90601f601f19910116810190811067ffffffffffffffff82111761076f57604052565b7f4e487b71000000000000000000000000000000000000000000000000000000005f52604160045260245ffd5b67ffffffffffffffff811161076f5760051b60200190565b9081518082526020808093019301915f5b8281106107d3575050505090565b8351855293810193928101926001016107c5565b9080601f830112156101ef578151906020916108028161079c565b93610810604051958661074c565b81855260208086019260051b8201019283116101ef57602001905b828210610839575050505090565b815173ffffffffffffffffffffffffffffffffffffffff811681036101ef57815290830190830161082b565b519081151582036101ef57565b9080601f830112156101ef5781519060209161088d8161079c565b9361089b604051958661074c565b81855260208086019260051b8201019283116101ef57602001905b8282106108c4575050505090565b815181529083019083016108b6565b8051156108e05760200190565b7f4e487b71000000000000000000000000000000000000000000000000000000005f52603260045260245ffd5b8051600110156108e05760400190565b8051600210156108e05760600190565b8051600310156108e05760800190565b8051600410156108e05760a00190565b8051600510156108e05760c00190565b8051600610156108e05760e00190565b8051600710156108e0576101000190565b80518210156108e05760209160051b010190565b5f9073ffffffffffffffffffffffffffffffffffffffff7f00000000000000000000000000000000000000000000000000000000000000001690604051907f67e0e0760000000000000000000000000000000000000000000000000000000082528260048301526024905f83838173ffffffffffffffffffffffffffffffffffffffff7f0000000000000000000000000000000000000000000000000000000000000000165afa928315610d95575f93610dfd575b508051835103610dd557610a8c604051937f984de9e80000000000000000000000000000000000000000000000000000000085526040600486015260448501906107b4565b93602084806001976001878301520381845afa938415610d95575f94610da0575b50926060600494604051958680927f6daccffa0000000000000000000000000000000000000000000000000000000082525afa938415610d95575f94610d50575b507f00000000000000000000000000000000000000000000000000000000000000009360018501808611610bfc57610b366103e892610b30610b3b9389611756565b90611358565b61133b565b0491610b4785806117f9565b92670de0b6b3a7640000938085029085820403610d2457610b6f908298979695949398611227565b90610b7b888383611871565b905f915f5b888110610cd45750610b9188611272565b945f5b898110610c28575050505050505f955b848710610bb5575050505050505090565b9091929394959683610be4610bd3610bcd8b8661097e565b51611306565b610bdd8b8761097e565b5190611358565b048101809111610bfc57968601959493929190610ba4565b847f4e487b71000000000000000000000000000000000000000000000000000000005f5260116004525ffd5b610c3982879d98999a9b9c9d61100e565b610c588a610c51610c4a858c61097e565b518761100e565b0586611227565b868b03905f88128c83128116908d841390151617610ca8578e93928c610c84610c9094610c8b9461100e565b05906112a3565b611306565b610c9a828b61097e565b52019a99989796959a610b94565b8c7f4e487b71000000000000000000000000000000000000000000000000000000005f5260116004525ffd5b9298610d168798999a610d10610d0286859f9a9b610cfc610cf58b8e61097e565b518961100e565b05611227565b610d0b87610fc4565b6112a3565b90611257565b930199989796959499610b80565b857f4e487b71000000000000000000000000000000000000000000000000000000005f5260116004525ffd5b93506060843d606011610d8d575b81610d6b6060938361074c565b810103126101ef5783516040610d8360208701610865565b5090940151610aee565b3d9150610d5e565b6040513d5f823e3d90fd5b93506020843d602011610dcd575b81610dbb6020938361074c565b810103126101ef579251926060610aad565b3d9150610dae565b7faaad13f7000000000000000000000000000000000000000000000000000000005f5260045ffd5b9092503d90815f823e610e10828261074c565b60808183810103126101ef57805167ffffffffffffffff81116101ef57610e3c908383019083016107e7565b916020908183015167ffffffffffffffff81116101ef57830191818401601f840112156101ef57825190610e6f8261079c565b93610e7d604051958661074c565b828552818501908487018360608602830101116101ef5790828201915b83606086028201018310610efd575050505050604083015167ffffffffffffffff81116101ef57610ed090828501908501610872565b92606081015167ffffffffffffffff81116101ef57610ef29282019101610872565b92505050915f610a47565b606083878a0103126101ef57604051916060830183811067ffffffffffffffff821117610f8157604052835160028110156101ef578352848401519273ffffffffffffffffffffffffffffffffffffffff841684036101ef57856060928282968386950152610f6e60408901610865565b6040820152815201940193925050610e9a565b8b7f4e487b71000000000000000000000000000000000000000000000000000000005f5260416004525ffd5b519069ffffffffffffffffffff821682036101ef57565b90670de0b6b3a764000091828102928184051490151715610fe157565b7f4e487b71000000000000000000000000000000000000000000000000000000005f52601160045260245ffd5b81810292915f82127f8000000000000000000000000000000000000000000000000000000000000000821416610fe1578184051490151715610fe157565b7f00000000000000000000000000000000000000000000000000000000000000006110768161136b565b9161108082611560565b9261108a8361079c565b9360409361109b604051968761074c565b8086526110a78161079c565b94601f1960209601366020890137865f19965f955b8487106110cc5750505050505050565b9091929394959773ffffffffffffffffffffffffffffffffffffffff6110f28a8461097e565b511690855180927ffeaf968c00000000000000000000000000000000000000000000000000000000825281600460a09586935afa9081156111ed578b905f945f93611182575b505060019361115361114d611159938d61097e565b51611701565b9061100e565b6111638c8861097e565b528082101561117b57505b98019594939291906110bc565b905061116e565b925093505082813d83116111e6575b61119b818361074c565b810103126101ef57896111598361115361114d6111b9600197610fad565b9489840151938c810151946111d5608060608401519301610fad565b975094509550935050819550611138565b503d611191565b87513d5f823e3d90fd5b907ffffffffffffffffffffffffffffffffffffffffffffffffff21f494c589c00008201918213600116610fe157565b81810392915f138015828513169184121617610fe157565b9081670de0b6b3a764000001918212600116610fe157565b9190915f8382019384129112908015821691151617610fe157565b9061127c8261079c565b611289604051918261074c565b828152601f19611299829461079c565b0190602036910137565b81156112d9575f1982147f8000000000000000000000000000000000000000000000000000000000000000821416610fe1570590565b7f4e487b71000000000000000000000000000000000000000000000000000000005f52601260045260245ffd5b5f81126113105790565b7fa8ce4432000000000000000000000000000000000000000000000000000000005f5260045260245ffd5b90670de0b6b3a764000091828102928184041490151715610fe157565b81810292918115918404141715610fe157565b6113748161079c565b90611382604051928361074c565b808252601f196113918261079c565b013660208401376113a1826108d3565b9073ffffffffffffffffffffffffffffffffffffffff91827f00000000000000000000000000000000000000000000000000000000000000001690526113e68361090d565b7f000000000000000000000000000000000000000000000000000000000000000083169052600281111561155b5761141d8361091d565b7f000000000000000000000000000000000000000000000000000000000000000083169052600381111561155b576114548361092d565b7f000000000000000000000000000000000000000000000000000000000000000083169052600481111561155b5761148b8361093d565b7f000000000000000000000000000000000000000000000000000000000000000083169052600581111561155b576114c28361094d565b7f000000000000000000000000000000000000000000000000000000000000000083169052600681111561155b576007906114fc8461095d565b837f00000000000000000000000000000000000000000000000000000000000000001690521161152a575090565b6115338261096d565b907f000000000000000000000000000000000000000000000000000000000000000016905290565b505090565b61156981611272565b907f0000000000000000000000000000000000000000000000000000000000000000611594836108d3565b527f00000000000000000000000000000000000000000000000000000000000000006115bf8361090d565b5260028111156116fd577f00000000000000000000000000000000000000000000000000000000000000006115f38361091d565b5260038111156116fd577f00000000000000000000000000000000000000000000000000000000000000006116278361092d565b5260048111156116fd577f000000000000000000000000000000000000000000000000000000000000000061165b8361093d565b5260058111156116fd577f000000000000000000000000000000000000000000000000000000000000000061168f8361094d565b5260068111156116fd576007907f00000000000000000000000000000000000000000000000000000000000000006116c68461095d565b52116116cf5790565b7f00000000000000000000000000000000000000000000000000000000000000006116f98261096d565b5290565b5090565b7f7fffffffffffffffffffffffffffffffffffffffffffffffffffffffffffffff811161172b5790565b7f24775e06000000000000000000000000000000000000000000000000000000005f5260045260245ffd5b9080156117f25781156117ec5781806001146117e4576002146117d35760208110610133831016604e8210600b841016176117ce576001905b600181116117a65750815f19048111610fe1570290565b91805f19048111610fe157600183166117c5575b80029160011c61178f565b809102906117ba565b900a90565b905060ff8111610fe1576001901b90565b505050600190565b50505f90565b5050600190565b9080156117f25781156117ec5781806001146117e4576002146117d35760208110610133831016604e8210600b841016176117ce576001905b600181116118495750815f19048111610fe1570290565b91805f19048111610fe15760018316611868575b80029160011c611832565b8091029061185d565b9161187b816108d3565b5160015b7f00000000000000000000000000000000000000000000000000000000000000008110611bdd57506118b08361123f565b9081156112d957610d0b6118da6118e0936ec097ce7bc90715b34b9f10000000009796970561123f565b8561100e565b925f926001807f00000000000000000000000000000000000000000000000000000000000000000112925f7f000000000000000000000000000000000000000000000000000000000000000012955b60ff861015611bb557835f8080805b7f00000000000000000000000000000000000000000000000000000000000000008110611aa7575061196f906111f7565b925f905b8487878a7f00000000000000000000000000000000000000000000000000000000000000008610611a56575050506119ab9250611227565b9288158b16898c151617610fe15761271093610d0b611a14611a1a93670de0b6b3a7640000611a0d611a3398611a07611a209960017f00000000000000000000000000000000000000000000000000000000000000000161100e565b9361100e565b0590611257565b91610fc4565b84611227565b92610d0b611a2e8286611227565b610fc4565b8060ff1d809101181115611a4c5760019095019461192f565b9550505050505090565b611a98611a9f94611a9360019795611a8d610d0b966111538c97610d0b611a87670de0b6b3a76400009a8b9761097e565b51610fc4565b056111f7565b61100e565b0591610fc4565b910190611973565b939680939789929382889d9e98611abe898c61097e565b51611ac89161100e565b670de0b6b3a7640000900590611add91611227565b9485611ae885610fc4565b90611af2916112a3565b611afb91611257565b948084611b088a8d61097e565b5190611b139161100e565b90611b1d916112a3565b611b2690610fc4565b90611b30916112a3565b611b3991611227565b988c83611b46898c61097e565b5191611b528a8d61097e565b51611b5c9161100e565b670de0b6b3a7640000900590611b7191611227565b90611b7b90610fc4565b90611b85916112a3565b611b8e91611257565b99611b989161100e565b90611ba2916112a3565b936001019a99949a97929691909761193e565b7fdc95cdb4000000000000000000000000000000000000000000000000000000005f5260045ffd5b81611be8828561097e565b5112611bf7575b60010161187f565b90506001611c05828461097e565b51919050611bef56fea2646970667358221220743d6d59822fd15aedfb6ba36ab5b053379db6e5bb7608eddb5c55b6775dbde364736f6c634300081b0033",
  "linkReferences": {},
  "deployedLinkReferences": {}
}