{
  "_format": "hh-sol-artifact-1",
  "contractName": "GyroECLPPoolFactory",
  "sourceName": "contracts/GyroECLPPoolFactory.sol",
  "abi": [
    {
      "inputs": [
        {
          "internalType": "contract IVault",
          "name": "vault",
          "type": "address"
        },
        {
          "internalType": "uint32",
          "name": "pauseWindowDuration",
          "type": "uint32"
        },
        {
          "internalType": "string",
          "name": "factoryVersion",
          "type": "string"
        },
        {
          "internalType": "string",
          "name": "poolVersion",
          "type": "string"
        }
      ],
      "stateMutability": "nonpayable",
      "type": "constructor"
    },
    {
      "inputs": [],
      "name": "CodeDeploymentFailed",
      "type": "error"
    },
    {
      "inputs": [],
      "name": "Create2EmptyBytecode",
      "type": "error"
    },
    {
      "inputs": [],
      "name": "Create2FailedDeployment",
      "type": "error"
    },
    {
      "inputs": [
        {
          "internalType": "uint256",
          "name": "balance",
          "type": "uint256"
        },
        {
          "internalType": "uint256",
          "name": "needed",
          "type": "uint256"
        }
      ],
      "name": "Create2InsufficientBalance",
      "type": "error"
    },
    {
      "inputs": [],
      "name": "Disabled",
      "type": "error"
    },
    {
      "inputs": [],
      "name": "IndexOutOfBounds",
      "type": "error"
    },
    {
      "inputs": [],
      "name": "PoolPauseWindowDurationOverflow",
      "type": "error"
    },
    {
      "inputs": [],
      "name": "SenderNotAllowed",
      "type": "error"
    },
    {
      "inputs": [],
      "name": "StandardPoolWithCreator",
      "type": "error"
    },
    {
      "inputs": [],
      "name": "SupportsOnlyTwoTokens",
      "type": "error"
    },
    {
      "anonymous": false,
      "inputs": [],
      "name": "FactoryDisabled",
      "type": "event"
    },
    {
      "anonymous": false,
      "inputs": [
        {
          "indexed": true,
          "internalType": "address",
          "name": "pool",
          "type": "address"
        }
      ],
      "name": "PoolCreated",
      "type": "event"
    },
    {
      "inputs": [
        {
          "internalType": "string",
          "name": "name",
          "type": "string"
        },
        {
          "internalType": "string",
          "name": "symbol",
          "type": "string"
        },
        {
          "components": [
            {
              "internalType": "contract IERC20",
              "name": "token",
              "type": "address"
            },
            {
              "internalType": "enum TokenType",
              "name": "tokenType",
              "type": "uint8"
            },
            {
              "internalType": "contract IRateProvider",
              "name": "rateProvider",
              "type": "address"
            },
            {
              "internalType": "bool",
              "name": "paysYieldFees",
              "type": "bool"
            }
          ],
          "internalType": "struct TokenConfig[]",
          "name": "tokens",
          "type": "tuple[]"
        },
        {
          "components": [
            {
              "internalType": "int256",
              "name": "alpha",
              "type": "int256"
            },
            {
              "internalType": "int256",
              "name": "beta",
              "type": "int256"
            },
            {
              "internalType": "int256",
              "name": "c",
              "type": "int256"
            },
            {
              "internalType": "int256",
              "name": "s",
              "type": "int256"
            },
            {
              "internalType": "int256",
              "name": "lambda",
              "type": "int256"
            }
          ],
          "internalType": "struct IGyroECLPPool.EclpParams",
          "name": "eclpParams",
          "type": "tuple"
        },
        {
          "components": [
            {
              "components": [
                {
                  "internalType": "int256",
                  "name": "x",
                  "type": "int256"
                },
                {
                  "internalType": "int256",
                  "name": "y",
                  "type": "int256"
                }
              ],
              "internalType": "struct IGyroECLPPool.Vector2",
              "name": "tauAlpha",
              "type": "tuple"
            },
            {
              "components": [
                {
                  "internalType": "int256",
                  "name": "x",
                  "type": "int256"
                },
                {
                  "internalType": "int256",
                  "name": "y",
                  "type": "int256"
                }
              ],
              "internalType": "struct IGyroECLPPool.Vector2",
              "name": "tauBeta",
              "type": "tuple"
            },
            {
              "internalType": "int256",
              "name": "u",
              "type": "int256"
            },
            {
              "internalType": "int256",
              "name": "v",
              "type": "int256"
            },
            {
              "internalType": "int256",
              "name": "w",
              "type": "int256"
            },
            {
              "internalType": "int256",
              "name": "z",
              "type": "int256"
            },
            {
              "internalType": "int256",
              "name": "dSq",
              "type": "int256"
            }
          ],
          "internalType": "struct IGyroECLPPool.DerivedEclpParams",
          "name": "derivedEclpParams",
          "type": "tuple"
        },
        {
          "components": [
            {
              "internalType": "address",
              "name": "pauseManager",
              "type": "address"
            },
            {
              "internalType": "address",
              "name": "swapFeeManager",
              "type": "address"
            },
            {
              "internalType": "address",
              "name": "poolCreator",
              "type": "address"
            }
          ],
          "internalType": "struct PoolRoleAccounts",
          "name": "roleAccounts",
          "type": "tuple"
        },
        {
          "internalType": "uint256",
          "name": "swapFeePercentage",
          "type": "uint256"
        },
        {
          "internalType": "address",
          "name": "poolHooksContract",
          "type": "address"
        },
        {
          "internalType": "bool",
          "name": "enableDonation",
          "type": "bool"
        },
        {
          "internalType": "bool",
          "name": "disableUnbalancedLiquidity",
          "type": "bool"
        },
        {
          "internalType": "bytes32",
          "name": "salt",
          "type": "bytes32"
        }
      ],
      "name": "create",
      "outputs": [
        {
          "internalType": "address",
          "name": "pool",
          "type": "address"
        }
      ],
      "stateMutability": "nonpayable",
      "type": "function"
    },
    {
      "inputs": [],
      "name": "disable",
      "outputs": [],
      "stateMutability": "nonpayable",
      "type": "function"
    },
    {
      "inputs": [
        {
          "internalType": "bytes4",
          "name": "selector",
          "type": "bytes4"
        }
      ],
      "name": "getActionId",
      "outputs": [
        {
          "internalType": "bytes32",
          "name": "",
          "type": "bytes32"
        }
      ],
      "stateMutability": "view",
      "type": "function"
    },
    {
      "inputs": [],
      "name": "getAuthorizer",
      "outputs": [
        {
          "internalType": "contract IAuthorizer",
          "name": "",
          "type": "address"
        }
      ],
      "stateMutability": "view",
      "type": "function"
    },
    {
      "inputs": [],
      "name": "getCreationCode",
      "outputs": [
        {
          "internalType": "bytes",
          "name": "",
          "type": "bytes"
        }
      ],
      "stateMutability": "view",
      "type": "function"
    },
    {
      "inputs": [],
      "name": "getCreationCodeContracts",
      "outputs": [
        {
          "internalType": "address",
          "name": "contractA",
          "type": "address"
        },
        {
          "internalType": "address",
          "name": "contractB",
          "type": "address"
        }
      ],
      "stateMutability": "view",
      "type": "function"
    },
    {
      "inputs": [],
      "name": "getDefaultLiquidityManagement",
      "outputs": [
        {
          "components": [
            {
              "internalType": "bool",
              "name": "disableUnbalancedLiquidity",
              "type": "bool"
            },
            {
              "internalType": "bool",
              "name": "enableAddLiquidityCustom",
              "type": "bool"
            },
            {
              "internalType": "bool",
              "name": "enableRemoveLiquidityCustom",
              "type": "bool"
            },
            {
              "internalType": "bool",
              "name": "enableDonation",
              "type": "bool"
            }
          ],
          "internalType": "struct LiquidityManagement",
          "name": "liquidityManagement",
          "type": "tuple"
        }
      ],
      "stateMutability": "pure",
      "type": "function"
    },
    {
      "inputs": [],
      "name": "getDefaultPoolHooksContract",
      "outputs": [
        {
          "internalType": "address",
          "name": "",
          "type": "address"
        }
      ],
      "stateMutability": "pure",
      "type": "function"
    },
    {
      "inputs": [
        {
          "internalType": "bytes",
          "name": "constructorArgs",
          "type": "bytes"
        },
        {
          "internalType": "bytes32",
          "name": "salt",
          "type": "bytes32"
        }
      ],
      "name": "getDeploymentAddress",
      "outputs": [
        {
          "internalType": "address",
          "name": "",
          "type": "address"
        }
      ],
      "stateMutability": "view",
      "type": "function"
    },
    {
      "inputs": [],
      "name": "getNewPoolPauseWindowEndTime",
      "outputs": [
        {
          "internalType": "uint32",
          "name": "",
          "type": "uint32"
        }
      ],
      "stateMutability": "view",
      "type": "function"
    },
    {
      "inputs": [],
      "name": "getOriginalPauseWindowEndTime",
      "outputs": [
        {
          "internalType": "uint32",
          "name": "",
          "type": "uint32"
        }
      ],
      "stateMutability": "view",
      "type": "function"
    },
    {
      "inputs": [],
      "name": "getPauseWindowDuration",
      "outputs": [
        {
          "internalType": "uint32",
          "name": "",
          "type": "uint32"
        }
      ],
      "stateMutability": "view",
      "type": "function"
    },
    {
      "inputs": [],
      "name": "getPoolCount",
      "outputs": [
        {
          "internalType": "uint256",
          "name": "",
          "type": "uint256"
        }
      ],
      "stateMutability": "view",
      "type": "function"
    },
    {
      "inputs": [],
      "name": "getPoolVersion",
      "outputs": [
        {
          "internalType": "string",
          "name": "",
          "type": "string"
        }
      ],
      "stateMutability": "view",
      "type": "function"
    },
    {
      "inputs": [],
      "name": "getPools",
      "outputs": [
        {
          "internalType": "address[]",
          "name": "",
          "type": "address[]"
        }
      ],
      "stateMutability": "view",
      "type": "function"
    },
    {
      "inputs": [
        {
          "internalType": "uint256",
          "name": "start",
          "type": "uint256"
        },
        {
          "internalType": "uint256",
          "name": "count",
          "type": "uint256"
        }
      ],
      "name": "getPoolsInRange",
      "outputs": [
        {
          "internalType": "address[]",
          "name": "pools",
          "type": "address[]"
        }
      ],
      "stateMutability": "view",
      "type": "function"
    },
    {
      "inputs": [],
      "name": "getVault",
      "outputs": [
        {
          "internalType": "contract IVault",
          "name": "",
          "type": "address"
        }
      ],
      "stateMutability": "view",
      "type": "function"
    },
    {
      "inputs": [],
      "name": "isDisabled",
      "outputs": [
        {
          "internalType": "bool",
          "name": "",
          "type": "bool"
        }
      ],
      "stateMutability": "view",
      "type": "function"
    },
    {
      "inputs": [
        {
          "internalType": "address",
          "name": "pool",
          "type": "address"
        }
      ],
      "name": "isPoolFromFactory",
      "outputs": [
        {
          "internalType": "bool",
          "name": "",
          "type": "bool"
        }
      ],
      "stateMutability": "view",
      "type": "function"
    },
    {
      "inputs": [],
      "name": "version",
      "outputs": [
        {
          "internalType": "string",
          "name": "",
          "type": "string"
        }
      ],
      "stateMutability": "view",
      "type": "function"
    }
  ],
  "bytecode": "0x610180604052346100aa5761001e61001561013d565b92919091610385565b604051611a7990816105c582396080518181816102110152611635015260a051816115bf015260c051818181610235015261165a015260e051816115e00152610100518161129b01526101205181818161032e01528181610aae01528181610b42015281816114ff015261182501526101405181610a0e01526101605181818161100601526115870152f35b5f80fd5b634e487b7160e01b5f52604160045260245ffd5b6040519190601f01601f191682016001600160401b038111838210176100e757604052565b6100ae565b81601f820112156100aa578051906001600160401b0382116100e75761011b601f8301601f19166020016100c2565b92828452602083830101116100aa57815f9260208093018386015e8301015290565b618279908138038061014e816100c2565b9384398201906080838303126100aa578251906001600160a01b03821682036100aa5760208401519363ffffffff851685036100aa5760408101516001600160401b0394908581116100aa57816101a69184016100ec565b9460608301519081116100aa576101bd92016100ec565b9193929190565b90600182811c921680156101f2575b60208310146101de57565b634e487b7160e01b5f52602260045260245ffd5b91607f16916101d3565b601f8111610208575050565b60035f5260205f20906020601f840160051c83019310610242575b601f0160051c01905b818110610237575050565b5f815560010161022c565b9091508190610223565b601f8111610258575050565b60045f5260205f20906020601f840160051c83019310610292575b601f0160051c01905b818110610287575050565b5f815560010161027c565b9091508190610273565b80519091906001600160401b0381116100e7576102c3816102be6004546101c4565b61024c565b602080601f8311600114610304575081906102f493945f926102f9575b50508160011b915f199060031b1c19161790565b600455565b015190505f806102e0565b60045f52601f198316949091907f8a35acfbc15ff81a39ae7d344fd709f28e8600b4aa8c65c6b64bfe7fe36bd19b925f905b87821061036d575050836001959610610355575b505050811b01600455565b01515f1960f88460031b161c191690555f808061034a565b80600185968294968601518155019501930190610336565b92919261623b610397602082016100c2565b9080825261203e60208301398051908160011c918260a05282810392818411610432578360e0528083526103ca83610535565b60805282019182519383526103de83610584565b60c052525230610100526101205263ffffffff926103fe84831642610446565b93808511610423576104219461041c93610140521661016052610458565b61029c565b565b6368755a1160e01b5f5260045ffd5b634e487b7160e01b5f52601160045260245ffd5b9190820180921161045357565b610432565b80519091906001600160401b0381116100e75761047f8161047a6003546101c4565b6101fc565b602080601f83116001146104b4575081906104af93945f926102f95750508160011b915f199060031b1c19161790565b600355565b60035f52601f198316949091907fc2575a0e9e593c00f959f8c92f12db2869c3395a3b0502d05e2516446f71f85b925f905b87821061051d575050836001959610610505575b505050811b01600355565b01515f1960f88460031b161c191690555f80806104fa565b806001859682949686015181550195019301906104e6565b9081517f602038038060206000396000f3fefefefefefefefefefefefefefefefefefefe835260208101835ff092526001600160a01b0382161561057557565b63fef8220760e01b5f5260045ffd5b9081517f60fe600053602038038060206001396001016000f3fefefefefefefefefefefe835260208101835ff092526001600160a01b038216156105755756fe60806040526004361015610011575f80fd5b5f3560e01c8062c194db14610153578063174481fa1461014e578063193ad50f146101495780632f2770db146101445780633f819b6f1461013f57806344f6fec71461013a57806353a72f7e1461013557806354fd4d50146101305780636634b7531461012b578063673a2a1f146101265780636c57f5a91461012157806378da80cb1461011c578063851c1bb3146101175780638d928af8146101125780638eec5d701461010d578063aaabadc514610108578063b9bc4ba914610103578063db035ebc146100fe578063e9d56e19146100f95763ec888061146100f4575f80fd5b61102a565b610fea565b610fc2565b610ee8565b610aef565b610ad2565b610a82565b610a32565b6109f2565b6109d0565b610935565b6108e8565b610782565b610663565b61056f565b61046e565b6102ab565b61025c565b6101e5565b61018b565b5f91031261016257565b5f80fd5b90601f19601f602080948051918291828752018686015e5f8582860101520116010190565b34610162575f600319360112610162576040516020810181811067ffffffffffffffff8211176101e0576101dc916101c8916040525f81526115bc565b604051918291602083526020830190610166565b0390f35b610489565b34610162575f600319360112610162576040805173ffffffffffffffffffffffffffffffffffffffff807f00000000000000000000000000000000000000000000000000000000000000001682527f0000000000000000000000000000000000000000000000000000000000000000166020820152f35b34610162575f600319360112610162576080610276611044565b6102a960405180926060809180511515845260208101511515602085015260408101511515604085015201511515910152565bf35b34610162575f600319360112610162576102e77fffffffff000000000000000000000000000000000000000000000000000000005f3516611270565b73ffffffffffffffffffffffffffffffffffffffff604051917faaabadc50000000000000000000000000000000000000000000000000000000083526020928381600481867f0000000000000000000000000000000000000000000000000000000000000000165afa80156104265784926103ad925f9261042b575b506040517f9be2a884000000000000000000000000000000000000000000000000000000008152600481019190915233602482015230604482015293849283919082906064820190565b0392165afa918215610426575f926103f9575b5050156103d1576103cf611068565b005b7f23dada53000000000000000000000000000000000000000000000000000000005f5260045ffd5b6104189250803d1061041f575b61041081836104e6565b810190611a2e565b5f806103c0565b503d610406565b6112fb565b61044c919250843d8611610453575b61044481836104e6565b8101906112e6565b905f610363565b503d61043a565b90602061046b928181520190610166565b90565b34610162575f600319360112610162576101dc6101c86110c1565b7f4e487b71000000000000000000000000000000000000000000000000000000005f52604160045260245ffd5b6080810190811067ffffffffffffffff8211176101e057604052565b67ffffffffffffffff81116101e057604052565b90601f601f19910116810190811067ffffffffffffffff8211176101e057604052565b6040519060a0820182811067ffffffffffffffff8211176101e057604052565b92919267ffffffffffffffff82116101e057604051916105536020601f19601f84011601846104e6565b829481845281830111610162578281602093845f960137010152565b346101625760406003193601126101625760043567ffffffffffffffff81116101625736602382011215610162576055600b6105b86101dc933690602481600401359101610529565b6105cc6105c66024356116b6565b916115bc565b602081519101209060405191604083015260208201523081520160ff81532060405173ffffffffffffffffffffffffffffffffffffffff90911681529081906020820190565b60209060206040818301928281528551809452019301915f5b828110610639575050505090565b835173ffffffffffffffffffffffffffffffffffffffff168552938101939281019260010161062b565b3461016257604060031936011261016257600435602435906001916001548083101561075a57818301808411610755578110610744575b506106a481610bba565b916106b260405193846104e6565b818352601f196106c183610bba565b013660208501375f5b8281106106df57604051806101dc8682610612565b8061073e6107196106f96106f48995876111e8565b611222565b905473ffffffffffffffffffffffffffffffffffffffff9160031b1c1690565b610723838861125c565b9073ffffffffffffffffffffffffffffffffffffffff169052565b016106ca565b82810391508111610755575f61069a565b6111bb565b7f4e23d035000000000000000000000000000000000000000000000000000000005f5260045ffd5b34610162575f600319360112610162576040515f60035460018160011c91600181169182156108b0575b60209160208510841461088357848752602087019390811561084657506001146107ed575b6101dc866107e1818803826104e6565b6040519182918261045a565b60035f90815294509192917fc2575a0e9e593c00f959f8c92f12db2869c3395a3b0502d05e2516446f71f85b5b83861061083557505050910190506107e1826101dc5f6107d1565b80548587015294820194810161081a565b7fffffffffffffffffffffffffffffffffffffffffffffffffffffffffffffff0016845250505090151560051b0190506107e1826101dc5f6107d1565b7f4e487b71000000000000000000000000000000000000000000000000000000005f52602260045260245ffd5b92607f16926107ac565b73ffffffffffffffffffffffffffffffffffffffff81160361016257565b6102a435906108e6826108ba565b565b346101625760206003193601126101625773ffffffffffffffffffffffffffffffffffffffff60043561091a816108ba565b165f525f602052602060ff60405f2054166040519015158152f35b34610162575f60031936011261016257604051806001916001549283825260208092019360015f527fb10e2d527612073b26eecdfd717e6a320cf44b4afac2b0732d9fcbe2b7fa0cf6925f905b8282106109a5576101dc86610999818a03826104e6565b60405191829182610612565b845473ffffffffffffffffffffffffffffffffffffffff168752958601959383019390830190610982565b34610162575f60031936011261016257602060ff600254166040519015158152f35b34610162575f60031936011261016257602060405163ffffffff7f0000000000000000000000000000000000000000000000000000000000000000168152f35b34610162576020600319360112610162576004357fffffffff000000000000000000000000000000000000000000000000000000008116810361016257610a7a602091611270565b604051908152f35b34610162575f60031936011261016257602060405173ffffffffffffffffffffffffffffffffffffffff7f0000000000000000000000000000000000000000000000000000000000000000168152f35b34610162575f600319360112610162576020600154604051908152f35b34610162575f600319360112610162576040517faaabadc500000000000000000000000000000000000000000000000000000000815273ffffffffffffffffffffffffffffffffffffffff6020826004817f000000000000000000000000000000000000000000000000000000000000000085165afa908115610426576020925f92610b80575b5060405191168152f35b610b98919250833d85116104535761044481836104e6565b905f610b76565b9080601f830112156101625781602061046b93359101610529565b67ffffffffffffffff81116101e05760051b60200190565b8015150361016257565b6102c435906108e682610bd2565b6102e435906108e682610bd2565b9080601f83011215610162578135916020610c1284610bba565b93604093610c2360405196876104e6565b818652828087019260071b85010193818511610162578301915b848310610c4d5750505050505090565b60808383031261016257855190610c63826104b6565b8335610c6e816108ba565b8252848401359060028210156101625782869283608095015288860135610c94816108ba565b8982015260608087013590610ca882610bd2565b820152815201920191610c3d565b7fffffffffffffffffffffffffffffffffffffffffffffffffffffffffffffff9c60a0910112610162576040519060a0820182811067ffffffffffffffff8211176101e057604052816064358152608435602082015260a435604082015260c4356060820152608060e435910152565b7ffffffffffffffffffffffffffffffffffffffffffffffffffffffffffffffefc604091011261016257604051906040820182811067ffffffffffffffff8211176101e057604052610104358252610124356020830152565b7ffffffffffffffffffffffffffffffffffffffffffffffffffffffffffffffebc604091011261016257604051906040820182811067ffffffffffffffff8211176101e057604052610144358252610164356020830152565b906101207ffffffffffffffffffffffffffffffffffffffffffffffffffffffffffffffefc8301126101625760405160e0810181811067ffffffffffffffff8211176101e057604052610e368193610e2f81610d26565b8352610d7f565b60208201526101843560408201526101a43560608201526101c43560808201526101e43560a082015260c061020435910152565b7ffffffffffffffffffffffffffffffffffffffffffffffffffffffffffffffddc606091011261016257604051906060820182811067ffffffffffffffff8211176101e0576040528161022435610ec0816108ba565b815261024435610ecf816108ba565b602082015260406102643591610ee4836108ba565b0152565b34610162576103206003193601126101625767ffffffffffffffff60043581811161016257610f1b903690600401610b9f565b9060243581811161016257610f34903690600401610b9f565b604435918211610162576101dc92610f53610f9b933690600401610bf8565b90610f5d36610cb6565b90610f6736610dd8565b90610f7136610e6a565b610f796108d8565b92610f82610bdc565b94610f8b610bea565b9661030435986102843595611468565b60405173ffffffffffffffffffffffffffffffffffffffff90911681529081906020820190565b34610162575f600319360112610162576020610fdc611585565b63ffffffff60405191168152f35b34610162575f60031936011261016257602060405163ffffffff7f0000000000000000000000000000000000000000000000000000000000000000168152f35b34610162575f6003193601126101625760206040515f8152f35b60405190611051826104b6565b5f6060838281528260208201528260408201520152565b611070611682565b60017fffffffffffffffffffffffffffffffffffffffffffffffffffffffffffffff0060025416176002557f432acbfd662dbb5d8b378384a67159b47ca9d0f1b79f97cf64cf8585fa362d505f80a1565b604051905f6004546001918160011c92600183169081156111b1575b60209060208610831461088357858852879460208601939081156111735750600114611113575b5050506108e6925003836104e6565b92509361114160045f527f8a35acfbc15ff81a39ae7d344fd709f28e8600b4aa8c65c6b64bfe7fe36bd19b90565b945f935b82851061115d575050506108e69350015f8080611104565b8654858501529586019588955093810193611145565b9150506108e6959293507fffffffffffffffffffffffffffffffffffffffffffffffffffffffffffffff009150168252151560051b015f8080611104565b93607f16936110dd565b7f4e487b71000000000000000000000000000000000000000000000000000000005f52601160045260245ffd5b9190820180921161075557565b7f4e487b71000000000000000000000000000000000000000000000000000000005f52603260045260245ffd5b6001548110156112575760015f527fb10e2d527612073b26eecdfd717e6a320cf44b4afac2b0732d9fcbe2b7fa0cf601905f90565b6111f5565b80518210156112575760209160051b010190565b6040517fffffffff0000000000000000000000000000000000000000000000000000000060208201927f00000000000000000000000000000000000000000000000000000000000000008452166040820152602481526060810181811067ffffffffffffffff8211176101e05760405251902090565b90816020910312610162575161046b816108ba565b6040513d5f823e3d90fd5b1561130d57565b7f61ee1764000000000000000000000000000000000000000000000000000000005f5260045ffd5b60c06101009161135084825160208091805184520151910152565b602081810151805160408701520151606085015260408101516080850152606081015160a085015260808101518285015260a081015160e08501520151910152565b9291602061144b6108e693604087526113b9815161022060408a0152610260890190610166565b60806113f485840151927fffffffffffffffffffffffffffffffffffffffffffffffffffffffffffffffc093848c83030160608d0152610166565b928160408201518051828d01528781015160a08d0152604081015160c08d0152606081015160e08d015201516101008b015261143960608201516101208c0190611335565b01519088830301610240890152610166565b94019073ffffffffffffffffffffffffffffffffffffffff169052565b929a9990989a959495939193600285510361155d576115366115579461153b94611528936108e69d6114d073ffffffffffffffffffffffffffffffffffffffff6114c960408f015173ffffffffffffffffffffffffffffffffffffffff1690565b1615611306565b6114d8610509565b9384526020840152604083015260608201526114f26110c1565b60808201526040519283917f00000000000000000000000000000000000000000000000000000000000000009060208401611392565b03601f1981018352826104e6565b6116df565b98611551611547611044565b9715156060890152565b15158652565b87611806565b7f34e77320000000000000000000000000000000000000000000000000000000005f5260045ffd5b7f000000000000000000000000000000000000000000000000000000000000000063ffffffff81164210156115b75790565b505f90565b907f00000000000000000000000000000000000000000000000000000000000000007f00000000000000000000000000000000000000000000000000000000000000008082019081831161075557845192838301958684116107555760209260018480946040519a82818d01016040528b52805f838d017f00000000000000000000000000000000000000000000000000000000000000003c8a01017f00000000000000000000000000000000000000000000000000000000000000003c01918501015e565b60ff6002541661168e57565b7f75884cda000000000000000000000000000000000000000000000000000000005f5260045ffd5b60405160208101913383524660408301526060820152606081526116d9816104b6565b51902090565b906105c66116ec916116b6565b8051156117de576020815191015ff59073ffffffffffffffffffffffffffffffffffffffff918281169081156117b65792611725611682565b815f525f60205260405f2060017fffffffffffffffffffffffffffffffffffffffffffffffffffffffffffffff00825416179055600154680100000000000000008110156101e05780600161177d9201600155611222565b819291549060031b9184831b921b19161790557f83a48fbcfc991335314e74d0496aab6a1987e992ddc85dddbcc4d6dd6ef2e9fc5f80a2565b7f741752c2000000000000000000000000000000000000000000000000000000005f5260045ffd5b7f4ca249dc000000000000000000000000000000000000000000000000000000005f5260045ffd5b92949193909473ffffffffffffffffffffffffffffffffffffffff93847f0000000000000000000000000000000000000000000000000000000000000000169561184e611585565b91873b156101625797959493929190604095604051998a987feeec802f000000000000000000000000000000000000000000000000000000008a526004836101a48c01931660048c015260246101a060248d015282518094526101c48c019a6020809401955f935b8685106119a4575050505050505050869461194e5f9997939561193088966118f18d996119809760448b015260648a019063ffffffff169052565b88608489015260a48801906040908173ffffffffffffffffffffffffffffffffffffffff91828151168552826020820151166020860152015116910152565b73ffffffffffffffffffffffffffffffffffffffff16610104860152565b805115156101248501526020810151151561014485015260408101511515610164850152606001511515610184840152565b03925af18015610426576119915750565b8061199e6108e6926104d2565b80610158565b9193959798999a9b9c90929496809e5051838151168252878101516002811015611a035782899260809284600196015286888201511688830152606080910151151590820152019e0195019290918f9d9c9b9a999897959694926118b6565b866021857f4e487b71000000000000000000000000000000000000000000000000000000005f52525ffd5b90816020910312610162575161046b81610bd256fea264697066735822122003046fc789b154c2550223f68852adc1985975021f4621cd0e91ab8c61f5b4a664736f6c634300081b003361036060405234610e0a5761623b803803809161001e82610360610e44565b6103603960408112610e0a5761036051906001600160401b038211610e0a57818103916102208312610e0a576040519261005784610e0e565b6103608201516001600160401b038111610e0a5761008090846103600190846103600101610e67565b84526103808201516001600160401b038111610e0a576100ab90846103600190846103600101610e67565b602085015260a0603f19820112610e0a57610120906040516100cc81610e0e565b6103a084015181526103c084015160208201526103e08401516040828101919091526104008501516060830152610420850151608083015286015260df190112610e0a576040516001600160401b0360e0820190811190821117610c395760e0810160405261014361036084016104408401610ebc565b815261015761036084016104808401610ebc565b60208201526104c082015160408201526104e0820151606080830191909152610500830151608083015261052083015160a083015261054083015160c08301528401526105608101516001600160401b038111610e0a576101c19261036001916103600101610e67565b608082018190526103805191906001600160a01b0383168303610e0a578151926020830151936040516101f381610e29565b60018152603160f81b602082015261020a82610f2c565b61012052610217816110af565b6101405281516020830120908160e0526020815191012080610100524660a0526040519060208201927f8b73c3c69bb8fe3d512ecc4cf759cc79239f7b179b0ffacaa9a75d522b39400f8452604083015260608201524660808201523060a082015260a0815260c0810181811060018060401b03821117610c39576040525190206080523060c0526101608290528051906001600160401b038211610c395760035490600182811c92168015610e00575b6020831014610c1b5781601f849311610da8575b50602090601f8311600114610d33575f92610d28575b50508160011b915f199060031b1c1916176003555b83516001600160401b038111610c3957600454600181811c91168015610d1e575b6020821014610c1b57601f8111610cbf575b506020601f8211600114610c585781929394955f92610c4d575b50508160011b915f199060031b1c1916176004555b610180528051906001600160401b038211610c395760055490600182811c92168015610c2f575b6020831014610c1b5781601f849311610bcd575b50602090601f8311600114610b45575f92610b3a575b50508160011b915f199060031b1c1916176005555b60408101516060810151805f13159081610b27575b5015610b18576040810151805f13159081610b05575b5015610af65761043d606082015161043761042f604085015192602060405161042281610e29565b82815201938452806112aa565b9151806112aa565b90610f11565b80670de0b6b3a763fc1813159081610ae3575b5015610ad45760800151805f13159081610abe575b5015610aaf577ff468331437e1ec2fec64fc27f23a28b085a09e90f385338d4b58cb6386079777602060405160018152a160408101516060820151905f6020835101511315610aa057602082015f6020825101511315610a91578051518351511215610a82576104d68351806111e5565b806f4b3b4ca85a86af4d06c240f50980000013159081610a67575b5015610a58576105029051806111e5565b806f4b3b4ca85a86af4d06c240f50980000013159081610a3d575b5015610a2e576f4b3b4ca85a86c47a098a224000000000604083015113610a1f576f4b3b4ca85a86c47a098a224000000000606083015113610a10576f4b3b4ca85a86c47a098a224000000000608083015113610a01576f4b3b4ca85a86c47a098a22400000000060a0830151136109f25760c0820151806f4b3b4ca85a86af4d06c240f509800000131590816109d7575b50156109c85760806f4b3b4ca85a86c47a098a2240000000006105e6816105da60c087015180611228565b0560c086015190611228565b059101908151906040840151938460011b9460028605036109b4576106446106b98260a06106b06106a261068f6106506104379a61064a8b6106bf9f6106446f4b3b4ca85a86c47a098a2240000000009d9160608f93015190611228565b05611278565b9061133d565b6104376106878d61067f8d8d6106448c610679604061067181840151610ef5565b920151610ef5565b90611228565b90519061133d565b8d519061133d565b6104378989610644606089015180611228565b9860808401519051906113a1565b91015190610f11565b80611228565b6f4b3b4ca85a86c47a098a223fffffffff1981019081136001166109b45780156109a5577172cb5bd86321e38cb6ce6682e80000000000907f161bcca7119915b50764b4abe86529797775a5f17195100000000000000000000513610996576060907f614fd1489cdee8181582fbbc1933d6870cd06c6f22d314b97a650ffa547c6ccd602060405160018152a1604081015180519060208101519060408101519060808682015191015161022052610200526101e0526101c0526101a05201518051906020825192015190602081015190602082519201519060408101519060608101519060808101519060c060a08201519101516103405261032052610300526102e0526102c0526102a052610280526102605261024052604051614e0b611410823960805181613a29015260a05181613af5015260c051816139fa015260e05181613a7801526101005181613a9e0152610120518161114f015261014051816111780152610160518181816102250152818161037e015281816103f90152818161093401528181610f2d015281816111160152818161159a0152818161186201528181611b7201528181612323015281816125bb015261398f015261018051818181610a4901528181610b1b01528181610be201528181610e34015261128e01526101a0518181816104310152612a4101526101c0518181816104570152612a1b01526101e05181818161047d01526129f50152610200518181816104a301526129cf0152610220518181816104c901526129a90152610240518181816104ef0152612ada0152610260518181816105150152612ab401526102805181818161053c0152612a9101526102a0518181816105630152612a6b01526102c05181818161058a0152612b9501526102e0518181816105b10152612b6f0152610300518181816105d80152612b490152610320518181816105ff0152612b230152610340518181816106260152612afd0152614e0b90f35b63d1c1799360e01b5f5260045ffd5b630a0c22c760e01b5f5260045ffd5b634e487b7160e01b5f52601160045260245ffd5b630fb154af60e41b5f5260045ffd5b6f4b3b4ca85a86d9a70c52038af6800000915013155f6105af565b6312e3e41160e01b5f5260045ffd5b6341a2359b60e11b5f5260045ffd5b63cfb498d560e01b5f5260045ffd5b633e1352d160e21b5f5260045ffd5b6304b77ae160e31b5f5260045ffd5b6f4b3b4ca85a86d9a70c52038af6800000915013155f61051d565b6360cb724b60e11b5f5260045ffd5b6f4b3b4ca85a86d9a70c52038af6800000915013155f6104f1565b63080e38b560e31b5f5260045ffd5b63fa40768d60e01b5f5260045ffd5b633b04cd8b60e21b5f5260045ffd5b633befd18960e11b5f5260045ffd5b6a52b7d2dcc80cd2e4000000915013155f610465565b635136c61760e11b5f5260045ffd5b670de0b6b3a76403e8915013155f610450565b6332c31cd560e11b5f5260045ffd5b670de0b6b3a7640000915013155f6103fa565b632a561e9d60e21b5f5260045ffd5b670de0b6b3a7640000915013155f6103e4565b015190505f806103ba565b60055f90815293507f036b6384b5eca791c62761152d0c79bb0604c104a5fb6f4eb0703f3154bb3db091905b601f1984168510610bb2576001945083601f19811610610b9a575b505050811b016005556103cf565b01515f1960f88460031b161c191690555f8080610b8c565b81810151835560209485019460019093019290910190610b71565b90915060055f5260205f20601f840160051c810160208510610c14575b90849392915b601f830160051c82018110610c065750506103a4565b5f8155859450600101610bf0565b5080610bea565b634e487b7160e01b5f52602260045260245ffd5b91607f1691610390565b634e487b7160e01b5f52604160045260245ffd5b015190505f80610354565b60045f5260205f20905f5b601f1984168110610ca7575060019394959683601f19811610610c8f575b505050811b01600455610369565b01515f1960f88460031b161c191690555f8080610c81565b9091602060018192858b015181550193019101610c63565b60045f527f8a35acfbc15ff81a39ae7d344fd709f28e8600b4aa8c65c6b64bfe7fe36bd19b601f830160051c810160208410610d17575b601f830160051c82018110610d0c57505061033a565b5f8155600101610cf6565b5080610cf6565b90607f1690610328565b015190505f806102f2565b60035f90815293505f51602061621b5f395f51905f5291905b601f1984168510610d8d576001945083601f19811610610d75575b505050811b01600355610307565b01515f1960f88460031b161c191690555f8080610d67565b81810151835560209485019460019093019290910190610d4c565b60035f529091505f51602061621b5f395f51905f52601f840160051c810160208510610df9575b90849392915b601f830160051c82018110610deb5750506102dc565b5f8155859450600101610dd5565b5080610dcf565b91607f16916102c8565b5f80fd5b60a081019081106001600160401b03821117610c3957604052565b604081019081106001600160401b03821117610c3957604052565b601f909101601f19168101906001600160401b03821190821017610c3957604052565b81601f82011215610e0a578051906001600160401b038211610c395760405192610e9b601f8401601f191660200185610e44565b82845260208383010111610e0a57815f9260208093018386015e8301015290565b9190826040910312610e0a57604051610ed481610e29565b6020808294805184520151910152565b905f1982019182136001166109b457565b9060018201915f6001841291129080158216911516176109b457565b9190915f83820193841291129080158216911516176109b457565b805160209081811015610fa25750601f825111610f645780825192015190808310610f5657501790565b825f19910360031b1b161790565b60448260405192839163305a27a960e01b83528160048401528051918291826024860152018484015e5f828201840152601f01601f19168101030190fd5b906001600160401b038211610c39575f54926001938481811c911680156110a5575b83821014610c1b57601f8111611072575b5081601f841160011461101057509282939183925f94611005575b50501b915f199060031b1c1916175f5560ff90565b015192505f80610ff0565b919083601f1981165f8052845f20945f905b888383106110585750505010611040575b505050811b015f5560ff90565b01515f1960f88460031b161c191690555f8080611033565b858701518855909601959485019487935090810190611022565b5f805284601f845f20920160051c820191601f860160051c015b82811061109a575050610fd5565b5f815501859061108c565b90607f1690610fc4565b8051602090818110156110d95750601f825111610f645780825192015190808310610f5657501790565b9192916001600160401b038111610c395760019182548381811c911680156111db575b82821014610c1b57601f81116111a8575b5080601f83116001146111485750819293945f9261113d575b50505f19600383901b1c191690821b17905560ff90565b015190505f80611126565b90601f19831695845f52825f20925f905b8882106111915750508385969710611179575b505050811b01905560ff90565b01515f1960f88460031b161c191690555f808061116c565b808785968294968601518155019501930190611159565b835f5283601f835f20920160051c820191601f850160051c015b8281106111d057505061110d565b5f81550184906111c2565b90607f16906110fc565b610437611208926020806111fc85518451906112f7565b940151910151906112f7565b90565b90670de0b6b3a7640000918281029281840514901517156109b457565b81810292915f8212600160ff1b8214166109b45781840514901517156109b457565b811561126457600160ff1b81145f198314166109b4570590565b634e487b7160e01b5f52601260045260245ffd5b9080156109a5576f4b3b4ca85a86c47a098a224000000000918281029281840514901517156109b4576112089161124a565b6112b48282611228565b9181159182156112e3575b5050156112d457670de0b6b3a7640000900590565b63066f361360e11b5f5260045ffd5b6112ef9192508361124a565b145f806112bf565b6113018282611228565b918115918215611329575b5050156112d4576f4b3b4ca85a86c47a098a224000000000900590565b6113359192508361124a565b145f8061130c565b9061134791611228565b5f81131561136a57670de0b6b3a764000061136461120892610ee4565b05610ef5565b5f811261137657505f90565b670de0b6b3a764000061138b61120892610ef5565b05610ee4565b600160ff1b81146109b4575f0390565b81156109a5578015611409575f82126113f1575b5f81136113de57611208916113d46113cf6113d99361120b565b610ef5565b61124a565b610ee4565b611208916113d46113d96113cf9361120b565b906113fe61140491611391565b91611391565b6113b5565b50505f9056fe60a0806040526004361015610012575f80fd5b5f3560e01c90816301ffc9a714611d2c5750806306fdde0314611c83578063095ea7b314611c0657806316a0b3e014611bc357806318160ddd14611ba957806323b872dd14611b0157806323de665114611ad0578063273c1adf14611aae5780632aa881f8146117de57806330adf81f146117a4578063313ce567146117895780633644e5151461176f57806354fd4d50146116c65780635687f2b814611665578063627cdcb91461163c578063654cf15d1461161a578063679aefce1461160057806370a082311461152d57806372c98186146114075780637be219a21461134a5780637ecebe001461130557806381fa807c1461123257806384b0196e1461113a5780638d928af8146110ea57806395d89b4114610fee578063984de9e814610f9c578063a9059cbb14610e96578063aa6ca80814610ddc578063abb1dc4414610b89578063b156aa0a14610ac3578063b677fa5614610aa1578063ce20ece714610a82578063d335b0cf146109f0578063d505accf14610794578063dd292ce4146102a15763dd62ed3e146101a8575f80fd5b3461028a57604060031936011261028a576101c1611db9565b60206101cb611ddc565b91606473ffffffffffffffffffffffffffffffffffffffff91828060405196879586947f927da1050000000000000000000000000000000000000000000000000000000086523060048701521660248501521660448301527f0000000000000000000000000000000000000000000000000000000000000000165afa8015610296575f9061025f575b602090604051908152f35b506020813d60201161028e575b8161027960209383611e53565b8101031261028a5760209051610254565b5f80fd5b3d915061026c565b6040513d5f823e3d90fd5b3461028a575f60031936011261028a57604051610200810181811067ffffffffffffffff8211176107675760405260608152606060208201525f60408201525f60608201525f60808201525f60a08201525f60c08201525f60e08201525f6101008201525f6101208201525f6101408201525f6101608201525f6101808201525f6101a08201525f6101c08201525f6101e08201526040517fca4f28030000000000000000000000000000000000000000000000000000000081523060048201525f8160248173ffffffffffffffffffffffffffffffffffffffff7f0000000000000000000000000000000000000000000000000000000000000000165afa908115610296575f91610745575b5081526040517f7e361bde0000000000000000000000000000000000000000000000000000000081523060048201525f8160248173ffffffffffffffffffffffffffffffffffffffff7f0000000000000000000000000000000000000000000000000000000000000000165afa908115610296575f91610724575b5060208201527f000000000000000000000000000000000000000000000000000000000000000060408201527f000000000000000000000000000000000000000000000000000000000000000060608201527f000000000000000000000000000000000000000000000000000000000000000060808201527f000000000000000000000000000000000000000000000000000000000000000060a08201527f000000000000000000000000000000000000000000000000000000000000000060c08201527f000000000000000000000000000000000000000000000000000000000000000060e08201527f00000000000000000000000000000000000000000000000000000000000000006101008201527f00000000000000000000000000000000000000000000000000000000000000006101208201527f00000000000000000000000000000000000000000000000000000000000000006101408201527f00000000000000000000000000000000000000000000000000000000000000006101608201527f00000000000000000000000000000000000000000000000000000000000000006101808201527f00000000000000000000000000000000000000000000000000000000000000006101a08201527f00000000000000000000000000000000000000000000000000000000000000006101c08201527f00000000000000000000000000000000000000000000000000000000000000006101e08201526040518091602082526101e061068861067283516102006020870152610220860190611f96565b6020840151601f19868303016040870152611f30565b916040810151606085015260608101516080850152608081015160a085015260a081015160c085015260c081015160e085015260e08101516101008501526101008101516101208501526101208101516101408501526101408101516101608501526101608101516101808501526101808101516101a08501526101a08101516101c08501526101c08101518285015201516102008301520390f35b61074091503d805f833e6107388183611e53565b81019061240c565b610429565b61076191503d805f833e6107598183611e53565b81019061296f565b826103ae565b7f4e487b71000000000000000000000000000000000000000000000000000000005f52604160045260245ffd5b3461028a5760e060031936011261028a576107ad611db9565b6107b5611ddc565b60443591608435919060643560ff8416840361028a578042116109c5576108038273ffffffffffffffffffffffffffffffffffffffff165f52600260205260405f2080549060018201905590565b906108d26108c960405196602088017f6e71edae12b1b97f4d1f60370fef10105fa2faae0126114a169c64845d6126c9815273ffffffffffffffffffffffffffffffffffffffff98899586891697886040840152878b1660608401528c608084015260a083015260c082015260c0815261087c81611dff565b5190206108876139e3565b90604051917f190100000000000000000000000000000000000000000000000000000000000083526002830152602282015260c43591604260a4359220614966565b909291926149f5565b16818103610997576040517fe1f21c6700000000000000000000000000000000000000000000000000000000815273ffffffffffffffffffffffffffffffffffffffff848116600483015285166024820152604481018790526020816064815f7f00000000000000000000000000000000000000000000000000000000000000008b165af180156102965761096357005b6020813d60201161098f575b8161097c60209383611e53565b8101031261028a5761098d90612067565b005b3d915061096f565b7f4b800e46000000000000000000000000000000000000000000000000000000005f5260045260245260445ffd5b7f62791302000000000000000000000000000000000000000000000000000000005f5260045260245ffd5b3461028a575f60031936011261028a576040517fb45090f900000000000000000000000000000000000000000000000000000000815230600482015260208160248173ffffffffffffffffffffffffffffffffffffffff7f0000000000000000000000000000000000000000000000000000000000000000165afa8015610296575f9061025f57602090604051908152f35b3461028a575f60031936011261028a57602060405164e8d4a510008152f35b3461028a575f60031936011261028a576020604051670853a0d2313c00008152f35b3461028a575f60031936011261028a576040517f535cfd8a0000000000000000000000000000000000000000000000000000000081523060048201525f8160248173ffffffffffffffffffffffffffffffffffffffff7f0000000000000000000000000000000000000000000000000000000000000000165afa801561029657610b63915f91610b67575b50604051918291602083526020830190611f63565b0390f35b610b8391503d805f833e610b7b8183611e53565b8101906123e6565b82610b4e565b3461028a575f60031936011261028a5773ffffffffffffffffffffffffffffffffffffffff6040517f67e0e0760000000000000000000000000000000000000000000000000000000081523060048201525f81602481857f0000000000000000000000000000000000000000000000000000000000000000165afa8015610296575f915f935f915f93610cae575b50610c2d60405194608086526080860190611f96565b6020858203818701528080885193848152019701925f905b838210610c72578780610b6389610c648d8b8582036040870152611f63565b908382036060850152611f63565b909192939783606060019260408c518051610c8c81611fdf565b8352808501518716858401520151151560408201520199019493920190610c45565b9450925050503d805f843e610cc38184611e53565b82019060808383031261028a5782519267ffffffffffffffff9384811161028a5783610cf09183016128f1565b906020938482015186811161028a57820181601f8201121561028a57805190610d1882611e76565b96610d266040519889611e53565b8288528088018160608095028401019285841161028a578201905b838210610d87575050505050604082015186811161028a5781610d65918401612385565b95606083015190811161028a57610d7c9201612385565b909293909185610c17565b848287031261028a5760405190610d9d82611e1b565b8251600281101561028a57825283830151908a8216820361028a578285928389950152610dcc60408601612067565b6040820152815201910190610d41565b3461028a575f60031936011261028a576040517fca4f28030000000000000000000000000000000000000000000000000000000081523060048201525f8160248173ffffffffffffffffffffffffffffffffffffffff7f0000000000000000000000000000000000000000000000000000000000000000165afa801561029657610b63915f91610e7c575b50604051918291602083526020830190611f96565b610e9091503d805f833e6107598183611e53565b82610e67565b3461028a57604060031936011261028a57610f136020610eb4611db9565b6040517fbeabacc800000000000000000000000000000000000000000000000000000000815233600482015273ffffffffffffffffffffffffffffffffffffffff90911660248083019190915235604482015291829081906064820190565b03815f73ffffffffffffffffffffffffffffffffffffffff7f0000000000000000000000000000000000000000000000000000000000000000165af1801561029657610f65575b602060405160018152f35b6020813d602011610f94575b81610f7e60209383611e53565b8101031261028a57610f8f90612067565b610f5a565b3d9150610f71565b3461028a57604060031936011261028a5760043567ffffffffffffffff811161028a57610fcd903690600401611e8e565b60243590600282101561028a57602091610fe6916128b1565b604051908152f35b3461028a575f60031936011261028a576040516004545f8261100f83612016565b91828252602093600190856001821691825f146110ac575050600114611051575b5061103d92500383611e53565b610b63604051928284938452830190611d94565b84915060045f527f8a35acfbc15ff81a39ae7d344fd709f28e8600b4aa8c65c6b64bfe7fe36bd19b905f915b85831061109457505061103d935082010185611030565b8054838901850152879450869390920191810161107d565b7fffffffffffffffffffffffffffffffffffffffffffffffffffffffffffffff00168582015261103d95151560051b85010192508791506110309050565b3461028a575f60031936011261028a57602060405173ffffffffffffffffffffffffffffffffffffffff7f0000000000000000000000000000000000000000000000000000000000000000168152f35b3461028a575f60031936011261028a576111737f0000000000000000000000000000000000000000000000000000000000000000614776565b61119c7f00000000000000000000000000000000000000000000000000000000000000006148a8565b9060405191602083019280841067ffffffffffffffff85111761076757611212610b6392611204956040525f83526040519586957f0f00000000000000000000000000000000000000000000000000000000000000875260e0602088015260e0870190611d94565b908582036040870152611d94565b904660608501523060808501525f60a085015283820360c0850152611f63565b3461028a575f60031936011261028a576040517ff29486a10000000000000000000000000000000000000000000000000000000081523060048201526101a090818160248173ffffffffffffffffffffffffffffffffffffffff7f0000000000000000000000000000000000000000000000000000000000000000165afa908115610296576040925f926112d8575b505060608282015191015182519182526020820152f35b6112f79250803d106112fe575b6112ef8183611e53565b810190612450565b82806112c1565b503d6112e5565b3461028a57602060031936011261028a5773ffffffffffffffffffffffffffffffffffffffff611333611db9565b165f526002602052602060405f2054604051908152f35b3461028a575f60031936011261028a57611362612818565b5061136b612853565b506101c060c0611379612995565b608060409392935193805185526020810151602086015260408101516040860152606081015160608601520151608084015260208151805160a0860152015182840152602080820151805160e0860152015161010084015260408101516101208401526060810151610140840152608081015161016084015260a081015161018084015201516101a0820152f35b3461028a576020600319818136011261028a5760043567ffffffffffffffff9182821161028a5760e090823603011261028a576040519061144782611dff565b8060040135600281101561028a578252602481013584830152604481013583811161028a5761147c9060043691840101611e8e565b6040830152606481013560608301526084810135608083015260a481013573ffffffffffffffffffffffffffffffffffffffff8116810361028a5760a083015260c48101359083821161028a5701913660238401121561028a57600483013590811161076757604051906114f985601f19601f8401160183611e53565b808252366024828601011161028a5784815f926024610fe69701838601378301015260c0820152611528613978565b612670565b3461028a5760208060031936011261028a5760448161154a611db9565b6040517ff7888aec00000000000000000000000000000000000000000000000000000000815230600482015273ffffffffffffffffffffffffffffffffffffffff918216602482015292839182907f0000000000000000000000000000000000000000000000000000000000000000165afa908115610296575f916115d3575b50604051908152f35b90508181813d83116115f9575b6115ea8183611e53565b8101031261028a5751826115ca565b503d6115e0565b3461028a575f60031936011261028a576020610fe6612572565b3461028a575f60031936011261028a576020604051670de0b6b3a76400008152f35b3461028a575f60031936011261028a57335f908152600260205260409020805460018101909155005b3461028a5760207f8c5be1e5ebec7d5bd14f71427d1e84f3dd0314c0f7b2291e5b200ac8c7c3b92561169636611eee565b929193906116a2613978565b73ffffffffffffffffffffffffffffffffffffffff809160405195865216941692a3005b3461028a575f60031936011261028a576040516005545f826116e783612016565b91828252602093600190856001821691825f146110ac575050600114611714575061103d92500383611e53565b84915060055f527f036b6384b5eca791c62761152d0c79bb0604c104a5fb6f4eb0703f3154bb3db0905f915b85831061175757505061103d935082010185611030565b80548389018501528794508693909201918101611740565b3461028a575f60031936011261028a576020610fe66139e3565b3461028a575f60031936011261028a57602060405160128152f35b3461028a575f60031936011261028a5760206040517f6e71edae12b1b97f4d1f60370fef10105fa2faae0126114a169c64845d6126c98152f35b3461028a575f60031936011261028a576040516101009081810181811067ffffffffffffffff8211176107675760405260608152602090818101906060825260408101915f8352606082015f8152608083015f815260a08401905f825260c08501925f845260e08601945f865273ffffffffffffffffffffffffffffffffffffffff7f000000000000000000000000000000000000000000000000000000000000000016906040517f535cfd8a0000000000000000000000000000000000000000000000000000000081523060048201525f81602481865afa908115610296575f91611a94575b5088526040517f7e361bde0000000000000000000000000000000000000000000000000000000081523060048201525f81602481865afa908115610296575f91611a78575b5081526040517fb45090f90000000000000000000000000000000000000000000000000000000081523060048201528a81602481865afa908115610296575f91611a4b575b50895261195a6122da565b8352611964612572565b845260405180927ff29486a10000000000000000000000000000000000000000000000000000000082523060048301528160246101a09384935afa988915610296578c99611a00946119ed935f92611a2e575b505060e0810151151588528a810151151589526101208091015115158a526040519d8d8f9e938f948552519301528c0190611f30565b9051601f198b83030160408c0152611f30565b965160608901525160808801525160a087015251151560c086015251151560e0850152511515908301520390f35b611a449250803d106112fe576112ef8183611e53565b8e806119b7565b90508a81813d8311611a71575b611a628183611e53565b8101031261028a57518c61194f565b503d611a58565b611a8c91503d805f833e6107388183611e53565b90508c61190a565b611aa891503d805f833e610b7b8183611e53565b8c6118c5565b3461028a575f60031936011261028a576020604051674563918244f400008152f35b3461028a5760207fddf252ad1be2c89b69c2b068fc378daa952ba7f163c4a11628f55a4df523b3ef61169636611eee565b3461028a5760846020611b1336611eee565b6040517f15dacbea00000000000000000000000000000000000000000000000000000000815233600482015273ffffffffffffffffffffffffffffffffffffffff93841660248201529183166044830152606482015292839182905f907f0000000000000000000000000000000000000000000000000000000000000000165af1801561029657610f6557602060405160018152f35b3461028a575f60031936011261028a576020610fe66122da565b3461028a57606060031936011261028a5760043567ffffffffffffffff811161028a57610fe6611bf96020923690600401611e8e565b60443590602435906121d5565b3461028a57604060031936011261028a57610f136020611c24611db9565b6040517fe1f21c6700000000000000000000000000000000000000000000000000000000815233600482015273ffffffffffffffffffffffffffffffffffffffff90911660248083019190915235604482015291829081906064820190565b3461028a575f60031936011261028a576040516003545f82611ca483612016565b91828252602093600190856001821691825f146110ac575050600114611cd1575061103d92500383611e53565b84915060035f527fc2575a0e9e593c00f959f8c92f12db2869c3395a3b0502d05e2516446f71f85b905f915b858310611d1457505061103d935082010185611030565b80548389018501528794508693909201918101611cfd565b3461028a57602060031936011261028a57600435907fffffffff00000000000000000000000000000000000000000000000000000000821680920361028a577f01ffc9a700000000000000000000000000000000000000000000000000000000602092148152f35b90601f19601f602080948051918291828752018686015e5f8582860101520116010190565b6004359073ffffffffffffffffffffffffffffffffffffffff8216820361028a57565b6024359073ffffffffffffffffffffffffffffffffffffffff8216820361028a57565b60e0810190811067ffffffffffffffff82111761076757604052565b6060810190811067ffffffffffffffff82111761076757604052565b6040810190811067ffffffffffffffff82111761076757604052565b90601f601f19910116810190811067ffffffffffffffff82111761076757604052565b67ffffffffffffffff81116107675760051b60200190565b9080601f8301121561028a576020908235611ea881611e76565b93611eb66040519586611e53565b81855260208086019260051b82010192831161028a57602001905b828210611edf575050505090565b81358152908301908301611ed1565b600319606091011261028a5773ffffffffffffffffffffffffffffffffffffffff90600435828116810361028a5791602435908116810361028a579060443590565b9081518082526020808093019301915f5b828110611f4f575050505090565b835185529381019392810192600101611f41565b9081518082526020808093019301915f5b828110611f82575050505090565b835185529381019392810192600101611f74565b9081518082526020808093019301915f5b828110611fb5575050505090565b835173ffffffffffffffffffffffffffffffffffffffff1685529381019392810192600101611fa7565b60021115611fe957565b7f4e487b71000000000000000000000000000000000000000000000000000000005f52602160045260245ffd5b90600182811c9216801561205d575b602083101461203057565b7f4e487b71000000000000000000000000000000000000000000000000000000005f52602260045260245ffd5b91607f1691612025565b5190811515820361028a57565b9060018201915f60018412911290801582169115161761209057565b7f4e487b71000000000000000000000000000000000000000000000000000000005f52601160045260245ffd5b9060078201915f60078412911290801582169115161761209057565b9190915f838201938412911290801582169115161761209057565b907ffffffffffffffffffffffffffffffffffffffffffffffffffffffffffffffff7820191821360011661209057565b905f19820191821360011661209057565b906f4b3b4ca85a86c47a098a2240000000005f838203931281841281169184139015161761209057565b81810392915f13801582851316918412161761209057565b8051156121845760200190565b7f4e487b71000000000000000000000000000000000000000000000000000000005f52603260045260245ffd5b8051600110156121845760400190565b80518210156121845760209160051b010190565b9091612240926f1691ca32818ed48b02dca3e0000000006122506122456121fa612995565b608052945f602060405161220d81611e37565b828152015261224061223b61223b61224a612245856122308d8d60805191612c49565b94819f9186906120d9565b6137b1565b61380f565b613831565b9a61215f565b946040519561225e87611e37565b8187526020870152136122b257612295579161223b916122929361228d612287608051936121b1565b51613831565b613905565b90565b9161223b91612292936122ad61228760805193612177565b613886565b7fdc10196f000000000000000000000000000000000000000000000000000000005f5260045ffd5b6040517fe4dc2aa400000000000000000000000000000000000000000000000000000000815230600482015260208160248173ffffffffffffffffffffffffffffffffffffffff7f0000000000000000000000000000000000000000000000000000000000000000165afa908115610296575f91612356575090565b90506020813d60201161237d575b8161237160209383611e53565b8101031261028a575190565b3d9150612364565b9080601f8301121561028a578151906020916123a081611e76565b936123ae6040519586611e53565b81855260208086019260051b82010192831161028a57602001905b8282106123d7575050505090565b815181529083019083016123c9565b9060208282031261028a57815167ffffffffffffffff811161028a576122929201612385565b91909160408184031261028a5780519267ffffffffffffffff9384811161028a5781612439918401612385565b93602083015190811161028a576122929201612385565b6101a09181900382811261028a5760405192610140928385019267ffffffffffffffff90868510828611176107675760801361028a576101c0860190811184821017610767576040526124a281612067565b83526124b060208201612067565b9261016093848701526124c560408301612067565b9261018093848801526124da60608401612067565b9087015285526080810151602086015260a0810151604086015260c0810151606086015260e081015164ffffffffff8116810361028a5760808601526101008082015163ffffffff8116810361028a5761256b946125619160a089015261255561012097612549898701612067565b60c08b01528501612067565b60e08901528301612067565b9086015201612067565b9082015290565b6040517f4f037ee700000000000000000000000000000000000000000000000000000000815230600482015260208160248173ffffffffffffffffffffffffffffffffffffffff7f0000000000000000000000000000000000000000000000000000000000000000165afa908115610296575f91612356575090565b908160011b91600283050361209057565b908160011b918083056002149015171561209057565b90670de0b6b3a76400009182810292818405149015171561209057565b81810292915f82127f800000000000000000000000000000000000000000000000000000000000000082141661209057818405149015171561209057565b6126b69060608101511590612683612995565b5f602060409693965161269581611e37565b828152015260408301946126bc6126ae83838951612c49565b9490946125ee565b846120d9565b92604051936126ca85611e37565b8452602084015283516126dc81611fdf565b6126e581611fdf565b6127655761273b6127439361274a959360ff9360206122929a51960151985f14612750575f60019961273661272c6122456001935b6127268b87168d6121c1565b51613b28565b9283878787614608565b614d81565b9416906121c1565b51916137b1565b90613b1b565b60015f9961273661272c61224560029361271a565b929190939460209051920151945f1461280b575f9360029060ff60015b169161278e83866121c1565b5188116127e3578686856127cc60ff97866127dc9b61223b976122929f6122456127c6918f6127d49e6127c0916121c1565b51613b1b565b90614d81565b948592614608565b9316906121c1565b5190613b1b565b7f03ba4186000000000000000000000000000000000000000000000000000000005f5260045ffd5b600193849060ff5f612782565b6040519060a0820182811067ffffffffffffffff821117610767576040525f6080838281528260208201528260408201528260608201520152565b6040519061286082611dff565b5f60c08360405161287081611e37565b838152836020820152815260405161288781611e37565b83815283602082015260208201528260408201528260608201528260808201528260a08201520152565b906128c66001926128c0612995565b91612c49565b9290916128d281611fdf565b036128e4576122929161223b9161215f565b6122929161223b916120d9565b9080601f8301121561028a5781519060209161290c81611e76565b9361291a6040519586611e53565b81855260208086019260051b82010192831161028a57602001905b828210612943575050505090565b815173ffffffffffffffffffffffffffffffffffffffff8116810361028a578152908301908301612935565b9060208282031261028a57815167ffffffffffffffff811161028a5761229292016128f1565b61299d612818565b906129a6612853565b907f000000000000000000000000000000000000000000000000000000000000000060808401527f000000000000000000000000000000000000000000000000000000000000000060608401527f000000000000000000000000000000000000000000000000000000000000000060408401527f000000000000000000000000000000000000000000000000000000000000000060208401527f00000000000000000000000000000000000000000000000000000000000000008352815160208301517f000000000000000000000000000000000000000000000000000000000000000060208201527f000000000000000000000000000000000000000000000000000000000000000090527f000000000000000000000000000000000000000000000000000000000000000060208201527f000000000000000000000000000000000000000000000000000000000000000090527f000000000000000000000000000000000000000000000000000000000000000060c08301527f000000000000000000000000000000000000000000000000000000000000000060a08301527f000000000000000000000000000000000000000000000000000000000000000060808301527f000000000000000000000000000000000000000000000000000000000000000060608301527f00000000000000000000000000000000000000000000000000000000000000006040830152565b8015612be6577f161bcca7119915b50764b4abe86529797775a5f17195100000000000000000000590565b7f4e487b71000000000000000000000000000000000000000000000000000000005f52601260045260245ffd5b8115612be6575f1982147f8000000000000000000000000000000000000000000000000000000000000000821416612090570590565b929192612c64612287612c5e61228784612177565b926121b1565b916e01ed09bead87c0378d8e6400000000612c7f84846120d9565b136137895760c085015180612c9391612632565b6f4b3b4ca85a86c47a098a22400000000090058060808701516080840151612cba91614aa0565b60a0880151612cc8916120d9565b6080840151612cd691614aa0565b90612ce091613dd0565b6040830151612cef9085612632565b670de0b6b3a764000090056060840151612d099087612632565b670de0b6b3a76400009005612d1d9161215f565b90612d2791613e02565b6080830151612d369085612632565b670de0b6b3a764000090056060840151612d4f91612632565b670de0b6b3a764000090056080840151612d699087612632565b670de0b6b3a764000090056040850151612d8291612632565b670de0b6b3a76400009005612d96916120d9565b82604089015190612da691613dd0565b612daf91613e02565b612db8916120d9565b906060830151612dc89085612632565b670de0b6b3a764000090056040840151612de29087612632565b670de0b6b3a76400009005612df6916120d9565b90606088015190612e0691613dd0565b612e0f91613e02565b612e18916120d9565b92612e238380613d7c565b6040830151612e3191613d7c565b6040830151612e3f91613d7c565b612e498280613d7c565b6060840151612e5791613d7c565b6060840151612e6591613d7c565b612e6e916120d9565b612e788285612632565b670de0b6b3a764000090056040840151612e91906125ff565b612e9a91612632565b670de0b6b3a764000090056060840151612eb391612632565b670de0b6b3a76400009005612ec79161215f565b604087015180612ed691612632565b6f4b3b4ca85a86c47a098a22400000000090056040880151612ef7906125ee565b6060890151612f0591612632565b6f4b3b4ca85a86c47a098a22400000000090056080850151612f2691614aa0565b612f2f916120d9565b606088015180612f3e91612632565b6f4b3b4ca85a86c47a098a22400000000090056080850151612f5f91614aa0565b6080850151612f6d91614aa0565b612f76916120d9565b60c088015180612f8591612632565b6f4b3b4ca85a86c47a098a224000000000900560c0890151612fa691612632565b6f4b3b4ca85a86c47a098a224000000000900560c0890151612fc791612632565b6f4b3b4ca85a86c47a098a2240000000009005612fe391613dd0565b612fec826138d9565b90612ff691613e02565b90613000906120f4565b608084015161300e91614aa0565b608084015161301c91614aa0565b60c088015180156137295761303090612bbb565b61303991613e02565b613042916120d9565b61304c8480612632565b670de0b6b3a764000090056130618380613d7c565b61306a9161215f565b6040840151613078906125ee565b61308191612632565b670de0b6b3a76400009005606084015161309a91612632565b670de0b6b3a764000090056130ae856125ee565b6130b89084612632565b670de0b6b3a764000090059060408501516130d39083612632565b670de0b6b3a7640000900560408601516130ec91612632565b670de0b6b3a76400009005613100916120d9565b90606085015161310f91612632565b670de0b6b3a76400009005606085015161312891612632565b670de0b6b3a7640000900561313c9161215f565b60a0880151604089015161314f91612632565b6f4b3b4ca85a86c47a098a2240000000009005608089015160608a015161317591612632565b6f4b3b4ca85a86c47a098a2240000000009005608086015161319691614aa0565b60808601516131a491614aa0565b6131ad916120d9565b608089015160408a01516131c091612632565b6f4b3b4ca85a86c47a098a224000000000900560a08a015160608b01516131e691612632565b6f4b3b4ca85a86c47a098a2240000000009005613202916120d9565b608086015161321091614aa0565b613219916120d9565b60c08901518061322891612632565b6f4b3b4ca85a86c47a098a224000000000900560c08a015161324991612632565b6f4b3b4ca85a86c47a098a224000000000900560c08a015161326a91612632565b6f4b3b4ca85a86c47a098a224000000000900561328691613dd0565b61328f91613e02565b613298916120d9565b6132a28480613d7c565b60608401516132b091613d7c565b60608401516132be91613d7c565b6132c88380613d7c565b60408501516132d691613d7c565b60408501516132e491613d7c565b6132ed916120d9565b6132f78386613d7c565b6060850151613305906125ff565b61330e91613d7c565b604085015161331c91613d7c565b613325916120d9565b9160a08801518061333591612632565b6f4b3b4ca85a86c47a098a224000000000900560808901518061335791612632565b6f4b3b4ca85a86c47a098a2240000000009005608086015161337891614aa0565b608086015161338691614aa0565b61338f916120d9565b60a089015161339d906125ee565b60808a01516133ab91612632565b6f4b3b4ca85a86c47a098a224000000000900560808601516133cc91614aa0565b6133d5916120d9565b60c0890151806133e491612632565b6f4b3b4ca85a86c47a098a224000000000900560c08a015161340591612632565b6f4b3b4ca85a86c47a098a224000000000900560c08a015161342691612632565b6f4b3b4ca85a86c47a098a224000000000900561344291613dd0565b61344b846138d9565b9061345591613e02565b9261345f906120f4565b60c0890151938415613729576134a6613520946134a061351a936134a06f4b3b4ca85a86c47a098a2240000000009661349a6135259b612bbb565b90613e02565b906120d9565b96826134bf6134b58380613d7c565b6134a08780613d7c565b05975f811315613781576122456134d86134dd926137b1565b613b3f565b975b805f8a131561375157506135076134f861351492612074565b6135018b6125ee565b90613d31565b945b6080890151926120d9565b90613d7c565b056120d9565b612074565b9460148602958087056014149015171561209057806134a06f4b3b4ca85a86c47a098a22400000000061356f8161356360c061363a97015180612632565b0560c085015190612632565b056f4b3b4ca85a86c47a098a2240000000006135c8613634613615613602876134a06135f78c60806135ee8b8b6135c86135ce8961351485856135c88a8c01519460606135bf60408301516125ee565b91015190612632565b05613dd0565b986135e860406135e081840151612074565b920151612074565b90612632565b91015190613d7c565b60808d015190613d7c565b6134a086866135c860608c015180612632565b9560a061362b608083015160808c015190613d31565b910151906120d9565b80612632565b7fffffffffffffffffffffffffffffffffb4c4b357a5793b85f675ddc0000000008101908113600116612090578015613729576136ca60806136c16136ba6136d1966136b46136aa996136af8d6136a06ec097ce7bc90715b34b9f10000000009a612bbb565b9c8d9586946120d9565b61215f565b613e02565b9a613e62565b9689613e62565b93015180612632565b0590612632565b60288102908082056028149015171561209057613704916f4b3b4ca85a86c47a098a2240000000006135209205906120d9565b916f1691ca32818ed48b02dca3e00000000061372084836120d9565b136122b2579190565b7f0a0c22c7000000000000000000000000000000000000000000000000000000005f5260045ffd5b90505f8113156137735761376d6122456134d8613514936137b1565b94613509565b50613514633b9aca0061376d565b505f976134df565b7f2da2a5e5000000000000000000000000000000000000000000000000000000005f5260045ffd5b5f81126137bb5790565b7fa8ce4432000000000000000000000000000000000000000000000000000000005f5260045260245ffd5b9060058202918083046005149015171561209057565b8181029291811591840414171561209057565b90613819916137fc565b6001670de0b6b3a76400005f19830104019015150290565b7f7fffffffffffffffffffffffffffffffffffffffffffffffffffffffffffffff811161385b5790565b7f24775e06000000000000000000000000000000000000000000000000000000005f5260045260245ffd5b61229293929192613898818486613eb6565b916138a4828587613f6d565b604051936138b185611e37565b84526020840152608085015194604060608201519101519160c060208701519601519661401a565b7f80000000000000000000000000000000000000000000000000000000000000008114612090575f0390565b61229293929192613917818486613f6d565b91613923828587613eb6565b6040519361393085611e37565b84526020840152608085015194606060408201519101519160c06139558751516138d9565b96602081510151604051986139698a611e37565b8952602089015201519661401a565b73ffffffffffffffffffffffffffffffffffffffff7f00000000000000000000000000000000000000000000000000000000000000001633036139b757565b7f089676d5000000000000000000000000000000000000000000000000000000005f523360045260245ffd5b73ffffffffffffffffffffffffffffffffffffffff7f000000000000000000000000000000000000000000000000000000000000000016301480613af2575b15613a4b577f000000000000000000000000000000000000000000000000000000000000000090565b60405160208101907f8b73c3c69bb8fe3d512ecc4cf759cc79239f7b179b0ffacaa9a75d522b39400f82527f000000000000000000000000000000000000000000000000000000000000000060408201527f000000000000000000000000000000000000000000000000000000000000000060608201524660808201523060a082015260a0815260c0810181811067ffffffffffffffff8211176107675760405251902090565b507f00000000000000000000000000000000000000000000000000000000000000004614613a22565b9190820391821161209057565b9190820180921161209057565b8115612be6570490565b8015613ca657613b4e81614ab3565b670de0b6b3a76400009081830290838204830361209057613b7c81613b76613bd79385613b35565b90613b28565b91613b76613bce613bc2613bb6613baa613b9e600198891c613b768189613b35565b881c613b768188613b35565b871c613b768187613b35565b861c613b768186613b35565b851c613b768185613b35565b841c8092613b35565b811c9282613be585806137fc565b0491613bf0856137e6565b90613c085f1992828785830104019015150284613b28565b8411159485613c7d575b505050505015613c1f5790565b60646040517f08c379a000000000000000000000000000000000000000000000000000000000815260206004820152600c60248201527f5f73717274204641494c454400000000000000000000000000000000000000006044820152fd5b613c9a949550613c8c876137e6565b801515930104010290613b1b565b11155f80808080613c12565b505f90565b6f4b3b4ca85a86c47a098a2240000000008115613729575f8212613d01575b5f8113613cee5761229291613ce4613520613ce993612615565b612c13565b612124565b61229291613ce4613ce961352093612615565b50613d0b906138d9565b7fffffffffffffffffffffffffffffffffb4c4b357a5793b85f675ddc000000000613cca565b8115613729578015613d76575f8212613d5e575f8113613cee5761229291613ce4613520613ce993612615565b90613d6b613d71916138d9565b916138d9565b613cca565b50505f90565b90613d8691612632565b5f811315613da957670de0b6b3a7640000613da361229292612124565b05612074565b5f8112613db557505f90565b670de0b6b3a7640000613dca61229292612074565b05612124565b908015613729576f4b3b4ca85a86c47a098a224000000000918281029281840514901517156120905761229291612c13565b613e24678ac7230489e800009182613e1c81860583612632565b940790612632565b915f81121580613e58575b15613e455781613e41929305906120d9565b0590565b613520613dca91836122929505906120d9565b505f831215613e2f565b613e7c678ac7230489e800009182613e1c81860583612632565b915f81131580613eac575b15613e995781613e41929305906120d9565b613ce9613da391836122929505906120d9565b505f831315613e87565b6134a090613f2a61229294936020613f1e818301946060613ee060c0885151960195865190613dd0565b5f885151135f14613f3057613f1290613f0d613f028c51608087015190613d7c565b604086015190613d7c565b613e62565b985b5191015190613d7c565b93510151905190613dd0565b90613e62565b613f6790613f55613f61878d0151670de0b6b3a7640000928391608089015190612632565b05604087015190612632565b05613e62565b98613f14565b6122929291613f2a6134a0926020613f1e84515192604088613f9560c0890196875190613dd0565b5f895151125f14613fc457613f2a613d6b613fb9613f129451608088015190613d7c565b606087015190613d7c565b613ff0613f61613fd988613f679501516138d9565b670de0b6b3a7640000928391608089015190612632565b05606087015190612632565b6040519061400982611e1b565b5f6040838281528260208201520152565b90969296959194956040519061402f82611e37565b5f82525f602083015282156137295786948992614067857704140c78940f6a24fdffc78873d4490d2100000000000000819005614aa0565b61407090612135565b81528461407c81613cab565b9061408691613d31565b61408f90612135565b602082015261409c613ffc565b9a8b9188808d516140ad908861215f565b925f84135f149560206135209661415096829561415f9a6145de57614101926140e8926140ed6140f393670de0b6b3a76400009586936138d9565b612632565b05612632565b05613f2a8b84870151613dd0565b9101525b6141466040519e8f9261411784611e37565b5f84525f8585015261413e8a670de0b6b3a76400006135c885826140ed828c890151612632565b845251613d7c565b9182910152613d7c565b61415984612074565b90613dd0565b602089015261417b60206141738a51612135565b990151612135565b604051986141888a611e37565b895260208901526f4b3b4ca85a86c47a098a2240000000006141aa8280612632565b05906141b7885180613d7c565b604051926141c484611e37565b835260208301526141d3613ffc565b93806142026f4b3b4ca85a86c47a098a2240000000006141f98a5160208c015190612632565b05855190613dd0565b898b5f8313156145a7575061423161423793614229613f2a9361351460208b0151916125ee565b808b52613d7c565b916120bd565b85525b885f8851125f146144e3576142538561425c9251613d7c565b613514836125ee565b9661427061426b848351613dd0565b6138d9565b966003808901125f891290801582169115161761209057602061435161434c6f4b3b4ca85a86c47a098a2240000000006143438f9661441a9f6143ed9f9761426b9f8f926143e59f8f613f0d9f8f9d6143e09f91613f2a8f614374888f670de0b6b3a76400008f8f8f9e876143969f9c8f936134a09f9a61438f9f6143809f9c613f0d828b9f61436394866135e89f61434c61436d9f916143436140e89f614351948e6143256143599a60038a950190613e62565b838201525b614339815184830151906120d9565b9052015180612632565b05885190613dd0565b6120bd565b950151613d7c565b8086880152613d7c565b91015201516138d9565b05916125ee565b059160208c0151613dd0565b8060408901528d8801516120d9565b9180613d7c565b808a8501525f81135f146144d157506143b56143c1918a850151613d31565b808a85015283516120d9565b8083525f8113156144c257506143d79151613d31565b8d525180612632565b613d7c565b9051906120d9565b6134a0670de0b6b3a764000061440e602060408a0196858852015180612632565b05602086015190613e02565b8082525f8113156144ba576122456134d8614434926137b1565b905b8181525f6144496020870193845161215f565b131561448b5761445f906020925190519061215f565b9101519283156137295761447e602092613f2a61352061229297612bbb565b81525b51910151906120d9565b614498915190519061215f565b9051928315613729576144b3602092613f2a61229296612bbb565b8152614481565b505f90614436565b6144cc9250614aa0565b6143d7565b6143c1916144de91614aa0565b6143b5565b81602061435161434c6f4b3b4ca85a86c47a098a2240000000006143438d61441a9f6143ed9f9e61426b9f8f926143e59f8f613f0d9f6143806143e09f918f8f614374888f670de0b6b3a764000061436d8f8f9e876143969f9c8f936134a09f9a61438f9f889c8f613f2a9f9261435981866135e89f8f614351918f6140e89f85908f8f90613f0d9c6143639f88614595613f2a926135e861434c9c61436d6143439c6140e88d61459e9b01516138d9565b05918551613dd0565b8382015261432a565b6145d793670de0b6b3a76400006145ce81946135e88361436d6020613f6198015180612632565b05808b52612632565b855261423a565b916143e0614600936143e06145f2946138d9565b613f2a6135208c8751613dd0565b910152614105565b90929360ff16155f146146eb5782613f556134a09261466460206146aa97019361465c61463a8651518351519061215f565b9160208061464e60c0840195865190613dd0565b98510151915101519061215f565b905190613dd0565b926146906020870191825161468a670de0b6b3a764000080978193608089015190612632565b05613e02565b955f8513156146d857505160609091015161468a91612632565b6e01ed09bead87c0378d8e640000000082131591826146cd575b5050156127e357565b131590505f806146c4565b6136af9350606091505191015190613d7c565b82613ff06134a09261472360206146aa970161465c61470f8251518751519061215f565b9160208061464e60c08a0195865190613dd0565b926147496020870191825161468a670de0b6b3a764000080978193608089015190612632565b955f85131561476357505160409091015161468a91612632565b6136af9350604091505191015190613d7c565b60ff81146147ca5760ff811690601f82116147a2576040519161479883611e37565b8252602082015290565b7fb3512b0c000000000000000000000000000000000000000000000000000000005f5260045ffd5b506040515f815f54916147dc83612016565b808352926020906001908181169081156148655750600114614807575b505061229292500382611e53565b9150925f80527f290decd9548b62a8d60345a988386fc84ba6bc95484008f6362f93160ef3e563935f925b82841061484d57506122929450505081016020015f806147f9565b85548785018301529485019486945092810192614832565b9050602093506122929592507fffffffffffffffffffffffffffffffffffffffffffffffffffffffffffffff0091501682840152151560051b8201015f806147f9565b60ff81146148ca5760ff811690601f82116147a2576040519161479883611e37565b506040515f816001916001546148df81612016565b8084529360209160018116908115614865575060011461490757505061229292500382611e53565b91509260015f527fb10e2d527612073b26eecdfd717e6a320cf44b4afac2b0732d9fcbe2b7fa0cf6935f925b82841061494e57506122929450505081016020015f806147f9565b85548785018301529485019486945092810192614933565b91907f7fffffffffffffffffffffffffffffff5d576e7357a4501ddfe92f46681b20a084116149ea579160209360809260ff5f9560405194855216868401526040830152606082015282805260015afa15610296575f5173ffffffffffffffffffffffffffffffffffffffff8116156149e057905f905f90565b505f906001905f90565b5050505f9160039190565b6004811015611fe95780614a07575050565b60018103614a37577ff645eedf000000000000000000000000000000000000000000000000000000005f5260045ffd5b60028103614a6b57507ffce698f7000000000000000000000000000000000000000000000000000000005f5260045260245ffd5b600314614a755750565b7fd78bce0c000000000000000000000000000000000000000000000000000000005f5260045260245ffd5b90801561372957613ce461229292612615565b670de0b6b3a7640000808210614bf0578091045f90700100000000000000000000000000000000811015614be4575b68010000000000000000811015614bcf575b640100000000811015614bba575b62010000811015614ba5575b610100811015614b90575b6010811015614b7b575b60041115614b42575b600182821b9283831c14911b1517156120905790565b6001810180911115614b2c577f4e487b71000000000000000000000000000000000000000000000000000000005f52601160045260245ffd5b60041c90600281018091116120905790614b23565b60081c90600481018091116120905790614b19565b60101c90600881018091116120905790614b0e565b60201c90601081018091116120905790614b02565b60401c90602081018091116120905790614af4565b6040915060801c614ae2565b50600a811115614d78576064811115614d6e576103e8811115614d6457612710811115614d5a57620186a0811115614d5057620f4240811115614d465762989680811115614d3b576305f5e100811115614d3057633b9aca00811115614d25576402540be400811115614d1a5764174876e800811115614d0e5764e8d4a51000811115614d02576509184e72a000811115614cf657655af3107a4000811115614cea5766038d7ea4c68000811115614cde57662386f26fc10000811115614cd15767016345785d8a0000811115614cc45790565b50670463777a4d8c892d90565b5067016345785d8a000090565b50667058bf6e27a75190565b50662386f26fc1000090565b50660b3c13249d90bb90565b5066038d7ea4c6800090565b5066011f9b83a95b4590565b50655af3107a400090565b50651cc2c05dbc5390565b506509184e72a00090565b506502e0466fc60890565b5064e8d4a5100090565b506449a0a4c70090565b5064174876e80090565b5064075cdd471990565b506402540be40090565b5063bc7c871c90565b939291909380600114614dcb57600214614dc2577f4e487b71000000000000000000000000000000000000000000000000000000005f52605160045260245ffd5b61229293613905565b506122929361388656fea264697066735822122013789f068abdc34cc259a9fa51eb004fcd56d8824e42d9f22bfcaed376818ec964736f6c634300081b0033c2575a0e9e593c00f959f8c92f12db2869c3395a3b0502d05e2516446f71f85b",
  "linkReferences": {},
  "deployedLinkReferences": {}
}