{
  "_format": "hh-sol-artifact-1",
  "contractName": "BatchRouter",
  "sourceName": "contracts/BatchRouter.sol",
  "abi": [
    {
      "inputs": [
        {
          "internalType": "contract IVault",
          "name": "vault",
          "type": "address"
        },
        {
          "internalType": "contract IWETH",
          "name": "weth",
          "type": "address"
        },
        {
          "internalType": "contract IPermit2",
          "name": "permit2",
          "type": "address"
        },
        {
          "internalType": "string",
          "name": "routerVersion",
          "type": "string"
        }
      ],
      "stateMutability": "nonpayable",
      "type": "constructor"
    },
    {
      "inputs": [
        {
          "internalType": "address",
          "name": "target",
          "type": "address"
        }
      ],
      "name": "AddressEmptyCode",
      "type": "error"
    },
    {
      "inputs": [],
      "name": "ErrorSelectorNotFound",
      "type": "error"
    },
    {
      "inputs": [],
      "name": "EthTransfer",
      "type": "error"
    },
    {
      "inputs": [],
      "name": "FailedCall",
      "type": "error"
    },
    {
      "inputs": [],
      "name": "InputLengthMismatch",
      "type": "error"
    },
    {
      "inputs": [
        {
          "internalType": "uint256",
          "name": "balance",
          "type": "uint256"
        },
        {
          "internalType": "uint256",
          "name": "needed",
          "type": "uint256"
        }
      ],
      "name": "InsufficientBalance",
      "type": "error"
    },
    {
      "inputs": [],
      "name": "InsufficientEth",
      "type": "error"
    },
    {
      "inputs": [],
      "name": "OperationNotSupported",
      "type": "error"
    },
    {
      "inputs": [],
      "name": "ReentrancyGuardReentrantCall",
      "type": "error"
    },
    {
      "inputs": [
        {
          "internalType": "uint8",
          "name": "bits",
          "type": "uint8"
        },
        {
          "internalType": "uint256",
          "name": "value",
          "type": "uint256"
        }
      ],
      "name": "SafeCastOverflowedUintDowncast",
      "type": "error"
    },
    {
      "inputs": [
        {
          "internalType": "address",
          "name": "token",
          "type": "address"
        }
      ],
      "name": "SafeERC20FailedOperation",
      "type": "error"
    },
    {
      "inputs": [
        {
          "internalType": "address",
          "name": "sender",
          "type": "address"
        }
      ],
      "name": "SenderIsNotVault",
      "type": "error"
    },
    {
      "inputs": [],
      "name": "SwapDeadline",
      "type": "error"
    },
    {
      "inputs": [],
      "name": "TransientIndexOutOfBounds",
      "type": "error"
    },
    {
      "inputs": [],
      "name": "getPermit2",
      "outputs": [
        {
          "internalType": "contract IPermit2",
          "name": "",
          "type": "address"
        }
      ],
      "stateMutability": "view",
      "type": "function"
    },
    {
      "inputs": [],
      "name": "getSender",
      "outputs": [
        {
          "internalType": "address",
          "name": "",
          "type": "address"
        }
      ],
      "stateMutability": "view",
      "type": "function"
    },
    {
      "inputs": [],
      "name": "getVault",
      "outputs": [
        {
          "internalType": "contract IVault",
          "name": "",
          "type": "address"
        }
      ],
      "stateMutability": "view",
      "type": "function"
    },
    {
      "inputs": [],
      "name": "getWeth",
      "outputs": [
        {
          "internalType": "contract IWETH",
          "name": "",
          "type": "address"
        }
      ],
      "stateMutability": "view",
      "type": "function"
    },
    {
      "inputs": [
        {
          "internalType": "bytes[]",
          "name": "data",
          "type": "bytes[]"
        }
      ],
      "name": "multicall",
      "outputs": [
        {
          "internalType": "bytes[]",
          "name": "results",
          "type": "bytes[]"
        }
      ],
      "stateMutability": "payable",
      "type": "function"
    },
    {
      "inputs": [
        {
          "components": [
            {
              "internalType": "address",
              "name": "token",
              "type": "address"
            },
            {
              "internalType": "address",
              "name": "owner",
              "type": "address"
            },
            {
              "internalType": "address",
              "name": "spender",
              "type": "address"
            },
            {
              "internalType": "uint256",
              "name": "amount",
              "type": "uint256"
            },
            {
              "internalType": "uint256",
              "name": "nonce",
              "type": "uint256"
            },
            {
              "internalType": "uint256",
              "name": "deadline",
              "type": "uint256"
            }
          ],
          "internalType": "struct IRouterCommon.PermitApproval[]",
          "name": "permitBatch",
          "type": "tuple[]"
        },
        {
          "internalType": "bytes[]",
          "name": "permitSignatures",
          "type": "bytes[]"
        },
        {
          "components": [
            {
              "components": [
                {
                  "internalType": "address",
                  "name": "token",
                  "type": "address"
                },
                {
                  "internalType": "uint160",
                  "name": "amount",
                  "type": "uint160"
                },
                {
                  "internalType": "uint48",
                  "name": "expiration",
                  "type": "uint48"
                },
                {
                  "internalType": "uint48",
                  "name": "nonce",
                  "type": "uint48"
                }
              ],
              "internalType": "struct IAllowanceTransfer.PermitDetails[]",
              "name": "details",
              "type": "tuple[]"
            },
            {
              "internalType": "address",
              "name": "spender",
              "type": "address"
            },
            {
              "internalType": "uint256",
              "name": "sigDeadline",
              "type": "uint256"
            }
          ],
          "internalType": "struct IAllowanceTransfer.PermitBatch",
          "name": "permit2Batch",
          "type": "tuple"
        },
        {
          "internalType": "bytes",
          "name": "permit2Signature",
          "type": "bytes"
        },
        {
          "internalType": "bytes[]",
          "name": "multicallData",
          "type": "bytes[]"
        }
      ],
      "name": "permitBatchAndCall",
      "outputs": [
        {
          "internalType": "bytes[]",
          "name": "",
          "type": "bytes[]"
        }
      ],
      "stateMutability": "payable",
      "type": "function"
    },
    {
      "inputs": [
        {
          "components": [
            {
              "internalType": "contract IERC20",
              "name": "tokenIn",
              "type": "address"
            },
            {
              "components": [
                {
                  "internalType": "address",
                  "name": "pool",
                  "type": "address"
                },
                {
                  "internalType": "contract IERC20",
                  "name": "tokenOut",
                  "type": "address"
                },
                {
                  "internalType": "bool",
                  "name": "isBuffer",
                  "type": "bool"
                }
              ],
              "internalType": "struct SwapPathStep[]",
              "name": "steps",
              "type": "tuple[]"
            },
            {
              "internalType": "uint256",
              "name": "exactAmountIn",
              "type": "uint256"
            },
            {
              "internalType": "uint256",
              "name": "minAmountOut",
              "type": "uint256"
            }
          ],
          "internalType": "struct SwapPathExactAmountIn[]",
          "name": "paths",
          "type": "tuple[]"
        },
        {
          "internalType": "address",
          "name": "sender",
          "type": "address"
        },
        {
          "internalType": "bytes",
          "name": "userData",
          "type": "bytes"
        }
      ],
      "name": "querySwapExactIn",
      "outputs": [
        {
          "internalType": "uint256[]",
          "name": "pathAmountsOut",
          "type": "uint256[]"
        },
        {
          "internalType": "address[]",
          "name": "tokensOut",
          "type": "address[]"
        },
        {
          "internalType": "uint256[]",
          "name": "amountsOut",
          "type": "uint256[]"
        }
      ],
      "stateMutability": "nonpayable",
      "type": "function"
    },
    {
      "inputs": [
        {
          "components": [
            {
              "internalType": "address",
              "name": "sender",
              "type": "address"
            },
            {
              "components": [
                {
                  "internalType": "contract IERC20",
                  "name": "tokenIn",
                  "type": "address"
                },
                {
                  "components": [
                    {
                      "internalType": "address",
                      "name": "pool",
                      "type": "address"
                    },
                    {
                      "internalType": "contract IERC20",
                      "name": "tokenOut",
                      "type": "address"
                    },
                    {
                      "internalType": "bool",
                      "name": "isBuffer",
                      "type": "bool"
                    }
                  ],
                  "internalType": "struct SwapPathStep[]",
                  "name": "steps",
                  "type": "tuple[]"
                },
                {
                  "internalType": "uint256",
                  "name": "exactAmountIn",
                  "type": "uint256"
                },
                {
                  "internalType": "uint256",
                  "name": "minAmountOut",
                  "type": "uint256"
                }
              ],
              "internalType": "struct SwapPathExactAmountIn[]",
              "name": "paths",
              "type": "tuple[]"
            },
            {
              "internalType": "uint256",
              "name": "deadline",
              "type": "uint256"
            },
            {
              "internalType": "bool",
              "name": "wethIsEth",
              "type": "bool"
            },
            {
              "internalType": "bytes",
              "name": "userData",
              "type": "bytes"
            }
          ],
          "internalType": "struct SwapExactInHookParams",
          "name": "params",
          "type": "tuple"
        }
      ],
      "name": "querySwapExactInHook",
      "outputs": [
        {
          "internalType": "uint256[]",
          "name": "pathAmountsOut",
          "type": "uint256[]"
        },
        {
          "internalType": "address[]",
          "name": "tokensOut",
          "type": "address[]"
        },
        {
          "internalType": "uint256[]",
          "name": "amountsOut",
          "type": "uint256[]"
        }
      ],
      "stateMutability": "nonpayable",
      "type": "function"
    },
    {
      "inputs": [
        {
          "components": [
            {
              "internalType": "contract IERC20",
              "name": "tokenIn",
              "type": "address"
            },
            {
              "components": [
                {
                  "internalType": "address",
                  "name": "pool",
                  "type": "address"
                },
                {
                  "internalType": "contract IERC20",
                  "name": "tokenOut",
                  "type": "address"
                },
                {
                  "internalType": "bool",
                  "name": "isBuffer",
                  "type": "bool"
                }
              ],
              "internalType": "struct SwapPathStep[]",
              "name": "steps",
              "type": "tuple[]"
            },
            {
              "internalType": "uint256",
              "name": "maxAmountIn",
              "type": "uint256"
            },
            {
              "internalType": "uint256",
              "name": "exactAmountOut",
              "type": "uint256"
            }
          ],
          "internalType": "struct SwapPathExactAmountOut[]",
          "name": "paths",
          "type": "tuple[]"
        },
        {
          "internalType": "address",
          "name": "sender",
          "type": "address"
        },
        {
          "internalType": "bytes",
          "name": "userData",
          "type": "bytes"
        }
      ],
      "name": "querySwapExactOut",
      "outputs": [
        {
          "internalType": "uint256[]",
          "name": "pathAmountsIn",
          "type": "uint256[]"
        },
        {
          "internalType": "address[]",
          "name": "tokensIn",
          "type": "address[]"
        },
        {
          "internalType": "uint256[]",
          "name": "amountsIn",
          "type": "uint256[]"
        }
      ],
      "stateMutability": "nonpayable",
      "type": "function"
    },
    {
      "inputs": [
        {
          "components": [
            {
              "internalType": "address",
              "name": "sender",
              "type": "address"
            },
            {
              "components": [
                {
                  "internalType": "contract IERC20",
                  "name": "tokenIn",
                  "type": "address"
                },
                {
                  "components": [
                    {
                      "internalType": "address",
                      "name": "pool",
                      "type": "address"
                    },
                    {
                      "internalType": "contract IERC20",
                      "name": "tokenOut",
                      "type": "address"
                    },
                    {
                      "internalType": "bool",
                      "name": "isBuffer",
                      "type": "bool"
                    }
                  ],
                  "internalType": "struct SwapPathStep[]",
                  "name": "steps",
                  "type": "tuple[]"
                },
                {
                  "internalType": "uint256",
                  "name": "maxAmountIn",
                  "type": "uint256"
                },
                {
                  "internalType": "uint256",
                  "name": "exactAmountOut",
                  "type": "uint256"
                }
              ],
              "internalType": "struct SwapPathExactAmountOut[]",
              "name": "paths",
              "type": "tuple[]"
            },
            {
              "internalType": "uint256",
              "name": "deadline",
              "type": "uint256"
            },
            {
              "internalType": "bool",
              "name": "wethIsEth",
              "type": "bool"
            },
            {
              "internalType": "bytes",
              "name": "userData",
              "type": "bytes"
            }
          ],
          "internalType": "struct SwapExactOutHookParams",
          "name": "params",
          "type": "tuple"
        }
      ],
      "name": "querySwapExactOutHook",
      "outputs": [
        {
          "internalType": "uint256[]",
          "name": "pathAmountsIn",
          "type": "uint256[]"
        },
        {
          "internalType": "address[]",
          "name": "tokensIn",
          "type": "address[]"
        },
        {
          "internalType": "uint256[]",
          "name": "amountsIn",
          "type": "uint256[]"
        }
      ],
      "stateMutability": "nonpayable",
      "type": "function"
    },
    {
      "inputs": [
        {
          "components": [
            {
              "internalType": "contract IERC20",
              "name": "tokenIn",
              "type": "address"
            },
            {
              "components": [
                {
                  "internalType": "address",
                  "name": "pool",
                  "type": "address"
                },
                {
                  "internalType": "contract IERC20",
                  "name": "tokenOut",
                  "type": "address"
                },
                {
                  "internalType": "bool",
                  "name": "isBuffer",
                  "type": "bool"
                }
              ],
              "internalType": "struct SwapPathStep[]",
              "name": "steps",
              "type": "tuple[]"
            },
            {
              "internalType": "uint256",
              "name": "exactAmountIn",
              "type": "uint256"
            },
            {
              "internalType": "uint256",
              "name": "minAmountOut",
              "type": "uint256"
            }
          ],
          "internalType": "struct SwapPathExactAmountIn[]",
          "name": "paths",
          "type": "tuple[]"
        },
        {
          "internalType": "uint256",
          "name": "deadline",
          "type": "uint256"
        },
        {
          "internalType": "bool",
          "name": "wethIsEth",
          "type": "bool"
        },
        {
          "internalType": "bytes",
          "name": "userData",
          "type": "bytes"
        }
      ],
      "name": "swapExactIn",
      "outputs": [
        {
          "internalType": "uint256[]",
          "name": "pathAmountsOut",
          "type": "uint256[]"
        },
        {
          "internalType": "address[]",
          "name": "tokensOut",
          "type": "address[]"
        },
        {
          "internalType": "uint256[]",
          "name": "amountsOut",
          "type": "uint256[]"
        }
      ],
      "stateMutability": "payable",
      "type": "function"
    },
    {
      "inputs": [
        {
          "components": [
            {
              "internalType": "address",
              "name": "sender",
              "type": "address"
            },
            {
              "components": [
                {
                  "internalType": "contract IERC20",
                  "name": "tokenIn",
                  "type": "address"
                },
                {
                  "components": [
                    {
                      "internalType": "address",
                      "name": "pool",
                      "type": "address"
                    },
                    {
                      "internalType": "contract IERC20",
                      "name": "tokenOut",
                      "type": "address"
                    },
                    {
                      "internalType": "bool",
                      "name": "isBuffer",
                      "type": "bool"
                    }
                  ],
                  "internalType": "struct SwapPathStep[]",
                  "name": "steps",
                  "type": "tuple[]"
                },
                {
                  "internalType": "uint256",
                  "name": "exactAmountIn",
                  "type": "uint256"
                },
                {
                  "internalType": "uint256",
                  "name": "minAmountOut",
                  "type": "uint256"
                }
              ],
              "internalType": "struct SwapPathExactAmountIn[]",
              "name": "paths",
              "type": "tuple[]"
            },
            {
              "internalType": "uint256",
              "name": "deadline",
              "type": "uint256"
            },
            {
              "internalType": "bool",
              "name": "wethIsEth",
              "type": "bool"
            },
            {
              "internalType": "bytes",
              "name": "userData",
              "type": "bytes"
            }
          ],
          "internalType": "struct SwapExactInHookParams",
          "name": "params",
          "type": "tuple"
        }
      ],
      "name": "swapExactInHook",
      "outputs": [
        {
          "internalType": "uint256[]",
          "name": "pathAmountsOut",
          "type": "uint256[]"
        },
        {
          "internalType": "address[]",
          "name": "tokensOut",
          "type": "address[]"
        },
        {
          "internalType": "uint256[]",
          "name": "amountsOut",
          "type": "uint256[]"
        }
      ],
      "stateMutability": "nonpayable",
      "type": "function"
    },
    {
      "inputs": [
        {
          "components": [
            {
              "internalType": "contract IERC20",
              "name": "tokenIn",
              "type": "address"
            },
            {
              "components": [
                {
                  "internalType": "address",
                  "name": "pool",
                  "type": "address"
                },
                {
                  "internalType": "contract IERC20",
                  "name": "tokenOut",
                  "type": "address"
                },
                {
                  "internalType": "bool",
                  "name": "isBuffer",
                  "type": "bool"
                }
              ],
              "internalType": "struct SwapPathStep[]",
              "name": "steps",
              "type": "tuple[]"
            },
            {
              "internalType": "uint256",
              "name": "maxAmountIn",
              "type": "uint256"
            },
            {
              "internalType": "uint256",
              "name": "exactAmountOut",
              "type": "uint256"
            }
          ],
          "internalType": "struct SwapPathExactAmountOut[]",
          "name": "paths",
          "type": "tuple[]"
        },
        {
          "internalType": "uint256",
          "name": "deadline",
          "type": "uint256"
        },
        {
          "internalType": "bool",
          "name": "wethIsEth",
          "type": "bool"
        },
        {
          "internalType": "bytes",
          "name": "userData",
          "type": "bytes"
        }
      ],
      "name": "swapExactOut",
      "outputs": [
        {
          "internalType": "uint256[]",
          "name": "pathAmountsIn",
          "type": "uint256[]"
        },
        {
          "internalType": "address[]",
          "name": "tokensIn",
          "type": "address[]"
        },
        {
          "internalType": "uint256[]",
          "name": "amountsIn",
          "type": "uint256[]"
        }
      ],
      "stateMutability": "payable",
      "type": "function"
    },
    {
      "inputs": [
        {
          "components": [
            {
              "internalType": "address",
              "name": "sender",
              "type": "address"
            },
            {
              "components": [
                {
                  "internalType": "contract IERC20",
                  "name": "tokenIn",
                  "type": "address"
                },
                {
                  "components": [
                    {
                      "internalType": "address",
                      "name": "pool",
                      "type": "address"
                    },
                    {
                      "internalType": "contract IERC20",
                      "name": "tokenOut",
                      "type": "address"
                    },
                    {
                      "internalType": "bool",
                      "name": "isBuffer",
                      "type": "bool"
                    }
                  ],
                  "internalType": "struct SwapPathStep[]",
                  "name": "steps",
                  "type": "tuple[]"
                },
                {
                  "internalType": "uint256",
                  "name": "maxAmountIn",
                  "type": "uint256"
                },
                {
                  "internalType": "uint256",
                  "name": "exactAmountOut",
                  "type": "uint256"
                }
              ],
              "internalType": "struct SwapPathExactAmountOut[]",
              "name": "paths",
              "type": "tuple[]"
            },
            {
              "internalType": "uint256",
              "name": "deadline",
              "type": "uint256"
            },
            {
              "internalType": "bool",
              "name": "wethIsEth",
              "type": "bool"
            },
            {
              "internalType": "bytes",
              "name": "userData",
              "type": "bytes"
            }
          ],
          "internalType": "struct SwapExactOutHookParams",
          "name": "params",
          "type": "tuple"
        }
      ],
      "name": "swapExactOutHook",
      "outputs": [
        {
          "internalType": "uint256[]",
          "name": "pathAmountsIn",
          "type": "uint256[]"
        },
        {
          "internalType": "address[]",
          "name": "tokensIn",
          "type": "address[]"
        },
        {
          "internalType": "uint256[]",
          "name": "amountsIn",
          "type": "uint256[]"
        }
      ],
      "stateMutability": "nonpayable",
      "type": "function"
    },
    {
      "inputs": [],
      "name": "version",
      "outputs": [
        {
          "internalType": "string",
          "name": "",
          "type": "string"
        }
      ],
      "stateMutability": "view",
      "type": "function"
    },
    {
      "stateMutability": "payable",
      "type": "receive"
    }
  ],
  "bytecode": "0x6101e06040818152346106ac57615325803803809161001e82866106cb565b84398201906080838303126106ac5782516001600160a01b039384821682036106ac57602091828201519186831683036106ac5784810151968716958688036106ac5760608201516001600160401b03928382116106ac570192601f908282860112156106ac57845184811161069857601f19958951946100a58a898786011601876106cb565b8286528983830101116106ac57815f928a8093018388015e8501015261010988516100cf816106b0565b600b81526a14d95b99195c91dd585c9960aa1b898201528951906100f2826106b0565b600682526539b2b73232b960d11b8a830152610724565b60805260a0528151928311610698575f54916001928381811c9116801561068e575b8882101461067a57828111610637575b50869184116001146105da57839450908392915f946105cf575b50501b915f199060031b1c1916175f555b6101ba8351610174816106b0565b600c81526b2937baba32b921b7b6b6b7b760a11b84820152845190610198826106b0565b60118252701a5cd4995d1d5c9b915d1a131bd8dad959607a1b85830152610724565b60c05260e0526101009384526101209215835261020982516101db816106b0565b601381527f63757272656e7453776170546f6b656e73496e00000000000000000000000000838201526106ee565b61014090815261024b835161021d816106b0565b601481527f63757272656e7453776170546f6b656e734f7574000000000000000000000000848201526106ee565b61016090815261028d845161025f816106b0565b601981527f63757272656e7453776170546f6b656e496e416d6f756e747300000000000000858201526106ee565b916101809283526103136102d386516102a5816106b0565b601a81527f63757272656e7453776170546f6b656e4f7574416d6f756e7473000000000000878201526106ee565b946101a09586527f736574746c6564546f6b656e416d6f756e747300000000000000000000000000875191610307836106b0565b601383528201526106ee565b946101c09586525195614b4e97886107d789396080518881816102cb01528181610599015281816118a00152612afb015260a05188818161026701528181610506015281816119fd01528181611c6401528181611eb301528181611ff901528181612031015281816120ae0152818161220e015281816123940152818161247b0152818161250b015281816125c901528181612d5201528181612fa401528181612fe10152818161305e0152818161310c015281816131f401528181613271015281816133d30152818161340b01528181613489015281816136bb01528181613807015281816138940152818161396401528181613e8d01528181613fe70152818161411e01528181614393015281816144910152614989015260c0518881816118050152613cb2015260e051888181602201528181610fb001528181613ef70152818161403d015281816141b80152818161432501526145e40152518781816108d101528181610abc01528181610bd00152818161213c01528181613518015261446d0152518681816109d10152818161183401528181611ae101528181611b5501528181611f8101528181612b5601528181612c9801528181612dbe0152818161335d01528181613774015281816139da01528181613b710152613dff015251858181612691015281816127f70152818161299701528181612b7c0152613bcd015251848181611ce301528181611f09015281816123d9015281816126f30152818161297301528181612e290152613a9b015251838181611df2015281816126bd01528181612819015281816129c301528181612de80152818161374e015281816139b301528181613add0152613bef015251828181611d0a01528181612724015281816129fb01528181612e51015261370d0152518181816124000152818161274601528181612e82015281816131580152613aff0152f35b015192505f80610155565b91938316915f805283875f20935f5b89888383106106205750505010610608575b505050811b015f55610166565b01515f1960f88460031b161c191690555f80806105fb565b8686015188559096019594850194879350016105e9565b5f8052875f208380870160051c8201928a8810610671575b0160051c019084905b82811061066657505061013b565b5f8155018490610658565b9250819261064f565b634e487b7160e01b5f52602260045260245ffd5b90607f169061012b565b634e487b7160e01b5f52604160045260245ffd5b5f80fd5b604081019081106001600160401b0382111761069857604052565b601f909101601f19168101906001600160401b0382119082101761069857604052565b610721906040516106fe816106b0565b60118152702130ba31b42937baba32b921b7b6b6b7b760791b6020820152610724565b90565b90610791603a60209260405193849181808401977f62616c616e6365722d6c6162732e76332e73746f726167652e000000000000008952805191829101603986015e830190601760f91b60398301528051928391018583015e015f8382015203601a8101845201826106cb565b5190205f1981019081116107c2576040519060208201908152602082526107b7826106b0565b9051902060ff191690565b634e487b7160e01b5f52601160045260245ffdfe60a06040526004361015610072575b3615610018575f80fd5b6001600160a01b037f000000000000000000000000000000000000000000000000000000000000000016330361004a57005b7f0540ddf6000000000000000000000000000000000000000000000000000000005f5260045ffd5b5f3560e01c806308a465f614610fd4578063107c279f14610f9157806319c6989f146108f55780631bbf2e23146108b2578063286f580d1461081b5780632950286e1461073057806354fd4d50146105f35780635a3c3987146105ca5780635e01eb5a146105855780638a12a08c1461052a5780638d928af8146104e75780638eb1b65e146103e0578063945ed33f14610365578063ac9650d8146103215763e3b5dff40361000e573461031d5760608060031936011261031d5767ffffffffffffffff60043581811161031d5761014e9036906004016113fb565b6101566112d8565b60443592831161031d57610171610179933690600401611104565b939091612af6565b905f5b835181101561019d57805f87610194600194886117b6565b5101520161017c565b5061021161021f61025a946101d75f9488604051936101bb85611251565b30855260208501525f19604085015286606085015236916114b8565b60808201526040519283917f8a12a08c000000000000000000000000000000000000000000000000000000006020840152602483016114ee565b03601f198101835282611289565b604051809481927fedfa3568000000000000000000000000000000000000000000000000000000008352602060048401526024830190611132565b0381836001600160a01b037f0000000000000000000000000000000000000000000000000000000000000000165af1918215610312576102c4926102af915f916102f0575b50602080825183010191016116f9565b909391926102c8575b60405193849384611066565b0390f35b5f7f00000000000000000000000000000000000000000000000000000000000000005d6102b8565b61030c91503d805f833e6103048183611289565b810190611672565b8461029f565b6040513d5f823e3d90fd5b5f80fd5b602060031936011261031d5760043567ffffffffffffffff811161031d576103596103536102c49236906004016110d3565b906117f7565b60405191829182611157565b3461031d5761037336611001565b61037b6119c6565b6103836119f3565b6103b16102c461039283612b38565b919390946103ab60606103a48361147b565b920161148f565b90612970565b5f7f9b779b17422d0df92223018b32b4d1fa46e071723d6817e2486d003becc55f005d60405193849384611066565b608060031936011261031d5767ffffffffffffffff60043581811161031d5761040d9036906004016113fb565b906104166112ee565b9060643590811161031d576102116104ac61025a9461047261043d5f953690600401611104565b61044633612af6565b976040519461045486611251565b338652602086015260243560408601521515606085015236916114b8565b60808201526040519283917f945ed33f000000000000000000000000000000000000000000000000000000006020840152602483016114ee565b604051809481927f48c89491000000000000000000000000000000000000000000000000000000008352602060048401526024830190611132565b3461031d575f60031936011261031d5760206040516001600160a01b037f0000000000000000000000000000000000000000000000000000000000000000168152f35b3461031d576102c461055361053e36611001565b6105466119c6565b61054e6119f3565b611abc565b5f7f9b779b17422d0df92223018b32b4d1fa46e071723d6817e2486d003becc55f009492945d60405193849384611066565b3461031d575f60031936011261031d5760207f00000000000000000000000000000000000000000000000000000000000000005c6001600160a01b0360405191168152f35b3461031d576102c46105536105de36611001565b6105e66119c6565b6105ee6119f3565b612b38565b3461031d575f60031936011261031d576040515f5f549060018260011c9160018416918215610726575b60209485851084146106f95785879486865291825f146106bb575050600114610662575b5061064e92500383611289565b6102c4604051928284938452830190611132565b5f808052859250907f290decd9548b62a8d60345a988386fc84ba6bc95484008f6362f93160ef3e5635b8583106106a357505061064e935082010185610641565b8054838901850152879450869390920191810161068c565b7fffffffffffffffffffffffffffffffffffffffffffffffffffffffffffffff00168582015261064e95151560051b85010192508791506106419050565b7f4e487b71000000000000000000000000000000000000000000000000000000005f52602260045260245ffd5b92607f169261061d565b3461031d57606060031936011261031d5767ffffffffffffffff60043581811161031d576107629036906004016113fb565b9061076b6112d8565b60443591821161031d5761078661078e923690600401611104565b929091612af6565b905f5b84518110156107c357806fffffffffffffffffffffffffffffffff60406107ba600194896117b6565b51015201610791565b5061021161021f856107e15f9461025a97604051936101bb85611251565b60808201526040519283917f5a3c3987000000000000000000000000000000000000000000000000000000006020840152602483016114ee565b608060031936011261031d5767ffffffffffffffff60043581811161031d576108489036906004016113fb565b906108516112ee565b9060643590811161031d576102116104ac61025a9461087861043d5f953690600401611104565b60808201526040519283917f08a465f6000000000000000000000000000000000000000000000000000000006020840152602483016114ee565b3461031d575f60031936011261031d5760206040516001600160a01b037f0000000000000000000000000000000000000000000000000000000000000000168152f35b60a060031936011261031d5767ffffffffffffffff6004351161031d5736602360043501121561031d5767ffffffffffffffff600435600401351161031d5736602460c0600435600401350260043501011161031d5760243567ffffffffffffffff811161031d5761096b9036906004016110d3565b67ffffffffffffffff6044351161031d5760606003196044353603011261031d5760643567ffffffffffffffff811161031d576109ac903690600401611104565b60843567ffffffffffffffff811161031d576109cc9036906004016110d3565b9490937f0000000000000000000000000000000000000000000000000000000000000000610f69576109fc6119c6565b806004356004013503610f41575f5b600435600401358110610c9e5750505060443560040135907fffffffffffffffffffffffffffffffffffffffffffffffffffffffffffffffdd60443536030182121561031d57816044350160048101359067ffffffffffffffff821161031d5760248260071b360391011361031d57610aaf575b6102c461035986865f7f9b779b17422d0df92223018b32b4d1fa46e071723d6817e2486d003becc55f005d6117f7565b6001600160a01b039492947f0000000000000000000000000000000000000000000000000000000000000000163b1561031d57604051947f2a2d80d10000000000000000000000000000000000000000000000000000000086523360048701526060602487015260c486019260443501602481019367ffffffffffffffff60048301351161031d57600482013560071b3603851361031d5760606064890152600482013590529192869260e484019291905f905b60048101358210610c2057505050602091601f19601f865f9787956001600160a01b03610b946024604435016112c4565b16608488015260448035013560a48801526003198787030160448801528186528786013787868286010152011601030181836001600160a01b037f0000000000000000000000000000000000000000000000000000000000000000165af1918215610312576102c49361035993610c11575b829450819350610a7f565b610c1a9061123d565b84610c06565b9195945091926001600160a01b03610c37876112c4565b168152602080870135916001600160a01b03831680930361031d57600492600192820152610c6760408901612ae3565b65ffffffffffff8091166040830152610c8260608a01612ae3565b1660608201526080809101970193019050889495939291610b63565b610cb3610cac8284866119ab565b36916114b8565b604051610cbf816111d8565b5f81526020915f838301525f60408301528281015190606060408201519101515f1a91835283830152604082015260c07fffffffffffffffffffffffffffffffffffffffffffffffffffffffffffffffdc818502600435013603011261031d5760405190610d2c82611221565b610d3f602460c0860260043501016112c4565b808352610d55604460c0870260043501016112c4565b908185850152610d6e606460c0880260043501016112c4565b60408581019190915260043560c08802016084810135606087015260a4810135608087015260c4013560a086015283015183519386015160ff91909116926001600160a01b0383163b1561031d575f6001600160a01b03809460e4948b98849860c460c06040519c8d9b8c9a7fd505accf000000000000000000000000000000000000000000000000000000008c521660048b01523060248b0152608482820260043501013560448b0152026004350101356064880152608487015260a486015260c4850152165af19081610f32575b50610f2857610e4b612ab4565b906001600160a01b0381511690836001600160a01b0381830151166044604051809581937fdd62ed3e00000000000000000000000000000000000000000000000000000000835260048301523060248301525afa918215610312575f92610ef8575b506060015103610ec35750506001905b01610a0b565b805115610ed05780519101fd5b7fa7285689000000000000000000000000000000000000000000000000000000005f5260045ffd5b9091508381813d8311610f21575b610f108183611289565b8101031261031d5751906060610ead565b503d610f06565b5050600190610ebd565b610f3b9061123d565b8a610e3e565b7faaad13f7000000000000000000000000000000000000000000000000000000005f5260045ffd5b7f29a270f5000000000000000000000000000000000000000000000000000000005f5260045ffd5b3461031d575f60031936011261031d5760206040516001600160a01b037f0000000000000000000000000000000000000000000000000000000000000000168152f35b3461031d57610fe236611001565b610fea6119c6565b610ff26119f3565b6103b16102c461039283611abc565b6003199060208282011261031d576004359167ffffffffffffffff831161031d578260a09203011261031d5760040190565b9081518082526020808093019301915f5b828110611052575050505090565b835185529381019392810192600101611044565b93929061107b90606086526060860190611033565b936020948181036020830152602080855192838152019401905f5b8181106110b6575050506110b39394506040818403910152611033565b90565b82516001600160a01b031686529487019491870191600101611096565b9181601f8401121561031d5782359167ffffffffffffffff831161031d576020808501948460051b01011161031d57565b9181601f8401121561031d5782359167ffffffffffffffff831161031d576020838186019501011161031d57565b90601f19601f602080948051918291828752018686015e5f8582860101520116010190565b6020808201906020835283518092526040830192602060408460051b8301019501935f915b84831061118c5750505050505090565b90919293949584806111c8837fffffffffffffffffffffffffffffffffffffffffffffffffffffffffffffffc086600196030187528a51611132565b980193019301919493929061117c565b6060810190811067ffffffffffffffff8211176111f457604052565b7f4e487b71000000000000000000000000000000000000000000000000000000005f52604160045260245ffd5b60c0810190811067ffffffffffffffff8211176111f457604052565b67ffffffffffffffff81116111f457604052565b60a0810190811067ffffffffffffffff8211176111f457604052565b60e0810190811067ffffffffffffffff8211176111f457604052565b90601f601f19910116810190811067ffffffffffffffff8211176111f457604052565b67ffffffffffffffff81116111f45760051b60200190565b35906001600160a01b038216820361031d57565b602435906001600160a01b038216820361031d57565b60443590811515820361031d57565b91909160808184031261031d57604090815191608083019467ffffffffffffffff95848110878211176111f45782528395611337846112c4565b85526020908185013590811161031d57840182601f8201121561031d57803590611360826112ac565b9361136d86519586611289565b828552838501908460608095028401019281841161031d578501915b8383106113ab5750505050508401528181013590830152606090810135910152565b848383031261031d578751906113c0826111d8565b6113c9846112c4565b82526113d68785016112c4565b878301528884013590811515820361031d578288928b89950152815201920191611389565b81601f8201121561031d57803591602091611415846112ac565b936114236040519586611289565b808552838086019160051b8301019280841161031d57848301915b84831061144e5750505050505090565b823567ffffffffffffffff811161031d578691611470848480948901016112fd565b81520192019161143e565b356001600160a01b038116810361031d5790565b35801515810361031d5790565b67ffffffffffffffff81116111f457601f01601f191660200190565b9291926114c48261149c565b916114d26040519384611289565b82948184528183011161031d578281602093845f960137010152565b60209182825260c08201926001600160a01b038083511682850152818301519460a09260409360a085880152875180935260e087018260e08560051b8a01019901945f925b8584106115715750505050505050816080916110b395949301516060840152606081015115158284015201519060a0601f1982850301910152611132565b9091929394959a997fffffffffffffffffffffffffffffffffffffffffffffffffffffffffffffff208a8203018452858c51916080928382018682511683528382015194848401528451809152838684019501905f905b8d8183106115f9578401518e8601525050506060908101519101529a9b909a90810196959460010193019190611533565b835180518b168952808801518b16888a01528101511515908801526060909601958b9590920191600191909101906115c8565b81601f8201121561031d578051906116438261149c565b926116516040519485611289565b8284526020838301011161031d57815f9260208093018386015e8301015290565b9060208282031261031d57815167ffffffffffffffff811161031d576110b3920161162c565b9080601f8301121561031d578151906020916116b3816112ac565b936116c16040519586611289565b81855260208086019260051b82010192831161031d57602001905b8282106116ea575050505090565b815181529083019083016116dc565b909160608284031261031d5781519167ffffffffffffffff9283811161031d5784611725918301611698565b9360208083015185811161031d5783019082601f8301121561031d5781519161174d836112ac565b9261175b6040519485611289565b808452828085019160051b8301019185831161031d578301905b828210611797575050505093604083015190811161031d576110b39201611698565b81516001600160a01b038116810361031d578152908301908301611775565b80518210156117ca5760209160051b010190565b7f4e487b71000000000000000000000000000000000000000000000000000000005f52603260045260245ffd5b919061180233612af6565b907f000000000000000000000000000000000000000000000000000000000000000093845c611932576001906001865d7f0000000000000000000000000000000000000000000000000000000000000000610f6957611860836112ac565b9261186e6040519485611289565b808452601f1961187d826112ac565b015f5b8181106119215750505f5b8181106118d85750505050905f6118cd92945d7f0000000000000000000000000000000000000000000000000000000000000000805c916118cf575b50613ca9565b565b5f905d5f6118c7565b806119055f806118ed610cac8996888a6119ab565b602081519101305af46118fe612ab4565b9030614247565b61190f82886117b6565b5261191a81876117b6565b500161188b565b806060602080938901015201611880565b7f3ee5aeb5000000000000000000000000000000000000000000000000000000005f5260045ffd5b9035907fffffffffffffffffffffffffffffffffffffffffffffffffffffffffffffffe18136030182121561031d570180359067ffffffffffffffff821161031d5760200191813603831361031d57565b908210156117ca576119c29160051b81019061195a565b9091565b7f9b779b17422d0df92223018b32b4d1fa46e071723d6817e2486d003becc55f00805c611932576001905d565b6001600160a01b037f0000000000000000000000000000000000000000000000000000000000000000163303611a2557565b7f089676d5000000000000000000000000000000000000000000000000000000005f523360045260245ffd5b90611a5b826112ac565b611a686040519182611289565b828152601f19611a7882946112ac565b0190602036910137565b91908201809211611a8f57565b7f4e487b71000000000000000000000000000000000000000000000000000000005f52601160045260245ffd5b6040810135421161290a57611ade611ad76020830183613cec565b9050611a51565b907f00000000000000000000000000000000000000000000000000000000000000006127f3575b5f92915b611b166020830183613cec565b90508410156126ea57611b4084611b3b611b336020860186613cec565b369391613d40565b6112fd565b936040850151916001600160a01b03865116947f000000000000000000000000000000000000000000000000000000000000000015612645575b5f5b60208801515180821015612633575f198101908111611a8f5781810361262d5760608901515b611bb08360208c01516117b6565b51604081015190919015611d6e576001600160a01b0382511690611c576001600160a01b03602085015116916001600160a01b038d1684145f14611d67576001935b60405194611bff86611251565b5f8652611c0b8161460d565b6020860152604085015260609384918c838301526080820152604051809381927f43583be500000000000000000000000000000000000000000000000000000000835260048301614871565b03815f6001600160a01b037f0000000000000000000000000000000000000000000000000000000000000000165af1928315610312575f93611d35575b505081848614611cd9575b5050915b8303611cc0575090600191611cb886866117b6565b525b01611b7c565b602001516001600160a01b031697509450600190611cba565b81611d07611d2e937f00000000000000000000000000000000000000000000000000000000000000006142a1565b507f00000000000000000000000000000000000000000000000000000000000000006142eb565b5f81611c9f565b611d55929350803d10611d60575b611d4d8183611289565b810190614644565b915050905f80611c94565b503d611d43565b5f93611bf2565b816001600160a01b038151168b8b826001600160a01b038316145f146122ad579050611da0925060809150018a61195a565b9190611dab8b61147b565b908c8b611dd36001600160a01b03885116936001600160a01b0360208a0151169736916114b8565b938961220057811515806121ed575b611f7c575b50935f9291611ea6957f00000000000000000000000000000000000000000000000000000000000000006001600160a01b038316865280602052604086205c611f61575b5050505b80158314611f585750611e4560015b868361493b565b939060405192611e5484611221565b83523060208401528d604084015260608301526001608083015260a0820152604051809481927f2145789700000000000000000000000000000000000000000000000000000000835260048301614800565b0381836001600160a01b037f0000000000000000000000000000000000000000000000000000000000000000165af1801561031257611eec925f91611f34575b506117b6565b519081848614611eff575b505091611ca3565b81611d07611f2d937f00000000000000000000000000000000000000000000000000000000000000006142a1565b5f81611ef7565b611f5091503d805f833e611f488183611289565b8101906147b8565b915090611ee6565b611e4590611e3e565b6001600160a01b03611f74931690614a15565b8e8d5f611e2b565b9091907f00000000000000000000000000000000000000000000000000000000000000001561212e57506040517f15afd4090000000000000000000000000000000000000000000000000000000081526001600160a01b0390911660048201526024810191909152602081806044810103815f6001600160a01b037f0000000000000000000000000000000000000000000000000000000000000000165af18015610312576120ff575b506001600160a01b037f0000000000000000000000000000000000000000000000000000000000000000163b1561031d576040517fae6393290000000000000000000000000000000000000000000000000000000081526001600160a01b038e166004820152306024820152604481018c9052905f8280606481010381836001600160a01b037f0000000000000000000000000000000000000000000000000000000000000000165af1938415610312578e5f93611ea6966120f0575b505b91928d919550611de7565b6120f99061123d565b5f6120e3565b6020813d602011612126575b8161211860209383611289565b8101031261031d5751612026565b3d915061210b565b929150506001600160a01b037f0000000000000000000000000000000000000000000000000000000000000000166121658d6148f7565b813b1561031d576040517f36c785160000000000000000000000000000000000000000000000000000000081526001600160a01b0394851660048201523060248201529084166044820152928f1660648401525f908390608490829084905af1938415610312578e5f93611ea6966121de575b506120e5565b6121e79061123d565b5f6121d8565b50306001600160a01b0382161415611de2565b505050916001600160a01b037f00000000000000000000000000000000000000000000000000000000000000001692833b1561031d576040517fae6393290000000000000000000000000000000000000000000000000000000081526001600160a01b0382166004820152306024820152604481018d9052935f908590606490829084905af191821561031257611ea6945f9361229e575b50611e2f565b6122a79061123d565b5f612298565b909192938b60208601946001600160a01b03865116908082145f146125315750509260015f936123879793612317612302976123106080946001600160a01b03806122fa8884018461195a565b9d909361147b565b9a51169c51169a36916114b8565b958a61493b565b50948b8d14871461250057945b6001600160a01b036040519661233988611221565b8a88521660208701526040860152606085015283015260a0820152604051809581927f4af29ec400000000000000000000000000000000000000000000000000000000835260048301614747565b0381836001600160a01b037f0000000000000000000000000000000000000000000000000000000000000000165af1928315610312575f936124d9575b50829086860361242a5761242492506123fd817f00000000000000000000000000000000000000000000000000000000000000006142a1565b507f00000000000000000000000000000000000000000000000000000000000000006142eb565b91611ca3565b506040517f15afd4090000000000000000000000000000000000000000000000000000000081526001600160a01b0390921660048301526024820152602081806044810103815f6001600160a01b037f0000000000000000000000000000000000000000000000000000000000000000165af18015610312576124ae575b50612424565b602090813d83116124d2575b6124c48183611289565b8101031261031d575f6124a8565b503d6124ba565b6124f69193503d805f833e6124ee8183611289565b8101906146cb565b50929050826123c4565b506001600160a01b037f00000000000000000000000000000000000000000000000000000000000000001694612324565b929095506125bc949196506001600160a01b03612556610cac6080968781019061195a565b92604051946125648661126d565b5f865260208601521660408401526060968794878686015284015260a083015260c0820152604051809381927f2bfb780c0000000000000000000000000000000000000000000000000000000083526004830161465f565b03815f6001600160a01b037f0000000000000000000000000000000000000000000000000000000000000000165af1928315610312575f9361260b575b505081848614611eff57505091611ca3565b612622929350803d10611d6057611d4d8183611289565b915050905f806125f9565b5f611ba2565b50509550935060019150019291611b09565b60208701518051156117ca5760200151604001511515806126e1575b1561268b576126866126728661147b565b858861268060608a0161148f565b92614304565b611b7a565b6126b5867f00000000000000000000000000000000000000000000000000000000000000006142a1565b5061268684877f00000000000000000000000000000000000000000000000000000000000000006142eb565b50321515612661565b925061271790507f0000000000000000000000000000000000000000000000000000000000000000613d8d565b916127228351611a51565b7f0000000000000000000000000000000000000000000000000000000000000000937f0000000000000000000000000000000000000000000000000000000000000000925f5b82518110156127ea576001906001600160a01b038061278783876117b6565b51165f528660205260405f205c8161279f84886117b6565b51165f52896020526127b58160405f205c611a82565b6127bf84896117b6565b526127cc575b5001612768565b6127d682866117b6565b51165f52856020525f604081205d5f6127c5565b50945092909150565b5f907f0000000000000000000000000000000000000000000000000000000000000000937f0000000000000000000000000000000000000000000000000000000000000000925b6128476020840184613cec565b9050811015612895578061288f61286a600193611b3b611b336020890189613cec565b60406001600160a01b03612881818451168c6142a1565b5082511691015190876142eb565b0161283a565b50936128a090613d8d565b935f5b855181101561290057806001600160a01b036128c1600193896117b6565b5116805f52856020526128ee60405f205c826128dc8861147b565b6128e860608a0161148f565b90613df9565b5f52846020525f604081205d016128a3565b5093509050611b05565b7fe08b8af0000000000000000000000000000000000000000000000000000000005f5260045ffd5b905f198201918213600116611a8f57565b7f80000000000000000000000000000000000000000000000000000000000000008114611a8f575f190190565b907f000000000000000000000000000000000000000000000000000000000000000090815c7f00000000000000000000000000000000000000000000000000000000000000006129c0815c612932565b907f0000000000000000000000000000000000000000000000000000000000000000915b5f811215612a81575050506129f890612932565b917f0000000000000000000000000000000000000000000000000000000000000000925b5f811215612a3157505050506118cd90613ca9565b612a7c90825f52612a7660205f83828220015c9182825288815288604091612a698a8d8587205c906001600160a01b03891690613fc3565b8484525281205d84613f20565b50612943565b612a1c565b612aaf90825f52612a76885f88876020612a6987828620015c95868652838352866040958688205c92613df9565b6129e4565b3d15612ade573d90612ac58261149c565b91612ad36040519384611289565b82523d5f602084013e565b606090565b359065ffffffffffff8216820361031d57565b905f917f00000000000000000000000000000000000000000000000000000000000000006001600160a01b03815c1615612b2e575050565b909192505d600190565b6040810135421161290a57612b53611ad76020830183613cec565b907f0000000000000000000000000000000000000000000000000000000000000000613bc9575b7f000000000000000000000000000000000000000000000000000000000000000092915f5b612bac6020840184613cec565b9050811015613ac457612bc981611b3b611b336020870187613cec565b606081015190612be36001600160a01b03825116886142a1565b506020810151515f198101908111611a8f575b5f811215612c0957505050600101612b9f565b612c178160208401516117b6565b5160208301515190815f19810111611a8f575f1982018314613a83575b5f60805282613a44576040840151608052876001600160a01b03855116925b604083015115612ef85750916060612c6d612d459461147b565b6001600160a01b03612c80838d0161148f565b945116906001600160a01b03885116946040890151857f00000000000000000000000000000000000000000000000000000000000000001580612ef0575b80612ee7575b612ed5575b505050506001600160a01b0383168103612ece576001905b60405191612cee83611251565b60018352612cfb8161460d565b6020830152604082015287828201526080516080820152604051809581927f43583be500000000000000000000000000000000000000000000000000000000835260048301614871565b03815f6001600160a01b037f0000000000000000000000000000000000000000000000000000000000000000165af1928315610312575f93612eab575b508315612db7575b50505b81612dac5790612da791612da186886117b6565b52612943565b612bf6565b9250612da790612943565b612e7591837f000000000000000000000000000000000000000000000000000000000000000015612e7c57612e0c917f00000000000000000000000000000000000000000000000000000000000000006142eb565b6001600160a01b03612e2084608051613d80565b91612e4d8282167f00000000000000000000000000000000000000000000000000000000000000006142a1565b50167f00000000000000000000000000000000000000000000000000000000000000006142eb565b5f80612d8a565b612ea6917f00000000000000000000000000000000000000000000000000000000000000006142eb565b612e0c565b612ec591935060603d606011611d6057611d4d8183611289565b93915092612d82565b5f90612ce1565b612ede93614304565b5f808085612cc9565b50321515612cc4565b508915612cbe565b6001600160a01b0383511690816001600160a01b038616145f146135d15750506080612f2591018961195a565b612f4f612f348b95939561147b565b946001600160a01b03602081875116960151169236916114b8565b608051909190888715613333575050604051937f967870920000000000000000000000000000000000000000000000000000000085526001600160a01b03841660048601526020856024816001600160a01b037f0000000000000000000000000000000000000000000000000000000000000000165afa948515610312575f956132ff575b5084926001600160a01b037f0000000000000000000000000000000000000000000000000000000000000000163b1561031d576040517fae6393290000000000000000000000000000000000000000000000000000000081526001600160a01b038316600482015230602482015260448101969096525f8680606481010381836001600160a01b037f0000000000000000000000000000000000000000000000000000000000000000165af1958615610312578a5f9461309f926130ff996132f0575b505b8461493b565b50604051926130ad84611221565b835230602084015284604084015260608301526002608083015260a0820152604051809581927f2145789700000000000000000000000000000000000000000000000000000000835260048301614800565b0381836001600160a01b037f0000000000000000000000000000000000000000000000000000000000000000165af1928315610312575f936132d0575b5092829385155f146131c25761317c846001600160a01b0385167f00000000000000000000000000000000000000000000000000000000000000006142eb565b808410806131af575b613193575b50505050612d8d565b6131a6936131a091613d80565b91614a5b565b805f808061318a565b50306001600160a01b0383161415613185565b838194939250106131d6575b505050612d8d565b6131e560209261326494613d80565b9061321a826001600160a01b037f00000000000000000000000000000000000000000000000000000000000000001683614a5b565b60405193849283927f15afd40900000000000000000000000000000000000000000000000000000000845260048401602090939291936001600160a01b0360408201951681520152565b03815f6001600160a01b037f0000000000000000000000000000000000000000000000000000000000000000165af18015610312576132a5575b81816131ce565b602090813d83116132c9575b6132bb8183611289565b8101031261031d575f61329e565b503d6132b1565b6132e59193503d805f833e611f488183611289565b50909290508261313c565b6132f99061123d565b5f613097565b9094506020813d60201161332b575b8161331b60209383611289565b8101031261031d5751935f612fd4565b3d915061330e565b90929491306001600160a01b03881603613358575b9461309f5f93926130ff97613099565b9190507f00000000000000000000000000000000000000000000000000000000000000001561350e576040517f15afd4090000000000000000000000000000000000000000000000000000000081526080516001600160a01b03861660048301526024820152602081806044810103815f6001600160a01b037f0000000000000000000000000000000000000000000000000000000000000000165af18015610312576134df575b506001600160a01b037f0000000000000000000000000000000000000000000000000000000000000000163b1561031d576040517fae6393290000000000000000000000000000000000000000000000000000000081526080516001600160a01b03861660048301523060248301526044820152945f8680606481010381836001600160a01b037f0000000000000000000000000000000000000000000000000000000000000000165af1958615610312578a5f9461309f926130ff996134d0575b505b92975092935050613348565b6134d99061123d565b5f6134c2565b6020813d602011613506575b816134f860209383611289565b8101031261031d5751613400565b3d91506134eb565b6001600160a01b037f000000000000000000000000000000000000000000000000000000000000000016946135446080516148f7565b95803b1561031d576040517f36c785160000000000000000000000000000000000000000000000000000000081526001600160a01b038981166004830152306024830152978816604482015296861660648801525f908790608490829084905af1958615610312578a5f9461309f926130ff996135c2575b506134c4565b6135cb9061123d565b5f6135bc565b9091939260208101926001600160a01b038451168181145f146138ba57505061361c945f6136ae9261362a6080936001600160a01b03806136148784018461195a565b9c909361147b565b9451169851169936916114b8565b60026136396080518a8a61493b565b9590935f1989018d14861461388957935b6001600160a01b036040519561365f87611221565b8b875216602086015260408501528d606085015283015260a0820152604051809481927f4af29ec400000000000000000000000000000000000000000000000000000000835260048301614747565b0381836001600160a01b037f0000000000000000000000000000000000000000000000000000000000000000165af18015610312576136f3925f9161386e57506117b6565b519385613865575f1988925b0186036137b65761373192507f0000000000000000000000000000000000000000000000000000000000000000614a15565b821561373e575b50612d8d565b613772826001600160a01b0383167f00000000000000000000000000000000000000000000000000000000000000006142eb565b7f000000000000000000000000000000000000000000000000000000000000000015613738576137b0906001600160a01b03612e2084608051613d80565b5f613738565b506040517f15afd4090000000000000000000000000000000000000000000000000000000081526001600160a01b0390921660048301526024820152602081806044810103815f6001600160a01b037f0000000000000000000000000000000000000000000000000000000000000000165af180156103125761383a575b50613731565b602090813d831161385e575b6138508183611289565b8101031261031d575f613834565b503d613846565b5f1985926136ff565b61388291503d805f833e6124ee8183611289565b9050611ee6565b506001600160a01b037f0000000000000000000000000000000000000000000000000000000000000000169361364a565b9091506138ea9493506060925088613957966138db6080918281019061195a565b979060408c01519836916114b8565b92604051946138f88661126d565b6001865260208601526001600160a01b03871660408601528585015283015260805160a083015260c0820152604051809581927f2bfb780c0000000000000000000000000000000000000000000000000000000083526004830161465f565b03815f6001600160a01b037f0000000000000000000000000000000000000000000000000000000000000000165af1928315610312575f93613a21575b5083156139a3575b5050612d8d565b6139d7836001600160a01b0383167f00000000000000000000000000000000000000000000000000000000000000006142eb565b827f0000000000000000000000000000000000000000000000000000000000000000613a04575b5061399c565b612e206001600160a01b0391613a1994613d80565b5f80826139fe565b613a3b91935060603d606011611d6057611d4d8183611289565b93915092613994565b6fffffffffffffffffffffffffffffffff608052876001600160a01b036020613a7981880151613a7388612932565b906117b6565b5101511692612c53565b613abf856001600160a01b03602084015116611d07817f00000000000000000000000000000000000000000000000000000000000000006142a1565b612c34565b50613ad0915092613d8d565b91613adb8351611a51565b7f0000000000000000000000000000000000000000000000000000000000000000917f0000000000000000000000000000000000000000000000000000000000000000905f5b8651811015613bc057806001600160a01b03613b3f6001938a6117b6565b5116805f528460205260405f205c87602052613b5f8160405f205c611a82565b613b6984896117b6565b52613bae575b7f0000000000000000000000000000000000000000000000000000000000000000613b9c575b5001613b21565b5f52856020525f604081205d5f613b95565b805f52846020525f604081205d613b6f565b50949391925050565b5f907f0000000000000000000000000000000000000000000000000000000000000000937f0000000000000000000000000000000000000000000000000000000000000000925b613c1d6020840184613cec565b9050811015613c465780613c4061286a600193611b3b611b336020890189613cec565b01613c10565b5093613c5190613d8d565b935f5b8551811015613c9f57806001600160a01b03613c72600193896117b6565b5116805f5285602052613c8d60405f205c826128dc8861147b565b5f52846020525f604081205d01613c54565b5093509050612b7a565b478015613ce8577f00000000000000000000000000000000000000000000000000000000000000005c613ce8576001600160a01b036118cd92166141e9565b5050565b9035907fffffffffffffffffffffffffffffffffffffffffffffffffffffffffffffffe18136030182121561031d570180359067ffffffffffffffff821161031d57602001918160051b3603831361031d57565b91908110156117ca5760051b810135907fffffffffffffffffffffffffffffffffffffffffffffffffffffffffffffff818136030182121561031d570190565b91908203918211611a8f57565b90815c613d99816112ac565b613da66040519182611289565b818152613db2826112ac565b601f196020910136602084013781945f5b848110613dd1575050505050565b600190825f5280845f20015c6001600160a01b03613def83886117b6565b9116905201613dc3565b929091927f0000000000000000000000000000000000000000000000000000000000000000158015613ee3575b15613e3e576001600160a01b036118cd941690614304565b506040517f15afd4090000000000000000000000000000000000000000000000000000000081526001600160a01b03938416600482015260248101919091529160209150829060449082905f907f0000000000000000000000000000000000000000000000000000000000000000165af1801561031257613ebc5750565b602090813d8311613edc575b613ed28183611289565b8101031261031d57565b503d613ec8565b50828015613e2657506001600160a01b03807f00000000000000000000000000000000000000000000000000000000000000001690851614613e26565b6001810191805f5260209183835260405f205c8015155f14613fba575f1990818101835c8380820191828403613f7d575b5050505050815c81810192818411611a8f575f93815d835284832001015d5f52525f604081205d600190565b613f8a613f9a9388614a2a565b865f52885f2001015c9185614a2a565b835f52808383885f2001015d5f5285855260405f205d5f80808381613f51565b50505050505f90565b909392935f9483156141e157806141ac575b1561410f57506001600160a01b0390817f000000000000000000000000000000000000000000000000000000000000000016803b1561031d576040517fae6393290000000000000000000000000000000000000000000000000000000081525f8160648183887f000000000000000000000000000000000000000000000000000000000000000016968760048401523060248401528a60448401525af18015610312576140fc575b508086913b156140f85781906024604051809481937f2e1a7d4d0000000000000000000000000000000000000000000000000000000083528960048401525af180156140ed576140d5575b506118cd939450166141e9565b6140df869161123d565b6140e957846140c8565b8480fd5b6040513d88823e3d90fd5b5080fd5b61410791965061123d565b5f945f61407d565b91909293506001600160a01b037f000000000000000000000000000000000000000000000000000000000000000016803b1561031d576040517fae6393290000000000000000000000000000000000000000000000000000000081526001600160a01b03938416600482015293909216602484015260448301525f908290606490829084905af18015610312576141a35750565b6118cd9061123d565b506001600160a01b03807f00000000000000000000000000000000000000000000000000000000000000001690821614613fd5565b505050509050565b814710614217575f8080936001600160a01b038294165af1614209612ab4565b90156142125750565b6148c0565b50477fcf479181000000000000000000000000000000000000000000000000000000005f5260045260245260445ffd5b9061425257506148c0565b81511580614298575b614263575090565b6001600160a01b03907f9996b315000000000000000000000000000000000000000000000000000000005f521660045260245ffd5b50803b1561425b565b6001810190825f528160205260405f205c155f146142e457805c815f52838160205f20015d60018101809111611a8f57815d5c915f5260205260405f205d600190565b5050505f90565b905f5260205261430060405f2091825c611a82565b905d565b9192806145d8575b15614451575050804710614429576001600160a01b03807f00000000000000000000000000000000000000000000000000000000000000001691823b1561031d57604051907fd0e30db00000000000000000000000000000000000000000000000000000000082525f915f8160048185895af1801561031257614412575b506044602092937f000000000000000000000000000000000000000000000000000000000000000016946143bf838783614a5b565b8460405196879485937f15afd409000000000000000000000000000000000000000000000000000000008552600485015260248401525af19081156144065750613ebc5750565b604051903d90823e3d90fd5b6020925061441f9061123d565b60445f925061438a565b7fa01a9df6000000000000000000000000000000000000000000000000000000005f5260045ffd5b90915f9080614461575b50505050565b6001600160a01b0393847f00000000000000000000000000000000000000000000000000000000000000001694807f000000000000000000000000000000000000000000000000000000000000000016916144bb846148f7565b96803b1561031d576040517f36c785160000000000000000000000000000000000000000000000000000000081526001600160a01b039283166004820152848316602482015297821660448901529186161660648701525f908690608490829084905af194851561031257614580956145c4575b5082936020936040518097819582947f15afd40900000000000000000000000000000000000000000000000000000000845260048401602090939291936001600160a01b0360408201951681520152565b03925af19081156144065750614599575b80808061445b565b602090813d83116145bd575b6145af8183611289565b8101031261031d575f614591565b503d6145a5565b602093506145d19061123d565b5f9261452f565b506001600160a01b03807f0000000000000000000000000000000000000000000000000000000000000000169082161461430c565b6002111561461757565b7f4e487b71000000000000000000000000000000000000000000000000000000005f52602160045260245ffd5b9081606091031261031d578051916040602083015192015190565b61010060c06110b3936020845280516146778161460d565b602085015260208101516001600160a01b0380911660408601528060408301511660608601526060820151166080850152608081015160a085015260a08101518285015201519160e0808201520190611132565b909160608284031261031d5781519167ffffffffffffffff9283811161031d57846146f7918301611698565b93602082015193604083015190811161031d576110b3920161162c565b9081518082526020808093019301915f5b828110614733575050505090565b835185529381019392810192600101614725565b602081526001600160a01b038083511660208301526020830151166040820152614780604083015160c0606084015260e0830190614714565b906060830151608082015260808301516005811015614617576110b39360a0918284015201519060c0601f1982850301910152611132565b9160608383031261031d5782519260208101519267ffffffffffffffff9384811161031d57816147e9918401611698565b93604083015190811161031d576110b3920161162c565b602081526001600160a01b03808351166020830152602083015116604082015260408201516060820152614843606083015160c0608084015260e0830190614714565b9060808301516004811015614617576110b39360a0918284015201519060c0601f1982850301910152611132565b91909160808060a083019480516148878161460d565b845260208101516148978161460d565b60208501526001600160a01b036040820151166040850152606081015160608501520151910152565b8051156148cf57602081519101fd5b7fd6bda275000000000000000000000000000000000000000000000000000000005f5260045ffd5b6001600160a01b039081811161490b571690565b7f6dfcc650000000000000000000000000000000000000000000000000000000005f5260a060045260245260445ffd5b916044929391936001600160a01b03604094859282808551998a9586947fc9c1661b0000000000000000000000000000000000000000000000000000000086521660048501521660248301527f0000000000000000000000000000000000000000000000000000000000000000165afa938415614a0b575f935f956149d4575b50506149d16149ca8594611a51565b94856117b6565b52565b809295508194503d8311614a04575b6149ed8183611289565b8101031261031d5760208251920151925f806149bb565b503d6149e3565b83513d5f823e3d90fd5b905f5260205261430060405f2091825c613d80565b5c1115614a3357565b7f0f4ae0e4000000000000000000000000000000000000000000000000000000005f5260045ffd5b90916040519060208201907fa9059cbb0000000000000000000000000000000000000000000000000000000082526001600160a01b038095166024840152604483015260448252608082019082821067ffffffffffffffff8311176111f4576020925f92604052519082855af115610312575f513d614b0f57508181163b155b614ae3575050565b7f5274afe7000000000000000000000000000000000000000000000000000000005f521660045260245ffd5b60011415614adb56fea26469706673582212200df5ac37177a23c843fedb7631fe0ba1576635d1ae378ae7d6f2734774c11e0164736f6c634300081b0033",
  "linkReferences": {},
  "deployedLinkReferences": {}
}