{
  "_format": "hh-sol-artifact-1",
  "contractName": "StableSurgePoolFactory",
  "sourceName": "contracts/StableSurgePoolFactory.sol",
  "abi": [
    {
      "inputs": [
        {
          "internalType": "contract StableSurgeHook",
          "name": "stableSurgeHook",
          "type": "address"
        },
        {
          "internalType": "uint32",
          "name": "pauseWindowDuration",
          "type": "uint32"
        },
        {
          "internalType": "string",
          "name": "factoryVersion",
          "type": "string"
        },
        {
          "internalType": "string",
          "name": "poolVersion",
          "type": "string"
        }
      ],
      "stateMutability": "nonpayable",
      "type": "constructor"
    },
    {
      "inputs": [],
      "name": "CodeDeploymentFailed",
      "type": "error"
    },
    {
      "inputs": [],
      "name": "Create2EmptyBytecode",
      "type": "error"
    },
    {
      "inputs": [],
      "name": "Create2FailedDeployment",
      "type": "error"
    },
    {
      "inputs": [
        {
          "internalType": "uint256",
          "name": "balance",
          "type": "uint256"
        },
        {
          "internalType": "uint256",
          "name": "needed",
          "type": "uint256"
        }
      ],
      "name": "Create2InsufficientBalance",
      "type": "error"
    },
    {
      "inputs": [],
      "name": "Disabled",
      "type": "error"
    },
    {
      "inputs": [],
      "name": "IndexOutOfBounds",
      "type": "error"
    },
    {
      "inputs": [],
      "name": "MaxTokens",
      "type": "error"
    },
    {
      "inputs": [],
      "name": "PoolPauseWindowDurationOverflow",
      "type": "error"
    },
    {
      "inputs": [],
      "name": "SenderNotAllowed",
      "type": "error"
    },
    {
      "inputs": [],
      "name": "StandardPoolWithCreator",
      "type": "error"
    },
    {
      "inputs": [],
      "name": "VaultNotSet",
      "type": "error"
    },
    {
      "anonymous": false,
      "inputs": [],
      "name": "FactoryDisabled",
      "type": "event"
    },
    {
      "anonymous": false,
      "inputs": [
        {
          "indexed": true,
          "internalType": "address",
          "name": "pool",
          "type": "address"
        }
      ],
      "name": "PoolCreated",
      "type": "event"
    },
    {
      "inputs": [
        {
          "internalType": "string",
          "name": "name",
          "type": "string"
        },
        {
          "internalType": "string",
          "name": "symbol",
          "type": "string"
        },
        {
          "components": [
            {
              "internalType": "contract IERC20",
              "name": "token",
              "type": "address"
            },
            {
              "internalType": "enum TokenType",
              "name": "tokenType",
              "type": "uint8"
            },
            {
              "internalType": "contract IRateProvider",
              "name": "rateProvider",
              "type": "address"
            },
            {
              "internalType": "bool",
              "name": "paysYieldFees",
              "type": "bool"
            }
          ],
          "internalType": "struct TokenConfig[]",
          "name": "tokens",
          "type": "tuple[]"
        },
        {
          "internalType": "uint256",
          "name": "amplificationParameter",
          "type": "uint256"
        },
        {
          "components": [
            {
              "internalType": "address",
              "name": "pauseManager",
              "type": "address"
            },
            {
              "internalType": "address",
              "name": "swapFeeManager",
              "type": "address"
            },
            {
              "internalType": "address",
              "name": "poolCreator",
              "type": "address"
            }
          ],
          "internalType": "struct PoolRoleAccounts",
          "name": "roleAccounts",
          "type": "tuple"
        },
        {
          "internalType": "uint256",
          "name": "swapFeePercentage",
          "type": "uint256"
        },
        {
          "internalType": "bool",
          "name": "enableDonation",
          "type": "bool"
        },
        {
          "internalType": "bytes32",
          "name": "salt",
          "type": "bytes32"
        }
      ],
      "name": "create",
      "outputs": [
        {
          "internalType": "address",
          "name": "pool",
          "type": "address"
        }
      ],
      "stateMutability": "nonpayable",
      "type": "function"
    },
    {
      "inputs": [],
      "name": "disable",
      "outputs": [],
      "stateMutability": "nonpayable",
      "type": "function"
    },
    {
      "inputs": [
        {
          "internalType": "bytes4",
          "name": "selector",
          "type": "bytes4"
        }
      ],
      "name": "getActionId",
      "outputs": [
        {
          "internalType": "bytes32",
          "name": "",
          "type": "bytes32"
        }
      ],
      "stateMutability": "view",
      "type": "function"
    },
    {
      "inputs": [],
      "name": "getAuthorizer",
      "outputs": [
        {
          "internalType": "contract IAuthorizer",
          "name": "",
          "type": "address"
        }
      ],
      "stateMutability": "view",
      "type": "function"
    },
    {
      "inputs": [],
      "name": "getCreationCode",
      "outputs": [
        {
          "internalType": "bytes",
          "name": "",
          "type": "bytes"
        }
      ],
      "stateMutability": "view",
      "type": "function"
    },
    {
      "inputs": [],
      "name": "getCreationCodeContracts",
      "outputs": [
        {
          "internalType": "address",
          "name": "contractA",
          "type": "address"
        },
        {
          "internalType": "address",
          "name": "contractB",
          "type": "address"
        }
      ],
      "stateMutability": "view",
      "type": "function"
    },
    {
      "inputs": [],
      "name": "getDefaultLiquidityManagement",
      "outputs": [
        {
          "components": [
            {
              "internalType": "bool",
              "name": "disableUnbalancedLiquidity",
              "type": "bool"
            },
            {
              "internalType": "bool",
              "name": "enableAddLiquidityCustom",
              "type": "bool"
            },
            {
              "internalType": "bool",
              "name": "enableRemoveLiquidityCustom",
              "type": "bool"
            },
            {
              "internalType": "bool",
              "name": "enableDonation",
              "type": "bool"
            }
          ],
          "internalType": "struct LiquidityManagement",
          "name": "liquidityManagement",
          "type": "tuple"
        }
      ],
      "stateMutability": "pure",
      "type": "function"
    },
    {
      "inputs": [],
      "name": "getDefaultPoolHooksContract",
      "outputs": [
        {
          "internalType": "address",
          "name": "",
          "type": "address"
        }
      ],
      "stateMutability": "pure",
      "type": "function"
    },
    {
      "inputs": [
        {
          "internalType": "bytes",
          "name": "constructorArgs",
          "type": "bytes"
        },
        {
          "internalType": "bytes32",
          "name": "salt",
          "type": "bytes32"
        }
      ],
      "name": "getDeploymentAddress",
      "outputs": [
        {
          "internalType": "address",
          "name": "",
          "type": "address"
        }
      ],
      "stateMutability": "view",
      "type": "function"
    },
    {
      "inputs": [],
      "name": "getNewPoolPauseWindowEndTime",
      "outputs": [
        {
          "internalType": "uint32",
          "name": "",
          "type": "uint32"
        }
      ],
      "stateMutability": "view",
      "type": "function"
    },
    {
      "inputs": [],
      "name": "getOriginalPauseWindowEndTime",
      "outputs": [
        {
          "internalType": "uint32",
          "name": "",
          "type": "uint32"
        }
      ],
      "stateMutability": "view",
      "type": "function"
    },
    {
      "inputs": [],
      "name": "getPauseWindowDuration",
      "outputs": [
        {
          "internalType": "uint32",
          "name": "",
          "type": "uint32"
        }
      ],
      "stateMutability": "view",
      "type": "function"
    },
    {
      "inputs": [],
      "name": "getPoolCount",
      "outputs": [
        {
          "internalType": "uint256",
          "name": "",
          "type": "uint256"
        }
      ],
      "stateMutability": "view",
      "type": "function"
    },
    {
      "inputs": [],
      "name": "getPoolVersion",
      "outputs": [
        {
          "internalType": "string",
          "name": "",
          "type": "string"
        }
      ],
      "stateMutability": "view",
      "type": "function"
    },
    {
      "inputs": [],
      "name": "getPools",
      "outputs": [
        {
          "internalType": "address[]",
          "name": "",
          "type": "address[]"
        }
      ],
      "stateMutability": "view",
      "type": "function"
    },
    {
      "inputs": [
        {
          "internalType": "uint256",
          "name": "start",
          "type": "uint256"
        },
        {
          "internalType": "uint256",
          "name": "count",
          "type": "uint256"
        }
      ],
      "name": "getPoolsInRange",
      "outputs": [
        {
          "internalType": "address[]",
          "name": "pools",
          "type": "address[]"
        }
      ],
      "stateMutability": "view",
      "type": "function"
    },
    {
      "inputs": [],
      "name": "getStableSurgeHook",
      "outputs": [
        {
          "internalType": "contract IStableSurgeHook",
          "name": "",
          "type": "address"
        }
      ],
      "stateMutability": "view",
      "type": "function"
    },
    {
      "inputs": [],
      "name": "getVault",
      "outputs": [
        {
          "internalType": "contract IVault",
          "name": "",
          "type": "address"
        }
      ],
      "stateMutability": "view",
      "type": "function"
    },
    {
      "inputs": [],
      "name": "isDisabled",
      "outputs": [
        {
          "internalType": "bool",
          "name": "",
          "type": "bool"
        }
      ],
      "stateMutability": "view",
      "type": "function"
    },
    {
      "inputs": [
        {
          "internalType": "address",
          "name": "pool",
          "type": "address"
        }
      ],
      "name": "isPoolFromFactory",
      "outputs": [
        {
          "internalType": "bool",
          "name": "",
          "type": "bool"
        }
      ],
      "stateMutability": "view",
      "type": "function"
    },
    {
      "inputs": [],
      "name": "version",
      "outputs": [
        {
          "internalType": "string",
          "name": "",
          "type": "string"
        }
      ],
      "stateMutability": "view",
      "type": "function"
    }
  ],
  "bytecode": "0x6101a0604052346100bb5761001e610015610171565b929190916103b6565b60405161183990816106a3823960805181818161022101526113f5015260a0518161137f015260c051818181610245015261141a015260e051816113a0015261010051816110f201526101205181818161033e01528181610a9d01528181610b81015281816112c601526115e5015261014051816109fd015261016051818181610c22015261115f015261018051818181610b0a01526113050152f35b5f80fd5b634e487b7160e01b5f52604160045260245ffd5b601f909101601f19168101906001600160401b038211908210176100f657604052565b6100bf565b9061010960405192836100d3565b565b6001600160a01b038116036100bb57565b81601f820112156100bb578051906001600160401b0382116100f65760405192610150601f8401601f1916602001856100d3565b828452602083830101116100bb57815f9260208093018386015e8301015290565b6164ce90813803806040519361018782866100d3565b84398201906080838303126100bb578251906101a28261010b565b60208401519363ffffffff851685036100bb5760408101516001600160401b0394908581116100bb57816101d791840161011c565b9460608301519081116100bb576101ee920161011c565b9193929190565b90600182811c92168015610223575b602083101461020f57565b634e487b7160e01b5f52602260045260245ffd5b91607f1691610204565b601f8111610239575050565b60035f5260205f20906020601f840160051c83019310610273575b601f0160051c01905b818110610268575050565b5f815560010161025d565b9091508190610254565b601f8111610289575050565b60045f5260205f20906020601f840160051c830193106102c3575b601f0160051c01905b8181106102b8575050565b5f81556001016102ad565b90915081906102a4565b80519091906001600160401b0381116100f6576102f4816102ef6004546101f5565b61027d565b602080601f83116001146103355750819061032593945f9261032a575b50508160011b915f199060031b1c19161790565b600455565b015190505f80610311565b60045f52601f198316949091907f8a35acfbc15ff81a39ae7d344fd709f28e8600b4aa8c65c6b64bfe7fe36bd19b925f905b87821061039e575050836001959610610386575b505050811b01600455565b01515f1960f88460031b161c191690555f808061037b565b80600185968294968601518155019501930190610367565b6040516311b2515f60e31b81529193926001600160a01b03909116916020918282600481875afa918215610463575f9261041d575b50946104149291610109966145f26104048582016100fb565b94818652611edc9086013961046e565b610180526102cd565b9280925083819792973d831161045c575b61043881836100d3565b810103126100bb576101099561041493516104528161010b565b92935090956103eb565b503d61042e565b6040513d5f823e3d90fd5b91928051908160011c918260a05282810392818411610510578360e05280835261049783610613565b60805282019182519383526104ab83610662565b60c052525230610100526001600160a01b03811615610501576101205263ffffffff6104d981841642610524565b8181116104f25761010993610140521661016052610536565b6368755a1160e01b5f5260045ffd5b630647140b60e51b5f5260045ffd5b634e487b7160e01b5f52601160045260245ffd5b9190820180921161053157565b610510565b80519091906001600160401b0381116100f65761055d816105586003546101f5565b61022d565b602080601f83116001146105925750819061058d93945f9261032a5750508160011b915f199060031b1c19161790565b600355565b60035f52601f198316949091907fc2575a0e9e593c00f959f8c92f12db2869c3395a3b0502d05e2516446f71f85b925f905b8782106105fb5750508360019596106105e3575b505050811b01600355565b01515f1960f88460031b161c191690555f80806105d8565b806001859682949686015181550195019301906105c4565b9081517f602038038060206000396000f3fefefefefefefefefefefefefefefefefefefe835260208101835ff092526001600160a01b0382161561065357565b63fef8220760e01b5f5260045ffd5b9081517f60fe600053602038038060206001396001016000f3fefefefefefefefefefefe835260208101835ff092526001600160a01b038216156106535756fe60806040526004361015610011575f80fd5b5f3560e01c8062c194db14610163578063174481fa1461015e578063193ad50f146101595780632f2770db146101545780633f819b6f1461014f57806344f6fec71461014a57806353a72f7e1461014557806354fd4d50146101405780636634b7531461013b578063673a2a1f146101365780636c57f5a91461013157806378da80cb1461012c578063851c1bb3146101275780638d928af8146101225780638eec5d701461011d5780638f9a8f3f14610118578063aaabadc514610113578063db035ebc1461010e578063e9d56e1914610109578063ec888061146101045763f9d62108146100ff575f80fd5b610de4565b610c46565b610c06565b610bde565b610b2e565b610ade565b610ac1565b610a71565b610a21565b6109e1565b6109bf565b610924565b6108d7565b610781565b610662565b61056e565b61047e565b6102bb565b61026c565b6101f5565b61019b565b5f91031261017257565b5f80fd5b90601f19601f602080948051918291828752018686015e5f8582860101520116010190565b34610172575f600319360112610172576040516020810181811067ffffffffffffffff8211176101f0576101ec916101d8916040525f815261137c565b604051918291602083526020830190610176565b0390f35b610499565b34610172575f600319360112610172576040805173ffffffffffffffffffffffffffffffffffffffff807f00000000000000000000000000000000000000000000000000000000000000001682527f0000000000000000000000000000000000000000000000000000000000000000166020820152f35b34610172575f600319360112610172576080610286610e9b565b6102b960405180926060809180511515845260208101511515602085015260408101511515604085015201511515910152565bf35b34610172575f600319360112610172576102f77fffffffff000000000000000000000000000000000000000000000000000000005f35166110c7565b73ffffffffffffffffffffffffffffffffffffffff604051917faaabadc50000000000000000000000000000000000000000000000000000000083526020928381600481867f0000000000000000000000000000000000000000000000000000000000000000165afa80156104365784926103bd925f9261043b575b506040517f9be2a884000000000000000000000000000000000000000000000000000000008152600481019190915233602482015230604482015293849283919082906064820190565b0392165afa918215610436575f92610409575b5050156103e1576103df610ebf565b005b7f23dada53000000000000000000000000000000000000000000000000000000005f5260045ffd5b6104289250803d1061042f575b61042081836104f6565b8101906117ee565b5f806103d0565b503d610416565b611152565b61045c919250843d8611610463575b61045481836104f6565b81019061113d565b905f610373565b503d61044a565b90602061047b928181520190610176565b90565b34610172575f600319360112610172576101ec6101d8610f18565b7f4e487b71000000000000000000000000000000000000000000000000000000005f52604160045260245ffd5b6080810190811067ffffffffffffffff8211176101f057604052565b67ffffffffffffffff81116101f057604052565b90601f601f19910116810190811067ffffffffffffffff8211176101f057604052565b60405190610526826104c6565b565b92919267ffffffffffffffff82116101f057604051916105526020601f19601f84011601846104f6565b829481845281830111610172578281602093845f960137010152565b346101725760406003193601126101725760043567ffffffffffffffff81116101725736602382011215610172576055600b6105b76101ec933690602481600401359101610528565b6105cb6105c5602435611476565b9161137c565b602081519101209060405191604083015260208201523081520160ff81532060405173ffffffffffffffffffffffffffffffffffffffff90911681529081906020820190565b60209060206040818301928281528551809452019301915f5b828110610638575050505090565b835173ffffffffffffffffffffffffffffffffffffffff168552938101939281019260010161062a565b3461017257604060031936011261017257600435602435906001916001548083101561075957818301808411610754578110610743575b506106a381610c7b565b916106b160405193846104f6565b818352601f196106c083610c7b565b013660208501375f5b8281106106de57604051806101ec8682610611565b8061073d6107186106f86106f389958761103f565b611079565b905473ffffffffffffffffffffffffffffffffffffffff9160031b1c1690565b61072283886110b3565b9073ffffffffffffffffffffffffffffffffffffffff169052565b016106c9565b82810391508111610754575f610699565b611012565b7f4e23d035000000000000000000000000000000000000000000000000000000005f5260045ffd5b34610172575f600319360112610172576040515f60035460018160011c91600181169182156108af575b60209160208510841461088257848752602087019390811561084557506001146107ec575b6101ec866107e0818803826104f6565b6040519182918261046a565b60035f90815294509192917fc2575a0e9e593c00f959f8c92f12db2869c3395a3b0502d05e2516446f71f85b5b83861061083457505050910190506107e0826101ec5f6107d0565b805485870152948201948101610819565b7fffffffffffffffffffffffffffffffffffffffffffffffffffffffffffffff0016845250505090151560051b0190506107e0826101ec5f6107d0565b7f4e487b71000000000000000000000000000000000000000000000000000000005f52602260045260245ffd5b92607f16926107ab565b73ffffffffffffffffffffffffffffffffffffffff81160361017257565b346101725760206003193601126101725773ffffffffffffffffffffffffffffffffffffffff600435610909816108b9565b165f525f602052602060ff60405f2054166040519015158152f35b34610172575f60031936011261017257604051806001916001549283825260208092019360015f527fb10e2d527612073b26eecdfd717e6a320cf44b4afac2b0732d9fcbe2b7fa0cf6925f905b828210610994576101ec86610988818a03826104f6565b60405191829182610611565b845473ffffffffffffffffffffffffffffffffffffffff168752958601959383019390830190610971565b34610172575f60031936011261017257602060ff600254166040519015158152f35b34610172575f60031936011261017257602060405163ffffffff7f0000000000000000000000000000000000000000000000000000000000000000168152f35b34610172576020600319360112610172576004357fffffffff000000000000000000000000000000000000000000000000000000008116810361017257610a696020916110c7565b604051908152f35b34610172575f60031936011261017257602060405173ffffffffffffffffffffffffffffffffffffffff7f0000000000000000000000000000000000000000000000000000000000000000168152f35b34610172575f600319360112610172576020600154604051908152f35b34610172575f60031936011261017257602060405173ffffffffffffffffffffffffffffffffffffffff7f0000000000000000000000000000000000000000000000000000000000000000168152f35b34610172575f600319360112610172576040517faaabadc500000000000000000000000000000000000000000000000000000000815273ffffffffffffffffffffffffffffffffffffffff6020826004817f000000000000000000000000000000000000000000000000000000000000000085165afa908115610436576020925f92610bbf575b5060405191168152f35b610bd7919250833d85116104635761045481836104f6565b905f610bb5565b34610172575f600319360112610172576020610bf861115d565b63ffffffff60405191168152f35b34610172575f60031936011261017257602060405163ffffffff7f0000000000000000000000000000000000000000000000000000000000000000168152f35b34610172575f6003193601126101725760206040515f8152f35b9080601f830112156101725781602061047b93359101610528565b67ffffffffffffffff81116101f05760051b60200190565b8015150361017257565b610104359061052682610c93565b9080601f83011215610172578135916020610cc584610c7b565b93604093610cd660405196876104f6565b818652828087019260071b85010193818511610172578301915b848310610d005750505050505090565b60808383031261017257855190610d16826104c6565b8335610d21816108b9565b8252848401359060028210156101725782869283608095015288860135610d47816108b9565b8982015260608087013590610d5b82610c93565b820152815201920191610cf0565b7fffffffffffffffffffffffffffffffffffffffffffffffffffffffffffffff7c606091011261017257604051906060820182811067ffffffffffffffff8211176101f05760405281608435610dbe816108b9565b815260a435610dcc816108b9565b6020820152604060c43591610de0836108b9565b0152565b34610172576101406003193601126101725767ffffffffffffffff60043581811161017257610e17903690600401610c60565b9060243581811161017257610e30903690600401610c60565b604435918211610172576101ec92610e4f610e74933690600401610cab565b91610e5936610d69565b610e61610c9d565b92610124359460e435936064359261122a565b60405173ffffffffffffffffffffffffffffffffffffffff90911681529081906020820190565b60405190610ea8826104c6565b5f6060838281528260208201528260408201520152565b610ec7611442565b60017fffffffffffffffffffffffffffffffffffffffffffffffffffffffffffffff0060025416176002557f432acbfd662dbb5d8b378384a67159b47ca9d0f1b79f97cf64cf8585fa362d505f80a1565b604051905f6004546001918160011c9260018316908115611008575b6020906020861083146108825785885287946020860193908115610fca5750600114610f6a575b505050610526925003836104f6565b925093610f9860045f527f8a35acfbc15ff81a39ae7d344fd709f28e8600b4aa8c65c6b64bfe7fe36bd19b90565b945f935b828510610fb4575050506105269350015f8080610f5b565b8654858501529586019588955093810193610f9c565b915050610526959293507fffffffffffffffffffffffffffffffffffffffffffffffffffffffffffffff009150168252151560051b015f8080610f5b565b93607f1693610f34565b7f4e487b71000000000000000000000000000000000000000000000000000000005f52601160045260245ffd5b9190820180921161075457565b7f4e487b71000000000000000000000000000000000000000000000000000000005f52603260045260245ffd5b6001548110156110ae5760015f527fb10e2d527612073b26eecdfd717e6a320cf44b4afac2b0732d9fcbe2b7fa0cf601905f90565b61104c565b80518210156110ae5760209160051b010190565b6040517fffffffff0000000000000000000000000000000000000000000000000000000060208201927f00000000000000000000000000000000000000000000000000000000000000008452166040820152602481526060810181811067ffffffffffffffff8211176101f05760405251902090565b90816020910312610172575161047b816108b9565b6040513d5f823e3d90fd5b7f000000000000000000000000000000000000000000000000000000000000000063ffffffff811642101561118f5790565b505f90565b9073ffffffffffffffffffffffffffffffffffffffff611223602092959495604085526111cd81516080604088015260c0870190610176565b606061120786840151927fffffffffffffffffffffffffffffffffffffffffffffffffffffffffffffffc093848a830301848b0152610176565b92604081015160808901520151908683030160a0870152610176565b9416910152565b909594919392979673ffffffffffffffffffffffffffffffffffffffff988961126a604087015173ffffffffffffffffffffffffffffffffffffffff1690565b1661135457600586511161132c576112fd611302936112ef926105269a61129c611292610e9b565b9b151560608d0152565b6112a4610519565b928352602083015260408201526112b9610f18565b60608201526040519283917f00000000000000000000000000000000000000000000000000000000000000009060208401611194565b03601f1981018352826104f6565b61149f565b967f00000000000000000000000000000000000000000000000000000000000000001692876115c6565b7f707bdf58000000000000000000000000000000000000000000000000000000005f5260045ffd5b7f61ee1764000000000000000000000000000000000000000000000000000000005f5260045ffd5b907f00000000000000000000000000000000000000000000000000000000000000007f00000000000000000000000000000000000000000000000000000000000000008082019081831161075457845192838301958684116107545760209260018480946040519a82818d01016040528b52805f838d017f00000000000000000000000000000000000000000000000000000000000000003c8a01017f00000000000000000000000000000000000000000000000000000000000000003c01918501015e565b60ff6002541661144e57565b7f75884cda000000000000000000000000000000000000000000000000000000005f5260045ffd5b6040516020810191338352466040830152606082015260608152611499816104c6565b51902090565b906105c56114ac91611476565b80511561159e576020815191015ff59073ffffffffffffffffffffffffffffffffffffffff9182811690811561157657926114e5611442565b815f525f60205260405f2060017fffffffffffffffffffffffffffffffffffffffffffffffffffffffffffffff00825416179055600154680100000000000000008110156101f05780600161153d9201600155611079565b819291549060031b9184831b921b19161790557f83a48fbcfc991335314e74d0496aab6a1987e992ddc85dddbcc4d6dd6ef2e9fc5f80a2565b7f741752c2000000000000000000000000000000000000000000000000000000005f5260045ffd5b7f4ca249dc000000000000000000000000000000000000000000000000000000005f5260045ffd5b92949193909473ffffffffffffffffffffffffffffffffffffffff93847f0000000000000000000000000000000000000000000000000000000000000000169561160e61115d565b91873b156101725797959493929190604095604051998a987feeec802f000000000000000000000000000000000000000000000000000000008a526004836101a48c01931660048c015260246101a060248d015282518094526101c48c019a6020809401955f935b868510611764575050505050505050869461170e5f999793956116f088966116b18d996117409760448b015260648a019063ffffffff169052565b88608489015260a48801906040908173ffffffffffffffffffffffffffffffffffffffff91828151168552826020820151166020860152015116910152565b73ffffffffffffffffffffffffffffffffffffffff16610104860152565b805115156101248501526020810151151561014485015260408101511515610164850152606001511515610184840152565b03925af18015610436576117515750565b8061175e610526926104e2565b80610168565b9193959798999a9b9c90929496809e50518381511682528781015160028110156117c35782899260809284600196015286888201511688830152606080910151151590820152019e0195019290918f9d9c9b9a99989795969492611676565b866021857f4e487b71000000000000000000000000000000000000000000000000000000005f52525ffd5b90816020910312610172575161047b81610c9356fea26469706673582212205605b8135e872e1a92d317ce156157f688a18c98aac920a7bdbfe0ec465d4bf764736f6c634300081b00336102008060405234610809576145f2803803809161001d828561080d565b833981016040828203126108095781516001600160401b038111610809578201916080838303126108095760405191608083016001600160401b038111848210176106295760405283516001600160401b0381116108095781610081918601610830565b835260208401516001600160401b03811161080957816100a2918601610830565b60208401908152604080860151908501526060850151909490916001600160401b038311610809576020926100d79201610830565b606084018190529101516001600160a01b03811681036108095782519351604080519195919081016001600160401b03811182821017610629576040526001815260208101603160f81b815261012c83610885565b6101205261013982610a08565b6101405282516020840120918260e05251902080610100524660a052604051917f8b73c3c69bb8fe3d512ecc4cf759cc79239f7b179b0ffacaa9a75d522b39400f6020840152604083015260608201524660808201523060a082015260a081528060c081011060018060401b0360c0830111176106295760c08101604052602081519101206080523060c052816101605280519060018060401b0382116106295760035490600182811c921680156107ff575b602083101461060b5781601f8493116107a7575b50602090601f8311600114610732575f92610727575b50508160011b915f199060031b1c1916176003555b83516001600160401b03811161062957600454600181811c9116801561071d575b602082101461060b57601f81116106be575b506020601f82116001146106575781929394955f9261064c575b50508160011b915f199060031b1c1916176004555b33610180908152926001600160a01b0382161561063d576101a08281526101e092835283519093906001600160401b03811161062957600591825490600182811c9216801561061f575b602083101461060b5781601f8493116105bd575b50602090601f8311600114610559575f9261054e575b50508160011b915f199060031b1c19161790555b600160408201511061053f5761c35060408201511161053057604001516103e89081810291818304149015171561051c576001600160401b03811161050557600654906001600160401b03811663ffffffff42116104ed577fa0d01593e47e69d07e0ccd87bece09411e07dd1ed40ca8f2e7af2976542a0233926020928263ffffffff60a01b4260a01b169260018060c01b031916179068010000000000000000600160801b039060401b161763ffffffff60801b4260801b161717600655604051908152a160405191613a939384610b3f8539608051846134c8015260a05184613594015260c05184613499015260e051846135170152610100518461353d0152610120518461150c01526101405184611535015261016051848181610349015281816104fa0152818161072e015281816109a801528181610a2301528181610aa201528181610b9b015281816112260152818161148001528181611892015281816119dd01528181611ee30152818161224f0152818161249f015281816128f101528181612bb4015261319501525183612e5d01525182818161023101528181611d28015261326701526101c0518250505181818161087f01528181610dfa01528181610ebe01528181611121015261164a0152f35b6306dfcc6560e41b5f5260206004524260245260445ffd5b6306dfcc6560e41b5f52604060045260245260445ffd5b634e487b7160e01b5f52601160045260245ffd5b6309b80d3960e41b5f5260045ffd5b63ab92332360e01b5f5260045ffd5b015190505f80610301565b5f858152602081209350601f198516905b8181106105a5575090846001959493921061058d575b505050811b019055610315565b01515f1960f88460031b161c191690555f8080610580565b9293602060018192878601518155019501930161056a565b909150835f5260205f20601f8401851c81019160208510610601575b90601f8594939201861c01905b8181106105f357506102eb565b5f81558493506001016105e6565b90915081906105d9565b634e487b7160e01b5f52602260045260245ffd5b91607f16916102d7565b634e487b7160e01b5f52604160045260245ffd5b630647140b60e51b5f5260045ffd5b015190505f80610278565b60045f5260205f20905f5b601f19841681106106a6575060019394959683601f1981161061068e575b505050811b0160045561028d565b01515f1960f88460031b161c191690555f8080610680565b9091602060018192858b015181550193019101610662565b60045f527f8a35acfbc15ff81a39ae7d344fd709f28e8600b4aa8c65c6b64bfe7fe36bd19b601f830160051c810160208410610716575b601f830160051c8201811061070b57505061025e565b5f81556001016106f5565b50806106f5565b90607f169061024c565b015190505f80610216565b60035f90815293505f5160206145d25f395f51905f5291905b601f198416851061078c576001945083601f19811610610774575b505050811b0160035561022b565b01515f1960f88460031b161c191690555f8080610766565b8181015183556020948501946001909301929091019061074b565b60035f529091505f5160206145d25f395f51905f52601f840160051c8101602085106107f8575b90849392915b601f830160051c820181106107ea575050610200565b5f81558594506001016107d4565b50806107ce565b91607f16916101ec565b5f80fd5b601f909101601f19168101906001600160401b0382119082101761062957604052565b81601f82011215610809578051906001600160401b0382116106295760405192610864601f8401601f19166020018561080d565b8284526020838301011161080957815f9260208093018386015e8301015290565b8051602090818110156108fb5750601f8251116108bd57808251920151908083106108af57501790565b825f19910360031b1b161790565b60448260405192839163305a27a960e01b83528160048401528051918291826024860152018484015e5f828201840152601f01601f19168101030190fd5b906001600160401b038211610629575f54926001938481811c911680156109fe575b8382101461060b57601f81116109cb575b5081601f841160011461096957509282939183925f9461095e575b50501b915f199060031b1c1916175f5560ff90565b015192505f80610949565b919083601f1981165f8052845f20945f905b888383106109b15750505010610999575b505050811b015f5560ff90565b01515f1960f88460031b161c191690555f808061098c565b85870151885590960195948501948793509081019061097b565b5f805284601f845f20920160051c820191601f860160051c015b8281106109f357505061092e565b5f81550185906109e5565b90607f169061091d565b805160209081811015610a325750601f8251116108bd57808251920151908083106108af57501790565b9192916001600160401b0381116106295760019182548381811c91168015610b34575b8282101461060b57601f8111610b01575b5080601f8311600114610aa15750819293945f92610a96575b50505f19600383901b1c191690821b17905560ff90565b015190505f80610a7f565b90601f19831695845f52825f20925f905b888210610aea5750508385969710610ad2575b505050811b01905560ff90565b01515f1960f88460031b161c191690555f8080610ac5565b808785968294968601518155019501930190610ab2565b835f5283601f835f20920160051c820191601f850160051c015b828110610b29575050610a66565b5f8155018490610b1b565b90607f1690610a5556fe6080806040526004361015610012575f80fd5b5f905f3560e01c90816301ffc9a71461257f5750806306fdde03146124d6578063095ea7b31461240857806316a0b3e01461235657806318160ddd1461233c57806321da5e19146122bd57806323b872dd146121de57806323de66511461217d578063273c1adf1461215b5780632f1a0bc914611cc457806330adf81f14611c89578063313ce56714611c6d5780633644e51514611c5257806354fd4d5014611ba85780635687f2b814611b455780635c1e625914611990578063627cdcb914611967578063654cf15d14611944578063679aefce146119295780636daccffa146118f757806370a082311461182357806372c98186146116f55780637ecebe00146116b057806381fa807c146115ed57806384b0196e146114f6578063851c1bb3146114a45780638d928af81461145357806395d89b4114611356578063984de9e814611297578063a9059cbb1461118e578063aa6ca808146110c8578063abb1dc4414610e63578063b156aa0a14610da1578063b677fa5614610d7e578063cbd4e280146108d8578063ce20ece7146108b8578063d335b0cf14610824578063d505accf14610577578063dd62ed3e1461047b5763eb0f24d6146101d6575f80fd5b3461041257806003193601126104125773ffffffffffffffffffffffffffffffffffffffff906040517fe9ddeb26000000000000000000000000000000000000000000000000000000008152306004820152606081602481867f0000000000000000000000000000000000000000000000000000000000000000165afa908115610415576020610273928592859161044c575b50015116306131e9565b61027b612f01565b156104245781927fa0d01593e47e69d07e0ccd87bece09411e07dd1ed40ca8f2e7af2976542a023360206102ae846133fc565b60065467ffffffffffffffff82169173ffffffff000000000000000000000000000000006102db42613441565b916fffffffffffffffff0000000000000000857fffffffffffffffff00000000000000000000000000000000000000000000000077ffffffff00000000000000000000000000000000000000008660a01b169616179160401b16179160801b161717600655604051908152a17f0000000000000000000000000000000000000000000000000000000000000000166040519160208301526020825261037f8261269e565b803b15610420576103f183929183926040519485809481937fc80882470000000000000000000000000000000000000000000000000000000083527f416d7055706461746553746f707065640000000000000000000000000000000060048401526040602484015260448301906125e7565b03925af18015610415576104025750f35b61040b9061266e565b6104125780f35b80fd5b6040513d84823e3d90fd5b5050fd5b6004827f4673a675000000000000000000000000000000000000000000000000000000008152fd5b61046e915060603d606011610474575b61046681836126ba565b8101906129b9565b5f610269565b503d61045c565b50346104125760406003193601126104125761049561260c565b9060206104a061262f565b92606473ffffffffffffffffffffffffffffffffffffffff91828060405197889586947f927da1050000000000000000000000000000000000000000000000000000000086523060048701521660248501521660448301527f0000000000000000000000000000000000000000000000000000000000000000165afa90811561056b5790610534575b602090604051908152f35b506020813d602011610563575b8161054e602093836126ba565b8101031261055f5760209051610529565b5f80fd5b3d9150610541565b604051903d90823e3d90fd5b50346104125760e06003193601126104125761059161260c565b61059961262f565b90604435916064359160843560ff81168103610820578342116107f4576105e78273ffffffffffffffffffffffffffffffffffffffff165f52600260205260405f2080549060018201905590565b9060405160208101917f6e71edae12b1b97f4d1f60370fef10105fa2faae0126114a169c64845d6126c9835273ffffffffffffffffffffffffffffffffffffffff9687861694856040850152888816606085015289608085015260a084015260c083015260c0825260e082019082821067ffffffffffffffff8311176107c75787936106ca936106c19360405251902061067f613482565b90604051917f190100000000000000000000000000000000000000000000000000000000000083526002830152602282015260c43591604260a4359220613923565b909291926139b2565b16818103610799576040517fe1f21c6700000000000000000000000000000000000000000000000000000000815273ffffffffffffffffffffffffffffffffffffffff848116600483015285166024820152604481018790528790602081606481857f00000000000000000000000000000000000000000000000000000000000000008c165af180156104155761075f575080f35b6020813d602011610791575b81610778602093836126ba565b8101031261078d576107899061289b565b5080f35b5080fd5b3d915061076b565b7f4b800e46000000000000000000000000000000000000000000000000000000008752600452602452604485fd5b7f4e487b71000000000000000000000000000000000000000000000000000000005f52604160045260245ffd5b602486857f62791302000000000000000000000000000000000000000000000000000000008252600452fd5b8580fd5b5034610412578060031936011261041257604051907fb45090f900000000000000000000000000000000000000000000000000000000825230600483015260208260248173ffffffffffffffffffffffffffffffffffffffff7f0000000000000000000000000000000000000000000000000000000000000000165afa90811561056b579061053457602090604051908152f35b5034610412578060031936011261041257602060405164e8d4a510008152f35b50346104125780600319360112610412576040516101c0810181811067ffffffffffffffff8211176107c75760405260608152606060208201528160408201528160608201528160808201528160a08201528160c08201528160e08201528161010082015281610120820152816101408201528161016082015281610180820152816101a08201526040517f535cfd8a000000000000000000000000000000000000000000000000000000008152306004820152828160248173ffffffffffffffffffffffffffffffffffffffff7f0000000000000000000000000000000000000000000000000000000000000000165afa908115610cfb578391610d5c575b5081526040517f7e361bde000000000000000000000000000000000000000000000000000000008152306004820152828160248173ffffffffffffffffffffffffffffffffffffffff7f0000000000000000000000000000000000000000000000000000000000000000165afa908115610cfb578391610d38575b5060208201526040517fb45090f900000000000000000000000000000000000000000000000000000000815230600482015260208160248173ffffffffffffffffffffffffffffffffffffffff7f0000000000000000000000000000000000000000000000000000000000000000165afa908115610cfb578391610d06575b506040820152610ae06128a8565b6060820152610aed612b6b565b6080820152610afa612f01565b151561014083015260a082015263ffffffff6060610b16612953565b67ffffffffffffffff81511660c085015267ffffffffffffffff60208201511660e0850152826040820151166101008501520151166101208201526040517ff29486a10000000000000000000000000000000000000000000000000000000081523060048201526101a08160248173ffffffffffffffffffffffffffffffffffffffff7f0000000000000000000000000000000000000000000000000000000000000000165afa908115610cfb57610120929391610cca575b5060e081015115156101608401526101008101511515610180840152015115156101a08201526040518091602082526101a0610c32610c1c83516101c060208701526101e0860190612797565b6020840151601f19868303016040870152612797565b916040810151606085015260608101516080850152608081015160a085015260a081015160c085015260c081015160e085015260e081015161010085015263ffffffff6101008201511661012085015263ffffffff6101208201511661014085015261014081015115156101608501526101608101511515610180850152610180810151151582850152015115156101c08301520390f35b610cee91506101a03d6101a011610cf4575b610ce681836126ba565b810190612d17565b5f610bcf565b503d610cdc565b6040513d85823e3d90fd5b90506020813d602011610d30575b81610d21602093836126ba565b8101031261055f57515f610ad2565b3d9150610d14565b610d5491503d8085833e610d4c81836126ba565b810190612b27565b90505f610a53565b610d7891503d8085833e610d7081836126ba565b810190612ea4565b5f6109d8565b50346104125780600319360112610412576020604051670853a0d2313c00008152f35b50346104125780600319360112610412576040517f535cfd8a000000000000000000000000000000000000000000000000000000008152306004820152818160248173ffffffffffffffffffffffffffffffffffffffff7f0000000000000000000000000000000000000000000000000000000000000000165afa9081156104155782610e449392610e48575b5050604051918291602083526020830190612797565b0390f35b610e5c92503d8091833e610d7081836126ba565b5f80610e2e565b503461041257806003193601126104125773ffffffffffffffffffffffffffffffffffffffff906040517f67e0e0760000000000000000000000000000000000000000000000000000000081523060048201528181602481867f0000000000000000000000000000000000000000000000000000000000000000165afa9081156104155782809481928294610f8b575b50610f09604051956080875260808701906127ca565b9060209086830382880152818089519485815201980193905b838210610f4f578780610e4489610f418d8b8582036040870152612797565b908382036060850152612797565b909192939783606060019260408c518051610f6981612813565b8352808501518716858401520151151560408201520199019493920190610f22565b955092509250503d8083853e610fa181856126ba565b83016080848203126110c45783519267ffffffffffffffff9384811161078d5782610fcd918701612a1f565b916020948587015181811161106557870182601f8201121561106557805190610ff5826126dd565b97611003604051998a6126ba565b828952808901816060809502840101928684116110c0578201905b83821061106957505050505060408701518181116110655782611042918901612ac6565b9660608101519182116110655761105a929101612ac6565b91939491925f610ef3565b8380fd5b84828803126110c05760405161107e81612682565b825160028110156110bc578152838301518b811681036110bc5784820152859184916110ac6040860161289b565b604082015281520191019061101e565b8980fd5b8780fd5b8280fd5b50346104125780600319360112610412576040517fca4f2803000000000000000000000000000000000000000000000000000000008152306004820152818160248173ffffffffffffffffffffffffffffffffffffffff7f0000000000000000000000000000000000000000000000000000000000000000165afa9081156104155782610e44939261116b575b50506040519182916020835260208301906127ca565b61118792503d8091833e61117f81836126ba565b810190612a9d565b5f80611155565b50346104125760406003193601126104125761120c60206111ad61260c565b6040517fbeabacc800000000000000000000000000000000000000000000000000000000815233600482015273ffffffffffffffffffffffffffffffffffffffff90911660248083019190915235604482015291829081906064820190565b03818573ffffffffffffffffffffffffffffffffffffffff7f0000000000000000000000000000000000000000000000000000000000000000165af180156104155761125e575b602060405160018152f35b6020813d60201161128f575b81611277602093836126ba565b8101031261078d57611289915061289b565b5f611253565b3d915061126a565b50346104125760406003193601126104125760043567ffffffffffffffff811161078d576112c99036906004016126f5565b60243591600283101561041257506112e9906112e3612f01565b506135ba565b90816112fb575b602082604051908152f35b80611307600192612813565b03611316576020905b906112f0565b6001810180911161132957602090611310565b7f4e487b71000000000000000000000000000000000000000000000000000000005f52601160045260245ffd5b50346104125780600319360112610412576040516004545f826113788361284a565b91828252602093600190856001821691825f146114155750506001146113ba575b506113a6925003836126ba565b610e446040519282849384528301906125e7565b84915060045f527f8a35acfbc15ff81a39ae7d344fd709f28e8600b4aa8c65c6b64bfe7fe36bd19b905f915b8583106113fd5750506113a6935082010185611399565b805483890185015287945086939092019181016113e6565b7fffffffffffffffffffffffffffffffffffffffffffffffffffffffffffffff0016858201526113a695151560051b85010192508791506113999050565b5034610412578060031936011261041257602060405173ffffffffffffffffffffffffffffffffffffffff7f0000000000000000000000000000000000000000000000000000000000000000168152f35b503461041257602060031936011261041257600435907fffffffff00000000000000000000000000000000000000000000000000000000821682036104125760206114ee83612e32565b604051908152f35b50346104125780600319360112610412576115307f0000000000000000000000000000000000000000000000000000000000000000613733565b6115597f0000000000000000000000000000000000000000000000000000000000000000613865565b60405192602084019380851067ffffffffffffffff8611176107c7576115ce610e44936115c0966040528383526040519687967f0f00000000000000000000000000000000000000000000000000000000000000885260e0602089015260e08801906125e7565b9086820360408801526125e7565b9146606086015230608086015260a085015283820360c0850152612797565b50346104125780600319360112610412576040517ff29486a10000000000000000000000000000000000000000000000000000000081523060048201526101a090818160248173ffffffffffffffffffffffffffffffffffffffff7f0000000000000000000000000000000000000000000000000000000000000000165afa918215610cfb5760409392611693575b505060608282015191015182519182526020820152f35b6116a99250803d10610cf457610ce681836126ba565b5f8061167c565b503461041257602060031936011261041257604060209173ffffffffffffffffffffffffffffffffffffffff6116e461260c565b168152600283522054604051908152f35b503461041257602060031981813601126110c4576004359067ffffffffffffffff9081831161181f5760e0908336030112611065576040519160e08301838110838211176107c7576040528060040135600281101561082057835260248101358484015260448101358281116108205761177590600436918401016126f5565b6040840152606481013560608401526084810135608084015260a481013573ffffffffffffffffffffffffffffffffffffffff8116810361055f5760a084015260c4810135908282116108205701903660238301121561181f5760048201359081116107c757604051916117f285601f19601f85011601846126ba565b818352366024838301011161082057938181969260246114ee9701838601378301015260c0820152612be7565b8480fd5b503461041257602090816003193601126104125760448261184261260c565b6040517ff7888aec00000000000000000000000000000000000000000000000000000000815230600482015273ffffffffffffffffffffffffffffffffffffffff918216602482015292839182907f0000000000000000000000000000000000000000000000000000000000000000165afa91821561056b57916118ca575b50604051908152f35b90508181813d83116118f0575b6118e181836126ba565b8101031261055f57515f6118c1565b503d6118d7565b50346104125780600319360112610412576060611912612f01565b604051918252151560208201526103e86040820152f35b503461041257806003193601126104125760206114ee612b6b565b5034610412578060031936011261041257602060405167016345785d8a00008152f35b5034610412578060031936011261041257335f9081526002602052604090208054600101905580f35b5034610412578060031936011261041257604051906119ae82612682565b6060825260209182810160608152604082019183835273ffffffffffffffffffffffffffffffffffffffff94857f0000000000000000000000000000000000000000000000000000000000000000166040517fca4f28030000000000000000000000000000000000000000000000000000000081523060048201528681602481855afa908115611b3a579187916024938391611b20575b508552604051928380927f7e361bde0000000000000000000000000000000000000000000000000000000082523060048301525afa908115611b15578691611afc575b508395929195526103e88452604051948086526080860191519660608288015287518093528160a08801980193905b838210611ae357878088611ad88c8a51601f19858303016040860152612797565b905160608301520390f35b8451811689529782019793820193600190910190611ab7565b611b1091503d8088833e610d4c81836126ba565b611a88565b6040513d88823e3d90fd5b611b3491503d8085833e61117f81836126ba565b5f611a45565b6040513d89823e3d90fd5b50346104125760207f8c5be1e5ebec7d5bd14f71427d1e84f3dd0314c0f7b2291e5b200ac8c7c3b925611b7736612755565b92919390611b8361317e565b73ffffffffffffffffffffffffffffffffffffffff809160405195865216941692a380f35b50346104125780600319360112610412576040516005545f82611bca8361284a565b91828252602093600190856001821691825f14611415575050600114611bf757506113a6925003836126ba565b84915060055f527f036b6384b5eca791c62761152d0c79bb0604c104a5fb6f4eb0703f3154bb3db0905f915b858310611c3a5750506113a6935082010185611399565b80548389018501528794508693909201918101611c23565b503461041257806003193601126104125760206114ee613482565b5034610412578060031936011261041257602060405160128152f35b503461041257806003193601126104125760206040517f6e71edae12b1b97f4d1f60370fef10105fa2faae0126114a169c64845d6126c98152f35b503461055f57604060031936011261055f57600435602480359073ffffffffffffffffffffffffffffffffffffffff906040517fe9ddeb260000000000000000000000000000000000000000000000000000000081523060048201526060818381867f0000000000000000000000000000000000000000000000000000000000000000165afa8015611fdf5760208491611d68935f9161044c5750015116306131e9565b600184106121335761c350841161210b57611d8342846129ff565b620151808082106120e357611d96612f01565b9290926120bb576103e89687810297818904148115171561208f5783881115612069576305265c000291878304148715171561203d57600291611ddc611de29285612a0c565b9061339f565b1161201557611df3611df9916133fc565b946133fc565b611e0b611e0542613441565b94613441565b9067ffffffffffffffff809616936006548783169673ffffffff0000000000000000000000000000000063ffffffff946fffffffffffffffff0000000000000000897fffffffffffffffff00000000000000000000000000000000000000000000000077ffffffff0000000000000000000000000000000000000000898716998b169a60a01b169616179160401b16179160801b1617176006557f1835882ee7a34ac194f717a35e09bb1d24c82a3b9d854ab6c9749525b714cdf26080604051878152886020820152846040820152856060820152a17f000000000000000000000000000000000000000000000000000000000000000016946040519460208601526040850152606084015260808301526080825260a082019382851090851117611fea575082604052813b1561055f575f9183837fffffffffffffffffffffffffffffffffffffffffffffffffffffffffffffff6082947fc80882470000000000000000000000000000000000000000000000000000000084527f416d70557064617465537461727465640000000000000000000000000000000060a4820152604060c4820152611fc060e48201826125e7565b0301925af18015611fdf57611fd3575080f35b611fdd915061266e565b005b6040513d5f823e3d90fd5b7f4e487b71000000000000000000000000000000000000000000000000000000005f5260416004525ffd5b7f1c708b92000000000000000000000000000000000000000000000000000000005f5260045ffd5b837f4e487b71000000000000000000000000000000000000000000000000000000005f5260116004525ffd5b5081830291838304148315171561203d57600291611ddc61208a9289612a0c565b611de2565b847f4e487b71000000000000000000000000000000000000000000000000000000005f5260116004525ffd5b7f2f301e7e000000000000000000000000000000000000000000000000000000005f5260045ffd5b7fcd6b022a000000000000000000000000000000000000000000000000000000005f5260045ffd5b7f9b80d390000000000000000000000000000000000000000000000000000000005f5260045ffd5b7fab923323000000000000000000000000000000000000000000000000000000005f5260045ffd5b3461055f575f60031936011261055f576020604051674563918244f400008152f35b3461055f5760207fddf252ad1be2c89b69c2b068fc378daa952ba7f163c4a11628f55a4df523b3ef6121ae36612755565b929193906121ba61317e565b73ffffffffffffffffffffffffffffffffffffffff809160405195865216941692a3005b3461055f57608460206121f036612755565b6040517f15dacbea00000000000000000000000000000000000000000000000000000000815233600482015273ffffffffffffffffffffffffffffffffffffffff93841660248201529183166044830152606482015292839182905f907f0000000000000000000000000000000000000000000000000000000000000000165af18015611fdf5761228657602060405160018152f35b6020813d6020116122b5575b8161229f602093836126ba565b8101031261055f576122b09061289b565b611253565b3d9150612292565b3461055f575f60031936011261055f575f60606040516122dc81612652565b828152826020820152826040820152015260a06122f7612953565b6040519067ffffffffffffffff8082511683526020820151166020830152606060408201519163ffffffff809316604085015201511660608201526103e86080820152f35b3461055f575f60031936011261055f5760206114ee6128a8565b3461055f57606060031936011261055f5760043567ffffffffffffffff811161055f576123879036906004016126f5565b61238f612f01565b509061239d816112e3612f01565b806123f6575b906020926123b76114ee9360443590612a0c565b91602435926001670de0b6b3a76400007fffffffffffffffffffffffffffffffffffffffffffffffffffffffffffffffff830104019015150291612fc9565b906001820180921161132957906123a3565b3461055f57604060031936011261055f57612485602061242661260c565b6040517fe1f21c6700000000000000000000000000000000000000000000000000000000815233600482015273ffffffffffffffffffffffffffffffffffffffff90911660248083019190915235604482015291829081906064820190565b03815f73ffffffffffffffffffffffffffffffffffffffff7f0000000000000000000000000000000000000000000000000000000000000000165af18015611fdf5761228657602060405160018152f35b3461055f575f60031936011261055f576040516003545f826124f78361284a565b91828252602093600190856001821691825f1461141557505060011461252457506113a6925003836126ba565b84915060035f527fc2575a0e9e593c00f959f8c92f12db2869c3395a3b0502d05e2516446f71f85b905f915b8583106125675750506113a6935082010185611399565b80548389018501528794508693909201918101612550565b3461055f57602060031936011261055f57600435907fffffffff00000000000000000000000000000000000000000000000000000000821680920361055f577f01ffc9a700000000000000000000000000000000000000000000000000000000602092148152f35b90601f19601f602080948051918291828752018686015e5f8582860101520116010190565b6004359073ffffffffffffffffffffffffffffffffffffffff8216820361055f57565b6024359073ffffffffffffffffffffffffffffffffffffffff8216820361055f57565b6080810190811067ffffffffffffffff8211176107c757604052565b67ffffffffffffffff81116107c757604052565b6060810190811067ffffffffffffffff8211176107c757604052565b6040810190811067ffffffffffffffff8211176107c757604052565b90601f601f19910116810190811067ffffffffffffffff8211176107c757604052565b67ffffffffffffffff81116107c75760051b60200190565b9080601f8301121561055f57602090823561270f816126dd565b9361271d60405195866126ba565b81855260208086019260051b82010192831161055f57602001905b828210612746575050505090565b81358152908301908301612738565b600319606091011261055f5773ffffffffffffffffffffffffffffffffffffffff90600435828116810361055f5791602435908116810361055f579060443590565b9081518082526020808093019301915f5b8281106127b6575050505090565b8351855293810193928101926001016127a8565b9081518082526020808093019301915f5b8281106127e9575050505090565b835173ffffffffffffffffffffffffffffffffffffffff16855293810193928101926001016127db565b6002111561281d57565b7f4e487b71000000000000000000000000000000000000000000000000000000005f52602160045260245ffd5b90600182811c92168015612891575b602083101461286457565b7f4e487b71000000000000000000000000000000000000000000000000000000005f52602260045260245ffd5b91607f1691612859565b5190811515820361055f57565b6040517fe4dc2aa400000000000000000000000000000000000000000000000000000000815230600482015260208160248173ffffffffffffffffffffffffffffffffffffffff7f0000000000000000000000000000000000000000000000000000000000000000165afa908115611fdf575f91612924575090565b90506020813d60201161294b575b8161293f602093836126ba565b8101031261055f575190565b3d9150612932565b6040519061296082612652565b81606060065467ffffffffffffffff80821684528160401c16602084015263ffffffff90818160801c16604085015260a01c16910152565b519073ffffffffffffffffffffffffffffffffffffffff8216820361055f57565b9081606091031261055f576129f760408051926129d584612682565b6129de81612998565b84526129ec60208201612998565b602085015201612998565b604082015290565b9190820391821161132957565b8181029291811591840414171561132957565b9080601f8301121561055f57815190602091612a3a816126dd565b93612a4860405195866126ba565b81855260208086019260051b82010192831161055f57602001905b828210612a71575050505090565b815173ffffffffffffffffffffffffffffffffffffffff8116810361055f578152908301908301612a63565b9060208282031261055f57815167ffffffffffffffff811161055f57612ac39201612a1f565b90565b9080601f8301121561055f57815190602091612ae1816126dd565b93612aef60405195866126ba565b81855260208086019260051b82010192831161055f57602001905b828210612b18575050505090565b81518152908301908301612b0a565b91909160408184031261055f5780519267ffffffffffffffff9384811161055f5781612b54918401612ac6565b93602083015190811161055f57612ac39201612ac6565b6040517f4f037ee700000000000000000000000000000000000000000000000000000000815230600482015260208160248173ffffffffffffffffffffffffffffffffffffffff7f0000000000000000000000000000000000000000000000000000000000000000165afa908115611fdf575f91612924575090565b6040810190612bf982516112e3612f01565b9081612d12575b612c08612f01565b50918151612c1581612813565b612c1e81612813565b612cb857612c8591602091612c7f612c6b612c8b975193606081015193856080830151978893015199612c5b8b612c558985612fb5565b51612e97565b612c658884612fb5565b52612fc9565b95612c768385612fb5565b51039183612fb5565b52612fb5565b516129ff565b7fffffffffffffffffffffffffffffffffffffffffffffffffffffffffffffffff81019081116113295790565b612cfd91612d04945190612c7f612ce960608301518095856020608087015196015199612c5b8b612c858985612fb5565b95612cf48385612fb5565b51019183612fb5565b51906129ff565b600181018091116113295790565b612c00565b6101a09181900382811261055f5760405192610140928385019285841067ffffffffffffffff8511176107c757608090846040521261055f57612d5983612652565b612d628161289b565b8352612d706020820161289b565b926101609384870152612d856040830161289b565b926101809384880152612d9a6060840161289b565b9087015285526080810151602086015260a0810151604086015260c0810151606086015260e081015164ffffffffff8116810361055f5760808601526101008082015163ffffffff8116810361055f57612e2b94612e219160a0890152612e1561012097612e0989870161289b565b60c08b0152850161289b565b60e0890152830161289b565b908601520161289b565b9082015290565b6040517fffffffff0000000000000000000000000000000000000000000000000000000060208201927f0000000000000000000000000000000000000000000000000000000000000000845216604082015260248152612e9181612682565b51902090565b9190820180921161132957565b9060208282031261055f57815167ffffffffffffffff811161055f57612ac39201612ac6565b8115612ed4570490565b7f4e487b71000000000000000000000000000000000000000000000000000000005f52601260045260245ffd5b612f09612953565b67ffffffffffffffff80825116906020830151169163ffffffff60608160408401511692015116908142105f14612f73576001938380821115612f5b5782612f579403924203910302612eca565b0191565b5081612f6e930391420390840302612eca565b900391565b5050505f9091565b805115612f885760200190565b7f4e487b71000000000000000000000000000000000000000000000000000000005f52603260045260245ffd5b8051821015612f885760209160051b010190565b92919092612fd984518092612a0c565b90612fe385612f7b565b51612ff782612ff188612f7b565b51612a0c565b916001905b858882841061313c57613018949350612cfd9250889150612fb5565b906130238480612a0c565b956103e895868802908882048814891517156113295761304d61305392611ddc61305a9689612a0c565b92612fb5565b5190612a0c565b938084029084820414841517156113295761308661308c92613080613096958894612eca565b90612e97565b95612e97565b611ddc8584612e97565b5f5b60ff81106130c8577fdcbda05c000000000000000000000000000000000000000000000000000000005f5260045ffd5b816130dc856130d78380612a0c565b612e97565b908060011b908082046002149015171561132957600191611ddc866131048a61310995612e97565b6129ff565b92838181111561312c57031115613124576001905b01613098565b509250505090565b900311156131245760019061311e565b6131769161315f8461315a8798996130536001989961316497612fb5565b612a0c565b612eca565b9461316f858b612fb5565b5190612e97565b920190612ffc565b73ffffffffffffffffffffffffffffffffffffffff7f00000000000000000000000000000000000000000000000000000000000000001633036131bd57565b7f089676d5000000000000000000000000000000000000000000000000000000005f523360045260245ffd5b9073ffffffffffffffffffffffffffffffffffffffff9081168061339457506132347fffffffff000000000000000000000000000000000000000000000000000000005f3516612e32565b91604051907faaabadc50000000000000000000000000000000000000000000000000000000082526020938483600481877f0000000000000000000000000000000000000000000000000000000000000000165afa928315611fdf57859385915f91613355575b50906064929160405196879586947f9be2a8840000000000000000000000000000000000000000000000000000000086526004860152336024860152166044840152165afa918215611fdf575f9261331f575b5050156132f757565b7f23dada53000000000000000000000000000000000000000000000000000000005f5260045ffd5b90809250813d831161334e575b61333681836126ba565b8101031261055f576133479061289b565b5f806132ee565b503d61332c565b92948092508391503d831161338d575b61336f81836126ba565b8101031261055f5751838116810361055f578492908490606461329b565b503d613365565b91505033036132f757565b9080156133d4577fffffffffffffffffffffffffffffffffffffffffffffffffffffffffffffffff8201046001019015150290565b7f0a0c22c7000000000000000000000000000000000000000000000000000000005f5260045ffd5b67ffffffffffffffff90818111613411571690565b7f6dfcc650000000000000000000000000000000000000000000000000000000005f52604060045260245260445ffd5b63ffffffff90818111613452571690565b7f6dfcc650000000000000000000000000000000000000000000000000000000005f52602060045260245260445ffd5b73ffffffffffffffffffffffffffffffffffffffff7f000000000000000000000000000000000000000000000000000000000000000016301480613591575b156134ea577f000000000000000000000000000000000000000000000000000000000000000090565b60405160208101907f8b73c3c69bb8fe3d512ecc4cf759cc79239f7b179b0ffacaa9a75d522b39400f82527f000000000000000000000000000000000000000000000000000000000000000060408201527f000000000000000000000000000000000000000000000000000000000000000060608201524660808201523060a082015260a0815260c0810181811067ffffffffffffffff8211176107c75760405251902090565b507f000000000000000000000000000000000000000000000000000000000000000046146134c1565b90915f9183515f5b81811061371b575083156137125792906135dd848392612a0c565b915f907ffffffffffffffffffffffffffffffffffffffffffffffffffffffffffffffc18840196848811916001986001890194858a11965b60ff8210613645577f010ca320000000000000000000000000000000000000000000000000000000005f5260045ffd5b805f5b8d8d82106136e45750509081878661367c8f9561315a8f9897613080839a6136746103e8978892612a0c565b049189612a0c565b916113295761368c8c9388612a0c565b0491611329576136a58f93926130806136ab948d612a0c565b90612eca565b9283818111156136d5570311156136c6578b905b0190613615565b50985050505050505050915090565b900311156136c6578b906136bf565b909691939c926136f78561370592612a0c565b6136a585612ff18b87612fb5565b96019b929095919b613648565b50509150505f90565b9361372c60019161316f8789612fb5565b94016135c2565b60ff81146137875760ff811690601f821161375f57604051916137558361269e565b8252602082015290565b7fb3512b0c000000000000000000000000000000000000000000000000000000005f5260045ffd5b506040515f815f54916137998361284a565b8083529260209060019081811690811561382257506001146137c4575b5050612ac3925003826126ba565b9150925f80527f290decd9548b62a8d60345a988386fc84ba6bc95484008f6362f93160ef3e563935f925b82841061380a5750612ac39450505081016020015f806137b6565b855487850183015294850194869450928101926137ef565b905060209350612ac39592507fffffffffffffffffffffffffffffffffffffffffffffffffffffffffffffff0091501682840152151560051b8201015f806137b6565b60ff81146138875760ff811690601f821161375f57604051916137558361269e565b506040515f8160019160015461389c8161284a565b808452936020916001811690811561382257506001146138c4575050612ac3925003826126ba565b91509260015f527fb10e2d527612073b26eecdfd717e6a320cf44b4afac2b0732d9fcbe2b7fa0cf6935f925b82841061390b5750612ac39450505081016020015f806137b6565b855487850183015294850194869450928101926138f0565b91907f7fffffffffffffffffffffffffffffff5d576e7357a4501ddfe92f46681b20a084116139a7579160209360809260ff5f9560405194855216868401526040830152606082015282805260015afa15611fdf575f5173ffffffffffffffffffffffffffffffffffffffff81161561399d57905f905f90565b505f906001905f90565b5050505f9160039190565b600481101561281d57806139c4575050565b600181036139f4577ff645eedf000000000000000000000000000000000000000000000000000000005f5260045ffd5b60028103613a2857507ffce698f7000000000000000000000000000000000000000000000000000000005f5260045260245ffd5b600314613a325750565b7fd78bce0c000000000000000000000000000000000000000000000000000000005f5260045260245ffdfea2646970667358221220d3d1f21299e4fbc723e2f5e491ffbd257009c9ea5246f8a0f4a857774b07f4c164736f6c634300081b0033c2575a0e9e593c00f959f8c92f12db2869c3395a3b0502d05e2516446f71f85b",
  "linkReferences": {},
  "deployedLinkReferences": {}
}