{
  "_format": "hh-sol-artifact-1",
  "contractName": "AggregatorRouter",
  "sourceName": "contracts/AggregatorRouter.sol",
  "abi": [
    {
      "inputs": [
        {
          "internalType": "contract IVault",
          "name": "vault",
          "type": "address"
        },
        {
          "internalType": "string",
          "name": "routerVersion",
          "type": "string"
        }
      ],
      "stateMutability": "nonpayable",
      "type": "constructor"
    },
    {
      "inputs": [],
      "name": "CannotReceiveEth",
      "type": "error"
    },
    {
      "inputs": [],
      "name": "EthTransfer",
      "type": "error"
    },
    {
      "inputs": [],
      "name": "ReentrancyGuardReentrantCall",
      "type": "error"
    },
    {
      "inputs": [
        {
          "internalType": "address",
          "name": "sender",
          "type": "address"
        }
      ],
      "name": "SenderIsNotVault",
      "type": "error"
    },
    {
      "inputs": [],
      "name": "SwapDeadline",
      "type": "error"
    },
    {
      "inputs": [],
      "name": "SwapInsufficientPayment",
      "type": "error"
    },
    {
      "inputs": [],
      "name": "getSender",
      "outputs": [
        {
          "internalType": "address",
          "name": "",
          "type": "address"
        }
      ],
      "stateMutability": "view",
      "type": "function"
    },
    {
      "inputs": [],
      "name": "getVault",
      "outputs": [
        {
          "internalType": "contract IVault",
          "name": "",
          "type": "address"
        }
      ],
      "stateMutability": "view",
      "type": "function"
    },
    {
      "inputs": [
        {
          "components": [
            {
              "internalType": "address",
              "name": "sender",
              "type": "address"
            },
            {
              "internalType": "enum SwapKind",
              "name": "kind",
              "type": "uint8"
            },
            {
              "internalType": "address",
              "name": "pool",
              "type": "address"
            },
            {
              "internalType": "contract IERC20",
              "name": "tokenIn",
              "type": "address"
            },
            {
              "internalType": "contract IERC20",
              "name": "tokenOut",
              "type": "address"
            },
            {
              "internalType": "uint256",
              "name": "amountGiven",
              "type": "uint256"
            },
            {
              "internalType": "uint256",
              "name": "limit",
              "type": "uint256"
            },
            {
              "internalType": "uint256",
              "name": "deadline",
              "type": "uint256"
            },
            {
              "internalType": "bool",
              "name": "wethIsEth",
              "type": "bool"
            },
            {
              "internalType": "bytes",
              "name": "userData",
              "type": "bytes"
            }
          ],
          "internalType": "struct IRouter.SwapSingleTokenHookParams",
          "name": "params",
          "type": "tuple"
        }
      ],
      "name": "querySwapHook",
      "outputs": [
        {
          "internalType": "uint256",
          "name": "",
          "type": "uint256"
        }
      ],
      "stateMutability": "nonpayable",
      "type": "function"
    },
    {
      "inputs": [
        {
          "internalType": "address",
          "name": "pool",
          "type": "address"
        },
        {
          "internalType": "contract IERC20",
          "name": "tokenIn",
          "type": "address"
        },
        {
          "internalType": "contract IERC20",
          "name": "tokenOut",
          "type": "address"
        },
        {
          "internalType": "uint256",
          "name": "exactAmountIn",
          "type": "uint256"
        },
        {
          "internalType": "address",
          "name": "sender",
          "type": "address"
        },
        {
          "internalType": "bytes",
          "name": "userData",
          "type": "bytes"
        }
      ],
      "name": "querySwapSingleTokenExactIn",
      "outputs": [
        {
          "internalType": "uint256",
          "name": "amountCalculated",
          "type": "uint256"
        }
      ],
      "stateMutability": "nonpayable",
      "type": "function"
    },
    {
      "inputs": [
        {
          "internalType": "address",
          "name": "pool",
          "type": "address"
        },
        {
          "internalType": "contract IERC20",
          "name": "tokenIn",
          "type": "address"
        },
        {
          "internalType": "contract IERC20",
          "name": "tokenOut",
          "type": "address"
        },
        {
          "internalType": "uint256",
          "name": "exactAmountOut",
          "type": "uint256"
        },
        {
          "internalType": "address",
          "name": "sender",
          "type": "address"
        },
        {
          "internalType": "bytes",
          "name": "userData",
          "type": "bytes"
        }
      ],
      "name": "querySwapSingleTokenExactOut",
      "outputs": [
        {
          "internalType": "uint256",
          "name": "amountCalculated",
          "type": "uint256"
        }
      ],
      "stateMutability": "nonpayable",
      "type": "function"
    },
    {
      "inputs": [
        {
          "internalType": "address",
          "name": "pool",
          "type": "address"
        },
        {
          "internalType": "contract IERC20",
          "name": "tokenIn",
          "type": "address"
        },
        {
          "internalType": "contract IERC20",
          "name": "tokenOut",
          "type": "address"
        },
        {
          "internalType": "uint256",
          "name": "exactAmountIn",
          "type": "uint256"
        },
        {
          "internalType": "uint256",
          "name": "minAmountOut",
          "type": "uint256"
        },
        {
          "internalType": "uint256",
          "name": "deadline",
          "type": "uint256"
        },
        {
          "internalType": "bytes",
          "name": "userData",
          "type": "bytes"
        }
      ],
      "name": "swapSingleTokenExactIn",
      "outputs": [
        {
          "internalType": "uint256",
          "name": "",
          "type": "uint256"
        }
      ],
      "stateMutability": "nonpayable",
      "type": "function"
    },
    {
      "inputs": [
        {
          "internalType": "address",
          "name": "pool",
          "type": "address"
        },
        {
          "internalType": "contract IERC20",
          "name": "tokenIn",
          "type": "address"
        },
        {
          "internalType": "contract IERC20",
          "name": "tokenOut",
          "type": "address"
        },
        {
          "internalType": "uint256",
          "name": "exactAmountOut",
          "type": "uint256"
        },
        {
          "internalType": "uint256",
          "name": "maxAmountIn",
          "type": "uint256"
        },
        {
          "internalType": "uint256",
          "name": "deadline",
          "type": "uint256"
        },
        {
          "internalType": "bytes",
          "name": "userData",
          "type": "bytes"
        }
      ],
      "name": "swapSingleTokenExactOut",
      "outputs": [
        {
          "internalType": "uint256",
          "name": "",
          "type": "uint256"
        }
      ],
      "stateMutability": "nonpayable",
      "type": "function"
    },
    {
      "inputs": [
        {
          "components": [
            {
              "internalType": "address",
              "name": "sender",
              "type": "address"
            },
            {
              "internalType": "enum SwapKind",
              "name": "kind",
              "type": "uint8"
            },
            {
              "internalType": "address",
              "name": "pool",
              "type": "address"
            },
            {
              "internalType": "contract IERC20",
              "name": "tokenIn",
              "type": "address"
            },
            {
              "internalType": "contract IERC20",
              "name": "tokenOut",
              "type": "address"
            },
            {
              "internalType": "uint256",
              "name": "amountGiven",
              "type": "uint256"
            },
            {
              "internalType": "uint256",
              "name": "limit",
              "type": "uint256"
            },
            {
              "internalType": "uint256",
              "name": "deadline",
              "type": "uint256"
            },
            {
              "internalType": "bool",
              "name": "wethIsEth",
              "type": "bool"
            },
            {
              "internalType": "bytes",
              "name": "userData",
              "type": "bytes"
            }
          ],
          "internalType": "struct IRouter.SwapSingleTokenHookParams",
          "name": "params",
          "type": "tuple"
        }
      ],
      "name": "swapSingleTokenHook",
      "outputs": [
        {
          "internalType": "uint256",
          "name": "",
          "type": "uint256"
        }
      ],
      "stateMutability": "nonpayable",
      "type": "function"
    },
    {
      "inputs": [],
      "name": "version",
      "outputs": [
        {
          "internalType": "string",
          "name": "",
          "type": "string"
        }
      ],
      "stateMutability": "view",
      "type": "function"
    },
    {
      "stateMutability": "payable",
      "type": "receive"
    }
  ],
  "bytecode": "0x60c06040908082523461031f576115d6803803809161001e828561033e565b8339810190828183031261031f5780516001600160a01b038116810361031f576020828101516001600160401b039384821161031f570193601f9080828701121561031f5785518581116102f757601f1996885192610083868a87860116018561033e565b82845285838301011161031f57815f92868093018386015e8301015286516100aa81610323565b600b81528381016a14d95b99195c91dd585c9960aa1b8152610142603a8a51926100d384610323565b600684528784016539b2b73232b960d11b81528c519485928a8401977f62616c616e6365722d6c6162732e76332e73746f726167652e000000000000008952518091603986015e830190601760f91b60398301525180928583015e015f8382015203601a81018452018261033e565b5190205f19949085810190811161030b5788519085820190815285825261016882610323565b9051902060ff191660805260a05280519485116102f7575f54926001938481811c911680156102ed575b828210146102d957838111610296575b50809286116001146102345750849550908492915f95610229575b50501b9260031b1c1916175f555b516112749081610362823960805181818161024e015281816105530152610e44015260a0518181816101e201528181610325015281816103e5015281816107ed0152818161097701528181610efa015281816110dc01526111ab0152f35b015193505f806101bd565b939295859081165f8052855f20955f905b8983831061027c5750505010610264575b50505050811b015f556101cb565b01519060f88460031b161c191690555f808080610256565b858701518955909701969485019488935090810190610245565b5f8052815f208480890160051c820192848a106102d0575b0160051c019085905b8281106102c55750506101a2565b5f81550185906102b7565b925081926102ae565b634e487b7160e01b5f52602260045260245ffd5b90607f1690610192565b634e487b7160e01b5f52604160045260245ffd5b634e487b7160e01b5f52601160045260245ffd5b5f80fd5b604081019081106001600160401b038211176102f757604052565b601f909101601f19168101906001600160401b038211908210176102f75760405256fe60806040526004361015610040575b3615610018575f80fd5b7ff2238896000000000000000000000000000000000000000000000000000000005f5260045ffd5b5f3560e01c8063175d4408146109e35780633ebc54e51461085a578063409988cf146106d257806354fd4d50146105915780635e01eb5a1461053f57806368a24fe0146103495780638d928af8146102f9578063be5ae841146102a45763fed293670361000e5734610273576100b536610bf9565b929093959495336100c590610e3f565b96604051966100d388610aad565b3388526020998a89016001905273ffffffffffffffffffffffffffffffffffffffff16604089015273ffffffffffffffffffffffffffffffffffffffff16606088015273ffffffffffffffffffffffffffffffffffffffff16608087015260a086015260c085015260e084015261010083015f9052369061015392610b36565b6101208201526040517f68a24fe000000000000000000000000000000000000000000000000000000000848201529081906101919060248301610d1d565b03601f19810182526101a39082610af7565b60405180917f48c89491000000000000000000000000000000000000000000000000000000008252846004830152602482016101de91610c8b565b03817f000000000000000000000000000000000000000000000000000000000000000073ffffffffffffffffffffffffffffffffffffffff1691815a5f948591f1908115610299575f91610277575b508281805181010312610273578201519061024b575b604051908152f35b5f7f00000000000000000000000000000000000000000000000000000000000000005d610243565b5f80fd5b61029391503d805f833e61028b8183610af7565b810190610dbb565b5f61022d565b6040513d5f823e3d90fd5b346102735760206102cc6102b736610cb0565b6102bf610e8e565b6102c7610ee3565b610f4e565b50505f7f9b779b17422d0df92223018b32b4d1fa46e071723d6817e2486d003becc55f005d604051908152f35b34610273575f60031936011261027357602060405173ffffffffffffffffffffffffffffffffffffffff7f0000000000000000000000000000000000000000000000000000000000000000168152f35b346102735761035736610cb0565b61035f610e8e565b610367610ee3565b60209081810135600281101561027357806105345760a0820135915b73ffffffffffffffffffffffffffffffffffffffff906060810193858360446103ab88610e1e565b5f60405197889485937f15afd4090000000000000000000000000000000000000000000000000000000085521660048401528660248401527f0000000000000000000000000000000000000000000000000000000000000000165af1928315610299575f93610505575b5082106104dd5760019361042882610f4e565b949196909514610480575b5050610455925061044f608061044883610e1e565b9201610e1e565b9061118a565b5f7f9b779b17422d0df92223018b32b4d1fa46e071723d6817e2486d003becc55f005d604051908152f35b61049261048c84610e1e565b92610e1e565b9481039081116104b057610455946104a99261118a565b8580610433565b7f4e487b71000000000000000000000000000000000000000000000000000000005f52601160045260245ffd5b7ff70282c3000000000000000000000000000000000000000000000000000000005f5260045ffd5b9092508581813d831161052d575b61051d8183610af7565b8101031261027357519186610415565b503d610513565b60c082013591610383565b34610273575f6003193601126102735760207f00000000000000000000000000000000000000000000000000000000000000005c73ffffffffffffffffffffffffffffffffffffffff60405191168152f35b34610273575f600319360112610273576040515f5f549060018260011c91600184169182156106c8575b602094858510841461069b5785879486865291825f1461065d575050600114610604575b506105ec92500383610af7565b610600604051928284938452830190610c8b565b0390f35b5f808052859250907f290decd9548b62a8d60345a988386fc84ba6bc95484008f6362f93160ef3e5635b8583106106455750506105ec9350820101856105df565b8054838901850152879450869390920191810161062e565b7fffffffffffffffffffffffffffffffffffffffffffffffffffffffffffffff0016858201526105ec95151560051b85010192508791506105df9050565b7f4e487b71000000000000000000000000000000000000000000000000000000005f52602260045260245ffd5b92607f16926105bb565b34610273575f6020816107e961076361079e6107ac6106f036610bf9565b9390949c966107049a969a93929333610e3f565b9d73ffffffffffffffffffffffffffffffffffffffff809c8f829483916040519d8e61072f81610aad565b33815201521660408c01521660608a015216608088015260a087015260c086015260e0850152886101008501523691610b36565b6101208201526040519283917f68a24fe000000000000000000000000000000000000000000000000000000000602084015260248301610d1d565b03601f198101835282610af7565b6040519586809481937f48c89491000000000000000000000000000000000000000000000000000000008352602060048401526024830190610c8b565b03927f0000000000000000000000000000000000000000000000000000000000000000165af1918215610299575f9261083e575b50602082805181010312610273576020809201519061024b57604051908152f35b6108539192503d805f833e61028b8183610af7565b908261081d565b346102735761086836610b6c565b906108769094939294610e3f565b9373ffffffffffffffffffffffffffffffffffffffff8093816040519661089c88610aad565b3388528160209a8b8a015f905216604089015216606087015216608085015260a084015260c083015f905260e083016fffffffffffffffffffffffffffffffff905261010083015f905261012083015260405180928582017fbe5ae841000000000000000000000000000000000000000000000000000000009052602482019061092591610d1d565b03601f19810183526109379083610af7565b6040518080937fedfa35680000000000000000000000000000000000000000000000000000000082528660048301526024820161097391610c8b565b03917f00000000000000000000000000000000000000000000000000000000000000001691815a5f948591f1908115610299575f916109c957508281805181010312610273578201519061024b57604051908152f35b6109dd91503d805f833e61028b8183610af7565b8361022d565b34610273576109f136610b6c565b906109ff9094939294610e3f565b9373ffffffffffffffffffffffffffffffffffffffff80938160405196610a2588610aad565b3388528160209a8b8a016001905216604089015216606087015216608085015260a08401526fffffffffffffffffffffffffffffffff8060c085015260e084015261010083015f905261012083015260405180928582017fbe5ae841000000000000000000000000000000000000000000000000000000009052602482019061092591610d1d565b610140810190811067ffffffffffffffff821117610aca57604052565b7f4e487b71000000000000000000000000000000000000000000000000000000005f52604160045260245ffd5b90601f601f19910116810190811067ffffffffffffffff821117610aca57604052565b67ffffffffffffffff8111610aca57601f01601f191660200190565b929192610b4282610b1a565b91610b506040519384610af7565b829481845281830111610273578281602093845f960137010152565b60c06003198201126102735773ffffffffffffffffffffffffffffffffffffffff91600435838116810361027357926024358181168103610273579260443582811681036102735792606435926084359081168103610273579160a4359067ffffffffffffffff8211610273578060238301121561027357816024610bf693600401359101610b36565b90565b60e06003198201126102735773ffffffffffffffffffffffffffffffffffffffff90600435828116810361027357926024358381168103610273579260443590811681036102735791606435916084359160a4359160c43567ffffffffffffffff9283821161027357806023830112156102735781600401359384116102735760248483010111610273576024019190565b90601f19601f602080948051918291828752018686015e5f8582860101520116010190565b60031990602082820112610273576004359167ffffffffffffffff83116102735782610140920301126102735760040190565b906002821015610cf05752565b7f4e487b71000000000000000000000000000000000000000000000000000000005f52602160045260245ffd5b610160610bf6926020835273ffffffffffffffffffffffffffffffffffffffff808251166020850152610d5860208301516040860190610ce3565b80604083015116606085015280606083015116608085015260808201511660a084015260a081015160c084015260c081015160e084015260e081015161010090818501528101519061012091151582850152015191610140808201520190610c8b565b6020818303126102735780519067ffffffffffffffff8211610273570181601f8201121561027357805190610def82610b1a565b92610dfd6040519485610af7565b8284526020838301011161027357815f9260208093018386015e8301015290565b3573ffffffffffffffffffffffffffffffffffffffff811681036102735790565b905f917f000000000000000000000000000000000000000000000000000000000000000073ffffffffffffffffffffffffffffffffffffffff815c1615610e84575050565b909192505d600190565b7f9b779b17422d0df92223018b32b4d1fa46e071723d6817e2486d003becc55f00805c610ebb576001905d565b7f3ee5aeb5000000000000000000000000000000000000000000000000000000005f5260045ffd5b73ffffffffffffffffffffffffffffffffffffffff7f0000000000000000000000000000000000000000000000000000000000000000163303610f2257565b7f089676d5000000000000000000000000000000000000000000000000000000005f523360045260245ffd5b60e0810135421161116257602081013573ffffffffffffffffffffffffffffffffffffffff600282101561027357604092610f8a848201610e1e565b91606093610f99858401610e1e565b93610fa660808501610e1e565b6101208501357fffffffffffffffffffffffffffffffffffffffffffffffffffffffffffffffe1863603018112156102735785019081359567ffffffffffffffff9283881161027357602001968036038813610273578a519360e0850190811185821017610aca578a98889788928e528652816020870197168752818d87019b168b52818a870195168552608086019260a0850135845260a087019460c001358552369061105392610b36565b9360c08601948552818d519b8c9a8b998a997f2bfb780c000000000000000000000000000000000000000000000000000000008b5260048b016020905260248b019051906110a091610ce3565b5116604489015251166064870152511660848501525160a48401525160c48301525160e4820160e0905261010482016110d891610c8b565b03917f0000000000000000000000000000000000000000000000000000000000000000165a905f91f1908115611158575f935f935f9361111b575b505050909192565b92509250809350813d8311611151575b6111358183610af7565b81010312610273578151602083015191909201515f8080611113565b503d61112b565b83513d5f823e3d90fd5b7fe08b8af0000000000000000000000000000000000000000000000000000000005f5260045ffd5b919081156112395773ffffffffffffffffffffffffffffffffffffffff90817f00000000000000000000000000000000000000000000000000000000000000001690813b15610273575f60649281958560405198899788967fae63932900000000000000000000000000000000000000000000000000000000885216600487015216602485015260448401525af18015610299576112255750565b67ffffffffffffffff8111610aca57604052565b50505056fea2646970667358221220745d7e562c102cd155c92b631010ccfcfa2fe62d3c90cda7d5d19424aa4fd53764736f6c634300081b0033",
  "linkReferences": {},
  "deployedLinkReferences": {}
}