{
  "_format": "hh-sol-artifact-1",
  "contractName": "ProtocolFeeController",
  "sourceName": "contracts/ProtocolFeeController.sol",
  "abi": [
    {
      "inputs": [
        {
          "internalType": "contract IVault",
          "name": "vault_",
          "type": "address"
        }
      ],
      "stateMutability": "nonpayable",
      "type": "constructor"
    },
    {
      "inputs": [
        {
          "internalType": "address",
          "name": "target",
          "type": "address"
        }
      ],
      "name": "AddressEmptyCode",
      "type": "error"
    },
    {
      "inputs": [
        {
          "internalType": "address",
          "name": "account",
          "type": "address"
        }
      ],
      "name": "AddressInsufficientBalance",
      "type": "error"
    },
    {
      "inputs": [
        {
          "internalType": "address",
          "name": "caller",
          "type": "address"
        },
        {
          "internalType": "address",
          "name": "pool",
          "type": "address"
        }
      ],
      "name": "CallerIsNotPoolCreator",
      "type": "error"
    },
    {
      "inputs": [],
      "name": "FailedInnerCall",
      "type": "error"
    },
    {
      "inputs": [],
      "name": "FeePrecisionTooHigh",
      "type": "error"
    },
    {
      "inputs": [],
      "name": "InvalidMigrationSource",
      "type": "error"
    },
    {
      "inputs": [
        {
          "internalType": "address",
          "name": "pool",
          "type": "address"
        }
      ],
      "name": "PoolAlreadyRegistered",
      "type": "error"
    },
    {
      "inputs": [],
      "name": "PoolCreatorFeePercentageTooHigh",
      "type": "error"
    },
    {
      "inputs": [
        {
          "internalType": "address",
          "name": "pool",
          "type": "address"
        }
      ],
      "name": "PoolCreatorNotRegistered",
      "type": "error"
    },
    {
      "inputs": [],
      "name": "ProtocolSwapFeePercentageTooHigh",
      "type": "error"
    },
    {
      "inputs": [],
      "name": "ProtocolYieldFeePercentageTooHigh",
      "type": "error"
    },
    {
      "inputs": [],
      "name": "ReentrancyGuardReentrantCall",
      "type": "error"
    },
    {
      "inputs": [
        {
          "internalType": "uint8",
          "name": "bits",
          "type": "uint8"
        },
        {
          "internalType": "uint256",
          "name": "value",
          "type": "uint256"
        }
      ],
      "name": "SafeCastOverflowedUintDowncast",
      "type": "error"
    },
    {
      "inputs": [
        {
          "internalType": "address",
          "name": "token",
          "type": "address"
        }
      ],
      "name": "SafeERC20FailedOperation",
      "type": "error"
    },
    {
      "inputs": [
        {
          "internalType": "address",
          "name": "sender",
          "type": "address"
        }
      ],
      "name": "SenderIsNotVault",
      "type": "error"
    },
    {
      "inputs": [],
      "name": "SenderNotAllowed",
      "type": "error"
    },
    {
      "inputs": [],
      "name": "ZeroDivision",
      "type": "error"
    },
    {
      "anonymous": false,
      "inputs": [
        {
          "indexed": false,
          "internalType": "uint256",
          "name": "swapFeePercentage",
          "type": "uint256"
        }
      ],
      "name": "GlobalProtocolSwapFeePercentageChanged",
      "type": "event"
    },
    {
      "anonymous": false,
      "inputs": [
        {
          "indexed": false,
          "internalType": "uint256",
          "name": "yieldFeePercentage",
          "type": "uint256"
        }
      ],
      "name": "GlobalProtocolYieldFeePercentageChanged",
      "type": "event"
    },
    {
      "anonymous": false,
      "inputs": [
        {
          "indexed": true,
          "internalType": "address",
          "name": "pool",
          "type": "address"
        },
        {
          "indexed": false,
          "internalType": "uint256",
          "name": "aggregateSwapFeePercentage",
          "type": "uint256"
        },
        {
          "indexed": false,
          "internalType": "bool",
          "name": "isProtocolFeeExempt",
          "type": "bool"
        }
      ],
      "name": "InitialPoolAggregateSwapFeePercentage",
      "type": "event"
    },
    {
      "anonymous": false,
      "inputs": [
        {
          "indexed": true,
          "internalType": "address",
          "name": "pool",
          "type": "address"
        },
        {
          "indexed": false,
          "internalType": "uint256",
          "name": "aggregateYieldFeePercentage",
          "type": "uint256"
        },
        {
          "indexed": false,
          "internalType": "bool",
          "name": "isProtocolFeeExempt",
          "type": "bool"
        }
      ],
      "name": "InitialPoolAggregateYieldFeePercentage",
      "type": "event"
    },
    {
      "anonymous": false,
      "inputs": [
        {
          "indexed": true,
          "internalType": "address",
          "name": "pool",
          "type": "address"
        },
        {
          "indexed": true,
          "internalType": "contract IERC20",
          "name": "token",
          "type": "address"
        },
        {
          "indexed": true,
          "internalType": "address",
          "name": "recipient",
          "type": "address"
        },
        {
          "indexed": false,
          "internalType": "uint256",
          "name": "amount",
          "type": "uint256"
        }
      ],
      "name": "PoolCreatorFeesWithdrawn",
      "type": "event"
    },
    {
      "anonymous": false,
      "inputs": [
        {
          "indexed": true,
          "internalType": "address",
          "name": "pool",
          "type": "address"
        },
        {
          "indexed": false,
          "internalType": "uint256",
          "name": "poolCreatorSwapFeePercentage",
          "type": "uint256"
        }
      ],
      "name": "PoolCreatorSwapFeePercentageChanged",
      "type": "event"
    },
    {
      "anonymous": false,
      "inputs": [
        {
          "indexed": true,
          "internalType": "address",
          "name": "pool",
          "type": "address"
        },
        {
          "indexed": false,
          "internalType": "uint256",
          "name": "poolCreatorYieldFeePercentage",
          "type": "uint256"
        }
      ],
      "name": "PoolCreatorYieldFeePercentageChanged",
      "type": "event"
    },
    {
      "anonymous": false,
      "inputs": [
        {
          "indexed": true,
          "internalType": "address",
          "name": "pool",
          "type": "address"
        },
        {
          "indexed": true,
          "internalType": "address",
          "name": "poolCreator",
          "type": "address"
        },
        {
          "indexed": false,
          "internalType": "bool",
          "name": "protocolFeeExempt",
          "type": "bool"
        }
      ],
      "name": "PoolWithCreatorRegistered",
      "type": "event"
    },
    {
      "anonymous": false,
      "inputs": [
        {
          "indexed": true,
          "internalType": "address",
          "name": "pool",
          "type": "address"
        },
        {
          "indexed": true,
          "internalType": "contract IERC20",
          "name": "token",
          "type": "address"
        },
        {
          "indexed": true,
          "internalType": "address",
          "name": "recipient",
          "type": "address"
        },
        {
          "indexed": false,
          "internalType": "uint256",
          "name": "amount",
          "type": "uint256"
        }
      ],
      "name": "ProtocolFeesWithdrawn",
      "type": "event"
    },
    {
      "anonymous": false,
      "inputs": [
        {
          "indexed": true,
          "internalType": "address",
          "name": "pool",
          "type": "address"
        },
        {
          "indexed": true,
          "internalType": "contract IERC20",
          "name": "token",
          "type": "address"
        },
        {
          "indexed": false,
          "internalType": "uint256",
          "name": "amount",
          "type": "uint256"
        }
      ],
      "name": "ProtocolSwapFeeCollected",
      "type": "event"
    },
    {
      "anonymous": false,
      "inputs": [
        {
          "indexed": true,
          "internalType": "address",
          "name": "pool",
          "type": "address"
        },
        {
          "indexed": false,
          "internalType": "uint256",
          "name": "swapFeePercentage",
          "type": "uint256"
        }
      ],
      "name": "ProtocolSwapFeePercentageChanged",
      "type": "event"
    },
    {
      "anonymous": false,
      "inputs": [
        {
          "indexed": true,
          "internalType": "address",
          "name": "pool",
          "type": "address"
        },
        {
          "indexed": true,
          "internalType": "contract IERC20",
          "name": "token",
          "type": "address"
        },
        {
          "indexed": false,
          "internalType": "uint256",
          "name": "amount",
          "type": "uint256"
        }
      ],
      "name": "ProtocolYieldFeeCollected",
      "type": "event"
    },
    {
      "anonymous": false,
      "inputs": [
        {
          "indexed": true,
          "internalType": "address",
          "name": "pool",
          "type": "address"
        },
        {
          "indexed": false,
          "internalType": "uint256",
          "name": "yieldFeePercentage",
          "type": "uint256"
        }
      ],
      "name": "ProtocolYieldFeePercentageChanged",
      "type": "event"
    },
    {
      "inputs": [],
      "name": "MAX_CREATOR_FEE_PERCENTAGE",
      "outputs": [
        {
          "internalType": "uint256",
          "name": "",
          "type": "uint256"
        }
      ],
      "stateMutability": "view",
      "type": "function"
    },
    {
      "inputs": [],
      "name": "MAX_PROTOCOL_SWAP_FEE_PERCENTAGE",
      "outputs": [
        {
          "internalType": "uint256",
          "name": "",
          "type": "uint256"
        }
      ],
      "stateMutability": "view",
      "type": "function"
    },
    {
      "inputs": [],
      "name": "MAX_PROTOCOL_YIELD_FEE_PERCENTAGE",
      "outputs": [
        {
          "internalType": "uint256",
          "name": "",
          "type": "uint256"
        }
      ],
      "stateMutability": "view",
      "type": "function"
    },
    {
      "inputs": [
        {
          "internalType": "address",
          "name": "pool",
          "type": "address"
        }
      ],
      "name": "collectAggregateFees",
      "outputs": [],
      "stateMutability": "nonpayable",
      "type": "function"
    },
    {
      "inputs": [
        {
          "internalType": "address",
          "name": "pool",
          "type": "address"
        }
      ],
      "name": "collectAggregateFeesHook",
      "outputs": [],
      "stateMutability": "nonpayable",
      "type": "function"
    },
    {
      "inputs": [
        {
          "internalType": "uint256",
          "name": "protocolFeePercentage",
          "type": "uint256"
        },
        {
          "internalType": "uint256",
          "name": "poolCreatorFeePercentage",
          "type": "uint256"
        }
      ],
      "name": "computeAggregateFeePercentage",
      "outputs": [
        {
          "internalType": "uint256",
          "name": "",
          "type": "uint256"
        }
      ],
      "stateMutability": "pure",
      "type": "function"
    },
    {
      "inputs": [
        {
          "internalType": "bytes4",
          "name": "selector",
          "type": "bytes4"
        }
      ],
      "name": "getActionId",
      "outputs": [
        {
          "internalType": "bytes32",
          "name": "",
          "type": "bytes32"
        }
      ],
      "stateMutability": "view",
      "type": "function"
    },
    {
      "inputs": [],
      "name": "getAuthorizer",
      "outputs": [
        {
          "internalType": "contract IAuthorizer",
          "name": "",
          "type": "address"
        }
      ],
      "stateMutability": "view",
      "type": "function"
    },
    {
      "inputs": [],
      "name": "getGlobalProtocolSwapFeePercentage",
      "outputs": [
        {
          "internalType": "uint256",
          "name": "",
          "type": "uint256"
        }
      ],
      "stateMutability": "view",
      "type": "function"
    },
    {
      "inputs": [],
      "name": "getGlobalProtocolYieldFeePercentage",
      "outputs": [
        {
          "internalType": "uint256",
          "name": "",
          "type": "uint256"
        }
      ],
      "stateMutability": "view",
      "type": "function"
    },
    {
      "inputs": [
        {
          "internalType": "address",
          "name": "pool",
          "type": "address"
        }
      ],
      "name": "getPoolCreatorFeeAmounts",
      "outputs": [
        {
          "internalType": "uint256[]",
          "name": "feeAmounts",
          "type": "uint256[]"
        }
      ],
      "stateMutability": "view",
      "type": "function"
    },
    {
      "inputs": [
        {
          "internalType": "address",
          "name": "pool",
          "type": "address"
        }
      ],
      "name": "getPoolCreatorSwapFeePercentage",
      "outputs": [
        {
          "internalType": "uint256",
          "name": "",
          "type": "uint256"
        }
      ],
      "stateMutability": "view",
      "type": "function"
    },
    {
      "inputs": [
        {
          "internalType": "address",
          "name": "pool",
          "type": "address"
        }
      ],
      "name": "getPoolCreatorYieldFeePercentage",
      "outputs": [
        {
          "internalType": "uint256",
          "name": "",
          "type": "uint256"
        }
      ],
      "stateMutability": "view",
      "type": "function"
    },
    {
      "inputs": [
        {
          "internalType": "address",
          "name": "pool",
          "type": "address"
        }
      ],
      "name": "getPoolProtocolSwapFeeInfo",
      "outputs": [
        {
          "internalType": "uint256",
          "name": "",
          "type": "uint256"
        },
        {
          "internalType": "bool",
          "name": "",
          "type": "bool"
        }
      ],
      "stateMutability": "view",
      "type": "function"
    },
    {
      "inputs": [
        {
          "internalType": "address",
          "name": "pool",
          "type": "address"
        }
      ],
      "name": "getPoolProtocolYieldFeeInfo",
      "outputs": [
        {
          "internalType": "uint256",
          "name": "",
          "type": "uint256"
        },
        {
          "internalType": "bool",
          "name": "",
          "type": "bool"
        }
      ],
      "stateMutability": "view",
      "type": "function"
    },
    {
      "inputs": [
        {
          "internalType": "address",
          "name": "pool",
          "type": "address"
        }
      ],
      "name": "getProtocolFeeAmounts",
      "outputs": [
        {
          "internalType": "uint256[]",
          "name": "feeAmounts",
          "type": "uint256[]"
        }
      ],
      "stateMutability": "view",
      "type": "function"
    },
    {
      "inputs": [],
      "name": "getVault",
      "outputs": [
        {
          "internalType": "contract IVault",
          "name": "",
          "type": "address"
        }
      ],
      "stateMutability": "view",
      "type": "function"
    },
    {
      "inputs": [
        {
          "internalType": "address",
          "name": "pool",
          "type": "address"
        }
      ],
      "name": "isPoolRegistered",
      "outputs": [
        {
          "internalType": "bool",
          "name": "",
          "type": "bool"
        }
      ],
      "stateMutability": "view",
      "type": "function"
    },
    {
      "inputs": [
        {
          "internalType": "address",
          "name": "pool",
          "type": "address"
        }
      ],
      "name": "migratePool",
      "outputs": [],
      "stateMutability": "nonpayable",
      "type": "function"
    },
    {
      "inputs": [
        {
          "internalType": "address",
          "name": "pool",
          "type": "address"
        },
        {
          "internalType": "address",
          "name": "poolCreator",
          "type": "address"
        },
        {
          "internalType": "bool",
          "name": "protocolFeeExempt",
          "type": "bool"
        }
      ],
      "name": "registerPool",
      "outputs": [
        {
          "internalType": "uint256",
          "name": "aggregateSwapFeePercentage",
          "type": "uint256"
        },
        {
          "internalType": "uint256",
          "name": "aggregateYieldFeePercentage",
          "type": "uint256"
        }
      ],
      "stateMutability": "nonpayable",
      "type": "function"
    },
    {
      "inputs": [
        {
          "internalType": "uint256",
          "name": "newProtocolSwapFeePercentage",
          "type": "uint256"
        }
      ],
      "name": "setGlobalProtocolSwapFeePercentage",
      "outputs": [],
      "stateMutability": "nonpayable",
      "type": "function"
    },
    {
      "inputs": [
        {
          "internalType": "uint256",
          "name": "newProtocolYieldFeePercentage",
          "type": "uint256"
        }
      ],
      "name": "setGlobalProtocolYieldFeePercentage",
      "outputs": [],
      "stateMutability": "nonpayable",
      "type": "function"
    },
    {
      "inputs": [
        {
          "internalType": "address",
          "name": "pool",
          "type": "address"
        },
        {
          "internalType": "uint256",
          "name": "poolCreatorSwapFeePercentage",
          "type": "uint256"
        }
      ],
      "name": "setPoolCreatorSwapFeePercentage",
      "outputs": [],
      "stateMutability": "nonpayable",
      "type": "function"
    },
    {
      "inputs": [
        {
          "internalType": "address",
          "name": "pool",
          "type": "address"
        },
        {
          "internalType": "uint256",
          "name": "poolCreatorYieldFeePercentage",
          "type": "uint256"
        }
      ],
      "name": "setPoolCreatorYieldFeePercentage",
      "outputs": [],
      "stateMutability": "nonpayable",
      "type": "function"
    },
    {
      "inputs": [
        {
          "internalType": "address",
          "name": "pool",
          "type": "address"
        },
        {
          "internalType": "uint256",
          "name": "newProtocolSwapFeePercentage",
          "type": "uint256"
        }
      ],
      "name": "setProtocolSwapFeePercentage",
      "outputs": [],
      "stateMutability": "nonpayable",
      "type": "function"
    },
    {
      "inputs": [
        {
          "internalType": "address",
          "name": "pool",
          "type": "address"
        },
        {
          "internalType": "uint256",
          "name": "newProtocolYieldFeePercentage",
          "type": "uint256"
        }
      ],
      "name": "setProtocolYieldFeePercentage",
      "outputs": [],
      "stateMutability": "nonpayable",
      "type": "function"
    },
    {
      "inputs": [
        {
          "internalType": "address",
          "name": "pool",
          "type": "address"
        }
      ],
      "name": "updateProtocolSwapFeePercentage",
      "outputs": [],
      "stateMutability": "nonpayable",
      "type": "function"
    },
    {
      "inputs": [
        {
          "internalType": "address",
          "name": "pool",
          "type": "address"
        }
      ],
      "name": "updateProtocolYieldFeePercentage",
      "outputs": [],
      "stateMutability": "nonpayable",
      "type": "function"
    },
    {
      "inputs": [],
      "name": "vault",
      "outputs": [
        {
          "internalType": "contract IVault",
          "name": "",
          "type": "address"
        }
      ],
      "stateMutability": "view",
      "type": "function"
    },
    {
      "inputs": [
        {
          "internalType": "address",
          "name": "pool",
          "type": "address"
        }
      ],
      "name": "withdrawPoolCreatorFees",
      "outputs": [],
      "stateMutability": "nonpayable",
      "type": "function"
    },
    {
      "inputs": [
        {
          "internalType": "address",
          "name": "pool",
          "type": "address"
        },
        {
          "internalType": "address",
          "name": "recipient",
          "type": "address"
        }
      ],
      "name": "withdrawPoolCreatorFees",
      "outputs": [],
      "stateMutability": "nonpayable",
      "type": "function"
    },
    {
      "inputs": [
        {
          "internalType": "address",
          "name": "pool",
          "type": "address"
        },
        {
          "internalType": "address",
          "name": "recipient",
          "type": "address"
        }
      ],
      "name": "withdrawProtocolFees",
      "outputs": [],
      "stateMutability": "nonpayable",
      "type": "function"
    },
    {
      "inputs": [
        {
          "internalType": "address",
          "name": "pool",
          "type": "address"
        },
        {
          "internalType": "address",
          "name": "recipient",
          "type": "address"
        },
        {
          "internalType": "contract IERC20",
          "name": "token",
          "type": "address"
        }
      ],
      "name": "withdrawProtocolFeesForToken",
      "outputs": [],
      "stateMutability": "nonpayable",
      "type": "function"
    }
  ],
  "bytecode": "0x60e03461010257601f612db938819003918201601f19168301916001600160401b038311848410176101065780849260209460405283398101031261010257516001600160a01b038116810361010257306080528060a05260c052604051612c9e908161011b8239608051816120aa015260a051818181611074015261235d015260c0518181816102530152818161036e015281816103f8015281816105170152818161058501528181610864015281816108d201528181610c7d01528181610db301528181611510015281816116b501528181611856015281816119b001528181611b2501528181612288015281816126ba0152818161283601526129110152f35b5f80fd5b634e487b7160e01b5f52604160045260245ffdfe6080806040526004361015610012575f80fd5b5f3560e01c9081630252aab514611ede575080630874327f14611acd5780630b8e059b14611a955780630ddd60c614611a745780631377c16c146119555780632772d156146117725780632e1d388d146119335780633af52712146117fb57806352f125f0146117d057806355fb76af146117b35780635c15a0b4146117775780635e32e4e81461177257806371447ea8146115cd57806371ecc8fb1461142957806377ff76e7146111d35780637869ee18146111b75780637a2b97dc1461114c578063851c1bb3146110fc5780638a3c5c69146110985780638d928af8146110555780638df44c5414610fcd5780638f4ab9ca14610fac5780639e95f3fd14610f20578063a93df2a414610ebb578063aaabadc514610e90578063abaa335614610ce7578063b53a70b214610c00578063c673bdaf14610bc3578063cf7b287f14610b5d578063f706144514610b28578063fa399f2a14610392578063fbfa77cf1461034f5763fd267f3914610187575f80fd5b34610323576040600319360112610323576101a0611f12565b602435906101ac61242c565b6706f05b59d3b200008211610327576101c48261288a565b6101cd816121c6565b6101d682612523565b916040516101e381611f9b565b67ffffffffffffffff80941681526020810190600182526001600160a01b039182851695865f52600360205260405f209251167fffffffffffffffffffffffffffffffffffffffffffffff00000000000000000068ff000000000000000084549351151560401b169216171790557f0000000000000000000000000000000000000000000000000000000000000000169161027d81612aaa565b833b15610323576040517f5e0b06f40000000000000000000000000000000000000000000000000000000081526001600160a01b039290921660048301526024820152915f908390604490829084905af1908115610318577f97cff4b6e6d80e307faab8b730d9f69264e860f2e0e10cfb8cdaf8a2f44e839e92602092610309575b50604051908152a2005b61031290611fe4565b5f6102ff565b6040513d5f823e3d90fd5b5f80fd5b7f7e6eb7fb000000000000000000000000000000000000000000000000000000005f5260045ffd5b34610323575f6003193601126103235760206040516001600160a01b037f0000000000000000000000000000000000000000000000000000000000000000168152f35b34610323576020600319360112610323576103ab611f12565b6103b361282c565b6040517f8f4ab9ca0000000000000000000000000000000000000000000000000000000081526001600160a01b03821660048201525f81602481836001600160a01b037f0000000000000000000000000000000000000000000000000000000000000000165af1908115610318575f905f92610acb575b506001600160a01b0383165f52600360205267ffffffffffffffff60405f20541690600560205260405f2054905f928215159384610ac1575b84610ab1575b610472876128d2565b94905f5b8681106108225789896001600160a01b0382165f52600460205267ffffffffffffffff60405f205416905f92600660205260405f2054925f8415159485610818575b85610806575b6104c7846128d2565b96905f5b8881106104d457005b6104de818961214b565b516104ec575b6001016104cb565b986001600160a01b036104ff8b8461214b565b51169061050c8b8a61214b565b516001600160a01b037f0000000000000000000000000000000000000000000000000000000000000000163b1561080257604051907fae63932900000000000000000000000000000000000000000000000000000000825283600483015230602483015260448201528181606481836001600160a01b037f0000000000000000000000000000000000000000000000000000000000000000165af180156107f7579082916107e0575b506107b357505f99816105c8828b61214b565b516040519081527fe505e41b0d437b47350a9990142ccf38acb11ffa0e5af8f973b9e172f3d5d5e260206001600160a01b038c1692a383156107385761060e818a61214b565b5186156107105761061e90612575565b6001670de0b6b3a764000061065f8a7fffffffffffffffffffffffffffffffffffffffffffffffffffffffffffffffff94848c878301040190151502612592565b928301040190151502916001600160a01b0389165f52600760205260405f20815f5260205260405f20610693848254612568565b905561069f828b61214b565b519081848103116106e3576001936106d9916001600160a01b038c165f52600860205260405f20905f5260205260405f2092038254612568565b90555b90506104e4565b7f4e487b71000000000000000000000000000000000000000000000000000000005f52601160045260245ffd5b7f0a0c22c7000000000000000000000000000000000000000000000000000000005f5260045ffd5b6001918561077d5761074a828b61214b565b51906001600160a01b038a165f52600760205260405f20905f5260205261077660405f20918254612568565b90556106dc565b610787828b61214b565b51906001600160a01b038a165f52600860205260405f20905f5260205261077660405f20918254612568565b807f4e487b7100000000000000000000000000000000000000000000000000000000602492526021600452fd5b6107e990611fe4565b6107f457808c6105b5565b80fd5b6040513d84823e3d90fd5b5080fd5b905061081281836125a5565b906104be565b82151595506104b8565b61082c818761214b565b5161083a575b600101610476565b6001600160a01b0361084c828461214b565b511690610859818861214b565b516001600160a01b037f0000000000000000000000000000000000000000000000000000000000000000163b1561032357604051907fae63932900000000000000000000000000000000000000000000000000000000825283600483015230602483015260448201525f81606481836001600160a01b037f0000000000000000000000000000000000000000000000000000000000000000165af1801561031857610aa2575b50818b7fae7ebad9fc3d1d17965f063fa520d393595e2ef6c8e22ae8413b60900444e19f60206001600160a01b03610937868d61214b565b51936040519485521692a38815610a2757610952818861214b565b5185156107105761096290612575565b6001670de0b6b3a76400006109a3897fffffffffffffffffffffffffffffffffffffffffffffffffffffffffffffffff94848b878301040190151502612592565b928301040190151502916001600160a01b038c165f52600760205260405f20815f5260205260405f206109d7848254612568565b90556109e3828961214b565b519081848103116106e357600193610a1d916001600160a01b038f165f52600860205260405f20905f5260205260405f2092038254612568565b90555b9050610832565b60019184610a6c57610a39828961214b565b51906001600160a01b038d165f52600760205260405f20905f52602052610a6560405f20918254612568565b9055610a20565b610a76828961214b565b51906001600160a01b038d165f52600860205260405f20905f52602052610a6560405f20918254612568565b610aab90611fe4565b8b6108ff565b50610abc83826125a5565b610469565b8115159450610463565b9150503d805f833e610add8183612014565b8101906040818303126103235780519167ffffffffffffffff928381116103235781610b0a9184016123cb565b92602083015190811161032357610b2192016123cb565b908361042a565b3461032357604060031936011261032357610b5b610b44611f12565b610b4c611f28565b90610b56816125e6565b612775565b005b3461032357604060031936011261032357610b76611f12565b610b7e611f28565b90610b8761242c565b610b90816128d2565b915f5b838110610b9c57005b80610bbd6001600160a01b03610bb46001948761214b565b511687856129e6565b01610b93565b34610323576020600319360112610323576001600160a01b03610be4611f12565b165f526002602052602060ff60405f2054166040519015158152f35b3461032357606060031936011261032357610c19611f12565b610c21611f28565b604435906001600160a01b039283831680840361032357604090610c4361242c565b60448251809781937fc9c1661b000000000000000000000000000000000000000000000000000000008352818716600484015260248301527f0000000000000000000000000000000000000000000000000000000000000000165afa801561031857610cb4575b610b5b93506129e6565b6040843d604011610cdf575b81610ccd60409383612014565b8101031261032357610b5b9350610caa565b3d9150610cc0565b3461032357604060031936011261032357610d00611f12565b60243590610d0c61242c565b6706f05b59d3b200008211610e6857610d248261288a565b610d2d816121c6565b610d3682612523565b91604051610d4381611f9b565b67ffffffffffffffff80941681526020810190600182526001600160a01b039182851695865f52600460205260405f209251167fffffffffffffffffffffffffffffffffffffffffffffff00000000000000000068ff000000000000000084549351151560401b169216171790557f00000000000000000000000000000000000000000000000000000000000000001691610ddd81612a78565b833b15610323576040517fe253670a0000000000000000000000000000000000000000000000000000000081526001600160a01b039290921660048301526024820152915f908390604490829084905af1908115610318577faf47449d1c3597ccc9f5ec3acad03cef57aa90a719000441b320687087948efd926020926103095750604051908152a2005b7fa7849e8e000000000000000000000000000000000000000000000000000000005f5260045ffd5b34610323575f600319360112610323576020610eaa612327565b6001600160a01b0360405191168152f35b34610323576020600319360112610323576004356706f05b59d3b200008111610e6857602081610f0b7f48c5c3ccec54c4e0ea08d83d838fa9bb725eb0b52c591cb00bd6e63bca8c44f69361288a565b610f1361242c565b80600155604051908152a1005b346103235760208060031936011261032357610f3a611f12565b90610f44826128d2565b90610f4e826120fc565b925f946001600160a01b03809116955b848110610f775760405180610f738882611f60565b0390f35b600190875f526008845260405f2083610f90838861214b565b51165f52845260405f2054610fa5828961214b565b5201610f5e565b3461032357602060031936011261032357610b5b610fc8611f12565b6121c6565b346103235760208060031936011261032357610fe7611f12565b90610ff1826128d2565b90610ffb826120fc565b925f946001600160a01b03809116955b8481106110205760405180610f738882611f60565b600190875f526007845260405f2083611039838861214b565b51165f52845260405f205461104e828961214b565b520161100b565b34610323575f6003193601126103235760206040516001600160a01b037f0000000000000000000000000000000000000000000000000000000000000000168152f35b34610323576020600319360112610323576004356706f05b59d3b200008111610327576020816110e87fbf5ac0fc89bbf8819be79f280146b65ea2af2a9705cd9cfe0c9d93f6e87f307d9361288a565b6110f061242c565b805f55604051908152a1005b34610323576020600319360112610323576004357fffffffff00000000000000000000000000000000000000000000000000000000811681036103235761114460209161207f565b604051908152f35b34610323576020600319360112610323576001600160a01b0361116d611f12565b165f526004602052602060405f206040519061118882611f9b565b5467ffffffffffffffff811680835260ff604092831c1615159390920183905280519182526020820192909252f35b34610323575f6003193601126103235760205f54604051908152f35b34610323576060600319360112610323576111ec611f12565b6111f4611f28565b906044359081151592838303610323576040936112969261121361282c565b6001600160a01b0380911690815f5260209360028552875f2060017fffffffffffffffffffffffffffffffffffffffffffffffffffffffffffffff00825416179055865f146113fc57827fce1d009285405b74cf77294916c17664de2c84eef81225c71f265f823b358bcb6113a35f995b80156113ee5788888c5f9c8d91612523565b8f51906112a282611f9b565b67ffffffffffffffff80911682526004611312868401948686528b5f5260038852604084905f209551169480549651151560401b967fffffffffffffffffffffffffffffffffffffffffffffff000000000000000000968768ff0000000000000000809a16921617179055612523565b9560408390519761132289611f9b565b1687528087019586528a5f525260405f209451169184549351151560401b16921617179055837fa34ad86562f9716c2f1e723934cc63f44a9b4695cb8535c30dd8308d03a78564828d8f611389905192839283909291602090604083019483521515910152565b0390a28b518a815290151560208201529081906040820190565b0390a2169183836113bd575b505050508351928352820152f35b7fa90fdff0801794d86ec8df4bdd2b7e627d30052d0658e18cb977b38248ee45e8918851908152a3848080836113af565b88888c6001549c8d91612523565b827fce1d009285405b74cf77294916c17664de2c84eef81225c71f265f823b358bcb6113a35f5499611284565b346103235760208060031936011261032357611443611f12565b61144c816121c6565b6001600160a01b039182821692835f526003825260405f20906040519161147283611f9b565b549167ffffffffffffffff9060ff8285169485835260401c1615908582159101525f5493816115c2575b506114a357005b6114ac83612523565b9080604051926114bb84611f9b565b168252848201905f8252875f526003865260405f209251167fffffffffffffffffffffffffffffffffffffffffffffff00000000000000000068ff000000000000000084549351151560401b169216171790557f0000000000000000000000000000000000000000000000000000000000000000169261153a81612aaa565b843b15610323576040517f5e0b06f40000000000000000000000000000000000000000000000000000000081526001600160a01b039290921660048301526024820152925f908490604490829084905af1928315610318577f97cff4b6e6d80e307faab8b730d9f69264e860f2e0e10cfb8cdaf8a2f44e839e936103095750604051908152a2005b90508314158761149c565b3461032357602080600319360112610323576115e7611f12565b6115f0816121c6565b6001600160a01b039182821692835f526004825260405f20906040519161161683611f9b565b549167ffffffffffffffff9060ff8285169485835260401c1615908582159101526001549381611767575b5061164857005b61165183612523565b90806040519261166084611f9b565b168252848201905f8252875f526004865260405f209251167fffffffffffffffffffffffffffffffffffffffffffffff00000000000000000068ff000000000000000084549351151560401b169216171790557f000000000000000000000000000000000000000000000000000000000000000016926116df81612a78565b843b15610323576040517fe253670a0000000000000000000000000000000000000000000000000000000081526001600160a01b039290921660048301526024820152925f908490604490829084905af1928315610318577faf47449d1c3597ccc9f5ec3acad03cef57aa90a719000441b320687087948efd936103095750604051908152a2005b905083141587611641565b611f3e565b34610323576020600319360112610323576001600160a01b03611798611f12565b165f526003602052602060405f206040519061118882611f9b565b34610323575f600319360112610323576020600154604051908152f35b3461032357602060031936011261032357610b5b6117ec611f12565b6117f58161267b565b90612775565b3461032357604060031936011261032357611814611f12565b60243590611821816125e6565b670de0ad9b58f16000821161190b57611839816121c6565b6001600160a01b039182821692835f5260066020528160405f20557f0000000000000000000000000000000000000000000000000000000000000000169161188081612a78565b833b15610323576040517fe253670a0000000000000000000000000000000000000000000000000000000081526001600160a01b039290921660048301526024820152915f908390604490829084905af1908115610318577f47f70ddbc624c299cef7841aaea0a86b677c800203e953104e958c9ec9bdab34926020926103095750604051908152a2005b7f0370da74000000000000000000000000000000000000000000000000000000005f5260045ffd5b34610323575f600319360112610323576020604051670de0ad9b58f160008152f35b346103235760406003193601126103235761196e611f12565b6024359061197b816125e6565b670de0ad9b58f16000821161190b57611993816121c6565b6001600160a01b039182821692835f5260056020528160405f20557f000000000000000000000000000000000000000000000000000000000000000016916119da81612aaa565b833b15610323576040517f5e0b06f40000000000000000000000000000000000000000000000000000000081526001600160a01b039290921660048301526024820152915f908390604490829084905af1908115610318577fb7cf36369623c01ed7b2eafc4025224e924a2836d5fb49428a0f65417586bf5c92602092611a655750604051908152a2005b611a6e90611fe4565b846102ff565b346103235760406003193601126103235760206111446024356004356125a5565b34610323576020600319360112610323576001600160a01b03611ab6611f12565b165f526005602052602060405f2054604051908152f35b346103235760208060031936011261032357611ae7611f12565b611aef61242c565b6001600160a01b036040517f85f2dbd40000000000000000000000000000000000000000000000000000000081528381600481857f0000000000000000000000000000000000000000000000000000000000000000165afa80156103185782915f91611ea4575b501691308314611e7c571691825f526002815260ff60405f205416611e5057825f526002815260405f2060017fffffffffffffffffffffffffffffffffffffffffffffffffffffffffffffff008254161790556040517f5c15a0b4000000000000000000000000000000000000000000000000000000008152836004820152604081602481865afa908115610318575f905f92611e2c575b50611bf890612523565b9060405190611c0682611f9b565b67ffffffffffffffff80931682528382019015158152855f52600384528260405f209251169180549151151560401b917fffffffffffffffffffffffffffffffffffffffffffffff000000000000000000938468ff0000000000000000809516921617179055604051917f7a2b97dc000000000000000000000000000000000000000000000000000000008352866004840152604083602481895afa928315610318575f905f94611df8575b50611cbc90612523565b938060405195611ccb87611f9b565b1685528585019315158452875f526004865260405f209451169184549351151560401b169216171790556040517f0b8e059b0000000000000000000000000000000000000000000000000000000081528360048201528181602481865afa908115610318575f91611dca575b506024928291855f526005835260405f2055604051938480927f0252aab50000000000000000000000000000000000000000000000000000000082528760048301525afa918215610318575f92611d9a575b50600691925f525260405f20555f80f35b91508082813d8311611dc3575b611db18183612014565b81010312610323576006915191611d89565b503d611da7565b90508181813d8311611df1575b611de18183612014565b8101031261032357516024611d37565b503d611dd7565b611cbc9450611e1f915060403d604011611e25575b611e178183612014565b810190612062565b93611cb2565b503d611e0d565b611bf89250611e4a915060403d604011611e2557611e178183612014565b91611bee565b827fdb771c80000000000000000000000000000000000000000000000000000000005f5260045260245ffd5b7fb82fd5bf000000000000000000000000000000000000000000000000000000005f5260045ffd5b809250858092503d8311611ed7575b611ebd8183612014565b810103126103235751818116810361032357819085611b56565b503d611eb3565b34610323576020600319360112610323576020906001600160a01b03611f02611f12565b165f526006825260405f20548152f35b600435906001600160a01b038216820361032357565b602435906001600160a01b038216820361032357565b34610323575f6003193601126103235760206040516706f05b59d3b200008152f35b60209060206040818301928281528551809452019301915f5b828110611f87575050505090565b835185529381019392810192600101611f79565b6040810190811067ffffffffffffffff821117611fb757604052565b7f4e487b71000000000000000000000000000000000000000000000000000000005f52604160045260245ffd5b67ffffffffffffffff8111611fb757604052565b6060810190811067ffffffffffffffff821117611fb757604052565b90601f7fffffffffffffffffffffffffffffffffffffffffffffffffffffffffffffffe0910116810190811067ffffffffffffffff821117611fb757604052565b5190811515820361032357565b91908260409103126103235761207c602083519301612055565b90565b6040517fffffffff0000000000000000000000000000000000000000000000000000000060208201927f00000000000000000000000000000000000000000000000000000000000000008452166040820152602481526120de81611ff8565b51902090565b67ffffffffffffffff8111611fb75760051b60200190565b90612106826120e4565b6121136040519182612014565b8281527fffffffffffffffffffffffffffffffffffffffffffffffffffffffffffffffe061214182946120e4565b0190602036910137565b805182101561215f5760209160051b010190565b7f4e487b71000000000000000000000000000000000000000000000000000000005f52603260045260245ffd5b67ffffffffffffffff8111611fb757601f017fffffffffffffffffffffffffffffffffffffffffffffffffffffffffffffffe01660200190565b7fffffffffffffffffffffffffffffffffffffffffffffffffffffffffffffffe0905f601f6001600160a01b036040519383604460209684888201947ffa399f2a0000000000000000000000000000000000000000000000000000000086521660248201526024815261223881611ff8565b604051988996879586937f48c894910000000000000000000000000000000000000000000000000000000085528b60048601525180918160248701528686015e85858286010152011681010301927f0000000000000000000000000000000000000000000000000000000000000000165af18015610318576122b8575050565b3d805f843e6122c78184612014565b82019181818403126103235780519067ffffffffffffffff821161032357019180601f84011215610323578251906122fe8261218c565b9061230c6040519283612014565b8282528383860101116103235781835f95018483015e010152565b6040517faaabadc50000000000000000000000000000000000000000000000000000000081526001600160a01b036020826004817f000000000000000000000000000000000000000000000000000000000000000085165afa918215610318575f9261239257505090565b9091506020813d6020116123c3575b816123ae60209383612014565b81010312610323575190811681036103235790565b3d91506123a1565b9080601f83011215610323578151906020916123e6816120e4565b936123f46040519586612014565b81855260208086019260051b82010192831161032357602001905b82821061241d575050505090565b8151815290830190830161240f565b6124587fffffffff000000000000000000000000000000000000000000000000000000005f351661207f565b60206001600160a01b0361246a612327565b16916064604051809481937f9be2a88400000000000000000000000000000000000000000000000000000000835260048301523360248301523060448301525afa908115610318575f916124e9575b50156124c157565b7f23dada53000000000000000000000000000000000000000000000000000000005f5260045ffd5b90506020813d60201161251b575b8161250460209383612014565b810103126103235761251590612055565b5f6124b9565b3d91506124f7565b67ffffffffffffffff90818111612538571690565b7f6dfcc650000000000000000000000000000000000000000000000000000000005f52604060045260245260445ffd5b919082018092116106e357565b90670de0b6b3a7640000918281029281840414901517156106e357565b818102929181159184041417156106e357565b906125d264174876e8009283926125cb670de0b6b3a76400009183830383851002612592565b0490612568565b048181029181830414901517156106e35790565b6001600160a01b0390816125f98261267b565b16801561263a57330361260a575050565b7ffbecdbf4000000000000000000000000000000000000000000000000000000005f52336004521660245260445ffd5b507f8bcbf353000000000000000000000000000000000000000000000000000000005f521660045260245ffd5b51906001600160a01b038216820361032357565b604080517fe9ddeb260000000000000000000000000000000000000000000000000000000081526001600160a01b0392831660048201526060816024817f000000000000000000000000000000000000000000000000000000000000000087165afa90811561276b575f916126f2575b5001511690565b90506060813d606011612763575b8161270d60609383612014565b81010312610323578151906060820182811067ffffffffffffffff821117611fb757612759918491825261274081612667565b845261274e60208201612667565b602085015201612667565b828201525f6126eb565b3d9150612700565b82513d5f823e3d90fd5b9061277f826128d2565b92905f5b848110612791575050505050565b6001906001600160a01b03806127a7838661214b565b5116818616805f5260086020818152604094855f20855f528252855f205495866127d9575b5050505050505001612783565b7f938f3a3a03ee425ccc0f8010b0468938cbafd3750fa43bbdf09c6f75e97e51f993855f528352805f20865f5283525f81812055612818878d88612adc565b519586528a1694a45f8080808080806127cc565b6001600160a01b037f000000000000000000000000000000000000000000000000000000000000000016330361285e57565b7f089676d5000000000000000000000000000000000000000000000000000000005f523360045260245ffd5b64174876e8008082048181029181830414901517156106e357036128aa57565b7f833fb3ce000000000000000000000000000000000000000000000000000000005f5260045ffd5b906001600160a01b0380604051937fca4f28030000000000000000000000000000000000000000000000000000000085521660048401525f83602481847f0000000000000000000000000000000000000000000000000000000000000000165afa928315610318575f93612948575b5050815190565b909192503d805f833e61295b8183612014565b810160209182818303126103235780519067ffffffffffffffff821161032357019281601f85011215610323578351612993816120e4565b946129a16040519687612014565b818652848087019260051b820101938411610323578401905b8382106129ce575050505050905f80612941565b815183811681036103235781529084019084016129ba565b91906001600160a01b0380931690815f52600760205260405f209284811693845f5260205260405f20549485612a1f575b505050505050565b82612a64877f1c2887fcb98f75e66bb9a36311f2d3d22fb204e6362106f30e9df7eaf63131b595602095885f526007875260405f208a5f5287525f6040812055612adc565b6040519687521694a45f8080808080612a17565b6001600160a01b03165f52600460205261207c67ffffffffffffffff60405f205416600660205260405f2054906125a5565b6001600160a01b03165f52600360205261207c67ffffffffffffffff60405f205416600560205260405f2054906125a5565b6040517fa9059cbb00000000000000000000000000000000000000000000000000000000602082019081526001600160a01b03938416602483015260448083019590955293815292612b70925f9283929190612b39606488612014565b1694519082865af13d15612bd4573d90612b528261218c565b91612b606040519384612014565b82523d5f602084013e5b83612bdc565b8051908115159182612bb1575b5050612b865750565b7f5274afe7000000000000000000000000000000000000000000000000000000005f5260045260245ffd5b8192509060209181010312610323576020612bcc9101612055565b155f80612b7d565b606090612b6a565b90612c195750805115612bf157805190602001fd5b7f1425ea42000000000000000000000000000000000000000000000000000000005f5260045ffd5b81511580612c5f575b612c2a575090565b6001600160a01b03907f9996b315000000000000000000000000000000000000000000000000000000005f521660045260245ffd5b50803b15612c2256fea26469706673582212204d86de4a3c29a233ea07e02477ba9e347013404bc7eb5bea7e89db99960acf3364736f6c634300081b0033",
  "linkReferences": {},
  "deployedLinkReferences": {}
}