{
  "_format": "hh-sol-artifact-1",
  "contractName": "ProtocolFeeController",
  "sourceName": "contracts/ProtocolFeeController.sol",
  "abi": [
    {
      "inputs": [
        {
          "internalType": "contract IVault",
          "name": "vault_",
          "type": "address"
        }
      ],
      "stateMutability": "nonpayable",
      "type": "constructor"
    },
    {
      "inputs": [
        {
          "internalType": "address",
          "name": "target",
          "type": "address"
        }
      ],
      "name": "AddressEmptyCode",
      "type": "error"
    },
    {
      "inputs": [
        {
          "internalType": "address",
          "name": "account",
          "type": "address"
        }
      ],
      "name": "AddressInsufficientBalance",
      "type": "error"
    },
    {
      "inputs": [
        {
          "internalType": "address",
          "name": "caller",
          "type": "address"
        },
        {
          "internalType": "address",
          "name": "pool",
          "type": "address"
        }
      ],
      "name": "CallerIsNotPoolCreator",
      "type": "error"
    },
    {
      "inputs": [],
      "name": "FailedInnerCall",
      "type": "error"
    },
    {
      "inputs": [],
      "name": "FeePrecisionTooHigh",
      "type": "error"
    },
    {
      "inputs": [],
      "name": "InvalidMigrationSource",
      "type": "error"
    },
    {
      "inputs": [
        {
          "internalType": "address",
          "name": "pool",
          "type": "address"
        }
      ],
      "name": "PoolAlreadyRegistered",
      "type": "error"
    },
    {
      "inputs": [],
      "name": "PoolCreatorFeePercentageTooHigh",
      "type": "error"
    },
    {
      "inputs": [
        {
          "internalType": "address",
          "name": "pool",
          "type": "address"
        }
      ],
      "name": "PoolCreatorNotRegistered",
      "type": "error"
    },
    {
      "inputs": [],
      "name": "ProtocolSwapFeePercentageTooHigh",
      "type": "error"
    },
    {
      "inputs": [],
      "name": "ProtocolYieldFeePercentageTooHigh",
      "type": "error"
    },
    {
      "inputs": [],
      "name": "ReentrancyGuardReentrantCall",
      "type": "error"
    },
    {
      "inputs": [
        {
          "internalType": "uint8",
          "name": "bits",
          "type": "uint8"
        },
        {
          "internalType": "uint256",
          "name": "value",
          "type": "uint256"
        }
      ],
      "name": "SafeCastOverflowedUintDowncast",
      "type": "error"
    },
    {
      "inputs": [
        {
          "internalType": "address",
          "name": "token",
          "type": "address"
        }
      ],
      "name": "SafeERC20FailedOperation",
      "type": "error"
    },
    {
      "inputs": [
        {
          "internalType": "address",
          "name": "sender",
          "type": "address"
        }
      ],
      "name": "SenderIsNotVault",
      "type": "error"
    },
    {
      "inputs": [],
      "name": "SenderNotAllowed",
      "type": "error"
    },
    {
      "inputs": [],
      "name": "ZeroDivision",
      "type": "error"
    },
    {
      "anonymous": false,
      "inputs": [
        {
          "indexed": false,
          "internalType": "uint256",
          "name": "swapFeePercentage",
          "type": "uint256"
        }
      ],
      "name": "GlobalProtocolSwapFeePercentageChanged",
      "type": "event"
    },
    {
      "anonymous": false,
      "inputs": [
        {
          "indexed": false,
          "internalType": "uint256",
          "name": "yieldFeePercentage",
          "type": "uint256"
        }
      ],
      "name": "GlobalProtocolYieldFeePercentageChanged",
      "type": "event"
    },
    {
      "anonymous": false,
      "inputs": [
        {
          "indexed": true,
          "internalType": "address",
          "name": "pool",
          "type": "address"
        },
        {
          "indexed": false,
          "internalType": "uint256",
          "name": "aggregateSwapFeePercentage",
          "type": "uint256"
        },
        {
          "indexed": false,
          "internalType": "bool",
          "name": "isProtocolFeeExempt",
          "type": "bool"
        }
      ],
      "name": "InitialPoolAggregateSwapFeePercentage",
      "type": "event"
    },
    {
      "anonymous": false,
      "inputs": [
        {
          "indexed": true,
          "internalType": "address",
          "name": "pool",
          "type": "address"
        },
        {
          "indexed": false,
          "internalType": "uint256",
          "name": "aggregateYieldFeePercentage",
          "type": "uint256"
        },
        {
          "indexed": false,
          "internalType": "bool",
          "name": "isProtocolFeeExempt",
          "type": "bool"
        }
      ],
      "name": "InitialPoolAggregateYieldFeePercentage",
      "type": "event"
    },
    {
      "anonymous": false,
      "inputs": [
        {
          "indexed": true,
          "internalType": "address",
          "name": "pool",
          "type": "address"
        },
        {
          "indexed": true,
          "internalType": "contract IERC20",
          "name": "token",
          "type": "address"
        },
        {
          "indexed": true,
          "internalType": "address",
          "name": "recipient",
          "type": "address"
        },
        {
          "indexed": false,
          "internalType": "uint256",
          "name": "amount",
          "type": "uint256"
        }
      ],
      "name": "PoolCreatorFeesWithdrawn",
      "type": "event"
    },
    {
      "anonymous": false,
      "inputs": [
        {
          "indexed": true,
          "internalType": "address",
          "name": "pool",
          "type": "address"
        },
        {
          "indexed": false,
          "internalType": "uint256",
          "name": "poolCreatorSwapFeePercentage",
          "type": "uint256"
        }
      ],
      "name": "PoolCreatorSwapFeePercentageChanged",
      "type": "event"
    },
    {
      "anonymous": false,
      "inputs": [
        {
          "indexed": true,
          "internalType": "address",
          "name": "pool",
          "type": "address"
        },
        {
          "indexed": false,
          "internalType": "uint256",
          "name": "poolCreatorYieldFeePercentage",
          "type": "uint256"
        }
      ],
      "name": "PoolCreatorYieldFeePercentageChanged",
      "type": "event"
    },
    {
      "anonymous": false,
      "inputs": [
        {
          "indexed": true,
          "internalType": "address",
          "name": "pool",
          "type": "address"
        },
        {
          "indexed": true,
          "internalType": "address",
          "name": "poolCreator",
          "type": "address"
        },
        {
          "indexed": false,
          "internalType": "bool",
          "name": "protocolFeeExempt",
          "type": "bool"
        }
      ],
      "name": "PoolRegisteredWithFeeController",
      "type": "event"
    },
    {
      "anonymous": false,
      "inputs": [
        {
          "indexed": true,
          "internalType": "address",
          "name": "pool",
          "type": "address"
        },
        {
          "indexed": true,
          "internalType": "contract IERC20",
          "name": "token",
          "type": "address"
        },
        {
          "indexed": true,
          "internalType": "address",
          "name": "recipient",
          "type": "address"
        },
        {
          "indexed": false,
          "internalType": "uint256",
          "name": "amount",
          "type": "uint256"
        }
      ],
      "name": "ProtocolFeesWithdrawn",
      "type": "event"
    },
    {
      "anonymous": false,
      "inputs": [
        {
          "indexed": true,
          "internalType": "address",
          "name": "pool",
          "type": "address"
        },
        {
          "indexed": true,
          "internalType": "contract IERC20",
          "name": "token",
          "type": "address"
        },
        {
          "indexed": false,
          "internalType": "uint256",
          "name": "amount",
          "type": "uint256"
        }
      ],
      "name": "ProtocolSwapFeeCollected",
      "type": "event"
    },
    {
      "anonymous": false,
      "inputs": [
        {
          "indexed": true,
          "internalType": "address",
          "name": "pool",
          "type": "address"
        },
        {
          "indexed": false,
          "internalType": "uint256",
          "name": "swapFeePercentage",
          "type": "uint256"
        }
      ],
      "name": "ProtocolSwapFeePercentageChanged",
      "type": "event"
    },
    {
      "anonymous": false,
      "inputs": [
        {
          "indexed": true,
          "internalType": "address",
          "name": "pool",
          "type": "address"
        },
        {
          "indexed": true,
          "internalType": "contract IERC20",
          "name": "token",
          "type": "address"
        },
        {
          "indexed": false,
          "internalType": "uint256",
          "name": "amount",
          "type": "uint256"
        }
      ],
      "name": "ProtocolYieldFeeCollected",
      "type": "event"
    },
    {
      "anonymous": false,
      "inputs": [
        {
          "indexed": true,
          "internalType": "address",
          "name": "pool",
          "type": "address"
        },
        {
          "indexed": false,
          "internalType": "uint256",
          "name": "yieldFeePercentage",
          "type": "uint256"
        }
      ],
      "name": "ProtocolYieldFeePercentageChanged",
      "type": "event"
    },
    {
      "inputs": [],
      "name": "MAX_CREATOR_FEE_PERCENTAGE",
      "outputs": [
        {
          "internalType": "uint256",
          "name": "",
          "type": "uint256"
        }
      ],
      "stateMutability": "view",
      "type": "function"
    },
    {
      "inputs": [],
      "name": "MAX_PROTOCOL_SWAP_FEE_PERCENTAGE",
      "outputs": [
        {
          "internalType": "uint256",
          "name": "",
          "type": "uint256"
        }
      ],
      "stateMutability": "view",
      "type": "function"
    },
    {
      "inputs": [],
      "name": "MAX_PROTOCOL_YIELD_FEE_PERCENTAGE",
      "outputs": [
        {
          "internalType": "uint256",
          "name": "",
          "type": "uint256"
        }
      ],
      "stateMutability": "view",
      "type": "function"
    },
    {
      "inputs": [
        {
          "internalType": "address",
          "name": "pool",
          "type": "address"
        }
      ],
      "name": "collectAggregateFees",
      "outputs": [],
      "stateMutability": "nonpayable",
      "type": "function"
    },
    {
      "inputs": [
        {
          "internalType": "address",
          "name": "pool",
          "type": "address"
        }
      ],
      "name": "collectAggregateFeesHook",
      "outputs": [],
      "stateMutability": "nonpayable",
      "type": "function"
    },
    {
      "inputs": [
        {
          "internalType": "uint256",
          "name": "protocolFeePercentage",
          "type": "uint256"
        },
        {
          "internalType": "uint256",
          "name": "poolCreatorFeePercentage",
          "type": "uint256"
        }
      ],
      "name": "computeAggregateFeePercentage",
      "outputs": [
        {
          "internalType": "uint256",
          "name": "",
          "type": "uint256"
        }
      ],
      "stateMutability": "pure",
      "type": "function"
    },
    {
      "inputs": [
        {
          "internalType": "bytes4",
          "name": "selector",
          "type": "bytes4"
        }
      ],
      "name": "getActionId",
      "outputs": [
        {
          "internalType": "bytes32",
          "name": "",
          "type": "bytes32"
        }
      ],
      "stateMutability": "view",
      "type": "function"
    },
    {
      "inputs": [],
      "name": "getAuthorizer",
      "outputs": [
        {
          "internalType": "contract IAuthorizer",
          "name": "",
          "type": "address"
        }
      ],
      "stateMutability": "view",
      "type": "function"
    },
    {
      "inputs": [],
      "name": "getGlobalProtocolSwapFeePercentage",
      "outputs": [
        {
          "internalType": "uint256",
          "name": "",
          "type": "uint256"
        }
      ],
      "stateMutability": "view",
      "type": "function"
    },
    {
      "inputs": [],
      "name": "getGlobalProtocolYieldFeePercentage",
      "outputs": [
        {
          "internalType": "uint256",
          "name": "",
          "type": "uint256"
        }
      ],
      "stateMutability": "view",
      "type": "function"
    },
    {
      "inputs": [
        {
          "internalType": "address",
          "name": "pool",
          "type": "address"
        }
      ],
      "name": "getPoolCreatorFeeAmounts",
      "outputs": [
        {
          "internalType": "uint256[]",
          "name": "feeAmounts",
          "type": "uint256[]"
        }
      ],
      "stateMutability": "view",
      "type": "function"
    },
    {
      "inputs": [
        {
          "internalType": "address",
          "name": "pool",
          "type": "address"
        }
      ],
      "name": "getPoolCreatorSwapFeePercentage",
      "outputs": [
        {
          "internalType": "uint256",
          "name": "",
          "type": "uint256"
        }
      ],
      "stateMutability": "view",
      "type": "function"
    },
    {
      "inputs": [
        {
          "internalType": "address",
          "name": "pool",
          "type": "address"
        }
      ],
      "name": "getPoolCreatorYieldFeePercentage",
      "outputs": [
        {
          "internalType": "uint256",
          "name": "",
          "type": "uint256"
        }
      ],
      "stateMutability": "view",
      "type": "function"
    },
    {
      "inputs": [
        {
          "internalType": "address",
          "name": "pool",
          "type": "address"
        }
      ],
      "name": "getPoolProtocolSwapFeeInfo",
      "outputs": [
        {
          "internalType": "uint256",
          "name": "",
          "type": "uint256"
        },
        {
          "internalType": "bool",
          "name": "",
          "type": "bool"
        }
      ],
      "stateMutability": "view",
      "type": "function"
    },
    {
      "inputs": [
        {
          "internalType": "address",
          "name": "pool",
          "type": "address"
        }
      ],
      "name": "getPoolProtocolYieldFeeInfo",
      "outputs": [
        {
          "internalType": "uint256",
          "name": "",
          "type": "uint256"
        },
        {
          "internalType": "bool",
          "name": "",
          "type": "bool"
        }
      ],
      "stateMutability": "view",
      "type": "function"
    },
    {
      "inputs": [
        {
          "internalType": "address",
          "name": "pool",
          "type": "address"
        }
      ],
      "name": "getProtocolFeeAmounts",
      "outputs": [
        {
          "internalType": "uint256[]",
          "name": "feeAmounts",
          "type": "uint256[]"
        }
      ],
      "stateMutability": "view",
      "type": "function"
    },
    {
      "inputs": [],
      "name": "getVault",
      "outputs": [
        {
          "internalType": "contract IVault",
          "name": "",
          "type": "address"
        }
      ],
      "stateMutability": "view",
      "type": "function"
    },
    {
      "inputs": [
        {
          "internalType": "address",
          "name": "pool",
          "type": "address"
        }
      ],
      "name": "isPoolRegistered",
      "outputs": [
        {
          "internalType": "bool",
          "name": "",
          "type": "bool"
        }
      ],
      "stateMutability": "view",
      "type": "function"
    },
    {
      "inputs": [
        {
          "internalType": "address",
          "name": "pool",
          "type": "address"
        }
      ],
      "name": "migratePool",
      "outputs": [],
      "stateMutability": "nonpayable",
      "type": "function"
    },
    {
      "inputs": [
        {
          "internalType": "address",
          "name": "pool",
          "type": "address"
        },
        {
          "internalType": "address",
          "name": "poolCreator",
          "type": "address"
        },
        {
          "internalType": "bool",
          "name": "protocolFeeExempt",
          "type": "bool"
        }
      ],
      "name": "registerPool",
      "outputs": [
        {
          "internalType": "uint256",
          "name": "aggregateSwapFeePercentage",
          "type": "uint256"
        },
        {
          "internalType": "uint256",
          "name": "aggregateYieldFeePercentage",
          "type": "uint256"
        }
      ],
      "stateMutability": "nonpayable",
      "type": "function"
    },
    {
      "inputs": [
        {
          "internalType": "uint256",
          "name": "newProtocolSwapFeePercentage",
          "type": "uint256"
        }
      ],
      "name": "setGlobalProtocolSwapFeePercentage",
      "outputs": [],
      "stateMutability": "nonpayable",
      "type": "function"
    },
    {
      "inputs": [
        {
          "internalType": "uint256",
          "name": "newProtocolYieldFeePercentage",
          "type": "uint256"
        }
      ],
      "name": "setGlobalProtocolYieldFeePercentage",
      "outputs": [],
      "stateMutability": "nonpayable",
      "type": "function"
    },
    {
      "inputs": [
        {
          "internalType": "address",
          "name": "pool",
          "type": "address"
        },
        {
          "internalType": "uint256",
          "name": "poolCreatorSwapFeePercentage",
          "type": "uint256"
        }
      ],
      "name": "setPoolCreatorSwapFeePercentage",
      "outputs": [],
      "stateMutability": "nonpayable",
      "type": "function"
    },
    {
      "inputs": [
        {
          "internalType": "address",
          "name": "pool",
          "type": "address"
        },
        {
          "internalType": "uint256",
          "name": "poolCreatorYieldFeePercentage",
          "type": "uint256"
        }
      ],
      "name": "setPoolCreatorYieldFeePercentage",
      "outputs": [],
      "stateMutability": "nonpayable",
      "type": "function"
    },
    {
      "inputs": [
        {
          "internalType": "address",
          "name": "pool",
          "type": "address"
        },
        {
          "internalType": "uint256",
          "name": "newProtocolSwapFeePercentage",
          "type": "uint256"
        }
      ],
      "name": "setProtocolSwapFeePercentage",
      "outputs": [],
      "stateMutability": "nonpayable",
      "type": "function"
    },
    {
      "inputs": [
        {
          "internalType": "address",
          "name": "pool",
          "type": "address"
        },
        {
          "internalType": "uint256",
          "name": "newProtocolYieldFeePercentage",
          "type": "uint256"
        }
      ],
      "name": "setProtocolYieldFeePercentage",
      "outputs": [],
      "stateMutability": "nonpayable",
      "type": "function"
    },
    {
      "inputs": [
        {
          "internalType": "address",
          "name": "pool",
          "type": "address"
        }
      ],
      "name": "updateProtocolSwapFeePercentage",
      "outputs": [],
      "stateMutability": "nonpayable",
      "type": "function"
    },
    {
      "inputs": [
        {
          "internalType": "address",
          "name": "pool",
          "type": "address"
        }
      ],
      "name": "updateProtocolYieldFeePercentage",
      "outputs": [],
      "stateMutability": "nonpayable",
      "type": "function"
    },
    {
      "inputs": [],
      "name": "vault",
      "outputs": [
        {
          "internalType": "contract IVault",
          "name": "",
          "type": "address"
        }
      ],
      "stateMutability": "view",
      "type": "function"
    },
    {
      "inputs": [
        {
          "internalType": "address",
          "name": "pool",
          "type": "address"
        }
      ],
      "name": "withdrawPoolCreatorFees",
      "outputs": [],
      "stateMutability": "nonpayable",
      "type": "function"
    },
    {
      "inputs": [
        {
          "internalType": "address",
          "name": "pool",
          "type": "address"
        },
        {
          "internalType": "address",
          "name": "recipient",
          "type": "address"
        }
      ],
      "name": "withdrawPoolCreatorFees",
      "outputs": [],
      "stateMutability": "nonpayable",
      "type": "function"
    },
    {
      "inputs": [
        {
          "internalType": "address",
          "name": "pool",
          "type": "address"
        },
        {
          "internalType": "address",
          "name": "recipient",
          "type": "address"
        }
      ],
      "name": "withdrawProtocolFees",
      "outputs": [],
      "stateMutability": "nonpayable",
      "type": "function"
    },
    {
      "inputs": [
        {
          "internalType": "address",
          "name": "pool",
          "type": "address"
        },
        {
          "internalType": "address",
          "name": "recipient",
          "type": "address"
        },
        {
          "internalType": "contract IERC20",
          "name": "token",
          "type": "address"
        }
      ],
      "name": "withdrawProtocolFeesForToken",
      "outputs": [],
      "stateMutability": "nonpayable",
      "type": "function"
    }
  ],
  "bytecode": "0x60e03461010957601f612e7338819003918201601f19168301916001600160401b0383118484101761010d5780849260209460405283398101031261010957516001600160a01b038116810361010957306080528060a05260c052604051612d519081610122823960805181612168015260a051818181610ed6015281816110fc0152612879015260c0518181816102530152818161036e015281816103f8015281816105170152818161058501528181610864015281816108d201528181610c7d01528181610db3015281816115d60152818161177b0152818161191c01528181611a7601528181611be301528181612346015281816125fc0152818161277801526129c40152f35b5f80fd5b634e487b7160e01b5f52604160045260245ffdfe6080806040526004361015610012575f80fd5b5f3560e01c9081630252aab514611f9c575080630874327f14611b935780630b8e059b14611b5b5780630ddd60c614611b3a5780631377c16c14611a1b5780632772d156146118385780632e1d388d146119f95780633af52712146118c157806352f125f01461189657806355fb76af146118795780635c15a0b41461183d5780635e32e4e81461183857806371447ea81461169357806371ecc8fb146114ef57806377ff76e71461125b5780637869ee181461123f5780637a2b97dc146111d4578063851c1bb3146111845780638a3c5c69146111205780638d928af8146110dd5780638df44c54146110555780638f4ab9ca146110345780639e95f3fd14610fa8578063a93df2a414610f43578063aaabadc514610e90578063abaa335614610ce7578063b53a70b214610c00578063c673bdaf14610bc3578063cf7b287f14610b5d578063f706144514610b28578063fa399f2a14610392578063fbfa77cf1461034f5763fd267f3914610187575f80fd5b34610323576040600319360112610323576101a0611fd0565b602435906101ac612814565b6706f05b59d3b200008211610327576101c4826127cc565b6101cd81612284565b6101d682612465565b916040516101e381612059565b67ffffffffffffffff80941681526020810190600182526001600160a01b039182851695865f52600260205260405f209251167fffffffffffffffffffffffffffffffffffffffffffffff00000000000000000068ff000000000000000084549351151560401b169216171790557f0000000000000000000000000000000000000000000000000000000000000000169161027d81612b5d565b833b15610323576040517f5e0b06f40000000000000000000000000000000000000000000000000000000081526001600160a01b039290921660048301526024820152915f908390604490829084905af1908115610318577f97cff4b6e6d80e307faab8b730d9f69264e860f2e0e10cfb8cdaf8a2f44e839e92602092610309575b50604051908152a2005b610312906120a2565b5f6102ff565b6040513d5f823e3d90fd5b5f80fd5b7f7e6eb7fb000000000000000000000000000000000000000000000000000000005f5260045ffd5b34610323575f6003193601126103235760206040516001600160a01b037f0000000000000000000000000000000000000000000000000000000000000000168152f35b34610323576020600319360112610323576103ab611fd0565b6103b361276e565b6040517f8f4ab9ca0000000000000000000000000000000000000000000000000000000081526001600160a01b03821660048201525f81602481836001600160a01b037f0000000000000000000000000000000000000000000000000000000000000000165af1908115610318575f905f92610acb575b506001600160a01b0383165f52600260205267ffffffffffffffff60405f20541690600560205260405f2054905f928215159384610ac1575b84610ab1575b61047287612985565b94905f5b8681106108225789896001600160a01b0382165f52600360205267ffffffffffffffff60405f205416905f92600660205260405f2054925f8415159485610818575b85610806575b6104c784612985565b96905f5b8881106104d457005b6104de8189612209565b516104ec575b6001016104cb565b986001600160a01b036104ff8b84612209565b51169061050c8b8a612209565b516001600160a01b037f0000000000000000000000000000000000000000000000000000000000000000163b1561080257604051907fae63932900000000000000000000000000000000000000000000000000000000825283600483015230602483015260448201528181606481836001600160a01b037f0000000000000000000000000000000000000000000000000000000000000000165af180156107f7579082916107e0575b506107b357505f99816105c8828b612209565b516040519081527fe505e41b0d437b47350a9990142ccf38acb11ffa0e5af8f973b9e172f3d5d5e260206001600160a01b038c1692a383156107385761060e818a612209565b5186156107105761061e906124b7565b6001670de0b6b3a764000061065f8a7fffffffffffffffffffffffffffffffffffffffffffffffffffffffffffffffff94848c8783010401901515026124d4565b928301040190151502916001600160a01b0389165f52600760205260405f20815f5260205260405f206106938482546124aa565b905561069f828b612209565b519081848103116106e3576001936106d9916001600160a01b038c165f52600860205260405f20905f5260205260405f20920382546124aa565b90555b90506104e4565b7f4e487b71000000000000000000000000000000000000000000000000000000005f52601160045260245ffd5b7f0a0c22c7000000000000000000000000000000000000000000000000000000005f5260045ffd5b6001918561077d5761074a828b612209565b51906001600160a01b038a165f52600760205260405f20905f5260205261077660405f209182546124aa565b90556106dc565b610787828b612209565b51906001600160a01b038a165f52600860205260405f20905f5260205261077660405f209182546124aa565b807f4e487b7100000000000000000000000000000000000000000000000000000000602492526021600452fd5b6107e9906120a2565b6107f457808c6105b5565b80fd5b6040513d84823e3d90fd5b5080fd5b905061081281836124e7565b906104be565b82151595506104b8565b61082c8187612209565b5161083a575b600101610476565b6001600160a01b0361084c8284612209565b5116906108598188612209565b516001600160a01b037f0000000000000000000000000000000000000000000000000000000000000000163b1561032357604051907fae63932900000000000000000000000000000000000000000000000000000000825283600483015230602483015260448201525f81606481836001600160a01b037f0000000000000000000000000000000000000000000000000000000000000000165af1801561031857610aa2575b50818b7fae7ebad9fc3d1d17965f063fa520d393595e2ef6c8e22ae8413b60900444e19f60206001600160a01b03610937868d612209565b51936040519485521692a38815610a27576109528188612209565b51851561071057610962906124b7565b6001670de0b6b3a76400006109a3897fffffffffffffffffffffffffffffffffffffffffffffffffffffffffffffffff94848b8783010401901515026124d4565b928301040190151502916001600160a01b038c165f52600760205260405f20815f5260205260405f206109d78482546124aa565b90556109e38289612209565b519081848103116106e357600193610a1d916001600160a01b038f165f52600860205260405f20905f5260205260405f20920382546124aa565b90555b9050610832565b60019184610a6c57610a398289612209565b51906001600160a01b038d165f52600760205260405f20905f52602052610a6560405f209182546124aa565b9055610a20565b610a768289612209565b51906001600160a01b038d165f52600860205260405f20905f52602052610a6560405f209182546124aa565b610aab906120a2565b8b6108ff565b50610abc83826124e7565b610469565b8115159450610463565b9150503d805f833e610add81836120d2565b8101906040818303126103235780519167ffffffffffffffff928381116103235781610b0a918401612404565b92602083015190811161032357610b219201612404565b908361042a565b3461032357604060031936011261032357610b5b610b44611fd0565b610b4c611fe6565b90610b5681612528565b6126b7565b005b3461032357604060031936011261032357610b76611fd0565b610b7e611fe6565b90610b87612814565b610b9081612985565b915f5b838110610b9c57005b80610bbd6001600160a01b03610bb460019487612209565b51168785612a99565b01610b93565b34610323576020600319360112610323576001600160a01b03610be4611fd0565b165f526004602052602060ff60405f2054166040519015158152f35b3461032357606060031936011261032357610c19611fd0565b610c21611fe6565b604435906001600160a01b039283831680840361032357604090610c43612814565b60448251809781937fc9c1661b000000000000000000000000000000000000000000000000000000008352818716600484015260248301527f0000000000000000000000000000000000000000000000000000000000000000165afa801561031857610cb4575b610b5b9350612a99565b6040843d604011610cdf575b81610ccd604093836120d2565b8101031261032357610b5b9350610caa565b3d9150610cc0565b3461032357604060031936011261032357610d00611fd0565b60243590610d0c612814565b6706f05b59d3b200008211610e6857610d24826127cc565b610d2d81612284565b610d3682612465565b91604051610d4381612059565b67ffffffffffffffff80941681526020810190600182526001600160a01b039182851695865f52600360205260405f209251167fffffffffffffffffffffffffffffffffffffffffffffff00000000000000000068ff000000000000000084549351151560401b169216171790557f00000000000000000000000000000000000000000000000000000000000000001691610ddd81612b2b565b833b15610323576040517fe253670a0000000000000000000000000000000000000000000000000000000081526001600160a01b039290921660048301526024820152915f908390604490829084905af1908115610318577faf47449d1c3597ccc9f5ec3acad03cef57aa90a719000441b320687087948efd926020926103095750604051908152a2005b7fa7849e8e000000000000000000000000000000000000000000000000000000005f5260045ffd5b34610323575f600319360112610323576040517faaabadc50000000000000000000000000000000000000000000000000000000081526001600160a01b036020826004817f000000000000000000000000000000000000000000000000000000000000000085165afa908115610318576020925f92610f14575b5060405191168152f35b610f35919250833d8511610f3c575b610f2d81836120d2565b8101906123e5565b9083610f0a565b503d610f23565b34610323576020600319360112610323576004356706f05b59d3b200008111610e6857602081610f937f48c5c3ccec54c4e0ea08d83d838fa9bb725eb0b52c591cb00bd6e63bca8c44f6936127cc565b610f9b612814565b80600155604051908152a1005b346103235760208060031936011261032357610fc2611fd0565b90610fcc82612985565b90610fd6826121ba565b925f946001600160a01b03809116955b848110610fff5760405180610ffb888261201e565b0390f35b600190875f526008845260405f20836110188388612209565b51165f52845260405f205461102d8289612209565b5201610fe6565b3461032357602060031936011261032357610b5b611050611fd0565b612284565b34610323576020806003193601126103235761106f611fd0565b9061107982612985565b90611083826121ba565b925f946001600160a01b03809116955b8481106110a85760405180610ffb888261201e565b600190875f526007845260405f20836110c18388612209565b51165f52845260405f20546110d68289612209565b5201611093565b34610323575f6003193601126103235760206040516001600160a01b037f0000000000000000000000000000000000000000000000000000000000000000168152f35b34610323576020600319360112610323576004356706f05b59d3b200008111610327576020816111707fbf5ac0fc89bbf8819be79f280146b65ea2af2a9705cd9cfe0c9d93f6e87f307d936127cc565b611178612814565b805f55604051908152a1005b34610323576020600319360112610323576004357fffffffff0000000000000000000000000000000000000000000000000000000081168103610323576111cc60209161213d565b604051908152f35b34610323576020600319360112610323576001600160a01b036111f5611fd0565b165f526003602052602060405f206040519061121082612059565b5467ffffffffffffffff811680835260ff604092831c1615159390920183905280519182526020820192909252f35b34610323575f6003193601126103235760205f54604051908152f35b3461032357606060031936011261032357611274611fd0565b61127c611fe6565b9060443591821515908184036103235761129461276e565b6001600160a01b0380931691825f52826020926004845260405f2060017fffffffffffffffffffffffffffffffffffffffffffffffffffffffffffffff00825416179055865f146114e457835f9687925b8915611469578483878c5f9b7fa34ad86562f9716c2f1e723934cc63f44a9b4695cb8535c30dd8308d03a7856460409f7fd9725c347996d9a5d6001b5f7c2a2515d365258012fceff4f49e84310ed079129a8f96611454967fce1d009285405b74cf77294916c17664de2c84eef81225c71f265f823b358bcb985b61136984612465565b6040519061137682612059565b67ffffffffffffffff809116825260036113e6868401948686528b5f5260028852604084905f209551169480549651151560401b967fffffffffffffffffffffffffffffffffffffffffffffff000000000000000000968768ff0000000000000000809a16921617179055612465565b956040839051976113f689612059565b1687528087019586528a5f525260405f209451169184549351151560401b16921617179055604061143a905192839283909291602090604083019483521515910152565b0390a28d518c815290151560208201529081906040820190565b0390a289519586521693a38351928352820152f35b8483878c6001549b7fa34ad86562f9716c2f1e723934cc63f44a9b4695cb8535c30dd8308d03a7856460409f7fd9725c347996d9a5d6001b5f7c2a2515d365258012fceff4f49e84310ed079129a8f96611454967fce1d009285405b74cf77294916c17664de2c84eef81225c71f265f823b358bcb98611360565b835f549687926112e5565b346103235760208060031936011261032357611509611fd0565b61151281612284565b6001600160a01b039182821692835f526002825260405f20906040519161153883612059565b549167ffffffffffffffff9060ff8285169485835260401c1615908582159101525f549381611688575b5061156957005b61157283612465565b90806040519261158184612059565b168252848201905f8252875f526002865260405f209251167fffffffffffffffffffffffffffffffffffffffffffffff00000000000000000068ff000000000000000084549351151560401b169216171790557f0000000000000000000000000000000000000000000000000000000000000000169261160081612b5d565b843b15610323576040517f5e0b06f40000000000000000000000000000000000000000000000000000000081526001600160a01b039290921660048301526024820152925f908490604490829084905af1928315610318577f97cff4b6e6d80e307faab8b730d9f69264e860f2e0e10cfb8cdaf8a2f44e839e936103095750604051908152a2005b905083141587611562565b3461032357602080600319360112610323576116ad611fd0565b6116b681612284565b6001600160a01b039182821692835f526003825260405f2090604051916116dc83612059565b549167ffffffffffffffff9060ff8285169485835260401c161590858215910152600154938161182d575b5061170e57005b61171783612465565b90806040519261172684612059565b168252848201905f8252875f526003865260405f209251167fffffffffffffffffffffffffffffffffffffffffffffff00000000000000000068ff000000000000000084549351151560401b169216171790557f000000000000000000000000000000000000000000000000000000000000000016926117a581612b2b565b843b15610323576040517fe253670a0000000000000000000000000000000000000000000000000000000081526001600160a01b039290921660048301526024820152925f908490604490829084905af1928315610318577faf47449d1c3597ccc9f5ec3acad03cef57aa90a719000441b320687087948efd936103095750604051908152a2005b905083141587611707565b611ffc565b34610323576020600319360112610323576001600160a01b0361185e611fd0565b165f526002602052602060405f206040519061121082612059565b34610323575f600319360112610323576020600154604051908152f35b3461032357602060031936011261032357610b5b6118b2611fd0565b6118bb816125bd565b906126b7565b34610323576040600319360112610323576118da611fd0565b602435906118e781612528565b670de0ad9b58f1600082116119d1576118ff81612284565b6001600160a01b039182821692835f5260066020528160405f20557f0000000000000000000000000000000000000000000000000000000000000000169161194681612b2b565b833b15610323576040517fe253670a0000000000000000000000000000000000000000000000000000000081526001600160a01b039290921660048301526024820152915f908390604490829084905af1908115610318577f47f70ddbc624c299cef7841aaea0a86b677c800203e953104e958c9ec9bdab34926020926103095750604051908152a2005b7f0370da74000000000000000000000000000000000000000000000000000000005f5260045ffd5b34610323575f600319360112610323576020604051670de0ad9b58f160008152f35b3461032357604060031936011261032357611a34611fd0565b60243590611a4181612528565b670de0ad9b58f1600082116119d157611a5981612284565b6001600160a01b039182821692835f5260056020528160405f20557f00000000000000000000000000000000000000000000000000000000000000001691611aa081612b5d565b833b15610323576040517f5e0b06f40000000000000000000000000000000000000000000000000000000081526001600160a01b039290921660048301526024820152915f908390604490829084905af1908115610318577fb7cf36369623c01ed7b2eafc4025224e924a2836d5fb49428a0f65417586bf5c92602092611b2b5750604051908152a2005b611b34906120a2565b846102ff565b346103235760406003193601126103235760206111cc6024356004356124e7565b34610323576020600319360112610323576001600160a01b03611b7c611fd0565b165f526005602052602060405f2054604051908152f35b346103235760208060031936011261032357611bad611fd0565b6001600160a01b036040517f85f2dbd40000000000000000000000000000000000000000000000000000000081528381600481857f0000000000000000000000000000000000000000000000000000000000000000165afa80156103185782915f91611f62575b501691308314611f3a571691825f526004815260ff60405f205416611f0e57825f526004815260405f2060017fffffffffffffffffffffffffffffffffffffffffffffffffffffffffffffff008254161790556040517f5c15a0b4000000000000000000000000000000000000000000000000000000008152836004820152604081602481865afa908115610318575f905f92611eea575b50611cb690612465565b9060405190611cc482612059565b67ffffffffffffffff80931682528382019015158152855f52600284528260405f209251169180549151151560401b917fffffffffffffffffffffffffffffffffffffffffffffff000000000000000000938468ff0000000000000000809516921617179055604051917f7a2b97dc000000000000000000000000000000000000000000000000000000008352866004840152604083602481895afa928315610318575f905f94611eb6575b50611d7a90612465565b938060405195611d8987612059565b1685528585019315158452875f526003865260405f209451169184549351151560401b169216171790556040517f0b8e059b0000000000000000000000000000000000000000000000000000000081528360048201528181602481865afa908115610318575f91611e88575b506024928291855f526005835260405f2055604051938480927f0252aab50000000000000000000000000000000000000000000000000000000082528760048301525afa918215610318575f92611e58575b50600691925f525260405f20555f80f35b91508082813d8311611e81575b611e6f81836120d2565b81010312610323576006915191611e47565b503d611e65565b90508181813d8311611eaf575b611e9f81836120d2565b8101031261032357516024611df5565b503d611e95565b611d7a9450611edd915060403d604011611ee3575b611ed581836120d2565b810190612120565b93611d70565b503d611ecb565b611cb69250611f08915060403d604011611ee357611ed581836120d2565b91611cac565b827fdb771c80000000000000000000000000000000000000000000000000000000005f5260045260245ffd5b7fb82fd5bf000000000000000000000000000000000000000000000000000000005f5260045ffd5b809250858092503d8311611f95575b611f7b81836120d2565b810103126103235751818116810361032357819085611c14565b503d611f71565b34610323576020600319360112610323576020906001600160a01b03611fc0611fd0565b165f526006825260405f20548152f35b600435906001600160a01b038216820361032357565b602435906001600160a01b038216820361032357565b34610323575f6003193601126103235760206040516706f05b59d3b200008152f35b60209060206040818301928281528551809452019301915f5b828110612045575050505090565b835185529381019392810192600101612037565b6040810190811067ffffffffffffffff82111761207557604052565b7f4e487b71000000000000000000000000000000000000000000000000000000005f52604160045260245ffd5b67ffffffffffffffff811161207557604052565b6060810190811067ffffffffffffffff82111761207557604052565b90601f7fffffffffffffffffffffffffffffffffffffffffffffffffffffffffffffffe0910116810190811067ffffffffffffffff82111761207557604052565b5190811515820361032357565b91908260409103126103235761213a602083519301612113565b90565b6040517fffffffff0000000000000000000000000000000000000000000000000000000060208201927f000000000000000000000000000000000000000000000000000000000000000084521660408201526024815261219c816120b6565b51902090565b67ffffffffffffffff81116120755760051b60200190565b906121c4826121a2565b6121d160405191826120d2565b8281527fffffffffffffffffffffffffffffffffffffffffffffffffffffffffffffffe06121ff82946121a2565b0190602036910137565b805182101561221d5760209160051b010190565b7f4e487b71000000000000000000000000000000000000000000000000000000005f52603260045260245ffd5b67ffffffffffffffff811161207557601f017fffffffffffffffffffffffffffffffffffffffffffffffffffffffffffffffe01660200190565b7fffffffffffffffffffffffffffffffffffffffffffffffffffffffffffffffe0905f601f6001600160a01b036040519383604460209684888201947ffa399f2a000000000000000000000000000000000000000000000000000000008652166024820152602481526122f6816120b6565b604051988996879586937f48c894910000000000000000000000000000000000000000000000000000000085528b60048601525180918160248701528686015e85858286010152011681010301927f0000000000000000000000000000000000000000000000000000000000000000165af1801561031857612376575050565b3d805f843e61238581846120d2565b82019181818403126103235780519067ffffffffffffffff821161032357019180601f84011215610323578251906123bc8261224a565b906123ca60405192836120d2565b8282528383860101116103235781835f95018483015e010152565b9081602091031261032357516001600160a01b03811681036103235790565b9080601f830112156103235781519060209161241f816121a2565b9361242d60405195866120d2565b81855260208086019260051b82010192831161032357602001905b828210612456575050505090565b81518152908301908301612448565b67ffffffffffffffff9081811161247a571690565b7f6dfcc650000000000000000000000000000000000000000000000000000000005f52604060045260245260445ffd5b919082018092116106e357565b90670de0b6b3a7640000918281029281840414901517156106e357565b818102929181159184041417156106e357565b9061251464174876e80092839261250d670de0b6b3a764000091838303838510026124d4565b04906124aa565b048181029181830414901517156106e35790565b6001600160a01b03908161253b826125bd565b16801561257c57330361254c575050565b7ffbecdbf4000000000000000000000000000000000000000000000000000000005f52336004521660245260445ffd5b507f8bcbf353000000000000000000000000000000000000000000000000000000005f521660045260245ffd5b51906001600160a01b038216820361032357565b604080517fe9ddeb260000000000000000000000000000000000000000000000000000000081526001600160a01b0392831660048201526060816024817f000000000000000000000000000000000000000000000000000000000000000087165afa9081156126ad575f91612634575b5001511690565b90506060813d6060116126a5575b8161264f606093836120d2565b81010312610323578151906060820182811067ffffffffffffffff8211176120755761269b9184918252612682816125a9565b8452612690602082016125a9565b6020850152016125a9565b828201525f61262d565b3d9150612642565b82513d5f823e3d90fd5b906126c182612985565b92905f5b8481106126d3575050505050565b6001906001600160a01b03806126e98386612209565b5116818616805f5260086020818152604094855f20855f528252855f2054958661271b575b50505050505050016126c5565b7f938f3a3a03ee425ccc0f8010b0468938cbafd3750fa43bbdf09c6f75e97e51f993855f528352805f20865f5283525f8181205561275a878d88612b8f565b519586528a1694a45f80808080808061270e565b6001600160a01b037f00000000000000000000000000000000000000000000000000000000000000001633036127a057565b7f089676d5000000000000000000000000000000000000000000000000000000005f523360045260245ffd5b64174876e8008082048181029181830414901517156106e357036127ec57565b7f833fb3ce000000000000000000000000000000000000000000000000000000005f5260045ffd5b6128407fffffffff000000000000000000000000000000000000000000000000000000005f351661213d565b6001600160a01b036040517faaabadc50000000000000000000000000000000000000000000000000000000081526020928382600481867f0000000000000000000000000000000000000000000000000000000000000000165afa9081156103185784925f92612963575b5060649060405194859384927f9be2a8840000000000000000000000000000000000000000000000000000000084526004840152336024840152306044840152165afa918215610318575f9261292d575b50501561290557565b7f23dada53000000000000000000000000000000000000000000000000000000005f5260045ffd5b90809250813d831161295c575b61294481836120d2565b810103126103235761295590612113565b5f806128fc565b503d61293a565b606491925061297e90843d8611610f3c57610f2d81836120d2565b91906128ab565b906001600160a01b0380604051937fca4f28030000000000000000000000000000000000000000000000000000000085521660048401525f83602481847f0000000000000000000000000000000000000000000000000000000000000000165afa928315610318575f936129fb575b5050815190565b909192503d805f833e612a0e81836120d2565b810160209182818303126103235780519067ffffffffffffffff821161032357019281601f85011215610323578351612a46816121a2565b94612a5460405196876120d2565b818652848087019260051b820101938411610323578401905b838210612a81575050505050905f806129f4565b81518381168103610323578152908401908401612a6d565b91906001600160a01b0380931690815f52600760205260405f209284811693845f5260205260405f20549485612ad2575b505050505050565b82612b17877f1c2887fcb98f75e66bb9a36311f2d3d22fb204e6362106f30e9df7eaf63131b595602095885f526007875260405f208a5f5287525f6040812055612b8f565b6040519687521694a45f8080808080612aca565b6001600160a01b03165f52600360205261213a67ffffffffffffffff60405f205416600660205260405f2054906124e7565b6001600160a01b03165f52600260205261213a67ffffffffffffffff60405f205416600560205260405f2054906124e7565b6040517fa9059cbb00000000000000000000000000000000000000000000000000000000602082019081526001600160a01b03938416602483015260448083019590955293815292612c23925f9283929190612bec6064886120d2565b1694519082865af13d15612c87573d90612c058261224a565b91612c1360405193846120d2565b82523d5f602084013e5b83612c8f565b8051908115159182612c64575b5050612c395750565b7f5274afe7000000000000000000000000000000000000000000000000000000005f5260045260245ffd5b8192509060209181010312610323576020612c7f9101612113565b155f80612c30565b606090612c1d565b90612ccc5750805115612ca457805190602001fd5b7f1425ea42000000000000000000000000000000000000000000000000000000005f5260045ffd5b81511580612d12575b612cdd575090565b6001600160a01b03907f9996b315000000000000000000000000000000000000000000000000000000005f521660045260245ffd5b50803b15612cd556fea264697066735822122086ede8ea4ac1df8cf1e1f5809e604ac99e4c1a1bff7965e93abb12fc2a6d3e3064736f6c634300081b0033",
  "linkReferences": {},
  "deployedLinkReferences": {}
}