{
  "_format": "hh-sol-artifact-1",
  "contractName": "AggregatorBatchRouter",
  "sourceName": "contracts/AggregatorBatchRouter.sol",
  "abi": [
    {
      "inputs": [
        {
          "internalType": "contract IVault",
          "name": "vault",
          "type": "address"
        },
        {
          "internalType": "string",
          "name": "routerVersion",
          "type": "string"
        }
      ],
      "stateMutability": "nonpayable",
      "type": "constructor"
    },
    {
      "inputs": [
        {
          "internalType": "address",
          "name": "target",
          "type": "address"
        }
      ],
      "name": "AddressEmptyCode",
      "type": "error"
    },
    {
      "inputs": [
        {
          "internalType": "address",
          "name": "account",
          "type": "address"
        }
      ],
      "name": "AddressInsufficientBalance",
      "type": "error"
    },
    {
      "inputs": [],
      "name": "EthTransfer",
      "type": "error"
    },
    {
      "inputs": [],
      "name": "FailedInnerCall",
      "type": "error"
    },
    {
      "inputs": [],
      "name": "InsufficientEth",
      "type": "error"
    },
    {
      "inputs": [
        {
          "internalType": "address",
          "name": "token",
          "type": "address"
        },
        {
          "internalType": "uint256",
          "name": "senderCredits",
          "type": "uint256"
        },
        {
          "internalType": "uint256",
          "name": "senderDebits",
          "type": "uint256"
        }
      ],
      "name": "InsufficientFunds",
      "type": "error"
    },
    {
      "inputs": [],
      "name": "OperationNotSupported",
      "type": "error"
    },
    {
      "inputs": [],
      "name": "ReentrancyGuardReentrantCall",
      "type": "error"
    },
    {
      "inputs": [
        {
          "internalType": "uint8",
          "name": "bits",
          "type": "uint8"
        },
        {
          "internalType": "uint256",
          "name": "value",
          "type": "uint256"
        }
      ],
      "name": "SafeCastOverflowedUintDowncast",
      "type": "error"
    },
    {
      "inputs": [
        {
          "internalType": "address",
          "name": "token",
          "type": "address"
        }
      ],
      "name": "SafeERC20FailedOperation",
      "type": "error"
    },
    {
      "inputs": [
        {
          "internalType": "address",
          "name": "sender",
          "type": "address"
        }
      ],
      "name": "SenderIsNotVault",
      "type": "error"
    },
    {
      "inputs": [],
      "name": "SwapDeadline",
      "type": "error"
    },
    {
      "inputs": [],
      "name": "TransientIndexOutOfBounds",
      "type": "error"
    },
    {
      "inputs": [],
      "name": "getPermit2",
      "outputs": [
        {
          "internalType": "contract IPermit2",
          "name": "",
          "type": "address"
        }
      ],
      "stateMutability": "view",
      "type": "function"
    },
    {
      "inputs": [],
      "name": "getSender",
      "outputs": [
        {
          "internalType": "address",
          "name": "",
          "type": "address"
        }
      ],
      "stateMutability": "view",
      "type": "function"
    },
    {
      "inputs": [],
      "name": "getWeth",
      "outputs": [
        {
          "internalType": "contract IWETH",
          "name": "",
          "type": "address"
        }
      ],
      "stateMutability": "view",
      "type": "function"
    },
    {
      "inputs": [
        {
          "internalType": "bytes[]",
          "name": "",
          "type": "bytes[]"
        }
      ],
      "name": "multicall",
      "outputs": [
        {
          "internalType": "bytes[]",
          "name": "",
          "type": "bytes[]"
        }
      ],
      "stateMutability": "payable",
      "type": "function"
    },
    {
      "inputs": [
        {
          "components": [
            {
              "internalType": "address",
              "name": "token",
              "type": "address"
            },
            {
              "internalType": "address",
              "name": "owner",
              "type": "address"
            },
            {
              "internalType": "address",
              "name": "spender",
              "type": "address"
            },
            {
              "internalType": "uint256",
              "name": "amount",
              "type": "uint256"
            },
            {
              "internalType": "uint256",
              "name": "nonce",
              "type": "uint256"
            },
            {
              "internalType": "uint256",
              "name": "deadline",
              "type": "uint256"
            }
          ],
          "internalType": "struct IRouterCommon.PermitApproval[]",
          "name": "",
          "type": "tuple[]"
        },
        {
          "internalType": "bytes[]",
          "name": "",
          "type": "bytes[]"
        },
        {
          "components": [
            {
              "components": [
                {
                  "internalType": "address",
                  "name": "token",
                  "type": "address"
                },
                {
                  "internalType": "uint160",
                  "name": "amount",
                  "type": "uint160"
                },
                {
                  "internalType": "uint48",
                  "name": "expiration",
                  "type": "uint48"
                },
                {
                  "internalType": "uint48",
                  "name": "nonce",
                  "type": "uint48"
                }
              ],
              "internalType": "struct IAllowanceTransfer.PermitDetails[]",
              "name": "details",
              "type": "tuple[]"
            },
            {
              "internalType": "address",
              "name": "spender",
              "type": "address"
            },
            {
              "internalType": "uint256",
              "name": "sigDeadline",
              "type": "uint256"
            }
          ],
          "internalType": "struct IAllowanceTransfer.PermitBatch",
          "name": "",
          "type": "tuple"
        },
        {
          "internalType": "bytes",
          "name": "",
          "type": "bytes"
        },
        {
          "internalType": "bytes[]",
          "name": "",
          "type": "bytes[]"
        }
      ],
      "name": "permitBatchAndCall",
      "outputs": [
        {
          "internalType": "bytes[]",
          "name": "",
          "type": "bytes[]"
        }
      ],
      "stateMutability": "payable",
      "type": "function"
    },
    {
      "inputs": [
        {
          "components": [
            {
              "internalType": "contract IERC20",
              "name": "tokenIn",
              "type": "address"
            },
            {
              "components": [
                {
                  "internalType": "address",
                  "name": "pool",
                  "type": "address"
                },
                {
                  "internalType": "contract IERC20",
                  "name": "tokenOut",
                  "type": "address"
                },
                {
                  "internalType": "bool",
                  "name": "isBuffer",
                  "type": "bool"
                }
              ],
              "internalType": "struct IBatchRouter.SwapPathStep[]",
              "name": "steps",
              "type": "tuple[]"
            },
            {
              "internalType": "uint256",
              "name": "exactAmountIn",
              "type": "uint256"
            },
            {
              "internalType": "uint256",
              "name": "minAmountOut",
              "type": "uint256"
            }
          ],
          "internalType": "struct IBatchRouter.SwapPathExactAmountIn[]",
          "name": "paths",
          "type": "tuple[]"
        },
        {
          "internalType": "address",
          "name": "sender",
          "type": "address"
        },
        {
          "internalType": "bytes",
          "name": "userData",
          "type": "bytes"
        }
      ],
      "name": "querySwapExactIn",
      "outputs": [
        {
          "internalType": "uint256[]",
          "name": "pathAmountsOut",
          "type": "uint256[]"
        },
        {
          "internalType": "address[]",
          "name": "tokensOut",
          "type": "address[]"
        },
        {
          "internalType": "uint256[]",
          "name": "amountsOut",
          "type": "uint256[]"
        }
      ],
      "stateMutability": "nonpayable",
      "type": "function"
    },
    {
      "inputs": [
        {
          "components": [
            {
              "internalType": "address",
              "name": "sender",
              "type": "address"
            },
            {
              "components": [
                {
                  "internalType": "contract IERC20",
                  "name": "tokenIn",
                  "type": "address"
                },
                {
                  "components": [
                    {
                      "internalType": "address",
                      "name": "pool",
                      "type": "address"
                    },
                    {
                      "internalType": "contract IERC20",
                      "name": "tokenOut",
                      "type": "address"
                    },
                    {
                      "internalType": "bool",
                      "name": "isBuffer",
                      "type": "bool"
                    }
                  ],
                  "internalType": "struct IBatchRouter.SwapPathStep[]",
                  "name": "steps",
                  "type": "tuple[]"
                },
                {
                  "internalType": "uint256",
                  "name": "exactAmountIn",
                  "type": "uint256"
                },
                {
                  "internalType": "uint256",
                  "name": "minAmountOut",
                  "type": "uint256"
                }
              ],
              "internalType": "struct IBatchRouter.SwapPathExactAmountIn[]",
              "name": "paths",
              "type": "tuple[]"
            },
            {
              "internalType": "uint256",
              "name": "deadline",
              "type": "uint256"
            },
            {
              "internalType": "bool",
              "name": "wethIsEth",
              "type": "bool"
            },
            {
              "internalType": "bytes",
              "name": "userData",
              "type": "bytes"
            }
          ],
          "internalType": "struct IBatchRouter.SwapExactInHookParams",
          "name": "params",
          "type": "tuple"
        }
      ],
      "name": "querySwapExactInHook",
      "outputs": [
        {
          "internalType": "uint256[]",
          "name": "pathAmountsOut",
          "type": "uint256[]"
        },
        {
          "internalType": "address[]",
          "name": "tokensOut",
          "type": "address[]"
        },
        {
          "internalType": "uint256[]",
          "name": "amountsOut",
          "type": "uint256[]"
        }
      ],
      "stateMutability": "nonpayable",
      "type": "function"
    },
    {
      "inputs": [
        {
          "components": [
            {
              "internalType": "contract IERC20",
              "name": "tokenIn",
              "type": "address"
            },
            {
              "components": [
                {
                  "internalType": "address",
                  "name": "pool",
                  "type": "address"
                },
                {
                  "internalType": "contract IERC20",
                  "name": "tokenOut",
                  "type": "address"
                },
                {
                  "internalType": "bool",
                  "name": "isBuffer",
                  "type": "bool"
                }
              ],
              "internalType": "struct IBatchRouter.SwapPathStep[]",
              "name": "steps",
              "type": "tuple[]"
            },
            {
              "internalType": "uint256",
              "name": "maxAmountIn",
              "type": "uint256"
            },
            {
              "internalType": "uint256",
              "name": "exactAmountOut",
              "type": "uint256"
            }
          ],
          "internalType": "struct IBatchRouter.SwapPathExactAmountOut[]",
          "name": "paths",
          "type": "tuple[]"
        },
        {
          "internalType": "address",
          "name": "sender",
          "type": "address"
        },
        {
          "internalType": "bytes",
          "name": "userData",
          "type": "bytes"
        }
      ],
      "name": "querySwapExactOut",
      "outputs": [
        {
          "internalType": "uint256[]",
          "name": "pathAmountsIn",
          "type": "uint256[]"
        },
        {
          "internalType": "address[]",
          "name": "tokensIn",
          "type": "address[]"
        },
        {
          "internalType": "uint256[]",
          "name": "amountsIn",
          "type": "uint256[]"
        }
      ],
      "stateMutability": "nonpayable",
      "type": "function"
    },
    {
      "inputs": [
        {
          "components": [
            {
              "internalType": "address",
              "name": "sender",
              "type": "address"
            },
            {
              "components": [
                {
                  "internalType": "contract IERC20",
                  "name": "tokenIn",
                  "type": "address"
                },
                {
                  "components": [
                    {
                      "internalType": "address",
                      "name": "pool",
                      "type": "address"
                    },
                    {
                      "internalType": "contract IERC20",
                      "name": "tokenOut",
                      "type": "address"
                    },
                    {
                      "internalType": "bool",
                      "name": "isBuffer",
                      "type": "bool"
                    }
                  ],
                  "internalType": "struct IBatchRouter.SwapPathStep[]",
                  "name": "steps",
                  "type": "tuple[]"
                },
                {
                  "internalType": "uint256",
                  "name": "maxAmountIn",
                  "type": "uint256"
                },
                {
                  "internalType": "uint256",
                  "name": "exactAmountOut",
                  "type": "uint256"
                }
              ],
              "internalType": "struct IBatchRouter.SwapPathExactAmountOut[]",
              "name": "paths",
              "type": "tuple[]"
            },
            {
              "internalType": "uint256",
              "name": "deadline",
              "type": "uint256"
            },
            {
              "internalType": "bool",
              "name": "wethIsEth",
              "type": "bool"
            },
            {
              "internalType": "bytes",
              "name": "userData",
              "type": "bytes"
            }
          ],
          "internalType": "struct IBatchRouter.SwapExactOutHookParams",
          "name": "params",
          "type": "tuple"
        }
      ],
      "name": "querySwapExactOutHook",
      "outputs": [
        {
          "internalType": "uint256[]",
          "name": "pathAmountsIn",
          "type": "uint256[]"
        },
        {
          "internalType": "address[]",
          "name": "tokensIn",
          "type": "address[]"
        },
        {
          "internalType": "uint256[]",
          "name": "amountsIn",
          "type": "uint256[]"
        }
      ],
      "stateMutability": "nonpayable",
      "type": "function"
    },
    {
      "inputs": [
        {
          "components": [
            {
              "internalType": "contract IERC20",
              "name": "tokenIn",
              "type": "address"
            },
            {
              "components": [
                {
                  "internalType": "address",
                  "name": "pool",
                  "type": "address"
                },
                {
                  "internalType": "contract IERC20",
                  "name": "tokenOut",
                  "type": "address"
                },
                {
                  "internalType": "bool",
                  "name": "isBuffer",
                  "type": "bool"
                }
              ],
              "internalType": "struct IBatchRouter.SwapPathStep[]",
              "name": "steps",
              "type": "tuple[]"
            },
            {
              "internalType": "uint256",
              "name": "exactAmountIn",
              "type": "uint256"
            },
            {
              "internalType": "uint256",
              "name": "minAmountOut",
              "type": "uint256"
            }
          ],
          "internalType": "struct IBatchRouter.SwapPathExactAmountIn[]",
          "name": "paths",
          "type": "tuple[]"
        },
        {
          "internalType": "uint256",
          "name": "deadline",
          "type": "uint256"
        },
        {
          "internalType": "bytes",
          "name": "userData",
          "type": "bytes"
        }
      ],
      "name": "swapExactIn",
      "outputs": [
        {
          "internalType": "uint256[]",
          "name": "pathAmountsOut",
          "type": "uint256[]"
        },
        {
          "internalType": "address[]",
          "name": "tokensOut",
          "type": "address[]"
        },
        {
          "internalType": "uint256[]",
          "name": "amountsOut",
          "type": "uint256[]"
        }
      ],
      "stateMutability": "payable",
      "type": "function"
    },
    {
      "inputs": [
        {
          "components": [
            {
              "internalType": "address",
              "name": "sender",
              "type": "address"
            },
            {
              "components": [
                {
                  "internalType": "contract IERC20",
                  "name": "tokenIn",
                  "type": "address"
                },
                {
                  "components": [
                    {
                      "internalType": "address",
                      "name": "pool",
                      "type": "address"
                    },
                    {
                      "internalType": "contract IERC20",
                      "name": "tokenOut",
                      "type": "address"
                    },
                    {
                      "internalType": "bool",
                      "name": "isBuffer",
                      "type": "bool"
                    }
                  ],
                  "internalType": "struct IBatchRouter.SwapPathStep[]",
                  "name": "steps",
                  "type": "tuple[]"
                },
                {
                  "internalType": "uint256",
                  "name": "exactAmountIn",
                  "type": "uint256"
                },
                {
                  "internalType": "uint256",
                  "name": "minAmountOut",
                  "type": "uint256"
                }
              ],
              "internalType": "struct IBatchRouter.SwapPathExactAmountIn[]",
              "name": "paths",
              "type": "tuple[]"
            },
            {
              "internalType": "uint256",
              "name": "deadline",
              "type": "uint256"
            },
            {
              "internalType": "bool",
              "name": "wethIsEth",
              "type": "bool"
            },
            {
              "internalType": "bytes",
              "name": "userData",
              "type": "bytes"
            }
          ],
          "internalType": "struct IBatchRouter.SwapExactInHookParams",
          "name": "params",
          "type": "tuple"
        }
      ],
      "name": "swapExactInHook",
      "outputs": [
        {
          "internalType": "uint256[]",
          "name": "pathAmountsOut",
          "type": "uint256[]"
        },
        {
          "internalType": "address[]",
          "name": "tokensOut",
          "type": "address[]"
        },
        {
          "internalType": "uint256[]",
          "name": "amountsOut",
          "type": "uint256[]"
        }
      ],
      "stateMutability": "nonpayable",
      "type": "function"
    },
    {
      "inputs": [
        {
          "components": [
            {
              "internalType": "contract IERC20",
              "name": "tokenIn",
              "type": "address"
            },
            {
              "components": [
                {
                  "internalType": "address",
                  "name": "pool",
                  "type": "address"
                },
                {
                  "internalType": "contract IERC20",
                  "name": "tokenOut",
                  "type": "address"
                },
                {
                  "internalType": "bool",
                  "name": "isBuffer",
                  "type": "bool"
                }
              ],
              "internalType": "struct IBatchRouter.SwapPathStep[]",
              "name": "steps",
              "type": "tuple[]"
            },
            {
              "internalType": "uint256",
              "name": "maxAmountIn",
              "type": "uint256"
            },
            {
              "internalType": "uint256",
              "name": "exactAmountOut",
              "type": "uint256"
            }
          ],
          "internalType": "struct IBatchRouter.SwapPathExactAmountOut[]",
          "name": "paths",
          "type": "tuple[]"
        },
        {
          "internalType": "uint256",
          "name": "deadline",
          "type": "uint256"
        },
        {
          "internalType": "bytes",
          "name": "userData",
          "type": "bytes"
        }
      ],
      "name": "swapExactOut",
      "outputs": [
        {
          "internalType": "uint256[]",
          "name": "pathAmountsIn",
          "type": "uint256[]"
        },
        {
          "internalType": "address[]",
          "name": "tokensIn",
          "type": "address[]"
        },
        {
          "internalType": "uint256[]",
          "name": "amountsIn",
          "type": "uint256[]"
        }
      ],
      "stateMutability": "payable",
      "type": "function"
    },
    {
      "inputs": [
        {
          "components": [
            {
              "internalType": "address",
              "name": "sender",
              "type": "address"
            },
            {
              "components": [
                {
                  "internalType": "contract IERC20",
                  "name": "tokenIn",
                  "type": "address"
                },
                {
                  "components": [
                    {
                      "internalType": "address",
                      "name": "pool",
                      "type": "address"
                    },
                    {
                      "internalType": "contract IERC20",
                      "name": "tokenOut",
                      "type": "address"
                    },
                    {
                      "internalType": "bool",
                      "name": "isBuffer",
                      "type": "bool"
                    }
                  ],
                  "internalType": "struct IBatchRouter.SwapPathStep[]",
                  "name": "steps",
                  "type": "tuple[]"
                },
                {
                  "internalType": "uint256",
                  "name": "maxAmountIn",
                  "type": "uint256"
                },
                {
                  "internalType": "uint256",
                  "name": "exactAmountOut",
                  "type": "uint256"
                }
              ],
              "internalType": "struct IBatchRouter.SwapPathExactAmountOut[]",
              "name": "paths",
              "type": "tuple[]"
            },
            {
              "internalType": "uint256",
              "name": "deadline",
              "type": "uint256"
            },
            {
              "internalType": "bool",
              "name": "wethIsEth",
              "type": "bool"
            },
            {
              "internalType": "bytes",
              "name": "userData",
              "type": "bytes"
            }
          ],
          "internalType": "struct IBatchRouter.SwapExactOutHookParams",
          "name": "params",
          "type": "tuple"
        }
      ],
      "name": "swapExactOutHook",
      "outputs": [
        {
          "internalType": "uint256[]",
          "name": "pathAmountsIn",
          "type": "uint256[]"
        },
        {
          "internalType": "address[]",
          "name": "tokensIn",
          "type": "address[]"
        },
        {
          "internalType": "uint256[]",
          "name": "amountsIn",
          "type": "uint256[]"
        }
      ],
      "stateMutability": "nonpayable",
      "type": "function"
    },
    {
      "inputs": [],
      "name": "version",
      "outputs": [
        {
          "internalType": "string",
          "name": "",
          "type": "string"
        }
      ],
      "stateMutability": "view",
      "type": "function"
    },
    {
      "stateMutability": "payable",
      "type": "receive"
    }
  ],
  "bytecode": "0x6101c0604090808252346104da57612f61803803809161001f82856104f9565b833981019082818303126104da578051906001600160a01b03821682036104da576020928382015160018060401b03928382116104da570192601f908282860112156104da5784518481116104c657601f199588519461008589898786011601876104f9565b8286528883830101116104da57815f92898093018388015e850101526100e987516100af816104de565b600b81526a14d95b99195c91dd585c9960aa1b888201528851906100d2826104de565b600682526539b2b73232b960d11b89830152610552565b60805260a05281519283116104c6575f54916001928381811c911680156104bc575b878210146104a857828111610465575b508591841160011461040857839450908392915f946103fd575b50501b915f199060031b1c1916175f555b61019a8251610154816104de565b600c81526b2937baba32b921b7b6b6b7b760a11b83820152835190610178826104de565b60118252701a5cd4995d1d5c9b915d1a131bd8dad959607a1b84830152610552565b60c0525f60e052610100915f83526101e481516101b6816104de565b601381527f63757272656e7453776170546f6b656e73496e000000000000000000000000008482015261051c565b9161012092835261022782516101f9816104de565b601481527f63757272656e7453776170546f6b656e734f75740000000000000000000000008382015261051c565b610140908152610269835161023b816104de565b601981527f63757272656e7453776170546f6b656e496e416d6f756e7473000000000000008482015261051c565b906101609182526102ef6102af8551610281816104de565b601a81527f63757272656e7453776170546f6b656e4f7574416d6f756e74730000000000008682015261051c565b936101809485527f736574746c6564546f6b656e416d6f756e7473000000000000000000000000008651916102e3836104de565b6013835282015261051c565b936101a0948552519461295c968761060588396080518781816102bd015281816104430152611d75015260a05187818161025b015281816106e5015281816112bf015281816114b101528181611693015281816118cf01528181611bd001528181611f09015281816120d9015281816122a70152612738015260c051876127ca015260e051878181602601526109fb0152518681816108870152611bf401525185818161183701528181611a950152611de50152518481816115170152818161177b01528181611a7201528181612135015261236401525183818161181501528181611ac00152611dc3015251828181611540015281816117ad01528181611af70152612175015251815050f35b015192505f80610135565b91938316915f805283865f20935f5b888883831061044e5750505010610436575b505050811b015f55610146565b01515f1960f88460031b161c191690555f8080610429565b868601518855909601959485019487935001610417565b5f8052865f208380870160051c82019289881061049f575b0160051c019084905b82811061049457505061011b565b5f8155018490610486565b9250819261047d565b634e487b7160e01b5f52602260045260245ffd5b90607f169061010b565b634e487b7160e01b5f52604160045260245ffd5b5f80fd5b604081019081106001600160401b038211176104c657604052565b601f909101601f19168101906001600160401b038211908210176104c657604052565b61054f9060405161052c816104de565b60118152702130ba31b42937baba32b921b7b6b6b7b760791b6020820152610552565b90565b906105bf603a60209260405193849181808401977f62616c616e6365722d6c6162732e76332e73746f726167652e000000000000008952805191829101603986015e830190601760f91b60398301528051928391018583015e015f8382015203601a8101845201826104f9565b5190205f1981019081116105f0576040519060208201908152602082526105e5826104de565b9051902060ff191690565b634e487b7160e01b5f52601160045260245ffdfe60406080815260049081361015610074575b50361561001c575f80fd5b6001600160a01b037f000000000000000000000000000000000000000000000000000000000000000016330361004e57005b7f0540ddf6000000000000000000000000000000000000000000000000000000005f525ffd5b5f3560e01c806308a465f614610a1f578063107c279f146109dc57806319c6989f146109365780631acd9ae1146108ab5780631bbf2e23146108685780632950286e146107465780632d6d9de8146105e057806354fd4d501461049e5780635a3c3987146104735780635e01eb5a1461042f5780638a12a08c146103d3578063945ed33f14610365578063ac9650d8146103125763e3b5dff40361001157903461030e57606091606060031936011261030e5767ffffffffffffffff91803583811161030e576101479036908301610d9f565b91610150610c6f565b9160443594851161030e5761016b6101739536908301610b54565b959093611d70565b925f5b855181101561019757805f8961018e6001948a611156565b51015201610176565b50602061020692610214876101ce5f958b8951936101b485610ba7565b308552878501525f198a8501528760608501523691610e4f565b608082015286519586917f8a12a08c000000000000000000000000000000000000000000000000000000008684015260248301611197565b03601f198101865285610c20565b61024e855194859384937fedfa35680000000000000000000000000000000000000000000000000000000085528401526024830190610b82565b0381836001600160a01b037f0000000000000000000000000000000000000000000000000000000000000000165af1908115610304576102b6916102a3915f916102e2575b5060208082518301019101611099565b919390946102ba575b5193849384610ab6565b0390f35b5f7f00000000000000000000000000000000000000000000000000000000000000005d6102ac565b6102fe91503d805f833e6102f68183610c20565b810190610fd5565b85610293565b82513d5f823e3d90fd5b5f80fd5b82602060031936011261030e57803567ffffffffffffffff811161030e5761033d9036908301610b23565b50507f29a270f5000000000000000000000000000000000000000000000000000000005f525ffd5b503461030e576103a16102b66103a661037d36610a51565b93610386611260565b61038e6112b5565b61039785611db2565b9391959096610e1f565b611a70565b5f7f9b779b17422d0df92223018b32b4d1fa46e071723d6817e2486d003becc55f005d5193849384610ab6565b503461030e576102b6906103fe6103e936610a51565b6103f1611260565b6103f96112b5565b611344565b909391925f7f9b779b17422d0df92223018b32b4d1fa46e071723d6817e2486d003becc55f005d5193849384610ab6565b503461030e575f60031936011261030e57517f00000000000000000000000000000000000000000000000000000000000000005c6001600160a01b03168152602090f35b503461030e576102b6906103fe61048936610a51565b610491611260565b6104996112b5565b611db2565b503461030e575f60031936011261030e578051905f905f549160018360011c90600185169485156105d6575b60209586841081146105aa5783885287949392918790821561056a575050600114610511575b50506102b69291610502910385610c20565b51928284938452830190610b82565b5f80805286935091907f290decd9548b62a8d60345a988386fc84ba6bc95484008f6362f93160ef3e5635b82841061055257505050820101816105026104f0565b8054848a01860152889550879490930192810161053c565b7fffffffffffffffffffffffffffffffffffffffffffffffffffffffffffffff00168682015292151560051b8501909201925083915061050290506104f0565b6022897f4e487b71000000000000000000000000000000000000000000000000000000005f525260245ffd5b91607f16916104ca565b50606060031936011261030e5767ffffffffffffffff91803583811161030e5761060d9036908301610d9f565b9260443590811161030e5760206102069261069e610666966106335f9536908501610b54565b989061063e33611d70565b9989519361064b85610ba7565b338552878501526024358a8501528760608501523691610e4f565b608082015286519586917f08a465f6000000000000000000000000000000000000000000000000000000008684015260248301611197565b6106d8855194859384937f48c894910000000000000000000000000000000000000000000000000000000085528401526024830190610b82565b0381836001600160a01b037f0000000000000000000000000000000000000000000000000000000000000000165af1908115610304576102b6916102a3915f9161072c575060208082518301019101611099565b61074091503d805f833e6102f68183610c20565b5f610293565b503461030e57606060031936011261030e5767ffffffffffffffff91803583811161030e576107789036908301610d9f565b90610781610c6f565b9060443594851161030e5761079c6107a49536908301610b54565b959092611d70565b915f5b84518110156107d857806fffffffffffffffffffffffffffffffff876107cf60019489611156565b510152016107a7565b509061082e610206946107f66020945f96998951936101b485610ba7565b608082015286519586917f5a3c3987000000000000000000000000000000000000000000000000000000008684015260248301610f0c565b6106d8855194859384937fedfa35680000000000000000000000000000000000000000000000000000000085528401526024830190610b82565b503461030e575f60031936011261030e57602090516001600160a01b037f0000000000000000000000000000000000000000000000000000000000000000168152f35b50606060031936011261030e5767ffffffffffffffff91803583811161030e576108d89036908301610d9f565b9260443590811161030e5760206102069261069e6108fe966106335f9536908501610b54565b608082015286519586917f945ed33f000000000000000000000000000000000000000000000000000000008684015260248301610f0c565b8260031960a08136011261030e5767ffffffffffffffff90823582811161030e573660238201121561030e57808401359083821161030e5760249060c036930201011161030e5760243582811161030e576109949036908501610b23565b50506044359082821161030e576060913603011261030e5760643581811161030e576109c39036908401610b54565b505060843590811161030e5761033d9036908301610b23565b503461030e575f60031936011261030e57602090516001600160a01b037f0000000000000000000000000000000000000000000000000000000000000000168152f35b503461030e576103a16102b66103a6610a3736610a51565b93610a40611260565b610a486112b5565b61039785611344565b6003199060208282011261030e576004359167ffffffffffffffff831161030e578260a09203011261030e5760040190565b9081518082526020808093019301915f5b828110610aa2575050505090565b835185529381019392810192600101610a94565b939290610acb90606086526060860190610a83565b936020948181036020830152602080855192838152019401905f5b818110610b0657505050610b039394506040818403910152610a83565b90565b82516001600160a01b031686529487019491870191600101610ae6565b9181601f8401121561030e5782359167ffffffffffffffff831161030e576020808501948460051b01011161030e57565b9181601f8401121561030e5782359167ffffffffffffffff831161030e576020838186019501011161030e57565b90601f19601f602080948051918291828752018686015e5f8582860101520116010190565b60a0810190811067ffffffffffffffff821117610bc357604052565b7f4e487b71000000000000000000000000000000000000000000000000000000005f52604160045260245ffd5b60e0810190811067ffffffffffffffff821117610bc357604052565b67ffffffffffffffff8111610bc357604052565b90601f601f19910116810190811067ffffffffffffffff821117610bc357604052565b67ffffffffffffffff8111610bc35760051b60200190565b35906001600160a01b038216820361030e57565b602435906001600160a01b038216820361030e57565b91909160808184031261030e57604092835191608083019467ffffffffffffffff9584811087821117610bc35781528395610cbf83610c5b565b855260208084013582811161030e57840185601f8201121561030e57803595610ce787610c43565b93610cf486519586610c20565b87855283850191846060809a028501019381851161030e5790858a999897969594939201925b848410610d3857505050505086015280820135908501520135910152565b9091929394959697988483031261030e578751908a820182811085821117610bc3578952610d6585610c5b565b8252610d72878601610c5b565b878301528885013590811515820361030e578288928b8e9501528152019301919089989796959493610d1a565b81601f8201121561030e57803591602091610db984610c43565b93610dc76040519586610c20565b808552838086019160051b8301019280841161030e57848301915b848310610df25750505050505090565b823567ffffffffffffffff811161030e578691610e1484848094890101610c85565b815201920191610de2565b356001600160a01b038116810361030e5790565b67ffffffffffffffff8111610bc357601f01601f191660200190565b929192610e5b82610e33565b91610e696040519384610c20565b82948184528183011161030e578281602093845f960137010152565b9060808101916001600160a01b03808251168352602093848301519460808186015285518092528060a086019601925f905b838210610ed95750505050506060816040829301516040850152015191015290565b84518051821689528084015182168985015260409081015115159089015260609097019693820193600190910190610eb7565b91909160209081815260c08101916001600160a01b0385511681830152808501519260a06040840152835180915260e08301918060e08360051b8601019501925f905b838210610f8b5750505050506080846040610b03959601516060840152606081015115158284015201519060a0601f1982850301910152610b82565b90919293958380610fc6837fffffffffffffffffffffffffffffffffffffffffffffffffffffffffffffff208a600196030186528a51610e85565b98019201920190939291610f4f565b60208183031261030e5780519067ffffffffffffffff821161030e570181601f8201121561030e5780519061100982610e33565b926110176040519485610c20565b8284526020838301011161030e57815f9260208093018386015e8301015290565b9080601f8301121561030e5781519060209161105381610c43565b936110616040519586610c20565b81855260208086019260051b82010192831161030e57602001905b82821061108a575050505090565b8151815290830190830161107c565b909160608284031261030e5781519167ffffffffffffffff9283811161030e57846110c5918301611038565b9360208083015185811161030e5783019082601f8301121561030e578151916110ed83610c43565b926110fb6040519485610c20565b808452828085019160051b8301019185831161030e578301905b828210611137575050505093604083015190811161030e57610b039201611038565b81516001600160a01b038116810361030e578152908301908301611115565b805182101561116a5760209160051b010190565b7f4e487b71000000000000000000000000000000000000000000000000000000005f52603260045260245ffd5b91909160209081815260c08101916001600160a01b0385511681830152808501519260a06040840152835180915260e08301918060e08360051b8601019501925f905b8382106112165750505050506080846040610b03959601516060840152606081015115158284015201519060a0601f1982850301910152610b82565b90919293958380611251837fffffffffffffffffffffffffffffffffffffffffffffffffffffffffffffff208a600196030186528a51610e85565b980192019201909392916111da565b7f9b779b17422d0df92223018b32b4d1fa46e071723d6817e2486d003becc55f00805c61128d576001905d565b7f3ee5aeb5000000000000000000000000000000000000000000000000000000005f5260045ffd5b6001600160a01b037f00000000000000000000000000000000000000000000000000000000000000001633036112e757565b7f089676d5000000000000000000000000000000000000000000000000000000005f523360045260245ffd5b9061131d82610c43565b61132a6040519182610c20565b828152601f1961133a8294610c43565b0190602036910137565b9060408201354211611a0a5761136761136060208401846123fa565b9050611313565b9132611812575b5f929192915b61138160208301836123fa565b9050831015611772576113ab836113a661139e60208601866123fa565b36939161244e565b610c85565b926040840151916001600160a01b03855116955f5b602087015151811015611761576113d561248e565b6020880151515f198101908111611734578214806020830152821582525f1461172e5760608801515b61140c8360208b0151611156565b516040810151909190156115c5576114a46001600160a01b03835116916001600160a01b038d1683145f146115be576001925b6040519361144c85610ba7565b5f855261145881612508565b6020850152604084015260609283918b838301526080820152604051809381927f43583be5000000000000000000000000000000000000000000000000000000008352600483016125c6565b03815f6001600160a01b037f0000000000000000000000000000000000000000000000000000000000000000165af19081156115b3576020925f92611583575b5050925b01511561156a57816001600160a01b036020611564936001969561150c8b8b611156565b520161153b828251167f0000000000000000000000000000000000000000000000000000000000000000612892565b5051167f00000000000000000000000000000000000000000000000000000000000000006128dc565b016113c0565b602001516001600160a01b031698509450600190611564565b6115a29250803d106115ac575b61159a8183610c20565b81019061253f565b9150505f806114e4565b503d611590565b6040513d5f823e3d90fd5b5f9261143f565b6001600160a01b038251166001600160a01b038c168114159081611716575b50156116ee57611686888a9261164e8e6001600160a01b0380885116938160208a015116956116186080998a8101906124b7565b9390946040519761162889610bf0565b5f8952602089015216604087015260609889978888015286015260a08501523691610e4f565b60c0820152604051809381927f2bfb780c0000000000000000000000000000000000000000000000000000000083526004830161255a565b03815f6001600160a01b037f0000000000000000000000000000000000000000000000000000000000000000165af19081156115b3576020925f926116ce575b5050926114e8565b6116e49250803d106115ac5761159a8183610c20565b9150505f806116c6565b7f29a270f5000000000000000000000000000000000000000000000000000000005f5260045ffd5b90506001600160a01b0360208401511614155f6115e4565b5f6113fe565b7f4e487b71000000000000000000000000000000000000000000000000000000005f52601160045260245ffd5b509450945060019150019192611374565b9150509061179f7f0000000000000000000000000000000000000000000000000000000000000000612615565b916117aa8351611313565b907f0000000000000000000000000000000000000000000000000000000000000000905f5b855181101561180b57806001600160a01b036117ed60019389611156565b51165f528360205260405f205c6118048287611156565b52016117cf565b5093929050565b917f0000000000000000000000000000000000000000000000000000000000000000907f0000000000000000000000000000000000000000000000000000000000000000905f5b61186660208701876123fa565b90508110156118b457806118ae6118896001936113a661139e60208c018c6123fa565b60406001600160a01b036118a08184511689612892565b5082511691015190876128dc565b01611859565b509392906118c190612615565b5f946001600160a01b0392837f000000000000000000000000000000000000000000000000000000000000000016965b83518110156119fd57846119058286611156565b5116805f528660205260405f205c6040517f15afd40900000000000000000000000000000000000000000000000000000000815260046020828d815f81611965898b898401602090939291936001600160a01b0360408201951681520152565b03925af19182156115b3575f926119c9575b5082821061199857505050906001915f52866020525f604081205d016118f1565b83907f5c54305e000000000000000000000000000000000000000000000000000000005f525260245260445260645ffd5b9091506020813d6020116119f5575b816119e560209383610c20565b8101031261030e5751905f611977565b3d91506119d8565b509493509450505061136e565b7fe08b8af0000000000000000000000000000000000000000000000000000000005f5260045ffd5b905f19820191821360011661173457565b7f80000000000000000000000000000000000000000000000000000000000000008114611734575f190190565b7f0000000000000000000000000000000000000000000000000000000000000000805c7f0000000000000000000000000000000000000000000000000000000000000000611abe815c611a32565b7f0000000000000000000000000000000000000000000000000000000000000000905b5f811215611b7b57505050611af590611a32565b7f0000000000000000000000000000000000000000000000000000000000000000905b5f811215611b2e57505050611b2c906127c0565b565b611b7690835f52611b7060205f83828220015c9182825286815286604091611b638385205c6001600160a01b0387168d612724565b8484525281205d85612681565b50611a43565b611b18565b825f5260209080825f20015c91836001600160a01b0391828516855f52828252604093845f205c9182611bc9575b505050611b709285925f92611bc49784525281205d85612681565b611ae1565b92935090917f00000000000000000000000000000000000000000000000000000000000000008216917f00000000000000000000000000000000000000000000000000000000000000008116818511611d3f57803b1561030e575f80918f936084908a5194859384927f36c785160000000000000000000000000000000000000000000000000000000084528060049916898501528a60248501528b1660448401528860648401525af18015611d3557869492611cd39694925f92611d26575b508851968795869485937f15afd4090000000000000000000000000000000000000000000000000000000085528401602090939291936001600160a01b0360408201951681520152565b03925af18015611d1c5790869291611ced575b8080611ba9565b81809693503d8311611d15575b611d048183610c20565b8101031261030e579284905f611ce6565b503d611cfa565b83513d5f823e3d90fd5b611d2f90610c0c565b5f611c89565b87513d5f823e3d90fd5b847f6dfcc650000000000000000000000000000000000000000000000000000000005f5260a060045260245260445ffd5b905f917f00000000000000000000000000000000000000000000000000000000000000006001600160a01b03815c1615611da8575050565b909192505d600190565b90604091828101354211611a0a57907f0000000000000000000000000000000000000000000000000000000000000000907f0000000000000000000000000000000000000000000000000000000000000000905f5b60208501611e1581876123fa565b9050821015611e515790611e4b611e35826113a661139e6001968b6123fa565b886001600160a01b036118a08184511689612892565b01611e07565b50509290611e5e81612615565b905f92321515935b8351811015611f85576001600160a01b03908682611e848388611156565b511692835f52876020918383528c5f205c91611eae575b50506001935f52525f8981205d01611e66565b9091939492508b51907f15afd4090000000000000000000000000000000000000000000000000000000082528482600492815f81611f05898b898401602090939291936001600160a01b0360408201951681520152565b03927f0000000000000000000000000000000000000000000000000000000000000000165af1918215611f7b575f92611f4c575b50828210611998578a9395949250611e9b565b9091508481813d8311611f74575b611f648183610c20565b8101031261030e5751905f611f39565b503d611f5a565b8d513d5f823e3d90fd5b509250939050602092838301611f9e61136082866123fa565b925f5b611fab83876123fa565b905081101561238d57611fc5816113a661139e868a6123fa565b60608082015190898301918251515f1990818101908111611734578e908c8e5b5f831215611ffe57505050505050505050600101611fa1565b612009838951611156565b5161201261248e565b82810192851584528a515191888301928311611734578a92871480915261234b575b83511561231257868c01516001600160a01b038d5116955b84890151156121f05750926120d5915f946001600160a01b0380935116838916811487146121ea5760015b8b519361208385610ba7565b6001855261209082612508565b8401528a8301528b85830152608082015288519485809481937f43583be5000000000000000000000000000000000000000000000000000000008352600483016125c6565b03927f0000000000000000000000000000000000000000000000000000000000000000165af19081156121e0578f90918c925f916121c1575b50925b51156121b057829161212291611156565b526001600160a01b0380921693612159857f0000000000000000000000000000000000000000000000000000000000000000612892565b5089015191818303928311611734576121996121a2936121a7967f00000000000000000000000000000000000000000000000000000000000000006128dc565b8951168d6128dc565b611a43565b8e908c8e611fe5565b5050919450506121a7915092611a43565b6121d891508a3d8c116115ac5761159a8183610c20565b91509061210e565b85513d5f823e3d90fd5b86612077565b9250906001600160a01b03908185511682881690818114159081612302575b50156116ee57858a6122a3958f978f9061226a958888815f9e5116970151169061223e608093848101906124b7565b96909781519a61224d8c610bf0565b60018c528b01528901528a88015286015260a08501523691610e4f565b60c082015288519485809481937f2bfb780c0000000000000000000000000000000000000000000000000000000083526004830161255a565b03927f0000000000000000000000000000000000000000000000000000000000000000165af19081156121e0578f90918c925f916122e3575b5092612111565b6122fa91508a3d8c116115ac5761159a8183610c20565b9150906122dc565b905083838801511614155f61220f565b8a6001600160a01b03826123416fffffffffffffffffffffffffffffffff935161233b8b611a32565b90611156565b510151169561204c565b612388898285016001600160a01b039061153b828251167f0000000000000000000000000000000000000000000000000000000000000000612892565b612034565b50959194935061239e919050612615565b6123a88151611313565b915f5b82518110156123f057806001600160a01b036123c960019386611156565b5116805f52878752895f205c6123df8388611156565b525f528686525f8981205d016123ab565b5095509391509150565b9035907fffffffffffffffffffffffffffffffffffffffffffffffffffffffffffffffe18136030182121561030e570180359067ffffffffffffffff821161030e57602001918160051b3603831361030e57565b919081101561116a5760051b810135907fffffffffffffffffffffffffffffffffffffffffffffffffffffffffffffff818136030182121561030e570190565b604051906040820182811067ffffffffffffffff821117610bc3576040525f6020838281520152565b9035907fffffffffffffffffffffffffffffffffffffffffffffffffffffffffffffffe18136030182121561030e570180359067ffffffffffffffff821161030e5760200191813603831361030e57565b6002111561251257565b7f4e487b71000000000000000000000000000000000000000000000000000000005f52602160045260245ffd5b9081606091031261030e578051916040602083015192015190565b61010060c0610b039360208452805161257281612508565b602085015260208101516001600160a01b0380911660408601528060408301511660608601526060820151166080850152608081015160a085015260a08101518285015201519160e0808201520190610b82565b91909160808060a083019480516125dc81612508565b845260208101516125ec81612508565b60208501526001600160a01b036040820151166040850152606081015160608501520151910152565b90815c61262181610c43565b61262e6040519182610c20565b81815261263a82610c43565b601f196020910136602084013781945f5b848110612659575050505050565b600190825f5280845f20015c6001600160a01b036126778388611156565b911690520161264b565b6001810191805f5260209183835260405f205c8015155f1461271b575f1990818101835c83808201918284036126de575b5050505050815c81810192818411611734575f93815d835284832001015d5f52525f604081205d600190565b6126eb6126fb93886128f5565b865f52885f2001015c91856128f5565b835f52808383885f2001015d5f5285855260405f205d5f808083816126b2565b50505050505f90565b919081156127bb576001600160a01b0390817f00000000000000000000000000000000000000000000000000000000000000001690813b1561030e575f60649281958560405198899788967fae63932900000000000000000000000000000000000000000000000000000000885216600487015216602485015260448401525af180156115b3576127b25750565b611b2c90610c0c565b505050565b4790811561288e577f00000000000000000000000000000000000000000000000000000000000000005c61288e57814710612862575f8080936001600160a01b038294165af13d1561285d573d61281681610e33565b906128246040519283610c20565b81525f60203d92013e5b1561283557565b7f1425ea42000000000000000000000000000000000000000000000000000000005f5260045ffd5b61282e565b7fcd786059000000000000000000000000000000000000000000000000000000005f523060045260245ffd5b5050565b6001810190825f528160205260405f205c155f146128d557805c815f52838160205f20015d6001810180911161173457815d5c915f5260205260405f205d600190565b5050505f90565b905f5260205260405f20805c918201809211611734575d565b5c11156128fe57565b7f0f4ae0e4000000000000000000000000000000000000000000000000000000005f5260045ffdfea26469706673582212205998d935c5313f90a7f85a8a091c9143e912bff87deef146988d6e6d3cb22e6864736f6c634300081b0033",
  "linkReferences": {},
  "deployedLinkReferences": {}
}