{
  "_format": "hh-sol-artifact-1",
  "contractName": "MevCaptureHook",
  "sourceName": "contracts/MevCaptureHook.sol",
  "abi": [
    {
      "inputs": [
        {
          "internalType": "contract IVault",
          "name": "vault",
          "type": "address"
        },
        {
          "internalType": "contract IBalancerContractRegistry",
          "name": "registry",
          "type": "address"
        },
        {
          "internalType": "uint256",
          "name": "defaultMevTaxMultiplier",
          "type": "uint256"
        },
        {
          "internalType": "uint256",
          "name": "defaultMevTaxThreshold",
          "type": "uint256"
        }
      ],
      "stateMutability": "nonpayable",
      "type": "constructor"
    },
    {
      "inputs": [],
      "name": "InvalidBalancerContractRegistry",
      "type": "error"
    },
    {
      "inputs": [
        {
          "internalType": "address",
          "name": "pool",
          "type": "address"
        }
      ],
      "name": "MevCaptureHookNotRegisteredInPool",
      "type": "error"
    },
    {
      "inputs": [
        {
          "internalType": "uint256",
          "name": "feePercentage",
          "type": "uint256"
        },
        {
          "internalType": "uint256",
          "name": "maxFeePercentage",
          "type": "uint256"
        }
      ],
      "name": "MevSwapFeePercentageAboveMax",
      "type": "error"
    },
    {
      "inputs": [
        {
          "internalType": "address",
          "name": "sender",
          "type": "address"
        }
      ],
      "name": "MevTaxExemptSenderAlreadyAdded",
      "type": "error"
    },
    {
      "inputs": [
        {
          "internalType": "address",
          "name": "sender",
          "type": "address"
        }
      ],
      "name": "SenderIsNotVault",
      "type": "error"
    },
    {
      "inputs": [],
      "name": "SenderNotAllowed",
      "type": "error"
    },
    {
      "inputs": [
        {
          "internalType": "address",
          "name": "sender",
          "type": "address"
        }
      ],
      "name": "SenderNotRegisteredAsMevTaxExempt",
      "type": "error"
    },
    {
      "anonymous": false,
      "inputs": [
        {
          "indexed": false,
          "internalType": "uint256",
          "name": "newDefaultMevTaxMultiplier",
          "type": "uint256"
        }
      ],
      "name": "DefaultMevTaxMultiplierSet",
      "type": "event"
    },
    {
      "anonymous": false,
      "inputs": [
        {
          "indexed": false,
          "internalType": "uint256",
          "name": "newDefaultMevTaxThreshold",
          "type": "uint256"
        }
      ],
      "name": "DefaultMevTaxThresholdSet",
      "type": "event"
    },
    {
      "anonymous": false,
      "inputs": [
        {
          "indexed": false,
          "internalType": "uint256",
          "name": "maxMevSwapFeePercentage",
          "type": "uint256"
        }
      ],
      "name": "MaxMevSwapFeePercentageSet",
      "type": "event"
    },
    {
      "anonymous": false,
      "inputs": [
        {
          "indexed": false,
          "internalType": "bool",
          "name": "enabled",
          "type": "bool"
        }
      ],
      "name": "MevTaxEnabledSet",
      "type": "event"
    },
    {
      "anonymous": false,
      "inputs": [
        {
          "indexed": false,
          "internalType": "address",
          "name": "sender",
          "type": "address"
        }
      ],
      "name": "MevTaxExemptSenderAdded",
      "type": "event"
    },
    {
      "anonymous": false,
      "inputs": [
        {
          "indexed": false,
          "internalType": "address",
          "name": "sender",
          "type": "address"
        }
      ],
      "name": "MevTaxExemptSenderRemoved",
      "type": "event"
    },
    {
      "anonymous": false,
      "inputs": [
        {
          "indexed": false,
          "internalType": "address",
          "name": "pool",
          "type": "address"
        },
        {
          "indexed": false,
          "internalType": "uint256",
          "name": "newPoolMevTaxMultiplier",
          "type": "uint256"
        }
      ],
      "name": "PoolMevTaxMultiplierSet",
      "type": "event"
    },
    {
      "anonymous": false,
      "inputs": [
        {
          "indexed": false,
          "internalType": "address",
          "name": "pool",
          "type": "address"
        },
        {
          "indexed": false,
          "internalType": "uint256",
          "name": "newPoolMevTaxThreshold",
          "type": "uint256"
        }
      ],
      "name": "PoolMevTaxThresholdSet",
      "type": "event"
    },
    {
      "inputs": [
        {
          "internalType": "address[]",
          "name": "senders",
          "type": "address[]"
        }
      ],
      "name": "addMevTaxExemptSenders",
      "outputs": [],
      "stateMutability": "nonpayable",
      "type": "function"
    },
    {
      "inputs": [],
      "name": "disableMevTax",
      "outputs": [],
      "stateMutability": "nonpayable",
      "type": "function"
    },
    {
      "inputs": [],
      "name": "enableMevTax",
      "outputs": [],
      "stateMutability": "nonpayable",
      "type": "function"
    },
    {
      "inputs": [
        {
          "internalType": "bytes4",
          "name": "selector",
          "type": "bytes4"
        }
      ],
      "name": "getActionId",
      "outputs": [
        {
          "internalType": "bytes32",
          "name": "",
          "type": "bytes32"
        }
      ],
      "stateMutability": "view",
      "type": "function"
    },
    {
      "inputs": [],
      "name": "getAuthorizer",
      "outputs": [
        {
          "internalType": "contract IAuthorizer",
          "name": "",
          "type": "address"
        }
      ],
      "stateMutability": "view",
      "type": "function"
    },
    {
      "inputs": [],
      "name": "getBalancerContractRegistry",
      "outputs": [
        {
          "internalType": "contract IBalancerContractRegistry",
          "name": "",
          "type": "address"
        }
      ],
      "stateMutability": "view",
      "type": "function"
    },
    {
      "inputs": [],
      "name": "getDefaultMevTaxMultiplier",
      "outputs": [
        {
          "internalType": "uint256",
          "name": "",
          "type": "uint256"
        }
      ],
      "stateMutability": "view",
      "type": "function"
    },
    {
      "inputs": [],
      "name": "getDefaultMevTaxThreshold",
      "outputs": [
        {
          "internalType": "uint256",
          "name": "",
          "type": "uint256"
        }
      ],
      "stateMutability": "view",
      "type": "function"
    },
    {
      "inputs": [],
      "name": "getHookFlags",
      "outputs": [
        {
          "components": [
            {
              "internalType": "bool",
              "name": "enableHookAdjustedAmounts",
              "type": "bool"
            },
            {
              "internalType": "bool",
              "name": "shouldCallBeforeInitialize",
              "type": "bool"
            },
            {
              "internalType": "bool",
              "name": "shouldCallAfterInitialize",
              "type": "bool"
            },
            {
              "internalType": "bool",
              "name": "shouldCallComputeDynamicSwapFee",
              "type": "bool"
            },
            {
              "internalType": "bool",
              "name": "shouldCallBeforeSwap",
              "type": "bool"
            },
            {
              "internalType": "bool",
              "name": "shouldCallAfterSwap",
              "type": "bool"
            },
            {
              "internalType": "bool",
              "name": "shouldCallBeforeAddLiquidity",
              "type": "bool"
            },
            {
              "internalType": "bool",
              "name": "shouldCallAfterAddLiquidity",
              "type": "bool"
            },
            {
              "internalType": "bool",
              "name": "shouldCallBeforeRemoveLiquidity",
              "type": "bool"
            },
            {
              "internalType": "bool",
              "name": "shouldCallAfterRemoveLiquidity",
              "type": "bool"
            }
          ],
          "internalType": "struct HookFlags",
          "name": "",
          "type": "tuple"
        }
      ],
      "stateMutability": "pure",
      "type": "function"
    },
    {
      "inputs": [],
      "name": "getMaxMevSwapFeePercentage",
      "outputs": [
        {
          "internalType": "uint256",
          "name": "",
          "type": "uint256"
        }
      ],
      "stateMutability": "view",
      "type": "function"
    },
    {
      "inputs": [
        {
          "internalType": "address",
          "name": "pool",
          "type": "address"
        }
      ],
      "name": "getPoolMevTaxMultiplier",
      "outputs": [
        {
          "internalType": "uint256",
          "name": "",
          "type": "uint256"
        }
      ],
      "stateMutability": "view",
      "type": "function"
    },
    {
      "inputs": [
        {
          "internalType": "address",
          "name": "pool",
          "type": "address"
        }
      ],
      "name": "getPoolMevTaxThreshold",
      "outputs": [
        {
          "internalType": "uint256",
          "name": "",
          "type": "uint256"
        }
      ],
      "stateMutability": "view",
      "type": "function"
    },
    {
      "inputs": [],
      "name": "getVault",
      "outputs": [
        {
          "internalType": "contract IVault",
          "name": "",
          "type": "address"
        }
      ],
      "stateMutability": "view",
      "type": "function"
    },
    {
      "inputs": [],
      "name": "isMevTaxEnabled",
      "outputs": [
        {
          "internalType": "bool",
          "name": "",
          "type": "bool"
        }
      ],
      "stateMutability": "view",
      "type": "function"
    },
    {
      "inputs": [
        {
          "internalType": "address",
          "name": "sender",
          "type": "address"
        }
      ],
      "name": "isMevTaxExemptSender",
      "outputs": [
        {
          "internalType": "bool",
          "name": "",
          "type": "bool"
        }
      ],
      "stateMutability": "view",
      "type": "function"
    },
    {
      "inputs": [
        {
          "internalType": "address",
          "name": "",
          "type": "address"
        },
        {
          "internalType": "address",
          "name": "",
          "type": "address"
        },
        {
          "internalType": "enum AddLiquidityKind",
          "name": "",
          "type": "uint8"
        },
        {
          "internalType": "uint256[]",
          "name": "",
          "type": "uint256[]"
        },
        {
          "internalType": "uint256[]",
          "name": "amountsInRaw",
          "type": "uint256[]"
        },
        {
          "internalType": "uint256",
          "name": "",
          "type": "uint256"
        },
        {
          "internalType": "uint256[]",
          "name": "",
          "type": "uint256[]"
        },
        {
          "internalType": "bytes",
          "name": "",
          "type": "bytes"
        }
      ],
      "name": "onAfterAddLiquidity",
      "outputs": [
        {
          "internalType": "bool",
          "name": "",
          "type": "bool"
        },
        {
          "internalType": "uint256[]",
          "name": "",
          "type": "uint256[]"
        }
      ],
      "stateMutability": "nonpayable",
      "type": "function"
    },
    {
      "inputs": [
        {
          "internalType": "uint256[]",
          "name": "",
          "type": "uint256[]"
        },
        {
          "internalType": "uint256",
          "name": "",
          "type": "uint256"
        },
        {
          "internalType": "bytes",
          "name": "",
          "type": "bytes"
        }
      ],
      "name": "onAfterInitialize",
      "outputs": [
        {
          "internalType": "bool",
          "name": "",
          "type": "bool"
        }
      ],
      "stateMutability": "nonpayable",
      "type": "function"
    },
    {
      "inputs": [
        {
          "internalType": "address",
          "name": "",
          "type": "address"
        },
        {
          "internalType": "address",
          "name": "",
          "type": "address"
        },
        {
          "internalType": "enum RemoveLiquidityKind",
          "name": "",
          "type": "uint8"
        },
        {
          "internalType": "uint256",
          "name": "",
          "type": "uint256"
        },
        {
          "internalType": "uint256[]",
          "name": "",
          "type": "uint256[]"
        },
        {
          "internalType": "uint256[]",
          "name": "amountsOutRaw",
          "type": "uint256[]"
        },
        {
          "internalType": "uint256[]",
          "name": "",
          "type": "uint256[]"
        },
        {
          "internalType": "bytes",
          "name": "",
          "type": "bytes"
        }
      ],
      "name": "onAfterRemoveLiquidity",
      "outputs": [
        {
          "internalType": "bool",
          "name": "",
          "type": "bool"
        },
        {
          "internalType": "uint256[]",
          "name": "",
          "type": "uint256[]"
        }
      ],
      "stateMutability": "nonpayable",
      "type": "function"
    },
    {
      "inputs": [
        {
          "components": [
            {
              "internalType": "enum SwapKind",
              "name": "kind",
              "type": "uint8"
            },
            {
              "internalType": "contract IERC20",
              "name": "tokenIn",
              "type": "address"
            },
            {
              "internalType": "contract IERC20",
              "name": "tokenOut",
              "type": "address"
            },
            {
              "internalType": "uint256",
              "name": "amountInScaled18",
              "type": "uint256"
            },
            {
              "internalType": "uint256",
              "name": "amountOutScaled18",
              "type": "uint256"
            },
            {
              "internalType": "uint256",
              "name": "tokenInBalanceScaled18",
              "type": "uint256"
            },
            {
              "internalType": "uint256",
              "name": "tokenOutBalanceScaled18",
              "type": "uint256"
            },
            {
              "internalType": "uint256",
              "name": "amountCalculatedScaled18",
              "type": "uint256"
            },
            {
              "internalType": "uint256",
              "name": "amountCalculatedRaw",
              "type": "uint256"
            },
            {
              "internalType": "address",
              "name": "router",
              "type": "address"
            },
            {
              "internalType": "address",
              "name": "pool",
              "type": "address"
            },
            {
              "internalType": "bytes",
              "name": "userData",
              "type": "bytes"
            }
          ],
          "internalType": "struct AfterSwapParams",
          "name": "",
          "type": "tuple"
        }
      ],
      "name": "onAfterSwap",
      "outputs": [
        {
          "internalType": "bool",
          "name": "",
          "type": "bool"
        },
        {
          "internalType": "uint256",
          "name": "",
          "type": "uint256"
        }
      ],
      "stateMutability": "nonpayable",
      "type": "function"
    },
    {
      "inputs": [
        {
          "internalType": "address",
          "name": "",
          "type": "address"
        },
        {
          "internalType": "address",
          "name": "pool",
          "type": "address"
        },
        {
          "internalType": "enum AddLiquidityKind",
          "name": "kind",
          "type": "uint8"
        },
        {
          "internalType": "uint256[]",
          "name": "",
          "type": "uint256[]"
        },
        {
          "internalType": "uint256",
          "name": "",
          "type": "uint256"
        },
        {
          "internalType": "uint256[]",
          "name": "",
          "type": "uint256[]"
        },
        {
          "internalType": "bytes",
          "name": "",
          "type": "bytes"
        }
      ],
      "name": "onBeforeAddLiquidity",
      "outputs": [
        {
          "internalType": "bool",
          "name": "success",
          "type": "bool"
        }
      ],
      "stateMutability": "view",
      "type": "function"
    },
    {
      "inputs": [
        {
          "internalType": "uint256[]",
          "name": "",
          "type": "uint256[]"
        },
        {
          "internalType": "bytes",
          "name": "",
          "type": "bytes"
        }
      ],
      "name": "onBeforeInitialize",
      "outputs": [
        {
          "internalType": "bool",
          "name": "",
          "type": "bool"
        }
      ],
      "stateMutability": "nonpayable",
      "type": "function"
    },
    {
      "inputs": [
        {
          "internalType": "address",
          "name": "",
          "type": "address"
        },
        {
          "internalType": "address",
          "name": "pool",
          "type": "address"
        },
        {
          "internalType": "enum RemoveLiquidityKind",
          "name": "kind",
          "type": "uint8"
        },
        {
          "internalType": "uint256",
          "name": "",
          "type": "uint256"
        },
        {
          "internalType": "uint256[]",
          "name": "",
          "type": "uint256[]"
        },
        {
          "internalType": "uint256[]",
          "name": "",
          "type": "uint256[]"
        },
        {
          "internalType": "bytes",
          "name": "",
          "type": "bytes"
        }
      ],
      "name": "onBeforeRemoveLiquidity",
      "outputs": [
        {
          "internalType": "bool",
          "name": "success",
          "type": "bool"
        }
      ],
      "stateMutability": "view",
      "type": "function"
    },
    {
      "inputs": [
        {
          "components": [
            {
              "internalType": "enum SwapKind",
              "name": "kind",
              "type": "uint8"
            },
            {
              "internalType": "uint256",
              "name": "amountGivenScaled18",
              "type": "uint256"
            },
            {
              "internalType": "uint256[]",
              "name": "balancesScaled18",
              "type": "uint256[]"
            },
            {
              "internalType": "uint256",
              "name": "indexIn",
              "type": "uint256"
            },
            {
              "internalType": "uint256",
              "name": "indexOut",
              "type": "uint256"
            },
            {
              "internalType": "address",
              "name": "router",
              "type": "address"
            },
            {
              "internalType": "bytes",
              "name": "userData",
              "type": "bytes"
            }
          ],
          "internalType": "struct PoolSwapParams",
          "name": "",
          "type": "tuple"
        },
        {
          "internalType": "address",
          "name": "",
          "type": "address"
        }
      ],
      "name": "onBeforeSwap",
      "outputs": [
        {
          "internalType": "bool",
          "name": "",
          "type": "bool"
        }
      ],
      "stateMutability": "nonpayable",
      "type": "function"
    },
    {
      "inputs": [
        {
          "components": [
            {
              "internalType": "enum SwapKind",
              "name": "kind",
              "type": "uint8"
            },
            {
              "internalType": "uint256",
              "name": "amountGivenScaled18",
              "type": "uint256"
            },
            {
              "internalType": "uint256[]",
              "name": "balancesScaled18",
              "type": "uint256[]"
            },
            {
              "internalType": "uint256",
              "name": "indexIn",
              "type": "uint256"
            },
            {
              "internalType": "uint256",
              "name": "indexOut",
              "type": "uint256"
            },
            {
              "internalType": "address",
              "name": "router",
              "type": "address"
            },
            {
              "internalType": "bytes",
              "name": "userData",
              "type": "bytes"
            }
          ],
          "internalType": "struct PoolSwapParams",
          "name": "params",
          "type": "tuple"
        },
        {
          "internalType": "address",
          "name": "pool",
          "type": "address"
        },
        {
          "internalType": "uint256",
          "name": "staticSwapFeePercentage",
          "type": "uint256"
        }
      ],
      "name": "onComputeDynamicSwapFeePercentage",
      "outputs": [
        {
          "internalType": "bool",
          "name": "",
          "type": "bool"
        },
        {
          "internalType": "uint256",
          "name": "",
          "type": "uint256"
        }
      ],
      "stateMutability": "view",
      "type": "function"
    },
    {
      "inputs": [
        {
          "internalType": "address",
          "name": "",
          "type": "address"
        },
        {
          "internalType": "address",
          "name": "pool",
          "type": "address"
        },
        {
          "components": [
            {
              "internalType": "contract IERC20",
              "name": "token",
              "type": "address"
            },
            {
              "internalType": "enum TokenType",
              "name": "tokenType",
              "type": "uint8"
            },
            {
              "internalType": "contract IRateProvider",
              "name": "rateProvider",
              "type": "address"
            },
            {
              "internalType": "bool",
              "name": "paysYieldFees",
              "type": "bool"
            }
          ],
          "internalType": "struct TokenConfig[]",
          "name": "",
          "type": "tuple[]"
        },
        {
          "components": [
            {
              "internalType": "bool",
              "name": "disableUnbalancedLiquidity",
              "type": "bool"
            },
            {
              "internalType": "bool",
              "name": "enableAddLiquidityCustom",
              "type": "bool"
            },
            {
              "internalType": "bool",
              "name": "enableRemoveLiquidityCustom",
              "type": "bool"
            },
            {
              "internalType": "bool",
              "name": "enableDonation",
              "type": "bool"
            }
          ],
          "internalType": "struct LiquidityManagement",
          "name": "",
          "type": "tuple"
        }
      ],
      "name": "onRegister",
      "outputs": [
        {
          "internalType": "bool",
          "name": "",
          "type": "bool"
        }
      ],
      "stateMutability": "nonpayable",
      "type": "function"
    },
    {
      "inputs": [
        {
          "internalType": "address[]",
          "name": "senders",
          "type": "address[]"
        }
      ],
      "name": "removeMevTaxExemptSenders",
      "outputs": [],
      "stateMutability": "nonpayable",
      "type": "function"
    },
    {
      "inputs": [
        {
          "internalType": "uint256",
          "name": "newDefaultMevTaxMultiplier",
          "type": "uint256"
        }
      ],
      "name": "setDefaultMevTaxMultiplier",
      "outputs": [],
      "stateMutability": "nonpayable",
      "type": "function"
    },
    {
      "inputs": [
        {
          "internalType": "uint256",
          "name": "newDefaultMevTaxThreshold",
          "type": "uint256"
        }
      ],
      "name": "setDefaultMevTaxThreshold",
      "outputs": [],
      "stateMutability": "nonpayable",
      "type": "function"
    },
    {
      "inputs": [
        {
          "internalType": "uint256",
          "name": "maxMevSwapFeePercentage",
          "type": "uint256"
        }
      ],
      "name": "setMaxMevSwapFeePercentage",
      "outputs": [],
      "stateMutability": "nonpayable",
      "type": "function"
    },
    {
      "inputs": [
        {
          "internalType": "address",
          "name": "pool",
          "type": "address"
        },
        {
          "internalType": "uint256",
          "name": "newPoolMevTaxMultiplier",
          "type": "uint256"
        }
      ],
      "name": "setPoolMevTaxMultiplier",
      "outputs": [],
      "stateMutability": "nonpayable",
      "type": "function"
    },
    {
      "inputs": [
        {
          "internalType": "address",
          "name": "pool",
          "type": "address"
        },
        {
          "internalType": "uint256",
          "name": "newPoolMevTaxThreshold",
          "type": "uint256"
        }
      ],
      "name": "setPoolMevTaxThreshold",
      "outputs": [],
      "stateMutability": "nonpayable",
      "type": "function"
    }
  ],
  "bytecode": "0x610100604090808252346102035760808161207a80380380916100228285610218565b8339810103126102035780516001600160a01b0390818116810361020357602091828401519081169081810361020357602491849160608888015197015194306080528060a05260c05260e05286519283809263013274bf60e51b82525f60048301525afa90811561020e575f916101d4575b506101c557817fab04e788572c89101fd68f2d1e18084f3116ce893d04f941b6b0a2728c3eef75917f9bf787e2aefecf377c7a9d187bf4a25477b7bf79e1e5e12b2cdf5d6920725ce2827fdebbe20e15c981690db2afeed0eaafd8c8b77ea80503b0dbda6ba059a0bb67e096600160ff195f5416175f557f53525c548bd046e97a02f1d25bcc45701433dd7f01925c0618b36d1859681abe828a5160018152a1806002558851908152a1806001558551908152a1670de0b5cad2bef000806003558351908152a151611e2a9081610250823960805181611736015260a0518181816103dd015281816105fe01528181610b5c01526119e2015260c05181818161036a0152818161058b01528181610dfc015281816110410152611180015260e05181818161022e015261184f0152f35b635c84f39b60e01b5f5260045ffd5b90508281813d8311610207575b6101eb8183610218565b8101031261020357518015158103610203575f610095565b5f80fd5b503d6101e1565b85513d5f823e3d90fd5b601f909101601f19168101906001600160401b0382119082101761023b57604052565b634e487b7160e01b5f52604160045260245ffdfe604060808152600480361015610013575f80fd5b60e05f35811c908163042cd514146112a45781630b89f182146110b4578163166f1aad14610fd657816318b6eb5514610f975781631c149e2814610f4c57816325e5231914610f2e5781632754888d14610ec557816338be241d14610e795781633a76026214610d9157816345421ec714610d055781635211fa7714610cc657816362c6d3d314610ca857816362f57cd814610c3a578163851c1bb314610bea5781638c55613e14610b805781638d928af814610b305781638dd6e09814610b0e578163976907cc14610a625781639b1579191461097a5781639f64fd6314610891578163a0e8f5ac1461083b578163a4e5de3c146107ee578163aaabadc5146107b5578163b20541c61461076d578163ba5f9f40146106d9578163bcc6951b146106bb578163c4407f1f1461051e578163d403a47d146102fd578163d77153a71461025257508063deb27a7a146102025763e289e38014610173575f80fd5b346101fe5760206003193601126101fe5780359061018f611b3c565b670de0b5cad2bef000908183116101d0577fdebbe20e15c981690db2afeed0eaafd8c8b77ea80503b0dbda6ba059a0bb67e0602084868160035551908152a1005b82907f20fb3f00000000000000000000000000000000000000000000000000000000005f525260245260445ffd5b5f80fd5b82346101fe575f6003193601126101fe576020905173ffffffffffffffffffffffffffffffffffffffff7f0000000000000000000000000000000000000000000000000000000000000000168152f35b83346101fe575f6003193601126101fe576101409161026f611ae0565b50610278611ae0565b90606082016001815260c08301916001835261010092838501926001845286519686511515885260208701511515602089015280870151151590880152511515606087015260808501511515608087015260a0850151151560a087015251151560c0860152808401511515908501525115159083015261012080910151151590820152f35b5050346101fe57816003193601126101fe576103176112f1565b6024359173ffffffffffffffffffffffffffffffffffffffff8451917fce8630d40000000000000000000000000000000000000000000000000000000083528184169283828201526101608082602481877f0000000000000000000000000000000000000000000000000000000000000000165afa8015610514578492610140925f926104e7575b505001511630036104bc57828651917fe9ddeb26000000000000000000000000000000000000000000000000000000008352820152606081602481857f0000000000000000000000000000000000000000000000000000000000000000165afa9081156104b2577ff7f1a750162ea954c7d18a19baa6b79aa1428f8dc433bb39d22da648efb601369692602061047e9593610445935f91610483575b5001511685611d01565b5f52600660205283815f205551928392836020909392919373ffffffffffffffffffffffffffffffffffffffff60408201951681520152565b0390a1005b6104a5915060603d6060116104ab575b61049d8183611337565b810190611a87565b5f61043b565b503d610493565b86513d5f823e3d90fd5b90507f7501acd8000000000000000000000000000000000000000000000000000000005f525260245ffd5b6105069250803d1061050d575b6104fe8183611337565b81019061159c565b5f8061039f565b503d6104f4565b88513d5f823e3d90fd5b5050346101fe57816003193601126101fe576105386112f1565b6024359173ffffffffffffffffffffffffffffffffffffffff8451917fce8630d40000000000000000000000000000000000000000000000000000000083528184169283828201526101608082602481877f0000000000000000000000000000000000000000000000000000000000000000165afa8015610514578492610140925f9261069e575b505001511630036104bc57828651917fe9ddeb26000000000000000000000000000000000000000000000000000000008352820152606081602481857f0000000000000000000000000000000000000000000000000000000000000000165afa9081156104b2577f907112dd6d17a8468828c40efc60143bdd909e18011cac76b8e296222b3d594f9692602061047e9593610665935f91610483575001511685611d01565b5f52600560205283815f205551928392836020909392919373ffffffffffffffffffffffffffffffffffffffff60408201951681520152565b6106b49250803d1061050d576104fe8183611337565b5f806105c0565b83346101fe575f6003193601126101fe576020906001549051908152f35b839150346101fe576003193601126101fe576106f36112f1565b506106fc611314565b91604435818110156101fe5767ffffffffffffffff936084358581116101fe5761072990369085016113bd565b5060a4358581116101fe5761074190369085016113bd565b5060c4359485116101fe5761075e6107649360209636910161141d565b50611a5b565b90519015158152f35b8284346101fe5760206003193601126101fe5760209173ffffffffffffffffffffffffffffffffffffffff6107a06112f1565b165f52825260ff815f20541690519015158152f35b83346101fe575f6003193601126101fe5760209073ffffffffffffffffffffffffffffffffffffffff6107e661199f565b915191168152f35b5050346101fe5760206003193601126101fe577fab04e788572c89101fd68f2d1e18084f3116ce893d04f941b6b0a2728c3eef75916020913590610830611b3c565b8160015551908152a1005b919050346101fe57600319916060833601126101fe5781359267ffffffffffffffff84116101fe5783360301126101fe5761088391610878611314565b9060443592016117e3565b825191151582526020820152f35b5050346101fe576108a1366114d1565b906108aa611b3c565b8151915f5b8381106108b857005b73ffffffffffffffffffffffffffffffffffffffff6108d78284611781565b5116805f5260209084825260ff875f2054166109505760019291817fbdf65067094f886eb7cdc0306e2305d7978636a08c7c473b76883f6144fb2129925f52868252885f20857fffffffffffffffffffffffffffffffffffffffffffffffffffffffffffffff008254161790558851908152a1016108af565b847f106fa5a4000000000000000000000000000000000000000000000000000000005f525260245ffd5b5050346101fe5761098a366114d1565b90610993611b3c565b8151915f5b8381106109a157005b73ffffffffffffffffffffffffffffffffffffffff6109c08284611781565b5116805f5260209084825260ff875f20541615610a385760019291817fa6c039d6f5be3cc83645e895e73091c938efd27001eace48704833c45b6c994c925f52868252885f207fffffffffffffffffffffffffffffffffffffffffffffffffffffffffffffff0081541690558851908152a101610998565b847f01147f3f000000000000000000000000000000000000000000000000000000005f525260245ffd5b8284346101fe576101006003193601126101fe57610a7e6112f1565b50610a87611314565b50600560443510156101fe5767ffffffffffffffff906064358281116101fe57610ab490369085016113bd565b506084358281116101fe57610acc90369085016113bd565b9160c4358181116101fe57610ae490369086016113bd565b5060e4359081116101fe57610b0a93610aff9136910161141d565b505191829182611491565b0390f35b83346101fe575f6003193601126101fe5760209060ff5f541690519015158152f35b83346101fe575f6003193601126101fe576020905173ffffffffffffffffffffffffffffffffffffffff7f0000000000000000000000000000000000000000000000000000000000000000168152f35b83346101fe575f6003193601126101fe5760207f53525c548bd046e97a02f1d25bcc45701433dd7f01925c0618b36d1859681abe91610bbd611b3c565b7fffffffffffffffffffffffffffffffffffffffffffffffffffffffffffffff005f54165f55515f8152a1005b5050346101fe5760206003193601126101fe5735907fffffffff00000000000000000000000000000000000000000000000000000000821682036101fe57610c3360209261170b565b9051908152f35b83346101fe575f6003193601126101fe5760207f53525c548bd046e97a02f1d25bcc45701433dd7f01925c0618b36d1859681abe91610c77611b3c565b60017fffffffffffffffffffffffffffffffffffffffffffffffffffffffffffffff005f5416175f555160018152a1005b83346101fe575f6003193601126101fe576020906003549051908152f35b919050346101fe576003199083823601126101fe573567ffffffffffffffff81116101fe57360301126101fe57602090610cfe611314565b50515f8152f35b839150346101fe576003193601126101fe57610d1f6112f1565b50610d28611314565b9160443560058110156101fe5767ffffffffffffffff936064358581116101fe57610d5690369085016113bd565b5060a4358581116101fe57610d6e90369085016113bd565b5060c4359485116101fe57610d8b6107649360209636910161141d565b50611681565b8284346101fe5760206003193601126101fe57610dac6112f1565b9173ffffffffffffffffffffffffffffffffffffffff808351947fce8630d400000000000000000000000000000000000000000000000000000000865216938483820152610160908181602481867f0000000000000000000000000000000000000000000000000000000000000000165afa918215610e6f579061014092915f92610e52575b505001511630036104bc57506020915f5260068252805f20549051908152f35b610e689250803d1061050d576104fe8183611337565b8680610e32565b85513d5f823e3d90fd5b8284346101fe5760606003193601126101fe5767ffffffffffffffff82358181116101fe57610eab90369085016113bd565b506044359081116101fe57602092610cfe9136910161141d565b8284346101fe576101006003193601126101fe57610ee16112f1565b50610eea611314565b508160443510156101fe5767ffffffffffffffff906084358281116101fe57610f1690369085016113bd565b5060a4358281116101fe57610acc90369085016113bd565b83346101fe575f6003193601126101fe576020906002549051908152f35b8284346101fe57806003193601126101fe5767ffffffffffffffff82358181116101fe57610f7d90369085016113bd565b506024359081116101fe57602092610cfe9136910161141d565b5050346101fe57600319906020823601126101fe57359067ffffffffffffffff82116101fe5761018091360301126101fe5780515f81525f6020820152f35b8284346101fe5760206003193601126101fe57610ff16112f1565b9173ffffffffffffffffffffffffffffffffffffffff808351947fce8630d400000000000000000000000000000000000000000000000000000000865216938483820152610160908181602481867f0000000000000000000000000000000000000000000000000000000000000000165afa918215610e6f579061014092915f92611097575b505001511630036104bc57506020915f5260058252805f20549051908152f35b6110ad9250803d1061050d576104fe8183611337565b8680611077565b839150346101fe576003193601126101fe576110ce6112f1565b506110d7611314565b67ffffffffffffffff926044358481116101fe57366023820112156101fe5780820135602495611106826113a5565b9661111387519889611337565b828852602460208099019360071b850101933685116101fe57602401925b8484106111f357505050505060807fffffffffffffffffffffffffffffffffffffffffffffffffffffffffffffff9c3601126101fe5773ffffffffffffffffffffffffffffffffffffffff90817f00000000000000000000000000000000000000000000000000000000000000001633036111c8575060025491165f5260068352815f205560015460058352815f20555160018152f35b7f089676d5000000000000000000000000000000000000000000000000000000005f5233905260245ffd5b60809081853603126101fe5788519182018281108582111761127957895273ffffffffffffffffffffffffffffffffffffffff853581811681036101fe5783528a86013560028110156101fe578b8401528986013590811681036101fe5789830152606090818601359283151584036101fe576080938c93820152815201930192611131565b836041897f4e487b71000000000000000000000000000000000000000000000000000000005f52525ffd5b5050346101fe5760206003193601126101fe577f9bf787e2aefecf377c7a9d187bf4a25477b7bf79e1e5e12b2cdf5d6920725ce29160209135906112e6611b3c565b8160025551908152a1005b6004359073ffffffffffffffffffffffffffffffffffffffff821682036101fe57565b6024359073ffffffffffffffffffffffffffffffffffffffff821682036101fe57565b90601f7fffffffffffffffffffffffffffffffffffffffffffffffffffffffffffffffe0910116810190811067ffffffffffffffff82111761137857604052565b7f4e487b71000000000000000000000000000000000000000000000000000000005f52604160045260245ffd5b67ffffffffffffffff81116113785760051b60200190565b9080601f830112156101fe5760209082356113d7816113a5565b936113e56040519586611337565b81855260208086019260051b8201019283116101fe57602001905b82821061140e575050505090565b81358152908301908301611400565b81601f820112156101fe5780359067ffffffffffffffff8211611378576040519261147060207fffffffffffffffffffffffffffffffffffffffffffffffffffffffffffffffe0601f8601160185611337565b828452602083830101116101fe57815f926020809301838601378301015290565b604081015f82526020606081936040838201528551809452019301915f5b8281106114bd575050505090565b8351855293810193928101926001016114af565b6020806003198301126101fe576004359167ffffffffffffffff83116101fe57806023840112156101fe57826004013561150a816113a5565b936115186040519586611337565b8185526024602086019260051b8201019283116101fe57602401905b828210611542575050505090565b813573ffffffffffffffffffffffffffffffffffffffff811681036101fe578152908301908301611534565b519081151582036101fe57565b519073ffffffffffffffffffffffffffffffffffffffff821682036101fe57565b809161016092839103126101fe5760405191820182811067ffffffffffffffff821117611378576040526115cf8161156e565b82526115dd6020820161156e565b60208301526115ee6040820161156e565b60408301526115ff6060820161156e565b60608301526116106080820161156e565b608083015261162160a0820161156e565b60a083015261163260c0820161156e565b60c083015261164360e0820161156e565b60e083015261010061165681830161156e565b9083015261012061166881830161156e565b9083015261167a61014080920161157b565b9082015290565b9060ff5f54161561170457611696483a611c54565b9060058110156116d757159182156116ad57505090565b73ffffffffffffffffffffffffffffffffffffffff919250165f52600560205260405f2054101590565b7f4e487b71000000000000000000000000000000000000000000000000000000005f52602160045260245ffd5b5050600190565b6040517fffffffff0000000000000000000000000000000000000000000000000000000060208201927f00000000000000000000000000000000000000000000000000000000000000008452166040820152602481526060810181811067ffffffffffffffff8211176113785760405251902090565b80518210156117955760209160051b010190565b7f4e487b71000000000000000000000000000000000000000000000000000000005f52603260045260245ffd5b3573ffffffffffffffffffffffffffffffffffffffff811681036101fe5790565b9291909260ff5f5416156119975760a073ffffffffffffffffffffffffffffffffffffffff9101611813816117c2565b91604091818351947f264e97e00000000000000000000000000000000000000000000000000000000086521660048501526020938481602481867f0000000000000000000000000000000000000000000000000000000000000000165afa90811561198d575f91611958575b506118a8575b506118a39495165f52600682526005815f205492525f205491611c8e565b600191565b83826118b56004936117c2565b168451928380927f5e01eb5a0000000000000000000000000000000000000000000000000000000082525afa90811561194e579082915f91611916575b50165f526004835260ff825f20541661190b575f611885565b505050915060019190565b809250858092503d8311611947575b61192f8183611337565b810103126101fe57611941829161157b565b5f6118f2565b503d611925565b83513d5f823e3d90fd5b90508481813d8311611986575b61196f8183611337565b810103126101fe576119809061156e565b5f61187f565b503d611965565b84513d5f823e3d90fd5b506001925090565b6040517faaabadc500000000000000000000000000000000000000000000000000000000815273ffffffffffffffffffffffffffffffffffffffff6020826004817f000000000000000000000000000000000000000000000000000000000000000085165afa918215611a50575f92611a1757505090565b9091506020813d602011611a48575b81611a3360209383611337565b810103126101fe575190811681036101fe5790565b3d9150611a26565b6040513d5f823e3d90fd5b9060ff5f54161561170457611a70483a611c54565b9060048110156116d757159182156116ad57505090565b908160609103126101fe57604051906060820182811067ffffffffffffffff82111761137857611ad8916040918252611abf8161157b565b8452611acd6020820161157b565b60208501520161157b565b604082015290565b60405190610140820182811067ffffffffffffffff821117611378576040525f610120838281528260208201528260408201528260608201528260808201528260a08201528260c08201528260e0820152826101008201520152565b611bd86020611b6d7fffffffff000000000000000000000000000000000000000000000000000000005f351661170b565b73ffffffffffffffffffffffffffffffffffffffff611b8a61199f565b6040517f9be2a8840000000000000000000000000000000000000000000000000000000081526004810193909352336024840152306044840152919384929190911690829081906064820190565b03915afa908115611a50575f91611c1a575b5015611bf257565b7f23dada53000000000000000000000000000000000000000000000000000000005f5260045ffd5b90506020813d602011611c4c575b81611c3560209383611337565b810103126101fe57611c469061156e565b5f611bea565b3d9150611c28565b91908203918211611c6157565b7f4e487b71000000000000000000000000000000000000000000000000000000005f52601160045260245ffd5b91611c99483a611c54565b9160035492828111801590611cf7575b611cf057611cbf92611cba91611c54565b611dcb565b9015611cea57670de0b6b3a764000090048201809211611c615780821015611ce5575090565b905090565b50905090565b5050505090565b5084841115611ca9565b9073ffffffffffffffffffffffffffffffffffffffff90811680611dc05750611bd891602091611d537fffffffff000000000000000000000000000000000000000000000000000000005f351661170b565b90611d5c61199f565b16906040518095819482937f9be2a8840000000000000000000000000000000000000000000000000000000084523390600485019160409194936060840195845273ffffffffffffffffffffffffffffffffffffffff809216602085015216910152565b9150503303611bf257565b91908215611deb5780830292830403611de45760019190565b5f91508190565b50600191505f9056fea26469706673582212208f6f5a1b5187e2d97f7dcc46cd0aafaa3233ff1ca81185a2011b38a6eecd3c0064736f6c634300081b0033",
  "linkReferences": {},
  "deployedLinkReferences": {}
}