{
  "_format": "hh-sol-artifact-1",
  "contractName": "MevCaptureHook",
  "sourceName": "contracts/MevCaptureHook.sol",
  "abi": [
    {
      "inputs": [
        {
          "internalType": "contract IVault",
          "name": "vault",
          "type": "address"
        },
        {
          "internalType": "contract IBalancerContractRegistry",
          "name": "registry",
          "type": "address"
        }
      ],
      "stateMutability": "nonpayable",
      "type": "constructor"
    },
    {
      "inputs": [],
      "name": "InvalidBalancerContractRegistry",
      "type": "error"
    },
    {
      "inputs": [
        {
          "internalType": "address",
          "name": "pool",
          "type": "address"
        }
      ],
      "name": "MevCaptureHookNotRegisteredInPool",
      "type": "error"
    },
    {
      "inputs": [
        {
          "internalType": "uint256",
          "name": "feePercentage",
          "type": "uint256"
        },
        {
          "internalType": "uint256",
          "name": "maxFeePercentage",
          "type": "uint256"
        }
      ],
      "name": "MevSwapFeePercentageAboveMax",
      "type": "error"
    },
    {
      "inputs": [
        {
          "internalType": "address",
          "name": "sender",
          "type": "address"
        }
      ],
      "name": "MevTaxExemptSenderAlreadyAdded",
      "type": "error"
    },
    {
      "inputs": [
        {
          "internalType": "address",
          "name": "sender",
          "type": "address"
        }
      ],
      "name": "SenderIsNotVault",
      "type": "error"
    },
    {
      "inputs": [],
      "name": "SenderNotAllowed",
      "type": "error"
    },
    {
      "inputs": [
        {
          "internalType": "address",
          "name": "sender",
          "type": "address"
        }
      ],
      "name": "SenderNotRegisteredAsMevTaxExempt",
      "type": "error"
    },
    {
      "anonymous": false,
      "inputs": [
        {
          "indexed": false,
          "internalType": "uint256",
          "name": "newDefaultMevTaxMultiplier",
          "type": "uint256"
        }
      ],
      "name": "DefaultMevTaxMultiplierSet",
      "type": "event"
    },
    {
      "anonymous": false,
      "inputs": [
        {
          "indexed": false,
          "internalType": "uint256",
          "name": "newDefaultMevTaxThreshold",
          "type": "uint256"
        }
      ],
      "name": "DefaultMevTaxThresholdSet",
      "type": "event"
    },
    {
      "anonymous": false,
      "inputs": [
        {
          "indexed": false,
          "internalType": "uint256",
          "name": "maxMevSwapFeePercentage",
          "type": "uint256"
        }
      ],
      "name": "MaxMevSwapFeePercentageSet",
      "type": "event"
    },
    {
      "anonymous": false,
      "inputs": [
        {
          "indexed": false,
          "internalType": "bool",
          "name": "enabled",
          "type": "bool"
        }
      ],
      "name": "MevTaxEnabledSet",
      "type": "event"
    },
    {
      "anonymous": false,
      "inputs": [
        {
          "indexed": false,
          "internalType": "address",
          "name": "sender",
          "type": "address"
        }
      ],
      "name": "MevTaxExemptSenderAdded",
      "type": "event"
    },
    {
      "anonymous": false,
      "inputs": [
        {
          "indexed": false,
          "internalType": "address",
          "name": "sender",
          "type": "address"
        }
      ],
      "name": "MevTaxExemptSenderRemoved",
      "type": "event"
    },
    {
      "anonymous": false,
      "inputs": [
        {
          "indexed": false,
          "internalType": "address",
          "name": "pool",
          "type": "address"
        },
        {
          "indexed": false,
          "internalType": "uint256",
          "name": "newPoolMevTaxMultiplier",
          "type": "uint256"
        }
      ],
      "name": "PoolMevTaxMultiplierSet",
      "type": "event"
    },
    {
      "anonymous": false,
      "inputs": [
        {
          "indexed": false,
          "internalType": "address",
          "name": "pool",
          "type": "address"
        },
        {
          "indexed": false,
          "internalType": "uint256",
          "name": "newPoolMevTaxThreshold",
          "type": "uint256"
        }
      ],
      "name": "PoolMevTaxThresholdSet",
      "type": "event"
    },
    {
      "inputs": [
        {
          "internalType": "address[]",
          "name": "senders",
          "type": "address[]"
        }
      ],
      "name": "addMevTaxExemptSenders",
      "outputs": [],
      "stateMutability": "nonpayable",
      "type": "function"
    },
    {
      "inputs": [],
      "name": "disableMevTax",
      "outputs": [],
      "stateMutability": "nonpayable",
      "type": "function"
    },
    {
      "inputs": [],
      "name": "enableMevTax",
      "outputs": [],
      "stateMutability": "nonpayable",
      "type": "function"
    },
    {
      "inputs": [
        {
          "internalType": "bytes4",
          "name": "selector",
          "type": "bytes4"
        }
      ],
      "name": "getActionId",
      "outputs": [
        {
          "internalType": "bytes32",
          "name": "",
          "type": "bytes32"
        }
      ],
      "stateMutability": "view",
      "type": "function"
    },
    {
      "inputs": [],
      "name": "getAuthorizer",
      "outputs": [
        {
          "internalType": "contract IAuthorizer",
          "name": "",
          "type": "address"
        }
      ],
      "stateMutability": "view",
      "type": "function"
    },
    {
      "inputs": [],
      "name": "getBalancerContractRegistry",
      "outputs": [
        {
          "internalType": "contract IBalancerContractRegistry",
          "name": "",
          "type": "address"
        }
      ],
      "stateMutability": "view",
      "type": "function"
    },
    {
      "inputs": [],
      "name": "getDefaultMevTaxMultiplier",
      "outputs": [
        {
          "internalType": "uint256",
          "name": "",
          "type": "uint256"
        }
      ],
      "stateMutability": "view",
      "type": "function"
    },
    {
      "inputs": [],
      "name": "getDefaultMevTaxThreshold",
      "outputs": [
        {
          "internalType": "uint256",
          "name": "",
          "type": "uint256"
        }
      ],
      "stateMutability": "view",
      "type": "function"
    },
    {
      "inputs": [],
      "name": "getHookFlags",
      "outputs": [
        {
          "components": [
            {
              "internalType": "bool",
              "name": "enableHookAdjustedAmounts",
              "type": "bool"
            },
            {
              "internalType": "bool",
              "name": "shouldCallBeforeInitialize",
              "type": "bool"
            },
            {
              "internalType": "bool",
              "name": "shouldCallAfterInitialize",
              "type": "bool"
            },
            {
              "internalType": "bool",
              "name": "shouldCallComputeDynamicSwapFee",
              "type": "bool"
            },
            {
              "internalType": "bool",
              "name": "shouldCallBeforeSwap",
              "type": "bool"
            },
            {
              "internalType": "bool",
              "name": "shouldCallAfterSwap",
              "type": "bool"
            },
            {
              "internalType": "bool",
              "name": "shouldCallBeforeAddLiquidity",
              "type": "bool"
            },
            {
              "internalType": "bool",
              "name": "shouldCallAfterAddLiquidity",
              "type": "bool"
            },
            {
              "internalType": "bool",
              "name": "shouldCallBeforeRemoveLiquidity",
              "type": "bool"
            },
            {
              "internalType": "bool",
              "name": "shouldCallAfterRemoveLiquidity",
              "type": "bool"
            }
          ],
          "internalType": "struct HookFlags",
          "name": "",
          "type": "tuple"
        }
      ],
      "stateMutability": "pure",
      "type": "function"
    },
    {
      "inputs": [],
      "name": "getMaxMevSwapFeePercentage",
      "outputs": [
        {
          "internalType": "uint256",
          "name": "",
          "type": "uint256"
        }
      ],
      "stateMutability": "view",
      "type": "function"
    },
    {
      "inputs": [
        {
          "internalType": "address",
          "name": "pool",
          "type": "address"
        }
      ],
      "name": "getPoolMevTaxMultiplier",
      "outputs": [
        {
          "internalType": "uint256",
          "name": "",
          "type": "uint256"
        }
      ],
      "stateMutability": "view",
      "type": "function"
    },
    {
      "inputs": [
        {
          "internalType": "address",
          "name": "pool",
          "type": "address"
        }
      ],
      "name": "getPoolMevTaxThreshold",
      "outputs": [
        {
          "internalType": "uint256",
          "name": "",
          "type": "uint256"
        }
      ],
      "stateMutability": "view",
      "type": "function"
    },
    {
      "inputs": [],
      "name": "getVault",
      "outputs": [
        {
          "internalType": "contract IVault",
          "name": "",
          "type": "address"
        }
      ],
      "stateMutability": "view",
      "type": "function"
    },
    {
      "inputs": [],
      "name": "isMevTaxEnabled",
      "outputs": [
        {
          "internalType": "bool",
          "name": "",
          "type": "bool"
        }
      ],
      "stateMutability": "view",
      "type": "function"
    },
    {
      "inputs": [
        {
          "internalType": "address",
          "name": "sender",
          "type": "address"
        }
      ],
      "name": "isMevTaxExemptSender",
      "outputs": [
        {
          "internalType": "bool",
          "name": "",
          "type": "bool"
        }
      ],
      "stateMutability": "view",
      "type": "function"
    },
    {
      "inputs": [
        {
          "internalType": "address",
          "name": "",
          "type": "address"
        },
        {
          "internalType": "address",
          "name": "",
          "type": "address"
        },
        {
          "internalType": "enum AddLiquidityKind",
          "name": "",
          "type": "uint8"
        },
        {
          "internalType": "uint256[]",
          "name": "",
          "type": "uint256[]"
        },
        {
          "internalType": "uint256[]",
          "name": "amountsInRaw",
          "type": "uint256[]"
        },
        {
          "internalType": "uint256",
          "name": "",
          "type": "uint256"
        },
        {
          "internalType": "uint256[]",
          "name": "",
          "type": "uint256[]"
        },
        {
          "internalType": "bytes",
          "name": "",
          "type": "bytes"
        }
      ],
      "name": "onAfterAddLiquidity",
      "outputs": [
        {
          "internalType": "bool",
          "name": "",
          "type": "bool"
        },
        {
          "internalType": "uint256[]",
          "name": "",
          "type": "uint256[]"
        }
      ],
      "stateMutability": "nonpayable",
      "type": "function"
    },
    {
      "inputs": [
        {
          "internalType": "uint256[]",
          "name": "",
          "type": "uint256[]"
        },
        {
          "internalType": "uint256",
          "name": "",
          "type": "uint256"
        },
        {
          "internalType": "bytes",
          "name": "",
          "type": "bytes"
        }
      ],
      "name": "onAfterInitialize",
      "outputs": [
        {
          "internalType": "bool",
          "name": "",
          "type": "bool"
        }
      ],
      "stateMutability": "nonpayable",
      "type": "function"
    },
    {
      "inputs": [
        {
          "internalType": "address",
          "name": "",
          "type": "address"
        },
        {
          "internalType": "address",
          "name": "",
          "type": "address"
        },
        {
          "internalType": "enum RemoveLiquidityKind",
          "name": "",
          "type": "uint8"
        },
        {
          "internalType": "uint256",
          "name": "",
          "type": "uint256"
        },
        {
          "internalType": "uint256[]",
          "name": "",
          "type": "uint256[]"
        },
        {
          "internalType": "uint256[]",
          "name": "amountsOutRaw",
          "type": "uint256[]"
        },
        {
          "internalType": "uint256[]",
          "name": "",
          "type": "uint256[]"
        },
        {
          "internalType": "bytes",
          "name": "",
          "type": "bytes"
        }
      ],
      "name": "onAfterRemoveLiquidity",
      "outputs": [
        {
          "internalType": "bool",
          "name": "",
          "type": "bool"
        },
        {
          "internalType": "uint256[]",
          "name": "",
          "type": "uint256[]"
        }
      ],
      "stateMutability": "nonpayable",
      "type": "function"
    },
    {
      "inputs": [
        {
          "components": [
            {
              "internalType": "enum SwapKind",
              "name": "kind",
              "type": "uint8"
            },
            {
              "internalType": "contract IERC20",
              "name": "tokenIn",
              "type": "address"
            },
            {
              "internalType": "contract IERC20",
              "name": "tokenOut",
              "type": "address"
            },
            {
              "internalType": "uint256",
              "name": "amountInScaled18",
              "type": "uint256"
            },
            {
              "internalType": "uint256",
              "name": "amountOutScaled18",
              "type": "uint256"
            },
            {
              "internalType": "uint256",
              "name": "tokenInBalanceScaled18",
              "type": "uint256"
            },
            {
              "internalType": "uint256",
              "name": "tokenOutBalanceScaled18",
              "type": "uint256"
            },
            {
              "internalType": "uint256",
              "name": "amountCalculatedScaled18",
              "type": "uint256"
            },
            {
              "internalType": "uint256",
              "name": "amountCalculatedRaw",
              "type": "uint256"
            },
            {
              "internalType": "address",
              "name": "router",
              "type": "address"
            },
            {
              "internalType": "address",
              "name": "pool",
              "type": "address"
            },
            {
              "internalType": "bytes",
              "name": "userData",
              "type": "bytes"
            }
          ],
          "internalType": "struct AfterSwapParams",
          "name": "",
          "type": "tuple"
        }
      ],
      "name": "onAfterSwap",
      "outputs": [
        {
          "internalType": "bool",
          "name": "",
          "type": "bool"
        },
        {
          "internalType": "uint256",
          "name": "",
          "type": "uint256"
        }
      ],
      "stateMutability": "nonpayable",
      "type": "function"
    },
    {
      "inputs": [
        {
          "internalType": "address",
          "name": "",
          "type": "address"
        },
        {
          "internalType": "address",
          "name": "pool",
          "type": "address"
        },
        {
          "internalType": "enum AddLiquidityKind",
          "name": "kind",
          "type": "uint8"
        },
        {
          "internalType": "uint256[]",
          "name": "",
          "type": "uint256[]"
        },
        {
          "internalType": "uint256",
          "name": "",
          "type": "uint256"
        },
        {
          "internalType": "uint256[]",
          "name": "",
          "type": "uint256[]"
        },
        {
          "internalType": "bytes",
          "name": "",
          "type": "bytes"
        }
      ],
      "name": "onBeforeAddLiquidity",
      "outputs": [
        {
          "internalType": "bool",
          "name": "success",
          "type": "bool"
        }
      ],
      "stateMutability": "view",
      "type": "function"
    },
    {
      "inputs": [
        {
          "internalType": "uint256[]",
          "name": "",
          "type": "uint256[]"
        },
        {
          "internalType": "bytes",
          "name": "",
          "type": "bytes"
        }
      ],
      "name": "onBeforeInitialize",
      "outputs": [
        {
          "internalType": "bool",
          "name": "",
          "type": "bool"
        }
      ],
      "stateMutability": "nonpayable",
      "type": "function"
    },
    {
      "inputs": [
        {
          "internalType": "address",
          "name": "",
          "type": "address"
        },
        {
          "internalType": "address",
          "name": "pool",
          "type": "address"
        },
        {
          "internalType": "enum RemoveLiquidityKind",
          "name": "kind",
          "type": "uint8"
        },
        {
          "internalType": "uint256",
          "name": "",
          "type": "uint256"
        },
        {
          "internalType": "uint256[]",
          "name": "",
          "type": "uint256[]"
        },
        {
          "internalType": "uint256[]",
          "name": "",
          "type": "uint256[]"
        },
        {
          "internalType": "bytes",
          "name": "",
          "type": "bytes"
        }
      ],
      "name": "onBeforeRemoveLiquidity",
      "outputs": [
        {
          "internalType": "bool",
          "name": "success",
          "type": "bool"
        }
      ],
      "stateMutability": "view",
      "type": "function"
    },
    {
      "inputs": [
        {
          "components": [
            {
              "internalType": "enum SwapKind",
              "name": "kind",
              "type": "uint8"
            },
            {
              "internalType": "uint256",
              "name": "amountGivenScaled18",
              "type": "uint256"
            },
            {
              "internalType": "uint256[]",
              "name": "balancesScaled18",
              "type": "uint256[]"
            },
            {
              "internalType": "uint256",
              "name": "indexIn",
              "type": "uint256"
            },
            {
              "internalType": "uint256",
              "name": "indexOut",
              "type": "uint256"
            },
            {
              "internalType": "address",
              "name": "router",
              "type": "address"
            },
            {
              "internalType": "bytes",
              "name": "userData",
              "type": "bytes"
            }
          ],
          "internalType": "struct PoolSwapParams",
          "name": "",
          "type": "tuple"
        },
        {
          "internalType": "address",
          "name": "",
          "type": "address"
        }
      ],
      "name": "onBeforeSwap",
      "outputs": [
        {
          "internalType": "bool",
          "name": "",
          "type": "bool"
        }
      ],
      "stateMutability": "nonpayable",
      "type": "function"
    },
    {
      "inputs": [
        {
          "components": [
            {
              "internalType": "enum SwapKind",
              "name": "kind",
              "type": "uint8"
            },
            {
              "internalType": "uint256",
              "name": "amountGivenScaled18",
              "type": "uint256"
            },
            {
              "internalType": "uint256[]",
              "name": "balancesScaled18",
              "type": "uint256[]"
            },
            {
              "internalType": "uint256",
              "name": "indexIn",
              "type": "uint256"
            },
            {
              "internalType": "uint256",
              "name": "indexOut",
              "type": "uint256"
            },
            {
              "internalType": "address",
              "name": "router",
              "type": "address"
            },
            {
              "internalType": "bytes",
              "name": "userData",
              "type": "bytes"
            }
          ],
          "internalType": "struct PoolSwapParams",
          "name": "params",
          "type": "tuple"
        },
        {
          "internalType": "address",
          "name": "pool",
          "type": "address"
        },
        {
          "internalType": "uint256",
          "name": "staticSwapFeePercentage",
          "type": "uint256"
        }
      ],
      "name": "onComputeDynamicSwapFeePercentage",
      "outputs": [
        {
          "internalType": "bool",
          "name": "",
          "type": "bool"
        },
        {
          "internalType": "uint256",
          "name": "",
          "type": "uint256"
        }
      ],
      "stateMutability": "view",
      "type": "function"
    },
    {
      "inputs": [
        {
          "internalType": "address",
          "name": "",
          "type": "address"
        },
        {
          "internalType": "address",
          "name": "pool",
          "type": "address"
        },
        {
          "components": [
            {
              "internalType": "contract IERC20",
              "name": "token",
              "type": "address"
            },
            {
              "internalType": "enum TokenType",
              "name": "tokenType",
              "type": "uint8"
            },
            {
              "internalType": "contract IRateProvider",
              "name": "rateProvider",
              "type": "address"
            },
            {
              "internalType": "bool",
              "name": "paysYieldFees",
              "type": "bool"
            }
          ],
          "internalType": "struct TokenConfig[]",
          "name": "",
          "type": "tuple[]"
        },
        {
          "components": [
            {
              "internalType": "bool",
              "name": "disableUnbalancedLiquidity",
              "type": "bool"
            },
            {
              "internalType": "bool",
              "name": "enableAddLiquidityCustom",
              "type": "bool"
            },
            {
              "internalType": "bool",
              "name": "enableRemoveLiquidityCustom",
              "type": "bool"
            },
            {
              "internalType": "bool",
              "name": "enableDonation",
              "type": "bool"
            }
          ],
          "internalType": "struct LiquidityManagement",
          "name": "",
          "type": "tuple"
        }
      ],
      "name": "onRegister",
      "outputs": [
        {
          "internalType": "bool",
          "name": "",
          "type": "bool"
        }
      ],
      "stateMutability": "nonpayable",
      "type": "function"
    },
    {
      "inputs": [
        {
          "internalType": "address[]",
          "name": "senders",
          "type": "address[]"
        }
      ],
      "name": "removeMevTaxExemptSenders",
      "outputs": [],
      "stateMutability": "nonpayable",
      "type": "function"
    },
    {
      "inputs": [
        {
          "internalType": "uint256",
          "name": "newDefaultMevTaxMultiplier",
          "type": "uint256"
        }
      ],
      "name": "setDefaultMevTaxMultiplier",
      "outputs": [],
      "stateMutability": "nonpayable",
      "type": "function"
    },
    {
      "inputs": [
        {
          "internalType": "uint256",
          "name": "newDefaultMevTaxThreshold",
          "type": "uint256"
        }
      ],
      "name": "setDefaultMevTaxThreshold",
      "outputs": [],
      "stateMutability": "nonpayable",
      "type": "function"
    },
    {
      "inputs": [
        {
          "internalType": "uint256",
          "name": "maxMevSwapFeePercentage",
          "type": "uint256"
        }
      ],
      "name": "setMaxMevSwapFeePercentage",
      "outputs": [],
      "stateMutability": "nonpayable",
      "type": "function"
    },
    {
      "inputs": [
        {
          "internalType": "address",
          "name": "pool",
          "type": "address"
        },
        {
          "internalType": "uint256",
          "name": "newPoolMevTaxMultiplier",
          "type": "uint256"
        }
      ],
      "name": "setPoolMevTaxMultiplier",
      "outputs": [],
      "stateMutability": "nonpayable",
      "type": "function"
    },
    {
      "inputs": [
        {
          "internalType": "address",
          "name": "pool",
          "type": "address"
        },
        {
          "internalType": "uint256",
          "name": "newPoolMevTaxThreshold",
          "type": "uint256"
        }
      ],
      "name": "setPoolMevTaxThreshold",
      "outputs": [],
      "stateMutability": "nonpayable",
      "type": "function"
    }
  ],
  "bytecode": "0x610100604090808252346101e3578181611e3a803803809161002182856101f8565b8339810103126101e35780516001600160a01b039081811681036101e3576020809301519182168083036101e3576024928492306080528060a05260c05260e05284519283809263013274bf60e51b82525f60048301525afa9081156101ee575f916101b4575b506101a5577fdebbe20e15c981690db2afeed0eaafd8c8b77ea80503b0dbda6ba059a0bb67e09060ff195f54165f557f53525c548bd046e97a02f1d25bcc45701433dd7f01925c0618b36d1859681abe8184515f8152a15f6002557f9bf787e2aefecf377c7a9d187bf4a25477b7bf79e1e5e12b2cdf5d6920725ce28184515f8152a15f6001557fab04e788572c89101fd68f2d1e18084f3116ce893d04f941b6b0a2728c3eef758184515f8152a1670de0b5cad2bef000806003558351908152a151611c0a908161023082396080518161164d015260a051818181610a5201526118f9015260c05181818161036c015281816104eb01528181610cf201528181610f580152611097015260e05181818161022e01526117660152f35b635c84f39b60e01b5f5260045ffd5b90508181813d83116101e7575b6101cb81836101f8565b810103126101e3575180151581036101e3575f610088565b5f80fd5b503d6101c1565b83513d5f823e3d90fd5b601f909101601f19168101906001600160401b0382119082101761021b57604052565b634e487b7160e01b5f52604160045260245ffdfe604060808152600480361015610013575f80fd5b60e05f35811c908163042cd514146111bb5781630b89f18214610fcb578163166f1aad14610eed57816318b6eb5514610eae5781631c149e2814610e6357816325e5231914610e455781632754888d14610ddc57816338be241d14610d905781633a76026214610c8757816345421ec714610bfb5781635211fa7714610bbc57816362c6d3d314610b9e57816362f57cd814610b30578163851c1bb314610ae05781638c55613e14610a765781638d928af814610a265781638dd6e09814610a04578163976907cc146109585781639b157919146108705781639f64fd6314610787578163a0e8f5ac14610731578163a4e5de3c146106e4578163aaabadc5146106ab578163b20541c614610663578163ba5f9f40146105cf578163bcc6951b146105b1578163c4407f1f1461047c578163d403a47d146102fd578163d77153a71461025257508063deb27a7a146102025763e289e38014610173575f80fd5b346101fe5760206003193601126101fe5780359061018f6119fa565b670de0b5cad2bef000908183116101d0577fdebbe20e15c981690db2afeed0eaafd8c8b77ea80503b0dbda6ba059a0bb67e0602084868160035551908152a1005b82907f20fb3f00000000000000000000000000000000000000000000000000000000005f525260245260445ffd5b5f80fd5b82346101fe575f6003193601126101fe576020905173ffffffffffffffffffffffffffffffffffffffff7f0000000000000000000000000000000000000000000000000000000000000000168152f35b83346101fe575f6003193601126101fe576101409161026f61199e565b5061027861199e565b90606082016001815260c08301916001835261010092838501926001845286519686511515885260208701511515602089015280870151151590880152511515606087015260808501511515608087015260a0850151151560a087015251151560c0860152808401511515908501525115159083015261012080910151151590820152f35b8284346101fe57806003193601126101fe57610317611208565b6024359173ffffffffffffffffffffffffffffffffffffffff938151947fce8630d4000000000000000000000000000000000000000000000000000000008652808416958683820152610160908181602481867f0000000000000000000000000000000000000000000000000000000000000000165afa918215610472579061014092915f92610445575b5050015116300361041a5750610415907ff7f1a750162ea954c7d18a19baa6b79aa1428f8dc433bb39d22da648efb60136946103dc6119fa565b5f52600660205283815f205551928392836020909392919373ffffffffffffffffffffffffffffffffffffffff60408201951681520152565b0390a1005b84907f7501acd8000000000000000000000000000000000000000000000000000000005f525260245ffd5b6104649250803d1061046b575b61045c818361124e565b8101906114b3565b88806103a2565b503d610452565b85513d5f823e3d90fd5b8284346101fe57806003193601126101fe57610496611208565b6024359173ffffffffffffffffffffffffffffffffffffffff938151947fce8630d4000000000000000000000000000000000000000000000000000000008652808416958683820152610160908181602481867f0000000000000000000000000000000000000000000000000000000000000000165afa918215610472579061014092915f92610594575b5050015116300361041a5750610415907f907112dd6d17a8468828c40efc60143bdd909e18011cac76b8e296222b3d594f9461055b6119fa565b5f52600560205283815f205551928392836020909392919373ffffffffffffffffffffffffffffffffffffffff60408201951681520152565b6105aa9250803d1061046b5761045c818361124e565b8880610521565b83346101fe575f6003193601126101fe576020906001549051908152f35b839150346101fe576003193601126101fe576105e9611208565b506105f261122b565b91604435818110156101fe5767ffffffffffffffff936084358581116101fe5761061f90369085016112d4565b5060a4358581116101fe5761063790369085016112d4565b5060c4359485116101fe5761065461065a93602096369101611334565b50611972565b90519015158152f35b8284346101fe5760206003193601126101fe5760209173ffffffffffffffffffffffffffffffffffffffff610696611208565b165f52825260ff815f20541690519015158152f35b83346101fe575f6003193601126101fe5760209073ffffffffffffffffffffffffffffffffffffffff6106dc6118b6565b915191168152f35b5050346101fe5760206003193601126101fe577fab04e788572c89101fd68f2d1e18084f3116ce893d04f941b6b0a2728c3eef759160209135906107266119fa565b8160015551908152a1005b919050346101fe57600319916060833601126101fe5781359267ffffffffffffffff84116101fe5783360301126101fe576107799161076e61122b565b9060443592016116fa565b825191151582526020820152f35b5050346101fe57610797366113e8565b906107a06119fa565b8151915f5b8381106107ae57005b73ffffffffffffffffffffffffffffffffffffffff6107cd8284611698565b5116805f5260209084825260ff875f2054166108465760019291817fbdf65067094f886eb7cdc0306e2305d7978636a08c7c473b76883f6144fb2129925f52868252885f20857fffffffffffffffffffffffffffffffffffffffffffffffffffffffffffffff008254161790558851908152a1016107a5565b847f106fa5a4000000000000000000000000000000000000000000000000000000005f525260245ffd5b5050346101fe57610880366113e8565b906108896119fa565b8151915f5b83811061089757005b73ffffffffffffffffffffffffffffffffffffffff6108b68284611698565b5116805f5260209084825260ff875f2054161561092e5760019291817fa6c039d6f5be3cc83645e895e73091c938efd27001eace48704833c45b6c994c925f52868252885f207fffffffffffffffffffffffffffffffffffffffffffffffffffffffffffffff0081541690558851908152a10161088e565b847f01147f3f000000000000000000000000000000000000000000000000000000005f525260245ffd5b8284346101fe576101006003193601126101fe57610974611208565b5061097d61122b565b50600560443510156101fe5767ffffffffffffffff906064358281116101fe576109aa90369085016112d4565b506084358281116101fe576109c290369085016112d4565b9160c4358181116101fe576109da90369086016112d4565b5060e4359081116101fe57610a00936109f591369101611334565b5051918291826113a8565b0390f35b83346101fe575f6003193601126101fe5760209060ff5f541690519015158152f35b83346101fe575f6003193601126101fe576020905173ffffffffffffffffffffffffffffffffffffffff7f0000000000000000000000000000000000000000000000000000000000000000168152f35b83346101fe575f6003193601126101fe5760207f53525c548bd046e97a02f1d25bcc45701433dd7f01925c0618b36d1859681abe91610ab36119fa565b7fffffffffffffffffffffffffffffffffffffffffffffffffffffffffffffff005f54165f55515f8152a1005b5050346101fe5760206003193601126101fe5735907fffffffff00000000000000000000000000000000000000000000000000000000821682036101fe57610b29602092611622565b9051908152f35b83346101fe575f6003193601126101fe5760207f53525c548bd046e97a02f1d25bcc45701433dd7f01925c0618b36d1859681abe91610b6d6119fa565b60017fffffffffffffffffffffffffffffffffffffffffffffffffffffffffffffff005f5416175f555160018152a1005b83346101fe575f6003193601126101fe576020906003549051908152f35b919050346101fe576003199083823601126101fe573567ffffffffffffffff81116101fe57360301126101fe57602090610bf461122b565b50515f8152f35b839150346101fe576003193601126101fe57610c15611208565b50610c1e61122b565b9160443560058110156101fe5767ffffffffffffffff936064358581116101fe57610c4c90369085016112d4565b5060a4358581116101fe57610c6490369085016112d4565b5060c4359485116101fe57610c8161065a93602096369101611334565b50611598565b8284346101fe5760206003193601126101fe57610ca2611208565b9173ffffffffffffffffffffffffffffffffffffffff808351947fce8630d400000000000000000000000000000000000000000000000000000000865216938483820152610160908181602481867f0000000000000000000000000000000000000000000000000000000000000000165afa918215610472579061014092915f92610d73575b50500151163003610d4857506020915f5260068252805f20549051908152f35b90507f7501acd8000000000000000000000000000000000000000000000000000000005f525260245ffd5b610d899250803d1061046b5761045c818361124e565b8680610d28565b8284346101fe5760606003193601126101fe5767ffffffffffffffff82358181116101fe57610dc290369085016112d4565b506044359081116101fe57602092610bf491369101611334565b8284346101fe576101006003193601126101fe57610df8611208565b50610e0161122b565b508160443510156101fe5767ffffffffffffffff906084358281116101fe57610e2d90369085016112d4565b5060a4358281116101fe576109c290369085016112d4565b83346101fe575f6003193601126101fe576020906002549051908152f35b8284346101fe57806003193601126101fe5767ffffffffffffffff82358181116101fe57610e9490369085016112d4565b506024359081116101fe57602092610bf491369101611334565b5050346101fe57600319906020823601126101fe57359067ffffffffffffffff82116101fe5761018091360301126101fe5780515f81525f6020820152f35b8284346101fe5760206003193601126101fe57610f08611208565b9173ffffffffffffffffffffffffffffffffffffffff808351947fce8630d400000000000000000000000000000000000000000000000000000000865216938483820152610160908181602481867f0000000000000000000000000000000000000000000000000000000000000000165afa918215610472579061014092915f92610fae575b50500151163003610d4857506020915f5260058252805f20549051908152f35b610fc49250803d1061046b5761045c818361124e565b8680610f8e565b839150346101fe576003193601126101fe57610fe5611208565b50610fee61122b565b67ffffffffffffffff926044358481116101fe57366023820112156101fe578082013560249561101d826112bc565b9661102a8751988961124e565b828852602460208099019360071b850101933685116101fe57602401925b84841061110a57505050505060807fffffffffffffffffffffffffffffffffffffffffffffffffffffffffffffff9c3601126101fe5773ffffffffffffffffffffffffffffffffffffffff90817f00000000000000000000000000000000000000000000000000000000000000001633036110df575060025491165f5260068352815f205560015460058352815f20555160018152f35b7f089676d5000000000000000000000000000000000000000000000000000000005f5233905260245ffd5b60809081853603126101fe5788519182018281108582111761119057895273ffffffffffffffffffffffffffffffffffffffff853581811681036101fe5783528a86013560028110156101fe578b8401528986013590811681036101fe5789830152606090818601359283151584036101fe576080938c93820152815201930192611048565b836041897f4e487b71000000000000000000000000000000000000000000000000000000005f52525ffd5b5050346101fe5760206003193601126101fe577f9bf787e2aefecf377c7a9d187bf4a25477b7bf79e1e5e12b2cdf5d6920725ce29160209135906111fd6119fa565b8160025551908152a1005b6004359073ffffffffffffffffffffffffffffffffffffffff821682036101fe57565b6024359073ffffffffffffffffffffffffffffffffffffffff821682036101fe57565b90601f7fffffffffffffffffffffffffffffffffffffffffffffffffffffffffffffffe0910116810190811067ffffffffffffffff82111761128f57604052565b7f4e487b71000000000000000000000000000000000000000000000000000000005f52604160045260245ffd5b67ffffffffffffffff811161128f5760051b60200190565b9080601f830112156101fe5760209082356112ee816112bc565b936112fc604051958661124e565b81855260208086019260051b8201019283116101fe57602001905b828210611325575050505090565b81358152908301908301611317565b81601f820112156101fe5780359067ffffffffffffffff821161128f576040519261138760207fffffffffffffffffffffffffffffffffffffffffffffffffffffffffffffffe0601f860116018561124e565b828452602083830101116101fe57815f926020809301838601378301015290565b604081015f82526020606081936040838201528551809452019301915f5b8281106113d4575050505090565b8351855293810193928101926001016113c6565b6020806003198301126101fe576004359167ffffffffffffffff83116101fe57806023840112156101fe578260040135611421816112bc565b9361142f604051958661124e565b8185526024602086019260051b8201019283116101fe57602401905b828210611459575050505090565b813573ffffffffffffffffffffffffffffffffffffffff811681036101fe57815290830190830161144b565b519081151582036101fe57565b519073ffffffffffffffffffffffffffffffffffffffff821682036101fe57565b809161016092839103126101fe5760405191820182811067ffffffffffffffff82111761128f576040526114e681611485565b82526114f460208201611485565b602083015261150560408201611485565b604083015261151660608201611485565b606083015261152760808201611485565b608083015261153860a08201611485565b60a083015261154960c08201611485565b60c083015261155a60e08201611485565b60e083015261010061156d818301611485565b9083015261012061157f818301611485565b90830152611591610140809201611492565b9082015290565b9060ff5f54161561161b576115ad483a611afe565b9060058110156115ee57159182156115c457505090565b73ffffffffffffffffffffffffffffffffffffffff919250165f52600560205260405f2054101590565b7f4e487b71000000000000000000000000000000000000000000000000000000005f52602160045260245ffd5b5050600190565b6040517fffffffff0000000000000000000000000000000000000000000000000000000060208201927f00000000000000000000000000000000000000000000000000000000000000008452166040820152602481526060810181811067ffffffffffffffff82111761128f5760405251902090565b80518210156116ac5760209160051b010190565b7f4e487b71000000000000000000000000000000000000000000000000000000005f52603260045260245ffd5b3573ffffffffffffffffffffffffffffffffffffffff811681036101fe5790565b9291909260ff5f5416156118ae5760a073ffffffffffffffffffffffffffffffffffffffff910161172a816116d9565b91604091818351947f264e97e00000000000000000000000000000000000000000000000000000000086521660048501526020938481602481867f0000000000000000000000000000000000000000000000000000000000000000165afa9081156118a4575f9161186f575b506117bf575b506117ba9495165f52600682526005815f205492525f205491611b38565b600191565b83826117cc6004936116d9565b168451928380927f5e01eb5a0000000000000000000000000000000000000000000000000000000082525afa908115611865579082915f9161182d575b50165f526004835260ff825f205416611822575f61179c565b505050915060019190565b809250858092503d831161185e575b611846818361124e565b810103126101fe576118588291611492565b5f611809565b503d61183c565b83513d5f823e3d90fd5b90508481813d831161189d575b611886818361124e565b810103126101fe5761189790611485565b5f611796565b503d61187c565b84513d5f823e3d90fd5b506001925090565b6040517faaabadc500000000000000000000000000000000000000000000000000000000815273ffffffffffffffffffffffffffffffffffffffff6020826004817f000000000000000000000000000000000000000000000000000000000000000085165afa918215611967575f9261192e57505090565b9091506020813d60201161195f575b8161194a6020938361124e565b810103126101fe575190811681036101fe5790565b3d915061193d565b6040513d5f823e3d90fd5b9060ff5f54161561161b57611987483a611afe565b9060048110156115ee57159182156115c457505090565b60405190610140820182811067ffffffffffffffff82111761128f576040525f610120838281528260208201528260408201528260608201528260808201528260a08201528260c08201528260e0820152826101008201520152565b611a267fffffffff000000000000000000000000000000000000000000000000000000005f3516611622565b602073ffffffffffffffffffffffffffffffffffffffff611a456118b6565b16916064604051809481937f9be2a88400000000000000000000000000000000000000000000000000000000835260048301523360248301523060448301525afa908115611967575f91611ac4575b5015611a9c57565b7f23dada53000000000000000000000000000000000000000000000000000000005f5260045ffd5b90506020813d602011611af6575b81611adf6020938361124e565b810103126101fe57611af090611485565b5f611a94565b3d9150611ad2565b91908203918211611b0b57565b7f4e487b71000000000000000000000000000000000000000000000000000000005f52601160045260245ffd5b91611b43483a611afe565b9160035492828111801590611ba1575b611b9a57611b6992611b6491611afe565b611bab565b9015611b9457670de0b6b3a764000090048201809211611b0b5780821015611b8f575090565b905090565b50905090565b5050505090565b5084841115611b53565b91908215611bcb5780830292830403611bc45760019190565b5f91508190565b50600191505f9056fea264697066735822122004b34d93a53952a978fd307a30573144325e391f431bb82d9fa40786bc7f318364736f6c634300081b0033",
  "linkReferences": {},
  "deployedLinkReferences": {}
}