{
  "_format": "hh-sol-artifact-1",
  "contractName": "Gyro2CLPPoolFactory",
  "sourceName": "contracts/Gyro2CLPPoolFactory.sol",
  "abi": [
    {
      "inputs": [
        {
          "internalType": "contract IVault",
          "name": "vault",
          "type": "address"
        },
        {
          "internalType": "uint32",
          "name": "pauseWindowDuration",
          "type": "uint32"
        },
        {
          "internalType": "string",
          "name": "factoryVersion",
          "type": "string"
        },
        {
          "internalType": "string",
          "name": "poolVersion",
          "type": "string"
        }
      ],
      "stateMutability": "nonpayable",
      "type": "constructor"
    },
    {
      "inputs": [],
      "name": "Create2EmptyBytecode",
      "type": "error"
    },
    {
      "inputs": [],
      "name": "Create2FailedDeployment",
      "type": "error"
    },
    {
      "inputs": [
        {
          "internalType": "uint256",
          "name": "balance",
          "type": "uint256"
        },
        {
          "internalType": "uint256",
          "name": "needed",
          "type": "uint256"
        }
      ],
      "name": "Create2InsufficientBalance",
      "type": "error"
    },
    {
      "inputs": [],
      "name": "Disabled",
      "type": "error"
    },
    {
      "inputs": [],
      "name": "IndexOutOfBounds",
      "type": "error"
    },
    {
      "inputs": [],
      "name": "PoolPauseWindowDurationOverflow",
      "type": "error"
    },
    {
      "inputs": [],
      "name": "SenderNotAllowed",
      "type": "error"
    },
    {
      "inputs": [],
      "name": "StandardPoolWithCreator",
      "type": "error"
    },
    {
      "inputs": [],
      "name": "SupportsOnlyTwoTokens",
      "type": "error"
    },
    {
      "anonymous": false,
      "inputs": [],
      "name": "FactoryDisabled",
      "type": "event"
    },
    {
      "anonymous": false,
      "inputs": [
        {
          "indexed": true,
          "internalType": "address",
          "name": "pool",
          "type": "address"
        }
      ],
      "name": "PoolCreated",
      "type": "event"
    },
    {
      "inputs": [
        {
          "internalType": "string",
          "name": "name",
          "type": "string"
        },
        {
          "internalType": "string",
          "name": "symbol",
          "type": "string"
        },
        {
          "components": [
            {
              "internalType": "contract IERC20",
              "name": "token",
              "type": "address"
            },
            {
              "internalType": "enum TokenType",
              "name": "tokenType",
              "type": "uint8"
            },
            {
              "internalType": "contract IRateProvider",
              "name": "rateProvider",
              "type": "address"
            },
            {
              "internalType": "bool",
              "name": "paysYieldFees",
              "type": "bool"
            }
          ],
          "internalType": "struct TokenConfig[]",
          "name": "tokens",
          "type": "tuple[]"
        },
        {
          "internalType": "uint256",
          "name": "sqrtAlpha",
          "type": "uint256"
        },
        {
          "internalType": "uint256",
          "name": "sqrtBeta",
          "type": "uint256"
        },
        {
          "components": [
            {
              "internalType": "address",
              "name": "pauseManager",
              "type": "address"
            },
            {
              "internalType": "address",
              "name": "swapFeeManager",
              "type": "address"
            },
            {
              "internalType": "address",
              "name": "poolCreator",
              "type": "address"
            }
          ],
          "internalType": "struct PoolRoleAccounts",
          "name": "roleAccounts",
          "type": "tuple"
        },
        {
          "internalType": "uint256",
          "name": "swapFeePercentage",
          "type": "uint256"
        },
        {
          "internalType": "address",
          "name": "poolHooksContract",
          "type": "address"
        },
        {
          "internalType": "bool",
          "name": "enableDonation",
          "type": "bool"
        },
        {
          "internalType": "bool",
          "name": "disableUnbalancedLiquidity",
          "type": "bool"
        },
        {
          "internalType": "bytes32",
          "name": "salt",
          "type": "bytes32"
        }
      ],
      "name": "create",
      "outputs": [
        {
          "internalType": "address",
          "name": "pool",
          "type": "address"
        }
      ],
      "stateMutability": "nonpayable",
      "type": "function"
    },
    {
      "inputs": [],
      "name": "disable",
      "outputs": [],
      "stateMutability": "nonpayable",
      "type": "function"
    },
    {
      "inputs": [
        {
          "internalType": "bytes4",
          "name": "selector",
          "type": "bytes4"
        }
      ],
      "name": "getActionId",
      "outputs": [
        {
          "internalType": "bytes32",
          "name": "",
          "type": "bytes32"
        }
      ],
      "stateMutability": "view",
      "type": "function"
    },
    {
      "inputs": [],
      "name": "getAuthorizer",
      "outputs": [
        {
          "internalType": "contract IAuthorizer",
          "name": "",
          "type": "address"
        }
      ],
      "stateMutability": "view",
      "type": "function"
    },
    {
      "inputs": [],
      "name": "getDefaultLiquidityManagement",
      "outputs": [
        {
          "components": [
            {
              "internalType": "bool",
              "name": "disableUnbalancedLiquidity",
              "type": "bool"
            },
            {
              "internalType": "bool",
              "name": "enableAddLiquidityCustom",
              "type": "bool"
            },
            {
              "internalType": "bool",
              "name": "enableRemoveLiquidityCustom",
              "type": "bool"
            },
            {
              "internalType": "bool",
              "name": "enableDonation",
              "type": "bool"
            }
          ],
          "internalType": "struct LiquidityManagement",
          "name": "liquidityManagement",
          "type": "tuple"
        }
      ],
      "stateMutability": "pure",
      "type": "function"
    },
    {
      "inputs": [],
      "name": "getDefaultPoolHooksContract",
      "outputs": [
        {
          "internalType": "address",
          "name": "",
          "type": "address"
        }
      ],
      "stateMutability": "pure",
      "type": "function"
    },
    {
      "inputs": [
        {
          "internalType": "bytes",
          "name": "constructorArgs",
          "type": "bytes"
        },
        {
          "internalType": "bytes32",
          "name": "salt",
          "type": "bytes32"
        }
      ],
      "name": "getDeploymentAddress",
      "outputs": [
        {
          "internalType": "address",
          "name": "",
          "type": "address"
        }
      ],
      "stateMutability": "view",
      "type": "function"
    },
    {
      "inputs": [],
      "name": "getNewPoolPauseWindowEndTime",
      "outputs": [
        {
          "internalType": "uint32",
          "name": "",
          "type": "uint32"
        }
      ],
      "stateMutability": "view",
      "type": "function"
    },
    {
      "inputs": [],
      "name": "getOriginalPauseWindowEndTime",
      "outputs": [
        {
          "internalType": "uint32",
          "name": "",
          "type": "uint32"
        }
      ],
      "stateMutability": "view",
      "type": "function"
    },
    {
      "inputs": [],
      "name": "getPauseWindowDuration",
      "outputs": [
        {
          "internalType": "uint32",
          "name": "",
          "type": "uint32"
        }
      ],
      "stateMutability": "view",
      "type": "function"
    },
    {
      "inputs": [],
      "name": "getPoolCount",
      "outputs": [
        {
          "internalType": "uint256",
          "name": "",
          "type": "uint256"
        }
      ],
      "stateMutability": "view",
      "type": "function"
    },
    {
      "inputs": [],
      "name": "getPoolVersion",
      "outputs": [
        {
          "internalType": "string",
          "name": "",
          "type": "string"
        }
      ],
      "stateMutability": "view",
      "type": "function"
    },
    {
      "inputs": [],
      "name": "getPools",
      "outputs": [
        {
          "internalType": "address[]",
          "name": "",
          "type": "address[]"
        }
      ],
      "stateMutability": "view",
      "type": "function"
    },
    {
      "inputs": [
        {
          "internalType": "uint256",
          "name": "start",
          "type": "uint256"
        },
        {
          "internalType": "uint256",
          "name": "count",
          "type": "uint256"
        }
      ],
      "name": "getPoolsInRange",
      "outputs": [
        {
          "internalType": "address[]",
          "name": "pools",
          "type": "address[]"
        }
      ],
      "stateMutability": "view",
      "type": "function"
    },
    {
      "inputs": [],
      "name": "getVault",
      "outputs": [
        {
          "internalType": "contract IVault",
          "name": "",
          "type": "address"
        }
      ],
      "stateMutability": "view",
      "type": "function"
    },
    {
      "inputs": [],
      "name": "isDisabled",
      "outputs": [
        {
          "internalType": "bool",
          "name": "",
          "type": "bool"
        }
      ],
      "stateMutability": "view",
      "type": "function"
    },
    {
      "inputs": [
        {
          "internalType": "address",
          "name": "pool",
          "type": "address"
        }
      ],
      "name": "isPoolFromFactory",
      "outputs": [
        {
          "internalType": "bool",
          "name": "",
          "type": "bool"
        }
      ],
      "stateMutability": "view",
      "type": "function"
    },
    {
      "inputs": [],
      "name": "version",
      "outputs": [
        {
          "internalType": "string",
          "name": "",
          "type": "string"
        }
      ],
      "stateMutability": "view",
      "type": "function"
    }
  ],
  "bytecode": "0x61010060405234610424576159908038038061001a81610428565b9283398101608082820312610424578151916001600160a01b038316830361042457602092838201519363ffffffff808616958681036104245760408501516001600160401b039590868111610424578761007691830161044d565b9660608201518781116104245761008d920161044d565b96613ec59461009d858701610428565b95808752611acb868801393060805260a052420190814211610410578282116104015760c0521660e05281519383851161035f576003946100de865461049e565b93601f948581116103d5575b5083908583116001146103735761011892915f9183610210575b50508160011b915f199060031b1c19161790565b85555b805184811161035f57600491610131835461049e565b858111610329575b5083908583116001146102c75761016692915f91836102105750508160011b915f199060031b1c19161790565b81555b85519384116102b45750600593610180855461049e565b838111610280575b508192841160011461021b57505081906101b793945f926102105750508160011b915f199060031b1c19161790565b90555b6040516115de90816104ed823960805181611384015260a0518181816101ef01528181610b6501528181610c5101528181610d900152611412015260c05181610282015260e05181818161011e01526114820152f35b015190505f80610104565b9091601f19841695855f52835f20935f905b88821061026857505084600196971061024f575b50505050811b0190556101ba565b01519060f8845f19921b161c191690555f808080610241565b8060018597829496860151815501960193019061022d565b6102a590865f52835f2085808801891c8201928689106102ab575b01881c01906104d6565b5f610188565b9250819261029b565b604190634e487b7160e01b5f525260245ffd5b90601f19831691845f52855f20925f5b878282106103135750509084600195949392106102fc575b505050811b018155610169565b01515f19838a1b60f8161c191690555f80806102ef565b60018596829396860151815501950193016102d7565b61035090845f52855f208780860160051c820192888710610356575b0160051c01906104d6565b5f610139565b92508192610345565b634e487b7160e01b5f52604160045260245ffd5b90601f19831691885f52855f20925f5b878282106103bf5750509084600195949392106103a8575b505050811b01855561011b565b01515f19838a1b60f8161c191690555f808061039b565b6001859682939686015181550195019301610383565b6103fb90885f52855f208780860160051c820192888710610356570160051c01906104d6565b5f6100ea565b6368755a1160e01b5f5260045ffd5b634e487b7160e01b5f52601160045260245ffd5b5f80fd5b6040519190601f01601f191682016001600160401b0381118382101761035f57604052565b81601f82011215610424578051906001600160401b03821161035f5761047c601f8301601f1916602001610428565b928284526020838301011161042457815f9260208093018386015e8301015290565b90600182811c921680156104cc575b60208310146104b857565b634e487b7160e01b5f52602260045260245ffd5b91607f16916104ad565b8181106104e1575050565b5f81556001016104d656fe60806040526004361015610011575f80fd5b5f5f358060e01c908163100768cc146108ad578163193ad50f146108445781632f2770db146106e9575080633f819b6f146106b957806344f6fec7146105f757806353a72f7e1461049557806354fd4d50146103b65780636634b75314610364578063673a2a1f146102c95780636c57f5a9146102a657806378da80cb14610265578063851c1bb3146102135780638d928af8146101c25780638eec5d70146101a4578063aaabadc51461016b578063db035ebc14610142578063e9d56e19146101015763ec888061146100e3575f80fd5b346100fe57806003193601126100fe57602090604051908152f35b80fd5b50346100fe57806003193601126100fe57602060405163ffffffff7f0000000000000000000000000000000000000000000000000000000000000000168152f35b50346100fe57806003193601126100fe57602061015d611480565b63ffffffff60405191168152f35b50346100fe57806003193601126100fe5760206101866113cf565b73ffffffffffffffffffffffffffffffffffffffff60405191168152f35b50346100fe57806003193601126100fe576020600154604051908152f35b50346100fe57806003193601126100fe57602060405173ffffffffffffffffffffffffffffffffffffffff7f0000000000000000000000000000000000000000000000000000000000000000168152f35b50346100fe5760206003193601126100fe57600435907fffffffff00000000000000000000000000000000000000000000000000000000821682036100fe57602061025d83611359565b604051908152f35b50346100fe57806003193601126100fe57602060405163ffffffff7f0000000000000000000000000000000000000000000000000000000000000000168152f35b50346100fe57806003193601126100fe57602060ff600254166040519015158152f35b50346100fe57806003193601126100fe57604051600180548083528184526020808401947fb10e2d527612073b26eecdfd717e6a320cf44b4afac2b0732d9fcbe2b7fa0cf69392915b8282106103395761033586610329818a0382611007565b604051918291826110cb565b0390f35b845473ffffffffffffffffffffffffffffffffffffffff168752958601959383019390830190610312565b50346100fe5760206003193601126100fe576004359073ffffffffffffffffffffffffffffffffffffffff82168092036103b25760408160209360ff93528084522054166040519015158152f35b5f80fd5b50346100fe57806003193601126100fe576040516004545f826103d88361111c565b91828252602093600190856001821691825f1461047557505060011461041a575b5061040692500383611007565b6103356040519282849384528301906110a6565b84915060045f527f8a35acfbc15ff81a39ae7d344fd709f28e8600b4aa8c65c6b64bfe7fe36bd19b905f915b85831061045d5750506104069350820101856103f9565b80548389018501528794508693909201918101610446565b60ff19168582015261040695151560051b85010192508791506103f99050565b50346100fe5760406003193601126100fe5760043560249060243590600193600154808310156105cf57806104ca85856112bd565b1161058e575b506104da8361108e565b936104e86040519586611007565b8385526104f48461108e565b92601f1960209401366020880137825b858110610519576040518061033589826110cb565b61052b61052682846112bd565b6112f7565b90549088518310156105625760031b1c73ffffffffffffffffffffffffffffffffffffffff16600582901b88018601528701610504565b84867f4e487b710000000000000000000000000000000000000000000000000000000081526032600452fd5b9092508181039081116105a257915f6104d0565b6024837f4e487b710000000000000000000000000000000000000000000000000000000081526011600452fd5b6004827f4e23d035000000000000000000000000000000000000000000000000000000008152fd5b50346100fe5760406003193601126100fe5760043567ffffffffffffffff81116106b557366023820112156106b557600b602092610641605593369060248160040135910161102a565b906106736040518092878083019561065887611231565b90805192839101825e0190815203601f198101835282611007565b51902061068160243561157f565b604051916040830152848201523081520160ff81532073ffffffffffffffffffffffffffffffffffffffff60405191168152f35b5080fd5b50346100fe57806003193601126100fe576103356106d561116d565b6040519182916020835260208301906110a6565b9050346106b557816003193601126106b5577fffffffff000000000000000000000000000000000000000000000000000000006107269116611359565b602073ffffffffffffffffffffffffffffffffffffffff6107456113cf565b16916064604051809481937f9be2a88400000000000000000000000000000000000000000000000000000000835260048301523360248301523060448301525afa9081156108395782916107fe575b50156107d6576107a261154b565b600160ff1960025416176002557f432acbfd662dbb5d8b378384a67159b47ca9d0f1b79f97cf64cf8585fa362d508180a180f35b807f23dada530000000000000000000000000000000000000000000000000000000060049252fd5b90506020813d602011610831575b8161081960209383611007565b810103126106b5575180151581036106b5575f610794565b3d915061080c565b6040513d84823e3d90fd5b82346100fe57806003193601126100fe5760405160809161086482610feb565b80825280602083015280604083015260608201526108ab60405180926060809180511515845260208101511515602085015260408101511515604085015201511515910152565bf35b346103b2576101a06003193601126103b25760043567ffffffffffffffff81116103b2576108df903690600401611070565b60243567ffffffffffffffff81116103b2576108ff903690600401611070565b6044359167ffffffffffffffff83116103b257366023840112156103b25782600401359061092c8261108e565b9361093a6040519586611007565b82855260208501906024829460071b820101903682116103b257602401915b818310610f675750505060607fffffffffffffffffffffffffffffffffffffffffffffffffffffffffffffff5c3601126103b257604051926060840184811067ffffffffffffffff821117610de35760405260a43573ffffffffffffffffffffffffffffffffffffffff811681036103b257845260c43573ffffffffffffffffffffffffffffffffffffffff811681036103b257602085015260e43573ffffffffffffffffffffffffffffffffffffffff811681036103b2576040850152610124359073ffffffffffffffffffffffffffffffffffffffff821682036103b257610144359283151584036103b25761016435151561016435036103b2576002875103610f3f5773ffffffffffffffffffffffffffffffffffffffff604087015116610f1757604051918260a081011067ffffffffffffffff60a085011117610de35782610b4e610afd92610bc89460a060209701604052835285830190815260408301906064358252606084016084358152610ad361116d565b9060808601918252610b3160405197889760408c8a01525160a060608a01526101008901906110a6565b9351937fffffffffffffffffffffffffffffffffffffffffffffffffffffffffffffffa094858983030160808a01526110a6565b935160a08701525160c086015251908483030160e08501526110a6565b73ffffffffffffffffffffffffffffffffffffffff7f00000000000000000000000000000000000000000000000000000000000000001660408301520390610b9e601f1992838101835282611007565b604051938491610baf828401611231565b90805192839101825e015f815203908101835282611007565b610bd46101843561157f565b90805115610eef576020815191015ff59373ffffffffffffffffffffffffffffffffffffffff851615610ec757610c0a856114b7565b60405192610c1784610feb565b5f60208501525f6040850152151560608401526101643515158352610c3a611480565b73ffffffffffffffffffffffffffffffffffffffff7f0000000000000000000000000000000000000000000000000000000000000000163b156103b2576040517feeec802f00000000000000000000000000000000000000000000000000000000815273ffffffffffffffffffffffffffffffffffffffff871660048201526101a0602482015296516101a48801819052939487946101c4860194939291905f5b818110610e1b575050509473ffffffffffffffffffffffffffffffffffffffff859493816040610d769563ffffffff5f9b6101043560448c01521660648a01528a60848a01528281511660a48a01528260208201511660c48a015201511660e4870152166101048501526101248401906060809180511515845260208101511515602085015260408101511515604085015201511515910152565b03818373ffffffffffffffffffffffffffffffffffffffff7f0000000000000000000000000000000000000000000000000000000000000000165af18015610e1057610dc9575b806101866020926114b7565b67ffffffffffffffff8211610de357602091604052610dbd565b7f4e487b71000000000000000000000000000000000000000000000000000000005f52604160045260245ffd5b6040513d5f823e3d90fd5b91809897509590929394955173ffffffffffffffffffffffffffffffffffffffff81511682526020810151906002821015610e9a5782606060809260209485600197015273ffffffffffffffffffffffffffffffffffffffff604082015116604084015201511515606082015201980191019189969795949392610cdb565b7f4e487b71000000000000000000000000000000000000000000000000000000005f52602160045260245ffd5b7f741752c2000000000000000000000000000000000000000000000000000000005f5260045ffd5b7f4ca249dc000000000000000000000000000000000000000000000000000000005f5260045ffd5b7f61ee1764000000000000000000000000000000000000000000000000000000005f5260045ffd5b7f34e77320000000000000000000000000000000000000000000000000000000005f5260045ffd5b6080833603126103b25760405190610f7e82610feb565b73ffffffffffffffffffffffffffffffffffffffff843581811681036103b2578352602085013560028110156103b2576020840152604085013590811681036103b2576040830152606090818501359283151584036103b257608093602093820152815201920191610959565b6080810190811067ffffffffffffffff821117610de357604052565b90601f601f19910116810190811067ffffffffffffffff821117610de357604052565b92919267ffffffffffffffff8211610de357604051916110546020601f19601f8401160184611007565b8294818452818301116103b2578281602093845f960137010152565b9080601f830112156103b25781602061108b9335910161102a565b90565b67ffffffffffffffff8111610de35760051b60200190565b90601f19601f602080948051918291828752018686015e5f8582860101520116010190565b60209060206040818301928281528551809452019301915f5b8281106110f2575050505090565b835173ffffffffffffffffffffffffffffffffffffffff16855293810193928101926001016110e4565b90600182811c92168015611163575b602083101461113657565b7f4e487b71000000000000000000000000000000000000000000000000000000005f52602260045260245ffd5b91607f169161112b565b604051905f82600554916111808361111c565b8083529260209060019081811690811561120c57506001146111ad575b50506111ab92500383611007565b565b91509260055f527f036b6384b5eca791c62761152d0c79bb0604c104a5fb6f4eb0703f3154bb3db0935f925b8284106111f457506111ab9450505081016020015f8061119d565b855488850183015294850194879450928101926111d9565b9050602093506111ab95925060ff1991501682840152151560051b8201015f8061119d565b6003545f92916112408261111c565b916001908181169081156112aa575060011461125b57505050565b909192935060035f527fc2575a0e9e593c00f959f8c92f12db2869c3395a3b0502d05e2516446f71f85b905f915b848310611297575050500190565b8181602092548587015201920191611289565b60ff191683525050811515909102019150565b919082018092116112ca57565b7f4e487b71000000000000000000000000000000000000000000000000000000005f52601160045260245ffd5b60015481101561132c5760015f527fb10e2d527612073b26eecdfd717e6a320cf44b4afac2b0732d9fcbe2b7fa0cf601905f90565b7f4e487b71000000000000000000000000000000000000000000000000000000005f52603260045260245ffd5b6040517fffffffff0000000000000000000000000000000000000000000000000000000060208201927f00000000000000000000000000000000000000000000000000000000000000008452166040820152602481526060810181811067ffffffffffffffff821117610de35760405251902090565b6040517faaabadc500000000000000000000000000000000000000000000000000000000815273ffffffffffffffffffffffffffffffffffffffff6020826004817f000000000000000000000000000000000000000000000000000000000000000085165afa918215610e10575f9261144757505090565b9091506020813d602011611478575b8161146360209383611007565b810103126103b2575190811681036103b25790565b3d9150611456565b7f000000000000000000000000000000000000000000000000000000000000000063ffffffff81164210156114b25790565b505f90565b6114bf61154b565b73ffffffffffffffffffffffffffffffffffffffff80911690815f525f60205260405f20600160ff1982541617905560015468010000000000000000811015610de35780600161151292016001556112f7565b819291549060031b9184831b921b19161790557f83a48fbcfc991335314e74d0496aab6a1987e992ddc85dddbcc4d6dd6ef2e9fc5f80a2565b60ff6002541661155757565b7f75884cda000000000000000000000000000000000000000000000000000000005f5260045ffd5b60405160208101913383524660408301526060820152606081526115a281610feb565b5190209056fea26469706673582212207a5e13ec66db57caa6b276186a9f9aab850dcc384195af013b02178eaff76d8d64736f6c634300081b00336101e080604052346106cd57613ec5803803809161001d82856106d1565b83398101906040818303126106cd5780516001600160401b0381116106cd5781019160a0838203126106cd576040519060a082016001600160401b038111838210176105df5760405283516001600160401b0381116106cd57816100829186016106f4565b825260208401516001600160401b0381116106cd57816100a39186016106f4565b9360208301948552604081015160408401526060810151606084015260808101519160018060401b0383116106cd576020926100df92016106f4565b60808301819052920151916001600160a01b03831683036106cd5781519351604080519192919081016001600160401b038111828210176105df576040526001815260208101603160f81b815261013587610749565b61012052610142826108cc565b6101405286516020880120918260e05251902080610100524660a0526040519060208201927f8b73c3c69bb8fe3d512ecc4cf759cc79239f7b179b0ffacaa9a75d522b39400f8452604083015260608201524660808201523060a082015260a0815260c0810181811060018060401b038211176105df576040525190206080523060c05261016084815285519095906001600160401b0381116105df57600390815492600184811c941680156106c3575b60208510146106af578190601f94858111610661575b506020908583116001146105fe575f926105f3575b50508160011b915f1990841b1c19161781555b83516001600160401b0381116105df576004948554600181811c911680156105d5575b60208210146104e957908185849311610587575b50602090858311600114610524575f92610519575b50508160011b915f1990841b1c19161784555b6101809586528251916001600160401b038311610506576005938454600181811c911680156104fc575b60208210146104e9579081838695949311610498575b506020918411600114610431575f93610426575b50508260011b925f19911b1c19161790555b604082015160608301511115610418575060606040820151916101a09283520151906101c0918252604051926134c29485610a03863960805185612b7b015260a05185612c47015260c05185612b4c015260e05185612bca01526101005185612bf001526101205185610fa301526101405185610fcd01525184818161021c0152818161045c01528181610abe01528181610f67015281816112050152818161145f015281816115b401528181611ac601528181612308015281816125a70152612ae10152518381816105850152818161065001528181610725015281816109ba01526110f2015251828181610b6e015281816112ba01528181611b4f01526126c8015251818181610b90015281816112dd01528181611b7101526126ea0152f35b6302bcf0ed60e11b5f908152fd5b015191505f806102e4565b5f868152602081209450601f198616905b818110610480575090856001969594939210610467575b50505050811b0190556102f6565b01519060f8845f19921b161c191690555f808080610459565b92946020600181928886015181550196019301610442565b9091929350855f5260205f2083808701881c820192602088106104e0575b94879695949392919401881c01905b8181106104d257506102d0565b5f81558695506001016104c5565b925081926104b6565b602287634e487b7160e01b5f525260245ffd5b90607f16906102ba565b604185634e487b7160e01b5f525260245ffd5b015190505f8061027d565b5f888152602081209350601f198516905b81811061056f5750908460019594939210610558575b505050811b018455610290565b01515f1983861b60f8161c191690555f808061054b565b92936020600181928786015181550195019301610535565b909150865f5260205f208580850160051c820192602086106105cc575b9085949392910160051c01905b8181106105be5750610268565b5f81558493506001016105b1565b925081926105a4565b90607f1690610254565b634e487b7160e01b5f52604160045260245ffd5b015190505f8061021e565b5f858152602081209350601f198516905b8181106106495750908460019594939210610632575b505050811b018155610231565b01515f1983861b60f8161c191690555f8080610625565b9293602060018192878601518155019501930161060f565b909150835f5260205f208580850160051c820192602086106106a6575b9085949392910160051c01905b8181106106985750610209565b5f815584935060010161068b565b9250819261067e565b634e487b7160e01b5f52602260045260245ffd5b93607f16936101f3565b5f80fd5b601f909101601f19168101906001600160401b038211908210176105df57604052565b81601f820112156106cd578051906001600160401b0382116105df5760405192610728601f8401601f1916602001856106d1565b828452602083830101116106cd57815f9260208093018386015e8301015290565b8051602090818110156107bf5750601f825111610781578082519201519080831061077357501790565b825f19910360031b1b161790565b60448260405192839163305a27a960e01b83528160048401528051918291826024860152018484015e5f828201840152601f01601f19168101030190fd5b906001600160401b0382116105df575f54926001938481811c911680156108c2575b838210146106af57601f811161088f575b5081601f841160011461082d57509282939183925f94610822575b50501b915f199060031b1c1916175f5560ff90565b015192505f8061080d565b919083601f1981165f8052845f20945f905b88838310610875575050501061085d575b505050811b015f5560ff90565b01515f1960f88460031b161c191690555f8080610850565b85870151885590960195948501948793509081019061083f565b5f805284601f845f20920160051c820191601f860160051c015b8281106108b75750506107f2565b5f81550185906108a9565b90607f16906107e1565b8051602090818110156108f65750601f825111610781578082519201519080831061077357501790565b9192916001600160401b0381116105df5760019182548381811c911680156109f8575b828210146106af57601f81116109c5575b5080601f83116001146109655750819293945f9261095a575b50505f19600383901b1c191690821b17905560ff90565b015190505f80610943565b90601f19831695845f52825f20925f905b8882106109ae5750508385969710610996575b505050811b01905560ff90565b01515f1960f88460031b161c191690555f8080610989565b808785968294968601518155019501930190610976565b835f5283601f835f20920160051c820191601f850160051c015b8281106109ed57505061092a565b5f81550184906109df565b90607f169061091956fe6080604081815260049182361015610015575f80fd5b60e05f35811c91826301ffc9a714611eee5750816306fdde0314611e3f578163095ea7b314611dc157816316a0b3e014611b1857816318160ddd14611afc57816323b872dd14611a5457816323de665114611a22578163273c1adf14611a0757816330adf81f146119cd578163313ce567146119b25781633644e5151461199657816354fd4d50146118a65781635687f2b81461184757816361f82d571461152c578163627cdcb914611503578163654cf15d146114e1578163679aefce146114c557816370a08231146113f157816372c98186146113ac5781637e148d61146111b45781637ecebe001461117057816381fa807c1461109557816384b0196e14610f8b5781638d928af814610f3b57816395d89b4114610e35578163984de9e814610b2f578163a9059cbb14610a26578163aa6ca80814610961578163abb1dc44146106ca578163b156aa0a146105f7578163b677fa56146105dd578163ce20ece7146105be578163d335b0cf1461052b578163d505accf14610298575063dd62ed3e146101a2575f80fd5b3461028357806003193601126102835760206101bc611f98565b60646101c6611fbb565b9473ffffffffffffffffffffffffffffffffffffffff808097875198899687957f927da10500000000000000000000000000000000000000000000000000000000875230908701521660248501521660448301527f0000000000000000000000000000000000000000000000000000000000000000165afa90811561028f575f91610256575b6020925051908152f35b90506020823d602011610287575b816102716020938361202a565b8101031261028357602091519061024c565b5f80fd5b3d9150610264565b513d5f823e3d90fd5b919050346102835781600319360112610283576102b3611f98565b916102bc611fbb565b90604435936064359160843560ff81168103610283578342116105005761030a8373ffffffffffffffffffffffffffffffffffffffff165f52600260205260405f2080549060018201905590565b91865160208101917f6e71edae12b1b97f4d1f60370fef10105fa2faae0126114a169c64845d6126c9835273ffffffffffffffffffffffffffffffffffffffff9687871695868b850152888a1660608501528b608085015260a084015260c083015260c08252810181811067ffffffffffffffff8211176104ed57926103e7926103de9288958b5251902061039d612b35565b908a51917f190100000000000000000000000000000000000000000000000000000000000083526002830152602282015260c43591604260a4359220612e5d565b90929192612eec565b168181036104c05750505f84959661045860209651988996879586947fe1f21c67000000000000000000000000000000000000000000000000000000008652850160409194939294606082019573ffffffffffffffffffffffffffffffffffffffff80921683521660208201520152565b03927f0000000000000000000000000000000000000000000000000000000000000000165af190811561028f575061048c57005b6020813d6020116104b8575b816104a56020938361202a565b81010312610283576104b69061222a565b005b3d9150610498565b877f4b800e46000000000000000000000000000000000000000000000000000000005f525260245260445ffd5b60418b634e487b7160e01b5f525260245ffd5b83887f62791302000000000000000000000000000000000000000000000000000000005f525260245ffd5b505034610283575f600319360112610283578051917fb45090f9000000000000000000000000000000000000000000000000000000008352309083015260208260248173ffffffffffffffffffffffffffffffffffffffff7f0000000000000000000000000000000000000000000000000000000000000000165afa90811561028f575f91610256576020925051908152f35b8234610283575f600319360112610283576020905164e8d4a510008152f35b8234610283575f60031936011261028357602090515f8152f35b828434610283575f600319360112610283578151907f535cfd8a00000000000000000000000000000000000000000000000000000000825230908201525f8160248173ffffffffffffffffffffffffffffffffffffffff7f0000000000000000000000000000000000000000000000000000000000000000165afa9081156106c05791610698925f9261069c575b50519182916020835260208301906121a1565b0390f35b6106b99192503d805f833e6106b1818361202a565b8101906123d6565b9083610685565b82513d5f823e3d90fd5b505034610283575f6003193601126102835780517f67e0e076000000000000000000000000000000000000000000000000000000008152308382015273ffffffffffffffffffffffffffffffffffffffff916024905f8383817f000000000000000000000000000000000000000000000000000000000000000088165afa938415610957575f955f945f945f97610803575b5050509061077b95949392918151968796608088526080880190612158565b6020878203818901528080875193848152019601925f905b8382106107bf57898803868b015289806106988b6107b18c8c6121a1565b9083820360608501526121a1565b91849899506060869798600193959783975180516107dc816121d4565b83528685820151168584015201511515898201520198019201899897969594929391610793565b94509450945094503d805f853e61081a818561202a565b8301926080818503126102835780519367ffffffffffffffff9485811161028357816108479184016129a8565b936020808401518781116102835784019083601f830112156102835781519261086f8461206b565b9961087c88519b8c61202a565b848b52828b019183606080970286010194878611610283579b9c9b8401925b8584106108e457505050505050508282015185811161028357816108c0918401612375565b946060830151908111610283576108d79201612375565b91949291935f808061075c565b86849d9e9d890312610283578951908782018d811183821017610945578b528451906002821015610283578f91835286860151918216820361028357828792838b9501526109338d880161222a565b8d8201528152019301929c9b9c61089b565b83604186634e487b7160e01b5f52525ffd5b50513d5f823e3d90fd5b828434610283575f600319360112610283578151907fca4f280300000000000000000000000000000000000000000000000000000000825230908201525f8160248173ffffffffffffffffffffffffffffffffffffffff7f0000000000000000000000000000000000000000000000000000000000000000165afa9081156106c05791610698925f92610a02575b5051918291602083526020830190612158565b610a1f9192503d805f833e610a17818361202a565b810190612a26565b90836109ef565b5050346102835780600319360112610283576020610aa492610a46611f98565b83517fbeabacc80000000000000000000000000000000000000000000000000000000081523392810192835273ffffffffffffffffffffffffffffffffffffffff909116602083015260243560408301529384918291606090910190565b03815f73ffffffffffffffffffffffffffffffffffffffff7f0000000000000000000000000000000000000000000000000000000000000000165af1801561095757610af5575b6020905160018152f35b6020823d602011610b27575b81610b0e6020938361202a565b8101031261028357610b2160209261222a565b50610aeb565b3d9150610b01565b505034610283578060031936011261028357813567ffffffffffffffff811161028357610b5f9036908401612083565b602435906002821015610283577f0000000000000000000000000000000000000000000000000000000000000000917f000000000000000000000000000000000000000000000000000000000000000094610bb9826121d4565b600182811492908315610e2f576003925b610bd3836121d4565b8415610e275781965b610be5846121d4565b8515610e20576002965b610bfa8b8388613407565b95670de0b6b3a7640000968703968711610e0d578b610c1883612295565b5190610c249183613407565b83610c2e84612274565b5190610c3a918d613407565b610c43916122a5565b98610c4d83612274565b51610c5784612295565b51610c62918d613407565b9c8b8580610c6f87612274565b51610c7988612274565b51610c849185613407565b90610c8f9184613407565b90610c9a9183613407565b95610ca486612274565b51610cae87612295565b51610cb99184613407565b610cc292613407565b9b7f7fffffffffffffffffffffffffffffffffffffffffffffffffffffffffffffff9c8d81168103610dfa5792610d338380610d2d610d3f9895610d12610d39988f9a610d449e9d9b1b89613407565b98610d26610d1f82612295565b5191612295565b5191613407565b93613407565b91613407565b926122a5565b6122a5565b94610d4e846121d4565b8015610def57610d5e83946121d4565b15610de8576003965b84168403610dd5577f3fffffffffffffffffffffffffffffffffffffffffffffffffffffffffffffff89168903610dd55750610dc3610dce9694610dbd8560209b9895610dc897610dbd961b9960021b90613407565b906122a5565b612f97565b90613407565b9051908152f35b601190634e487b7160e01b5f525260245ffd5b8096610d67565b610d5e6002946121d4565b601188634e487b7160e01b5f525260245ffd5b601184634e487b7160e01b5f525260245ffd5b8296610bef565b600296610bdc565b82610bca565b828434610283575f60031936011261028357815191825f8354610e57816121f2565b90818452602095600191876001821691825f14610ef6575050600114610e9a575b5050506106989291610e8b91038561202a565b51928284938452830190611f55565b5f90815286935091907f8a35acfbc15ff81a39ae7d344fd709f28e8600b4aa8c65c6b64bfe7fe36bd19b5b828410610ede5750505082010181610e8b610698610e78565b8054848a018601528895508794909301928101610ec5565b7fffffffffffffffffffffffffffffffffffffffffffffffffffffffffffffff00168782015293151560051b86019093019350849250610e8b91506106989050610e78565b8234610283575f600319360112610283576020905173ffffffffffffffffffffffffffffffffffffffff7f0000000000000000000000000000000000000000000000000000000000000000168152f35b90508234610283575f60031936011261028357610fc77f0000000000000000000000000000000000000000000000000000000000000000612c6d565b92610ff17f0000000000000000000000000000000000000000000000000000000000000000612d9f565b815192602084019084821067ffffffffffffffff83111761108257509161106291610698949382525f845261105582519788977f0f0000000000000000000000000000000000000000000000000000000000000089528060208a0152880190611f55565b9186830390870152611f55565b904660608501523060808501525f60a085015283820360c08501526121a1565b604190634e487b7160e01b5f525260245ffd5b828434610283575f600319360112610283578151907ff29486a100000000000000000000000000000000000000000000000000000000825230908201526101a090818160248173ffffffffffffffffffffffffffffffffffffffff7f0000000000000000000000000000000000000000000000000000000000000000165afa918215611166575f92611139575b505060608282015191015182519182526020820152f35b6111589250803d1061115f575b611150818361202a565b810190612443565b8280611122565b503d611146565b83513d5f823e3d90fd5b82346102835760206003193601126102835760209073ffffffffffffffffffffffffffffffffffffffff6111a2611f98565b165f5260028252805f20549051908152f35b828434610283575f600319360112610283578151906111d282611fde565b60608252602082019060608252838301915f835260608401915f835273ffffffffffffffffffffffffffffffffffffffff7f000000000000000000000000000000000000000000000000000000000000000016908651907fca4f280300000000000000000000000000000000000000000000000000000000825230818301525f82602481865afa80156113a2575f928391611388575b50875260248851809481937f7e361bde00000000000000000000000000000000000000000000000000000000835230908301525afa90811561137e579561134a9291611319975f9161135b575b5082527f000000000000000000000000000000000000000000000000000000000000000085527f00000000000000000000000000000000000000000000000000000000000000008452805196879660208852516080602089015260a0880190612158565b9151907fffffffffffffffffffffffffffffffffffffffffffffffffffffffffffffffe08784030190870152612125565b915160608401525160808301520390f35b61137791503d805f833e61136f818361202a565b8101906123ff565b50886112b5565b86513d5f823e3d90fd5b61139c91503d8085833e610a17818361202a565b89611268565b88513d5f823e3d90fd5b82843461028357600319926020843601126102835781359367ffffffffffffffff851161028357843603011261028357602092610dce916113eb612aca565b0161263e565b8284346102835760209182600319360112610283578261140f611f98565b604473ffffffffffffffffffffffffffffffffffffffff9485855196879485937ff7888aec00000000000000000000000000000000000000000000000000000000855230908501521660248301527f0000000000000000000000000000000000000000000000000000000000000000165afa918215610957575f92611496575b5051908152f35b9091508281813d83116114be575b6114ae818361202a565b810103126102835751908361148f565b503d6114a4565b8234610283575f60031936011261028357602090610dce61255e565b8234610283575f6003193601126102835760209051670de0b6b3a76400008152f35b34610283575f60031936011261028357335f908152600260205260409020805460018101909155005b838334610283575f60031936011261028357805190610100928383019483861067ffffffffffffffff871117611834575f9583526060845260209384810160608152848201948886526060830189815260808401918a835260a08501938b855260c08601958c8752878101988d8a52602473ffffffffffffffffffffffffffffffffffffffff7f0000000000000000000000000000000000000000000000000000000000000000169e8f8651928380927f535cfd8a00000000000000000000000000000000000000000000000000000000825230878301525afa9081156117f4578f6024925f92839161181a575b5085528651928380927f7e361bde00000000000000000000000000000000000000000000000000000000825230878301525afa9081156117f4578f6024928f925f916117fe575b5086528651928380927fb45090f900000000000000000000000000000000000000000000000000000000825230878301525afa9081156117f4575f916117c7575b508b526116ad6122bf565b85526116b761255e565b865283519d8e917ff29486a100000000000000000000000000000000000000000000000000000000835230908301526101a09e8f91815a91602492fa9081156117bd578d9e5f9e9c9d9e926117a0575b505088810151151587528a810151151588526101208091015115158a5283519d8d8f9e938f948552519301528c0161173e91612125565b9051918b82037fffffffffffffffffffffffffffffffffffffffffffffffffffffffffffffffe001908c015261177391612125565b975160608a01525160808901525160a088015251151560c087015251151590850152511515908301520390f35b6117b69250803d1061115f57611150818361202a565b8e80611707565b84513d5f823e3d90fd5b90508c81813d83116117ed575b6117de818361202a565b8101031261028357518f6116a2565b503d6117d4565b85513d5f823e3d90fd5b61181291503d805f833e61136f818361202a565b90505f611661565b61182e91503d8085833e6106b1818361202a565b5f61161a565b604182634e487b7160e01b5f525260245ffd5b82346102835760207f8c5be1e5ebec7d5bd14f71427d1e84f3dd0314c0f7b2291e5b200ac8c7c3b925611879366120e3565b939194611884612aca565b5193845273ffffffffffffffffffffffffffffffffffffffff908116941692a3005b8234610283575f6003193601126102835780516005549091825f6118c9846121f2565b808352602094600190866001821691825f146119565750506001146118fb575b50506106989291610e8b91038561202a565b9085925060055f527f036b6384b5eca791c62761152d0c79bb0604c104a5fb6f4eb0703f3154bb3db0915f925b82841061193e5750505082010181610e8b6118e9565b8054848a018601528895508794909301928101611928565b7fffffffffffffffffffffffffffffffffffffffffffffffffffffffffffffff00168682015292151560051b85019092019250839150610e8b90506118e9565b8234610283575f60031936011261028357602090610dce612b35565b8234610283575f600319360112610283576020905160128152f35b8234610283575f60031936011261028357602090517f6e71edae12b1b97f4d1f60370fef10105fa2faae0126114a169c64845d6126c98152f35b8234610283575f60031936011261028357602090515f198152f35b82346102835760207fddf252ad1be2c89b69c2b068fc378daa952ba7f163c4a11628f55a4df523b3ef611879366120e3565b5050346102835760205f6084611a69366120e3565b86517f15dacbea000000000000000000000000000000000000000000000000000000008152339881019890985273ffffffffffffffffffffffffffffffffffffffff928316602489015290821660448801526064870152859283917f0000000000000000000000000000000000000000000000000000000000000000165af1801561095757610af5576020905160018152f35b8234610283575f60031936011261028357602090610dce6122bf565b50503461028357606060031936011261028357813567ffffffffffffffff811161028357611b499036908401612083565b916024927f0000000000000000000000000000000000000000000000000000000000000000937f000000000000000000000000000000000000000000000000000000000000000091611b9b83876130fd565b670de0b6b3a7640000908103818111611daf57611bd7611bc486611bbe86612295565b516130fd565b610dbd8a611bd187612274565b51612a4c565b611bf4611be385612274565b51611bed86612295565b5190612a4c565b90611c188a611c1381611c13611c098a612274565b51611bed8b612274565b612a4c565b611c328b611c13611c2889612274565b51611bed8a612295565b907f7fffffffffffffffffffffffffffffffffffffffffffffffffffffffffffffff918281168103611d9d5790610d3f88610d398c8a611c92611c8b611c7e84611c999a60011b6130fd565b95611bed610d1f82612295565b9280612261565b04906130fd565b9084168403611d8b577f3fffffffffffffffffffffffffffffffffffffffffffffffffffffffffffffff83168303611d8b5791611cf2611c1392610dbd610dc3611cf79796610dbd604435988060011b9760021b612a4c565b6130fd565b93611d028580612261565b9582860290868204841487151715611d79575097611d25611d2b9260209a612a6e565b95612261565b049135611d5e5792611d4d611d5392611d46610dce96612295565b51906122a5565b90612a8c565b6122b2565b51908152f35b92611d4d611d539293611d46611d7396612274565b90611d58565b60118691634e487b7160e01b5f52525ffd5b8660118a634e487b7160e01b5f52525ffd5b8860118c634e487b7160e01b5f52525ffd5b83601187634e487b7160e01b5f52525ffd5b5050346102835780600319360112610283576020610aa492611de1611f98565b83517fe1f21c670000000000000000000000000000000000000000000000000000000081523392810192835273ffffffffffffffffffffffffffffffffffffffff909116602083015260243560408301529384918291606090910190565b8234610283575f6003193601126102835780516003549091825f611e62846121f2565b808352602094600190866001821691825f14611956575050600114611e935750506106989291610e8b91038561202a565b9085925060035f527fc2575a0e9e593c00f959f8c92f12db2869c3395a3b0502d05e2516446f71f85b915f925b828410611ed65750505082010181610e8b6118e9565b8054848a018601528895508794909301928101611ec0565b84346102835760206003193601126102835735907fffffffff000000000000000000000000000000000000000000000000000000008216809203610283577f01ffc9a700000000000000000000000000000000000000000000000000000000602092148152f35b907fffffffffffffffffffffffffffffffffffffffffffffffffffffffffffffffe0601f602080948051918291828752018686015e5f8582860101520116010190565b6004359073ffffffffffffffffffffffffffffffffffffffff8216820361028357565b6024359073ffffffffffffffffffffffffffffffffffffffff8216820361028357565b6080810190811067ffffffffffffffff821117611ffa57604052565b634e487b7160e01b5f52604160045260245ffd5b6040810190811067ffffffffffffffff821117611ffa57604052565b90601f7fffffffffffffffffffffffffffffffffffffffffffffffffffffffffffffffe0910116810190811067ffffffffffffffff821117611ffa57604052565b67ffffffffffffffff8111611ffa5760051b60200190565b9080601f8301121561028357602090823561209d8161206b565b936120ab604051958661202a565b81855260208086019260051b82010192831161028357602001905b8282106120d4575050505090565b813581529083019083016120c6565b60031960609101126102835773ffffffffffffffffffffffffffffffffffffffff90600435828116810361028357916024359081168103610283579060443590565b9081518082526020808093019301915f5b828110612144575050505090565b835185529381019392810192600101612136565b9081518082526020808093019301915f5b828110612177575050505090565b835173ffffffffffffffffffffffffffffffffffffffff1685529381019392810192600101612169565b9081518082526020808093019301915f5b8281106121c0575050505090565b8351855293810193928101926001016121b2565b600211156121de57565b634e487b7160e01b5f52602160045260245ffd5b90600182811c92168015612220575b602083101461220c57565b634e487b7160e01b5f52602260045260245ffd5b91607f1691612201565b5190811515820361028357565b9060058202918083046005149015171561224d57565b634e487b7160e01b5f52601160045260245ffd5b8181029291811591840414171561224d57565b8051156122815760200190565b634e487b7160e01b5f52603260045260245ffd5b8051600110156122815760400190565b9190820180921161224d57565b9190820391821161224d57565b6040517fe4dc2aa400000000000000000000000000000000000000000000000000000000815230600482015260208160248173ffffffffffffffffffffffffffffffffffffffff7f0000000000000000000000000000000000000000000000000000000000000000165afa90811561236a575f9161233b575090565b90506020813d602011612362575b816123566020938361202a565b81010312610283575190565b3d9150612349565b6040513d5f823e3d90fd5b9080601f83011215610283578151906020916123908161206b565b9361239e604051958661202a565b81855260208086019260051b82010192831161028357602001905b8282106123c7575050505090565b815181529083019083016123b9565b9060208282031261028357815167ffffffffffffffff8111610283576123fc9201612375565b90565b9190916040818403126102835780519267ffffffffffffffff93848111610283578161242c918401612375565b936020830151908111610283576123fc9201612375565b6101a0918190038281126102835760405192610140928385019285841067ffffffffffffffff851117611ffa5760809084604052126102835761248583611fde565b61248e8161222a565b835261249c6020820161222a565b9261016093848701526124b16040830161222a565b9261018093848801526124c66060840161222a565b9087015285526080810151602086015260a0810151604086015260c0810151606086015260e081015164ffffffffff811681036102835760808601526101008082015163ffffffff81168103610283576125579461254d9160a08901526125416101209761253589870161222a565b60c08b0152850161222a565b60e0890152830161222a565b908601520161222a565b9082015290565b6040517f4f037ee700000000000000000000000000000000000000000000000000000000815230600482015260208160248173ffffffffffffffffffffffffffffffffffffffff7f0000000000000000000000000000000000000000000000000000000000000000165afa90811561236a575f9161233b575090565b9035907fffffffffffffffffffffffffffffffffffffffffffffffffffffffffffffffe181360301821215610283570180359067ffffffffffffffff821161028357602001918160051b3603831361028357565b91908110156122815760051b0190565b606081013590811561267761266c612664604085019561265e87876125da565b9061262e565b3594846125da565b60808501359161262e565b35916040516060810181811067ffffffffffffffff821117611ffa5760405260028152604036602083013782156129a257845b6126b382612274565b52821561299c57835b6126c582612295565b527f0000000000000000000000000000000000000000000000000000000000000000927f00000000000000000000000000000000000000000000000000000000000000009161271483866133e3565b94670de0b6b3a76400009586039186831161224d5761275a61273f8661273984612295565b516133e3565b886127538561274d86612274565b51612261565b04906122a5565b928761277961276884612274565b5161277285612295565b5190612261565b0490886127a2858261279c828261279c6127928b612274565b516127728c612274565b04612261565b0492896127c0868261279c6127b686612274565b5161277287612295565b04937f7fffffffffffffffffffffffffffffffffffffffffffffffffffffffffffffff94858116810361224d5761282692610d398d6128156128088e610d3f9660011b6133e3565b93612772610d1f82612295565b046128208d80612a4c565b906133e3565b928116810361224d577f3fffffffffffffffffffffffffffffffffffffffffffffffffffffffffffffff8216820361224d578894610dbd610dc361287e9588612753866128799760011b9860021b612261565b6133e3565b921561297057612893839461289993946130fd565b93612261565b04915b80356002811015610283576128b0816121d4565b61293157926128de8195966128d96128d260206128e5979801359586936122a5565b96896122a5565b612261565b04926122a5565b9082810292818404149015171561224d576128ff91612a6e565b9081116129095790565b7f03ba4186000000000000000000000000000000000000000000000000000000005f5260045ffd5b6020919350013590838211612909578161295e6129649261295861296a966123fc996122a5565b966122a5565b94612a4c565b926122b2565b906130fd565b61297b915082612a4c565b918482029180830486149015171561224d5761299691612a6e565b9161289c565b846126bc565b836126aa565b9080601f83011215610283578151906020916129c38161206b565b936129d1604051958661202a565b81855260208086019260051b82010192831161028357602001905b8282106129fa575050505090565b815173ffffffffffffffffffffffffffffffffffffffff811681036102835781529083019083016129ec565b9060208282031261028357815167ffffffffffffffff8111610283576123fc92016129a8565b90612a5691612261565b6001670de0b6b3a76400005f19830104019015150290565b8115612a78570490565b634e487b7160e01b5f52601260045260245ffd5b908015612aa2575f198201046001019015150290565b7f0a0c22c7000000000000000000000000000000000000000000000000000000005f5260045ffd5b73ffffffffffffffffffffffffffffffffffffffff7f0000000000000000000000000000000000000000000000000000000000000000163303612b0957565b7f089676d5000000000000000000000000000000000000000000000000000000005f523360045260245ffd5b73ffffffffffffffffffffffffffffffffffffffff7f000000000000000000000000000000000000000000000000000000000000000016301480612c44575b15612b9d577f000000000000000000000000000000000000000000000000000000000000000090565b60405160208101907f8b73c3c69bb8fe3d512ecc4cf759cc79239f7b179b0ffacaa9a75d522b39400f82527f000000000000000000000000000000000000000000000000000000000000000060408201527f000000000000000000000000000000000000000000000000000000000000000060608201524660808201523060a082015260a0815260c0810181811067ffffffffffffffff821117611ffa5760405251902090565b507f00000000000000000000000000000000000000000000000000000000000000004614612b74565b60ff8114612cc15760ff811690601f8211612c995760405191612c8f8361200e565b8252602082015290565b7fb3512b0c000000000000000000000000000000000000000000000000000000005f5260045ffd5b506040515f815f5491612cd3836121f2565b80835292602090600190818116908115612d5c5750600114612cfe575b50506123fc9250038261202a565b9150925f80527f290decd9548b62a8d60345a988386fc84ba6bc95484008f6362f93160ef3e563935f925b828410612d4457506123fc9450505081016020015f80612cf0565b85548785018301529485019486945092810192612d29565b9050602093506123fc9592507fffffffffffffffffffffffffffffffffffffffffffffffffffffffffffffff0091501682840152151560051b8201015f80612cf0565b60ff8114612dc15760ff811690601f8211612c995760405191612c8f8361200e565b506040515f81600191600154612dd6816121f2565b8084529360209160018116908115612d5c5750600114612dfe5750506123fc9250038261202a565b91509260015f527fb10e2d527612073b26eecdfd717e6a320cf44b4afac2b0732d9fcbe2b7fa0cf6935f925b828410612e4557506123fc9450505081016020015f80612cf0565b85548785018301529485019486945092810192612e2a565b91907f7fffffffffffffffffffffffffffffff5d576e7357a4501ddfe92f46681b20a08411612ee1579160209360809260ff5f9560405194855216868401526040830152606082015282805260015afa1561236a575f5173ffffffffffffffffffffffffffffffffffffffff811615612ed757905f905f90565b505f906001905f90565b5050505f9160039190565b60048110156121de5780612efe575050565b60018103612f2e577ff645eedf000000000000000000000000000000000000000000000000000000005f5260045ffd5b60028103612f6257507ffce698f7000000000000000000000000000000000000000000000000000000005f5260045260245ffd5b600314612f6c5750565b7fd78bce0c000000000000000000000000000000000000000000000000000000005f5260045260245ffd5b80156130f857612fa68161312e565b670de0b6b3a76400009081830290838204830361224d57612fce81610dbd6130299385612a6e565b91610dbd613020613014613008612ffc612ff0600198891c610dbd8189612a6e565b881c610dbd8188612a6e565b871c610dbd8187612a6e565b861c610dbd8186612a6e565b851c610dbd8185612a6e565b841c8092612a6e565b811c92826130378580612261565b049161304285612237565b9061305a5f19928287858301040190151502846122a5565b84111594856130cf575b5050505050156130715790565b60646040517f08c379a000000000000000000000000000000000000000000000000000000000815260206004820152600c60248201527f5f73717274204641494c454400000000000000000000000000000000000000006044820152fd5b6130ec9495506130de87612237565b8015159301040102906122b2565b11155f80808080613064565b505f90565b908015612aa257670de0b6b3a76400009182810292818404149015171561224d576001905f19830104019015150290565b670de0b6b3a7640000808210613252578091045f90700100000000000000000000000000000000811015613246575b68010000000000000000811015613231575b64010000000081101561321c575b62010000811015613207575b6101008110156131f2575b60108110156131dd575b600411156131bd575b600182821b9283831c14911b15171561224d5790565b60018101809111156131a757634e487b7160e01b5f52601160045260245ffd5b60041c906002810180911161224d579061319e565b60081c906004810180911161224d5790613194565b60101c906008810180911161224d5790613189565b60201c906010810180911161224d579061317d565b60401c906020810180911161224d579061316f565b6040915060801c61315d565b50600a8111156133da5760648111156133d0576103e88111156133c6576127108111156133bc57620186a08111156133b257620f42408111156133a8576298968081111561339d576305f5e10081111561339257633b9aca00811115613387576402540be40081111561337c5764174876e8008111156133705764e8d4a51000811115613364576509184e72a00081111561335857655af3107a400081111561334c5766038d7ea4c6800081111561334057662386f26fc100008111156133335767016345785d8a00008111156133265790565b50670463777a4d8c892d90565b5067016345785d8a000090565b50667058bf6e27a75190565b50662386f26fc1000090565b50660b3c13249d90bb90565b5066038d7ea4c6800090565b5066011f9b83a95b4590565b50655af3107a400090565b50651cc2c05dbc5390565b506509184e72a00090565b506502e0466fc60890565b5064e8d4a5100090565b506449a0a4c70090565b5064174876e80090565b5064075cdd471990565b506402540be40090565b5063bc7c871c90565b90670de0b6b3a76400009182810292818404149015171561224d576123fc91612a6e565b80600414613481578060031461345c57806002146134515760011461343a57634e487b7160e01b5f52605160045260245ffd5b670de0b6b3a76400009161344d91612261565b0490565b50906123fc91612a4c565b5090670de0b6b3a76400009182810292818404149015171561224d576123fc91612a6e565b50906123fc916130fd56fea2646970667358221220466e2b7df43b8dfdee2b6a3f0fc43b3b210c10bfebb1bcd521c025bce8e2fcec64736f6c634300081b0033",
  "linkReferences": {},
  "deployedLinkReferences": {}
}