{
  "_format": "hh-sol-artifact-1",
  "contractName": "Gyro2CLPPoolFactory",
  "sourceName": "contracts/Gyro2CLPPoolFactory.sol",
  "abi": [
    {
      "inputs": [
        {
          "internalType": "contract IVault",
          "name": "vault",
          "type": "address"
        },
        {
          "internalType": "uint32",
          "name": "pauseWindowDuration",
          "type": "uint32"
        },
        {
          "internalType": "string",
          "name": "factoryVersion",
          "type": "string"
        },
        {
          "internalType": "string",
          "name": "poolVersion",
          "type": "string"
        }
      ],
      "stateMutability": "nonpayable",
      "type": "constructor"
    },
    {
      "inputs": [],
      "name": "CodeDeploymentFailed",
      "type": "error"
    },
    {
      "inputs": [],
      "name": "Create2EmptyBytecode",
      "type": "error"
    },
    {
      "inputs": [],
      "name": "Create2FailedDeployment",
      "type": "error"
    },
    {
      "inputs": [
        {
          "internalType": "uint256",
          "name": "balance",
          "type": "uint256"
        },
        {
          "internalType": "uint256",
          "name": "needed",
          "type": "uint256"
        }
      ],
      "name": "Create2InsufficientBalance",
      "type": "error"
    },
    {
      "inputs": [],
      "name": "Disabled",
      "type": "error"
    },
    {
      "inputs": [],
      "name": "IndexOutOfBounds",
      "type": "error"
    },
    {
      "inputs": [],
      "name": "PoolPauseWindowDurationOverflow",
      "type": "error"
    },
    {
      "inputs": [],
      "name": "SenderNotAllowed",
      "type": "error"
    },
    {
      "inputs": [],
      "name": "StandardPoolWithCreator",
      "type": "error"
    },
    {
      "inputs": [],
      "name": "SupportsOnlyTwoTokens",
      "type": "error"
    },
    {
      "anonymous": false,
      "inputs": [],
      "name": "FactoryDisabled",
      "type": "event"
    },
    {
      "anonymous": false,
      "inputs": [
        {
          "indexed": true,
          "internalType": "address",
          "name": "pool",
          "type": "address"
        }
      ],
      "name": "PoolCreated",
      "type": "event"
    },
    {
      "inputs": [
        {
          "internalType": "string",
          "name": "name",
          "type": "string"
        },
        {
          "internalType": "string",
          "name": "symbol",
          "type": "string"
        },
        {
          "components": [
            {
              "internalType": "contract IERC20",
              "name": "token",
              "type": "address"
            },
            {
              "internalType": "enum TokenType",
              "name": "tokenType",
              "type": "uint8"
            },
            {
              "internalType": "contract IRateProvider",
              "name": "rateProvider",
              "type": "address"
            },
            {
              "internalType": "bool",
              "name": "paysYieldFees",
              "type": "bool"
            }
          ],
          "internalType": "struct TokenConfig[]",
          "name": "tokens",
          "type": "tuple[]"
        },
        {
          "internalType": "uint256",
          "name": "sqrtAlpha",
          "type": "uint256"
        },
        {
          "internalType": "uint256",
          "name": "sqrtBeta",
          "type": "uint256"
        },
        {
          "components": [
            {
              "internalType": "address",
              "name": "pauseManager",
              "type": "address"
            },
            {
              "internalType": "address",
              "name": "swapFeeManager",
              "type": "address"
            },
            {
              "internalType": "address",
              "name": "poolCreator",
              "type": "address"
            }
          ],
          "internalType": "struct PoolRoleAccounts",
          "name": "roleAccounts",
          "type": "tuple"
        },
        {
          "internalType": "uint256",
          "name": "swapFeePercentage",
          "type": "uint256"
        },
        {
          "internalType": "address",
          "name": "poolHooksContract",
          "type": "address"
        },
        {
          "internalType": "bool",
          "name": "enableDonation",
          "type": "bool"
        },
        {
          "internalType": "bool",
          "name": "disableUnbalancedLiquidity",
          "type": "bool"
        },
        {
          "internalType": "bytes32",
          "name": "salt",
          "type": "bytes32"
        }
      ],
      "name": "create",
      "outputs": [
        {
          "internalType": "address",
          "name": "pool",
          "type": "address"
        }
      ],
      "stateMutability": "nonpayable",
      "type": "function"
    },
    {
      "inputs": [],
      "name": "disable",
      "outputs": [],
      "stateMutability": "nonpayable",
      "type": "function"
    },
    {
      "inputs": [
        {
          "internalType": "bytes4",
          "name": "selector",
          "type": "bytes4"
        }
      ],
      "name": "getActionId",
      "outputs": [
        {
          "internalType": "bytes32",
          "name": "",
          "type": "bytes32"
        }
      ],
      "stateMutability": "view",
      "type": "function"
    },
    {
      "inputs": [],
      "name": "getAuthorizer",
      "outputs": [
        {
          "internalType": "contract IAuthorizer",
          "name": "",
          "type": "address"
        }
      ],
      "stateMutability": "view",
      "type": "function"
    },
    {
      "inputs": [],
      "name": "getCreationCode",
      "outputs": [
        {
          "internalType": "bytes",
          "name": "",
          "type": "bytes"
        }
      ],
      "stateMutability": "view",
      "type": "function"
    },
    {
      "inputs": [],
      "name": "getCreationCodeContracts",
      "outputs": [
        {
          "internalType": "address",
          "name": "contractA",
          "type": "address"
        },
        {
          "internalType": "address",
          "name": "contractB",
          "type": "address"
        }
      ],
      "stateMutability": "view",
      "type": "function"
    },
    {
      "inputs": [],
      "name": "getDefaultLiquidityManagement",
      "outputs": [
        {
          "components": [
            {
              "internalType": "bool",
              "name": "disableUnbalancedLiquidity",
              "type": "bool"
            },
            {
              "internalType": "bool",
              "name": "enableAddLiquidityCustom",
              "type": "bool"
            },
            {
              "internalType": "bool",
              "name": "enableRemoveLiquidityCustom",
              "type": "bool"
            },
            {
              "internalType": "bool",
              "name": "enableDonation",
              "type": "bool"
            }
          ],
          "internalType": "struct LiquidityManagement",
          "name": "liquidityManagement",
          "type": "tuple"
        }
      ],
      "stateMutability": "pure",
      "type": "function"
    },
    {
      "inputs": [],
      "name": "getDefaultPoolHooksContract",
      "outputs": [
        {
          "internalType": "address",
          "name": "",
          "type": "address"
        }
      ],
      "stateMutability": "pure",
      "type": "function"
    },
    {
      "inputs": [
        {
          "internalType": "bytes",
          "name": "constructorArgs",
          "type": "bytes"
        },
        {
          "internalType": "bytes32",
          "name": "salt",
          "type": "bytes32"
        }
      ],
      "name": "getDeploymentAddress",
      "outputs": [
        {
          "internalType": "address",
          "name": "",
          "type": "address"
        }
      ],
      "stateMutability": "view",
      "type": "function"
    },
    {
      "inputs": [],
      "name": "getNewPoolPauseWindowEndTime",
      "outputs": [
        {
          "internalType": "uint32",
          "name": "",
          "type": "uint32"
        }
      ],
      "stateMutability": "view",
      "type": "function"
    },
    {
      "inputs": [],
      "name": "getOriginalPauseWindowEndTime",
      "outputs": [
        {
          "internalType": "uint32",
          "name": "",
          "type": "uint32"
        }
      ],
      "stateMutability": "view",
      "type": "function"
    },
    {
      "inputs": [],
      "name": "getPauseWindowDuration",
      "outputs": [
        {
          "internalType": "uint32",
          "name": "",
          "type": "uint32"
        }
      ],
      "stateMutability": "view",
      "type": "function"
    },
    {
      "inputs": [],
      "name": "getPoolCount",
      "outputs": [
        {
          "internalType": "uint256",
          "name": "",
          "type": "uint256"
        }
      ],
      "stateMutability": "view",
      "type": "function"
    },
    {
      "inputs": [],
      "name": "getPoolVersion",
      "outputs": [
        {
          "internalType": "string",
          "name": "",
          "type": "string"
        }
      ],
      "stateMutability": "view",
      "type": "function"
    },
    {
      "inputs": [],
      "name": "getPools",
      "outputs": [
        {
          "internalType": "address[]",
          "name": "",
          "type": "address[]"
        }
      ],
      "stateMutability": "view",
      "type": "function"
    },
    {
      "inputs": [
        {
          "internalType": "uint256",
          "name": "start",
          "type": "uint256"
        },
        {
          "internalType": "uint256",
          "name": "count",
          "type": "uint256"
        }
      ],
      "name": "getPoolsInRange",
      "outputs": [
        {
          "internalType": "address[]",
          "name": "pools",
          "type": "address[]"
        }
      ],
      "stateMutability": "view",
      "type": "function"
    },
    {
      "inputs": [],
      "name": "getVault",
      "outputs": [
        {
          "internalType": "contract IVault",
          "name": "",
          "type": "address"
        }
      ],
      "stateMutability": "view",
      "type": "function"
    },
    {
      "inputs": [],
      "name": "isDisabled",
      "outputs": [
        {
          "internalType": "bool",
          "name": "",
          "type": "bool"
        }
      ],
      "stateMutability": "view",
      "type": "function"
    },
    {
      "inputs": [
        {
          "internalType": "address",
          "name": "pool",
          "type": "address"
        }
      ],
      "name": "isPoolFromFactory",
      "outputs": [
        {
          "internalType": "bool",
          "name": "",
          "type": "bool"
        }
      ],
      "stateMutability": "view",
      "type": "function"
    },
    {
      "inputs": [],
      "name": "version",
      "outputs": [
        {
          "internalType": "string",
          "name": "",
          "type": "string"
        }
      ],
      "stateMutability": "view",
      "type": "function"
    }
  ],
  "bytecode": "0x610180604052346100aa5761001e61001561013d565b92919091610385565b60405161182c90816105c5823960805181818161058401526113e8015260a05181611372015260c0518181816105a8015261140d015260e05181611393015261010051816112cd0152610120518181816106ba01528181610d2301528181610db7015281816110c2015261157b01526101405181610c83015261016051818181610e58015261133a0152f35b5f80fd5b634e487b7160e01b5f52604160045260245ffd5b6040519190601f01601f191682016001600160401b038111838210176100e757604052565b6100ae565b81601f820112156100aa578051906001600160401b0382116100e75761011b601f8301601f19166020016100c2565b92828452602083830101116100aa57815f9260208093018386015e8301015290565b615cb6908138038061014e816100c2565b9384398201906080838303126100aa578251906001600160a01b03821682036100aa5760208401519363ffffffff851685036100aa5760408101516001600160401b0394908581116100aa57816101a69184016100ec565b9460608301519081116100aa576101bd92016100ec565b9193929190565b90600182811c921680156101f2575b60208310146101de57565b634e487b7160e01b5f52602260045260245ffd5b91607f16916101d3565b601f8111610208575050565b60035f5260205f20906020601f840160051c83019310610242575b601f0160051c01905b818110610237575050565b5f815560010161022c565b9091508190610223565b601f8111610258575050565b60045f5260205f20906020601f840160051c83019310610292575b601f0160051c01905b818110610287575050565b5f815560010161027c565b9091508190610273565b80519091906001600160401b0381116100e7576102c3816102be6004546101c4565b61024c565b602080601f8311600114610304575081906102f493945f926102f9575b50508160011b915f199060031b1c19161790565b600455565b015190505f806102e0565b60045f52601f198316949091907f8a35acfbc15ff81a39ae7d344fd709f28e8600b4aa8c65c6b64bfe7fe36bd19b925f905b87821061036d575050836001959610610355575b505050811b01600455565b01515f1960f88460031b161c191690555f808061034a565b80600185968294968601518155019501930190610336565b929192613ec5610397602082016100c2565b90808252611df160208301398051908160011c918260a05282810392818411610432578360e0528083526103ca83610535565b60805282019182519383526103de83610584565b60c052525230610100526101205263ffffffff926103fe84831642610446565b93808511610423576104219461041c93610140521661016052610458565b61029c565b565b6368755a1160e01b5f5260045ffd5b634e487b7160e01b5f52601160045260245ffd5b9190820180921161045357565b610432565b80519091906001600160401b0381116100e75761047f8161047a6003546101c4565b6101fc565b602080601f83116001146104b4575081906104af93945f926102f95750508160011b915f199060031b1c19161790565b600355565b60035f52601f198316949091907fc2575a0e9e593c00f959f8c92f12db2869c3395a3b0502d05e2516446f71f85b925f905b87821061051d575050836001959610610505575b505050811b01600355565b01515f1960f88460031b161c191690555f80806104fa565b806001859682949686015181550195019301906104e6565b9081517f602038038060206000396000f3fefefefefefefefefefefefefefefefefefefe835260208101835ff092526001600160a01b0382161561057557565b63fef8220760e01b5f5260045ffd5b9081517f60fe600053602038038060206001396001016000f3fefefefefefefefefefefe835260208101835ff092526001600160a01b038216156105755756fe60806040526004361015610011575f80fd5b5f3560e01c8062c194db14610153578063100768cc1461014e578063174481fa14610149578063193ad50f146101445780632f2770db1461013f5780633f819b6f1461013a57806344f6fec71461013557806353a72f7e1461013057806354fd4d501461012b5780636634b75314610126578063673a2a1f146101215780636c57f5a91461011c57806378da80cb14610117578063851c1bb3146101125780638d928af81461010d5780638eec5d7014610108578063aaabadc514610103578063db035ebc146100fe578063e9d56e19146100f95763ec888061146100f4575f80fd5b610e7c565b610e3c565b610e14565b610d64565b610d47565b610cf7565b610ca7565b610c67565b610c45565b610baa565b610b5d565b610a25565b610906565b610812565b6107f7565b610637565b6105cf565b610558565b610489565b61018b565b5f91031261016257565b5f80fd5b90601f19601f602080948051918291828752018686015e5f8582860101520116010190565b34610162575f600319360112610162576040516020810181811067ffffffffffffffff8211176101e0576101dc916101c8916040525f815261136f565b604051918291602083526020830190610166565b0390f35b7f4e487b71000000000000000000000000000000000000000000000000000000005f52604160045260245ffd5b6080810190811067ffffffffffffffff8211176101e057604052565b67ffffffffffffffff81116101e057604052565b90601f601f19910116810190811067ffffffffffffffff8211176101e057604052565b6040519060a0820182811067ffffffffffffffff8211176101e057604052565b92919267ffffffffffffffff82116101e057604051916102aa6020601f19601f840116018461023d565b829481845281830111610162578281602093845f960137010152565b9080601f83011215610162578160206102e193359101610280565b90565b67ffffffffffffffff81116101e05760051b60200190565b73ffffffffffffffffffffffffffffffffffffffff81160361016257565b8015150361016257565b61014435906103328261031a565b565b61016435906103328261031a565b9080601f8301121561016257813591602061035c846102e4565b9360409361036d604051968761023d565b818652828087019260071b85010193818511610162578301915b8483106103975750505050505090565b608083830312610162578551906103ad8261020d565b83356103b8816102fc565b82528484013590600282101561016257828692836080950152888601356103de816102fc565b89820152606080870135906103f28261031a565b820152815201920191610387565b6101243590610332826102fc565b7fffffffffffffffffffffffffffffffffffffffffffffffffffffffffffffff5c606091011261016257604051906060820182811067ffffffffffffffff8211176101e0576040528160a435610463816102fc565b815260c435610471816102fc565b6020820152604060e43591610485836102fc565b0152565b34610162576101a06003193601126101625767ffffffffffffffff600435818111610162576104bc9036906004016102c6565b90602435818111610162576104d59036906004016102c6565b91604435918211610162576101dc926104f5610531933690600401610342565b6104fe3661040e565b90610507610400565b90610510610324565b92610519610334565b94610184359661010435936084359260643592611030565b60405173ffffffffffffffffffffffffffffffffffffffff90911681529081906020820190565b34610162575f600319360112610162576040805173ffffffffffffffffffffffffffffffffffffffff807f00000000000000000000000000000000000000000000000000000000000000001682527f0000000000000000000000000000000000000000000000000000000000000000166020820152f35b34610162575f6003193601126101625760806040516105ed8161020d565b5f81525f60208201525f60408201525f606082015261063560405180926060809180511515845260208101511515602085015260408101511515604085015201511515910152565bf35b34610162575f600319360112610162576106737fffffffff000000000000000000000000000000000000000000000000000000005f35166112a2565b73ffffffffffffffffffffffffffffffffffffffff604051917faaabadc50000000000000000000000000000000000000000000000000000000083526020928381600481867f0000000000000000000000000000000000000000000000000000000000000000165afa80156107b2578492610739925f926107b7575b506040517f9be2a884000000000000000000000000000000000000000000000000000000008152600481019190915233602482015230604482015293849283919082906064820190565b0392165afa9182156107b2575f92610785575b50501561075d5761075b611194565b005b7f23dada53000000000000000000000000000000000000000000000000000000005f5260045ffd5b6107a49250803d106107ab575b61079c818361023d565b8101906117e1565b5f8061074c565b503d610792565b61132d565b6107d8919250843d86116107df575b6107d0818361023d565b810190611318565b905f6106ef565b503d6107c6565b9060206102e1928181520190610166565b34610162575f600319360112610162576101dc6101c8610e96565b346101625760406003193601126101625760043567ffffffffffffffff81116101625736602382011215610162576055600b61085b6101dc933690602481600401359101610280565b61086f6108696024356117b8565b9161136f565b602081519101209060405191604083015260208201523081520160ff81532060405173ffffffffffffffffffffffffffffffffffffffff90911681529081906020820190565b60209060206040818301928281528551809452019301915f5b8281106108dc575050505090565b835173ffffffffffffffffffffffffffffffffffffffff16855293810193928101926001016108ce565b346101625760406003193601126101625760043560243590600191600154808310156109fd578183018084116109f85781106109e7575b50610947816102e4565b91610955604051938461023d565b818352601f19610964836102e4565b013660208501375f5b82811061098257604051806101dc86826108b5565b806109e16109bc61099c61099789958761121a565b611254565b905473ffffffffffffffffffffffffffffffffffffffff9160031b1c1690565b6109c6838861128e565b9073ffffffffffffffffffffffffffffffffffffffff169052565b0161096d565b828103915081116109f8575f61093d565b6111ed565b7f4e23d035000000000000000000000000000000000000000000000000000000005f5260045ffd5b34610162575f600319360112610162576040515f60035460018160011c9160018116918215610b53575b602091602085108414610b26578487526020870193908115610ae95750600114610a90575b6101dc86610a848188038261023d565b604051918291826107e6565b60035f90815294509192917fc2575a0e9e593c00f959f8c92f12db2869c3395a3b0502d05e2516446f71f85b5b838610610ad85750505091019050610a84826101dc5f610a74565b805485870152948201948101610abd565b7fffffffffffffffffffffffffffffffffffffffffffffffffffffffffffffff0016845250505090151560051b019050610a84826101dc5f610a74565b7f4e487b71000000000000000000000000000000000000000000000000000000005f52602260045260245ffd5b92607f1692610a4f565b346101625760206003193601126101625773ffffffffffffffffffffffffffffffffffffffff600435610b8f816102fc565b165f525f602052602060ff60405f2054166040519015158152f35b34610162575f60031936011261016257604051806001916001549283825260208092019360015f527fb10e2d527612073b26eecdfd717e6a320cf44b4afac2b0732d9fcbe2b7fa0cf6925f905b828210610c1a576101dc86610c0e818a038261023d565b604051918291826108b5565b845473ffffffffffffffffffffffffffffffffffffffff168752958601959383019390830190610bf7565b34610162575f60031936011261016257602060ff600254166040519015158152f35b34610162575f60031936011261016257602060405163ffffffff7f0000000000000000000000000000000000000000000000000000000000000000168152f35b34610162576020600319360112610162576004357fffffffff000000000000000000000000000000000000000000000000000000008116810361016257610cef6020916112a2565b604051908152f35b34610162575f60031936011261016257602060405173ffffffffffffffffffffffffffffffffffffffff7f0000000000000000000000000000000000000000000000000000000000000000168152f35b34610162575f600319360112610162576020600154604051908152f35b34610162575f600319360112610162576040517faaabadc500000000000000000000000000000000000000000000000000000000815273ffffffffffffffffffffffffffffffffffffffff6020826004817f000000000000000000000000000000000000000000000000000000000000000085165afa9081156107b2576020925f92610df5575b5060405191168152f35b610e0d919250833d85116107df576107d0818361023d565b905f610deb565b34610162575f600319360112610162576020610e2e611338565b63ffffffff60405191168152f35b34610162575f60031936011261016257602060405163ffffffff7f0000000000000000000000000000000000000000000000000000000000000000168152f35b34610162575f6003193601126101625760206040515f8152f35b604051905f6004546001918160011c9260018316908115610f86575b602090602086108314610b265785885287946020860193908115610f485750600114610ee8575b5050506103329250038361023d565b925093610f1660045f527f8a35acfbc15ff81a39ae7d344fd709f28e8600b4aa8c65c6b64bfe7fe36bd19b90565b945f935b828510610f32575050506103329350015f8080610ed9565b8654858501529586019588955093810193610f1a565b915050610332959293507fffffffffffffffffffffffffffffffffffffffffffffffffffffffffffffff009150168252151560051b015f8080610ed9565b93607f1693610eb2565b9073ffffffffffffffffffffffffffffffffffffffff61102960209295949560408552610fc9815160a0604088015260e0870190610166565b608061100486840151927fffffffffffffffffffffffffffffffffffffffffffffffffffffffffffffffc093848a83030160608b0152610166565b92604081015182890152606081015160a08901520151908683030160c0870152610166565b9416910152565b929a9990989a95949593919360028551036111485773ffffffffffffffffffffffffffffffffffffffff61107b604089015173ffffffffffffffffffffffffffffffffffffffff1690565b16611120576110f961111a946110fe946110eb936103329d61109b610260565b9384526020840152604083015260608201526110b5610e96565b60808201526040519283917f00000000000000000000000000000000000000000000000000000000000000009060208401610f90565b03601f19810183528261023d565b611435565b9861111461110a611170565b9715156060890152565b15158652565b8761155c565b7f61ee1764000000000000000000000000000000000000000000000000000000005f5260045ffd5b7f34e77320000000000000000000000000000000000000000000000000000000005f5260045ffd5b6040519061117d8261020d565b5f6060838281528260208201528260408201520152565b61119c611784565b60017fffffffffffffffffffffffffffffffffffffffffffffffffffffffffffffff0060025416176002557f432acbfd662dbb5d8b378384a67159b47ca9d0f1b79f97cf64cf8585fa362d505f80a1565b7f4e487b71000000000000000000000000000000000000000000000000000000005f52601160045260245ffd5b919082018092116109f857565b7f4e487b71000000000000000000000000000000000000000000000000000000005f52603260045260245ffd5b6001548110156112895760015f527fb10e2d527612073b26eecdfd717e6a320cf44b4afac2b0732d9fcbe2b7fa0cf601905f90565b611227565b80518210156112895760209160051b010190565b6040517fffffffff0000000000000000000000000000000000000000000000000000000060208201927f00000000000000000000000000000000000000000000000000000000000000008452166040820152602481526060810181811067ffffffffffffffff8211176101e05760405251902090565b9081602091031261016257516102e1816102fc565b6040513d5f823e3d90fd5b7f000000000000000000000000000000000000000000000000000000000000000063ffffffff811642101561136a5790565b505f90565b907f00000000000000000000000000000000000000000000000000000000000000007f0000000000000000000000000000000000000000000000000000000000000000808201908183116109f857845192838301958684116109f85760209260018480946040519a82818d01016040528b52805f838d017f00000000000000000000000000000000000000000000000000000000000000003c8a01017f00000000000000000000000000000000000000000000000000000000000000003c01918501015e565b90610869611442916117b8565b805115611534576020815191015ff59073ffffffffffffffffffffffffffffffffffffffff9182811690811561150c579261147b611784565b815f525f60205260405f2060017fffffffffffffffffffffffffffffffffffffffffffffffffffffffffffffff00825416179055600154680100000000000000008110156101e0578060016114d39201600155611254565b819291549060031b9184831b921b19161790557f83a48fbcfc991335314e74d0496aab6a1987e992ddc85dddbcc4d6dd6ef2e9fc5f80a2565b7f741752c2000000000000000000000000000000000000000000000000000000005f5260045ffd5b7f4ca249dc000000000000000000000000000000000000000000000000000000005f5260045ffd5b92949193909473ffffffffffffffffffffffffffffffffffffffff93847f000000000000000000000000000000000000000000000000000000000000000016956115a4611338565b91873b156101625797959493929190604095604051998a987feeec802f000000000000000000000000000000000000000000000000000000008a526004836101a48c01931660048c015260246101a060248d015282518094526101c48c019a6020809401955f935b8685106116fa57505050505050505086946116a45f9997939561168688966116478d996116d69760448b015260648a019063ffffffff169052565b88608489015260a48801906040908173ffffffffffffffffffffffffffffffffffffffff91828151168552826020820151166020860152015116910152565b73ffffffffffffffffffffffffffffffffffffffff16610104860152565b805115156101248501526020810151151561014485015260408101511515610164850152606001511515610184840152565b03925af180156107b2576116e75750565b806116f461033292610229565b80610158565b9193959798999a9b9c90929496809e50518381511682528781015160028110156117595782899260809284600196015286888201511688830152606080910151151590820152019e0195019290918f9d9c9b9a9998979596949261160c565b866021857f4e487b71000000000000000000000000000000000000000000000000000000005f52525ffd5b60ff6002541661179057565b7f75884cda000000000000000000000000000000000000000000000000000000005f5260045ffd5b60405160208101913383524660408301526060820152606081526117db8161020d565b51902090565b9081602091031261016257516102e18161031a56fea2646970667358221220b27bca9a618c976f37f841908d09093cb5fe29e59c482418c7109119c048abe264736f6c634300081b00336101e080604052346106cd57613ec5803803809161001d82856106d1565b83398101906040818303126106cd5780516001600160401b0381116106cd5781019160a0838203126106cd576040519060a082016001600160401b038111838210176105df5760405283516001600160401b0381116106cd57816100829186016106f4565b825260208401516001600160401b0381116106cd57816100a39186016106f4565b9360208301948552604081015160408401526060810151606084015260808101519160018060401b0383116106cd576020926100df92016106f4565b60808301819052920151916001600160a01b03831683036106cd5781519351604080519192919081016001600160401b038111828210176105df576040526001815260208101603160f81b815261013587610749565b61012052610142826108cc565b6101405286516020880120918260e05251902080610100524660a0526040519060208201927f8b73c3c69bb8fe3d512ecc4cf759cc79239f7b179b0ffacaa9a75d522b39400f8452604083015260608201524660808201523060a082015260a0815260c0810181811060018060401b038211176105df576040525190206080523060c05261016084815285519095906001600160401b0381116105df57600390815492600184811c941680156106c3575b60208510146106af578190601f94858111610661575b506020908583116001146105fe575f926105f3575b50508160011b915f1990841b1c19161781555b83516001600160401b0381116105df576004948554600181811c911680156105d5575b60208210146104e957908185849311610587575b50602090858311600114610524575f92610519575b50508160011b915f1990841b1c19161784555b6101809586528251916001600160401b038311610506576005938454600181811c911680156104fc575b60208210146104e9579081838695949311610498575b506020918411600114610431575f93610426575b50508260011b925f19911b1c19161790555b604082015160608301511115610418575060606040820151916101a09283520151906101c0918252604051926134c29485610a03863960805185612b7b015260a05185612c47015260c05185612b4c015260e05185612bca01526101005185612bf001526101205185610fa301526101405185610fcd01525184818161021c0152818161045c01528181610abe01528181610f67015281816112050152818161145f015281816115b401528181611ac601528181612308015281816125a70152612ae10152518381816105850152818161065001528181610725015281816109ba01526110f2015251828181610b6e015281816112ba01528181611b4f01526126c8015251818181610b90015281816112dd01528181611b7101526126ea0152f35b6302bcf0ed60e11b5f908152fd5b015191505f806102e4565b5f868152602081209450601f198616905b818110610480575090856001969594939210610467575b50505050811b0190556102f6565b01519060f8845f19921b161c191690555f808080610459565b92946020600181928886015181550196019301610442565b9091929350855f5260205f2083808701881c820192602088106104e0575b94879695949392919401881c01905b8181106104d257506102d0565b5f81558695506001016104c5565b925081926104b6565b602287634e487b7160e01b5f525260245ffd5b90607f16906102ba565b604185634e487b7160e01b5f525260245ffd5b015190505f8061027d565b5f888152602081209350601f198516905b81811061056f5750908460019594939210610558575b505050811b018455610290565b01515f1983861b60f8161c191690555f808061054b565b92936020600181928786015181550195019301610535565b909150865f5260205f208580850160051c820192602086106105cc575b9085949392910160051c01905b8181106105be5750610268565b5f81558493506001016105b1565b925081926105a4565b90607f1690610254565b634e487b7160e01b5f52604160045260245ffd5b015190505f8061021e565b5f858152602081209350601f198516905b8181106106495750908460019594939210610632575b505050811b018155610231565b01515f1983861b60f8161c191690555f8080610625565b9293602060018192878601518155019501930161060f565b909150835f5260205f208580850160051c820192602086106106a6575b9085949392910160051c01905b8181106106985750610209565b5f815584935060010161068b565b9250819261067e565b634e487b7160e01b5f52602260045260245ffd5b93607f16936101f3565b5f80fd5b601f909101601f19168101906001600160401b038211908210176105df57604052565b81601f820112156106cd578051906001600160401b0382116105df5760405192610728601f8401601f1916602001856106d1565b828452602083830101116106cd57815f9260208093018386015e8301015290565b8051602090818110156107bf5750601f825111610781578082519201519080831061077357501790565b825f19910360031b1b161790565b60448260405192839163305a27a960e01b83528160048401528051918291826024860152018484015e5f828201840152601f01601f19168101030190fd5b906001600160401b0382116105df575f54926001938481811c911680156108c2575b838210146106af57601f811161088f575b5081601f841160011461082d57509282939183925f94610822575b50501b915f199060031b1c1916175f5560ff90565b015192505f8061080d565b919083601f1981165f8052845f20945f905b88838310610875575050501061085d575b505050811b015f5560ff90565b01515f1960f88460031b161c191690555f8080610850565b85870151885590960195948501948793509081019061083f565b5f805284601f845f20920160051c820191601f860160051c015b8281106108b75750506107f2565b5f81550185906108a9565b90607f16906107e1565b8051602090818110156108f65750601f825111610781578082519201519080831061077357501790565b9192916001600160401b0381116105df5760019182548381811c911680156109f8575b828210146106af57601f81116109c5575b5080601f83116001146109655750819293945f9261095a575b50505f19600383901b1c191690821b17905560ff90565b015190505f80610943565b90601f19831695845f52825f20925f905b8882106109ae5750508385969710610996575b505050811b01905560ff90565b01515f1960f88460031b161c191690555f8080610989565b808785968294968601518155019501930190610976565b835f5283601f835f20920160051c820191601f850160051c015b8281106109ed57505061092a565b5f81550184906109df565b90607f169061091956fe6080604081815260049182361015610015575f80fd5b60e05f35811c91826301ffc9a714611eee5750816306fdde0314611e3f578163095ea7b314611dc157816316a0b3e014611b1857816318160ddd14611afc57816323b872dd14611a5457816323de665114611a22578163273c1adf14611a0757816330adf81f146119cd578163313ce567146119b25781633644e5151461199657816354fd4d50146118a65781635687f2b81461184757816361f82d571461152c578163627cdcb914611503578163654cf15d146114e1578163679aefce146114c557816370a08231146113f157816372c98186146113ac5781637e148d61146111b45781637ecebe001461117057816381fa807c1461109557816384b0196e14610f8b5781638d928af814610f3b57816395d89b4114610e35578163984de9e814610b2f578163a9059cbb14610a26578163aa6ca80814610961578163abb1dc44146106ca578163b156aa0a146105f7578163b677fa56146105dd578163ce20ece7146105be578163d335b0cf1461052b578163d505accf14610298575063dd62ed3e146101a2575f80fd5b3461028357806003193601126102835760206101bc611f98565b60646101c6611fbb565b9473ffffffffffffffffffffffffffffffffffffffff808097875198899687957f927da10500000000000000000000000000000000000000000000000000000000875230908701521660248501521660448301527f0000000000000000000000000000000000000000000000000000000000000000165afa90811561028f575f91610256575b6020925051908152f35b90506020823d602011610287575b816102716020938361202a565b8101031261028357602091519061024c565b5f80fd5b3d9150610264565b513d5f823e3d90fd5b919050346102835781600319360112610283576102b3611f98565b916102bc611fbb565b90604435936064359160843560ff81168103610283578342116105005761030a8373ffffffffffffffffffffffffffffffffffffffff165f52600260205260405f2080549060018201905590565b91865160208101917f6e71edae12b1b97f4d1f60370fef10105fa2faae0126114a169c64845d6126c9835273ffffffffffffffffffffffffffffffffffffffff9687871695868b850152888a1660608501528b608085015260a084015260c083015260c08252810181811067ffffffffffffffff8211176104ed57926103e7926103de9288958b5251902061039d612b35565b908a51917f190100000000000000000000000000000000000000000000000000000000000083526002830152602282015260c43591604260a4359220612e5d565b90929192612eec565b168181036104c05750505f84959661045860209651988996879586947fe1f21c67000000000000000000000000000000000000000000000000000000008652850160409194939294606082019573ffffffffffffffffffffffffffffffffffffffff80921683521660208201520152565b03927f0000000000000000000000000000000000000000000000000000000000000000165af190811561028f575061048c57005b6020813d6020116104b8575b816104a56020938361202a565b81010312610283576104b69061222a565b005b3d9150610498565b877f4b800e46000000000000000000000000000000000000000000000000000000005f525260245260445ffd5b60418b634e487b7160e01b5f525260245ffd5b83887f62791302000000000000000000000000000000000000000000000000000000005f525260245ffd5b505034610283575f600319360112610283578051917fb45090f9000000000000000000000000000000000000000000000000000000008352309083015260208260248173ffffffffffffffffffffffffffffffffffffffff7f0000000000000000000000000000000000000000000000000000000000000000165afa90811561028f575f91610256576020925051908152f35b8234610283575f600319360112610283576020905164e8d4a510008152f35b8234610283575f60031936011261028357602090515f8152f35b828434610283575f600319360112610283578151907f535cfd8a00000000000000000000000000000000000000000000000000000000825230908201525f8160248173ffffffffffffffffffffffffffffffffffffffff7f0000000000000000000000000000000000000000000000000000000000000000165afa9081156106c05791610698925f9261069c575b50519182916020835260208301906121a1565b0390f35b6106b99192503d805f833e6106b1818361202a565b8101906123d6565b9083610685565b82513d5f823e3d90fd5b505034610283575f6003193601126102835780517f67e0e076000000000000000000000000000000000000000000000000000000008152308382015273ffffffffffffffffffffffffffffffffffffffff916024905f8383817f000000000000000000000000000000000000000000000000000000000000000088165afa938415610957575f955f945f945f97610803575b5050509061077b95949392918151968796608088526080880190612158565b6020878203818901528080875193848152019601925f905b8382106107bf57898803868b015289806106988b6107b18c8c6121a1565b9083820360608501526121a1565b91849899506060869798600193959783975180516107dc816121d4565b83528685820151168584015201511515898201520198019201899897969594929391610793565b94509450945094503d805f853e61081a818561202a565b8301926080818503126102835780519367ffffffffffffffff9485811161028357816108479184016129a8565b936020808401518781116102835784019083601f830112156102835781519261086f8461206b565b9961087c88519b8c61202a565b848b52828b019183606080970286010194878611610283579b9c9b8401925b8584106108e457505050505050508282015185811161028357816108c0918401612375565b946060830151908111610283576108d79201612375565b91949291935f808061075c565b86849d9e9d890312610283578951908782018d811183821017610945578b528451906002821015610283578f91835286860151918216820361028357828792838b9501526109338d880161222a565b8d8201528152019301929c9b9c61089b565b83604186634e487b7160e01b5f52525ffd5b50513d5f823e3d90fd5b828434610283575f600319360112610283578151907fca4f280300000000000000000000000000000000000000000000000000000000825230908201525f8160248173ffffffffffffffffffffffffffffffffffffffff7f0000000000000000000000000000000000000000000000000000000000000000165afa9081156106c05791610698925f92610a02575b5051918291602083526020830190612158565b610a1f9192503d805f833e610a17818361202a565b810190612a26565b90836109ef565b5050346102835780600319360112610283576020610aa492610a46611f98565b83517fbeabacc80000000000000000000000000000000000000000000000000000000081523392810192835273ffffffffffffffffffffffffffffffffffffffff909116602083015260243560408301529384918291606090910190565b03815f73ffffffffffffffffffffffffffffffffffffffff7f0000000000000000000000000000000000000000000000000000000000000000165af1801561095757610af5575b6020905160018152f35b6020823d602011610b27575b81610b0e6020938361202a565b8101031261028357610b2160209261222a565b50610aeb565b3d9150610b01565b505034610283578060031936011261028357813567ffffffffffffffff811161028357610b5f9036908401612083565b602435906002821015610283577f0000000000000000000000000000000000000000000000000000000000000000917f000000000000000000000000000000000000000000000000000000000000000094610bb9826121d4565b600182811492908315610e2f576003925b610bd3836121d4565b8415610e275781965b610be5846121d4565b8515610e20576002965b610bfa8b8388613407565b95670de0b6b3a7640000968703968711610e0d578b610c1883612295565b5190610c249183613407565b83610c2e84612274565b5190610c3a918d613407565b610c43916122a5565b98610c4d83612274565b51610c5784612295565b51610c62918d613407565b9c8b8580610c6f87612274565b51610c7988612274565b51610c849185613407565b90610c8f9184613407565b90610c9a9183613407565b95610ca486612274565b51610cae87612295565b51610cb99184613407565b610cc292613407565b9b7f7fffffffffffffffffffffffffffffffffffffffffffffffffffffffffffffff9c8d81168103610dfa5792610d338380610d2d610d3f9895610d12610d39988f9a610d449e9d9b1b89613407565b98610d26610d1f82612295565b5191612295565b5191613407565b93613407565b91613407565b926122a5565b6122a5565b94610d4e846121d4565b8015610def57610d5e83946121d4565b15610de8576003965b84168403610dd5577f3fffffffffffffffffffffffffffffffffffffffffffffffffffffffffffffff89168903610dd55750610dc3610dce9694610dbd8560209b9895610dc897610dbd961b9960021b90613407565b906122a5565b612f97565b90613407565b9051908152f35b601190634e487b7160e01b5f525260245ffd5b8096610d67565b610d5e6002946121d4565b601188634e487b7160e01b5f525260245ffd5b601184634e487b7160e01b5f525260245ffd5b8296610bef565b600296610bdc565b82610bca565b828434610283575f60031936011261028357815191825f8354610e57816121f2565b90818452602095600191876001821691825f14610ef6575050600114610e9a575b5050506106989291610e8b91038561202a565b51928284938452830190611f55565b5f90815286935091907f8a35acfbc15ff81a39ae7d344fd709f28e8600b4aa8c65c6b64bfe7fe36bd19b5b828410610ede5750505082010181610e8b610698610e78565b8054848a018601528895508794909301928101610ec5565b7fffffffffffffffffffffffffffffffffffffffffffffffffffffffffffffff00168782015293151560051b86019093019350849250610e8b91506106989050610e78565b8234610283575f600319360112610283576020905173ffffffffffffffffffffffffffffffffffffffff7f0000000000000000000000000000000000000000000000000000000000000000168152f35b90508234610283575f60031936011261028357610fc77f0000000000000000000000000000000000000000000000000000000000000000612c6d565b92610ff17f0000000000000000000000000000000000000000000000000000000000000000612d9f565b815192602084019084821067ffffffffffffffff83111761108257509161106291610698949382525f845261105582519788977f0f0000000000000000000000000000000000000000000000000000000000000089528060208a0152880190611f55565b9186830390870152611f55565b904660608501523060808501525f60a085015283820360c08501526121a1565b604190634e487b7160e01b5f525260245ffd5b828434610283575f600319360112610283578151907ff29486a100000000000000000000000000000000000000000000000000000000825230908201526101a090818160248173ffffffffffffffffffffffffffffffffffffffff7f0000000000000000000000000000000000000000000000000000000000000000165afa918215611166575f92611139575b505060608282015191015182519182526020820152f35b6111589250803d1061115f575b611150818361202a565b810190612443565b8280611122565b503d611146565b83513d5f823e3d90fd5b82346102835760206003193601126102835760209073ffffffffffffffffffffffffffffffffffffffff6111a2611f98565b165f5260028252805f20549051908152f35b828434610283575f600319360112610283578151906111d282611fde565b60608252602082019060608252838301915f835260608401915f835273ffffffffffffffffffffffffffffffffffffffff7f000000000000000000000000000000000000000000000000000000000000000016908651907fca4f280300000000000000000000000000000000000000000000000000000000825230818301525f82602481865afa80156113a2575f928391611388575b50875260248851809481937f7e361bde00000000000000000000000000000000000000000000000000000000835230908301525afa90811561137e579561134a9291611319975f9161135b575b5082527f000000000000000000000000000000000000000000000000000000000000000085527f00000000000000000000000000000000000000000000000000000000000000008452805196879660208852516080602089015260a0880190612158565b9151907fffffffffffffffffffffffffffffffffffffffffffffffffffffffffffffffe08784030190870152612125565b915160608401525160808301520390f35b61137791503d805f833e61136f818361202a565b8101906123ff565b50886112b5565b86513d5f823e3d90fd5b61139c91503d8085833e610a17818361202a565b89611268565b88513d5f823e3d90fd5b82843461028357600319926020843601126102835781359367ffffffffffffffff851161028357843603011261028357602092610dce916113eb612aca565b0161263e565b8284346102835760209182600319360112610283578261140f611f98565b604473ffffffffffffffffffffffffffffffffffffffff9485855196879485937ff7888aec00000000000000000000000000000000000000000000000000000000855230908501521660248301527f0000000000000000000000000000000000000000000000000000000000000000165afa918215610957575f92611496575b5051908152f35b9091508281813d83116114be575b6114ae818361202a565b810103126102835751908361148f565b503d6114a4565b8234610283575f60031936011261028357602090610dce61255e565b8234610283575f6003193601126102835760209051670de0b6b3a76400008152f35b34610283575f60031936011261028357335f908152600260205260409020805460018101909155005b838334610283575f60031936011261028357805190610100928383019483861067ffffffffffffffff871117611834575f9583526060845260209384810160608152848201948886526060830189815260808401918a835260a08501938b855260c08601958c8752878101988d8a52602473ffffffffffffffffffffffffffffffffffffffff7f0000000000000000000000000000000000000000000000000000000000000000169e8f8651928380927f535cfd8a00000000000000000000000000000000000000000000000000000000825230878301525afa9081156117f4578f6024925f92839161181a575b5085528651928380927f7e361bde00000000000000000000000000000000000000000000000000000000825230878301525afa9081156117f4578f6024928f925f916117fe575b5086528651928380927fb45090f900000000000000000000000000000000000000000000000000000000825230878301525afa9081156117f4575f916117c7575b508b526116ad6122bf565b85526116b761255e565b865283519d8e917ff29486a100000000000000000000000000000000000000000000000000000000835230908301526101a09e8f91815a91602492fa9081156117bd578d9e5f9e9c9d9e926117a0575b505088810151151587528a810151151588526101208091015115158a5283519d8d8f9e938f948552519301528c0161173e91612125565b9051918b82037fffffffffffffffffffffffffffffffffffffffffffffffffffffffffffffffe001908c015261177391612125565b975160608a01525160808901525160a088015251151560c087015251151590850152511515908301520390f35b6117b69250803d1061115f57611150818361202a565b8e80611707565b84513d5f823e3d90fd5b90508c81813d83116117ed575b6117de818361202a565b8101031261028357518f6116a2565b503d6117d4565b85513d5f823e3d90fd5b61181291503d805f833e61136f818361202a565b90505f611661565b61182e91503d8085833e6106b1818361202a565b5f61161a565b604182634e487b7160e01b5f525260245ffd5b82346102835760207f8c5be1e5ebec7d5bd14f71427d1e84f3dd0314c0f7b2291e5b200ac8c7c3b925611879366120e3565b939194611884612aca565b5193845273ffffffffffffffffffffffffffffffffffffffff908116941692a3005b8234610283575f6003193601126102835780516005549091825f6118c9846121f2565b808352602094600190866001821691825f146119565750506001146118fb575b50506106989291610e8b91038561202a565b9085925060055f527f036b6384b5eca791c62761152d0c79bb0604c104a5fb6f4eb0703f3154bb3db0915f925b82841061193e5750505082010181610e8b6118e9565b8054848a018601528895508794909301928101611928565b7fffffffffffffffffffffffffffffffffffffffffffffffffffffffffffffff00168682015292151560051b85019092019250839150610e8b90506118e9565b8234610283575f60031936011261028357602090610dce612b35565b8234610283575f600319360112610283576020905160128152f35b8234610283575f60031936011261028357602090517f6e71edae12b1b97f4d1f60370fef10105fa2faae0126114a169c64845d6126c98152f35b8234610283575f60031936011261028357602090515f198152f35b82346102835760207fddf252ad1be2c89b69c2b068fc378daa952ba7f163c4a11628f55a4df523b3ef611879366120e3565b5050346102835760205f6084611a69366120e3565b86517f15dacbea000000000000000000000000000000000000000000000000000000008152339881019890985273ffffffffffffffffffffffffffffffffffffffff928316602489015290821660448801526064870152859283917f0000000000000000000000000000000000000000000000000000000000000000165af1801561095757610af5576020905160018152f35b8234610283575f60031936011261028357602090610dce6122bf565b50503461028357606060031936011261028357813567ffffffffffffffff811161028357611b499036908401612083565b916024927f0000000000000000000000000000000000000000000000000000000000000000937f000000000000000000000000000000000000000000000000000000000000000091611b9b83876130fd565b670de0b6b3a7640000908103818111611daf57611bd7611bc486611bbe86612295565b516130fd565b610dbd8a611bd187612274565b51612a4c565b611bf4611be385612274565b51611bed86612295565b5190612a4c565b90611c188a611c1381611c13611c098a612274565b51611bed8b612274565b612a4c565b611c328b611c13611c2889612274565b51611bed8a612295565b907f7fffffffffffffffffffffffffffffffffffffffffffffffffffffffffffffff918281168103611d9d5790610d3f88610d398c8a611c92611c8b611c7e84611c999a60011b6130fd565b95611bed610d1f82612295565b9280612261565b04906130fd565b9084168403611d8b577f3fffffffffffffffffffffffffffffffffffffffffffffffffffffffffffffff83168303611d8b5791611cf2611c1392610dbd610dc3611cf79796610dbd604435988060011b9760021b612a4c565b6130fd565b93611d028580612261565b9582860290868204841487151715611d79575097611d25611d2b9260209a612a6e565b95612261565b049135611d5e5792611d4d611d5392611d46610dce96612295565b51906122a5565b90612a8c565b6122b2565b51908152f35b92611d4d611d539293611d46611d7396612274565b90611d58565b60118691634e487b7160e01b5f52525ffd5b8660118a634e487b7160e01b5f52525ffd5b8860118c634e487b7160e01b5f52525ffd5b83601187634e487b7160e01b5f52525ffd5b5050346102835780600319360112610283576020610aa492611de1611f98565b83517fe1f21c670000000000000000000000000000000000000000000000000000000081523392810192835273ffffffffffffffffffffffffffffffffffffffff909116602083015260243560408301529384918291606090910190565b8234610283575f6003193601126102835780516003549091825f611e62846121f2565b808352602094600190866001821691825f14611956575050600114611e935750506106989291610e8b91038561202a565b9085925060035f527fc2575a0e9e593c00f959f8c92f12db2869c3395a3b0502d05e2516446f71f85b915f925b828410611ed65750505082010181610e8b6118e9565b8054848a018601528895508794909301928101611ec0565b84346102835760206003193601126102835735907fffffffff000000000000000000000000000000000000000000000000000000008216809203610283577f01ffc9a700000000000000000000000000000000000000000000000000000000602092148152f35b907fffffffffffffffffffffffffffffffffffffffffffffffffffffffffffffffe0601f602080948051918291828752018686015e5f8582860101520116010190565b6004359073ffffffffffffffffffffffffffffffffffffffff8216820361028357565b6024359073ffffffffffffffffffffffffffffffffffffffff8216820361028357565b6080810190811067ffffffffffffffff821117611ffa57604052565b634e487b7160e01b5f52604160045260245ffd5b6040810190811067ffffffffffffffff821117611ffa57604052565b90601f7fffffffffffffffffffffffffffffffffffffffffffffffffffffffffffffffe0910116810190811067ffffffffffffffff821117611ffa57604052565b67ffffffffffffffff8111611ffa5760051b60200190565b9080601f8301121561028357602090823561209d8161206b565b936120ab604051958661202a565b81855260208086019260051b82010192831161028357602001905b8282106120d4575050505090565b813581529083019083016120c6565b60031960609101126102835773ffffffffffffffffffffffffffffffffffffffff90600435828116810361028357916024359081168103610283579060443590565b9081518082526020808093019301915f5b828110612144575050505090565b835185529381019392810192600101612136565b9081518082526020808093019301915f5b828110612177575050505090565b835173ffffffffffffffffffffffffffffffffffffffff1685529381019392810192600101612169565b9081518082526020808093019301915f5b8281106121c0575050505090565b8351855293810193928101926001016121b2565b600211156121de57565b634e487b7160e01b5f52602160045260245ffd5b90600182811c92168015612220575b602083101461220c57565b634e487b7160e01b5f52602260045260245ffd5b91607f1691612201565b5190811515820361028357565b9060058202918083046005149015171561224d57565b634e487b7160e01b5f52601160045260245ffd5b8181029291811591840414171561224d57565b8051156122815760200190565b634e487b7160e01b5f52603260045260245ffd5b8051600110156122815760400190565b9190820180921161224d57565b9190820391821161224d57565b6040517fe4dc2aa400000000000000000000000000000000000000000000000000000000815230600482015260208160248173ffffffffffffffffffffffffffffffffffffffff7f0000000000000000000000000000000000000000000000000000000000000000165afa90811561236a575f9161233b575090565b90506020813d602011612362575b816123566020938361202a565b81010312610283575190565b3d9150612349565b6040513d5f823e3d90fd5b9080601f83011215610283578151906020916123908161206b565b9361239e604051958661202a565b81855260208086019260051b82010192831161028357602001905b8282106123c7575050505090565b815181529083019083016123b9565b9060208282031261028357815167ffffffffffffffff8111610283576123fc9201612375565b90565b9190916040818403126102835780519267ffffffffffffffff93848111610283578161242c918401612375565b936020830151908111610283576123fc9201612375565b6101a0918190038281126102835760405192610140928385019285841067ffffffffffffffff851117611ffa5760809084604052126102835761248583611fde565b61248e8161222a565b835261249c6020820161222a565b9261016093848701526124b16040830161222a565b9261018093848801526124c66060840161222a565b9087015285526080810151602086015260a0810151604086015260c0810151606086015260e081015164ffffffffff811681036102835760808601526101008082015163ffffffff81168103610283576125579461254d9160a08901526125416101209761253589870161222a565b60c08b0152850161222a565b60e0890152830161222a565b908601520161222a565b9082015290565b6040517f4f037ee700000000000000000000000000000000000000000000000000000000815230600482015260208160248173ffffffffffffffffffffffffffffffffffffffff7f0000000000000000000000000000000000000000000000000000000000000000165afa90811561236a575f9161233b575090565b9035907fffffffffffffffffffffffffffffffffffffffffffffffffffffffffffffffe181360301821215610283570180359067ffffffffffffffff821161028357602001918160051b3603831361028357565b91908110156122815760051b0190565b606081013590811561267761266c612664604085019561265e87876125da565b9061262e565b3594846125da565b60808501359161262e565b35916040516060810181811067ffffffffffffffff821117611ffa5760405260028152604036602083013782156129a257845b6126b382612274565b52821561299c57835b6126c582612295565b527f0000000000000000000000000000000000000000000000000000000000000000927f00000000000000000000000000000000000000000000000000000000000000009161271483866133e3565b94670de0b6b3a76400009586039186831161224d5761275a61273f8661273984612295565b516133e3565b886127538561274d86612274565b51612261565b04906122a5565b928761277961276884612274565b5161277285612295565b5190612261565b0490886127a2858261279c828261279c6127928b612274565b516127728c612274565b04612261565b0492896127c0868261279c6127b686612274565b5161277287612295565b04937f7fffffffffffffffffffffffffffffffffffffffffffffffffffffffffffffff94858116810361224d5761282692610d398d6128156128088e610d3f9660011b6133e3565b93612772610d1f82612295565b046128208d80612a4c565b906133e3565b928116810361224d577f3fffffffffffffffffffffffffffffffffffffffffffffffffffffffffffffff8216820361224d578894610dbd610dc361287e9588612753866128799760011b9860021b612261565b6133e3565b921561297057612893839461289993946130fd565b93612261565b04915b80356002811015610283576128b0816121d4565b61293157926128de8195966128d96128d260206128e5979801359586936122a5565b96896122a5565b612261565b04926122a5565b9082810292818404149015171561224d576128ff91612a6e565b9081116129095790565b7f03ba4186000000000000000000000000000000000000000000000000000000005f5260045ffd5b6020919350013590838211612909578161295e6129649261295861296a966123fc996122a5565b966122a5565b94612a4c565b926122b2565b906130fd565b61297b915082612a4c565b918482029180830486149015171561224d5761299691612a6e565b9161289c565b846126bc565b836126aa565b9080601f83011215610283578151906020916129c38161206b565b936129d1604051958661202a565b81855260208086019260051b82010192831161028357602001905b8282106129fa575050505090565b815173ffffffffffffffffffffffffffffffffffffffff811681036102835781529083019083016129ec565b9060208282031261028357815167ffffffffffffffff8111610283576123fc92016129a8565b90612a5691612261565b6001670de0b6b3a76400005f19830104019015150290565b8115612a78570490565b634e487b7160e01b5f52601260045260245ffd5b908015612aa2575f198201046001019015150290565b7f0a0c22c7000000000000000000000000000000000000000000000000000000005f5260045ffd5b73ffffffffffffffffffffffffffffffffffffffff7f0000000000000000000000000000000000000000000000000000000000000000163303612b0957565b7f089676d5000000000000000000000000000000000000000000000000000000005f523360045260245ffd5b73ffffffffffffffffffffffffffffffffffffffff7f000000000000000000000000000000000000000000000000000000000000000016301480612c44575b15612b9d577f000000000000000000000000000000000000000000000000000000000000000090565b60405160208101907f8b73c3c69bb8fe3d512ecc4cf759cc79239f7b179b0ffacaa9a75d522b39400f82527f000000000000000000000000000000000000000000000000000000000000000060408201527f000000000000000000000000000000000000000000000000000000000000000060608201524660808201523060a082015260a0815260c0810181811067ffffffffffffffff821117611ffa5760405251902090565b507f00000000000000000000000000000000000000000000000000000000000000004614612b74565b60ff8114612cc15760ff811690601f8211612c995760405191612c8f8361200e565b8252602082015290565b7fb3512b0c000000000000000000000000000000000000000000000000000000005f5260045ffd5b506040515f815f5491612cd3836121f2565b80835292602090600190818116908115612d5c5750600114612cfe575b50506123fc9250038261202a565b9150925f80527f290decd9548b62a8d60345a988386fc84ba6bc95484008f6362f93160ef3e563935f925b828410612d4457506123fc9450505081016020015f80612cf0565b85548785018301529485019486945092810192612d29565b9050602093506123fc9592507fffffffffffffffffffffffffffffffffffffffffffffffffffffffffffffff0091501682840152151560051b8201015f80612cf0565b60ff8114612dc15760ff811690601f8211612c995760405191612c8f8361200e565b506040515f81600191600154612dd6816121f2565b8084529360209160018116908115612d5c5750600114612dfe5750506123fc9250038261202a565b91509260015f527fb10e2d527612073b26eecdfd717e6a320cf44b4afac2b0732d9fcbe2b7fa0cf6935f925b828410612e4557506123fc9450505081016020015f80612cf0565b85548785018301529485019486945092810192612e2a565b91907f7fffffffffffffffffffffffffffffff5d576e7357a4501ddfe92f46681b20a08411612ee1579160209360809260ff5f9560405194855216868401526040830152606082015282805260015afa1561236a575f5173ffffffffffffffffffffffffffffffffffffffff811615612ed757905f905f90565b505f906001905f90565b5050505f9160039190565b60048110156121de5780612efe575050565b60018103612f2e577ff645eedf000000000000000000000000000000000000000000000000000000005f5260045ffd5b60028103612f6257507ffce698f7000000000000000000000000000000000000000000000000000000005f5260045260245ffd5b600314612f6c5750565b7fd78bce0c000000000000000000000000000000000000000000000000000000005f5260045260245ffd5b80156130f857612fa68161312e565b670de0b6b3a76400009081830290838204830361224d57612fce81610dbd6130299385612a6e565b91610dbd613020613014613008612ffc612ff0600198891c610dbd8189612a6e565b881c610dbd8188612a6e565b871c610dbd8187612a6e565b861c610dbd8186612a6e565b851c610dbd8185612a6e565b841c8092612a6e565b811c92826130378580612261565b049161304285612237565b9061305a5f19928287858301040190151502846122a5565b84111594856130cf575b5050505050156130715790565b60646040517f08c379a000000000000000000000000000000000000000000000000000000000815260206004820152600c60248201527f5f73717274204641494c454400000000000000000000000000000000000000006044820152fd5b6130ec9495506130de87612237565b8015159301040102906122b2565b11155f80808080613064565b505f90565b908015612aa257670de0b6b3a76400009182810292818404149015171561224d576001905f19830104019015150290565b670de0b6b3a7640000808210613252578091045f90700100000000000000000000000000000000811015613246575b68010000000000000000811015613231575b64010000000081101561321c575b62010000811015613207575b6101008110156131f2575b60108110156131dd575b600411156131bd575b600182821b9283831c14911b15171561224d5790565b60018101809111156131a757634e487b7160e01b5f52601160045260245ffd5b60041c906002810180911161224d579061319e565b60081c906004810180911161224d5790613194565b60101c906008810180911161224d5790613189565b60201c906010810180911161224d579061317d565b60401c906020810180911161224d579061316f565b6040915060801c61315d565b50600a8111156133da5760648111156133d0576103e88111156133c6576127108111156133bc57620186a08111156133b257620f42408111156133a8576298968081111561339d576305f5e10081111561339257633b9aca00811115613387576402540be40081111561337c5764174876e8008111156133705764e8d4a51000811115613364576509184e72a00081111561335857655af3107a400081111561334c5766038d7ea4c6800081111561334057662386f26fc100008111156133335767016345785d8a00008111156133265790565b50670463777a4d8c892d90565b5067016345785d8a000090565b50667058bf6e27a75190565b50662386f26fc1000090565b50660b3c13249d90bb90565b5066038d7ea4c6800090565b5066011f9b83a95b4590565b50655af3107a400090565b50651cc2c05dbc5390565b506509184e72a00090565b506502e0466fc60890565b5064e8d4a5100090565b506449a0a4c70090565b5064174876e80090565b5064075cdd471990565b506402540be40090565b5063bc7c871c90565b90670de0b6b3a76400009182810292818404149015171561224d576123fc91612a6e565b80600414613481578060031461345c57806002146134515760011461343a57634e487b7160e01b5f52605160045260245ffd5b670de0b6b3a76400009161344d91612261565b0490565b50906123fc91612a4c565b5090670de0b6b3a76400009182810292818404149015171561224d576123fc91612a6e565b50906123fc916130fd56fea264697066735822122053c504781ee660d6c7b72f4e348c3b961d033c849b54562b1ebd72b4e884a57064736f6c634300081b0033",
  "linkReferences": {},
  "deployedLinkReferences": {}
}