{
  "_format": "hh-sol-artifact-1",
  "contractName": "ERC4626RateProviderFactory",
  "sourceName": "contracts/ERC4626RateProviderFactory.sol",
  "abi": [
    {
      "anonymous": false,
      "inputs": [
        {
          "indexed": true,
          "internalType": "address",
          "name": "rateProvider",
          "type": "address"
        }
      ],
      "name": "RateProviderCreated",
      "type": "event"
    },
    {
      "inputs": [
        {
          "internalType": "contract IERC4626",
          "name": "erc4626",
          "type": "address"
        }
      ],
      "name": "create",
      "outputs": [
        {
          "internalType": "contract ERC4626RateProvider",
          "name": "",
          "type": "address"
        }
      ],
      "stateMutability": "nonpayable",
      "type": "function"
    },
    {
      "inputs": [
        {
          "internalType": "address",
          "name": "rateProvider",
          "type": "address"
        }
      ],
      "name": "isRateProviderFromFactory",
      "outputs": [
        {
          "internalType": "bool",
          "name": "",
          "type": "bool"
        }
      ],
      "stateMutability": "view",
      "type": "function"
    }
  ],
  "bytecode": "0x608060405234801561001057600080fd5b5061078f806100206000396000f3fe608060405234801561001057600080fd5b50600436106100365760003560e01c806319912f711461003b5780639ed9331814610089575b600080fd5b6100746100493660046101c5565b73ffffffffffffffffffffffffffffffffffffffff1660009081526020819052604090205460ff1690565b60405190151581526020015b60405180910390f35b61009c6100973660046101c5565b6100c1565b60405173ffffffffffffffffffffffffffffffffffffffff9091168152602001610080565b600080826040516100d190610193565b73ffffffffffffffffffffffffffffffffffffffff9091168152602001604051809103906000f08015801561010a573d6000803e3d6000fd5b5090506101168161011c565b92915050565b73ffffffffffffffffffffffffffffffffffffffff811660008181526020819052604080822080547fffffffffffffffffffffffffffffffffffffffffffffffffffffffffffffff00166001179055517f7a8e6b463d413484480a3a8120e5fb841491c52541ac3f649ac41d9b0d088aa69190a250565b610570806101ea83390190565b73ffffffffffffffffffffffffffffffffffffffff811681146101c257600080fd5b50565b6000602082840312156101d757600080fd5b81356101e2816101a0565b939250505056fe60c060405234801561001057600080fd5b5060405161057038038061057083398101604081905261002f916101bc565b806001600160a01b03166080816001600160a01b0316815250506000816001600160a01b03166338d52e0f6040518163ffffffff1660e01b8152600401602060405180830381865afa158015610089573d6000803e3d6000fd5b505050506040513d601f19601f820116820180604052508101906100ad91906101bc565b6001600160a01b031663313ce5676040518163ffffffff1660e01b8152600401602060405180830381865afa1580156100ea573d6000803e3d6000fd5b505050506040513d601f19601f8201168201806040525081019061010e91906101e0565b60ff16905080826001600160a01b031663313ce5676040518163ffffffff1660e01b8152600401602060405180830381865afa158015610152573d6000803e3d6000fd5b505050506040513d601f19601f8201168201806040525081019061017691906101e0565b610181906012610219565b60ff1661018e919061023e565b61019990600a61033b565b60a052506103479050565b6001600160a01b03811681146101b957600080fd5b50565b6000602082840312156101ce57600080fd5b81516101d9816101a4565b9392505050565b6000602082840312156101f257600080fd5b815160ff811681146101d957600080fd5b634e487b7160e01b600052601160045260246000fd5b600060ff821660ff84168060ff0382111561023657610236610203565b019392505050565b60008282101561025057610250610203565b500390565b600181815b8085111561029057816000190482111561027657610276610203565b8085161561028357918102915b93841c939080029061025a565b509250929050565b6000826102a757506001610335565b816102b457506000610335565b81600181146102ca57600281146102d4576102f0565b6001915050610335565b60ff8411156102e5576102e5610203565b50506001821b610335565b5060208310610133831016604e8410600b8410161715610313575081810a610335565b61031d8383610255565b806000190482111561033157610331610203565b0290505b92915050565b60006101d98383610298565b60805160a0516101f96103776000396000818160b2015260fc015260008181604b015261012501526101f96000f3fe608060405234801561001057600080fd5b50600436106100415760003560e01c806313511b5c14610046578063679aefce1461009757806371f29123146100ad575b600080fd5b61006d7f000000000000000000000000000000000000000000000000000000000000000081565b60405173ffffffffffffffffffffffffffffffffffffffff90911681526020015b60405180910390f35b61009f6100d4565b60405190815260200161008e565b61009f7f000000000000000000000000000000000000000000000000000000000000000081565b6040517f07a2d13a0000000000000000000000000000000000000000000000000000000081527f000000000000000000000000000000000000000000000000000000000000000060048201526000907f000000000000000000000000000000000000000000000000000000000000000073ffffffffffffffffffffffffffffffffffffffff16906307a2d13a90602401602060405180830381865afa158015610181573d6000803e3d6000fd5b505050506040513d601f19601f820116820180604052508101906101a591906101aa565b905090565b6000602082840312156101bc57600080fd5b505191905056fea264697066735822122091ac933a96d72ea39afd843b1d1ab3a8ea66aac1ae2c25228541b16ae410605b64736f6c634300080b0033a264697066735822122003baa2ea8fc659e4381850bd0350ed9d6d5da45fc00aa207605c2be83d50c50e64736f6c634300080b0033",
  "linkReferences": {},
  "deployedLinkReferences": {}
}