{
  "_format": "hh-sol-artifact-1",
  "contractName": "PoolPauseHelper",
  "sourceName": "contracts/PoolPauseHelper.sol",
  "abi": [
    {
      "inputs": [
        {
          "internalType": "contract IVault",
          "name": "vault",
          "type": "address"
        },
        {
          "internalType": "address",
          "name": "initialOwner",
          "type": "address"
        }
      ],
      "stateMutability": "nonpayable",
      "type": "constructor"
    },
    {
      "inputs": [
        {
          "internalType": "uint256",
          "name": "poolSetId",
          "type": "uint256"
        }
      ],
      "name": "IndexOutOfBounds",
      "type": "error"
    },
    {
      "inputs": [
        {
          "internalType": "uint256",
          "name": "poolSetId",
          "type": "uint256"
        }
      ],
      "name": "InvalidPoolSetId",
      "type": "error"
    },
    {
      "inputs": [],
      "name": "InvalidPoolSetManager",
      "type": "error"
    },
    {
      "inputs": [
        {
          "internalType": "address",
          "name": "owner",
          "type": "address"
        }
      ],
      "name": "OwnableInvalidOwner",
      "type": "error"
    },
    {
      "inputs": [
        {
          "internalType": "address",
          "name": "account",
          "type": "address"
        }
      ],
      "name": "OwnableUnauthorizedAccount",
      "type": "error"
    },
    {
      "inputs": [
        {
          "internalType": "address",
          "name": "pool",
          "type": "address"
        },
        {
          "internalType": "uint256",
          "name": "poolSetId",
          "type": "uint256"
        }
      ],
      "name": "PoolAlreadyInSet",
      "type": "error"
    },
    {
      "inputs": [
        {
          "internalType": "address",
          "name": "pool",
          "type": "address"
        },
        {
          "internalType": "uint256",
          "name": "poolSetId",
          "type": "uint256"
        }
      ],
      "name": "PoolNotInSet",
      "type": "error"
    },
    {
      "inputs": [
        {
          "internalType": "address",
          "name": "pool",
          "type": "address"
        }
      ],
      "name": "PoolNotRegistered",
      "type": "error"
    },
    {
      "inputs": [
        {
          "internalType": "address",
          "name": "poolSetManager",
          "type": "address"
        }
      ],
      "name": "PoolSetManagerNotUnique",
      "type": "error"
    },
    {
      "inputs": [],
      "name": "SenderIsNotPoolSetManager",
      "type": "error"
    },
    {
      "inputs": [],
      "name": "SenderNotAllowed",
      "type": "error"
    },
    {
      "inputs": [],
      "name": "VaultNotSet",
      "type": "error"
    },
    {
      "anonymous": false,
      "inputs": [
        {
          "indexed": true,
          "internalType": "address",
          "name": "previousOwner",
          "type": "address"
        },
        {
          "indexed": true,
          "internalType": "address",
          "name": "newOwner",
          "type": "address"
        }
      ],
      "name": "OwnershipTransferStarted",
      "type": "event"
    },
    {
      "anonymous": false,
      "inputs": [
        {
          "indexed": true,
          "internalType": "address",
          "name": "previousOwner",
          "type": "address"
        },
        {
          "indexed": true,
          "internalType": "address",
          "name": "newOwner",
          "type": "address"
        }
      ],
      "name": "OwnershipTransferred",
      "type": "event"
    },
    {
      "anonymous": false,
      "inputs": [
        {
          "indexed": true,
          "internalType": "address",
          "name": "pool",
          "type": "address"
        },
        {
          "indexed": true,
          "internalType": "uint256",
          "name": "poolSetId",
          "type": "uint256"
        }
      ],
      "name": "PoolAddedToSet",
      "type": "event"
    },
    {
      "anonymous": false,
      "inputs": [
        {
          "indexed": true,
          "internalType": "address",
          "name": "pool",
          "type": "address"
        },
        {
          "indexed": true,
          "internalType": "uint256",
          "name": "poolSetId",
          "type": "uint256"
        }
      ],
      "name": "PoolRemovedFromSet",
      "type": "event"
    },
    {
      "anonymous": false,
      "inputs": [
        {
          "indexed": true,
          "internalType": "uint256",
          "name": "poolSetId",
          "type": "uint256"
        },
        {
          "indexed": true,
          "internalType": "address",
          "name": "initialManager",
          "type": "address"
        }
      ],
      "name": "PoolSetCreated",
      "type": "event"
    },
    {
      "anonymous": false,
      "inputs": [
        {
          "indexed": true,
          "internalType": "uint256",
          "name": "poolSetId",
          "type": "uint256"
        },
        {
          "indexed": true,
          "internalType": "address",
          "name": "manager",
          "type": "address"
        }
      ],
      "name": "PoolSetDestroyed",
      "type": "event"
    },
    {
      "anonymous": false,
      "inputs": [
        {
          "indexed": true,
          "internalType": "uint256",
          "name": "poolSetId",
          "type": "uint256"
        },
        {
          "indexed": true,
          "internalType": "address",
          "name": "oldManager",
          "type": "address"
        },
        {
          "indexed": true,
          "internalType": "address",
          "name": "newManager",
          "type": "address"
        }
      ],
      "name": "PoolSetOwnershipTransferred",
      "type": "event"
    },
    {
      "inputs": [],
      "name": "acceptOwnership",
      "outputs": [],
      "stateMutability": "nonpayable",
      "type": "function"
    },
    {
      "inputs": [
        {
          "internalType": "uint256",
          "name": "poolSetId",
          "type": "uint256"
        },
        {
          "internalType": "address[]",
          "name": "newPools",
          "type": "address[]"
        }
      ],
      "name": "addPoolsToSet",
      "outputs": [],
      "stateMutability": "nonpayable",
      "type": "function"
    },
    {
      "inputs": [
        {
          "internalType": "address",
          "name": "initialManager",
          "type": "address"
        },
        {
          "internalType": "address[]",
          "name": "newPools",
          "type": "address[]"
        }
      ],
      "name": "createPoolSet",
      "outputs": [
        {
          "internalType": "uint256",
          "name": "poolSetId",
          "type": "uint256"
        }
      ],
      "stateMutability": "nonpayable",
      "type": "function"
    },
    {
      "inputs": [
        {
          "internalType": "address",
          "name": "initialManager",
          "type": "address"
        }
      ],
      "name": "createPoolSet",
      "outputs": [
        {
          "internalType": "uint256",
          "name": "",
          "type": "uint256"
        }
      ],
      "stateMutability": "nonpayable",
      "type": "function"
    },
    {
      "inputs": [
        {
          "internalType": "uint256",
          "name": "poolSetId",
          "type": "uint256"
        }
      ],
      "name": "destroyPoolSet",
      "outputs": [],
      "stateMutability": "nonpayable",
      "type": "function"
    },
    {
      "inputs": [
        {
          "internalType": "address",
          "name": "newOwner",
          "type": "address"
        }
      ],
      "name": "forceTransferOwnership",
      "outputs": [],
      "stateMutability": "nonpayable",
      "type": "function"
    },
    {
      "inputs": [
        {
          "internalType": "bytes4",
          "name": "selector",
          "type": "bytes4"
        }
      ],
      "name": "getActionId",
      "outputs": [
        {
          "internalType": "bytes32",
          "name": "",
          "type": "bytes32"
        }
      ],
      "stateMutability": "view",
      "type": "function"
    },
    {
      "inputs": [
        {
          "internalType": "uint256",
          "name": "poolSetId",
          "type": "uint256"
        }
      ],
      "name": "getAllPoolsInSet",
      "outputs": [
        {
          "internalType": "address[]",
          "name": "pools",
          "type": "address[]"
        }
      ],
      "stateMutability": "view",
      "type": "function"
    },
    {
      "inputs": [],
      "name": "getAuthorizer",
      "outputs": [
        {
          "internalType": "contract IAuthorizer",
          "name": "",
          "type": "address"
        }
      ],
      "stateMutability": "view",
      "type": "function"
    },
    {
      "inputs": [
        {
          "internalType": "uint256",
          "name": "poolSetId",
          "type": "uint256"
        }
      ],
      "name": "getManagerForPoolSet",
      "outputs": [
        {
          "internalType": "address",
          "name": "",
          "type": "address"
        }
      ],
      "stateMutability": "view",
      "type": "function"
    },
    {
      "inputs": [],
      "name": "getNextPoolSetId",
      "outputs": [
        {
          "internalType": "uint256",
          "name": "",
          "type": "uint256"
        }
      ],
      "stateMutability": "view",
      "type": "function"
    },
    {
      "inputs": [
        {
          "internalType": "uint256",
          "name": "poolSetId",
          "type": "uint256"
        }
      ],
      "name": "getPoolCountForSet",
      "outputs": [
        {
          "internalType": "uint256",
          "name": "",
          "type": "uint256"
        }
      ],
      "stateMutability": "view",
      "type": "function"
    },
    {
      "inputs": [],
      "name": "getPoolSetIdForCaller",
      "outputs": [
        {
          "internalType": "uint256",
          "name": "",
          "type": "uint256"
        }
      ],
      "stateMutability": "view",
      "type": "function"
    },
    {
      "inputs": [
        {
          "internalType": "address",
          "name": "manager",
          "type": "address"
        }
      ],
      "name": "getPoolSetIdForManager",
      "outputs": [
        {
          "internalType": "uint256",
          "name": "",
          "type": "uint256"
        }
      ],
      "stateMutability": "view",
      "type": "function"
    },
    {
      "inputs": [
        {
          "internalType": "uint256",
          "name": "poolSetId",
          "type": "uint256"
        },
        {
          "internalType": "uint256",
          "name": "from",
          "type": "uint256"
        },
        {
          "internalType": "uint256",
          "name": "to",
          "type": "uint256"
        }
      ],
      "name": "getPoolsInSet",
      "outputs": [
        {
          "internalType": "address[]",
          "name": "pools",
          "type": "address[]"
        }
      ],
      "stateMutability": "view",
      "type": "function"
    },
    {
      "inputs": [
        {
          "internalType": "address",
          "name": "pool",
          "type": "address"
        },
        {
          "internalType": "uint256",
          "name": "poolSetId",
          "type": "uint256"
        }
      ],
      "name": "isPoolInSet",
      "outputs": [
        {
          "internalType": "bool",
          "name": "",
          "type": "bool"
        }
      ],
      "stateMutability": "view",
      "type": "function"
    },
    {
      "inputs": [
        {
          "internalType": "uint256",
          "name": "poolSetId",
          "type": "uint256"
        }
      ],
      "name": "isValidPoolSetId",
      "outputs": [
        {
          "internalType": "bool",
          "name": "",
          "type": "bool"
        }
      ],
      "stateMutability": "view",
      "type": "function"
    },
    {
      "inputs": [],
      "name": "owner",
      "outputs": [
        {
          "internalType": "address",
          "name": "",
          "type": "address"
        }
      ],
      "stateMutability": "view",
      "type": "function"
    },
    {
      "inputs": [
        {
          "internalType": "address[]",
          "name": "pools",
          "type": "address[]"
        }
      ],
      "name": "pausePools",
      "outputs": [],
      "stateMutability": "nonpayable",
      "type": "function"
    },
    {
      "inputs": [],
      "name": "pendingOwner",
      "outputs": [
        {
          "internalType": "address",
          "name": "",
          "type": "address"
        }
      ],
      "stateMutability": "view",
      "type": "function"
    },
    {
      "inputs": [
        {
          "internalType": "uint256",
          "name": "poolSetId",
          "type": "uint256"
        },
        {
          "internalType": "address[]",
          "name": "pools",
          "type": "address[]"
        }
      ],
      "name": "removePoolsFromSet",
      "outputs": [],
      "stateMutability": "nonpayable",
      "type": "function"
    },
    {
      "inputs": [],
      "name": "renounceOwnership",
      "outputs": [],
      "stateMutability": "nonpayable",
      "type": "function"
    },
    {
      "inputs": [
        {
          "internalType": "address",
          "name": "newOwner",
          "type": "address"
        }
      ],
      "name": "transferOwnership",
      "outputs": [],
      "stateMutability": "nonpayable",
      "type": "function"
    },
    {
      "inputs": [
        {
          "internalType": "address",
          "name": "newManager",
          "type": "address"
        }
      ],
      "name": "transferPoolSetOwnership",
      "outputs": [],
      "stateMutability": "nonpayable",
      "type": "function"
    },
    {
      "inputs": [],
      "name": "vault",
      "outputs": [
        {
          "internalType": "contract IVault",
          "name": "",
          "type": "address"
        }
      ],
      "stateMutability": "view",
      "type": "function"
    }
  ],
  "bytecode": "0x60c03461011e57601f6119c038819003918201601f19168301916001600160401b0383118484101761012257808492604094855283398101031261011e5780516001600160a01b03918282169081830361011e576020015183811680910361011e57801561010b5760018060a01b0319938460015416600155815f54958616175f5560405194167f8be0079c531659141344cd1fd0a4f28419497f9722a3daafe3b4186f6b6457e05f80a330608052156100fc5760a05260016002556118899081610137823960805181611220015260a05181818161015b0152818161028b015281816104ee0152818161063401528181610c86015261161e0152f35b630647140b60e51b5f5260045ffd5b631e4fbdf760e01b5f525f60045260245ffd5b5f80fd5b634e487b7160e01b5f52604160045260245ffdfe604060808152600480361015610013575f80fd5b5f3560e01c908163182551da14610fa2578163255dae4114610f6357816325c427ed14610f215781632da55a1d14610e895781633700f98714610dd65781633e035f9b14610bff57816362d5346214610bcf578163715018a614610b4a57816379ba509714610ae75781637c1ec4601461099b578163851c1bb3146109525781638c60ebd01461080c5781638da5cb5b146107d957816394fc405814610759578163a20dc529146105d4578163a89b112814610563578163aaabadc51461049a578163c482e8221461047c578163ce998aba14610458578163e30c397814610424578163e909c19b146103e7578163ebf3a8d01461024d578163f167a1e61461021057508063f2fde38b146101835763fbfa77cf14610130575f80fd5b3461017f575f60031936011261017f576020905173ffffffffffffffffffffffffffffffffffffffff7f0000000000000000000000000000000000000000000000000000000000000000168152f35b5f80fd5b3461017f57602060031936011261017f5761019c61100a565b6101a4611509565b73ffffffffffffffffffffffffffffffffffffffff80911690817fffffffffffffffffffffffff000000000000000000000000000000000000000060015416176001555f54167f38d16b8cac22d99fc7c124b9cd0de2d3fa1faef420bfe791d8c362d765e227005f80a3005b823461017f57602060031936011261017f57602091355f526003825273ffffffffffffffffffffffffffffffffffffffff815f2054169051908152f35b823461017f579061025d36611130565b61026893919361134e565b610271846112e9565b80519273ffffffffffffffffffffffffffffffffffffffff7f00000000000000000000000000000000000000000000000000000000000000008116925f5b8681106102b857005b826102c382846111b4565b511686517fc673bdaf00000000000000000000000000000000000000000000000000000000815281868201526020602491818184818c5afa9081156103dd575f916103b0575b5015610386579060058b9392845f5252610325828a5f206117fb565b1561035a575090600192917f5cda7ebcbcc755c3ef1c6cf035a6e26bf48b6421f72f932756d942c896287b695f80a3016102af565b90867f5a17aa8d000000000000000000000000000000000000000000000000000000005f52525260445ffd5b5090857f9e51bd5c000000000000000000000000000000000000000000000000000000005f52525ffd5b6103d09150823d84116103d6575b6103c8818361102d565b8101906112d1565b8c610309565b503d6103be565b8a513d5f823e3d90fd5b823461017f57602060031936011261017f5760209061041d61040761100a565b61040f61134e565b610418816113b3565b611474565b9051908152f35b823461017f575f60031936011261017f5760209073ffffffffffffffffffffffffffffffffffffffff600154169051908152f35b823461017f575f60031936011261017f57602091335f528252805f20549051908152f35b823461017f575f60031936011261017f576020906002549051908152f35b90503461017f575f60031936011261017f5773ffffffffffffffffffffffffffffffffffffffff6020835180937faaabadc500000000000000000000000000000000000000000000000000000000825281847f0000000000000000000000000000000000000000000000000000000000000000165afa91821561055957926020935f9361052a575b505191168152f35b61054b919350843d8611610552575b610543818361102d565b8101906112a5565b915f610522565b503d610539565b83513d5f823e3d90fd5b3461017f57602060031936011261017f5761057c61100a565b61058461134e565b73ffffffffffffffffffffffffffffffffffffffff5f541633146105ad576105ab90611555565b005b507f23dada53000000000000000000000000000000000000000000000000000000005f525ffd5b90503461017f57602091602060031936011261017f5767ffffffffffffffff90823582811161017f5761060d90939293369084016110b3565b91610616611436565b938351945f9473ffffffffffffffffffffffffffffffffffffffff807f000000000000000000000000000000000000000000000000000000000000000016965b88811061065f57005b8161066a82856111b4565b5116845f5260058b5261068d81895f206001915f520160205260405f2054151590565b1561072a57883b1561017f578751907f55aca1ec000000000000000000000000000000000000000000000000000000008252878201525f80828b8160249485925af18015610720576106e4575b5050600101610656565b8682116106f65750875260015f6106da565b6041887f4e487b71000000000000000000000000000000000000000000000000000000005f52525ffd5b89513d5f823e3d90fd5b8490877f80145d72000000000000000000000000000000000000000000000000000000005f525260245260445ffd5b90503461017f57602090602060031936011261017f5735610779816112e9565b5f526005602052815f209180519182602085549182815201945f5260205f20915f905b8282106107c2576107be86866107b4828b038361102d565b5191829182611163565b0390f35b83548752958601956001938401939091019061079c565b823461017f575f60031936011261017f5760209073ffffffffffffffffffffffffffffffffffffffff5f54169051908152f35b90503461017f57606060031936011261017f5780359060243560443591610832846112e9565b835f526005906020906005602052865f2054858511908115610948575b811561093d575b506109125750610866838561126b565b947fffffffffffffffffffffffffffffffffffffffffffffffffffffffffffffffe06108a96108948861109b565b976108a18a51998a61102d565b80895261109b565b01366020880137835b8581106108c6578751806107be8982611163565b600190825f5284845273ffffffffffffffffffffffffffffffffffffffff6108f0828b5f206116f2565b90549060031b1c1661090b610905888461126b565b8a6111b4565b52016108b2565b85907f44945fcc000000000000000000000000000000000000000000000000000000005f525260245ffd5b90508410155f610856565b808711915061084f565b90503461017f57602060031936011261017f5735907fffffffff000000000000000000000000000000000000000000000000000000008216820361017f5761041d6020926111f5565b90503461017f576020918260031936011261017f578135916109bb61134e565b6109c4836112e9565b825f5260058452815f208054805b610a87575050825f5260058452815f208054905f815581610a6a575b5050905f9183835260038552818320948554957fffffffffffffffffffffffff000000000000000000000000000000000000000073ffffffffffffffffffffffffffffffffffffffff881697169055858452528120557f79baa5e19a392c29299f3a0871dfaa49cb3bcce18826d5d6df199c9e0846a6c05f80a3005b5f52845f20908101905b818110156109ee575f8155600101610a74565b5f190180610ae173ffffffffffffffffffffffffffffffffffffffff610aad83866116f2565b90549060031b1c1687817fe632b6be71c5c7f5d98ba00da8b648a72422f750973138bc6474de6fe711b66e5f80a384611707565b506109d2565b3461017f575f60031936011261017f573373ffffffffffffffffffffffffffffffffffffffff6001541603610b1f576105ab33611555565b7f118cdaa7000000000000000000000000000000000000000000000000000000005f5233905260245ffd5b3461017f575f60031936011261017f57610b62611509565b5f73ffffffffffffffffffffffffffffffffffffffff7fffffffffffffffffffffffff0000000000000000000000000000000000000000806001541660015582549081168355167f8be0079c531659141344cd1fd0a4f28419497f9722a3daafe3b4186f6b6457e08280a3005b823461017f57602060031936011261017f5760209135610bee816112e9565b5f5260058252805f20549051908152f35b823461017f578060031936011261017f57610c1861100a565b60249260243567ffffffffffffffff811161017f57610c3d610c4691369084016110b3565b9261040f61134e565b938251610c58575b6020858551908152f35b610c6392919261134e565b610c6c856112e9565b81519273ffffffffffffffffffffffffffffffffffffffff7f00000000000000000000000000000000000000000000000000000000000000008116935f5b868110610cba5750505050610c4e565b82610cc582846111b4565b511688517fc673bdaf0000000000000000000000000000000000000000000000000000000081528186820152602090818189818c5afa908115610dcc575f91610daf575b5015610d85579060058b92835f5252610d24818b5f206117fb565b15610d585790600192917f5cda7ebcbcc755c3ef1c6cf035a6e26bf48b6421f72f932756d942c896287b695f80a301610caa565b8690867f5a17aa8d000000000000000000000000000000000000000000000000000000005f52525260445ffd5b8682877f9e51bd5c000000000000000000000000000000000000000000000000000000005f52525ffd5b610dc69150823d84116103d6576103c8818361102d565b8c610d09565b8b513d5f823e3d90fd5b823461017f57602060031936011261017f57610df061100a565b91610dfa836113b3565b610e02611436565b918291825f52600360205273ffffffffffffffffffffffffffffffffffffffff825f20951694857fffffffffffffffffffffffff0000000000000000000000000000000000000000825416179055335f526020525f81812055835f525f205533907f8a5583d08cb82be0e3e26d52a1941f10fe2fdd1bb7cc5e085a0ba35b3d7972055f80a4005b823461017f57610e9836611130565b91610ea161134e565b610eaa826112e9565b8251925f5b848110610eb857005b73ffffffffffffffffffffffffffffffffffffffff610ed782846111b4565b5116845f526005602052610eed81855f20611707565b1561072a5790846001927fe632b6be71c5c7f5d98ba00da8b648a72422f750973138bc6474de6fe711b66e5f80a301610eaf565b823461017f57602060031936011261017f5760209173ffffffffffffffffffffffffffffffffffffffff610f5361100a565b165f528252805f20549051908152f35b823461017f57602060031936011261017f57602091355f526003825273ffffffffffffffffffffffffffffffffffffffff815f20541615159051908152f35b823461017f578060031936011261017f57602090611001610fc161100a565b602435610fcd816112e9565b5f526005845273ffffffffffffffffffffffffffffffffffffffff835f209116906001915f520160205260405f2054151590565b90519015158152f35b6004359073ffffffffffffffffffffffffffffffffffffffff8216820361017f57565b90601f7fffffffffffffffffffffffffffffffffffffffffffffffffffffffffffffffe0910116810190811067ffffffffffffffff82111761106e57604052565b7f4e487b71000000000000000000000000000000000000000000000000000000005f52604160045260245ffd5b67ffffffffffffffff811161106e5760051b60200190565b9080601f8301121561017f5760209082356110cd8161109b565b936110db604051958661102d565b81855260208086019260051b82010192831161017f57602001905b828210611104575050505090565b813573ffffffffffffffffffffffffffffffffffffffff8116810361017f5781529083019083016110f6565b90604060031983011261017f57600435916024359067ffffffffffffffff821161017f57611160916004016110b3565b90565b60209060206040818301928281528551809452019301915f5b82811061118a575050505090565b835173ffffffffffffffffffffffffffffffffffffffff168552938101939281019260010161117c565b80518210156111c85760209160051b010190565b7f4e487b71000000000000000000000000000000000000000000000000000000005f52603260045260245ffd5b6040517fffffffff0000000000000000000000000000000000000000000000000000000060208201927f00000000000000000000000000000000000000000000000000000000000000008452166040820152602481526060810181811067ffffffffffffffff82111761106e5760405251902090565b9190820391821161127857565b7f4e487b71000000000000000000000000000000000000000000000000000000005f52601160045260245ffd5b9081602091031261017f575173ffffffffffffffffffffffffffffffffffffffff8116810361017f5790565b9081602091031261017f5751801515810361017f5790565b80158015611324575b6112f95750565b7f98592ddb000000000000000000000000000000000000000000000000000000005f5260045260245ffd5b50805f52600360205273ffffffffffffffffffffffffffffffffffffffff60405f205416156112f2565b61138461137d7fffffffff000000000000000000000000000000000000000000000000000000005f35166111f5565b33906115c7565b1561138b57565b7f23dada53000000000000000000000000000000000000000000000000000000005f5260045ffd5b73ffffffffffffffffffffffffffffffffffffffff16801561140e57805f52600460205260405f20546113e35750565b7f2c35aa96000000000000000000000000000000000000000000000000000000005f5260045260245ffd5b7f2de5256e000000000000000000000000000000000000000000000000000000005f5260045ffd5b335f52600460205260405f205490811561144c57565b7fbcc08f74000000000000000000000000000000000000000000000000000000005f5260045ffd5b90600254915f198314611278576001830160025582805f52600360205273ffffffffffffffffffffffffffffffffffffffff60405f20921691827fffffffffffffffffffffffff0000000000000000000000000000000000000000825416179055815f5260046020528060405f20557fdc91443db112ae1beb8fab12e3fa2dedea028e9eb6a8e92776a1aa2343007be25f80a3565b73ffffffffffffffffffffffffffffffffffffffff5f5416330361152957565b7f118cdaa7000000000000000000000000000000000000000000000000000000005f523360045260245ffd5b7fffffffffffffffffffffffff00000000000000000000000000000000000000009081600154166001555f5473ffffffffffffffffffffffffffffffffffffffff80921680938216175f55167f8be0079c531659141344cd1fd0a4f28419497f9722a3daafe3b4186f6b6457e05f80a3565b9073ffffffffffffffffffffffffffffffffffffffff9081805f541691169081146116ea57604051907faaabadc50000000000000000000000000000000000000000000000000000000082526020938483600481877f0000000000000000000000000000000000000000000000000000000000000000165afa9384156116bb5785935f956116c6575b509060649160405195869485937f9be2a88400000000000000000000000000000000000000000000000000000000855260048501526024840152306044840152165afa9182156116bb575f926116a557505090565b6111609250803d106103d6576103c8818361102d565b6040513d5f823e3d90fd5b6064929195506116e290853d871161055257610543818361102d565b949091611650565b505050600190565b80548210156111c8575f5260205f2001905f90565b906001820191815f528260205260405f2054908115155f146117f3575f199182810181811161127857825490848201918211611278578181036117a8575b5050508054801561177b5782019161175d83836116f2565b909182549160031b1b19169055555f526020525f6040812055600190565b7f4e487b71000000000000000000000000000000000000000000000000000000005f52603160045260245ffd5b6117de6117b86117c893866116f2565b90549060031b1c928392866116f2565b81939154905f199060031b92831b921b19161790565b90555f528460205260405f20555f8080611745565b505050505f90565b5f82815260018201602052604090205461184d578054906801000000000000000082101561106e57826118386117c88460018096018555846116f2565b90558054925f520160205260405f2055600190565b50505f9056fea2646970667358221220bbf76f2b279479a6ae81bef191395e763b8d46e571e8aae4d0995f91fe91154864736f6c634300081b0033",
  "linkReferences": {},
  "deployedLinkReferences": {}
}