{
  "_format": "hh-sol-artifact-1",
  "contractName": "PoolPauseHelper",
  "sourceName": "contracts/PoolPauseHelper.sol",
  "abi": [
    {
      "inputs": [
        {
          "internalType": "contract IVault",
          "name": "vault",
          "type": "address"
        },
        {
          "internalType": "address",
          "name": "initialOwner",
          "type": "address"
        }
      ],
      "stateMutability": "nonpayable",
      "type": "constructor"
    },
    {
      "inputs": [
        {
          "internalType": "uint256",
          "name": "poolSetId",
          "type": "uint256"
        }
      ],
      "name": "IndexOutOfBounds",
      "type": "error"
    },
    {
      "inputs": [
        {
          "internalType": "uint256",
          "name": "poolSetId",
          "type": "uint256"
        }
      ],
      "name": "InvalidPoolSetId",
      "type": "error"
    },
    {
      "inputs": [],
      "name": "InvalidPoolSetManager",
      "type": "error"
    },
    {
      "inputs": [
        {
          "internalType": "address",
          "name": "owner",
          "type": "address"
        }
      ],
      "name": "OwnableInvalidOwner",
      "type": "error"
    },
    {
      "inputs": [
        {
          "internalType": "address",
          "name": "account",
          "type": "address"
        }
      ],
      "name": "OwnableUnauthorizedAccount",
      "type": "error"
    },
    {
      "inputs": [
        {
          "internalType": "address",
          "name": "pool",
          "type": "address"
        },
        {
          "internalType": "uint256",
          "name": "poolSetId",
          "type": "uint256"
        }
      ],
      "name": "PoolAlreadyInSet",
      "type": "error"
    },
    {
      "inputs": [
        {
          "internalType": "address",
          "name": "pool",
          "type": "address"
        },
        {
          "internalType": "uint256",
          "name": "poolSetId",
          "type": "uint256"
        }
      ],
      "name": "PoolNotInSet",
      "type": "error"
    },
    {
      "inputs": [
        {
          "internalType": "address",
          "name": "pool",
          "type": "address"
        }
      ],
      "name": "PoolNotRegistered",
      "type": "error"
    },
    {
      "inputs": [
        {
          "internalType": "address",
          "name": "poolSetManager",
          "type": "address"
        }
      ],
      "name": "PoolSetManagerNotUnique",
      "type": "error"
    },
    {
      "inputs": [],
      "name": "SenderIsNotPoolSetManager",
      "type": "error"
    },
    {
      "inputs": [],
      "name": "SenderNotAllowed",
      "type": "error"
    },
    {
      "inputs": [],
      "name": "VaultNotSet",
      "type": "error"
    },
    {
      "anonymous": false,
      "inputs": [
        {
          "indexed": true,
          "internalType": "address",
          "name": "previousOwner",
          "type": "address"
        },
        {
          "indexed": true,
          "internalType": "address",
          "name": "newOwner",
          "type": "address"
        }
      ],
      "name": "OwnershipTransferStarted",
      "type": "event"
    },
    {
      "anonymous": false,
      "inputs": [
        {
          "indexed": true,
          "internalType": "address",
          "name": "previousOwner",
          "type": "address"
        },
        {
          "indexed": true,
          "internalType": "address",
          "name": "newOwner",
          "type": "address"
        }
      ],
      "name": "OwnershipTransferred",
      "type": "event"
    },
    {
      "anonymous": false,
      "inputs": [
        {
          "indexed": true,
          "internalType": "address",
          "name": "pool",
          "type": "address"
        },
        {
          "indexed": true,
          "internalType": "uint256",
          "name": "poolSetId",
          "type": "uint256"
        }
      ],
      "name": "PoolAddedToSet",
      "type": "event"
    },
    {
      "anonymous": false,
      "inputs": [
        {
          "indexed": true,
          "internalType": "address",
          "name": "pool",
          "type": "address"
        },
        {
          "indexed": true,
          "internalType": "uint256",
          "name": "poolSetId",
          "type": "uint256"
        }
      ],
      "name": "PoolRemovedFromSet",
      "type": "event"
    },
    {
      "anonymous": false,
      "inputs": [
        {
          "indexed": true,
          "internalType": "uint256",
          "name": "poolSetId",
          "type": "uint256"
        },
        {
          "indexed": true,
          "internalType": "address",
          "name": "initialManager",
          "type": "address"
        }
      ],
      "name": "PoolSetCreated",
      "type": "event"
    },
    {
      "anonymous": false,
      "inputs": [
        {
          "indexed": true,
          "internalType": "uint256",
          "name": "poolSetId",
          "type": "uint256"
        },
        {
          "indexed": true,
          "internalType": "address",
          "name": "manager",
          "type": "address"
        }
      ],
      "name": "PoolSetDestroyed",
      "type": "event"
    },
    {
      "anonymous": false,
      "inputs": [
        {
          "indexed": true,
          "internalType": "uint256",
          "name": "poolSetId",
          "type": "uint256"
        },
        {
          "indexed": true,
          "internalType": "address",
          "name": "oldManager",
          "type": "address"
        },
        {
          "indexed": true,
          "internalType": "address",
          "name": "newManager",
          "type": "address"
        }
      ],
      "name": "PoolSetOwnershipTransferred",
      "type": "event"
    },
    {
      "inputs": [],
      "name": "acceptOwnership",
      "outputs": [],
      "stateMutability": "nonpayable",
      "type": "function"
    },
    {
      "inputs": [
        {
          "internalType": "uint256",
          "name": "poolSetId",
          "type": "uint256"
        },
        {
          "internalType": "address[]",
          "name": "newPools",
          "type": "address[]"
        }
      ],
      "name": "addPoolsToSet",
      "outputs": [],
      "stateMutability": "nonpayable",
      "type": "function"
    },
    {
      "inputs": [
        {
          "internalType": "address",
          "name": "initialManager",
          "type": "address"
        },
        {
          "internalType": "address[]",
          "name": "newPools",
          "type": "address[]"
        }
      ],
      "name": "createPoolSet",
      "outputs": [
        {
          "internalType": "uint256",
          "name": "poolSetId",
          "type": "uint256"
        }
      ],
      "stateMutability": "nonpayable",
      "type": "function"
    },
    {
      "inputs": [
        {
          "internalType": "address",
          "name": "initialManager",
          "type": "address"
        }
      ],
      "name": "createPoolSet",
      "outputs": [
        {
          "internalType": "uint256",
          "name": "",
          "type": "uint256"
        }
      ],
      "stateMutability": "nonpayable",
      "type": "function"
    },
    {
      "inputs": [
        {
          "internalType": "uint256",
          "name": "poolSetId",
          "type": "uint256"
        }
      ],
      "name": "destroyPoolSet",
      "outputs": [],
      "stateMutability": "nonpayable",
      "type": "function"
    },
    {
      "inputs": [
        {
          "internalType": "address",
          "name": "newOwner",
          "type": "address"
        }
      ],
      "name": "forceTransferOwnership",
      "outputs": [],
      "stateMutability": "nonpayable",
      "type": "function"
    },
    {
      "inputs": [
        {
          "internalType": "bytes4",
          "name": "selector",
          "type": "bytes4"
        }
      ],
      "name": "getActionId",
      "outputs": [
        {
          "internalType": "bytes32",
          "name": "",
          "type": "bytes32"
        }
      ],
      "stateMutability": "view",
      "type": "function"
    },
    {
      "inputs": [
        {
          "internalType": "uint256",
          "name": "poolSetId",
          "type": "uint256"
        }
      ],
      "name": "getAllPoolsInSet",
      "outputs": [
        {
          "internalType": "address[]",
          "name": "pools",
          "type": "address[]"
        }
      ],
      "stateMutability": "view",
      "type": "function"
    },
    {
      "inputs": [],
      "name": "getAuthorizer",
      "outputs": [
        {
          "internalType": "contract IAuthorizer",
          "name": "",
          "type": "address"
        }
      ],
      "stateMutability": "view",
      "type": "function"
    },
    {
      "inputs": [
        {
          "internalType": "uint256",
          "name": "poolSetId",
          "type": "uint256"
        }
      ],
      "name": "getManagerForPoolSet",
      "outputs": [
        {
          "internalType": "address",
          "name": "",
          "type": "address"
        }
      ],
      "stateMutability": "view",
      "type": "function"
    },
    {
      "inputs": [],
      "name": "getNextPoolSetId",
      "outputs": [
        {
          "internalType": "uint256",
          "name": "",
          "type": "uint256"
        }
      ],
      "stateMutability": "view",
      "type": "function"
    },
    {
      "inputs": [
        {
          "internalType": "uint256",
          "name": "poolSetId",
          "type": "uint256"
        }
      ],
      "name": "getPoolCountForSet",
      "outputs": [
        {
          "internalType": "uint256",
          "name": "",
          "type": "uint256"
        }
      ],
      "stateMutability": "view",
      "type": "function"
    },
    {
      "inputs": [],
      "name": "getPoolSetIdForCaller",
      "outputs": [
        {
          "internalType": "uint256",
          "name": "",
          "type": "uint256"
        }
      ],
      "stateMutability": "view",
      "type": "function"
    },
    {
      "inputs": [
        {
          "internalType": "address",
          "name": "manager",
          "type": "address"
        }
      ],
      "name": "getPoolSetIdForManager",
      "outputs": [
        {
          "internalType": "uint256",
          "name": "",
          "type": "uint256"
        }
      ],
      "stateMutability": "view",
      "type": "function"
    },
    {
      "inputs": [
        {
          "internalType": "uint256",
          "name": "poolSetId",
          "type": "uint256"
        },
        {
          "internalType": "uint256",
          "name": "from",
          "type": "uint256"
        },
        {
          "internalType": "uint256",
          "name": "to",
          "type": "uint256"
        }
      ],
      "name": "getPoolsInSet",
      "outputs": [
        {
          "internalType": "address[]",
          "name": "pools",
          "type": "address[]"
        }
      ],
      "stateMutability": "view",
      "type": "function"
    },
    {
      "inputs": [
        {
          "internalType": "address",
          "name": "pool",
          "type": "address"
        },
        {
          "internalType": "uint256",
          "name": "poolSetId",
          "type": "uint256"
        }
      ],
      "name": "isPoolInSet",
      "outputs": [
        {
          "internalType": "bool",
          "name": "",
          "type": "bool"
        }
      ],
      "stateMutability": "view",
      "type": "function"
    },
    {
      "inputs": [
        {
          "internalType": "uint256",
          "name": "poolSetId",
          "type": "uint256"
        }
      ],
      "name": "isValidPoolSetId",
      "outputs": [
        {
          "internalType": "bool",
          "name": "",
          "type": "bool"
        }
      ],
      "stateMutability": "view",
      "type": "function"
    },
    {
      "inputs": [],
      "name": "owner",
      "outputs": [
        {
          "internalType": "address",
          "name": "",
          "type": "address"
        }
      ],
      "stateMutability": "view",
      "type": "function"
    },
    {
      "inputs": [
        {
          "internalType": "address[]",
          "name": "pools",
          "type": "address[]"
        }
      ],
      "name": "pausePools",
      "outputs": [],
      "stateMutability": "nonpayable",
      "type": "function"
    },
    {
      "inputs": [],
      "name": "pendingOwner",
      "outputs": [
        {
          "internalType": "address",
          "name": "",
          "type": "address"
        }
      ],
      "stateMutability": "view",
      "type": "function"
    },
    {
      "inputs": [
        {
          "internalType": "uint256",
          "name": "poolSetId",
          "type": "uint256"
        },
        {
          "internalType": "address[]",
          "name": "pools",
          "type": "address[]"
        }
      ],
      "name": "removePoolsFromSet",
      "outputs": [],
      "stateMutability": "nonpayable",
      "type": "function"
    },
    {
      "inputs": [],
      "name": "renounceOwnership",
      "outputs": [],
      "stateMutability": "nonpayable",
      "type": "function"
    },
    {
      "inputs": [
        {
          "internalType": "address",
          "name": "newOwner",
          "type": "address"
        }
      ],
      "name": "transferOwnership",
      "outputs": [],
      "stateMutability": "nonpayable",
      "type": "function"
    },
    {
      "inputs": [
        {
          "internalType": "address",
          "name": "newManager",
          "type": "address"
        }
      ],
      "name": "transferPoolSetOwnership",
      "outputs": [],
      "stateMutability": "nonpayable",
      "type": "function"
    },
    {
      "inputs": [],
      "name": "vault",
      "outputs": [
        {
          "internalType": "contract IVault",
          "name": "",
          "type": "address"
        }
      ],
      "stateMutability": "view",
      "type": "function"
    }
  ],
  "bytecode": "0x60c03461011e57601f61199738819003918201601f19168301916001600160401b0383118484101761012257808492604094855283398101031261011e5780516001600160a01b03918282169081830361011e576020015183811680910361011e57801561010b5760018060a01b0319938460015416600155815f54958616175f5560405194167f8be0079c531659141344cd1fd0a4f28419497f9722a3daafe3b4186f6b6457e05f80a330608052156100fc5760a0526001600255611860908161013782396080518161125c015260a05181818161015e0152818161028e015281816104f10152818161066901528181610cbe01526116fe0152f35b630647140b60e51b5f5260045ffd5b631e4fbdf760e01b5f525f60045260245ffd5b5f80fd5b634e487b7160e01b5f52604160045260245ffdfe604060808152600480361015610013575f80fd5b5f35908160e01c918263182551da14610fde578263255dae4114610f9e57826325c427ed14610f5b5782632da55a1d14610ec25782633700f98714610e0e5782633e035f9b14610c3657826362d5346214610c05578263715018a614610b8057826379ba509714610b1c5782637c1ec460146109d0578263851c1bb3146109875782638c60ebd0146108415782638da5cb5b1461080e57826394fc40581461078e578263a20dc52914610609578263a89b11281461056657508163aaabadc51461049d578163c482e8221461047f578163ce998aba1461045b578163e30c397814610427578163e909c19b146103ea578163ebf3a8d014610250578163f167a1e61461021357508063f2fde38b146101865763fbfa77cf14610133575f80fd5b34610182575f600319360112610182576020905173ffffffffffffffffffffffffffffffffffffffff7f0000000000000000000000000000000000000000000000000000000000000000168152f35b5f80fd5b346101825760206003193601126101825761019f611046565b6101a761138a565b73ffffffffffffffffffffffffffffffffffffffff80911690817fffffffffffffffffffffffff000000000000000000000000000000000000000060015416176001555f54167f38d16b8cac22d99fc7c124b9cd0de2d3fa1faef420bfe791d8c362d765e227005f80a3005b823461018257602060031936011261018257602091355f526003825273ffffffffffffffffffffffffffffffffffffffff815f2054169051908152f35b823461018257906102603661116c565b61026b93919361138a565b61027484611325565b80519273ffffffffffffffffffffffffffffffffffffffff7f00000000000000000000000000000000000000000000000000000000000000008116925f5b8681106102bb57005b826102c682846111f0565b511686517fc673bdaf00000000000000000000000000000000000000000000000000000000815281868201526020602491818184818c5afa9081156103e0575f916103b3575b5015610389579060058b9392845f5252610328828a5f206117d2565b1561035d575090600192917f5cda7ebcbcc755c3ef1c6cf035a6e26bf48b6421f72f932756d942c896287b695f80a3016102b2565b90867f5a17aa8d000000000000000000000000000000000000000000000000000000005f52525260445ffd5b5090857f9e51bd5c000000000000000000000000000000000000000000000000000000005f52525ffd5b6103d39150823d84116103d9575b6103cb8183611069565b81019061130d565b8c61030c565b503d6103c1565b8a513d5f823e3d90fd5b82346101825760206003193601126101825760209061042061040a611046565b61041261138a565b61041b816113d6565b611497565b9051908152f35b8234610182575f6003193601126101825760209073ffffffffffffffffffffffffffffffffffffffff600154169051908152f35b8234610182575f60031936011261018257602091335f528252805f20549051908152f35b8234610182575f600319360112610182576020906002549051908152f35b905034610182575f6003193601126101825773ffffffffffffffffffffffffffffffffffffffff6020835180937faaabadc500000000000000000000000000000000000000000000000000000000825281847f0000000000000000000000000000000000000000000000000000000000000000165afa91821561055c57926020935f9361052d575b505191168152f35b61054e919350843d8611610555575b6105468183611069565b8101906112e1565b915f610525565b503d61053c565b83513d5f823e3d90fd5b34610182576020600319360112610182576105b46105ad7fffffffff000000000000000000000000000000000000000000000000000000006105a6611046565b9316611231565b33906116a7565b156105e25773ffffffffffffffffffffffffffffffffffffffff5f541633146105e2576105e09061152c565b005b507f23dada53000000000000000000000000000000000000000000000000000000005f525ffd5b8382346101825760209160206003193601126101825767ffffffffffffffff9082358281116101825761064290939293369084016110ef565b9161064b611459565b938351945f9473ffffffffffffffffffffffffffffffffffffffff807f000000000000000000000000000000000000000000000000000000000000000016965b88811061069457005b8161069f82856111f0565b5116845f5260058b526106c281895f206001915f520160205260405f2054151590565b1561075f57883b15610182578751907f55aca1ec000000000000000000000000000000000000000000000000000000008252878201525f80828b8160249485925af1801561075557610719575b505060010161068b565b86821161072b5750875260018b61070f565b6041887f4e487b71000000000000000000000000000000000000000000000000000000005f52525ffd5b89513d5f823e3d90fd5b8490877f80145d72000000000000000000000000000000000000000000000000000000005f525260245260445ffd5b83823461018257602090602060031936011261018257356107ae81611325565b5f526005602052815f209180519182602085549182815201945f5260205f20915f905b8282106107f7576107f386866107e9828b0383611069565b519182918261119f565b0390f35b8354875295860195600193840193909101906107d1565b8334610182575f6003193601126101825760209073ffffffffffffffffffffffffffffffffffffffff5f54169051908152f35b838234610182576060600319360112610182578035906024356044359161086784611325565b835f526005906020906005602052865f205485851190811561097d575b8115610972575b50610947575061089b83856112a7565b947fffffffffffffffffffffffffffffffffffffffffffffffffffffffffffffffe06108de6108c9886110d7565b976108d68a51998a611069565b8089526110d7565b01366020880137835b8581106108fb578751806107f3898261119f565b600190825f5284845273ffffffffffffffffffffffffffffffffffffffff610925828b5f2061159e565b90549060031b1c1661094061093a88846112a7565b8a6111f0565b52016108e7565b85907f44945fcc000000000000000000000000000000000000000000000000000000005f525260245ffd5b90508410158861088b565b8087119150610884565b8382346101825760206003193601126101825735907fffffffff000000000000000000000000000000000000000000000000000000008216820361018257610420602092611231565b8382346101825760209182600319360112610182578135916109f061138a565b6109f983611325565b825f5260058452815f208054805b610abc575050825f5260058452815f208054905f815581610a9f575b5050905f9183835260038552818320948554957fffffffffffffffffffffffff000000000000000000000000000000000000000073ffffffffffffffffffffffffffffffffffffffff881697169055858452528120557f79baa5e19a392c29299f3a0871dfaa49cb3bcce18826d5d6df199c9e0846a6c05f80a3005b5f52845f20908101905b81811015610a23575f8155600101610aa9565b5f190180610b1673ffffffffffffffffffffffffffffffffffffffff610ae2838661159e565b90549060031b1c1687817fe632b6be71c5c7f5d98ba00da8b648a72422f750973138bc6474de6fe711b66e5f80a3846115b3565b50610a07565b5034610182575f600319360112610182573373ffffffffffffffffffffffffffffffffffffffff6001541603610b55576105e03361152c565b7f118cdaa7000000000000000000000000000000000000000000000000000000005f5233905260245ffd5b34610182575f60031936011261018257610b9861138a565b5f73ffffffffffffffffffffffffffffffffffffffff7fffffffffffffffffffffffff0000000000000000000000000000000000000000806001541660015582549081168355167f8be0079c531659141344cd1fd0a4f28419497f9722a3daafe3b4186f6b6457e08280a3005b5082346101825760206003193601126101825760209135610c2581611325565b5f5260058252805f20549051908152f35b508234610182578060031936011261018257610c50611046565b60249260243567ffffffffffffffff811161018257610c75610c7e91369084016110ef565b9261041261138a565b938251610c90575b6020858551908152f35b610c9b92919261138a565b610ca485611325565b81519273ffffffffffffffffffffffffffffffffffffffff7f00000000000000000000000000000000000000000000000000000000000000008116935f5b868110610cf25750505050610c86565b82610cfd82846111f0565b511688517fc673bdaf0000000000000000000000000000000000000000000000000000000081528186820152602090818189818c5afa908115610e04575f91610de7575b5015610dbd579060058b92835f5252610d5c818b5f206117d2565b15610d905790600192917f5cda7ebcbcc755c3ef1c6cf035a6e26bf48b6421f72f932756d942c896287b695f80a301610ce2565b8690867f5a17aa8d000000000000000000000000000000000000000000000000000000005f52525260445ffd5b8682877f9e51bd5c000000000000000000000000000000000000000000000000000000005f52525ffd5b610dfe9150823d84116103d9576103cb8183611069565b8c610d41565b8b513d5f823e3d90fd5b50823461018257602060031936011261018257610e29611046565b91610e33836113d6565b610e3b611459565b918291825f52600360205273ffffffffffffffffffffffffffffffffffffffff825f20951694857fffffffffffffffffffffffff0000000000000000000000000000000000000000825416179055335f526020525f81812055835f525f205533907f8a5583d08cb82be0e3e26d52a1941f10fe2fdd1bb7cc5e085a0ba35b3d7972055f80a4005b50823461018257610ed23661116c565b91610edb61138a565b610ee482611325565b8251925f5b848110610ef257005b73ffffffffffffffffffffffffffffffffffffffff610f1182846111f0565b5116845f526005602052610f2781855f206115b3565b1561075f5790846001927fe632b6be71c5c7f5d98ba00da8b648a72422f750973138bc6474de6fe711b66e5f80a301610ee9565b5082346101825760206003193601126101825760209173ffffffffffffffffffffffffffffffffffffffff610f8e611046565b165f528252805f20549051908152f35b50823461018257602060031936011261018257602091355f526003825273ffffffffffffffffffffffffffffffffffffffff815f20541615159051908152f35b833461018257806003193601126101825760209061103d610ffd611046565b60243561100981611325565b5f526005845273ffffffffffffffffffffffffffffffffffffffff835f209116906001915f520160205260405f2054151590565b90519015158152f35b6004359073ffffffffffffffffffffffffffffffffffffffff8216820361018257565b90601f7fffffffffffffffffffffffffffffffffffffffffffffffffffffffffffffffe0910116810190811067ffffffffffffffff8211176110aa57604052565b7f4e487b71000000000000000000000000000000000000000000000000000000005f52604160045260245ffd5b67ffffffffffffffff81116110aa5760051b60200190565b9080601f83011215610182576020908235611109816110d7565b936111176040519586611069565b81855260208086019260051b82010192831161018257602001905b828210611140575050505090565b813573ffffffffffffffffffffffffffffffffffffffff81168103610182578152908301908301611132565b90604060031983011261018257600435916024359067ffffffffffffffff82116101825761119c916004016110ef565b90565b60209060206040818301928281528551809452019301915f5b8281106111c6575050505090565b835173ffffffffffffffffffffffffffffffffffffffff16855293810193928101926001016111b8565b80518210156112045760209160051b010190565b7f4e487b71000000000000000000000000000000000000000000000000000000005f52603260045260245ffd5b6040517fffffffff0000000000000000000000000000000000000000000000000000000060208201927f00000000000000000000000000000000000000000000000000000000000000008452166040820152602481526060810181811067ffffffffffffffff8211176110aa5760405251902090565b919082039182116112b457565b7f4e487b71000000000000000000000000000000000000000000000000000000005f52601160045260245ffd5b90816020910312610182575173ffffffffffffffffffffffffffffffffffffffff811681036101825790565b90816020910312610182575180151581036101825790565b80158015611360575b6113355750565b7f98592ddb000000000000000000000000000000000000000000000000000000005f5260045260245ffd5b50805f52600360205273ffffffffffffffffffffffffffffffffffffffff60405f2054161561132e565b73ffffffffffffffffffffffffffffffffffffffff5f541633036113aa57565b7f118cdaa7000000000000000000000000000000000000000000000000000000005f523360045260245ffd5b73ffffffffffffffffffffffffffffffffffffffff16801561143157805f52600460205260405f20546114065750565b7f2c35aa96000000000000000000000000000000000000000000000000000000005f5260045260245ffd5b7f2de5256e000000000000000000000000000000000000000000000000000000005f5260045ffd5b335f52600460205260405f205490811561146f57565b7fbcc08f74000000000000000000000000000000000000000000000000000000005f5260045ffd5b90600254915f1983146112b4576001830160025582805f52600360205273ffffffffffffffffffffffffffffffffffffffff60405f20921691827fffffffffffffffffffffffff0000000000000000000000000000000000000000825416179055815f5260046020528060405f20557fdc91443db112ae1beb8fab12e3fa2dedea028e9eb6a8e92776a1aa2343007be25f80a3565b7fffffffffffffffffffffffff00000000000000000000000000000000000000009081600154166001555f5473ffffffffffffffffffffffffffffffffffffffff80921680938216175f55167f8be0079c531659141344cd1fd0a4f28419497f9722a3daafe3b4186f6b6457e05f80a3565b8054821015611204575f5260205f2001905f90565b906001820191815f528260205260405f2054908115155f1461169f575f19918281018181116112b4578254908482019182116112b457818103611654575b5050508054801561162757820191611609838361159e565b909182549160031b1b19169055555f526020525f6040812055600190565b7f4e487b71000000000000000000000000000000000000000000000000000000005f52603160045260245ffd5b61168a611664611674938661159e565b90549060031b1c9283928661159e565b81939154905f199060031b92831b921b19161790565b90555f528460205260405f20555f80806115f1565b505050505f90565b9073ffffffffffffffffffffffffffffffffffffffff9081805f541691169081146117ca57604051907faaabadc50000000000000000000000000000000000000000000000000000000082526020938483600481877f0000000000000000000000000000000000000000000000000000000000000000165afa93841561179b5785935f956117a6575b509060649160405195869485937f9be2a88400000000000000000000000000000000000000000000000000000000855260048501526024840152306044840152165afa91821561179b575f9261178557505090565b61119c9250803d106103d9576103cb8183611069565b6040513d5f823e3d90fd5b6064929195506117c290853d8711610555576105468183611069565b949091611730565b505050600190565b5f82815260018201602052604090205461182457805490680100000000000000008210156110aa578261180f61167484600180960185558461159e565b90558054925f520160205260405f2055600190565b50505f9056fea2646970667358221220af4ddd4d79f5571a144b7e1e3507a11ee11fbc84ff726ec139cf7dcd5483fd0d64736f6c634300081b0033",
  "linkReferences": {},
  "deployedLinkReferences": {}
}