{
  "_format": "hh-sol-artifact-1",
  "contractName": "ProtocolFeeController",
  "sourceName": "contracts/ProtocolFeeController.sol",
  "abi": [
    {
      "inputs": [
        {
          "internalType": "contract IVault",
          "name": "vault_",
          "type": "address"
        }
      ],
      "stateMutability": "nonpayable",
      "type": "constructor"
    },
    {
      "inputs": [
        {
          "internalType": "address",
          "name": "target",
          "type": "address"
        }
      ],
      "name": "AddressEmptyCode",
      "type": "error"
    },
    {
      "inputs": [
        {
          "internalType": "address",
          "name": "account",
          "type": "address"
        }
      ],
      "name": "AddressInsufficientBalance",
      "type": "error"
    },
    {
      "inputs": [
        {
          "internalType": "address",
          "name": "caller",
          "type": "address"
        },
        {
          "internalType": "address",
          "name": "pool",
          "type": "address"
        }
      ],
      "name": "CallerIsNotPoolCreator",
      "type": "error"
    },
    {
      "inputs": [],
      "name": "FailedInnerCall",
      "type": "error"
    },
    {
      "inputs": [],
      "name": "FeePrecisionTooHigh",
      "type": "error"
    },
    {
      "inputs": [],
      "name": "PoolCreatorFeePercentageTooHigh",
      "type": "error"
    },
    {
      "inputs": [
        {
          "internalType": "address",
          "name": "pool",
          "type": "address"
        }
      ],
      "name": "PoolCreatorNotRegistered",
      "type": "error"
    },
    {
      "inputs": [],
      "name": "ProtocolSwapFeePercentageTooHigh",
      "type": "error"
    },
    {
      "inputs": [],
      "name": "ProtocolYieldFeePercentageTooHigh",
      "type": "error"
    },
    {
      "inputs": [],
      "name": "ReentrancyGuardReentrantCall",
      "type": "error"
    },
    {
      "inputs": [
        {
          "internalType": "uint8",
          "name": "bits",
          "type": "uint8"
        },
        {
          "internalType": "uint256",
          "name": "value",
          "type": "uint256"
        }
      ],
      "name": "SafeCastOverflowedUintDowncast",
      "type": "error"
    },
    {
      "inputs": [
        {
          "internalType": "address",
          "name": "token",
          "type": "address"
        }
      ],
      "name": "SafeERC20FailedOperation",
      "type": "error"
    },
    {
      "inputs": [
        {
          "internalType": "address",
          "name": "sender",
          "type": "address"
        }
      ],
      "name": "SenderIsNotVault",
      "type": "error"
    },
    {
      "inputs": [],
      "name": "SenderNotAllowed",
      "type": "error"
    },
    {
      "inputs": [],
      "name": "ZeroDivision",
      "type": "error"
    },
    {
      "anonymous": false,
      "inputs": [
        {
          "indexed": false,
          "internalType": "uint256",
          "name": "swapFeePercentage",
          "type": "uint256"
        }
      ],
      "name": "GlobalProtocolSwapFeePercentageChanged",
      "type": "event"
    },
    {
      "anonymous": false,
      "inputs": [
        {
          "indexed": false,
          "internalType": "uint256",
          "name": "yieldFeePercentage",
          "type": "uint256"
        }
      ],
      "name": "GlobalProtocolYieldFeePercentageChanged",
      "type": "event"
    },
    {
      "anonymous": false,
      "inputs": [
        {
          "indexed": true,
          "internalType": "address",
          "name": "pool",
          "type": "address"
        },
        {
          "indexed": false,
          "internalType": "uint256",
          "name": "aggregateSwapFeePercentage",
          "type": "uint256"
        },
        {
          "indexed": false,
          "internalType": "bool",
          "name": "isProtocolFeeExempt",
          "type": "bool"
        }
      ],
      "name": "InitialPoolAggregateSwapFeePercentage",
      "type": "event"
    },
    {
      "anonymous": false,
      "inputs": [
        {
          "indexed": true,
          "internalType": "address",
          "name": "pool",
          "type": "address"
        },
        {
          "indexed": false,
          "internalType": "uint256",
          "name": "aggregateYieldFeePercentage",
          "type": "uint256"
        },
        {
          "indexed": false,
          "internalType": "bool",
          "name": "isProtocolFeeExempt",
          "type": "bool"
        }
      ],
      "name": "InitialPoolAggregateYieldFeePercentage",
      "type": "event"
    },
    {
      "anonymous": false,
      "inputs": [
        {
          "indexed": true,
          "internalType": "address",
          "name": "pool",
          "type": "address"
        },
        {
          "indexed": true,
          "internalType": "contract IERC20",
          "name": "token",
          "type": "address"
        },
        {
          "indexed": true,
          "internalType": "address",
          "name": "recipient",
          "type": "address"
        },
        {
          "indexed": false,
          "internalType": "uint256",
          "name": "amount",
          "type": "uint256"
        }
      ],
      "name": "PoolCreatorFeesWithdrawn",
      "type": "event"
    },
    {
      "anonymous": false,
      "inputs": [
        {
          "indexed": true,
          "internalType": "address",
          "name": "pool",
          "type": "address"
        },
        {
          "indexed": false,
          "internalType": "uint256",
          "name": "poolCreatorSwapFeePercentage",
          "type": "uint256"
        }
      ],
      "name": "PoolCreatorSwapFeePercentageChanged",
      "type": "event"
    },
    {
      "anonymous": false,
      "inputs": [
        {
          "indexed": true,
          "internalType": "address",
          "name": "pool",
          "type": "address"
        },
        {
          "indexed": false,
          "internalType": "uint256",
          "name": "poolCreatorYieldFeePercentage",
          "type": "uint256"
        }
      ],
      "name": "PoolCreatorYieldFeePercentageChanged",
      "type": "event"
    },
    {
      "anonymous": false,
      "inputs": [
        {
          "indexed": true,
          "internalType": "address",
          "name": "pool",
          "type": "address"
        },
        {
          "indexed": true,
          "internalType": "contract IERC20",
          "name": "token",
          "type": "address"
        },
        {
          "indexed": true,
          "internalType": "address",
          "name": "recipient",
          "type": "address"
        },
        {
          "indexed": false,
          "internalType": "uint256",
          "name": "amount",
          "type": "uint256"
        }
      ],
      "name": "ProtocolFeesWithdrawn",
      "type": "event"
    },
    {
      "anonymous": false,
      "inputs": [
        {
          "indexed": true,
          "internalType": "address",
          "name": "pool",
          "type": "address"
        },
        {
          "indexed": true,
          "internalType": "contract IERC20",
          "name": "token",
          "type": "address"
        },
        {
          "indexed": false,
          "internalType": "uint256",
          "name": "amount",
          "type": "uint256"
        }
      ],
      "name": "ProtocolSwapFeeCollected",
      "type": "event"
    },
    {
      "anonymous": false,
      "inputs": [
        {
          "indexed": true,
          "internalType": "address",
          "name": "pool",
          "type": "address"
        },
        {
          "indexed": false,
          "internalType": "uint256",
          "name": "swapFeePercentage",
          "type": "uint256"
        }
      ],
      "name": "ProtocolSwapFeePercentageChanged",
      "type": "event"
    },
    {
      "anonymous": false,
      "inputs": [
        {
          "indexed": true,
          "internalType": "address",
          "name": "pool",
          "type": "address"
        },
        {
          "indexed": true,
          "internalType": "contract IERC20",
          "name": "token",
          "type": "address"
        },
        {
          "indexed": false,
          "internalType": "uint256",
          "name": "amount",
          "type": "uint256"
        }
      ],
      "name": "ProtocolYieldFeeCollected",
      "type": "event"
    },
    {
      "anonymous": false,
      "inputs": [
        {
          "indexed": true,
          "internalType": "address",
          "name": "pool",
          "type": "address"
        },
        {
          "indexed": false,
          "internalType": "uint256",
          "name": "yieldFeePercentage",
          "type": "uint256"
        }
      ],
      "name": "ProtocolYieldFeePercentageChanged",
      "type": "event"
    },
    {
      "inputs": [],
      "name": "MAX_CREATOR_FEE_PERCENTAGE",
      "outputs": [
        {
          "internalType": "uint256",
          "name": "",
          "type": "uint256"
        }
      ],
      "stateMutability": "view",
      "type": "function"
    },
    {
      "inputs": [],
      "name": "MAX_PROTOCOL_SWAP_FEE_PERCENTAGE",
      "outputs": [
        {
          "internalType": "uint256",
          "name": "",
          "type": "uint256"
        }
      ],
      "stateMutability": "view",
      "type": "function"
    },
    {
      "inputs": [],
      "name": "MAX_PROTOCOL_YIELD_FEE_PERCENTAGE",
      "outputs": [
        {
          "internalType": "uint256",
          "name": "",
          "type": "uint256"
        }
      ],
      "stateMutability": "view",
      "type": "function"
    },
    {
      "inputs": [
        {
          "internalType": "address",
          "name": "pool",
          "type": "address"
        }
      ],
      "name": "collectAggregateFees",
      "outputs": [],
      "stateMutability": "nonpayable",
      "type": "function"
    },
    {
      "inputs": [
        {
          "internalType": "address",
          "name": "pool",
          "type": "address"
        }
      ],
      "name": "collectAggregateFeesHook",
      "outputs": [],
      "stateMutability": "nonpayable",
      "type": "function"
    },
    {
      "inputs": [
        {
          "internalType": "uint256",
          "name": "protocolFeePercentage",
          "type": "uint256"
        },
        {
          "internalType": "uint256",
          "name": "poolCreatorFeePercentage",
          "type": "uint256"
        }
      ],
      "name": "computeAggregateFeePercentage",
      "outputs": [
        {
          "internalType": "uint256",
          "name": "",
          "type": "uint256"
        }
      ],
      "stateMutability": "pure",
      "type": "function"
    },
    {
      "inputs": [
        {
          "internalType": "bytes4",
          "name": "selector",
          "type": "bytes4"
        }
      ],
      "name": "getActionId",
      "outputs": [
        {
          "internalType": "bytes32",
          "name": "",
          "type": "bytes32"
        }
      ],
      "stateMutability": "view",
      "type": "function"
    },
    {
      "inputs": [],
      "name": "getAuthorizer",
      "outputs": [
        {
          "internalType": "contract IAuthorizer",
          "name": "",
          "type": "address"
        }
      ],
      "stateMutability": "view",
      "type": "function"
    },
    {
      "inputs": [],
      "name": "getGlobalProtocolSwapFeePercentage",
      "outputs": [
        {
          "internalType": "uint256",
          "name": "",
          "type": "uint256"
        }
      ],
      "stateMutability": "view",
      "type": "function"
    },
    {
      "inputs": [],
      "name": "getGlobalProtocolYieldFeePercentage",
      "outputs": [
        {
          "internalType": "uint256",
          "name": "",
          "type": "uint256"
        }
      ],
      "stateMutability": "view",
      "type": "function"
    },
    {
      "inputs": [
        {
          "internalType": "address",
          "name": "pool",
          "type": "address"
        }
      ],
      "name": "getPoolCreatorFeeAmounts",
      "outputs": [
        {
          "internalType": "uint256[]",
          "name": "feeAmounts",
          "type": "uint256[]"
        }
      ],
      "stateMutability": "view",
      "type": "function"
    },
    {
      "inputs": [
        {
          "internalType": "address",
          "name": "pool",
          "type": "address"
        }
      ],
      "name": "getPoolProtocolSwapFeeInfo",
      "outputs": [
        {
          "internalType": "uint256",
          "name": "",
          "type": "uint256"
        },
        {
          "internalType": "bool",
          "name": "",
          "type": "bool"
        }
      ],
      "stateMutability": "view",
      "type": "function"
    },
    {
      "inputs": [
        {
          "internalType": "address",
          "name": "pool",
          "type": "address"
        }
      ],
      "name": "getPoolProtocolYieldFeeInfo",
      "outputs": [
        {
          "internalType": "uint256",
          "name": "",
          "type": "uint256"
        },
        {
          "internalType": "bool",
          "name": "",
          "type": "bool"
        }
      ],
      "stateMutability": "view",
      "type": "function"
    },
    {
      "inputs": [
        {
          "internalType": "address",
          "name": "pool",
          "type": "address"
        }
      ],
      "name": "getProtocolFeeAmounts",
      "outputs": [
        {
          "internalType": "uint256[]",
          "name": "feeAmounts",
          "type": "uint256[]"
        }
      ],
      "stateMutability": "view",
      "type": "function"
    },
    {
      "inputs": [],
      "name": "getVault",
      "outputs": [
        {
          "internalType": "contract IVault",
          "name": "",
          "type": "address"
        }
      ],
      "stateMutability": "view",
      "type": "function"
    },
    {
      "inputs": [
        {
          "internalType": "address",
          "name": "pool",
          "type": "address"
        },
        {
          "internalType": "address",
          "name": "poolCreator",
          "type": "address"
        },
        {
          "internalType": "bool",
          "name": "protocolFeeExempt",
          "type": "bool"
        }
      ],
      "name": "registerPool",
      "outputs": [
        {
          "internalType": "uint256",
          "name": "aggregateSwapFeePercentage",
          "type": "uint256"
        },
        {
          "internalType": "uint256",
          "name": "aggregateYieldFeePercentage",
          "type": "uint256"
        }
      ],
      "stateMutability": "nonpayable",
      "type": "function"
    },
    {
      "inputs": [
        {
          "internalType": "uint256",
          "name": "newProtocolSwapFeePercentage",
          "type": "uint256"
        }
      ],
      "name": "setGlobalProtocolSwapFeePercentage",
      "outputs": [],
      "stateMutability": "nonpayable",
      "type": "function"
    },
    {
      "inputs": [
        {
          "internalType": "uint256",
          "name": "newProtocolYieldFeePercentage",
          "type": "uint256"
        }
      ],
      "name": "setGlobalProtocolYieldFeePercentage",
      "outputs": [],
      "stateMutability": "nonpayable",
      "type": "function"
    },
    {
      "inputs": [
        {
          "internalType": "address",
          "name": "pool",
          "type": "address"
        },
        {
          "internalType": "uint256",
          "name": "poolCreatorSwapFeePercentage",
          "type": "uint256"
        }
      ],
      "name": "setPoolCreatorSwapFeePercentage",
      "outputs": [],
      "stateMutability": "nonpayable",
      "type": "function"
    },
    {
      "inputs": [
        {
          "internalType": "address",
          "name": "pool",
          "type": "address"
        },
        {
          "internalType": "uint256",
          "name": "poolCreatorYieldFeePercentage",
          "type": "uint256"
        }
      ],
      "name": "setPoolCreatorYieldFeePercentage",
      "outputs": [],
      "stateMutability": "nonpayable",
      "type": "function"
    },
    {
      "inputs": [
        {
          "internalType": "address",
          "name": "pool",
          "type": "address"
        },
        {
          "internalType": "uint256",
          "name": "newProtocolSwapFeePercentage",
          "type": "uint256"
        }
      ],
      "name": "setProtocolSwapFeePercentage",
      "outputs": [],
      "stateMutability": "nonpayable",
      "type": "function"
    },
    {
      "inputs": [
        {
          "internalType": "address",
          "name": "pool",
          "type": "address"
        },
        {
          "internalType": "uint256",
          "name": "newProtocolYieldFeePercentage",
          "type": "uint256"
        }
      ],
      "name": "setProtocolYieldFeePercentage",
      "outputs": [],
      "stateMutability": "nonpayable",
      "type": "function"
    },
    {
      "inputs": [
        {
          "internalType": "address",
          "name": "pool",
          "type": "address"
        }
      ],
      "name": "updateProtocolSwapFeePercentage",
      "outputs": [],
      "stateMutability": "nonpayable",
      "type": "function"
    },
    {
      "inputs": [
        {
          "internalType": "address",
          "name": "pool",
          "type": "address"
        }
      ],
      "name": "updateProtocolYieldFeePercentage",
      "outputs": [],
      "stateMutability": "nonpayable",
      "type": "function"
    },
    {
      "inputs": [],
      "name": "vault",
      "outputs": [
        {
          "internalType": "contract IVault",
          "name": "",
          "type": "address"
        }
      ],
      "stateMutability": "view",
      "type": "function"
    },
    {
      "inputs": [
        {
          "internalType": "address",
          "name": "pool",
          "type": "address"
        }
      ],
      "name": "withdrawPoolCreatorFees",
      "outputs": [],
      "stateMutability": "nonpayable",
      "type": "function"
    },
    {
      "inputs": [
        {
          "internalType": "address",
          "name": "pool",
          "type": "address"
        },
        {
          "internalType": "address",
          "name": "recipient",
          "type": "address"
        }
      ],
      "name": "withdrawPoolCreatorFees",
      "outputs": [],
      "stateMutability": "nonpayable",
      "type": "function"
    },
    {
      "inputs": [
        {
          "internalType": "address",
          "name": "pool",
          "type": "address"
        },
        {
          "internalType": "address",
          "name": "recipient",
          "type": "address"
        }
      ],
      "name": "withdrawProtocolFees",
      "outputs": [],
      "stateMutability": "nonpayable",
      "type": "function"
    },
    {
      "inputs": [
        {
          "internalType": "address",
          "name": "pool",
          "type": "address"
        },
        {
          "internalType": "address",
          "name": "recipient",
          "type": "address"
        },
        {
          "internalType": "contract IERC20",
          "name": "token",
          "type": "address"
        }
      ],
      "name": "withdrawProtocolFeesForToken",
      "outputs": [],
      "stateMutability": "nonpayable",
      "type": "function"
    }
  ],
  "bytecode": "0x60e0346100f457601f61275338819003918201601f19168301916001600160401b038311848410176100f8578084926020946040528339810103126100f457516001600160a01b03811681036100f457306080528060a05260c052604051612646908161010d823960805181611b55015260a0518181816110080152611e08015260c0518181816102240152818161033f015281816103c9015281816104e80152818161055601528181610835015281816108a301528181610c1101528181610d4701528181611453015281816115f8015281816117a80152818161190201528181611d330152818161209a01526122a60152f35b5f80fd5b634e487b7160e01b5f52604160045260245ffdfe60806040526004361015610011575f80fd5b5f3560e01c80630ddd60c6146119c65780631377c16c146118a75780632772d156146116b55780632e1d388d146118855780633af527121461174d57806352f125f01461171357806355fb76af146116f65780635c15a0b4146116ba5780635e32e4e8146116b557806371447ea81461151057806371ecc8fb1461136c57806377ff76e7146111675780637869ee181461114b5780637a2b97dc146110e0578063851c1bb3146110905780638a3c5c691461102c5780638d928af814610fe95780638df44c5414610f615780638f4ab9ca14610f405780639e95f3fd14610eb4578063a93df2a414610e4f578063aaabadc514610e24578063abaa335614610c7b578063b53a70b214610b94578063cf7b287f14610b2e578063f706144514610af9578063fa399f2a14610363578063fbfa77cf146103205763fd267f3914610158575f80fd5b346102f45760406003193601126102f4576101716119e7565b6024359061017d61217b565b6706f05b59d3b2000082116102f85761019582612133565b61019e81611c71565b6101a7826120ee565b916040516101b481611a70565b67ffffffffffffffff80941681526020810190600182526001600160a01b039182851695865f52600260205260405f209251167fffffffffffffffffffffffffffffffffffffffffffffff00000000000000000068ff000000000000000084549351151560401b169216171790557f0000000000000000000000000000000000000000000000000000000000000000169161024e81612442565b833b156102f4576040517f5e0b06f40000000000000000000000000000000000000000000000000000000081526001600160a01b039290921660048301526024820152915f908390604490829084905af19081156102e9577f97cff4b6e6d80e307faab8b730d9f69264e860f2e0e10cfb8cdaf8a2f44e839e926020926102da575b50604051908152a2005b6102e390611ab9565b5f6102d0565b6040513d5f823e3d90fd5b5f80fd5b7f7e6eb7fb000000000000000000000000000000000000000000000000000000005f5260045ffd5b346102f4575f6003193601126102f45760206040516001600160a01b037f0000000000000000000000000000000000000000000000000000000000000000168152f35b346102f45760206003193601126102f45761037c6119e7565b610384612090565b6040517f8f4ab9ca0000000000000000000000000000000000000000000000000000000081526001600160a01b03821660048201525f81602481836001600160a01b037f0000000000000000000000000000000000000000000000000000000000000000165af19081156102e9575f905f92610a9c575b506001600160a01b0383165f52600260205267ffffffffffffffff60405f20541690600560205260405f2054905f928215159384610a92575b84610a82575b61044387612267565b94905f5b8681106107f35789896001600160a01b0382165f52600360205267ffffffffffffffff60405f205416905f92600660205260405f2054925f84151594856107e9575b856107d7575b61049884612267565b96905f5b8881106104a557005b6104af8189611bf6565b516104bd575b60010161049c565b986001600160a01b036104d08b84611bf6565b5116906104dd8b8a611bf6565b516001600160a01b037f0000000000000000000000000000000000000000000000000000000000000000163b156107d357604051907fae63932900000000000000000000000000000000000000000000000000000000825283600483015230602483015260448201528181606481836001600160a01b037f0000000000000000000000000000000000000000000000000000000000000000165af180156107c8579082916107b1575b5061078457505f9981610599828b611bf6565b516040519081527fe505e41b0d437b47350a9990142ccf38acb11ffa0e5af8f973b9e172f3d5d5e260206001600160a01b038c1692a38315610709576105df818a611bf6565b5186156106e1576105ef90611ee4565b6001670de0b6b3a76400006106308a7fffffffffffffffffffffffffffffffffffffffffffffffffffffffffffffffff94848c878301040190151502611f01565b928301040190151502916001600160a01b0389165f52600760205260405f20815f5260205260405f20610664848254611ed7565b9055610670828b611bf6565b519081848103116106b4576001936106aa916001600160a01b038c165f52600860205260405f20905f5260205260405f2092038254611ed7565b90555b90506104b5565b7f4e487b71000000000000000000000000000000000000000000000000000000005f52601160045260245ffd5b7f0a0c22c7000000000000000000000000000000000000000000000000000000005f5260045ffd5b6001918561074e5761071b828b611bf6565b51906001600160a01b038a165f52600760205260405f20905f5260205261074760405f20918254611ed7565b90556106ad565b610758828b611bf6565b51906001600160a01b038a165f52600860205260405f20905f5260205261074760405f20918254611ed7565b807f4e487b7100000000000000000000000000000000000000000000000000000000602492526021600452fd5b6107ba90611ab9565b6107c557808c610586565b80fd5b6040513d84823e3d90fd5b5080fd5b90506107e38183611f14565b9061048f565b8215159550610489565b6107fd8187611bf6565b5161080b575b600101610447565b6001600160a01b0361081d8284611bf6565b51169061082a8188611bf6565b516001600160a01b037f0000000000000000000000000000000000000000000000000000000000000000163b156102f457604051907fae63932900000000000000000000000000000000000000000000000000000000825283600483015230602483015260448201525f81606481836001600160a01b037f0000000000000000000000000000000000000000000000000000000000000000165af180156102e957610a73575b50818b7fae7ebad9fc3d1d17965f063fa520d393595e2ef6c8e22ae8413b60900444e19f60206001600160a01b03610908868d611bf6565b51936040519485521692a388156109f8576109238188611bf6565b5185156106e15761093390611ee4565b6001670de0b6b3a7640000610974897fffffffffffffffffffffffffffffffffffffffffffffffffffffffffffffffff94848b878301040190151502611f01565b928301040190151502916001600160a01b038c165f52600760205260405f20815f5260205260405f206109a8848254611ed7565b90556109b48289611bf6565b519081848103116106b4576001936109ee916001600160a01b038f165f52600860205260405f20905f5260205260405f2092038254611ed7565b90555b9050610803565b60019184610a3d57610a0a8289611bf6565b51906001600160a01b038d165f52600760205260405f20905f52602052610a3660405f20918254611ed7565b90556109f1565b610a478289611bf6565b51906001600160a01b038d165f52600860205260405f20905f52602052610a3660405f20918254611ed7565b610a7c90611ab9565b8b6108d0565b50610a8d8382611f14565b61043a565b8115159450610434565b9150503d805f833e610aae8183611ae9565b8101906040818303126102f45780519167ffffffffffffffff928381116102f45781610adb918401611e76565b9260208301519081116102f457610af29201611e76565b90836103fb565b346102f45760406003193601126102f457610b2c610b156119e7565b610b1d6119fd565b90610b2781611f55565b611fd9565b005b346102f45760406003193601126102f457610b476119e7565b610b4f6119fd565b90610b5861217b565b610b6181612267565b915f5b838110610b6d57005b80610b8e6001600160a01b03610b8560019487611bf6565b5116878561237b565b01610b64565b346102f45760606003193601126102f457610bad6119e7565b610bb56119fd565b604435906001600160a01b03928383168084036102f457604090610bd761217b565b60448251809781937fc9c1661b000000000000000000000000000000000000000000000000000000008352818716600484015260248301527f0000000000000000000000000000000000000000000000000000000000000000165afa80156102e957610c48575b610b2c935061237b565b6040843d604011610c73575b81610c6160409383611ae9565b810103126102f457610b2c9350610c3e565b3d9150610c54565b346102f45760406003193601126102f457610c946119e7565b60243590610ca061217b565b6706f05b59d3b200008211610dfc57610cb882612133565b610cc181611c71565b610cca826120ee565b91604051610cd781611a70565b67ffffffffffffffff80941681526020810190600182526001600160a01b039182851695865f52600360205260405f209251167fffffffffffffffffffffffffffffffffffffffffffffff00000000000000000068ff000000000000000084549351151560401b169216171790557f00000000000000000000000000000000000000000000000000000000000000001691610d718161240d565b833b156102f4576040517fe253670a0000000000000000000000000000000000000000000000000000000081526001600160a01b039290921660048301526024820152915f908390604490829084905af19081156102e9577faf47449d1c3597ccc9f5ec3acad03cef57aa90a719000441b320687087948efd926020926102da5750604051908152a2005b7fa7849e8e000000000000000000000000000000000000000000000000000000005f5260045ffd5b346102f4575f6003193601126102f4576020610e3e611dd2565b6001600160a01b0360405191168152f35b346102f45760206003193601126102f4576004356706f05b59d3b200008111610dfc57602081610e9f7f48c5c3ccec54c4e0ea08d83d838fa9bb725eb0b52c591cb00bd6e63bca8c44f693612133565b610ea761217b565b80600155604051908152a1005b346102f4576020806003193601126102f457610ece6119e7565b90610ed882612267565b90610ee282611ba7565b925f946001600160a01b03809116955b848110610f0b5760405180610f078882611a35565b0390f35b600190875f526008845260405f2083610f248388611bf6565b51165f52845260405f2054610f398289611bf6565b5201610ef2565b346102f45760206003193601126102f457610b2c610f5c6119e7565b611c71565b346102f4576020806003193601126102f457610f7b6119e7565b90610f8582612267565b90610f8f82611ba7565b925f946001600160a01b03809116955b848110610fb45760405180610f078882611a35565b600190875f526007845260405f2083610fcd8388611bf6565b51165f52845260405f2054610fe28289611bf6565b5201610f9f565b346102f4575f6003193601126102f45760206040516001600160a01b037f0000000000000000000000000000000000000000000000000000000000000000168152f35b346102f45760206003193601126102f4576004356706f05b59d3b2000081116102f85760208161107c7fbf5ac0fc89bbf8819be79f280146b65ea2af2a9705cd9cfe0c9d93f6e87f307d93612133565b61108461217b565b805f55604051908152a1005b346102f45760206003193601126102f4576004357fffffffff00000000000000000000000000000000000000000000000000000000811681036102f4576110d8602091611b2a565b604051908152f35b346102f45760206003193601126102f4576001600160a01b036111016119e7565b165f526003602052602060405f206040519061111c82611a70565b5467ffffffffffffffff811680835260ff604092831c1615159390920183905280519182526020820192909252f35b346102f4575f6003193601126102f45760205f54604051908152f35b346102f45760606003193601126102f4576111806119e7565b6111886119fd565b9060443590811515908183036102f4576040936111a3612090565b6001600160a01b0380921690815f5260209260048452865f2091167fffffffffffffffffffffffff0000000000000000000000000000000000000000825416179055835f14611340577fce1d009285405b74cf77294916c17664de2c84eef81225c71f265f823b358bcb61132a5f955b8015611337575f955b611225886120ee565b90895161123181611a70565b67ffffffffffffffff809316815287810190828252875f5260028952838c5f20915116908054925115158d1b927fffffffffffffffffffffffffffffffffffffffffffffff000000000000000000928368ff000000000000000080961692161717905561129d8a6120ee565b93808d51956112ab87611a70565b168552898501938452885f5260038a528c5f20945116918454935115158d1b16921617179055837fa34ad86562f9716c2f1e723934cc63f44a9b4695cb8535c30dd8308d03a78564895180611310858c83909291602090604083019483521515910152565b0390a2875186815290151560208201529081906040820190565b0390a28351928352820152f35b6001549561121c565b7fce1d009285405b74cf77294916c17664de2c84eef81225c71f265f823b358bcb61132a5f5495611213565b346102f4576020806003193601126102f4576113866119e7565b61138f81611c71565b6001600160a01b039182821692835f526002825260405f2090604051916113b583611a70565b549167ffffffffffffffff9060ff8285169485835260401c1615908582159101525f549381611505575b506113e657005b6113ef836120ee565b9080604051926113fe84611a70565b168252848201905f8252875f526002865260405f209251167fffffffffffffffffffffffffffffffffffffffffffffff00000000000000000068ff000000000000000084549351151560401b169216171790557f0000000000000000000000000000000000000000000000000000000000000000169261147d81612442565b843b156102f4576040517f5e0b06f40000000000000000000000000000000000000000000000000000000081526001600160a01b039290921660048301526024820152925f908490604490829084905af19283156102e9577f97cff4b6e6d80e307faab8b730d9f69264e860f2e0e10cfb8cdaf8a2f44e839e936102da5750604051908152a2005b9050831415876113df565b346102f4576020806003193601126102f45761152a6119e7565b61153381611c71565b6001600160a01b039182821692835f526003825260405f20906040519161155983611a70565b549167ffffffffffffffff9060ff8285169485835260401c16159085821591015260015493816116aa575b5061158b57005b611594836120ee565b9080604051926115a384611a70565b168252848201905f8252875f526003865260405f209251167fffffffffffffffffffffffffffffffffffffffffffffff00000000000000000068ff000000000000000084549351151560401b169216171790557f000000000000000000000000000000000000000000000000000000000000000016926116228161240d565b843b156102f4576040517fe253670a0000000000000000000000000000000000000000000000000000000081526001600160a01b039290921660048301526024820152925f908490604490829084905af19283156102e9577faf47449d1c3597ccc9f5ec3acad03cef57aa90a719000441b320687087948efd936102da5750604051908152a2005b905083141587611584565b611a13565b346102f45760206003193601126102f4576001600160a01b036116db6119e7565b165f526002602052602060405f206040519061111c82611a70565b346102f4575f6003193601126102f4576020600154604051908152f35b346102f45760206003193601126102f457610b2c61172f6119e7565b6001600160a01b038082165f52600460205260405f20541690611fd9565b346102f45760406003193601126102f4576117666119e7565b6024359061177381611f55565b670de0ad9b58f16000821161185d5761178b81611c71565b6001600160a01b039182821692835f5260066020528160405f20557f000000000000000000000000000000000000000000000000000000000000000016916117d28161240d565b833b156102f4576040517fe253670a0000000000000000000000000000000000000000000000000000000081526001600160a01b039290921660048301526024820152915f908390604490829084905af19081156102e9577f47f70ddbc624c299cef7841aaea0a86b677c800203e953104e958c9ec9bdab34926020926102da5750604051908152a2005b7f0370da74000000000000000000000000000000000000000000000000000000005f5260045ffd5b346102f4575f6003193601126102f4576020604051670de0ad9b58f160008152f35b346102f45760406003193601126102f4576118c06119e7565b602435906118cd81611f55565b670de0ad9b58f16000821161185d576118e581611c71565b6001600160a01b039182821692835f5260056020528160405f20557f0000000000000000000000000000000000000000000000000000000000000000169161192c81612442565b833b156102f4576040517f5e0b06f40000000000000000000000000000000000000000000000000000000081526001600160a01b039290921660048301526024820152915f908390604490829084905af19081156102e9577fb7cf36369623c01ed7b2eafc4025224e924a2836d5fb49428a0f65417586bf5c926020926119b75750604051908152a2005b6119c090611ab9565b846102d0565b346102f45760406003193601126102f45760206110d8602435600435611f14565b600435906001600160a01b03821682036102f457565b602435906001600160a01b03821682036102f457565b346102f4575f6003193601126102f45760206040516706f05b59d3b200008152f35b60209060206040818301928281528551809452019301915f5b828110611a5c575050505090565b835185529381019392810192600101611a4e565b6040810190811067ffffffffffffffff821117611a8c57604052565b7f4e487b71000000000000000000000000000000000000000000000000000000005f52604160045260245ffd5b67ffffffffffffffff8111611a8c57604052565b6060810190811067ffffffffffffffff821117611a8c57604052565b90601f7fffffffffffffffffffffffffffffffffffffffffffffffffffffffffffffffe0910116810190811067ffffffffffffffff821117611a8c57604052565b6040517fffffffff0000000000000000000000000000000000000000000000000000000060208201927f0000000000000000000000000000000000000000000000000000000000000000845216604082015260248152611b8981611acd565b51902090565b67ffffffffffffffff8111611a8c5760051b60200190565b90611bb182611b8f565b611bbe6040519182611ae9565b8281527fffffffffffffffffffffffffffffffffffffffffffffffffffffffffffffffe0611bec8294611b8f565b0190602036910137565b8051821015611c0a5760209160051b010190565b7f4e487b71000000000000000000000000000000000000000000000000000000005f52603260045260245ffd5b67ffffffffffffffff8111611a8c57601f017fffffffffffffffffffffffffffffffffffffffffffffffffffffffffffffffe01660200190565b7fffffffffffffffffffffffffffffffffffffffffffffffffffffffffffffffe0905f601f6001600160a01b036040519383604460209684888201947ffa399f2a00000000000000000000000000000000000000000000000000000000865216602482015260248152611ce381611acd565b604051988996879586937f48c894910000000000000000000000000000000000000000000000000000000085528b60048601525180918160248701528686015e85858286010152011681010301927f0000000000000000000000000000000000000000000000000000000000000000165af180156102e957611d63575050565b3d805f843e611d728184611ae9565b82019181818403126102f45780519067ffffffffffffffff82116102f457019180601f840112156102f457825190611da982611c37565b90611db76040519283611ae9565b8282528383860101116102f45781835f95018483015e010152565b6040517faaabadc50000000000000000000000000000000000000000000000000000000081526001600160a01b036020826004817f000000000000000000000000000000000000000000000000000000000000000085165afa9182156102e9575f92611e3d57505090565b9091506020813d602011611e6e575b81611e5960209383611ae9565b810103126102f4575190811681036102f45790565b3d9150611e4c565b9080601f830112156102f457815190602091611e9181611b8f565b93611e9f6040519586611ae9565b81855260208086019260051b8201019283116102f457602001905b828210611ec8575050505090565b81518152908301908301611eba565b919082018092116106b457565b90670de0b6b3a7640000918281029281840414901517156106b457565b818102929181159184041417156106b457565b90611f4164174876e800928392611f3a670de0b6b3a76400009183830383851002611f01565b0490611ed7565b048181029181830414901517156106b45790565b6001600160a01b0380911690815f52600460205260405f2054168015611fad573303611f7e5750565b7ffbecdbf4000000000000000000000000000000000000000000000000000000005f523360045260245260445ffd5b507f8bcbf353000000000000000000000000000000000000000000000000000000005f5260045260245ffd5b90611fe382612267565b92905f5b848110611ff5575050505050565b6001906001600160a01b038061200b8386611bf6565b5116818616805f5260086020818152604094855f20855f528252855f2054958661203d575b5050505050505001611fe7565b7f938f3a3a03ee425ccc0f8010b0468938cbafd3750fa43bbdf09c6f75e97e51f993855f528352805f20865f5283525f8181205561207c878d88612474565b519586528a1694a45f808080808080612030565b6001600160a01b037f00000000000000000000000000000000000000000000000000000000000000001633036120c257565b7f089676d5000000000000000000000000000000000000000000000000000000005f523360045260245ffd5b67ffffffffffffffff90818111612103571690565b7f6dfcc650000000000000000000000000000000000000000000000000000000005f52604060045260245260445ffd5b64174876e8008082048181029181830414901517156106b4570361215357565b7f833fb3ce000000000000000000000000000000000000000000000000000000005f5260045ffd5b6121a77fffffffff000000000000000000000000000000000000000000000000000000005f3516611b2a565b60206001600160a01b036121b9611dd2565b16916064604051809481937f9be2a88400000000000000000000000000000000000000000000000000000000835260048301523360248301523060448301525afa9081156102e9575f91612238575b501561221057565b7f23dada53000000000000000000000000000000000000000000000000000000005f5260045ffd5b61225a915060203d602011612260575b6122528183611ae9565b81019061256c565b5f612208565b503d612248565b906001600160a01b0380604051937fca4f28030000000000000000000000000000000000000000000000000000000085521660048401525f83602481847f0000000000000000000000000000000000000000000000000000000000000000165afa9283156102e9575f936122dd575b5050815190565b909192503d805f833e6122f08183611ae9565b810160209182818303126102f45780519067ffffffffffffffff82116102f457019281601f850112156102f457835161232881611b8f565b946123366040519687611ae9565b818652848087019260051b8201019384116102f4578401905b838210612363575050505050905f806122d6565b815183811681036102f457815290840190840161234f565b91906001600160a01b0380931690815f52600760205260405f209284811693845f5260205260405f205494856123b4575b505050505050565b826123f9877f1c2887fcb98f75e66bb9a36311f2d3d22fb204e6362106f30e9df7eaf63131b595602095885f526007875260405f208a5f5287525f6040812055612474565b6040519687521694a45f80808080806123ac565b6001600160a01b03165f52600360205261243f67ffffffffffffffff60405f205416600660205260405f205490611f14565b90565b6001600160a01b03165f52600260205261243f67ffffffffffffffff60405f205416600560205260405f205490611f14565b6040517fa9059cbb00000000000000000000000000000000000000000000000000000000602082019081526001600160a01b03938416602483015260448083019590955293815292612508925f92839291906124d1606488611ae9565b1694519082865af13d15612564573d906124ea82611c37565b916124f86040519384611ae9565b82523d5f602084013e5b83612584565b8051908115159182612549575b505061251e5750565b7f5274afe7000000000000000000000000000000000000000000000000000000005f5260045260245ffd5b61255c925060208091830101910161256c565b155f80612515565b606090612502565b908160209103126102f4575180151581036102f45790565b906125c1575080511561259957805190602001fd5b7f1425ea42000000000000000000000000000000000000000000000000000000005f5260045ffd5b81511580612607575b6125d2575090565b6001600160a01b03907f9996b315000000000000000000000000000000000000000000000000000000005f521660045260245ffd5b50803b156125ca56fea26469706673582212202e7623920e628b52b269351224677fc232b7c89ad90369a63a7ff052af57a50664736f6c634300081b0033",
  "linkReferences": {},
  "deployedLinkReferences": {}
}