{
  "_format": "hh-sol-artifact-1",
  "contractName": "ClaimSignatureRegistry",
  "sourceName": "contracts/ClaimSignatureRegistry.sol",
  "abi": [
    {
      "inputs": [],
      "stateMutability": "nonpayable",
      "type": "constructor"
    },
    {
      "inputs": [
        {
          "internalType": "address",
          "name": "signer",
          "type": "address"
        }
      ],
      "name": "InvalidSignature",
      "type": "error"
    },
    {
      "inputs": [],
      "name": "InvalidSigner",
      "type": "error"
    },
    {
      "inputs": [
        {
          "internalType": "address",
          "name": "signer",
          "type": "address"
        }
      ],
      "name": "SignatureAlreadyRecorded",
      "type": "error"
    },
    {
      "anonymous": false,
      "inputs": [
        {
          "indexed": true,
          "internalType": "address",
          "name": "signer",
          "type": "address"
        }
      ],
      "name": "SignatureRecorded",
      "type": "event"
    },
    {
      "inputs": [],
      "name": "TERMS_DIGEST",
      "outputs": [
        {
          "internalType": "bytes32",
          "name": "",
          "type": "bytes32"
        }
      ],
      "stateMutability": "view",
      "type": "function"
    },
    {
      "inputs": [
        {
          "internalType": "bytes",
          "name": "signature",
          "type": "bytes"
        }
      ],
      "name": "recordSignature",
      "outputs": [],
      "stateMutability": "nonpayable",
      "type": "function"
    },
    {
      "inputs": [
        {
          "internalType": "bytes",
          "name": "signature",
          "type": "bytes"
        },
        {
          "internalType": "address",
          "name": "signer",
          "type": "address"
        }
      ],
      "name": "recordSignatureFor",
      "outputs": [],
      "stateMutability": "nonpayable",
      "type": "function"
    },
    {
      "inputs": [
        {
          "internalType": "address",
          "name": "",
          "type": "address"
        }
      ],
      "name": "signatures",
      "outputs": [
        {
          "internalType": "bytes",
          "name": "",
          "type": "bytes"
        }
      ],
      "stateMutability": "view",
      "type": "function"
    }
  ],
  "bytecode": "0x60a0346105e0576001600160401b0390610420810190828211818310176105cc5760409182526103e59182825260208201927f49204143434550542042414c414e434552275320542643204150504c4943414284527f4c4520544f205448495320434c41494d2c20494e434c2e20414c4c2050524f56828401527f4953494f4e53204f462054484520546f5520414e442052454c4556414e54204760608401527f4f56205245534f4c5554494f4e532c20494e434c2e204c494d49544154494f4e60808401527f204f46204c494142494c4954592c204d414e4441544f5259204152424954524160a08401527f54494f4e20414e44205249534b20444953434c4f53555245532e20492048455260c08401527f45425920434f4e4649524d202620414752454520544f2054484520464f4c4c4f60e08401527f57494e473a0a0a4d7920616363657074616e636520636f6e73746974757465736101008401527f2066756c6c2066696e616c20736574746c656d656e7420262072656c656173656101208401527f206f6620616e7920706173742c2070726573656e742c202620667574757265206101408401527f636c61696d732c206c696162696c69746965732c2064656d616e64732c2061636101608401527f74696f6e732c20636175736573206f6620616374696f6e2c2064616d616765736101808401527f2c206f72206c6f73736573206f6620616e79206b696e642c206b6e6f776e206f6101a08401527f7220756e6b6e6f776e2c2061726973696e67206f7574206f66206f722072656c6101c08401527f6174656420746f207468652042616c616e636572206578706c6f69742e0a54686101e08401527f69732077616976657220696e636c2e20636c61696d7320616e6420616e7920726102008401527f6967687420746f20706172746963697061746520696e20616e7920636c6173736102208401527f206f7220636f6c6c65637469766520616374696f6e20616761696e73742074686102408401527f652042616c616e63657220466f756e646174696f6e202620616c6c20616666696102608401527f6c696174656420656e7469746965732c2061732077656c6c20617320746865696102808401527f722072657370656374697665206f666669636572732c206469726563746f72736102a08401527f2c20636f6e7472696275746f72732c20736572766963652070726f76696465726102c08401527f732c20656d706c6f796565732c20636f6e74726163746f72732c2061647669736102e08401527f6f72732c206167656e74732c20737563636573736f72732c20262061737369676103008401527f6e732e0a492061636b6e6f776c65646765202620616772656520746f207468656103208401527f205361666520486172626f722041677265656d656e7420696e20616c6c2069746103408401527f73207465726d732028617320617070726f7665642062792042616c616e6365726103608401527f20676f7665726e616e6365207265736f6c7574696f6e292e0a4920756e6465726103808401527f7374616e642074686174206d7920636c61696d2077696c6c206e6f74206265206103a08401527f70726f63657373656420756e6c657373204920616363657074207468657365206103c08401527f7465726d7320696e2066756c6c202620776974686f7574206d6f6469666963616103e0840152643a34b7b71760d91b610400840152815193828501858110878211176105cc5783526003855260208501916020368437602386015b5f190190600a906f181899199a1a9b1b9c1cb0b131b232b360811b8282061a8353049081610514575050825193849260208401967f19457468657265756d205369676e6564204d6573736167653a0a0000000000008852518091603a86015e830190603a8201905f8252519283915e015f603a82015203601a810183526059601f19910116820193828510908511176105cc5783905251902060805261086490816105e5823960805181818161027e01526104090152f35b634e487b7160e01b5f52604160045260245ffd5b5f80fdfe60808060405260049081361015610014575f80fd5b5f3560e01c90816326df9aa31461024b57508063c792f36d1461011e578063d19a0376146100a75763da7218f11461004a575f80fd5b346100a35760207ffffffffffffffffffffffffffffffffffffffffffffffffffffffffffffffffc3601126100a357803567ffffffffffffffff81116100a3576100a19161009a91369101610383565b33906103c9565b005b5f80fd5b50346100a35760407ffffffffffffffffffffffffffffffffffffffffffffffffffffffffffffffffc3601126100a35780359067ffffffffffffffff82116100a3576100f591369101610383565b60243573ffffffffffffffffffffffffffffffffffffffff811681036100a3576100a1916103c9565b50346100a357602090817ffffffffffffffffffffffffffffffffffffffffffffffffffffffffffffffffc3601126100a3573573ffffffffffffffffffffffffffffffffffffffff81168091036100a3575f525f815260405f209060405191825f825461018a816102a1565b93848452600191866001821691825f1461020a5750506001146101ce575b50506101b6925003836102f2565b6101ca604051928284938452830190610342565b0390f35b8592505f52815f20905f915b8583106101f25750506101b693508201015f806101a8565b805483890185015287945086939092019181016101da565b915093506101b69592507fffffffffffffffffffffffffffffffffffffffffffffffffffffffffffffff0091501682840152151560051b8201015f806101a8565b346100a3575f7ffffffffffffffffffffffffffffffffffffffffffffffffffffffffffffffffc3601126100a3576020907f00000000000000000000000000000000000000000000000000000000000000008152f35b90600182811c921680156102e8575b60208310146102bb57565b7f4e487b71000000000000000000000000000000000000000000000000000000005f52602260045260245ffd5b91607f16916102b0565b90601f601f19910116810190811067ffffffffffffffff82111761031557604052565b7f4e487b71000000000000000000000000000000000000000000000000000000005f52604160045260245ffd5b90601f19601f602080948051918291828752018686015e5f8582860101520116010190565b67ffffffffffffffff811161031557601f01601f191660200190565b81601f820112156100a35780359061039a82610367565b926103a860405194856102f2565b828452602083830101116100a357815f926020809301838601378301015290565b919073ffffffffffffffffffffffffffffffffffffffff811680156105f757805f526020915f83526103fe60405f20546102a1565b6105cb578461042e917f00000000000000000000000000000000000000000000000000000000000000009061061f565b156105a057807f71661805b35a6fb75f8c22875dbf8aef74c0aa35eed4dbbff39397b8b1282f735f80a25f525f815260405f209083519067ffffffffffffffff82116103155761047e83546102a1565b601f811161055d575b5080601f83116001146104de5750819293945f926104d3575b50507fffffffffffffffffffffffffffffffffffffffffffffffffffffffffffffffff8260011b9260031b1c1916179055565b015190505f806104a0565b90601f19831695845f52825f20925f905b8882106105455750508360019596971061050e575b505050811b019055565b01517fffffffffffffffffffffffffffffffffffffffffffffffffffffffffffffffff60f88460031b161c191690555f8080610504565b806001859682949686015181550195019301906104ef565b835f52815f20601f840160051c810191838510610596575b601f0160051c01905b81811061058b5750610487565b5f815560010161057e565b9091508190610575565b7fd855c4f4000000000000000000000000000000000000000000000000000000005f5260045260245ffd5b507f4d576fce000000000000000000000000000000000000000000000000000000005f5260045260245ffd5b7f815e1d64000000000000000000000000000000000000000000000000000000005f5260045ffd5b9091813b61069457610631919261075a565b5060048110156106675715918261064757505090565b73ffffffffffffffffffffffffffffffffffffffff918216911614919050565b7f4e487b71000000000000000000000000000000000000000000000000000000005f52602160045260245ffd5b5f9182916040516106f0816106e260208201947f1626ba7e00000000000000000000000000000000000000000000000000000000998a87526024840152604060448401526064830190610342565b03601f1981018352826102f2565b51915afa903d15610753573d61070581610367565b9061071360405192836102f2565b81523d5f602083013e5b82610745575b8261072d57505090565b9091506020818051810103126100a357602001511490565b915060208251101591610723565b606061071d565b815191906041830361078a576107839250602082015190606060408401519301515f1a90610794565b9192909190565b50505f9160029190565b91907f7fffffffffffffffffffffffffffffff5d576e7357a4501ddfe92f46681b20a08411610823579160209360809260ff5f9560405194855216868401526040830152606082015282805260015afa15610818575f5173ffffffffffffffffffffffffffffffffffffffff81161561080e57905f905f90565b505f906001905f90565b6040513d5f823e3d90fd5b5050505f916003919056fea2646970667358221220fad9d00c03b7534a082176443fcca5a783759184e190b1c9664fb397c42a484864736f6c634300081b0033",
  "linkReferences": {},
  "deployedLinkReferences": {}
}