{
  "_format": "hh-sol-artifact-1",
  "contractName": "StableSurgeHook",
  "sourceName": "contracts/StableSurgeHook.sol",
  "abi": [
    {
      "inputs": [
        {
          "internalType": "contract IVault",
          "name": "vault",
          "type": "address"
        },
        {
          "internalType": "uint256",
          "name": "defaultMaxSurgeFeePercentage",
          "type": "uint256"
        },
        {
          "internalType": "uint256",
          "name": "defaultSurgeThresholdPercentage",
          "type": "uint256"
        },
        {
          "internalType": "string",
          "name": "version",
          "type": "string"
        }
      ],
      "stateMutability": "nonpayable",
      "type": "constructor"
    },
    {
      "inputs": [],
      "name": "InputLengthMismatch",
      "type": "error"
    },
    {
      "inputs": [],
      "name": "InvalidPercentage",
      "type": "error"
    },
    {
      "inputs": [
        {
          "internalType": "uint8",
          "name": "bits",
          "type": "uint8"
        },
        {
          "internalType": "uint256",
          "name": "value",
          "type": "uint256"
        }
      ],
      "name": "SafeCastOverflowedUintDowncast",
      "type": "error"
    },
    {
      "inputs": [
        {
          "internalType": "address",
          "name": "sender",
          "type": "address"
        }
      ],
      "name": "SenderIsNotVault",
      "type": "error"
    },
    {
      "inputs": [],
      "name": "SenderNotAllowed",
      "type": "error"
    },
    {
      "inputs": [],
      "name": "VaultNotSet",
      "type": "error"
    },
    {
      "anonymous": false,
      "inputs": [
        {
          "indexed": true,
          "internalType": "address",
          "name": "pool",
          "type": "address"
        },
        {
          "indexed": false,
          "internalType": "uint256",
          "name": "newMaxSurgeFeePercentage",
          "type": "uint256"
        }
      ],
      "name": "MaxSurgeFeePercentageChanged",
      "type": "event"
    },
    {
      "anonymous": false,
      "inputs": [
        {
          "indexed": true,
          "internalType": "address",
          "name": "pool",
          "type": "address"
        },
        {
          "indexed": true,
          "internalType": "address",
          "name": "factory",
          "type": "address"
        }
      ],
      "name": "StableSurgeHookRegistered",
      "type": "event"
    },
    {
      "anonymous": false,
      "inputs": [
        {
          "indexed": true,
          "internalType": "address",
          "name": "pool",
          "type": "address"
        },
        {
          "indexed": false,
          "internalType": "uint256",
          "name": "newSurgeThresholdPercentage",
          "type": "uint256"
        }
      ],
      "name": "ThresholdSurgePercentageChanged",
      "type": "event"
    },
    {
      "inputs": [
        {
          "internalType": "bytes4",
          "name": "selector",
          "type": "bytes4"
        }
      ],
      "name": "getActionId",
      "outputs": [
        {
          "internalType": "bytes32",
          "name": "",
          "type": "bytes32"
        }
      ],
      "stateMutability": "view",
      "type": "function"
    },
    {
      "inputs": [],
      "name": "getAuthorizer",
      "outputs": [
        {
          "internalType": "contract IAuthorizer",
          "name": "",
          "type": "address"
        }
      ],
      "stateMutability": "view",
      "type": "function"
    },
    {
      "inputs": [],
      "name": "getDefaultMaxSurgeFeePercentage",
      "outputs": [
        {
          "internalType": "uint256",
          "name": "",
          "type": "uint256"
        }
      ],
      "stateMutability": "view",
      "type": "function"
    },
    {
      "inputs": [],
      "name": "getDefaultSurgeThresholdPercentage",
      "outputs": [
        {
          "internalType": "uint256",
          "name": "",
          "type": "uint256"
        }
      ],
      "stateMutability": "view",
      "type": "function"
    },
    {
      "inputs": [],
      "name": "getHookFlags",
      "outputs": [
        {
          "components": [
            {
              "internalType": "bool",
              "name": "enableHookAdjustedAmounts",
              "type": "bool"
            },
            {
              "internalType": "bool",
              "name": "shouldCallBeforeInitialize",
              "type": "bool"
            },
            {
              "internalType": "bool",
              "name": "shouldCallAfterInitialize",
              "type": "bool"
            },
            {
              "internalType": "bool",
              "name": "shouldCallComputeDynamicSwapFee",
              "type": "bool"
            },
            {
              "internalType": "bool",
              "name": "shouldCallBeforeSwap",
              "type": "bool"
            },
            {
              "internalType": "bool",
              "name": "shouldCallAfterSwap",
              "type": "bool"
            },
            {
              "internalType": "bool",
              "name": "shouldCallBeforeAddLiquidity",
              "type": "bool"
            },
            {
              "internalType": "bool",
              "name": "shouldCallAfterAddLiquidity",
              "type": "bool"
            },
            {
              "internalType": "bool",
              "name": "shouldCallBeforeRemoveLiquidity",
              "type": "bool"
            },
            {
              "internalType": "bool",
              "name": "shouldCallAfterRemoveLiquidity",
              "type": "bool"
            }
          ],
          "internalType": "struct HookFlags",
          "name": "hookFlags",
          "type": "tuple"
        }
      ],
      "stateMutability": "pure",
      "type": "function"
    },
    {
      "inputs": [
        {
          "internalType": "address",
          "name": "pool",
          "type": "address"
        }
      ],
      "name": "getMaxSurgeFeePercentage",
      "outputs": [
        {
          "internalType": "uint256",
          "name": "",
          "type": "uint256"
        }
      ],
      "stateMutability": "view",
      "type": "function"
    },
    {
      "inputs": [
        {
          "components": [
            {
              "internalType": "enum SwapKind",
              "name": "kind",
              "type": "uint8"
            },
            {
              "internalType": "uint256",
              "name": "amountGivenScaled18",
              "type": "uint256"
            },
            {
              "internalType": "uint256[]",
              "name": "balancesScaled18",
              "type": "uint256[]"
            },
            {
              "internalType": "uint256",
              "name": "indexIn",
              "type": "uint256"
            },
            {
              "internalType": "uint256",
              "name": "indexOut",
              "type": "uint256"
            },
            {
              "internalType": "address",
              "name": "router",
              "type": "address"
            },
            {
              "internalType": "bytes",
              "name": "userData",
              "type": "bytes"
            }
          ],
          "internalType": "struct PoolSwapParams",
          "name": "params",
          "type": "tuple"
        },
        {
          "internalType": "address",
          "name": "pool",
          "type": "address"
        },
        {
          "internalType": "uint256",
          "name": "staticSwapFeePercentage",
          "type": "uint256"
        }
      ],
      "name": "getSurgeFeePercentage",
      "outputs": [
        {
          "internalType": "uint256",
          "name": "",
          "type": "uint256"
        }
      ],
      "stateMutability": "view",
      "type": "function"
    },
    {
      "inputs": [
        {
          "internalType": "address",
          "name": "pool",
          "type": "address"
        }
      ],
      "name": "getSurgeThresholdPercentage",
      "outputs": [
        {
          "internalType": "uint256",
          "name": "",
          "type": "uint256"
        }
      ],
      "stateMutability": "view",
      "type": "function"
    },
    {
      "inputs": [],
      "name": "getVault",
      "outputs": [
        {
          "internalType": "contract IVault",
          "name": "",
          "type": "address"
        }
      ],
      "stateMutability": "view",
      "type": "function"
    },
    {
      "inputs": [
        {
          "internalType": "address",
          "name": "",
          "type": "address"
        },
        {
          "internalType": "address",
          "name": "pool",
          "type": "address"
        },
        {
          "internalType": "enum AddLiquidityKind",
          "name": "kind",
          "type": "uint8"
        },
        {
          "internalType": "uint256[]",
          "name": "amountsInScaled18",
          "type": "uint256[]"
        },
        {
          "internalType": "uint256[]",
          "name": "amountsInRaw",
          "type": "uint256[]"
        },
        {
          "internalType": "uint256",
          "name": "",
          "type": "uint256"
        },
        {
          "internalType": "uint256[]",
          "name": "balancesScaled18",
          "type": "uint256[]"
        },
        {
          "internalType": "bytes",
          "name": "",
          "type": "bytes"
        }
      ],
      "name": "onAfterAddLiquidity",
      "outputs": [
        {
          "internalType": "bool",
          "name": "success",
          "type": "bool"
        },
        {
          "internalType": "uint256[]",
          "name": "hookAdjustedAmountsInRaw",
          "type": "uint256[]"
        }
      ],
      "stateMutability": "view",
      "type": "function"
    },
    {
      "inputs": [
        {
          "internalType": "uint256[]",
          "name": "",
          "type": "uint256[]"
        },
        {
          "internalType": "uint256",
          "name": "",
          "type": "uint256"
        },
        {
          "internalType": "bytes",
          "name": "",
          "type": "bytes"
        }
      ],
      "name": "onAfterInitialize",
      "outputs": [
        {
          "internalType": "bool",
          "name": "",
          "type": "bool"
        }
      ],
      "stateMutability": "nonpayable",
      "type": "function"
    },
    {
      "inputs": [
        {
          "internalType": "address",
          "name": "",
          "type": "address"
        },
        {
          "internalType": "address",
          "name": "pool",
          "type": "address"
        },
        {
          "internalType": "enum RemoveLiquidityKind",
          "name": "kind",
          "type": "uint8"
        },
        {
          "internalType": "uint256",
          "name": "",
          "type": "uint256"
        },
        {
          "internalType": "uint256[]",
          "name": "amountsOutScaled18",
          "type": "uint256[]"
        },
        {
          "internalType": "uint256[]",
          "name": "amountsOutRaw",
          "type": "uint256[]"
        },
        {
          "internalType": "uint256[]",
          "name": "balancesScaled18",
          "type": "uint256[]"
        },
        {
          "internalType": "bytes",
          "name": "",
          "type": "bytes"
        }
      ],
      "name": "onAfterRemoveLiquidity",
      "outputs": [
        {
          "internalType": "bool",
          "name": "success",
          "type": "bool"
        },
        {
          "internalType": "uint256[]",
          "name": "hookAdjustedAmountsOutRaw",
          "type": "uint256[]"
        }
      ],
      "stateMutability": "view",
      "type": "function"
    },
    {
      "inputs": [
        {
          "components": [
            {
              "internalType": "enum SwapKind",
              "name": "kind",
              "type": "uint8"
            },
            {
              "internalType": "contract IERC20",
              "name": "tokenIn",
              "type": "address"
            },
            {
              "internalType": "contract IERC20",
              "name": "tokenOut",
              "type": "address"
            },
            {
              "internalType": "uint256",
              "name": "amountInScaled18",
              "type": "uint256"
            },
            {
              "internalType": "uint256",
              "name": "amountOutScaled18",
              "type": "uint256"
            },
            {
              "internalType": "uint256",
              "name": "tokenInBalanceScaled18",
              "type": "uint256"
            },
            {
              "internalType": "uint256",
              "name": "tokenOutBalanceScaled18",
              "type": "uint256"
            },
            {
              "internalType": "uint256",
              "name": "amountCalculatedScaled18",
              "type": "uint256"
            },
            {
              "internalType": "uint256",
              "name": "amountCalculatedRaw",
              "type": "uint256"
            },
            {
              "internalType": "address",
              "name": "router",
              "type": "address"
            },
            {
              "internalType": "address",
              "name": "pool",
              "type": "address"
            },
            {
              "internalType": "bytes",
              "name": "userData",
              "type": "bytes"
            }
          ],
          "internalType": "struct AfterSwapParams",
          "name": "",
          "type": "tuple"
        }
      ],
      "name": "onAfterSwap",
      "outputs": [
        {
          "internalType": "bool",
          "name": "",
          "type": "bool"
        },
        {
          "internalType": "uint256",
          "name": "",
          "type": "uint256"
        }
      ],
      "stateMutability": "nonpayable",
      "type": "function"
    },
    {
      "inputs": [
        {
          "internalType": "address",
          "name": "",
          "type": "address"
        },
        {
          "internalType": "address",
          "name": "",
          "type": "address"
        },
        {
          "internalType": "enum AddLiquidityKind",
          "name": "",
          "type": "uint8"
        },
        {
          "internalType": "uint256[]",
          "name": "",
          "type": "uint256[]"
        },
        {
          "internalType": "uint256",
          "name": "",
          "type": "uint256"
        },
        {
          "internalType": "uint256[]",
          "name": "",
          "type": "uint256[]"
        },
        {
          "internalType": "bytes",
          "name": "",
          "type": "bytes"
        }
      ],
      "name": "onBeforeAddLiquidity",
      "outputs": [
        {
          "internalType": "bool",
          "name": "",
          "type": "bool"
        }
      ],
      "stateMutability": "nonpayable",
      "type": "function"
    },
    {
      "inputs": [
        {
          "internalType": "uint256[]",
          "name": "",
          "type": "uint256[]"
        },
        {
          "internalType": "bytes",
          "name": "",
          "type": "bytes"
        }
      ],
      "name": "onBeforeInitialize",
      "outputs": [
        {
          "internalType": "bool",
          "name": "",
          "type": "bool"
        }
      ],
      "stateMutability": "nonpayable",
      "type": "function"
    },
    {
      "inputs": [
        {
          "internalType": "address",
          "name": "",
          "type": "address"
        },
        {
          "internalType": "address",
          "name": "",
          "type": "address"
        },
        {
          "internalType": "enum RemoveLiquidityKind",
          "name": "",
          "type": "uint8"
        },
        {
          "internalType": "uint256",
          "name": "",
          "type": "uint256"
        },
        {
          "internalType": "uint256[]",
          "name": "",
          "type": "uint256[]"
        },
        {
          "internalType": "uint256[]",
          "name": "",
          "type": "uint256[]"
        },
        {
          "internalType": "bytes",
          "name": "",
          "type": "bytes"
        }
      ],
      "name": "onBeforeRemoveLiquidity",
      "outputs": [
        {
          "internalType": "bool",
          "name": "",
          "type": "bool"
        }
      ],
      "stateMutability": "nonpayable",
      "type": "function"
    },
    {
      "inputs": [
        {
          "components": [
            {
              "internalType": "enum SwapKind",
              "name": "kind",
              "type": "uint8"
            },
            {
              "internalType": "uint256",
              "name": "amountGivenScaled18",
              "type": "uint256"
            },
            {
              "internalType": "uint256[]",
              "name": "balancesScaled18",
              "type": "uint256[]"
            },
            {
              "internalType": "uint256",
              "name": "indexIn",
              "type": "uint256"
            },
            {
              "internalType": "uint256",
              "name": "indexOut",
              "type": "uint256"
            },
            {
              "internalType": "address",
              "name": "router",
              "type": "address"
            },
            {
              "internalType": "bytes",
              "name": "userData",
              "type": "bytes"
            }
          ],
          "internalType": "struct PoolSwapParams",
          "name": "",
          "type": "tuple"
        },
        {
          "internalType": "address",
          "name": "",
          "type": "address"
        }
      ],
      "name": "onBeforeSwap",
      "outputs": [
        {
          "internalType": "bool",
          "name": "",
          "type": "bool"
        }
      ],
      "stateMutability": "nonpayable",
      "type": "function"
    },
    {
      "inputs": [
        {
          "components": [
            {
              "internalType": "enum SwapKind",
              "name": "kind",
              "type": "uint8"
            },
            {
              "internalType": "uint256",
              "name": "amountGivenScaled18",
              "type": "uint256"
            },
            {
              "internalType": "uint256[]",
              "name": "balancesScaled18",
              "type": "uint256[]"
            },
            {
              "internalType": "uint256",
              "name": "indexIn",
              "type": "uint256"
            },
            {
              "internalType": "uint256",
              "name": "indexOut",
              "type": "uint256"
            },
            {
              "internalType": "address",
              "name": "router",
              "type": "address"
            },
            {
              "internalType": "bytes",
              "name": "userData",
              "type": "bytes"
            }
          ],
          "internalType": "struct PoolSwapParams",
          "name": "params",
          "type": "tuple"
        },
        {
          "internalType": "address",
          "name": "pool",
          "type": "address"
        },
        {
          "internalType": "uint256",
          "name": "staticSwapFeePercentage",
          "type": "uint256"
        }
      ],
      "name": "onComputeDynamicSwapFeePercentage",
      "outputs": [
        {
          "internalType": "bool",
          "name": "",
          "type": "bool"
        },
        {
          "internalType": "uint256",
          "name": "",
          "type": "uint256"
        }
      ],
      "stateMutability": "view",
      "type": "function"
    },
    {
      "inputs": [
        {
          "internalType": "address",
          "name": "factory",
          "type": "address"
        },
        {
          "internalType": "address",
          "name": "pool",
          "type": "address"
        },
        {
          "components": [
            {
              "internalType": "contract IERC20",
              "name": "token",
              "type": "address"
            },
            {
              "internalType": "enum TokenType",
              "name": "tokenType",
              "type": "uint8"
            },
            {
              "internalType": "contract IRateProvider",
              "name": "rateProvider",
              "type": "address"
            },
            {
              "internalType": "bool",
              "name": "paysYieldFees",
              "type": "bool"
            }
          ],
          "internalType": "struct TokenConfig[]",
          "name": "",
          "type": "tuple[]"
        },
        {
          "components": [
            {
              "internalType": "bool",
              "name": "disableUnbalancedLiquidity",
              "type": "bool"
            },
            {
              "internalType": "bool",
              "name": "enableAddLiquidityCustom",
              "type": "bool"
            },
            {
              "internalType": "bool",
              "name": "enableRemoveLiquidityCustom",
              "type": "bool"
            },
            {
              "internalType": "bool",
              "name": "enableDonation",
              "type": "bool"
            }
          ],
          "internalType": "struct LiquidityManagement",
          "name": "",
          "type": "tuple"
        }
      ],
      "name": "onRegister",
      "outputs": [
        {
          "internalType": "bool",
          "name": "",
          "type": "bool"
        }
      ],
      "stateMutability": "nonpayable",
      "type": "function"
    },
    {
      "inputs": [
        {
          "internalType": "address",
          "name": "pool",
          "type": "address"
        },
        {
          "internalType": "uint256",
          "name": "newMaxSurgeSurgeFeePercentage",
          "type": "uint256"
        }
      ],
      "name": "setMaxSurgeFeePercentage",
      "outputs": [],
      "stateMutability": "nonpayable",
      "type": "function"
    },
    {
      "inputs": [
        {
          "internalType": "address",
          "name": "pool",
          "type": "address"
        },
        {
          "internalType": "uint256",
          "name": "newSurgeThresholdPercentage",
          "type": "uint256"
        }
      ],
      "name": "setSurgeThresholdPercentage",
      "outputs": [],
      "stateMutability": "nonpayable",
      "type": "function"
    },
    {
      "inputs": [],
      "name": "version",
      "outputs": [
        {
          "internalType": "string",
          "name": "",
          "type": "string"
        }
      ],
      "stateMutability": "view",
      "type": "function"
    }
  ],
  "bytecode": "0x6101206040523461027d5761211e8038038061001a81610281565b92833981019060808183031261027d5780516001600160a01b0381169182820361027d5760208082015193604083015195606084015160018060401b039485821161027d570194601f9282848801121561027d57865186811161025a57601f199761008a8287018a168801610281565b9482865287838301011161027d57815f92888093018388015e85010152816080523060a0521561026e5760c052805193841161025a575f54926001938481811c91168015610250575b8282101461023c578381116101f9575b50809285116001146101995750839450908392915f9461018e575b50501b915f199060031b1c1916175f555b610118816102a6565b610121826102a6565b60e052610100908152604051611e5891826102c68339608051826116cf015260a051826115fc015260c05182818161084601528181610ae201528181610bd801528181610d1f0152611b00015260e051828181610df20152610f72015251818181610b890152610f9c0152f35b015192505f806100fe565b9294849081165f8052845f20945f905b888383106101df57505050106101c7575b505050811b015f5561010f565b01515f1960f88460031b161c191690555f80806101ba565b8587015188559096019594850194879350908101906101a9565b5f8052815f208480880160051c820192848910610233575b0160051c019085905b8281106102285750506100e3565b5f815501859061021a565b92508192610211565b634e487b7160e01b5f52602260045260245ffd5b90607f16906100d3565b634e487b7160e01b5f52604160045260245ffd5b630647140b60e51b5f5260045ffd5b5f80fd5b6040519190601f01601f191682016001600160401b0381118382101761025a57604052565b670de0b6b3a7640000106102b657565b631f3b85d360e01b5f5260045ffdfe60806040526004361015610011575f80fd5b5f3560e01c80630b89f1821461017457806318b6eb551461016f5780631a4a64be1461016a5780631c149e2814610165578063249d6761146101605780632754888d1461015b57806338be241d1461015657806345421ec7146101515780634e493cfd1461014c5780635211fa771461014757806354fd4d501461014257806359f004661461013d578063851c1bb3146101385780638bc694ad146101335780638d928af81461012e578063976907cc14610129578063a0e8f5ac14610124578063aaabadc51461011f578063ba5f9f401461011a578063c17ef2cc14610115578063d77153a7146101105763e23816021461010b575f80fd5b610f12565b610e96565b610ddb565b610d8c565b610ccc565b610c9d565b610bfc565b610bac565b610b72565b610b2a565b610a6b565b610936565b6108c5565b6107cf565b610742565b6106e8565b610637565b6105c4565b610521565b610409565b6103c9565b6102ab565b73ffffffffffffffffffffffffffffffffffffffff81160361019757565b5f80fd5b600435906101a882610179565b565b602435906101a882610179565b35906101a882610179565b7f4e487b71000000000000000000000000000000000000000000000000000000005f52604160045260245ffd5b6080810190811067ffffffffffffffff82111761020b57604052565b6101c2565b610140810190811067ffffffffffffffff82111761020b57604052565b90601f601f19910116810190811067ffffffffffffffff82111761020b57604052565b67ffffffffffffffff811161020b5760051b60200190565b6002111561019757565b8015150361019757565b7fffffffffffffffffffffffffffffffffffffffffffffffffffffffffffffff9c608091011261019757606490565b346101975760e0600319360112610197576004356102c881610179565b602435906102d582610179565b60443567ffffffffffffffff811161019757366023820112156101975780600401359061030182610250565b604092610311604051928361022d565b808252602460208093019160071b8401019236841161019757602401905b8382106103635761035f61034d88886103473661027c565b50610f65565b60405190151581529081906020820190565b0390f35b6080823603126101975782608091865161037c816101ef565b843561038781610179565b81528285013561039681610268565b83820152878501356103a781610179565b88820152606080860135906103bb82610272565b82015281520191019061032f565b3461019757600319602081360112610197576004359067ffffffffffffffff821161019757610180913603011261019757604080515f81525f6020820152f35b346101975760206003193601126101975773ffffffffffffffffffffffffffffffffffffffff60043561043b81610179565b165f526001602052602067ffffffffffffffff60405f205460401c16604051908152f35b929161046a82610250565b91610478604051938461022d565b829481845260208094019160051b810192831161019757905b82821061049e5750505050565b81358152908301908301610491565b9080601f83011215610197578160206104c89335910161045f565b90565b81601f820112156101975780359067ffffffffffffffff821161020b57604051926105006020601f19601f860116018561022d565b8284526020838301011161019757815f926020809301838601378301015290565b346101975760406003193601126101975767ffffffffffffffff600435818111610197576105539036906004016104ad565b506024359081116101975761056c9036906004016104cb565b5060206040515f8152f35b908160e09103126101975790565b6060600319820112610197576004359067ffffffffffffffff8211610197576105b091600401610577565b906024356105bd81610179565b9060443590565b346101975760206105dd6105d736610585565b91611325565b604051908152f35b60443590600482101561019757565b906040820190151582526020606081936040838201528551809452019301915f5b828110610623575050505090565b835185529381019392810192600101610615565b34610197576101006003193601126101975761065161019b565b5061065a6101aa565b6106626105e5565b67ffffffffffffffff9190608435838111610197576106859036906004016104ad565b60a4358481116101975761069d9036906004016104ad565b9160c435858111610197576106b69036906004016104ad565b9360e435958611610197576106d26106d89636906004016104cb565b506114bd565b9061035f604051928392836105f4565b346101975760606003193601126101975767ffffffffffffffff6004358181116101975761071a9036906004016104ad565b506044359081116101975761056c9036906004016104cb565b60443590600582101561019757565b346101975760e06003193601126101975761075e600435610179565b6107666101aa565b5061076f610733565b5067ffffffffffffffff606435818111610197576107919036906004016104ad565b5060a435818111610197576107aa9036906004016104ad565b5060c435908111610197576107c39036906004016104cb565b506040515f8152602090f35b34610197576040600319360112610197576004356107ec81610179565b6024356107f881611a4a565b73ffffffffffffffffffffffffffffffffffffffff91604051927fe9ddeb260000000000000000000000000000000000000000000000000000000084528082166004850152606084602481847f0000000000000000000000000000000000000000000000000000000000000000165afa9081156108c057602061088a9261088f965f91610891575b5001511682611a82565b611723565b005b6108b3915060603d6060116108b9575b6108ab818361022d565b810190611572565b5f610880565b503d6108a1565b6111fe565b346101975760406003193601126101975760043567ffffffffffffffff8111610197576108f6903690600401610577565b50610902602435610179565b60206040515f8152f35b601f19601f602060409481855280519182918282880152018686015e5f8582860101520116010190565b34610197575f600319360112610197576040515f5f5460018160011c9160018116918215610a61575b602091602085108414610a345784875260208701939081156109f757506001146109a0575b61035f866109948188038261022d565b6040519182918261090c565b5f80805294509192917f290decd9548b62a8d60345a988386fc84ba6bc95484008f6362f93160ef3e5635b8386106109e657505050910190506109948261035f5f610984565b8054858701529482019481016109cb565b7fffffffffffffffffffffffffffffffffffffffffffffffffffffffffffffff0016845250505090151560051b0190506109948261035f5f610984565b7f4e487b71000000000000000000000000000000000000000000000000000000005f52602260045260245ffd5b92607f169261095f565b3461019757604060031936011261019757600435610a8881610179565b602435610a9481611a4a565b73ffffffffffffffffffffffffffffffffffffffff91604051927fe9ddeb260000000000000000000000000000000000000000000000000000000084528082166004850152606084602481847f0000000000000000000000000000000000000000000000000000000000000000165afa9081156108c0576020610b259261088f965f91610891575001511682611a82565b6117bc565b34610197576020600319360112610197576004357fffffffff0000000000000000000000000000000000000000000000000000000081168103610197576105dd6020916115d1565b34610197575f6003193601126101975760206040517f00000000000000000000000000000000000000000000000000000000000000008152f35b34610197575f60031936011261019757602060405173ffffffffffffffffffffffffffffffffffffffff7f0000000000000000000000000000000000000000000000000000000000000000168152f35b346101975761010060031936011261019757610c1661019b565b50610c1f6101aa565b610c27610733565b67ffffffffffffffff919060643583811161019757610c4a9036906004016104ad565b60843584811161019757610c629036906004016104ad565b9160c43585811161019757610c7b9036906004016104ad565b9360e43595861161019757610c976106d89636906004016104cb565b50611647565b34610197576040610cbe610cb036610585565b91610cb96116b8565b611325565b815190600182526020820152f35b34610197575f600319360112610197576040517faaabadc500000000000000000000000000000000000000000000000000000000815273ffffffffffffffffffffffffffffffffffffffff6020826004817f000000000000000000000000000000000000000000000000000000000000000085165afa9081156108c0576020925f92610d5d575b5060405191168152f35b610d7e919250833d8511610d85575b610d76818361022d565b8101906116a3565b905f610d53565b503d610d6c565b346101975760e060031936011261019757610da8600435610179565b610db06101aa565b50610db96105e5565b5067ffffffffffffffff608435818111610197576107919036906004016104ad565b34610197575f6003193601126101975760206040517f00000000000000000000000000000000000000000000000000000000000000008152f35b815115158152610140810192916101a8919060208181015115159083015260408181015115159083015260608181015115159083015260808181015115159083015260a08181015115159083015260c08181015115159083015260e08181015115159083015261010081810151151590830152610120908101511515910152565b34610197575f6003193601126101975761035f604051610eb581610210565b5f81525f60208201525f60408201525f60808201525f60a08201525f60c0820152610f0660e082015f81525f610100840152610f006101208401915f83526001606086015260019052565b60019052565b60405191829182610e15565b346101975760206003193601126101975773ffffffffffffffffffffffffffffffffffffffff600435610f4481610179565b165f526001602052602067ffffffffffffffff60405f205416604051908152f35b610f6d6116b8565b610f977f000000000000000000000000000000000000000000000000000000000000000083611723565b610fc17f0000000000000000000000000000000000000000000000000000000000000000836117bc565b73ffffffffffffffffffffffffffffffffffffffff80911691167ffd42028b1ab0233596a5bfda7bb185da4a89e41288da447e5135765d4b50d46b5f80a3600190565b90816020910312610197575190565b7f4e487b71000000000000000000000000000000000000000000000000000000005f52602160045260245ffd5b6002111561104a57565b611013565b90357fffffffffffffffffffffffffffffffffffffffffffffffffffffffffffffffe18236030181121561019757016020813591019167ffffffffffffffff8211610197578160051b3603831361019757565b90918281527f07ffffffffffffffffffffffffffffffffffffffffffffffffffffffffffffff83116101975760209260051b809284830137010190565b90357fffffffffffffffffffffffffffffffffffffffffffffffffffffffffffffffe18236030181121561019757016020813591019167ffffffffffffffff821161019757813603831361019757565b601f8260209493601f1993818652868601375f8582860101520116010190565b906020825280359161116083610268565b600283101561104a576104c8926020820152602082013560408201526111ec6111a161118f604085018561104f565b60e060608601526101008501916110a2565b9260608101356080840152608081013560a08401526111e26111c560a083016101b7565b73ffffffffffffffffffffffffffffffffffffffff1660c0850152565b60c08101906110df565b9160e0601f198286030191015261112f565b6040513d5f823e3d90fd5b9035907fffffffffffffffffffffffffffffffffffffffffffffffffffffffffffffffe181360301821215610197570180359067ffffffffffffffff821161019757602001918160051b3603831361019757565b9061126782610250565b611274604051918261022d565b828152601f196112848294610250565b0190602036910137565b356104c881610268565b80518210156112ac5760209160051b010190565b7f4e487b71000000000000000000000000000000000000000000000000000000005f52603260045260245ffd5b7f4e487b71000000000000000000000000000000000000000000000000000000005f52601160045260245ffd5b9190820180921161131357565b6112d9565b9190820391821161131357565b91604051917f72c981860000000000000000000000000000000000000000000000000000000083526020838061135e876004830161114f565b038173ffffffffffffffffffffffffffffffffffffffff85165afa9384156108c0576104c8946113b7945f9161145b575b506113c3604083016113be6113ae6113a78387611209565b905061125d565b97889286611209565b369161045f565b611848565b6113cc8261128e565b6113d581611040565b61142a5760608201356114006113f960208501356113f3848a611298565b51611306565b9187611298565b5261142461141d6080840135926114178489611298565b51611318565b9186611298565b52611889565b61144061141d6060840135926113f38489611298565b52608081013561142461141d60208401356114178489611298565b61147d915060203d602011611483575b611475818361022d565b810190611004565b5f61138f565b503d61146b565b906040516040810167ffffffffffffffff8282108183111761020b57602091604052829454818116845260401c16910152565b93919290600481101561104a5715611567576114d9825161125d565b945f5b8351811015611519576114ef8185611298565b51906114fb8187611298565b51820180921161131357600191611512828a611298565b52016114dc565b5093611562935061155661155161155c9297939773ffffffffffffffffffffffffffffffffffffffff165f52600160205260405f2090565b61148a565b92611987565b91611a14565b159190565b939250505060019190565b908160609103126101975760405190606082019082821067ffffffffffffffff83111761020b57604091825280516115a981610179565b835260208101516115b981610179565b602084015201516115c981610179565b604082015290565b6040517fffffffff0000000000000000000000000000000000000000000000000000000060208201927f00000000000000000000000000000000000000000000000000000000000000008452166040820152602481526060810181811067ffffffffffffffff82111761020b5760405251902090565b93919290600581101561104a571561156757611663825161125d565b945f5b8351811015611519576116798185611298565b51906116858187611298565b5182039182116113135760019161169c828a611298565b5201611666565b9081602091031261019757516104c881610179565b73ffffffffffffffffffffffffffffffffffffffff7f00000000000000000000000000000000000000000000000000000000000000001633036116f757565b7f089676d5000000000000000000000000000000000000000000000000000000005f523360045260245ffd5b9060207fcc7585f1dd40a0def67658a884745a1eca326ed902fe084d36e9e040842120329173ffffffffffffffffffffffffffffffffffffffff61176682611c31565b941693845f526001835260405f20907fffffffffffffffffffffffffffffffff0000000000000000ffffffffffffffff6fffffffffffffffff000000000000000083549260401b169116179055604051908152a2565b9060207f3b64afdb883fd4fa590572fb2db0b4d199d8ffb9703f5d32f4d87d1d468c026c9173ffffffffffffffffffffffffffffffffffffffff6117ff82611c31565b941693845f526001835267ffffffffffffffff60405f2091167fffffffffffffffffffffffffffffffffffffffffffffffff0000000000000000825416179055604051908152a2565b90815181518103611861576020809160051b930191015e565b7faaad13f7000000000000000000000000000000000000000000000000000000005f5260045ffd5b929073ffffffffffffffffffffffffffffffffffffffff165f5260016020526118b460405f2061148a565b906020820167ffffffffffffffff9184838351161061197e576113b7956118ed6118e06118f393611987565b978260408a940190611209565b85611a14565b156119765751168281039081116113135761196a826119646119526119306119436104c89961193d6119306119709a5167ffffffffffffffff1690565b67ffffffffffffffff1690565b90611318565b935167ffffffffffffffff1690565b670de0b6b3a764000081810391100290565b90611ca3565b90611cc7565b90611306565b505050905090565b50505050905090565b9061199182611ce5565b5f9283805b82518610156119e6576119a98684611298565b5181018091116113135790836119bf8785611298565b51818111156119df57035b81018091116113135760019095019490611996565b90036119ca565b939450670de0b6b3a7640000808202935081159184041417159050611313578115611a0f570490565b611c76565b91908115611a4357611a2590611987565b81119182611a3257505090565b5167ffffffffffffffff1610919050565b5050505f90565b670de0b6b3a764000010611a5a57565b7f1f3b85d3000000000000000000000000000000000000000000000000000000005f5260045ffd5b9073ffffffffffffffffffffffffffffffffffffffff90811680611c265750611acd7fffffffff000000000000000000000000000000000000000000000000000000005f35166115d1565b91604051907faaabadc50000000000000000000000000000000000000000000000000000000082526020938483600481877f0000000000000000000000000000000000000000000000000000000000000000165afa9081156108c057611b969486945f93611c07575b506040517f9be2a884000000000000000000000000000000000000000000000000000000008152600481019290925233602483015273ffffffffffffffffffffffffffffffffffffffff9093166044820152938492839182906064820190565b0392165afa9182156108c0575f92611bda575b505015611bb257565b7f23dada53000000000000000000000000000000000000000000000000000000005f5260045ffd5b611bf99250803d10611c00575b611bf1818361022d565b810190611d66565b5f80611ba9565b503d611be7565b611c1f919350853d8711610d8557610d76818361022d565b915f611b36565b9150503303611bb257565b67ffffffffffffffff90818111611c46571690565b7f6dfcc650000000000000000000000000000000000000000000000000000000005f52604060045260245260445ffd5b7f4e487b71000000000000000000000000000000000000000000000000000000005f52601260045260245ffd5b670de0b6b3a764000090818102918183041490151715611313578115611a0f570490565b81810291818304149015171561131357670de0b6b3a7640000900490565b611cfd60016020835160051b84010160208401611d7b565b8051600181811c9116611d59577fffffffffffffffffffffffffffffffffffffffffffffffffffffffffffffffff81019080821161131357611d42611d499284611298565b5192611298565b5181018091116113135760011c90565b611d6291611298565b5190565b9081602091031261019757516104c881610272565b9190604083820310611e1d5782519282818095602090602085015b868110611dbd575050835182518552825250611db192611d7b565b60206101a89301611d7b565b9193509150805186600114611df9577f4e487b71000000000000000000000000000000000000000000000000000000005f52605160045260245ffd5b8211611e0c575b82019186918693611d96565b958201805187518252875295611e00565b50505056fea264697066735822122079efa658e108e97163bcd0e8c4d842bd7e2ca24a9d77fd0c6216b07b02afa57464736f6c634300081b0033",
  "linkReferences": {},
  "deployedLinkReferences": {}
}