{
  "_format": "hh-sol-artifact-1",
  "contractName": "BatchRouter",
  "sourceName": "contracts/BatchRouter.sol",
  "abi": [
    {
      "inputs": [
        {
          "internalType": "contract IVault",
          "name": "vault",
          "type": "address"
        },
        {
          "internalType": "contract IWETH",
          "name": "weth",
          "type": "address"
        },
        {
          "internalType": "contract IPermit2",
          "name": "permit2",
          "type": "address"
        },
        {
          "internalType": "string",
          "name": "routerVersion",
          "type": "string"
        }
      ],
      "stateMutability": "nonpayable",
      "type": "constructor"
    },
    {
      "inputs": [
        {
          "internalType": "address",
          "name": "target",
          "type": "address"
        }
      ],
      "name": "AddressEmptyCode",
      "type": "error"
    },
    {
      "inputs": [],
      "name": "ErrorSelectorNotFound",
      "type": "error"
    },
    {
      "inputs": [],
      "name": "EthTransfer",
      "type": "error"
    },
    {
      "inputs": [],
      "name": "FailedCall",
      "type": "error"
    },
    {
      "inputs": [],
      "name": "InputLengthMismatch",
      "type": "error"
    },
    {
      "inputs": [
        {
          "internalType": "uint256",
          "name": "balance",
          "type": "uint256"
        },
        {
          "internalType": "uint256",
          "name": "needed",
          "type": "uint256"
        }
      ],
      "name": "InsufficientBalance",
      "type": "error"
    },
    {
      "inputs": [],
      "name": "InsufficientEth",
      "type": "error"
    },
    {
      "inputs": [],
      "name": "OperationNotSupported",
      "type": "error"
    },
    {
      "inputs": [],
      "name": "ReentrancyGuardReentrantCall",
      "type": "error"
    },
    {
      "inputs": [
        {
          "internalType": "uint8",
          "name": "bits",
          "type": "uint8"
        },
        {
          "internalType": "uint256",
          "name": "value",
          "type": "uint256"
        }
      ],
      "name": "SafeCastOverflowedUintDowncast",
      "type": "error"
    },
    {
      "inputs": [
        {
          "internalType": "address",
          "name": "token",
          "type": "address"
        }
      ],
      "name": "SafeERC20FailedOperation",
      "type": "error"
    },
    {
      "inputs": [
        {
          "internalType": "address",
          "name": "sender",
          "type": "address"
        }
      ],
      "name": "SenderIsNotVault",
      "type": "error"
    },
    {
      "inputs": [],
      "name": "SwapDeadline",
      "type": "error"
    },
    {
      "inputs": [],
      "name": "TransientIndexOutOfBounds",
      "type": "error"
    },
    {
      "inputs": [],
      "name": "getPermit2",
      "outputs": [
        {
          "internalType": "contract IPermit2",
          "name": "",
          "type": "address"
        }
      ],
      "stateMutability": "view",
      "type": "function"
    },
    {
      "inputs": [],
      "name": "getSender",
      "outputs": [
        {
          "internalType": "address",
          "name": "",
          "type": "address"
        }
      ],
      "stateMutability": "view",
      "type": "function"
    },
    {
      "inputs": [],
      "name": "getVault",
      "outputs": [
        {
          "internalType": "contract IVault",
          "name": "",
          "type": "address"
        }
      ],
      "stateMutability": "view",
      "type": "function"
    },
    {
      "inputs": [],
      "name": "getWeth",
      "outputs": [
        {
          "internalType": "contract IWETH",
          "name": "",
          "type": "address"
        }
      ],
      "stateMutability": "view",
      "type": "function"
    },
    {
      "inputs": [
        {
          "internalType": "bytes[]",
          "name": "data",
          "type": "bytes[]"
        }
      ],
      "name": "multicall",
      "outputs": [
        {
          "internalType": "bytes[]",
          "name": "results",
          "type": "bytes[]"
        }
      ],
      "stateMutability": "payable",
      "type": "function"
    },
    {
      "inputs": [
        {
          "components": [
            {
              "internalType": "address",
              "name": "token",
              "type": "address"
            },
            {
              "internalType": "address",
              "name": "owner",
              "type": "address"
            },
            {
              "internalType": "address",
              "name": "spender",
              "type": "address"
            },
            {
              "internalType": "uint256",
              "name": "amount",
              "type": "uint256"
            },
            {
              "internalType": "uint256",
              "name": "nonce",
              "type": "uint256"
            },
            {
              "internalType": "uint256",
              "name": "deadline",
              "type": "uint256"
            }
          ],
          "internalType": "struct IRouterCommon.PermitApproval[]",
          "name": "permitBatch",
          "type": "tuple[]"
        },
        {
          "internalType": "bytes[]",
          "name": "permitSignatures",
          "type": "bytes[]"
        },
        {
          "components": [
            {
              "components": [
                {
                  "internalType": "address",
                  "name": "token",
                  "type": "address"
                },
                {
                  "internalType": "uint160",
                  "name": "amount",
                  "type": "uint160"
                },
                {
                  "internalType": "uint48",
                  "name": "expiration",
                  "type": "uint48"
                },
                {
                  "internalType": "uint48",
                  "name": "nonce",
                  "type": "uint48"
                }
              ],
              "internalType": "struct IAllowanceTransfer.PermitDetails[]",
              "name": "details",
              "type": "tuple[]"
            },
            {
              "internalType": "address",
              "name": "spender",
              "type": "address"
            },
            {
              "internalType": "uint256",
              "name": "sigDeadline",
              "type": "uint256"
            }
          ],
          "internalType": "struct IAllowanceTransfer.PermitBatch",
          "name": "permit2Batch",
          "type": "tuple"
        },
        {
          "internalType": "bytes",
          "name": "permit2Signature",
          "type": "bytes"
        },
        {
          "internalType": "bytes[]",
          "name": "multicallData",
          "type": "bytes[]"
        }
      ],
      "name": "permitBatchAndCall",
      "outputs": [
        {
          "internalType": "bytes[]",
          "name": "",
          "type": "bytes[]"
        }
      ],
      "stateMutability": "payable",
      "type": "function"
    },
    {
      "inputs": [
        {
          "components": [
            {
              "internalType": "contract IERC20",
              "name": "tokenIn",
              "type": "address"
            },
            {
              "components": [
                {
                  "internalType": "address",
                  "name": "pool",
                  "type": "address"
                },
                {
                  "internalType": "contract IERC20",
                  "name": "tokenOut",
                  "type": "address"
                },
                {
                  "internalType": "bool",
                  "name": "isBuffer",
                  "type": "bool"
                }
              ],
              "internalType": "struct SwapPathStep[]",
              "name": "steps",
              "type": "tuple[]"
            },
            {
              "internalType": "uint256",
              "name": "exactAmountIn",
              "type": "uint256"
            },
            {
              "internalType": "uint256",
              "name": "minAmountOut",
              "type": "uint256"
            }
          ],
          "internalType": "struct SwapPathExactAmountIn[]",
          "name": "paths",
          "type": "tuple[]"
        },
        {
          "internalType": "address",
          "name": "sender",
          "type": "address"
        },
        {
          "internalType": "bytes",
          "name": "userData",
          "type": "bytes"
        }
      ],
      "name": "querySwapExactIn",
      "outputs": [
        {
          "internalType": "uint256[]",
          "name": "pathAmountsOut",
          "type": "uint256[]"
        },
        {
          "internalType": "address[]",
          "name": "tokensOut",
          "type": "address[]"
        },
        {
          "internalType": "uint256[]",
          "name": "amountsOut",
          "type": "uint256[]"
        }
      ],
      "stateMutability": "nonpayable",
      "type": "function"
    },
    {
      "inputs": [
        {
          "components": [
            {
              "internalType": "address",
              "name": "sender",
              "type": "address"
            },
            {
              "components": [
                {
                  "internalType": "contract IERC20",
                  "name": "tokenIn",
                  "type": "address"
                },
                {
                  "components": [
                    {
                      "internalType": "address",
                      "name": "pool",
                      "type": "address"
                    },
                    {
                      "internalType": "contract IERC20",
                      "name": "tokenOut",
                      "type": "address"
                    },
                    {
                      "internalType": "bool",
                      "name": "isBuffer",
                      "type": "bool"
                    }
                  ],
                  "internalType": "struct SwapPathStep[]",
                  "name": "steps",
                  "type": "tuple[]"
                },
                {
                  "internalType": "uint256",
                  "name": "exactAmountIn",
                  "type": "uint256"
                },
                {
                  "internalType": "uint256",
                  "name": "minAmountOut",
                  "type": "uint256"
                }
              ],
              "internalType": "struct SwapPathExactAmountIn[]",
              "name": "paths",
              "type": "tuple[]"
            },
            {
              "internalType": "uint256",
              "name": "deadline",
              "type": "uint256"
            },
            {
              "internalType": "bool",
              "name": "wethIsEth",
              "type": "bool"
            },
            {
              "internalType": "bytes",
              "name": "userData",
              "type": "bytes"
            }
          ],
          "internalType": "struct SwapExactInHookParams",
          "name": "params",
          "type": "tuple"
        }
      ],
      "name": "querySwapExactInHook",
      "outputs": [
        {
          "internalType": "uint256[]",
          "name": "pathAmountsOut",
          "type": "uint256[]"
        },
        {
          "internalType": "address[]",
          "name": "tokensOut",
          "type": "address[]"
        },
        {
          "internalType": "uint256[]",
          "name": "amountsOut",
          "type": "uint256[]"
        }
      ],
      "stateMutability": "nonpayable",
      "type": "function"
    },
    {
      "inputs": [
        {
          "components": [
            {
              "internalType": "contract IERC20",
              "name": "tokenIn",
              "type": "address"
            },
            {
              "components": [
                {
                  "internalType": "address",
                  "name": "pool",
                  "type": "address"
                },
                {
                  "internalType": "contract IERC20",
                  "name": "tokenOut",
                  "type": "address"
                },
                {
                  "internalType": "bool",
                  "name": "isBuffer",
                  "type": "bool"
                }
              ],
              "internalType": "struct SwapPathStep[]",
              "name": "steps",
              "type": "tuple[]"
            },
            {
              "internalType": "uint256",
              "name": "maxAmountIn",
              "type": "uint256"
            },
            {
              "internalType": "uint256",
              "name": "exactAmountOut",
              "type": "uint256"
            }
          ],
          "internalType": "struct SwapPathExactAmountOut[]",
          "name": "paths",
          "type": "tuple[]"
        },
        {
          "internalType": "address",
          "name": "sender",
          "type": "address"
        },
        {
          "internalType": "bytes",
          "name": "userData",
          "type": "bytes"
        }
      ],
      "name": "querySwapExactOut",
      "outputs": [
        {
          "internalType": "uint256[]",
          "name": "pathAmountsIn",
          "type": "uint256[]"
        },
        {
          "internalType": "address[]",
          "name": "tokensIn",
          "type": "address[]"
        },
        {
          "internalType": "uint256[]",
          "name": "amountsIn",
          "type": "uint256[]"
        }
      ],
      "stateMutability": "nonpayable",
      "type": "function"
    },
    {
      "inputs": [
        {
          "components": [
            {
              "internalType": "address",
              "name": "sender",
              "type": "address"
            },
            {
              "components": [
                {
                  "internalType": "contract IERC20",
                  "name": "tokenIn",
                  "type": "address"
                },
                {
                  "components": [
                    {
                      "internalType": "address",
                      "name": "pool",
                      "type": "address"
                    },
                    {
                      "internalType": "contract IERC20",
                      "name": "tokenOut",
                      "type": "address"
                    },
                    {
                      "internalType": "bool",
                      "name": "isBuffer",
                      "type": "bool"
                    }
                  ],
                  "internalType": "struct SwapPathStep[]",
                  "name": "steps",
                  "type": "tuple[]"
                },
                {
                  "internalType": "uint256",
                  "name": "maxAmountIn",
                  "type": "uint256"
                },
                {
                  "internalType": "uint256",
                  "name": "exactAmountOut",
                  "type": "uint256"
                }
              ],
              "internalType": "struct SwapPathExactAmountOut[]",
              "name": "paths",
              "type": "tuple[]"
            },
            {
              "internalType": "uint256",
              "name": "deadline",
              "type": "uint256"
            },
            {
              "internalType": "bool",
              "name": "wethIsEth",
              "type": "bool"
            },
            {
              "internalType": "bytes",
              "name": "userData",
              "type": "bytes"
            }
          ],
          "internalType": "struct SwapExactOutHookParams",
          "name": "params",
          "type": "tuple"
        }
      ],
      "name": "querySwapExactOutHook",
      "outputs": [
        {
          "internalType": "uint256[]",
          "name": "pathAmountsIn",
          "type": "uint256[]"
        },
        {
          "internalType": "address[]",
          "name": "tokensIn",
          "type": "address[]"
        },
        {
          "internalType": "uint256[]",
          "name": "amountsIn",
          "type": "uint256[]"
        }
      ],
      "stateMutability": "nonpayable",
      "type": "function"
    },
    {
      "inputs": [
        {
          "components": [
            {
              "internalType": "contract IERC20",
              "name": "tokenIn",
              "type": "address"
            },
            {
              "components": [
                {
                  "internalType": "address",
                  "name": "pool",
                  "type": "address"
                },
                {
                  "internalType": "contract IERC20",
                  "name": "tokenOut",
                  "type": "address"
                },
                {
                  "internalType": "bool",
                  "name": "isBuffer",
                  "type": "bool"
                }
              ],
              "internalType": "struct SwapPathStep[]",
              "name": "steps",
              "type": "tuple[]"
            },
            {
              "internalType": "uint256",
              "name": "exactAmountIn",
              "type": "uint256"
            },
            {
              "internalType": "uint256",
              "name": "minAmountOut",
              "type": "uint256"
            }
          ],
          "internalType": "struct SwapPathExactAmountIn[]",
          "name": "paths",
          "type": "tuple[]"
        },
        {
          "internalType": "uint256",
          "name": "deadline",
          "type": "uint256"
        },
        {
          "internalType": "bool",
          "name": "wethIsEth",
          "type": "bool"
        },
        {
          "internalType": "bytes",
          "name": "userData",
          "type": "bytes"
        }
      ],
      "name": "swapExactIn",
      "outputs": [
        {
          "internalType": "uint256[]",
          "name": "pathAmountsOut",
          "type": "uint256[]"
        },
        {
          "internalType": "address[]",
          "name": "tokensOut",
          "type": "address[]"
        },
        {
          "internalType": "uint256[]",
          "name": "amountsOut",
          "type": "uint256[]"
        }
      ],
      "stateMutability": "payable",
      "type": "function"
    },
    {
      "inputs": [
        {
          "components": [
            {
              "internalType": "address",
              "name": "sender",
              "type": "address"
            },
            {
              "components": [
                {
                  "internalType": "contract IERC20",
                  "name": "tokenIn",
                  "type": "address"
                },
                {
                  "components": [
                    {
                      "internalType": "address",
                      "name": "pool",
                      "type": "address"
                    },
                    {
                      "internalType": "contract IERC20",
                      "name": "tokenOut",
                      "type": "address"
                    },
                    {
                      "internalType": "bool",
                      "name": "isBuffer",
                      "type": "bool"
                    }
                  ],
                  "internalType": "struct SwapPathStep[]",
                  "name": "steps",
                  "type": "tuple[]"
                },
                {
                  "internalType": "uint256",
                  "name": "exactAmountIn",
                  "type": "uint256"
                },
                {
                  "internalType": "uint256",
                  "name": "minAmountOut",
                  "type": "uint256"
                }
              ],
              "internalType": "struct SwapPathExactAmountIn[]",
              "name": "paths",
              "type": "tuple[]"
            },
            {
              "internalType": "uint256",
              "name": "deadline",
              "type": "uint256"
            },
            {
              "internalType": "bool",
              "name": "wethIsEth",
              "type": "bool"
            },
            {
              "internalType": "bytes",
              "name": "userData",
              "type": "bytes"
            }
          ],
          "internalType": "struct SwapExactInHookParams",
          "name": "params",
          "type": "tuple"
        }
      ],
      "name": "swapExactInHook",
      "outputs": [
        {
          "internalType": "uint256[]",
          "name": "pathAmountsOut",
          "type": "uint256[]"
        },
        {
          "internalType": "address[]",
          "name": "tokensOut",
          "type": "address[]"
        },
        {
          "internalType": "uint256[]",
          "name": "amountsOut",
          "type": "uint256[]"
        }
      ],
      "stateMutability": "nonpayable",
      "type": "function"
    },
    {
      "inputs": [
        {
          "components": [
            {
              "internalType": "contract IERC20",
              "name": "tokenIn",
              "type": "address"
            },
            {
              "components": [
                {
                  "internalType": "address",
                  "name": "pool",
                  "type": "address"
                },
                {
                  "internalType": "contract IERC20",
                  "name": "tokenOut",
                  "type": "address"
                },
                {
                  "internalType": "bool",
                  "name": "isBuffer",
                  "type": "bool"
                }
              ],
              "internalType": "struct SwapPathStep[]",
              "name": "steps",
              "type": "tuple[]"
            },
            {
              "internalType": "uint256",
              "name": "maxAmountIn",
              "type": "uint256"
            },
            {
              "internalType": "uint256",
              "name": "exactAmountOut",
              "type": "uint256"
            }
          ],
          "internalType": "struct SwapPathExactAmountOut[]",
          "name": "paths",
          "type": "tuple[]"
        },
        {
          "internalType": "uint256",
          "name": "deadline",
          "type": "uint256"
        },
        {
          "internalType": "bool",
          "name": "wethIsEth",
          "type": "bool"
        },
        {
          "internalType": "bytes",
          "name": "userData",
          "type": "bytes"
        }
      ],
      "name": "swapExactOut",
      "outputs": [
        {
          "internalType": "uint256[]",
          "name": "pathAmountsIn",
          "type": "uint256[]"
        },
        {
          "internalType": "address[]",
          "name": "tokensIn",
          "type": "address[]"
        },
        {
          "internalType": "uint256[]",
          "name": "amountsIn",
          "type": "uint256[]"
        }
      ],
      "stateMutability": "payable",
      "type": "function"
    },
    {
      "inputs": [
        {
          "components": [
            {
              "internalType": "address",
              "name": "sender",
              "type": "address"
            },
            {
              "components": [
                {
                  "internalType": "contract IERC20",
                  "name": "tokenIn",
                  "type": "address"
                },
                {
                  "components": [
                    {
                      "internalType": "address",
                      "name": "pool",
                      "type": "address"
                    },
                    {
                      "internalType": "contract IERC20",
                      "name": "tokenOut",
                      "type": "address"
                    },
                    {
                      "internalType": "bool",
                      "name": "isBuffer",
                      "type": "bool"
                    }
                  ],
                  "internalType": "struct SwapPathStep[]",
                  "name": "steps",
                  "type": "tuple[]"
                },
                {
                  "internalType": "uint256",
                  "name": "maxAmountIn",
                  "type": "uint256"
                },
                {
                  "internalType": "uint256",
                  "name": "exactAmountOut",
                  "type": "uint256"
                }
              ],
              "internalType": "struct SwapPathExactAmountOut[]",
              "name": "paths",
              "type": "tuple[]"
            },
            {
              "internalType": "uint256",
              "name": "deadline",
              "type": "uint256"
            },
            {
              "internalType": "bool",
              "name": "wethIsEth",
              "type": "bool"
            },
            {
              "internalType": "bytes",
              "name": "userData",
              "type": "bytes"
            }
          ],
          "internalType": "struct SwapExactOutHookParams",
          "name": "params",
          "type": "tuple"
        }
      ],
      "name": "swapExactOutHook",
      "outputs": [
        {
          "internalType": "uint256[]",
          "name": "pathAmountsIn",
          "type": "uint256[]"
        },
        {
          "internalType": "address[]",
          "name": "tokensIn",
          "type": "address[]"
        },
        {
          "internalType": "uint256[]",
          "name": "amountsIn",
          "type": "uint256[]"
        }
      ],
      "stateMutability": "nonpayable",
      "type": "function"
    },
    {
      "inputs": [],
      "name": "version",
      "outputs": [
        {
          "internalType": "string",
          "name": "",
          "type": "string"
        }
      ],
      "stateMutability": "view",
      "type": "function"
    },
    {
      "stateMutability": "payable",
      "type": "receive"
    }
  ],
  "bytecode": "0x6101e060408181523461066d576150b1803803809161001e828661068c565b843982019060808383031261066d5782516001600160a01b0393848216820361066d576020918282015191868316830361066d57848101519687169586880361066d5760608201516001600160401b039283821161066d570192601f9082828601121561066d57845184811161065957601f19958951946100a58a8987860116018761068c565b82865289838301011161066d57815f928a8093018388015e8501015261010988516100cf81610671565b600b81526a14d95b99195c91dd585c9960aa1b898201528951906100f282610671565b600682526539b2b73232b960d11b8a8301526106e5565b60805260a0528151928311610659575f54916001928381811c9116801561064f575b8882101461063b578281116105f8575b508691841160011461059b57839450908392915f94610590575b50501b915f199060031b1c1916175f555b6101ba835161017481610671565b600c81526b2937baba32b921b7b6b6b7b760a11b8482015284519061019882610671565b60118252701a5cd4995d1d5c9b915d1a131bd8dad959607a1b858301526106e5565b60c05260e0526101009384526101209215835261020982516101db81610671565b601381527f63757272656e7453776170546f6b656e73496e00000000000000000000000000838201526106af565b61014090815261024b835161021d81610671565b601481527f63757272656e7453776170546f6b656e734f7574000000000000000000000000848201526106af565b61016090815261028d845161025f81610671565b601981527f63757272656e7453776170546f6b656e496e416d6f756e747300000000000000858201526106af565b916101809283526103136102d386516102a581610671565b601a81527f63757272656e7453776170546f6b656e4f7574416d6f756e7473000000000000878201526106af565b946101a09586527f736574746c6564546f6b656e416d6f756e74730000000000000000000000000087519161030783610671565b601383528201526106af565b946101c09586525195614919978861079889396080518881816102cb015281816105990152818161197b0152612a12015260a0518881816102670152818161050601528181611ad801528181611d2001528181611f6e0152818161214d0152818161226d015281816124de01528181612c6901528181612ebb01528181612ef801528181612f75015281816130230152818161310b0152818161318801528181613455015281816135a10152818161362e015281816136fe01528181613c5801528181613db201528181613ee90152818161415e0152818161425c0152614754015260c0518881816118e00152613a7d015260e051888181602201528181610fb001528181613cc201528181613e0801528181613f83015281816140f001526143af0152518781816108d101528181610abc01528181610bd00152818161204e015281816120d30152818161329801526142380152518681816109d10152818161190f01528181611bbc01528181612a6d01528181612baf01528181612cd5015281816132500152818161350e015281816137740152818161390b0152613bca0152518581816125a401528181612707015281816128ae01528181612a930152613967015251848181611da001528181611fc401528181612331015281816126050152818161288a01528181612d400152613835015251838181611eaf015281816125d00152818161272a015281816128da01528181612cff015281816134e80152818161374d015281816138770152613989015251828181611dc7015281816126360152818161291201528181612d6801526134a70152518181816123580152818161265801528181612d990152818161306f01526138990152f35b015192505f80610155565b91938316915f805283875f20935f5b89888383106105e157505050106105c9575b505050811b015f55610166565b01515f1960f88460031b161c191690555f80806105bc565b8686015188559096019594850194879350016105aa565b5f8052875f208380870160051c8201928a8810610632575b0160051c019084905b82811061062757505061013b565b5f8155018490610619565b92508192610610565b634e487b7160e01b5f52602260045260245ffd5b90607f169061012b565b634e487b7160e01b5f52604160045260245ffd5b5f80fd5b604081019081106001600160401b0382111761065957604052565b601f909101601f19168101906001600160401b0382119082101761065957604052565b6106e2906040516106bf81610671565b60118152702130ba31b42937baba32b921b7b6b6b7b760791b60208201526106e5565b90565b90610752603a60209260405193849181808401977f62616c616e6365722d6c6162732e76332e73746f726167652e000000000000008952805191829101603986015e830190601760f91b60398301528051928391018583015e015f8382015203601a81018452018261068c565b5190205f1981019081116107835760405190602082019081526020825261077882610671565b9051902060ff191690565b634e487b7160e01b5f52601160045260245ffdfe60a06040526004361015610072575b3615610018575f80fd5b6001600160a01b037f000000000000000000000000000000000000000000000000000000000000000016330361004a57005b7f0540ddf6000000000000000000000000000000000000000000000000000000005f5260045ffd5b5f3560e01c806308a465f614610fd4578063107c279f14610f9157806319c6989f146108f55780631bbf2e23146108b2578063286f580d1461081b5780632950286e1461073057806354fd4d50146105f35780635a3c3987146105ca5780635e01eb5a146105855780638a12a08c1461052a5780638d928af8146104e75780638eb1b65e146103e0578063945ed33f14610365578063ac9650d8146103215763e3b5dff40361000e573461031d5760608060031936011261031d5767ffffffffffffffff60043581811161031d5761014e9036906004016113fb565b6101566112d8565b60443592831161031d57610171610179933690600401611104565b939091612a0d565b905f5b835181101561019d57805f87610194600194886117c8565b5101520161017c565b5061021161021f61025a946101d75f9488604051936101bb85611251565b30855260208501525f19604085015286606085015236916114b8565b60808201526040519283917f8a12a08c00000000000000000000000000000000000000000000000000000000602084015260248301611575565b03601f198101835282611289565b604051809481927fedfa3568000000000000000000000000000000000000000000000000000000008352602060048401526024830190611132565b0381836001600160a01b037f0000000000000000000000000000000000000000000000000000000000000000165af1918215610312576102c4926102af915f916102f0575b506020808251830101910161170b565b909391926102c8575b60405193849384611066565b0390f35b5f7f00000000000000000000000000000000000000000000000000000000000000005d6102b8565b61030c91503d805f833e6103048183611289565b810190611684565b8461029f565b6040513d5f823e3d90fd5b5f80fd5b602060031936011261031d5760043567ffffffffffffffff811161031d576103596103536102c49236906004016110d3565b906118d2565b60405191829182611157565b3461031d5761037336611001565b61037b611aa1565b610383611ace565b6103b16102c461039283612a4f565b919390946103ab60606103a48361147b565b920161148f565b90612887565b5f7f9b779b17422d0df92223018b32b4d1fa46e071723d6817e2486d003becc55f005d60405193849384611066565b608060031936011261031d5767ffffffffffffffff60043581811161031d5761040d9036906004016113fb565b906104166112ee565b9060643590811161031d576102116104ac61025a9461047261043d5f953690600401611104565b61044633612a0d565b976040519461045486611251565b338652602086015260243560408601521515606085015236916114b8565b60808201526040519283917f945ed33f00000000000000000000000000000000000000000000000000000000602084015260248301611809565b604051809481927f48c89491000000000000000000000000000000000000000000000000000000008352602060048401526024830190611132565b3461031d575f60031936011261031d5760206040516001600160a01b037f0000000000000000000000000000000000000000000000000000000000000000168152f35b3461031d576102c461055361053e36611001565b610546611aa1565b61054e611ace565b611b97565b5f7f9b779b17422d0df92223018b32b4d1fa46e071723d6817e2486d003becc55f009492945d60405193849384611066565b3461031d575f60031936011261031d5760207f00000000000000000000000000000000000000000000000000000000000000005c6001600160a01b0360405191168152f35b3461031d576102c46105536105de36611001565b6105e6611aa1565b6105ee611ace565b612a4f565b3461031d575f60031936011261031d576040515f5f549060018260011c9160018416918215610726575b60209485851084146106f95785879486865291825f146106bb575050600114610662575b5061064e92500383611289565b6102c4604051928284938452830190611132565b5f808052859250907f290decd9548b62a8d60345a988386fc84ba6bc95484008f6362f93160ef3e5635b8583106106a357505061064e935082010185610641565b8054838901850152879450869390920191810161068c565b7fffffffffffffffffffffffffffffffffffffffffffffffffffffffffffffff00168582015261064e95151560051b85010192508791506106419050565b7f4e487b71000000000000000000000000000000000000000000000000000000005f52602260045260245ffd5b92607f169261061d565b3461031d57606060031936011261031d5767ffffffffffffffff60043581811161031d576107629036906004016113fb565b9061076b6112d8565b60443591821161031d5761078661078e923690600401611104565b929091612a0d565b905f5b84518110156107c357806fffffffffffffffffffffffffffffffff60406107ba600194896117c8565b51015201610791565b5061021161021f856107e15f9461025a97604051936101bb85611251565b60808201526040519283917f5a3c398700000000000000000000000000000000000000000000000000000000602084015260248301611809565b608060031936011261031d5767ffffffffffffffff60043581811161031d576108489036906004016113fb565b906108516112ee565b9060643590811161031d576102116104ac61025a9461087861043d5f953690600401611104565b60808201526040519283917f08a465f600000000000000000000000000000000000000000000000000000000602084015260248301611575565b3461031d575f60031936011261031d5760206040516001600160a01b037f0000000000000000000000000000000000000000000000000000000000000000168152f35b60a060031936011261031d5767ffffffffffffffff6004351161031d5736602360043501121561031d5767ffffffffffffffff600435600401351161031d5736602460c0600435600401350260043501011161031d5760243567ffffffffffffffff811161031d5761096b9036906004016110d3565b67ffffffffffffffff6044351161031d5760606003196044353603011261031d5760643567ffffffffffffffff811161031d576109ac903690600401611104565b60843567ffffffffffffffff811161031d576109cc9036906004016110d3565b9490937f0000000000000000000000000000000000000000000000000000000000000000610f69576109fc611aa1565b806004356004013503610f41575f5b600435600401358110610c9e5750505060443560040135907fffffffffffffffffffffffffffffffffffffffffffffffffffffffffffffffdd60443536030182121561031d57816044350160048101359067ffffffffffffffff821161031d5760248260071b360391011361031d57610aaf575b6102c461035986865f7f9b779b17422d0df92223018b32b4d1fa46e071723d6817e2486d003becc55f005d6118d2565b6001600160a01b039492947f0000000000000000000000000000000000000000000000000000000000000000163b1561031d57604051947f2a2d80d10000000000000000000000000000000000000000000000000000000086523360048701526060602487015260c486019260443501602481019367ffffffffffffffff60048301351161031d57600482013560071b3603851361031d5760606064890152600482013590529192869260e484019291905f905b60048101358210610c2057505050602091601f19601f865f9787956001600160a01b03610b946024604435016112c4565b16608488015260448035013560a48801526003198787030160448801528186528786013787868286010152011601030181836001600160a01b037f0000000000000000000000000000000000000000000000000000000000000000165af1918215610312576102c49361035993610c11575b829450819350610a7f565b610c1a9061123d565b84610c06565b9195945091926001600160a01b03610c37876112c4565b168152602080870135916001600160a01b03831680930361031d57600492600192820152610c67604089016129fa565b65ffffffffffff8091166040830152610c8260608a016129fa565b1660608201526080809101970193019050889495939291610b63565b610cb3610cac828486611a86565b36916114b8565b604051610cbf816111d8565b5f81526020915f838301525f60408301528281015190606060408201519101515f1a91835283830152604082015260c07fffffffffffffffffffffffffffffffffffffffffffffffffffffffffffffffdc818502600435013603011261031d5760405190610d2c82611221565b610d3f602460c0860260043501016112c4565b808352610d55604460c0870260043501016112c4565b908185850152610d6e606460c0880260043501016112c4565b60408581019190915260043560c08802016084810135606087015260a4810135608087015260c4013560a086015283015183519386015160ff91909116926001600160a01b0383163b1561031d575f6001600160a01b03809460e4948b98849860c460c06040519c8d9b8c9a7fd505accf000000000000000000000000000000000000000000000000000000008c521660048b01523060248b0152608482820260043501013560448b0152026004350101356064880152608487015260a486015260c4850152165af19081610f32575b50610f2857610e4b6129cb565b906001600160a01b0381511690836001600160a01b0381830151166044604051809581937fdd62ed3e00000000000000000000000000000000000000000000000000000000835260048301523060248301525afa918215610312575f92610ef8575b506060015103610ec35750506001905b01610a0b565b805115610ed05780519101fd5b7fa7285689000000000000000000000000000000000000000000000000000000005f5260045ffd5b9091508381813d8311610f21575b610f108183611289565b8101031261031d5751906060610ead565b503d610f06565b5050600190610ebd565b610f3b9061123d565b8a610e3e565b7faaad13f7000000000000000000000000000000000000000000000000000000005f5260045ffd5b7f29a270f5000000000000000000000000000000000000000000000000000000005f5260045ffd5b3461031d575f60031936011261031d5760206040516001600160a01b037f0000000000000000000000000000000000000000000000000000000000000000168152f35b3461031d57610fe236611001565b610fea611aa1565b610ff2611ace565b6103b16102c461039283611b97565b6003199060208282011261031d576004359167ffffffffffffffff831161031d578260a09203011261031d5760040190565b9081518082526020808093019301915f5b828110611052575050505090565b835185529381019392810192600101611044565b93929061107b90606086526060860190611033565b936020948181036020830152602080855192838152019401905f5b8181106110b6575050506110b39394506040818403910152611033565b90565b82516001600160a01b031686529487019491870191600101611096565b9181601f8401121561031d5782359167ffffffffffffffff831161031d576020808501948460051b01011161031d57565b9181601f8401121561031d5782359167ffffffffffffffff831161031d576020838186019501011161031d57565b90601f19601f602080948051918291828752018686015e5f8582860101520116010190565b6020808201906020835283518092526040830192602060408460051b8301019501935f915b84831061118c5750505050505090565b90919293949584806111c8837fffffffffffffffffffffffffffffffffffffffffffffffffffffffffffffffc086600196030187528a51611132565b980193019301919493929061117c565b6060810190811067ffffffffffffffff8211176111f457604052565b7f4e487b71000000000000000000000000000000000000000000000000000000005f52604160045260245ffd5b60c0810190811067ffffffffffffffff8211176111f457604052565b67ffffffffffffffff81116111f457604052565b60a0810190811067ffffffffffffffff8211176111f457604052565b60e0810190811067ffffffffffffffff8211176111f457604052565b90601f601f19910116810190811067ffffffffffffffff8211176111f457604052565b67ffffffffffffffff81116111f45760051b60200190565b35906001600160a01b038216820361031d57565b602435906001600160a01b038216820361031d57565b60443590811515820361031d57565b91909160808184031261031d57604090815191608083019467ffffffffffffffff95848110878211176111f45782528395611337846112c4565b85526020908185013590811161031d57840182601f8201121561031d57803590611360826112ac565b9361136d86519586611289565b828552838501908460608095028401019281841161031d578501915b8383106113ab5750505050508401528181013590830152606090810135910152565b848383031261031d578751906113c0826111d8565b6113c9846112c4565b82526113d68785016112c4565b878301528884013590811515820361031d578288928b89950152815201920191611389565b81601f8201121561031d57803591602091611415846112ac565b936114236040519586611289565b808552838086019160051b8301019280841161031d57848301915b84831061144e5750505050505090565b823567ffffffffffffffff811161031d578691611470848480948901016112fd565b81520192019161143e565b356001600160a01b038116810361031d5790565b35801515810361031d5790565b67ffffffffffffffff81116111f457601f01601f191660200190565b9291926114c48261149c565b916114d26040519384611289565b82948184528183011161031d578281602093845f960137010152565b9060808101916001600160a01b03808251168352602093848301519460808186015285518092528060a086019601925f905b8382106115425750505050506060816040829301516040850152015191015290565b84518051821689528084015182168985015260409081015115159089015260609097019693820193600190910190611520565b91909160209081815260c08101916001600160a01b0385511681830152808501519260a06040840152835180915260e08301918060e08360051b8601019501925f905b8382106115f457505050505060808460406110b3959601516060840152606081015115158284015201519060a0601f1982850301910152611132565b9091929395838061162f837fffffffffffffffffffffffffffffffffffffffffffffffffffffffffffffff208a600196030186528a516114ee565b980192019201909392916115b8565b81601f8201121561031d578051906116558261149c565b926116636040519485611289565b8284526020838301011161031d57815f9260208093018386015e8301015290565b9060208282031261031d57815167ffffffffffffffff811161031d576110b3920161163e565b9080601f8301121561031d578151906020916116c5816112ac565b936116d36040519586611289565b81855260208086019260051b82010192831161031d57602001905b8282106116fc575050505090565b815181529083019083016116ee565b909160608284031261031d5781519167ffffffffffffffff9283811161031d57846117379183016116aa565b9360208083015185811161031d5783019082601f8301121561031d5781519161175f836112ac565b9261176d6040519485611289565b808452828085019160051b8301019185831161031d578301905b8282106117a9575050505093604083015190811161031d576110b392016116aa565b81516001600160a01b038116810361031d578152908301908301611787565b80518210156117dc5760209160051b010190565b7f4e487b71000000000000000000000000000000000000000000000000000000005f52603260045260245ffd5b91909160209081815260c08101916001600160a01b0385511681830152808501519260a06040840152835180915260e08301918060e08360051b8601019501925f905b83821061188857505050505060808460406110b3959601516060840152606081015115158284015201519060a0601f1982850301910152611132565b909192939583806118c3837fffffffffffffffffffffffffffffffffffffffffffffffffffffffffffffff208a600196030186528a516114ee565b9801920192019093929161184c565b91906118dd33612a0d565b907f000000000000000000000000000000000000000000000000000000000000000093845c611a0d576001906001865d7f0000000000000000000000000000000000000000000000000000000000000000610f695761193b836112ac565b926119496040519485611289565b808452601f19611958826112ac565b015f5b8181106119fc5750505f5b8181106119b35750505050905f6119a892945d7f0000000000000000000000000000000000000000000000000000000000000000805c916119aa575b50613a74565b565b5f905d5f6119a2565b806119e05f806119c8610cac8996888a611a86565b602081519101305af46119d96129cb565b9030614012565b6119ea82886117c8565b526119f581876117c8565b5001611966565b80606060208093890101520161195b565b7f3ee5aeb5000000000000000000000000000000000000000000000000000000005f5260045ffd5b9035907fffffffffffffffffffffffffffffffffffffffffffffffffffffffffffffffe18136030182121561031d570180359067ffffffffffffffff821161031d5760200191813603831361031d57565b908210156117dc57611a9d9160051b810190611a35565b9091565b7f9b779b17422d0df92223018b32b4d1fa46e071723d6817e2486d003becc55f00805c611a0d576001905d565b6001600160a01b037f0000000000000000000000000000000000000000000000000000000000000000163303611b0057565b7f089676d5000000000000000000000000000000000000000000000000000000005f523360045260245ffd5b90611b36826112ac565b611b436040519182611289565b828152601f19611b5382946112ac565b0190602036910137565b91908201809211611b6a57565b7f4e487b71000000000000000000000000000000000000000000000000000000005f52601160045260245ffd5b6040810135421161282157611bb9611bb26020830183613ab7565b9050611b2c565b907f000000000000000000000000000000000000000000000000000000000000000080612705575b5f9392935b611bf36020840184613ab7565b90508110156125fd57611c1d81611c18611c106020870187613ab7565b369391613b0b565b6112fd565b946040860151946001600160a01b03875116908415612558575b5f5b60208901515180821015612548575f198101908111611b6a578181036125425760608a01515b611c6d8360208d01516117c8565b51604081015190919015611e2b576001600160a01b03825116611d138c6001600160a01b03602086015116926001600160a01b038a1681145f14611e24576001905b60405191611cbc83611251565b5f8352611cc8816143d8565b602083015260408201526060948592838301526080820152604051809381927f43583be50000000000000000000000000000000000000000000000000000000083526004830161463c565b03815f6001600160a01b037f0000000000000000000000000000000000000000000000000000000000000000165af1928315610312575f93611df2575b505081848614611d96575b5050915b8303611d7c575090600191611d7487876117c8565b525b01611c39565b602001519098506001600160a01b03169250600190611d76565b81611dc4611deb937f000000000000000000000000000000000000000000000000000000000000000061406c565b507f00000000000000000000000000000000000000000000000000000000000000006140b6565b5f81611d5b565b611e12929350803d10611e1d575b611e0a8183611289565b81019061440f565b915050905f80611d50565b503d611e00565b5f90611caf565b6001600160a01b038251168a816001600160a01b038916145f14612200578c91506080611e5991018c611a35565b92611e638d61147b565b90611e896001600160a01b03875116936001600160a01b036020890151169636916114b8565b9188612140578d1580612137575b80612124575b612037575b50915f9184938b611f61967f00000000000000000000000000000000000000000000000000000000000000006001600160a01b038316875280602052604087205c61201c575b5050505b801584146120135750611f0260015b8784614706565b9460405193611f1085611221565b8452306020850152604084015260608301526001608083015260a0820152604051809481927f21457897000000000000000000000000000000000000000000000000000000008352600483016145cb565b0381836001600160a01b037f0000000000000000000000000000000000000000000000000000000000000000165af1801561031257611fa7925f91611fef575b506117c8565b519081848614611fba575b505091611d5f565b81611dc4611fe8937f000000000000000000000000000000000000000000000000000000000000000061406c565b5f81611fb2565b61200b91503d805f833e6120038183611289565b810190614583565b915090611fa1565b611f0290611efb565b6001600160a01b0361202f9316906147e0565b8b855f611ee8565b929093612043906146c2565b926001600160a01b037f0000000000000000000000000000000000000000000000000000000000000000163b1561031d576040517f36c785160000000000000000000000000000000000000000000000000000000081526001600160a01b03918216600482015230602482015293811660448501528a1660648401525f8380608481010381836001600160a01b037f0000000000000000000000000000000000000000000000000000000000000000165af1918215610312578f9394611f61955f94612115575b509193945091611ea2565b61211e9061123d565b5f61210a565b50306001600160a01b0382161415611e9d565b50841515611e97565b5092506001600160a01b037f00000000000000000000000000000000000000000000000000000000000000001691823b1561031d575f8f81946121d2916040519687809481937fae6393290000000000000000000000000000000000000000000000000000000083523089600485016040919493929460608201956001600160a01b0380921683521660208201520152565b03925af1918215610312578f9394611f61955f946121f1575b50611eec565b6121fa9061123d565b5f6121eb565b90918c60208501936001600160a01b03855116908082145f14612447575050612241906001608061226161225961223983890189611a35565b96909861147b565b976001600160a01b03808c51169a51169636916114b8565b938d89614706565b50946001600160a01b037f000000000000000000000000000000000000000000000000000000000000000016968a8c145f1461243f57955b6001600160a01b03604051976122ae89611221565b8a89521660208801526040870152606086015284015260a0830152604051927f4af29ec40000000000000000000000000000000000000000000000000000000084525f8480612301600496878301614512565b038183855af1938415610312575f94612416575b5083948789959495145f1461238257505061237c9250612355817f000000000000000000000000000000000000000000000000000000000000000061406c565b507f00000000000000000000000000000000000000000000000000000000000000006140b6565b91611d5f565b60209392505f6123d695604051968795869485937f15afd4090000000000000000000000000000000000000000000000000000000085528401602090939291936001600160a01b0360408201951681520152565b03925af18015610312576123eb575b5061237c565b602090813d831161240f575b6124018183611289565b8101031261031d575f6123e5565b503d6123f7565b612434919394503d805f833e61242c8183611289565b810190614496565b509392905083612315565b508695612299565b90939194506124d192612462610cac60809485810190611a35565b90604051926124708461126d565b5f845260208401526001600160a01b038c1660408401526060968794878686015284015260a083015260c0820152604051809381927f2bfb780c0000000000000000000000000000000000000000000000000000000083526004830161442a565b03815f6001600160a01b037f0000000000000000000000000000000000000000000000000000000000000000165af1928315610312575f93612520575b505081848614611fba57505091611d5f565b612537929350803d10611e1d57611e0a8183611289565b915050905f8061250e565b5f611c5f565b5092975095505050600101611be6565b60208801518051156117dc5760200151604001511515806125f4575b1561259e576125996125858761147b565b888461259360608b0161148f565b926140cf565b611c37565b6125c8827f000000000000000000000000000000000000000000000000000000000000000061406c565b5061259987837f00000000000000000000000000000000000000000000000000000000000000006140b6565b50321515612574565b5050506126297f0000000000000000000000000000000000000000000000000000000000000000613b58565b916126348351611b2c565b7f0000000000000000000000000000000000000000000000000000000000000000937f0000000000000000000000000000000000000000000000000000000000000000925f5b82518110156126fc576001906001600160a01b038061269983876117c8565b51165f528660205260405f205c816126b184886117c8565b51165f52896020526126c78160405f205c611b5d565b6126d184896117c8565b526126de575b500161267a565b6126e882866117c8565b51165f52856020525f604081205d5f6126d7565b50945092909150565b7f000000000000000000000000000000000000000000000000000000000000000093927f000000000000000000000000000000000000000000000000000000000000000092915f5b61275a6020850185613ab7565b90508110156127a857806127a261277d600193611c18611c1060208a018a613ab7565b60406001600160a01b03612794818451168d61406c565b5082511691015190886140b6565b0161274d565b509390946127b590613b58565b945f5b865181101561281557806001600160a01b036127d66001938a6117c8565b5116805f528660205261280360405f205c826127f18961147b565b6127fd60608b0161148f565b90613bc4565b5f52856020525f604081205d016127b8565b50939192509350611be1565b7fe08b8af0000000000000000000000000000000000000000000000000000000005f5260045ffd5b905f198201918213600116611b6a57565b7f80000000000000000000000000000000000000000000000000000000000000008114611b6a575f190190565b907f000000000000000000000000000000000000000000000000000000000000000090815c7f00000000000000000000000000000000000000000000000000000000000000006128d7815c612849565b907f0000000000000000000000000000000000000000000000000000000000000000915b5f8112156129985750505061290f90612849565b917f0000000000000000000000000000000000000000000000000000000000000000925b5f81121561294857505050506119a890613a74565b61299390825f5261298d60205f83828220015c91828252888152886040916129808a8d8587205c906001600160a01b03891690613d8e565b8484525281205d84613ceb565b5061285a565b612933565b6129c690825f5261298d885f8887602061298087828620015c95868652838352866040958688205c92613bc4565b6128fb565b3d156129f5573d906129dc8261149c565b916129ea6040519384611289565b82523d5f602084013e565b606090565b359065ffffffffffff8216820361031d57565b905f917f00000000000000000000000000000000000000000000000000000000000000006001600160a01b03815c1615612a45575050565b909192505d600190565b6040810135421161282157612a6a611bb26020830183613ab7565b907f0000000000000000000000000000000000000000000000000000000000000000613963575b7f000000000000000000000000000000000000000000000000000000000000000092915f5b612ac36020840184613ab7565b905081101561385e57612ae081611c18611c106020870187613ab7565b606081015190612afa6001600160a01b038251168861406c565b506020810151515f198101908111611b6a575b5f811215612b2057505050600101612ab6565b612b2e8160208401516117c8565b5160208301515190815f19810111611b6a575f198201831461381d575b5f608052826137de576040840151608052876001600160a01b03855116925b604083015115612e0f5750916060612b84612c5c9461147b565b6001600160a01b03612b97838d0161148f565b945116906001600160a01b03885116946040890151857f00000000000000000000000000000000000000000000000000000000000000001580612e07575b80612dfe575b612dec575b505050506001600160a01b0383168103612de5576001905b60405191612c0583611251565b60018352612c12816143d8565b6020830152604082015287828201526080516080820152604051809581927f43583be50000000000000000000000000000000000000000000000000000000083526004830161463c565b03815f6001600160a01b037f0000000000000000000000000000000000000000000000000000000000000000165af1928315610312575f93612dc2575b508315612cce575b50505b81612cc35790612cbe91612cb886886117c8565b5261285a565b612b0d565b9250612cbe9061285a565b612d8c91837f000000000000000000000000000000000000000000000000000000000000000015612d9357612d23917f00000000000000000000000000000000000000000000000000000000000000006140b6565b6001600160a01b03612d3784608051613b4b565b91612d648282167f000000000000000000000000000000000000000000000000000000000000000061406c565b50167f00000000000000000000000000000000000000000000000000000000000000006140b6565b5f80612ca1565b612dbd917f00000000000000000000000000000000000000000000000000000000000000006140b6565b612d23565b612ddc91935060603d606011611e1d57611e0a8183611289565b93915092612c99565b5f90612bf8565b612df5936140cf565b5f808085612be0565b50321515612bdb565b508915612bd5565b6001600160a01b0383511690816001600160a01b038616145f1461336b5750506080612e3c910189611a35565b612e66612e4b8b95939561147b565b946001600160a01b03602081875116960151169236916114b8565b60805190919088871561324a575050604051937f967870920000000000000000000000000000000000000000000000000000000085526001600160a01b03841660048601526020856024816001600160a01b037f0000000000000000000000000000000000000000000000000000000000000000165afa948515610312575f95613216575b5084926001600160a01b037f0000000000000000000000000000000000000000000000000000000000000000163b1561031d576040517fae6393290000000000000000000000000000000000000000000000000000000081526001600160a01b038316600482015230602482015260448101969096525f8680606481010381836001600160a01b037f0000000000000000000000000000000000000000000000000000000000000000165af1958615610312578a5f94612fb69261301699613207575b505b84614706565b5060405192612fc484611221565b835230602084015284604084015260608301526002608083015260a0820152604051809581927f21457897000000000000000000000000000000000000000000000000000000008352600483016145cb565b0381836001600160a01b037f0000000000000000000000000000000000000000000000000000000000000000165af1928315610312575f936131e7575b5092829385155f146130d957613093846001600160a01b0385167f00000000000000000000000000000000000000000000000000000000000000006140b6565b808410806130c6575b6130aa575b50505050612ca4565b6130bd936130b791613b4b565b91614826565b805f80806130a1565b50306001600160a01b038316141561309c565b838194939250106130ed575b505050612ca4565b6130fc60209261317b94613b4b565b90613131826001600160a01b037f00000000000000000000000000000000000000000000000000000000000000001683614826565b60405193849283927f15afd40900000000000000000000000000000000000000000000000000000000845260048401602090939291936001600160a01b0360408201951681520152565b03815f6001600160a01b037f0000000000000000000000000000000000000000000000000000000000000000165af18015610312576131bc575b81816130e5565b602090813d83116131e0575b6131d28183611289565b8101031261031d575f6131b5565b503d6131c8565b6131fc9193503d805f833e6120038183611289565b509092905082613053565b6132109061123d565b5f612fae565b9094506020813d602011613242575b8161323260209383611289565b8101031261031d5751935f612eeb565b3d9150613225565b909294917f00000000000000000000000000000000000000000000000000000000000000001580613358575b61328b575b94612fb65f939261301697612fb0565b9190506001600160a01b037f000000000000000000000000000000000000000000000000000000000000000016946132c46080516146c2565b95803b1561031d576040517f36c785160000000000000000000000000000000000000000000000000000000081526001600160a01b038981166004830152306024830152978816604482015296861660648801525f908790608490829084905af1958615610312578a5f94612fb69261301699613349575b509297509293505061327b565b6133529061123d565b5f61333c565b50306001600160a01b0388161415613276565b9091939260208101926001600160a01b038451168181145f146136545750506133b6945f613448926133c46080936001600160a01b03806133ae87840184611a35565b9c909361147b565b9451169851169936916114b8565b60026133d36080518a8a614706565b9590935f1989018d14861461362357935b6001600160a01b03604051956133f987611221565b8b875216602086015260408501528d606085015283015260a0820152604051809481927f4af29ec400000000000000000000000000000000000000000000000000000000835260048301614512565b0381836001600160a01b037f0000000000000000000000000000000000000000000000000000000000000000165af180156103125761348d925f9161360857506117c8565b5193856135ff575f1988925b018603613550576134cb92507f00000000000000000000000000000000000000000000000000000000000000006147e0565b82156134d8575b50612ca4565b61350c826001600160a01b0383167f00000000000000000000000000000000000000000000000000000000000000006140b6565b7f0000000000000000000000000000000000000000000000000000000000000000156134d25761354a906001600160a01b03612d3784608051613b4b565b5f6134d2565b506040517f15afd4090000000000000000000000000000000000000000000000000000000081526001600160a01b0390921660048301526024820152602081806044810103815f6001600160a01b037f0000000000000000000000000000000000000000000000000000000000000000165af18015610312576135d4575b506134cb565b602090813d83116135f8575b6135ea8183611289565b8101031261031d575f6135ce565b503d6135e0565b5f198592613499565b61361c91503d805f833e61242c8183611289565b9050611fa1565b506001600160a01b037f000000000000000000000000000000000000000000000000000000000000000016936133e4565b90915061368494935060609250886136f19661367560809182810190611a35565b979060408c01519836916114b8565b92604051946136928661126d565b6001865260208601526001600160a01b03871660408601528585015283015260805160a083015260c0820152604051809581927f2bfb780c0000000000000000000000000000000000000000000000000000000083526004830161442a565b03815f6001600160a01b037f0000000000000000000000000000000000000000000000000000000000000000165af1928315610312575f936137bb575b50831561373d575b5050612ca4565b613771836001600160a01b0383167f00000000000000000000000000000000000000000000000000000000000000006140b6565b827f000000000000000000000000000000000000000000000000000000000000000061379e575b50613736565b612d376001600160a01b03916137b394613b4b565b5f8082613798565b6137d591935060603d606011611e1d57611e0a8183611289565b9391509261372e565b6fffffffffffffffffffffffffffffffff608052876001600160a01b0360206138138188015161380d88612849565b906117c8565b5101511692612b6a565b613859856001600160a01b03602084015116611dc4817f000000000000000000000000000000000000000000000000000000000000000061406c565b612b4b565b5061386a915092613b58565b916138758351611b2c565b7f0000000000000000000000000000000000000000000000000000000000000000917f0000000000000000000000000000000000000000000000000000000000000000905f5b865181101561395a57806001600160a01b036138d96001938a6117c8565b5116805f528460205260405f205c876020526138f98160405f205c611b5d565b61390384896117c8565b52613948575b7f0000000000000000000000000000000000000000000000000000000000000000613936575b50016138bb565b5f52856020525f604081205d5f61392f565b805f52846020525f604081205d613909565b50949391925050565b5f907f0000000000000000000000000000000000000000000000000000000000000000937f0000000000000000000000000000000000000000000000000000000000000000925b6139b76020840184613ab7565b9050811015613a0557806139ff6139da600193611c18611c106020890189613ab7565b60406001600160a01b036139f1818451168c61406c565b5082511691015190876140b6565b016139aa565b5093613a1090613b58565b935f5b8551811015613a6a57806001600160a01b03613a31600193896117c8565b5116805f5285602052613a5860405f205c82613a4c8861147b565b6127fd60608a0161148f565b5f52846020525f604081205d01613a13565b5093509050612a91565b478015613ab3577f00000000000000000000000000000000000000000000000000000000000000005c613ab3576001600160a01b036119a89216613fb4565b5050565b9035907fffffffffffffffffffffffffffffffffffffffffffffffffffffffffffffffe18136030182121561031d570180359067ffffffffffffffff821161031d57602001918160051b3603831361031d57565b91908110156117dc5760051b810135907fffffffffffffffffffffffffffffffffffffffffffffffffffffffffffffff818136030182121561031d570190565b91908203918211611b6a57565b90815c613b64816112ac565b613b716040519182611289565b818152613b7d826112ac565b601f196020910136602084013781945f5b848110613b9c575050505050565b600190825f5280845f20015c6001600160a01b03613bba83886117c8565b9116905201613b8e565b929091927f0000000000000000000000000000000000000000000000000000000000000000158015613cae575b15613c09576001600160a01b036119a89416906140cf565b506040517f15afd4090000000000000000000000000000000000000000000000000000000081526001600160a01b03938416600482015260248101919091529160209150829060449082905f907f0000000000000000000000000000000000000000000000000000000000000000165af1801561031257613c875750565b602090813d8311613ca7575b613c9d8183611289565b8101031261031d57565b503d613c93565b50828015613bf157506001600160a01b03807f00000000000000000000000000000000000000000000000000000000000000001690851614613bf1565b6001810191805f5260209183835260405f205c8015155f14613d85575f1990818101835c8380820191828403613d48575b5050505050815c81810192818411611b6a575f93815d835284832001015d5f52525f604081205d600190565b613d55613d6593886147f5565b865f52885f2001015c91856147f5565b835f52808383885f2001015d5f5285855260405f205d5f80808381613d1c565b50505050505f90565b909392935f948315613fac5780613f77575b15613eda57506001600160a01b0390817f000000000000000000000000000000000000000000000000000000000000000016803b1561031d576040517fae6393290000000000000000000000000000000000000000000000000000000081525f8160648183887f000000000000000000000000000000000000000000000000000000000000000016968760048401523060248401528a60448401525af1801561031257613ec7575b508086913b15613ec35781906024604051809481937f2e1a7d4d0000000000000000000000000000000000000000000000000000000083528960048401525af18015613eb857613ea0575b506119a893945016613fb4565b613eaa869161123d565b613eb45784613e93565b8480fd5b6040513d88823e3d90fd5b5080fd5b613ed291965061123d565b5f945f613e48565b91909293506001600160a01b037f000000000000000000000000000000000000000000000000000000000000000016803b1561031d576040517fae6393290000000000000000000000000000000000000000000000000000000081526001600160a01b03938416600482015293909216602484015260448301525f908290606490829084905af1801561031257613f6e5750565b6119a89061123d565b506001600160a01b03807f00000000000000000000000000000000000000000000000000000000000000001690821614613da0565b505050509050565b814710613fe2575f8080936001600160a01b038294165af1613fd46129cb565b9015613fdd5750565b61468b565b50477fcf479181000000000000000000000000000000000000000000000000000000005f5260045260245260445ffd5b9061401d575061468b565b81511580614063575b61402e575090565b6001600160a01b03907f9996b315000000000000000000000000000000000000000000000000000000005f521660045260245ffd5b50803b15614026565b6001810190825f528160205260405f205c155f146140af57805c815f52838160205f20015d60018101809111611b6a57815d5c915f5260205260405f205d600190565b5050505f90565b905f526020526140cb60405f2091825c611b5d565b905d565b9192806143a3575b1561421c5750508047106141f4576001600160a01b03807f00000000000000000000000000000000000000000000000000000000000000001691823b1561031d57604051907fd0e30db00000000000000000000000000000000000000000000000000000000082525f915f8160048185895af18015610312576141dd575b506044602092937f0000000000000000000000000000000000000000000000000000000000000000169461418a838783614826565b8460405196879485937f15afd409000000000000000000000000000000000000000000000000000000008552600485015260248401525af19081156141d15750613c875750565b604051903d90823e3d90fd5b602092506141ea9061123d565b60445f9250614155565b7fa01a9df6000000000000000000000000000000000000000000000000000000005f5260045ffd5b90915f908061422c575b50505050565b6001600160a01b0393847f00000000000000000000000000000000000000000000000000000000000000001694807f00000000000000000000000000000000000000000000000000000000000000001691614286846146c2565b96803b1561031d576040517f36c785160000000000000000000000000000000000000000000000000000000081526001600160a01b039283166004820152848316602482015297821660448901529186161660648701525f908690608490829084905af19485156103125761434b9561438f575b5082936020936040518097819582947f15afd40900000000000000000000000000000000000000000000000000000000845260048401602090939291936001600160a01b0360408201951681520152565b03925af19081156141d15750614364575b808080614226565b602090813d8311614388575b61437a8183611289565b8101031261031d575f61435c565b503d614370565b6020935061439c9061123d565b5f926142fa565b506001600160a01b03807f000000000000000000000000000000000000000000000000000000000000000016908216146140d7565b600211156143e257565b7f4e487b71000000000000000000000000000000000000000000000000000000005f52602160045260245ffd5b9081606091031261031d578051916040602083015192015190565b61010060c06110b393602084528051614442816143d8565b602085015260208101516001600160a01b0380911660408601528060408301511660608601526060820151166080850152608081015160a085015260a08101518285015201519160e0808201520190611132565b909160608284031261031d5781519167ffffffffffffffff9283811161031d57846144c29183016116aa565b93602082015193604083015190811161031d576110b3920161163e565b9081518082526020808093019301915f5b8281106144fe575050505090565b8351855293810193928101926001016144f0565b602081526001600160a01b03808351166020830152602083015116604082015261454b604083015160c0606084015260e08301906144df565b9060608301516080820152608083015160058110156143e2576110b39360a0918284015201519060c0601f1982850301910152611132565b9160608383031261031d5782519260208101519267ffffffffffffffff9384811161031d57816145b49184016116aa565b93604083015190811161031d576110b3920161163e565b602081526001600160a01b0380835116602083015260208301511660408201526040820151606082015261460e606083015160c0608084015260e08301906144df565b90608083015160048110156143e2576110b39360a0918284015201519060c0601f1982850301910152611132565b91909160808060a08301948051614652816143d8565b84526020810151614662816143d8565b60208501526001600160a01b036040820151166040850152606081015160608501520151910152565b80511561469a57602081519101fd5b7fd6bda275000000000000000000000000000000000000000000000000000000005f5260045ffd5b6001600160a01b03908181116146d6571690565b7f6dfcc650000000000000000000000000000000000000000000000000000000005f5260a060045260245260445ffd5b916044929391936001600160a01b03604094859282808551998a9586947fc9c1661b0000000000000000000000000000000000000000000000000000000086521660048501521660248301527f0000000000000000000000000000000000000000000000000000000000000000165afa9384156147d6575f935f9561479f575b505061479c6147958594611b2c565b94856117c8565b52565b809295508194503d83116147cf575b6147b88183611289565b8101031261031d5760208251920151925f80614786565b503d6147ae565b83513d5f823e3d90fd5b905f526020526140cb60405f2091825c613b4b565b5c11156147fe57565b7f0f4ae0e4000000000000000000000000000000000000000000000000000000005f5260045ffd5b90916040519060208201907fa9059cbb0000000000000000000000000000000000000000000000000000000082526001600160a01b038095166024840152604483015260448252608082019082821067ffffffffffffffff8311176111f4576020925f92604052519082855af115610312575f513d6148da57508181163b155b6148ae575050565b7f5274afe7000000000000000000000000000000000000000000000000000000005f521660045260245ffd5b600114156148a656fea2646970667358221220a7147614a5e972c02cd53ba4ed47428541bb0ffaae4cd8a80dd56912e3478e0364736f6c634300081b0033",
  "linkReferences": {},
  "deployedLinkReferences": {}
}